{
	"TrabajoFinalModulo2/SimpleBankTercero.sol": {
		"SimpleBank": {
			"abi": [
				{
					"inputs": [
						{
							"internalType": "uint256",
							"name": "_fee",
							"type": "uint256"
						},
						{
							"internalType": "address",
							"name": "_tesoreria",
							"type": "address"
						}
					],
					"stateMutability": "nonpayable",
					"type": "constructor"
				},
				{
					"anonymous": false,
					"inputs": [
						{
							"indexed": true,
							"internalType": "address",
							"name": "user",
							"type": "address"
						},
						{
							"indexed": false,
							"internalType": "uint256",
							"name": "amount",
							"type": "uint256"
						}
					],
					"name": "Deposit",
					"type": "event"
				},
				{
					"anonymous": false,
					"inputs": [
						{
							"indexed": true,
							"internalType": "address",
							"name": "owner",
							"type": "address"
						},
						{
							"indexed": false,
							"internalType": "uint256",
							"name": "amount",
							"type": "uint256"
						}
					],
					"name": "TreasuryWithdrawal",
					"type": "event"
				},
				{
					"anonymous": false,
					"inputs": [
						{
							"indexed": true,
							"internalType": "address",
							"name": "user",
							"type": "address"
						},
						{
							"indexed": false,
							"internalType": "string",
							"name": "firstName",
							"type": "string"
						},
						{
							"indexed": false,
							"internalType": "string",
							"name": "lastName",
							"type": "string"
						}
					],
					"name": "UserRegistered",
					"type": "event"
				},
				{
					"anonymous": false,
					"inputs": [
						{
							"indexed": true,
							"internalType": "address",
							"name": "user",
							"type": "address"
						},
						{
							"indexed": false,
							"internalType": "uint256",
							"name": "amount",
							"type": "uint256"
						},
						{
							"indexed": false,
							"internalType": "uint256",
							"name": "feeAmount",
							"type": "uint256"
						}
					],
					"name": "Withdrawal",
					"type": "event"
				},
				{
					"inputs": [],
					"name": "deposit",
					"outputs": [],
					"stateMutability": "payable",
					"type": "function"
				},
				{
					"inputs": [],
					"name": "fee",
					"outputs": [
						{
							"internalType": "uint256",
							"name": "",
							"type": "uint256"
						}
					],
					"stateMutability": "view",
					"type": "function"
				},
				{
					"inputs": [],
					"name": "getBalance",
					"outputs": [
						{
							"internalType": "uint256",
							"name": "",
							"type": "uint256"
						}
					],
					"stateMutability": "view",
					"type": "function"
				},
				{
					"inputs": [],
					"name": "owner",
					"outputs": [
						{
							"internalType": "address",
							"name": "",
							"type": "address"
						}
					],
					"stateMutability": "view",
					"type": "function"
				},
				{
					"inputs": [
						{
							"internalType": "string",
							"name": "_firstName",
							"type": "string"
						},
						{
							"internalType": "string",
							"name": "_lastName",
							"type": "string"
						}
					],
					"name": "register",
					"outputs": [],
					"stateMutability": "nonpayable",
					"type": "function"
				},
				{
					"inputs": [],
					"name": "tesoreria",
					"outputs": [
						{
							"internalType": "address",
							"name": "",
							"type": "address"
						}
					],
					"stateMutability": "view",
					"type": "function"
				},
				{
					"inputs": [],
					"name": "tesoreriaBalance",
					"outputs": [
						{
							"internalType": "uint256",
							"name": "",
							"type": "uint256"
						}
					],
					"stateMutability": "view",
					"type": "function"
				},
				{
					"inputs": [
						{
							"internalType": "address",
							"name": "",
							"type": "address"
						}
					],
					"name": "users",
					"outputs": [
						{
							"internalType": "string",
							"name": "firstName",
							"type": "string"
						},
						{
							"internalType": "string",
							"name": "lastName",
							"type": "string"
						},
						{
							"internalType": "uint256",
							"name": "balance",
							"type": "uint256"
						},
						{
							"internalType": "bool",
							"name": "isRegistered",
							"type": "bool"
						}
					],
					"stateMutability": "view",
					"type": "function"
				},
				{
					"inputs": [
						{
							"internalType": "uint256",
							"name": "_amount",
							"type": "uint256"
						}
					],
					"name": "withdraw",
					"outputs": [],
					"stateMutability": "nonpayable",
					"type": "function"
				},
				{
					"inputs": [
						{
							"internalType": "uint256",
							"name": "_amount",
							"type": "uint256"
						}
					],
					"name": "withdrawTreasury",
					"outputs": [],
					"stateMutability": "nonpayable",
					"type": "function"
				}
			],
			"devdoc": {
				"details": "Smart contract para gestionar un banco sencillo donde los usuarios pueden registrarse, depositar y retirar ETH.",
				"kind": "dev",
				"methods": {
					"constructor": {
						"details": "Constructor del contrato",
						"params": {
							"_fee": "El fee en puntos básicos (1% = 100 puntos básicos)",
							"_tesoreria": "La dirección de la tesorería"
						}
					},
					"deposit()": {
						"details": "Deposita ETH en la cuenta del usuario"
					},
					"getBalance()": {
						"details": "Verifica el saldo del usuario",
						"returns": {
							"_0": "El saldo del usuario en wei"
						}
					},
					"register(string,string)": {
						"details": "Registra un nuevo usuario",
						"params": {
							"_firstName": "El primer nombre del usuario",
							"_lastName": "El apellido del usuario"
						}
					},
					"withdraw(uint256)": {
						"details": "Retira ETH de la cuenta del usuario, aplicando un fee",
						"params": {
							"_amount": "La cantidad a retirar (en wei)"
						}
					},
					"withdrawTreasury(uint256)": {
						"details": "Retira fondos de la cuenta de tesorería por el owner",
						"params": {
							"_amount": "La cantidad a retirar de la tesorería (en wei)"
						}
					}
				},
				"title": "SimpleBank",
				"version": 1
			},
			"evm": {
				"assembly": "    /* \"TrabajoFinalModulo2/SimpleBankTercero.sol\":213:4563  contract SimpleBank {... */\n  mstore(0x40, 0x80)\n    /* \"TrabajoFinalModulo2/SimpleBankTercero.sol\":1661:1959  constructor(uint256 _fee, address _tesoreria) {... */\n  callvalue\n  dup1\n  iszero\n  tag_1\n  jumpi\n  0x00\n  dup1\n  revert\ntag_1:\n  pop\n  mload(0x40)\n  sub(codesize, bytecodeSize)\n  dup1\n  bytecodeSize\n  dup4\n  codecopy\n  dup2\n  dup2\n  add\n  0x40\n  mstore\n  dup2\n  add\n  swap1\n  tag_2\n  swap2\n  swap1\n  tag_3\n  jump\t// in\ntag_2:\n    /* \"TrabajoFinalModulo2/SimpleBankTercero.sol\":1748:1749  0 */\n  0x00\n    /* \"TrabajoFinalModulo2/SimpleBankTercero.sol\":1726:1750  _tesoreria != address(0) */\n  0xffffffffffffffffffffffffffffffffffffffff\n  and\n    /* \"TrabajoFinalModulo2/SimpleBankTercero.sol\":1726:1736  _tesoreria */\n  dup2\n    /* \"TrabajoFinalModulo2/SimpleBankTercero.sol\":1726:1750  _tesoreria != address(0) */\n  0xffffffffffffffffffffffffffffffffffffffff\n  and\n  sub\n    /* \"TrabajoFinalModulo2/SimpleBankTercero.sol\":1718:1774  require(_tesoreria != address(0), \"Tesoreria no valida\") */\n  tag_6\n  jumpi\n  mload(0x40)\n  0x08c379a000000000000000000000000000000000000000000000000000000000\n  dup2\n  mstore\n  0x04\n  add\n  tag_7\n  swap1\n  tag_8\n  jump\t// in\ntag_7:\n  mload(0x40)\n  dup1\n  swap2\n  sub\n  swap1\n  revert\ntag_6:\n    /* \"TrabajoFinalModulo2/SimpleBankTercero.sol\":1801:1806  10000 */\n  0x2710\n    /* \"TrabajoFinalModulo2/SimpleBankTercero.sol\":1793:1797  _fee */\n  dup3\n    /* \"TrabajoFinalModulo2/SimpleBankTercero.sol\":1793:1806  _fee <= 10000 */\n  gt\n  iszero\n    /* \"TrabajoFinalModulo2/SimpleBankTercero.sol\":1785:1835  require(_fee <= 10000, \"Fee debe ser <= 10000 pb\") */\n  tag_9\n  jumpi\n  mload(0x40)\n  0x08c379a000000000000000000000000000000000000000000000000000000000\n  dup2\n  mstore\n  0x04\n  add\n  tag_10\n  swap1\n  tag_11\n  jump\t// in\ntag_10:\n  mload(0x40)\n  dup1\n  swap2\n  sub\n  swap1\n  revert\ntag_9:\n    /* \"TrabajoFinalModulo2/SimpleBankTercero.sol\":1856:1866  msg.sender */\n  caller\n    /* \"TrabajoFinalModulo2/SimpleBankTercero.sol\":1848:1853  owner */\n  0x01\n  0x00\n    /* \"TrabajoFinalModulo2/SimpleBankTercero.sol\":1848:1866  owner = msg.sender */\n  0x0100\n  exp\n  dup2\n  sload\n  dup2\n  0xffffffffffffffffffffffffffffffffffffffff\n  mul\n  not\n  and\n  swap1\n  dup4\n  0xffffffffffffffffffffffffffffffffffffffff\n  and\n  mul\n  or\n  swap1\n  sstore\n  pop\n    /* \"TrabajoFinalModulo2/SimpleBankTercero.sol\":1883:1887  _fee */\n  dup2\n    /* \"TrabajoFinalModulo2/SimpleBankTercero.sol\":1877:1880  fee */\n  0x03\n    /* \"TrabajoFinalModulo2/SimpleBankTercero.sol\":1877:1887  fee = _fee */\n  dup2\n  swap1\n  sstore\n  pop\n    /* \"TrabajoFinalModulo2/SimpleBankTercero.sol\":1910:1920  _tesoreria */\n  dup1\n    /* \"TrabajoFinalModulo2/SimpleBankTercero.sol\":1898:1907  tesoreria */\n  0x02\n  0x00\n    /* \"TrabajoFinalModulo2/SimpleBankTercero.sol\":1898:1920  tesoreria = _tesoreria */\n  0x0100\n  exp\n  dup2\n  sload\n  dup2\n  0xffffffffffffffffffffffffffffffffffffffff\n  mul\n  not\n  and\n  swap1\n  dup4\n  0xffffffffffffffffffffffffffffffffffffffff\n  and\n  mul\n  or\n  swap1\n  sstore\n  pop\n    /* \"TrabajoFinalModulo2/SimpleBankTercero.sol\":1950:1951  0 */\n  0x00\n    /* \"TrabajoFinalModulo2/SimpleBankTercero.sol\":1931:1947  tesoreriaBalance */\n  0x04\n    /* \"TrabajoFinalModulo2/SimpleBankTercero.sol\":1931:1951  tesoreriaBalance = 0 */\n  dup2\n  swap1\n  sstore\n  pop\n    /* \"TrabajoFinalModulo2/SimpleBankTercero.sol\":1661:1959  constructor(uint256 _fee, address _tesoreria) {... */\n  pop\n  pop\n    /* \"TrabajoFinalModulo2/SimpleBankTercero.sol\":213:4563  contract SimpleBank {... */\n  jump(tag_12)\n    /* \"#utility.yul\":88:205   */\ntag_14:\n    /* \"#utility.yul\":197:198   */\n  0x00\n    /* \"#utility.yul\":194:195   */\n  dup1\n    /* \"#utility.yul\":187:199   */\n  revert\n    /* \"#utility.yul\":334:411   */\ntag_16:\n    /* \"#utility.yul\":371:378   */\n  0x00\n    /* \"#utility.yul\":400:405   */\n  dup2\n    /* \"#utility.yul\":389:405   */\n  swap1\n  pop\n    /* \"#utility.yul\":334:411   */\n  swap2\n  swap1\n  pop\n  jump\t// out\n    /* \"#utility.yul\":417:539   */\ntag_17:\n    /* \"#utility.yul\":490:514   */\n  tag_34\n    /* \"#utility.yul\":508:513   */\n  dup2\n    /* \"#utility.yul\":490:514   */\n  tag_16\n  jump\t// in\ntag_34:\n    /* \"#utility.yul\":483:488   */\n  dup2\n    /* \"#utility.yul\":480:515   */\n  eq\n    /* \"#utility.yul\":470:533   */\n  tag_35\n  jumpi\n    /* \"#utility.yul\":529:530   */\n  0x00\n    /* \"#utility.yul\":526:527   */\n  dup1\n    /* \"#utility.yul\":519:531   */\n  revert\n    /* \"#utility.yul\":470:533   */\ntag_35:\n    /* \"#utility.yul\":417:539   */\n  pop\n  jump\t// out\n    /* \"#utility.yul\":545:688   */\ntag_18:\n    /* \"#utility.yul\":602:607   */\n  0x00\n    /* \"#utility.yul\":633:639   */\n  dup2\n    /* \"#utility.yul\":627:640   */\n  mload\n    /* \"#utility.yul\":618:640   */\n  swap1\n  pop\n    /* \"#utility.yul\":649:682   */\n  tag_37\n    /* \"#utility.yul\":676:681   */\n  dup2\n    /* \"#utility.yul\":649:682   */\n  tag_17\n  jump\t// in\ntag_37:\n    /* \"#utility.yul\":545:688   */\n  swap3\n  swap2\n  pop\n  pop\n  jump\t// out\n    /* \"#utility.yul\":694:820   */\ntag_19:\n    /* \"#utility.yul\":731:738   */\n  0x00\n    /* \"#utility.yul\":771:813   */\n  0xffffffffffffffffffffffffffffffffffffffff\n    /* \"#utility.yul\":764:769   */\n  dup3\n    /* \"#utility.yul\":760:814   */\n  and\n    /* \"#utility.yul\":749:814   */\n  swap1\n  pop\n    /* \"#utility.yul\":694:820   */\n  swap2\n  swap1\n  pop\n  jump\t// out\n    /* \"#utility.yul\":826:922   */\ntag_20:\n    /* \"#utility.yul\":863:870   */\n  0x00\n    /* \"#utility.yul\":892:916   */\n  tag_40\n    /* \"#utility.yul\":910:915   */\n  dup3\n    /* \"#utility.yul\":892:916   */\n  tag_19\n  jump\t// in\ntag_40:\n    /* \"#utility.yul\":881:916   */\n  swap1\n  pop\n    /* \"#utility.yul\":826:922   */\n  swap2\n  swap1\n  pop\n  jump\t// out\n    /* \"#utility.yul\":928:1050   */\ntag_21:\n    /* \"#utility.yul\":1001:1025   */\n  tag_42\n    /* \"#utility.yul\":1019:1024   */\n  dup2\n    /* \"#utility.yul\":1001:1025   */\n  tag_20\n  jump\t// in\ntag_42:\n    /* \"#utility.yul\":994:999   */\n  dup2\n    /* \"#utility.yul\":991:1026   */\n  eq\n    /* \"#utility.yul\":981:1044   */\n  tag_43\n  jumpi\n    /* \"#utility.yul\":1040:1041   */\n  0x00\n    /* \"#utility.yul\":1037:1038   */\n  dup1\n    /* \"#utility.yul\":1030:1042   */\n  revert\n    /* \"#utility.yul\":981:1044   */\ntag_43:\n    /* \"#utility.yul\":928:1050   */\n  pop\n  jump\t// out\n    /* \"#utility.yul\":1056:1199   */\ntag_22:\n    /* \"#utility.yul\":1113:1118   */\n  0x00\n    /* \"#utility.yul\":1144:1150   */\n  dup2\n    /* \"#utility.yul\":1138:1151   */\n  mload\n    /* \"#utility.yul\":1129:1151   */\n  swap1\n  pop\n    /* \"#utility.yul\":1160:1193   */\n  tag_45\n    /* \"#utility.yul\":1187:1192   */\n  dup2\n    /* \"#utility.yul\":1160:1193   */\n  tag_21\n  jump\t// in\ntag_45:\n    /* \"#utility.yul\":1056:1199   */\n  swap3\n  swap2\n  pop\n  pop\n  jump\t// out\n    /* \"#utility.yul\":1205:1712   */\ntag_3:\n    /* \"#utility.yul\":1284:1290   */\n  0x00\n    /* \"#utility.yul\":1292:1298   */\n  dup1\n    /* \"#utility.yul\":1341:1343   */\n  0x40\n    /* \"#utility.yul\":1329:1338   */\n  dup4\n    /* \"#utility.yul\":1320:1327   */\n  dup6\n    /* \"#utility.yul\":1316:1339   */\n  sub\n    /* \"#utility.yul\":1312:1344   */\n  slt\n    /* \"#utility.yul\":1309:1428   */\n  iszero\n  tag_47\n  jumpi\n    /* \"#utility.yul\":1347:1426   */\n  tag_48\n  tag_14\n  jump\t// in\ntag_48:\n    /* \"#utility.yul\":1309:1428   */\ntag_47:\n    /* \"#utility.yul\":1467:1468   */\n  0x00\n    /* \"#utility.yul\":1492:1556   */\n  tag_49\n    /* \"#utility.yul\":1548:1555   */\n  dup6\n    /* \"#utility.yul\":1539:1545   */\n  dup3\n    /* \"#utility.yul\":1528:1537   */\n  dup7\n    /* \"#utility.yul\":1524:1546   */\n  add\n    /* \"#utility.yul\":1492:1556   */\n  tag_18\n  jump\t// in\ntag_49:\n    /* \"#utility.yul\":1482:1556   */\n  swap3\n  pop\n    /* \"#utility.yul\":1438:1566   */\n  pop\n    /* \"#utility.yul\":1605:1607   */\n  0x20\n    /* \"#utility.yul\":1631:1695   */\n  tag_50\n    /* \"#utility.yul\":1687:1694   */\n  dup6\n    /* \"#utility.yul\":1678:1684   */\n  dup3\n    /* \"#utility.yul\":1667:1676   */\n  dup7\n    /* \"#utility.yul\":1663:1685   */\n  add\n    /* \"#utility.yul\":1631:1695   */\n  tag_22\n  jump\t// in\ntag_50:\n    /* \"#utility.yul\":1621:1695   */\n  swap2\n  pop\n    /* \"#utility.yul\":1576:1705   */\n  pop\n    /* \"#utility.yul\":1205:1712   */\n  swap3\n  pop\n  swap3\n  swap1\n  pop\n  jump\t// out\n    /* \"#utility.yul\":1718:1887   */\ntag_23:\n    /* \"#utility.yul\":1802:1813   */\n  0x00\n    /* \"#utility.yul\":1836:1842   */\n  dup3\n    /* \"#utility.yul\":1831:1834   */\n  dup3\n    /* \"#utility.yul\":1824:1843   */\n  mstore\n    /* \"#utility.yul\":1876:1880   */\n  0x20\n    /* \"#utility.yul\":1871:1874   */\n  dup3\n    /* \"#utility.yul\":1867:1881   */\n  add\n    /* \"#utility.yul\":1852:1881   */\n  swap1\n  pop\n    /* \"#utility.yul\":1718:1887   */\n  swap3\n  swap2\n  pop\n  pop\n  jump\t// out\n    /* \"#utility.yul\":1893:2062   */\ntag_24:\n    /* \"#utility.yul\":2033:2054   */\n  0x5465736f7265726961206e6f2076616c69646100000000000000000000000000\n    /* \"#utility.yul\":2029:2030   */\n  0x00\n    /* \"#utility.yul\":2021:2027   */\n  dup3\n    /* \"#utility.yul\":2017:2031   */\n  add\n    /* \"#utility.yul\":2010:2055   */\n  mstore\n    /* \"#utility.yul\":1893:2062   */\n  pop\n  jump\t// out\n    /* \"#utility.yul\":2068:2434   */\ntag_25:\n    /* \"#utility.yul\":2210:2213   */\n  0x00\n    /* \"#utility.yul\":2231:2298   */\n  tag_54\n    /* \"#utility.yul\":2295:2297   */\n  0x13\n    /* \"#utility.yul\":2290:2293   */\n  dup4\n    /* \"#utility.yul\":2231:2298   */\n  tag_23\n  jump\t// in\ntag_54:\n    /* \"#utility.yul\":2224:2298   */\n  swap2\n  pop\n    /* \"#utility.yul\":2307:2400   */\n  tag_55\n    /* \"#utility.yul\":2396:2399   */\n  dup3\n    /* \"#utility.yul\":2307:2400   */\n  tag_24\n  jump\t// in\ntag_55:\n    /* \"#utility.yul\":2425:2427   */\n  0x20\n    /* \"#utility.yul\":2420:2423   */\n  dup3\n    /* \"#utility.yul\":2416:2428   */\n  add\n    /* \"#utility.yul\":2409:2428   */\n  swap1\n  pop\n    /* \"#utility.yul\":2068:2434   */\n  swap2\n  swap1\n  pop\n  jump\t// out\n    /* \"#utility.yul\":2440:2859   */\ntag_8:\n    /* \"#utility.yul\":2606:2610   */\n  0x00\n    /* \"#utility.yul\":2644:2646   */\n  0x20\n    /* \"#utility.yul\":2633:2642   */\n  dup3\n    /* \"#utility.yul\":2629:2647   */\n  add\n    /* \"#utility.yul\":2621:2647   */\n  swap1\n  pop\n    /* \"#utility.yul\":2693:2702   */\n  dup2\n    /* \"#utility.yul\":2687:2691   */\n  dup2\n    /* \"#utility.yul\":2683:2703   */\n  sub\n    /* \"#utility.yul\":2679:2680   */\n  0x00\n    /* \"#utility.yul\":2668:2677   */\n  dup4\n    /* \"#utility.yul\":2664:2681   */\n  add\n    /* \"#utility.yul\":2657:2704   */\n  mstore\n    /* \"#utility.yul\":2721:2852   */\n  tag_57\n    /* \"#utility.yul\":2847:2851   */\n  dup2\n    /* \"#utility.yul\":2721:2852   */\n  tag_25\n  jump\t// in\ntag_57:\n    /* \"#utility.yul\":2713:2852   */\n  swap1\n  pop\n    /* \"#utility.yul\":2440:2859   */\n  swap2\n  swap1\n  pop\n  jump\t// out\n    /* \"#utility.yul\":2865:3039   */\ntag_26:\n    /* \"#utility.yul\":3005:3031   */\n  0x466565206465626520736572203c3d2031303030302070620000000000000000\n    /* \"#utility.yul\":3001:3002   */\n  0x00\n    /* \"#utility.yul\":2993:2999   */\n  dup3\n    /* \"#utility.yul\":2989:3003   */\n  add\n    /* \"#utility.yul\":2982:3032   */\n  mstore\n    /* \"#utility.yul\":2865:3039   */\n  pop\n  jump\t// out\n    /* \"#utility.yul\":3045:3411   */\ntag_27:\n    /* \"#utility.yul\":3187:3190   */\n  0x00\n    /* \"#utility.yul\":3208:3275   */\n  tag_60\n    /* \"#utility.yul\":3272:3274   */\n  0x18\n    /* \"#utility.yul\":3267:3270   */\n  dup4\n    /* \"#utility.yul\":3208:3275   */\n  tag_23\n  jump\t// in\ntag_60:\n    /* \"#utility.yul\":3201:3275   */\n  swap2\n  pop\n    /* \"#utility.yul\":3284:3377   */\n  tag_61\n    /* \"#utility.yul\":3373:3376   */\n  dup3\n    /* \"#utility.yul\":3284:3377   */\n  tag_26\n  jump\t// in\ntag_61:\n    /* \"#utility.yul\":3402:3404   */\n  0x20\n    /* \"#utility.yul\":3397:3400   */\n  dup3\n    /* \"#utility.yul\":3393:3405   */\n  add\n    /* \"#utility.yul\":3386:3405   */\n  swap1\n  pop\n    /* \"#utility.yul\":3045:3411   */\n  swap2\n  swap1\n  pop\n  jump\t// out\n    /* \"#utility.yul\":3417:3836   */\ntag_11:\n    /* \"#utility.yul\":3583:3587   */\n  0x00\n    /* \"#utility.yul\":3621:3623   */\n  0x20\n    /* \"#utility.yul\":3610:3619   */\n  dup3\n    /* \"#utility.yul\":3606:3624   */\n  add\n    /* \"#utility.yul\":3598:3624   */\n  swap1\n  pop\n    /* \"#utility.yul\":3670:3679   */\n  dup2\n    /* \"#utility.yul\":3664:3668   */\n  dup2\n    /* \"#utility.yul\":3660:3680   */\n  sub\n    /* \"#utility.yul\":3656:3657   */\n  0x00\n    /* \"#utility.yul\":3645:3654   */\n  dup4\n    /* \"#utility.yul\":3641:3658   */\n  add\n    /* \"#utility.yul\":3634:3681   */\n  mstore\n    /* \"#utility.yul\":3698:3829   */\n  tag_63\n    /* \"#utility.yul\":3824:3828   */\n  dup2\n    /* \"#utility.yul\":3698:3829   */\n  tag_27\n  jump\t// in\ntag_63:\n    /* \"#utility.yul\":3690:3829   */\n  swap1\n  pop\n    /* \"#utility.yul\":3417:3836   */\n  swap2\n  swap1\n  pop\n  jump\t// out\n    /* \"TrabajoFinalModulo2/SimpleBankTercero.sol\":213:4563  contract SimpleBank {... */\ntag_12:\n  dataSize(sub_0)\n  dup1\n  dataOffset(sub_0)\n  0x00\n  codecopy\n  0x00\n  return\nstop\n\nsub_0: assembly {\n        /* \"TrabajoFinalModulo2/SimpleBankTercero.sol\":213:4563  contract SimpleBank {... */\n      mstore(0x40, 0x80)\n      jumpi(tag_1, lt(calldatasize, 0x04))\n      shr(0xe0, calldataload(0x00))\n      dup1\n      0x8da5cb5b\n      gt\n      tag_12\n      jumpi\n      dup1\n      0x8da5cb5b\n      eq\n      tag_7\n      jumpi\n      dup1\n      0xa87430ba\n      eq\n      tag_8\n      jumpi\n      dup1\n      0xd0e30db0\n      eq\n      tag_9\n      jumpi\n      dup1\n      0xddca3f43\n      eq\n      tag_10\n      jumpi\n      dup1\n      0xe933dc54\n      eq\n      tag_11\n      jumpi\n      jump(tag_1)\n    tag_12:\n      dup1\n      0x11f1fc99\n      eq\n      tag_2\n      jumpi\n      dup1\n      0x12065fe0\n      eq\n      tag_3\n      jumpi\n      dup1\n      0x229dfe4a\n      eq\n      tag_4\n      jumpi\n      dup1\n      0x2e1a7d4d\n      eq\n      tag_5\n      jumpi\n      dup1\n      0x3ffbd47f\n      eq\n      tag_6\n      jumpi\n    tag_1:\n      0x00\n      dup1\n      revert\n        /* \"TrabajoFinalModulo2/SimpleBankTercero.sol\":4213:4560  function withdrawTreasury(uint256 _amount) external onlyOwner {... */\n    tag_2:\n      callvalue\n      dup1\n      iszero\n      tag_13\n      jumpi\n      0x00\n      dup1\n      revert\n    tag_13:\n      pop\n      tag_14\n      0x04\n      dup1\n      calldatasize\n      sub\n      dup2\n      add\n      swap1\n      tag_15\n      swap2\n      swap1\n      tag_16\n      jump\t// in\n    tag_15:\n      tag_17\n      jump\t// in\n    tag_14:\n      stop\n        /* \"TrabajoFinalModulo2/SimpleBankTercero.sol\":3129:3249  function getBalance() external view onlyRegistered returns (uint256) {... */\n    tag_3:\n      callvalue\n      dup1\n      iszero\n      tag_18\n      jumpi\n      0x00\n      dup1\n      revert\n    tag_18:\n      pop\n      tag_19\n      tag_20\n      jump\t// in\n    tag_19:\n      mload(0x40)\n      tag_21\n      swap2\n      swap1\n      tag_22\n      jump\t// in\n    tag_21:\n      mload(0x40)\n      dup1\n      swap2\n      sub\n      swap1\n      return\n        /* \"TrabajoFinalModulo2/SimpleBankTercero.sol\":773:804  uint256 public tesoreriaBalance */\n    tag_4:\n      callvalue\n      dup1\n      iszero\n      tag_23\n      jumpi\n      0x00\n      dup1\n      revert\n    tag_23:\n      pop\n      tag_24\n      tag_25\n      jump\t// in\n    tag_24:\n      mload(0x40)\n      tag_26\n      swap2\n      swap1\n      tag_22\n      jump\t// in\n    tag_26:\n      mload(0x40)\n      dup1\n      swap2\n      sub\n      swap1\n      return\n        /* \"TrabajoFinalModulo2/SimpleBankTercero.sol\":3396:4049  function withdraw(uint256 _amount) external onlyRegistered {... */\n    tag_5:\n      callvalue\n      dup1\n      iszero\n      tag_27\n      jumpi\n      0x00\n      dup1\n      revert\n    tag_27:\n      pop\n      tag_28\n      0x04\n      dup1\n      calldatasize\n      sub\n      dup2\n      add\n      swap1\n      tag_29\n      swap2\n      swap1\n      tag_16\n      jump\t// in\n    tag_29:\n      tag_30\n      jump\t// in\n    tag_28:\n      stop\n        /* \"TrabajoFinalModulo2/SimpleBankTercero.sol\":2128:2711  function register(string calldata _firstName, string calldata _lastName) external {... */\n    tag_6:\n      callvalue\n      dup1\n      iszero\n      tag_31\n      jumpi\n      0x00\n      dup1\n      revert\n    tag_31:\n      pop\n      tag_32\n      0x04\n      dup1\n      calldatasize\n      sub\n      dup2\n      add\n      swap1\n      tag_33\n      swap2\n      swap1\n      tag_34\n      jump\t// in\n    tag_33:\n      tag_35\n      jump\t// in\n    tag_32:\n      stop\n        /* \"TrabajoFinalModulo2/SimpleBankTercero.sol\":547:567  address public owner */\n    tag_7:\n      callvalue\n      dup1\n      iszero\n      tag_36\n      jumpi\n      0x00\n      dup1\n      revert\n    tag_36:\n      pop\n      tag_37\n      tag_38\n      jump\t// in\n    tag_37:\n      mload(0x40)\n      tag_39\n      swap2\n      swap1\n      tag_40\n      jump\t// in\n    tag_39:\n      mload(0x40)\n      dup1\n      swap2\n      sub\n      swap1\n      return\n        /* \"TrabajoFinalModulo2/SimpleBankTercero.sol\":458:495  mapping(address => User) public users */\n    tag_8:\n      callvalue\n      dup1\n      iszero\n      tag_41\n      jumpi\n      0x00\n      dup1\n      revert\n    tag_41:\n      pop\n      tag_42\n      0x04\n      dup1\n      calldatasize\n      sub\n      dup2\n      add\n      swap1\n      tag_43\n      swap2\n      swap1\n      tag_44\n      jump\t// in\n    tag_43:\n      tag_45\n      jump\t// in\n    tag_42:\n      mload(0x40)\n      tag_46\n      swap5\n      swap4\n      swap3\n      swap2\n      swap1\n      tag_47\n      jump\t// in\n    tag_46:\n      mload(0x40)\n      dup1\n      swap2\n      sub\n      swap1\n      return\n        /* \"TrabajoFinalModulo2/SimpleBankTercero.sol\":2788:3016  function deposit() external payable onlyRegistered {... */\n    tag_9:\n      tag_48\n      tag_49\n      jump\t// in\n    tag_48:\n      stop\n        /* \"TrabajoFinalModulo2/SimpleBankTercero.sol\":703:721  uint256 public fee */\n    tag_10:\n      callvalue\n      dup1\n      iszero\n      tag_50\n      jumpi\n      0x00\n      dup1\n      revert\n    tag_50:\n      pop\n      tag_51\n      tag_52\n      jump\t// in\n    tag_51:\n      mload(0x40)\n      tag_53\n      swap2\n      swap1\n      tag_22\n      jump\t// in\n    tag_53:\n      mload(0x40)\n      dup1\n      swap2\n      sub\n      swap1\n      return\n        /* \"TrabajoFinalModulo2/SimpleBankTercero.sol\":612:636  address public tesoreria */\n    tag_11:\n      callvalue\n      dup1\n      iszero\n      tag_54\n      jumpi\n      0x00\n      dup1\n      revert\n    tag_54:\n      pop\n      tag_55\n      tag_56\n      jump\t// in\n    tag_55:\n      mload(0x40)\n      tag_57\n      swap2\n      swap1\n      tag_40\n      jump\t// in\n    tag_57:\n      mload(0x40)\n      dup1\n      swap2\n      sub\n      swap1\n      return\n        /* \"TrabajoFinalModulo2/SimpleBankTercero.sol\":4213:4560  function withdrawTreasury(uint256 _amount) external onlyOwner {... */\n    tag_17:\n        /* \"TrabajoFinalModulo2/SimpleBankTercero.sol\":1404:1409  owner */\n      0x01\n      0x00\n      swap1\n      sload\n      swap1\n      0x0100\n      exp\n      swap1\n      div\n      0xffffffffffffffffffffffffffffffffffffffff\n      and\n        /* \"TrabajoFinalModulo2/SimpleBankTercero.sol\":1390:1409  msg.sender == owner */\n      0xffffffffffffffffffffffffffffffffffffffff\n      and\n        /* \"TrabajoFinalModulo2/SimpleBankTercero.sol\":1390:1400  msg.sender */\n      caller\n        /* \"TrabajoFinalModulo2/SimpleBankTercero.sol\":1390:1409  msg.sender == owner */\n      0xffffffffffffffffffffffffffffffffffffffff\n      and\n      eq\n        /* \"TrabajoFinalModulo2/SimpleBankTercero.sol\":1382:1447  require(msg.sender == owner, \"Only owner can call this function\") */\n      tag_59\n      jumpi\n      mload(0x40)\n      0x08c379a000000000000000000000000000000000000000000000000000000000\n      dup2\n      mstore\n      0x04\n      add\n      tag_60\n      swap1\n      tag_61\n      jump\t// in\n    tag_60:\n      mload(0x40)\n      dup1\n      swap2\n      sub\n      swap1\n      revert\n    tag_59:\n        /* \"TrabajoFinalModulo2/SimpleBankTercero.sol\":4304:4305  0 */\n      0x00\n        /* \"TrabajoFinalModulo2/SimpleBankTercero.sol\":4294:4301  _amount */\n      dup2\n        /* \"TrabajoFinalModulo2/SimpleBankTercero.sol\":4294:4305  _amount > 0 */\n      gt\n        /* \"TrabajoFinalModulo2/SimpleBankTercero.sol\":4286:4337  require(_amount > 0, \"Monto debe ser mayor a cero\") */\n      tag_63\n      jumpi\n      mload(0x40)\n      0x08c379a000000000000000000000000000000000000000000000000000000000\n      dup2\n      mstore\n      0x04\n      add\n      tag_64\n      swap1\n      tag_65\n      jump\t// in\n    tag_64:\n      mload(0x40)\n      dup1\n      swap2\n      sub\n      swap1\n      revert\n    tag_63:\n        /* \"TrabajoFinalModulo2/SimpleBankTercero.sol\":4376:4383  _amount */\n      dup1\n        /* \"TrabajoFinalModulo2/SimpleBankTercero.sol\":4356:4372  tesoreriaBalance */\n      sload(0x04)\n        /* \"TrabajoFinalModulo2/SimpleBankTercero.sol\":4356:4383  tesoreriaBalance >= _amount */\n      lt\n      iszero\n        /* \"TrabajoFinalModulo2/SimpleBankTercero.sol\":4348:4419  require(tesoreriaBalance >= _amount, \"Saldo insuficiente en Tesoreria\") */\n      tag_66\n      jumpi\n      mload(0x40)\n      0x08c379a000000000000000000000000000000000000000000000000000000000\n      dup2\n      mstore\n      0x04\n      add\n      tag_67\n      swap1\n      tag_68\n      jump\t// in\n    tag_67:\n      mload(0x40)\n      dup1\n      swap2\n      sub\n      swap1\n      revert\n    tag_66:\n        /* \"TrabajoFinalModulo2/SimpleBankTercero.sol\":4452:4459  _amount */\n      dup1\n        /* \"TrabajoFinalModulo2/SimpleBankTercero.sol\":4432:4448  tesoreriaBalance */\n      0x04\n      0x00\n        /* \"TrabajoFinalModulo2/SimpleBankTercero.sol\":4432:4459  tesoreriaBalance -= _amount */\n      dup3\n      dup3\n      sload\n      tag_69\n      swap2\n      swap1\n      tag_70\n      jump\t// in\n    tag_69:\n      swap3\n      pop\n      pop\n      dup2\n      swap1\n      sstore\n      pop\n        /* \"TrabajoFinalModulo2/SimpleBankTercero.sol\":4478:4483  owner */\n      0x01\n      0x00\n      swap1\n      sload\n      swap1\n      0x0100\n      exp\n      swap1\n      div\n      0xffffffffffffffffffffffffffffffffffffffff\n      and\n        /* \"TrabajoFinalModulo2/SimpleBankTercero.sol\":4470:4493  payable(owner).transfer */\n      0xffffffffffffffffffffffffffffffffffffffff\n      and\n        /* \"TrabajoFinalModulo2/SimpleBankTercero.sol\":4470:4502  payable(owner).transfer(_amount) */\n      0x08fc\n        /* \"TrabajoFinalModulo2/SimpleBankTercero.sol\":4494:4501  _amount */\n      dup3\n        /* \"TrabajoFinalModulo2/SimpleBankTercero.sol\":4470:4502  payable(owner).transfer(_amount) */\n      swap1\n      dup2\n      iszero\n      mul\n      swap1\n      mload(0x40)\n      0x00\n      mload(0x40)\n      dup1\n      dup4\n      sub\n      dup2\n      dup6\n      dup9\n      dup9\n      call\n      swap4\n      pop\n      pop\n      pop\n      pop\n      iszero\n      dup1\n      iszero\n      tag_72\n      jumpi\n      returndatasize\n      0x00\n      dup1\n      returndatacopy\n      revert(0x00, returndatasize)\n    tag_72:\n      pop\n        /* \"TrabajoFinalModulo2/SimpleBankTercero.sol\":4537:4542  owner */\n      0x01\n      0x00\n      swap1\n      sload\n      swap1\n      0x0100\n      exp\n      swap1\n      div\n      0xffffffffffffffffffffffffffffffffffffffff\n      and\n        /* \"TrabajoFinalModulo2/SimpleBankTercero.sol\":4518:4552  TreasuryWithdrawal(owner, _amount) */\n      0xffffffffffffffffffffffffffffffffffffffff\n      and\n      0x233c84dc0c19fbf51f9fa92214ffd8a59f512e0098bff5827455d02e401221c0\n        /* \"TrabajoFinalModulo2/SimpleBankTercero.sol\":4544:4551  _amount */\n      dup3\n        /* \"TrabajoFinalModulo2/SimpleBankTercero.sol\":4518:4552  TreasuryWithdrawal(owner, _amount) */\n      mload(0x40)\n      tag_73\n      swap2\n      swap1\n      tag_22\n      jump\t// in\n    tag_73:\n      mload(0x40)\n      dup1\n      swap2\n      sub\n      swap1\n      log2\n        /* \"TrabajoFinalModulo2/SimpleBankTercero.sol\":4213:4560  function withdrawTreasury(uint256 _amount) external onlyOwner {... */\n      pop\n      jump\t// out\n        /* \"TrabajoFinalModulo2/SimpleBankTercero.sol\":3129:3249  function getBalance() external view onlyRegistered returns (uint256) {... */\n    tag_20:\n        /* \"TrabajoFinalModulo2/SimpleBankTercero.sol\":3189:3196  uint256 */\n      0x00\n        /* \"TrabajoFinalModulo2/SimpleBankTercero.sol\":1220:1225  users */\n      dup1\n        /* \"TrabajoFinalModulo2/SimpleBankTercero.sol\":1220:1237  users[msg.sender] */\n      0x00\n        /* \"TrabajoFinalModulo2/SimpleBankTercero.sol\":1226:1236  msg.sender */\n      caller\n        /* \"TrabajoFinalModulo2/SimpleBankTercero.sol\":1220:1237  users[msg.sender] */\n      0xffffffffffffffffffffffffffffffffffffffff\n      and\n      0xffffffffffffffffffffffffffffffffffffffff\n      and\n      dup2\n      mstore\n      0x20\n      add\n      swap1\n      dup2\n      mstore\n      0x20\n      add\n      0x00\n      keccak256\n        /* \"TrabajoFinalModulo2/SimpleBankTercero.sol\":1220:1250  users[msg.sender].isRegistered */\n      0x03\n      add\n      0x00\n      swap1\n      sload\n      swap1\n      0x0100\n      exp\n      swap1\n      div\n      0xff\n      and\n        /* \"TrabajoFinalModulo2/SimpleBankTercero.sol\":1212:1277  require(users[msg.sender].isRegistered, \"User is not registered\") */\n      tag_75\n      jumpi\n      mload(0x40)\n      0x08c379a000000000000000000000000000000000000000000000000000000000\n      dup2\n      mstore\n      0x04\n      add\n      tag_76\n      swap1\n      tag_77\n      jump\t// in\n    tag_76:\n      mload(0x40)\n      dup1\n      swap2\n      sub\n      swap1\n      revert\n    tag_75:\n        /* \"TrabajoFinalModulo2/SimpleBankTercero.sol\":3216:3221  users */\n      0x00\n        /* \"TrabajoFinalModulo2/SimpleBankTercero.sol\":3216:3233  users[msg.sender] */\n      dup1\n        /* \"TrabajoFinalModulo2/SimpleBankTercero.sol\":3222:3232  msg.sender */\n      caller\n        /* \"TrabajoFinalModulo2/SimpleBankTercero.sol\":3216:3233  users[msg.sender] */\n      0xffffffffffffffffffffffffffffffffffffffff\n      and\n      0xffffffffffffffffffffffffffffffffffffffff\n      and\n      dup2\n      mstore\n      0x20\n      add\n      swap1\n      dup2\n      mstore\n      0x20\n      add\n      0x00\n      keccak256\n        /* \"TrabajoFinalModulo2/SimpleBankTercero.sol\":3216:3241  users[msg.sender].balance */\n      0x02\n      add\n      sload\n        /* \"TrabajoFinalModulo2/SimpleBankTercero.sol\":3209:3241  return users[msg.sender].balance */\n      swap1\n      pop\n        /* \"TrabajoFinalModulo2/SimpleBankTercero.sol\":3129:3249  function getBalance() external view onlyRegistered returns (uint256) {... */\n      swap1\n      jump\t// out\n        /* \"TrabajoFinalModulo2/SimpleBankTercero.sol\":773:804  uint256 public tesoreriaBalance */\n    tag_25:\n      sload(0x04)\n      dup2\n      jump\t// out\n        /* \"TrabajoFinalModulo2/SimpleBankTercero.sol\":3396:4049  function withdraw(uint256 _amount) external onlyRegistered {... */\n    tag_30:\n        /* \"TrabajoFinalModulo2/SimpleBankTercero.sol\":1220:1225  users */\n      0x00\n        /* \"TrabajoFinalModulo2/SimpleBankTercero.sol\":1220:1237  users[msg.sender] */\n      dup1\n        /* \"TrabajoFinalModulo2/SimpleBankTercero.sol\":1226:1236  msg.sender */\n      caller\n        /* \"TrabajoFinalModulo2/SimpleBankTercero.sol\":1220:1237  users[msg.sender] */\n      0xffffffffffffffffffffffffffffffffffffffff\n      and\n      0xffffffffffffffffffffffffffffffffffffffff\n      and\n      dup2\n      mstore\n      0x20\n      add\n      swap1\n      dup2\n      mstore\n      0x20\n      add\n      0x00\n      keccak256\n        /* \"TrabajoFinalModulo2/SimpleBankTercero.sol\":1220:1250  users[msg.sender].isRegistered */\n      0x03\n      add\n      0x00\n      swap1\n      sload\n      swap1\n      0x0100\n      exp\n      swap1\n      div\n      0xff\n      and\n        /* \"TrabajoFinalModulo2/SimpleBankTercero.sol\":1212:1277  require(users[msg.sender].isRegistered, \"User is not registered\") */\n      tag_80\n      jumpi\n      mload(0x40)\n      0x08c379a000000000000000000000000000000000000000000000000000000000\n      dup2\n      mstore\n      0x04\n      add\n      tag_81\n      swap1\n      tag_77\n      jump\t// in\n    tag_81:\n      mload(0x40)\n      dup1\n      swap2\n      sub\n      swap1\n      revert\n    tag_80:\n        /* \"TrabajoFinalModulo2/SimpleBankTercero.sol\":3484:3485  0 */\n      0x00\n        /* \"TrabajoFinalModulo2/SimpleBankTercero.sol\":3474:3481  _amount */\n      dup2\n        /* \"TrabajoFinalModulo2/SimpleBankTercero.sol\":3474:3485  _amount > 0 */\n      gt\n        /* \"TrabajoFinalModulo2/SimpleBankTercero.sol\":3466:3525  require(_amount > 0, \"No se ha ingresado ninguna cantidad\") */\n      tag_83\n      jumpi\n      mload(0x40)\n      0x08c379a000000000000000000000000000000000000000000000000000000000\n      dup2\n      mstore\n      0x04\n      add\n      tag_84\n      swap1\n      tag_85\n      jump\t// in\n    tag_84:\n      mload(0x40)\n      dup1\n      swap2\n      sub\n      swap1\n      revert\n    tag_83:\n        /* \"TrabajoFinalModulo2/SimpleBankTercero.sol\":3573:3580  _amount */\n      dup1\n        /* \"TrabajoFinalModulo2/SimpleBankTercero.sol\":3544:3549  users */\n      0x00\n        /* \"TrabajoFinalModulo2/SimpleBankTercero.sol\":3544:3561  users[msg.sender] */\n      dup1\n        /* \"TrabajoFinalModulo2/SimpleBankTercero.sol\":3550:3560  msg.sender */\n      caller\n        /* \"TrabajoFinalModulo2/SimpleBankTercero.sol\":3544:3561  users[msg.sender] */\n      0xffffffffffffffffffffffffffffffffffffffff\n      and\n      0xffffffffffffffffffffffffffffffffffffffff\n      and\n      dup2\n      mstore\n      0x20\n      add\n      swap1\n      dup2\n      mstore\n      0x20\n      add\n      0x00\n      keccak256\n        /* \"TrabajoFinalModulo2/SimpleBankTercero.sol\":3544:3569  users[msg.sender].balance */\n      0x02\n      add\n      sload\n        /* \"TrabajoFinalModulo2/SimpleBankTercero.sol\":3544:3580  users[msg.sender].balance >= _amount */\n      lt\n      iszero\n        /* \"TrabajoFinalModulo2/SimpleBankTercero.sol\":3536:3603  require(users[msg.sender].balance >= _amount, \"Saldo insuficiente\") */\n      tag_86\n      jumpi\n      mload(0x40)\n      0x08c379a000000000000000000000000000000000000000000000000000000000\n      dup2\n      mstore\n      0x04\n      add\n      tag_87\n      swap1\n      tag_88\n      jump\t// in\n    tag_87:\n      mload(0x40)\n      dup1\n      swap2\n      sub\n      swap1\n      revert\n    tag_86:\n        /* \"TrabajoFinalModulo2/SimpleBankTercero.sol\":3670:3687  uint256 feeAmount */\n      0x00\n        /* \"TrabajoFinalModulo2/SimpleBankTercero.sol\":3708:3713  10000 */\n      0x2710\n        /* \"TrabajoFinalModulo2/SimpleBankTercero.sol\":3701:3704  fee */\n      sload(0x03)\n        /* \"TrabajoFinalModulo2/SimpleBankTercero.sol\":3691:3698  _amount */\n      dup4\n        /* \"TrabajoFinalModulo2/SimpleBankTercero.sol\":3691:3704  _amount * fee */\n      tag_89\n      swap2\n      swap1\n      tag_90\n      jump\t// in\n    tag_89:\n        /* \"TrabajoFinalModulo2/SimpleBankTercero.sol\":3690:3713  (_amount * fee) / 10000 */\n      tag_91\n      swap2\n      swap1\n      tag_92\n      jump\t// in\n    tag_91:\n        /* \"TrabajoFinalModulo2/SimpleBankTercero.sol\":3670:3713  uint256 feeAmount = (_amount * fee) / 10000 */\n      swap1\n      pop\n        /* \"TrabajoFinalModulo2/SimpleBankTercero.sol\":3724:3741  uint256 netAmount */\n      0x00\n        /* \"TrabajoFinalModulo2/SimpleBankTercero.sol\":3754:3763  feeAmount */\n      dup2\n        /* \"TrabajoFinalModulo2/SimpleBankTercero.sol\":3744:3751  _amount */\n      dup4\n        /* \"TrabajoFinalModulo2/SimpleBankTercero.sol\":3744:3763  _amount - feeAmount */\n      tag_93\n      swap2\n      swap1\n      tag_70\n      jump\t// in\n    tag_93:\n        /* \"TrabajoFinalModulo2/SimpleBankTercero.sol\":3724:3763  uint256 netAmount = _amount - feeAmount */\n      swap1\n      pop\n        /* \"TrabajoFinalModulo2/SimpleBankTercero.sol\":3805:3812  _amount */\n      dup3\n        /* \"TrabajoFinalModulo2/SimpleBankTercero.sol\":3776:3781  users */\n      0x00\n        /* \"TrabajoFinalModulo2/SimpleBankTercero.sol\":3776:3793  users[msg.sender] */\n      dup1\n        /* \"TrabajoFinalModulo2/SimpleBankTercero.sol\":3782:3792  msg.sender */\n      caller\n        /* \"TrabajoFinalModulo2/SimpleBankTercero.sol\":3776:3793  users[msg.sender] */\n      0xffffffffffffffffffffffffffffffffffffffff\n      and\n      0xffffffffffffffffffffffffffffffffffffffff\n      and\n      dup2\n      mstore\n      0x20\n      add\n      swap1\n      dup2\n      mstore\n      0x20\n      add\n      0x00\n      keccak256\n        /* \"TrabajoFinalModulo2/SimpleBankTercero.sol\":3776:3801  users[msg.sender].balance */\n      0x02\n      add\n      0x00\n        /* \"TrabajoFinalModulo2/SimpleBankTercero.sol\":3776:3812  users[msg.sender].balance -= _amount */\n      dup3\n      dup3\n      sload\n      tag_94\n      swap2\n      swap1\n      tag_70\n      jump\t// in\n    tag_94:\n      swap3\n      pop\n      pop\n      dup2\n      swap1\n      sstore\n      pop\n        /* \"TrabajoFinalModulo2/SimpleBankTercero.sol\":3843:3852  feeAmount */\n      dup2\n        /* \"TrabajoFinalModulo2/SimpleBankTercero.sol\":3823:3839  tesoreriaBalance */\n      0x04\n      0x00\n        /* \"TrabajoFinalModulo2/SimpleBankTercero.sol\":3823:3852  tesoreriaBalance += feeAmount */\n      dup3\n      dup3\n      sload\n      tag_95\n      swap2\n      swap1\n      tag_96\n      jump\t// in\n    tag_95:\n      swap3\n      pop\n      pop\n      dup2\n      swap1\n      sstore\n      pop\n        /* \"TrabajoFinalModulo2/SimpleBankTercero.sol\":3952:3962  msg.sender */\n      caller\n        /* \"TrabajoFinalModulo2/SimpleBankTercero.sol\":3944:3972  payable(msg.sender).transfer */\n      0xffffffffffffffffffffffffffffffffffffffff\n      and\n        /* \"TrabajoFinalModulo2/SimpleBankTercero.sol\":3944:3983  payable(msg.sender).transfer(netAmount) */\n      0x08fc\n        /* \"TrabajoFinalModulo2/SimpleBankTercero.sol\":3973:3982  netAmount */\n      dup3\n        /* \"TrabajoFinalModulo2/SimpleBankTercero.sol\":3944:3983  payable(msg.sender).transfer(netAmount) */\n      swap1\n      dup2\n      iszero\n      mul\n      swap1\n      mload(0x40)\n      0x00\n      mload(0x40)\n      dup1\n      dup4\n      sub\n      dup2\n      dup6\n      dup9\n      dup9\n      call\n      swap4\n      pop\n      pop\n      pop\n      pop\n      iszero\n      dup1\n      iszero\n      tag_98\n      jumpi\n      returndatasize\n      0x00\n      dup1\n      returndatacopy\n      revert(0x00, returndatasize)\n    tag_98:\n      pop\n        /* \"TrabajoFinalModulo2/SimpleBankTercero.sol\":4010:4020  msg.sender */\n      caller\n        /* \"TrabajoFinalModulo2/SimpleBankTercero.sol\":3999:4041  Withdrawal(msg.sender, _amount, feeAmount) */\n      0xffffffffffffffffffffffffffffffffffffffff\n      and\n      0xdf273cb619d95419a9cd0ec88123a0538c85064229baa6363788f743fff90deb\n        /* \"TrabajoFinalModulo2/SimpleBankTercero.sol\":4022:4029  _amount */\n      dup5\n        /* \"TrabajoFinalModulo2/SimpleBankTercero.sol\":4031:4040  feeAmount */\n      dup5\n        /* \"TrabajoFinalModulo2/SimpleBankTercero.sol\":3999:4041  Withdrawal(msg.sender, _amount, feeAmount) */\n      mload(0x40)\n      tag_99\n      swap3\n      swap2\n      swap1\n      tag_100\n      jump\t// in\n    tag_99:\n      mload(0x40)\n      dup1\n      swap2\n      sub\n      swap1\n      log2\n        /* \"TrabajoFinalModulo2/SimpleBankTercero.sol\":3455:4049  {... */\n      pop\n      pop\n        /* \"TrabajoFinalModulo2/SimpleBankTercero.sol\":3396:4049  function withdraw(uint256 _amount) external onlyRegistered {... */\n      pop\n      jump\t// out\n        /* \"TrabajoFinalModulo2/SimpleBankTercero.sol\":2128:2711  function register(string calldata _firstName, string calldata _lastName) external {... */\n    tag_35:\n        /* \"TrabajoFinalModulo2/SimpleBankTercero.sol\":2256:2257  0 */\n      0x00\n        /* \"TrabajoFinalModulo2/SimpleBankTercero.sol\":2235:2245  _firstName */\n      dup5\n      dup5\n        /* \"TrabajoFinalModulo2/SimpleBankTercero.sol\":2229:2253  bytes(_firstName).length */\n      swap1\n      pop\n        /* \"TrabajoFinalModulo2/SimpleBankTercero.sol\":2229:2257  bytes(_firstName).length > 0 */\n      gt\n        /* \"TrabajoFinalModulo2/SimpleBankTercero.sol\":2221:2299  require(bytes(_firstName).length > 0, \"El primer nombre no puede estar vacio\") */\n      tag_102\n      jumpi\n      mload(0x40)\n      0x08c379a000000000000000000000000000000000000000000000000000000000\n      dup2\n      mstore\n      0x04\n      add\n      tag_103\n      swap1\n      tag_104\n      jump\t// in\n    tag_103:\n      mload(0x40)\n      dup1\n      swap2\n      sub\n      swap1\n      revert\n    tag_102:\n        /* \"TrabajoFinalModulo2/SimpleBankTercero.sol\":2344:2345  0 */\n      0x00\n        /* \"TrabajoFinalModulo2/SimpleBankTercero.sol\":2324:2333  _lastName */\n      dup3\n      dup3\n        /* \"TrabajoFinalModulo2/SimpleBankTercero.sol\":2318:2341  bytes(_lastName).length */\n      swap1\n      pop\n        /* \"TrabajoFinalModulo2/SimpleBankTercero.sol\":2318:2345  bytes(_lastName).length > 0 */\n      gt\n        /* \"TrabajoFinalModulo2/SimpleBankTercero.sol\":2310:2382  require(bytes(_lastName).length > 0, \"El apellido no puede estar vacio\") */\n      tag_105\n      jumpi\n      mload(0x40)\n      0x08c379a000000000000000000000000000000000000000000000000000000000\n      dup2\n      mstore\n      0x04\n      add\n      tag_106\n      swap1\n      tag_107\n      jump\t// in\n    tag_106:\n      mload(0x40)\n      dup1\n      swap2\n      sub\n      swap1\n      revert\n    tag_105:\n        /* \"TrabajoFinalModulo2/SimpleBankTercero.sol\":2402:2407  users */\n      0x00\n        /* \"TrabajoFinalModulo2/SimpleBankTercero.sol\":2402:2419  users[msg.sender] */\n      dup1\n        /* \"TrabajoFinalModulo2/SimpleBankTercero.sol\":2408:2418  msg.sender */\n      caller\n        /* \"TrabajoFinalModulo2/SimpleBankTercero.sol\":2402:2419  users[msg.sender] */\n      0xffffffffffffffffffffffffffffffffffffffff\n      and\n      0xffffffffffffffffffffffffffffffffffffffff\n      and\n      dup2\n      mstore\n      0x20\n      add\n      swap1\n      dup2\n      mstore\n      0x20\n      add\n      0x00\n      keccak256\n        /* \"TrabajoFinalModulo2/SimpleBankTercero.sol\":2402:2432  users[msg.sender].isRegistered */\n      0x03\n      add\n      0x00\n      swap1\n      sload\n      swap1\n      0x0100\n      exp\n      swap1\n      div\n      0xff\n      and\n        /* \"TrabajoFinalModulo2/SimpleBankTercero.sol\":2401:2432  !users[msg.sender].isRegistered */\n      iszero\n        /* \"TrabajoFinalModulo2/SimpleBankTercero.sol\":2393:2458  require(!users[msg.sender].isRegistered, \"Usuario ya registrado\") */\n      tag_108\n      jumpi\n      mload(0x40)\n      0x08c379a000000000000000000000000000000000000000000000000000000000\n      dup2\n      mstore\n      0x04\n      add\n      tag_109\n      swap1\n      tag_110\n      jump\t// in\n    tag_109:\n      mload(0x40)\n      dup1\n      swap2\n      sub\n      swap1\n      revert\n    tag_108:\n        /* \"TrabajoFinalModulo2/SimpleBankTercero.sol\":2491:2636  User({... */\n      mload(0x40)\n      dup1\n      0x80\n      add\n      0x40\n      mstore\n      dup1\n        /* \"TrabajoFinalModulo2/SimpleBankTercero.sol\":2522:2532  _firstName */\n      dup6\n      dup6\n        /* \"TrabajoFinalModulo2/SimpleBankTercero.sol\":2491:2636  User({... */\n      dup1\n      dup1\n      0x1f\n      add\n      0x20\n      dup1\n      swap2\n      div\n      mul\n      0x20\n      add\n      mload(0x40)\n      swap1\n      dup2\n      add\n      0x40\n      mstore\n      dup1\n      swap4\n      swap3\n      swap2\n      swap1\n      dup2\n      dup2\n      mstore\n      0x20\n      add\n      dup4\n      dup4\n      dup1\n      dup3\n      dup5\n      calldatacopy\n      0x00\n      dup2\n      dup5\n      add\n      mstore\n      not(0x1f)\n      0x1f\n      dup3\n      add\n      and\n      swap1\n      pop\n      dup1\n      dup4\n      add\n      swap3\n      pop\n      pop\n      pop\n      pop\n      pop\n      pop\n      pop\n      dup2\n      mstore\n      0x20\n      add\n        /* \"TrabajoFinalModulo2/SimpleBankTercero.sol\":2557:2566  _lastName */\n      dup4\n      dup4\n        /* \"TrabajoFinalModulo2/SimpleBankTercero.sol\":2491:2636  User({... */\n      dup1\n      dup1\n      0x1f\n      add\n      0x20\n      dup1\n      swap2\n      div\n      mul\n      0x20\n      add\n      mload(0x40)\n      swap1\n      dup2\n      add\n      0x40\n      mstore\n      dup1\n      swap4\n      swap3\n      swap2\n      swap1\n      dup2\n      dup2\n      mstore\n      0x20\n      add\n      dup4\n      dup4\n      dup1\n      dup3\n      dup5\n      calldatacopy\n      0x00\n      dup2\n      dup5\n      add\n      mstore\n      not(0x1f)\n      0x1f\n      dup3\n      add\n      and\n      swap1\n      pop\n      dup1\n      dup4\n      add\n      swap3\n      pop\n      pop\n      pop\n      pop\n      pop\n      pop\n      pop\n      dup2\n      mstore\n      0x20\n      add\n        /* \"TrabajoFinalModulo2/SimpleBankTercero.sol\":2590:2591  0 */\n      0x00\n        /* \"TrabajoFinalModulo2/SimpleBankTercero.sol\":2491:2636  User({... */\n      dup2\n      mstore\n      0x20\n      add\n        /* \"TrabajoFinalModulo2/SimpleBankTercero.sol\":2620:2624  true */\n      0x01\n        /* \"TrabajoFinalModulo2/SimpleBankTercero.sol\":2491:2636  User({... */\n      iszero\n      iszero\n      dup2\n      mstore\n      pop\n        /* \"TrabajoFinalModulo2/SimpleBankTercero.sol\":2471:2476  users */\n      0x00\n        /* \"TrabajoFinalModulo2/SimpleBankTercero.sol\":2471:2488  users[msg.sender] */\n      dup1\n        /* \"TrabajoFinalModulo2/SimpleBankTercero.sol\":2477:2487  msg.sender */\n      caller\n        /* \"TrabajoFinalModulo2/SimpleBankTercero.sol\":2471:2488  users[msg.sender] */\n      0xffffffffffffffffffffffffffffffffffffffff\n      and\n      0xffffffffffffffffffffffffffffffffffffffff\n      and\n      dup2\n      mstore\n      0x20\n      add\n      swap1\n      dup2\n      mstore\n      0x20\n      add\n      0x00\n      keccak256\n        /* \"TrabajoFinalModulo2/SimpleBankTercero.sol\":2471:2636  users[msg.sender] = User({... */\n      0x00\n      dup3\n      add\n      mload\n      dup2\n      0x00\n      add\n      swap1\n      dup2\n      tag_111\n      swap2\n      swap1\n      tag_112\n      jump\t// in\n    tag_111:\n      pop\n      0x20\n      dup3\n      add\n      mload\n      dup2\n      0x01\n      add\n      swap1\n      dup2\n      tag_113\n      swap2\n      swap1\n      tag_112\n      jump\t// in\n    tag_113:\n      pop\n      0x40\n      dup3\n      add\n      mload\n      dup2\n      0x02\n      add\n      sstore\n      0x60\n      dup3\n      add\n      mload\n      dup2\n      0x03\n      add\n      exp(0x0100, 0x00)\n      dup2\n      sload\n      dup2\n      0xff\n      mul\n      not\n      and\n      swap1\n      dup4\n      iszero\n      iszero\n      mul\n      or\n      swap1\n      sstore\n      pop\n      swap1\n      pop\n      pop\n        /* \"TrabajoFinalModulo2/SimpleBankTercero.sol\":2669:2679  msg.sender */\n      caller\n        /* \"TrabajoFinalModulo2/SimpleBankTercero.sol\":2654:2703  UserRegistered(msg.sender, _firstName, _lastName) */\n      0xffffffffffffffffffffffffffffffffffffffff\n      and\n      0x92822564bab8864c3a47b34e8d23fbce5c46234eb5da261f94087b995ac0f33b\n        /* \"TrabajoFinalModulo2/SimpleBankTercero.sol\":2681:2691  _firstName */\n      dup6\n      dup6\n        /* \"TrabajoFinalModulo2/SimpleBankTercero.sol\":2693:2702  _lastName */\n      dup6\n      dup6\n        /* \"TrabajoFinalModulo2/SimpleBankTercero.sol\":2654:2703  UserRegistered(msg.sender, _firstName, _lastName) */\n      mload(0x40)\n      tag_114\n      swap5\n      swap4\n      swap3\n      swap2\n      swap1\n      tag_115\n      jump\t// in\n    tag_114:\n      mload(0x40)\n      dup1\n      swap2\n      sub\n      swap1\n      log2\n        /* \"TrabajoFinalModulo2/SimpleBankTercero.sol\":2128:2711  function register(string calldata _firstName, string calldata _lastName) external {... */\n      pop\n      pop\n      pop\n      pop\n      jump\t// out\n        /* \"TrabajoFinalModulo2/SimpleBankTercero.sol\":547:567  address public owner */\n    tag_38:\n      0x01\n      0x00\n      swap1\n      sload\n      swap1\n      0x0100\n      exp\n      swap1\n      div\n      0xffffffffffffffffffffffffffffffffffffffff\n      and\n      dup2\n      jump\t// out\n        /* \"TrabajoFinalModulo2/SimpleBankTercero.sol\":458:495  mapping(address => User) public users */\n    tag_45:\n      mstore(0x20, 0x00)\n      dup1\n      0x00\n      mstore\n      keccak256(0x00, 0x40)\n      0x00\n      swap2\n      pop\n      swap1\n      pop\n      dup1\n      0x00\n      add\n      dup1\n      sload\n      tag_116\n      swap1\n      tag_117\n      jump\t// in\n    tag_116:\n      dup1\n      0x1f\n      add\n      0x20\n      dup1\n      swap2\n      div\n      mul\n      0x20\n      add\n      mload(0x40)\n      swap1\n      dup2\n      add\n      0x40\n      mstore\n      dup1\n      swap3\n      swap2\n      swap1\n      dup2\n      dup2\n      mstore\n      0x20\n      add\n      dup3\n      dup1\n      sload\n      tag_118\n      swap1\n      tag_117\n      jump\t// in\n    tag_118:\n      dup1\n      iszero\n      tag_119\n      jumpi\n      dup1\n      0x1f\n      lt\n      tag_120\n      jumpi\n      0x0100\n      dup1\n      dup4\n      sload\n      div\n      mul\n      dup4\n      mstore\n      swap2\n      0x20\n      add\n      swap2\n      jump(tag_119)\n    tag_120:\n      dup3\n      add\n      swap2\n      swap1\n      0x00\n      mstore\n      keccak256(0x00, 0x20)\n      swap1\n    tag_121:\n      dup2\n      sload\n      dup2\n      mstore\n      swap1\n      0x01\n      add\n      swap1\n      0x20\n      add\n      dup1\n      dup4\n      gt\n      tag_121\n      jumpi\n      dup3\n      swap1\n      sub\n      0x1f\n      and\n      dup3\n      add\n      swap2\n    tag_119:\n      pop\n      pop\n      pop\n      pop\n      pop\n      swap1\n      dup1\n      0x01\n      add\n      dup1\n      sload\n      tag_122\n      swap1\n      tag_117\n      jump\t// in\n    tag_122:\n      dup1\n      0x1f\n      add\n      0x20\n      dup1\n      swap2\n      div\n      mul\n      0x20\n      add\n      mload(0x40)\n      swap1\n      dup2\n      add\n      0x40\n      mstore\n      dup1\n      swap3\n      swap2\n      swap1\n      dup2\n      dup2\n      mstore\n      0x20\n      add\n      dup3\n      dup1\n      sload\n      tag_123\n      swap1\n      tag_117\n      jump\t// in\n    tag_123:\n      dup1\n      iszero\n      tag_124\n      jumpi\n      dup1\n      0x1f\n      lt\n      tag_125\n      jumpi\n      0x0100\n      dup1\n      dup4\n      sload\n      div\n      mul\n      dup4\n      mstore\n      swap2\n      0x20\n      add\n      swap2\n      jump(tag_124)\n    tag_125:\n      dup3\n      add\n      swap2\n      swap1\n      0x00\n      mstore\n      keccak256(0x00, 0x20)\n      swap1\n    tag_126:\n      dup2\n      sload\n      dup2\n      mstore\n      swap1\n      0x01\n      add\n      swap1\n      0x20\n      add\n      dup1\n      dup4\n      gt\n      tag_126\n      jumpi\n      dup3\n      swap1\n      sub\n      0x1f\n      and\n      dup3\n      add\n      swap2\n    tag_124:\n      pop\n      pop\n      pop\n      pop\n      pop\n      swap1\n      dup1\n      0x02\n      add\n      sload\n      swap1\n      dup1\n      0x03\n      add\n      0x00\n      swap1\n      sload\n      swap1\n      0x0100\n      exp\n      swap1\n      div\n      0xff\n      and\n      swap1\n      pop\n      dup5\n      jump\t// out\n        /* \"TrabajoFinalModulo2/SimpleBankTercero.sol\":2788:3016  function deposit() external payable onlyRegistered {... */\n    tag_49:\n        /* \"TrabajoFinalModulo2/SimpleBankTercero.sol\":1220:1225  users */\n      0x00\n        /* \"TrabajoFinalModulo2/SimpleBankTercero.sol\":1220:1237  users[msg.sender] */\n      dup1\n        /* \"TrabajoFinalModulo2/SimpleBankTercero.sol\":1226:1236  msg.sender */\n      caller\n        /* \"TrabajoFinalModulo2/SimpleBankTercero.sol\":1220:1237  users[msg.sender] */\n      0xffffffffffffffffffffffffffffffffffffffff\n      and\n      0xffffffffffffffffffffffffffffffffffffffff\n      and\n      dup2\n      mstore\n      0x20\n      add\n      swap1\n      dup2\n      mstore\n      0x20\n      add\n      0x00\n      keccak256\n        /* \"TrabajoFinalModulo2/SimpleBankTercero.sol\":1220:1250  users[msg.sender].isRegistered */\n      0x03\n      add\n      0x00\n      swap1\n      sload\n      swap1\n      0x0100\n      exp\n      swap1\n      div\n      0xff\n      and\n        /* \"TrabajoFinalModulo2/SimpleBankTercero.sol\":1212:1277  require(users[msg.sender].isRegistered, \"User is not registered\") */\n      tag_128\n      jumpi\n      mload(0x40)\n      0x08c379a000000000000000000000000000000000000000000000000000000000\n      dup2\n      mstore\n      0x04\n      add\n      tag_129\n      swap1\n      tag_77\n      jump\t// in\n    tag_129:\n      mload(0x40)\n      dup1\n      swap2\n      sub\n      swap1\n      revert\n    tag_128:\n        /* \"TrabajoFinalModulo2/SimpleBankTercero.sol\":2870:2871  0 */\n      0x00\n        /* \"TrabajoFinalModulo2/SimpleBankTercero.sol\":2858:2867  msg.value */\n      callvalue\n        /* \"TrabajoFinalModulo2/SimpleBankTercero.sol\":2858:2871  msg.value > 0 */\n      gt\n        /* \"TrabajoFinalModulo2/SimpleBankTercero.sol\":2850:2911  require(msg.value > 0, \"No se ha ingresado ninguna cantidad\") */\n      tag_131\n      jumpi\n      mload(0x40)\n      0x08c379a000000000000000000000000000000000000000000000000000000000\n      dup2\n      mstore\n      0x04\n      add\n      tag_132\n      swap1\n      tag_85\n      jump\t// in\n    tag_132:\n      mload(0x40)\n      dup1\n      swap2\n      sub\n      swap1\n      revert\n    tag_131:\n        /* \"TrabajoFinalModulo2/SimpleBankTercero.sol\":2953:2962  msg.value */\n      callvalue\n        /* \"TrabajoFinalModulo2/SimpleBankTercero.sol\":2924:2929  users */\n      0x00\n        /* \"TrabajoFinalModulo2/SimpleBankTercero.sol\":2924:2941  users[msg.sender] */\n      dup1\n        /* \"TrabajoFinalModulo2/SimpleBankTercero.sol\":2930:2940  msg.sender */\n      caller\n        /* \"TrabajoFinalModulo2/SimpleBankTercero.sol\":2924:2941  users[msg.sender] */\n      0xffffffffffffffffffffffffffffffffffffffff\n      and\n      0xffffffffffffffffffffffffffffffffffffffff\n      and\n      dup2\n      mstore\n      0x20\n      add\n      swap1\n      dup2\n      mstore\n      0x20\n      add\n      0x00\n      keccak256\n        /* \"TrabajoFinalModulo2/SimpleBankTercero.sol\":2924:2949  users[msg.sender].balance */\n      0x02\n      add\n      0x00\n        /* \"TrabajoFinalModulo2/SimpleBankTercero.sol\":2924:2962  users[msg.sender].balance += msg.value */\n      dup3\n      dup3\n      sload\n      tag_133\n      swap2\n      swap1\n      tag_96\n      jump\t// in\n    tag_133:\n      swap3\n      pop\n      pop\n      dup2\n      swap1\n      sstore\n      pop\n        /* \"TrabajoFinalModulo2/SimpleBankTercero.sol\":2986:2996  msg.sender */\n      caller\n        /* \"TrabajoFinalModulo2/SimpleBankTercero.sol\":2978:3008  Deposit(msg.sender, msg.value) */\n      0xffffffffffffffffffffffffffffffffffffffff\n      and\n      0xe1fffcc4923d04b559f4d29a8bfc6cda04eb5b0d3c460751c2402c5c5cc9109c\n        /* \"TrabajoFinalModulo2/SimpleBankTercero.sol\":2998:3007  msg.value */\n      callvalue\n        /* \"TrabajoFinalModulo2/SimpleBankTercero.sol\":2978:3008  Deposit(msg.sender, msg.value) */\n      mload(0x40)\n      tag_134\n      swap2\n      swap1\n      tag_22\n      jump\t// in\n    tag_134:\n      mload(0x40)\n      dup1\n      swap2\n      sub\n      swap1\n      log2\n        /* \"TrabajoFinalModulo2/SimpleBankTercero.sol\":2788:3016  function deposit() external payable onlyRegistered {... */\n      jump\t// out\n        /* \"TrabajoFinalModulo2/SimpleBankTercero.sol\":703:721  uint256 public fee */\n    tag_52:\n      sload(0x03)\n      dup2\n      jump\t// out\n        /* \"TrabajoFinalModulo2/SimpleBankTercero.sol\":612:636  address public tesoreria */\n    tag_56:\n      0x02\n      0x00\n      swap1\n      sload\n      swap1\n      0x0100\n      exp\n      swap1\n      div\n      0xffffffffffffffffffffffffffffffffffffffff\n      and\n      dup2\n      jump\t// out\n        /* \"#utility.yul\":88:205   */\n    tag_136:\n        /* \"#utility.yul\":197:198   */\n      0x00\n        /* \"#utility.yul\":194:195   */\n      dup1\n        /* \"#utility.yul\":187:199   */\n      revert\n        /* \"#utility.yul\":211:328   */\n    tag_137:\n        /* \"#utility.yul\":320:321   */\n      0x00\n        /* \"#utility.yul\":317:318   */\n      dup1\n        /* \"#utility.yul\":310:322   */\n      revert\n        /* \"#utility.yul\":334:411   */\n    tag_138:\n        /* \"#utility.yul\":371:378   */\n      0x00\n        /* \"#utility.yul\":400:405   */\n      dup2\n        /* \"#utility.yul\":389:405   */\n      swap1\n      pop\n        /* \"#utility.yul\":334:411   */\n      swap2\n      swap1\n      pop\n      jump\t// out\n        /* \"#utility.yul\":417:539   */\n    tag_139:\n        /* \"#utility.yul\":490:514   */\n      tag_203\n        /* \"#utility.yul\":508:513   */\n      dup2\n        /* \"#utility.yul\":490:514   */\n      tag_138\n      jump\t// in\n    tag_203:\n        /* \"#utility.yul\":483:488   */\n      dup2\n        /* \"#utility.yul\":480:515   */\n      eq\n        /* \"#utility.yul\":470:533   */\n      tag_204\n      jumpi\n        /* \"#utility.yul\":529:530   */\n      0x00\n        /* \"#utility.yul\":526:527   */\n      dup1\n        /* \"#utility.yul\":519:531   */\n      revert\n        /* \"#utility.yul\":470:533   */\n    tag_204:\n        /* \"#utility.yul\":417:539   */\n      pop\n      jump\t// out\n        /* \"#utility.yul\":545:684   */\n    tag_140:\n        /* \"#utility.yul\":591:596   */\n      0x00\n        /* \"#utility.yul\":629:635   */\n      dup2\n        /* \"#utility.yul\":616:636   */\n      calldataload\n        /* \"#utility.yul\":607:636   */\n      swap1\n      pop\n        /* \"#utility.yul\":645:678   */\n      tag_206\n        /* \"#utility.yul\":672:677   */\n      dup2\n        /* \"#utility.yul\":645:678   */\n      tag_139\n      jump\t// in\n    tag_206:\n        /* \"#utility.yul\":545:684   */\n      swap3\n      swap2\n      pop\n      pop\n      jump\t// out\n        /* \"#utility.yul\":690:1019   */\n    tag_16:\n        /* \"#utility.yul\":749:755   */\n      0x00\n        /* \"#utility.yul\":798:800   */\n      0x20\n        /* \"#utility.yul\":786:795   */\n      dup3\n        /* \"#utility.yul\":777:784   */\n      dup5\n        /* \"#utility.yul\":773:796   */\n      sub\n        /* \"#utility.yul\":769:801   */\n      slt\n        /* \"#utility.yul\":766:885   */\n      iszero\n      tag_208\n      jumpi\n        /* \"#utility.yul\":804:883   */\n      tag_209\n      tag_136\n      jump\t// in\n    tag_209:\n        /* \"#utility.yul\":766:885   */\n    tag_208:\n        /* \"#utility.yul\":924:925   */\n      0x00\n        /* \"#utility.yul\":949:1002   */\n      tag_210\n        /* \"#utility.yul\":994:1001   */\n      dup5\n        /* \"#utility.yul\":985:991   */\n      dup3\n        /* \"#utility.yul\":974:983   */\n      dup6\n        /* \"#utility.yul\":970:992   */\n      add\n        /* \"#utility.yul\":949:1002   */\n      tag_140\n      jump\t// in\n    tag_210:\n        /* \"#utility.yul\":939:1002   */\n      swap2\n      pop\n        /* \"#utility.yul\":895:1012   */\n      pop\n        /* \"#utility.yul\":690:1019   */\n      swap3\n      swap2\n      pop\n      pop\n      jump\t// out\n        /* \"#utility.yul\":1025:1143   */\n    tag_141:\n        /* \"#utility.yul\":1112:1136   */\n      tag_212\n        /* \"#utility.yul\":1130:1135   */\n      dup2\n        /* \"#utility.yul\":1112:1136   */\n      tag_138\n      jump\t// in\n    tag_212:\n        /* \"#utility.yul\":1107:1110   */\n      dup3\n        /* \"#utility.yul\":1100:1137   */\n      mstore\n        /* \"#utility.yul\":1025:1143   */\n      pop\n      pop\n      jump\t// out\n        /* \"#utility.yul\":1149:1371   */\n    tag_22:\n        /* \"#utility.yul\":1242:1246   */\n      0x00\n        /* \"#utility.yul\":1280:1282   */\n      0x20\n        /* \"#utility.yul\":1269:1278   */\n      dup3\n        /* \"#utility.yul\":1265:1283   */\n      add\n        /* \"#utility.yul\":1257:1283   */\n      swap1\n      pop\n        /* \"#utility.yul\":1293:1364   */\n      tag_214\n        /* \"#utility.yul\":1361:1362   */\n      0x00\n        /* \"#utility.yul\":1350:1359   */\n      dup4\n        /* \"#utility.yul\":1346:1363   */\n      add\n        /* \"#utility.yul\":1337:1343   */\n      dup5\n        /* \"#utility.yul\":1293:1364   */\n      tag_141\n      jump\t// in\n    tag_214:\n        /* \"#utility.yul\":1149:1371   */\n      swap3\n      swap2\n      pop\n      pop\n      jump\t// out\n        /* \"#utility.yul\":1377:1494   */\n    tag_142:\n        /* \"#utility.yul\":1486:1487   */\n      0x00\n        /* \"#utility.yul\":1483:1484   */\n      dup1\n        /* \"#utility.yul\":1476:1488   */\n      revert\n        /* \"#utility.yul\":1500:1617   */\n    tag_143:\n        /* \"#utility.yul\":1609:1610   */\n      0x00\n        /* \"#utility.yul\":1606:1607   */\n      dup1\n        /* \"#utility.yul\":1599:1611   */\n      revert\n        /* \"#utility.yul\":1623:1740   */\n    tag_144:\n        /* \"#utility.yul\":1732:1733   */\n      0x00\n        /* \"#utility.yul\":1729:1730   */\n      dup1\n        /* \"#utility.yul\":1722:1734   */\n      revert\n        /* \"#utility.yul\":1760:2313   */\n    tag_145:\n        /* \"#utility.yul\":1818:1826   */\n      0x00\n        /* \"#utility.yul\":1828:1834   */\n      dup1\n        /* \"#utility.yul\":1878:1881   */\n      dup4\n        /* \"#utility.yul\":1871:1875   */\n      0x1f\n        /* \"#utility.yul\":1863:1869   */\n      dup5\n        /* \"#utility.yul\":1859:1876   */\n      add\n        /* \"#utility.yul\":1855:1882   */\n      slt\n        /* \"#utility.yul\":1845:1967   */\n      tag_219\n      jumpi\n        /* \"#utility.yul\":1886:1965   */\n      tag_220\n      tag_142\n      jump\t// in\n    tag_220:\n        /* \"#utility.yul\":1845:1967   */\n    tag_219:\n        /* \"#utility.yul\":1999:2005   */\n      dup3\n        /* \"#utility.yul\":1986:2006   */\n      calldataload\n        /* \"#utility.yul\":1976:2006   */\n      swap1\n      pop\n        /* \"#utility.yul\":2029:2047   */\n      0xffffffffffffffff\n        /* \"#utility.yul\":2021:2027   */\n      dup2\n        /* \"#utility.yul\":2018:2048   */\n      gt\n        /* \"#utility.yul\":2015:2132   */\n      iszero\n      tag_221\n      jumpi\n        /* \"#utility.yul\":2051:2130   */\n      tag_222\n      tag_143\n      jump\t// in\n    tag_222:\n        /* \"#utility.yul\":2015:2132   */\n    tag_221:\n        /* \"#utility.yul\":2165:2169   */\n      0x20\n        /* \"#utility.yul\":2157:2163   */\n      dup4\n        /* \"#utility.yul\":2153:2170   */\n      add\n        /* \"#utility.yul\":2141:2170   */\n      swap2\n      pop\n        /* \"#utility.yul\":2219:2222   */\n      dup4\n        /* \"#utility.yul\":2211:2215   */\n      0x01\n        /* \"#utility.yul\":2203:2209   */\n      dup3\n        /* \"#utility.yul\":2199:2216   */\n      mul\n        /* \"#utility.yul\":2189:2197   */\n      dup4\n        /* \"#utility.yul\":2185:2217   */\n      add\n        /* \"#utility.yul\":2182:2223   */\n      gt\n        /* \"#utility.yul\":2179:2307   */\n      iszero\n      tag_223\n      jumpi\n        /* \"#utility.yul\":2226:2305   */\n      tag_224\n      tag_144\n      jump\t// in\n    tag_224:\n        /* \"#utility.yul\":2179:2307   */\n    tag_223:\n        /* \"#utility.yul\":1760:2313   */\n      swap3\n      pop\n      swap3\n      swap1\n      pop\n      jump\t// out\n        /* \"#utility.yul\":2319:3193   */\n    tag_34:\n        /* \"#utility.yul\":2411:2417   */\n      0x00\n        /* \"#utility.yul\":2419:2425   */\n      dup1\n        /* \"#utility.yul\":2427:2433   */\n      0x00\n        /* \"#utility.yul\":2435:2441   */\n      dup1\n        /* \"#utility.yul\":2484:2486   */\n      0x40\n        /* \"#utility.yul\":2472:2481   */\n      dup6\n        /* \"#utility.yul\":2463:2470   */\n      dup8\n        /* \"#utility.yul\":2459:2482   */\n      sub\n        /* \"#utility.yul\":2455:2487   */\n      slt\n        /* \"#utility.yul\":2452:2571   */\n      iszero\n      tag_226\n      jumpi\n        /* \"#utility.yul\":2490:2569   */\n      tag_227\n      tag_136\n      jump\t// in\n    tag_227:\n        /* \"#utility.yul\":2452:2571   */\n    tag_226:\n        /* \"#utility.yul\":2638:2639   */\n      0x00\n        /* \"#utility.yul\":2627:2636   */\n      dup6\n        /* \"#utility.yul\":2623:2640   */\n      add\n        /* \"#utility.yul\":2610:2641   */\n      calldataload\n        /* \"#utility.yul\":2668:2686   */\n      0xffffffffffffffff\n        /* \"#utility.yul\":2660:2666   */\n      dup2\n        /* \"#utility.yul\":2657:2687   */\n      gt\n        /* \"#utility.yul\":2654:2771   */\n      iszero\n      tag_228\n      jumpi\n        /* \"#utility.yul\":2690:2769   */\n      tag_229\n      tag_137\n      jump\t// in\n    tag_229:\n        /* \"#utility.yul\":2654:2771   */\n    tag_228:\n        /* \"#utility.yul\":2803:2868   */\n      tag_230\n        /* \"#utility.yul\":2860:2867   */\n      dup8\n        /* \"#utility.yul\":2851:2857   */\n      dup3\n        /* \"#utility.yul\":2840:2849   */\n      dup9\n        /* \"#utility.yul\":2836:2858   */\n      add\n        /* \"#utility.yul\":2803:2868   */\n      tag_145\n      jump\t// in\n    tag_230:\n        /* \"#utility.yul\":2785:2868   */\n      swap5\n      pop\n      swap5\n      pop\n        /* \"#utility.yul\":2581:2878   */\n      pop\n        /* \"#utility.yul\":2945:2947   */\n      0x20\n        /* \"#utility.yul\":2934:2943   */\n      dup6\n        /* \"#utility.yul\":2930:2948   */\n      add\n        /* \"#utility.yul\":2917:2949   */\n      calldataload\n        /* \"#utility.yul\":2976:2994   */\n      0xffffffffffffffff\n        /* \"#utility.yul\":2968:2974   */\n      dup2\n        /* \"#utility.yul\":2965:2995   */\n      gt\n        /* \"#utility.yul\":2962:3079   */\n      iszero\n      tag_231\n      jumpi\n        /* \"#utility.yul\":2998:3077   */\n      tag_232\n      tag_137\n      jump\t// in\n    tag_232:\n        /* \"#utility.yul\":2962:3079   */\n    tag_231:\n        /* \"#utility.yul\":3111:3176   */\n      tag_233\n        /* \"#utility.yul\":3168:3175   */\n      dup8\n        /* \"#utility.yul\":3159:3165   */\n      dup3\n        /* \"#utility.yul\":3148:3157   */\n      dup9\n        /* \"#utility.yul\":3144:3166   */\n      add\n        /* \"#utility.yul\":3111:3176   */\n      tag_145\n      jump\t// in\n    tag_233:\n        /* \"#utility.yul\":3093:3176   */\n      swap3\n      pop\n      swap3\n      pop\n        /* \"#utility.yul\":2888:3186   */\n      pop\n        /* \"#utility.yul\":2319:3193   */\n      swap3\n      swap6\n      swap2\n      swap5\n      pop\n      swap3\n      pop\n      jump\t// out\n        /* \"#utility.yul\":3199:3325   */\n    tag_146:\n        /* \"#utility.yul\":3236:3243   */\n      0x00\n        /* \"#utility.yul\":3276:3318   */\n      0xffffffffffffffffffffffffffffffffffffffff\n        /* \"#utility.yul\":3269:3274   */\n      dup3\n        /* \"#utility.yul\":3265:3319   */\n      and\n        /* \"#utility.yul\":3254:3319   */\n      swap1\n      pop\n        /* \"#utility.yul\":3199:3325   */\n      swap2\n      swap1\n      pop\n      jump\t// out\n        /* \"#utility.yul\":3331:3427   */\n    tag_147:\n        /* \"#utility.yul\":3368:3375   */\n      0x00\n        /* \"#utility.yul\":3397:3421   */\n      tag_236\n        /* \"#utility.yul\":3415:3420   */\n      dup3\n        /* \"#utility.yul\":3397:3421   */\n      tag_146\n      jump\t// in\n    tag_236:\n        /* \"#utility.yul\":3386:3421   */\n      swap1\n      pop\n        /* \"#utility.yul\":3331:3427   */\n      swap2\n      swap1\n      pop\n      jump\t// out\n        /* \"#utility.yul\":3433:3551   */\n    tag_148:\n        /* \"#utility.yul\":3520:3544   */\n      tag_238\n        /* \"#utility.yul\":3538:3543   */\n      dup2\n        /* \"#utility.yul\":3520:3544   */\n      tag_147\n      jump\t// in\n    tag_238:\n        /* \"#utility.yul\":3515:3518   */\n      dup3\n        /* \"#utility.yul\":3508:3545   */\n      mstore\n        /* \"#utility.yul\":3433:3551   */\n      pop\n      pop\n      jump\t// out\n        /* \"#utility.yul\":3557:3779   */\n    tag_40:\n        /* \"#utility.yul\":3650:3654   */\n      0x00\n        /* \"#utility.yul\":3688:3690   */\n      0x20\n        /* \"#utility.yul\":3677:3686   */\n      dup3\n        /* \"#utility.yul\":3673:3691   */\n      add\n        /* \"#utility.yul\":3665:3691   */\n      swap1\n      pop\n        /* \"#utility.yul\":3701:3772   */\n      tag_240\n        /* \"#utility.yul\":3769:3770   */\n      0x00\n        /* \"#utility.yul\":3758:3767   */\n      dup4\n        /* \"#utility.yul\":3754:3771   */\n      add\n        /* \"#utility.yul\":3745:3751   */\n      dup5\n        /* \"#utility.yul\":3701:3772   */\n      tag_148\n      jump\t// in\n    tag_240:\n        /* \"#utility.yul\":3557:3779   */\n      swap3\n      swap2\n      pop\n      pop\n      jump\t// out\n        /* \"#utility.yul\":3785:3907   */\n    tag_149:\n        /* \"#utility.yul\":3858:3882   */\n      tag_242\n        /* \"#utility.yul\":3876:3881   */\n      dup2\n        /* \"#utility.yul\":3858:3882   */\n      tag_147\n      jump\t// in\n    tag_242:\n        /* \"#utility.yul\":3851:3856   */\n      dup2\n        /* \"#utility.yul\":3848:3883   */\n      eq\n        /* \"#utility.yul\":3838:3901   */\n      tag_243\n      jumpi\n        /* \"#utility.yul\":3897:3898   */\n      0x00\n        /* \"#utility.yul\":3894:3895   */\n      dup1\n        /* \"#utility.yul\":3887:3899   */\n      revert\n        /* \"#utility.yul\":3838:3901   */\n    tag_243:\n        /* \"#utility.yul\":3785:3907   */\n      pop\n      jump\t// out\n        /* \"#utility.yul\":3913:4052   */\n    tag_150:\n        /* \"#utility.yul\":3959:3964   */\n      0x00\n        /* \"#utility.yul\":3997:4003   */\n      dup2\n        /* \"#utility.yul\":3984:4004   */\n      calldataload\n        /* \"#utility.yul\":3975:4004   */\n      swap1\n      pop\n        /* \"#utility.yul\":4013:4046   */\n      tag_245\n        /* \"#utility.yul\":4040:4045   */\n      dup2\n        /* \"#utility.yul\":4013:4046   */\n      tag_149\n      jump\t// in\n    tag_245:\n        /* \"#utility.yul\":3913:4052   */\n      swap3\n      swap2\n      pop\n      pop\n      jump\t// out\n        /* \"#utility.yul\":4058:4387   */\n    tag_44:\n        /* \"#utility.yul\":4117:4123   */\n      0x00\n        /* \"#utility.yul\":4166:4168   */\n      0x20\n        /* \"#utility.yul\":4154:4163   */\n      dup3\n        /* \"#utility.yul\":4145:4152   */\n      dup5\n        /* \"#utility.yul\":4141:4164   */\n      sub\n        /* \"#utility.yul\":4137:4169   */\n      slt\n        /* \"#utility.yul\":4134:4253   */\n      iszero\n      tag_247\n      jumpi\n        /* \"#utility.yul\":4172:4251   */\n      tag_248\n      tag_136\n      jump\t// in\n    tag_248:\n        /* \"#utility.yul\":4134:4253   */\n    tag_247:\n        /* \"#utility.yul\":4292:4293   */\n      0x00\n        /* \"#utility.yul\":4317:4370   */\n      tag_249\n        /* \"#utility.yul\":4362:4369   */\n      dup5\n        /* \"#utility.yul\":4353:4359   */\n      dup3\n        /* \"#utility.yul\":4342:4351   */\n      dup6\n        /* \"#utility.yul\":4338:4360   */\n      add\n        /* \"#utility.yul\":4317:4370   */\n      tag_150\n      jump\t// in\n    tag_249:\n        /* \"#utility.yul\":4307:4370   */\n      swap2\n      pop\n        /* \"#utility.yul\":4263:4380   */\n      pop\n        /* \"#utility.yul\":4058:4387   */\n      swap3\n      swap2\n      pop\n      pop\n      jump\t// out\n        /* \"#utility.yul\":4393:4492   */\n    tag_151:\n        /* \"#utility.yul\":4445:4451   */\n      0x00\n        /* \"#utility.yul\":4479:4484   */\n      dup2\n        /* \"#utility.yul\":4473:4485   */\n      mload\n        /* \"#utility.yul\":4463:4485   */\n      swap1\n      pop\n        /* \"#utility.yul\":4393:4492   */\n      swap2\n      swap1\n      pop\n      jump\t// out\n        /* \"#utility.yul\":4498:4667   */\n    tag_152:\n        /* \"#utility.yul\":4582:4593   */\n      0x00\n        /* \"#utility.yul\":4616:4622   */\n      dup3\n        /* \"#utility.yul\":4611:4614   */\n      dup3\n        /* \"#utility.yul\":4604:4623   */\n      mstore\n        /* \"#utility.yul\":4656:4660   */\n      0x20\n        /* \"#utility.yul\":4651:4654   */\n      dup3\n        /* \"#utility.yul\":4647:4661   */\n      add\n        /* \"#utility.yul\":4632:4661   */\n      swap1\n      pop\n        /* \"#utility.yul\":4498:4667   */\n      swap3\n      swap2\n      pop\n      pop\n      jump\t// out\n        /* \"#utility.yul\":4673:4812   */\n    tag_153:\n        /* \"#utility.yul\":4762:4768   */\n      dup3\n        /* \"#utility.yul\":4757:4760   */\n      dup2\n        /* \"#utility.yul\":4752:4755   */\n      dup4\n        /* \"#utility.yul\":4746:4769   */\n      mcopy\n        /* \"#utility.yul\":4803:4804   */\n      0x00\n        /* \"#utility.yul\":4794:4800   */\n      dup4\n        /* \"#utility.yul\":4789:4792   */\n      dup4\n        /* \"#utility.yul\":4785:4801   */\n      add\n        /* \"#utility.yul\":4778:4805   */\n      mstore\n        /* \"#utility.yul\":4673:4812   */\n      pop\n      pop\n      pop\n      jump\t// out\n        /* \"#utility.yul\":4818:4920   */\n    tag_154:\n        /* \"#utility.yul\":4859:4865   */\n      0x00\n        /* \"#utility.yul\":4910:4912   */\n      0x1f\n        /* \"#utility.yul\":4906:4913   */\n      not\n        /* \"#utility.yul\":4901:4903   */\n      0x1f\n        /* \"#utility.yul\":4894:4899   */\n      dup4\n        /* \"#utility.yul\":4890:4904   */\n      add\n        /* \"#utility.yul\":4886:4914   */\n      and\n        /* \"#utility.yul\":4876:4914   */\n      swap1\n      pop\n        /* \"#utility.yul\":4818:4920   */\n      swap2\n      swap1\n      pop\n      jump\t// out\n        /* \"#utility.yul\":4926:5303   */\n    tag_155:\n        /* \"#utility.yul\":5014:5017   */\n      0x00\n        /* \"#utility.yul\":5042:5081   */\n      tag_255\n        /* \"#utility.yul\":5075:5080   */\n      dup3\n        /* \"#utility.yul\":5042:5081   */\n      tag_151\n      jump\t// in\n    tag_255:\n        /* \"#utility.yul\":5097:5168   */\n      tag_256\n        /* \"#utility.yul\":5161:5167   */\n      dup2\n        /* \"#utility.yul\":5156:5159   */\n      dup6\n        /* \"#utility.yul\":5097:5168   */\n      tag_152\n      jump\t// in\n    tag_256:\n        /* \"#utility.yul\":5090:5168   */\n      swap4\n      pop\n        /* \"#utility.yul\":5177:5242   */\n      tag_257\n        /* \"#utility.yul\":5235:5241   */\n      dup2\n        /* \"#utility.yul\":5230:5233   */\n      dup6\n        /* \"#utility.yul\":5223:5227   */\n      0x20\n        /* \"#utility.yul\":5216:5221   */\n      dup7\n        /* \"#utility.yul\":5212:5228   */\n      add\n        /* \"#utility.yul\":5177:5242   */\n      tag_153\n      jump\t// in\n    tag_257:\n        /* \"#utility.yul\":5267:5296   */\n      tag_258\n        /* \"#utility.yul\":5289:5295   */\n      dup2\n        /* \"#utility.yul\":5267:5296   */\n      tag_154\n      jump\t// in\n    tag_258:\n        /* \"#utility.yul\":5262:5265   */\n      dup5\n        /* \"#utility.yul\":5258:5297   */\n      add\n        /* \"#utility.yul\":5251:5297   */\n      swap2\n      pop\n        /* \"#utility.yul\":5018:5303   */\n      pop\n        /* \"#utility.yul\":4926:5303   */\n      swap3\n      swap2\n      pop\n      pop\n      jump\t// out\n        /* \"#utility.yul\":5309:5399   */\n    tag_156:\n        /* \"#utility.yul\":5343:5350   */\n      0x00\n        /* \"#utility.yul\":5386:5391   */\n      dup2\n        /* \"#utility.yul\":5379:5392   */\n      iszero\n        /* \"#utility.yul\":5372:5393   */\n      iszero\n        /* \"#utility.yul\":5361:5393   */\n      swap1\n      pop\n        /* \"#utility.yul\":5309:5399   */\n      swap2\n      swap1\n      pop\n      jump\t// out\n        /* \"#utility.yul\":5405:5514   */\n    tag_157:\n        /* \"#utility.yul\":5486:5507   */\n      tag_261\n        /* \"#utility.yul\":5501:5506   */\n      dup2\n        /* \"#utility.yul\":5486:5507   */\n      tag_156\n      jump\t// in\n    tag_261:\n        /* \"#utility.yul\":5481:5484   */\n      dup3\n        /* \"#utility.yul\":5474:5508   */\n      mstore\n        /* \"#utility.yul\":5405:5514   */\n      pop\n      pop\n      jump\t// out\n        /* \"#utility.yul\":5520:6243   */\n    tag_47:\n        /* \"#utility.yul\":5731:5735   */\n      0x00\n        /* \"#utility.yul\":5769:5772   */\n      0x80\n        /* \"#utility.yul\":5758:5767   */\n      dup3\n        /* \"#utility.yul\":5754:5773   */\n      add\n        /* \"#utility.yul\":5746:5773   */\n      swap1\n      pop\n        /* \"#utility.yul\":5819:5828   */\n      dup2\n        /* \"#utility.yul\":5813:5817   */\n      dup2\n        /* \"#utility.yul\":5809:5829   */\n      sub\n        /* \"#utility.yul\":5805:5806   */\n      0x00\n        /* \"#utility.yul\":5794:5803   */\n      dup4\n        /* \"#utility.yul\":5790:5807   */\n      add\n        /* \"#utility.yul\":5783:5830   */\n      mstore\n        /* \"#utility.yul\":5847:5925   */\n      tag_263\n        /* \"#utility.yul\":5920:5924   */\n      dup2\n        /* \"#utility.yul\":5911:5917   */\n      dup8\n        /* \"#utility.yul\":5847:5925   */\n      tag_155\n      jump\t// in\n    tag_263:\n        /* \"#utility.yul\":5839:5925   */\n      swap1\n      pop\n        /* \"#utility.yul\":5972:5981   */\n      dup2\n        /* \"#utility.yul\":5966:5970   */\n      dup2\n        /* \"#utility.yul\":5962:5982   */\n      sub\n        /* \"#utility.yul\":5957:5959   */\n      0x20\n        /* \"#utility.yul\":5946:5955   */\n      dup4\n        /* \"#utility.yul\":5942:5960   */\n      add\n        /* \"#utility.yul\":5935:5983   */\n      mstore\n        /* \"#utility.yul\":6000:6078   */\n      tag_264\n        /* \"#utility.yul\":6073:6077   */\n      dup2\n        /* \"#utility.yul\":6064:6070   */\n      dup7\n        /* \"#utility.yul\":6000:6078   */\n      tag_155\n      jump\t// in\n    tag_264:\n        /* \"#utility.yul\":5992:6078   */\n      swap1\n      pop\n        /* \"#utility.yul\":6088:6160   */\n      tag_265\n        /* \"#utility.yul\":6156:6158   */\n      0x40\n        /* \"#utility.yul\":6145:6154   */\n      dup4\n        /* \"#utility.yul\":6141:6159   */\n      add\n        /* \"#utility.yul\":6132:6138   */\n      dup6\n        /* \"#utility.yul\":6088:6160   */\n      tag_141\n      jump\t// in\n    tag_265:\n        /* \"#utility.yul\":6170:6236   */\n      tag_266\n        /* \"#utility.yul\":6232:6234   */\n      0x60\n        /* \"#utility.yul\":6221:6230   */\n      dup4\n        /* \"#utility.yul\":6217:6235   */\n      add\n        /* \"#utility.yul\":6208:6214   */\n      dup5\n        /* \"#utility.yul\":6170:6236   */\n      tag_157\n      jump\t// in\n    tag_266:\n        /* \"#utility.yul\":5520:6243   */\n      swap6\n      swap5\n      pop\n      pop\n      pop\n      pop\n      pop\n      jump\t// out\n        /* \"#utility.yul\":6249:6469   */\n    tag_158:\n        /* \"#utility.yul\":6389:6423   */\n      0x4f6e6c79206f776e65722063616e2063616c6c20746869732066756e6374696f\n        /* \"#utility.yul\":6385:6386   */\n      0x00\n        /* \"#utility.yul\":6377:6383   */\n      dup3\n        /* \"#utility.yul\":6373:6387   */\n      add\n        /* \"#utility.yul\":6366:6424   */\n      mstore\n        /* \"#utility.yul\":6458:6461   */\n      0x6e00000000000000000000000000000000000000000000000000000000000000\n        /* \"#utility.yul\":6453:6455   */\n      0x20\n        /* \"#utility.yul\":6445:6451   */\n      dup3\n        /* \"#utility.yul\":6441:6456   */\n      add\n        /* \"#utility.yul\":6434:6462   */\n      mstore\n        /* \"#utility.yul\":6249:6469   */\n      pop\n      jump\t// out\n        /* \"#utility.yul\":6475:6841   */\n    tag_159:\n        /* \"#utility.yul\":6617:6620   */\n      0x00\n        /* \"#utility.yul\":6638:6705   */\n      tag_269\n        /* \"#utility.yul\":6702:6704   */\n      0x21\n        /* \"#utility.yul\":6697:6700   */\n      dup4\n        /* \"#utility.yul\":6638:6705   */\n      tag_152\n      jump\t// in\n    tag_269:\n        /* \"#utility.yul\":6631:6705   */\n      swap2\n      pop\n        /* \"#utility.yul\":6714:6807   */\n      tag_270\n        /* \"#utility.yul\":6803:6806   */\n      dup3\n        /* \"#utility.yul\":6714:6807   */\n      tag_158\n      jump\t// in\n    tag_270:\n        /* \"#utility.yul\":6832:6834   */\n      0x40\n        /* \"#utility.yul\":6827:6830   */\n      dup3\n        /* \"#utility.yul\":6823:6835   */\n      add\n        /* \"#utility.yul\":6816:6835   */\n      swap1\n      pop\n        /* \"#utility.yul\":6475:6841   */\n      swap2\n      swap1\n      pop\n      jump\t// out\n        /* \"#utility.yul\":6847:7266   */\n    tag_61:\n        /* \"#utility.yul\":7013:7017   */\n      0x00\n        /* \"#utility.yul\":7051:7053   */\n      0x20\n        /* \"#utility.yul\":7040:7049   */\n      dup3\n        /* \"#utility.yul\":7036:7054   */\n      add\n        /* \"#utility.yul\":7028:7054   */\n      swap1\n      pop\n        /* \"#utility.yul\":7100:7109   */\n      dup2\n        /* \"#utility.yul\":7094:7098   */\n      dup2\n        /* \"#utility.yul\":7090:7110   */\n      sub\n        /* \"#utility.yul\":7086:7087   */\n      0x00\n        /* \"#utility.yul\":7075:7084   */\n      dup4\n        /* \"#utility.yul\":7071:7088   */\n      add\n        /* \"#utility.yul\":7064:7111   */\n      mstore\n        /* \"#utility.yul\":7128:7259   */\n      tag_272\n        /* \"#utility.yul\":7254:7258   */\n      dup2\n        /* \"#utility.yul\":7128:7259   */\n      tag_159\n      jump\t// in\n    tag_272:\n        /* \"#utility.yul\":7120:7259   */\n      swap1\n      pop\n        /* \"#utility.yul\":6847:7266   */\n      swap2\n      swap1\n      pop\n      jump\t// out\n        /* \"#utility.yul\":7272:7449   */\n    tag_160:\n        /* \"#utility.yul\":7412:7441   */\n      0x4d6f6e746f206465626520736572206d61796f722061206365726f0000000000\n        /* \"#utility.yul\":7408:7409   */\n      0x00\n        /* \"#utility.yul\":7400:7406   */\n      dup3\n        /* \"#utility.yul\":7396:7410   */\n      add\n        /* \"#utility.yul\":7389:7442   */\n      mstore\n        /* \"#utility.yul\":7272:7449   */\n      pop\n      jump\t// out\n        /* \"#utility.yul\":7455:7821   */\n    tag_161:\n        /* \"#utility.yul\":7597:7600   */\n      0x00\n        /* \"#utility.yul\":7618:7685   */\n      tag_275\n        /* \"#utility.yul\":7682:7684   */\n      0x1b\n        /* \"#utility.yul\":7677:7680   */\n      dup4\n        /* \"#utility.yul\":7618:7685   */\n      tag_152\n      jump\t// in\n    tag_275:\n        /* \"#utility.yul\":7611:7685   */\n      swap2\n      pop\n        /* \"#utility.yul\":7694:7787   */\n      tag_276\n        /* \"#utility.yul\":7783:7786   */\n      dup3\n        /* \"#utility.yul\":7694:7787   */\n      tag_160\n      jump\t// in\n    tag_276:\n        /* \"#utility.yul\":7812:7814   */\n      0x20\n        /* \"#utility.yul\":7807:7810   */\n      dup3\n        /* \"#utility.yul\":7803:7815   */\n      add\n        /* \"#utility.yul\":7796:7815   */\n      swap1\n      pop\n        /* \"#utility.yul\":7455:7821   */\n      swap2\n      swap1\n      pop\n      jump\t// out\n        /* \"#utility.yul\":7827:8246   */\n    tag_65:\n        /* \"#utility.yul\":7993:7997   */\n      0x00\n        /* \"#utility.yul\":8031:8033   */\n      0x20\n        /* \"#utility.yul\":8020:8029   */\n      dup3\n        /* \"#utility.yul\":8016:8034   */\n      add\n        /* \"#utility.yul\":8008:8034   */\n      swap1\n      pop\n        /* \"#utility.yul\":8080:8089   */\n      dup2\n        /* \"#utility.yul\":8074:8078   */\n      dup2\n        /* \"#utility.yul\":8070:8090   */\n      sub\n        /* \"#utility.yul\":8066:8067   */\n      0x00\n        /* \"#utility.yul\":8055:8064   */\n      dup4\n        /* \"#utility.yul\":8051:8068   */\n      add\n        /* \"#utility.yul\":8044:8091   */\n      mstore\n        /* \"#utility.yul\":8108:8239   */\n      tag_278\n        /* \"#utility.yul\":8234:8238   */\n      dup2\n        /* \"#utility.yul\":8108:8239   */\n      tag_161\n      jump\t// in\n    tag_278:\n        /* \"#utility.yul\":8100:8239   */\n      swap1\n      pop\n        /* \"#utility.yul\":7827:8246   */\n      swap2\n      swap1\n      pop\n      jump\t// out\n        /* \"#utility.yul\":8252:8433   */\n    tag_162:\n        /* \"#utility.yul\":8392:8425   */\n      0x53616c646f20696e737566696369656e746520656e205465736f726572696100\n        /* \"#utility.yul\":8388:8389   */\n      0x00\n        /* \"#utility.yul\":8380:8386   */\n      dup3\n        /* \"#utility.yul\":8376:8390   */\n      add\n        /* \"#utility.yul\":8369:8426   */\n      mstore\n        /* \"#utility.yul\":8252:8433   */\n      pop\n      jump\t// out\n        /* \"#utility.yul\":8439:8805   */\n    tag_163:\n        /* \"#utility.yul\":8581:8584   */\n      0x00\n        /* \"#utility.yul\":8602:8669   */\n      tag_281\n        /* \"#utility.yul\":8666:8668   */\n      0x1f\n        /* \"#utility.yul\":8661:8664   */\n      dup4\n        /* \"#utility.yul\":8602:8669   */\n      tag_152\n      jump\t// in\n    tag_281:\n        /* \"#utility.yul\":8595:8669   */\n      swap2\n      pop\n        /* \"#utility.yul\":8678:8771   */\n      tag_282\n        /* \"#utility.yul\":8767:8770   */\n      dup3\n        /* \"#utility.yul\":8678:8771   */\n      tag_162\n      jump\t// in\n    tag_282:\n        /* \"#utility.yul\":8796:8798   */\n      0x20\n        /* \"#utility.yul\":8791:8794   */\n      dup3\n        /* \"#utility.yul\":8787:8799   */\n      add\n        /* \"#utility.yul\":8780:8799   */\n      swap1\n      pop\n        /* \"#utility.yul\":8439:8805   */\n      swap2\n      swap1\n      pop\n      jump\t// out\n        /* \"#utility.yul\":8811:9230   */\n    tag_68:\n        /* \"#utility.yul\":8977:8981   */\n      0x00\n        /* \"#utility.yul\":9015:9017   */\n      0x20\n        /* \"#utility.yul\":9004:9013   */\n      dup3\n        /* \"#utility.yul\":9000:9018   */\n      add\n        /* \"#utility.yul\":8992:9018   */\n      swap1\n      pop\n        /* \"#utility.yul\":9064:9073   */\n      dup2\n        /* \"#utility.yul\":9058:9062   */\n      dup2\n        /* \"#utility.yul\":9054:9074   */\n      sub\n        /* \"#utility.yul\":9050:9051   */\n      0x00\n        /* \"#utility.yul\":9039:9048   */\n      dup4\n        /* \"#utility.yul\":9035:9052   */\n      add\n        /* \"#utility.yul\":9028:9075   */\n      mstore\n        /* \"#utility.yul\":9092:9223   */\n      tag_284\n        /* \"#utility.yul\":9218:9222   */\n      dup2\n        /* \"#utility.yul\":9092:9223   */\n      tag_163\n      jump\t// in\n    tag_284:\n        /* \"#utility.yul\":9084:9223   */\n      swap1\n      pop\n        /* \"#utility.yul\":8811:9230   */\n      swap2\n      swap1\n      pop\n      jump\t// out\n        /* \"#utility.yul\":9236:9416   */\n    tag_164:\n        /* \"#utility.yul\":9284:9361   */\n      0x4e487b7100000000000000000000000000000000000000000000000000000000\n        /* \"#utility.yul\":9281:9282   */\n      0x00\n        /* \"#utility.yul\":9274:9362   */\n      mstore\n        /* \"#utility.yul\":9381:9385   */\n      0x11\n        /* \"#utility.yul\":9378:9379   */\n      0x04\n        /* \"#utility.yul\":9371:9386   */\n      mstore\n        /* \"#utility.yul\":9405:9409   */\n      0x24\n        /* \"#utility.yul\":9402:9403   */\n      0x00\n        /* \"#utility.yul\":9395:9410   */\n      revert\n        /* \"#utility.yul\":9422:9616   */\n    tag_70:\n        /* \"#utility.yul\":9462:9466   */\n      0x00\n        /* \"#utility.yul\":9482:9502   */\n      tag_287\n        /* \"#utility.yul\":9500:9501   */\n      dup3\n        /* \"#utility.yul\":9482:9502   */\n      tag_138\n      jump\t// in\n    tag_287:\n        /* \"#utility.yul\":9477:9502   */\n      swap2\n      pop\n        /* \"#utility.yul\":9516:9536   */\n      tag_288\n        /* \"#utility.yul\":9534:9535   */\n      dup4\n        /* \"#utility.yul\":9516:9536   */\n      tag_138\n      jump\t// in\n    tag_288:\n        /* \"#utility.yul\":9511:9536   */\n      swap3\n      pop\n        /* \"#utility.yul\":9560:9561   */\n      dup3\n        /* \"#utility.yul\":9557:9558   */\n      dup3\n        /* \"#utility.yul\":9553:9562   */\n      sub\n        /* \"#utility.yul\":9545:9562   */\n      swap1\n      pop\n        /* \"#utility.yul\":9584:9585   */\n      dup2\n        /* \"#utility.yul\":9578:9582   */\n      dup2\n        /* \"#utility.yul\":9575:9586   */\n      gt\n        /* \"#utility.yul\":9572:9609   */\n      iszero\n      tag_289\n      jumpi\n        /* \"#utility.yul\":9589:9607   */\n      tag_290\n      tag_164\n      jump\t// in\n    tag_290:\n        /* \"#utility.yul\":9572:9609   */\n    tag_289:\n        /* \"#utility.yul\":9422:9616   */\n      swap3\n      swap2\n      pop\n      pop\n      jump\t// out\n        /* \"#utility.yul\":9622:9794   */\n    tag_165:\n        /* \"#utility.yul\":9762:9786   */\n      0x55736572206973206e6f74207265676973746572656400000000000000000000\n        /* \"#utility.yul\":9758:9759   */\n      0x00\n        /* \"#utility.yul\":9750:9756   */\n      dup3\n        /* \"#utility.yul\":9746:9760   */\n      add\n        /* \"#utility.yul\":9739:9787   */\n      mstore\n        /* \"#utility.yul\":9622:9794   */\n      pop\n      jump\t// out\n        /* \"#utility.yul\":9800:10166   */\n    tag_166:\n        /* \"#utility.yul\":9942:9945   */\n      0x00\n        /* \"#utility.yul\":9963:10030   */\n      tag_293\n        /* \"#utility.yul\":10027:10029   */\n      0x16\n        /* \"#utility.yul\":10022:10025   */\n      dup4\n        /* \"#utility.yul\":9963:10030   */\n      tag_152\n      jump\t// in\n    tag_293:\n        /* \"#utility.yul\":9956:10030   */\n      swap2\n      pop\n        /* \"#utility.yul\":10039:10132   */\n      tag_294\n        /* \"#utility.yul\":10128:10131   */\n      dup3\n        /* \"#utility.yul\":10039:10132   */\n      tag_165\n      jump\t// in\n    tag_294:\n        /* \"#utility.yul\":10157:10159   */\n      0x20\n        /* \"#utility.yul\":10152:10155   */\n      dup3\n        /* \"#utility.yul\":10148:10160   */\n      add\n        /* \"#utility.yul\":10141:10160   */\n      swap1\n      pop\n        /* \"#utility.yul\":9800:10166   */\n      swap2\n      swap1\n      pop\n      jump\t// out\n        /* \"#utility.yul\":10172:10591   */\n    tag_77:\n        /* \"#utility.yul\":10338:10342   */\n      0x00\n        /* \"#utility.yul\":10376:10378   */\n      0x20\n        /* \"#utility.yul\":10365:10374   */\n      dup3\n        /* \"#utility.yul\":10361:10379   */\n      add\n        /* \"#utility.yul\":10353:10379   */\n      swap1\n      pop\n        /* \"#utility.yul\":10425:10434   */\n      dup2\n        /* \"#utility.yul\":10419:10423   */\n      dup2\n        /* \"#utility.yul\":10415:10435   */\n      sub\n        /* \"#utility.yul\":10411:10412   */\n      0x00\n        /* \"#utility.yul\":10400:10409   */\n      dup4\n        /* \"#utility.yul\":10396:10413   */\n      add\n        /* \"#utility.yul\":10389:10436   */\n      mstore\n        /* \"#utility.yul\":10453:10584   */\n      tag_296\n        /* \"#utility.yul\":10579:10583   */\n      dup2\n        /* \"#utility.yul\":10453:10584   */\n      tag_166\n      jump\t// in\n    tag_296:\n        /* \"#utility.yul\":10445:10584   */\n      swap1\n      pop\n        /* \"#utility.yul\":10172:10591   */\n      swap2\n      swap1\n      pop\n      jump\t// out\n        /* \"#utility.yul\":10597:10819   */\n    tag_167:\n        /* \"#utility.yul\":10737:10771   */\n      0x4e6f20736520686120696e6772657361646f206e696e67756e612063616e7469\n        /* \"#utility.yul\":10733:10734   */\n      0x00\n        /* \"#utility.yul\":10725:10731   */\n      dup3\n        /* \"#utility.yul\":10721:10735   */\n      add\n        /* \"#utility.yul\":10714:10772   */\n      mstore\n        /* \"#utility.yul\":10806:10811   */\n      0x6461640000000000000000000000000000000000000000000000000000000000\n        /* \"#utility.yul\":10801:10803   */\n      0x20\n        /* \"#utility.yul\":10793:10799   */\n      dup3\n        /* \"#utility.yul\":10789:10804   */\n      add\n        /* \"#utility.yul\":10782:10812   */\n      mstore\n        /* \"#utility.yul\":10597:10819   */\n      pop\n      jump\t// out\n        /* \"#utility.yul\":10825:11191   */\n    tag_168:\n        /* \"#utility.yul\":10967:10970   */\n      0x00\n        /* \"#utility.yul\":10988:11055   */\n      tag_299\n        /* \"#utility.yul\":11052:11054   */\n      0x23\n        /* \"#utility.yul\":11047:11050   */\n      dup4\n        /* \"#utility.yul\":10988:11055   */\n      tag_152\n      jump\t// in\n    tag_299:\n        /* \"#utility.yul\":10981:11055   */\n      swap2\n      pop\n        /* \"#utility.yul\":11064:11157   */\n      tag_300\n        /* \"#utility.yul\":11153:11156   */\n      dup3\n        /* \"#utility.yul\":11064:11157   */\n      tag_167\n      jump\t// in\n    tag_300:\n        /* \"#utility.yul\":11182:11184   */\n      0x40\n        /* \"#utility.yul\":11177:11180   */\n      dup3\n        /* \"#utility.yul\":11173:11185   */\n      add\n        /* \"#utility.yul\":11166:11185   */\n      swap1\n      pop\n        /* \"#utility.yul\":10825:11191   */\n      swap2\n      swap1\n      pop\n      jump\t// out\n        /* \"#utility.yul\":11197:11616   */\n    tag_85:\n        /* \"#utility.yul\":11363:11367   */\n      0x00\n        /* \"#utility.yul\":11401:11403   */\n      0x20\n        /* \"#utility.yul\":11390:11399   */\n      dup3\n        /* \"#utility.yul\":11386:11404   */\n      add\n        /* \"#utility.yul\":11378:11404   */\n      swap1\n      pop\n        /* \"#utility.yul\":11450:11459   */\n      dup2\n        /* \"#utility.yul\":11444:11448   */\n      dup2\n        /* \"#utility.yul\":11440:11460   */\n      sub\n        /* \"#utility.yul\":11436:11437   */\n      0x00\n        /* \"#utility.yul\":11425:11434   */\n      dup4\n        /* \"#utility.yul\":11421:11438   */\n      add\n        /* \"#utility.yul\":11414:11461   */\n      mstore\n        /* \"#utility.yul\":11478:11609   */\n      tag_302\n        /* \"#utility.yul\":11604:11608   */\n      dup2\n        /* \"#utility.yul\":11478:11609   */\n      tag_168\n      jump\t// in\n    tag_302:\n        /* \"#utility.yul\":11470:11609   */\n      swap1\n      pop\n        /* \"#utility.yul\":11197:11616   */\n      swap2\n      swap1\n      pop\n      jump\t// out\n        /* \"#utility.yul\":11622:11790   */\n    tag_169:\n        /* \"#utility.yul\":11762:11782   */\n      0x53616c646f20696e737566696369656e74650000000000000000000000000000\n        /* \"#utility.yul\":11758:11759   */\n      0x00\n        /* \"#utility.yul\":11750:11756   */\n      dup3\n        /* \"#utility.yul\":11746:11760   */\n      add\n        /* \"#utility.yul\":11739:11783   */\n      mstore\n        /* \"#utility.yul\":11622:11790   */\n      pop\n      jump\t// out\n        /* \"#utility.yul\":11796:12162   */\n    tag_170:\n        /* \"#utility.yul\":11938:11941   */\n      0x00\n        /* \"#utility.yul\":11959:12026   */\n      tag_305\n        /* \"#utility.yul\":12023:12025   */\n      0x12\n        /* \"#utility.yul\":12018:12021   */\n      dup4\n        /* \"#utility.yul\":11959:12026   */\n      tag_152\n      jump\t// in\n    tag_305:\n        /* \"#utility.yul\":11952:12026   */\n      swap2\n      pop\n        /* \"#utility.yul\":12035:12128   */\n      tag_306\n        /* \"#utility.yul\":12124:12127   */\n      dup3\n        /* \"#utility.yul\":12035:12128   */\n      tag_169\n      jump\t// in\n    tag_306:\n        /* \"#utility.yul\":12153:12155   */\n      0x20\n        /* \"#utility.yul\":12148:12151   */\n      dup3\n        /* \"#utility.yul\":12144:12156   */\n      add\n        /* \"#utility.yul\":12137:12156   */\n      swap1\n      pop\n        /* \"#utility.yul\":11796:12162   */\n      swap2\n      swap1\n      pop\n      jump\t// out\n        /* \"#utility.yul\":12168:12587   */\n    tag_88:\n        /* \"#utility.yul\":12334:12338   */\n      0x00\n        /* \"#utility.yul\":12372:12374   */\n      0x20\n        /* \"#utility.yul\":12361:12370   */\n      dup3\n        /* \"#utility.yul\":12357:12375   */\n      add\n        /* \"#utility.yul\":12349:12375   */\n      swap1\n      pop\n        /* \"#utility.yul\":12421:12430   */\n      dup2\n        /* \"#utility.yul\":12415:12419   */\n      dup2\n        /* \"#utility.yul\":12411:12431   */\n      sub\n        /* \"#utility.yul\":12407:12408   */\n      0x00\n        /* \"#utility.yul\":12396:12405   */\n      dup4\n        /* \"#utility.yul\":12392:12409   */\n      add\n        /* \"#utility.yul\":12385:12432   */\n      mstore\n        /* \"#utility.yul\":12449:12580   */\n      tag_308\n        /* \"#utility.yul\":12575:12579   */\n      dup2\n        /* \"#utility.yul\":12449:12580   */\n      tag_170\n      jump\t// in\n    tag_308:\n        /* \"#utility.yul\":12441:12580   */\n      swap1\n      pop\n        /* \"#utility.yul\":12168:12587   */\n      swap2\n      swap1\n      pop\n      jump\t// out\n        /* \"#utility.yul\":12593:13003   */\n    tag_90:\n        /* \"#utility.yul\":12633:12640   */\n      0x00\n        /* \"#utility.yul\":12656:12676   */\n      tag_310\n        /* \"#utility.yul\":12674:12675   */\n      dup3\n        /* \"#utility.yul\":12656:12676   */\n      tag_138\n      jump\t// in\n    tag_310:\n        /* \"#utility.yul\":12651:12676   */\n      swap2\n      pop\n        /* \"#utility.yul\":12690:12710   */\n      tag_311\n        /* \"#utility.yul\":12708:12709   */\n      dup4\n        /* \"#utility.yul\":12690:12710   */\n      tag_138\n      jump\t// in\n    tag_311:\n        /* \"#utility.yul\":12685:12710   */\n      swap3\n      pop\n        /* \"#utility.yul\":12745:12746   */\n      dup3\n        /* \"#utility.yul\":12742:12743   */\n      dup3\n        /* \"#utility.yul\":12738:12747   */\n      mul\n        /* \"#utility.yul\":12767:12797   */\n      tag_312\n        /* \"#utility.yul\":12785:12796   */\n      dup2\n        /* \"#utility.yul\":12767:12797   */\n      tag_138\n      jump\t// in\n    tag_312:\n        /* \"#utility.yul\":12756:12797   */\n      swap2\n      pop\n        /* \"#utility.yul\":12946:12947   */\n      dup3\n        /* \"#utility.yul\":12937:12944   */\n      dup3\n        /* \"#utility.yul\":12933:12948   */\n      div\n        /* \"#utility.yul\":12930:12931   */\n      dup5\n        /* \"#utility.yul\":12927:12949   */\n      eq\n        /* \"#utility.yul\":12907:12908   */\n      dup4\n        /* \"#utility.yul\":12900:12909   */\n      iszero\n        /* \"#utility.yul\":12880:12963   */\n      or\n        /* \"#utility.yul\":12857:12996   */\n      tag_313\n      jumpi\n        /* \"#utility.yul\":12976:12994   */\n      tag_314\n      tag_164\n      jump\t// in\n    tag_314:\n        /* \"#utility.yul\":12857:12996   */\n    tag_313:\n        /* \"#utility.yul\":12641:13003   */\n      pop\n        /* \"#utility.yul\":12593:13003   */\n      swap3\n      swap2\n      pop\n      pop\n      jump\t// out\n        /* \"#utility.yul\":13009:13189   */\n    tag_171:\n        /* \"#utility.yul\":13057:13134   */\n      0x4e487b7100000000000000000000000000000000000000000000000000000000\n        /* \"#utility.yul\":13054:13055   */\n      0x00\n        /* \"#utility.yul\":13047:13135   */\n      mstore\n        /* \"#utility.yul\":13154:13158   */\n      0x12\n        /* \"#utility.yul\":13151:13152   */\n      0x04\n        /* \"#utility.yul\":13144:13159   */\n      mstore\n        /* \"#utility.yul\":13178:13182   */\n      0x24\n        /* \"#utility.yul\":13175:13176   */\n      0x00\n        /* \"#utility.yul\":13168:13183   */\n      revert\n        /* \"#utility.yul\":13195:13380   */\n    tag_92:\n        /* \"#utility.yul\":13235:13236   */\n      0x00\n        /* \"#utility.yul\":13252:13272   */\n      tag_317\n        /* \"#utility.yul\":13270:13271   */\n      dup3\n        /* \"#utility.yul\":13252:13272   */\n      tag_138\n      jump\t// in\n    tag_317:\n        /* \"#utility.yul\":13247:13272   */\n      swap2\n      pop\n        /* \"#utility.yul\":13286:13306   */\n      tag_318\n        /* \"#utility.yul\":13304:13305   */\n      dup4\n        /* \"#utility.yul\":13286:13306   */\n      tag_138\n      jump\t// in\n    tag_318:\n        /* \"#utility.yul\":13281:13306   */\n      swap3\n      pop\n        /* \"#utility.yul\":13325:13326   */\n      dup3\n        /* \"#utility.yul\":13315:13350   */\n      tag_319\n      jumpi\n        /* \"#utility.yul\":13330:13348   */\n      tag_320\n      tag_171\n      jump\t// in\n    tag_320:\n        /* \"#utility.yul\":13315:13350   */\n    tag_319:\n        /* \"#utility.yul\":13372:13373   */\n      dup3\n        /* \"#utility.yul\":13369:13370   */\n      dup3\n        /* \"#utility.yul\":13365:13374   */\n      div\n        /* \"#utility.yul\":13360:13374   */\n      swap1\n      pop\n        /* \"#utility.yul\":13195:13380   */\n      swap3\n      swap2\n      pop\n      pop\n      jump\t// out\n        /* \"#utility.yul\":13386:13577   */\n    tag_96:\n        /* \"#utility.yul\":13426:13429   */\n      0x00\n        /* \"#utility.yul\":13445:13465   */\n      tag_322\n        /* \"#utility.yul\":13463:13464   */\n      dup3\n        /* \"#utility.yul\":13445:13465   */\n      tag_138\n      jump\t// in\n    tag_322:\n        /* \"#utility.yul\":13440:13465   */\n      swap2\n      pop\n        /* \"#utility.yul\":13479:13499   */\n      tag_323\n        /* \"#utility.yul\":13497:13498   */\n      dup4\n        /* \"#utility.yul\":13479:13499   */\n      tag_138\n      jump\t// in\n    tag_323:\n        /* \"#utility.yul\":13474:13499   */\n      swap3\n      pop\n        /* \"#utility.yul\":13522:13523   */\n      dup3\n        /* \"#utility.yul\":13519:13520   */\n      dup3\n        /* \"#utility.yul\":13515:13524   */\n      add\n        /* \"#utility.yul\":13508:13524   */\n      swap1\n      pop\n        /* \"#utility.yul\":13543:13546   */\n      dup1\n        /* \"#utility.yul\":13540:13541   */\n      dup3\n        /* \"#utility.yul\":13537:13547   */\n      gt\n        /* \"#utility.yul\":13534:13570   */\n      iszero\n      tag_324\n      jumpi\n        /* \"#utility.yul\":13550:13568   */\n      tag_325\n      tag_164\n      jump\t// in\n    tag_325:\n        /* \"#utility.yul\":13534:13570   */\n    tag_324:\n        /* \"#utility.yul\":13386:13577   */\n      swap3\n      swap2\n      pop\n      pop\n      jump\t// out\n        /* \"#utility.yul\":13583:13915   */\n    tag_100:\n        /* \"#utility.yul\":13704:13708   */\n      0x00\n        /* \"#utility.yul\":13742:13744   */\n      0x40\n        /* \"#utility.yul\":13731:13740   */\n      dup3\n        /* \"#utility.yul\":13727:13745   */\n      add\n        /* \"#utility.yul\":13719:13745   */\n      swap1\n      pop\n        /* \"#utility.yul\":13755:13826   */\n      tag_327\n        /* \"#utility.yul\":13823:13824   */\n      0x00\n        /* \"#utility.yul\":13812:13821   */\n      dup4\n        /* \"#utility.yul\":13808:13825   */\n      add\n        /* \"#utility.yul\":13799:13805   */\n      dup6\n        /* \"#utility.yul\":13755:13826   */\n      tag_141\n      jump\t// in\n    tag_327:\n        /* \"#utility.yul\":13836:13908   */\n      tag_328\n        /* \"#utility.yul\":13904:13906   */\n      0x20\n        /* \"#utility.yul\":13893:13902   */\n      dup4\n        /* \"#utility.yul\":13889:13907   */\n      add\n        /* \"#utility.yul\":13880:13886   */\n      dup5\n        /* \"#utility.yul\":13836:13908   */\n      tag_141\n      jump\t// in\n    tag_328:\n        /* \"#utility.yul\":13583:13915   */\n      swap4\n      swap3\n      pop\n      pop\n      pop\n      jump\t// out\n        /* \"#utility.yul\":13921:14145   */\n    tag_172:\n        /* \"#utility.yul\":14061:14095   */\n      0x456c207072696d6572206e6f6d627265206e6f20707565646520657374617220\n        /* \"#utility.yul\":14057:14058   */\n      0x00\n        /* \"#utility.yul\":14049:14055   */\n      dup3\n        /* \"#utility.yul\":14045:14059   */\n      add\n        /* \"#utility.yul\":14038:14096   */\n      mstore\n        /* \"#utility.yul\":14130:14137   */\n      0x766163696f000000000000000000000000000000000000000000000000000000\n        /* \"#utility.yul\":14125:14127   */\n      0x20\n        /* \"#utility.yul\":14117:14123   */\n      dup3\n        /* \"#utility.yul\":14113:14128   */\n      add\n        /* \"#utility.yul\":14106:14138   */\n      mstore\n        /* \"#utility.yul\":13921:14145   */\n      pop\n      jump\t// out\n        /* \"#utility.yul\":14151:14517   */\n    tag_173:\n        /* \"#utility.yul\":14293:14296   */\n      0x00\n        /* \"#utility.yul\":14314:14381   */\n      tag_331\n        /* \"#utility.yul\":14378:14380   */\n      0x25\n        /* \"#utility.yul\":14373:14376   */\n      dup4\n        /* \"#utility.yul\":14314:14381   */\n      tag_152\n      jump\t// in\n    tag_331:\n        /* \"#utility.yul\":14307:14381   */\n      swap2\n      pop\n        /* \"#utility.yul\":14390:14483   */\n      tag_332\n        /* \"#utility.yul\":14479:14482   */\n      dup3\n        /* \"#utility.yul\":14390:14483   */\n      tag_172\n      jump\t// in\n    tag_332:\n        /* \"#utility.yul\":14508:14510   */\n      0x40\n        /* \"#utility.yul\":14503:14506   */\n      dup3\n        /* \"#utility.yul\":14499:14511   */\n      add\n        /* \"#utility.yul\":14492:14511   */\n      swap1\n      pop\n        /* \"#utility.yul\":14151:14517   */\n      swap2\n      swap1\n      pop\n      jump\t// out\n        /* \"#utility.yul\":14523:14942   */\n    tag_104:\n        /* \"#utility.yul\":14689:14693   */\n      0x00\n        /* \"#utility.yul\":14727:14729   */\n      0x20\n        /* \"#utility.yul\":14716:14725   */\n      dup3\n        /* \"#utility.yul\":14712:14730   */\n      add\n        /* \"#utility.yul\":14704:14730   */\n      swap1\n      pop\n        /* \"#utility.yul\":14776:14785   */\n      dup2\n        /* \"#utility.yul\":14770:14774   */\n      dup2\n        /* \"#utility.yul\":14766:14786   */\n      sub\n        /* \"#utility.yul\":14762:14763   */\n      0x00\n        /* \"#utility.yul\":14751:14760   */\n      dup4\n        /* \"#utility.yul\":14747:14764   */\n      add\n        /* \"#utility.yul\":14740:14787   */\n      mstore\n        /* \"#utility.yul\":14804:14935   */\n      tag_334\n        /* \"#utility.yul\":14930:14934   */\n      dup2\n        /* \"#utility.yul\":14804:14935   */\n      tag_173\n      jump\t// in\n    tag_334:\n        /* \"#utility.yul\":14796:14935   */\n      swap1\n      pop\n        /* \"#utility.yul\":14523:14942   */\n      swap2\n      swap1\n      pop\n      jump\t// out\n        /* \"#utility.yul\":14948:15130   */\n    tag_174:\n        /* \"#utility.yul\":15088:15122   */\n      0x456c206170656c6c69646f206e6f20707565646520657374617220766163696f\n        /* \"#utility.yul\":15084:15085   */\n      0x00\n        /* \"#utility.yul\":15076:15082   */\n      dup3\n        /* \"#utility.yul\":15072:15086   */\n      add\n        /* \"#utility.yul\":15065:15123   */\n      mstore\n        /* \"#utility.yul\":14948:15130   */\n      pop\n      jump\t// out\n        /* \"#utility.yul\":15136:15502   */\n    tag_175:\n        /* \"#utility.yul\":15278:15281   */\n      0x00\n        /* \"#utility.yul\":15299:15366   */\n      tag_337\n        /* \"#utility.yul\":15363:15365   */\n      0x20\n        /* \"#utility.yul\":15358:15361   */\n      dup4\n        /* \"#utility.yul\":15299:15366   */\n      tag_152\n      jump\t// in\n    tag_337:\n        /* \"#utility.yul\":15292:15366   */\n      swap2\n      pop\n        /* \"#utility.yul\":15375:15468   */\n      tag_338\n        /* \"#utility.yul\":15464:15467   */\n      dup3\n        /* \"#utility.yul\":15375:15468   */\n      tag_174\n      jump\t// in\n    tag_338:\n        /* \"#utility.yul\":15493:15495   */\n      0x20\n        /* \"#utility.yul\":15488:15491   */\n      dup3\n        /* \"#utility.yul\":15484:15496   */\n      add\n        /* \"#utility.yul\":15477:15496   */\n      swap1\n      pop\n        /* \"#utility.yul\":15136:15502   */\n      swap2\n      swap1\n      pop\n      jump\t// out\n        /* \"#utility.yul\":15508:15927   */\n    tag_107:\n        /* \"#utility.yul\":15674:15678   */\n      0x00\n        /* \"#utility.yul\":15712:15714   */\n      0x20\n        /* \"#utility.yul\":15701:15710   */\n      dup3\n        /* \"#utility.yul\":15697:15715   */\n      add\n        /* \"#utility.yul\":15689:15715   */\n      swap1\n      pop\n        /* \"#utility.yul\":15761:15770   */\n      dup2\n        /* \"#utility.yul\":15755:15759   */\n      dup2\n        /* \"#utility.yul\":15751:15771   */\n      sub\n        /* \"#utility.yul\":15747:15748   */\n      0x00\n        /* \"#utility.yul\":15736:15745   */\n      dup4\n        /* \"#utility.yul\":15732:15749   */\n      add\n        /* \"#utility.yul\":15725:15772   */\n      mstore\n        /* \"#utility.yul\":15789:15920   */\n      tag_340\n        /* \"#utility.yul\":15915:15919   */\n      dup2\n        /* \"#utility.yul\":15789:15920   */\n      tag_175\n      jump\t// in\n    tag_340:\n        /* \"#utility.yul\":15781:15920   */\n      swap1\n      pop\n        /* \"#utility.yul\":15508:15927   */\n      swap2\n      swap1\n      pop\n      jump\t// out\n        /* \"#utility.yul\":15933:16104   */\n    tag_176:\n        /* \"#utility.yul\":16073:16096   */\n      0x5573756172696f207961207265676973747261646f0000000000000000000000\n        /* \"#utility.yul\":16069:16070   */\n      0x00\n        /* \"#utility.yul\":16061:16067   */\n      dup3\n        /* \"#utility.yul\":16057:16071   */\n      add\n        /* \"#utility.yul\":16050:16097   */\n      mstore\n        /* \"#utility.yul\":15933:16104   */\n      pop\n      jump\t// out\n        /* \"#utility.yul\":16110:16476   */\n    tag_177:\n        /* \"#utility.yul\":16252:16255   */\n      0x00\n        /* \"#utility.yul\":16273:16340   */\n      tag_343\n        /* \"#utility.yul\":16337:16339   */\n      0x15\n        /* \"#utility.yul\":16332:16335   */\n      dup4\n        /* \"#utility.yul\":16273:16340   */\n      tag_152\n      jump\t// in\n    tag_343:\n        /* \"#utility.yul\":16266:16340   */\n      swap2\n      pop\n        /* \"#utility.yul\":16349:16442   */\n      tag_344\n        /* \"#utility.yul\":16438:16441   */\n      dup3\n        /* \"#utility.yul\":16349:16442   */\n      tag_176\n      jump\t// in\n    tag_344:\n        /* \"#utility.yul\":16467:16469   */\n      0x20\n        /* \"#utility.yul\":16462:16465   */\n      dup3\n        /* \"#utility.yul\":16458:16470   */\n      add\n        /* \"#utility.yul\":16451:16470   */\n      swap1\n      pop\n        /* \"#utility.yul\":16110:16476   */\n      swap2\n      swap1\n      pop\n      jump\t// out\n        /* \"#utility.yul\":16482:16901   */\n    tag_110:\n        /* \"#utility.yul\":16648:16652   */\n      0x00\n        /* \"#utility.yul\":16686:16688   */\n      0x20\n        /* \"#utility.yul\":16675:16684   */\n      dup3\n        /* \"#utility.yul\":16671:16689   */\n      add\n        /* \"#utility.yul\":16663:16689   */\n      swap1\n      pop\n        /* \"#utility.yul\":16735:16744   */\n      dup2\n        /* \"#utility.yul\":16729:16733   */\n      dup2\n        /* \"#utility.yul\":16725:16745   */\n      sub\n        /* \"#utility.yul\":16721:16722   */\n      0x00\n        /* \"#utility.yul\":16710:16719   */\n      dup4\n        /* \"#utility.yul\":16706:16723   */\n      add\n        /* \"#utility.yul\":16699:16746   */\n      mstore\n        /* \"#utility.yul\":16763:16894   */\n      tag_346\n        /* \"#utility.yul\":16889:16893   */\n      dup2\n        /* \"#utility.yul\":16763:16894   */\n      tag_177\n      jump\t// in\n    tag_346:\n        /* \"#utility.yul\":16755:16894   */\n      swap1\n      pop\n        /* \"#utility.yul\":16482:16901   */\n      swap2\n      swap1\n      pop\n      jump\t// out\n        /* \"#utility.yul\":16907:17087   */\n    tag_178:\n        /* \"#utility.yul\":16955:17032   */\n      0x4e487b7100000000000000000000000000000000000000000000000000000000\n        /* \"#utility.yul\":16952:16953   */\n      0x00\n        /* \"#utility.yul\":16945:17033   */\n      mstore\n        /* \"#utility.yul\":17052:17056   */\n      0x41\n        /* \"#utility.yul\":17049:17050   */\n      0x04\n        /* \"#utility.yul\":17042:17057   */\n      mstore\n        /* \"#utility.yul\":17076:17080   */\n      0x24\n        /* \"#utility.yul\":17073:17074   */\n      0x00\n        /* \"#utility.yul\":17066:17081   */\n      revert\n        /* \"#utility.yul\":17093:17273   */\n    tag_179:\n        /* \"#utility.yul\":17141:17218   */\n      0x4e487b7100000000000000000000000000000000000000000000000000000000\n        /* \"#utility.yul\":17138:17139   */\n      0x00\n        /* \"#utility.yul\":17131:17219   */\n      mstore\n        /* \"#utility.yul\":17238:17242   */\n      0x22\n        /* \"#utility.yul\":17235:17236   */\n      0x04\n        /* \"#utility.yul\":17228:17243   */\n      mstore\n        /* \"#utility.yul\":17262:17266   */\n      0x24\n        /* \"#utility.yul\":17259:17260   */\n      0x00\n        /* \"#utility.yul\":17252:17267   */\n      revert\n        /* \"#utility.yul\":17279:17599   */\n    tag_117:\n        /* \"#utility.yul\":17323:17329   */\n      0x00\n        /* \"#utility.yul\":17360:17361   */\n      0x02\n        /* \"#utility.yul\":17354:17358   */\n      dup3\n        /* \"#utility.yul\":17350:17362   */\n      div\n        /* \"#utility.yul\":17340:17362   */\n      swap1\n      pop\n        /* \"#utility.yul\":17407:17408   */\n      0x01\n        /* \"#utility.yul\":17401:17405   */\n      dup3\n        /* \"#utility.yul\":17397:17409   */\n      and\n        /* \"#utility.yul\":17428:17446   */\n      dup1\n        /* \"#utility.yul\":17418:17499   */\n      tag_350\n      jumpi\n        /* \"#utility.yul\":17484:17488   */\n      0x7f\n        /* \"#utility.yul\":17476:17482   */\n      dup3\n        /* \"#utility.yul\":17472:17489   */\n      and\n        /* \"#utility.yul\":17462:17489   */\n      swap2\n      pop\n        /* \"#utility.yul\":17418:17499   */\n    tag_350:\n        /* \"#utility.yul\":17546:17548   */\n      0x20\n        /* \"#utility.yul\":17538:17544   */\n      dup3\n        /* \"#utility.yul\":17535:17549   */\n      lt\n        /* \"#utility.yul\":17515:17533   */\n      dup2\n        /* \"#utility.yul\":17512:17550   */\n      sub\n        /* \"#utility.yul\":17509:17593   */\n      tag_351\n      jumpi\n        /* \"#utility.yul\":17565:17583   */\n      tag_352\n      tag_179\n      jump\t// in\n    tag_352:\n        /* \"#utility.yul\":17509:17593   */\n    tag_351:\n        /* \"#utility.yul\":17330:17599   */\n      pop\n        /* \"#utility.yul\":17279:17599   */\n      swap2\n      swap1\n      pop\n      jump\t// out\n        /* \"#utility.yul\":17605:17746   */\n    tag_180:\n        /* \"#utility.yul\":17654:17658   */\n      0x00\n        /* \"#utility.yul\":17677:17680   */\n      dup2\n        /* \"#utility.yul\":17669:17680   */\n      swap1\n      pop\n        /* \"#utility.yul\":17700:17703   */\n      dup2\n        /* \"#utility.yul\":17697:17698   */\n      0x00\n        /* \"#utility.yul\":17690:17704   */\n      mstore\n        /* \"#utility.yul\":17734:17738   */\n      0x20\n        /* \"#utility.yul\":17731:17732   */\n      0x00\n        /* \"#utility.yul\":17721:17739   */\n      keccak256\n        /* \"#utility.yul\":17713:17739   */\n      swap1\n      pop\n        /* \"#utility.yul\":17605:17746   */\n      swap2\n      swap1\n      pop\n      jump\t// out\n        /* \"#utility.yul\":17752:17845   */\n    tag_181:\n        /* \"#utility.yul\":17789:17795   */\n      0x00\n        /* \"#utility.yul\":17836:17838   */\n      0x20\n        /* \"#utility.yul\":17831:17833   */\n      0x1f\n        /* \"#utility.yul\":17824:17829   */\n      dup4\n        /* \"#utility.yul\":17820:17834   */\n      add\n        /* \"#utility.yul\":17816:17839   */\n      div\n        /* \"#utility.yul\":17806:17839   */\n      swap1\n      pop\n        /* \"#utility.yul\":17752:17845   */\n      swap2\n      swap1\n      pop\n      jump\t// out\n        /* \"#utility.yul\":17851:17958   */\n    tag_182:\n        /* \"#utility.yul\":17895:17903   */\n      0x00\n        /* \"#utility.yul\":17945:17950   */\n      dup3\n        /* \"#utility.yul\":17939:17943   */\n      dup3\n        /* \"#utility.yul\":17935:17951   */\n      shl\n        /* \"#utility.yul\":17914:17951   */\n      swap1\n      pop\n        /* \"#utility.yul\":17851:17958   */\n      swap3\n      swap2\n      pop\n      pop\n      jump\t// out\n        /* \"#utility.yul\":17964:18357   */\n    tag_183:\n        /* \"#utility.yul\":18033:18039   */\n      0x00\n        /* \"#utility.yul\":18083:18084   */\n      0x08\n        /* \"#utility.yul\":18071:18081   */\n      dup4\n        /* \"#utility.yul\":18067:18085   */\n      mul\n        /* \"#utility.yul\":18106:18203   */\n      tag_357\n        /* \"#utility.yul\":18136:18202   */\n      0xffffffffffffffffffffffffffffffffffffffffffffffffffffffffffffffff\n        /* \"#utility.yul\":18125:18134   */\n      dup3\n        /* \"#utility.yul\":18106:18203   */\n      tag_182\n      jump\t// in\n    tag_357:\n        /* \"#utility.yul\":18224:18263   */\n      tag_358\n        /* \"#utility.yul\":18254:18262   */\n      dup7\n        /* \"#utility.yul\":18243:18252   */\n      dup4\n        /* \"#utility.yul\":18224:18263   */\n      tag_182\n      jump\t// in\n    tag_358:\n        /* \"#utility.yul\":18212:18263   */\n      swap6\n      pop\n        /* \"#utility.yul\":18296:18300   */\n      dup1\n        /* \"#utility.yul\":18292:18301   */\n      not\n        /* \"#utility.yul\":18285:18290   */\n      dup5\n        /* \"#utility.yul\":18281:18302   */\n      and\n        /* \"#utility.yul\":18272:18302   */\n      swap4\n      pop\n        /* \"#utility.yul\":18345:18349   */\n      dup1\n        /* \"#utility.yul\":18335:18343   */\n      dup7\n        /* \"#utility.yul\":18331:18350   */\n      and\n        /* \"#utility.yul\":18324:18329   */\n      dup5\n        /* \"#utility.yul\":18321:18351   */\n      or\n        /* \"#utility.yul\":18311:18351   */\n      swap3\n      pop\n        /* \"#utility.yul\":18040:18357   */\n      pop\n      pop\n        /* \"#utility.yul\":17964:18357   */\n      swap4\n      swap3\n      pop\n      pop\n      pop\n      jump\t// out\n        /* \"#utility.yul\":18363:18423   */\n    tag_184:\n        /* \"#utility.yul\":18391:18394   */\n      0x00\n        /* \"#utility.yul\":18412:18417   */\n      dup2\n        /* \"#utility.yul\":18405:18417   */\n      swap1\n      pop\n        /* \"#utility.yul\":18363:18423   */\n      swap2\n      swap1\n      pop\n      jump\t// out\n        /* \"#utility.yul\":18429:18571   */\n    tag_185:\n        /* \"#utility.yul\":18479:18488   */\n      0x00\n        /* \"#utility.yul\":18512:18565   */\n      tag_361\n        /* \"#utility.yul\":18530:18564   */\n      tag_362\n        /* \"#utility.yul\":18539:18563   */\n      tag_363\n        /* \"#utility.yul\":18557:18562   */\n      dup5\n        /* \"#utility.yul\":18539:18563   */\n      tag_138\n      jump\t// in\n    tag_363:\n        /* \"#utility.yul\":18530:18564   */\n      tag_184\n      jump\t// in\n    tag_362:\n        /* \"#utility.yul\":18512:18565   */\n      tag_138\n      jump\t// in\n    tag_361:\n        /* \"#utility.yul\":18499:18565   */\n      swap1\n      pop\n        /* \"#utility.yul\":18429:18571   */\n      swap2\n      swap1\n      pop\n      jump\t// out\n        /* \"#utility.yul\":18577:18652   */\n    tag_186:\n        /* \"#utility.yul\":18620:18623   */\n      0x00\n        /* \"#utility.yul\":18641:18646   */\n      dup2\n        /* \"#utility.yul\":18634:18646   */\n      swap1\n      pop\n        /* \"#utility.yul\":18577:18652   */\n      swap2\n      swap1\n      pop\n      jump\t// out\n        /* \"#utility.yul\":18658:18927   */\n    tag_187:\n        /* \"#utility.yul\":18768:18807   */\n      tag_366\n        /* \"#utility.yul\":18799:18806   */\n      dup4\n        /* \"#utility.yul\":18768:18807   */\n      tag_185\n      jump\t// in\n    tag_366:\n        /* \"#utility.yul\":18829:18920   */\n      tag_367\n        /* \"#utility.yul\":18878:18919   */\n      tag_368\n        /* \"#utility.yul\":18902:18918   */\n      dup3\n        /* \"#utility.yul\":18878:18919   */\n      tag_186\n      jump\t// in\n    tag_368:\n        /* \"#utility.yul\":18870:18876   */\n      dup5\n        /* \"#utility.yul\":18863:18867   */\n      dup5\n        /* \"#utility.yul\":18857:18868   */\n      sload\n        /* \"#utility.yul\":18829:18920   */\n      tag_183\n      jump\t// in\n    tag_367:\n        /* \"#utility.yul\":18823:18827   */\n      dup3\n        /* \"#utility.yul\":18816:18921   */\n      sstore\n        /* \"#utility.yul\":18734:18927   */\n      pop\n        /* \"#utility.yul\":18658:18927   */\n      pop\n      pop\n      pop\n      jump\t// out\n        /* \"#utility.yul\":18933:19006   */\n    tag_188:\n        /* \"#utility.yul\":18978:18981   */\n      0x00\n        /* \"#utility.yul\":18933:19006   */\n      swap1\n      jump\t// out\n        /* \"#utility.yul\":19012:19201   */\n    tag_189:\n        /* \"#utility.yul\":19089:19121   */\n      tag_371\n      tag_188\n      jump\t// in\n    tag_371:\n        /* \"#utility.yul\":19130:19195   */\n      tag_372\n        /* \"#utility.yul\":19188:19194   */\n      dup2\n        /* \"#utility.yul\":19180:19186   */\n      dup5\n        /* \"#utility.yul\":19174:19178   */\n      dup5\n        /* \"#utility.yul\":19130:19195   */\n      tag_187\n      jump\t// in\n    tag_372:\n        /* \"#utility.yul\":19065:19201   */\n      pop\n        /* \"#utility.yul\":19012:19201   */\n      pop\n      pop\n      jump\t// out\n        /* \"#utility.yul\":19207:19393   */\n    tag_190:\n        /* \"#utility.yul\":19267:19387   */\n    tag_374:\n        /* \"#utility.yul\":19284:19287   */\n      dup2\n        /* \"#utility.yul\":19277:19282   */\n      dup2\n        /* \"#utility.yul\":19274:19288   */\n      lt\n        /* \"#utility.yul\":19267:19387   */\n      iszero\n      tag_376\n      jumpi\n        /* \"#utility.yul\":19338:19377   */\n      tag_377\n        /* \"#utility.yul\":19375:19376   */\n      0x00\n        /* \"#utility.yul\":19368:19373   */\n      dup3\n        /* \"#utility.yul\":19338:19377   */\n      tag_189\n      jump\t// in\n    tag_377:\n        /* \"#utility.yul\":19311:19312   */\n      0x01\n        /* \"#utility.yul\":19304:19309   */\n      dup2\n        /* \"#utility.yul\":19300:19313   */\n      add\n        /* \"#utility.yul\":19291:19313   */\n      swap1\n      pop\n        /* \"#utility.yul\":19267:19387   */\n      jump(tag_374)\n    tag_376:\n        /* \"#utility.yul\":19207:19393   */\n      pop\n      pop\n      jump\t// out\n        /* \"#utility.yul\":19399:19942   */\n    tag_191:\n        /* \"#utility.yul\":19500:19502   */\n      0x1f\n        /* \"#utility.yul\":19495:19498   */\n      dup3\n        /* \"#utility.yul\":19492:19503   */\n      gt\n        /* \"#utility.yul\":19489:19935   */\n      iszero\n      tag_379\n      jumpi\n        /* \"#utility.yul\":19534:19572   */\n      tag_380\n        /* \"#utility.yul\":19566:19571   */\n      dup2\n        /* \"#utility.yul\":19534:19572   */\n      tag_180\n      jump\t// in\n    tag_380:\n        /* \"#utility.yul\":19618:19647   */\n      tag_381\n        /* \"#utility.yul\":19636:19646   */\n      dup5\n        /* \"#utility.yul\":19618:19647   */\n      tag_181\n      jump\t// in\n    tag_381:\n        /* \"#utility.yul\":19608:19616   */\n      dup2\n        /* \"#utility.yul\":19604:19648   */\n      add\n        /* \"#utility.yul\":19801:19803   */\n      0x20\n        /* \"#utility.yul\":19789:19799   */\n      dup6\n        /* \"#utility.yul\":19786:19804   */\n      lt\n        /* \"#utility.yul\":19783:19832   */\n      iszero\n      tag_382\n      jumpi\n        /* \"#utility.yul\":19822:19830   */\n      dup2\n        /* \"#utility.yul\":19807:19830   */\n      swap1\n      pop\n        /* \"#utility.yul\":19783:19832   */\n    tag_382:\n        /* \"#utility.yul\":19845:19925   */\n      tag_383\n        /* \"#utility.yul\":19901:19923   */\n      tag_384\n        /* \"#utility.yul\":19919:19922   */\n      dup6\n        /* \"#utility.yul\":19901:19923   */\n      tag_181\n      jump\t// in\n    tag_384:\n        /* \"#utility.yul\":19891:19899   */\n      dup4\n        /* \"#utility.yul\":19887:19924   */\n      add\n        /* \"#utility.yul\":19874:19885   */\n      dup3\n        /* \"#utility.yul\":19845:19925   */\n      tag_190\n      jump\t// in\n    tag_383:\n        /* \"#utility.yul\":19504:19935   */\n      pop\n      pop\n        /* \"#utility.yul\":19489:19935   */\n    tag_379:\n        /* \"#utility.yul\":19399:19942   */\n      pop\n      pop\n      pop\n      jump\t// out\n        /* \"#utility.yul\":19948:20065   */\n    tag_192:\n        /* \"#utility.yul\":20002:20010   */\n      0x00\n        /* \"#utility.yul\":20052:20057   */\n      dup3\n        /* \"#utility.yul\":20046:20050   */\n      dup3\n        /* \"#utility.yul\":20042:20058   */\n      shr\n        /* \"#utility.yul\":20021:20058   */\n      swap1\n      pop\n        /* \"#utility.yul\":19948:20065   */\n      swap3\n      swap2\n      pop\n      pop\n      jump\t// out\n        /* \"#utility.yul\":20071:20240   */\n    tag_193:\n        /* \"#utility.yul\":20115:20121   */\n      0x00\n        /* \"#utility.yul\":20148:20199   */\n      tag_387\n        /* \"#utility.yul\":20196:20197   */\n      0x00\n        /* \"#utility.yul\":20192:20198   */\n      not\n        /* \"#utility.yul\":20184:20189   */\n      dup5\n        /* \"#utility.yul\":20181:20182   */\n      0x08\n        /* \"#utility.yul\":20177:20190   */\n      mul\n        /* \"#utility.yul\":20148:20199   */\n      tag_192\n      jump\t// in\n    tag_387:\n        /* \"#utility.yul\":20144:20200   */\n      not\n        /* \"#utility.yul\":20229:20233   */\n      dup1\n        /* \"#utility.yul\":20223:20227   */\n      dup4\n        /* \"#utility.yul\":20219:20234   */\n      and\n        /* \"#utility.yul\":20209:20234   */\n      swap2\n      pop\n        /* \"#utility.yul\":20122:20240   */\n      pop\n        /* \"#utility.yul\":20071:20240   */\n      swap3\n      swap2\n      pop\n      pop\n      jump\t// out\n        /* \"#utility.yul\":20245:20540   */\n    tag_194:\n        /* \"#utility.yul\":20321:20325   */\n      0x00\n        /* \"#utility.yul\":20467:20496   */\n      tag_389\n        /* \"#utility.yul\":20492:20495   */\n      dup4\n        /* \"#utility.yul\":20486:20490   */\n      dup4\n        /* \"#utility.yul\":20467:20496   */\n      tag_193\n      jump\t// in\n    tag_389:\n        /* \"#utility.yul\":20459:20496   */\n      swap2\n      pop\n        /* \"#utility.yul\":20529:20532   */\n      dup3\n        /* \"#utility.yul\":20526:20527   */\n      0x02\n        /* \"#utility.yul\":20522:20533   */\n      mul\n        /* \"#utility.yul\":20516:20520   */\n      dup3\n        /* \"#utility.yul\":20513:20534   */\n      or\n        /* \"#utility.yul\":20505:20534   */\n      swap1\n      pop\n        /* \"#utility.yul\":20245:20540   */\n      swap3\n      swap2\n      pop\n      pop\n      jump\t// out\n        /* \"#utility.yul\":20545:21940   */\n    tag_112:\n        /* \"#utility.yul\":20662:20699   */\n      tag_391\n        /* \"#utility.yul\":20695:20698   */\n      dup3\n        /* \"#utility.yul\":20662:20699   */\n      tag_151\n      jump\t// in\n    tag_391:\n        /* \"#utility.yul\":20764:20782   */\n      0xffffffffffffffff\n        /* \"#utility.yul\":20756:20762   */\n      dup2\n        /* \"#utility.yul\":20753:20783   */\n      gt\n        /* \"#utility.yul\":20750:20806   */\n      iszero\n      tag_392\n      jumpi\n        /* \"#utility.yul\":20786:20804   */\n      tag_393\n      tag_178\n      jump\t// in\n    tag_393:\n        /* \"#utility.yul\":20750:20806   */\n    tag_392:\n        /* \"#utility.yul\":20830:20868   */\n      tag_394\n        /* \"#utility.yul\":20862:20866   */\n      dup3\n        /* \"#utility.yul\":20856:20867   */\n      sload\n        /* \"#utility.yul\":20830:20868   */\n      tag_117\n      jump\t// in\n    tag_394:\n        /* \"#utility.yul\":20915:20982   */\n      tag_395\n        /* \"#utility.yul\":20975:20981   */\n      dup3\n        /* \"#utility.yul\":20967:20973   */\n      dup3\n        /* \"#utility.yul\":20961:20965   */\n      dup6\n        /* \"#utility.yul\":20915:20982   */\n      tag_191\n      jump\t// in\n    tag_395:\n        /* \"#utility.yul\":21009:21010   */\n      0x00\n        /* \"#utility.yul\":21033:21037   */\n      0x20\n        /* \"#utility.yul\":21020:21037   */\n      swap1\n      pop\n        /* \"#utility.yul\":21065:21067   */\n      0x1f\n        /* \"#utility.yul\":21057:21063   */\n      dup4\n        /* \"#utility.yul\":21054:21068   */\n      gt\n        /* \"#utility.yul\":21082:21083   */\n      0x01\n        /* \"#utility.yul\":21077:21695   */\n      dup2\n      eq\n      tag_397\n      jumpi\n        /* \"#utility.yul\":21739:21740   */\n      0x00\n        /* \"#utility.yul\":21756:21762   */\n      dup5\n        /* \"#utility.yul\":21753:21830   */\n      iszero\n      tag_398\n      jumpi\n        /* \"#utility.yul\":21805:21814   */\n      dup3\n        /* \"#utility.yul\":21800:21803   */\n      dup8\n        /* \"#utility.yul\":21796:21815   */\n      add\n        /* \"#utility.yul\":21790:21816   */\n      mload\n        /* \"#utility.yul\":21781:21816   */\n      swap1\n      pop\n        /* \"#utility.yul\":21753:21830   */\n    tag_398:\n        /* \"#utility.yul\":21856:21923   */\n      tag_399\n        /* \"#utility.yul\":21916:21922   */\n      dup6\n        /* \"#utility.yul\":21909:21914   */\n      dup3\n        /* \"#utility.yul\":21856:21923   */\n      tag_194\n      jump\t// in\n    tag_399:\n        /* \"#utility.yul\":21850:21854   */\n      dup7\n        /* \"#utility.yul\":21843:21924   */\n      sstore\n        /* \"#utility.yul\":21712:21934   */\n      pop\n        /* \"#utility.yul\":21047:21934   */\n      jump(tag_396)\n        /* \"#utility.yul\":21077:21695   */\n    tag_397:\n        /* \"#utility.yul\":21129:21133   */\n      0x1f\n        /* \"#utility.yul\":21125:21134   */\n      not\n        /* \"#utility.yul\":21117:21123   */\n      dup5\n        /* \"#utility.yul\":21113:21135   */\n      and\n        /* \"#utility.yul\":21163:21200   */\n      tag_400\n        /* \"#utility.yul\":21195:21199   */\n      dup7\n        /* \"#utility.yul\":21163:21200   */\n      tag_180\n      jump\t// in\n    tag_400:\n        /* \"#utility.yul\":21222:21223   */\n      0x00\n        /* \"#utility.yul\":21236:21444   */\n    tag_401:\n        /* \"#utility.yul\":21250:21257   */\n      dup3\n        /* \"#utility.yul\":21247:21248   */\n      dup2\n        /* \"#utility.yul\":21244:21258   */\n      lt\n        /* \"#utility.yul\":21236:21444   */\n      iszero\n      tag_403\n      jumpi\n        /* \"#utility.yul\":21329:21338   */\n      dup5\n        /* \"#utility.yul\":21324:21327   */\n      dup10\n        /* \"#utility.yul\":21320:21339   */\n      add\n        /* \"#utility.yul\":21314:21340   */\n      mload\n        /* \"#utility.yul\":21306:21312   */\n      dup3\n        /* \"#utility.yul\":21299:21341   */\n      sstore\n        /* \"#utility.yul\":21380:21381   */\n      0x01\n        /* \"#utility.yul\":21372:21378   */\n      dup3\n        /* \"#utility.yul\":21368:21382   */\n      add\n        /* \"#utility.yul\":21358:21382   */\n      swap2\n      pop\n        /* \"#utility.yul\":21427:21429   */\n      0x20\n        /* \"#utility.yul\":21416:21425   */\n      dup6\n        /* \"#utility.yul\":21412:21430   */\n      add\n        /* \"#utility.yul\":21399:21430   */\n      swap5\n      pop\n        /* \"#utility.yul\":21273:21277   */\n      0x20\n        /* \"#utility.yul\":21270:21271   */\n      dup2\n        /* \"#utility.yul\":21266:21278   */\n      add\n        /* \"#utility.yul\":21261:21278   */\n      swap1\n      pop\n        /* \"#utility.yul\":21236:21444   */\n      jump(tag_401)\n    tag_403:\n        /* \"#utility.yul\":21472:21478   */\n      dup7\n        /* \"#utility.yul\":21463:21470   */\n      dup4\n        /* \"#utility.yul\":21460:21479   */\n      lt\n        /* \"#utility.yul\":21457:21636   */\n      iszero\n      tag_404\n      jumpi\n        /* \"#utility.yul\":21530:21539   */\n      dup5\n        /* \"#utility.yul\":21525:21528   */\n      dup10\n        /* \"#utility.yul\":21521:21540   */\n      add\n        /* \"#utility.yul\":21515:21541   */\n      mload\n        /* \"#utility.yul\":21573:21621   */\n      tag_405\n        /* \"#utility.yul\":21615:21619   */\n      0x1f\n        /* \"#utility.yul\":21607:21613   */\n      dup10\n        /* \"#utility.yul\":21603:21620   */\n      and\n        /* \"#utility.yul\":21592:21601   */\n      dup3\n        /* \"#utility.yul\":21573:21621   */\n      tag_193\n      jump\t// in\n    tag_405:\n        /* \"#utility.yul\":21565:21571   */\n      dup4\n        /* \"#utility.yul\":21558:21622   */\n      sstore\n        /* \"#utility.yul\":21480:21636   */\n      pop\n        /* \"#utility.yul\":21457:21636   */\n    tag_404:\n        /* \"#utility.yul\":21682:21683   */\n      0x01\n        /* \"#utility.yul\":21678:21679   */\n      0x02\n        /* \"#utility.yul\":21670:21676   */\n      dup9\n        /* \"#utility.yul\":21666:21680   */\n      mul\n        /* \"#utility.yul\":21662:21684   */\n      add\n        /* \"#utility.yul\":21656:21660   */\n      dup9\n        /* \"#utility.yul\":21649:21685   */\n      sstore\n        /* \"#utility.yul\":21084:21695   */\n      pop\n      pop\n      pop\n        /* \"#utility.yul\":21047:21934   */\n    tag_396:\n      pop\n        /* \"#utility.yul\":20637:21940   */\n      pop\n      pop\n      pop\n        /* \"#utility.yul\":20545:21940   */\n      pop\n      pop\n      jump\t// out\n        /* \"#utility.yul\":21946:22094   */\n    tag_195:\n        /* \"#utility.yul\":22044:22050   */\n      dup3\n        /* \"#utility.yul\":22039:22042   */\n      dup2\n        /* \"#utility.yul\":22034:22037   */\n      dup4\n        /* \"#utility.yul\":22021:22051   */\n      calldatacopy\n        /* \"#utility.yul\":22085:22086   */\n      0x00\n        /* \"#utility.yul\":22076:22082   */\n      dup4\n        /* \"#utility.yul\":22071:22074   */\n      dup4\n        /* \"#utility.yul\":22067:22083   */\n      add\n        /* \"#utility.yul\":22060:22087   */\n      mstore\n        /* \"#utility.yul\":21946:22094   */\n      pop\n      pop\n      pop\n      jump\t// out\n        /* \"#utility.yul\":22124:22441   */\n    tag_196:\n        /* \"#utility.yul\":22222:22225   */\n      0x00\n        /* \"#utility.yul\":22243:22314   */\n      tag_408\n        /* \"#utility.yul\":22307:22313   */\n      dup4\n        /* \"#utility.yul\":22302:22305   */\n      dup6\n        /* \"#utility.yul\":22243:22314   */\n      tag_152\n      jump\t// in\n    tag_408:\n        /* \"#utility.yul\":22236:22314   */\n      swap4\n      pop\n        /* \"#utility.yul\":22324:22380   */\n      tag_409\n        /* \"#utility.yul\":22373:22379   */\n      dup4\n        /* \"#utility.yul\":22368:22371   */\n      dup6\n        /* \"#utility.yul\":22361:22366   */\n      dup5\n        /* \"#utility.yul\":22324:22380   */\n      tag_195\n      jump\t// in\n    tag_409:\n        /* \"#utility.yul\":22405:22434   */\n      tag_410\n        /* \"#utility.yul\":22427:22433   */\n      dup4\n        /* \"#utility.yul\":22405:22434   */\n      tag_154\n      jump\t// in\n    tag_410:\n        /* \"#utility.yul\":22400:22403   */\n      dup5\n        /* \"#utility.yul\":22396:22435   */\n      add\n        /* \"#utility.yul\":22389:22435   */\n      swap1\n      pop\n        /* \"#utility.yul\":22124:22441   */\n      swap4\n      swap3\n      pop\n      pop\n      pop\n      jump\t// out\n        /* \"#utility.yul\":22447:23001   */\n    tag_115:\n        /* \"#utility.yul\":22628:22632   */\n      0x00\n        /* \"#utility.yul\":22666:22668   */\n      0x40\n        /* \"#utility.yul\":22655:22664   */\n      dup3\n        /* \"#utility.yul\":22651:22669   */\n      add\n        /* \"#utility.yul\":22643:22669   */\n      swap1\n      pop\n        /* \"#utility.yul\":22715:22724   */\n      dup2\n        /* \"#utility.yul\":22709:22713   */\n      dup2\n        /* \"#utility.yul\":22705:22725   */\n      sub\n        /* \"#utility.yul\":22701:22702   */\n      0x00\n        /* \"#utility.yul\":22690:22699   */\n      dup4\n        /* \"#utility.yul\":22686:22703   */\n      add\n        /* \"#utility.yul\":22679:22726   */\n      mstore\n        /* \"#utility.yul\":22743:22831   */\n      tag_412\n        /* \"#utility.yul\":22826:22830   */\n      dup2\n        /* \"#utility.yul\":22817:22823   */\n      dup7\n        /* \"#utility.yul\":22809:22815   */\n      dup9\n        /* \"#utility.yul\":22743:22831   */\n      tag_196\n      jump\t// in\n    tag_412:\n        /* \"#utility.yul\":22735:22831   */\n      swap1\n      pop\n        /* \"#utility.yul\":22878:22887   */\n      dup2\n        /* \"#utility.yul\":22872:22876   */\n      dup2\n        /* \"#utility.yul\":22868:22888   */\n      sub\n        /* \"#utility.yul\":22863:22865   */\n      0x20\n        /* \"#utility.yul\":22852:22861   */\n      dup4\n        /* \"#utility.yul\":22848:22866   */\n      add\n        /* \"#utility.yul\":22841:22889   */\n      mstore\n        /* \"#utility.yul\":22906:22994   */\n      tag_413\n        /* \"#utility.yul\":22989:22993   */\n      dup2\n        /* \"#utility.yul\":22980:22986   */\n      dup5\n        /* \"#utility.yul\":22972:22978   */\n      dup7\n        /* \"#utility.yul\":22906:22994   */\n      tag_196\n      jump\t// in\n    tag_413:\n        /* \"#utility.yul\":22898:22994   */\n      swap1\n      pop\n        /* \"#utility.yul\":22447:23001   */\n      swap6\n      swap5\n      pop\n      pop\n      pop\n      pop\n      pop\n      jump\t// out\n\n    auxdata: 0xa26469706673582212202b4ed1439cd0c9f1ce3aeb9b4662538a3db3ba780113ab602751a2dc0e0ff6bf64736f6c634300081a0033\n}\n",
				"bytecode": {
					"linkReferences": {},
					"object": "608060405234801561000f575f80fd5b50604051611c71380380611c718339818101604052810190610031919061020a565b5f73ffffffffffffffffffffffffffffffffffffffff168173ffffffffffffffffffffffffffffffffffffffff160361009f576040517f08c379a0000000000000000000000000000000000000000000000000000000008152600401610096906102a2565b60405180910390fd5b6127108211156100e4576040517f08c379a00000000000000000000000000000000000000000000000000000000081526004016100db9061030a565b60405180910390fd5b3360015f6101000a81548173ffffffffffffffffffffffffffffffffffffffff021916908373ffffffffffffffffffffffffffffffffffffffff160217905550816003819055508060025f6101000a81548173ffffffffffffffffffffffffffffffffffffffff021916908373ffffffffffffffffffffffffffffffffffffffff1602179055505f6004819055505050610328565b5f80fd5b5f819050919050565b61018f8161017d565b8114610199575f80fd5b50565b5f815190506101aa81610186565b92915050565b5f73ffffffffffffffffffffffffffffffffffffffff82169050919050565b5f6101d9826101b0565b9050919050565b6101e9816101cf565b81146101f3575f80fd5b50565b5f81519050610204816101e0565b92915050565b5f80604083850312156102205761021f610179565b5b5f61022d8582860161019c565b925050602061023e858286016101f6565b9150509250929050565b5f82825260208201905092915050565b7f5465736f7265726961206e6f2076616c696461000000000000000000000000005f82015250565b5f61028c601383610248565b915061029782610258565b602082019050919050565b5f6020820190508181035f8301526102b981610280565b9050919050565b7f466565206465626520736572203c3d20313030303020706200000000000000005f82015250565b5f6102f4601883610248565b91506102ff826102c0565b602082019050919050565b5f6020820190508181035f830152610321816102e8565b9050919050565b61193c806103355f395ff3fe608060405260043610610090575f3560e01c80638da5cb5b116100585780638da5cb5b14610160578063a87430ba1461018a578063d0e30db0146101c9578063ddca3f43146101d3578063e933dc54146101fd57610090565b806311f1fc991461009457806312065fe0146100bc578063229dfe4a146100e65780632e1a7d4d146101105780633ffbd47f14610138575b5f80fd5b34801561009f575f80fd5b506100ba60048036038101906100b59190610d71565b610227565b005b3480156100c7575f80fd5b506100d061042c565b6040516100dd9190610dab565b60405180910390f35b3480156100f1575f80fd5b506100fa6104fd565b6040516101079190610dab565b60405180910390f35b34801561011b575f80fd5b5061013660048036038101906101319190610d71565b610503565b005b348015610143575f80fd5b5061015e60048036038101906101599190610e25565b610785565b005b34801561016b575f80fd5b50610174610a31565b6040516101819190610ee2565b60405180910390f35b348015610195575f80fd5b506101b060048036038101906101ab9190610f25565b610a56565b6040516101c09493929190610fda565b60405180910390f35b6101d1610b99565b005b3480156101de575f80fd5b506101e7610d0b565b6040516101f49190610dab565b60405180910390f35b348015610208575f80fd5b50610211610d11565b60405161021e9190610ee2565b60405180910390f35b60015f9054906101000a900473ffffffffffffffffffffffffffffffffffffffff1673ffffffffffffffffffffffffffffffffffffffff163373ffffffffffffffffffffffffffffffffffffffff16146102b6576040517f08c379a00000000000000000000000000000000000000000000000000000000081526004016102ad9061109b565b60405180910390fd5b5f81116102f8576040517f08c379a00000000000000000000000000000000000000000000000000000000081526004016102ef90611103565b60405180910390fd5b80600454101561033d576040517f08c379a00000000000000000000000000000000000000000000000000000000081526004016103349061116b565b60405180910390fd5b8060045f82825461034e91906111b6565b9250508190555060015f9054906101000a900473ffffffffffffffffffffffffffffffffffffffff1673ffffffffffffffffffffffffffffffffffffffff166108fc8290811502906040515f60405180830381858888f193505050501580156103b9573d5f803e3d5ffd5b5060015f9054906101000a900473ffffffffffffffffffffffffffffffffffffffff1673ffffffffffffffffffffffffffffffffffffffff167f233c84dc0c19fbf51f9fa92214ffd8a59f512e0098bff5827455d02e401221c0826040516104219190610dab565b60405180910390a250565b5f805f3373ffffffffffffffffffffffffffffffffffffffff1673ffffffffffffffffffffffffffffffffffffffff1681526020019081526020015f206003015f9054906101000a900460ff166104b8576040517f08c379a00000000000000000000000000000000000000000000000000000000081526004016104af90611233565b60405180910390fd5b5f803373ffffffffffffffffffffffffffffffffffffffff1673ffffffffffffffffffffffffffffffffffffffff1681526020019081526020015f2060020154905090565b60045481565b5f803373ffffffffffffffffffffffffffffffffffffffff1673ffffffffffffffffffffffffffffffffffffffff1681526020019081526020015f206003015f9054906101000a900460ff1661058e576040517f08c379a000000000000000000000000000000000000000000000000000000000815260040161058590611233565b60405180910390fd5b5f81116105d0576040517f08c379a00000000000000000000000000000000000000000000000000000000081526004016105c7906112c1565b60405180910390fd5b805f803373ffffffffffffffffffffffffffffffffffffffff1673ffffffffffffffffffffffffffffffffffffffff1681526020019081526020015f20600201541015610652576040517f08c379a000000000000000000000000000000000000000000000000000000000815260040161064990611329565b60405180910390fd5b5f612710600354836106649190611347565b61066e91906113b5565b90505f818361067d91906111b6565b9050825f803373ffffffffffffffffffffffffffffffffffffffff1673ffffffffffffffffffffffffffffffffffffffff1681526020019081526020015f206002015f8282546106cd91906111b6565b925050819055508160045f8282546106e591906113e5565b925050819055503373ffffffffffffffffffffffffffffffffffffffff166108fc8290811502906040515f60405180830381858888f1935050505015801561072f573d5f803e3d5ffd5b503373ffffffffffffffffffffffffffffffffffffffff167fdf273cb619d95419a9cd0ec88123a0538c85064229baa6363788f743fff90deb8484604051610778929190611418565b60405180910390a2505050565b5f84849050116107ca576040517f08c379a00000000000000000000000000000000000000000000000000000000081526004016107c1906114af565b60405180910390fd5b5f828290501161080f576040517f08c379a000000000000000000000000000000000000000000000000000000000815260040161080690611517565b60405180910390fd5b5f803373ffffffffffffffffffffffffffffffffffffffff1673ffffffffffffffffffffffffffffffffffffffff1681526020019081526020015f206003015f9054906101000a900460ff161561089b576040517f08c379a00000000000000000000000000000000000000000000000000000000081526004016108929061157f565b60405180910390fd5b604051806080016040528085858080601f0160208091040260200160405190810160405280939291908181526020018383808284375f81840152601f19601f82011690508083019250505050505050815260200183838080601f0160208091040260200160405190810160405280939291908181526020018383808284375f81840152601f19601f8201169050808301925050505050505081526020015f8152602001600115158152505f803373ffffffffffffffffffffffffffffffffffffffff1673ffffffffffffffffffffffffffffffffffffffff1681526020019081526020015f205f820151815f01908161099491906117c4565b5060208201518160010190816109aa91906117c4565b50604082015181600201556060820151816003015f6101000a81548160ff0219169083151502179055509050503373ffffffffffffffffffffffffffffffffffffffff167f92822564bab8864c3a47b34e8d23fbce5c46234eb5da261f94087b995ac0f33b85858585604051610a2394939291906118cd565b60405180910390a250505050565b60015f9054906101000a900473ffffffffffffffffffffffffffffffffffffffff1681565b5f602052805f5260405f205f91509050805f018054610a74906115f7565b80601f0160208091040260200160405190810160405280929190818152602001828054610aa0906115f7565b8015610aeb5780601f10610ac257610100808354040283529160200191610aeb565b820191905f5260205f20905b815481529060010190602001808311610ace57829003601f168201915b505050505090806001018054610b00906115f7565b80601f0160208091040260200160405190810160405280929190818152602001828054610b2c906115f7565b8015610b775780601f10610b4e57610100808354040283529160200191610b77565b820191905f5260205f20905b815481529060010190602001808311610b5a57829003601f168201915b505050505090806002015490806003015f9054906101000a900460ff16905084565b5f803373ffffffffffffffffffffffffffffffffffffffff1673ffffffffffffffffffffffffffffffffffffffff1681526020019081526020015f206003015f9054906101000a900460ff16610c24576040517f08c379a0000000000000000000000000000000000000000000000000000000008152600401610c1b90611233565b60405180910390fd5b5f3411610c66576040517f08c379a0000000000000000000000000000000000000000000000000000000008152600401610c5d906112c1565b60405180910390fd5b345f803373ffffffffffffffffffffffffffffffffffffffff1673ffffffffffffffffffffffffffffffffffffffff1681526020019081526020015f206002015f828254610cb491906113e5565b925050819055503373ffffffffffffffffffffffffffffffffffffffff167fe1fffcc4923d04b559f4d29a8bfc6cda04eb5b0d3c460751c2402c5c5cc9109c34604051610d019190610dab565b60405180910390a2565b60035481565b60025f9054906101000a900473ffffffffffffffffffffffffffffffffffffffff1681565b5f80fd5b5f80fd5b5f819050919050565b610d5081610d3e565b8114610d5a575f80fd5b50565b5f81359050610d6b81610d47565b92915050565b5f60208284031215610d8657610d85610d36565b5b5f610d9384828501610d5d565b91505092915050565b610da581610d3e565b82525050565b5f602082019050610dbe5f830184610d9c565b92915050565b5f80fd5b5f80fd5b5f80fd5b5f8083601f840112610de557610de4610dc4565b5b8235905067ffffffffffffffff811115610e0257610e01610dc8565b5b602083019150836001820283011115610e1e57610e1d610dcc565b5b9250929050565b5f805f8060408587031215610e3d57610e3c610d36565b5b5f85013567ffffffffffffffff811115610e5a57610e59610d3a565b5b610e6687828801610dd0565b9450945050602085013567ffffffffffffffff811115610e8957610e88610d3a565b5b610e9587828801610dd0565b925092505092959194509250565b5f73ffffffffffffffffffffffffffffffffffffffff82169050919050565b5f610ecc82610ea3565b9050919050565b610edc81610ec2565b82525050565b5f602082019050610ef55f830184610ed3565b92915050565b610f0481610ec2565b8114610f0e575f80fd5b50565b5f81359050610f1f81610efb565b92915050565b5f60208284031215610f3a57610f39610d36565b5b5f610f4784828501610f11565b91505092915050565b5f81519050919050565b5f82825260208201905092915050565b8281835e5f83830152505050565b5f601f19601f8301169050919050565b5f610f9282610f50565b610f9c8185610f5a565b9350610fac818560208601610f6a565b610fb581610f78565b840191505092915050565b5f8115159050919050565b610fd481610fc0565b82525050565b5f6080820190508181035f830152610ff28187610f88565b905081810360208301526110068186610f88565b90506110156040830185610d9c565b6110226060830184610fcb565b95945050505050565b7f4f6e6c79206f776e65722063616e2063616c6c20746869732066756e6374696f5f8201527f6e00000000000000000000000000000000000000000000000000000000000000602082015250565b5f611085602183610f5a565b91506110908261102b565b604082019050919050565b5f6020820190508181035f8301526110b281611079565b9050919050565b7f4d6f6e746f206465626520736572206d61796f722061206365726f00000000005f82015250565b5f6110ed601b83610f5a565b91506110f8826110b9565b602082019050919050565b5f6020820190508181035f83015261111a816110e1565b9050919050565b7f53616c646f20696e737566696369656e746520656e205465736f7265726961005f82015250565b5f611155601f83610f5a565b915061116082611121565b602082019050919050565b5f6020820190508181035f83015261118281611149565b9050919050565b7f4e487b71000000000000000000000000000000000000000000000000000000005f52601160045260245ffd5b5f6111c082610d3e565b91506111cb83610d3e565b92508282039050818111156111e3576111e2611189565b5b92915050565b7f55736572206973206e6f742072656769737465726564000000000000000000005f82015250565b5f61121d601683610f5a565b9150611228826111e9565b602082019050919050565b5f6020820190508181035f83015261124a81611211565b9050919050565b7f4e6f20736520686120696e6772657361646f206e696e67756e612063616e74695f8201527f6461640000000000000000000000000000000000000000000000000000000000602082015250565b5f6112ab602383610f5a565b91506112b682611251565b604082019050919050565b5f6020820190508181035f8301526112d88161129f565b9050919050565b7f53616c646f20696e737566696369656e746500000000000000000000000000005f82015250565b5f611313601283610f5a565b915061131e826112df565b602082019050919050565b5f6020820190508181035f83015261134081611307565b9050919050565b5f61135182610d3e565b915061135c83610d3e565b925082820261136a81610d3e565b9150828204841483151761138157611380611189565b5b5092915050565b7f4e487b71000000000000000000000000000000000000000000000000000000005f52601260045260245ffd5b5f6113bf82610d3e565b91506113ca83610d3e565b9250826113da576113d9611388565b5b828204905092915050565b5f6113ef82610d3e565b91506113fa83610d3e565b925082820190508082111561141257611411611189565b5b92915050565b5f60408201905061142b5f830185610d9c565b6114386020830184610d9c565b9392505050565b7f456c207072696d6572206e6f6d627265206e6f207075656465206573746172205f8201527f766163696f000000000000000000000000000000000000000000000000000000602082015250565b5f611499602583610f5a565b91506114a48261143f565b604082019050919050565b5f6020820190508181035f8301526114c68161148d565b9050919050565b7f456c206170656c6c69646f206e6f20707565646520657374617220766163696f5f82015250565b5f611501602083610f5a565b915061150c826114cd565b602082019050919050565b5f6020820190508181035f83015261152e816114f5565b9050919050565b7f5573756172696f207961207265676973747261646f00000000000000000000005f82015250565b5f611569601583610f5a565b915061157482611535565b602082019050919050565b5f6020820190508181035f8301526115968161155d565b9050919050565b7f4e487b71000000000000000000000000000000000000000000000000000000005f52604160045260245ffd5b7f4e487b71000000000000000000000000000000000000000000000000000000005f52602260045260245ffd5b5f600282049050600182168061160e57607f821691505b602082108103611621576116206115ca565b5b50919050565b5f819050815f5260205f209050919050565b5f6020601f8301049050919050565b5f82821b905092915050565b5f600883026116837fffffffffffffffffffffffffffffffffffffffffffffffffffffffffffffffff82611648565b61168d8683611648565b95508019841693508086168417925050509392505050565b5f819050919050565b5f6116c86116c36116be84610d3e565b6116a5565b610d3e565b9050919050565b5f819050919050565b6116e1836116ae565b6116f56116ed826116cf565b848454611654565b825550505050565b5f90565b6117096116fd565b6117148184846116d8565b505050565b5b818110156117375761172c5f82611701565b60018101905061171a565b5050565b601f82111561177c5761174d81611627565b61175684611639565b81016020851015611765578190505b61177961177185611639565b830182611719565b50505b505050565b5f82821c905092915050565b5f61179c5f1984600802611781565b1980831691505092915050565b5f6117b4838361178d565b9150826002028217905092915050565b6117cd82610f50565b67ffffffffffffffff8111156117e6576117e561159d565b5b6117f082546115f7565b6117fb82828561173b565b5f60209050601f83116001811461182c575f841561181a578287015190505b61182485826117a9565b86555061188b565b601f19841661183a86611627565b5f5b828110156118615784890151825560018201915060208501945060208101905061183c565b8683101561187e578489015161187a601f89168261178d565b8355505b6001600288020188555050505b505050505050565b828183375f83830152505050565b5f6118ac8385610f5a565b93506118b9838584611893565b6118c283610f78565b840190509392505050565b5f6040820190508181035f8301526118e68186886118a1565b905081810360208301526118fb8184866118a1565b90509594505050505056fea26469706673582212202b4ed1439cd0c9f1ce3aeb9b4662538a3db3ba780113ab602751a2dc0e0ff6bf64736f6c634300081a0033",
					"opcodes": "PUSH1 0x80 PUSH1 0x40 MSTORE CALLVALUE DUP1 ISZERO PUSH2 0xF JUMPI PUSH0 DUP1 REVERT JUMPDEST POP PUSH1 0x40 MLOAD PUSH2 0x1C71 CODESIZE SUB DUP1 PUSH2 0x1C71 DUP4 CODECOPY DUP2 DUP2 ADD PUSH1 0x40 MSTORE DUP2 ADD SWAP1 PUSH2 0x31 SWAP2 SWAP1 PUSH2 0x20A JUMP JUMPDEST PUSH0 PUSH20 0xFFFFFFFFFFFFFFFFFFFFFFFFFFFFFFFFFFFFFFFF AND DUP2 PUSH20 0xFFFFFFFFFFFFFFFFFFFFFFFFFFFFFFFFFFFFFFFF AND SUB PUSH2 0x9F JUMPI PUSH1 0x40 MLOAD PUSH32 0x8C379A000000000000000000000000000000000000000000000000000000000 DUP2 MSTORE PUSH1 0x4 ADD PUSH2 0x96 SWAP1 PUSH2 0x2A2 JUMP JUMPDEST PUSH1 0x40 MLOAD DUP1 SWAP2 SUB SWAP1 REVERT JUMPDEST PUSH2 0x2710 DUP3 GT ISZERO PUSH2 0xE4 JUMPI PUSH1 0x40 MLOAD PUSH32 0x8C379A000000000000000000000000000000000000000000000000000000000 DUP2 MSTORE PUSH1 0x4 ADD PUSH2 0xDB SWAP1 PUSH2 0x30A JUMP JUMPDEST PUSH1 0x40 MLOAD DUP1 SWAP2 SUB SWAP1 REVERT JUMPDEST CALLER PUSH1 0x1 PUSH0 PUSH2 0x100 EXP DUP2 SLOAD DUP2 PUSH20 0xFFFFFFFFFFFFFFFFFFFFFFFFFFFFFFFFFFFFFFFF MUL NOT AND SWAP1 DUP4 PUSH20 0xFFFFFFFFFFFFFFFFFFFFFFFFFFFFFFFFFFFFFFFF AND MUL OR SWAP1 SSTORE POP DUP2 PUSH1 0x3 DUP2 SWAP1 SSTORE POP DUP1 PUSH1 0x2 PUSH0 PUSH2 0x100 EXP DUP2 SLOAD DUP2 PUSH20 0xFFFFFFFFFFFFFFFFFFFFFFFFFFFFFFFFFFFFFFFF MUL NOT AND SWAP1 DUP4 PUSH20 0xFFFFFFFFFFFFFFFFFFFFFFFFFFFFFFFFFFFFFFFF AND MUL OR SWAP1 SSTORE POP PUSH0 PUSH1 0x4 DUP2 SWAP1 SSTORE POP POP POP PUSH2 0x328 JUMP JUMPDEST PUSH0 DUP1 REVERT JUMPDEST PUSH0 DUP2 SWAP1 POP SWAP2 SWAP1 POP JUMP JUMPDEST PUSH2 0x18F DUP2 PUSH2 0x17D JUMP JUMPDEST DUP2 EQ PUSH2 0x199 JUMPI PUSH0 DUP1 REVERT JUMPDEST POP JUMP JUMPDEST PUSH0 DUP2 MLOAD SWAP1 POP PUSH2 0x1AA DUP2 PUSH2 0x186 JUMP JUMPDEST SWAP3 SWAP2 POP POP JUMP JUMPDEST PUSH0 PUSH20 0xFFFFFFFFFFFFFFFFFFFFFFFFFFFFFFFFFFFFFFFF DUP3 AND SWAP1 POP SWAP2 SWAP1 POP JUMP JUMPDEST PUSH0 PUSH2 0x1D9 DUP3 PUSH2 0x1B0 JUMP JUMPDEST SWAP1 POP SWAP2 SWAP1 POP JUMP JUMPDEST PUSH2 0x1E9 DUP2 PUSH2 0x1CF JUMP JUMPDEST DUP2 EQ PUSH2 0x1F3 JUMPI PUSH0 DUP1 REVERT JUMPDEST POP JUMP JUMPDEST PUSH0 DUP2 MLOAD SWAP1 POP PUSH2 0x204 DUP2 PUSH2 0x1E0 JUMP JUMPDEST SWAP3 SWAP2 POP POP JUMP JUMPDEST PUSH0 DUP1 PUSH1 0x40 DUP4 DUP6 SUB SLT ISZERO PUSH2 0x220 JUMPI PUSH2 0x21F PUSH2 0x179 JUMP JUMPDEST JUMPDEST PUSH0 PUSH2 0x22D DUP6 DUP3 DUP7 ADD PUSH2 0x19C JUMP JUMPDEST SWAP3 POP POP PUSH1 0x20 PUSH2 0x23E DUP6 DUP3 DUP7 ADD PUSH2 0x1F6 JUMP JUMPDEST SWAP2 POP POP SWAP3 POP SWAP3 SWAP1 POP JUMP JUMPDEST PUSH0 DUP3 DUP3 MSTORE PUSH1 0x20 DUP3 ADD SWAP1 POP SWAP3 SWAP2 POP POP JUMP JUMPDEST PUSH32 0x5465736F7265726961206E6F2076616C69646100000000000000000000000000 PUSH0 DUP3 ADD MSTORE POP JUMP JUMPDEST PUSH0 PUSH2 0x28C PUSH1 0x13 DUP4 PUSH2 0x248 JUMP JUMPDEST SWAP2 POP PUSH2 0x297 DUP3 PUSH2 0x258 JUMP JUMPDEST PUSH1 0x20 DUP3 ADD SWAP1 POP SWAP2 SWAP1 POP JUMP JUMPDEST PUSH0 PUSH1 0x20 DUP3 ADD SWAP1 POP DUP2 DUP2 SUB PUSH0 DUP4 ADD MSTORE PUSH2 0x2B9 DUP2 PUSH2 0x280 JUMP JUMPDEST SWAP1 POP SWAP2 SWAP1 POP JUMP JUMPDEST PUSH32 0x466565206465626520736572203C3D2031303030302070620000000000000000 PUSH0 DUP3 ADD MSTORE POP JUMP JUMPDEST PUSH0 PUSH2 0x2F4 PUSH1 0x18 DUP4 PUSH2 0x248 JUMP JUMPDEST SWAP2 POP PUSH2 0x2FF DUP3 PUSH2 0x2C0 JUMP JUMPDEST PUSH1 0x20 DUP3 ADD SWAP1 POP SWAP2 SWAP1 POP JUMP JUMPDEST PUSH0 PUSH1 0x20 DUP3 ADD SWAP1 POP DUP2 DUP2 SUB PUSH0 DUP4 ADD MSTORE PUSH2 0x321 DUP2 PUSH2 0x2E8 JUMP JUMPDEST SWAP1 POP SWAP2 SWAP1 POP JUMP JUMPDEST PUSH2 0x193C DUP1 PUSH2 0x335 PUSH0 CODECOPY PUSH0 RETURN INVALID PUSH1 0x80 PUSH1 0x40 MSTORE PUSH1 0x4 CALLDATASIZE LT PUSH2 0x90 JUMPI PUSH0 CALLDATALOAD PUSH1 0xE0 SHR DUP1 PUSH4 0x8DA5CB5B GT PUSH2 0x58 JUMPI DUP1 PUSH4 0x8DA5CB5B EQ PUSH2 0x160 JUMPI DUP1 PUSH4 0xA87430BA EQ PUSH2 0x18A JUMPI DUP1 PUSH4 0xD0E30DB0 EQ PUSH2 0x1C9 JUMPI DUP1 PUSH4 0xDDCA3F43 EQ PUSH2 0x1D3 JUMPI DUP1 PUSH4 0xE933DC54 EQ PUSH2 0x1FD JUMPI PUSH2 0x90 JUMP JUMPDEST DUP1 PUSH4 0x11F1FC99 EQ PUSH2 0x94 JUMPI DUP1 PUSH4 0x12065FE0 EQ PUSH2 0xBC JUMPI DUP1 PUSH4 0x229DFE4A EQ PUSH2 0xE6 JUMPI DUP1 PUSH4 0x2E1A7D4D EQ PUSH2 0x110 JUMPI DUP1 PUSH4 0x3FFBD47F EQ PUSH2 0x138 JUMPI JUMPDEST PUSH0 DUP1 REVERT JUMPDEST CALLVALUE DUP1 ISZERO PUSH2 0x9F JUMPI PUSH0 DUP1 REVERT JUMPDEST POP PUSH2 0xBA PUSH1 0x4 DUP1 CALLDATASIZE SUB DUP2 ADD SWAP1 PUSH2 0xB5 SWAP2 SWAP1 PUSH2 0xD71 JUMP JUMPDEST PUSH2 0x227 JUMP JUMPDEST STOP JUMPDEST CALLVALUE DUP1 ISZERO PUSH2 0xC7 JUMPI PUSH0 DUP1 REVERT JUMPDEST POP PUSH2 0xD0 PUSH2 0x42C JUMP JUMPDEST PUSH1 0x40 MLOAD PUSH2 0xDD SWAP2 SWAP1 PUSH2 0xDAB JUMP JUMPDEST PUSH1 0x40 MLOAD DUP1 SWAP2 SUB SWAP1 RETURN JUMPDEST CALLVALUE DUP1 ISZERO PUSH2 0xF1 JUMPI PUSH0 DUP1 REVERT JUMPDEST POP PUSH2 0xFA PUSH2 0x4FD JUMP JUMPDEST PUSH1 0x40 MLOAD PUSH2 0x107 SWAP2 SWAP1 PUSH2 0xDAB JUMP JUMPDEST PUSH1 0x40 MLOAD DUP1 SWAP2 SUB SWAP1 RETURN JUMPDEST CALLVALUE DUP1 ISZERO PUSH2 0x11B JUMPI PUSH0 DUP1 REVERT JUMPDEST POP PUSH2 0x136 PUSH1 0x4 DUP1 CALLDATASIZE SUB DUP2 ADD SWAP1 PUSH2 0x131 SWAP2 SWAP1 PUSH2 0xD71 JUMP JUMPDEST PUSH2 0x503 JUMP JUMPDEST STOP JUMPDEST CALLVALUE DUP1 ISZERO PUSH2 0x143 JUMPI PUSH0 DUP1 REVERT JUMPDEST POP PUSH2 0x15E PUSH1 0x4 DUP1 CALLDATASIZE SUB DUP2 ADD SWAP1 PUSH2 0x159 SWAP2 SWAP1 PUSH2 0xE25 JUMP JUMPDEST PUSH2 0x785 JUMP JUMPDEST STOP JUMPDEST CALLVALUE DUP1 ISZERO PUSH2 0x16B JUMPI PUSH0 DUP1 REVERT JUMPDEST POP PUSH2 0x174 PUSH2 0xA31 JUMP JUMPDEST PUSH1 0x40 MLOAD PUSH2 0x181 SWAP2 SWAP1 PUSH2 0xEE2 JUMP JUMPDEST PUSH1 0x40 MLOAD DUP1 SWAP2 SUB SWAP1 RETURN JUMPDEST CALLVALUE DUP1 ISZERO PUSH2 0x195 JUMPI PUSH0 DUP1 REVERT JUMPDEST POP PUSH2 0x1B0 PUSH1 0x4 DUP1 CALLDATASIZE SUB DUP2 ADD SWAP1 PUSH2 0x1AB SWAP2 SWAP1 PUSH2 0xF25 JUMP JUMPDEST PUSH2 0xA56 JUMP JUMPDEST PUSH1 0x40 MLOAD PUSH2 0x1C0 SWAP5 SWAP4 SWAP3 SWAP2 SWAP1 PUSH2 0xFDA JUMP JUMPDEST PUSH1 0x40 MLOAD DUP1 SWAP2 SUB SWAP1 RETURN JUMPDEST PUSH2 0x1D1 PUSH2 0xB99 JUMP JUMPDEST STOP JUMPDEST CALLVALUE DUP1 ISZERO PUSH2 0x1DE JUMPI PUSH0 DUP1 REVERT JUMPDEST POP PUSH2 0x1E7 PUSH2 0xD0B JUMP JUMPDEST PUSH1 0x40 MLOAD PUSH2 0x1F4 SWAP2 SWAP1 PUSH2 0xDAB JUMP JUMPDEST PUSH1 0x40 MLOAD DUP1 SWAP2 SUB SWAP1 RETURN JUMPDEST CALLVALUE DUP1 ISZERO PUSH2 0x208 JUMPI PUSH0 DUP1 REVERT JUMPDEST POP PUSH2 0x211 PUSH2 0xD11 JUMP JUMPDEST PUSH1 0x40 MLOAD PUSH2 0x21E SWAP2 SWAP1 PUSH2 0xEE2 JUMP JUMPDEST PUSH1 0x40 MLOAD DUP1 SWAP2 SUB SWAP1 RETURN JUMPDEST PUSH1 0x1 PUSH0 SWAP1 SLOAD SWAP1 PUSH2 0x100 EXP SWAP1 DIV PUSH20 0xFFFFFFFFFFFFFFFFFFFFFFFFFFFFFFFFFFFFFFFF AND PUSH20 0xFFFFFFFFFFFFFFFFFFFFFFFFFFFFFFFFFFFFFFFF AND CALLER PUSH20 0xFFFFFFFFFFFFFFFFFFFFFFFFFFFFFFFFFFFFFFFF AND EQ PUSH2 0x2B6 JUMPI PUSH1 0x40 MLOAD PUSH32 0x8C379A000000000000000000000000000000000000000000000000000000000 DUP2 MSTORE PUSH1 0x4 ADD PUSH2 0x2AD SWAP1 PUSH2 0x109B JUMP JUMPDEST PUSH1 0x40 MLOAD DUP1 SWAP2 SUB SWAP1 REVERT JUMPDEST PUSH0 DUP2 GT PUSH2 0x2F8 JUMPI PUSH1 0x40 MLOAD PUSH32 0x8C379A000000000000000000000000000000000000000000000000000000000 DUP2 MSTORE PUSH1 0x4 ADD PUSH2 0x2EF SWAP1 PUSH2 0x1103 JUMP JUMPDEST PUSH1 0x40 MLOAD DUP1 SWAP2 SUB SWAP1 REVERT JUMPDEST DUP1 PUSH1 0x4 SLOAD LT ISZERO PUSH2 0x33D JUMPI PUSH1 0x40 MLOAD PUSH32 0x8C379A000000000000000000000000000000000000000000000000000000000 DUP2 MSTORE PUSH1 0x4 ADD PUSH2 0x334 SWAP1 PUSH2 0x116B JUMP JUMPDEST PUSH1 0x40 MLOAD DUP1 SWAP2 SUB SWAP1 REVERT JUMPDEST DUP1 PUSH1 0x4 PUSH0 DUP3 DUP3 SLOAD PUSH2 0x34E SWAP2 SWAP1 PUSH2 0x11B6 JUMP JUMPDEST SWAP3 POP POP DUP2 SWAP1 SSTORE POP PUSH1 0x1 PUSH0 SWAP1 SLOAD SWAP1 PUSH2 0x100 EXP SWAP1 DIV PUSH20 0xFFFFFFFFFFFFFFFFFFFFFFFFFFFFFFFFFFFFFFFF AND PUSH20 0xFFFFFFFFFFFFFFFFFFFFFFFFFFFFFFFFFFFFFFFF AND PUSH2 0x8FC DUP3 SWAP1 DUP2 ISZERO MUL SWAP1 PUSH1 0x40 MLOAD PUSH0 PUSH1 0x40 MLOAD DUP1 DUP4 SUB DUP2 DUP6 DUP9 DUP9 CALL SWAP4 POP POP POP POP ISZERO DUP1 ISZERO PUSH2 0x3B9 JUMPI RETURNDATASIZE PUSH0 DUP1 RETURNDATACOPY RETURNDATASIZE PUSH0 REVERT JUMPDEST POP PUSH1 0x1 PUSH0 SWAP1 SLOAD SWAP1 PUSH2 0x100 EXP SWAP1 DIV PUSH20 0xFFFFFFFFFFFFFFFFFFFFFFFFFFFFFFFFFFFFFFFF AND PUSH20 0xFFFFFFFFFFFFFFFFFFFFFFFFFFFFFFFFFFFFFFFF AND PUSH32 0x233C84DC0C19FBF51F9FA92214FFD8A59F512E0098BFF5827455D02E401221C0 DUP3 PUSH1 0x40 MLOAD PUSH2 0x421 SWAP2 SWAP1 PUSH2 0xDAB JUMP JUMPDEST PUSH1 0x40 MLOAD DUP1 SWAP2 SUB SWAP1 LOG2 POP JUMP JUMPDEST PUSH0 DUP1 PUSH0 CALLER PUSH20 0xFFFFFFFFFFFFFFFFFFFFFFFFFFFFFFFFFFFFFFFF AND PUSH20 0xFFFFFFFFFFFFFFFFFFFFFFFFFFFFFFFFFFFFFFFF AND DUP2 MSTORE PUSH1 0x20 ADD SWAP1 DUP2 MSTORE PUSH1 0x20 ADD PUSH0 KECCAK256 PUSH1 0x3 ADD PUSH0 SWAP1 SLOAD SWAP1 PUSH2 0x100 EXP SWAP1 DIV PUSH1 0xFF AND PUSH2 0x4B8 JUMPI PUSH1 0x40 MLOAD PUSH32 0x8C379A000000000000000000000000000000000000000000000000000000000 DUP2 MSTORE PUSH1 0x4 ADD PUSH2 0x4AF SWAP1 PUSH2 0x1233 JUMP JUMPDEST PUSH1 0x40 MLOAD DUP1 SWAP2 SUB SWAP1 REVERT JUMPDEST PUSH0 DUP1 CALLER PUSH20 0xFFFFFFFFFFFFFFFFFFFFFFFFFFFFFFFFFFFFFFFF AND PUSH20 0xFFFFFFFFFFFFFFFFFFFFFFFFFFFFFFFFFFFFFFFF AND DUP2 MSTORE PUSH1 0x20 ADD SWAP1 DUP2 MSTORE PUSH1 0x20 ADD PUSH0 KECCAK256 PUSH1 0x2 ADD SLOAD SWAP1 POP SWAP1 JUMP JUMPDEST PUSH1 0x4 SLOAD DUP2 JUMP JUMPDEST PUSH0 DUP1 CALLER PUSH20 0xFFFFFFFFFFFFFFFFFFFFFFFFFFFFFFFFFFFFFFFF AND PUSH20 0xFFFFFFFFFFFFFFFFFFFFFFFFFFFFFFFFFFFFFFFF AND DUP2 MSTORE PUSH1 0x20 ADD SWAP1 DUP2 MSTORE PUSH1 0x20 ADD PUSH0 KECCAK256 PUSH1 0x3 ADD PUSH0 SWAP1 SLOAD SWAP1 PUSH2 0x100 EXP SWAP1 DIV PUSH1 0xFF AND PUSH2 0x58E JUMPI PUSH1 0x40 MLOAD PUSH32 0x8C379A000000000000000000000000000000000000000000000000000000000 DUP2 MSTORE PUSH1 0x4 ADD PUSH2 0x585 SWAP1 PUSH2 0x1233 JUMP JUMPDEST PUSH1 0x40 MLOAD DUP1 SWAP2 SUB SWAP1 REVERT JUMPDEST PUSH0 DUP2 GT PUSH2 0x5D0 JUMPI PUSH1 0x40 MLOAD PUSH32 0x8C379A000000000000000000000000000000000000000000000000000000000 DUP2 MSTORE PUSH1 0x4 ADD PUSH2 0x5C7 SWAP1 PUSH2 0x12C1 JUMP JUMPDEST PUSH1 0x40 MLOAD DUP1 SWAP2 SUB SWAP1 REVERT JUMPDEST DUP1 PUSH0 DUP1 CALLER PUSH20 0xFFFFFFFFFFFFFFFFFFFFFFFFFFFFFFFFFFFFFFFF AND PUSH20 0xFFFFFFFFFFFFFFFFFFFFFFFFFFFFFFFFFFFFFFFF AND DUP2 MSTORE PUSH1 0x20 ADD SWAP1 DUP2 MSTORE PUSH1 0x20 ADD PUSH0 KECCAK256 PUSH1 0x2 ADD SLOAD LT ISZERO PUSH2 0x652 JUMPI PUSH1 0x40 MLOAD PUSH32 0x8C379A000000000000000000000000000000000000000000000000000000000 DUP2 MSTORE PUSH1 0x4 ADD PUSH2 0x649 SWAP1 PUSH2 0x1329 JUMP JUMPDEST PUSH1 0x40 MLOAD DUP1 SWAP2 SUB SWAP1 REVERT JUMPDEST PUSH0 PUSH2 0x2710 PUSH1 0x3 SLOAD DUP4 PUSH2 0x664 SWAP2 SWAP1 PUSH2 0x1347 JUMP JUMPDEST PUSH2 0x66E SWAP2 SWAP1 PUSH2 0x13B5 JUMP JUMPDEST SWAP1 POP PUSH0 DUP2 DUP4 PUSH2 0x67D SWAP2 SWAP1 PUSH2 0x11B6 JUMP JUMPDEST SWAP1 POP DUP3 PUSH0 DUP1 CALLER PUSH20 0xFFFFFFFFFFFFFFFFFFFFFFFFFFFFFFFFFFFFFFFF AND PUSH20 0xFFFFFFFFFFFFFFFFFFFFFFFFFFFFFFFFFFFFFFFF AND DUP2 MSTORE PUSH1 0x20 ADD SWAP1 DUP2 MSTORE PUSH1 0x20 ADD PUSH0 KECCAK256 PUSH1 0x2 ADD PUSH0 DUP3 DUP3 SLOAD PUSH2 0x6CD SWAP2 SWAP1 PUSH2 0x11B6 JUMP JUMPDEST SWAP3 POP POP DUP2 SWAP1 SSTORE POP DUP2 PUSH1 0x4 PUSH0 DUP3 DUP3 SLOAD PUSH2 0x6E5 SWAP2 SWAP1 PUSH2 0x13E5 JUMP JUMPDEST SWAP3 POP POP DUP2 SWAP1 SSTORE POP CALLER PUSH20 0xFFFFFFFFFFFFFFFFFFFFFFFFFFFFFFFFFFFFFFFF AND PUSH2 0x8FC DUP3 SWAP1 DUP2 ISZERO MUL SWAP1 PUSH1 0x40 MLOAD PUSH0 PUSH1 0x40 MLOAD DUP1 DUP4 SUB DUP2 DUP6 DUP9 DUP9 CALL SWAP4 POP POP POP POP ISZERO DUP1 ISZERO PUSH2 0x72F JUMPI RETURNDATASIZE PUSH0 DUP1 RETURNDATACOPY RETURNDATASIZE PUSH0 REVERT JUMPDEST POP CALLER PUSH20 0xFFFFFFFFFFFFFFFFFFFFFFFFFFFFFFFFFFFFFFFF AND PUSH32 0xDF273CB619D95419A9CD0EC88123A0538C85064229BAA6363788F743FFF90DEB DUP5 DUP5 PUSH1 0x40 MLOAD PUSH2 0x778 SWAP3 SWAP2 SWAP1 PUSH2 0x1418 JUMP JUMPDEST PUSH1 0x40 MLOAD DUP1 SWAP2 SUB SWAP1 LOG2 POP POP POP JUMP JUMPDEST PUSH0 DUP5 DUP5 SWAP1 POP GT PUSH2 0x7CA JUMPI PUSH1 0x40 MLOAD PUSH32 0x8C379A000000000000000000000000000000000000000000000000000000000 DUP2 MSTORE PUSH1 0x4 ADD PUSH2 0x7C1 SWAP1 PUSH2 0x14AF JUMP JUMPDEST PUSH1 0x40 MLOAD DUP1 SWAP2 SUB SWAP1 REVERT JUMPDEST PUSH0 DUP3 DUP3 SWAP1 POP GT PUSH2 0x80F JUMPI PUSH1 0x40 MLOAD PUSH32 0x8C379A000000000000000000000000000000000000000000000000000000000 DUP2 MSTORE PUSH1 0x4 ADD PUSH2 0x806 SWAP1 PUSH2 0x1517 JUMP JUMPDEST PUSH1 0x40 MLOAD DUP1 SWAP2 SUB SWAP1 REVERT JUMPDEST PUSH0 DUP1 CALLER PUSH20 0xFFFFFFFFFFFFFFFFFFFFFFFFFFFFFFFFFFFFFFFF AND PUSH20 0xFFFFFFFFFFFFFFFFFFFFFFFFFFFFFFFFFFFFFFFF AND DUP2 MSTORE PUSH1 0x20 ADD SWAP1 DUP2 MSTORE PUSH1 0x20 ADD PUSH0 KECCAK256 PUSH1 0x3 ADD PUSH0 SWAP1 SLOAD SWAP1 PUSH2 0x100 EXP SWAP1 DIV PUSH1 0xFF AND ISZERO PUSH2 0x89B JUMPI PUSH1 0x40 MLOAD PUSH32 0x8C379A000000000000000000000000000000000000000000000000000000000 DUP2 MSTORE PUSH1 0x4 ADD PUSH2 0x892 SWAP1 PUSH2 0x157F JUMP JUMPDEST PUSH1 0x40 MLOAD DUP1 SWAP2 SUB SWAP1 REVERT JUMPDEST PUSH1 0x40 MLOAD DUP1 PUSH1 0x80 ADD PUSH1 0x40 MSTORE DUP1 DUP6 DUP6 DUP1 DUP1 PUSH1 0x1F ADD PUSH1 0x20 DUP1 SWAP2 DIV MUL PUSH1 0x20 ADD PUSH1 0x40 MLOAD SWAP1 DUP2 ADD PUSH1 0x40 MSTORE DUP1 SWAP4 SWAP3 SWAP2 SWAP1 DUP2 DUP2 MSTORE PUSH1 0x20 ADD DUP4 DUP4 DUP1 DUP3 DUP5 CALLDATACOPY PUSH0 DUP2 DUP5 ADD MSTORE PUSH1 0x1F NOT PUSH1 0x1F DUP3 ADD AND SWAP1 POP DUP1 DUP4 ADD SWAP3 POP POP POP POP POP POP POP DUP2 MSTORE PUSH1 0x20 ADD DUP4 DUP4 DUP1 DUP1 PUSH1 0x1F ADD PUSH1 0x20 DUP1 SWAP2 DIV MUL PUSH1 0x20 ADD PUSH1 0x40 MLOAD SWAP1 DUP2 ADD PUSH1 0x40 MSTORE DUP1 SWAP4 SWAP3 SWAP2 SWAP1 DUP2 DUP2 MSTORE PUSH1 0x20 ADD DUP4 DUP4 DUP1 DUP3 DUP5 CALLDATACOPY PUSH0 DUP2 DUP5 ADD MSTORE PUSH1 0x1F NOT PUSH1 0x1F DUP3 ADD AND SWAP1 POP DUP1 DUP4 ADD SWAP3 POP POP POP POP POP POP POP DUP2 MSTORE PUSH1 0x20 ADD PUSH0 DUP2 MSTORE PUSH1 0x20 ADD PUSH1 0x1 ISZERO ISZERO DUP2 MSTORE POP PUSH0 DUP1 CALLER PUSH20 0xFFFFFFFFFFFFFFFFFFFFFFFFFFFFFFFFFFFFFFFF AND PUSH20 0xFFFFFFFFFFFFFFFFFFFFFFFFFFFFFFFFFFFFFFFF AND DUP2 MSTORE PUSH1 0x20 ADD SWAP1 DUP2 MSTORE PUSH1 0x20 ADD PUSH0 KECCAK256 PUSH0 DUP3 ADD MLOAD DUP2 PUSH0 ADD SWAP1 DUP2 PUSH2 0x994 SWAP2 SWAP1 PUSH2 0x17C4 JUMP JUMPDEST POP PUSH1 0x20 DUP3 ADD MLOAD DUP2 PUSH1 0x1 ADD SWAP1 DUP2 PUSH2 0x9AA SWAP2 SWAP1 PUSH2 0x17C4 JUMP JUMPDEST POP PUSH1 0x40 DUP3 ADD MLOAD DUP2 PUSH1 0x2 ADD SSTORE PUSH1 0x60 DUP3 ADD MLOAD DUP2 PUSH1 0x3 ADD PUSH0 PUSH2 0x100 EXP DUP2 SLOAD DUP2 PUSH1 0xFF MUL NOT AND SWAP1 DUP4 ISZERO ISZERO MUL OR SWAP1 SSTORE POP SWAP1 POP POP CALLER PUSH20 0xFFFFFFFFFFFFFFFFFFFFFFFFFFFFFFFFFFFFFFFF AND PUSH32 0x92822564BAB8864C3A47B34E8D23FBCE5C46234EB5DA261F94087B995AC0F33B DUP6 DUP6 DUP6 DUP6 PUSH1 0x40 MLOAD PUSH2 0xA23 SWAP5 SWAP4 SWAP3 SWAP2 SWAP1 PUSH2 0x18CD JUMP JUMPDEST PUSH1 0x40 MLOAD DUP1 SWAP2 SUB SWAP1 LOG2 POP POP POP POP JUMP JUMPDEST PUSH1 0x1 PUSH0 SWAP1 SLOAD SWAP1 PUSH2 0x100 EXP SWAP1 DIV PUSH20 0xFFFFFFFFFFFFFFFFFFFFFFFFFFFFFFFFFFFFFFFF AND DUP2 JUMP JUMPDEST PUSH0 PUSH1 0x20 MSTORE DUP1 PUSH0 MSTORE PUSH1 0x40 PUSH0 KECCAK256 PUSH0 SWAP2 POP SWAP1 POP DUP1 PUSH0 ADD DUP1 SLOAD PUSH2 0xA74 SWAP1 PUSH2 0x15F7 JUMP JUMPDEST DUP1 PUSH1 0x1F ADD PUSH1 0x20 DUP1 SWAP2 DIV MUL PUSH1 0x20 ADD PUSH1 0x40 MLOAD SWAP1 DUP2 ADD PUSH1 0x40 MSTORE DUP1 SWAP3 SWAP2 SWAP1 DUP2 DUP2 MSTORE PUSH1 0x20 ADD DUP3 DUP1 SLOAD PUSH2 0xAA0 SWAP1 PUSH2 0x15F7 JUMP JUMPDEST DUP1 ISZERO PUSH2 0xAEB JUMPI DUP1 PUSH1 0x1F LT PUSH2 0xAC2 JUMPI PUSH2 0x100 DUP1 DUP4 SLOAD DIV MUL DUP4 MSTORE SWAP2 PUSH1 0x20 ADD SWAP2 PUSH2 0xAEB JUMP JUMPDEST DUP3 ADD SWAP2 SWAP1 PUSH0 MSTORE PUSH1 0x20 PUSH0 KECCAK256 SWAP1 JUMPDEST DUP2 SLOAD DUP2 MSTORE SWAP1 PUSH1 0x1 ADD SWAP1 PUSH1 0x20 ADD DUP1 DUP4 GT PUSH2 0xACE JUMPI DUP3 SWAP1 SUB PUSH1 0x1F AND DUP3 ADD SWAP2 JUMPDEST POP POP POP POP POP SWAP1 DUP1 PUSH1 0x1 ADD DUP1 SLOAD PUSH2 0xB00 SWAP1 PUSH2 0x15F7 JUMP JUMPDEST DUP1 PUSH1 0x1F ADD PUSH1 0x20 DUP1 SWAP2 DIV MUL PUSH1 0x20 ADD PUSH1 0x40 MLOAD SWAP1 DUP2 ADD PUSH1 0x40 MSTORE DUP1 SWAP3 SWAP2 SWAP1 DUP2 DUP2 MSTORE PUSH1 0x20 ADD DUP3 DUP1 SLOAD PUSH2 0xB2C SWAP1 PUSH2 0x15F7 JUMP JUMPDEST DUP1 ISZERO PUSH2 0xB77 JUMPI DUP1 PUSH1 0x1F LT PUSH2 0xB4E JUMPI PUSH2 0x100 DUP1 DUP4 SLOAD DIV MUL DUP4 MSTORE SWAP2 PUSH1 0x20 ADD SWAP2 PUSH2 0xB77 JUMP JUMPDEST DUP3 ADD SWAP2 SWAP1 PUSH0 MSTORE PUSH1 0x20 PUSH0 KECCAK256 SWAP1 JUMPDEST DUP2 SLOAD DUP2 MSTORE SWAP1 PUSH1 0x1 ADD SWAP1 PUSH1 0x20 ADD DUP1 DUP4 GT PUSH2 0xB5A JUMPI DUP3 SWAP1 SUB PUSH1 0x1F AND DUP3 ADD SWAP2 JUMPDEST POP POP POP POP POP SWAP1 DUP1 PUSH1 0x2 ADD SLOAD SWAP1 DUP1 PUSH1 0x3 ADD PUSH0 SWAP1 SLOAD SWAP1 PUSH2 0x100 EXP SWAP1 DIV PUSH1 0xFF AND SWAP1 POP DUP5 JUMP JUMPDEST PUSH0 DUP1 CALLER PUSH20 0xFFFFFFFFFFFFFFFFFFFFFFFFFFFFFFFFFFFFFFFF AND PUSH20 0xFFFFFFFFFFFFFFFFFFFFFFFFFFFFFFFFFFFFFFFF AND DUP2 MSTORE PUSH1 0x20 ADD SWAP1 DUP2 MSTORE PUSH1 0x20 ADD PUSH0 KECCAK256 PUSH1 0x3 ADD PUSH0 SWAP1 SLOAD SWAP1 PUSH2 0x100 EXP SWAP1 DIV PUSH1 0xFF AND PUSH2 0xC24 JUMPI PUSH1 0x40 MLOAD PUSH32 0x8C379A000000000000000000000000000000000000000000000000000000000 DUP2 MSTORE PUSH1 0x4 ADD PUSH2 0xC1B SWAP1 PUSH2 0x1233 JUMP JUMPDEST PUSH1 0x40 MLOAD DUP1 SWAP2 SUB SWAP1 REVERT JUMPDEST PUSH0 CALLVALUE GT PUSH2 0xC66 JUMPI PUSH1 0x40 MLOAD PUSH32 0x8C379A000000000000000000000000000000000000000000000000000000000 DUP2 MSTORE PUSH1 0x4 ADD PUSH2 0xC5D SWAP1 PUSH2 0x12C1 JUMP JUMPDEST PUSH1 0x40 MLOAD DUP1 SWAP2 SUB SWAP1 REVERT JUMPDEST CALLVALUE PUSH0 DUP1 CALLER PUSH20 0xFFFFFFFFFFFFFFFFFFFFFFFFFFFFFFFFFFFFFFFF AND PUSH20 0xFFFFFFFFFFFFFFFFFFFFFFFFFFFFFFFFFFFFFFFF AND DUP2 MSTORE PUSH1 0x20 ADD SWAP1 DUP2 MSTORE PUSH1 0x20 ADD PUSH0 KECCAK256 PUSH1 0x2 ADD PUSH0 DUP3 DUP3 SLOAD PUSH2 0xCB4 SWAP2 SWAP1 PUSH2 0x13E5 JUMP JUMPDEST SWAP3 POP POP DUP2 SWAP1 SSTORE POP CALLER PUSH20 0xFFFFFFFFFFFFFFFFFFFFFFFFFFFFFFFFFFFFFFFF AND PUSH32 0xE1FFFCC4923D04B559F4D29A8BFC6CDA04EB5B0D3C460751C2402C5C5CC9109C CALLVALUE PUSH1 0x40 MLOAD PUSH2 0xD01 SWAP2 SWAP1 PUSH2 0xDAB JUMP JUMPDEST PUSH1 0x40 MLOAD DUP1 SWAP2 SUB SWAP1 LOG2 JUMP JUMPDEST PUSH1 0x3 SLOAD DUP2 JUMP JUMPDEST PUSH1 0x2 PUSH0 SWAP1 SLOAD SWAP1 PUSH2 0x100 EXP SWAP1 DIV PUSH20 0xFFFFFFFFFFFFFFFFFFFFFFFFFFFFFFFFFFFFFFFF AND DUP2 JUMP JUMPDEST PUSH0 DUP1 REVERT JUMPDEST PUSH0 DUP1 REVERT JUMPDEST PUSH0 DUP2 SWAP1 POP SWAP2 SWAP1 POP JUMP JUMPDEST PUSH2 0xD50 DUP2 PUSH2 0xD3E JUMP JUMPDEST DUP2 EQ PUSH2 0xD5A JUMPI PUSH0 DUP1 REVERT JUMPDEST POP JUMP JUMPDEST PUSH0 DUP2 CALLDATALOAD SWAP1 POP PUSH2 0xD6B DUP2 PUSH2 0xD47 JUMP JUMPDEST SWAP3 SWAP2 POP POP JUMP JUMPDEST PUSH0 PUSH1 0x20 DUP3 DUP5 SUB SLT ISZERO PUSH2 0xD86 JUMPI PUSH2 0xD85 PUSH2 0xD36 JUMP JUMPDEST JUMPDEST PUSH0 PUSH2 0xD93 DUP5 DUP3 DUP6 ADD PUSH2 0xD5D JUMP JUMPDEST SWAP2 POP POP SWAP3 SWAP2 POP POP JUMP JUMPDEST PUSH2 0xDA5 DUP2 PUSH2 0xD3E JUMP JUMPDEST DUP3 MSTORE POP POP JUMP JUMPDEST PUSH0 PUSH1 0x20 DUP3 ADD SWAP1 POP PUSH2 0xDBE PUSH0 DUP4 ADD DUP5 PUSH2 0xD9C JUMP JUMPDEST SWAP3 SWAP2 POP POP JUMP JUMPDEST PUSH0 DUP1 REVERT JUMPDEST PUSH0 DUP1 REVERT JUMPDEST PUSH0 DUP1 REVERT JUMPDEST PUSH0 DUP1 DUP4 PUSH1 0x1F DUP5 ADD SLT PUSH2 0xDE5 JUMPI PUSH2 0xDE4 PUSH2 0xDC4 JUMP JUMPDEST JUMPDEST DUP3 CALLDATALOAD SWAP1 POP PUSH8 0xFFFFFFFFFFFFFFFF DUP2 GT ISZERO PUSH2 0xE02 JUMPI PUSH2 0xE01 PUSH2 0xDC8 JUMP JUMPDEST JUMPDEST PUSH1 0x20 DUP4 ADD SWAP2 POP DUP4 PUSH1 0x1 DUP3 MUL DUP4 ADD GT ISZERO PUSH2 0xE1E JUMPI PUSH2 0xE1D PUSH2 0xDCC JUMP JUMPDEST JUMPDEST SWAP3 POP SWAP3 SWAP1 POP JUMP JUMPDEST PUSH0 DUP1 PUSH0 DUP1 PUSH1 0x40 DUP6 DUP8 SUB SLT ISZERO PUSH2 0xE3D JUMPI PUSH2 0xE3C PUSH2 0xD36 JUMP JUMPDEST JUMPDEST PUSH0 DUP6 ADD CALLDATALOAD PUSH8 0xFFFFFFFFFFFFFFFF DUP2 GT ISZERO PUSH2 0xE5A JUMPI PUSH2 0xE59 PUSH2 0xD3A JUMP JUMPDEST JUMPDEST PUSH2 0xE66 DUP8 DUP3 DUP9 ADD PUSH2 0xDD0 JUMP JUMPDEST SWAP5 POP SWAP5 POP POP PUSH1 0x20 DUP6 ADD CALLDATALOAD PUSH8 0xFFFFFFFFFFFFFFFF DUP2 GT ISZERO PUSH2 0xE89 JUMPI PUSH2 0xE88 PUSH2 0xD3A JUMP JUMPDEST JUMPDEST PUSH2 0xE95 DUP8 DUP3 DUP9 ADD PUSH2 0xDD0 JUMP JUMPDEST SWAP3 POP SWAP3 POP POP SWAP3 SWAP6 SWAP2 SWAP5 POP SWAP3 POP JUMP JUMPDEST PUSH0 PUSH20 0xFFFFFFFFFFFFFFFFFFFFFFFFFFFFFFFFFFFFFFFF DUP3 AND SWAP1 POP SWAP2 SWAP1 POP JUMP JUMPDEST PUSH0 PUSH2 0xECC DUP3 PUSH2 0xEA3 JUMP JUMPDEST SWAP1 POP SWAP2 SWAP1 POP JUMP JUMPDEST PUSH2 0xEDC DUP2 PUSH2 0xEC2 JUMP JUMPDEST DUP3 MSTORE POP POP JUMP JUMPDEST PUSH0 PUSH1 0x20 DUP3 ADD SWAP1 POP PUSH2 0xEF5 PUSH0 DUP4 ADD DUP5 PUSH2 0xED3 JUMP JUMPDEST SWAP3 SWAP2 POP POP JUMP JUMPDEST PUSH2 0xF04 DUP2 PUSH2 0xEC2 JUMP JUMPDEST DUP2 EQ PUSH2 0xF0E JUMPI PUSH0 DUP1 REVERT JUMPDEST POP JUMP JUMPDEST PUSH0 DUP2 CALLDATALOAD SWAP1 POP PUSH2 0xF1F DUP2 PUSH2 0xEFB JUMP JUMPDEST SWAP3 SWAP2 POP POP JUMP JUMPDEST PUSH0 PUSH1 0x20 DUP3 DUP5 SUB SLT ISZERO PUSH2 0xF3A JUMPI PUSH2 0xF39 PUSH2 0xD36 JUMP JUMPDEST JUMPDEST PUSH0 PUSH2 0xF47 DUP5 DUP3 DUP6 ADD PUSH2 0xF11 JUMP JUMPDEST SWAP2 POP POP SWAP3 SWAP2 POP POP JUMP JUMPDEST PUSH0 DUP2 MLOAD SWAP1 POP SWAP2 SWAP1 POP JUMP JUMPDEST PUSH0 DUP3 DUP3 MSTORE PUSH1 0x20 DUP3 ADD SWAP1 POP SWAP3 SWAP2 POP POP JUMP JUMPDEST DUP3 DUP2 DUP4 MCOPY PUSH0 DUP4 DUP4 ADD MSTORE POP POP POP JUMP JUMPDEST PUSH0 PUSH1 0x1F NOT PUSH1 0x1F DUP4 ADD AND SWAP1 POP SWAP2 SWAP1 POP JUMP JUMPDEST PUSH0 PUSH2 0xF92 DUP3 PUSH2 0xF50 JUMP JUMPDEST PUSH2 0xF9C DUP2 DUP6 PUSH2 0xF5A JUMP JUMPDEST SWAP4 POP PUSH2 0xFAC DUP2 DUP6 PUSH1 0x20 DUP7 ADD PUSH2 0xF6A JUMP JUMPDEST PUSH2 0xFB5 DUP2 PUSH2 0xF78 JUMP JUMPDEST DUP5 ADD SWAP2 POP POP SWAP3 SWAP2 POP POP JUMP JUMPDEST PUSH0 DUP2 ISZERO ISZERO SWAP1 POP SWAP2 SWAP1 POP JUMP JUMPDEST PUSH2 0xFD4 DUP2 PUSH2 0xFC0 JUMP JUMPDEST DUP3 MSTORE POP POP JUMP JUMPDEST PUSH0 PUSH1 0x80 DUP3 ADD SWAP1 POP DUP2 DUP2 SUB PUSH0 DUP4 ADD MSTORE PUSH2 0xFF2 DUP2 DUP8 PUSH2 0xF88 JUMP JUMPDEST SWAP1 POP DUP2 DUP2 SUB PUSH1 0x20 DUP4 ADD MSTORE PUSH2 0x1006 DUP2 DUP7 PUSH2 0xF88 JUMP JUMPDEST SWAP1 POP PUSH2 0x1015 PUSH1 0x40 DUP4 ADD DUP6 PUSH2 0xD9C JUMP JUMPDEST PUSH2 0x1022 PUSH1 0x60 DUP4 ADD DUP5 PUSH2 0xFCB JUMP JUMPDEST SWAP6 SWAP5 POP POP POP POP POP JUMP JUMPDEST PUSH32 0x4F6E6C79206F776E65722063616E2063616C6C20746869732066756E6374696F PUSH0 DUP3 ADD MSTORE PUSH32 0x6E00000000000000000000000000000000000000000000000000000000000000 PUSH1 0x20 DUP3 ADD MSTORE POP JUMP JUMPDEST PUSH0 PUSH2 0x1085 PUSH1 0x21 DUP4 PUSH2 0xF5A JUMP JUMPDEST SWAP2 POP PUSH2 0x1090 DUP3 PUSH2 0x102B JUMP JUMPDEST PUSH1 0x40 DUP3 ADD SWAP1 POP SWAP2 SWAP1 POP JUMP JUMPDEST PUSH0 PUSH1 0x20 DUP3 ADD SWAP1 POP DUP2 DUP2 SUB PUSH0 DUP4 ADD MSTORE PUSH2 0x10B2 DUP2 PUSH2 0x1079 JUMP JUMPDEST SWAP1 POP SWAP2 SWAP1 POP JUMP JUMPDEST PUSH32 0x4D6F6E746F206465626520736572206D61796F722061206365726F0000000000 PUSH0 DUP3 ADD MSTORE POP JUMP JUMPDEST PUSH0 PUSH2 0x10ED PUSH1 0x1B DUP4 PUSH2 0xF5A JUMP JUMPDEST SWAP2 POP PUSH2 0x10F8 DUP3 PUSH2 0x10B9 JUMP JUMPDEST PUSH1 0x20 DUP3 ADD SWAP1 POP SWAP2 SWAP1 POP JUMP JUMPDEST PUSH0 PUSH1 0x20 DUP3 ADD SWAP1 POP DUP2 DUP2 SUB PUSH0 DUP4 ADD MSTORE PUSH2 0x111A DUP2 PUSH2 0x10E1 JUMP JUMPDEST SWAP1 POP SWAP2 SWAP1 POP JUMP JUMPDEST PUSH32 0x53616C646F20696E737566696369656E746520656E205465736F726572696100 PUSH0 DUP3 ADD MSTORE POP JUMP JUMPDEST PUSH0 PUSH2 0x1155 PUSH1 0x1F DUP4 PUSH2 0xF5A JUMP JUMPDEST SWAP2 POP PUSH2 0x1160 DUP3 PUSH2 0x1121 JUMP JUMPDEST PUSH1 0x20 DUP3 ADD SWAP1 POP SWAP2 SWAP1 POP JUMP JUMPDEST PUSH0 PUSH1 0x20 DUP3 ADD SWAP1 POP DUP2 DUP2 SUB PUSH0 DUP4 ADD MSTORE PUSH2 0x1182 DUP2 PUSH2 0x1149 JUMP JUMPDEST SWAP1 POP SWAP2 SWAP1 POP JUMP JUMPDEST PUSH32 0x4E487B7100000000000000000000000000000000000000000000000000000000 PUSH0 MSTORE PUSH1 0x11 PUSH1 0x4 MSTORE PUSH1 0x24 PUSH0 REVERT JUMPDEST PUSH0 PUSH2 0x11C0 DUP3 PUSH2 0xD3E JUMP JUMPDEST SWAP2 POP PUSH2 0x11CB DUP4 PUSH2 0xD3E JUMP JUMPDEST SWAP3 POP DUP3 DUP3 SUB SWAP1 POP DUP2 DUP2 GT ISZERO PUSH2 0x11E3 JUMPI PUSH2 0x11E2 PUSH2 0x1189 JUMP JUMPDEST JUMPDEST SWAP3 SWAP2 POP POP JUMP JUMPDEST PUSH32 0x55736572206973206E6F74207265676973746572656400000000000000000000 PUSH0 DUP3 ADD MSTORE POP JUMP JUMPDEST PUSH0 PUSH2 0x121D PUSH1 0x16 DUP4 PUSH2 0xF5A JUMP JUMPDEST SWAP2 POP PUSH2 0x1228 DUP3 PUSH2 0x11E9 JUMP JUMPDEST PUSH1 0x20 DUP3 ADD SWAP1 POP SWAP2 SWAP1 POP JUMP JUMPDEST PUSH0 PUSH1 0x20 DUP3 ADD SWAP1 POP DUP2 DUP2 SUB PUSH0 DUP4 ADD MSTORE PUSH2 0x124A DUP2 PUSH2 0x1211 JUMP JUMPDEST SWAP1 POP SWAP2 SWAP1 POP JUMP JUMPDEST PUSH32 0x4E6F20736520686120696E6772657361646F206E696E67756E612063616E7469 PUSH0 DUP3 ADD MSTORE PUSH32 0x6461640000000000000000000000000000000000000000000000000000000000 PUSH1 0x20 DUP3 ADD MSTORE POP JUMP JUMPDEST PUSH0 PUSH2 0x12AB PUSH1 0x23 DUP4 PUSH2 0xF5A JUMP JUMPDEST SWAP2 POP PUSH2 0x12B6 DUP3 PUSH2 0x1251 JUMP JUMPDEST PUSH1 0x40 DUP3 ADD SWAP1 POP SWAP2 SWAP1 POP JUMP JUMPDEST PUSH0 PUSH1 0x20 DUP3 ADD SWAP1 POP DUP2 DUP2 SUB PUSH0 DUP4 ADD MSTORE PUSH2 0x12D8 DUP2 PUSH2 0x129F JUMP JUMPDEST SWAP1 POP SWAP2 SWAP1 POP JUMP JUMPDEST PUSH32 0x53616C646F20696E737566696369656E74650000000000000000000000000000 PUSH0 DUP3 ADD MSTORE POP JUMP JUMPDEST PUSH0 PUSH2 0x1313 PUSH1 0x12 DUP4 PUSH2 0xF5A JUMP JUMPDEST SWAP2 POP PUSH2 0x131E DUP3 PUSH2 0x12DF JUMP JUMPDEST PUSH1 0x20 DUP3 ADD SWAP1 POP SWAP2 SWAP1 POP JUMP JUMPDEST PUSH0 PUSH1 0x20 DUP3 ADD SWAP1 POP DUP2 DUP2 SUB PUSH0 DUP4 ADD MSTORE PUSH2 0x1340 DUP2 PUSH2 0x1307 JUMP JUMPDEST SWAP1 POP SWAP2 SWAP1 POP JUMP JUMPDEST PUSH0 PUSH2 0x1351 DUP3 PUSH2 0xD3E JUMP JUMPDEST SWAP2 POP PUSH2 0x135C DUP4 PUSH2 0xD3E JUMP JUMPDEST SWAP3 POP DUP3 DUP3 MUL PUSH2 0x136A DUP2 PUSH2 0xD3E JUMP JUMPDEST SWAP2 POP DUP3 DUP3 DIV DUP5 EQ DUP4 ISZERO OR PUSH2 0x1381 JUMPI PUSH2 0x1380 PUSH2 0x1189 JUMP JUMPDEST JUMPDEST POP SWAP3 SWAP2 POP POP JUMP JUMPDEST PUSH32 0x4E487B7100000000000000000000000000000000000000000000000000000000 PUSH0 MSTORE PUSH1 0x12 PUSH1 0x4 MSTORE PUSH1 0x24 PUSH0 REVERT JUMPDEST PUSH0 PUSH2 0x13BF DUP3 PUSH2 0xD3E JUMP JUMPDEST SWAP2 POP PUSH2 0x13CA DUP4 PUSH2 0xD3E JUMP JUMPDEST SWAP3 POP DUP3 PUSH2 0x13DA JUMPI PUSH2 0x13D9 PUSH2 0x1388 JUMP JUMPDEST JUMPDEST DUP3 DUP3 DIV SWAP1 POP SWAP3 SWAP2 POP POP JUMP JUMPDEST PUSH0 PUSH2 0x13EF DUP3 PUSH2 0xD3E JUMP JUMPDEST SWAP2 POP PUSH2 0x13FA DUP4 PUSH2 0xD3E JUMP JUMPDEST SWAP3 POP DUP3 DUP3 ADD SWAP1 POP DUP1 DUP3 GT ISZERO PUSH2 0x1412 JUMPI PUSH2 0x1411 PUSH2 0x1189 JUMP JUMPDEST JUMPDEST SWAP3 SWAP2 POP POP JUMP JUMPDEST PUSH0 PUSH1 0x40 DUP3 ADD SWAP1 POP PUSH2 0x142B PUSH0 DUP4 ADD DUP6 PUSH2 0xD9C JUMP JUMPDEST PUSH2 0x1438 PUSH1 0x20 DUP4 ADD DUP5 PUSH2 0xD9C JUMP JUMPDEST SWAP4 SWAP3 POP POP POP JUMP JUMPDEST PUSH32 0x456C207072696D6572206E6F6D627265206E6F20707565646520657374617220 PUSH0 DUP3 ADD MSTORE PUSH32 0x766163696F000000000000000000000000000000000000000000000000000000 PUSH1 0x20 DUP3 ADD MSTORE POP JUMP JUMPDEST PUSH0 PUSH2 0x1499 PUSH1 0x25 DUP4 PUSH2 0xF5A JUMP JUMPDEST SWAP2 POP PUSH2 0x14A4 DUP3 PUSH2 0x143F JUMP JUMPDEST PUSH1 0x40 DUP3 ADD SWAP1 POP SWAP2 SWAP1 POP JUMP JUMPDEST PUSH0 PUSH1 0x20 DUP3 ADD SWAP1 POP DUP2 DUP2 SUB PUSH0 DUP4 ADD MSTORE PUSH2 0x14C6 DUP2 PUSH2 0x148D JUMP JUMPDEST SWAP1 POP SWAP2 SWAP1 POP JUMP JUMPDEST PUSH32 0x456C206170656C6C69646F206E6F20707565646520657374617220766163696F PUSH0 DUP3 ADD MSTORE POP JUMP JUMPDEST PUSH0 PUSH2 0x1501 PUSH1 0x20 DUP4 PUSH2 0xF5A JUMP JUMPDEST SWAP2 POP PUSH2 0x150C DUP3 PUSH2 0x14CD JUMP JUMPDEST PUSH1 0x20 DUP3 ADD SWAP1 POP SWAP2 SWAP1 POP JUMP JUMPDEST PUSH0 PUSH1 0x20 DUP3 ADD SWAP1 POP DUP2 DUP2 SUB PUSH0 DUP4 ADD MSTORE PUSH2 0x152E DUP2 PUSH2 0x14F5 JUMP JUMPDEST SWAP1 POP SWAP2 SWAP1 POP JUMP JUMPDEST PUSH32 0x5573756172696F207961207265676973747261646F0000000000000000000000 PUSH0 DUP3 ADD MSTORE POP JUMP JUMPDEST PUSH0 PUSH2 0x1569 PUSH1 0x15 DUP4 PUSH2 0xF5A JUMP JUMPDEST SWAP2 POP PUSH2 0x1574 DUP3 PUSH2 0x1535 JUMP JUMPDEST PUSH1 0x20 DUP3 ADD SWAP1 POP SWAP2 SWAP1 POP JUMP JUMPDEST PUSH0 PUSH1 0x20 DUP3 ADD SWAP1 POP DUP2 DUP2 SUB PUSH0 DUP4 ADD MSTORE PUSH2 0x1596 DUP2 PUSH2 0x155D JUMP JUMPDEST SWAP1 POP SWAP2 SWAP1 POP JUMP JUMPDEST PUSH32 0x4E487B7100000000000000000000000000000000000000000000000000000000 PUSH0 MSTORE PUSH1 0x41 PUSH1 0x4 MSTORE PUSH1 0x24 PUSH0 REVERT JUMPDEST PUSH32 0x4E487B7100000000000000000000000000000000000000000000000000000000 PUSH0 MSTORE PUSH1 0x22 PUSH1 0x4 MSTORE PUSH1 0x24 PUSH0 REVERT JUMPDEST PUSH0 PUSH1 0x2 DUP3 DIV SWAP1 POP PUSH1 0x1 DUP3 AND DUP1 PUSH2 0x160E JUMPI PUSH1 0x7F DUP3 AND SWAP2 POP JUMPDEST PUSH1 0x20 DUP3 LT DUP2 SUB PUSH2 0x1621 JUMPI PUSH2 0x1620 PUSH2 0x15CA JUMP JUMPDEST JUMPDEST POP SWAP2 SWAP1 POP JUMP JUMPDEST PUSH0 DUP2 SWAP1 POP DUP2 PUSH0 MSTORE PUSH1 0x20 PUSH0 KECCAK256 SWAP1 POP SWAP2 SWAP1 POP JUMP JUMPDEST PUSH0 PUSH1 0x20 PUSH1 0x1F DUP4 ADD DIV SWAP1 POP SWAP2 SWAP1 POP JUMP JUMPDEST PUSH0 DUP3 DUP3 SHL SWAP1 POP SWAP3 SWAP2 POP POP JUMP JUMPDEST PUSH0 PUSH1 0x8 DUP4 MUL PUSH2 0x1683 PUSH32 0xFFFFFFFFFFFFFFFFFFFFFFFFFFFFFFFFFFFFFFFFFFFFFFFFFFFFFFFFFFFFFFFF DUP3 PUSH2 0x1648 JUMP JUMPDEST PUSH2 0x168D DUP7 DUP4 PUSH2 0x1648 JUMP JUMPDEST SWAP6 POP DUP1 NOT DUP5 AND SWAP4 POP DUP1 DUP7 AND DUP5 OR SWAP3 POP POP POP SWAP4 SWAP3 POP POP POP JUMP JUMPDEST PUSH0 DUP2 SWAP1 POP SWAP2 SWAP1 POP JUMP JUMPDEST PUSH0 PUSH2 0x16C8 PUSH2 0x16C3 PUSH2 0x16BE DUP5 PUSH2 0xD3E JUMP JUMPDEST PUSH2 0x16A5 JUMP JUMPDEST PUSH2 0xD3E JUMP JUMPDEST SWAP1 POP SWAP2 SWAP1 POP JUMP JUMPDEST PUSH0 DUP2 SWAP1 POP SWAP2 SWAP1 POP JUMP JUMPDEST PUSH2 0x16E1 DUP4 PUSH2 0x16AE JUMP JUMPDEST PUSH2 0x16F5 PUSH2 0x16ED DUP3 PUSH2 0x16CF JUMP JUMPDEST DUP5 DUP5 SLOAD PUSH2 0x1654 JUMP JUMPDEST DUP3 SSTORE POP POP POP POP JUMP JUMPDEST PUSH0 SWAP1 JUMP JUMPDEST PUSH2 0x1709 PUSH2 0x16FD JUMP JUMPDEST PUSH2 0x1714 DUP2 DUP5 DUP5 PUSH2 0x16D8 JUMP JUMPDEST POP POP POP JUMP JUMPDEST JUMPDEST DUP2 DUP2 LT ISZERO PUSH2 0x1737 JUMPI PUSH2 0x172C PUSH0 DUP3 PUSH2 0x1701 JUMP JUMPDEST PUSH1 0x1 DUP2 ADD SWAP1 POP PUSH2 0x171A JUMP JUMPDEST POP POP JUMP JUMPDEST PUSH1 0x1F DUP3 GT ISZERO PUSH2 0x177C JUMPI PUSH2 0x174D DUP2 PUSH2 0x1627 JUMP JUMPDEST PUSH2 0x1756 DUP5 PUSH2 0x1639 JUMP JUMPDEST DUP2 ADD PUSH1 0x20 DUP6 LT ISZERO PUSH2 0x1765 JUMPI DUP2 SWAP1 POP JUMPDEST PUSH2 0x1779 PUSH2 0x1771 DUP6 PUSH2 0x1639 JUMP JUMPDEST DUP4 ADD DUP3 PUSH2 0x1719 JUMP JUMPDEST POP POP JUMPDEST POP POP POP JUMP JUMPDEST PUSH0 DUP3 DUP3 SHR SWAP1 POP SWAP3 SWAP2 POP POP JUMP JUMPDEST PUSH0 PUSH2 0x179C PUSH0 NOT DUP5 PUSH1 0x8 MUL PUSH2 0x1781 JUMP JUMPDEST NOT DUP1 DUP4 AND SWAP2 POP POP SWAP3 SWAP2 POP POP JUMP JUMPDEST PUSH0 PUSH2 0x17B4 DUP4 DUP4 PUSH2 0x178D JUMP JUMPDEST SWAP2 POP DUP3 PUSH1 0x2 MUL DUP3 OR SWAP1 POP SWAP3 SWAP2 POP POP JUMP JUMPDEST PUSH2 0x17CD DUP3 PUSH2 0xF50 JUMP JUMPDEST PUSH8 0xFFFFFFFFFFFFFFFF DUP2 GT ISZERO PUSH2 0x17E6 JUMPI PUSH2 0x17E5 PUSH2 0x159D JUMP JUMPDEST JUMPDEST PUSH2 0x17F0 DUP3 SLOAD PUSH2 0x15F7 JUMP JUMPDEST PUSH2 0x17FB DUP3 DUP3 DUP6 PUSH2 0x173B JUMP JUMPDEST PUSH0 PUSH1 0x20 SWAP1 POP PUSH1 0x1F DUP4 GT PUSH1 0x1 DUP2 EQ PUSH2 0x182C JUMPI PUSH0 DUP5 ISZERO PUSH2 0x181A JUMPI DUP3 DUP8 ADD MLOAD SWAP1 POP JUMPDEST PUSH2 0x1824 DUP6 DUP3 PUSH2 0x17A9 JUMP JUMPDEST DUP7 SSTORE POP PUSH2 0x188B JUMP JUMPDEST PUSH1 0x1F NOT DUP5 AND PUSH2 0x183A DUP7 PUSH2 0x1627 JUMP JUMPDEST PUSH0 JUMPDEST DUP3 DUP2 LT ISZERO PUSH2 0x1861 JUMPI DUP5 DUP10 ADD MLOAD DUP3 SSTORE PUSH1 0x1 DUP3 ADD SWAP2 POP PUSH1 0x20 DUP6 ADD SWAP5 POP PUSH1 0x20 DUP2 ADD SWAP1 POP PUSH2 0x183C JUMP JUMPDEST DUP7 DUP4 LT ISZERO PUSH2 0x187E JUMPI DUP5 DUP10 ADD MLOAD PUSH2 0x187A PUSH1 0x1F DUP10 AND DUP3 PUSH2 0x178D JUMP JUMPDEST DUP4 SSTORE POP JUMPDEST PUSH1 0x1 PUSH1 0x2 DUP9 MUL ADD DUP9 SSTORE POP POP POP JUMPDEST POP POP POP POP POP POP JUMP JUMPDEST DUP3 DUP2 DUP4 CALLDATACOPY PUSH0 DUP4 DUP4 ADD MSTORE POP POP POP JUMP JUMPDEST PUSH0 PUSH2 0x18AC DUP4 DUP6 PUSH2 0xF5A JUMP JUMPDEST SWAP4 POP PUSH2 0x18B9 DUP4 DUP6 DUP5 PUSH2 0x1893 JUMP JUMPDEST PUSH2 0x18C2 DUP4 PUSH2 0xF78 JUMP JUMPDEST DUP5 ADD SWAP1 POP SWAP4 SWAP3 POP POP POP JUMP JUMPDEST PUSH0 PUSH1 0x40 DUP3 ADD SWAP1 POP DUP2 DUP2 SUB PUSH0 DUP4 ADD MSTORE PUSH2 0x18E6 DUP2 DUP7 DUP9 PUSH2 0x18A1 JUMP JUMPDEST SWAP1 POP DUP2 DUP2 SUB PUSH1 0x20 DUP4 ADD MSTORE PUSH2 0x18FB DUP2 DUP5 DUP7 PUSH2 0x18A1 JUMP JUMPDEST SWAP1 POP SWAP6 SWAP5 POP POP POP POP POP JUMP INVALID LOG2 PUSH5 0x6970667358 0x22 SLT KECCAK256 0x2B 0x4E 0xD1 NUMBER SWAP13 0xD0 0xC9 CALL 0xCE GASPRICE 0xEB SWAP12 CHAINID PUSH3 0x538A3D 0xB3 0xBA PUSH25 0x113AB602751A2DC0E0FF6BF64736F6C634300081A00330000 "
				},
				"gasEstimates": {
					"creation": {
						"codeDepositCost": "1292000",
						"executionCost": "infinite",
						"totalCost": "infinite"
					},
					"external": {
						"deposit()": "infinite",
						"fee()": "2491",
						"getBalance()": "4793",
						"owner()": "2508",
						"register(string,string)": "infinite",
						"tesoreria()": "2596",
						"tesoreriaBalance()": "2470",
						"users(address)": "infinite",
						"withdraw(uint256)": "infinite",
						"withdrawTreasury(uint256)": "infinite"
					}
				},
				"methodIdentifiers": {
					"deposit()": "d0e30db0",
					"fee()": "ddca3f43",
					"getBalance()": "12065fe0",
					"owner()": "8da5cb5b",
					"register(string,string)": "3ffbd47f",
					"tesoreria()": "e933dc54",
					"tesoreriaBalance()": "229dfe4a",
					"users(address)": "a87430ba",
					"withdraw(uint256)": "2e1a7d4d",
					"withdrawTreasury(uint256)": "11f1fc99"
				}
			},
			"storageLayout": {
				"storage": [
					{
						"astId": 16,
						"contract": "TrabajoFinalModulo2/SimpleBankTercero.sol:SimpleBank",
						"label": "users",
						"offset": 0,
						"slot": "0",
						"type": "t_mapping(t_address,t_struct(User)11_storage)"
					},
					{
						"astId": 18,
						"contract": "TrabajoFinalModulo2/SimpleBankTercero.sol:SimpleBank",
						"label": "owner",
						"offset": 0,
						"slot": "1",
						"type": "t_address"
					},
					{
						"astId": 20,
						"contract": "TrabajoFinalModulo2/SimpleBankTercero.sol:SimpleBank",
						"label": "tesoreria",
						"offset": 0,
						"slot": "2",
						"type": "t_address"
					},
					{
						"astId": 22,
						"contract": "TrabajoFinalModulo2/SimpleBankTercero.sol:SimpleBank",
						"label": "fee",
						"offset": 0,
						"slot": "3",
						"type": "t_uint256"
					},
					{
						"astId": 24,
						"contract": "TrabajoFinalModulo2/SimpleBankTercero.sol:SimpleBank",
						"label": "tesoreriaBalance",
						"offset": 0,
						"slot": "4",
						"type": "t_uint256"
					}
				],
				"types": {
					"t_address": {
						"encoding": "inplace",
						"label": "address",
						"numberOfBytes": "20"
					},
					"t_bool": {
						"encoding": "inplace",
						"label": "bool",
						"numberOfBytes": "1"
					},
					"t_mapping(t_address,t_struct(User)11_storage)": {
						"encoding": "mapping",
						"key": "t_address",
						"label": "mapping(address => struct SimpleBank.User)",
						"numberOfBytes": "32",
						"value": "t_struct(User)11_storage"
					},
					"t_string_storage": {
						"encoding": "bytes",
						"label": "string",
						"numberOfBytes": "32"
					},
					"t_struct(User)11_storage": {
						"encoding": "inplace",
						"label": "struct SimpleBank.User",
						"members": [
							{
								"astId": 4,
								"contract": "TrabajoFinalModulo2/SimpleBankTercero.sol:SimpleBank",
								"label": "firstName",
								"offset": 0,
								"slot": "0",
								"type": "t_string_storage"
							},
							{
								"astId": 6,
								"contract": "TrabajoFinalModulo2/SimpleBankTercero.sol:SimpleBank",
								"label": "lastName",
								"offset": 0,
								"slot": "1",
								"type": "t_string_storage"
							},
							{
								"astId": 8,
								"contract": "TrabajoFinalModulo2/SimpleBankTercero.sol:SimpleBank",
								"label": "balance",
								"offset": 0,
								"slot": "2",
								"type": "t_uint256"
							},
							{
								"astId": 10,
								"contract": "TrabajoFinalModulo2/SimpleBankTercero.sol:SimpleBank",
								"label": "isRegistered",
								"offset": 0,
								"slot": "3",
								"type": "t_bool"
							}
						],
						"numberOfBytes": "128"
					},
					"t_uint256": {
						"encoding": "inplace",
						"label": "uint256",
						"numberOfBytes": "32"
					}
				}
			},
			"userdoc": {
				"kind": "user",
				"methods": {},
				"version": 1
			}
		}
	}
}