{
	"TrabajoFinalModulo2/SimpleBanks.sol": {
		"SimpleBank": {
			"abi": [
				{
					"inputs": [
						{
							"internalType": "uint256",
							"name": "_fee",
							"type": "uint256"
						},
						{
							"internalType": "address",
							"name": "_tesoreria",
							"type": "address"
						}
					],
					"stateMutability": "nonpayable",
					"type": "constructor"
				},
				{
					"anonymous": false,
					"inputs": [
						{
							"indexed": true,
							"internalType": "address",
							"name": "user",
							"type": "address"
						},
						{
							"indexed": false,
							"internalType": "uint256",
							"name": "amount",
							"type": "uint256"
						}
					],
					"name": "Deposit",
					"type": "event"
				},
				{
					"anonymous": false,
					"inputs": [
						{
							"indexed": false,
							"internalType": "string",
							"name": "firstName",
							"type": "string"
						},
						{
							"indexed": false,
							"internalType": "string",
							"name": "lastName",
							"type": "string"
						}
					],
					"name": "UserRegistered",
					"type": "event"
				},
				{
					"anonymous": false,
					"inputs": [
						{
							"indexed": true,
							"internalType": "address",
							"name": "user",
							"type": "address"
						},
						{
							"indexed": false,
							"internalType": "uint256",
							"name": "amount",
							"type": "uint256"
						},
						{
							"indexed": false,
							"internalType": "uint256",
							"name": "feeAmount",
							"type": "uint256"
						}
					],
					"name": "Withdraw",
					"type": "event"
				},
				{
					"anonymous": false,
					"inputs": [
						{
							"indexed": true,
							"internalType": "address",
							"name": "owner",
							"type": "address"
						},
						{
							"indexed": false,
							"internalType": "uint256",
							"name": "amount",
							"type": "uint256"
						}
					],
					"name": "tesoreriaWithdraw",
					"type": "event"
				},
				{
					"inputs": [],
					"name": "deposit",
					"outputs": [],
					"stateMutability": "payable",
					"type": "function"
				},
				{
					"inputs": [],
					"name": "fee",
					"outputs": [
						{
							"internalType": "uint256",
							"name": "",
							"type": "uint256"
						}
					],
					"stateMutability": "view",
					"type": "function"
				},
				{
					"inputs": [],
					"name": "getBalance",
					"outputs": [
						{
							"internalType": "uint256",
							"name": "",
							"type": "uint256"
						}
					],
					"stateMutability": "view",
					"type": "function"
				},
				{
					"inputs": [],
					"name": "owner",
					"outputs": [
						{
							"internalType": "address",
							"name": "",
							"type": "address"
						}
					],
					"stateMutability": "view",
					"type": "function"
				},
				{
					"inputs": [
						{
							"internalType": "string",
							"name": "_firstName",
							"type": "string"
						},
						{
							"internalType": "string",
							"name": "_lastName",
							"type": "string"
						}
					],
					"name": "register",
					"outputs": [],
					"stateMutability": "nonpayable",
					"type": "function"
				},
				{
					"inputs": [],
					"name": "tesoreria",
					"outputs": [
						{
							"internalType": "address",
							"name": "",
							"type": "address"
						}
					],
					"stateMutability": "view",
					"type": "function"
				},
				{
					"inputs": [],
					"name": "tesoreriaBalance",
					"outputs": [
						{
							"internalType": "uint256",
							"name": "",
							"type": "uint256"
						}
					],
					"stateMutability": "view",
					"type": "function"
				},
				{
					"inputs": [
						{
							"internalType": "address",
							"name": "",
							"type": "address"
						}
					],
					"name": "users",
					"outputs": [
						{
							"internalType": "string",
							"name": "firstName",
							"type": "string"
						},
						{
							"internalType": "string",
							"name": "lastName",
							"type": "string"
						},
						{
							"internalType": "uint256",
							"name": "balance",
							"type": "uint256"
						},
						{
							"internalType": "bool",
							"name": "isRegistered",
							"type": "bool"
						}
					],
					"stateMutability": "view",
					"type": "function"
				},
				{
					"inputs": [
						{
							"internalType": "uint256",
							"name": "_amount",
							"type": "uint256"
						}
					],
					"name": "withdraw",
					"outputs": [],
					"stateMutability": "nonpayable",
					"type": "function"
				},
				{
					"inputs": [
						{
							"internalType": "uint256",
							"name": "_amount",
							"type": "uint256"
						}
					],
					"name": "withdrawtesoreria",
					"outputs": [],
					"stateMutability": "nonpayable",
					"type": "function"
				}
			],
			"devdoc": {
				"details": "Smart contract para gestionar un banco sencillo donde los usuarios pueden registrarse, depositar y retirar ETH.",
				"kind": "dev",
				"methods": {
					"constructor": {
						"details": "Constructor del contrato",
						"params": {
							"_fee": "El fee en puntos básicos (1% = 100 puntos básicos)",
							"_tesoreria": "La dirección de la tesorería"
						}
					},
					"deposit()": {
						"details": "Función para hacer un depósito de ETH en la cuenta del usuario"
					},
					"getBalance()": {
						"details": "Función para verificar el saldo del usuario",
						"returns": {
							"_0": "El saldo del usuario en wei"
						}
					},
					"register(string,string)": {
						"details": "Función para registrar un nuevo usuario",
						"params": {
							"_firstName": "El primer nombre del usuario",
							"_lastName": "El apellido del usuario"
						}
					},
					"withdraw(uint256)": {
						"details": "Función para retirar ETH de la cuenta del usuario",
						"params": {
							"_amount": "La cantidad a retirar (en wei)"
						}
					},
					"withdrawtesoreria(uint256)": {
						"details": "Función para que el propietario retire fondos de la cuenta de tesorería",
						"params": {
							"_amount": "La cantidad a retirar de la tesorería (en wei)"
						}
					}
				},
				"title": "SimpleBank",
				"version": 1
			},
			"evm": {
				"assembly": "    /* \"TrabajoFinalModulo2/SimpleBanks.sol\":206:6493  contract SimpleBank {... */\n  mstore(0x40, 0x80)\n    /* \"TrabajoFinalModulo2/SimpleBanks.sol\":2399:3178  constructor(uint256 _fee, address _tesoreria) {... */\n  callvalue\n  dup1\n  iszero\n  tag_1\n  jumpi\n  0x00\n  dup1\n  revert\ntag_1:\n  pop\n  mload(0x40)\n  sub(codesize, bytecodeSize)\n  dup1\n  bytecodeSize\n  dup4\n  codecopy\n  dup2\n  dup2\n  add\n  0x40\n  mstore\n  dup2\n  add\n  swap1\n  tag_2\n  swap2\n  swap1\n  tag_3\n  jump\t// in\ntag_2:\n    /* \"TrabajoFinalModulo2/SimpleBanks.sol\":2570:2571  0 */\n  0x00\n    /* \"TrabajoFinalModulo2/SimpleBanks.sol\":2548:2572  _tesoreria != address(0) */\n  0xffffffffffffffffffffffffffffffffffffffff\n  and\n    /* \"TrabajoFinalModulo2/SimpleBanks.sol\":2548:2558  _tesoreria */\n  dup2\n    /* \"TrabajoFinalModulo2/SimpleBanks.sol\":2548:2572  _tesoreria != address(0) */\n  0xffffffffffffffffffffffffffffffffffffffff\n  and\n  sub\n    /* \"TrabajoFinalModulo2/SimpleBanks.sol\":2540:2596  require(_tesoreria != address(0), \"Tesoreria no valida\") */\n  tag_6\n  jumpi\n  mload(0x40)\n  0x08c379a000000000000000000000000000000000000000000000000000000000\n  dup2\n  mstore\n  0x04\n  add\n  tag_7\n  swap1\n  tag_8\n  jump\t// in\ntag_7:\n  mload(0x40)\n  dup1\n  swap2\n  sub\n  swap1\n  revert\ntag_6:\n    /* \"TrabajoFinalModulo2/SimpleBanks.sol\":2704:2709  10000 */\n  0x2710\n    /* \"TrabajoFinalModulo2/SimpleBanks.sol\":2696:2700  _fee */\n  dup3\n    /* \"TrabajoFinalModulo2/SimpleBanks.sol\":2696:2709  _fee <= 10000 */\n  gt\n  iszero\n    /* \"TrabajoFinalModulo2/SimpleBanks.sol\":2688:2755  require(_fee <= 10000, \"Fee debe ser menos o igual a 10000 puntos\") */\n  tag_9\n  jumpi\n  mload(0x40)\n  0x08c379a000000000000000000000000000000000000000000000000000000000\n  dup2\n  mstore\n  0x04\n  add\n  tag_10\n  swap1\n  tag_11\n  jump\t// in\ntag_10:\n  mload(0x40)\n  dup1\n  swap2\n  sub\n  swap1\n  revert\ntag_9:\n    /* \"TrabajoFinalModulo2/SimpleBanks.sol\":2859:2869  msg.sender */\n  caller\n    /* \"TrabajoFinalModulo2/SimpleBanks.sol\":2851:2856  owner */\n  0x01\n  0x00\n    /* \"TrabajoFinalModulo2/SimpleBanks.sol\":2851:2869  owner = msg.sender */\n  0x0100\n  exp\n  dup2\n  sload\n  dup2\n  0xffffffffffffffffffffffffffffffffffffffff\n  mul\n  not\n  and\n  swap1\n  dup4\n  0xffffffffffffffffffffffffffffffffffffffff\n  and\n  mul\n  or\n  swap1\n  sstore\n  pop\n    /* \"TrabajoFinalModulo2/SimpleBanks.sol\":2949:2953  _fee */\n  dup2\n    /* \"TrabajoFinalModulo2/SimpleBanks.sol\":2943:2946  fee */\n  0x03\n    /* \"TrabajoFinalModulo2/SimpleBanks.sol\":2943:2953  fee = _fee */\n  dup2\n  swap1\n  sstore\n  pop\n    /* \"TrabajoFinalModulo2/SimpleBanks.sol\":3066:3076  _tesoreria */\n  dup1\n    /* \"TrabajoFinalModulo2/SimpleBanks.sol\":3054:3063  tesoreria */\n  0x02\n  0x00\n    /* \"TrabajoFinalModulo2/SimpleBanks.sol\":3054:3076  tesoreria = _tesoreria */\n  0x0100\n  exp\n  dup2\n  sload\n  dup2\n  0xffffffffffffffffffffffffffffffffffffffff\n  mul\n  not\n  and\n  swap1\n  dup4\n  0xffffffffffffffffffffffffffffffffffffffff\n  and\n  mul\n  or\n  swap1\n  sstore\n  pop\n    /* \"TrabajoFinalModulo2/SimpleBanks.sol\":3170:3171  0 */\n  0x00\n    /* \"TrabajoFinalModulo2/SimpleBanks.sol\":3151:3167  tesoreriaBalance */\n  0x04\n    /* \"TrabajoFinalModulo2/SimpleBanks.sol\":3151:3171  tesoreriaBalance = 0 */\n  dup2\n  swap1\n  sstore\n  pop\n    /* \"TrabajoFinalModulo2/SimpleBanks.sol\":2399:3178  constructor(uint256 _fee, address _tesoreria) {... */\n  pop\n  pop\n    /* \"TrabajoFinalModulo2/SimpleBanks.sol\":206:6493  contract SimpleBank {... */\n  jump(tag_12)\n    /* \"#utility.yul\":88:205   */\ntag_14:\n    /* \"#utility.yul\":197:198   */\n  0x00\n    /* \"#utility.yul\":194:195   */\n  dup1\n    /* \"#utility.yul\":187:199   */\n  revert\n    /* \"#utility.yul\":334:411   */\ntag_16:\n    /* \"#utility.yul\":371:378   */\n  0x00\n    /* \"#utility.yul\":400:405   */\n  dup2\n    /* \"#utility.yul\":389:405   */\n  swap1\n  pop\n    /* \"#utility.yul\":334:411   */\n  swap2\n  swap1\n  pop\n  jump\t// out\n    /* \"#utility.yul\":417:539   */\ntag_17:\n    /* \"#utility.yul\":490:514   */\n  tag_34\n    /* \"#utility.yul\":508:513   */\n  dup2\n    /* \"#utility.yul\":490:514   */\n  tag_16\n  jump\t// in\ntag_34:\n    /* \"#utility.yul\":483:488   */\n  dup2\n    /* \"#utility.yul\":480:515   */\n  eq\n    /* \"#utility.yul\":470:533   */\n  tag_35\n  jumpi\n    /* \"#utility.yul\":529:530   */\n  0x00\n    /* \"#utility.yul\":526:527   */\n  dup1\n    /* \"#utility.yul\":519:531   */\n  revert\n    /* \"#utility.yul\":470:533   */\ntag_35:\n    /* \"#utility.yul\":417:539   */\n  pop\n  jump\t// out\n    /* \"#utility.yul\":545:688   */\ntag_18:\n    /* \"#utility.yul\":602:607   */\n  0x00\n    /* \"#utility.yul\":633:639   */\n  dup2\n    /* \"#utility.yul\":627:640   */\n  mload\n    /* \"#utility.yul\":618:640   */\n  swap1\n  pop\n    /* \"#utility.yul\":649:682   */\n  tag_37\n    /* \"#utility.yul\":676:681   */\n  dup2\n    /* \"#utility.yul\":649:682   */\n  tag_17\n  jump\t// in\ntag_37:\n    /* \"#utility.yul\":545:688   */\n  swap3\n  swap2\n  pop\n  pop\n  jump\t// out\n    /* \"#utility.yul\":694:820   */\ntag_19:\n    /* \"#utility.yul\":731:738   */\n  0x00\n    /* \"#utility.yul\":771:813   */\n  0xffffffffffffffffffffffffffffffffffffffff\n    /* \"#utility.yul\":764:769   */\n  dup3\n    /* \"#utility.yul\":760:814   */\n  and\n    /* \"#utility.yul\":749:814   */\n  swap1\n  pop\n    /* \"#utility.yul\":694:820   */\n  swap2\n  swap1\n  pop\n  jump\t// out\n    /* \"#utility.yul\":826:922   */\ntag_20:\n    /* \"#utility.yul\":863:870   */\n  0x00\n    /* \"#utility.yul\":892:916   */\n  tag_40\n    /* \"#utility.yul\":910:915   */\n  dup3\n    /* \"#utility.yul\":892:916   */\n  tag_19\n  jump\t// in\ntag_40:\n    /* \"#utility.yul\":881:916   */\n  swap1\n  pop\n    /* \"#utility.yul\":826:922   */\n  swap2\n  swap1\n  pop\n  jump\t// out\n    /* \"#utility.yul\":928:1050   */\ntag_21:\n    /* \"#utility.yul\":1001:1025   */\n  tag_42\n    /* \"#utility.yul\":1019:1024   */\n  dup2\n    /* \"#utility.yul\":1001:1025   */\n  tag_20\n  jump\t// in\ntag_42:\n    /* \"#utility.yul\":994:999   */\n  dup2\n    /* \"#utility.yul\":991:1026   */\n  eq\n    /* \"#utility.yul\":981:1044   */\n  tag_43\n  jumpi\n    /* \"#utility.yul\":1040:1041   */\n  0x00\n    /* \"#utility.yul\":1037:1038   */\n  dup1\n    /* \"#utility.yul\":1030:1042   */\n  revert\n    /* \"#utility.yul\":981:1044   */\ntag_43:\n    /* \"#utility.yul\":928:1050   */\n  pop\n  jump\t// out\n    /* \"#utility.yul\":1056:1199   */\ntag_22:\n    /* \"#utility.yul\":1113:1118   */\n  0x00\n    /* \"#utility.yul\":1144:1150   */\n  dup2\n    /* \"#utility.yul\":1138:1151   */\n  mload\n    /* \"#utility.yul\":1129:1151   */\n  swap1\n  pop\n    /* \"#utility.yul\":1160:1193   */\n  tag_45\n    /* \"#utility.yul\":1187:1192   */\n  dup2\n    /* \"#utility.yul\":1160:1193   */\n  tag_21\n  jump\t// in\ntag_45:\n    /* \"#utility.yul\":1056:1199   */\n  swap3\n  swap2\n  pop\n  pop\n  jump\t// out\n    /* \"#utility.yul\":1205:1712   */\ntag_3:\n    /* \"#utility.yul\":1284:1290   */\n  0x00\n    /* \"#utility.yul\":1292:1298   */\n  dup1\n    /* \"#utility.yul\":1341:1343   */\n  0x40\n    /* \"#utility.yul\":1329:1338   */\n  dup4\n    /* \"#utility.yul\":1320:1327   */\n  dup6\n    /* \"#utility.yul\":1316:1339   */\n  sub\n    /* \"#utility.yul\":1312:1344   */\n  slt\n    /* \"#utility.yul\":1309:1428   */\n  iszero\n  tag_47\n  jumpi\n    /* \"#utility.yul\":1347:1426   */\n  tag_48\n  tag_14\n  jump\t// in\ntag_48:\n    /* \"#utility.yul\":1309:1428   */\ntag_47:\n    /* \"#utility.yul\":1467:1468   */\n  0x00\n    /* \"#utility.yul\":1492:1556   */\n  tag_49\n    /* \"#utility.yul\":1548:1555   */\n  dup6\n    /* \"#utility.yul\":1539:1545   */\n  dup3\n    /* \"#utility.yul\":1528:1537   */\n  dup7\n    /* \"#utility.yul\":1524:1546   */\n  add\n    /* \"#utility.yul\":1492:1556   */\n  tag_18\n  jump\t// in\ntag_49:\n    /* \"#utility.yul\":1482:1556   */\n  swap3\n  pop\n    /* \"#utility.yul\":1438:1566   */\n  pop\n    /* \"#utility.yul\":1605:1607   */\n  0x20\n    /* \"#utility.yul\":1631:1695   */\n  tag_50\n    /* \"#utility.yul\":1687:1694   */\n  dup6\n    /* \"#utility.yul\":1678:1684   */\n  dup3\n    /* \"#utility.yul\":1667:1676   */\n  dup7\n    /* \"#utility.yul\":1663:1685   */\n  add\n    /* \"#utility.yul\":1631:1695   */\n  tag_22\n  jump\t// in\ntag_50:\n    /* \"#utility.yul\":1621:1695   */\n  swap2\n  pop\n    /* \"#utility.yul\":1576:1705   */\n  pop\n    /* \"#utility.yul\":1205:1712   */\n  swap3\n  pop\n  swap3\n  swap1\n  pop\n  jump\t// out\n    /* \"#utility.yul\":1718:1887   */\ntag_23:\n    /* \"#utility.yul\":1802:1813   */\n  0x00\n    /* \"#utility.yul\":1836:1842   */\n  dup3\n    /* \"#utility.yul\":1831:1834   */\n  dup3\n    /* \"#utility.yul\":1824:1843   */\n  mstore\n    /* \"#utility.yul\":1876:1880   */\n  0x20\n    /* \"#utility.yul\":1871:1874   */\n  dup3\n    /* \"#utility.yul\":1867:1881   */\n  add\n    /* \"#utility.yul\":1852:1881   */\n  swap1\n  pop\n    /* \"#utility.yul\":1718:1887   */\n  swap3\n  swap2\n  pop\n  pop\n  jump\t// out\n    /* \"#utility.yul\":1893:2062   */\ntag_24:\n    /* \"#utility.yul\":2033:2054   */\n  0x5465736f7265726961206e6f2076616c69646100000000000000000000000000\n    /* \"#utility.yul\":2029:2030   */\n  0x00\n    /* \"#utility.yul\":2021:2027   */\n  dup3\n    /* \"#utility.yul\":2017:2031   */\n  add\n    /* \"#utility.yul\":2010:2055   */\n  mstore\n    /* \"#utility.yul\":1893:2062   */\n  pop\n  jump\t// out\n    /* \"#utility.yul\":2068:2434   */\ntag_25:\n    /* \"#utility.yul\":2210:2213   */\n  0x00\n    /* \"#utility.yul\":2231:2298   */\n  tag_54\n    /* \"#utility.yul\":2295:2297   */\n  0x13\n    /* \"#utility.yul\":2290:2293   */\n  dup4\n    /* \"#utility.yul\":2231:2298   */\n  tag_23\n  jump\t// in\ntag_54:\n    /* \"#utility.yul\":2224:2298   */\n  swap2\n  pop\n    /* \"#utility.yul\":2307:2400   */\n  tag_55\n    /* \"#utility.yul\":2396:2399   */\n  dup3\n    /* \"#utility.yul\":2307:2400   */\n  tag_24\n  jump\t// in\ntag_55:\n    /* \"#utility.yul\":2425:2427   */\n  0x20\n    /* \"#utility.yul\":2420:2423   */\n  dup3\n    /* \"#utility.yul\":2416:2428   */\n  add\n    /* \"#utility.yul\":2409:2428   */\n  swap1\n  pop\n    /* \"#utility.yul\":2068:2434   */\n  swap2\n  swap1\n  pop\n  jump\t// out\n    /* \"#utility.yul\":2440:2859   */\ntag_8:\n    /* \"#utility.yul\":2606:2610   */\n  0x00\n    /* \"#utility.yul\":2644:2646   */\n  0x20\n    /* \"#utility.yul\":2633:2642   */\n  dup3\n    /* \"#utility.yul\":2629:2647   */\n  add\n    /* \"#utility.yul\":2621:2647   */\n  swap1\n  pop\n    /* \"#utility.yul\":2693:2702   */\n  dup2\n    /* \"#utility.yul\":2687:2691   */\n  dup2\n    /* \"#utility.yul\":2683:2703   */\n  sub\n    /* \"#utility.yul\":2679:2680   */\n  0x00\n    /* \"#utility.yul\":2668:2677   */\n  dup4\n    /* \"#utility.yul\":2664:2681   */\n  add\n    /* \"#utility.yul\":2657:2704   */\n  mstore\n    /* \"#utility.yul\":2721:2852   */\n  tag_57\n    /* \"#utility.yul\":2847:2851   */\n  dup2\n    /* \"#utility.yul\":2721:2852   */\n  tag_25\n  jump\t// in\ntag_57:\n    /* \"#utility.yul\":2713:2852   */\n  swap1\n  pop\n    /* \"#utility.yul\":2440:2859   */\n  swap2\n  swap1\n  pop\n  jump\t// out\n    /* \"#utility.yul\":2865:3093   */\ntag_26:\n    /* \"#utility.yul\":3005:3039   */\n  0x466565206465626520736572206d656e6f73206f20696775616c206120313030\n    /* \"#utility.yul\":3001:3002   */\n  0x00\n    /* \"#utility.yul\":2993:2999   */\n  dup3\n    /* \"#utility.yul\":2989:3003   */\n  add\n    /* \"#utility.yul\":2982:3040   */\n  mstore\n    /* \"#utility.yul\":3074:3085   */\n  0x30302070756e746f730000000000000000000000000000000000000000000000\n    /* \"#utility.yul\":3069:3071   */\n  0x20\n    /* \"#utility.yul\":3061:3067   */\n  dup3\n    /* \"#utility.yul\":3057:3072   */\n  add\n    /* \"#utility.yul\":3050:3086   */\n  mstore\n    /* \"#utility.yul\":2865:3093   */\n  pop\n  jump\t// out\n    /* \"#utility.yul\":3099:3465   */\ntag_27:\n    /* \"#utility.yul\":3241:3244   */\n  0x00\n    /* \"#utility.yul\":3262:3329   */\n  tag_60\n    /* \"#utility.yul\":3326:3328   */\n  0x29\n    /* \"#utility.yul\":3321:3324   */\n  dup4\n    /* \"#utility.yul\":3262:3329   */\n  tag_23\n  jump\t// in\ntag_60:\n    /* \"#utility.yul\":3255:3329   */\n  swap2\n  pop\n    /* \"#utility.yul\":3338:3431   */\n  tag_61\n    /* \"#utility.yul\":3427:3430   */\n  dup3\n    /* \"#utility.yul\":3338:3431   */\n  tag_26\n  jump\t// in\ntag_61:\n    /* \"#utility.yul\":3456:3458   */\n  0x40\n    /* \"#utility.yul\":3451:3454   */\n  dup3\n    /* \"#utility.yul\":3447:3459   */\n  add\n    /* \"#utility.yul\":3440:3459   */\n  swap1\n  pop\n    /* \"#utility.yul\":3099:3465   */\n  swap2\n  swap1\n  pop\n  jump\t// out\n    /* \"#utility.yul\":3471:3890   */\ntag_11:\n    /* \"#utility.yul\":3637:3641   */\n  0x00\n    /* \"#utility.yul\":3675:3677   */\n  0x20\n    /* \"#utility.yul\":3664:3673   */\n  dup3\n    /* \"#utility.yul\":3660:3678   */\n  add\n    /* \"#utility.yul\":3652:3678   */\n  swap1\n  pop\n    /* \"#utility.yul\":3724:3733   */\n  dup2\n    /* \"#utility.yul\":3718:3722   */\n  dup2\n    /* \"#utility.yul\":3714:3734   */\n  sub\n    /* \"#utility.yul\":3710:3711   */\n  0x00\n    /* \"#utility.yul\":3699:3708   */\n  dup4\n    /* \"#utility.yul\":3695:3712   */\n  add\n    /* \"#utility.yul\":3688:3735   */\n  mstore\n    /* \"#utility.yul\":3752:3883   */\n  tag_63\n    /* \"#utility.yul\":3878:3882   */\n  dup2\n    /* \"#utility.yul\":3752:3883   */\n  tag_27\n  jump\t// in\ntag_63:\n    /* \"#utility.yul\":3744:3883   */\n  swap1\n  pop\n    /* \"#utility.yul\":3471:3890   */\n  swap2\n  swap1\n  pop\n  jump\t// out\n    /* \"TrabajoFinalModulo2/SimpleBanks.sol\":206:6493  contract SimpleBank {... */\ntag_12:\n  dataSize(sub_0)\n  dup1\n  dataOffset(sub_0)\n  0x00\n  codecopy\n  0x00\n  return\nstop\n\nsub_0: assembly {\n        /* \"TrabajoFinalModulo2/SimpleBanks.sol\":206:6493  contract SimpleBank {... */\n      mstore(0x40, 0x80)\n      jumpi(tag_1, lt(calldatasize, 0x04))\n      shr(0xe0, calldataload(0x00))\n      dup1\n      0x8da5cb5b\n      gt\n      tag_12\n      jumpi\n      dup1\n      0x8da5cb5b\n      eq\n      tag_7\n      jumpi\n      dup1\n      0xa87430ba\n      eq\n      tag_8\n      jumpi\n      dup1\n      0xd0e30db0\n      eq\n      tag_9\n      jumpi\n      dup1\n      0xddca3f43\n      eq\n      tag_10\n      jumpi\n      dup1\n      0xe933dc54\n      eq\n      tag_11\n      jumpi\n      jump(tag_1)\n    tag_12:\n      dup1\n      0x12065fe0\n      eq\n      tag_2\n      jumpi\n      dup1\n      0x229dfe4a\n      eq\n      tag_3\n      jumpi\n      dup1\n      0x247d39a8\n      eq\n      tag_4\n      jumpi\n      dup1\n      0x2e1a7d4d\n      eq\n      tag_5\n      jumpi\n      dup1\n      0x3ffbd47f\n      eq\n      tag_6\n      jumpi\n    tag_1:\n      0x00\n      dup1\n      revert\n        /* \"TrabajoFinalModulo2/SimpleBanks.sol\":4912:5088  function getBalance() external view onlyRegistered returns (uint256) {... */\n    tag_2:\n      callvalue\n      dup1\n      iszero\n      tag_13\n      jumpi\n      0x00\n      dup1\n      revert\n    tag_13:\n      pop\n      tag_14\n      tag_15\n      jump\t// in\n    tag_14:\n      mload(0x40)\n      tag_16\n      swap2\n      swap1\n      tag_17\n      jump\t// in\n    tag_16:\n      mload(0x40)\n      dup1\n      swap2\n      sub\n      swap1\n      return\n        /* \"TrabajoFinalModulo2/SimpleBanks.sol\":1011:1042  uint256 public tesoreriaBalance */\n    tag_3:\n      callvalue\n      dup1\n      iszero\n      tag_18\n      jumpi\n      0x00\n      dup1\n      revert\n    tag_18:\n      pop\n      tag_19\n      tag_20\n      jump\t// in\n    tag_19:\n      mload(0x40)\n      tag_21\n      swap2\n      swap1\n      tag_17\n      jump\t// in\n    tag_21:\n      mload(0x40)\n      dup1\n      swap2\n      sub\n      swap1\n      return\n        /* \"TrabajoFinalModulo2/SimpleBanks.sol\":6068:6491  function withdrawtesoreria(uint256 _amount) external onlyOwner {... */\n    tag_4:\n      callvalue\n      dup1\n      iszero\n      tag_22\n      jumpi\n      0x00\n      dup1\n      revert\n    tag_22:\n      pop\n      tag_23\n      0x04\n      dup1\n      calldatasize\n      sub\n      dup2\n      add\n      swap1\n      tag_24\n      swap2\n      swap1\n      tag_25\n      jump\t// in\n    tag_24:\n      tag_26\n      jump\t// in\n    tag_23:\n      stop\n        /* \"TrabajoFinalModulo2/SimpleBanks.sol\":5226:5890  function withdraw(uint256 _amount) external onlyRegistered {... */\n    tag_5:\n      callvalue\n      dup1\n      iszero\n      tag_27\n      jumpi\n      0x00\n      dup1\n      revert\n    tag_27:\n      pop\n      tag_28\n      0x04\n      dup1\n      calldatasize\n      sub\n      dup2\n      add\n      swap1\n      tag_29\n      swap2\n      swap1\n      tag_25\n      jump\t// in\n    tag_29:\n      tag_30\n      jump\t// in\n    tag_28:\n      stop\n        /* \"TrabajoFinalModulo2/SimpleBanks.sol\":3355:4223  function register(string calldata _firstName, string calldata _lastName) external {... */\n    tag_6:\n      callvalue\n      dup1\n      iszero\n      tag_31\n      jumpi\n      0x00\n      dup1\n      revert\n    tag_31:\n      pop\n      tag_32\n      0x04\n      dup1\n      calldatasize\n      sub\n      dup2\n      add\n      swap1\n      tag_33\n      swap2\n      swap1\n      tag_34\n      jump\t// in\n    tag_33:\n      tag_35\n      jump\t// in\n    tag_32:\n      stop\n        /* \"TrabajoFinalModulo2/SimpleBanks.sol\":673:693  address public owner */\n    tag_7:\n      callvalue\n      dup1\n      iszero\n      tag_36\n      jumpi\n      0x00\n      dup1\n      revert\n    tag_36:\n      pop\n      tag_37\n      tag_38\n      jump\t// in\n    tag_37:\n      mload(0x40)\n      tag_39\n      swap2\n      swap1\n      tag_40\n      jump\t// in\n    tag_39:\n      mload(0x40)\n      dup1\n      swap2\n      sub\n      swap1\n      return\n        /* \"TrabajoFinalModulo2/SimpleBanks.sol\":538:575  mapping(address => User) public users */\n    tag_8:\n      callvalue\n      dup1\n      iszero\n      tag_41\n      jumpi\n      0x00\n      dup1\n      revert\n    tag_41:\n      pop\n      tag_42\n      0x04\n      dup1\n      calldatasize\n      sub\n      dup2\n      add\n      swap1\n      tag_43\n      swap2\n      swap1\n      tag_44\n      jump\t// in\n    tag_43:\n      tag_45\n      jump\t// in\n    tag_42:\n      mload(0x40)\n      tag_46\n      swap5\n      swap4\n      swap3\n      swap2\n      swap1\n      tag_47\n      jump\t// in\n    tag_46:\n      mload(0x40)\n      dup1\n      swap2\n      sub\n      swap1\n      return\n        /* \"TrabajoFinalModulo2/SimpleBanks.sol\":4322:4790  function deposit() external payable onlyRegistered {... */\n    tag_9:\n      tag_48\n      tag_49\n      jump\t// in\n    tag_48:\n      stop\n        /* \"TrabajoFinalModulo2/SimpleBanks.sol\":900:918  uint256 public fee */\n    tag_10:\n      callvalue\n      dup1\n      iszero\n      tag_50\n      jumpi\n      0x00\n      dup1\n      revert\n    tag_50:\n      pop\n      tag_51\n      tag_52\n      jump\t// in\n    tag_51:\n      mload(0x40)\n      tag_53\n      swap2\n      swap1\n      tag_17\n      jump\t// in\n    tag_53:\n      mload(0x40)\n      dup1\n      swap2\n      sub\n      swap1\n      return\n        /* \"TrabajoFinalModulo2/SimpleBanks.sol\":779:803  address public tesoreria */\n    tag_11:\n      callvalue\n      dup1\n      iszero\n      tag_54\n      jumpi\n      0x00\n      dup1\n      revert\n    tag_54:\n      pop\n      tag_55\n      tag_56\n      jump\t// in\n    tag_55:\n      mload(0x40)\n      tag_57\n      swap2\n      swap1\n      tag_40\n      jump\t// in\n    tag_57:\n      mload(0x40)\n      dup1\n      swap2\n      sub\n      swap1\n      return\n        /* \"TrabajoFinalModulo2/SimpleBanks.sol\":4912:5088  function getBalance() external view onlyRegistered returns (uint256) {... */\n    tag_15:\n        /* \"TrabajoFinalModulo2/SimpleBanks.sol\":4972:4979  uint256 */\n      0x00\n        /* \"TrabajoFinalModulo2/SimpleBanks.sol\":1903:1908  users */\n      dup1\n        /* \"TrabajoFinalModulo2/SimpleBanks.sol\":1903:1920  users[msg.sender] */\n      0x00\n        /* \"TrabajoFinalModulo2/SimpleBanks.sol\":1909:1919  msg.sender */\n      caller\n        /* \"TrabajoFinalModulo2/SimpleBanks.sol\":1903:1920  users[msg.sender] */\n      0xffffffffffffffffffffffffffffffffffffffff\n      and\n      0xffffffffffffffffffffffffffffffffffffffff\n      and\n      dup2\n      mstore\n      0x20\n      add\n      swap1\n      dup2\n      mstore\n      0x20\n      add\n      0x00\n      keccak256\n        /* \"TrabajoFinalModulo2/SimpleBanks.sol\":1903:1933  users[msg.sender].isRegistered */\n      0x03\n      add\n      0x00\n      swap1\n      sload\n      swap1\n      0x0100\n      exp\n      swap1\n      div\n      0xff\n      and\n        /* \"TrabajoFinalModulo2/SimpleBanks.sol\":1895:1960  require(users[msg.sender].isRegistered, \"User is not registered\") */\n      tag_59\n      jumpi\n      mload(0x40)\n      0x08c379a000000000000000000000000000000000000000000000000000000000\n      dup2\n      mstore\n      0x04\n      add\n      tag_60\n      swap1\n      tag_61\n      jump\t// in\n    tag_60:\n      mload(0x40)\n      dup1\n      swap2\n      sub\n      swap1\n      revert\n    tag_59:\n        /* \"TrabajoFinalModulo2/SimpleBanks.sol\":5056:5061  users */\n      0x00\n        /* \"TrabajoFinalModulo2/SimpleBanks.sol\":5056:5073  users[msg.sender] */\n      dup1\n        /* \"TrabajoFinalModulo2/SimpleBanks.sol\":5062:5072  msg.sender */\n      caller\n        /* \"TrabajoFinalModulo2/SimpleBanks.sol\":5056:5073  users[msg.sender] */\n      0xffffffffffffffffffffffffffffffffffffffff\n      and\n      0xffffffffffffffffffffffffffffffffffffffff\n      and\n      dup2\n      mstore\n      0x20\n      add\n      swap1\n      dup2\n      mstore\n      0x20\n      add\n      0x00\n      keccak256\n        /* \"TrabajoFinalModulo2/SimpleBanks.sol\":5056:5081  users[msg.sender].balance */\n      0x02\n      add\n      sload\n        /* \"TrabajoFinalModulo2/SimpleBanks.sol\":5049:5081  return users[msg.sender].balance */\n      swap1\n      pop\n        /* \"TrabajoFinalModulo2/SimpleBanks.sol\":4912:5088  function getBalance() external view onlyRegistered returns (uint256) {... */\n      swap1\n      jump\t// out\n        /* \"TrabajoFinalModulo2/SimpleBanks.sol\":1011:1042  uint256 public tesoreriaBalance */\n    tag_20:\n      sload(0x04)\n      dup2\n      jump\t// out\n        /* \"TrabajoFinalModulo2/SimpleBanks.sol\":6068:6491  function withdrawtesoreria(uint256 _amount) external onlyOwner {... */\n    tag_26:\n        /* \"TrabajoFinalModulo2/SimpleBanks.sol\":2151:2156  owner */\n      0x01\n      0x00\n      swap1\n      sload\n      swap1\n      0x0100\n      exp\n      swap1\n      div\n      0xffffffffffffffffffffffffffffffffffffffff\n      and\n        /* \"TrabajoFinalModulo2/SimpleBanks.sol\":2137:2156  msg.sender == owner */\n      0xffffffffffffffffffffffffffffffffffffffff\n      and\n        /* \"TrabajoFinalModulo2/SimpleBanks.sol\":2137:2147  msg.sender */\n      caller\n        /* \"TrabajoFinalModulo2/SimpleBanks.sol\":2137:2156  msg.sender == owner */\n      0xffffffffffffffffffffffffffffffffffffffff\n      and\n      eq\n        /* \"TrabajoFinalModulo2/SimpleBanks.sol\":2129:2194  require(msg.sender == owner, \"Only owner can call this function\") */\n      tag_64\n      jumpi\n      mload(0x40)\n      0x08c379a000000000000000000000000000000000000000000000000000000000\n      dup2\n      mstore\n      0x04\n      add\n      tag_65\n      swap1\n      tag_66\n      jump\t// in\n    tag_65:\n      mload(0x40)\n      dup1\n      swap2\n      sub\n      swap1\n      revert\n    tag_64:\n        /* \"TrabajoFinalModulo2/SimpleBanks.sol\":6068:6491  function withdrawtesoreria(uint256 _amount) external onlyOwner {... */\n      pop\n      jump\t// out\n        /* \"TrabajoFinalModulo2/SimpleBanks.sol\":5226:5890  function withdraw(uint256 _amount) external onlyRegistered {... */\n    tag_30:\n        /* \"TrabajoFinalModulo2/SimpleBanks.sol\":1903:1908  users */\n      0x00\n        /* \"TrabajoFinalModulo2/SimpleBanks.sol\":1903:1920  users[msg.sender] */\n      dup1\n        /* \"TrabajoFinalModulo2/SimpleBanks.sol\":1909:1919  msg.sender */\n      caller\n        /* \"TrabajoFinalModulo2/SimpleBanks.sol\":1903:1920  users[msg.sender] */\n      0xffffffffffffffffffffffffffffffffffffffff\n      and\n      0xffffffffffffffffffffffffffffffffffffffff\n      and\n      dup2\n      mstore\n      0x20\n      add\n      swap1\n      dup2\n      mstore\n      0x20\n      add\n      0x00\n      keccak256\n        /* \"TrabajoFinalModulo2/SimpleBanks.sol\":1903:1933  users[msg.sender].isRegistered */\n      0x03\n      add\n      0x00\n      swap1\n      sload\n      swap1\n      0x0100\n      exp\n      swap1\n      div\n      0xff\n      and\n        /* \"TrabajoFinalModulo2/SimpleBanks.sol\":1895:1960  require(users[msg.sender].isRegistered, \"User is not registered\") */\n      tag_69\n      jumpi\n      mload(0x40)\n      0x08c379a000000000000000000000000000000000000000000000000000000000\n      dup2\n      mstore\n      0x04\n      add\n      tag_70\n      swap1\n      tag_61\n      jump\t// in\n    tag_70:\n      mload(0x40)\n      dup1\n      swap2\n      sub\n      swap1\n      revert\n    tag_69:\n        /* \"TrabajoFinalModulo2/SimpleBanks.sol\":5226:5890  function withdraw(uint256 _amount) external onlyRegistered {... */\n      pop\n      jump\t// out\n        /* \"TrabajoFinalModulo2/SimpleBanks.sol\":3355:4223  function register(string calldata _firstName, string calldata _lastName) external {... */\n    tag_35:\n        /* \"TrabajoFinalModulo2/SimpleBanks.sol\":3544:3545  0 */\n      0x00\n        /* \"TrabajoFinalModulo2/SimpleBanks.sol\":3523:3533  _firstName */\n      dup5\n      dup5\n        /* \"TrabajoFinalModulo2/SimpleBanks.sol\":3517:3541  bytes(_firstName).length */\n      swap1\n      pop\n        /* \"TrabajoFinalModulo2/SimpleBanks.sol\":3517:3545  bytes(_firstName).length > 0 */\n      gt\n        /* \"TrabajoFinalModulo2/SimpleBanks.sol\":3509:3587  require(bytes(_firstName).length > 0, \"El primer nombre no puede estar vacio\") */\n      tag_73\n      jumpi\n      mload(0x40)\n      0x08c379a000000000000000000000000000000000000000000000000000000000\n      dup2\n      mstore\n      0x04\n      add\n      tag_74\n      swap1\n      tag_75\n      jump\t// in\n    tag_74:\n      mload(0x40)\n      dup1\n      swap2\n      sub\n      swap1\n      revert\n    tag_73:\n        /* \"TrabajoFinalModulo2/SimpleBanks.sol\":3688:3689  0 */\n      0x00\n        /* \"TrabajoFinalModulo2/SimpleBanks.sol\":3668:3677  _lastName */\n      dup3\n      dup3\n        /* \"TrabajoFinalModulo2/SimpleBanks.sol\":3662:3685  bytes(_lastName).length */\n      swap1\n      pop\n        /* \"TrabajoFinalModulo2/SimpleBanks.sol\":3662:3689  bytes(_lastName).length > 0 */\n      gt\n        /* \"TrabajoFinalModulo2/SimpleBanks.sol\":3654:3726  require(bytes(_lastName).length > 0, \"El apellido no puede estar vacio\") */\n      tag_76\n      jumpi\n      mload(0x40)\n      0x08c379a000000000000000000000000000000000000000000000000000000000\n      dup2\n      mstore\n      0x04\n      add\n      tag_77\n      swap1\n      tag_78\n      jump\t// in\n    tag_77:\n      mload(0x40)\n      dup1\n      swap2\n      sub\n      swap1\n      revert\n    tag_76:\n        /* \"TrabajoFinalModulo2/SimpleBanks.sol\":3819:3824  users */\n      0x00\n        /* \"TrabajoFinalModulo2/SimpleBanks.sol\":3819:3836  users[msg.sender] */\n      dup1\n        /* \"TrabajoFinalModulo2/SimpleBanks.sol\":3825:3835  msg.sender */\n      caller\n        /* \"TrabajoFinalModulo2/SimpleBanks.sol\":3819:3836  users[msg.sender] */\n      0xffffffffffffffffffffffffffffffffffffffff\n      and\n      0xffffffffffffffffffffffffffffffffffffffff\n      and\n      dup2\n      mstore\n      0x20\n      add\n      swap1\n      dup2\n      mstore\n      0x20\n      add\n      0x00\n      keccak256\n        /* \"TrabajoFinalModulo2/SimpleBanks.sol\":3819:3849  users[msg.sender].isRegistered */\n      0x03\n      add\n      0x00\n      swap1\n      sload\n      swap1\n      0x0100\n      exp\n      swap1\n      div\n      0xff\n      and\n        /* \"TrabajoFinalModulo2/SimpleBanks.sol\":3818:3849  !users[msg.sender].isRegistered */\n      iszero\n        /* \"TrabajoFinalModulo2/SimpleBanks.sol\":3810:3875  require(!users[msg.sender].isRegistered, \"Usuario ya registrado\") */\n      tag_79\n      jumpi\n      mload(0x40)\n      0x08c379a000000000000000000000000000000000000000000000000000000000\n      dup2\n      mstore\n      0x04\n      add\n      tag_80\n      swap1\n      tag_81\n      jump\t// in\n    tag_80:\n      mload(0x40)\n      dup1\n      swap2\n      sub\n      swap1\n      revert\n    tag_79:\n        /* \"TrabajoFinalModulo2/SimpleBanks.sol\":3990:4072  User({firstName: _firstName, lastName: _lastName, balance: 0, isRegistered: true}) */\n      mload(0x40)\n      dup1\n      0x80\n      add\n      0x40\n      mstore\n      dup1\n        /* \"TrabajoFinalModulo2/SimpleBanks.sol\":4007:4017  _firstName */\n      dup6\n      dup6\n        /* \"TrabajoFinalModulo2/SimpleBanks.sol\":3990:4072  User({firstName: _firstName, lastName: _lastName, balance: 0, isRegistered: true}) */\n      dup1\n      dup1\n      0x1f\n      add\n      0x20\n      dup1\n      swap2\n      div\n      mul\n      0x20\n      add\n      mload(0x40)\n      swap1\n      dup2\n      add\n      0x40\n      mstore\n      dup1\n      swap4\n      swap3\n      swap2\n      swap1\n      dup2\n      dup2\n      mstore\n      0x20\n      add\n      dup4\n      dup4\n      dup1\n      dup3\n      dup5\n      calldatacopy\n      0x00\n      dup2\n      dup5\n      add\n      mstore\n      not(0x1f)\n      0x1f\n      dup3\n      add\n      and\n      swap1\n      pop\n      dup1\n      dup4\n      add\n      swap3\n      pop\n      pop\n      pop\n      pop\n      pop\n      pop\n      pop\n      dup2\n      mstore\n      0x20\n      add\n        /* \"TrabajoFinalModulo2/SimpleBanks.sol\":4029:4038  _lastName */\n      dup4\n      dup4\n        /* \"TrabajoFinalModulo2/SimpleBanks.sol\":3990:4072  User({firstName: _firstName, lastName: _lastName, balance: 0, isRegistered: true}) */\n      dup1\n      dup1\n      0x1f\n      add\n      0x20\n      dup1\n      swap2\n      div\n      mul\n      0x20\n      add\n      mload(0x40)\n      swap1\n      dup2\n      add\n      0x40\n      mstore\n      dup1\n      swap4\n      swap3\n      swap2\n      swap1\n      dup2\n      dup2\n      mstore\n      0x20\n      add\n      dup4\n      dup4\n      dup1\n      dup3\n      dup5\n      calldatacopy\n      0x00\n      dup2\n      dup5\n      add\n      mstore\n      not(0x1f)\n      0x1f\n      dup3\n      add\n      and\n      swap1\n      pop\n      dup1\n      dup4\n      add\n      swap3\n      pop\n      pop\n      pop\n      pop\n      pop\n      pop\n      pop\n      dup2\n      mstore\n      0x20\n      add\n        /* \"TrabajoFinalModulo2/SimpleBanks.sol\":4049:4050  0 */\n      0x00\n        /* \"TrabajoFinalModulo2/SimpleBanks.sol\":3990:4072  User({firstName: _firstName, lastName: _lastName, balance: 0, isRegistered: true}) */\n      dup2\n      mstore\n      0x20\n      add\n        /* \"TrabajoFinalModulo2/SimpleBanks.sol\":4066:4070  true */\n      0x01\n        /* \"TrabajoFinalModulo2/SimpleBanks.sol\":3990:4072  User({firstName: _firstName, lastName: _lastName, balance: 0, isRegistered: true}) */\n      iszero\n      iszero\n      dup2\n      mstore\n      pop\n        /* \"TrabajoFinalModulo2/SimpleBanks.sol\":3970:3975  users */\n      0x00\n        /* \"TrabajoFinalModulo2/SimpleBanks.sol\":3970:3987  users[msg.sender] */\n      dup1\n        /* \"TrabajoFinalModulo2/SimpleBanks.sol\":3976:3986  msg.sender */\n      caller\n        /* \"TrabajoFinalModulo2/SimpleBanks.sol\":3970:3987  users[msg.sender] */\n      0xffffffffffffffffffffffffffffffffffffffff\n      and\n      0xffffffffffffffffffffffffffffffffffffffff\n      and\n      dup2\n      mstore\n      0x20\n      add\n      swap1\n      dup2\n      mstore\n      0x20\n      add\n      0x00\n      keccak256\n        /* \"TrabajoFinalModulo2/SimpleBanks.sol\":3970:4072  users[msg.sender] = User({firstName: _firstName, lastName: _lastName, balance: 0, isRegistered: true}) */\n      0x00\n      dup3\n      add\n      mload\n      dup2\n      0x00\n      add\n      swap1\n      dup2\n      tag_82\n      swap2\n      swap1\n      tag_83\n      jump\t// in\n    tag_82:\n      pop\n      0x20\n      dup3\n      add\n      mload\n      dup2\n      0x01\n      add\n      swap1\n      dup2\n      tag_84\n      swap2\n      swap1\n      tag_83\n      jump\t// in\n    tag_84:\n      pop\n      0x40\n      dup3\n      add\n      mload\n      dup2\n      0x02\n      add\n      sstore\n      0x60\n      dup3\n      add\n      mload\n      dup2\n      0x03\n      add\n      exp(0x0100, 0x00)\n      dup2\n      sload\n      dup2\n      0xff\n      mul\n      not\n      and\n      swap1\n      dup4\n      iszero\n      iszero\n      mul\n      or\n      swap1\n      sstore\n      pop\n      swap1\n      pop\n      pop\n        /* \"TrabajoFinalModulo2/SimpleBanks.sol\":4179:4216  UserRegistered(_firstName, _lastName) */\n      0x996d7324173609959370942b1ee1b743dc623b3d50459e66c1d55df55e5a9f37\n        /* \"TrabajoFinalModulo2/SimpleBanks.sol\":4194:4204  _firstName */\n      dup5\n      dup5\n        /* \"TrabajoFinalModulo2/SimpleBanks.sol\":4206:4215  _lastName */\n      dup5\n      dup5\n        /* \"TrabajoFinalModulo2/SimpleBanks.sol\":4179:4216  UserRegistered(_firstName, _lastName) */\n      mload(0x40)\n      tag_85\n      swap5\n      swap4\n      swap3\n      swap2\n      swap1\n      tag_86\n      jump\t// in\n    tag_85:\n      mload(0x40)\n      dup1\n      swap2\n      sub\n      swap1\n      log1\n        /* \"TrabajoFinalModulo2/SimpleBanks.sol\":3355:4223  function register(string calldata _firstName, string calldata _lastName) external {... */\n      pop\n      pop\n      pop\n      pop\n      jump\t// out\n        /* \"TrabajoFinalModulo2/SimpleBanks.sol\":673:693  address public owner */\n    tag_38:\n      0x01\n      0x00\n      swap1\n      sload\n      swap1\n      0x0100\n      exp\n      swap1\n      div\n      0xffffffffffffffffffffffffffffffffffffffff\n      and\n      dup2\n      jump\t// out\n        /* \"TrabajoFinalModulo2/SimpleBanks.sol\":538:575  mapping(address => User) public users */\n    tag_45:\n      mstore(0x20, 0x00)\n      dup1\n      0x00\n      mstore\n      keccak256(0x00, 0x40)\n      0x00\n      swap2\n      pop\n      swap1\n      pop\n      dup1\n      0x00\n      add\n      dup1\n      sload\n      tag_87\n      swap1\n      tag_88\n      jump\t// in\n    tag_87:\n      dup1\n      0x1f\n      add\n      0x20\n      dup1\n      swap2\n      div\n      mul\n      0x20\n      add\n      mload(0x40)\n      swap1\n      dup2\n      add\n      0x40\n      mstore\n      dup1\n      swap3\n      swap2\n      swap1\n      dup2\n      dup2\n      mstore\n      0x20\n      add\n      dup3\n      dup1\n      sload\n      tag_89\n      swap1\n      tag_88\n      jump\t// in\n    tag_89:\n      dup1\n      iszero\n      tag_90\n      jumpi\n      dup1\n      0x1f\n      lt\n      tag_91\n      jumpi\n      0x0100\n      dup1\n      dup4\n      sload\n      div\n      mul\n      dup4\n      mstore\n      swap2\n      0x20\n      add\n      swap2\n      jump(tag_90)\n    tag_91:\n      dup3\n      add\n      swap2\n      swap1\n      0x00\n      mstore\n      keccak256(0x00, 0x20)\n      swap1\n    tag_92:\n      dup2\n      sload\n      dup2\n      mstore\n      swap1\n      0x01\n      add\n      swap1\n      0x20\n      add\n      dup1\n      dup4\n      gt\n      tag_92\n      jumpi\n      dup3\n      swap1\n      sub\n      0x1f\n      and\n      dup3\n      add\n      swap2\n    tag_90:\n      pop\n      pop\n      pop\n      pop\n      pop\n      swap1\n      dup1\n      0x01\n      add\n      dup1\n      sload\n      tag_93\n      swap1\n      tag_88\n      jump\t// in\n    tag_93:\n      dup1\n      0x1f\n      add\n      0x20\n      dup1\n      swap2\n      div\n      mul\n      0x20\n      add\n      mload(0x40)\n      swap1\n      dup2\n      add\n      0x40\n      mstore\n      dup1\n      swap3\n      swap2\n      swap1\n      dup2\n      dup2\n      mstore\n      0x20\n      add\n      dup3\n      dup1\n      sload\n      tag_94\n      swap1\n      tag_88\n      jump\t// in\n    tag_94:\n      dup1\n      iszero\n      tag_95\n      jumpi\n      dup1\n      0x1f\n      lt\n      tag_96\n      jumpi\n      0x0100\n      dup1\n      dup4\n      sload\n      div\n      mul\n      dup4\n      mstore\n      swap2\n      0x20\n      add\n      swap2\n      jump(tag_95)\n    tag_96:\n      dup3\n      add\n      swap2\n      swap1\n      0x00\n      mstore\n      keccak256(0x00, 0x20)\n      swap1\n    tag_97:\n      dup2\n      sload\n      dup2\n      mstore\n      swap1\n      0x01\n      add\n      swap1\n      0x20\n      add\n      dup1\n      dup4\n      gt\n      tag_97\n      jumpi\n      dup3\n      swap1\n      sub\n      0x1f\n      and\n      dup3\n      add\n      swap2\n    tag_95:\n      pop\n      pop\n      pop\n      pop\n      pop\n      swap1\n      dup1\n      0x02\n      add\n      sload\n      swap1\n      dup1\n      0x03\n      add\n      0x00\n      swap1\n      sload\n      swap1\n      0x0100\n      exp\n      swap1\n      div\n      0xff\n      and\n      swap1\n      pop\n      dup5\n      jump\t// out\n        /* \"TrabajoFinalModulo2/SimpleBanks.sol\":4322:4790  function deposit() external payable onlyRegistered {... */\n    tag_49:\n        /* \"TrabajoFinalModulo2/SimpleBanks.sol\":1903:1908  users */\n      0x00\n        /* \"TrabajoFinalModulo2/SimpleBanks.sol\":1903:1920  users[msg.sender] */\n      dup1\n        /* \"TrabajoFinalModulo2/SimpleBanks.sol\":1909:1919  msg.sender */\n      caller\n        /* \"TrabajoFinalModulo2/SimpleBanks.sol\":1903:1920  users[msg.sender] */\n      0xffffffffffffffffffffffffffffffffffffffff\n      and\n      0xffffffffffffffffffffffffffffffffffffffff\n      and\n      dup2\n      mstore\n      0x20\n      add\n      swap1\n      dup2\n      mstore\n      0x20\n      add\n      0x00\n      keccak256\n        /* \"TrabajoFinalModulo2/SimpleBanks.sol\":1903:1933  users[msg.sender].isRegistered */\n      0x03\n      add\n      0x00\n      swap1\n      sload\n      swap1\n      0x0100\n      exp\n      swap1\n      div\n      0xff\n      and\n        /* \"TrabajoFinalModulo2/SimpleBanks.sol\":1895:1960  require(users[msg.sender].isRegistered, \"User is not registered\") */\n      tag_99\n      jumpi\n      mload(0x40)\n      0x08c379a000000000000000000000000000000000000000000000000000000000\n      dup2\n      mstore\n      0x04\n      add\n      tag_100\n      swap1\n      tag_61\n      jump\t// in\n    tag_100:\n      mload(0x40)\n      dup1\n      swap2\n      sub\n      swap1\n      revert\n    tag_99:\n        /* \"TrabajoFinalModulo2/SimpleBanks.sol\":4481:4482  0 */\n      0x00\n        /* \"TrabajoFinalModulo2/SimpleBanks.sol\":4469:4478  msg.value */\n      callvalue\n        /* \"TrabajoFinalModulo2/SimpleBanks.sol\":4469:4482  msg.value > 0 */\n      gt\n        /* \"TrabajoFinalModulo2/SimpleBanks.sol\":4461:4522  require(msg.value > 0, \"No se ha ingresado ninguna cantidad\") */\n      tag_102\n      jumpi\n      mload(0x40)\n      0x08c379a000000000000000000000000000000000000000000000000000000000\n      dup2\n      mstore\n      0x04\n      add\n      tag_103\n      swap1\n      tag_104\n      jump\t// in\n    tag_103:\n      mload(0x40)\n      dup1\n      swap2\n      sub\n      swap1\n      revert\n    tag_102:\n        /* \"TrabajoFinalModulo2/SimpleBanks.sol\":4632:4641  msg.value */\n      callvalue\n        /* \"TrabajoFinalModulo2/SimpleBanks.sol\":4603:4608  users */\n      0x00\n        /* \"TrabajoFinalModulo2/SimpleBanks.sol\":4603:4620  users[msg.sender] */\n      dup1\n        /* \"TrabajoFinalModulo2/SimpleBanks.sol\":4609:4619  msg.sender */\n      caller\n        /* \"TrabajoFinalModulo2/SimpleBanks.sol\":4603:4620  users[msg.sender] */\n      0xffffffffffffffffffffffffffffffffffffffff\n      and\n      0xffffffffffffffffffffffffffffffffffffffff\n      and\n      dup2\n      mstore\n      0x20\n      add\n      swap1\n      dup2\n      mstore\n      0x20\n      add\n      0x00\n      keccak256\n        /* \"TrabajoFinalModulo2/SimpleBanks.sol\":4603:4628  users[msg.sender].balance */\n      0x02\n      add\n      0x00\n        /* \"TrabajoFinalModulo2/SimpleBanks.sol\":4603:4641  users[msg.sender].balance += msg.value */\n      dup3\n      dup3\n      sload\n      tag_105\n      swap2\n      swap1\n      tag_106\n      jump\t// in\n    tag_105:\n      swap3\n      pop\n      pop\n      dup2\n      swap1\n      sstore\n      pop\n        /* \"TrabajoFinalModulo2/SimpleBanks.sol\":4761:4771  msg.sender */\n      caller\n        /* \"TrabajoFinalModulo2/SimpleBanks.sol\":4753:4783  Deposit(msg.sender, msg.value) */\n      0xffffffffffffffffffffffffffffffffffffffff\n      and\n      0xe1fffcc4923d04b559f4d29a8bfc6cda04eb5b0d3c460751c2402c5c5cc9109c\n        /* \"TrabajoFinalModulo2/SimpleBanks.sol\":4773:4782  msg.value */\n      callvalue\n        /* \"TrabajoFinalModulo2/SimpleBanks.sol\":4753:4783  Deposit(msg.sender, msg.value) */\n      mload(0x40)\n      tag_107\n      swap2\n      swap1\n      tag_17\n      jump\t// in\n    tag_107:\n      mload(0x40)\n      dup1\n      swap2\n      sub\n      swap1\n      log2\n        /* \"TrabajoFinalModulo2/SimpleBanks.sol\":4322:4790  function deposit() external payable onlyRegistered {... */\n      jump\t// out\n        /* \"TrabajoFinalModulo2/SimpleBanks.sol\":900:918  uint256 public fee */\n    tag_52:\n      sload(0x03)\n      dup2\n      jump\t// out\n        /* \"TrabajoFinalModulo2/SimpleBanks.sol\":779:803  address public tesoreria */\n    tag_56:\n      0x02\n      0x00\n      swap1\n      sload\n      swap1\n      0x0100\n      exp\n      swap1\n      div\n      0xffffffffffffffffffffffffffffffffffffffff\n      and\n      dup2\n      jump\t// out\n        /* \"#utility.yul\":7:84   */\n    tag_108:\n        /* \"#utility.yul\":44:51   */\n      0x00\n        /* \"#utility.yul\":73:78   */\n      dup2\n        /* \"#utility.yul\":62:78   */\n      swap1\n      pop\n        /* \"#utility.yul\":7:84   */\n      swap2\n      swap1\n      pop\n      jump\t// out\n        /* \"#utility.yul\":90:208   */\n    tag_109:\n        /* \"#utility.yul\":177:201   */\n      tag_166\n        /* \"#utility.yul\":195:200   */\n      dup2\n        /* \"#utility.yul\":177:201   */\n      tag_108\n      jump\t// in\n    tag_166:\n        /* \"#utility.yul\":172:175   */\n      dup3\n        /* \"#utility.yul\":165:202   */\n      mstore\n        /* \"#utility.yul\":90:208   */\n      pop\n      pop\n      jump\t// out\n        /* \"#utility.yul\":214:436   */\n    tag_17:\n        /* \"#utility.yul\":307:311   */\n      0x00\n        /* \"#utility.yul\":345:347   */\n      0x20\n        /* \"#utility.yul\":334:343   */\n      dup3\n        /* \"#utility.yul\":330:348   */\n      add\n        /* \"#utility.yul\":322:348   */\n      swap1\n      pop\n        /* \"#utility.yul\":358:429   */\n      tag_168\n        /* \"#utility.yul\":426:427   */\n      0x00\n        /* \"#utility.yul\":415:424   */\n      dup4\n        /* \"#utility.yul\":411:428   */\n      add\n        /* \"#utility.yul\":402:408   */\n      dup5\n        /* \"#utility.yul\":358:429   */\n      tag_109\n      jump\t// in\n    tag_168:\n        /* \"#utility.yul\":214:436   */\n      swap3\n      swap2\n      pop\n      pop\n      jump\t// out\n        /* \"#utility.yul\":523:640   */\n    tag_111:\n        /* \"#utility.yul\":632:633   */\n      0x00\n        /* \"#utility.yul\":629:630   */\n      dup1\n        /* \"#utility.yul\":622:634   */\n      revert\n        /* \"#utility.yul\":646:763   */\n    tag_112:\n        /* \"#utility.yul\":755:756   */\n      0x00\n        /* \"#utility.yul\":752:753   */\n      dup1\n        /* \"#utility.yul\":745:757   */\n      revert\n        /* \"#utility.yul\":769:891   */\n    tag_113:\n        /* \"#utility.yul\":842:866   */\n      tag_173\n        /* \"#utility.yul\":860:865   */\n      dup2\n        /* \"#utility.yul\":842:866   */\n      tag_108\n      jump\t// in\n    tag_173:\n        /* \"#utility.yul\":835:840   */\n      dup2\n        /* \"#utility.yul\":832:867   */\n      eq\n        /* \"#utility.yul\":822:885   */\n      tag_174\n      jumpi\n        /* \"#utility.yul\":881:882   */\n      0x00\n        /* \"#utility.yul\":878:879   */\n      dup1\n        /* \"#utility.yul\":871:883   */\n      revert\n        /* \"#utility.yul\":822:885   */\n    tag_174:\n        /* \"#utility.yul\":769:891   */\n      pop\n      jump\t// out\n        /* \"#utility.yul\":897:1036   */\n    tag_114:\n        /* \"#utility.yul\":943:948   */\n      0x00\n        /* \"#utility.yul\":981:987   */\n      dup2\n        /* \"#utility.yul\":968:988   */\n      calldataload\n        /* \"#utility.yul\":959:988   */\n      swap1\n      pop\n        /* \"#utility.yul\":997:1030   */\n      tag_176\n        /* \"#utility.yul\":1024:1029   */\n      dup2\n        /* \"#utility.yul\":997:1030   */\n      tag_113\n      jump\t// in\n    tag_176:\n        /* \"#utility.yul\":897:1036   */\n      swap3\n      swap2\n      pop\n      pop\n      jump\t// out\n        /* \"#utility.yul\":1042:1371   */\n    tag_25:\n        /* \"#utility.yul\":1101:1107   */\n      0x00\n        /* \"#utility.yul\":1150:1152   */\n      0x20\n        /* \"#utility.yul\":1138:1147   */\n      dup3\n        /* \"#utility.yul\":1129:1136   */\n      dup5\n        /* \"#utility.yul\":1125:1148   */\n      sub\n        /* \"#utility.yul\":1121:1153   */\n      slt\n        /* \"#utility.yul\":1118:1237   */\n      iszero\n      tag_178\n      jumpi\n        /* \"#utility.yul\":1156:1235   */\n      tag_179\n      tag_111\n      jump\t// in\n    tag_179:\n        /* \"#utility.yul\":1118:1237   */\n    tag_178:\n        /* \"#utility.yul\":1276:1277   */\n      0x00\n        /* \"#utility.yul\":1301:1354   */\n      tag_180\n        /* \"#utility.yul\":1346:1353   */\n      dup5\n        /* \"#utility.yul\":1337:1343   */\n      dup3\n        /* \"#utility.yul\":1326:1335   */\n      dup6\n        /* \"#utility.yul\":1322:1344   */\n      add\n        /* \"#utility.yul\":1301:1354   */\n      tag_114\n      jump\t// in\n    tag_180:\n        /* \"#utility.yul\":1291:1354   */\n      swap2\n      pop\n        /* \"#utility.yul\":1247:1364   */\n      pop\n        /* \"#utility.yul\":1042:1371   */\n      swap3\n      swap2\n      pop\n      pop\n      jump\t// out\n        /* \"#utility.yul\":1377:1494   */\n    tag_115:\n        /* \"#utility.yul\":1486:1487   */\n      0x00\n        /* \"#utility.yul\":1483:1484   */\n      dup1\n        /* \"#utility.yul\":1476:1488   */\n      revert\n        /* \"#utility.yul\":1500:1617   */\n    tag_116:\n        /* \"#utility.yul\":1609:1610   */\n      0x00\n        /* \"#utility.yul\":1606:1607   */\n      dup1\n        /* \"#utility.yul\":1599:1611   */\n      revert\n        /* \"#utility.yul\":1623:1740   */\n    tag_117:\n        /* \"#utility.yul\":1732:1733   */\n      0x00\n        /* \"#utility.yul\":1729:1730   */\n      dup1\n        /* \"#utility.yul\":1722:1734   */\n      revert\n        /* \"#utility.yul\":1760:2313   */\n    tag_118:\n        /* \"#utility.yul\":1818:1826   */\n      0x00\n        /* \"#utility.yul\":1828:1834   */\n      dup1\n        /* \"#utility.yul\":1878:1881   */\n      dup4\n        /* \"#utility.yul\":1871:1875   */\n      0x1f\n        /* \"#utility.yul\":1863:1869   */\n      dup5\n        /* \"#utility.yul\":1859:1876   */\n      add\n        /* \"#utility.yul\":1855:1882   */\n      slt\n        /* \"#utility.yul\":1845:1967   */\n      tag_185\n      jumpi\n        /* \"#utility.yul\":1886:1965   */\n      tag_186\n      tag_115\n      jump\t// in\n    tag_186:\n        /* \"#utility.yul\":1845:1967   */\n    tag_185:\n        /* \"#utility.yul\":1999:2005   */\n      dup3\n        /* \"#utility.yul\":1986:2006   */\n      calldataload\n        /* \"#utility.yul\":1976:2006   */\n      swap1\n      pop\n        /* \"#utility.yul\":2029:2047   */\n      0xffffffffffffffff\n        /* \"#utility.yul\":2021:2027   */\n      dup2\n        /* \"#utility.yul\":2018:2048   */\n      gt\n        /* \"#utility.yul\":2015:2132   */\n      iszero\n      tag_187\n      jumpi\n        /* \"#utility.yul\":2051:2130   */\n      tag_188\n      tag_116\n      jump\t// in\n    tag_188:\n        /* \"#utility.yul\":2015:2132   */\n    tag_187:\n        /* \"#utility.yul\":2165:2169   */\n      0x20\n        /* \"#utility.yul\":2157:2163   */\n      dup4\n        /* \"#utility.yul\":2153:2170   */\n      add\n        /* \"#utility.yul\":2141:2170   */\n      swap2\n      pop\n        /* \"#utility.yul\":2219:2222   */\n      dup4\n        /* \"#utility.yul\":2211:2215   */\n      0x01\n        /* \"#utility.yul\":2203:2209   */\n      dup3\n        /* \"#utility.yul\":2199:2216   */\n      mul\n        /* \"#utility.yul\":2189:2197   */\n      dup4\n        /* \"#utility.yul\":2185:2217   */\n      add\n        /* \"#utility.yul\":2182:2223   */\n      gt\n        /* \"#utility.yul\":2179:2307   */\n      iszero\n      tag_189\n      jumpi\n        /* \"#utility.yul\":2226:2305   */\n      tag_190\n      tag_117\n      jump\t// in\n    tag_190:\n        /* \"#utility.yul\":2179:2307   */\n    tag_189:\n        /* \"#utility.yul\":1760:2313   */\n      swap3\n      pop\n      swap3\n      swap1\n      pop\n      jump\t// out\n        /* \"#utility.yul\":2319:3193   */\n    tag_34:\n        /* \"#utility.yul\":2411:2417   */\n      0x00\n        /* \"#utility.yul\":2419:2425   */\n      dup1\n        /* \"#utility.yul\":2427:2433   */\n      0x00\n        /* \"#utility.yul\":2435:2441   */\n      dup1\n        /* \"#utility.yul\":2484:2486   */\n      0x40\n        /* \"#utility.yul\":2472:2481   */\n      dup6\n        /* \"#utility.yul\":2463:2470   */\n      dup8\n        /* \"#utility.yul\":2459:2482   */\n      sub\n        /* \"#utility.yul\":2455:2487   */\n      slt\n        /* \"#utility.yul\":2452:2571   */\n      iszero\n      tag_192\n      jumpi\n        /* \"#utility.yul\":2490:2569   */\n      tag_193\n      tag_111\n      jump\t// in\n    tag_193:\n        /* \"#utility.yul\":2452:2571   */\n    tag_192:\n        /* \"#utility.yul\":2638:2639   */\n      0x00\n        /* \"#utility.yul\":2627:2636   */\n      dup6\n        /* \"#utility.yul\":2623:2640   */\n      add\n        /* \"#utility.yul\":2610:2641   */\n      calldataload\n        /* \"#utility.yul\":2668:2686   */\n      0xffffffffffffffff\n        /* \"#utility.yul\":2660:2666   */\n      dup2\n        /* \"#utility.yul\":2657:2687   */\n      gt\n        /* \"#utility.yul\":2654:2771   */\n      iszero\n      tag_194\n      jumpi\n        /* \"#utility.yul\":2690:2769   */\n      tag_195\n      tag_112\n      jump\t// in\n    tag_195:\n        /* \"#utility.yul\":2654:2771   */\n    tag_194:\n        /* \"#utility.yul\":2803:2868   */\n      tag_196\n        /* \"#utility.yul\":2860:2867   */\n      dup8\n        /* \"#utility.yul\":2851:2857   */\n      dup3\n        /* \"#utility.yul\":2840:2849   */\n      dup9\n        /* \"#utility.yul\":2836:2858   */\n      add\n        /* \"#utility.yul\":2803:2868   */\n      tag_118\n      jump\t// in\n    tag_196:\n        /* \"#utility.yul\":2785:2868   */\n      swap5\n      pop\n      swap5\n      pop\n        /* \"#utility.yul\":2581:2878   */\n      pop\n        /* \"#utility.yul\":2945:2947   */\n      0x20\n        /* \"#utility.yul\":2934:2943   */\n      dup6\n        /* \"#utility.yul\":2930:2948   */\n      add\n        /* \"#utility.yul\":2917:2949   */\n      calldataload\n        /* \"#utility.yul\":2976:2994   */\n      0xffffffffffffffff\n        /* \"#utility.yul\":2968:2974   */\n      dup2\n        /* \"#utility.yul\":2965:2995   */\n      gt\n        /* \"#utility.yul\":2962:3079   */\n      iszero\n      tag_197\n      jumpi\n        /* \"#utility.yul\":2998:3077   */\n      tag_198\n      tag_112\n      jump\t// in\n    tag_198:\n        /* \"#utility.yul\":2962:3079   */\n    tag_197:\n        /* \"#utility.yul\":3111:3176   */\n      tag_199\n        /* \"#utility.yul\":3168:3175   */\n      dup8\n        /* \"#utility.yul\":3159:3165   */\n      dup3\n        /* \"#utility.yul\":3148:3157   */\n      dup9\n        /* \"#utility.yul\":3144:3166   */\n      add\n        /* \"#utility.yul\":3111:3176   */\n      tag_118\n      jump\t// in\n    tag_199:\n        /* \"#utility.yul\":3093:3176   */\n      swap3\n      pop\n      swap3\n      pop\n        /* \"#utility.yul\":2888:3186   */\n      pop\n        /* \"#utility.yul\":2319:3193   */\n      swap3\n      swap6\n      swap2\n      swap5\n      pop\n      swap3\n      pop\n      jump\t// out\n        /* \"#utility.yul\":3199:3325   */\n    tag_119:\n        /* \"#utility.yul\":3236:3243   */\n      0x00\n        /* \"#utility.yul\":3276:3318   */\n      0xffffffffffffffffffffffffffffffffffffffff\n        /* \"#utility.yul\":3269:3274   */\n      dup3\n        /* \"#utility.yul\":3265:3319   */\n      and\n        /* \"#utility.yul\":3254:3319   */\n      swap1\n      pop\n        /* \"#utility.yul\":3199:3325   */\n      swap2\n      swap1\n      pop\n      jump\t// out\n        /* \"#utility.yul\":3331:3427   */\n    tag_120:\n        /* \"#utility.yul\":3368:3375   */\n      0x00\n        /* \"#utility.yul\":3397:3421   */\n      tag_202\n        /* \"#utility.yul\":3415:3420   */\n      dup3\n        /* \"#utility.yul\":3397:3421   */\n      tag_119\n      jump\t// in\n    tag_202:\n        /* \"#utility.yul\":3386:3421   */\n      swap1\n      pop\n        /* \"#utility.yul\":3331:3427   */\n      swap2\n      swap1\n      pop\n      jump\t// out\n        /* \"#utility.yul\":3433:3551   */\n    tag_121:\n        /* \"#utility.yul\":3520:3544   */\n      tag_204\n        /* \"#utility.yul\":3538:3543   */\n      dup2\n        /* \"#utility.yul\":3520:3544   */\n      tag_120\n      jump\t// in\n    tag_204:\n        /* \"#utility.yul\":3515:3518   */\n      dup3\n        /* \"#utility.yul\":3508:3545   */\n      mstore\n        /* \"#utility.yul\":3433:3551   */\n      pop\n      pop\n      jump\t// out\n        /* \"#utility.yul\":3557:3779   */\n    tag_40:\n        /* \"#utility.yul\":3650:3654   */\n      0x00\n        /* \"#utility.yul\":3688:3690   */\n      0x20\n        /* \"#utility.yul\":3677:3686   */\n      dup3\n        /* \"#utility.yul\":3673:3691   */\n      add\n        /* \"#utility.yul\":3665:3691   */\n      swap1\n      pop\n        /* \"#utility.yul\":3701:3772   */\n      tag_206\n        /* \"#utility.yul\":3769:3770   */\n      0x00\n        /* \"#utility.yul\":3758:3767   */\n      dup4\n        /* \"#utility.yul\":3754:3771   */\n      add\n        /* \"#utility.yul\":3745:3751   */\n      dup5\n        /* \"#utility.yul\":3701:3772   */\n      tag_121\n      jump\t// in\n    tag_206:\n        /* \"#utility.yul\":3557:3779   */\n      swap3\n      swap2\n      pop\n      pop\n      jump\t// out\n        /* \"#utility.yul\":3785:3907   */\n    tag_122:\n        /* \"#utility.yul\":3858:3882   */\n      tag_208\n        /* \"#utility.yul\":3876:3881   */\n      dup2\n        /* \"#utility.yul\":3858:3882   */\n      tag_120\n      jump\t// in\n    tag_208:\n        /* \"#utility.yul\":3851:3856   */\n      dup2\n        /* \"#utility.yul\":3848:3883   */\n      eq\n        /* \"#utility.yul\":3838:3901   */\n      tag_209\n      jumpi\n        /* \"#utility.yul\":3897:3898   */\n      0x00\n        /* \"#utility.yul\":3894:3895   */\n      dup1\n        /* \"#utility.yul\":3887:3899   */\n      revert\n        /* \"#utility.yul\":3838:3901   */\n    tag_209:\n        /* \"#utility.yul\":3785:3907   */\n      pop\n      jump\t// out\n        /* \"#utility.yul\":3913:4052   */\n    tag_123:\n        /* \"#utility.yul\":3959:3964   */\n      0x00\n        /* \"#utility.yul\":3997:4003   */\n      dup2\n        /* \"#utility.yul\":3984:4004   */\n      calldataload\n        /* \"#utility.yul\":3975:4004   */\n      swap1\n      pop\n        /* \"#utility.yul\":4013:4046   */\n      tag_211\n        /* \"#utility.yul\":4040:4045   */\n      dup2\n        /* \"#utility.yul\":4013:4046   */\n      tag_122\n      jump\t// in\n    tag_211:\n        /* \"#utility.yul\":3913:4052   */\n      swap3\n      swap2\n      pop\n      pop\n      jump\t// out\n        /* \"#utility.yul\":4058:4387   */\n    tag_44:\n        /* \"#utility.yul\":4117:4123   */\n      0x00\n        /* \"#utility.yul\":4166:4168   */\n      0x20\n        /* \"#utility.yul\":4154:4163   */\n      dup3\n        /* \"#utility.yul\":4145:4152   */\n      dup5\n        /* \"#utility.yul\":4141:4164   */\n      sub\n        /* \"#utility.yul\":4137:4169   */\n      slt\n        /* \"#utility.yul\":4134:4253   */\n      iszero\n      tag_213\n      jumpi\n        /* \"#utility.yul\":4172:4251   */\n      tag_214\n      tag_111\n      jump\t// in\n    tag_214:\n        /* \"#utility.yul\":4134:4253   */\n    tag_213:\n        /* \"#utility.yul\":4292:4293   */\n      0x00\n        /* \"#utility.yul\":4317:4370   */\n      tag_215\n        /* \"#utility.yul\":4362:4369   */\n      dup5\n        /* \"#utility.yul\":4353:4359   */\n      dup3\n        /* \"#utility.yul\":4342:4351   */\n      dup6\n        /* \"#utility.yul\":4338:4360   */\n      add\n        /* \"#utility.yul\":4317:4370   */\n      tag_123\n      jump\t// in\n    tag_215:\n        /* \"#utility.yul\":4307:4370   */\n      swap2\n      pop\n        /* \"#utility.yul\":4263:4380   */\n      pop\n        /* \"#utility.yul\":4058:4387   */\n      swap3\n      swap2\n      pop\n      pop\n      jump\t// out\n        /* \"#utility.yul\":4393:4492   */\n    tag_124:\n        /* \"#utility.yul\":4445:4451   */\n      0x00\n        /* \"#utility.yul\":4479:4484   */\n      dup2\n        /* \"#utility.yul\":4473:4485   */\n      mload\n        /* \"#utility.yul\":4463:4485   */\n      swap1\n      pop\n        /* \"#utility.yul\":4393:4492   */\n      swap2\n      swap1\n      pop\n      jump\t// out\n        /* \"#utility.yul\":4498:4667   */\n    tag_125:\n        /* \"#utility.yul\":4582:4593   */\n      0x00\n        /* \"#utility.yul\":4616:4622   */\n      dup3\n        /* \"#utility.yul\":4611:4614   */\n      dup3\n        /* \"#utility.yul\":4604:4623   */\n      mstore\n        /* \"#utility.yul\":4656:4660   */\n      0x20\n        /* \"#utility.yul\":4651:4654   */\n      dup3\n        /* \"#utility.yul\":4647:4661   */\n      add\n        /* \"#utility.yul\":4632:4661   */\n      swap1\n      pop\n        /* \"#utility.yul\":4498:4667   */\n      swap3\n      swap2\n      pop\n      pop\n      jump\t// out\n        /* \"#utility.yul\":4673:4812   */\n    tag_126:\n        /* \"#utility.yul\":4762:4768   */\n      dup3\n        /* \"#utility.yul\":4757:4760   */\n      dup2\n        /* \"#utility.yul\":4752:4755   */\n      dup4\n        /* \"#utility.yul\":4746:4769   */\n      mcopy\n        /* \"#utility.yul\":4803:4804   */\n      0x00\n        /* \"#utility.yul\":4794:4800   */\n      dup4\n        /* \"#utility.yul\":4789:4792   */\n      dup4\n        /* \"#utility.yul\":4785:4801   */\n      add\n        /* \"#utility.yul\":4778:4805   */\n      mstore\n        /* \"#utility.yul\":4673:4812   */\n      pop\n      pop\n      pop\n      jump\t// out\n        /* \"#utility.yul\":4818:4920   */\n    tag_127:\n        /* \"#utility.yul\":4859:4865   */\n      0x00\n        /* \"#utility.yul\":4910:4912   */\n      0x1f\n        /* \"#utility.yul\":4906:4913   */\n      not\n        /* \"#utility.yul\":4901:4903   */\n      0x1f\n        /* \"#utility.yul\":4894:4899   */\n      dup4\n        /* \"#utility.yul\":4890:4904   */\n      add\n        /* \"#utility.yul\":4886:4914   */\n      and\n        /* \"#utility.yul\":4876:4914   */\n      swap1\n      pop\n        /* \"#utility.yul\":4818:4920   */\n      swap2\n      swap1\n      pop\n      jump\t// out\n        /* \"#utility.yul\":4926:5303   */\n    tag_128:\n        /* \"#utility.yul\":5014:5017   */\n      0x00\n        /* \"#utility.yul\":5042:5081   */\n      tag_221\n        /* \"#utility.yul\":5075:5080   */\n      dup3\n        /* \"#utility.yul\":5042:5081   */\n      tag_124\n      jump\t// in\n    tag_221:\n        /* \"#utility.yul\":5097:5168   */\n      tag_222\n        /* \"#utility.yul\":5161:5167   */\n      dup2\n        /* \"#utility.yul\":5156:5159   */\n      dup6\n        /* \"#utility.yul\":5097:5168   */\n      tag_125\n      jump\t// in\n    tag_222:\n        /* \"#utility.yul\":5090:5168   */\n      swap4\n      pop\n        /* \"#utility.yul\":5177:5242   */\n      tag_223\n        /* \"#utility.yul\":5235:5241   */\n      dup2\n        /* \"#utility.yul\":5230:5233   */\n      dup6\n        /* \"#utility.yul\":5223:5227   */\n      0x20\n        /* \"#utility.yul\":5216:5221   */\n      dup7\n        /* \"#utility.yul\":5212:5228   */\n      add\n        /* \"#utility.yul\":5177:5242   */\n      tag_126\n      jump\t// in\n    tag_223:\n        /* \"#utility.yul\":5267:5296   */\n      tag_224\n        /* \"#utility.yul\":5289:5295   */\n      dup2\n        /* \"#utility.yul\":5267:5296   */\n      tag_127\n      jump\t// in\n    tag_224:\n        /* \"#utility.yul\":5262:5265   */\n      dup5\n        /* \"#utility.yul\":5258:5297   */\n      add\n        /* \"#utility.yul\":5251:5297   */\n      swap2\n      pop\n        /* \"#utility.yul\":5018:5303   */\n      pop\n        /* \"#utility.yul\":4926:5303   */\n      swap3\n      swap2\n      pop\n      pop\n      jump\t// out\n        /* \"#utility.yul\":5309:5399   */\n    tag_129:\n        /* \"#utility.yul\":5343:5350   */\n      0x00\n        /* \"#utility.yul\":5386:5391   */\n      dup2\n        /* \"#utility.yul\":5379:5392   */\n      iszero\n        /* \"#utility.yul\":5372:5393   */\n      iszero\n        /* \"#utility.yul\":5361:5393   */\n      swap1\n      pop\n        /* \"#utility.yul\":5309:5399   */\n      swap2\n      swap1\n      pop\n      jump\t// out\n        /* \"#utility.yul\":5405:5514   */\n    tag_130:\n        /* \"#utility.yul\":5486:5507   */\n      tag_227\n        /* \"#utility.yul\":5501:5506   */\n      dup2\n        /* \"#utility.yul\":5486:5507   */\n      tag_129\n      jump\t// in\n    tag_227:\n        /* \"#utility.yul\":5481:5484   */\n      dup3\n        /* \"#utility.yul\":5474:5508   */\n      mstore\n        /* \"#utility.yul\":5405:5514   */\n      pop\n      pop\n      jump\t// out\n        /* \"#utility.yul\":5520:6243   */\n    tag_47:\n        /* \"#utility.yul\":5731:5735   */\n      0x00\n        /* \"#utility.yul\":5769:5772   */\n      0x80\n        /* \"#utility.yul\":5758:5767   */\n      dup3\n        /* \"#utility.yul\":5754:5773   */\n      add\n        /* \"#utility.yul\":5746:5773   */\n      swap1\n      pop\n        /* \"#utility.yul\":5819:5828   */\n      dup2\n        /* \"#utility.yul\":5813:5817   */\n      dup2\n        /* \"#utility.yul\":5809:5829   */\n      sub\n        /* \"#utility.yul\":5805:5806   */\n      0x00\n        /* \"#utility.yul\":5794:5803   */\n      dup4\n        /* \"#utility.yul\":5790:5807   */\n      add\n        /* \"#utility.yul\":5783:5830   */\n      mstore\n        /* \"#utility.yul\":5847:5925   */\n      tag_229\n        /* \"#utility.yul\":5920:5924   */\n      dup2\n        /* \"#utility.yul\":5911:5917   */\n      dup8\n        /* \"#utility.yul\":5847:5925   */\n      tag_128\n      jump\t// in\n    tag_229:\n        /* \"#utility.yul\":5839:5925   */\n      swap1\n      pop\n        /* \"#utility.yul\":5972:5981   */\n      dup2\n        /* \"#utility.yul\":5966:5970   */\n      dup2\n        /* \"#utility.yul\":5962:5982   */\n      sub\n        /* \"#utility.yul\":5957:5959   */\n      0x20\n        /* \"#utility.yul\":5946:5955   */\n      dup4\n        /* \"#utility.yul\":5942:5960   */\n      add\n        /* \"#utility.yul\":5935:5983   */\n      mstore\n        /* \"#utility.yul\":6000:6078   */\n      tag_230\n        /* \"#utility.yul\":6073:6077   */\n      dup2\n        /* \"#utility.yul\":6064:6070   */\n      dup7\n        /* \"#utility.yul\":6000:6078   */\n      tag_128\n      jump\t// in\n    tag_230:\n        /* \"#utility.yul\":5992:6078   */\n      swap1\n      pop\n        /* \"#utility.yul\":6088:6160   */\n      tag_231\n        /* \"#utility.yul\":6156:6158   */\n      0x40\n        /* \"#utility.yul\":6145:6154   */\n      dup4\n        /* \"#utility.yul\":6141:6159   */\n      add\n        /* \"#utility.yul\":6132:6138   */\n      dup6\n        /* \"#utility.yul\":6088:6160   */\n      tag_109\n      jump\t// in\n    tag_231:\n        /* \"#utility.yul\":6170:6236   */\n      tag_232\n        /* \"#utility.yul\":6232:6234   */\n      0x60\n        /* \"#utility.yul\":6221:6230   */\n      dup4\n        /* \"#utility.yul\":6217:6235   */\n      add\n        /* \"#utility.yul\":6208:6214   */\n      dup5\n        /* \"#utility.yul\":6170:6236   */\n      tag_130\n      jump\t// in\n    tag_232:\n        /* \"#utility.yul\":5520:6243   */\n      swap6\n      swap5\n      pop\n      pop\n      pop\n      pop\n      pop\n      jump\t// out\n        /* \"#utility.yul\":6249:6421   */\n    tag_131:\n        /* \"#utility.yul\":6389:6413   */\n      0x55736572206973206e6f74207265676973746572656400000000000000000000\n        /* \"#utility.yul\":6385:6386   */\n      0x00\n        /* \"#utility.yul\":6377:6383   */\n      dup3\n        /* \"#utility.yul\":6373:6387   */\n      add\n        /* \"#utility.yul\":6366:6414   */\n      mstore\n        /* \"#utility.yul\":6249:6421   */\n      pop\n      jump\t// out\n        /* \"#utility.yul\":6427:6793   */\n    tag_132:\n        /* \"#utility.yul\":6569:6572   */\n      0x00\n        /* \"#utility.yul\":6590:6657   */\n      tag_235\n        /* \"#utility.yul\":6654:6656   */\n      0x16\n        /* \"#utility.yul\":6649:6652   */\n      dup4\n        /* \"#utility.yul\":6590:6657   */\n      tag_125\n      jump\t// in\n    tag_235:\n        /* \"#utility.yul\":6583:6657   */\n      swap2\n      pop\n        /* \"#utility.yul\":6666:6759   */\n      tag_236\n        /* \"#utility.yul\":6755:6758   */\n      dup3\n        /* \"#utility.yul\":6666:6759   */\n      tag_131\n      jump\t// in\n    tag_236:\n        /* \"#utility.yul\":6784:6786   */\n      0x20\n        /* \"#utility.yul\":6779:6782   */\n      dup3\n        /* \"#utility.yul\":6775:6787   */\n      add\n        /* \"#utility.yul\":6768:6787   */\n      swap1\n      pop\n        /* \"#utility.yul\":6427:6793   */\n      swap2\n      swap1\n      pop\n      jump\t// out\n        /* \"#utility.yul\":6799:7218   */\n    tag_61:\n        /* \"#utility.yul\":6965:6969   */\n      0x00\n        /* \"#utility.yul\":7003:7005   */\n      0x20\n        /* \"#utility.yul\":6992:7001   */\n      dup3\n        /* \"#utility.yul\":6988:7006   */\n      add\n        /* \"#utility.yul\":6980:7006   */\n      swap1\n      pop\n        /* \"#utility.yul\":7052:7061   */\n      dup2\n        /* \"#utility.yul\":7046:7050   */\n      dup2\n        /* \"#utility.yul\":7042:7062   */\n      sub\n        /* \"#utility.yul\":7038:7039   */\n      0x00\n        /* \"#utility.yul\":7027:7036   */\n      dup4\n        /* \"#utility.yul\":7023:7040   */\n      add\n        /* \"#utility.yul\":7016:7063   */\n      mstore\n        /* \"#utility.yul\":7080:7211   */\n      tag_238\n        /* \"#utility.yul\":7206:7210   */\n      dup2\n        /* \"#utility.yul\":7080:7211   */\n      tag_132\n      jump\t// in\n    tag_238:\n        /* \"#utility.yul\":7072:7211   */\n      swap1\n      pop\n        /* \"#utility.yul\":6799:7218   */\n      swap2\n      swap1\n      pop\n      jump\t// out\n        /* \"#utility.yul\":7224:7444   */\n    tag_133:\n        /* \"#utility.yul\":7364:7398   */\n      0x4f6e6c79206f776e65722063616e2063616c6c20746869732066756e6374696f\n        /* \"#utility.yul\":7360:7361   */\n      0x00\n        /* \"#utility.yul\":7352:7358   */\n      dup3\n        /* \"#utility.yul\":7348:7362   */\n      add\n        /* \"#utility.yul\":7341:7399   */\n      mstore\n        /* \"#utility.yul\":7433:7436   */\n      0x6e00000000000000000000000000000000000000000000000000000000000000\n        /* \"#utility.yul\":7428:7430   */\n      0x20\n        /* \"#utility.yul\":7420:7426   */\n      dup3\n        /* \"#utility.yul\":7416:7431   */\n      add\n        /* \"#utility.yul\":7409:7437   */\n      mstore\n        /* \"#utility.yul\":7224:7444   */\n      pop\n      jump\t// out\n        /* \"#utility.yul\":7450:7816   */\n    tag_134:\n        /* \"#utility.yul\":7592:7595   */\n      0x00\n        /* \"#utility.yul\":7613:7680   */\n      tag_241\n        /* \"#utility.yul\":7677:7679   */\n      0x21\n        /* \"#utility.yul\":7672:7675   */\n      dup4\n        /* \"#utility.yul\":7613:7680   */\n      tag_125\n      jump\t// in\n    tag_241:\n        /* \"#utility.yul\":7606:7680   */\n      swap2\n      pop\n        /* \"#utility.yul\":7689:7782   */\n      tag_242\n        /* \"#utility.yul\":7778:7781   */\n      dup3\n        /* \"#utility.yul\":7689:7782   */\n      tag_133\n      jump\t// in\n    tag_242:\n        /* \"#utility.yul\":7807:7809   */\n      0x40\n        /* \"#utility.yul\":7802:7805   */\n      dup3\n        /* \"#utility.yul\":7798:7810   */\n      add\n        /* \"#utility.yul\":7791:7810   */\n      swap1\n      pop\n        /* \"#utility.yul\":7450:7816   */\n      swap2\n      swap1\n      pop\n      jump\t// out\n        /* \"#utility.yul\":7822:8241   */\n    tag_66:\n        /* \"#utility.yul\":7988:7992   */\n      0x00\n        /* \"#utility.yul\":8026:8028   */\n      0x20\n        /* \"#utility.yul\":8015:8024   */\n      dup3\n        /* \"#utility.yul\":8011:8029   */\n      add\n        /* \"#utility.yul\":8003:8029   */\n      swap1\n      pop\n        /* \"#utility.yul\":8075:8084   */\n      dup2\n        /* \"#utility.yul\":8069:8073   */\n      dup2\n        /* \"#utility.yul\":8065:8085   */\n      sub\n        /* \"#utility.yul\":8061:8062   */\n      0x00\n        /* \"#utility.yul\":8050:8059   */\n      dup4\n        /* \"#utility.yul\":8046:8063   */\n      add\n        /* \"#utility.yul\":8039:8086   */\n      mstore\n        /* \"#utility.yul\":8103:8234   */\n      tag_244\n        /* \"#utility.yul\":8229:8233   */\n      dup2\n        /* \"#utility.yul\":8103:8234   */\n      tag_134\n      jump\t// in\n    tag_244:\n        /* \"#utility.yul\":8095:8234   */\n      swap1\n      pop\n        /* \"#utility.yul\":7822:8241   */\n      swap2\n      swap1\n      pop\n      jump\t// out\n        /* \"#utility.yul\":8247:8471   */\n    tag_135:\n        /* \"#utility.yul\":8387:8421   */\n      0x456c207072696d6572206e6f6d627265206e6f20707565646520657374617220\n        /* \"#utility.yul\":8383:8384   */\n      0x00\n        /* \"#utility.yul\":8375:8381   */\n      dup3\n        /* \"#utility.yul\":8371:8385   */\n      add\n        /* \"#utility.yul\":8364:8422   */\n      mstore\n        /* \"#utility.yul\":8456:8463   */\n      0x766163696f000000000000000000000000000000000000000000000000000000\n        /* \"#utility.yul\":8451:8453   */\n      0x20\n        /* \"#utility.yul\":8443:8449   */\n      dup3\n        /* \"#utility.yul\":8439:8454   */\n      add\n        /* \"#utility.yul\":8432:8464   */\n      mstore\n        /* \"#utility.yul\":8247:8471   */\n      pop\n      jump\t// out\n        /* \"#utility.yul\":8477:8843   */\n    tag_136:\n        /* \"#utility.yul\":8619:8622   */\n      0x00\n        /* \"#utility.yul\":8640:8707   */\n      tag_247\n        /* \"#utility.yul\":8704:8706   */\n      0x25\n        /* \"#utility.yul\":8699:8702   */\n      dup4\n        /* \"#utility.yul\":8640:8707   */\n      tag_125\n      jump\t// in\n    tag_247:\n        /* \"#utility.yul\":8633:8707   */\n      swap2\n      pop\n        /* \"#utility.yul\":8716:8809   */\n      tag_248\n        /* \"#utility.yul\":8805:8808   */\n      dup3\n        /* \"#utility.yul\":8716:8809   */\n      tag_135\n      jump\t// in\n    tag_248:\n        /* \"#utility.yul\":8834:8836   */\n      0x40\n        /* \"#utility.yul\":8829:8832   */\n      dup3\n        /* \"#utility.yul\":8825:8837   */\n      add\n        /* \"#utility.yul\":8818:8837   */\n      swap1\n      pop\n        /* \"#utility.yul\":8477:8843   */\n      swap2\n      swap1\n      pop\n      jump\t// out\n        /* \"#utility.yul\":8849:9268   */\n    tag_75:\n        /* \"#utility.yul\":9015:9019   */\n      0x00\n        /* \"#utility.yul\":9053:9055   */\n      0x20\n        /* \"#utility.yul\":9042:9051   */\n      dup3\n        /* \"#utility.yul\":9038:9056   */\n      add\n        /* \"#utility.yul\":9030:9056   */\n      swap1\n      pop\n        /* \"#utility.yul\":9102:9111   */\n      dup2\n        /* \"#utility.yul\":9096:9100   */\n      dup2\n        /* \"#utility.yul\":9092:9112   */\n      sub\n        /* \"#utility.yul\":9088:9089   */\n      0x00\n        /* \"#utility.yul\":9077:9086   */\n      dup4\n        /* \"#utility.yul\":9073:9090   */\n      add\n        /* \"#utility.yul\":9066:9113   */\n      mstore\n        /* \"#utility.yul\":9130:9261   */\n      tag_250\n        /* \"#utility.yul\":9256:9260   */\n      dup2\n        /* \"#utility.yul\":9130:9261   */\n      tag_136\n      jump\t// in\n    tag_250:\n        /* \"#utility.yul\":9122:9261   */\n      swap1\n      pop\n        /* \"#utility.yul\":8849:9268   */\n      swap2\n      swap1\n      pop\n      jump\t// out\n        /* \"#utility.yul\":9274:9456   */\n    tag_137:\n        /* \"#utility.yul\":9414:9448   */\n      0x456c206170656c6c69646f206e6f20707565646520657374617220766163696f\n        /* \"#utility.yul\":9410:9411   */\n      0x00\n        /* \"#utility.yul\":9402:9408   */\n      dup3\n        /* \"#utility.yul\":9398:9412   */\n      add\n        /* \"#utility.yul\":9391:9449   */\n      mstore\n        /* \"#utility.yul\":9274:9456   */\n      pop\n      jump\t// out\n        /* \"#utility.yul\":9462:9828   */\n    tag_138:\n        /* \"#utility.yul\":9604:9607   */\n      0x00\n        /* \"#utility.yul\":9625:9692   */\n      tag_253\n        /* \"#utility.yul\":9689:9691   */\n      0x20\n        /* \"#utility.yul\":9684:9687   */\n      dup4\n        /* \"#utility.yul\":9625:9692   */\n      tag_125\n      jump\t// in\n    tag_253:\n        /* \"#utility.yul\":9618:9692   */\n      swap2\n      pop\n        /* \"#utility.yul\":9701:9794   */\n      tag_254\n        /* \"#utility.yul\":9790:9793   */\n      dup3\n        /* \"#utility.yul\":9701:9794   */\n      tag_137\n      jump\t// in\n    tag_254:\n        /* \"#utility.yul\":9819:9821   */\n      0x20\n        /* \"#utility.yul\":9814:9817   */\n      dup3\n        /* \"#utility.yul\":9810:9822   */\n      add\n        /* \"#utility.yul\":9803:9822   */\n      swap1\n      pop\n        /* \"#utility.yul\":9462:9828   */\n      swap2\n      swap1\n      pop\n      jump\t// out\n        /* \"#utility.yul\":9834:10253   */\n    tag_78:\n        /* \"#utility.yul\":10000:10004   */\n      0x00\n        /* \"#utility.yul\":10038:10040   */\n      0x20\n        /* \"#utility.yul\":10027:10036   */\n      dup3\n        /* \"#utility.yul\":10023:10041   */\n      add\n        /* \"#utility.yul\":10015:10041   */\n      swap1\n      pop\n        /* \"#utility.yul\":10087:10096   */\n      dup2\n        /* \"#utility.yul\":10081:10085   */\n      dup2\n        /* \"#utility.yul\":10077:10097   */\n      sub\n        /* \"#utility.yul\":10073:10074   */\n      0x00\n        /* \"#utility.yul\":10062:10071   */\n      dup4\n        /* \"#utility.yul\":10058:10075   */\n      add\n        /* \"#utility.yul\":10051:10098   */\n      mstore\n        /* \"#utility.yul\":10115:10246   */\n      tag_256\n        /* \"#utility.yul\":10241:10245   */\n      dup2\n        /* \"#utility.yul\":10115:10246   */\n      tag_138\n      jump\t// in\n    tag_256:\n        /* \"#utility.yul\":10107:10246   */\n      swap1\n      pop\n        /* \"#utility.yul\":9834:10253   */\n      swap2\n      swap1\n      pop\n      jump\t// out\n        /* \"#utility.yul\":10259:10430   */\n    tag_139:\n        /* \"#utility.yul\":10399:10422   */\n      0x5573756172696f207961207265676973747261646f0000000000000000000000\n        /* \"#utility.yul\":10395:10396   */\n      0x00\n        /* \"#utility.yul\":10387:10393   */\n      dup3\n        /* \"#utility.yul\":10383:10397   */\n      add\n        /* \"#utility.yul\":10376:10423   */\n      mstore\n        /* \"#utility.yul\":10259:10430   */\n      pop\n      jump\t// out\n        /* \"#utility.yul\":10436:10802   */\n    tag_140:\n        /* \"#utility.yul\":10578:10581   */\n      0x00\n        /* \"#utility.yul\":10599:10666   */\n      tag_259\n        /* \"#utility.yul\":10663:10665   */\n      0x15\n        /* \"#utility.yul\":10658:10661   */\n      dup4\n        /* \"#utility.yul\":10599:10666   */\n      tag_125\n      jump\t// in\n    tag_259:\n        /* \"#utility.yul\":10592:10666   */\n      swap2\n      pop\n        /* \"#utility.yul\":10675:10768   */\n      tag_260\n        /* \"#utility.yul\":10764:10767   */\n      dup3\n        /* \"#utility.yul\":10675:10768   */\n      tag_139\n      jump\t// in\n    tag_260:\n        /* \"#utility.yul\":10793:10795   */\n      0x20\n        /* \"#utility.yul\":10788:10791   */\n      dup3\n        /* \"#utility.yul\":10784:10796   */\n      add\n        /* \"#utility.yul\":10777:10796   */\n      swap1\n      pop\n        /* \"#utility.yul\":10436:10802   */\n      swap2\n      swap1\n      pop\n      jump\t// out\n        /* \"#utility.yul\":10808:11227   */\n    tag_81:\n        /* \"#utility.yul\":10974:10978   */\n      0x00\n        /* \"#utility.yul\":11012:11014   */\n      0x20\n        /* \"#utility.yul\":11001:11010   */\n      dup3\n        /* \"#utility.yul\":10997:11015   */\n      add\n        /* \"#utility.yul\":10989:11015   */\n      swap1\n      pop\n        /* \"#utility.yul\":11061:11070   */\n      dup2\n        /* \"#utility.yul\":11055:11059   */\n      dup2\n        /* \"#utility.yul\":11051:11071   */\n      sub\n        /* \"#utility.yul\":11047:11048   */\n      0x00\n        /* \"#utility.yul\":11036:11045   */\n      dup4\n        /* \"#utility.yul\":11032:11049   */\n      add\n        /* \"#utility.yul\":11025:11072   */\n      mstore\n        /* \"#utility.yul\":11089:11220   */\n      tag_262\n        /* \"#utility.yul\":11215:11219   */\n      dup2\n        /* \"#utility.yul\":11089:11220   */\n      tag_140\n      jump\t// in\n    tag_262:\n        /* \"#utility.yul\":11081:11220   */\n      swap1\n      pop\n        /* \"#utility.yul\":10808:11227   */\n      swap2\n      swap1\n      pop\n      jump\t// out\n        /* \"#utility.yul\":11233:11413   */\n    tag_141:\n        /* \"#utility.yul\":11281:11358   */\n      0x4e487b7100000000000000000000000000000000000000000000000000000000\n        /* \"#utility.yul\":11278:11279   */\n      0x00\n        /* \"#utility.yul\":11271:11359   */\n      mstore\n        /* \"#utility.yul\":11378:11382   */\n      0x41\n        /* \"#utility.yul\":11375:11376   */\n      0x04\n        /* \"#utility.yul\":11368:11383   */\n      mstore\n        /* \"#utility.yul\":11402:11406   */\n      0x24\n        /* \"#utility.yul\":11399:11400   */\n      0x00\n        /* \"#utility.yul\":11392:11407   */\n      revert\n        /* \"#utility.yul\":11419:11599   */\n    tag_142:\n        /* \"#utility.yul\":11467:11544   */\n      0x4e487b7100000000000000000000000000000000000000000000000000000000\n        /* \"#utility.yul\":11464:11465   */\n      0x00\n        /* \"#utility.yul\":11457:11545   */\n      mstore\n        /* \"#utility.yul\":11564:11568   */\n      0x22\n        /* \"#utility.yul\":11561:11562   */\n      0x04\n        /* \"#utility.yul\":11554:11569   */\n      mstore\n        /* \"#utility.yul\":11588:11592   */\n      0x24\n        /* \"#utility.yul\":11585:11586   */\n      0x00\n        /* \"#utility.yul\":11578:11593   */\n      revert\n        /* \"#utility.yul\":11605:11925   */\n    tag_88:\n        /* \"#utility.yul\":11649:11655   */\n      0x00\n        /* \"#utility.yul\":11686:11687   */\n      0x02\n        /* \"#utility.yul\":11680:11684   */\n      dup3\n        /* \"#utility.yul\":11676:11688   */\n      div\n        /* \"#utility.yul\":11666:11688   */\n      swap1\n      pop\n        /* \"#utility.yul\":11733:11734   */\n      0x01\n        /* \"#utility.yul\":11727:11731   */\n      dup3\n        /* \"#utility.yul\":11723:11735   */\n      and\n        /* \"#utility.yul\":11754:11772   */\n      dup1\n        /* \"#utility.yul\":11744:11825   */\n      tag_266\n      jumpi\n        /* \"#utility.yul\":11810:11814   */\n      0x7f\n        /* \"#utility.yul\":11802:11808   */\n      dup3\n        /* \"#utility.yul\":11798:11815   */\n      and\n        /* \"#utility.yul\":11788:11815   */\n      swap2\n      pop\n        /* \"#utility.yul\":11744:11825   */\n    tag_266:\n        /* \"#utility.yul\":11872:11874   */\n      0x20\n        /* \"#utility.yul\":11864:11870   */\n      dup3\n        /* \"#utility.yul\":11861:11875   */\n      lt\n        /* \"#utility.yul\":11841:11859   */\n      dup2\n        /* \"#utility.yul\":11838:11876   */\n      sub\n        /* \"#utility.yul\":11835:11919   */\n      tag_267\n      jumpi\n        /* \"#utility.yul\":11891:11909   */\n      tag_268\n      tag_142\n      jump\t// in\n    tag_268:\n        /* \"#utility.yul\":11835:11919   */\n    tag_267:\n        /* \"#utility.yul\":11656:11925   */\n      pop\n        /* \"#utility.yul\":11605:11925   */\n      swap2\n      swap1\n      pop\n      jump\t// out\n        /* \"#utility.yul\":11931:12072   */\n    tag_143:\n        /* \"#utility.yul\":11980:11984   */\n      0x00\n        /* \"#utility.yul\":12003:12006   */\n      dup2\n        /* \"#utility.yul\":11995:12006   */\n      swap1\n      pop\n        /* \"#utility.yul\":12026:12029   */\n      dup2\n        /* \"#utility.yul\":12023:12024   */\n      0x00\n        /* \"#utility.yul\":12016:12030   */\n      mstore\n        /* \"#utility.yul\":12060:12064   */\n      0x20\n        /* \"#utility.yul\":12057:12058   */\n      0x00\n        /* \"#utility.yul\":12047:12065   */\n      keccak256\n        /* \"#utility.yul\":12039:12065   */\n      swap1\n      pop\n        /* \"#utility.yul\":11931:12072   */\n      swap2\n      swap1\n      pop\n      jump\t// out\n        /* \"#utility.yul\":12078:12171   */\n    tag_144:\n        /* \"#utility.yul\":12115:12121   */\n      0x00\n        /* \"#utility.yul\":12162:12164   */\n      0x20\n        /* \"#utility.yul\":12157:12159   */\n      0x1f\n        /* \"#utility.yul\":12150:12155   */\n      dup4\n        /* \"#utility.yul\":12146:12160   */\n      add\n        /* \"#utility.yul\":12142:12165   */\n      div\n        /* \"#utility.yul\":12132:12165   */\n      swap1\n      pop\n        /* \"#utility.yul\":12078:12171   */\n      swap2\n      swap1\n      pop\n      jump\t// out\n        /* \"#utility.yul\":12177:12284   */\n    tag_145:\n        /* \"#utility.yul\":12221:12229   */\n      0x00\n        /* \"#utility.yul\":12271:12276   */\n      dup3\n        /* \"#utility.yul\":12265:12269   */\n      dup3\n        /* \"#utility.yul\":12261:12277   */\n      shl\n        /* \"#utility.yul\":12240:12277   */\n      swap1\n      pop\n        /* \"#utility.yul\":12177:12284   */\n      swap3\n      swap2\n      pop\n      pop\n      jump\t// out\n        /* \"#utility.yul\":12290:12683   */\n    tag_146:\n        /* \"#utility.yul\":12359:12365   */\n      0x00\n        /* \"#utility.yul\":12409:12410   */\n      0x08\n        /* \"#utility.yul\":12397:12407   */\n      dup4\n        /* \"#utility.yul\":12393:12411   */\n      mul\n        /* \"#utility.yul\":12432:12529   */\n      tag_273\n        /* \"#utility.yul\":12462:12528   */\n      0xffffffffffffffffffffffffffffffffffffffffffffffffffffffffffffffff\n        /* \"#utility.yul\":12451:12460   */\n      dup3\n        /* \"#utility.yul\":12432:12529   */\n      tag_145\n      jump\t// in\n    tag_273:\n        /* \"#utility.yul\":12550:12589   */\n      tag_274\n        /* \"#utility.yul\":12580:12588   */\n      dup7\n        /* \"#utility.yul\":12569:12578   */\n      dup4\n        /* \"#utility.yul\":12550:12589   */\n      tag_145\n      jump\t// in\n    tag_274:\n        /* \"#utility.yul\":12538:12589   */\n      swap6\n      pop\n        /* \"#utility.yul\":12622:12626   */\n      dup1\n        /* \"#utility.yul\":12618:12627   */\n      not\n        /* \"#utility.yul\":12611:12616   */\n      dup5\n        /* \"#utility.yul\":12607:12628   */\n      and\n        /* \"#utility.yul\":12598:12628   */\n      swap4\n      pop\n        /* \"#utility.yul\":12671:12675   */\n      dup1\n        /* \"#utility.yul\":12661:12669   */\n      dup7\n        /* \"#utility.yul\":12657:12676   */\n      and\n        /* \"#utility.yul\":12650:12655   */\n      dup5\n        /* \"#utility.yul\":12647:12677   */\n      or\n        /* \"#utility.yul\":12637:12677   */\n      swap3\n      pop\n        /* \"#utility.yul\":12366:12683   */\n      pop\n      pop\n        /* \"#utility.yul\":12290:12683   */\n      swap4\n      swap3\n      pop\n      pop\n      pop\n      jump\t// out\n        /* \"#utility.yul\":12689:12749   */\n    tag_147:\n        /* \"#utility.yul\":12717:12720   */\n      0x00\n        /* \"#utility.yul\":12738:12743   */\n      dup2\n        /* \"#utility.yul\":12731:12743   */\n      swap1\n      pop\n        /* \"#utility.yul\":12689:12749   */\n      swap2\n      swap1\n      pop\n      jump\t// out\n        /* \"#utility.yul\":12755:12897   */\n    tag_148:\n        /* \"#utility.yul\":12805:12814   */\n      0x00\n        /* \"#utility.yul\":12838:12891   */\n      tag_277\n        /* \"#utility.yul\":12856:12890   */\n      tag_278\n        /* \"#utility.yul\":12865:12889   */\n      tag_279\n        /* \"#utility.yul\":12883:12888   */\n      dup5\n        /* \"#utility.yul\":12865:12889   */\n      tag_108\n      jump\t// in\n    tag_279:\n        /* \"#utility.yul\":12856:12890   */\n      tag_147\n      jump\t// in\n    tag_278:\n        /* \"#utility.yul\":12838:12891   */\n      tag_108\n      jump\t// in\n    tag_277:\n        /* \"#utility.yul\":12825:12891   */\n      swap1\n      pop\n        /* \"#utility.yul\":12755:12897   */\n      swap2\n      swap1\n      pop\n      jump\t// out\n        /* \"#utility.yul\":12903:12978   */\n    tag_149:\n        /* \"#utility.yul\":12946:12949   */\n      0x00\n        /* \"#utility.yul\":12967:12972   */\n      dup2\n        /* \"#utility.yul\":12960:12972   */\n      swap1\n      pop\n        /* \"#utility.yul\":12903:12978   */\n      swap2\n      swap1\n      pop\n      jump\t// out\n        /* \"#utility.yul\":12984:13253   */\n    tag_150:\n        /* \"#utility.yul\":13094:13133   */\n      tag_282\n        /* \"#utility.yul\":13125:13132   */\n      dup4\n        /* \"#utility.yul\":13094:13133   */\n      tag_148\n      jump\t// in\n    tag_282:\n        /* \"#utility.yul\":13155:13246   */\n      tag_283\n        /* \"#utility.yul\":13204:13245   */\n      tag_284\n        /* \"#utility.yul\":13228:13244   */\n      dup3\n        /* \"#utility.yul\":13204:13245   */\n      tag_149\n      jump\t// in\n    tag_284:\n        /* \"#utility.yul\":13196:13202   */\n      dup5\n        /* \"#utility.yul\":13189:13193   */\n      dup5\n        /* \"#utility.yul\":13183:13194   */\n      sload\n        /* \"#utility.yul\":13155:13246   */\n      tag_146\n      jump\t// in\n    tag_283:\n        /* \"#utility.yul\":13149:13153   */\n      dup3\n        /* \"#utility.yul\":13142:13247   */\n      sstore\n        /* \"#utility.yul\":13060:13253   */\n      pop\n        /* \"#utility.yul\":12984:13253   */\n      pop\n      pop\n      pop\n      jump\t// out\n        /* \"#utility.yul\":13259:13332   */\n    tag_151:\n        /* \"#utility.yul\":13304:13307   */\n      0x00\n        /* \"#utility.yul\":13259:13332   */\n      swap1\n      jump\t// out\n        /* \"#utility.yul\":13338:13527   */\n    tag_152:\n        /* \"#utility.yul\":13415:13447   */\n      tag_287\n      tag_151\n      jump\t// in\n    tag_287:\n        /* \"#utility.yul\":13456:13521   */\n      tag_288\n        /* \"#utility.yul\":13514:13520   */\n      dup2\n        /* \"#utility.yul\":13506:13512   */\n      dup5\n        /* \"#utility.yul\":13500:13504   */\n      dup5\n        /* \"#utility.yul\":13456:13521   */\n      tag_150\n      jump\t// in\n    tag_288:\n        /* \"#utility.yul\":13391:13527   */\n      pop\n        /* \"#utility.yul\":13338:13527   */\n      pop\n      pop\n      jump\t// out\n        /* \"#utility.yul\":13533:13719   */\n    tag_153:\n        /* \"#utility.yul\":13593:13713   */\n    tag_290:\n        /* \"#utility.yul\":13610:13613   */\n      dup2\n        /* \"#utility.yul\":13603:13608   */\n      dup2\n        /* \"#utility.yul\":13600:13614   */\n      lt\n        /* \"#utility.yul\":13593:13713   */\n      iszero\n      tag_292\n      jumpi\n        /* \"#utility.yul\":13664:13703   */\n      tag_293\n        /* \"#utility.yul\":13701:13702   */\n      0x00\n        /* \"#utility.yul\":13694:13699   */\n      dup3\n        /* \"#utility.yul\":13664:13703   */\n      tag_152\n      jump\t// in\n    tag_293:\n        /* \"#utility.yul\":13637:13638   */\n      0x01\n        /* \"#utility.yul\":13630:13635   */\n      dup2\n        /* \"#utility.yul\":13626:13639   */\n      add\n        /* \"#utility.yul\":13617:13639   */\n      swap1\n      pop\n        /* \"#utility.yul\":13593:13713   */\n      jump(tag_290)\n    tag_292:\n        /* \"#utility.yul\":13533:13719   */\n      pop\n      pop\n      jump\t// out\n        /* \"#utility.yul\":13725:14268   */\n    tag_154:\n        /* \"#utility.yul\":13826:13828   */\n      0x1f\n        /* \"#utility.yul\":13821:13824   */\n      dup3\n        /* \"#utility.yul\":13818:13829   */\n      gt\n        /* \"#utility.yul\":13815:14261   */\n      iszero\n      tag_295\n      jumpi\n        /* \"#utility.yul\":13860:13898   */\n      tag_296\n        /* \"#utility.yul\":13892:13897   */\n      dup2\n        /* \"#utility.yul\":13860:13898   */\n      tag_143\n      jump\t// in\n    tag_296:\n        /* \"#utility.yul\":13944:13973   */\n      tag_297\n        /* \"#utility.yul\":13962:13972   */\n      dup5\n        /* \"#utility.yul\":13944:13973   */\n      tag_144\n      jump\t// in\n    tag_297:\n        /* \"#utility.yul\":13934:13942   */\n      dup2\n        /* \"#utility.yul\":13930:13974   */\n      add\n        /* \"#utility.yul\":14127:14129   */\n      0x20\n        /* \"#utility.yul\":14115:14125   */\n      dup6\n        /* \"#utility.yul\":14112:14130   */\n      lt\n        /* \"#utility.yul\":14109:14158   */\n      iszero\n      tag_298\n      jumpi\n        /* \"#utility.yul\":14148:14156   */\n      dup2\n        /* \"#utility.yul\":14133:14156   */\n      swap1\n      pop\n        /* \"#utility.yul\":14109:14158   */\n    tag_298:\n        /* \"#utility.yul\":14171:14251   */\n      tag_299\n        /* \"#utility.yul\":14227:14249   */\n      tag_300\n        /* \"#utility.yul\":14245:14248   */\n      dup6\n        /* \"#utility.yul\":14227:14249   */\n      tag_144\n      jump\t// in\n    tag_300:\n        /* \"#utility.yul\":14217:14225   */\n      dup4\n        /* \"#utility.yul\":14213:14250   */\n      add\n        /* \"#utility.yul\":14200:14211   */\n      dup3\n        /* \"#utility.yul\":14171:14251   */\n      tag_153\n      jump\t// in\n    tag_299:\n        /* \"#utility.yul\":13830:14261   */\n      pop\n      pop\n        /* \"#utility.yul\":13815:14261   */\n    tag_295:\n        /* \"#utility.yul\":13725:14268   */\n      pop\n      pop\n      pop\n      jump\t// out\n        /* \"#utility.yul\":14274:14391   */\n    tag_155:\n        /* \"#utility.yul\":14328:14336   */\n      0x00\n        /* \"#utility.yul\":14378:14383   */\n      dup3\n        /* \"#utility.yul\":14372:14376   */\n      dup3\n        /* \"#utility.yul\":14368:14384   */\n      shr\n        /* \"#utility.yul\":14347:14384   */\n      swap1\n      pop\n        /* \"#utility.yul\":14274:14391   */\n      swap3\n      swap2\n      pop\n      pop\n      jump\t// out\n        /* \"#utility.yul\":14397:14566   */\n    tag_156:\n        /* \"#utility.yul\":14441:14447   */\n      0x00\n        /* \"#utility.yul\":14474:14525   */\n      tag_303\n        /* \"#utility.yul\":14522:14523   */\n      0x00\n        /* \"#utility.yul\":14518:14524   */\n      not\n        /* \"#utility.yul\":14510:14515   */\n      dup5\n        /* \"#utility.yul\":14507:14508   */\n      0x08\n        /* \"#utility.yul\":14503:14516   */\n      mul\n        /* \"#utility.yul\":14474:14525   */\n      tag_155\n      jump\t// in\n    tag_303:\n        /* \"#utility.yul\":14470:14526   */\n      not\n        /* \"#utility.yul\":14555:14559   */\n      dup1\n        /* \"#utility.yul\":14549:14553   */\n      dup4\n        /* \"#utility.yul\":14545:14560   */\n      and\n        /* \"#utility.yul\":14535:14560   */\n      swap2\n      pop\n        /* \"#utility.yul\":14448:14566   */\n      pop\n        /* \"#utility.yul\":14397:14566   */\n      swap3\n      swap2\n      pop\n      pop\n      jump\t// out\n        /* \"#utility.yul\":14571:14866   */\n    tag_157:\n        /* \"#utility.yul\":14647:14651   */\n      0x00\n        /* \"#utility.yul\":14793:14822   */\n      tag_305\n        /* \"#utility.yul\":14818:14821   */\n      dup4\n        /* \"#utility.yul\":14812:14816   */\n      dup4\n        /* \"#utility.yul\":14793:14822   */\n      tag_156\n      jump\t// in\n    tag_305:\n        /* \"#utility.yul\":14785:14822   */\n      swap2\n      pop\n        /* \"#utility.yul\":14855:14858   */\n      dup3\n        /* \"#utility.yul\":14852:14853   */\n      0x02\n        /* \"#utility.yul\":14848:14859   */\n      mul\n        /* \"#utility.yul\":14842:14846   */\n      dup3\n        /* \"#utility.yul\":14839:14860   */\n      or\n        /* \"#utility.yul\":14831:14860   */\n      swap1\n      pop\n        /* \"#utility.yul\":14571:14866   */\n      swap3\n      swap2\n      pop\n      pop\n      jump\t// out\n        /* \"#utility.yul\":14871:16266   */\n    tag_83:\n        /* \"#utility.yul\":14988:15025   */\n      tag_307\n        /* \"#utility.yul\":15021:15024   */\n      dup3\n        /* \"#utility.yul\":14988:15025   */\n      tag_124\n      jump\t// in\n    tag_307:\n        /* \"#utility.yul\":15090:15108   */\n      0xffffffffffffffff\n        /* \"#utility.yul\":15082:15088   */\n      dup2\n        /* \"#utility.yul\":15079:15109   */\n      gt\n        /* \"#utility.yul\":15076:15132   */\n      iszero\n      tag_308\n      jumpi\n        /* \"#utility.yul\":15112:15130   */\n      tag_309\n      tag_141\n      jump\t// in\n    tag_309:\n        /* \"#utility.yul\":15076:15132   */\n    tag_308:\n        /* \"#utility.yul\":15156:15194   */\n      tag_310\n        /* \"#utility.yul\":15188:15192   */\n      dup3\n        /* \"#utility.yul\":15182:15193   */\n      sload\n        /* \"#utility.yul\":15156:15194   */\n      tag_88\n      jump\t// in\n    tag_310:\n        /* \"#utility.yul\":15241:15308   */\n      tag_311\n        /* \"#utility.yul\":15301:15307   */\n      dup3\n        /* \"#utility.yul\":15293:15299   */\n      dup3\n        /* \"#utility.yul\":15287:15291   */\n      dup6\n        /* \"#utility.yul\":15241:15308   */\n      tag_154\n      jump\t// in\n    tag_311:\n        /* \"#utility.yul\":15335:15336   */\n      0x00\n        /* \"#utility.yul\":15359:15363   */\n      0x20\n        /* \"#utility.yul\":15346:15363   */\n      swap1\n      pop\n        /* \"#utility.yul\":15391:15393   */\n      0x1f\n        /* \"#utility.yul\":15383:15389   */\n      dup4\n        /* \"#utility.yul\":15380:15394   */\n      gt\n        /* \"#utility.yul\":15408:15409   */\n      0x01\n        /* \"#utility.yul\":15403:16021   */\n      dup2\n      eq\n      tag_313\n      jumpi\n        /* \"#utility.yul\":16065:16066   */\n      0x00\n        /* \"#utility.yul\":16082:16088   */\n      dup5\n        /* \"#utility.yul\":16079:16156   */\n      iszero\n      tag_314\n      jumpi\n        /* \"#utility.yul\":16131:16140   */\n      dup3\n        /* \"#utility.yul\":16126:16129   */\n      dup8\n        /* \"#utility.yul\":16122:16141   */\n      add\n        /* \"#utility.yul\":16116:16142   */\n      mload\n        /* \"#utility.yul\":16107:16142   */\n      swap1\n      pop\n        /* \"#utility.yul\":16079:16156   */\n    tag_314:\n        /* \"#utility.yul\":16182:16249   */\n      tag_315\n        /* \"#utility.yul\":16242:16248   */\n      dup6\n        /* \"#utility.yul\":16235:16240   */\n      dup3\n        /* \"#utility.yul\":16182:16249   */\n      tag_157\n      jump\t// in\n    tag_315:\n        /* \"#utility.yul\":16176:16180   */\n      dup7\n        /* \"#utility.yul\":16169:16250   */\n      sstore\n        /* \"#utility.yul\":16038:16260   */\n      pop\n        /* \"#utility.yul\":15373:16260   */\n      jump(tag_312)\n        /* \"#utility.yul\":15403:16021   */\n    tag_313:\n        /* \"#utility.yul\":15455:15459   */\n      0x1f\n        /* \"#utility.yul\":15451:15460   */\n      not\n        /* \"#utility.yul\":15443:15449   */\n      dup5\n        /* \"#utility.yul\":15439:15461   */\n      and\n        /* \"#utility.yul\":15489:15526   */\n      tag_316\n        /* \"#utility.yul\":15521:15525   */\n      dup7\n        /* \"#utility.yul\":15489:15526   */\n      tag_143\n      jump\t// in\n    tag_316:\n        /* \"#utility.yul\":15548:15549   */\n      0x00\n        /* \"#utility.yul\":15562:15770   */\n    tag_317:\n        /* \"#utility.yul\":15576:15583   */\n      dup3\n        /* \"#utility.yul\":15573:15574   */\n      dup2\n        /* \"#utility.yul\":15570:15584   */\n      lt\n        /* \"#utility.yul\":15562:15770   */\n      iszero\n      tag_319\n      jumpi\n        /* \"#utility.yul\":15655:15664   */\n      dup5\n        /* \"#utility.yul\":15650:15653   */\n      dup10\n        /* \"#utility.yul\":15646:15665   */\n      add\n        /* \"#utility.yul\":15640:15666   */\n      mload\n        /* \"#utility.yul\":15632:15638   */\n      dup3\n        /* \"#utility.yul\":15625:15667   */\n      sstore\n        /* \"#utility.yul\":15706:15707   */\n      0x01\n        /* \"#utility.yul\":15698:15704   */\n      dup3\n        /* \"#utility.yul\":15694:15708   */\n      add\n        /* \"#utility.yul\":15684:15708   */\n      swap2\n      pop\n        /* \"#utility.yul\":15753:15755   */\n      0x20\n        /* \"#utility.yul\":15742:15751   */\n      dup6\n        /* \"#utility.yul\":15738:15756   */\n      add\n        /* \"#utility.yul\":15725:15756   */\n      swap5\n      pop\n        /* \"#utility.yul\":15599:15603   */\n      0x20\n        /* \"#utility.yul\":15596:15597   */\n      dup2\n        /* \"#utility.yul\":15592:15604   */\n      add\n        /* \"#utility.yul\":15587:15604   */\n      swap1\n      pop\n        /* \"#utility.yul\":15562:15770   */\n      jump(tag_317)\n    tag_319:\n        /* \"#utility.yul\":15798:15804   */\n      dup7\n        /* \"#utility.yul\":15789:15796   */\n      dup4\n        /* \"#utility.yul\":15786:15805   */\n      lt\n        /* \"#utility.yul\":15783:15962   */\n      iszero\n      tag_320\n      jumpi\n        /* \"#utility.yul\":15856:15865   */\n      dup5\n        /* \"#utility.yul\":15851:15854   */\n      dup10\n        /* \"#utility.yul\":15847:15866   */\n      add\n        /* \"#utility.yul\":15841:15867   */\n      mload\n        /* \"#utility.yul\":15899:15947   */\n      tag_321\n        /* \"#utility.yul\":15941:15945   */\n      0x1f\n        /* \"#utility.yul\":15933:15939   */\n      dup10\n        /* \"#utility.yul\":15929:15946   */\n      and\n        /* \"#utility.yul\":15918:15927   */\n      dup3\n        /* \"#utility.yul\":15899:15947   */\n      tag_156\n      jump\t// in\n    tag_321:\n        /* \"#utility.yul\":15891:15897   */\n      dup4\n        /* \"#utility.yul\":15884:15948   */\n      sstore\n        /* \"#utility.yul\":15806:15962   */\n      pop\n        /* \"#utility.yul\":15783:15962   */\n    tag_320:\n        /* \"#utility.yul\":16008:16009   */\n      0x01\n        /* \"#utility.yul\":16004:16005   */\n      0x02\n        /* \"#utility.yul\":15996:16002   */\n      dup9\n        /* \"#utility.yul\":15992:16006   */\n      mul\n        /* \"#utility.yul\":15988:16010   */\n      add\n        /* \"#utility.yul\":15982:15986   */\n      dup9\n        /* \"#utility.yul\":15975:16011   */\n      sstore\n        /* \"#utility.yul\":15410:16021   */\n      pop\n      pop\n      pop\n        /* \"#utility.yul\":15373:16260   */\n    tag_312:\n      pop\n        /* \"#utility.yul\":14963:16266   */\n      pop\n      pop\n      pop\n        /* \"#utility.yul\":14871:16266   */\n      pop\n      pop\n      jump\t// out\n        /* \"#utility.yul\":16272:16420   */\n    tag_158:\n        /* \"#utility.yul\":16370:16376   */\n      dup3\n        /* \"#utility.yul\":16365:16368   */\n      dup2\n        /* \"#utility.yul\":16360:16363   */\n      dup4\n        /* \"#utility.yul\":16347:16377   */\n      calldatacopy\n        /* \"#utility.yul\":16411:16412   */\n      0x00\n        /* \"#utility.yul\":16402:16408   */\n      dup4\n        /* \"#utility.yul\":16397:16400   */\n      dup4\n        /* \"#utility.yul\":16393:16409   */\n      add\n        /* \"#utility.yul\":16386:16413   */\n      mstore\n        /* \"#utility.yul\":16272:16420   */\n      pop\n      pop\n      pop\n      jump\t// out\n        /* \"#utility.yul\":16450:16767   */\n    tag_159:\n        /* \"#utility.yul\":16548:16551   */\n      0x00\n        /* \"#utility.yul\":16569:16640   */\n      tag_324\n        /* \"#utility.yul\":16633:16639   */\n      dup4\n        /* \"#utility.yul\":16628:16631   */\n      dup6\n        /* \"#utility.yul\":16569:16640   */\n      tag_125\n      jump\t// in\n    tag_324:\n        /* \"#utility.yul\":16562:16640   */\n      swap4\n      pop\n        /* \"#utility.yul\":16650:16706   */\n      tag_325\n        /* \"#utility.yul\":16699:16705   */\n      dup4\n        /* \"#utility.yul\":16694:16697   */\n      dup6\n        /* \"#utility.yul\":16687:16692   */\n      dup5\n        /* \"#utility.yul\":16650:16706   */\n      tag_158\n      jump\t// in\n    tag_325:\n        /* \"#utility.yul\":16731:16760   */\n      tag_326\n        /* \"#utility.yul\":16753:16759   */\n      dup4\n        /* \"#utility.yul\":16731:16760   */\n      tag_127\n      jump\t// in\n    tag_326:\n        /* \"#utility.yul\":16726:16729   */\n      dup5\n        /* \"#utility.yul\":16722:16761   */\n      add\n        /* \"#utility.yul\":16715:16761   */\n      swap1\n      pop\n        /* \"#utility.yul\":16450:16767   */\n      swap4\n      swap3\n      pop\n      pop\n      pop\n      jump\t// out\n        /* \"#utility.yul\":16773:17327   */\n    tag_86:\n        /* \"#utility.yul\":16954:16958   */\n      0x00\n        /* \"#utility.yul\":16992:16994   */\n      0x40\n        /* \"#utility.yul\":16981:16990   */\n      dup3\n        /* \"#utility.yul\":16977:16995   */\n      add\n        /* \"#utility.yul\":16969:16995   */\n      swap1\n      pop\n        /* \"#utility.yul\":17041:17050   */\n      dup2\n        /* \"#utility.yul\":17035:17039   */\n      dup2\n        /* \"#utility.yul\":17031:17051   */\n      sub\n        /* \"#utility.yul\":17027:17028   */\n      0x00\n        /* \"#utility.yul\":17016:17025   */\n      dup4\n        /* \"#utility.yul\":17012:17029   */\n      add\n        /* \"#utility.yul\":17005:17052   */\n      mstore\n        /* \"#utility.yul\":17069:17157   */\n      tag_328\n        /* \"#utility.yul\":17152:17156   */\n      dup2\n        /* \"#utility.yul\":17143:17149   */\n      dup7\n        /* \"#utility.yul\":17135:17141   */\n      dup9\n        /* \"#utility.yul\":17069:17157   */\n      tag_159\n      jump\t// in\n    tag_328:\n        /* \"#utility.yul\":17061:17157   */\n      swap1\n      pop\n        /* \"#utility.yul\":17204:17213   */\n      dup2\n        /* \"#utility.yul\":17198:17202   */\n      dup2\n        /* \"#utility.yul\":17194:17214   */\n      sub\n        /* \"#utility.yul\":17189:17191   */\n      0x20\n        /* \"#utility.yul\":17178:17187   */\n      dup4\n        /* \"#utility.yul\":17174:17192   */\n      add\n        /* \"#utility.yul\":17167:17215   */\n      mstore\n        /* \"#utility.yul\":17232:17320   */\n      tag_329\n        /* \"#utility.yul\":17315:17319   */\n      dup2\n        /* \"#utility.yul\":17306:17312   */\n      dup5\n        /* \"#utility.yul\":17298:17304   */\n      dup7\n        /* \"#utility.yul\":17232:17320   */\n      tag_159\n      jump\t// in\n    tag_329:\n        /* \"#utility.yul\":17224:17320   */\n      swap1\n      pop\n        /* \"#utility.yul\":16773:17327   */\n      swap6\n      swap5\n      pop\n      pop\n      pop\n      pop\n      pop\n      jump\t// out\n        /* \"#utility.yul\":17333:17555   */\n    tag_160:\n        /* \"#utility.yul\":17473:17507   */\n      0x4e6f20736520686120696e6772657361646f206e696e67756e612063616e7469\n        /* \"#utility.yul\":17469:17470   */\n      0x00\n        /* \"#utility.yul\":17461:17467   */\n      dup3\n        /* \"#utility.yul\":17457:17471   */\n      add\n        /* \"#utility.yul\":17450:17508   */\n      mstore\n        /* \"#utility.yul\":17542:17547   */\n      0x6461640000000000000000000000000000000000000000000000000000000000\n        /* \"#utility.yul\":17537:17539   */\n      0x20\n        /* \"#utility.yul\":17529:17535   */\n      dup3\n        /* \"#utility.yul\":17525:17540   */\n      add\n        /* \"#utility.yul\":17518:17548   */\n      mstore\n        /* \"#utility.yul\":17333:17555   */\n      pop\n      jump\t// out\n        /* \"#utility.yul\":17561:17927   */\n    tag_161:\n        /* \"#utility.yul\":17703:17706   */\n      0x00\n        /* \"#utility.yul\":17724:17791   */\n      tag_332\n        /* \"#utility.yul\":17788:17790   */\n      0x23\n        /* \"#utility.yul\":17783:17786   */\n      dup4\n        /* \"#utility.yul\":17724:17791   */\n      tag_125\n      jump\t// in\n    tag_332:\n        /* \"#utility.yul\":17717:17791   */\n      swap2\n      pop\n        /* \"#utility.yul\":17800:17893   */\n      tag_333\n        /* \"#utility.yul\":17889:17892   */\n      dup3\n        /* \"#utility.yul\":17800:17893   */\n      tag_160\n      jump\t// in\n    tag_333:\n        /* \"#utility.yul\":17918:17920   */\n      0x40\n        /* \"#utility.yul\":17913:17916   */\n      dup3\n        /* \"#utility.yul\":17909:17921   */\n      add\n        /* \"#utility.yul\":17902:17921   */\n      swap1\n      pop\n        /* \"#utility.yul\":17561:17927   */\n      swap2\n      swap1\n      pop\n      jump\t// out\n        /* \"#utility.yul\":17933:18352   */\n    tag_104:\n        /* \"#utility.yul\":18099:18103   */\n      0x00\n        /* \"#utility.yul\":18137:18139   */\n      0x20\n        /* \"#utility.yul\":18126:18135   */\n      dup3\n        /* \"#utility.yul\":18122:18140   */\n      add\n        /* \"#utility.yul\":18114:18140   */\n      swap1\n      pop\n        /* \"#utility.yul\":18186:18195   */\n      dup2\n        /* \"#utility.yul\":18180:18184   */\n      dup2\n        /* \"#utility.yul\":18176:18196   */\n      sub\n        /* \"#utility.yul\":18172:18173   */\n      0x00\n        /* \"#utility.yul\":18161:18170   */\n      dup4\n        /* \"#utility.yul\":18157:18174   */\n      add\n        /* \"#utility.yul\":18150:18197   */\n      mstore\n        /* \"#utility.yul\":18214:18345   */\n      tag_335\n        /* \"#utility.yul\":18340:18344   */\n      dup2\n        /* \"#utility.yul\":18214:18345   */\n      tag_161\n      jump\t// in\n    tag_335:\n        /* \"#utility.yul\":18206:18345   */\n      swap1\n      pop\n        /* \"#utility.yul\":17933:18352   */\n      swap2\n      swap1\n      pop\n      jump\t// out\n        /* \"#utility.yul\":18358:18538   */\n    tag_162:\n        /* \"#utility.yul\":18406:18483   */\n      0x4e487b7100000000000000000000000000000000000000000000000000000000\n        /* \"#utility.yul\":18403:18404   */\n      0x00\n        /* \"#utility.yul\":18396:18484   */\n      mstore\n        /* \"#utility.yul\":18503:18507   */\n      0x11\n        /* \"#utility.yul\":18500:18501   */\n      0x04\n        /* \"#utility.yul\":18493:18508   */\n      mstore\n        /* \"#utility.yul\":18527:18531   */\n      0x24\n        /* \"#utility.yul\":18524:18525   */\n      0x00\n        /* \"#utility.yul\":18517:18532   */\n      revert\n        /* \"#utility.yul\":18544:18735   */\n    tag_106:\n        /* \"#utility.yul\":18584:18587   */\n      0x00\n        /* \"#utility.yul\":18603:18623   */\n      tag_338\n        /* \"#utility.yul\":18621:18622   */\n      dup3\n        /* \"#utility.yul\":18603:18623   */\n      tag_108\n      jump\t// in\n    tag_338:\n        /* \"#utility.yul\":18598:18623   */\n      swap2\n      pop\n        /* \"#utility.yul\":18637:18657   */\n      tag_339\n        /* \"#utility.yul\":18655:18656   */\n      dup4\n        /* \"#utility.yul\":18637:18657   */\n      tag_108\n      jump\t// in\n    tag_339:\n        /* \"#utility.yul\":18632:18657   */\n      swap3\n      pop\n        /* \"#utility.yul\":18680:18681   */\n      dup3\n        /* \"#utility.yul\":18677:18678   */\n      dup3\n        /* \"#utility.yul\":18673:18682   */\n      add\n        /* \"#utility.yul\":18666:18682   */\n      swap1\n      pop\n        /* \"#utility.yul\":18701:18704   */\n      dup1\n        /* \"#utility.yul\":18698:18699   */\n      dup3\n        /* \"#utility.yul\":18695:18705   */\n      gt\n        /* \"#utility.yul\":18692:18728   */\n      iszero\n      tag_340\n      jumpi\n        /* \"#utility.yul\":18708:18726   */\n      tag_341\n      tag_162\n      jump\t// in\n    tag_341:\n        /* \"#utility.yul\":18692:18728   */\n    tag_340:\n        /* \"#utility.yul\":18544:18735   */\n      swap3\n      swap2\n      pop\n      pop\n      jump\t// out\n\n    auxdata: 0xa2646970667358221220cb532ec040467e4b9083ed420f816f685b89cbb561be804d4146cfcbc4a2cce664736f6c634300081a0033\n}\n",
				"bytecode": {
					"linkReferences": {},
					"object": "608060405234801561000f575f80fd5b506040516116e93803806116e98339818101604052810190610031919061020a565b5f73ffffffffffffffffffffffffffffffffffffffff168173ffffffffffffffffffffffffffffffffffffffff160361009f576040517f08c379a0000000000000000000000000000000000000000000000000000000008152600401610096906102a2565b60405180910390fd5b6127108211156100e4576040517f08c379a00000000000000000000000000000000000000000000000000000000081526004016100db90610330565b60405180910390fd5b3360015f6101000a81548173ffffffffffffffffffffffffffffffffffffffff021916908373ffffffffffffffffffffffffffffffffffffffff160217905550816003819055508060025f6101000a81548173ffffffffffffffffffffffffffffffffffffffff021916908373ffffffffffffffffffffffffffffffffffffffff1602179055505f600481905550505061034e565b5f80fd5b5f819050919050565b61018f8161017d565b8114610199575f80fd5b50565b5f815190506101aa81610186565b92915050565b5f73ffffffffffffffffffffffffffffffffffffffff82169050919050565b5f6101d9826101b0565b9050919050565b6101e9816101cf565b81146101f3575f80fd5b50565b5f81519050610204816101e0565b92915050565b5f80604083850312156102205761021f610179565b5b5f61022d8582860161019c565b925050602061023e858286016101f6565b9150509250929050565b5f82825260208201905092915050565b7f5465736f7265726961206e6f2076616c696461000000000000000000000000005f82015250565b5f61028c601383610248565b915061029782610258565b602082019050919050565b5f6020820190508181035f8301526102b981610280565b9050919050565b7f466565206465626520736572206d656e6f73206f20696775616c2061203130305f8201527f30302070756e746f730000000000000000000000000000000000000000000000602082015250565b5f61031a602983610248565b9150610325826102c0565b604082019050919050565b5f6020820190508181035f8301526103478161030e565b9050919050565b61138e8061035b5f395ff3fe608060405260043610610090575f3560e01c80638da5cb5b116100585780638da5cb5b14610160578063a87430ba1461018a578063d0e30db0146101c9578063ddca3f43146101d3578063e933dc54146101fd57610090565b806312065fe014610094578063229dfe4a146100be578063247d39a8146100e85780632e1a7d4d146101105780633ffbd47f14610138575b5f80fd5b34801561009f575f80fd5b506100a8610227565b6040516100b591906109d0565b60405180910390f35b3480156100c9575f80fd5b506100d26102f8565b6040516100df91906109d0565b60405180910390f35b3480156100f3575f80fd5b5061010e60048036038101906101099190610a1b565b6102fe565b005b34801561011b575f80fd5b5061013660048036038101906101319190610a1b565b610390565b005b348015610143575f80fd5b5061015e60048036038101906101599190610aa7565b61041e565b005b34801561016b575f80fd5b506101746106b3565b6040516101819190610b64565b60405180910390f35b348015610195575f80fd5b506101b060048036038101906101ab9190610ba7565b6106d8565b6040516101c09493929190610c5c565b60405180910390f35b6101d161081b565b005b3480156101de575f80fd5b506101e761098d565b6040516101f491906109d0565b60405180910390f35b348015610208575f80fd5b50610211610993565b60405161021e9190610b64565b60405180910390f35b5f805f3373ffffffffffffffffffffffffffffffffffffffff1673ffffffffffffffffffffffffffffffffffffffff1681526020019081526020015f206003015f9054906101000a900460ff166102b3576040517f08c379a00000000000000000000000000000000000000000000000000000000081526004016102aa90610cf7565b60405180910390fd5b5f803373ffffffffffffffffffffffffffffffffffffffff1673ffffffffffffffffffffffffffffffffffffffff1681526020019081526020015f2060020154905090565b60045481565b60015f9054906101000a900473ffffffffffffffffffffffffffffffffffffffff1673ffffffffffffffffffffffffffffffffffffffff163373ffffffffffffffffffffffffffffffffffffffff161461038d576040517f08c379a000000000000000000000000000000000000000000000000000000000815260040161038490610d85565b60405180910390fd5b50565b5f803373ffffffffffffffffffffffffffffffffffffffff1673ffffffffffffffffffffffffffffffffffffffff1681526020019081526020015f206003015f9054906101000a900460ff1661041b576040517f08c379a000000000000000000000000000000000000000000000000000000000815260040161041290610cf7565b60405180910390fd5b50565b5f8484905011610463576040517f08c379a000000000000000000000000000000000000000000000000000000000815260040161045a90610e13565b60405180910390fd5b5f82829050116104a8576040517f08c379a000000000000000000000000000000000000000000000000000000000815260040161049f90610e7b565b60405180910390fd5b5f803373ffffffffffffffffffffffffffffffffffffffff1673ffffffffffffffffffffffffffffffffffffffff1681526020019081526020015f206003015f9054906101000a900460ff1615610534576040517f08c379a000000000000000000000000000000000000000000000000000000000815260040161052b90610ee3565b60405180910390fd5b604051806080016040528085858080601f0160208091040260200160405190810160405280939291908181526020018383808284375f81840152601f19601f82011690508083019250505050505050815260200183838080601f0160208091040260200160405190810160405280939291908181526020018383808284375f81840152601f19601f8201169050808301925050505050505081526020015f8152602001600115158152505f803373ffffffffffffffffffffffffffffffffffffffff1673ffffffffffffffffffffffffffffffffffffffff1681526020019081526020015f205f820151815f01908161062d9190611128565b5060208201518160010190816106439190611128565b50604082015181600201556060820151816003015f6101000a81548160ff0219169083151502179055509050507f996d7324173609959370942b1ee1b743dc623b3d50459e66c1d55df55e5a9f37848484846040516106a59493929190611231565b60405180910390a150505050565b60015f9054906101000a900473ffffffffffffffffffffffffffffffffffffffff1681565b5f602052805f5260405f205f91509050805f0180546106f690610f5b565b80601f016020809104026020016040519081016040528092919081815260200182805461072290610f5b565b801561076d5780601f106107445761010080835404028352916020019161076d565b820191905f5260205f20905b81548152906001019060200180831161075057829003601f168201915b50505050509080600101805461078290610f5b565b80601f01602080910402602001604051908101604052809291908181526020018280546107ae90610f5b565b80156107f95780601f106107d0576101008083540402835291602001916107f9565b820191905f5260205f20905b8154815290600101906020018083116107dc57829003601f168201915b505050505090806002015490806003015f9054906101000a900460ff16905084565b5f803373ffffffffffffffffffffffffffffffffffffffff1673ffffffffffffffffffffffffffffffffffffffff1681526020019081526020015f206003015f9054906101000a900460ff166108a6576040517f08c379a000000000000000000000000000000000000000000000000000000000815260040161089d90610cf7565b60405180910390fd5b5f34116108e8576040517f08c379a00000000000000000000000000000000000000000000000000000000081526004016108df906112da565b60405180910390fd5b345f803373ffffffffffffffffffffffffffffffffffffffff1673ffffffffffffffffffffffffffffffffffffffff1681526020019081526020015f206002015f8282546109369190611325565b925050819055503373ffffffffffffffffffffffffffffffffffffffff167fe1fffcc4923d04b559f4d29a8bfc6cda04eb5b0d3c460751c2402c5c5cc9109c3460405161098391906109d0565b60405180910390a2565b60035481565b60025f9054906101000a900473ffffffffffffffffffffffffffffffffffffffff1681565b5f819050919050565b6109ca816109b8565b82525050565b5f6020820190506109e35f8301846109c1565b92915050565b5f80fd5b5f80fd5b6109fa816109b8565b8114610a04575f80fd5b50565b5f81359050610a15816109f1565b92915050565b5f60208284031215610a3057610a2f6109e9565b5b5f610a3d84828501610a07565b91505092915050565b5f80fd5b5f80fd5b5f80fd5b5f8083601f840112610a6757610a66610a46565b5b8235905067ffffffffffffffff811115610a8457610a83610a4a565b5b602083019150836001820283011115610aa057610a9f610a4e565b5b9250929050565b5f805f8060408587031215610abf57610abe6109e9565b5b5f85013567ffffffffffffffff811115610adc57610adb6109ed565b5b610ae887828801610a52565b9450945050602085013567ffffffffffffffff811115610b0b57610b0a6109ed565b5b610b1787828801610a52565b925092505092959194509250565b5f73ffffffffffffffffffffffffffffffffffffffff82169050919050565b5f610b4e82610b25565b9050919050565b610b5e81610b44565b82525050565b5f602082019050610b775f830184610b55565b92915050565b610b8681610b44565b8114610b90575f80fd5b50565b5f81359050610ba181610b7d565b92915050565b5f60208284031215610bbc57610bbb6109e9565b5b5f610bc984828501610b93565b91505092915050565b5f81519050919050565b5f82825260208201905092915050565b8281835e5f83830152505050565b5f601f19601f8301169050919050565b5f610c1482610bd2565b610c1e8185610bdc565b9350610c2e818560208601610bec565b610c3781610bfa565b840191505092915050565b5f8115159050919050565b610c5681610c42565b82525050565b5f6080820190508181035f830152610c748187610c0a565b90508181036020830152610c888186610c0a565b9050610c9760408301856109c1565b610ca46060830184610c4d565b95945050505050565b7f55736572206973206e6f742072656769737465726564000000000000000000005f82015250565b5f610ce1601683610bdc565b9150610cec82610cad565b602082019050919050565b5f6020820190508181035f830152610d0e81610cd5565b9050919050565b7f4f6e6c79206f776e65722063616e2063616c6c20746869732066756e6374696f5f8201527f6e00000000000000000000000000000000000000000000000000000000000000602082015250565b5f610d6f602183610bdc565b9150610d7a82610d15565b604082019050919050565b5f6020820190508181035f830152610d9c81610d63565b9050919050565b7f456c207072696d6572206e6f6d627265206e6f207075656465206573746172205f8201527f766163696f000000000000000000000000000000000000000000000000000000602082015250565b5f610dfd602583610bdc565b9150610e0882610da3565b604082019050919050565b5f6020820190508181035f830152610e2a81610df1565b9050919050565b7f456c206170656c6c69646f206e6f20707565646520657374617220766163696f5f82015250565b5f610e65602083610bdc565b9150610e7082610e31565b602082019050919050565b5f6020820190508181035f830152610e9281610e59565b9050919050565b7f5573756172696f207961207265676973747261646f00000000000000000000005f82015250565b5f610ecd601583610bdc565b9150610ed882610e99565b602082019050919050565b5f6020820190508181035f830152610efa81610ec1565b9050919050565b7f4e487b71000000000000000000000000000000000000000000000000000000005f52604160045260245ffd5b7f4e487b71000000000000000000000000000000000000000000000000000000005f52602260045260245ffd5b5f6002820490506001821680610f7257607f821691505b602082108103610f8557610f84610f2e565b5b50919050565b5f819050815f5260205f209050919050565b5f6020601f8301049050919050565b5f82821b905092915050565b5f60088302610fe77fffffffffffffffffffffffffffffffffffffffffffffffffffffffffffffffff82610fac565b610ff18683610fac565b95508019841693508086168417925050509392505050565b5f819050919050565b5f61102c611027611022846109b8565b611009565b6109b8565b9050919050565b5f819050919050565b61104583611012565b61105961105182611033565b848454610fb8565b825550505050565b5f90565b61106d611061565b61107881848461103c565b505050565b5b8181101561109b576110905f82611065565b60018101905061107e565b5050565b601f8211156110e0576110b181610f8b565b6110ba84610f9d565b810160208510156110c9578190505b6110dd6110d585610f9d565b83018261107d565b50505b505050565b5f82821c905092915050565b5f6111005f19846008026110e5565b1980831691505092915050565b5f61111883836110f1565b9150826002028217905092915050565b61113182610bd2565b67ffffffffffffffff81111561114a57611149610f01565b5b6111548254610f5b565b61115f82828561109f565b5f60209050601f831160018114611190575f841561117e578287015190505b611188858261110d565b8655506111ef565b601f19841661119e86610f8b565b5f5b828110156111c5578489015182556001820191506020850194506020810190506111a0565b868310156111e257848901516111de601f8916826110f1565b8355505b6001600288020188555050505b505050505050565b828183375f83830152505050565b5f6112108385610bdc565b935061121d8385846111f7565b61122683610bfa565b840190509392505050565b5f6040820190508181035f83015261124a818688611205565b9050818103602083015261125f818486611205565b905095945050505050565b7f4e6f20736520686120696e6772657361646f206e696e67756e612063616e74695f8201527f6461640000000000000000000000000000000000000000000000000000000000602082015250565b5f6112c4602383610bdc565b91506112cf8261126a565b604082019050919050565b5f6020820190508181035f8301526112f1816112b8565b9050919050565b7f4e487b71000000000000000000000000000000000000000000000000000000005f52601160045260245ffd5b5f61132f826109b8565b915061133a836109b8565b9250828201905080821115611352576113516112f8565b5b9291505056fea2646970667358221220cb532ec040467e4b9083ed420f816f685b89cbb561be804d4146cfcbc4a2cce664736f6c634300081a0033",
					"opcodes": "PUSH1 0x80 PUSH1 0x40 MSTORE CALLVALUE DUP1 ISZERO PUSH2 0xF JUMPI PUSH0 DUP1 REVERT JUMPDEST POP PUSH1 0x40 MLOAD PUSH2 0x16E9 CODESIZE SUB DUP1 PUSH2 0x16E9 DUP4 CODECOPY DUP2 DUP2 ADD PUSH1 0x40 MSTORE DUP2 ADD SWAP1 PUSH2 0x31 SWAP2 SWAP1 PUSH2 0x20A JUMP JUMPDEST PUSH0 PUSH20 0xFFFFFFFFFFFFFFFFFFFFFFFFFFFFFFFFFFFFFFFF AND DUP2 PUSH20 0xFFFFFFFFFFFFFFFFFFFFFFFFFFFFFFFFFFFFFFFF AND SUB PUSH2 0x9F JUMPI PUSH1 0x40 MLOAD PUSH32 0x8C379A000000000000000000000000000000000000000000000000000000000 DUP2 MSTORE PUSH1 0x4 ADD PUSH2 0x96 SWAP1 PUSH2 0x2A2 JUMP JUMPDEST PUSH1 0x40 MLOAD DUP1 SWAP2 SUB SWAP1 REVERT JUMPDEST PUSH2 0x2710 DUP3 GT ISZERO PUSH2 0xE4 JUMPI PUSH1 0x40 MLOAD PUSH32 0x8C379A000000000000000000000000000000000000000000000000000000000 DUP2 MSTORE PUSH1 0x4 ADD PUSH2 0xDB SWAP1 PUSH2 0x330 JUMP JUMPDEST PUSH1 0x40 MLOAD DUP1 SWAP2 SUB SWAP1 REVERT JUMPDEST CALLER PUSH1 0x1 PUSH0 PUSH2 0x100 EXP DUP2 SLOAD DUP2 PUSH20 0xFFFFFFFFFFFFFFFFFFFFFFFFFFFFFFFFFFFFFFFF MUL NOT AND SWAP1 DUP4 PUSH20 0xFFFFFFFFFFFFFFFFFFFFFFFFFFFFFFFFFFFFFFFF AND MUL OR SWAP1 SSTORE POP DUP2 PUSH1 0x3 DUP2 SWAP1 SSTORE POP DUP1 PUSH1 0x2 PUSH0 PUSH2 0x100 EXP DUP2 SLOAD DUP2 PUSH20 0xFFFFFFFFFFFFFFFFFFFFFFFFFFFFFFFFFFFFFFFF MUL NOT AND SWAP1 DUP4 PUSH20 0xFFFFFFFFFFFFFFFFFFFFFFFFFFFFFFFFFFFFFFFF AND MUL OR SWAP1 SSTORE POP PUSH0 PUSH1 0x4 DUP2 SWAP1 SSTORE POP POP POP PUSH2 0x34E JUMP JUMPDEST PUSH0 DUP1 REVERT JUMPDEST PUSH0 DUP2 SWAP1 POP SWAP2 SWAP1 POP JUMP JUMPDEST PUSH2 0x18F DUP2 PUSH2 0x17D JUMP JUMPDEST DUP2 EQ PUSH2 0x199 JUMPI PUSH0 DUP1 REVERT JUMPDEST POP JUMP JUMPDEST PUSH0 DUP2 MLOAD SWAP1 POP PUSH2 0x1AA DUP2 PUSH2 0x186 JUMP JUMPDEST SWAP3 SWAP2 POP POP JUMP JUMPDEST PUSH0 PUSH20 0xFFFFFFFFFFFFFFFFFFFFFFFFFFFFFFFFFFFFFFFF DUP3 AND SWAP1 POP SWAP2 SWAP1 POP JUMP JUMPDEST PUSH0 PUSH2 0x1D9 DUP3 PUSH2 0x1B0 JUMP JUMPDEST SWAP1 POP SWAP2 SWAP1 POP JUMP JUMPDEST PUSH2 0x1E9 DUP2 PUSH2 0x1CF JUMP JUMPDEST DUP2 EQ PUSH2 0x1F3 JUMPI PUSH0 DUP1 REVERT JUMPDEST POP JUMP JUMPDEST PUSH0 DUP2 MLOAD SWAP1 POP PUSH2 0x204 DUP2 PUSH2 0x1E0 JUMP JUMPDEST SWAP3 SWAP2 POP POP JUMP JUMPDEST PUSH0 DUP1 PUSH1 0x40 DUP4 DUP6 SUB SLT ISZERO PUSH2 0x220 JUMPI PUSH2 0x21F PUSH2 0x179 JUMP JUMPDEST JUMPDEST PUSH0 PUSH2 0x22D DUP6 DUP3 DUP7 ADD PUSH2 0x19C JUMP JUMPDEST SWAP3 POP POP PUSH1 0x20 PUSH2 0x23E DUP6 DUP3 DUP7 ADD PUSH2 0x1F6 JUMP JUMPDEST SWAP2 POP POP SWAP3 POP SWAP3 SWAP1 POP JUMP JUMPDEST PUSH0 DUP3 DUP3 MSTORE PUSH1 0x20 DUP3 ADD SWAP1 POP SWAP3 SWAP2 POP POP JUMP JUMPDEST PUSH32 0x5465736F7265726961206E6F2076616C69646100000000000000000000000000 PUSH0 DUP3 ADD MSTORE POP JUMP JUMPDEST PUSH0 PUSH2 0x28C PUSH1 0x13 DUP4 PUSH2 0x248 JUMP JUMPDEST SWAP2 POP PUSH2 0x297 DUP3 PUSH2 0x258 JUMP JUMPDEST PUSH1 0x20 DUP3 ADD SWAP1 POP SWAP2 SWAP1 POP JUMP JUMPDEST PUSH0 PUSH1 0x20 DUP3 ADD SWAP1 POP DUP2 DUP2 SUB PUSH0 DUP4 ADD MSTORE PUSH2 0x2B9 DUP2 PUSH2 0x280 JUMP JUMPDEST SWAP1 POP SWAP2 SWAP1 POP JUMP JUMPDEST PUSH32 0x466565206465626520736572206D656E6F73206F20696775616C206120313030 PUSH0 DUP3 ADD MSTORE PUSH32 0x30302070756E746F730000000000000000000000000000000000000000000000 PUSH1 0x20 DUP3 ADD MSTORE POP JUMP JUMPDEST PUSH0 PUSH2 0x31A PUSH1 0x29 DUP4 PUSH2 0x248 JUMP JUMPDEST SWAP2 POP PUSH2 0x325 DUP3 PUSH2 0x2C0 JUMP JUMPDEST PUSH1 0x40 DUP3 ADD SWAP1 POP SWAP2 SWAP1 POP JUMP JUMPDEST PUSH0 PUSH1 0x20 DUP3 ADD SWAP1 POP DUP2 DUP2 SUB PUSH0 DUP4 ADD MSTORE PUSH2 0x347 DUP2 PUSH2 0x30E JUMP JUMPDEST SWAP1 POP SWAP2 SWAP1 POP JUMP JUMPDEST PUSH2 0x138E DUP1 PUSH2 0x35B PUSH0 CODECOPY PUSH0 RETURN INVALID PUSH1 0x80 PUSH1 0x40 MSTORE PUSH1 0x4 CALLDATASIZE LT PUSH2 0x90 JUMPI PUSH0 CALLDATALOAD PUSH1 0xE0 SHR DUP1 PUSH4 0x8DA5CB5B GT PUSH2 0x58 JUMPI DUP1 PUSH4 0x8DA5CB5B EQ PUSH2 0x160 JUMPI DUP1 PUSH4 0xA87430BA EQ PUSH2 0x18A JUMPI DUP1 PUSH4 0xD0E30DB0 EQ PUSH2 0x1C9 JUMPI DUP1 PUSH4 0xDDCA3F43 EQ PUSH2 0x1D3 JUMPI DUP1 PUSH4 0xE933DC54 EQ PUSH2 0x1FD JUMPI PUSH2 0x90 JUMP JUMPDEST DUP1 PUSH4 0x12065FE0 EQ PUSH2 0x94 JUMPI DUP1 PUSH4 0x229DFE4A EQ PUSH2 0xBE JUMPI DUP1 PUSH4 0x247D39A8 EQ PUSH2 0xE8 JUMPI DUP1 PUSH4 0x2E1A7D4D EQ PUSH2 0x110 JUMPI DUP1 PUSH4 0x3FFBD47F EQ PUSH2 0x138 JUMPI JUMPDEST PUSH0 DUP1 REVERT JUMPDEST CALLVALUE DUP1 ISZERO PUSH2 0x9F JUMPI PUSH0 DUP1 REVERT JUMPDEST POP PUSH2 0xA8 PUSH2 0x227 JUMP JUMPDEST PUSH1 0x40 MLOAD PUSH2 0xB5 SWAP2 SWAP1 PUSH2 0x9D0 JUMP JUMPDEST PUSH1 0x40 MLOAD DUP1 SWAP2 SUB SWAP1 RETURN JUMPDEST CALLVALUE DUP1 ISZERO PUSH2 0xC9 JUMPI PUSH0 DUP1 REVERT JUMPDEST POP PUSH2 0xD2 PUSH2 0x2F8 JUMP JUMPDEST PUSH1 0x40 MLOAD PUSH2 0xDF SWAP2 SWAP1 PUSH2 0x9D0 JUMP JUMPDEST PUSH1 0x40 MLOAD DUP1 SWAP2 SUB SWAP1 RETURN JUMPDEST CALLVALUE DUP1 ISZERO PUSH2 0xF3 JUMPI PUSH0 DUP1 REVERT JUMPDEST POP PUSH2 0x10E PUSH1 0x4 DUP1 CALLDATASIZE SUB DUP2 ADD SWAP1 PUSH2 0x109 SWAP2 SWAP1 PUSH2 0xA1B JUMP JUMPDEST PUSH2 0x2FE JUMP JUMPDEST STOP JUMPDEST CALLVALUE DUP1 ISZERO PUSH2 0x11B JUMPI PUSH0 DUP1 REVERT JUMPDEST POP PUSH2 0x136 PUSH1 0x4 DUP1 CALLDATASIZE SUB DUP2 ADD SWAP1 PUSH2 0x131 SWAP2 SWAP1 PUSH2 0xA1B JUMP JUMPDEST PUSH2 0x390 JUMP JUMPDEST STOP JUMPDEST CALLVALUE DUP1 ISZERO PUSH2 0x143 JUMPI PUSH0 DUP1 REVERT JUMPDEST POP PUSH2 0x15E PUSH1 0x4 DUP1 CALLDATASIZE SUB DUP2 ADD SWAP1 PUSH2 0x159 SWAP2 SWAP1 PUSH2 0xAA7 JUMP JUMPDEST PUSH2 0x41E JUMP JUMPDEST STOP JUMPDEST CALLVALUE DUP1 ISZERO PUSH2 0x16B JUMPI PUSH0 DUP1 REVERT JUMPDEST POP PUSH2 0x174 PUSH2 0x6B3 JUMP JUMPDEST PUSH1 0x40 MLOAD PUSH2 0x181 SWAP2 SWAP1 PUSH2 0xB64 JUMP JUMPDEST PUSH1 0x40 MLOAD DUP1 SWAP2 SUB SWAP1 RETURN JUMPDEST CALLVALUE DUP1 ISZERO PUSH2 0x195 JUMPI PUSH0 DUP1 REVERT JUMPDEST POP PUSH2 0x1B0 PUSH1 0x4 DUP1 CALLDATASIZE SUB DUP2 ADD SWAP1 PUSH2 0x1AB SWAP2 SWAP1 PUSH2 0xBA7 JUMP JUMPDEST PUSH2 0x6D8 JUMP JUMPDEST PUSH1 0x40 MLOAD PUSH2 0x1C0 SWAP5 SWAP4 SWAP3 SWAP2 SWAP1 PUSH2 0xC5C JUMP JUMPDEST PUSH1 0x40 MLOAD DUP1 SWAP2 SUB SWAP1 RETURN JUMPDEST PUSH2 0x1D1 PUSH2 0x81B JUMP JUMPDEST STOP JUMPDEST CALLVALUE DUP1 ISZERO PUSH2 0x1DE JUMPI PUSH0 DUP1 REVERT JUMPDEST POP PUSH2 0x1E7 PUSH2 0x98D JUMP JUMPDEST PUSH1 0x40 MLOAD PUSH2 0x1F4 SWAP2 SWAP1 PUSH2 0x9D0 JUMP JUMPDEST PUSH1 0x40 MLOAD DUP1 SWAP2 SUB SWAP1 RETURN JUMPDEST CALLVALUE DUP1 ISZERO PUSH2 0x208 JUMPI PUSH0 DUP1 REVERT JUMPDEST POP PUSH2 0x211 PUSH2 0x993 JUMP JUMPDEST PUSH1 0x40 MLOAD PUSH2 0x21E SWAP2 SWAP1 PUSH2 0xB64 JUMP JUMPDEST PUSH1 0x40 MLOAD DUP1 SWAP2 SUB SWAP1 RETURN JUMPDEST PUSH0 DUP1 PUSH0 CALLER PUSH20 0xFFFFFFFFFFFFFFFFFFFFFFFFFFFFFFFFFFFFFFFF AND PUSH20 0xFFFFFFFFFFFFFFFFFFFFFFFFFFFFFFFFFFFFFFFF AND DUP2 MSTORE PUSH1 0x20 ADD SWAP1 DUP2 MSTORE PUSH1 0x20 ADD PUSH0 KECCAK256 PUSH1 0x3 ADD PUSH0 SWAP1 SLOAD SWAP1 PUSH2 0x100 EXP SWAP1 DIV PUSH1 0xFF AND PUSH2 0x2B3 JUMPI PUSH1 0x40 MLOAD PUSH32 0x8C379A000000000000000000000000000000000000000000000000000000000 DUP2 MSTORE PUSH1 0x4 ADD PUSH2 0x2AA SWAP1 PUSH2 0xCF7 JUMP JUMPDEST PUSH1 0x40 MLOAD DUP1 SWAP2 SUB SWAP1 REVERT JUMPDEST PUSH0 DUP1 CALLER PUSH20 0xFFFFFFFFFFFFFFFFFFFFFFFFFFFFFFFFFFFFFFFF AND PUSH20 0xFFFFFFFFFFFFFFFFFFFFFFFFFFFFFFFFFFFFFFFF AND DUP2 MSTORE PUSH1 0x20 ADD SWAP1 DUP2 MSTORE PUSH1 0x20 ADD PUSH0 KECCAK256 PUSH1 0x2 ADD SLOAD SWAP1 POP SWAP1 JUMP JUMPDEST PUSH1 0x4 SLOAD DUP2 JUMP JUMPDEST PUSH1 0x1 PUSH0 SWAP1 SLOAD SWAP1 PUSH2 0x100 EXP SWAP1 DIV PUSH20 0xFFFFFFFFFFFFFFFFFFFFFFFFFFFFFFFFFFFFFFFF AND PUSH20 0xFFFFFFFFFFFFFFFFFFFFFFFFFFFFFFFFFFFFFFFF AND CALLER PUSH20 0xFFFFFFFFFFFFFFFFFFFFFFFFFFFFFFFFFFFFFFFF AND EQ PUSH2 0x38D JUMPI PUSH1 0x40 MLOAD PUSH32 0x8C379A000000000000000000000000000000000000000000000000000000000 DUP2 MSTORE PUSH1 0x4 ADD PUSH2 0x384 SWAP1 PUSH2 0xD85 JUMP JUMPDEST PUSH1 0x40 MLOAD DUP1 SWAP2 SUB SWAP1 REVERT JUMPDEST POP JUMP JUMPDEST PUSH0 DUP1 CALLER PUSH20 0xFFFFFFFFFFFFFFFFFFFFFFFFFFFFFFFFFFFFFFFF AND PUSH20 0xFFFFFFFFFFFFFFFFFFFFFFFFFFFFFFFFFFFFFFFF AND DUP2 MSTORE PUSH1 0x20 ADD SWAP1 DUP2 MSTORE PUSH1 0x20 ADD PUSH0 KECCAK256 PUSH1 0x3 ADD PUSH0 SWAP1 SLOAD SWAP1 PUSH2 0x100 EXP SWAP1 DIV PUSH1 0xFF AND PUSH2 0x41B JUMPI PUSH1 0x40 MLOAD PUSH32 0x8C379A000000000000000000000000000000000000000000000000000000000 DUP2 MSTORE PUSH1 0x4 ADD PUSH2 0x412 SWAP1 PUSH2 0xCF7 JUMP JUMPDEST PUSH1 0x40 MLOAD DUP1 SWAP2 SUB SWAP1 REVERT JUMPDEST POP JUMP JUMPDEST PUSH0 DUP5 DUP5 SWAP1 POP GT PUSH2 0x463 JUMPI PUSH1 0x40 MLOAD PUSH32 0x8C379A000000000000000000000000000000000000000000000000000000000 DUP2 MSTORE PUSH1 0x4 ADD PUSH2 0x45A SWAP1 PUSH2 0xE13 JUMP JUMPDEST PUSH1 0x40 MLOAD DUP1 SWAP2 SUB SWAP1 REVERT JUMPDEST PUSH0 DUP3 DUP3 SWAP1 POP GT PUSH2 0x4A8 JUMPI PUSH1 0x40 MLOAD PUSH32 0x8C379A000000000000000000000000000000000000000000000000000000000 DUP2 MSTORE PUSH1 0x4 ADD PUSH2 0x49F SWAP1 PUSH2 0xE7B JUMP JUMPDEST PUSH1 0x40 MLOAD DUP1 SWAP2 SUB SWAP1 REVERT JUMPDEST PUSH0 DUP1 CALLER PUSH20 0xFFFFFFFFFFFFFFFFFFFFFFFFFFFFFFFFFFFFFFFF AND PUSH20 0xFFFFFFFFFFFFFFFFFFFFFFFFFFFFFFFFFFFFFFFF AND DUP2 MSTORE PUSH1 0x20 ADD SWAP1 DUP2 MSTORE PUSH1 0x20 ADD PUSH0 KECCAK256 PUSH1 0x3 ADD PUSH0 SWAP1 SLOAD SWAP1 PUSH2 0x100 EXP SWAP1 DIV PUSH1 0xFF AND ISZERO PUSH2 0x534 JUMPI PUSH1 0x40 MLOAD PUSH32 0x8C379A000000000000000000000000000000000000000000000000000000000 DUP2 MSTORE PUSH1 0x4 ADD PUSH2 0x52B SWAP1 PUSH2 0xEE3 JUMP JUMPDEST PUSH1 0x40 MLOAD DUP1 SWAP2 SUB SWAP1 REVERT JUMPDEST PUSH1 0x40 MLOAD DUP1 PUSH1 0x80 ADD PUSH1 0x40 MSTORE DUP1 DUP6 DUP6 DUP1 DUP1 PUSH1 0x1F ADD PUSH1 0x20 DUP1 SWAP2 DIV MUL PUSH1 0x20 ADD PUSH1 0x40 MLOAD SWAP1 DUP2 ADD PUSH1 0x40 MSTORE DUP1 SWAP4 SWAP3 SWAP2 SWAP1 DUP2 DUP2 MSTORE PUSH1 0x20 ADD DUP4 DUP4 DUP1 DUP3 DUP5 CALLDATACOPY PUSH0 DUP2 DUP5 ADD MSTORE PUSH1 0x1F NOT PUSH1 0x1F DUP3 ADD AND SWAP1 POP DUP1 DUP4 ADD SWAP3 POP POP POP POP POP POP POP DUP2 MSTORE PUSH1 0x20 ADD DUP4 DUP4 DUP1 DUP1 PUSH1 0x1F ADD PUSH1 0x20 DUP1 SWAP2 DIV MUL PUSH1 0x20 ADD PUSH1 0x40 MLOAD SWAP1 DUP2 ADD PUSH1 0x40 MSTORE DUP1 SWAP4 SWAP3 SWAP2 SWAP1 DUP2 DUP2 MSTORE PUSH1 0x20 ADD DUP4 DUP4 DUP1 DUP3 DUP5 CALLDATACOPY PUSH0 DUP2 DUP5 ADD MSTORE PUSH1 0x1F NOT PUSH1 0x1F DUP3 ADD AND SWAP1 POP DUP1 DUP4 ADD SWAP3 POP POP POP POP POP POP POP DUP2 MSTORE PUSH1 0x20 ADD PUSH0 DUP2 MSTORE PUSH1 0x20 ADD PUSH1 0x1 ISZERO ISZERO DUP2 MSTORE POP PUSH0 DUP1 CALLER PUSH20 0xFFFFFFFFFFFFFFFFFFFFFFFFFFFFFFFFFFFFFFFF AND PUSH20 0xFFFFFFFFFFFFFFFFFFFFFFFFFFFFFFFFFFFFFFFF AND DUP2 MSTORE PUSH1 0x20 ADD SWAP1 DUP2 MSTORE PUSH1 0x20 ADD PUSH0 KECCAK256 PUSH0 DUP3 ADD MLOAD DUP2 PUSH0 ADD SWAP1 DUP2 PUSH2 0x62D SWAP2 SWAP1 PUSH2 0x1128 JUMP JUMPDEST POP PUSH1 0x20 DUP3 ADD MLOAD DUP2 PUSH1 0x1 ADD SWAP1 DUP2 PUSH2 0x643 SWAP2 SWAP1 PUSH2 0x1128 JUMP JUMPDEST POP PUSH1 0x40 DUP3 ADD MLOAD DUP2 PUSH1 0x2 ADD SSTORE PUSH1 0x60 DUP3 ADD MLOAD DUP2 PUSH1 0x3 ADD PUSH0 PUSH2 0x100 EXP DUP2 SLOAD DUP2 PUSH1 0xFF MUL NOT AND SWAP1 DUP4 ISZERO ISZERO MUL OR SWAP1 SSTORE POP SWAP1 POP POP PUSH32 0x996D7324173609959370942B1EE1B743DC623B3D50459E66C1D55DF55E5A9F37 DUP5 DUP5 DUP5 DUP5 PUSH1 0x40 MLOAD PUSH2 0x6A5 SWAP5 SWAP4 SWAP3 SWAP2 SWAP1 PUSH2 0x1231 JUMP JUMPDEST PUSH1 0x40 MLOAD DUP1 SWAP2 SUB SWAP1 LOG1 POP POP POP POP JUMP JUMPDEST PUSH1 0x1 PUSH0 SWAP1 SLOAD SWAP1 PUSH2 0x100 EXP SWAP1 DIV PUSH20 0xFFFFFFFFFFFFFFFFFFFFFFFFFFFFFFFFFFFFFFFF AND DUP2 JUMP JUMPDEST PUSH0 PUSH1 0x20 MSTORE DUP1 PUSH0 MSTORE PUSH1 0x40 PUSH0 KECCAK256 PUSH0 SWAP2 POP SWAP1 POP DUP1 PUSH0 ADD DUP1 SLOAD PUSH2 0x6F6 SWAP1 PUSH2 0xF5B JUMP JUMPDEST DUP1 PUSH1 0x1F ADD PUSH1 0x20 DUP1 SWAP2 DIV MUL PUSH1 0x20 ADD PUSH1 0x40 MLOAD SWAP1 DUP2 ADD PUSH1 0x40 MSTORE DUP1 SWAP3 SWAP2 SWAP1 DUP2 DUP2 MSTORE PUSH1 0x20 ADD DUP3 DUP1 SLOAD PUSH2 0x722 SWAP1 PUSH2 0xF5B JUMP JUMPDEST DUP1 ISZERO PUSH2 0x76D JUMPI DUP1 PUSH1 0x1F LT PUSH2 0x744 JUMPI PUSH2 0x100 DUP1 DUP4 SLOAD DIV MUL DUP4 MSTORE SWAP2 PUSH1 0x20 ADD SWAP2 PUSH2 0x76D JUMP JUMPDEST DUP3 ADD SWAP2 SWAP1 PUSH0 MSTORE PUSH1 0x20 PUSH0 KECCAK256 SWAP1 JUMPDEST DUP2 SLOAD DUP2 MSTORE SWAP1 PUSH1 0x1 ADD SWAP1 PUSH1 0x20 ADD DUP1 DUP4 GT PUSH2 0x750 JUMPI DUP3 SWAP1 SUB PUSH1 0x1F AND DUP3 ADD SWAP2 JUMPDEST POP POP POP POP POP SWAP1 DUP1 PUSH1 0x1 ADD DUP1 SLOAD PUSH2 0x782 SWAP1 PUSH2 0xF5B JUMP JUMPDEST DUP1 PUSH1 0x1F ADD PUSH1 0x20 DUP1 SWAP2 DIV MUL PUSH1 0x20 ADD PUSH1 0x40 MLOAD SWAP1 DUP2 ADD PUSH1 0x40 MSTORE DUP1 SWAP3 SWAP2 SWAP1 DUP2 DUP2 MSTORE PUSH1 0x20 ADD DUP3 DUP1 SLOAD PUSH2 0x7AE SWAP1 PUSH2 0xF5B JUMP JUMPDEST DUP1 ISZERO PUSH2 0x7F9 JUMPI DUP1 PUSH1 0x1F LT PUSH2 0x7D0 JUMPI PUSH2 0x100 DUP1 DUP4 SLOAD DIV MUL DUP4 MSTORE SWAP2 PUSH1 0x20 ADD SWAP2 PUSH2 0x7F9 JUMP JUMPDEST DUP3 ADD SWAP2 SWAP1 PUSH0 MSTORE PUSH1 0x20 PUSH0 KECCAK256 SWAP1 JUMPDEST DUP2 SLOAD DUP2 MSTORE SWAP1 PUSH1 0x1 ADD SWAP1 PUSH1 0x20 ADD DUP1 DUP4 GT PUSH2 0x7DC JUMPI DUP3 SWAP1 SUB PUSH1 0x1F AND DUP3 ADD SWAP2 JUMPDEST POP POP POP POP POP SWAP1 DUP1 PUSH1 0x2 ADD SLOAD SWAP1 DUP1 PUSH1 0x3 ADD PUSH0 SWAP1 SLOAD SWAP1 PUSH2 0x100 EXP SWAP1 DIV PUSH1 0xFF AND SWAP1 POP DUP5 JUMP JUMPDEST PUSH0 DUP1 CALLER PUSH20 0xFFFFFFFFFFFFFFFFFFFFFFFFFFFFFFFFFFFFFFFF AND PUSH20 0xFFFFFFFFFFFFFFFFFFFFFFFFFFFFFFFFFFFFFFFF AND DUP2 MSTORE PUSH1 0x20 ADD SWAP1 DUP2 MSTORE PUSH1 0x20 ADD PUSH0 KECCAK256 PUSH1 0x3 ADD PUSH0 SWAP1 SLOAD SWAP1 PUSH2 0x100 EXP SWAP1 DIV PUSH1 0xFF AND PUSH2 0x8A6 JUMPI PUSH1 0x40 MLOAD PUSH32 0x8C379A000000000000000000000000000000000000000000000000000000000 DUP2 MSTORE PUSH1 0x4 ADD PUSH2 0x89D SWAP1 PUSH2 0xCF7 JUMP JUMPDEST PUSH1 0x40 MLOAD DUP1 SWAP2 SUB SWAP1 REVERT JUMPDEST PUSH0 CALLVALUE GT PUSH2 0x8E8 JUMPI PUSH1 0x40 MLOAD PUSH32 0x8C379A000000000000000000000000000000000000000000000000000000000 DUP2 MSTORE PUSH1 0x4 ADD PUSH2 0x8DF SWAP1 PUSH2 0x12DA JUMP JUMPDEST PUSH1 0x40 MLOAD DUP1 SWAP2 SUB SWAP1 REVERT JUMPDEST CALLVALUE PUSH0 DUP1 CALLER PUSH20 0xFFFFFFFFFFFFFFFFFFFFFFFFFFFFFFFFFFFFFFFF AND PUSH20 0xFFFFFFFFFFFFFFFFFFFFFFFFFFFFFFFFFFFFFFFF AND DUP2 MSTORE PUSH1 0x20 ADD SWAP1 DUP2 MSTORE PUSH1 0x20 ADD PUSH0 KECCAK256 PUSH1 0x2 ADD PUSH0 DUP3 DUP3 SLOAD PUSH2 0x936 SWAP2 SWAP1 PUSH2 0x1325 JUMP JUMPDEST SWAP3 POP POP DUP2 SWAP1 SSTORE POP CALLER PUSH20 0xFFFFFFFFFFFFFFFFFFFFFFFFFFFFFFFFFFFFFFFF AND PUSH32 0xE1FFFCC4923D04B559F4D29A8BFC6CDA04EB5B0D3C460751C2402C5C5CC9109C CALLVALUE PUSH1 0x40 MLOAD PUSH2 0x983 SWAP2 SWAP1 PUSH2 0x9D0 JUMP JUMPDEST PUSH1 0x40 MLOAD DUP1 SWAP2 SUB SWAP1 LOG2 JUMP JUMPDEST PUSH1 0x3 SLOAD DUP2 JUMP JUMPDEST PUSH1 0x2 PUSH0 SWAP1 SLOAD SWAP1 PUSH2 0x100 EXP SWAP1 DIV PUSH20 0xFFFFFFFFFFFFFFFFFFFFFFFFFFFFFFFFFFFFFFFF AND DUP2 JUMP JUMPDEST PUSH0 DUP2 SWAP1 POP SWAP2 SWAP1 POP JUMP JUMPDEST PUSH2 0x9CA DUP2 PUSH2 0x9B8 JUMP JUMPDEST DUP3 MSTORE POP POP JUMP JUMPDEST PUSH0 PUSH1 0x20 DUP3 ADD SWAP1 POP PUSH2 0x9E3 PUSH0 DUP4 ADD DUP5 PUSH2 0x9C1 JUMP JUMPDEST SWAP3 SWAP2 POP POP JUMP JUMPDEST PUSH0 DUP1 REVERT JUMPDEST PUSH0 DUP1 REVERT JUMPDEST PUSH2 0x9FA DUP2 PUSH2 0x9B8 JUMP JUMPDEST DUP2 EQ PUSH2 0xA04 JUMPI PUSH0 DUP1 REVERT JUMPDEST POP JUMP JUMPDEST PUSH0 DUP2 CALLDATALOAD SWAP1 POP PUSH2 0xA15 DUP2 PUSH2 0x9F1 JUMP JUMPDEST SWAP3 SWAP2 POP POP JUMP JUMPDEST PUSH0 PUSH1 0x20 DUP3 DUP5 SUB SLT ISZERO PUSH2 0xA30 JUMPI PUSH2 0xA2F PUSH2 0x9E9 JUMP JUMPDEST JUMPDEST PUSH0 PUSH2 0xA3D DUP5 DUP3 DUP6 ADD PUSH2 0xA07 JUMP JUMPDEST SWAP2 POP POP SWAP3 SWAP2 POP POP JUMP JUMPDEST PUSH0 DUP1 REVERT JUMPDEST PUSH0 DUP1 REVERT JUMPDEST PUSH0 DUP1 REVERT JUMPDEST PUSH0 DUP1 DUP4 PUSH1 0x1F DUP5 ADD SLT PUSH2 0xA67 JUMPI PUSH2 0xA66 PUSH2 0xA46 JUMP JUMPDEST JUMPDEST DUP3 CALLDATALOAD SWAP1 POP PUSH8 0xFFFFFFFFFFFFFFFF DUP2 GT ISZERO PUSH2 0xA84 JUMPI PUSH2 0xA83 PUSH2 0xA4A JUMP JUMPDEST JUMPDEST PUSH1 0x20 DUP4 ADD SWAP2 POP DUP4 PUSH1 0x1 DUP3 MUL DUP4 ADD GT ISZERO PUSH2 0xAA0 JUMPI PUSH2 0xA9F PUSH2 0xA4E JUMP JUMPDEST JUMPDEST SWAP3 POP SWAP3 SWAP1 POP JUMP JUMPDEST PUSH0 DUP1 PUSH0 DUP1 PUSH1 0x40 DUP6 DUP8 SUB SLT ISZERO PUSH2 0xABF JUMPI PUSH2 0xABE PUSH2 0x9E9 JUMP JUMPDEST JUMPDEST PUSH0 DUP6 ADD CALLDATALOAD PUSH8 0xFFFFFFFFFFFFFFFF DUP2 GT ISZERO PUSH2 0xADC JUMPI PUSH2 0xADB PUSH2 0x9ED JUMP JUMPDEST JUMPDEST PUSH2 0xAE8 DUP8 DUP3 DUP9 ADD PUSH2 0xA52 JUMP JUMPDEST SWAP5 POP SWAP5 POP POP PUSH1 0x20 DUP6 ADD CALLDATALOAD PUSH8 0xFFFFFFFFFFFFFFFF DUP2 GT ISZERO PUSH2 0xB0B JUMPI PUSH2 0xB0A PUSH2 0x9ED JUMP JUMPDEST JUMPDEST PUSH2 0xB17 DUP8 DUP3 DUP9 ADD PUSH2 0xA52 JUMP JUMPDEST SWAP3 POP SWAP3 POP POP SWAP3 SWAP6 SWAP2 SWAP5 POP SWAP3 POP JUMP JUMPDEST PUSH0 PUSH20 0xFFFFFFFFFFFFFFFFFFFFFFFFFFFFFFFFFFFFFFFF DUP3 AND SWAP1 POP SWAP2 SWAP1 POP JUMP JUMPDEST PUSH0 PUSH2 0xB4E DUP3 PUSH2 0xB25 JUMP JUMPDEST SWAP1 POP SWAP2 SWAP1 POP JUMP JUMPDEST PUSH2 0xB5E DUP2 PUSH2 0xB44 JUMP JUMPDEST DUP3 MSTORE POP POP JUMP JUMPDEST PUSH0 PUSH1 0x20 DUP3 ADD SWAP1 POP PUSH2 0xB77 PUSH0 DUP4 ADD DUP5 PUSH2 0xB55 JUMP JUMPDEST SWAP3 SWAP2 POP POP JUMP JUMPDEST PUSH2 0xB86 DUP2 PUSH2 0xB44 JUMP JUMPDEST DUP2 EQ PUSH2 0xB90 JUMPI PUSH0 DUP1 REVERT JUMPDEST POP JUMP JUMPDEST PUSH0 DUP2 CALLDATALOAD SWAP1 POP PUSH2 0xBA1 DUP2 PUSH2 0xB7D JUMP JUMPDEST SWAP3 SWAP2 POP POP JUMP JUMPDEST PUSH0 PUSH1 0x20 DUP3 DUP5 SUB SLT ISZERO PUSH2 0xBBC JUMPI PUSH2 0xBBB PUSH2 0x9E9 JUMP JUMPDEST JUMPDEST PUSH0 PUSH2 0xBC9 DUP5 DUP3 DUP6 ADD PUSH2 0xB93 JUMP JUMPDEST SWAP2 POP POP SWAP3 SWAP2 POP POP JUMP JUMPDEST PUSH0 DUP2 MLOAD SWAP1 POP SWAP2 SWAP1 POP JUMP JUMPDEST PUSH0 DUP3 DUP3 MSTORE PUSH1 0x20 DUP3 ADD SWAP1 POP SWAP3 SWAP2 POP POP JUMP JUMPDEST DUP3 DUP2 DUP4 MCOPY PUSH0 DUP4 DUP4 ADD MSTORE POP POP POP JUMP JUMPDEST PUSH0 PUSH1 0x1F NOT PUSH1 0x1F DUP4 ADD AND SWAP1 POP SWAP2 SWAP1 POP JUMP JUMPDEST PUSH0 PUSH2 0xC14 DUP3 PUSH2 0xBD2 JUMP JUMPDEST PUSH2 0xC1E DUP2 DUP6 PUSH2 0xBDC JUMP JUMPDEST SWAP4 POP PUSH2 0xC2E DUP2 DUP6 PUSH1 0x20 DUP7 ADD PUSH2 0xBEC JUMP JUMPDEST PUSH2 0xC37 DUP2 PUSH2 0xBFA JUMP JUMPDEST DUP5 ADD SWAP2 POP POP SWAP3 SWAP2 POP POP JUMP JUMPDEST PUSH0 DUP2 ISZERO ISZERO SWAP1 POP SWAP2 SWAP1 POP JUMP JUMPDEST PUSH2 0xC56 DUP2 PUSH2 0xC42 JUMP JUMPDEST DUP3 MSTORE POP POP JUMP JUMPDEST PUSH0 PUSH1 0x80 DUP3 ADD SWAP1 POP DUP2 DUP2 SUB PUSH0 DUP4 ADD MSTORE PUSH2 0xC74 DUP2 DUP8 PUSH2 0xC0A JUMP JUMPDEST SWAP1 POP DUP2 DUP2 SUB PUSH1 0x20 DUP4 ADD MSTORE PUSH2 0xC88 DUP2 DUP7 PUSH2 0xC0A JUMP JUMPDEST SWAP1 POP PUSH2 0xC97 PUSH1 0x40 DUP4 ADD DUP6 PUSH2 0x9C1 JUMP JUMPDEST PUSH2 0xCA4 PUSH1 0x60 DUP4 ADD DUP5 PUSH2 0xC4D JUMP JUMPDEST SWAP6 SWAP5 POP POP POP POP POP JUMP JUMPDEST PUSH32 0x55736572206973206E6F74207265676973746572656400000000000000000000 PUSH0 DUP3 ADD MSTORE POP JUMP JUMPDEST PUSH0 PUSH2 0xCE1 PUSH1 0x16 DUP4 PUSH2 0xBDC JUMP JUMPDEST SWAP2 POP PUSH2 0xCEC DUP3 PUSH2 0xCAD JUMP JUMPDEST PUSH1 0x20 DUP3 ADD SWAP1 POP SWAP2 SWAP1 POP JUMP JUMPDEST PUSH0 PUSH1 0x20 DUP3 ADD SWAP1 POP DUP2 DUP2 SUB PUSH0 DUP4 ADD MSTORE PUSH2 0xD0E DUP2 PUSH2 0xCD5 JUMP JUMPDEST SWAP1 POP SWAP2 SWAP1 POP JUMP JUMPDEST PUSH32 0x4F6E6C79206F776E65722063616E2063616C6C20746869732066756E6374696F PUSH0 DUP3 ADD MSTORE PUSH32 0x6E00000000000000000000000000000000000000000000000000000000000000 PUSH1 0x20 DUP3 ADD MSTORE POP JUMP JUMPDEST PUSH0 PUSH2 0xD6F PUSH1 0x21 DUP4 PUSH2 0xBDC JUMP JUMPDEST SWAP2 POP PUSH2 0xD7A DUP3 PUSH2 0xD15 JUMP JUMPDEST PUSH1 0x40 DUP3 ADD SWAP1 POP SWAP2 SWAP1 POP JUMP JUMPDEST PUSH0 PUSH1 0x20 DUP3 ADD SWAP1 POP DUP2 DUP2 SUB PUSH0 DUP4 ADD MSTORE PUSH2 0xD9C DUP2 PUSH2 0xD63 JUMP JUMPDEST SWAP1 POP SWAP2 SWAP1 POP JUMP JUMPDEST PUSH32 0x456C207072696D6572206E6F6D627265206E6F20707565646520657374617220 PUSH0 DUP3 ADD MSTORE PUSH32 0x766163696F000000000000000000000000000000000000000000000000000000 PUSH1 0x20 DUP3 ADD MSTORE POP JUMP JUMPDEST PUSH0 PUSH2 0xDFD PUSH1 0x25 DUP4 PUSH2 0xBDC JUMP JUMPDEST SWAP2 POP PUSH2 0xE08 DUP3 PUSH2 0xDA3 JUMP JUMPDEST PUSH1 0x40 DUP3 ADD SWAP1 POP SWAP2 SWAP1 POP JUMP JUMPDEST PUSH0 PUSH1 0x20 DUP3 ADD SWAP1 POP DUP2 DUP2 SUB PUSH0 DUP4 ADD MSTORE PUSH2 0xE2A DUP2 PUSH2 0xDF1 JUMP JUMPDEST SWAP1 POP SWAP2 SWAP1 POP JUMP JUMPDEST PUSH32 0x456C206170656C6C69646F206E6F20707565646520657374617220766163696F PUSH0 DUP3 ADD MSTORE POP JUMP JUMPDEST PUSH0 PUSH2 0xE65 PUSH1 0x20 DUP4 PUSH2 0xBDC JUMP JUMPDEST SWAP2 POP PUSH2 0xE70 DUP3 PUSH2 0xE31 JUMP JUMPDEST PUSH1 0x20 DUP3 ADD SWAP1 POP SWAP2 SWAP1 POP JUMP JUMPDEST PUSH0 PUSH1 0x20 DUP3 ADD SWAP1 POP DUP2 DUP2 SUB PUSH0 DUP4 ADD MSTORE PUSH2 0xE92 DUP2 PUSH2 0xE59 JUMP JUMPDEST SWAP1 POP SWAP2 SWAP1 POP JUMP JUMPDEST PUSH32 0x5573756172696F207961207265676973747261646F0000000000000000000000 PUSH0 DUP3 ADD MSTORE POP JUMP JUMPDEST PUSH0 PUSH2 0xECD PUSH1 0x15 DUP4 PUSH2 0xBDC JUMP JUMPDEST SWAP2 POP PUSH2 0xED8 DUP3 PUSH2 0xE99 JUMP JUMPDEST PUSH1 0x20 DUP3 ADD SWAP1 POP SWAP2 SWAP1 POP JUMP JUMPDEST PUSH0 PUSH1 0x20 DUP3 ADD SWAP1 POP DUP2 DUP2 SUB PUSH0 DUP4 ADD MSTORE PUSH2 0xEFA DUP2 PUSH2 0xEC1 JUMP JUMPDEST SWAP1 POP SWAP2 SWAP1 POP JUMP JUMPDEST PUSH32 0x4E487B7100000000000000000000000000000000000000000000000000000000 PUSH0 MSTORE PUSH1 0x41 PUSH1 0x4 MSTORE PUSH1 0x24 PUSH0 REVERT JUMPDEST PUSH32 0x4E487B7100000000000000000000000000000000000000000000000000000000 PUSH0 MSTORE PUSH1 0x22 PUSH1 0x4 MSTORE PUSH1 0x24 PUSH0 REVERT JUMPDEST PUSH0 PUSH1 0x2 DUP3 DIV SWAP1 POP PUSH1 0x1 DUP3 AND DUP1 PUSH2 0xF72 JUMPI PUSH1 0x7F DUP3 AND SWAP2 POP JUMPDEST PUSH1 0x20 DUP3 LT DUP2 SUB PUSH2 0xF85 JUMPI PUSH2 0xF84 PUSH2 0xF2E JUMP JUMPDEST JUMPDEST POP SWAP2 SWAP1 POP JUMP JUMPDEST PUSH0 DUP2 SWAP1 POP DUP2 PUSH0 MSTORE PUSH1 0x20 PUSH0 KECCAK256 SWAP1 POP SWAP2 SWAP1 POP JUMP JUMPDEST PUSH0 PUSH1 0x20 PUSH1 0x1F DUP4 ADD DIV SWAP1 POP SWAP2 SWAP1 POP JUMP JUMPDEST PUSH0 DUP3 DUP3 SHL SWAP1 POP SWAP3 SWAP2 POP POP JUMP JUMPDEST PUSH0 PUSH1 0x8 DUP4 MUL PUSH2 0xFE7 PUSH32 0xFFFFFFFFFFFFFFFFFFFFFFFFFFFFFFFFFFFFFFFFFFFFFFFFFFFFFFFFFFFFFFFF DUP3 PUSH2 0xFAC JUMP JUMPDEST PUSH2 0xFF1 DUP7 DUP4 PUSH2 0xFAC JUMP JUMPDEST SWAP6 POP DUP1 NOT DUP5 AND SWAP4 POP DUP1 DUP7 AND DUP5 OR SWAP3 POP POP POP SWAP4 SWAP3 POP POP POP JUMP JUMPDEST PUSH0 DUP2 SWAP1 POP SWAP2 SWAP1 POP JUMP JUMPDEST PUSH0 PUSH2 0x102C PUSH2 0x1027 PUSH2 0x1022 DUP5 PUSH2 0x9B8 JUMP JUMPDEST PUSH2 0x1009 JUMP JUMPDEST PUSH2 0x9B8 JUMP JUMPDEST SWAP1 POP SWAP2 SWAP1 POP JUMP JUMPDEST PUSH0 DUP2 SWAP1 POP SWAP2 SWAP1 POP JUMP JUMPDEST PUSH2 0x1045 DUP4 PUSH2 0x1012 JUMP JUMPDEST PUSH2 0x1059 PUSH2 0x1051 DUP3 PUSH2 0x1033 JUMP JUMPDEST DUP5 DUP5 SLOAD PUSH2 0xFB8 JUMP JUMPDEST DUP3 SSTORE POP POP POP POP JUMP JUMPDEST PUSH0 SWAP1 JUMP JUMPDEST PUSH2 0x106D PUSH2 0x1061 JUMP JUMPDEST PUSH2 0x1078 DUP2 DUP5 DUP5 PUSH2 0x103C JUMP JUMPDEST POP POP POP JUMP JUMPDEST JUMPDEST DUP2 DUP2 LT ISZERO PUSH2 0x109B JUMPI PUSH2 0x1090 PUSH0 DUP3 PUSH2 0x1065 JUMP JUMPDEST PUSH1 0x1 DUP2 ADD SWAP1 POP PUSH2 0x107E JUMP JUMPDEST POP POP JUMP JUMPDEST PUSH1 0x1F DUP3 GT ISZERO PUSH2 0x10E0 JUMPI PUSH2 0x10B1 DUP2 PUSH2 0xF8B JUMP JUMPDEST PUSH2 0x10BA DUP5 PUSH2 0xF9D JUMP JUMPDEST DUP2 ADD PUSH1 0x20 DUP6 LT ISZERO PUSH2 0x10C9 JUMPI DUP2 SWAP1 POP JUMPDEST PUSH2 0x10DD PUSH2 0x10D5 DUP6 PUSH2 0xF9D JUMP JUMPDEST DUP4 ADD DUP3 PUSH2 0x107D JUMP JUMPDEST POP POP JUMPDEST POP POP POP JUMP JUMPDEST PUSH0 DUP3 DUP3 SHR SWAP1 POP SWAP3 SWAP2 POP POP JUMP JUMPDEST PUSH0 PUSH2 0x1100 PUSH0 NOT DUP5 PUSH1 0x8 MUL PUSH2 0x10E5 JUMP JUMPDEST NOT DUP1 DUP4 AND SWAP2 POP POP SWAP3 SWAP2 POP POP JUMP JUMPDEST PUSH0 PUSH2 0x1118 DUP4 DUP4 PUSH2 0x10F1 JUMP JUMPDEST SWAP2 POP DUP3 PUSH1 0x2 MUL DUP3 OR SWAP1 POP SWAP3 SWAP2 POP POP JUMP JUMPDEST PUSH2 0x1131 DUP3 PUSH2 0xBD2 JUMP JUMPDEST PUSH8 0xFFFFFFFFFFFFFFFF DUP2 GT ISZERO PUSH2 0x114A JUMPI PUSH2 0x1149 PUSH2 0xF01 JUMP JUMPDEST JUMPDEST PUSH2 0x1154 DUP3 SLOAD PUSH2 0xF5B JUMP JUMPDEST PUSH2 0x115F DUP3 DUP3 DUP6 PUSH2 0x109F JUMP JUMPDEST PUSH0 PUSH1 0x20 SWAP1 POP PUSH1 0x1F DUP4 GT PUSH1 0x1 DUP2 EQ PUSH2 0x1190 JUMPI PUSH0 DUP5 ISZERO PUSH2 0x117E JUMPI DUP3 DUP8 ADD MLOAD SWAP1 POP JUMPDEST PUSH2 0x1188 DUP6 DUP3 PUSH2 0x110D JUMP JUMPDEST DUP7 SSTORE POP PUSH2 0x11EF JUMP JUMPDEST PUSH1 0x1F NOT DUP5 AND PUSH2 0x119E DUP7 PUSH2 0xF8B JUMP JUMPDEST PUSH0 JUMPDEST DUP3 DUP2 LT ISZERO PUSH2 0x11C5 JUMPI DUP5 DUP10 ADD MLOAD DUP3 SSTORE PUSH1 0x1 DUP3 ADD SWAP2 POP PUSH1 0x20 DUP6 ADD SWAP5 POP PUSH1 0x20 DUP2 ADD SWAP1 POP PUSH2 0x11A0 JUMP JUMPDEST DUP7 DUP4 LT ISZERO PUSH2 0x11E2 JUMPI DUP5 DUP10 ADD MLOAD PUSH2 0x11DE PUSH1 0x1F DUP10 AND DUP3 PUSH2 0x10F1 JUMP JUMPDEST DUP4 SSTORE POP JUMPDEST PUSH1 0x1 PUSH1 0x2 DUP9 MUL ADD DUP9 SSTORE POP POP POP JUMPDEST POP POP POP POP POP POP JUMP JUMPDEST DUP3 DUP2 DUP4 CALLDATACOPY PUSH0 DUP4 DUP4 ADD MSTORE POP POP POP JUMP JUMPDEST PUSH0 PUSH2 0x1210 DUP4 DUP6 PUSH2 0xBDC JUMP JUMPDEST SWAP4 POP PUSH2 0x121D DUP4 DUP6 DUP5 PUSH2 0x11F7 JUMP JUMPDEST PUSH2 0x1226 DUP4 PUSH2 0xBFA JUMP JUMPDEST DUP5 ADD SWAP1 POP SWAP4 SWAP3 POP POP POP JUMP JUMPDEST PUSH0 PUSH1 0x40 DUP3 ADD SWAP1 POP DUP2 DUP2 SUB PUSH0 DUP4 ADD MSTORE PUSH2 0x124A DUP2 DUP7 DUP9 PUSH2 0x1205 JUMP JUMPDEST SWAP1 POP DUP2 DUP2 SUB PUSH1 0x20 DUP4 ADD MSTORE PUSH2 0x125F DUP2 DUP5 DUP7 PUSH2 0x1205 JUMP JUMPDEST SWAP1 POP SWAP6 SWAP5 POP POP POP POP POP JUMP JUMPDEST PUSH32 0x4E6F20736520686120696E6772657361646F206E696E67756E612063616E7469 PUSH0 DUP3 ADD MSTORE PUSH32 0x6461640000000000000000000000000000000000000000000000000000000000 PUSH1 0x20 DUP3 ADD MSTORE POP JUMP JUMPDEST PUSH0 PUSH2 0x12C4 PUSH1 0x23 DUP4 PUSH2 0xBDC JUMP JUMPDEST SWAP2 POP PUSH2 0x12CF DUP3 PUSH2 0x126A JUMP JUMPDEST PUSH1 0x40 DUP3 ADD SWAP1 POP SWAP2 SWAP1 POP JUMP JUMPDEST PUSH0 PUSH1 0x20 DUP3 ADD SWAP1 POP DUP2 DUP2 SUB PUSH0 DUP4 ADD MSTORE PUSH2 0x12F1 DUP2 PUSH2 0x12B8 JUMP JUMPDEST SWAP1 POP SWAP2 SWAP1 POP JUMP JUMPDEST PUSH32 0x4E487B7100000000000000000000000000000000000000000000000000000000 PUSH0 MSTORE PUSH1 0x11 PUSH1 0x4 MSTORE PUSH1 0x24 PUSH0 REVERT JUMPDEST PUSH0 PUSH2 0x132F DUP3 PUSH2 0x9B8 JUMP JUMPDEST SWAP2 POP PUSH2 0x133A DUP4 PUSH2 0x9B8 JUMP JUMPDEST SWAP3 POP DUP3 DUP3 ADD SWAP1 POP DUP1 DUP3 GT ISZERO PUSH2 0x1352 JUMPI PUSH2 0x1351 PUSH2 0x12F8 JUMP JUMPDEST JUMPDEST SWAP3 SWAP2 POP POP JUMP INVALID LOG2 PUSH5 0x6970667358 0x22 SLT KECCAK256 0xCB MSTORE8 0x2E 0xC0 BLOCKHASH CHAINID PUSH31 0x4B9083ED420F816F685B89CBB561BE804D4146CFCBC4A2CCE664736F6C6343 STOP ADDMOD BYTE STOP CALLER "
				},
				"gasEstimates": {
					"creation": {
						"codeDepositCost": "1001200",
						"executionCost": "infinite",
						"totalCost": "infinite"
					},
					"external": {
						"deposit()": "infinite",
						"fee()": "2491",
						"getBalance()": "4771",
						"owner()": "2508",
						"register(string,string)": "infinite",
						"tesoreria()": "2596",
						"tesoreriaBalance()": "2448",
						"users(address)": "infinite",
						"withdraw(uint256)": "2995",
						"withdrawtesoreria(uint256)": "2915"
					}
				},
				"methodIdentifiers": {
					"deposit()": "d0e30db0",
					"fee()": "ddca3f43",
					"getBalance()": "12065fe0",
					"owner()": "8da5cb5b",
					"register(string,string)": "3ffbd47f",
					"tesoreria()": "e933dc54",
					"tesoreriaBalance()": "229dfe4a",
					"users(address)": "a87430ba",
					"withdraw(uint256)": "2e1a7d4d",
					"withdrawtesoreria(uint256)": "247d39a8"
				}
			},
			"storageLayout": {
				"storage": [
					{
						"astId": 16,
						"contract": "TrabajoFinalModulo2/SimpleBanks.sol:SimpleBank",
						"label": "users",
						"offset": 0,
						"slot": "0",
						"type": "t_mapping(t_address,t_struct(User)11_storage)"
					},
					{
						"astId": 18,
						"contract": "TrabajoFinalModulo2/SimpleBanks.sol:SimpleBank",
						"label": "owner",
						"offset": 0,
						"slot": "1",
						"type": "t_address"
					},
					{
						"astId": 20,
						"contract": "TrabajoFinalModulo2/SimpleBanks.sol:SimpleBank",
						"label": "tesoreria",
						"offset": 0,
						"slot": "2",
						"type": "t_address"
					},
					{
						"astId": 22,
						"contract": "TrabajoFinalModulo2/SimpleBanks.sol:SimpleBank",
						"label": "fee",
						"offset": 0,
						"slot": "3",
						"type": "t_uint256"
					},
					{
						"astId": 24,
						"contract": "TrabajoFinalModulo2/SimpleBanks.sol:SimpleBank",
						"label": "tesoreriaBalance",
						"offset": 0,
						"slot": "4",
						"type": "t_uint256"
					}
				],
				"types": {
					"t_address": {
						"encoding": "inplace",
						"label": "address",
						"numberOfBytes": "20"
					},
					"t_bool": {
						"encoding": "inplace",
						"label": "bool",
						"numberOfBytes": "1"
					},
					"t_mapping(t_address,t_struct(User)11_storage)": {
						"encoding": "mapping",
						"key": "t_address",
						"label": "mapping(address => struct SimpleBank.User)",
						"numberOfBytes": "32",
						"value": "t_struct(User)11_storage"
					},
					"t_string_storage": {
						"encoding": "bytes",
						"label": "string",
						"numberOfBytes": "32"
					},
					"t_struct(User)11_storage": {
						"encoding": "inplace",
						"label": "struct SimpleBank.User",
						"members": [
							{
								"astId": 4,
								"contract": "TrabajoFinalModulo2/SimpleBanks.sol:SimpleBank",
								"label": "firstName",
								"offset": 0,
								"slot": "0",
								"type": "t_string_storage"
							},
							{
								"astId": 6,
								"contract": "TrabajoFinalModulo2/SimpleBanks.sol:SimpleBank",
								"label": "lastName",
								"offset": 0,
								"slot": "1",
								"type": "t_string_storage"
							},
							{
								"astId": 8,
								"contract": "TrabajoFinalModulo2/SimpleBanks.sol:SimpleBank",
								"label": "balance",
								"offset": 0,
								"slot": "2",
								"type": "t_uint256"
							},
							{
								"astId": 10,
								"contract": "TrabajoFinalModulo2/SimpleBanks.sol:SimpleBank",
								"label": "isRegistered",
								"offset": 0,
								"slot": "3",
								"type": "t_bool"
							}
						],
						"numberOfBytes": "128"
					},
					"t_uint256": {
						"encoding": "inplace",
						"label": "uint256",
						"numberOfBytes": "32"
					}
				}
			},
			"userdoc": {
				"kind": "user",
				"methods": {},
				"version": 1
			}
		}
	}
}