{
	"TrabajoFinalModulo2/SimpleBank.sol": {
		"SimpleBank": {
			"abi": [
				{
					"inputs": [
						{
							"internalType": "uint256",
							"name": "_fee",
							"type": "uint256"
						},
						{
							"internalType": "address",
							"name": "_treasury",
							"type": "address"
						}
					],
					"stateMutability": "nonpayable",
					"type": "constructor"
				},
				{
					"anonymous": false,
					"inputs": [
						{
							"indexed": true,
							"internalType": "address",
							"name": "user",
							"type": "address"
						},
						{
							"indexed": false,
							"internalType": "uint256",
							"name": "amount",
							"type": "uint256"
						}
					],
					"name": "Deposit",
					"type": "event"
				},
				{
					"anonymous": false,
					"inputs": [
						{
							"indexed": true,
							"internalType": "address",
							"name": "owner",
							"type": "address"
						},
						{
							"indexed": false,
							"internalType": "uint256",
							"name": "amount",
							"type": "uint256"
						}
					],
					"name": "TreasuryWithdrawal",
					"type": "event"
				},
				{
					"anonymous": false,
					"inputs": [
						{
							"indexed": true,
							"internalType": "address",
							"name": "user",
							"type": "address"
						},
						{
							"indexed": false,
							"internalType": "string",
							"name": "firstName",
							"type": "string"
						},
						{
							"indexed": false,
							"internalType": "string",
							"name": "lastName",
							"type": "string"
						}
					],
					"name": "UserRegistered",
					"type": "event"
				},
				{
					"anonymous": false,
					"inputs": [
						{
							"indexed": true,
							"internalType": "address",
							"name": "user",
							"type": "address"
						},
						{
							"indexed": false,
							"internalType": "uint256",
							"name": "amount",
							"type": "uint256"
						},
						{
							"indexed": false,
							"internalType": "uint256",
							"name": "feeAmount",
							"type": "uint256"
						}
					],
					"name": "Withdrawal",
					"type": "event"
				},
				{
					"inputs": [],
					"name": "deposit",
					"outputs": [],
					"stateMutability": "payable",
					"type": "function"
				},
				{
					"inputs": [],
					"name": "fee",
					"outputs": [
						{
							"internalType": "uint256",
							"name": "",
							"type": "uint256"
						}
					],
					"stateMutability": "view",
					"type": "function"
				},
				{
					"inputs": [],
					"name": "getBalance",
					"outputs": [
						{
							"internalType": "uint256",
							"name": "",
							"type": "uint256"
						}
					],
					"stateMutability": "view",
					"type": "function"
				},
				{
					"inputs": [],
					"name": "owner",
					"outputs": [
						{
							"internalType": "address",
							"name": "",
							"type": "address"
						}
					],
					"stateMutability": "view",
					"type": "function"
				},
				{
					"inputs": [
						{
							"internalType": "string",
							"name": "_firstName",
							"type": "string"
						},
						{
							"internalType": "string",
							"name": "_lastName",
							"type": "string"
						}
					],
					"name": "register",
					"outputs": [],
					"stateMutability": "nonpayable",
					"type": "function"
				},
				{
					"inputs": [],
					"name": "treasury",
					"outputs": [
						{
							"internalType": "address",
							"name": "",
							"type": "address"
						}
					],
					"stateMutability": "view",
					"type": "function"
				},
				{
					"inputs": [],
					"name": "treasuryBalance",
					"outputs": [
						{
							"internalType": "uint256",
							"name": "",
							"type": "uint256"
						}
					],
					"stateMutability": "view",
					"type": "function"
				},
				{
					"inputs": [
						{
							"internalType": "address",
							"name": "",
							"type": "address"
						}
					],
					"name": "users",
					"outputs": [
						{
							"internalType": "string",
							"name": "firstName",
							"type": "string"
						},
						{
							"internalType": "string",
							"name": "lastName",
							"type": "string"
						},
						{
							"internalType": "uint256",
							"name": "balance",
							"type": "uint256"
						},
						{
							"internalType": "bool",
							"name": "isRegistered",
							"type": "bool"
						}
					],
					"stateMutability": "view",
					"type": "function"
				},
				{
					"inputs": [
						{
							"internalType": "uint256",
							"name": "_amount",
							"type": "uint256"
						}
					],
					"name": "withdraw",
					"outputs": [],
					"stateMutability": "nonpayable",
					"type": "function"
				},
				{
					"inputs": [
						{
							"internalType": "uint256",
							"name": "_amount",
							"type": "uint256"
						}
					],
					"name": "withdrawTreasury",
					"outputs": [],
					"stateMutability": "nonpayable",
					"type": "function"
				}
			],
			"devdoc": {
				"details": "Smart contract para gestionar un banco sencillo donde los usuarios pueden registrarse, depositar y retirar ETH.",
				"kind": "dev",
				"methods": {
					"constructor": {
						"details": "Constructor del contrato",
						"params": {
							"_fee": "El fee en puntos básicos (1% = 100 puntos básicos)",
							"_treasury": "La dirección de la tesorería"
						}
					},
					"deposit()": {
						"details": "Deposita ETH en la cuenta del usuario"
					},
					"getBalance()": {
						"details": "Verifica el saldo del usuario",
						"returns": {
							"_0": "El saldo del usuario en wei"
						}
					},
					"register(string,string)": {
						"details": "Registra un nuevo usuario",
						"params": {
							"_firstName": "El primer nombre del usuario",
							"_lastName": "El apellido del usuario"
						}
					},
					"withdraw(uint256)": {
						"details": "Retira ETH de la cuenta del usuario, aplicando un fee",
						"params": {
							"_amount": "La cantidad a retirar (en wei)"
						}
					},
					"withdrawTreasury(uint256)": {
						"details": "Retira fondos de la cuenta de tesorería por el owner",
						"params": {
							"_amount": "La cantidad a retirar de la tesorería (en wei)"
						}
					}
				},
				"title": "SimpleBank",
				"version": 1
			},
			"evm": {
				"assembly": "    /* \"TrabajoFinalModulo2/SimpleBank.sol\":214:4477  contract SimpleBank {... */\n  mstore(0x40, 0x80)\n    /* \"TrabajoFinalModulo2/SimpleBank.sol\":1653:1954  constructor(uint256 _fee, address _treasury) {... */\n  callvalue\n  dup1\n  iszero\n  tag_1\n  jumpi\n  0x00\n  dup1\n  revert\ntag_1:\n  pop\n  mload(0x40)\n  sub(codesize, bytecodeSize)\n  dup1\n  bytecodeSize\n  dup4\n  codecopy\n  dup2\n  dup2\n  add\n  0x40\n  mstore\n  dup2\n  add\n  swap1\n  tag_2\n  swap2\n  swap1\n  tag_3\n  jump\t// in\ntag_2:\n    /* \"TrabajoFinalModulo2/SimpleBank.sol\":1738:1739  0 */\n  0x00\n    /* \"TrabajoFinalModulo2/SimpleBank.sol\":1717:1740  _treasury != address(0) */\n  0xffffffffffffffffffffffffffffffffffffffff\n  and\n    /* \"TrabajoFinalModulo2/SimpleBank.sol\":1717:1726  _treasury */\n  dup2\n    /* \"TrabajoFinalModulo2/SimpleBank.sol\":1717:1740  _treasury != address(0) */\n  0xffffffffffffffffffffffffffffffffffffffff\n  and\n  sub\n    /* \"TrabajoFinalModulo2/SimpleBank.sol\":1709:1763  require(_treasury != address(0), \"Tesoreria invalida\") */\n  tag_6\n  jumpi\n  mload(0x40)\n  0x08c379a000000000000000000000000000000000000000000000000000000000\n  dup2\n  mstore\n  0x04\n  add\n  tag_7\n  swap1\n  tag_8\n  jump\t// in\ntag_7:\n  mload(0x40)\n  dup1\n  swap2\n  sub\n  swap1\n  revert\ntag_6:\n    /* \"TrabajoFinalModulo2/SimpleBank.sol\":1790:1795  10000 */\n  0x2710\n    /* \"TrabajoFinalModulo2/SimpleBank.sol\":1782:1786  _fee */\n  dup3\n    /* \"TrabajoFinalModulo2/SimpleBank.sol\":1782:1795  _fee <= 10000 */\n  gt\n  iszero\n    /* \"TrabajoFinalModulo2/SimpleBank.sol\":1774:1833  require(_fee <= 10000, \"Fee no puede exceder 10000 puntos\") */\n  tag_9\n  jumpi\n  mload(0x40)\n  0x08c379a000000000000000000000000000000000000000000000000000000000\n  dup2\n  mstore\n  0x04\n  add\n  tag_10\n  swap1\n  tag_11\n  jump\t// in\ntag_10:\n  mload(0x40)\n  dup1\n  swap2\n  sub\n  swap1\n  revert\ntag_9:\n    /* \"TrabajoFinalModulo2/SimpleBank.sol\":1854:1864  msg.sender */\n  caller\n    /* \"TrabajoFinalModulo2/SimpleBank.sol\":1846:1851  owner */\n  0x01\n  0x00\n    /* \"TrabajoFinalModulo2/SimpleBank.sol\":1846:1864  owner = msg.sender */\n  0x0100\n  exp\n  dup2\n  sload\n  dup2\n  0xffffffffffffffffffffffffffffffffffffffff\n  mul\n  not\n  and\n  swap1\n  dup4\n  0xffffffffffffffffffffffffffffffffffffffff\n  and\n  mul\n  or\n  swap1\n  sstore\n  pop\n    /* \"TrabajoFinalModulo2/SimpleBank.sol\":1881:1885  _fee */\n  dup2\n    /* \"TrabajoFinalModulo2/SimpleBank.sol\":1875:1878  fee */\n  0x03\n    /* \"TrabajoFinalModulo2/SimpleBank.sol\":1875:1885  fee = _fee */\n  dup2\n  swap1\n  sstore\n  pop\n    /* \"TrabajoFinalModulo2/SimpleBank.sol\":1907:1916  _treasury */\n  dup1\n    /* \"TrabajoFinalModulo2/SimpleBank.sol\":1896:1904  treasury */\n  0x02\n  0x00\n    /* \"TrabajoFinalModulo2/SimpleBank.sol\":1896:1916  treasury = _treasury */\n  0x0100\n  exp\n  dup2\n  sload\n  dup2\n  0xffffffffffffffffffffffffffffffffffffffff\n  mul\n  not\n  and\n  swap1\n  dup4\n  0xffffffffffffffffffffffffffffffffffffffff\n  and\n  mul\n  or\n  swap1\n  sstore\n  pop\n    /* \"TrabajoFinalModulo2/SimpleBank.sol\":1945:1946  0 */\n  0x00\n    /* \"TrabajoFinalModulo2/SimpleBank.sol\":1927:1942  treasuryBalance */\n  0x04\n    /* \"TrabajoFinalModulo2/SimpleBank.sol\":1927:1946  treasuryBalance = 0 */\n  dup2\n  swap1\n  sstore\n  pop\n    /* \"TrabajoFinalModulo2/SimpleBank.sol\":1653:1954  constructor(uint256 _fee, address _treasury) {... */\n  pop\n  pop\n    /* \"TrabajoFinalModulo2/SimpleBank.sol\":214:4477  contract SimpleBank {... */\n  jump(tag_12)\n    /* \"#utility.yul\":88:205   */\ntag_14:\n    /* \"#utility.yul\":197:198   */\n  0x00\n    /* \"#utility.yul\":194:195   */\n  dup1\n    /* \"#utility.yul\":187:199   */\n  revert\n    /* \"#utility.yul\":334:411   */\ntag_16:\n    /* \"#utility.yul\":371:378   */\n  0x00\n    /* \"#utility.yul\":400:405   */\n  dup2\n    /* \"#utility.yul\":389:405   */\n  swap1\n  pop\n    /* \"#utility.yul\":334:411   */\n  swap2\n  swap1\n  pop\n  jump\t// out\n    /* \"#utility.yul\":417:539   */\ntag_17:\n    /* \"#utility.yul\":490:514   */\n  tag_34\n    /* \"#utility.yul\":508:513   */\n  dup2\n    /* \"#utility.yul\":490:514   */\n  tag_16\n  jump\t// in\ntag_34:\n    /* \"#utility.yul\":483:488   */\n  dup2\n    /* \"#utility.yul\":480:515   */\n  eq\n    /* \"#utility.yul\":470:533   */\n  tag_35\n  jumpi\n    /* \"#utility.yul\":529:530   */\n  0x00\n    /* \"#utility.yul\":526:527   */\n  dup1\n    /* \"#utility.yul\":519:531   */\n  revert\n    /* \"#utility.yul\":470:533   */\ntag_35:\n    /* \"#utility.yul\":417:539   */\n  pop\n  jump\t// out\n    /* \"#utility.yul\":545:688   */\ntag_18:\n    /* \"#utility.yul\":602:607   */\n  0x00\n    /* \"#utility.yul\":633:639   */\n  dup2\n    /* \"#utility.yul\":627:640   */\n  mload\n    /* \"#utility.yul\":618:640   */\n  swap1\n  pop\n    /* \"#utility.yul\":649:682   */\n  tag_37\n    /* \"#utility.yul\":676:681   */\n  dup2\n    /* \"#utility.yul\":649:682   */\n  tag_17\n  jump\t// in\ntag_37:\n    /* \"#utility.yul\":545:688   */\n  swap3\n  swap2\n  pop\n  pop\n  jump\t// out\n    /* \"#utility.yul\":694:820   */\ntag_19:\n    /* \"#utility.yul\":731:738   */\n  0x00\n    /* \"#utility.yul\":771:813   */\n  0xffffffffffffffffffffffffffffffffffffffff\n    /* \"#utility.yul\":764:769   */\n  dup3\n    /* \"#utility.yul\":760:814   */\n  and\n    /* \"#utility.yul\":749:814   */\n  swap1\n  pop\n    /* \"#utility.yul\":694:820   */\n  swap2\n  swap1\n  pop\n  jump\t// out\n    /* \"#utility.yul\":826:922   */\ntag_20:\n    /* \"#utility.yul\":863:870   */\n  0x00\n    /* \"#utility.yul\":892:916   */\n  tag_40\n    /* \"#utility.yul\":910:915   */\n  dup3\n    /* \"#utility.yul\":892:916   */\n  tag_19\n  jump\t// in\ntag_40:\n    /* \"#utility.yul\":881:916   */\n  swap1\n  pop\n    /* \"#utility.yul\":826:922   */\n  swap2\n  swap1\n  pop\n  jump\t// out\n    /* \"#utility.yul\":928:1050   */\ntag_21:\n    /* \"#utility.yul\":1001:1025   */\n  tag_42\n    /* \"#utility.yul\":1019:1024   */\n  dup2\n    /* \"#utility.yul\":1001:1025   */\n  tag_20\n  jump\t// in\ntag_42:\n    /* \"#utility.yul\":994:999   */\n  dup2\n    /* \"#utility.yul\":991:1026   */\n  eq\n    /* \"#utility.yul\":981:1044   */\n  tag_43\n  jumpi\n    /* \"#utility.yul\":1040:1041   */\n  0x00\n    /* \"#utility.yul\":1037:1038   */\n  dup1\n    /* \"#utility.yul\":1030:1042   */\n  revert\n    /* \"#utility.yul\":981:1044   */\ntag_43:\n    /* \"#utility.yul\":928:1050   */\n  pop\n  jump\t// out\n    /* \"#utility.yul\":1056:1199   */\ntag_22:\n    /* \"#utility.yul\":1113:1118   */\n  0x00\n    /* \"#utility.yul\":1144:1150   */\n  dup2\n    /* \"#utility.yul\":1138:1151   */\n  mload\n    /* \"#utility.yul\":1129:1151   */\n  swap1\n  pop\n    /* \"#utility.yul\":1160:1193   */\n  tag_45\n    /* \"#utility.yul\":1187:1192   */\n  dup2\n    /* \"#utility.yul\":1160:1193   */\n  tag_21\n  jump\t// in\ntag_45:\n    /* \"#utility.yul\":1056:1199   */\n  swap3\n  swap2\n  pop\n  pop\n  jump\t// out\n    /* \"#utility.yul\":1205:1712   */\ntag_3:\n    /* \"#utility.yul\":1284:1290   */\n  0x00\n    /* \"#utility.yul\":1292:1298   */\n  dup1\n    /* \"#utility.yul\":1341:1343   */\n  0x40\n    /* \"#utility.yul\":1329:1338   */\n  dup4\n    /* \"#utility.yul\":1320:1327   */\n  dup6\n    /* \"#utility.yul\":1316:1339   */\n  sub\n    /* \"#utility.yul\":1312:1344   */\n  slt\n    /* \"#utility.yul\":1309:1428   */\n  iszero\n  tag_47\n  jumpi\n    /* \"#utility.yul\":1347:1426   */\n  tag_48\n  tag_14\n  jump\t// in\ntag_48:\n    /* \"#utility.yul\":1309:1428   */\ntag_47:\n    /* \"#utility.yul\":1467:1468   */\n  0x00\n    /* \"#utility.yul\":1492:1556   */\n  tag_49\n    /* \"#utility.yul\":1548:1555   */\n  dup6\n    /* \"#utility.yul\":1539:1545   */\n  dup3\n    /* \"#utility.yul\":1528:1537   */\n  dup7\n    /* \"#utility.yul\":1524:1546   */\n  add\n    /* \"#utility.yul\":1492:1556   */\n  tag_18\n  jump\t// in\ntag_49:\n    /* \"#utility.yul\":1482:1556   */\n  swap3\n  pop\n    /* \"#utility.yul\":1438:1566   */\n  pop\n    /* \"#utility.yul\":1605:1607   */\n  0x20\n    /* \"#utility.yul\":1631:1695   */\n  tag_50\n    /* \"#utility.yul\":1687:1694   */\n  dup6\n    /* \"#utility.yul\":1678:1684   */\n  dup3\n    /* \"#utility.yul\":1667:1676   */\n  dup7\n    /* \"#utility.yul\":1663:1685   */\n  add\n    /* \"#utility.yul\":1631:1695   */\n  tag_22\n  jump\t// in\ntag_50:\n    /* \"#utility.yul\":1621:1695   */\n  swap2\n  pop\n    /* \"#utility.yul\":1576:1705   */\n  pop\n    /* \"#utility.yul\":1205:1712   */\n  swap3\n  pop\n  swap3\n  swap1\n  pop\n  jump\t// out\n    /* \"#utility.yul\":1718:1887   */\ntag_23:\n    /* \"#utility.yul\":1802:1813   */\n  0x00\n    /* \"#utility.yul\":1836:1842   */\n  dup3\n    /* \"#utility.yul\":1831:1834   */\n  dup3\n    /* \"#utility.yul\":1824:1843   */\n  mstore\n    /* \"#utility.yul\":1876:1880   */\n  0x20\n    /* \"#utility.yul\":1871:1874   */\n  dup3\n    /* \"#utility.yul\":1867:1881   */\n  add\n    /* \"#utility.yul\":1852:1881   */\n  swap1\n  pop\n    /* \"#utility.yul\":1718:1887   */\n  swap3\n  swap2\n  pop\n  pop\n  jump\t// out\n    /* \"#utility.yul\":1893:2061   */\ntag_24:\n    /* \"#utility.yul\":2033:2053   */\n  0x5465736f726572696120696e76616c6964610000000000000000000000000000\n    /* \"#utility.yul\":2029:2030   */\n  0x00\n    /* \"#utility.yul\":2021:2027   */\n  dup3\n    /* \"#utility.yul\":2017:2031   */\n  add\n    /* \"#utility.yul\":2010:2054   */\n  mstore\n    /* \"#utility.yul\":1893:2061   */\n  pop\n  jump\t// out\n    /* \"#utility.yul\":2067:2433   */\ntag_25:\n    /* \"#utility.yul\":2209:2212   */\n  0x00\n    /* \"#utility.yul\":2230:2297   */\n  tag_54\n    /* \"#utility.yul\":2294:2296   */\n  0x12\n    /* \"#utility.yul\":2289:2292   */\n  dup4\n    /* \"#utility.yul\":2230:2297   */\n  tag_23\n  jump\t// in\ntag_54:\n    /* \"#utility.yul\":2223:2297   */\n  swap2\n  pop\n    /* \"#utility.yul\":2306:2399   */\n  tag_55\n    /* \"#utility.yul\":2395:2398   */\n  dup3\n    /* \"#utility.yul\":2306:2399   */\n  tag_24\n  jump\t// in\ntag_55:\n    /* \"#utility.yul\":2424:2426   */\n  0x20\n    /* \"#utility.yul\":2419:2422   */\n  dup3\n    /* \"#utility.yul\":2415:2427   */\n  add\n    /* \"#utility.yul\":2408:2427   */\n  swap1\n  pop\n    /* \"#utility.yul\":2067:2433   */\n  swap2\n  swap1\n  pop\n  jump\t// out\n    /* \"#utility.yul\":2439:2858   */\ntag_8:\n    /* \"#utility.yul\":2605:2609   */\n  0x00\n    /* \"#utility.yul\":2643:2645   */\n  0x20\n    /* \"#utility.yul\":2632:2641   */\n  dup3\n    /* \"#utility.yul\":2628:2646   */\n  add\n    /* \"#utility.yul\":2620:2646   */\n  swap1\n  pop\n    /* \"#utility.yul\":2692:2701   */\n  dup2\n    /* \"#utility.yul\":2686:2690   */\n  dup2\n    /* \"#utility.yul\":2682:2702   */\n  sub\n    /* \"#utility.yul\":2678:2679   */\n  0x00\n    /* \"#utility.yul\":2667:2676   */\n  dup4\n    /* \"#utility.yul\":2663:2680   */\n  add\n    /* \"#utility.yul\":2656:2703   */\n  mstore\n    /* \"#utility.yul\":2720:2851   */\n  tag_57\n    /* \"#utility.yul\":2846:2850   */\n  dup2\n    /* \"#utility.yul\":2720:2851   */\n  tag_25\n  jump\t// in\ntag_57:\n    /* \"#utility.yul\":2712:2851   */\n  swap1\n  pop\n    /* \"#utility.yul\":2439:2858   */\n  swap2\n  swap1\n  pop\n  jump\t// out\n    /* \"#utility.yul\":2864:3084   */\ntag_26:\n    /* \"#utility.yul\":3004:3038   */\n  0x466565206e6f20707565646520657863656465722031303030302070756e746f\n    /* \"#utility.yul\":3000:3001   */\n  0x00\n    /* \"#utility.yul\":2992:2998   */\n  dup3\n    /* \"#utility.yul\":2988:3002   */\n  add\n    /* \"#utility.yul\":2981:3039   */\n  mstore\n    /* \"#utility.yul\":3073:3076   */\n  0x7300000000000000000000000000000000000000000000000000000000000000\n    /* \"#utility.yul\":3068:3070   */\n  0x20\n    /* \"#utility.yul\":3060:3066   */\n  dup3\n    /* \"#utility.yul\":3056:3071   */\n  add\n    /* \"#utility.yul\":3049:3077   */\n  mstore\n    /* \"#utility.yul\":2864:3084   */\n  pop\n  jump\t// out\n    /* \"#utility.yul\":3090:3456   */\ntag_27:\n    /* \"#utility.yul\":3232:3235   */\n  0x00\n    /* \"#utility.yul\":3253:3320   */\n  tag_60\n    /* \"#utility.yul\":3317:3319   */\n  0x21\n    /* \"#utility.yul\":3312:3315   */\n  dup4\n    /* \"#utility.yul\":3253:3320   */\n  tag_23\n  jump\t// in\ntag_60:\n    /* \"#utility.yul\":3246:3320   */\n  swap2\n  pop\n    /* \"#utility.yul\":3329:3422   */\n  tag_61\n    /* \"#utility.yul\":3418:3421   */\n  dup3\n    /* \"#utility.yul\":3329:3422   */\n  tag_26\n  jump\t// in\ntag_61:\n    /* \"#utility.yul\":3447:3449   */\n  0x40\n    /* \"#utility.yul\":3442:3445   */\n  dup3\n    /* \"#utility.yul\":3438:3450   */\n  add\n    /* \"#utility.yul\":3431:3450   */\n  swap1\n  pop\n    /* \"#utility.yul\":3090:3456   */\n  swap2\n  swap1\n  pop\n  jump\t// out\n    /* \"#utility.yul\":3462:3881   */\ntag_11:\n    /* \"#utility.yul\":3628:3632   */\n  0x00\n    /* \"#utility.yul\":3666:3668   */\n  0x20\n    /* \"#utility.yul\":3655:3664   */\n  dup3\n    /* \"#utility.yul\":3651:3669   */\n  add\n    /* \"#utility.yul\":3643:3669   */\n  swap1\n  pop\n    /* \"#utility.yul\":3715:3724   */\n  dup2\n    /* \"#utility.yul\":3709:3713   */\n  dup2\n    /* \"#utility.yul\":3705:3725   */\n  sub\n    /* \"#utility.yul\":3701:3702   */\n  0x00\n    /* \"#utility.yul\":3690:3699   */\n  dup4\n    /* \"#utility.yul\":3686:3703   */\n  add\n    /* \"#utility.yul\":3679:3726   */\n  mstore\n    /* \"#utility.yul\":3743:3874   */\n  tag_63\n    /* \"#utility.yul\":3869:3873   */\n  dup2\n    /* \"#utility.yul\":3743:3874   */\n  tag_27\n  jump\t// in\ntag_63:\n    /* \"#utility.yul\":3735:3874   */\n  swap1\n  pop\n    /* \"#utility.yul\":3462:3881   */\n  swap2\n  swap1\n  pop\n  jump\t// out\n    /* \"TrabajoFinalModulo2/SimpleBank.sol\":214:4477  contract SimpleBank {... */\ntag_12:\n  dataSize(sub_0)\n  dup1\n  dataOffset(sub_0)\n  0x00\n  codecopy\n  0x00\n  return\nstop\n\nsub_0: assembly {\n        /* \"TrabajoFinalModulo2/SimpleBank.sol\":214:4477  contract SimpleBank {... */\n      mstore(0x40, 0x80)\n      jumpi(tag_1, lt(calldatasize, 0x04))\n      shr(0xe0, calldataload(0x00))\n      dup1\n      0x61d027b3\n      gt\n      tag_12\n      jumpi\n      dup1\n      0x61d027b3\n      eq\n      tag_7\n      jumpi\n      dup1\n      0x8da5cb5b\n      eq\n      tag_8\n      jumpi\n      dup1\n      0xa87430ba\n      eq\n      tag_9\n      jumpi\n      dup1\n      0xd0e30db0\n      eq\n      tag_10\n      jumpi\n      dup1\n      0xddca3f43\n      eq\n      tag_11\n      jumpi\n      jump(tag_1)\n    tag_12:\n      dup1\n      0x11f1fc99\n      eq\n      tag_2\n      jumpi\n      dup1\n      0x12065fe0\n      eq\n      tag_3\n      jumpi\n      dup1\n      0x2e1a7d4d\n      eq\n      tag_4\n      jumpi\n      dup1\n      0x313dab20\n      eq\n      tag_5\n      jumpi\n      dup1\n      0x3ffbd47f\n      eq\n      tag_6\n      jumpi\n    tag_1:\n      0x00\n      dup1\n      revert\n        /* \"TrabajoFinalModulo2/SimpleBank.sol\":4095:4474  function withdrawTreasury(uint256 _amount) external onlyOwner {... */\n    tag_2:\n      callvalue\n      dup1\n      iszero\n      tag_13\n      jumpi\n      0x00\n      dup1\n      revert\n    tag_13:\n      pop\n      tag_14\n      0x04\n      dup1\n      calldatasize\n      sub\n      dup2\n      add\n      swap1\n      tag_15\n      swap2\n      swap1\n      tag_16\n      jump\t// in\n    tag_15:\n      tag_17\n      jump\t// in\n    tag_14:\n      stop\n        /* \"TrabajoFinalModulo2/SimpleBank.sol\":3109:3229  function getBalance() external view onlyRegistered returns (uint256) {... */\n    tag_3:\n      callvalue\n      dup1\n      iszero\n      tag_18\n      jumpi\n      0x00\n      dup1\n      revert\n    tag_18:\n      pop\n      tag_19\n      tag_20\n      jump\t// in\n    tag_19:\n      mload(0x40)\n      tag_21\n      swap2\n      swap1\n      tag_22\n      jump\t// in\n    tag_21:\n      mload(0x40)\n      dup1\n      swap2\n      sub\n      swap1\n      return\n        /* \"TrabajoFinalModulo2/SimpleBank.sol\":3376:3931  function withdraw(uint256 _amount) external onlyRegistered {... */\n    tag_4:\n      callvalue\n      dup1\n      iszero\n      tag_23\n      jumpi\n      0x00\n      dup1\n      revert\n    tag_23:\n      pop\n      tag_24\n      0x04\n      dup1\n      calldatasize\n      sub\n      dup2\n      add\n      swap1\n      tag_25\n      swap2\n      swap1\n      tag_16\n      jump\t// in\n    tag_25:\n      tag_26\n      jump\t// in\n    tag_24:\n      stop\n        /* \"TrabajoFinalModulo2/SimpleBank.sol\":773:803  uint256 public treasuryBalance */\n    tag_5:\n      callvalue\n      dup1\n      iszero\n      tag_27\n      jumpi\n      0x00\n      dup1\n      revert\n    tag_27:\n      pop\n      tag_28\n      tag_29\n      jump\t// in\n    tag_28:\n      mload(0x40)\n      tag_30\n      swap2\n      swap1\n      tag_22\n      jump\t// in\n    tag_30:\n      mload(0x40)\n      dup1\n      swap2\n      sub\n      swap1\n      return\n        /* \"TrabajoFinalModulo2/SimpleBank.sol\":2123:2693  function register(string calldata _firstName, string calldata _lastName) external {... */\n    tag_6:\n      callvalue\n      dup1\n      iszero\n      tag_31\n      jumpi\n      0x00\n      dup1\n      revert\n    tag_31:\n      pop\n      tag_32\n      0x04\n      dup1\n      calldatasize\n      sub\n      dup2\n      add\n      swap1\n      tag_33\n      swap2\n      swap1\n      tag_34\n      jump\t// in\n    tag_33:\n      tag_35\n      jump\t// in\n    tag_32:\n      stop\n        /* \"TrabajoFinalModulo2/SimpleBank.sol\":613:636  address public treasury */\n    tag_7:\n      callvalue\n      dup1\n      iszero\n      tag_36\n      jumpi\n      0x00\n      dup1\n      revert\n    tag_36:\n      pop\n      tag_37\n      tag_38\n      jump\t// in\n    tag_37:\n      mload(0x40)\n      tag_39\n      swap2\n      swap1\n      tag_40\n      jump\t// in\n    tag_39:\n      mload(0x40)\n      dup1\n      swap2\n      sub\n      swap1\n      return\n        /* \"TrabajoFinalModulo2/SimpleBank.sol\":548:568  address public owner */\n    tag_8:\n      callvalue\n      dup1\n      iszero\n      tag_41\n      jumpi\n      0x00\n      dup1\n      revert\n    tag_41:\n      pop\n      tag_42\n      tag_43\n      jump\t// in\n    tag_42:\n      mload(0x40)\n      tag_44\n      swap2\n      swap1\n      tag_40\n      jump\t// in\n    tag_44:\n      mload(0x40)\n      dup1\n      swap2\n      sub\n      swap1\n      return\n        /* \"TrabajoFinalModulo2/SimpleBank.sol\":459:496  mapping(address => User) public users */\n    tag_9:\n      callvalue\n      dup1\n      iszero\n      tag_45\n      jumpi\n      0x00\n      dup1\n      revert\n    tag_45:\n      pop\n      tag_46\n      0x04\n      dup1\n      calldatasize\n      sub\n      dup2\n      add\n      swap1\n      tag_47\n      swap2\n      swap1\n      tag_48\n      jump\t// in\n    tag_47:\n      tag_49\n      jump\t// in\n    tag_46:\n      mload(0x40)\n      tag_50\n      swap5\n      swap4\n      swap3\n      swap2\n      swap1\n      tag_51\n      jump\t// in\n    tag_50:\n      mload(0x40)\n      dup1\n      swap2\n      sub\n      swap1\n      return\n        /* \"TrabajoFinalModulo2/SimpleBank.sol\":2770:2996  function deposit() external payable onlyRegistered {... */\n    tag_10:\n      tag_52\n      tag_53\n      jump\t// in\n    tag_52:\n      stop\n        /* \"TrabajoFinalModulo2/SimpleBank.sol\":703:721  uint256 public fee */\n    tag_11:\n      callvalue\n      dup1\n      iszero\n      tag_54\n      jumpi\n      0x00\n      dup1\n      revert\n    tag_54:\n      pop\n      tag_55\n      tag_56\n      jump\t// in\n    tag_55:\n      mload(0x40)\n      tag_57\n      swap2\n      swap1\n      tag_22\n      jump\t// in\n    tag_57:\n      mload(0x40)\n      dup1\n      swap2\n      sub\n      swap1\n      return\n        /* \"TrabajoFinalModulo2/SimpleBank.sol\":4095:4474  function withdrawTreasury(uint256 _amount) external onlyOwner {... */\n    tag_17:\n        /* \"TrabajoFinalModulo2/SimpleBank.sol\":1402:1407  owner */\n      0x01\n      0x00\n      swap1\n      sload\n      swap1\n      0x0100\n      exp\n      swap1\n      div\n      0xffffffffffffffffffffffffffffffffffffffff\n      and\n        /* \"TrabajoFinalModulo2/SimpleBank.sol\":1388:1407  msg.sender == owner */\n      0xffffffffffffffffffffffffffffffffffffffff\n      and\n        /* \"TrabajoFinalModulo2/SimpleBank.sol\":1388:1398  msg.sender */\n      caller\n        /* \"TrabajoFinalModulo2/SimpleBank.sol\":1388:1407  msg.sender == owner */\n      0xffffffffffffffffffffffffffffffffffffffff\n      and\n      eq\n        /* \"TrabajoFinalModulo2/SimpleBank.sol\":1380:1440  require(msg.sender == owner, \"Solo el owner puede ejecutar\") */\n      tag_59\n      jumpi\n      mload(0x40)\n      0x08c379a000000000000000000000000000000000000000000000000000000000\n      dup2\n      mstore\n      0x04\n      add\n      tag_60\n      swap1\n      tag_61\n      jump\t// in\n    tag_60:\n      mload(0x40)\n      dup1\n      swap2\n      sub\n      swap1\n      revert\n    tag_59:\n        /* \"TrabajoFinalModulo2/SimpleBank.sol\":4186:4187  0 */\n      0x00\n        /* \"TrabajoFinalModulo2/SimpleBank.sol\":4176:4183  _amount */\n      dup2\n        /* \"TrabajoFinalModulo2/SimpleBank.sol\":4176:4187  _amount > 0 */\n      gt\n        /* \"TrabajoFinalModulo2/SimpleBank.sol\":4168:4219  require(_amount > 0, \"Monto debe ser mayor a cero\") */\n      tag_63\n      jumpi\n      mload(0x40)\n      0x08c379a000000000000000000000000000000000000000000000000000000000\n      dup2\n      mstore\n      0x04\n      add\n      tag_64\n      swap1\n      tag_65\n      jump\t// in\n    tag_64:\n      mload(0x40)\n      dup1\n      swap2\n      sub\n      swap1\n      revert\n    tag_63:\n        /* \"TrabajoFinalModulo2/SimpleBank.sol\":4257:4264  _amount */\n      dup1\n        /* \"TrabajoFinalModulo2/SimpleBank.sol\":4238:4253  treasuryBalance */\n      sload(0x04)\n        /* \"TrabajoFinalModulo2/SimpleBank.sol\":4238:4264  treasuryBalance >= _amount */\n      lt\n      iszero\n        /* \"TrabajoFinalModulo2/SimpleBank.sol\":4230:4302  require(treasuryBalance >= _amount, \"Balance de tesoreria insuficiente\") */\n      tag_66\n      jumpi\n      mload(0x40)\n      0x08c379a000000000000000000000000000000000000000000000000000000000\n      dup2\n      mstore\n      0x04\n      add\n      tag_67\n      swap1\n      tag_68\n      jump\t// in\n    tag_67:\n      mload(0x40)\n      dup1\n      swap2\n      sub\n      swap1\n      revert\n    tag_66:\n        /* \"TrabajoFinalModulo2/SimpleBank.sol\":4334:4341  _amount */\n      dup1\n        /* \"TrabajoFinalModulo2/SimpleBank.sol\":4315:4330  treasuryBalance */\n      0x04\n      0x00\n        /* \"TrabajoFinalModulo2/SimpleBank.sol\":4315:4341  treasuryBalance -= _amount */\n      dup3\n      dup3\n      sload\n      tag_69\n      swap2\n      swap1\n      tag_70\n      jump\t// in\n    tag_69:\n      swap3\n      pop\n      pop\n      dup2\n      swap1\n      sstore\n      pop\n        /* \"TrabajoFinalModulo2/SimpleBank.sol\":4392:4397  owner */\n      0x01\n      0x00\n      swap1\n      sload\n      swap1\n      0x0100\n      exp\n      swap1\n      div\n      0xffffffffffffffffffffffffffffffffffffffff\n      and\n        /* \"TrabajoFinalModulo2/SimpleBank.sol\":4384:4407  payable(owner).transfer */\n      0xffffffffffffffffffffffffffffffffffffffff\n      and\n        /* \"TrabajoFinalModulo2/SimpleBank.sol\":4384:4416  payable(owner).transfer(_amount) */\n      0x08fc\n        /* \"TrabajoFinalModulo2/SimpleBank.sol\":4408:4415  _amount */\n      dup3\n        /* \"TrabajoFinalModulo2/SimpleBank.sol\":4384:4416  payable(owner).transfer(_amount) */\n      swap1\n      dup2\n      iszero\n      mul\n      swap1\n      mload(0x40)\n      0x00\n      mload(0x40)\n      dup1\n      dup4\n      sub\n      dup2\n      dup6\n      dup9\n      dup9\n      call\n      swap4\n      pop\n      pop\n      pop\n      pop\n      iszero\n      dup1\n      iszero\n      tag_72\n      jumpi\n      returndatasize\n      0x00\n      dup1\n      returndatacopy\n      revert(0x00, returndatasize)\n    tag_72:\n      pop\n        /* \"TrabajoFinalModulo2/SimpleBank.sol\":4451:4456  owner */\n      0x01\n      0x00\n      swap1\n      sload\n      swap1\n      0x0100\n      exp\n      swap1\n      div\n      0xffffffffffffffffffffffffffffffffffffffff\n      and\n        /* \"TrabajoFinalModulo2/SimpleBank.sol\":4432:4466  TreasuryWithdrawal(owner, _amount) */\n      0xffffffffffffffffffffffffffffffffffffffff\n      and\n      0x233c84dc0c19fbf51f9fa92214ffd8a59f512e0098bff5827455d02e401221c0\n        /* \"TrabajoFinalModulo2/SimpleBank.sol\":4458:4465  _amount */\n      dup3\n        /* \"TrabajoFinalModulo2/SimpleBank.sol\":4432:4466  TreasuryWithdrawal(owner, _amount) */\n      mload(0x40)\n      tag_73\n      swap2\n      swap1\n      tag_22\n      jump\t// in\n    tag_73:\n      mload(0x40)\n      dup1\n      swap2\n      sub\n      swap1\n      log2\n        /* \"TrabajoFinalModulo2/SimpleBank.sol\":4095:4474  function withdrawTreasury(uint256 _amount) external onlyOwner {... */\n      pop\n      jump\t// out\n        /* \"TrabajoFinalModulo2/SimpleBank.sol\":3109:3229  function getBalance() external view onlyRegistered returns (uint256) {... */\n    tag_20:\n        /* \"TrabajoFinalModulo2/SimpleBank.sol\":3169:3176  uint256 */\n      0x00\n        /* \"TrabajoFinalModulo2/SimpleBank.sol\":1219:1224  users */\n      dup1\n        /* \"TrabajoFinalModulo2/SimpleBank.sol\":1219:1236  users[msg.sender] */\n      0x00\n        /* \"TrabajoFinalModulo2/SimpleBank.sol\":1225:1235  msg.sender */\n      caller\n        /* \"TrabajoFinalModulo2/SimpleBank.sol\":1219:1236  users[msg.sender] */\n      0xffffffffffffffffffffffffffffffffffffffff\n      and\n      0xffffffffffffffffffffffffffffffffffffffff\n      and\n      dup2\n      mstore\n      0x20\n      add\n      swap1\n      dup2\n      mstore\n      0x20\n      add\n      0x00\n      keccak256\n        /* \"TrabajoFinalModulo2/SimpleBank.sol\":1219:1249  users[msg.sender].isRegistered */\n      0x03\n      add\n      0x00\n      swap1\n      sload\n      swap1\n      0x0100\n      exp\n      swap1\n      div\n      0xff\n      and\n        /* \"TrabajoFinalModulo2/SimpleBank.sol\":1211:1275  require(users[msg.sender].isRegistered, \"Usuario no registrado\") */\n      tag_75\n      jumpi\n      mload(0x40)\n      0x08c379a000000000000000000000000000000000000000000000000000000000\n      dup2\n      mstore\n      0x04\n      add\n      tag_76\n      swap1\n      tag_77\n      jump\t// in\n    tag_76:\n      mload(0x40)\n      dup1\n      swap2\n      sub\n      swap1\n      revert\n    tag_75:\n        /* \"TrabajoFinalModulo2/SimpleBank.sol\":3196:3201  users */\n      0x00\n        /* \"TrabajoFinalModulo2/SimpleBank.sol\":3196:3213  users[msg.sender] */\n      dup1\n        /* \"TrabajoFinalModulo2/SimpleBank.sol\":3202:3212  msg.sender */\n      caller\n        /* \"TrabajoFinalModulo2/SimpleBank.sol\":3196:3213  users[msg.sender] */\n      0xffffffffffffffffffffffffffffffffffffffff\n      and\n      0xffffffffffffffffffffffffffffffffffffffff\n      and\n      dup2\n      mstore\n      0x20\n      add\n      swap1\n      dup2\n      mstore\n      0x20\n      add\n      0x00\n      keccak256\n        /* \"TrabajoFinalModulo2/SimpleBank.sol\":3196:3221  users[msg.sender].balance */\n      0x02\n      add\n      sload\n        /* \"TrabajoFinalModulo2/SimpleBank.sol\":3189:3221  return users[msg.sender].balance */\n      swap1\n      pop\n        /* \"TrabajoFinalModulo2/SimpleBank.sol\":3109:3229  function getBalance() external view onlyRegistered returns (uint256) {... */\n      swap1\n      jump\t// out\n        /* \"TrabajoFinalModulo2/SimpleBank.sol\":3376:3931  function withdraw(uint256 _amount) external onlyRegistered {... */\n    tag_26:\n        /* \"TrabajoFinalModulo2/SimpleBank.sol\":1219:1224  users */\n      0x00\n        /* \"TrabajoFinalModulo2/SimpleBank.sol\":1219:1236  users[msg.sender] */\n      dup1\n        /* \"TrabajoFinalModulo2/SimpleBank.sol\":1225:1235  msg.sender */\n      caller\n        /* \"TrabajoFinalModulo2/SimpleBank.sol\":1219:1236  users[msg.sender] */\n      0xffffffffffffffffffffffffffffffffffffffff\n      and\n      0xffffffffffffffffffffffffffffffffffffffff\n      and\n      dup2\n      mstore\n      0x20\n      add\n      swap1\n      dup2\n      mstore\n      0x20\n      add\n      0x00\n      keccak256\n        /* \"TrabajoFinalModulo2/SimpleBank.sol\":1219:1249  users[msg.sender].isRegistered */\n      0x03\n      add\n      0x00\n      swap1\n      sload\n      swap1\n      0x0100\n      exp\n      swap1\n      div\n      0xff\n      and\n        /* \"TrabajoFinalModulo2/SimpleBank.sol\":1211:1275  require(users[msg.sender].isRegistered, \"Usuario no registrado\") */\n      tag_80\n      jumpi\n      mload(0x40)\n      0x08c379a000000000000000000000000000000000000000000000000000000000\n      dup2\n      mstore\n      0x04\n      add\n      tag_81\n      swap1\n      tag_77\n      jump\t// in\n    tag_81:\n      mload(0x40)\n      dup1\n      swap2\n      sub\n      swap1\n      revert\n    tag_80:\n        /* \"TrabajoFinalModulo2/SimpleBank.sol\":3464:3465  0 */\n      0x00\n        /* \"TrabajoFinalModulo2/SimpleBank.sol\":3454:3461  _amount */\n      dup2\n        /* \"TrabajoFinalModulo2/SimpleBank.sol\":3454:3465  _amount > 0 */\n      gt\n        /* \"TrabajoFinalModulo2/SimpleBank.sol\":3446:3507  require(_amount > 0, \"Monto de retiro debe ser mayor a cero\") */\n      tag_83\n      jumpi\n      mload(0x40)\n      0x08c379a000000000000000000000000000000000000000000000000000000000\n      dup2\n      mstore\n      0x04\n      add\n      tag_84\n      swap1\n      tag_85\n      jump\t// in\n    tag_84:\n      mload(0x40)\n      dup1\n      swap2\n      sub\n      swap1\n      revert\n    tag_83:\n        /* \"TrabajoFinalModulo2/SimpleBank.sol\":3555:3562  _amount */\n      dup1\n        /* \"TrabajoFinalModulo2/SimpleBank.sol\":3526:3531  users */\n      0x00\n        /* \"TrabajoFinalModulo2/SimpleBank.sol\":3526:3543  users[msg.sender] */\n      dup1\n        /* \"TrabajoFinalModulo2/SimpleBank.sol\":3532:3542  msg.sender */\n      caller\n        /* \"TrabajoFinalModulo2/SimpleBank.sol\":3526:3543  users[msg.sender] */\n      0xffffffffffffffffffffffffffffffffffffffff\n      and\n      0xffffffffffffffffffffffffffffffffffffffff\n      and\n      dup2\n      mstore\n      0x20\n      add\n      swap1\n      dup2\n      mstore\n      0x20\n      add\n      0x00\n      keccak256\n        /* \"TrabajoFinalModulo2/SimpleBank.sol\":3526:3551  users[msg.sender].balance */\n      0x02\n      add\n      sload\n        /* \"TrabajoFinalModulo2/SimpleBank.sol\":3526:3562  users[msg.sender].balance >= _amount */\n      lt\n      iszero\n        /* \"TrabajoFinalModulo2/SimpleBank.sol\":3518:3585  require(users[msg.sender].balance >= _amount, \"Saldo insuficiente\") */\n      tag_86\n      jumpi\n      mload(0x40)\n      0x08c379a000000000000000000000000000000000000000000000000000000000\n      dup2\n      mstore\n      0x04\n      add\n      tag_87\n      swap1\n      tag_88\n      jump\t// in\n    tag_87:\n      mload(0x40)\n      dup1\n      swap2\n      sub\n      swap1\n      revert\n    tag_86:\n        /* \"TrabajoFinalModulo2/SimpleBank.sol\":3598:3615  uint256 feeAmount */\n      0x00\n        /* \"TrabajoFinalModulo2/SimpleBank.sol\":3636:3641  10000 */\n      0x2710\n        /* \"TrabajoFinalModulo2/SimpleBank.sol\":3629:3632  fee */\n      sload(0x03)\n        /* \"TrabajoFinalModulo2/SimpleBank.sol\":3619:3626  _amount */\n      dup4\n        /* \"TrabajoFinalModulo2/SimpleBank.sol\":3619:3632  _amount * fee */\n      tag_89\n      swap2\n      swap1\n      tag_90\n      jump\t// in\n    tag_89:\n        /* \"TrabajoFinalModulo2/SimpleBank.sol\":3618:3641  (_amount * fee) / 10000 */\n      tag_91\n      swap2\n      swap1\n      tag_92\n      jump\t// in\n    tag_91:\n        /* \"TrabajoFinalModulo2/SimpleBank.sol\":3598:3641  uint256 feeAmount = (_amount * fee) / 10000 */\n      swap1\n      pop\n        /* \"TrabajoFinalModulo2/SimpleBank.sol\":3652:3669  uint256 netAmount */\n      0x00\n        /* \"TrabajoFinalModulo2/SimpleBank.sol\":3682:3691  feeAmount */\n      dup2\n        /* \"TrabajoFinalModulo2/SimpleBank.sol\":3672:3679  _amount */\n      dup4\n        /* \"TrabajoFinalModulo2/SimpleBank.sol\":3672:3691  _amount - feeAmount */\n      tag_93\n      swap2\n      swap1\n      tag_70\n      jump\t// in\n    tag_93:\n        /* \"TrabajoFinalModulo2/SimpleBank.sol\":3652:3691  uint256 netAmount = _amount - feeAmount */\n      swap1\n      pop\n        /* \"TrabajoFinalModulo2/SimpleBank.sol\":3733:3740  _amount */\n      dup3\n        /* \"TrabajoFinalModulo2/SimpleBank.sol\":3704:3709  users */\n      0x00\n        /* \"TrabajoFinalModulo2/SimpleBank.sol\":3704:3721  users[msg.sender] */\n      dup1\n        /* \"TrabajoFinalModulo2/SimpleBank.sol\":3710:3720  msg.sender */\n      caller\n        /* \"TrabajoFinalModulo2/SimpleBank.sol\":3704:3721  users[msg.sender] */\n      0xffffffffffffffffffffffffffffffffffffffff\n      and\n      0xffffffffffffffffffffffffffffffffffffffff\n      and\n      dup2\n      mstore\n      0x20\n      add\n      swap1\n      dup2\n      mstore\n      0x20\n      add\n      0x00\n      keccak256\n        /* \"TrabajoFinalModulo2/SimpleBank.sol\":3704:3729  users[msg.sender].balance */\n      0x02\n      add\n      0x00\n        /* \"TrabajoFinalModulo2/SimpleBank.sol\":3704:3740  users[msg.sender].balance -= _amount */\n      dup3\n      dup3\n      sload\n      tag_94\n      swap2\n      swap1\n      tag_70\n      jump\t// in\n    tag_94:\n      swap3\n      pop\n      pop\n      dup2\n      swap1\n      sstore\n      pop\n        /* \"TrabajoFinalModulo2/SimpleBank.sol\":3770:3779  feeAmount */\n      dup2\n        /* \"TrabajoFinalModulo2/SimpleBank.sol\":3751:3766  treasuryBalance */\n      0x04\n      0x00\n        /* \"TrabajoFinalModulo2/SimpleBank.sol\":3751:3779  treasuryBalance += feeAmount */\n      dup3\n      dup3\n      sload\n      tag_95\n      swap2\n      swap1\n      tag_96\n      jump\t// in\n    tag_95:\n      swap3\n      pop\n      pop\n      dup2\n      swap1\n      sstore\n      pop\n        /* \"TrabajoFinalModulo2/SimpleBank.sol\":3834:3844  msg.sender */\n      caller\n        /* \"TrabajoFinalModulo2/SimpleBank.sol\":3826:3854  payable(msg.sender).transfer */\n      0xffffffffffffffffffffffffffffffffffffffff\n      and\n        /* \"TrabajoFinalModulo2/SimpleBank.sol\":3826:3865  payable(msg.sender).transfer(netAmount) */\n      0x08fc\n        /* \"TrabajoFinalModulo2/SimpleBank.sol\":3855:3864  netAmount */\n      dup3\n        /* \"TrabajoFinalModulo2/SimpleBank.sol\":3826:3865  payable(msg.sender).transfer(netAmount) */\n      swap1\n      dup2\n      iszero\n      mul\n      swap1\n      mload(0x40)\n      0x00\n      mload(0x40)\n      dup1\n      dup4\n      sub\n      dup2\n      dup6\n      dup9\n      dup9\n      call\n      swap4\n      pop\n      pop\n      pop\n      pop\n      iszero\n      dup1\n      iszero\n      tag_98\n      jumpi\n      returndatasize\n      0x00\n      dup1\n      returndatacopy\n      revert(0x00, returndatasize)\n    tag_98:\n      pop\n        /* \"TrabajoFinalModulo2/SimpleBank.sol\":3892:3902  msg.sender */\n      caller\n        /* \"TrabajoFinalModulo2/SimpleBank.sol\":3881:3923  Withdrawal(msg.sender, _amount, feeAmount) */\n      0xffffffffffffffffffffffffffffffffffffffff\n      and\n      0xdf273cb619d95419a9cd0ec88123a0538c85064229baa6363788f743fff90deb\n        /* \"TrabajoFinalModulo2/SimpleBank.sol\":3904:3911  _amount */\n      dup5\n        /* \"TrabajoFinalModulo2/SimpleBank.sol\":3913:3922  feeAmount */\n      dup5\n        /* \"TrabajoFinalModulo2/SimpleBank.sol\":3881:3923  Withdrawal(msg.sender, _amount, feeAmount) */\n      mload(0x40)\n      tag_99\n      swap3\n      swap2\n      swap1\n      tag_100\n      jump\t// in\n    tag_99:\n      mload(0x40)\n      dup1\n      swap2\n      sub\n      swap1\n      log2\n        /* \"TrabajoFinalModulo2/SimpleBank.sol\":3435:3931  {... */\n      pop\n      pop\n        /* \"TrabajoFinalModulo2/SimpleBank.sol\":3376:3931  function withdraw(uint256 _amount) external onlyRegistered {... */\n      pop\n      jump\t// out\n        /* \"TrabajoFinalModulo2/SimpleBank.sol\":773:803  uint256 public treasuryBalance */\n    tag_29:\n      sload(0x04)\n      dup2\n      jump\t// out\n        /* \"TrabajoFinalModulo2/SimpleBank.sol\":2123:2693  function register(string calldata _firstName, string calldata _lastName) external {... */\n    tag_35:\n        /* \"TrabajoFinalModulo2/SimpleBank.sol\":2251:2252  0 */\n      0x00\n        /* \"TrabajoFinalModulo2/SimpleBank.sol\":2230:2240  _firstName */\n      dup5\n      dup5\n        /* \"TrabajoFinalModulo2/SimpleBank.sol\":2224:2248  bytes(_firstName).length */\n      swap1\n      pop\n        /* \"TrabajoFinalModulo2/SimpleBank.sol\":2224:2252  bytes(_firstName).length > 0 */\n      gt\n        /* \"TrabajoFinalModulo2/SimpleBank.sol\":2216:2284  require(bytes(_firstName).length > 0, \"Nombre no puede estar vacio\") */\n      tag_102\n      jumpi\n      mload(0x40)\n      0x08c379a000000000000000000000000000000000000000000000000000000000\n      dup2\n      mstore\n      0x04\n      add\n      tag_103\n      swap1\n      tag_104\n      jump\t// in\n    tag_103:\n      mload(0x40)\n      dup1\n      swap2\n      sub\n      swap1\n      revert\n    tag_102:\n        /* \"TrabajoFinalModulo2/SimpleBank.sol\":2329:2330  0 */\n      0x00\n        /* \"TrabajoFinalModulo2/SimpleBank.sol\":2309:2318  _lastName */\n      dup3\n      dup3\n        /* \"TrabajoFinalModulo2/SimpleBank.sol\":2303:2326  bytes(_lastName).length */\n      swap1\n      pop\n        /* \"TrabajoFinalModulo2/SimpleBank.sol\":2303:2330  bytes(_lastName).length > 0 */\n      gt\n        /* \"TrabajoFinalModulo2/SimpleBank.sol\":2295:2364  require(bytes(_lastName).length > 0, \"Apellido no puede estar vacio\") */\n      tag_105\n      jumpi\n      mload(0x40)\n      0x08c379a000000000000000000000000000000000000000000000000000000000\n      dup2\n      mstore\n      0x04\n      add\n      tag_106\n      swap1\n      tag_107\n      jump\t// in\n    tag_106:\n      mload(0x40)\n      dup1\n      swap2\n      sub\n      swap1\n      revert\n    tag_105:\n        /* \"TrabajoFinalModulo2/SimpleBank.sol\":2384:2389  users */\n      0x00\n        /* \"TrabajoFinalModulo2/SimpleBank.sol\":2384:2401  users[msg.sender] */\n      dup1\n        /* \"TrabajoFinalModulo2/SimpleBank.sol\":2390:2400  msg.sender */\n      caller\n        /* \"TrabajoFinalModulo2/SimpleBank.sol\":2384:2401  users[msg.sender] */\n      0xffffffffffffffffffffffffffffffffffffffff\n      and\n      0xffffffffffffffffffffffffffffffffffffffff\n      and\n      dup2\n      mstore\n      0x20\n      add\n      swap1\n      dup2\n      mstore\n      0x20\n      add\n      0x00\n      keccak256\n        /* \"TrabajoFinalModulo2/SimpleBank.sol\":2384:2414  users[msg.sender].isRegistered */\n      0x03\n      add\n      0x00\n      swap1\n      sload\n      swap1\n      0x0100\n      exp\n      swap1\n      div\n      0xff\n      and\n        /* \"TrabajoFinalModulo2/SimpleBank.sol\":2383:2414  !users[msg.sender].isRegistered */\n      iszero\n        /* \"TrabajoFinalModulo2/SimpleBank.sol\":2375:2440  require(!users[msg.sender].isRegistered, \"Usuario ya registrado\") */\n      tag_108\n      jumpi\n      mload(0x40)\n      0x08c379a000000000000000000000000000000000000000000000000000000000\n      dup2\n      mstore\n      0x04\n      add\n      tag_109\n      swap1\n      tag_110\n      jump\t// in\n    tag_109:\n      mload(0x40)\n      dup1\n      swap2\n      sub\n      swap1\n      revert\n    tag_108:\n        /* \"TrabajoFinalModulo2/SimpleBank.sol\":2473:2618  User({... */\n      mload(0x40)\n      dup1\n      0x80\n      add\n      0x40\n      mstore\n      dup1\n        /* \"TrabajoFinalModulo2/SimpleBank.sol\":2504:2514  _firstName */\n      dup6\n      dup6\n        /* \"TrabajoFinalModulo2/SimpleBank.sol\":2473:2618  User({... */\n      dup1\n      dup1\n      0x1f\n      add\n      0x20\n      dup1\n      swap2\n      div\n      mul\n      0x20\n      add\n      mload(0x40)\n      swap1\n      dup2\n      add\n      0x40\n      mstore\n      dup1\n      swap4\n      swap3\n      swap2\n      swap1\n      dup2\n      dup2\n      mstore\n      0x20\n      add\n      dup4\n      dup4\n      dup1\n      dup3\n      dup5\n      calldatacopy\n      0x00\n      dup2\n      dup5\n      add\n      mstore\n      not(0x1f)\n      0x1f\n      dup3\n      add\n      and\n      swap1\n      pop\n      dup1\n      dup4\n      add\n      swap3\n      pop\n      pop\n      pop\n      pop\n      pop\n      pop\n      pop\n      dup2\n      mstore\n      0x20\n      add\n        /* \"TrabajoFinalModulo2/SimpleBank.sol\":2539:2548  _lastName */\n      dup4\n      dup4\n        /* \"TrabajoFinalModulo2/SimpleBank.sol\":2473:2618  User({... */\n      dup1\n      dup1\n      0x1f\n      add\n      0x20\n      dup1\n      swap2\n      div\n      mul\n      0x20\n      add\n      mload(0x40)\n      swap1\n      dup2\n      add\n      0x40\n      mstore\n      dup1\n      swap4\n      swap3\n      swap2\n      swap1\n      dup2\n      dup2\n      mstore\n      0x20\n      add\n      dup4\n      dup4\n      dup1\n      dup3\n      dup5\n      calldatacopy\n      0x00\n      dup2\n      dup5\n      add\n      mstore\n      not(0x1f)\n      0x1f\n      dup3\n      add\n      and\n      swap1\n      pop\n      dup1\n      dup4\n      add\n      swap3\n      pop\n      pop\n      pop\n      pop\n      pop\n      pop\n      pop\n      dup2\n      mstore\n      0x20\n      add\n        /* \"TrabajoFinalModulo2/SimpleBank.sol\":2572:2573  0 */\n      0x00\n        /* \"TrabajoFinalModulo2/SimpleBank.sol\":2473:2618  User({... */\n      dup2\n      mstore\n      0x20\n      add\n        /* \"TrabajoFinalModulo2/SimpleBank.sol\":2602:2606  true */\n      0x01\n        /* \"TrabajoFinalModulo2/SimpleBank.sol\":2473:2618  User({... */\n      iszero\n      iszero\n      dup2\n      mstore\n      pop\n        /* \"TrabajoFinalModulo2/SimpleBank.sol\":2453:2458  users */\n      0x00\n        /* \"TrabajoFinalModulo2/SimpleBank.sol\":2453:2470  users[msg.sender] */\n      dup1\n        /* \"TrabajoFinalModulo2/SimpleBank.sol\":2459:2469  msg.sender */\n      caller\n        /* \"TrabajoFinalModulo2/SimpleBank.sol\":2453:2470  users[msg.sender] */\n      0xffffffffffffffffffffffffffffffffffffffff\n      and\n      0xffffffffffffffffffffffffffffffffffffffff\n      and\n      dup2\n      mstore\n      0x20\n      add\n      swap1\n      dup2\n      mstore\n      0x20\n      add\n      0x00\n      keccak256\n        /* \"TrabajoFinalModulo2/SimpleBank.sol\":2453:2618  users[msg.sender] = User({... */\n      0x00\n      dup3\n      add\n      mload\n      dup2\n      0x00\n      add\n      swap1\n      dup2\n      tag_111\n      swap2\n      swap1\n      tag_112\n      jump\t// in\n    tag_111:\n      pop\n      0x20\n      dup3\n      add\n      mload\n      dup2\n      0x01\n      add\n      swap1\n      dup2\n      tag_113\n      swap2\n      swap1\n      tag_112\n      jump\t// in\n    tag_113:\n      pop\n      0x40\n      dup3\n      add\n      mload\n      dup2\n      0x02\n      add\n      sstore\n      0x60\n      dup3\n      add\n      mload\n      dup2\n      0x03\n      add\n      exp(0x0100, 0x00)\n      dup2\n      sload\n      dup2\n      0xff\n      mul\n      not\n      and\n      swap1\n      dup4\n      iszero\n      iszero\n      mul\n      or\n      swap1\n      sstore\n      pop\n      swap1\n      pop\n      pop\n        /* \"TrabajoFinalModulo2/SimpleBank.sol\":2651:2661  msg.sender */\n      caller\n        /* \"TrabajoFinalModulo2/SimpleBank.sol\":2636:2685  UserRegistered(msg.sender, _firstName, _lastName) */\n      0xffffffffffffffffffffffffffffffffffffffff\n      and\n      0x92822564bab8864c3a47b34e8d23fbce5c46234eb5da261f94087b995ac0f33b\n        /* \"TrabajoFinalModulo2/SimpleBank.sol\":2663:2673  _firstName */\n      dup6\n      dup6\n        /* \"TrabajoFinalModulo2/SimpleBank.sol\":2675:2684  _lastName */\n      dup6\n      dup6\n        /* \"TrabajoFinalModulo2/SimpleBank.sol\":2636:2685  UserRegistered(msg.sender, _firstName, _lastName) */\n      mload(0x40)\n      tag_114\n      swap5\n      swap4\n      swap3\n      swap2\n      swap1\n      tag_115\n      jump\t// in\n    tag_114:\n      mload(0x40)\n      dup1\n      swap2\n      sub\n      swap1\n      log2\n        /* \"TrabajoFinalModulo2/SimpleBank.sol\":2123:2693  function register(string calldata _firstName, string calldata _lastName) external {... */\n      pop\n      pop\n      pop\n      pop\n      jump\t// out\n        /* \"TrabajoFinalModulo2/SimpleBank.sol\":613:636  address public treasury */\n    tag_38:\n      0x02\n      0x00\n      swap1\n      sload\n      swap1\n      0x0100\n      exp\n      swap1\n      div\n      0xffffffffffffffffffffffffffffffffffffffff\n      and\n      dup2\n      jump\t// out\n        /* \"TrabajoFinalModulo2/SimpleBank.sol\":548:568  address public owner */\n    tag_43:\n      0x01\n      0x00\n      swap1\n      sload\n      swap1\n      0x0100\n      exp\n      swap1\n      div\n      0xffffffffffffffffffffffffffffffffffffffff\n      and\n      dup2\n      jump\t// out\n        /* \"TrabajoFinalModulo2/SimpleBank.sol\":459:496  mapping(address => User) public users */\n    tag_49:\n      mstore(0x20, 0x00)\n      dup1\n      0x00\n      mstore\n      keccak256(0x00, 0x40)\n      0x00\n      swap2\n      pop\n      swap1\n      pop\n      dup1\n      0x00\n      add\n      dup1\n      sload\n      tag_116\n      swap1\n      tag_117\n      jump\t// in\n    tag_116:\n      dup1\n      0x1f\n      add\n      0x20\n      dup1\n      swap2\n      div\n      mul\n      0x20\n      add\n      mload(0x40)\n      swap1\n      dup2\n      add\n      0x40\n      mstore\n      dup1\n      swap3\n      swap2\n      swap1\n      dup2\n      dup2\n      mstore\n      0x20\n      add\n      dup3\n      dup1\n      sload\n      tag_118\n      swap1\n      tag_117\n      jump\t// in\n    tag_118:\n      dup1\n      iszero\n      tag_119\n      jumpi\n      dup1\n      0x1f\n      lt\n      tag_120\n      jumpi\n      0x0100\n      dup1\n      dup4\n      sload\n      div\n      mul\n      dup4\n      mstore\n      swap2\n      0x20\n      add\n      swap2\n      jump(tag_119)\n    tag_120:\n      dup3\n      add\n      swap2\n      swap1\n      0x00\n      mstore\n      keccak256(0x00, 0x20)\n      swap1\n    tag_121:\n      dup2\n      sload\n      dup2\n      mstore\n      swap1\n      0x01\n      add\n      swap1\n      0x20\n      add\n      dup1\n      dup4\n      gt\n      tag_121\n      jumpi\n      dup3\n      swap1\n      sub\n      0x1f\n      and\n      dup3\n      add\n      swap2\n    tag_119:\n      pop\n      pop\n      pop\n      pop\n      pop\n      swap1\n      dup1\n      0x01\n      add\n      dup1\n      sload\n      tag_122\n      swap1\n      tag_117\n      jump\t// in\n    tag_122:\n      dup1\n      0x1f\n      add\n      0x20\n      dup1\n      swap2\n      div\n      mul\n      0x20\n      add\n      mload(0x40)\n      swap1\n      dup2\n      add\n      0x40\n      mstore\n      dup1\n      swap3\n      swap2\n      swap1\n      dup2\n      dup2\n      mstore\n      0x20\n      add\n      dup3\n      dup1\n      sload\n      tag_123\n      swap1\n      tag_117\n      jump\t// in\n    tag_123:\n      dup1\n      iszero\n      tag_124\n      jumpi\n      dup1\n      0x1f\n      lt\n      tag_125\n      jumpi\n      0x0100\n      dup1\n      dup4\n      sload\n      div\n      mul\n      dup4\n      mstore\n      swap2\n      0x20\n      add\n      swap2\n      jump(tag_124)\n    tag_125:\n      dup3\n      add\n      swap2\n      swap1\n      0x00\n      mstore\n      keccak256(0x00, 0x20)\n      swap1\n    tag_126:\n      dup2\n      sload\n      dup2\n      mstore\n      swap1\n      0x01\n      add\n      swap1\n      0x20\n      add\n      dup1\n      dup4\n      gt\n      tag_126\n      jumpi\n      dup3\n      swap1\n      sub\n      0x1f\n      and\n      dup3\n      add\n      swap2\n    tag_124:\n      pop\n      pop\n      pop\n      pop\n      pop\n      swap1\n      dup1\n      0x02\n      add\n      sload\n      swap1\n      dup1\n      0x03\n      add\n      0x00\n      swap1\n      sload\n      swap1\n      0x0100\n      exp\n      swap1\n      div\n      0xff\n      and\n      swap1\n      pop\n      dup5\n      jump\t// out\n        /* \"TrabajoFinalModulo2/SimpleBank.sol\":2770:2996  function deposit() external payable onlyRegistered {... */\n    tag_53:\n        /* \"TrabajoFinalModulo2/SimpleBank.sol\":1219:1224  users */\n      0x00\n        /* \"TrabajoFinalModulo2/SimpleBank.sol\":1219:1236  users[msg.sender] */\n      dup1\n        /* \"TrabajoFinalModulo2/SimpleBank.sol\":1225:1235  msg.sender */\n      caller\n        /* \"TrabajoFinalModulo2/SimpleBank.sol\":1219:1236  users[msg.sender] */\n      0xffffffffffffffffffffffffffffffffffffffff\n      and\n      0xffffffffffffffffffffffffffffffffffffffff\n      and\n      dup2\n      mstore\n      0x20\n      add\n      swap1\n      dup2\n      mstore\n      0x20\n      add\n      0x00\n      keccak256\n        /* \"TrabajoFinalModulo2/SimpleBank.sol\":1219:1249  users[msg.sender].isRegistered */\n      0x03\n      add\n      0x00\n      swap1\n      sload\n      swap1\n      0x0100\n      exp\n      swap1\n      div\n      0xff\n      and\n        /* \"TrabajoFinalModulo2/SimpleBank.sol\":1211:1275  require(users[msg.sender].isRegistered, \"Usuario no registrado\") */\n      tag_128\n      jumpi\n      mload(0x40)\n      0x08c379a000000000000000000000000000000000000000000000000000000000\n      dup2\n      mstore\n      0x04\n      add\n      tag_129\n      swap1\n      tag_77\n      jump\t// in\n    tag_129:\n      mload(0x40)\n      dup1\n      swap2\n      sub\n      swap1\n      revert\n    tag_128:\n        /* \"TrabajoFinalModulo2/SimpleBank.sol\":2852:2853  0 */\n      0x00\n        /* \"TrabajoFinalModulo2/SimpleBank.sol\":2840:2849  msg.value */\n      callvalue\n        /* \"TrabajoFinalModulo2/SimpleBank.sol\":2840:2853  msg.value > 0 */\n      gt\n        /* \"TrabajoFinalModulo2/SimpleBank.sol\":2832:2891  require(msg.value > 0, \"El deposito debe ser mayor a cero\") */\n      tag_131\n      jumpi\n      mload(0x40)\n      0x08c379a000000000000000000000000000000000000000000000000000000000\n      dup2\n      mstore\n      0x04\n      add\n      tag_132\n      swap1\n      tag_133\n      jump\t// in\n    tag_132:\n      mload(0x40)\n      dup1\n      swap2\n      sub\n      swap1\n      revert\n    tag_131:\n        /* \"TrabajoFinalModulo2/SimpleBank.sol\":2933:2942  msg.value */\n      callvalue\n        /* \"TrabajoFinalModulo2/SimpleBank.sol\":2904:2909  users */\n      0x00\n        /* \"TrabajoFinalModulo2/SimpleBank.sol\":2904:2921  users[msg.sender] */\n      dup1\n        /* \"TrabajoFinalModulo2/SimpleBank.sol\":2910:2920  msg.sender */\n      caller\n        /* \"TrabajoFinalModulo2/SimpleBank.sol\":2904:2921  users[msg.sender] */\n      0xffffffffffffffffffffffffffffffffffffffff\n      and\n      0xffffffffffffffffffffffffffffffffffffffff\n      and\n      dup2\n      mstore\n      0x20\n      add\n      swap1\n      dup2\n      mstore\n      0x20\n      add\n      0x00\n      keccak256\n        /* \"TrabajoFinalModulo2/SimpleBank.sol\":2904:2929  users[msg.sender].balance */\n      0x02\n      add\n      0x00\n        /* \"TrabajoFinalModulo2/SimpleBank.sol\":2904:2942  users[msg.sender].balance += msg.value */\n      dup3\n      dup3\n      sload\n      tag_134\n      swap2\n      swap1\n      tag_96\n      jump\t// in\n    tag_134:\n      swap3\n      pop\n      pop\n      dup2\n      swap1\n      sstore\n      pop\n        /* \"TrabajoFinalModulo2/SimpleBank.sol\":2966:2976  msg.sender */\n      caller\n        /* \"TrabajoFinalModulo2/SimpleBank.sol\":2958:2988  Deposit(msg.sender, msg.value) */\n      0xffffffffffffffffffffffffffffffffffffffff\n      and\n      0xe1fffcc4923d04b559f4d29a8bfc6cda04eb5b0d3c460751c2402c5c5cc9109c\n        /* \"TrabajoFinalModulo2/SimpleBank.sol\":2978:2987  msg.value */\n      callvalue\n        /* \"TrabajoFinalModulo2/SimpleBank.sol\":2958:2988  Deposit(msg.sender, msg.value) */\n      mload(0x40)\n      tag_135\n      swap2\n      swap1\n      tag_22\n      jump\t// in\n    tag_135:\n      mload(0x40)\n      dup1\n      swap2\n      sub\n      swap1\n      log2\n        /* \"TrabajoFinalModulo2/SimpleBank.sol\":2770:2996  function deposit() external payable onlyRegistered {... */\n      jump\t// out\n        /* \"TrabajoFinalModulo2/SimpleBank.sol\":703:721  uint256 public fee */\n    tag_56:\n      sload(0x03)\n      dup2\n      jump\t// out\n        /* \"#utility.yul\":88:205   */\n    tag_137:\n        /* \"#utility.yul\":197:198   */\n      0x00\n        /* \"#utility.yul\":194:195   */\n      dup1\n        /* \"#utility.yul\":187:199   */\n      revert\n        /* \"#utility.yul\":211:328   */\n    tag_138:\n        /* \"#utility.yul\":320:321   */\n      0x00\n        /* \"#utility.yul\":317:318   */\n      dup1\n        /* \"#utility.yul\":310:322   */\n      revert\n        /* \"#utility.yul\":334:411   */\n    tag_139:\n        /* \"#utility.yul\":371:378   */\n      0x00\n        /* \"#utility.yul\":400:405   */\n      dup2\n        /* \"#utility.yul\":389:405   */\n      swap1\n      pop\n        /* \"#utility.yul\":334:411   */\n      swap2\n      swap1\n      pop\n      jump\t// out\n        /* \"#utility.yul\":417:539   */\n    tag_140:\n        /* \"#utility.yul\":490:514   */\n      tag_206\n        /* \"#utility.yul\":508:513   */\n      dup2\n        /* \"#utility.yul\":490:514   */\n      tag_139\n      jump\t// in\n    tag_206:\n        /* \"#utility.yul\":483:488   */\n      dup2\n        /* \"#utility.yul\":480:515   */\n      eq\n        /* \"#utility.yul\":470:533   */\n      tag_207\n      jumpi\n        /* \"#utility.yul\":529:530   */\n      0x00\n        /* \"#utility.yul\":526:527   */\n      dup1\n        /* \"#utility.yul\":519:531   */\n      revert\n        /* \"#utility.yul\":470:533   */\n    tag_207:\n        /* \"#utility.yul\":417:539   */\n      pop\n      jump\t// out\n        /* \"#utility.yul\":545:684   */\n    tag_141:\n        /* \"#utility.yul\":591:596   */\n      0x00\n        /* \"#utility.yul\":629:635   */\n      dup2\n        /* \"#utility.yul\":616:636   */\n      calldataload\n        /* \"#utility.yul\":607:636   */\n      swap1\n      pop\n        /* \"#utility.yul\":645:678   */\n      tag_209\n        /* \"#utility.yul\":672:677   */\n      dup2\n        /* \"#utility.yul\":645:678   */\n      tag_140\n      jump\t// in\n    tag_209:\n        /* \"#utility.yul\":545:684   */\n      swap3\n      swap2\n      pop\n      pop\n      jump\t// out\n        /* \"#utility.yul\":690:1019   */\n    tag_16:\n        /* \"#utility.yul\":749:755   */\n      0x00\n        /* \"#utility.yul\":798:800   */\n      0x20\n        /* \"#utility.yul\":786:795   */\n      dup3\n        /* \"#utility.yul\":777:784   */\n      dup5\n        /* \"#utility.yul\":773:796   */\n      sub\n        /* \"#utility.yul\":769:801   */\n      slt\n        /* \"#utility.yul\":766:885   */\n      iszero\n      tag_211\n      jumpi\n        /* \"#utility.yul\":804:883   */\n      tag_212\n      tag_137\n      jump\t// in\n    tag_212:\n        /* \"#utility.yul\":766:885   */\n    tag_211:\n        /* \"#utility.yul\":924:925   */\n      0x00\n        /* \"#utility.yul\":949:1002   */\n      tag_213\n        /* \"#utility.yul\":994:1001   */\n      dup5\n        /* \"#utility.yul\":985:991   */\n      dup3\n        /* \"#utility.yul\":974:983   */\n      dup6\n        /* \"#utility.yul\":970:992   */\n      add\n        /* \"#utility.yul\":949:1002   */\n      tag_141\n      jump\t// in\n    tag_213:\n        /* \"#utility.yul\":939:1002   */\n      swap2\n      pop\n        /* \"#utility.yul\":895:1012   */\n      pop\n        /* \"#utility.yul\":690:1019   */\n      swap3\n      swap2\n      pop\n      pop\n      jump\t// out\n        /* \"#utility.yul\":1025:1143   */\n    tag_142:\n        /* \"#utility.yul\":1112:1136   */\n      tag_215\n        /* \"#utility.yul\":1130:1135   */\n      dup2\n        /* \"#utility.yul\":1112:1136   */\n      tag_139\n      jump\t// in\n    tag_215:\n        /* \"#utility.yul\":1107:1110   */\n      dup3\n        /* \"#utility.yul\":1100:1137   */\n      mstore\n        /* \"#utility.yul\":1025:1143   */\n      pop\n      pop\n      jump\t// out\n        /* \"#utility.yul\":1149:1371   */\n    tag_22:\n        /* \"#utility.yul\":1242:1246   */\n      0x00\n        /* \"#utility.yul\":1280:1282   */\n      0x20\n        /* \"#utility.yul\":1269:1278   */\n      dup3\n        /* \"#utility.yul\":1265:1283   */\n      add\n        /* \"#utility.yul\":1257:1283   */\n      swap1\n      pop\n        /* \"#utility.yul\":1293:1364   */\n      tag_217\n        /* \"#utility.yul\":1361:1362   */\n      0x00\n        /* \"#utility.yul\":1350:1359   */\n      dup4\n        /* \"#utility.yul\":1346:1363   */\n      add\n        /* \"#utility.yul\":1337:1343   */\n      dup5\n        /* \"#utility.yul\":1293:1364   */\n      tag_142\n      jump\t// in\n    tag_217:\n        /* \"#utility.yul\":1149:1371   */\n      swap3\n      swap2\n      pop\n      pop\n      jump\t// out\n        /* \"#utility.yul\":1377:1494   */\n    tag_143:\n        /* \"#utility.yul\":1486:1487   */\n      0x00\n        /* \"#utility.yul\":1483:1484   */\n      dup1\n        /* \"#utility.yul\":1476:1488   */\n      revert\n        /* \"#utility.yul\":1500:1617   */\n    tag_144:\n        /* \"#utility.yul\":1609:1610   */\n      0x00\n        /* \"#utility.yul\":1606:1607   */\n      dup1\n        /* \"#utility.yul\":1599:1611   */\n      revert\n        /* \"#utility.yul\":1623:1740   */\n    tag_145:\n        /* \"#utility.yul\":1732:1733   */\n      0x00\n        /* \"#utility.yul\":1729:1730   */\n      dup1\n        /* \"#utility.yul\":1722:1734   */\n      revert\n        /* \"#utility.yul\":1760:2313   */\n    tag_146:\n        /* \"#utility.yul\":1818:1826   */\n      0x00\n        /* \"#utility.yul\":1828:1834   */\n      dup1\n        /* \"#utility.yul\":1878:1881   */\n      dup4\n        /* \"#utility.yul\":1871:1875   */\n      0x1f\n        /* \"#utility.yul\":1863:1869   */\n      dup5\n        /* \"#utility.yul\":1859:1876   */\n      add\n        /* \"#utility.yul\":1855:1882   */\n      slt\n        /* \"#utility.yul\":1845:1967   */\n      tag_222\n      jumpi\n        /* \"#utility.yul\":1886:1965   */\n      tag_223\n      tag_143\n      jump\t// in\n    tag_223:\n        /* \"#utility.yul\":1845:1967   */\n    tag_222:\n        /* \"#utility.yul\":1999:2005   */\n      dup3\n        /* \"#utility.yul\":1986:2006   */\n      calldataload\n        /* \"#utility.yul\":1976:2006   */\n      swap1\n      pop\n        /* \"#utility.yul\":2029:2047   */\n      0xffffffffffffffff\n        /* \"#utility.yul\":2021:2027   */\n      dup2\n        /* \"#utility.yul\":2018:2048   */\n      gt\n        /* \"#utility.yul\":2015:2132   */\n      iszero\n      tag_224\n      jumpi\n        /* \"#utility.yul\":2051:2130   */\n      tag_225\n      tag_144\n      jump\t// in\n    tag_225:\n        /* \"#utility.yul\":2015:2132   */\n    tag_224:\n        /* \"#utility.yul\":2165:2169   */\n      0x20\n        /* \"#utility.yul\":2157:2163   */\n      dup4\n        /* \"#utility.yul\":2153:2170   */\n      add\n        /* \"#utility.yul\":2141:2170   */\n      swap2\n      pop\n        /* \"#utility.yul\":2219:2222   */\n      dup4\n        /* \"#utility.yul\":2211:2215   */\n      0x01\n        /* \"#utility.yul\":2203:2209   */\n      dup3\n        /* \"#utility.yul\":2199:2216   */\n      mul\n        /* \"#utility.yul\":2189:2197   */\n      dup4\n        /* \"#utility.yul\":2185:2217   */\n      add\n        /* \"#utility.yul\":2182:2223   */\n      gt\n        /* \"#utility.yul\":2179:2307   */\n      iszero\n      tag_226\n      jumpi\n        /* \"#utility.yul\":2226:2305   */\n      tag_227\n      tag_145\n      jump\t// in\n    tag_227:\n        /* \"#utility.yul\":2179:2307   */\n    tag_226:\n        /* \"#utility.yul\":1760:2313   */\n      swap3\n      pop\n      swap3\n      swap1\n      pop\n      jump\t// out\n        /* \"#utility.yul\":2319:3193   */\n    tag_34:\n        /* \"#utility.yul\":2411:2417   */\n      0x00\n        /* \"#utility.yul\":2419:2425   */\n      dup1\n        /* \"#utility.yul\":2427:2433   */\n      0x00\n        /* \"#utility.yul\":2435:2441   */\n      dup1\n        /* \"#utility.yul\":2484:2486   */\n      0x40\n        /* \"#utility.yul\":2472:2481   */\n      dup6\n        /* \"#utility.yul\":2463:2470   */\n      dup8\n        /* \"#utility.yul\":2459:2482   */\n      sub\n        /* \"#utility.yul\":2455:2487   */\n      slt\n        /* \"#utility.yul\":2452:2571   */\n      iszero\n      tag_229\n      jumpi\n        /* \"#utility.yul\":2490:2569   */\n      tag_230\n      tag_137\n      jump\t// in\n    tag_230:\n        /* \"#utility.yul\":2452:2571   */\n    tag_229:\n        /* \"#utility.yul\":2638:2639   */\n      0x00\n        /* \"#utility.yul\":2627:2636   */\n      dup6\n        /* \"#utility.yul\":2623:2640   */\n      add\n        /* \"#utility.yul\":2610:2641   */\n      calldataload\n        /* \"#utility.yul\":2668:2686   */\n      0xffffffffffffffff\n        /* \"#utility.yul\":2660:2666   */\n      dup2\n        /* \"#utility.yul\":2657:2687   */\n      gt\n        /* \"#utility.yul\":2654:2771   */\n      iszero\n      tag_231\n      jumpi\n        /* \"#utility.yul\":2690:2769   */\n      tag_232\n      tag_138\n      jump\t// in\n    tag_232:\n        /* \"#utility.yul\":2654:2771   */\n    tag_231:\n        /* \"#utility.yul\":2803:2868   */\n      tag_233\n        /* \"#utility.yul\":2860:2867   */\n      dup8\n        /* \"#utility.yul\":2851:2857   */\n      dup3\n        /* \"#utility.yul\":2840:2849   */\n      dup9\n        /* \"#utility.yul\":2836:2858   */\n      add\n        /* \"#utility.yul\":2803:2868   */\n      tag_146\n      jump\t// in\n    tag_233:\n        /* \"#utility.yul\":2785:2868   */\n      swap5\n      pop\n      swap5\n      pop\n        /* \"#utility.yul\":2581:2878   */\n      pop\n        /* \"#utility.yul\":2945:2947   */\n      0x20\n        /* \"#utility.yul\":2934:2943   */\n      dup6\n        /* \"#utility.yul\":2930:2948   */\n      add\n        /* \"#utility.yul\":2917:2949   */\n      calldataload\n        /* \"#utility.yul\":2976:2994   */\n      0xffffffffffffffff\n        /* \"#utility.yul\":2968:2974   */\n      dup2\n        /* \"#utility.yul\":2965:2995   */\n      gt\n        /* \"#utility.yul\":2962:3079   */\n      iszero\n      tag_234\n      jumpi\n        /* \"#utility.yul\":2998:3077   */\n      tag_235\n      tag_138\n      jump\t// in\n    tag_235:\n        /* \"#utility.yul\":2962:3079   */\n    tag_234:\n        /* \"#utility.yul\":3111:3176   */\n      tag_236\n        /* \"#utility.yul\":3168:3175   */\n      dup8\n        /* \"#utility.yul\":3159:3165   */\n      dup3\n        /* \"#utility.yul\":3148:3157   */\n      dup9\n        /* \"#utility.yul\":3144:3166   */\n      add\n        /* \"#utility.yul\":3111:3176   */\n      tag_146\n      jump\t// in\n    tag_236:\n        /* \"#utility.yul\":3093:3176   */\n      swap3\n      pop\n      swap3\n      pop\n        /* \"#utility.yul\":2888:3186   */\n      pop\n        /* \"#utility.yul\":2319:3193   */\n      swap3\n      swap6\n      swap2\n      swap5\n      pop\n      swap3\n      pop\n      jump\t// out\n        /* \"#utility.yul\":3199:3325   */\n    tag_147:\n        /* \"#utility.yul\":3236:3243   */\n      0x00\n        /* \"#utility.yul\":3276:3318   */\n      0xffffffffffffffffffffffffffffffffffffffff\n        /* \"#utility.yul\":3269:3274   */\n      dup3\n        /* \"#utility.yul\":3265:3319   */\n      and\n        /* \"#utility.yul\":3254:3319   */\n      swap1\n      pop\n        /* \"#utility.yul\":3199:3325   */\n      swap2\n      swap1\n      pop\n      jump\t// out\n        /* \"#utility.yul\":3331:3427   */\n    tag_148:\n        /* \"#utility.yul\":3368:3375   */\n      0x00\n        /* \"#utility.yul\":3397:3421   */\n      tag_239\n        /* \"#utility.yul\":3415:3420   */\n      dup3\n        /* \"#utility.yul\":3397:3421   */\n      tag_147\n      jump\t// in\n    tag_239:\n        /* \"#utility.yul\":3386:3421   */\n      swap1\n      pop\n        /* \"#utility.yul\":3331:3427   */\n      swap2\n      swap1\n      pop\n      jump\t// out\n        /* \"#utility.yul\":3433:3551   */\n    tag_149:\n        /* \"#utility.yul\":3520:3544   */\n      tag_241\n        /* \"#utility.yul\":3538:3543   */\n      dup2\n        /* \"#utility.yul\":3520:3544   */\n      tag_148\n      jump\t// in\n    tag_241:\n        /* \"#utility.yul\":3515:3518   */\n      dup3\n        /* \"#utility.yul\":3508:3545   */\n      mstore\n        /* \"#utility.yul\":3433:3551   */\n      pop\n      pop\n      jump\t// out\n        /* \"#utility.yul\":3557:3779   */\n    tag_40:\n        /* \"#utility.yul\":3650:3654   */\n      0x00\n        /* \"#utility.yul\":3688:3690   */\n      0x20\n        /* \"#utility.yul\":3677:3686   */\n      dup3\n        /* \"#utility.yul\":3673:3691   */\n      add\n        /* \"#utility.yul\":3665:3691   */\n      swap1\n      pop\n        /* \"#utility.yul\":3701:3772   */\n      tag_243\n        /* \"#utility.yul\":3769:3770   */\n      0x00\n        /* \"#utility.yul\":3758:3767   */\n      dup4\n        /* \"#utility.yul\":3754:3771   */\n      add\n        /* \"#utility.yul\":3745:3751   */\n      dup5\n        /* \"#utility.yul\":3701:3772   */\n      tag_149\n      jump\t// in\n    tag_243:\n        /* \"#utility.yul\":3557:3779   */\n      swap3\n      swap2\n      pop\n      pop\n      jump\t// out\n        /* \"#utility.yul\":3785:3907   */\n    tag_150:\n        /* \"#utility.yul\":3858:3882   */\n      tag_245\n        /* \"#utility.yul\":3876:3881   */\n      dup2\n        /* \"#utility.yul\":3858:3882   */\n      tag_148\n      jump\t// in\n    tag_245:\n        /* \"#utility.yul\":3851:3856   */\n      dup2\n        /* \"#utility.yul\":3848:3883   */\n      eq\n        /* \"#utility.yul\":3838:3901   */\n      tag_246\n      jumpi\n        /* \"#utility.yul\":3897:3898   */\n      0x00\n        /* \"#utility.yul\":3894:3895   */\n      dup1\n        /* \"#utility.yul\":3887:3899   */\n      revert\n        /* \"#utility.yul\":3838:3901   */\n    tag_246:\n        /* \"#utility.yul\":3785:3907   */\n      pop\n      jump\t// out\n        /* \"#utility.yul\":3913:4052   */\n    tag_151:\n        /* \"#utility.yul\":3959:3964   */\n      0x00\n        /* \"#utility.yul\":3997:4003   */\n      dup2\n        /* \"#utility.yul\":3984:4004   */\n      calldataload\n        /* \"#utility.yul\":3975:4004   */\n      swap1\n      pop\n        /* \"#utility.yul\":4013:4046   */\n      tag_248\n        /* \"#utility.yul\":4040:4045   */\n      dup2\n        /* \"#utility.yul\":4013:4046   */\n      tag_150\n      jump\t// in\n    tag_248:\n        /* \"#utility.yul\":3913:4052   */\n      swap3\n      swap2\n      pop\n      pop\n      jump\t// out\n        /* \"#utility.yul\":4058:4387   */\n    tag_48:\n        /* \"#utility.yul\":4117:4123   */\n      0x00\n        /* \"#utility.yul\":4166:4168   */\n      0x20\n        /* \"#utility.yul\":4154:4163   */\n      dup3\n        /* \"#utility.yul\":4145:4152   */\n      dup5\n        /* \"#utility.yul\":4141:4164   */\n      sub\n        /* \"#utility.yul\":4137:4169   */\n      slt\n        /* \"#utility.yul\":4134:4253   */\n      iszero\n      tag_250\n      jumpi\n        /* \"#utility.yul\":4172:4251   */\n      tag_251\n      tag_137\n      jump\t// in\n    tag_251:\n        /* \"#utility.yul\":4134:4253   */\n    tag_250:\n        /* \"#utility.yul\":4292:4293   */\n      0x00\n        /* \"#utility.yul\":4317:4370   */\n      tag_252\n        /* \"#utility.yul\":4362:4369   */\n      dup5\n        /* \"#utility.yul\":4353:4359   */\n      dup3\n        /* \"#utility.yul\":4342:4351   */\n      dup6\n        /* \"#utility.yul\":4338:4360   */\n      add\n        /* \"#utility.yul\":4317:4370   */\n      tag_151\n      jump\t// in\n    tag_252:\n        /* \"#utility.yul\":4307:4370   */\n      swap2\n      pop\n        /* \"#utility.yul\":4263:4380   */\n      pop\n        /* \"#utility.yul\":4058:4387   */\n      swap3\n      swap2\n      pop\n      pop\n      jump\t// out\n        /* \"#utility.yul\":4393:4492   */\n    tag_152:\n        /* \"#utility.yul\":4445:4451   */\n      0x00\n        /* \"#utility.yul\":4479:4484   */\n      dup2\n        /* \"#utility.yul\":4473:4485   */\n      mload\n        /* \"#utility.yul\":4463:4485   */\n      swap1\n      pop\n        /* \"#utility.yul\":4393:4492   */\n      swap2\n      swap1\n      pop\n      jump\t// out\n        /* \"#utility.yul\":4498:4667   */\n    tag_153:\n        /* \"#utility.yul\":4582:4593   */\n      0x00\n        /* \"#utility.yul\":4616:4622   */\n      dup3\n        /* \"#utility.yul\":4611:4614   */\n      dup3\n        /* \"#utility.yul\":4604:4623   */\n      mstore\n        /* \"#utility.yul\":4656:4660   */\n      0x20\n        /* \"#utility.yul\":4651:4654   */\n      dup3\n        /* \"#utility.yul\":4647:4661   */\n      add\n        /* \"#utility.yul\":4632:4661   */\n      swap1\n      pop\n        /* \"#utility.yul\":4498:4667   */\n      swap3\n      swap2\n      pop\n      pop\n      jump\t// out\n        /* \"#utility.yul\":4673:4812   */\n    tag_154:\n        /* \"#utility.yul\":4762:4768   */\n      dup3\n        /* \"#utility.yul\":4757:4760   */\n      dup2\n        /* \"#utility.yul\":4752:4755   */\n      dup4\n        /* \"#utility.yul\":4746:4769   */\n      mcopy\n        /* \"#utility.yul\":4803:4804   */\n      0x00\n        /* \"#utility.yul\":4794:4800   */\n      dup4\n        /* \"#utility.yul\":4789:4792   */\n      dup4\n        /* \"#utility.yul\":4785:4801   */\n      add\n        /* \"#utility.yul\":4778:4805   */\n      mstore\n        /* \"#utility.yul\":4673:4812   */\n      pop\n      pop\n      pop\n      jump\t// out\n        /* \"#utility.yul\":4818:4920   */\n    tag_155:\n        /* \"#utility.yul\":4859:4865   */\n      0x00\n        /* \"#utility.yul\":4910:4912   */\n      0x1f\n        /* \"#utility.yul\":4906:4913   */\n      not\n        /* \"#utility.yul\":4901:4903   */\n      0x1f\n        /* \"#utility.yul\":4894:4899   */\n      dup4\n        /* \"#utility.yul\":4890:4904   */\n      add\n        /* \"#utility.yul\":4886:4914   */\n      and\n        /* \"#utility.yul\":4876:4914   */\n      swap1\n      pop\n        /* \"#utility.yul\":4818:4920   */\n      swap2\n      swap1\n      pop\n      jump\t// out\n        /* \"#utility.yul\":4926:5303   */\n    tag_156:\n        /* \"#utility.yul\":5014:5017   */\n      0x00\n        /* \"#utility.yul\":5042:5081   */\n      tag_258\n        /* \"#utility.yul\":5075:5080   */\n      dup3\n        /* \"#utility.yul\":5042:5081   */\n      tag_152\n      jump\t// in\n    tag_258:\n        /* \"#utility.yul\":5097:5168   */\n      tag_259\n        /* \"#utility.yul\":5161:5167   */\n      dup2\n        /* \"#utility.yul\":5156:5159   */\n      dup6\n        /* \"#utility.yul\":5097:5168   */\n      tag_153\n      jump\t// in\n    tag_259:\n        /* \"#utility.yul\":5090:5168   */\n      swap4\n      pop\n        /* \"#utility.yul\":5177:5242   */\n      tag_260\n        /* \"#utility.yul\":5235:5241   */\n      dup2\n        /* \"#utility.yul\":5230:5233   */\n      dup6\n        /* \"#utility.yul\":5223:5227   */\n      0x20\n        /* \"#utility.yul\":5216:5221   */\n      dup7\n        /* \"#utility.yul\":5212:5228   */\n      add\n        /* \"#utility.yul\":5177:5242   */\n      tag_154\n      jump\t// in\n    tag_260:\n        /* \"#utility.yul\":5267:5296   */\n      tag_261\n        /* \"#utility.yul\":5289:5295   */\n      dup2\n        /* \"#utility.yul\":5267:5296   */\n      tag_155\n      jump\t// in\n    tag_261:\n        /* \"#utility.yul\":5262:5265   */\n      dup5\n        /* \"#utility.yul\":5258:5297   */\n      add\n        /* \"#utility.yul\":5251:5297   */\n      swap2\n      pop\n        /* \"#utility.yul\":5018:5303   */\n      pop\n        /* \"#utility.yul\":4926:5303   */\n      swap3\n      swap2\n      pop\n      pop\n      jump\t// out\n        /* \"#utility.yul\":5309:5399   */\n    tag_157:\n        /* \"#utility.yul\":5343:5350   */\n      0x00\n        /* \"#utility.yul\":5386:5391   */\n      dup2\n        /* \"#utility.yul\":5379:5392   */\n      iszero\n        /* \"#utility.yul\":5372:5393   */\n      iszero\n        /* \"#utility.yul\":5361:5393   */\n      swap1\n      pop\n        /* \"#utility.yul\":5309:5399   */\n      swap2\n      swap1\n      pop\n      jump\t// out\n        /* \"#utility.yul\":5405:5514   */\n    tag_158:\n        /* \"#utility.yul\":5486:5507   */\n      tag_264\n        /* \"#utility.yul\":5501:5506   */\n      dup2\n        /* \"#utility.yul\":5486:5507   */\n      tag_157\n      jump\t// in\n    tag_264:\n        /* \"#utility.yul\":5481:5484   */\n      dup3\n        /* \"#utility.yul\":5474:5508   */\n      mstore\n        /* \"#utility.yul\":5405:5514   */\n      pop\n      pop\n      jump\t// out\n        /* \"#utility.yul\":5520:6243   */\n    tag_51:\n        /* \"#utility.yul\":5731:5735   */\n      0x00\n        /* \"#utility.yul\":5769:5772   */\n      0x80\n        /* \"#utility.yul\":5758:5767   */\n      dup3\n        /* \"#utility.yul\":5754:5773   */\n      add\n        /* \"#utility.yul\":5746:5773   */\n      swap1\n      pop\n        /* \"#utility.yul\":5819:5828   */\n      dup2\n        /* \"#utility.yul\":5813:5817   */\n      dup2\n        /* \"#utility.yul\":5809:5829   */\n      sub\n        /* \"#utility.yul\":5805:5806   */\n      0x00\n        /* \"#utility.yul\":5794:5803   */\n      dup4\n        /* \"#utility.yul\":5790:5807   */\n      add\n        /* \"#utility.yul\":5783:5830   */\n      mstore\n        /* \"#utility.yul\":5847:5925   */\n      tag_266\n        /* \"#utility.yul\":5920:5924   */\n      dup2\n        /* \"#utility.yul\":5911:5917   */\n      dup8\n        /* \"#utility.yul\":5847:5925   */\n      tag_156\n      jump\t// in\n    tag_266:\n        /* \"#utility.yul\":5839:5925   */\n      swap1\n      pop\n        /* \"#utility.yul\":5972:5981   */\n      dup2\n        /* \"#utility.yul\":5966:5970   */\n      dup2\n        /* \"#utility.yul\":5962:5982   */\n      sub\n        /* \"#utility.yul\":5957:5959   */\n      0x20\n        /* \"#utility.yul\":5946:5955   */\n      dup4\n        /* \"#utility.yul\":5942:5960   */\n      add\n        /* \"#utility.yul\":5935:5983   */\n      mstore\n        /* \"#utility.yul\":6000:6078   */\n      tag_267\n        /* \"#utility.yul\":6073:6077   */\n      dup2\n        /* \"#utility.yul\":6064:6070   */\n      dup7\n        /* \"#utility.yul\":6000:6078   */\n      tag_156\n      jump\t// in\n    tag_267:\n        /* \"#utility.yul\":5992:6078   */\n      swap1\n      pop\n        /* \"#utility.yul\":6088:6160   */\n      tag_268\n        /* \"#utility.yul\":6156:6158   */\n      0x40\n        /* \"#utility.yul\":6145:6154   */\n      dup4\n        /* \"#utility.yul\":6141:6159   */\n      add\n        /* \"#utility.yul\":6132:6138   */\n      dup6\n        /* \"#utility.yul\":6088:6160   */\n      tag_142\n      jump\t// in\n    tag_268:\n        /* \"#utility.yul\":6170:6236   */\n      tag_269\n        /* \"#utility.yul\":6232:6234   */\n      0x60\n        /* \"#utility.yul\":6221:6230   */\n      dup4\n        /* \"#utility.yul\":6217:6235   */\n      add\n        /* \"#utility.yul\":6208:6214   */\n      dup5\n        /* \"#utility.yul\":6170:6236   */\n      tag_158\n      jump\t// in\n    tag_269:\n        /* \"#utility.yul\":5520:6243   */\n      swap6\n      swap5\n      pop\n      pop\n      pop\n      pop\n      pop\n      jump\t// out\n        /* \"#utility.yul\":6249:6427   */\n    tag_159:\n        /* \"#utility.yul\":6389:6419   */\n      0x536f6c6f20656c206f776e657220707565646520656a65637574617200000000\n        /* \"#utility.yul\":6385:6386   */\n      0x00\n        /* \"#utility.yul\":6377:6383   */\n      dup3\n        /* \"#utility.yul\":6373:6387   */\n      add\n        /* \"#utility.yul\":6366:6420   */\n      mstore\n        /* \"#utility.yul\":6249:6427   */\n      pop\n      jump\t// out\n        /* \"#utility.yul\":6433:6799   */\n    tag_160:\n        /* \"#utility.yul\":6575:6578   */\n      0x00\n        /* \"#utility.yul\":6596:6663   */\n      tag_272\n        /* \"#utility.yul\":6660:6662   */\n      0x1c\n        /* \"#utility.yul\":6655:6658   */\n      dup4\n        /* \"#utility.yul\":6596:6663   */\n      tag_153\n      jump\t// in\n    tag_272:\n        /* \"#utility.yul\":6589:6663   */\n      swap2\n      pop\n        /* \"#utility.yul\":6672:6765   */\n      tag_273\n        /* \"#utility.yul\":6761:6764   */\n      dup3\n        /* \"#utility.yul\":6672:6765   */\n      tag_159\n      jump\t// in\n    tag_273:\n        /* \"#utility.yul\":6790:6792   */\n      0x20\n        /* \"#utility.yul\":6785:6788   */\n      dup3\n        /* \"#utility.yul\":6781:6793   */\n      add\n        /* \"#utility.yul\":6774:6793   */\n      swap1\n      pop\n        /* \"#utility.yul\":6433:6799   */\n      swap2\n      swap1\n      pop\n      jump\t// out\n        /* \"#utility.yul\":6805:7224   */\n    tag_61:\n        /* \"#utility.yul\":6971:6975   */\n      0x00\n        /* \"#utility.yul\":7009:7011   */\n      0x20\n        /* \"#utility.yul\":6998:7007   */\n      dup3\n        /* \"#utility.yul\":6994:7012   */\n      add\n        /* \"#utility.yul\":6986:7012   */\n      swap1\n      pop\n        /* \"#utility.yul\":7058:7067   */\n      dup2\n        /* \"#utility.yul\":7052:7056   */\n      dup2\n        /* \"#utility.yul\":7048:7068   */\n      sub\n        /* \"#utility.yul\":7044:7045   */\n      0x00\n        /* \"#utility.yul\":7033:7042   */\n      dup4\n        /* \"#utility.yul\":7029:7046   */\n      add\n        /* \"#utility.yul\":7022:7069   */\n      mstore\n        /* \"#utility.yul\":7086:7217   */\n      tag_275\n        /* \"#utility.yul\":7212:7216   */\n      dup2\n        /* \"#utility.yul\":7086:7217   */\n      tag_160\n      jump\t// in\n    tag_275:\n        /* \"#utility.yul\":7078:7217   */\n      swap1\n      pop\n        /* \"#utility.yul\":6805:7224   */\n      swap2\n      swap1\n      pop\n      jump\t// out\n        /* \"#utility.yul\":7230:7407   */\n    tag_161:\n        /* \"#utility.yul\":7370:7399   */\n      0x4d6f6e746f206465626520736572206d61796f722061206365726f0000000000\n        /* \"#utility.yul\":7366:7367   */\n      0x00\n        /* \"#utility.yul\":7358:7364   */\n      dup3\n        /* \"#utility.yul\":7354:7368   */\n      add\n        /* \"#utility.yul\":7347:7400   */\n      mstore\n        /* \"#utility.yul\":7230:7407   */\n      pop\n      jump\t// out\n        /* \"#utility.yul\":7413:7779   */\n    tag_162:\n        /* \"#utility.yul\":7555:7558   */\n      0x00\n        /* \"#utility.yul\":7576:7643   */\n      tag_278\n        /* \"#utility.yul\":7640:7642   */\n      0x1b\n        /* \"#utility.yul\":7635:7638   */\n      dup4\n        /* \"#utility.yul\":7576:7643   */\n      tag_153\n      jump\t// in\n    tag_278:\n        /* \"#utility.yul\":7569:7643   */\n      swap2\n      pop\n        /* \"#utility.yul\":7652:7745   */\n      tag_279\n        /* \"#utility.yul\":7741:7744   */\n      dup3\n        /* \"#utility.yul\":7652:7745   */\n      tag_161\n      jump\t// in\n    tag_279:\n        /* \"#utility.yul\":7770:7772   */\n      0x20\n        /* \"#utility.yul\":7765:7768   */\n      dup3\n        /* \"#utility.yul\":7761:7773   */\n      add\n        /* \"#utility.yul\":7754:7773   */\n      swap1\n      pop\n        /* \"#utility.yul\":7413:7779   */\n      swap2\n      swap1\n      pop\n      jump\t// out\n        /* \"#utility.yul\":7785:8204   */\n    tag_65:\n        /* \"#utility.yul\":7951:7955   */\n      0x00\n        /* \"#utility.yul\":7989:7991   */\n      0x20\n        /* \"#utility.yul\":7978:7987   */\n      dup3\n        /* \"#utility.yul\":7974:7992   */\n      add\n        /* \"#utility.yul\":7966:7992   */\n      swap1\n      pop\n        /* \"#utility.yul\":8038:8047   */\n      dup2\n        /* \"#utility.yul\":8032:8036   */\n      dup2\n        /* \"#utility.yul\":8028:8048   */\n      sub\n        /* \"#utility.yul\":8024:8025   */\n      0x00\n        /* \"#utility.yul\":8013:8022   */\n      dup4\n        /* \"#utility.yul\":8009:8026   */\n      add\n        /* \"#utility.yul\":8002:8049   */\n      mstore\n        /* \"#utility.yul\":8066:8197   */\n      tag_281\n        /* \"#utility.yul\":8192:8196   */\n      dup2\n        /* \"#utility.yul\":8066:8197   */\n      tag_162\n      jump\t// in\n    tag_281:\n        /* \"#utility.yul\":8058:8197   */\n      swap1\n      pop\n        /* \"#utility.yul\":7785:8204   */\n      swap2\n      swap1\n      pop\n      jump\t// out\n        /* \"#utility.yul\":8210:8430   */\n    tag_163:\n        /* \"#utility.yul\":8350:8384   */\n      0x42616c616e6365206465207465736f726572696120696e737566696369656e74\n        /* \"#utility.yul\":8346:8347   */\n      0x00\n        /* \"#utility.yul\":8338:8344   */\n      dup3\n        /* \"#utility.yul\":8334:8348   */\n      add\n        /* \"#utility.yul\":8327:8385   */\n      mstore\n        /* \"#utility.yul\":8419:8422   */\n      0x6500000000000000000000000000000000000000000000000000000000000000\n        /* \"#utility.yul\":8414:8416   */\n      0x20\n        /* \"#utility.yul\":8406:8412   */\n      dup3\n        /* \"#utility.yul\":8402:8417   */\n      add\n        /* \"#utility.yul\":8395:8423   */\n      mstore\n        /* \"#utility.yul\":8210:8430   */\n      pop\n      jump\t// out\n        /* \"#utility.yul\":8436:8802   */\n    tag_164:\n        /* \"#utility.yul\":8578:8581   */\n      0x00\n        /* \"#utility.yul\":8599:8666   */\n      tag_284\n        /* \"#utility.yul\":8663:8665   */\n      0x21\n        /* \"#utility.yul\":8658:8661   */\n      dup4\n        /* \"#utility.yul\":8599:8666   */\n      tag_153\n      jump\t// in\n    tag_284:\n        /* \"#utility.yul\":8592:8666   */\n      swap2\n      pop\n        /* \"#utility.yul\":8675:8768   */\n      tag_285\n        /* \"#utility.yul\":8764:8767   */\n      dup3\n        /* \"#utility.yul\":8675:8768   */\n      tag_163\n      jump\t// in\n    tag_285:\n        /* \"#utility.yul\":8793:8795   */\n      0x40\n        /* \"#utility.yul\":8788:8791   */\n      dup3\n        /* \"#utility.yul\":8784:8796   */\n      add\n        /* \"#utility.yul\":8777:8796   */\n      swap1\n      pop\n        /* \"#utility.yul\":8436:8802   */\n      swap2\n      swap1\n      pop\n      jump\t// out\n        /* \"#utility.yul\":8808:9227   */\n    tag_68:\n        /* \"#utility.yul\":8974:8978   */\n      0x00\n        /* \"#utility.yul\":9012:9014   */\n      0x20\n        /* \"#utility.yul\":9001:9010   */\n      dup3\n        /* \"#utility.yul\":8997:9015   */\n      add\n        /* \"#utility.yul\":8989:9015   */\n      swap1\n      pop\n        /* \"#utility.yul\":9061:9070   */\n      dup2\n        /* \"#utility.yul\":9055:9059   */\n      dup2\n        /* \"#utility.yul\":9051:9071   */\n      sub\n        /* \"#utility.yul\":9047:9048   */\n      0x00\n        /* \"#utility.yul\":9036:9045   */\n      dup4\n        /* \"#utility.yul\":9032:9049   */\n      add\n        /* \"#utility.yul\":9025:9072   */\n      mstore\n        /* \"#utility.yul\":9089:9220   */\n      tag_287\n        /* \"#utility.yul\":9215:9219   */\n      dup2\n        /* \"#utility.yul\":9089:9220   */\n      tag_164\n      jump\t// in\n    tag_287:\n        /* \"#utility.yul\":9081:9220   */\n      swap1\n      pop\n        /* \"#utility.yul\":8808:9227   */\n      swap2\n      swap1\n      pop\n      jump\t// out\n        /* \"#utility.yul\":9233:9413   */\n    tag_165:\n        /* \"#utility.yul\":9281:9358   */\n      0x4e487b7100000000000000000000000000000000000000000000000000000000\n        /* \"#utility.yul\":9278:9279   */\n      0x00\n        /* \"#utility.yul\":9271:9359   */\n      mstore\n        /* \"#utility.yul\":9378:9382   */\n      0x11\n        /* \"#utility.yul\":9375:9376   */\n      0x04\n        /* \"#utility.yul\":9368:9383   */\n      mstore\n        /* \"#utility.yul\":9402:9406   */\n      0x24\n        /* \"#utility.yul\":9399:9400   */\n      0x00\n        /* \"#utility.yul\":9392:9407   */\n      revert\n        /* \"#utility.yul\":9419:9613   */\n    tag_70:\n        /* \"#utility.yul\":9459:9463   */\n      0x00\n        /* \"#utility.yul\":9479:9499   */\n      tag_290\n        /* \"#utility.yul\":9497:9498   */\n      dup3\n        /* \"#utility.yul\":9479:9499   */\n      tag_139\n      jump\t// in\n    tag_290:\n        /* \"#utility.yul\":9474:9499   */\n      swap2\n      pop\n        /* \"#utility.yul\":9513:9533   */\n      tag_291\n        /* \"#utility.yul\":9531:9532   */\n      dup4\n        /* \"#utility.yul\":9513:9533   */\n      tag_139\n      jump\t// in\n    tag_291:\n        /* \"#utility.yul\":9508:9533   */\n      swap3\n      pop\n        /* \"#utility.yul\":9557:9558   */\n      dup3\n        /* \"#utility.yul\":9554:9555   */\n      dup3\n        /* \"#utility.yul\":9550:9559   */\n      sub\n        /* \"#utility.yul\":9542:9559   */\n      swap1\n      pop\n        /* \"#utility.yul\":9581:9582   */\n      dup2\n        /* \"#utility.yul\":9575:9579   */\n      dup2\n        /* \"#utility.yul\":9572:9583   */\n      gt\n        /* \"#utility.yul\":9569:9606   */\n      iszero\n      tag_292\n      jumpi\n        /* \"#utility.yul\":9586:9604   */\n      tag_293\n      tag_165\n      jump\t// in\n    tag_293:\n        /* \"#utility.yul\":9569:9606   */\n    tag_292:\n        /* \"#utility.yul\":9419:9613   */\n      swap3\n      swap2\n      pop\n      pop\n      jump\t// out\n        /* \"#utility.yul\":9619:9790   */\n    tag_166:\n        /* \"#utility.yul\":9759:9782   */\n      0x5573756172696f206e6f207265676973747261646f0000000000000000000000\n        /* \"#utility.yul\":9755:9756   */\n      0x00\n        /* \"#utility.yul\":9747:9753   */\n      dup3\n        /* \"#utility.yul\":9743:9757   */\n      add\n        /* \"#utility.yul\":9736:9783   */\n      mstore\n        /* \"#utility.yul\":9619:9790   */\n      pop\n      jump\t// out\n        /* \"#utility.yul\":9796:10162   */\n    tag_167:\n        /* \"#utility.yul\":9938:9941   */\n      0x00\n        /* \"#utility.yul\":9959:10026   */\n      tag_296\n        /* \"#utility.yul\":10023:10025   */\n      0x15\n        /* \"#utility.yul\":10018:10021   */\n      dup4\n        /* \"#utility.yul\":9959:10026   */\n      tag_153\n      jump\t// in\n    tag_296:\n        /* \"#utility.yul\":9952:10026   */\n      swap2\n      pop\n        /* \"#utility.yul\":10035:10128   */\n      tag_297\n        /* \"#utility.yul\":10124:10127   */\n      dup3\n        /* \"#utility.yul\":10035:10128   */\n      tag_166\n      jump\t// in\n    tag_297:\n        /* \"#utility.yul\":10153:10155   */\n      0x20\n        /* \"#utility.yul\":10148:10151   */\n      dup3\n        /* \"#utility.yul\":10144:10156   */\n      add\n        /* \"#utility.yul\":10137:10156   */\n      swap1\n      pop\n        /* \"#utility.yul\":9796:10162   */\n      swap2\n      swap1\n      pop\n      jump\t// out\n        /* \"#utility.yul\":10168:10587   */\n    tag_77:\n        /* \"#utility.yul\":10334:10338   */\n      0x00\n        /* \"#utility.yul\":10372:10374   */\n      0x20\n        /* \"#utility.yul\":10361:10370   */\n      dup3\n        /* \"#utility.yul\":10357:10375   */\n      add\n        /* \"#utility.yul\":10349:10375   */\n      swap1\n      pop\n        /* \"#utility.yul\":10421:10430   */\n      dup2\n        /* \"#utility.yul\":10415:10419   */\n      dup2\n        /* \"#utility.yul\":10411:10431   */\n      sub\n        /* \"#utility.yul\":10407:10408   */\n      0x00\n        /* \"#utility.yul\":10396:10405   */\n      dup4\n        /* \"#utility.yul\":10392:10409   */\n      add\n        /* \"#utility.yul\":10385:10432   */\n      mstore\n        /* \"#utility.yul\":10449:10580   */\n      tag_299\n        /* \"#utility.yul\":10575:10579   */\n      dup2\n        /* \"#utility.yul\":10449:10580   */\n      tag_167\n      jump\t// in\n    tag_299:\n        /* \"#utility.yul\":10441:10580   */\n      swap1\n      pop\n        /* \"#utility.yul\":10168:10587   */\n      swap2\n      swap1\n      pop\n      jump\t// out\n        /* \"#utility.yul\":10593:10817   */\n    tag_168:\n        /* \"#utility.yul\":10733:10767   */\n      0x4d6f6e746f2064652072657469726f206465626520736572206d61796f722061\n        /* \"#utility.yul\":10729:10730   */\n      0x00\n        /* \"#utility.yul\":10721:10727   */\n      dup3\n        /* \"#utility.yul\":10717:10731   */\n      add\n        /* \"#utility.yul\":10710:10768   */\n      mstore\n        /* \"#utility.yul\":10802:10809   */\n      0x206365726f000000000000000000000000000000000000000000000000000000\n        /* \"#utility.yul\":10797:10799   */\n      0x20\n        /* \"#utility.yul\":10789:10795   */\n      dup3\n        /* \"#utility.yul\":10785:10800   */\n      add\n        /* \"#utility.yul\":10778:10810   */\n      mstore\n        /* \"#utility.yul\":10593:10817   */\n      pop\n      jump\t// out\n        /* \"#utility.yul\":10823:11189   */\n    tag_169:\n        /* \"#utility.yul\":10965:10968   */\n      0x00\n        /* \"#utility.yul\":10986:11053   */\n      tag_302\n        /* \"#utility.yul\":11050:11052   */\n      0x25\n        /* \"#utility.yul\":11045:11048   */\n      dup4\n        /* \"#utility.yul\":10986:11053   */\n      tag_153\n      jump\t// in\n    tag_302:\n        /* \"#utility.yul\":10979:11053   */\n      swap2\n      pop\n        /* \"#utility.yul\":11062:11155   */\n      tag_303\n        /* \"#utility.yul\":11151:11154   */\n      dup3\n        /* \"#utility.yul\":11062:11155   */\n      tag_168\n      jump\t// in\n    tag_303:\n        /* \"#utility.yul\":11180:11182   */\n      0x40\n        /* \"#utility.yul\":11175:11178   */\n      dup3\n        /* \"#utility.yul\":11171:11183   */\n      add\n        /* \"#utility.yul\":11164:11183   */\n      swap1\n      pop\n        /* \"#utility.yul\":10823:11189   */\n      swap2\n      swap1\n      pop\n      jump\t// out\n        /* \"#utility.yul\":11195:11614   */\n    tag_85:\n        /* \"#utility.yul\":11361:11365   */\n      0x00\n        /* \"#utility.yul\":11399:11401   */\n      0x20\n        /* \"#utility.yul\":11388:11397   */\n      dup3\n        /* \"#utility.yul\":11384:11402   */\n      add\n        /* \"#utility.yul\":11376:11402   */\n      swap1\n      pop\n        /* \"#utility.yul\":11448:11457   */\n      dup2\n        /* \"#utility.yul\":11442:11446   */\n      dup2\n        /* \"#utility.yul\":11438:11458   */\n      sub\n        /* \"#utility.yul\":11434:11435   */\n      0x00\n        /* \"#utility.yul\":11423:11432   */\n      dup4\n        /* \"#utility.yul\":11419:11436   */\n      add\n        /* \"#utility.yul\":11412:11459   */\n      mstore\n        /* \"#utility.yul\":11476:11607   */\n      tag_305\n        /* \"#utility.yul\":11602:11606   */\n      dup2\n        /* \"#utility.yul\":11476:11607   */\n      tag_169\n      jump\t// in\n    tag_305:\n        /* \"#utility.yul\":11468:11607   */\n      swap1\n      pop\n        /* \"#utility.yul\":11195:11614   */\n      swap2\n      swap1\n      pop\n      jump\t// out\n        /* \"#utility.yul\":11620:11788   */\n    tag_170:\n        /* \"#utility.yul\":11760:11780   */\n      0x53616c646f20696e737566696369656e74650000000000000000000000000000\n        /* \"#utility.yul\":11756:11757   */\n      0x00\n        /* \"#utility.yul\":11748:11754   */\n      dup3\n        /* \"#utility.yul\":11744:11758   */\n      add\n        /* \"#utility.yul\":11737:11781   */\n      mstore\n        /* \"#utility.yul\":11620:11788   */\n      pop\n      jump\t// out\n        /* \"#utility.yul\":11794:12160   */\n    tag_171:\n        /* \"#utility.yul\":11936:11939   */\n      0x00\n        /* \"#utility.yul\":11957:12024   */\n      tag_308\n        /* \"#utility.yul\":12021:12023   */\n      0x12\n        /* \"#utility.yul\":12016:12019   */\n      dup4\n        /* \"#utility.yul\":11957:12024   */\n      tag_153\n      jump\t// in\n    tag_308:\n        /* \"#utility.yul\":11950:12024   */\n      swap2\n      pop\n        /* \"#utility.yul\":12033:12126   */\n      tag_309\n        /* \"#utility.yul\":12122:12125   */\n      dup3\n        /* \"#utility.yul\":12033:12126   */\n      tag_170\n      jump\t// in\n    tag_309:\n        /* \"#utility.yul\":12151:12153   */\n      0x20\n        /* \"#utility.yul\":12146:12149   */\n      dup3\n        /* \"#utility.yul\":12142:12154   */\n      add\n        /* \"#utility.yul\":12135:12154   */\n      swap1\n      pop\n        /* \"#utility.yul\":11794:12160   */\n      swap2\n      swap1\n      pop\n      jump\t// out\n        /* \"#utility.yul\":12166:12585   */\n    tag_88:\n        /* \"#utility.yul\":12332:12336   */\n      0x00\n        /* \"#utility.yul\":12370:12372   */\n      0x20\n        /* \"#utility.yul\":12359:12368   */\n      dup3\n        /* \"#utility.yul\":12355:12373   */\n      add\n        /* \"#utility.yul\":12347:12373   */\n      swap1\n      pop\n        /* \"#utility.yul\":12419:12428   */\n      dup2\n        /* \"#utility.yul\":12413:12417   */\n      dup2\n        /* \"#utility.yul\":12409:12429   */\n      sub\n        /* \"#utility.yul\":12405:12406   */\n      0x00\n        /* \"#utility.yul\":12394:12403   */\n      dup4\n        /* \"#utility.yul\":12390:12407   */\n      add\n        /* \"#utility.yul\":12383:12430   */\n      mstore\n        /* \"#utility.yul\":12447:12578   */\n      tag_311\n        /* \"#utility.yul\":12573:12577   */\n      dup2\n        /* \"#utility.yul\":12447:12578   */\n      tag_171\n      jump\t// in\n    tag_311:\n        /* \"#utility.yul\":12439:12578   */\n      swap1\n      pop\n        /* \"#utility.yul\":12166:12585   */\n      swap2\n      swap1\n      pop\n      jump\t// out\n        /* \"#utility.yul\":12591:13001   */\n    tag_90:\n        /* \"#utility.yul\":12631:12638   */\n      0x00\n        /* \"#utility.yul\":12654:12674   */\n      tag_313\n        /* \"#utility.yul\":12672:12673   */\n      dup3\n        /* \"#utility.yul\":12654:12674   */\n      tag_139\n      jump\t// in\n    tag_313:\n        /* \"#utility.yul\":12649:12674   */\n      swap2\n      pop\n        /* \"#utility.yul\":12688:12708   */\n      tag_314\n        /* \"#utility.yul\":12706:12707   */\n      dup4\n        /* \"#utility.yul\":12688:12708   */\n      tag_139\n      jump\t// in\n    tag_314:\n        /* \"#utility.yul\":12683:12708   */\n      swap3\n      pop\n        /* \"#utility.yul\":12743:12744   */\n      dup3\n        /* \"#utility.yul\":12740:12741   */\n      dup3\n        /* \"#utility.yul\":12736:12745   */\n      mul\n        /* \"#utility.yul\":12765:12795   */\n      tag_315\n        /* \"#utility.yul\":12783:12794   */\n      dup2\n        /* \"#utility.yul\":12765:12795   */\n      tag_139\n      jump\t// in\n    tag_315:\n        /* \"#utility.yul\":12754:12795   */\n      swap2\n      pop\n        /* \"#utility.yul\":12944:12945   */\n      dup3\n        /* \"#utility.yul\":12935:12942   */\n      dup3\n        /* \"#utility.yul\":12931:12946   */\n      div\n        /* \"#utility.yul\":12928:12929   */\n      dup5\n        /* \"#utility.yul\":12925:12947   */\n      eq\n        /* \"#utility.yul\":12905:12906   */\n      dup4\n        /* \"#utility.yul\":12898:12907   */\n      iszero\n        /* \"#utility.yul\":12878:12961   */\n      or\n        /* \"#utility.yul\":12855:12994   */\n      tag_316\n      jumpi\n        /* \"#utility.yul\":12974:12992   */\n      tag_317\n      tag_165\n      jump\t// in\n    tag_317:\n        /* \"#utility.yul\":12855:12994   */\n    tag_316:\n        /* \"#utility.yul\":12639:13001   */\n      pop\n        /* \"#utility.yul\":12591:13001   */\n      swap3\n      swap2\n      pop\n      pop\n      jump\t// out\n        /* \"#utility.yul\":13007:13187   */\n    tag_172:\n        /* \"#utility.yul\":13055:13132   */\n      0x4e487b7100000000000000000000000000000000000000000000000000000000\n        /* \"#utility.yul\":13052:13053   */\n      0x00\n        /* \"#utility.yul\":13045:13133   */\n      mstore\n        /* \"#utility.yul\":13152:13156   */\n      0x12\n        /* \"#utility.yul\":13149:13150   */\n      0x04\n        /* \"#utility.yul\":13142:13157   */\n      mstore\n        /* \"#utility.yul\":13176:13180   */\n      0x24\n        /* \"#utility.yul\":13173:13174   */\n      0x00\n        /* \"#utility.yul\":13166:13181   */\n      revert\n        /* \"#utility.yul\":13193:13378   */\n    tag_92:\n        /* \"#utility.yul\":13233:13234   */\n      0x00\n        /* \"#utility.yul\":13250:13270   */\n      tag_320\n        /* \"#utility.yul\":13268:13269   */\n      dup3\n        /* \"#utility.yul\":13250:13270   */\n      tag_139\n      jump\t// in\n    tag_320:\n        /* \"#utility.yul\":13245:13270   */\n      swap2\n      pop\n        /* \"#utility.yul\":13284:13304   */\n      tag_321\n        /* \"#utility.yul\":13302:13303   */\n      dup4\n        /* \"#utility.yul\":13284:13304   */\n      tag_139\n      jump\t// in\n    tag_321:\n        /* \"#utility.yul\":13279:13304   */\n      swap3\n      pop\n        /* \"#utility.yul\":13323:13324   */\n      dup3\n        /* \"#utility.yul\":13313:13348   */\n      tag_322\n      jumpi\n        /* \"#utility.yul\":13328:13346   */\n      tag_323\n      tag_172\n      jump\t// in\n    tag_323:\n        /* \"#utility.yul\":13313:13348   */\n    tag_322:\n        /* \"#utility.yul\":13370:13371   */\n      dup3\n        /* \"#utility.yul\":13367:13368   */\n      dup3\n        /* \"#utility.yul\":13363:13372   */\n      div\n        /* \"#utility.yul\":13358:13372   */\n      swap1\n      pop\n        /* \"#utility.yul\":13193:13378   */\n      swap3\n      swap2\n      pop\n      pop\n      jump\t// out\n        /* \"#utility.yul\":13384:13575   */\n    tag_96:\n        /* \"#utility.yul\":13424:13427   */\n      0x00\n        /* \"#utility.yul\":13443:13463   */\n      tag_325\n        /* \"#utility.yul\":13461:13462   */\n      dup3\n        /* \"#utility.yul\":13443:13463   */\n      tag_139\n      jump\t// in\n    tag_325:\n        /* \"#utility.yul\":13438:13463   */\n      swap2\n      pop\n        /* \"#utility.yul\":13477:13497   */\n      tag_326\n        /* \"#utility.yul\":13495:13496   */\n      dup4\n        /* \"#utility.yul\":13477:13497   */\n      tag_139\n      jump\t// in\n    tag_326:\n        /* \"#utility.yul\":13472:13497   */\n      swap3\n      pop\n        /* \"#utility.yul\":13520:13521   */\n      dup3\n        /* \"#utility.yul\":13517:13518   */\n      dup3\n        /* \"#utility.yul\":13513:13522   */\n      add\n        /* \"#utility.yul\":13506:13522   */\n      swap1\n      pop\n        /* \"#utility.yul\":13541:13544   */\n      dup1\n        /* \"#utility.yul\":13538:13539   */\n      dup3\n        /* \"#utility.yul\":13535:13545   */\n      gt\n        /* \"#utility.yul\":13532:13568   */\n      iszero\n      tag_327\n      jumpi\n        /* \"#utility.yul\":13548:13566   */\n      tag_328\n      tag_165\n      jump\t// in\n    tag_328:\n        /* \"#utility.yul\":13532:13568   */\n    tag_327:\n        /* \"#utility.yul\":13384:13575   */\n      swap3\n      swap2\n      pop\n      pop\n      jump\t// out\n        /* \"#utility.yul\":13581:13913   */\n    tag_100:\n        /* \"#utility.yul\":13702:13706   */\n      0x00\n        /* \"#utility.yul\":13740:13742   */\n      0x40\n        /* \"#utility.yul\":13729:13738   */\n      dup3\n        /* \"#utility.yul\":13725:13743   */\n      add\n        /* \"#utility.yul\":13717:13743   */\n      swap1\n      pop\n        /* \"#utility.yul\":13753:13824   */\n      tag_330\n        /* \"#utility.yul\":13821:13822   */\n      0x00\n        /* \"#utility.yul\":13810:13819   */\n      dup4\n        /* \"#utility.yul\":13806:13823   */\n      add\n        /* \"#utility.yul\":13797:13803   */\n      dup6\n        /* \"#utility.yul\":13753:13824   */\n      tag_142\n      jump\t// in\n    tag_330:\n        /* \"#utility.yul\":13834:13906   */\n      tag_331\n        /* \"#utility.yul\":13902:13904   */\n      0x20\n        /* \"#utility.yul\":13891:13900   */\n      dup4\n        /* \"#utility.yul\":13887:13905   */\n      add\n        /* \"#utility.yul\":13878:13884   */\n      dup5\n        /* \"#utility.yul\":13834:13906   */\n      tag_142\n      jump\t// in\n    tag_331:\n        /* \"#utility.yul\":13581:13913   */\n      swap4\n      swap3\n      pop\n      pop\n      pop\n      jump\t// out\n        /* \"#utility.yul\":13919:14096   */\n    tag_173:\n        /* \"#utility.yul\":14059:14088   */\n      0x4e6f6d627265206e6f20707565646520657374617220766163696f0000000000\n        /* \"#utility.yul\":14055:14056   */\n      0x00\n        /* \"#utility.yul\":14047:14053   */\n      dup3\n        /* \"#utility.yul\":14043:14057   */\n      add\n        /* \"#utility.yul\":14036:14089   */\n      mstore\n        /* \"#utility.yul\":13919:14096   */\n      pop\n      jump\t// out\n        /* \"#utility.yul\":14102:14468   */\n    tag_174:\n        /* \"#utility.yul\":14244:14247   */\n      0x00\n        /* \"#utility.yul\":14265:14332   */\n      tag_334\n        /* \"#utility.yul\":14329:14331   */\n      0x1b\n        /* \"#utility.yul\":14324:14327   */\n      dup4\n        /* \"#utility.yul\":14265:14332   */\n      tag_153\n      jump\t// in\n    tag_334:\n        /* \"#utility.yul\":14258:14332   */\n      swap2\n      pop\n        /* \"#utility.yul\":14341:14434   */\n      tag_335\n        /* \"#utility.yul\":14430:14433   */\n      dup3\n        /* \"#utility.yul\":14341:14434   */\n      tag_173\n      jump\t// in\n    tag_335:\n        /* \"#utility.yul\":14459:14461   */\n      0x20\n        /* \"#utility.yul\":14454:14457   */\n      dup3\n        /* \"#utility.yul\":14450:14462   */\n      add\n        /* \"#utility.yul\":14443:14462   */\n      swap1\n      pop\n        /* \"#utility.yul\":14102:14468   */\n      swap2\n      swap1\n      pop\n      jump\t// out\n        /* \"#utility.yul\":14474:14893   */\n    tag_104:\n        /* \"#utility.yul\":14640:14644   */\n      0x00\n        /* \"#utility.yul\":14678:14680   */\n      0x20\n        /* \"#utility.yul\":14667:14676   */\n      dup3\n        /* \"#utility.yul\":14663:14681   */\n      add\n        /* \"#utility.yul\":14655:14681   */\n      swap1\n      pop\n        /* \"#utility.yul\":14727:14736   */\n      dup2\n        /* \"#utility.yul\":14721:14725   */\n      dup2\n        /* \"#utility.yul\":14717:14737   */\n      sub\n        /* \"#utility.yul\":14713:14714   */\n      0x00\n        /* \"#utility.yul\":14702:14711   */\n      dup4\n        /* \"#utility.yul\":14698:14715   */\n      add\n        /* \"#utility.yul\":14691:14738   */\n      mstore\n        /* \"#utility.yul\":14755:14886   */\n      tag_337\n        /* \"#utility.yul\":14881:14885   */\n      dup2\n        /* \"#utility.yul\":14755:14886   */\n      tag_174\n      jump\t// in\n    tag_337:\n        /* \"#utility.yul\":14747:14886   */\n      swap1\n      pop\n        /* \"#utility.yul\":14474:14893   */\n      swap2\n      swap1\n      pop\n      jump\t// out\n        /* \"#utility.yul\":14899:15078   */\n    tag_175:\n        /* \"#utility.yul\":15039:15070   */\n      0x4170656c6c69646f206e6f20707565646520657374617220766163696f000000\n        /* \"#utility.yul\":15035:15036   */\n      0x00\n        /* \"#utility.yul\":15027:15033   */\n      dup3\n        /* \"#utility.yul\":15023:15037   */\n      add\n        /* \"#utility.yul\":15016:15071   */\n      mstore\n        /* \"#utility.yul\":14899:15078   */\n      pop\n      jump\t// out\n        /* \"#utility.yul\":15084:15450   */\n    tag_176:\n        /* \"#utility.yul\":15226:15229   */\n      0x00\n        /* \"#utility.yul\":15247:15314   */\n      tag_340\n        /* \"#utility.yul\":15311:15313   */\n      0x1d\n        /* \"#utility.yul\":15306:15309   */\n      dup4\n        /* \"#utility.yul\":15247:15314   */\n      tag_153\n      jump\t// in\n    tag_340:\n        /* \"#utility.yul\":15240:15314   */\n      swap2\n      pop\n        /* \"#utility.yul\":15323:15416   */\n      tag_341\n        /* \"#utility.yul\":15412:15415   */\n      dup3\n        /* \"#utility.yul\":15323:15416   */\n      tag_175\n      jump\t// in\n    tag_341:\n        /* \"#utility.yul\":15441:15443   */\n      0x20\n        /* \"#utility.yul\":15436:15439   */\n      dup3\n        /* \"#utility.yul\":15432:15444   */\n      add\n        /* \"#utility.yul\":15425:15444   */\n      swap1\n      pop\n        /* \"#utility.yul\":15084:15450   */\n      swap2\n      swap1\n      pop\n      jump\t// out\n        /* \"#utility.yul\":15456:15875   */\n    tag_107:\n        /* \"#utility.yul\":15622:15626   */\n      0x00\n        /* \"#utility.yul\":15660:15662   */\n      0x20\n        /* \"#utility.yul\":15649:15658   */\n      dup3\n        /* \"#utility.yul\":15645:15663   */\n      add\n        /* \"#utility.yul\":15637:15663   */\n      swap1\n      pop\n        /* \"#utility.yul\":15709:15718   */\n      dup2\n        /* \"#utility.yul\":15703:15707   */\n      dup2\n        /* \"#utility.yul\":15699:15719   */\n      sub\n        /* \"#utility.yul\":15695:15696   */\n      0x00\n        /* \"#utility.yul\":15684:15693   */\n      dup4\n        /* \"#utility.yul\":15680:15697   */\n      add\n        /* \"#utility.yul\":15673:15720   */\n      mstore\n        /* \"#utility.yul\":15737:15868   */\n      tag_343\n        /* \"#utility.yul\":15863:15867   */\n      dup2\n        /* \"#utility.yul\":15737:15868   */\n      tag_176\n      jump\t// in\n    tag_343:\n        /* \"#utility.yul\":15729:15868   */\n      swap1\n      pop\n        /* \"#utility.yul\":15456:15875   */\n      swap2\n      swap1\n      pop\n      jump\t// out\n        /* \"#utility.yul\":15881:16052   */\n    tag_177:\n        /* \"#utility.yul\":16021:16044   */\n      0x5573756172696f207961207265676973747261646f0000000000000000000000\n        /* \"#utility.yul\":16017:16018   */\n      0x00\n        /* \"#utility.yul\":16009:16015   */\n      dup3\n        /* \"#utility.yul\":16005:16019   */\n      add\n        /* \"#utility.yul\":15998:16045   */\n      mstore\n        /* \"#utility.yul\":15881:16052   */\n      pop\n      jump\t// out\n        /* \"#utility.yul\":16058:16424   */\n    tag_178:\n        /* \"#utility.yul\":16200:16203   */\n      0x00\n        /* \"#utility.yul\":16221:16288   */\n      tag_346\n        /* \"#utility.yul\":16285:16287   */\n      0x15\n        /* \"#utility.yul\":16280:16283   */\n      dup4\n        /* \"#utility.yul\":16221:16288   */\n      tag_153\n      jump\t// in\n    tag_346:\n        /* \"#utility.yul\":16214:16288   */\n      swap2\n      pop\n        /* \"#utility.yul\":16297:16390   */\n      tag_347\n        /* \"#utility.yul\":16386:16389   */\n      dup3\n        /* \"#utility.yul\":16297:16390   */\n      tag_177\n      jump\t// in\n    tag_347:\n        /* \"#utility.yul\":16415:16417   */\n      0x20\n        /* \"#utility.yul\":16410:16413   */\n      dup3\n        /* \"#utility.yul\":16406:16418   */\n      add\n        /* \"#utility.yul\":16399:16418   */\n      swap1\n      pop\n        /* \"#utility.yul\":16058:16424   */\n      swap2\n      swap1\n      pop\n      jump\t// out\n        /* \"#utility.yul\":16430:16849   */\n    tag_110:\n        /* \"#utility.yul\":16596:16600   */\n      0x00\n        /* \"#utility.yul\":16634:16636   */\n      0x20\n        /* \"#utility.yul\":16623:16632   */\n      dup3\n        /* \"#utility.yul\":16619:16637   */\n      add\n        /* \"#utility.yul\":16611:16637   */\n      swap1\n      pop\n        /* \"#utility.yul\":16683:16692   */\n      dup2\n        /* \"#utility.yul\":16677:16681   */\n      dup2\n        /* \"#utility.yul\":16673:16693   */\n      sub\n        /* \"#utility.yul\":16669:16670   */\n      0x00\n        /* \"#utility.yul\":16658:16667   */\n      dup4\n        /* \"#utility.yul\":16654:16671   */\n      add\n        /* \"#utility.yul\":16647:16694   */\n      mstore\n        /* \"#utility.yul\":16711:16842   */\n      tag_349\n        /* \"#utility.yul\":16837:16841   */\n      dup2\n        /* \"#utility.yul\":16711:16842   */\n      tag_178\n      jump\t// in\n    tag_349:\n        /* \"#utility.yul\":16703:16842   */\n      swap1\n      pop\n        /* \"#utility.yul\":16430:16849   */\n      swap2\n      swap1\n      pop\n      jump\t// out\n        /* \"#utility.yul\":16855:17035   */\n    tag_179:\n        /* \"#utility.yul\":16903:16980   */\n      0x4e487b7100000000000000000000000000000000000000000000000000000000\n        /* \"#utility.yul\":16900:16901   */\n      0x00\n        /* \"#utility.yul\":16893:16981   */\n      mstore\n        /* \"#utility.yul\":17000:17004   */\n      0x41\n        /* \"#utility.yul\":16997:16998   */\n      0x04\n        /* \"#utility.yul\":16990:17005   */\n      mstore\n        /* \"#utility.yul\":17024:17028   */\n      0x24\n        /* \"#utility.yul\":17021:17022   */\n      0x00\n        /* \"#utility.yul\":17014:17029   */\n      revert\n        /* \"#utility.yul\":17041:17221   */\n    tag_180:\n        /* \"#utility.yul\":17089:17166   */\n      0x4e487b7100000000000000000000000000000000000000000000000000000000\n        /* \"#utility.yul\":17086:17087   */\n      0x00\n        /* \"#utility.yul\":17079:17167   */\n      mstore\n        /* \"#utility.yul\":17186:17190   */\n      0x22\n        /* \"#utility.yul\":17183:17184   */\n      0x04\n        /* \"#utility.yul\":17176:17191   */\n      mstore\n        /* \"#utility.yul\":17210:17214   */\n      0x24\n        /* \"#utility.yul\":17207:17208   */\n      0x00\n        /* \"#utility.yul\":17200:17215   */\n      revert\n        /* \"#utility.yul\":17227:17547   */\n    tag_117:\n        /* \"#utility.yul\":17271:17277   */\n      0x00\n        /* \"#utility.yul\":17308:17309   */\n      0x02\n        /* \"#utility.yul\":17302:17306   */\n      dup3\n        /* \"#utility.yul\":17298:17310   */\n      div\n        /* \"#utility.yul\":17288:17310   */\n      swap1\n      pop\n        /* \"#utility.yul\":17355:17356   */\n      0x01\n        /* \"#utility.yul\":17349:17353   */\n      dup3\n        /* \"#utility.yul\":17345:17357   */\n      and\n        /* \"#utility.yul\":17376:17394   */\n      dup1\n        /* \"#utility.yul\":17366:17447   */\n      tag_353\n      jumpi\n        /* \"#utility.yul\":17432:17436   */\n      0x7f\n        /* \"#utility.yul\":17424:17430   */\n      dup3\n        /* \"#utility.yul\":17420:17437   */\n      and\n        /* \"#utility.yul\":17410:17437   */\n      swap2\n      pop\n        /* \"#utility.yul\":17366:17447   */\n    tag_353:\n        /* \"#utility.yul\":17494:17496   */\n      0x20\n        /* \"#utility.yul\":17486:17492   */\n      dup3\n        /* \"#utility.yul\":17483:17497   */\n      lt\n        /* \"#utility.yul\":17463:17481   */\n      dup2\n        /* \"#utility.yul\":17460:17498   */\n      sub\n        /* \"#utility.yul\":17457:17541   */\n      tag_354\n      jumpi\n        /* \"#utility.yul\":17513:17531   */\n      tag_355\n      tag_180\n      jump\t// in\n    tag_355:\n        /* \"#utility.yul\":17457:17541   */\n    tag_354:\n        /* \"#utility.yul\":17278:17547   */\n      pop\n        /* \"#utility.yul\":17227:17547   */\n      swap2\n      swap1\n      pop\n      jump\t// out\n        /* \"#utility.yul\":17553:17694   */\n    tag_181:\n        /* \"#utility.yul\":17602:17606   */\n      0x00\n        /* \"#utility.yul\":17625:17628   */\n      dup2\n        /* \"#utility.yul\":17617:17628   */\n      swap1\n      pop\n        /* \"#utility.yul\":17648:17651   */\n      dup2\n        /* \"#utility.yul\":17645:17646   */\n      0x00\n        /* \"#utility.yul\":17638:17652   */\n      mstore\n        /* \"#utility.yul\":17682:17686   */\n      0x20\n        /* \"#utility.yul\":17679:17680   */\n      0x00\n        /* \"#utility.yul\":17669:17687   */\n      keccak256\n        /* \"#utility.yul\":17661:17687   */\n      swap1\n      pop\n        /* \"#utility.yul\":17553:17694   */\n      swap2\n      swap1\n      pop\n      jump\t// out\n        /* \"#utility.yul\":17700:17793   */\n    tag_182:\n        /* \"#utility.yul\":17737:17743   */\n      0x00\n        /* \"#utility.yul\":17784:17786   */\n      0x20\n        /* \"#utility.yul\":17779:17781   */\n      0x1f\n        /* \"#utility.yul\":17772:17777   */\n      dup4\n        /* \"#utility.yul\":17768:17782   */\n      add\n        /* \"#utility.yul\":17764:17787   */\n      div\n        /* \"#utility.yul\":17754:17787   */\n      swap1\n      pop\n        /* \"#utility.yul\":17700:17793   */\n      swap2\n      swap1\n      pop\n      jump\t// out\n        /* \"#utility.yul\":17799:17906   */\n    tag_183:\n        /* \"#utility.yul\":17843:17851   */\n      0x00\n        /* \"#utility.yul\":17893:17898   */\n      dup3\n        /* \"#utility.yul\":17887:17891   */\n      dup3\n        /* \"#utility.yul\":17883:17899   */\n      shl\n        /* \"#utility.yul\":17862:17899   */\n      swap1\n      pop\n        /* \"#utility.yul\":17799:17906   */\n      swap3\n      swap2\n      pop\n      pop\n      jump\t// out\n        /* \"#utility.yul\":17912:18305   */\n    tag_184:\n        /* \"#utility.yul\":17981:17987   */\n      0x00\n        /* \"#utility.yul\":18031:18032   */\n      0x08\n        /* \"#utility.yul\":18019:18029   */\n      dup4\n        /* \"#utility.yul\":18015:18033   */\n      mul\n        /* \"#utility.yul\":18054:18151   */\n      tag_360\n        /* \"#utility.yul\":18084:18150   */\n      0xffffffffffffffffffffffffffffffffffffffffffffffffffffffffffffffff\n        /* \"#utility.yul\":18073:18082   */\n      dup3\n        /* \"#utility.yul\":18054:18151   */\n      tag_183\n      jump\t// in\n    tag_360:\n        /* \"#utility.yul\":18172:18211   */\n      tag_361\n        /* \"#utility.yul\":18202:18210   */\n      dup7\n        /* \"#utility.yul\":18191:18200   */\n      dup4\n        /* \"#utility.yul\":18172:18211   */\n      tag_183\n      jump\t// in\n    tag_361:\n        /* \"#utility.yul\":18160:18211   */\n      swap6\n      pop\n        /* \"#utility.yul\":18244:18248   */\n      dup1\n        /* \"#utility.yul\":18240:18249   */\n      not\n        /* \"#utility.yul\":18233:18238   */\n      dup5\n        /* \"#utility.yul\":18229:18250   */\n      and\n        /* \"#utility.yul\":18220:18250   */\n      swap4\n      pop\n        /* \"#utility.yul\":18293:18297   */\n      dup1\n        /* \"#utility.yul\":18283:18291   */\n      dup7\n        /* \"#utility.yul\":18279:18298   */\n      and\n        /* \"#utility.yul\":18272:18277   */\n      dup5\n        /* \"#utility.yul\":18269:18299   */\n      or\n        /* \"#utility.yul\":18259:18299   */\n      swap3\n      pop\n        /* \"#utility.yul\":17988:18305   */\n      pop\n      pop\n        /* \"#utility.yul\":17912:18305   */\n      swap4\n      swap3\n      pop\n      pop\n      pop\n      jump\t// out\n        /* \"#utility.yul\":18311:18371   */\n    tag_185:\n        /* \"#utility.yul\":18339:18342   */\n      0x00\n        /* \"#utility.yul\":18360:18365   */\n      dup2\n        /* \"#utility.yul\":18353:18365   */\n      swap1\n      pop\n        /* \"#utility.yul\":18311:18371   */\n      swap2\n      swap1\n      pop\n      jump\t// out\n        /* \"#utility.yul\":18377:18519   */\n    tag_186:\n        /* \"#utility.yul\":18427:18436   */\n      0x00\n        /* \"#utility.yul\":18460:18513   */\n      tag_364\n        /* \"#utility.yul\":18478:18512   */\n      tag_365\n        /* \"#utility.yul\":18487:18511   */\n      tag_366\n        /* \"#utility.yul\":18505:18510   */\n      dup5\n        /* \"#utility.yul\":18487:18511   */\n      tag_139\n      jump\t// in\n    tag_366:\n        /* \"#utility.yul\":18478:18512   */\n      tag_185\n      jump\t// in\n    tag_365:\n        /* \"#utility.yul\":18460:18513   */\n      tag_139\n      jump\t// in\n    tag_364:\n        /* \"#utility.yul\":18447:18513   */\n      swap1\n      pop\n        /* \"#utility.yul\":18377:18519   */\n      swap2\n      swap1\n      pop\n      jump\t// out\n        /* \"#utility.yul\":18525:18600   */\n    tag_187:\n        /* \"#utility.yul\":18568:18571   */\n      0x00\n        /* \"#utility.yul\":18589:18594   */\n      dup2\n        /* \"#utility.yul\":18582:18594   */\n      swap1\n      pop\n        /* \"#utility.yul\":18525:18600   */\n      swap2\n      swap1\n      pop\n      jump\t// out\n        /* \"#utility.yul\":18606:18875   */\n    tag_188:\n        /* \"#utility.yul\":18716:18755   */\n      tag_369\n        /* \"#utility.yul\":18747:18754   */\n      dup4\n        /* \"#utility.yul\":18716:18755   */\n      tag_186\n      jump\t// in\n    tag_369:\n        /* \"#utility.yul\":18777:18868   */\n      tag_370\n        /* \"#utility.yul\":18826:18867   */\n      tag_371\n        /* \"#utility.yul\":18850:18866   */\n      dup3\n        /* \"#utility.yul\":18826:18867   */\n      tag_187\n      jump\t// in\n    tag_371:\n        /* \"#utility.yul\":18818:18824   */\n      dup5\n        /* \"#utility.yul\":18811:18815   */\n      dup5\n        /* \"#utility.yul\":18805:18816   */\n      sload\n        /* \"#utility.yul\":18777:18868   */\n      tag_184\n      jump\t// in\n    tag_370:\n        /* \"#utility.yul\":18771:18775   */\n      dup3\n        /* \"#utility.yul\":18764:18869   */\n      sstore\n        /* \"#utility.yul\":18682:18875   */\n      pop\n        /* \"#utility.yul\":18606:18875   */\n      pop\n      pop\n      pop\n      jump\t// out\n        /* \"#utility.yul\":18881:18954   */\n    tag_189:\n        /* \"#utility.yul\":18926:18929   */\n      0x00\n        /* \"#utility.yul\":18881:18954   */\n      swap1\n      jump\t// out\n        /* \"#utility.yul\":18960:19149   */\n    tag_190:\n        /* \"#utility.yul\":19037:19069   */\n      tag_374\n      tag_189\n      jump\t// in\n    tag_374:\n        /* \"#utility.yul\":19078:19143   */\n      tag_375\n        /* \"#utility.yul\":19136:19142   */\n      dup2\n        /* \"#utility.yul\":19128:19134   */\n      dup5\n        /* \"#utility.yul\":19122:19126   */\n      dup5\n        /* \"#utility.yul\":19078:19143   */\n      tag_188\n      jump\t// in\n    tag_375:\n        /* \"#utility.yul\":19013:19149   */\n      pop\n        /* \"#utility.yul\":18960:19149   */\n      pop\n      pop\n      jump\t// out\n        /* \"#utility.yul\":19155:19341   */\n    tag_191:\n        /* \"#utility.yul\":19215:19335   */\n    tag_377:\n        /* \"#utility.yul\":19232:19235   */\n      dup2\n        /* \"#utility.yul\":19225:19230   */\n      dup2\n        /* \"#utility.yul\":19222:19236   */\n      lt\n        /* \"#utility.yul\":19215:19335   */\n      iszero\n      tag_379\n      jumpi\n        /* \"#utility.yul\":19286:19325   */\n      tag_380\n        /* \"#utility.yul\":19323:19324   */\n      0x00\n        /* \"#utility.yul\":19316:19321   */\n      dup3\n        /* \"#utility.yul\":19286:19325   */\n      tag_190\n      jump\t// in\n    tag_380:\n        /* \"#utility.yul\":19259:19260   */\n      0x01\n        /* \"#utility.yul\":19252:19257   */\n      dup2\n        /* \"#utility.yul\":19248:19261   */\n      add\n        /* \"#utility.yul\":19239:19261   */\n      swap1\n      pop\n        /* \"#utility.yul\":19215:19335   */\n      jump(tag_377)\n    tag_379:\n        /* \"#utility.yul\":19155:19341   */\n      pop\n      pop\n      jump\t// out\n        /* \"#utility.yul\":19347:19890   */\n    tag_192:\n        /* \"#utility.yul\":19448:19450   */\n      0x1f\n        /* \"#utility.yul\":19443:19446   */\n      dup3\n        /* \"#utility.yul\":19440:19451   */\n      gt\n        /* \"#utility.yul\":19437:19883   */\n      iszero\n      tag_382\n      jumpi\n        /* \"#utility.yul\":19482:19520   */\n      tag_383\n        /* \"#utility.yul\":19514:19519   */\n      dup2\n        /* \"#utility.yul\":19482:19520   */\n      tag_181\n      jump\t// in\n    tag_383:\n        /* \"#utility.yul\":19566:19595   */\n      tag_384\n        /* \"#utility.yul\":19584:19594   */\n      dup5\n        /* \"#utility.yul\":19566:19595   */\n      tag_182\n      jump\t// in\n    tag_384:\n        /* \"#utility.yul\":19556:19564   */\n      dup2\n        /* \"#utility.yul\":19552:19596   */\n      add\n        /* \"#utility.yul\":19749:19751   */\n      0x20\n        /* \"#utility.yul\":19737:19747   */\n      dup6\n        /* \"#utility.yul\":19734:19752   */\n      lt\n        /* \"#utility.yul\":19731:19780   */\n      iszero\n      tag_385\n      jumpi\n        /* \"#utility.yul\":19770:19778   */\n      dup2\n        /* \"#utility.yul\":19755:19778   */\n      swap1\n      pop\n        /* \"#utility.yul\":19731:19780   */\n    tag_385:\n        /* \"#utility.yul\":19793:19873   */\n      tag_386\n        /* \"#utility.yul\":19849:19871   */\n      tag_387\n        /* \"#utility.yul\":19867:19870   */\n      dup6\n        /* \"#utility.yul\":19849:19871   */\n      tag_182\n      jump\t// in\n    tag_387:\n        /* \"#utility.yul\":19839:19847   */\n      dup4\n        /* \"#utility.yul\":19835:19872   */\n      add\n        /* \"#utility.yul\":19822:19833   */\n      dup3\n        /* \"#utility.yul\":19793:19873   */\n      tag_191\n      jump\t// in\n    tag_386:\n        /* \"#utility.yul\":19452:19883   */\n      pop\n      pop\n        /* \"#utility.yul\":19437:19883   */\n    tag_382:\n        /* \"#utility.yul\":19347:19890   */\n      pop\n      pop\n      pop\n      jump\t// out\n        /* \"#utility.yul\":19896:20013   */\n    tag_193:\n        /* \"#utility.yul\":19950:19958   */\n      0x00\n        /* \"#utility.yul\":20000:20005   */\n      dup3\n        /* \"#utility.yul\":19994:19998   */\n      dup3\n        /* \"#utility.yul\":19990:20006   */\n      shr\n        /* \"#utility.yul\":19969:20006   */\n      swap1\n      pop\n        /* \"#utility.yul\":19896:20013   */\n      swap3\n      swap2\n      pop\n      pop\n      jump\t// out\n        /* \"#utility.yul\":20019:20188   */\n    tag_194:\n        /* \"#utility.yul\":20063:20069   */\n      0x00\n        /* \"#utility.yul\":20096:20147   */\n      tag_390\n        /* \"#utility.yul\":20144:20145   */\n      0x00\n        /* \"#utility.yul\":20140:20146   */\n      not\n        /* \"#utility.yul\":20132:20137   */\n      dup5\n        /* \"#utility.yul\":20129:20130   */\n      0x08\n        /* \"#utility.yul\":20125:20138   */\n      mul\n        /* \"#utility.yul\":20096:20147   */\n      tag_193\n      jump\t// in\n    tag_390:\n        /* \"#utility.yul\":20092:20148   */\n      not\n        /* \"#utility.yul\":20177:20181   */\n      dup1\n        /* \"#utility.yul\":20171:20175   */\n      dup4\n        /* \"#utility.yul\":20167:20182   */\n      and\n        /* \"#utility.yul\":20157:20182   */\n      swap2\n      pop\n        /* \"#utility.yul\":20070:20188   */\n      pop\n        /* \"#utility.yul\":20019:20188   */\n      swap3\n      swap2\n      pop\n      pop\n      jump\t// out\n        /* \"#utility.yul\":20193:20488   */\n    tag_195:\n        /* \"#utility.yul\":20269:20273   */\n      0x00\n        /* \"#utility.yul\":20415:20444   */\n      tag_392\n        /* \"#utility.yul\":20440:20443   */\n      dup4\n        /* \"#utility.yul\":20434:20438   */\n      dup4\n        /* \"#utility.yul\":20415:20444   */\n      tag_194\n      jump\t// in\n    tag_392:\n        /* \"#utility.yul\":20407:20444   */\n      swap2\n      pop\n        /* \"#utility.yul\":20477:20480   */\n      dup3\n        /* \"#utility.yul\":20474:20475   */\n      0x02\n        /* \"#utility.yul\":20470:20481   */\n      mul\n        /* \"#utility.yul\":20464:20468   */\n      dup3\n        /* \"#utility.yul\":20461:20482   */\n      or\n        /* \"#utility.yul\":20453:20482   */\n      swap1\n      pop\n        /* \"#utility.yul\":20193:20488   */\n      swap3\n      swap2\n      pop\n      pop\n      jump\t// out\n        /* \"#utility.yul\":20493:21888   */\n    tag_112:\n        /* \"#utility.yul\":20610:20647   */\n      tag_394\n        /* \"#utility.yul\":20643:20646   */\n      dup3\n        /* \"#utility.yul\":20610:20647   */\n      tag_152\n      jump\t// in\n    tag_394:\n        /* \"#utility.yul\":20712:20730   */\n      0xffffffffffffffff\n        /* \"#utility.yul\":20704:20710   */\n      dup2\n        /* \"#utility.yul\":20701:20731   */\n      gt\n        /* \"#utility.yul\":20698:20754   */\n      iszero\n      tag_395\n      jumpi\n        /* \"#utility.yul\":20734:20752   */\n      tag_396\n      tag_179\n      jump\t// in\n    tag_396:\n        /* \"#utility.yul\":20698:20754   */\n    tag_395:\n        /* \"#utility.yul\":20778:20816   */\n      tag_397\n        /* \"#utility.yul\":20810:20814   */\n      dup3\n        /* \"#utility.yul\":20804:20815   */\n      sload\n        /* \"#utility.yul\":20778:20816   */\n      tag_117\n      jump\t// in\n    tag_397:\n        /* \"#utility.yul\":20863:20930   */\n      tag_398\n        /* \"#utility.yul\":20923:20929   */\n      dup3\n        /* \"#utility.yul\":20915:20921   */\n      dup3\n        /* \"#utility.yul\":20909:20913   */\n      dup6\n        /* \"#utility.yul\":20863:20930   */\n      tag_192\n      jump\t// in\n    tag_398:\n        /* \"#utility.yul\":20957:20958   */\n      0x00\n        /* \"#utility.yul\":20981:20985   */\n      0x20\n        /* \"#utility.yul\":20968:20985   */\n      swap1\n      pop\n        /* \"#utility.yul\":21013:21015   */\n      0x1f\n        /* \"#utility.yul\":21005:21011   */\n      dup4\n        /* \"#utility.yul\":21002:21016   */\n      gt\n        /* \"#utility.yul\":21030:21031   */\n      0x01\n        /* \"#utility.yul\":21025:21643   */\n      dup2\n      eq\n      tag_400\n      jumpi\n        /* \"#utility.yul\":21687:21688   */\n      0x00\n        /* \"#utility.yul\":21704:21710   */\n      dup5\n        /* \"#utility.yul\":21701:21778   */\n      iszero\n      tag_401\n      jumpi\n        /* \"#utility.yul\":21753:21762   */\n      dup3\n        /* \"#utility.yul\":21748:21751   */\n      dup8\n        /* \"#utility.yul\":21744:21763   */\n      add\n        /* \"#utility.yul\":21738:21764   */\n      mload\n        /* \"#utility.yul\":21729:21764   */\n      swap1\n      pop\n        /* \"#utility.yul\":21701:21778   */\n    tag_401:\n        /* \"#utility.yul\":21804:21871   */\n      tag_402\n        /* \"#utility.yul\":21864:21870   */\n      dup6\n        /* \"#utility.yul\":21857:21862   */\n      dup3\n        /* \"#utility.yul\":21804:21871   */\n      tag_195\n      jump\t// in\n    tag_402:\n        /* \"#utility.yul\":21798:21802   */\n      dup7\n        /* \"#utility.yul\":21791:21872   */\n      sstore\n        /* \"#utility.yul\":21660:21882   */\n      pop\n        /* \"#utility.yul\":20995:21882   */\n      jump(tag_399)\n        /* \"#utility.yul\":21025:21643   */\n    tag_400:\n        /* \"#utility.yul\":21077:21081   */\n      0x1f\n        /* \"#utility.yul\":21073:21082   */\n      not\n        /* \"#utility.yul\":21065:21071   */\n      dup5\n        /* \"#utility.yul\":21061:21083   */\n      and\n        /* \"#utility.yul\":21111:21148   */\n      tag_403\n        /* \"#utility.yul\":21143:21147   */\n      dup7\n        /* \"#utility.yul\":21111:21148   */\n      tag_181\n      jump\t// in\n    tag_403:\n        /* \"#utility.yul\":21170:21171   */\n      0x00\n        /* \"#utility.yul\":21184:21392   */\n    tag_404:\n        /* \"#utility.yul\":21198:21205   */\n      dup3\n        /* \"#utility.yul\":21195:21196   */\n      dup2\n        /* \"#utility.yul\":21192:21206   */\n      lt\n        /* \"#utility.yul\":21184:21392   */\n      iszero\n      tag_406\n      jumpi\n        /* \"#utility.yul\":21277:21286   */\n      dup5\n        /* \"#utility.yul\":21272:21275   */\n      dup10\n        /* \"#utility.yul\":21268:21287   */\n      add\n        /* \"#utility.yul\":21262:21288   */\n      mload\n        /* \"#utility.yul\":21254:21260   */\n      dup3\n        /* \"#utility.yul\":21247:21289   */\n      sstore\n        /* \"#utility.yul\":21328:21329   */\n      0x01\n        /* \"#utility.yul\":21320:21326   */\n      dup3\n        /* \"#utility.yul\":21316:21330   */\n      add\n        /* \"#utility.yul\":21306:21330   */\n      swap2\n      pop\n        /* \"#utility.yul\":21375:21377   */\n      0x20\n        /* \"#utility.yul\":21364:21373   */\n      dup6\n        /* \"#utility.yul\":21360:21378   */\n      add\n        /* \"#utility.yul\":21347:21378   */\n      swap5\n      pop\n        /* \"#utility.yul\":21221:21225   */\n      0x20\n        /* \"#utility.yul\":21218:21219   */\n      dup2\n        /* \"#utility.yul\":21214:21226   */\n      add\n        /* \"#utility.yul\":21209:21226   */\n      swap1\n      pop\n        /* \"#utility.yul\":21184:21392   */\n      jump(tag_404)\n    tag_406:\n        /* \"#utility.yul\":21420:21426   */\n      dup7\n        /* \"#utility.yul\":21411:21418   */\n      dup4\n        /* \"#utility.yul\":21408:21427   */\n      lt\n        /* \"#utility.yul\":21405:21584   */\n      iszero\n      tag_407\n      jumpi\n        /* \"#utility.yul\":21478:21487   */\n      dup5\n        /* \"#utility.yul\":21473:21476   */\n      dup10\n        /* \"#utility.yul\":21469:21488   */\n      add\n        /* \"#utility.yul\":21463:21489   */\n      mload\n        /* \"#utility.yul\":21521:21569   */\n      tag_408\n        /* \"#utility.yul\":21563:21567   */\n      0x1f\n        /* \"#utility.yul\":21555:21561   */\n      dup10\n        /* \"#utility.yul\":21551:21568   */\n      and\n        /* \"#utility.yul\":21540:21549   */\n      dup3\n        /* \"#utility.yul\":21521:21569   */\n      tag_194\n      jump\t// in\n    tag_408:\n        /* \"#utility.yul\":21513:21519   */\n      dup4\n        /* \"#utility.yul\":21506:21570   */\n      sstore\n        /* \"#utility.yul\":21428:21584   */\n      pop\n        /* \"#utility.yul\":21405:21584   */\n    tag_407:\n        /* \"#utility.yul\":21630:21631   */\n      0x01\n        /* \"#utility.yul\":21626:21627   */\n      0x02\n        /* \"#utility.yul\":21618:21624   */\n      dup9\n        /* \"#utility.yul\":21614:21628   */\n      mul\n        /* \"#utility.yul\":21610:21632   */\n      add\n        /* \"#utility.yul\":21604:21608   */\n      dup9\n        /* \"#utility.yul\":21597:21633   */\n      sstore\n        /* \"#utility.yul\":21032:21643   */\n      pop\n      pop\n      pop\n        /* \"#utility.yul\":20995:21882   */\n    tag_399:\n      pop\n        /* \"#utility.yul\":20585:21888   */\n      pop\n      pop\n      pop\n        /* \"#utility.yul\":20493:21888   */\n      pop\n      pop\n      jump\t// out\n        /* \"#utility.yul\":21894:22042   */\n    tag_196:\n        /* \"#utility.yul\":21992:21998   */\n      dup3\n        /* \"#utility.yul\":21987:21990   */\n      dup2\n        /* \"#utility.yul\":21982:21985   */\n      dup4\n        /* \"#utility.yul\":21969:21999   */\n      calldatacopy\n        /* \"#utility.yul\":22033:22034   */\n      0x00\n        /* \"#utility.yul\":22024:22030   */\n      dup4\n        /* \"#utility.yul\":22019:22022   */\n      dup4\n        /* \"#utility.yul\":22015:22031   */\n      add\n        /* \"#utility.yul\":22008:22035   */\n      mstore\n        /* \"#utility.yul\":21894:22042   */\n      pop\n      pop\n      pop\n      jump\t// out\n        /* \"#utility.yul\":22072:22389   */\n    tag_197:\n        /* \"#utility.yul\":22170:22173   */\n      0x00\n        /* \"#utility.yul\":22191:22262   */\n      tag_411\n        /* \"#utility.yul\":22255:22261   */\n      dup4\n        /* \"#utility.yul\":22250:22253   */\n      dup6\n        /* \"#utility.yul\":22191:22262   */\n      tag_153\n      jump\t// in\n    tag_411:\n        /* \"#utility.yul\":22184:22262   */\n      swap4\n      pop\n        /* \"#utility.yul\":22272:22328   */\n      tag_412\n        /* \"#utility.yul\":22321:22327   */\n      dup4\n        /* \"#utility.yul\":22316:22319   */\n      dup6\n        /* \"#utility.yul\":22309:22314   */\n      dup5\n        /* \"#utility.yul\":22272:22328   */\n      tag_196\n      jump\t// in\n    tag_412:\n        /* \"#utility.yul\":22353:22382   */\n      tag_413\n        /* \"#utility.yul\":22375:22381   */\n      dup4\n        /* \"#utility.yul\":22353:22382   */\n      tag_155\n      jump\t// in\n    tag_413:\n        /* \"#utility.yul\":22348:22351   */\n      dup5\n        /* \"#utility.yul\":22344:22383   */\n      add\n        /* \"#utility.yul\":22337:22383   */\n      swap1\n      pop\n        /* \"#utility.yul\":22072:22389   */\n      swap4\n      swap3\n      pop\n      pop\n      pop\n      jump\t// out\n        /* \"#utility.yul\":22395:22949   */\n    tag_115:\n        /* \"#utility.yul\":22576:22580   */\n      0x00\n        /* \"#utility.yul\":22614:22616   */\n      0x40\n        /* \"#utility.yul\":22603:22612   */\n      dup3\n        /* \"#utility.yul\":22599:22617   */\n      add\n        /* \"#utility.yul\":22591:22617   */\n      swap1\n      pop\n        /* \"#utility.yul\":22663:22672   */\n      dup2\n        /* \"#utility.yul\":22657:22661   */\n      dup2\n        /* \"#utility.yul\":22653:22673   */\n      sub\n        /* \"#utility.yul\":22649:22650   */\n      0x00\n        /* \"#utility.yul\":22638:22647   */\n      dup4\n        /* \"#utility.yul\":22634:22651   */\n      add\n        /* \"#utility.yul\":22627:22674   */\n      mstore\n        /* \"#utility.yul\":22691:22779   */\n      tag_415\n        /* \"#utility.yul\":22774:22778   */\n      dup2\n        /* \"#utility.yul\":22765:22771   */\n      dup7\n        /* \"#utility.yul\":22757:22763   */\n      dup9\n        /* \"#utility.yul\":22691:22779   */\n      tag_197\n      jump\t// in\n    tag_415:\n        /* \"#utility.yul\":22683:22779   */\n      swap1\n      pop\n        /* \"#utility.yul\":22826:22835   */\n      dup2\n        /* \"#utility.yul\":22820:22824   */\n      dup2\n        /* \"#utility.yul\":22816:22836   */\n      sub\n        /* \"#utility.yul\":22811:22813   */\n      0x20\n        /* \"#utility.yul\":22800:22809   */\n      dup4\n        /* \"#utility.yul\":22796:22814   */\n      add\n        /* \"#utility.yul\":22789:22837   */\n      mstore\n        /* \"#utility.yul\":22854:22942   */\n      tag_416\n        /* \"#utility.yul\":22937:22941   */\n      dup2\n        /* \"#utility.yul\":22928:22934   */\n      dup5\n        /* \"#utility.yul\":22920:22926   */\n      dup7\n        /* \"#utility.yul\":22854:22942   */\n      tag_197\n      jump\t// in\n    tag_416:\n        /* \"#utility.yul\":22846:22942   */\n      swap1\n      pop\n        /* \"#utility.yul\":22395:22949   */\n      swap6\n      swap5\n      pop\n      pop\n      pop\n      pop\n      pop\n      jump\t// out\n        /* \"#utility.yul\":22955:23175   */\n    tag_198:\n        /* \"#utility.yul\":23095:23129   */\n      0x456c206465706f7369746f206465626520736572206d61796f72206120636572\n        /* \"#utility.yul\":23091:23092   */\n      0x00\n        /* \"#utility.yul\":23083:23089   */\n      dup3\n        /* \"#utility.yul\":23079:23093   */\n      add\n        /* \"#utility.yul\":23072:23130   */\n      mstore\n        /* \"#utility.yul\":23164:23167   */\n      0x6f00000000000000000000000000000000000000000000000000000000000000\n        /* \"#utility.yul\":23159:23161   */\n      0x20\n        /* \"#utility.yul\":23151:23157   */\n      dup3\n        /* \"#utility.yul\":23147:23162   */\n      add\n        /* \"#utility.yul\":23140:23168   */\n      mstore\n        /* \"#utility.yul\":22955:23175   */\n      pop\n      jump\t// out\n        /* \"#utility.yul\":23181:23547   */\n    tag_199:\n        /* \"#utility.yul\":23323:23326   */\n      0x00\n        /* \"#utility.yul\":23344:23411   */\n      tag_419\n        /* \"#utility.yul\":23408:23410   */\n      0x21\n        /* \"#utility.yul\":23403:23406   */\n      dup4\n        /* \"#utility.yul\":23344:23411   */\n      tag_153\n      jump\t// in\n    tag_419:\n        /* \"#utility.yul\":23337:23411   */\n      swap2\n      pop\n        /* \"#utility.yul\":23420:23513   */\n      tag_420\n        /* \"#utility.yul\":23509:23512   */\n      dup3\n        /* \"#utility.yul\":23420:23513   */\n      tag_198\n      jump\t// in\n    tag_420:\n        /* \"#utility.yul\":23538:23540   */\n      0x40\n        /* \"#utility.yul\":23533:23536   */\n      dup3\n        /* \"#utility.yul\":23529:23541   */\n      add\n        /* \"#utility.yul\":23522:23541   */\n      swap1\n      pop\n        /* \"#utility.yul\":23181:23547   */\n      swap2\n      swap1\n      pop\n      jump\t// out\n        /* \"#utility.yul\":23553:23972   */\n    tag_133:\n        /* \"#utility.yul\":23719:23723   */\n      0x00\n        /* \"#utility.yul\":23757:23759   */\n      0x20\n        /* \"#utility.yul\":23746:23755   */\n      dup3\n        /* \"#utility.yul\":23742:23760   */\n      add\n        /* \"#utility.yul\":23734:23760   */\n      swap1\n      pop\n        /* \"#utility.yul\":23806:23815   */\n      dup2\n        /* \"#utility.yul\":23800:23804   */\n      dup2\n        /* \"#utility.yul\":23796:23816   */\n      sub\n        /* \"#utility.yul\":23792:23793   */\n      0x00\n        /* \"#utility.yul\":23781:23790   */\n      dup4\n        /* \"#utility.yul\":23777:23794   */\n      add\n        /* \"#utility.yul\":23770:23817   */\n      mstore\n        /* \"#utility.yul\":23834:23965   */\n      tag_422\n        /* \"#utility.yul\":23960:23964   */\n      dup2\n        /* \"#utility.yul\":23834:23965   */\n      tag_199\n      jump\t// in\n    tag_422:\n        /* \"#utility.yul\":23826:23965   */\n      swap1\n      pop\n        /* \"#utility.yul\":23553:23972   */\n      swap2\n      swap1\n      pop\n      jump\t// out\n\n    auxdata: 0xa2646970667358221220d4d16cf16c895b0c646e3760a3311df3fc8bf03e379a35fe9493dbdd1cb28baa64736f6c634300081a0033\n}\n",
				"bytecode": {
					"linkReferences": {},
					"object": "608060405234801561000f575f80fd5b50604051611cff380380611cff8339818101604052810190610031919061020a565b5f73ffffffffffffffffffffffffffffffffffffffff168173ffffffffffffffffffffffffffffffffffffffff160361009f576040517f08c379a0000000000000000000000000000000000000000000000000000000008152600401610096906102a2565b60405180910390fd5b6127108211156100e4576040517f08c379a00000000000000000000000000000000000000000000000000000000081526004016100db90610330565b60405180910390fd5b3360015f6101000a81548173ffffffffffffffffffffffffffffffffffffffff021916908373ffffffffffffffffffffffffffffffffffffffff160217905550816003819055508060025f6101000a81548173ffffffffffffffffffffffffffffffffffffffff021916908373ffffffffffffffffffffffffffffffffffffffff1602179055505f600481905550505061034e565b5f80fd5b5f819050919050565b61018f8161017d565b8114610199575f80fd5b50565b5f815190506101aa81610186565b92915050565b5f73ffffffffffffffffffffffffffffffffffffffff82169050919050565b5f6101d9826101b0565b9050919050565b6101e9816101cf565b81146101f3575f80fd5b50565b5f81519050610204816101e0565b92915050565b5f80604083850312156102205761021f610179565b5b5f61022d8582860161019c565b925050602061023e858286016101f6565b9150509250929050565b5f82825260208201905092915050565b7f5465736f726572696120696e76616c69646100000000000000000000000000005f82015250565b5f61028c601283610248565b915061029782610258565b602082019050919050565b5f6020820190508181035f8301526102b981610280565b9050919050565b7f466565206e6f20707565646520657863656465722031303030302070756e746f5f8201527f7300000000000000000000000000000000000000000000000000000000000000602082015250565b5f61031a602183610248565b9150610325826102c0565b604082019050919050565b5f6020820190508181035f8301526103478161030e565b9050919050565b6119a48061035b5f395ff3fe608060405260043610610090575f3560e01c806361d027b31161005857806361d027b3146101605780638da5cb5b1461018a578063a87430ba146101b4578063d0e30db0146101f3578063ddca3f43146101fd57610090565b806311f1fc991461009457806312065fe0146100bc5780632e1a7d4d146100e6578063313dab201461010e5780633ffbd47f14610138575b5f80fd5b34801561009f575f80fd5b506100ba60048036038101906100b59190610d71565b610227565b005b3480156100c7575f80fd5b506100d061042c565b6040516100dd9190610dab565b60405180910390f35b3480156100f1575f80fd5b5061010c60048036038101906101079190610d71565b6104fd565b005b348015610119575f80fd5b5061012261077f565b60405161012f9190610dab565b60405180910390f35b348015610143575f80fd5b5061015e60048036038101906101599190610e25565b610785565b005b34801561016b575f80fd5b50610174610a31565b6040516101819190610ee2565b60405180910390f35b348015610195575f80fd5b5061019e610a56565b6040516101ab9190610ee2565b60405180910390f35b3480156101bf575f80fd5b506101da60048036038101906101d59190610f25565b610a7b565b6040516101ea9493929190610fda565b60405180910390f35b6101fb610bbe565b005b348015610208575f80fd5b50610211610d30565b60405161021e9190610dab565b60405180910390f35b60015f9054906101000a900473ffffffffffffffffffffffffffffffffffffffff1673ffffffffffffffffffffffffffffffffffffffff163373ffffffffffffffffffffffffffffffffffffffff16146102b6576040517f08c379a00000000000000000000000000000000000000000000000000000000081526004016102ad90611075565b60405180910390fd5b5f81116102f8576040517f08c379a00000000000000000000000000000000000000000000000000000000081526004016102ef906110dd565b60405180910390fd5b80600454101561033d576040517f08c379a00000000000000000000000000000000000000000000000000000000081526004016103349061116b565b60405180910390fd5b8060045f82825461034e91906111b6565b9250508190555060015f9054906101000a900473ffffffffffffffffffffffffffffffffffffffff1673ffffffffffffffffffffffffffffffffffffffff166108fc8290811502906040515f60405180830381858888f193505050501580156103b9573d5f803e3d5ffd5b5060015f9054906101000a900473ffffffffffffffffffffffffffffffffffffffff1673ffffffffffffffffffffffffffffffffffffffff167f233c84dc0c19fbf51f9fa92214ffd8a59f512e0098bff5827455d02e401221c0826040516104219190610dab565b60405180910390a250565b5f805f3373ffffffffffffffffffffffffffffffffffffffff1673ffffffffffffffffffffffffffffffffffffffff1681526020019081526020015f206003015f9054906101000a900460ff166104b8576040517f08c379a00000000000000000000000000000000000000000000000000000000081526004016104af90611233565b60405180910390fd5b5f803373ffffffffffffffffffffffffffffffffffffffff1673ffffffffffffffffffffffffffffffffffffffff1681526020019081526020015f2060020154905090565b5f803373ffffffffffffffffffffffffffffffffffffffff1673ffffffffffffffffffffffffffffffffffffffff1681526020019081526020015f206003015f9054906101000a900460ff16610588576040517f08c379a000000000000000000000000000000000000000000000000000000000815260040161057f90611233565b60405180910390fd5b5f81116105ca576040517f08c379a00000000000000000000000000000000000000000000000000000000081526004016105c1906112c1565b60405180910390fd5b805f803373ffffffffffffffffffffffffffffffffffffffff1673ffffffffffffffffffffffffffffffffffffffff1681526020019081526020015f2060020154101561064c576040517f08c379a000000000000000000000000000000000000000000000000000000000815260040161064390611329565b60405180910390fd5b5f6127106003548361065e9190611347565b61066891906113b5565b90505f818361067791906111b6565b9050825f803373ffffffffffffffffffffffffffffffffffffffff1673ffffffffffffffffffffffffffffffffffffffff1681526020019081526020015f206002015f8282546106c791906111b6565b925050819055508160045f8282546106df91906113e5565b925050819055503373ffffffffffffffffffffffffffffffffffffffff166108fc8290811502906040515f60405180830381858888f19350505050158015610729573d5f803e3d5ffd5b503373ffffffffffffffffffffffffffffffffffffffff167fdf273cb619d95419a9cd0ec88123a0538c85064229baa6363788f743fff90deb8484604051610772929190611418565b60405180910390a2505050565b60045481565b5f84849050116107ca576040517f08c379a00000000000000000000000000000000000000000000000000000000081526004016107c190611489565b60405180910390fd5b5f828290501161080f576040517f08c379a0000000000000000000000000000000000000000000000000000000008152600401610806906114f1565b60405180910390fd5b5f803373ffffffffffffffffffffffffffffffffffffffff1673ffffffffffffffffffffffffffffffffffffffff1681526020019081526020015f206003015f9054906101000a900460ff161561089b576040517f08c379a000000000000000000000000000000000000000000000000000000000815260040161089290611559565b60405180910390fd5b604051806080016040528085858080601f0160208091040260200160405190810160405280939291908181526020018383808284375f81840152601f19601f82011690508083019250505050505050815260200183838080601f0160208091040260200160405190810160405280939291908181526020018383808284375f81840152601f19601f8201169050808301925050505050505081526020015f8152602001600115158152505f803373ffffffffffffffffffffffffffffffffffffffff1673ffffffffffffffffffffffffffffffffffffffff1681526020019081526020015f205f820151815f019081610994919061179e565b5060208201518160010190816109aa919061179e565b50604082015181600201556060820151816003015f6101000a81548160ff0219169083151502179055509050503373ffffffffffffffffffffffffffffffffffffffff167f92822564bab8864c3a47b34e8d23fbce5c46234eb5da261f94087b995ac0f33b85858585604051610a2394939291906118a7565b60405180910390a250505050565b60025f9054906101000a900473ffffffffffffffffffffffffffffffffffffffff1681565b60015f9054906101000a900473ffffffffffffffffffffffffffffffffffffffff1681565b5f602052805f5260405f205f91509050805f018054610a99906115d1565b80601f0160208091040260200160405190810160405280929190818152602001828054610ac5906115d1565b8015610b105780601f10610ae757610100808354040283529160200191610b10565b820191905f5260205f20905b815481529060010190602001808311610af357829003601f168201915b505050505090806001018054610b25906115d1565b80601f0160208091040260200160405190810160405280929190818152602001828054610b51906115d1565b8015610b9c5780601f10610b7357610100808354040283529160200191610b9c565b820191905f5260205f20905b815481529060010190602001808311610b7f57829003601f168201915b505050505090806002015490806003015f9054906101000a900460ff16905084565b5f803373ffffffffffffffffffffffffffffffffffffffff1673ffffffffffffffffffffffffffffffffffffffff1681526020019081526020015f206003015f9054906101000a900460ff16610c49576040517f08c379a0000000000000000000000000000000000000000000000000000000008152600401610c4090611233565b60405180910390fd5b5f3411610c8b576040517f08c379a0000000000000000000000000000000000000000000000000000000008152600401610c8290611950565b60405180910390fd5b345f803373ffffffffffffffffffffffffffffffffffffffff1673ffffffffffffffffffffffffffffffffffffffff1681526020019081526020015f206002015f828254610cd991906113e5565b925050819055503373ffffffffffffffffffffffffffffffffffffffff167fe1fffcc4923d04b559f4d29a8bfc6cda04eb5b0d3c460751c2402c5c5cc9109c34604051610d269190610dab565b60405180910390a2565b60035481565b5f80fd5b5f80fd5b5f819050919050565b610d5081610d3e565b8114610d5a575f80fd5b50565b5f81359050610d6b81610d47565b92915050565b5f60208284031215610d8657610d85610d36565b5b5f610d9384828501610d5d565b91505092915050565b610da581610d3e565b82525050565b5f602082019050610dbe5f830184610d9c565b92915050565b5f80fd5b5f80fd5b5f80fd5b5f8083601f840112610de557610de4610dc4565b5b8235905067ffffffffffffffff811115610e0257610e01610dc8565b5b602083019150836001820283011115610e1e57610e1d610dcc565b5b9250929050565b5f805f8060408587031215610e3d57610e3c610d36565b5b5f85013567ffffffffffffffff811115610e5a57610e59610d3a565b5b610e6687828801610dd0565b9450945050602085013567ffffffffffffffff811115610e8957610e88610d3a565b5b610e9587828801610dd0565b925092505092959194509250565b5f73ffffffffffffffffffffffffffffffffffffffff82169050919050565b5f610ecc82610ea3565b9050919050565b610edc81610ec2565b82525050565b5f602082019050610ef55f830184610ed3565b92915050565b610f0481610ec2565b8114610f0e575f80fd5b50565b5f81359050610f1f81610efb565b92915050565b5f60208284031215610f3a57610f39610d36565b5b5f610f4784828501610f11565b91505092915050565b5f81519050919050565b5f82825260208201905092915050565b8281835e5f83830152505050565b5f601f19601f8301169050919050565b5f610f9282610f50565b610f9c8185610f5a565b9350610fac818560208601610f6a565b610fb581610f78565b840191505092915050565b5f8115159050919050565b610fd481610fc0565b82525050565b5f6080820190508181035f830152610ff28187610f88565b905081810360208301526110068186610f88565b90506110156040830185610d9c565b6110226060830184610fcb565b95945050505050565b7f536f6c6f20656c206f776e657220707565646520656a656375746172000000005f82015250565b5f61105f601c83610f5a565b915061106a8261102b565b602082019050919050565b5f6020820190508181035f83015261108c81611053565b9050919050565b7f4d6f6e746f206465626520736572206d61796f722061206365726f00000000005f82015250565b5f6110c7601b83610f5a565b91506110d282611093565b602082019050919050565b5f6020820190508181035f8301526110f4816110bb565b9050919050565b7f42616c616e6365206465207465736f726572696120696e737566696369656e745f8201527f6500000000000000000000000000000000000000000000000000000000000000602082015250565b5f611155602183610f5a565b9150611160826110fb565b604082019050919050565b5f6020820190508181035f83015261118281611149565b9050919050565b7f4e487b71000000000000000000000000000000000000000000000000000000005f52601160045260245ffd5b5f6111c082610d3e565b91506111cb83610d3e565b92508282039050818111156111e3576111e2611189565b5b92915050565b7f5573756172696f206e6f207265676973747261646f00000000000000000000005f82015250565b5f61121d601583610f5a565b9150611228826111e9565b602082019050919050565b5f6020820190508181035f83015261124a81611211565b9050919050565b7f4d6f6e746f2064652072657469726f206465626520736572206d61796f7220615f8201527f206365726f000000000000000000000000000000000000000000000000000000602082015250565b5f6112ab602583610f5a565b91506112b682611251565b604082019050919050565b5f6020820190508181035f8301526112d88161129f565b9050919050565b7f53616c646f20696e737566696369656e746500000000000000000000000000005f82015250565b5f611313601283610f5a565b915061131e826112df565b602082019050919050565b5f6020820190508181035f83015261134081611307565b9050919050565b5f61135182610d3e565b915061135c83610d3e565b925082820261136a81610d3e565b9150828204841483151761138157611380611189565b5b5092915050565b7f4e487b71000000000000000000000000000000000000000000000000000000005f52601260045260245ffd5b5f6113bf82610d3e565b91506113ca83610d3e565b9250826113da576113d9611388565b5b828204905092915050565b5f6113ef82610d3e565b91506113fa83610d3e565b925082820190508082111561141257611411611189565b5b92915050565b5f60408201905061142b5f830185610d9c565b6114386020830184610d9c565b9392505050565b7f4e6f6d627265206e6f20707565646520657374617220766163696f00000000005f82015250565b5f611473601b83610f5a565b915061147e8261143f565b602082019050919050565b5f6020820190508181035f8301526114a081611467565b9050919050565b7f4170656c6c69646f206e6f20707565646520657374617220766163696f0000005f82015250565b5f6114db601d83610f5a565b91506114e6826114a7565b602082019050919050565b5f6020820190508181035f830152611508816114cf565b9050919050565b7f5573756172696f207961207265676973747261646f00000000000000000000005f82015250565b5f611543601583610f5a565b915061154e8261150f565b602082019050919050565b5f6020820190508181035f83015261157081611537565b9050919050565b7f4e487b71000000000000000000000000000000000000000000000000000000005f52604160045260245ffd5b7f4e487b71000000000000000000000000000000000000000000000000000000005f52602260045260245ffd5b5f60028204905060018216806115e857607f821691505b6020821081036115fb576115fa6115a4565b5b50919050565b5f819050815f5260205f209050919050565b5f6020601f8301049050919050565b5f82821b905092915050565b5f6008830261165d7fffffffffffffffffffffffffffffffffffffffffffffffffffffffffffffffff82611622565b6116678683611622565b95508019841693508086168417925050509392505050565b5f819050919050565b5f6116a261169d61169884610d3e565b61167f565b610d3e565b9050919050565b5f819050919050565b6116bb83611688565b6116cf6116c7826116a9565b84845461162e565b825550505050565b5f90565b6116e36116d7565b6116ee8184846116b2565b505050565b5b81811015611711576117065f826116db565b6001810190506116f4565b5050565b601f8211156117565761172781611601565b61173084611613565b8101602085101561173f578190505b61175361174b85611613565b8301826116f3565b50505b505050565b5f82821c905092915050565b5f6117765f198460080261175b565b1980831691505092915050565b5f61178e8383611767565b9150826002028217905092915050565b6117a782610f50565b67ffffffffffffffff8111156117c0576117bf611577565b5b6117ca82546115d1565b6117d5828285611715565b5f60209050601f831160018114611806575f84156117f4578287015190505b6117fe8582611783565b865550611865565b601f19841661181486611601565b5f5b8281101561183b57848901518255600182019150602085019450602081019050611816565b868310156118585784890151611854601f891682611767565b8355505b6001600288020188555050505b505050505050565b828183375f83830152505050565b5f6118868385610f5a565b935061189383858461186d565b61189c83610f78565b840190509392505050565b5f6040820190508181035f8301526118c081868861187b565b905081810360208301526118d581848661187b565b905095945050505050565b7f456c206465706f7369746f206465626520736572206d61796f722061206365725f8201527f6f00000000000000000000000000000000000000000000000000000000000000602082015250565b5f61193a602183610f5a565b9150611945826118e0565b604082019050919050565b5f6020820190508181035f8301526119678161192e565b905091905056fea2646970667358221220d4d16cf16c895b0c646e3760a3311df3fc8bf03e379a35fe9493dbdd1cb28baa64736f6c634300081a0033",
					"opcodes": "PUSH1 0x80 PUSH1 0x40 MSTORE CALLVALUE DUP1 ISZERO PUSH2 0xF JUMPI PUSH0 DUP1 REVERT JUMPDEST POP PUSH1 0x40 MLOAD PUSH2 0x1CFF CODESIZE SUB DUP1 PUSH2 0x1CFF DUP4 CODECOPY DUP2 DUP2 ADD PUSH1 0x40 MSTORE DUP2 ADD SWAP1 PUSH2 0x31 SWAP2 SWAP1 PUSH2 0x20A JUMP JUMPDEST PUSH0 PUSH20 0xFFFFFFFFFFFFFFFFFFFFFFFFFFFFFFFFFFFFFFFF AND DUP2 PUSH20 0xFFFFFFFFFFFFFFFFFFFFFFFFFFFFFFFFFFFFFFFF AND SUB PUSH2 0x9F JUMPI PUSH1 0x40 MLOAD PUSH32 0x8C379A000000000000000000000000000000000000000000000000000000000 DUP2 MSTORE PUSH1 0x4 ADD PUSH2 0x96 SWAP1 PUSH2 0x2A2 JUMP JUMPDEST PUSH1 0x40 MLOAD DUP1 SWAP2 SUB SWAP1 REVERT JUMPDEST PUSH2 0x2710 DUP3 GT ISZERO PUSH2 0xE4 JUMPI PUSH1 0x40 MLOAD PUSH32 0x8C379A000000000000000000000000000000000000000000000000000000000 DUP2 MSTORE PUSH1 0x4 ADD PUSH2 0xDB SWAP1 PUSH2 0x330 JUMP JUMPDEST PUSH1 0x40 MLOAD DUP1 SWAP2 SUB SWAP1 REVERT JUMPDEST CALLER PUSH1 0x1 PUSH0 PUSH2 0x100 EXP DUP2 SLOAD DUP2 PUSH20 0xFFFFFFFFFFFFFFFFFFFFFFFFFFFFFFFFFFFFFFFF MUL NOT AND SWAP1 DUP4 PUSH20 0xFFFFFFFFFFFFFFFFFFFFFFFFFFFFFFFFFFFFFFFF AND MUL OR SWAP1 SSTORE POP DUP2 PUSH1 0x3 DUP2 SWAP1 SSTORE POP DUP1 PUSH1 0x2 PUSH0 PUSH2 0x100 EXP DUP2 SLOAD DUP2 PUSH20 0xFFFFFFFFFFFFFFFFFFFFFFFFFFFFFFFFFFFFFFFF MUL NOT AND SWAP1 DUP4 PUSH20 0xFFFFFFFFFFFFFFFFFFFFFFFFFFFFFFFFFFFFFFFF AND MUL OR SWAP1 SSTORE POP PUSH0 PUSH1 0x4 DUP2 SWAP1 SSTORE POP POP POP PUSH2 0x34E JUMP JUMPDEST PUSH0 DUP1 REVERT JUMPDEST PUSH0 DUP2 SWAP1 POP SWAP2 SWAP1 POP JUMP JUMPDEST PUSH2 0x18F DUP2 PUSH2 0x17D JUMP JUMPDEST DUP2 EQ PUSH2 0x199 JUMPI PUSH0 DUP1 REVERT JUMPDEST POP JUMP JUMPDEST PUSH0 DUP2 MLOAD SWAP1 POP PUSH2 0x1AA DUP2 PUSH2 0x186 JUMP JUMPDEST SWAP3 SWAP2 POP POP JUMP JUMPDEST PUSH0 PUSH20 0xFFFFFFFFFFFFFFFFFFFFFFFFFFFFFFFFFFFFFFFF DUP3 AND SWAP1 POP SWAP2 SWAP1 POP JUMP JUMPDEST PUSH0 PUSH2 0x1D9 DUP3 PUSH2 0x1B0 JUMP JUMPDEST SWAP1 POP SWAP2 SWAP1 POP JUMP JUMPDEST PUSH2 0x1E9 DUP2 PUSH2 0x1CF JUMP JUMPDEST DUP2 EQ PUSH2 0x1F3 JUMPI PUSH0 DUP1 REVERT JUMPDEST POP JUMP JUMPDEST PUSH0 DUP2 MLOAD SWAP1 POP PUSH2 0x204 DUP2 PUSH2 0x1E0 JUMP JUMPDEST SWAP3 SWAP2 POP POP JUMP JUMPDEST PUSH0 DUP1 PUSH1 0x40 DUP4 DUP6 SUB SLT ISZERO PUSH2 0x220 JUMPI PUSH2 0x21F PUSH2 0x179 JUMP JUMPDEST JUMPDEST PUSH0 PUSH2 0x22D DUP6 DUP3 DUP7 ADD PUSH2 0x19C JUMP JUMPDEST SWAP3 POP POP PUSH1 0x20 PUSH2 0x23E DUP6 DUP3 DUP7 ADD PUSH2 0x1F6 JUMP JUMPDEST SWAP2 POP POP SWAP3 POP SWAP3 SWAP1 POP JUMP JUMPDEST PUSH0 DUP3 DUP3 MSTORE PUSH1 0x20 DUP3 ADD SWAP1 POP SWAP3 SWAP2 POP POP JUMP JUMPDEST PUSH32 0x5465736F726572696120696E76616C6964610000000000000000000000000000 PUSH0 DUP3 ADD MSTORE POP JUMP JUMPDEST PUSH0 PUSH2 0x28C PUSH1 0x12 DUP4 PUSH2 0x248 JUMP JUMPDEST SWAP2 POP PUSH2 0x297 DUP3 PUSH2 0x258 JUMP JUMPDEST PUSH1 0x20 DUP3 ADD SWAP1 POP SWAP2 SWAP1 POP JUMP JUMPDEST PUSH0 PUSH1 0x20 DUP3 ADD SWAP1 POP DUP2 DUP2 SUB PUSH0 DUP4 ADD MSTORE PUSH2 0x2B9 DUP2 PUSH2 0x280 JUMP JUMPDEST SWAP1 POP SWAP2 SWAP1 POP JUMP JUMPDEST PUSH32 0x466565206E6F20707565646520657863656465722031303030302070756E746F PUSH0 DUP3 ADD MSTORE PUSH32 0x7300000000000000000000000000000000000000000000000000000000000000 PUSH1 0x20 DUP3 ADD MSTORE POP JUMP JUMPDEST PUSH0 PUSH2 0x31A PUSH1 0x21 DUP4 PUSH2 0x248 JUMP JUMPDEST SWAP2 POP PUSH2 0x325 DUP3 PUSH2 0x2C0 JUMP JUMPDEST PUSH1 0x40 DUP3 ADD SWAP1 POP SWAP2 SWAP1 POP JUMP JUMPDEST PUSH0 PUSH1 0x20 DUP3 ADD SWAP1 POP DUP2 DUP2 SUB PUSH0 DUP4 ADD MSTORE PUSH2 0x347 DUP2 PUSH2 0x30E JUMP JUMPDEST SWAP1 POP SWAP2 SWAP1 POP JUMP JUMPDEST PUSH2 0x19A4 DUP1 PUSH2 0x35B PUSH0 CODECOPY PUSH0 RETURN INVALID PUSH1 0x80 PUSH1 0x40 MSTORE PUSH1 0x4 CALLDATASIZE LT PUSH2 0x90 JUMPI PUSH0 CALLDATALOAD PUSH1 0xE0 SHR DUP1 PUSH4 0x61D027B3 GT PUSH2 0x58 JUMPI DUP1 PUSH4 0x61D027B3 EQ PUSH2 0x160 JUMPI DUP1 PUSH4 0x8DA5CB5B EQ PUSH2 0x18A JUMPI DUP1 PUSH4 0xA87430BA EQ PUSH2 0x1B4 JUMPI DUP1 PUSH4 0xD0E30DB0 EQ PUSH2 0x1F3 JUMPI DUP1 PUSH4 0xDDCA3F43 EQ PUSH2 0x1FD JUMPI PUSH2 0x90 JUMP JUMPDEST DUP1 PUSH4 0x11F1FC99 EQ PUSH2 0x94 JUMPI DUP1 PUSH4 0x12065FE0 EQ PUSH2 0xBC JUMPI DUP1 PUSH4 0x2E1A7D4D EQ PUSH2 0xE6 JUMPI DUP1 PUSH4 0x313DAB20 EQ PUSH2 0x10E JUMPI DUP1 PUSH4 0x3FFBD47F EQ PUSH2 0x138 JUMPI JUMPDEST PUSH0 DUP1 REVERT JUMPDEST CALLVALUE DUP1 ISZERO PUSH2 0x9F JUMPI PUSH0 DUP1 REVERT JUMPDEST POP PUSH2 0xBA PUSH1 0x4 DUP1 CALLDATASIZE SUB DUP2 ADD SWAP1 PUSH2 0xB5 SWAP2 SWAP1 PUSH2 0xD71 JUMP JUMPDEST PUSH2 0x227 JUMP JUMPDEST STOP JUMPDEST CALLVALUE DUP1 ISZERO PUSH2 0xC7 JUMPI PUSH0 DUP1 REVERT JUMPDEST POP PUSH2 0xD0 PUSH2 0x42C JUMP JUMPDEST PUSH1 0x40 MLOAD PUSH2 0xDD SWAP2 SWAP1 PUSH2 0xDAB JUMP JUMPDEST PUSH1 0x40 MLOAD DUP1 SWAP2 SUB SWAP1 RETURN JUMPDEST CALLVALUE DUP1 ISZERO PUSH2 0xF1 JUMPI PUSH0 DUP1 REVERT JUMPDEST POP PUSH2 0x10C PUSH1 0x4 DUP1 CALLDATASIZE SUB DUP2 ADD SWAP1 PUSH2 0x107 SWAP2 SWAP1 PUSH2 0xD71 JUMP JUMPDEST PUSH2 0x4FD JUMP JUMPDEST STOP JUMPDEST CALLVALUE DUP1 ISZERO PUSH2 0x119 JUMPI PUSH0 DUP1 REVERT JUMPDEST POP PUSH2 0x122 PUSH2 0x77F JUMP JUMPDEST PUSH1 0x40 MLOAD PUSH2 0x12F SWAP2 SWAP1 PUSH2 0xDAB JUMP JUMPDEST PUSH1 0x40 MLOAD DUP1 SWAP2 SUB SWAP1 RETURN JUMPDEST CALLVALUE DUP1 ISZERO PUSH2 0x143 JUMPI PUSH0 DUP1 REVERT JUMPDEST POP PUSH2 0x15E PUSH1 0x4 DUP1 CALLDATASIZE SUB DUP2 ADD SWAP1 PUSH2 0x159 SWAP2 SWAP1 PUSH2 0xE25 JUMP JUMPDEST PUSH2 0x785 JUMP JUMPDEST STOP JUMPDEST CALLVALUE DUP1 ISZERO PUSH2 0x16B JUMPI PUSH0 DUP1 REVERT JUMPDEST POP PUSH2 0x174 PUSH2 0xA31 JUMP JUMPDEST PUSH1 0x40 MLOAD PUSH2 0x181 SWAP2 SWAP1 PUSH2 0xEE2 JUMP JUMPDEST PUSH1 0x40 MLOAD DUP1 SWAP2 SUB SWAP1 RETURN JUMPDEST CALLVALUE DUP1 ISZERO PUSH2 0x195 JUMPI PUSH0 DUP1 REVERT JUMPDEST POP PUSH2 0x19E PUSH2 0xA56 JUMP JUMPDEST PUSH1 0x40 MLOAD PUSH2 0x1AB SWAP2 SWAP1 PUSH2 0xEE2 JUMP JUMPDEST PUSH1 0x40 MLOAD DUP1 SWAP2 SUB SWAP1 RETURN JUMPDEST CALLVALUE DUP1 ISZERO PUSH2 0x1BF JUMPI PUSH0 DUP1 REVERT JUMPDEST POP PUSH2 0x1DA PUSH1 0x4 DUP1 CALLDATASIZE SUB DUP2 ADD SWAP1 PUSH2 0x1D5 SWAP2 SWAP1 PUSH2 0xF25 JUMP JUMPDEST PUSH2 0xA7B JUMP JUMPDEST PUSH1 0x40 MLOAD PUSH2 0x1EA SWAP5 SWAP4 SWAP3 SWAP2 SWAP1 PUSH2 0xFDA JUMP JUMPDEST PUSH1 0x40 MLOAD DUP1 SWAP2 SUB SWAP1 RETURN JUMPDEST PUSH2 0x1FB PUSH2 0xBBE JUMP JUMPDEST STOP JUMPDEST CALLVALUE DUP1 ISZERO PUSH2 0x208 JUMPI PUSH0 DUP1 REVERT JUMPDEST POP PUSH2 0x211 PUSH2 0xD30 JUMP JUMPDEST PUSH1 0x40 MLOAD PUSH2 0x21E SWAP2 SWAP1 PUSH2 0xDAB JUMP JUMPDEST PUSH1 0x40 MLOAD DUP1 SWAP2 SUB SWAP1 RETURN JUMPDEST PUSH1 0x1 PUSH0 SWAP1 SLOAD SWAP1 PUSH2 0x100 EXP SWAP1 DIV PUSH20 0xFFFFFFFFFFFFFFFFFFFFFFFFFFFFFFFFFFFFFFFF AND PUSH20 0xFFFFFFFFFFFFFFFFFFFFFFFFFFFFFFFFFFFFFFFF AND CALLER PUSH20 0xFFFFFFFFFFFFFFFFFFFFFFFFFFFFFFFFFFFFFFFF AND EQ PUSH2 0x2B6 JUMPI PUSH1 0x40 MLOAD PUSH32 0x8C379A000000000000000000000000000000000000000000000000000000000 DUP2 MSTORE PUSH1 0x4 ADD PUSH2 0x2AD SWAP1 PUSH2 0x1075 JUMP JUMPDEST PUSH1 0x40 MLOAD DUP1 SWAP2 SUB SWAP1 REVERT JUMPDEST PUSH0 DUP2 GT PUSH2 0x2F8 JUMPI PUSH1 0x40 MLOAD PUSH32 0x8C379A000000000000000000000000000000000000000000000000000000000 DUP2 MSTORE PUSH1 0x4 ADD PUSH2 0x2EF SWAP1 PUSH2 0x10DD JUMP JUMPDEST PUSH1 0x40 MLOAD DUP1 SWAP2 SUB SWAP1 REVERT JUMPDEST DUP1 PUSH1 0x4 SLOAD LT ISZERO PUSH2 0x33D JUMPI PUSH1 0x40 MLOAD PUSH32 0x8C379A000000000000000000000000000000000000000000000000000000000 DUP2 MSTORE PUSH1 0x4 ADD PUSH2 0x334 SWAP1 PUSH2 0x116B JUMP JUMPDEST PUSH1 0x40 MLOAD DUP1 SWAP2 SUB SWAP1 REVERT JUMPDEST DUP1 PUSH1 0x4 PUSH0 DUP3 DUP3 SLOAD PUSH2 0x34E SWAP2 SWAP1 PUSH2 0x11B6 JUMP JUMPDEST SWAP3 POP POP DUP2 SWAP1 SSTORE POP PUSH1 0x1 PUSH0 SWAP1 SLOAD SWAP1 PUSH2 0x100 EXP SWAP1 DIV PUSH20 0xFFFFFFFFFFFFFFFFFFFFFFFFFFFFFFFFFFFFFFFF AND PUSH20 0xFFFFFFFFFFFFFFFFFFFFFFFFFFFFFFFFFFFFFFFF AND PUSH2 0x8FC DUP3 SWAP1 DUP2 ISZERO MUL SWAP1 PUSH1 0x40 MLOAD PUSH0 PUSH1 0x40 MLOAD DUP1 DUP4 SUB DUP2 DUP6 DUP9 DUP9 CALL SWAP4 POP POP POP POP ISZERO DUP1 ISZERO PUSH2 0x3B9 JUMPI RETURNDATASIZE PUSH0 DUP1 RETURNDATACOPY RETURNDATASIZE PUSH0 REVERT JUMPDEST POP PUSH1 0x1 PUSH0 SWAP1 SLOAD SWAP1 PUSH2 0x100 EXP SWAP1 DIV PUSH20 0xFFFFFFFFFFFFFFFFFFFFFFFFFFFFFFFFFFFFFFFF AND PUSH20 0xFFFFFFFFFFFFFFFFFFFFFFFFFFFFFFFFFFFFFFFF AND PUSH32 0x233C84DC0C19FBF51F9FA92214FFD8A59F512E0098BFF5827455D02E401221C0 DUP3 PUSH1 0x40 MLOAD PUSH2 0x421 SWAP2 SWAP1 PUSH2 0xDAB JUMP JUMPDEST PUSH1 0x40 MLOAD DUP1 SWAP2 SUB SWAP1 LOG2 POP JUMP JUMPDEST PUSH0 DUP1 PUSH0 CALLER PUSH20 0xFFFFFFFFFFFFFFFFFFFFFFFFFFFFFFFFFFFFFFFF AND PUSH20 0xFFFFFFFFFFFFFFFFFFFFFFFFFFFFFFFFFFFFFFFF AND DUP2 MSTORE PUSH1 0x20 ADD SWAP1 DUP2 MSTORE PUSH1 0x20 ADD PUSH0 KECCAK256 PUSH1 0x3 ADD PUSH0 SWAP1 SLOAD SWAP1 PUSH2 0x100 EXP SWAP1 DIV PUSH1 0xFF AND PUSH2 0x4B8 JUMPI PUSH1 0x40 MLOAD PUSH32 0x8C379A000000000000000000000000000000000000000000000000000000000 DUP2 MSTORE PUSH1 0x4 ADD PUSH2 0x4AF SWAP1 PUSH2 0x1233 JUMP JUMPDEST PUSH1 0x40 MLOAD DUP1 SWAP2 SUB SWAP1 REVERT JUMPDEST PUSH0 DUP1 CALLER PUSH20 0xFFFFFFFFFFFFFFFFFFFFFFFFFFFFFFFFFFFFFFFF AND PUSH20 0xFFFFFFFFFFFFFFFFFFFFFFFFFFFFFFFFFFFFFFFF AND DUP2 MSTORE PUSH1 0x20 ADD SWAP1 DUP2 MSTORE PUSH1 0x20 ADD PUSH0 KECCAK256 PUSH1 0x2 ADD SLOAD SWAP1 POP SWAP1 JUMP JUMPDEST PUSH0 DUP1 CALLER PUSH20 0xFFFFFFFFFFFFFFFFFFFFFFFFFFFFFFFFFFFFFFFF AND PUSH20 0xFFFFFFFFFFFFFFFFFFFFFFFFFFFFFFFFFFFFFFFF AND DUP2 MSTORE PUSH1 0x20 ADD SWAP1 DUP2 MSTORE PUSH1 0x20 ADD PUSH0 KECCAK256 PUSH1 0x3 ADD PUSH0 SWAP1 SLOAD SWAP1 PUSH2 0x100 EXP SWAP1 DIV PUSH1 0xFF AND PUSH2 0x588 JUMPI PUSH1 0x40 MLOAD PUSH32 0x8C379A000000000000000000000000000000000000000000000000000000000 DUP2 MSTORE PUSH1 0x4 ADD PUSH2 0x57F SWAP1 PUSH2 0x1233 JUMP JUMPDEST PUSH1 0x40 MLOAD DUP1 SWAP2 SUB SWAP1 REVERT JUMPDEST PUSH0 DUP2 GT PUSH2 0x5CA JUMPI PUSH1 0x40 MLOAD PUSH32 0x8C379A000000000000000000000000000000000000000000000000000000000 DUP2 MSTORE PUSH1 0x4 ADD PUSH2 0x5C1 SWAP1 PUSH2 0x12C1 JUMP JUMPDEST PUSH1 0x40 MLOAD DUP1 SWAP2 SUB SWAP1 REVERT JUMPDEST DUP1 PUSH0 DUP1 CALLER PUSH20 0xFFFFFFFFFFFFFFFFFFFFFFFFFFFFFFFFFFFFFFFF AND PUSH20 0xFFFFFFFFFFFFFFFFFFFFFFFFFFFFFFFFFFFFFFFF AND DUP2 MSTORE PUSH1 0x20 ADD SWAP1 DUP2 MSTORE PUSH1 0x20 ADD PUSH0 KECCAK256 PUSH1 0x2 ADD SLOAD LT ISZERO PUSH2 0x64C JUMPI PUSH1 0x40 MLOAD PUSH32 0x8C379A000000000000000000000000000000000000000000000000000000000 DUP2 MSTORE PUSH1 0x4 ADD PUSH2 0x643 SWAP1 PUSH2 0x1329 JUMP JUMPDEST PUSH1 0x40 MLOAD DUP1 SWAP2 SUB SWAP1 REVERT JUMPDEST PUSH0 PUSH2 0x2710 PUSH1 0x3 SLOAD DUP4 PUSH2 0x65E SWAP2 SWAP1 PUSH2 0x1347 JUMP JUMPDEST PUSH2 0x668 SWAP2 SWAP1 PUSH2 0x13B5 JUMP JUMPDEST SWAP1 POP PUSH0 DUP2 DUP4 PUSH2 0x677 SWAP2 SWAP1 PUSH2 0x11B6 JUMP JUMPDEST SWAP1 POP DUP3 PUSH0 DUP1 CALLER PUSH20 0xFFFFFFFFFFFFFFFFFFFFFFFFFFFFFFFFFFFFFFFF AND PUSH20 0xFFFFFFFFFFFFFFFFFFFFFFFFFFFFFFFFFFFFFFFF AND DUP2 MSTORE PUSH1 0x20 ADD SWAP1 DUP2 MSTORE PUSH1 0x20 ADD PUSH0 KECCAK256 PUSH1 0x2 ADD PUSH0 DUP3 DUP3 SLOAD PUSH2 0x6C7 SWAP2 SWAP1 PUSH2 0x11B6 JUMP JUMPDEST SWAP3 POP POP DUP2 SWAP1 SSTORE POP DUP2 PUSH1 0x4 PUSH0 DUP3 DUP3 SLOAD PUSH2 0x6DF SWAP2 SWAP1 PUSH2 0x13E5 JUMP JUMPDEST SWAP3 POP POP DUP2 SWAP1 SSTORE POP CALLER PUSH20 0xFFFFFFFFFFFFFFFFFFFFFFFFFFFFFFFFFFFFFFFF AND PUSH2 0x8FC DUP3 SWAP1 DUP2 ISZERO MUL SWAP1 PUSH1 0x40 MLOAD PUSH0 PUSH1 0x40 MLOAD DUP1 DUP4 SUB DUP2 DUP6 DUP9 DUP9 CALL SWAP4 POP POP POP POP ISZERO DUP1 ISZERO PUSH2 0x729 JUMPI RETURNDATASIZE PUSH0 DUP1 RETURNDATACOPY RETURNDATASIZE PUSH0 REVERT JUMPDEST POP CALLER PUSH20 0xFFFFFFFFFFFFFFFFFFFFFFFFFFFFFFFFFFFFFFFF AND PUSH32 0xDF273CB619D95419A9CD0EC88123A0538C85064229BAA6363788F743FFF90DEB DUP5 DUP5 PUSH1 0x40 MLOAD PUSH2 0x772 SWAP3 SWAP2 SWAP1 PUSH2 0x1418 JUMP JUMPDEST PUSH1 0x40 MLOAD DUP1 SWAP2 SUB SWAP1 LOG2 POP POP POP JUMP JUMPDEST PUSH1 0x4 SLOAD DUP2 JUMP JUMPDEST PUSH0 DUP5 DUP5 SWAP1 POP GT PUSH2 0x7CA JUMPI PUSH1 0x40 MLOAD PUSH32 0x8C379A000000000000000000000000000000000000000000000000000000000 DUP2 MSTORE PUSH1 0x4 ADD PUSH2 0x7C1 SWAP1 PUSH2 0x1489 JUMP JUMPDEST PUSH1 0x40 MLOAD DUP1 SWAP2 SUB SWAP1 REVERT JUMPDEST PUSH0 DUP3 DUP3 SWAP1 POP GT PUSH2 0x80F JUMPI PUSH1 0x40 MLOAD PUSH32 0x8C379A000000000000000000000000000000000000000000000000000000000 DUP2 MSTORE PUSH1 0x4 ADD PUSH2 0x806 SWAP1 PUSH2 0x14F1 JUMP JUMPDEST PUSH1 0x40 MLOAD DUP1 SWAP2 SUB SWAP1 REVERT JUMPDEST PUSH0 DUP1 CALLER PUSH20 0xFFFFFFFFFFFFFFFFFFFFFFFFFFFFFFFFFFFFFFFF AND PUSH20 0xFFFFFFFFFFFFFFFFFFFFFFFFFFFFFFFFFFFFFFFF AND DUP2 MSTORE PUSH1 0x20 ADD SWAP1 DUP2 MSTORE PUSH1 0x20 ADD PUSH0 KECCAK256 PUSH1 0x3 ADD PUSH0 SWAP1 SLOAD SWAP1 PUSH2 0x100 EXP SWAP1 DIV PUSH1 0xFF AND ISZERO PUSH2 0x89B JUMPI PUSH1 0x40 MLOAD PUSH32 0x8C379A000000000000000000000000000000000000000000000000000000000 DUP2 MSTORE PUSH1 0x4 ADD PUSH2 0x892 SWAP1 PUSH2 0x1559 JUMP JUMPDEST PUSH1 0x40 MLOAD DUP1 SWAP2 SUB SWAP1 REVERT JUMPDEST PUSH1 0x40 MLOAD DUP1 PUSH1 0x80 ADD PUSH1 0x40 MSTORE DUP1 DUP6 DUP6 DUP1 DUP1 PUSH1 0x1F ADD PUSH1 0x20 DUP1 SWAP2 DIV MUL PUSH1 0x20 ADD PUSH1 0x40 MLOAD SWAP1 DUP2 ADD PUSH1 0x40 MSTORE DUP1 SWAP4 SWAP3 SWAP2 SWAP1 DUP2 DUP2 MSTORE PUSH1 0x20 ADD DUP4 DUP4 DUP1 DUP3 DUP5 CALLDATACOPY PUSH0 DUP2 DUP5 ADD MSTORE PUSH1 0x1F NOT PUSH1 0x1F DUP3 ADD AND SWAP1 POP DUP1 DUP4 ADD SWAP3 POP POP POP POP POP POP POP DUP2 MSTORE PUSH1 0x20 ADD DUP4 DUP4 DUP1 DUP1 PUSH1 0x1F ADD PUSH1 0x20 DUP1 SWAP2 DIV MUL PUSH1 0x20 ADD PUSH1 0x40 MLOAD SWAP1 DUP2 ADD PUSH1 0x40 MSTORE DUP1 SWAP4 SWAP3 SWAP2 SWAP1 DUP2 DUP2 MSTORE PUSH1 0x20 ADD DUP4 DUP4 DUP1 DUP3 DUP5 CALLDATACOPY PUSH0 DUP2 DUP5 ADD MSTORE PUSH1 0x1F NOT PUSH1 0x1F DUP3 ADD AND SWAP1 POP DUP1 DUP4 ADD SWAP3 POP POP POP POP POP POP POP DUP2 MSTORE PUSH1 0x20 ADD PUSH0 DUP2 MSTORE PUSH1 0x20 ADD PUSH1 0x1 ISZERO ISZERO DUP2 MSTORE POP PUSH0 DUP1 CALLER PUSH20 0xFFFFFFFFFFFFFFFFFFFFFFFFFFFFFFFFFFFFFFFF AND PUSH20 0xFFFFFFFFFFFFFFFFFFFFFFFFFFFFFFFFFFFFFFFF AND DUP2 MSTORE PUSH1 0x20 ADD SWAP1 DUP2 MSTORE PUSH1 0x20 ADD PUSH0 KECCAK256 PUSH0 DUP3 ADD MLOAD DUP2 PUSH0 ADD SWAP1 DUP2 PUSH2 0x994 SWAP2 SWAP1 PUSH2 0x179E JUMP JUMPDEST POP PUSH1 0x20 DUP3 ADD MLOAD DUP2 PUSH1 0x1 ADD SWAP1 DUP2 PUSH2 0x9AA SWAP2 SWAP1 PUSH2 0x179E JUMP JUMPDEST POP PUSH1 0x40 DUP3 ADD MLOAD DUP2 PUSH1 0x2 ADD SSTORE PUSH1 0x60 DUP3 ADD MLOAD DUP2 PUSH1 0x3 ADD PUSH0 PUSH2 0x100 EXP DUP2 SLOAD DUP2 PUSH1 0xFF MUL NOT AND SWAP1 DUP4 ISZERO ISZERO MUL OR SWAP1 SSTORE POP SWAP1 POP POP CALLER PUSH20 0xFFFFFFFFFFFFFFFFFFFFFFFFFFFFFFFFFFFFFFFF AND PUSH32 0x92822564BAB8864C3A47B34E8D23FBCE5C46234EB5DA261F94087B995AC0F33B DUP6 DUP6 DUP6 DUP6 PUSH1 0x40 MLOAD PUSH2 0xA23 SWAP5 SWAP4 SWAP3 SWAP2 SWAP1 PUSH2 0x18A7 JUMP JUMPDEST PUSH1 0x40 MLOAD DUP1 SWAP2 SUB SWAP1 LOG2 POP POP POP POP JUMP JUMPDEST PUSH1 0x2 PUSH0 SWAP1 SLOAD SWAP1 PUSH2 0x100 EXP SWAP1 DIV PUSH20 0xFFFFFFFFFFFFFFFFFFFFFFFFFFFFFFFFFFFFFFFF AND DUP2 JUMP JUMPDEST PUSH1 0x1 PUSH0 SWAP1 SLOAD SWAP1 PUSH2 0x100 EXP SWAP1 DIV PUSH20 0xFFFFFFFFFFFFFFFFFFFFFFFFFFFFFFFFFFFFFFFF AND DUP2 JUMP JUMPDEST PUSH0 PUSH1 0x20 MSTORE DUP1 PUSH0 MSTORE PUSH1 0x40 PUSH0 KECCAK256 PUSH0 SWAP2 POP SWAP1 POP DUP1 PUSH0 ADD DUP1 SLOAD PUSH2 0xA99 SWAP1 PUSH2 0x15D1 JUMP JUMPDEST DUP1 PUSH1 0x1F ADD PUSH1 0x20 DUP1 SWAP2 DIV MUL PUSH1 0x20 ADD PUSH1 0x40 MLOAD SWAP1 DUP2 ADD PUSH1 0x40 MSTORE DUP1 SWAP3 SWAP2 SWAP1 DUP2 DUP2 MSTORE PUSH1 0x20 ADD DUP3 DUP1 SLOAD PUSH2 0xAC5 SWAP1 PUSH2 0x15D1 JUMP JUMPDEST DUP1 ISZERO PUSH2 0xB10 JUMPI DUP1 PUSH1 0x1F LT PUSH2 0xAE7 JUMPI PUSH2 0x100 DUP1 DUP4 SLOAD DIV MUL DUP4 MSTORE SWAP2 PUSH1 0x20 ADD SWAP2 PUSH2 0xB10 JUMP JUMPDEST DUP3 ADD SWAP2 SWAP1 PUSH0 MSTORE PUSH1 0x20 PUSH0 KECCAK256 SWAP1 JUMPDEST DUP2 SLOAD DUP2 MSTORE SWAP1 PUSH1 0x1 ADD SWAP1 PUSH1 0x20 ADD DUP1 DUP4 GT PUSH2 0xAF3 JUMPI DUP3 SWAP1 SUB PUSH1 0x1F AND DUP3 ADD SWAP2 JUMPDEST POP POP POP POP POP SWAP1 DUP1 PUSH1 0x1 ADD DUP1 SLOAD PUSH2 0xB25 SWAP1 PUSH2 0x15D1 JUMP JUMPDEST DUP1 PUSH1 0x1F ADD PUSH1 0x20 DUP1 SWAP2 DIV MUL PUSH1 0x20 ADD PUSH1 0x40 MLOAD SWAP1 DUP2 ADD PUSH1 0x40 MSTORE DUP1 SWAP3 SWAP2 SWAP1 DUP2 DUP2 MSTORE PUSH1 0x20 ADD DUP3 DUP1 SLOAD PUSH2 0xB51 SWAP1 PUSH2 0x15D1 JUMP JUMPDEST DUP1 ISZERO PUSH2 0xB9C JUMPI DUP1 PUSH1 0x1F LT PUSH2 0xB73 JUMPI PUSH2 0x100 DUP1 DUP4 SLOAD DIV MUL DUP4 MSTORE SWAP2 PUSH1 0x20 ADD SWAP2 PUSH2 0xB9C JUMP JUMPDEST DUP3 ADD SWAP2 SWAP1 PUSH0 MSTORE PUSH1 0x20 PUSH0 KECCAK256 SWAP1 JUMPDEST DUP2 SLOAD DUP2 MSTORE SWAP1 PUSH1 0x1 ADD SWAP1 PUSH1 0x20 ADD DUP1 DUP4 GT PUSH2 0xB7F JUMPI DUP3 SWAP1 SUB PUSH1 0x1F AND DUP3 ADD SWAP2 JUMPDEST POP POP POP POP POP SWAP1 DUP1 PUSH1 0x2 ADD SLOAD SWAP1 DUP1 PUSH1 0x3 ADD PUSH0 SWAP1 SLOAD SWAP1 PUSH2 0x100 EXP SWAP1 DIV PUSH1 0xFF AND SWAP1 POP DUP5 JUMP JUMPDEST PUSH0 DUP1 CALLER PUSH20 0xFFFFFFFFFFFFFFFFFFFFFFFFFFFFFFFFFFFFFFFF AND PUSH20 0xFFFFFFFFFFFFFFFFFFFFFFFFFFFFFFFFFFFFFFFF AND DUP2 MSTORE PUSH1 0x20 ADD SWAP1 DUP2 MSTORE PUSH1 0x20 ADD PUSH0 KECCAK256 PUSH1 0x3 ADD PUSH0 SWAP1 SLOAD SWAP1 PUSH2 0x100 EXP SWAP1 DIV PUSH1 0xFF AND PUSH2 0xC49 JUMPI PUSH1 0x40 MLOAD PUSH32 0x8C379A000000000000000000000000000000000000000000000000000000000 DUP2 MSTORE PUSH1 0x4 ADD PUSH2 0xC40 SWAP1 PUSH2 0x1233 JUMP JUMPDEST PUSH1 0x40 MLOAD DUP1 SWAP2 SUB SWAP1 REVERT JUMPDEST PUSH0 CALLVALUE GT PUSH2 0xC8B JUMPI PUSH1 0x40 MLOAD PUSH32 0x8C379A000000000000000000000000000000000000000000000000000000000 DUP2 MSTORE PUSH1 0x4 ADD PUSH2 0xC82 SWAP1 PUSH2 0x1950 JUMP JUMPDEST PUSH1 0x40 MLOAD DUP1 SWAP2 SUB SWAP1 REVERT JUMPDEST CALLVALUE PUSH0 DUP1 CALLER PUSH20 0xFFFFFFFFFFFFFFFFFFFFFFFFFFFFFFFFFFFFFFFF AND PUSH20 0xFFFFFFFFFFFFFFFFFFFFFFFFFFFFFFFFFFFFFFFF AND DUP2 MSTORE PUSH1 0x20 ADD SWAP1 DUP2 MSTORE PUSH1 0x20 ADD PUSH0 KECCAK256 PUSH1 0x2 ADD PUSH0 DUP3 DUP3 SLOAD PUSH2 0xCD9 SWAP2 SWAP1 PUSH2 0x13E5 JUMP JUMPDEST SWAP3 POP POP DUP2 SWAP1 SSTORE POP CALLER PUSH20 0xFFFFFFFFFFFFFFFFFFFFFFFFFFFFFFFFFFFFFFFF AND PUSH32 0xE1FFFCC4923D04B559F4D29A8BFC6CDA04EB5B0D3C460751C2402C5C5CC9109C CALLVALUE PUSH1 0x40 MLOAD PUSH2 0xD26 SWAP2 SWAP1 PUSH2 0xDAB JUMP JUMPDEST PUSH1 0x40 MLOAD DUP1 SWAP2 SUB SWAP1 LOG2 JUMP JUMPDEST PUSH1 0x3 SLOAD DUP2 JUMP JUMPDEST PUSH0 DUP1 REVERT JUMPDEST PUSH0 DUP1 REVERT JUMPDEST PUSH0 DUP2 SWAP1 POP SWAP2 SWAP1 POP JUMP JUMPDEST PUSH2 0xD50 DUP2 PUSH2 0xD3E JUMP JUMPDEST DUP2 EQ PUSH2 0xD5A JUMPI PUSH0 DUP1 REVERT JUMPDEST POP JUMP JUMPDEST PUSH0 DUP2 CALLDATALOAD SWAP1 POP PUSH2 0xD6B DUP2 PUSH2 0xD47 JUMP JUMPDEST SWAP3 SWAP2 POP POP JUMP JUMPDEST PUSH0 PUSH1 0x20 DUP3 DUP5 SUB SLT ISZERO PUSH2 0xD86 JUMPI PUSH2 0xD85 PUSH2 0xD36 JUMP JUMPDEST JUMPDEST PUSH0 PUSH2 0xD93 DUP5 DUP3 DUP6 ADD PUSH2 0xD5D JUMP JUMPDEST SWAP2 POP POP SWAP3 SWAP2 POP POP JUMP JUMPDEST PUSH2 0xDA5 DUP2 PUSH2 0xD3E JUMP JUMPDEST DUP3 MSTORE POP POP JUMP JUMPDEST PUSH0 PUSH1 0x20 DUP3 ADD SWAP1 POP PUSH2 0xDBE PUSH0 DUP4 ADD DUP5 PUSH2 0xD9C JUMP JUMPDEST SWAP3 SWAP2 POP POP JUMP JUMPDEST PUSH0 DUP1 REVERT JUMPDEST PUSH0 DUP1 REVERT JUMPDEST PUSH0 DUP1 REVERT JUMPDEST PUSH0 DUP1 DUP4 PUSH1 0x1F DUP5 ADD SLT PUSH2 0xDE5 JUMPI PUSH2 0xDE4 PUSH2 0xDC4 JUMP JUMPDEST JUMPDEST DUP3 CALLDATALOAD SWAP1 POP PUSH8 0xFFFFFFFFFFFFFFFF DUP2 GT ISZERO PUSH2 0xE02 JUMPI PUSH2 0xE01 PUSH2 0xDC8 JUMP JUMPDEST JUMPDEST PUSH1 0x20 DUP4 ADD SWAP2 POP DUP4 PUSH1 0x1 DUP3 MUL DUP4 ADD GT ISZERO PUSH2 0xE1E JUMPI PUSH2 0xE1D PUSH2 0xDCC JUMP JUMPDEST JUMPDEST SWAP3 POP SWAP3 SWAP1 POP JUMP JUMPDEST PUSH0 DUP1 PUSH0 DUP1 PUSH1 0x40 DUP6 DUP8 SUB SLT ISZERO PUSH2 0xE3D JUMPI PUSH2 0xE3C PUSH2 0xD36 JUMP JUMPDEST JUMPDEST PUSH0 DUP6 ADD CALLDATALOAD PUSH8 0xFFFFFFFFFFFFFFFF DUP2 GT ISZERO PUSH2 0xE5A JUMPI PUSH2 0xE59 PUSH2 0xD3A JUMP JUMPDEST JUMPDEST PUSH2 0xE66 DUP8 DUP3 DUP9 ADD PUSH2 0xDD0 JUMP JUMPDEST SWAP5 POP SWAP5 POP POP PUSH1 0x20 DUP6 ADD CALLDATALOAD PUSH8 0xFFFFFFFFFFFFFFFF DUP2 GT ISZERO PUSH2 0xE89 JUMPI PUSH2 0xE88 PUSH2 0xD3A JUMP JUMPDEST JUMPDEST PUSH2 0xE95 DUP8 DUP3 DUP9 ADD PUSH2 0xDD0 JUMP JUMPDEST SWAP3 POP SWAP3 POP POP SWAP3 SWAP6 SWAP2 SWAP5 POP SWAP3 POP JUMP JUMPDEST PUSH0 PUSH20 0xFFFFFFFFFFFFFFFFFFFFFFFFFFFFFFFFFFFFFFFF DUP3 AND SWAP1 POP SWAP2 SWAP1 POP JUMP JUMPDEST PUSH0 PUSH2 0xECC DUP3 PUSH2 0xEA3 JUMP JUMPDEST SWAP1 POP SWAP2 SWAP1 POP JUMP JUMPDEST PUSH2 0xEDC DUP2 PUSH2 0xEC2 JUMP JUMPDEST DUP3 MSTORE POP POP JUMP JUMPDEST PUSH0 PUSH1 0x20 DUP3 ADD SWAP1 POP PUSH2 0xEF5 PUSH0 DUP4 ADD DUP5 PUSH2 0xED3 JUMP JUMPDEST SWAP3 SWAP2 POP POP JUMP JUMPDEST PUSH2 0xF04 DUP2 PUSH2 0xEC2 JUMP JUMPDEST DUP2 EQ PUSH2 0xF0E JUMPI PUSH0 DUP1 REVERT JUMPDEST POP JUMP JUMPDEST PUSH0 DUP2 CALLDATALOAD SWAP1 POP PUSH2 0xF1F DUP2 PUSH2 0xEFB JUMP JUMPDEST SWAP3 SWAP2 POP POP JUMP JUMPDEST PUSH0 PUSH1 0x20 DUP3 DUP5 SUB SLT ISZERO PUSH2 0xF3A JUMPI PUSH2 0xF39 PUSH2 0xD36 JUMP JUMPDEST JUMPDEST PUSH0 PUSH2 0xF47 DUP5 DUP3 DUP6 ADD PUSH2 0xF11 JUMP JUMPDEST SWAP2 POP POP SWAP3 SWAP2 POP POP JUMP JUMPDEST PUSH0 DUP2 MLOAD SWAP1 POP SWAP2 SWAP1 POP JUMP JUMPDEST PUSH0 DUP3 DUP3 MSTORE PUSH1 0x20 DUP3 ADD SWAP1 POP SWAP3 SWAP2 POP POP JUMP JUMPDEST DUP3 DUP2 DUP4 MCOPY PUSH0 DUP4 DUP4 ADD MSTORE POP POP POP JUMP JUMPDEST PUSH0 PUSH1 0x1F NOT PUSH1 0x1F DUP4 ADD AND SWAP1 POP SWAP2 SWAP1 POP JUMP JUMPDEST PUSH0 PUSH2 0xF92 DUP3 PUSH2 0xF50 JUMP JUMPDEST PUSH2 0xF9C DUP2 DUP6 PUSH2 0xF5A JUMP JUMPDEST SWAP4 POP PUSH2 0xFAC DUP2 DUP6 PUSH1 0x20 DUP7 ADD PUSH2 0xF6A JUMP JUMPDEST PUSH2 0xFB5 DUP2 PUSH2 0xF78 JUMP JUMPDEST DUP5 ADD SWAP2 POP POP SWAP3 SWAP2 POP POP JUMP JUMPDEST PUSH0 DUP2 ISZERO ISZERO SWAP1 POP SWAP2 SWAP1 POP JUMP JUMPDEST PUSH2 0xFD4 DUP2 PUSH2 0xFC0 JUMP JUMPDEST DUP3 MSTORE POP POP JUMP JUMPDEST PUSH0 PUSH1 0x80 DUP3 ADD SWAP1 POP DUP2 DUP2 SUB PUSH0 DUP4 ADD MSTORE PUSH2 0xFF2 DUP2 DUP8 PUSH2 0xF88 JUMP JUMPDEST SWAP1 POP DUP2 DUP2 SUB PUSH1 0x20 DUP4 ADD MSTORE PUSH2 0x1006 DUP2 DUP7 PUSH2 0xF88 JUMP JUMPDEST SWAP1 POP PUSH2 0x1015 PUSH1 0x40 DUP4 ADD DUP6 PUSH2 0xD9C JUMP JUMPDEST PUSH2 0x1022 PUSH1 0x60 DUP4 ADD DUP5 PUSH2 0xFCB JUMP JUMPDEST SWAP6 SWAP5 POP POP POP POP POP JUMP JUMPDEST PUSH32 0x536F6C6F20656C206F776E657220707565646520656A65637574617200000000 PUSH0 DUP3 ADD MSTORE POP JUMP JUMPDEST PUSH0 PUSH2 0x105F PUSH1 0x1C DUP4 PUSH2 0xF5A JUMP JUMPDEST SWAP2 POP PUSH2 0x106A DUP3 PUSH2 0x102B JUMP JUMPDEST PUSH1 0x20 DUP3 ADD SWAP1 POP SWAP2 SWAP1 POP JUMP JUMPDEST PUSH0 PUSH1 0x20 DUP3 ADD SWAP1 POP DUP2 DUP2 SUB PUSH0 DUP4 ADD MSTORE PUSH2 0x108C DUP2 PUSH2 0x1053 JUMP JUMPDEST SWAP1 POP SWAP2 SWAP1 POP JUMP JUMPDEST PUSH32 0x4D6F6E746F206465626520736572206D61796F722061206365726F0000000000 PUSH0 DUP3 ADD MSTORE POP JUMP JUMPDEST PUSH0 PUSH2 0x10C7 PUSH1 0x1B DUP4 PUSH2 0xF5A JUMP JUMPDEST SWAP2 POP PUSH2 0x10D2 DUP3 PUSH2 0x1093 JUMP JUMPDEST PUSH1 0x20 DUP3 ADD SWAP1 POP SWAP2 SWAP1 POP JUMP JUMPDEST PUSH0 PUSH1 0x20 DUP3 ADD SWAP1 POP DUP2 DUP2 SUB PUSH0 DUP4 ADD MSTORE PUSH2 0x10F4 DUP2 PUSH2 0x10BB JUMP JUMPDEST SWAP1 POP SWAP2 SWAP1 POP JUMP JUMPDEST PUSH32 0x42616C616E6365206465207465736F726572696120696E737566696369656E74 PUSH0 DUP3 ADD MSTORE PUSH32 0x6500000000000000000000000000000000000000000000000000000000000000 PUSH1 0x20 DUP3 ADD MSTORE POP JUMP JUMPDEST PUSH0 PUSH2 0x1155 PUSH1 0x21 DUP4 PUSH2 0xF5A JUMP JUMPDEST SWAP2 POP PUSH2 0x1160 DUP3 PUSH2 0x10FB JUMP JUMPDEST PUSH1 0x40 DUP3 ADD SWAP1 POP SWAP2 SWAP1 POP JUMP JUMPDEST PUSH0 PUSH1 0x20 DUP3 ADD SWAP1 POP DUP2 DUP2 SUB PUSH0 DUP4 ADD MSTORE PUSH2 0x1182 DUP2 PUSH2 0x1149 JUMP JUMPDEST SWAP1 POP SWAP2 SWAP1 POP JUMP JUMPDEST PUSH32 0x4E487B7100000000000000000000000000000000000000000000000000000000 PUSH0 MSTORE PUSH1 0x11 PUSH1 0x4 MSTORE PUSH1 0x24 PUSH0 REVERT JUMPDEST PUSH0 PUSH2 0x11C0 DUP3 PUSH2 0xD3E JUMP JUMPDEST SWAP2 POP PUSH2 0x11CB DUP4 PUSH2 0xD3E JUMP JUMPDEST SWAP3 POP DUP3 DUP3 SUB SWAP1 POP DUP2 DUP2 GT ISZERO PUSH2 0x11E3 JUMPI PUSH2 0x11E2 PUSH2 0x1189 JUMP JUMPDEST JUMPDEST SWAP3 SWAP2 POP POP JUMP JUMPDEST PUSH32 0x5573756172696F206E6F207265676973747261646F0000000000000000000000 PUSH0 DUP3 ADD MSTORE POP JUMP JUMPDEST PUSH0 PUSH2 0x121D PUSH1 0x15 DUP4 PUSH2 0xF5A JUMP JUMPDEST SWAP2 POP PUSH2 0x1228 DUP3 PUSH2 0x11E9 JUMP JUMPDEST PUSH1 0x20 DUP3 ADD SWAP1 POP SWAP2 SWAP1 POP JUMP JUMPDEST PUSH0 PUSH1 0x20 DUP3 ADD SWAP1 POP DUP2 DUP2 SUB PUSH0 DUP4 ADD MSTORE PUSH2 0x124A DUP2 PUSH2 0x1211 JUMP JUMPDEST SWAP1 POP SWAP2 SWAP1 POP JUMP JUMPDEST PUSH32 0x4D6F6E746F2064652072657469726F206465626520736572206D61796F722061 PUSH0 DUP3 ADD MSTORE PUSH32 0x206365726F000000000000000000000000000000000000000000000000000000 PUSH1 0x20 DUP3 ADD MSTORE POP JUMP JUMPDEST PUSH0 PUSH2 0x12AB PUSH1 0x25 DUP4 PUSH2 0xF5A JUMP JUMPDEST SWAP2 POP PUSH2 0x12B6 DUP3 PUSH2 0x1251 JUMP JUMPDEST PUSH1 0x40 DUP3 ADD SWAP1 POP SWAP2 SWAP1 POP JUMP JUMPDEST PUSH0 PUSH1 0x20 DUP3 ADD SWAP1 POP DUP2 DUP2 SUB PUSH0 DUP4 ADD MSTORE PUSH2 0x12D8 DUP2 PUSH2 0x129F JUMP JUMPDEST SWAP1 POP SWAP2 SWAP1 POP JUMP JUMPDEST PUSH32 0x53616C646F20696E737566696369656E74650000000000000000000000000000 PUSH0 DUP3 ADD MSTORE POP JUMP JUMPDEST PUSH0 PUSH2 0x1313 PUSH1 0x12 DUP4 PUSH2 0xF5A JUMP JUMPDEST SWAP2 POP PUSH2 0x131E DUP3 PUSH2 0x12DF JUMP JUMPDEST PUSH1 0x20 DUP3 ADD SWAP1 POP SWAP2 SWAP1 POP JUMP JUMPDEST PUSH0 PUSH1 0x20 DUP3 ADD SWAP1 POP DUP2 DUP2 SUB PUSH0 DUP4 ADD MSTORE PUSH2 0x1340 DUP2 PUSH2 0x1307 JUMP JUMPDEST SWAP1 POP SWAP2 SWAP1 POP JUMP JUMPDEST PUSH0 PUSH2 0x1351 DUP3 PUSH2 0xD3E JUMP JUMPDEST SWAP2 POP PUSH2 0x135C DUP4 PUSH2 0xD3E JUMP JUMPDEST SWAP3 POP DUP3 DUP3 MUL PUSH2 0x136A DUP2 PUSH2 0xD3E JUMP JUMPDEST SWAP2 POP DUP3 DUP3 DIV DUP5 EQ DUP4 ISZERO OR PUSH2 0x1381 JUMPI PUSH2 0x1380 PUSH2 0x1189 JUMP JUMPDEST JUMPDEST POP SWAP3 SWAP2 POP POP JUMP JUMPDEST PUSH32 0x4E487B7100000000000000000000000000000000000000000000000000000000 PUSH0 MSTORE PUSH1 0x12 PUSH1 0x4 MSTORE PUSH1 0x24 PUSH0 REVERT JUMPDEST PUSH0 PUSH2 0x13BF DUP3 PUSH2 0xD3E JUMP JUMPDEST SWAP2 POP PUSH2 0x13CA DUP4 PUSH2 0xD3E JUMP JUMPDEST SWAP3 POP DUP3 PUSH2 0x13DA JUMPI PUSH2 0x13D9 PUSH2 0x1388 JUMP JUMPDEST JUMPDEST DUP3 DUP3 DIV SWAP1 POP SWAP3 SWAP2 POP POP JUMP JUMPDEST PUSH0 PUSH2 0x13EF DUP3 PUSH2 0xD3E JUMP JUMPDEST SWAP2 POP PUSH2 0x13FA DUP4 PUSH2 0xD3E JUMP JUMPDEST SWAP3 POP DUP3 DUP3 ADD SWAP1 POP DUP1 DUP3 GT ISZERO PUSH2 0x1412 JUMPI PUSH2 0x1411 PUSH2 0x1189 JUMP JUMPDEST JUMPDEST SWAP3 SWAP2 POP POP JUMP JUMPDEST PUSH0 PUSH1 0x40 DUP3 ADD SWAP1 POP PUSH2 0x142B PUSH0 DUP4 ADD DUP6 PUSH2 0xD9C JUMP JUMPDEST PUSH2 0x1438 PUSH1 0x20 DUP4 ADD DUP5 PUSH2 0xD9C JUMP JUMPDEST SWAP4 SWAP3 POP POP POP JUMP JUMPDEST PUSH32 0x4E6F6D627265206E6F20707565646520657374617220766163696F0000000000 PUSH0 DUP3 ADD MSTORE POP JUMP JUMPDEST PUSH0 PUSH2 0x1473 PUSH1 0x1B DUP4 PUSH2 0xF5A JUMP JUMPDEST SWAP2 POP PUSH2 0x147E DUP3 PUSH2 0x143F JUMP JUMPDEST PUSH1 0x20 DUP3 ADD SWAP1 POP SWAP2 SWAP1 POP JUMP JUMPDEST PUSH0 PUSH1 0x20 DUP3 ADD SWAP1 POP DUP2 DUP2 SUB PUSH0 DUP4 ADD MSTORE PUSH2 0x14A0 DUP2 PUSH2 0x1467 JUMP JUMPDEST SWAP1 POP SWAP2 SWAP1 POP JUMP JUMPDEST PUSH32 0x4170656C6C69646F206E6F20707565646520657374617220766163696F000000 PUSH0 DUP3 ADD MSTORE POP JUMP JUMPDEST PUSH0 PUSH2 0x14DB PUSH1 0x1D DUP4 PUSH2 0xF5A JUMP JUMPDEST SWAP2 POP PUSH2 0x14E6 DUP3 PUSH2 0x14A7 JUMP JUMPDEST PUSH1 0x20 DUP3 ADD SWAP1 POP SWAP2 SWAP1 POP JUMP JUMPDEST PUSH0 PUSH1 0x20 DUP3 ADD SWAP1 POP DUP2 DUP2 SUB PUSH0 DUP4 ADD MSTORE PUSH2 0x1508 DUP2 PUSH2 0x14CF JUMP JUMPDEST SWAP1 POP SWAP2 SWAP1 POP JUMP JUMPDEST PUSH32 0x5573756172696F207961207265676973747261646F0000000000000000000000 PUSH0 DUP3 ADD MSTORE POP JUMP JUMPDEST PUSH0 PUSH2 0x1543 PUSH1 0x15 DUP4 PUSH2 0xF5A JUMP JUMPDEST SWAP2 POP PUSH2 0x154E DUP3 PUSH2 0x150F JUMP JUMPDEST PUSH1 0x20 DUP3 ADD SWAP1 POP SWAP2 SWAP1 POP JUMP JUMPDEST PUSH0 PUSH1 0x20 DUP3 ADD SWAP1 POP DUP2 DUP2 SUB PUSH0 DUP4 ADD MSTORE PUSH2 0x1570 DUP2 PUSH2 0x1537 JUMP JUMPDEST SWAP1 POP SWAP2 SWAP1 POP JUMP JUMPDEST PUSH32 0x4E487B7100000000000000000000000000000000000000000000000000000000 PUSH0 MSTORE PUSH1 0x41 PUSH1 0x4 MSTORE PUSH1 0x24 PUSH0 REVERT JUMPDEST PUSH32 0x4E487B7100000000000000000000000000000000000000000000000000000000 PUSH0 MSTORE PUSH1 0x22 PUSH1 0x4 MSTORE PUSH1 0x24 PUSH0 REVERT JUMPDEST PUSH0 PUSH1 0x2 DUP3 DIV SWAP1 POP PUSH1 0x1 DUP3 AND DUP1 PUSH2 0x15E8 JUMPI PUSH1 0x7F DUP3 AND SWAP2 POP JUMPDEST PUSH1 0x20 DUP3 LT DUP2 SUB PUSH2 0x15FB JUMPI PUSH2 0x15FA PUSH2 0x15A4 JUMP JUMPDEST JUMPDEST POP SWAP2 SWAP1 POP JUMP JUMPDEST PUSH0 DUP2 SWAP1 POP DUP2 PUSH0 MSTORE PUSH1 0x20 PUSH0 KECCAK256 SWAP1 POP SWAP2 SWAP1 POP JUMP JUMPDEST PUSH0 PUSH1 0x20 PUSH1 0x1F DUP4 ADD DIV SWAP1 POP SWAP2 SWAP1 POP JUMP JUMPDEST PUSH0 DUP3 DUP3 SHL SWAP1 POP SWAP3 SWAP2 POP POP JUMP JUMPDEST PUSH0 PUSH1 0x8 DUP4 MUL PUSH2 0x165D PUSH32 0xFFFFFFFFFFFFFFFFFFFFFFFFFFFFFFFFFFFFFFFFFFFFFFFFFFFFFFFFFFFFFFFF DUP3 PUSH2 0x1622 JUMP JUMPDEST PUSH2 0x1667 DUP7 DUP4 PUSH2 0x1622 JUMP JUMPDEST SWAP6 POP DUP1 NOT DUP5 AND SWAP4 POP DUP1 DUP7 AND DUP5 OR SWAP3 POP POP POP SWAP4 SWAP3 POP POP POP JUMP JUMPDEST PUSH0 DUP2 SWAP1 POP SWAP2 SWAP1 POP JUMP JUMPDEST PUSH0 PUSH2 0x16A2 PUSH2 0x169D PUSH2 0x1698 DUP5 PUSH2 0xD3E JUMP JUMPDEST PUSH2 0x167F JUMP JUMPDEST PUSH2 0xD3E JUMP JUMPDEST SWAP1 POP SWAP2 SWAP1 POP JUMP JUMPDEST PUSH0 DUP2 SWAP1 POP SWAP2 SWAP1 POP JUMP JUMPDEST PUSH2 0x16BB DUP4 PUSH2 0x1688 JUMP JUMPDEST PUSH2 0x16CF PUSH2 0x16C7 DUP3 PUSH2 0x16A9 JUMP JUMPDEST DUP5 DUP5 SLOAD PUSH2 0x162E JUMP JUMPDEST DUP3 SSTORE POP POP POP POP JUMP JUMPDEST PUSH0 SWAP1 JUMP JUMPDEST PUSH2 0x16E3 PUSH2 0x16D7 JUMP JUMPDEST PUSH2 0x16EE DUP2 DUP5 DUP5 PUSH2 0x16B2 JUMP JUMPDEST POP POP POP JUMP JUMPDEST JUMPDEST DUP2 DUP2 LT ISZERO PUSH2 0x1711 JUMPI PUSH2 0x1706 PUSH0 DUP3 PUSH2 0x16DB JUMP JUMPDEST PUSH1 0x1 DUP2 ADD SWAP1 POP PUSH2 0x16F4 JUMP JUMPDEST POP POP JUMP JUMPDEST PUSH1 0x1F DUP3 GT ISZERO PUSH2 0x1756 JUMPI PUSH2 0x1727 DUP2 PUSH2 0x1601 JUMP JUMPDEST PUSH2 0x1730 DUP5 PUSH2 0x1613 JUMP JUMPDEST DUP2 ADD PUSH1 0x20 DUP6 LT ISZERO PUSH2 0x173F JUMPI DUP2 SWAP1 POP JUMPDEST PUSH2 0x1753 PUSH2 0x174B DUP6 PUSH2 0x1613 JUMP JUMPDEST DUP4 ADD DUP3 PUSH2 0x16F3 JUMP JUMPDEST POP POP JUMPDEST POP POP POP JUMP JUMPDEST PUSH0 DUP3 DUP3 SHR SWAP1 POP SWAP3 SWAP2 POP POP JUMP JUMPDEST PUSH0 PUSH2 0x1776 PUSH0 NOT DUP5 PUSH1 0x8 MUL PUSH2 0x175B JUMP JUMPDEST NOT DUP1 DUP4 AND SWAP2 POP POP SWAP3 SWAP2 POP POP JUMP JUMPDEST PUSH0 PUSH2 0x178E DUP4 DUP4 PUSH2 0x1767 JUMP JUMPDEST SWAP2 POP DUP3 PUSH1 0x2 MUL DUP3 OR SWAP1 POP SWAP3 SWAP2 POP POP JUMP JUMPDEST PUSH2 0x17A7 DUP3 PUSH2 0xF50 JUMP JUMPDEST PUSH8 0xFFFFFFFFFFFFFFFF DUP2 GT ISZERO PUSH2 0x17C0 JUMPI PUSH2 0x17BF PUSH2 0x1577 JUMP JUMPDEST JUMPDEST PUSH2 0x17CA DUP3 SLOAD PUSH2 0x15D1 JUMP JUMPDEST PUSH2 0x17D5 DUP3 DUP3 DUP6 PUSH2 0x1715 JUMP JUMPDEST PUSH0 PUSH1 0x20 SWAP1 POP PUSH1 0x1F DUP4 GT PUSH1 0x1 DUP2 EQ PUSH2 0x1806 JUMPI PUSH0 DUP5 ISZERO PUSH2 0x17F4 JUMPI DUP3 DUP8 ADD MLOAD SWAP1 POP JUMPDEST PUSH2 0x17FE DUP6 DUP3 PUSH2 0x1783 JUMP JUMPDEST DUP7 SSTORE POP PUSH2 0x1865 JUMP JUMPDEST PUSH1 0x1F NOT DUP5 AND PUSH2 0x1814 DUP7 PUSH2 0x1601 JUMP JUMPDEST PUSH0 JUMPDEST DUP3 DUP2 LT ISZERO PUSH2 0x183B JUMPI DUP5 DUP10 ADD MLOAD DUP3 SSTORE PUSH1 0x1 DUP3 ADD SWAP2 POP PUSH1 0x20 DUP6 ADD SWAP5 POP PUSH1 0x20 DUP2 ADD SWAP1 POP PUSH2 0x1816 JUMP JUMPDEST DUP7 DUP4 LT ISZERO PUSH2 0x1858 JUMPI DUP5 DUP10 ADD MLOAD PUSH2 0x1854 PUSH1 0x1F DUP10 AND DUP3 PUSH2 0x1767 JUMP JUMPDEST DUP4 SSTORE POP JUMPDEST PUSH1 0x1 PUSH1 0x2 DUP9 MUL ADD DUP9 SSTORE POP POP POP JUMPDEST POP POP POP POP POP POP JUMP JUMPDEST DUP3 DUP2 DUP4 CALLDATACOPY PUSH0 DUP4 DUP4 ADD MSTORE POP POP POP JUMP JUMPDEST PUSH0 PUSH2 0x1886 DUP4 DUP6 PUSH2 0xF5A JUMP JUMPDEST SWAP4 POP PUSH2 0x1893 DUP4 DUP6 DUP5 PUSH2 0x186D JUMP JUMPDEST PUSH2 0x189C DUP4 PUSH2 0xF78 JUMP JUMPDEST DUP5 ADD SWAP1 POP SWAP4 SWAP3 POP POP POP JUMP JUMPDEST PUSH0 PUSH1 0x40 DUP3 ADD SWAP1 POP DUP2 DUP2 SUB PUSH0 DUP4 ADD MSTORE PUSH2 0x18C0 DUP2 DUP7 DUP9 PUSH2 0x187B JUMP JUMPDEST SWAP1 POP DUP2 DUP2 SUB PUSH1 0x20 DUP4 ADD MSTORE PUSH2 0x18D5 DUP2 DUP5 DUP7 PUSH2 0x187B JUMP JUMPDEST SWAP1 POP SWAP6 SWAP5 POP POP POP POP POP JUMP JUMPDEST PUSH32 0x456C206465706F7369746F206465626520736572206D61796F72206120636572 PUSH0 DUP3 ADD MSTORE PUSH32 0x6F00000000000000000000000000000000000000000000000000000000000000 PUSH1 0x20 DUP3 ADD MSTORE POP JUMP JUMPDEST PUSH0 PUSH2 0x193A PUSH1 0x21 DUP4 PUSH2 0xF5A JUMP JUMPDEST SWAP2 POP PUSH2 0x1945 DUP3 PUSH2 0x18E0 JUMP JUMPDEST PUSH1 0x40 DUP3 ADD SWAP1 POP SWAP2 SWAP1 POP JUMP JUMPDEST PUSH0 PUSH1 0x20 DUP3 ADD SWAP1 POP DUP2 DUP2 SUB PUSH0 DUP4 ADD MSTORE PUSH2 0x1967 DUP2 PUSH2 0x192E JUMP JUMPDEST SWAP1 POP SWAP2 SWAP1 POP JUMP INVALID LOG2 PUSH5 0x6970667358 0x22 SLT KECCAK256 0xD4 0xD1 PUSH13 0xF16C895B0C646E3760A3311DF3 0xFC DUP12 CREATE RETURNDATACOPY CALLDATACOPY SWAP11 CALLDATALOAD INVALID SWAP5 SWAP4 0xDB 0xDD SHR 0xB2 DUP12 0xAA PUSH5 0x736F6C6343 STOP ADDMOD BYTE STOP CALLER "
				},
				"gasEstimates": {
					"creation": {
						"codeDepositCost": "1312800",
						"executionCost": "infinite",
						"totalCost": "infinite"
					},
					"external": {
						"deposit()": "infinite",
						"fee()": "2513",
						"getBalance()": "4793",
						"owner()": "2530",
						"register(string,string)": "infinite",
						"treasury()": "2508",
						"treasuryBalance()": "2492",
						"users(address)": "infinite",
						"withdraw(uint256)": "infinite",
						"withdrawTreasury(uint256)": "infinite"
					}
				},
				"methodIdentifiers": {
					"deposit()": "d0e30db0",
					"fee()": "ddca3f43",
					"getBalance()": "12065fe0",
					"owner()": "8da5cb5b",
					"register(string,string)": "3ffbd47f",
					"treasury()": "61d027b3",
					"treasuryBalance()": "313dab20",
					"users(address)": "a87430ba",
					"withdraw(uint256)": "2e1a7d4d",
					"withdrawTreasury(uint256)": "11f1fc99"
				}
			},
			"storageLayout": {
				"storage": [
					{
						"astId": 16,
						"contract": "TrabajoFinalModulo2/SimpleBank.sol:SimpleBank",
						"label": "users",
						"offset": 0,
						"slot": "0",
						"type": "t_mapping(t_address,t_struct(User)11_storage)"
					},
					{
						"astId": 18,
						"contract": "TrabajoFinalModulo2/SimpleBank.sol:SimpleBank",
						"label": "owner",
						"offset": 0,
						"slot": "1",
						"type": "t_address"
					},
					{
						"astId": 20,
						"contract": "TrabajoFinalModulo2/SimpleBank.sol:SimpleBank",
						"label": "treasury",
						"offset": 0,
						"slot": "2",
						"type": "t_address"
					},
					{
						"astId": 22,
						"contract": "TrabajoFinalModulo2/SimpleBank.sol:SimpleBank",
						"label": "fee",
						"offset": 0,
						"slot": "3",
						"type": "t_uint256"
					},
					{
						"astId": 24,
						"contract": "TrabajoFinalModulo2/SimpleBank.sol:SimpleBank",
						"label": "treasuryBalance",
						"offset": 0,
						"slot": "4",
						"type": "t_uint256"
					}
				],
				"types": {
					"t_address": {
						"encoding": "inplace",
						"label": "address",
						"numberOfBytes": "20"
					},
					"t_bool": {
						"encoding": "inplace",
						"label": "bool",
						"numberOfBytes": "1"
					},
					"t_mapping(t_address,t_struct(User)11_storage)": {
						"encoding": "mapping",
						"key": "t_address",
						"label": "mapping(address => struct SimpleBank.User)",
						"numberOfBytes": "32",
						"value": "t_struct(User)11_storage"
					},
					"t_string_storage": {
						"encoding": "bytes",
						"label": "string",
						"numberOfBytes": "32"
					},
					"t_struct(User)11_storage": {
						"encoding": "inplace",
						"label": "struct SimpleBank.User",
						"members": [
							{
								"astId": 4,
								"contract": "TrabajoFinalModulo2/SimpleBank.sol:SimpleBank",
								"label": "firstName",
								"offset": 0,
								"slot": "0",
								"type": "t_string_storage"
							},
							{
								"astId": 6,
								"contract": "TrabajoFinalModulo2/SimpleBank.sol:SimpleBank",
								"label": "lastName",
								"offset": 0,
								"slot": "1",
								"type": "t_string_storage"
							},
							{
								"astId": 8,
								"contract": "TrabajoFinalModulo2/SimpleBank.sol:SimpleBank",
								"label": "balance",
								"offset": 0,
								"slot": "2",
								"type": "t_uint256"
							},
							{
								"astId": 10,
								"contract": "TrabajoFinalModulo2/SimpleBank.sol:SimpleBank",
								"label": "isRegistered",
								"offset": 0,
								"slot": "3",
								"type": "t_bool"
							}
						],
						"numberOfBytes": "128"
					},
					"t_uint256": {
						"encoding": "inplace",
						"label": "uint256",
						"numberOfBytes": "32"
					}
				}
			},
			"userdoc": {
				"kind": "user",
				"methods": {},
				"version": 1
			}
		}
	}
}