{
	"TrabajoFinalModulo2/SimpleBankExtended.sol": {
		"SimpleBank": {
			"abi": [
				{
					"inputs": [
						{
							"internalType": "uint256",
							"name": "_fee",
							"type": "uint256"
						},
						{
							"internalType": "address",
							"name": "_treasury",
							"type": "address"
						}
					],
					"stateMutability": "nonpayable",
					"type": "constructor"
				},
				{
					"anonymous": false,
					"inputs": [
						{
							"indexed": true,
							"internalType": "address",
							"name": "user",
							"type": "address"
						},
						{
							"indexed": false,
							"internalType": "uint256",
							"name": "amount",
							"type": "uint256"
						}
					],
					"name": "Deposit",
					"type": "event"
				},
				{
					"anonymous": false,
					"inputs": [
						{
							"indexed": true,
							"internalType": "address",
							"name": "from",
							"type": "address"
						},
						{
							"indexed": true,
							"internalType": "address",
							"name": "to",
							"type": "address"
						},
						{
							"indexed": false,
							"internalType": "uint256",
							"name": "amount",
							"type": "uint256"
						}
					],
					"name": "Transfer",
					"type": "event"
				},
				{
					"anonymous": false,
					"inputs": [
						{
							"indexed": true,
							"internalType": "address",
							"name": "owner",
							"type": "address"
						},
						{
							"indexed": false,
							"internalType": "uint256",
							"name": "amount",
							"type": "uint256"
						}
					],
					"name": "TreasuryWithdrawal",
					"type": "event"
				},
				{
					"anonymous": false,
					"inputs": [
						{
							"indexed": true,
							"internalType": "address",
							"name": "user",
							"type": "address"
						},
						{
							"indexed": false,
							"internalType": "string",
							"name": "firstName",
							"type": "string"
						},
						{
							"indexed": false,
							"internalType": "string",
							"name": "lastName",
							"type": "string"
						}
					],
					"name": "UserRegistered",
					"type": "event"
				},
				{
					"anonymous": false,
					"inputs": [
						{
							"indexed": true,
							"internalType": "address",
							"name": "user",
							"type": "address"
						},
						{
							"indexed": false,
							"internalType": "uint256",
							"name": "amount",
							"type": "uint256"
						},
						{
							"indexed": false,
							"internalType": "uint256",
							"name": "feeAmount",
							"type": "uint256"
						}
					],
					"name": "Withdrawal",
					"type": "event"
				},
				{
					"inputs": [],
					"name": "deposit",
					"outputs": [],
					"stateMutability": "payable",
					"type": "function"
				},
				{
					"inputs": [],
					"name": "fee",
					"outputs": [
						{
							"internalType": "uint256",
							"name": "",
							"type": "uint256"
						}
					],
					"stateMutability": "view",
					"type": "function"
				},
				{
					"inputs": [],
					"name": "getBalance",
					"outputs": [
						{
							"internalType": "uint256",
							"name": "",
							"type": "uint256"
						}
					],
					"stateMutability": "view",
					"type": "function"
				},
				{
					"inputs": [],
					"name": "owner",
					"outputs": [
						{
							"internalType": "address",
							"name": "",
							"type": "address"
						}
					],
					"stateMutability": "view",
					"type": "function"
				},
				{
					"inputs": [
						{
							"internalType": "string",
							"name": "_firstName",
							"type": "string"
						},
						{
							"internalType": "string",
							"name": "_lastName",
							"type": "string"
						}
					],
					"name": "register",
					"outputs": [],
					"stateMutability": "nonpayable",
					"type": "function"
				},
				{
					"inputs": [
						{
							"internalType": "address",
							"name": "_receiver",
							"type": "address"
						},
						{
							"internalType": "uint256",
							"name": "_amount",
							"type": "uint256"
						}
					],
					"name": "transferBetweenUsers",
					"outputs": [],
					"stateMutability": "nonpayable",
					"type": "function"
				},
				{
					"inputs": [],
					"name": "treasury",
					"outputs": [
						{
							"internalType": "address",
							"name": "",
							"type": "address"
						}
					],
					"stateMutability": "view",
					"type": "function"
				},
				{
					"inputs": [],
					"name": "treasuryBalance",
					"outputs": [
						{
							"internalType": "uint256",
							"name": "",
							"type": "uint256"
						}
					],
					"stateMutability": "view",
					"type": "function"
				},
				{
					"inputs": [
						{
							"internalType": "address",
							"name": "",
							"type": "address"
						}
					],
					"name": "users",
					"outputs": [
						{
							"internalType": "string",
							"name": "firstName",
							"type": "string"
						},
						{
							"internalType": "string",
							"name": "lastName",
							"type": "string"
						},
						{
							"internalType": "uint256",
							"name": "balance",
							"type": "uint256"
						},
						{
							"internalType": "bool",
							"name": "isRegistered",
							"type": "bool"
						}
					],
					"stateMutability": "view",
					"type": "function"
				},
				{
					"inputs": [
						{
							"internalType": "uint256",
							"name": "_amount",
							"type": "uint256"
						}
					],
					"name": "withdraw",
					"outputs": [],
					"stateMutability": "nonpayable",
					"type": "function"
				},
				{
					"inputs": [
						{
							"internalType": "uint256",
							"name": "_amount",
							"type": "uint256"
						}
					],
					"name": "withdrawTreasury",
					"outputs": [],
					"stateMutability": "nonpayable",
					"type": "function"
				}
			],
			"devdoc": {
				"details": "Smart contract para gestionar un banco sencillo donde los usuarios pueden registrarse, depositar y retirar ETH.",
				"kind": "dev",
				"methods": {
					"constructor": {
						"details": "Constructor del contrato",
						"params": {
							"_fee": "El fee en puntos básicos (1% = 100 puntos básicos)",
							"_treasury": "La dirección de la tesorería"
						}
					},
					"deposit()": {
						"details": "Función para hacer un depósito de ETH en la cuenta del usuario"
					},
					"getBalance()": {
						"details": "Función para verificar el saldo del usuario",
						"returns": {
							"_0": "El saldo del usuario en wei"
						}
					},
					"register(string,string)": {
						"details": "Función para registrar un nuevo usuario",
						"params": {
							"_firstName": "El primer nombre del usuario",
							"_lastName": "El apellido del usuario"
						}
					},
					"transferBetweenUsers(address,uint256)": {
						"details": "Función para transferencias de ETH entre usuarios",
						"params": {
							"_amount": "Monto a transferir (en wei)",
							"_receiver": "Dirección del usuario destino"
						}
					},
					"withdraw(uint256)": {
						"details": "Función para retirar ETH de la cuenta del usuario",
						"params": {
							"_amount": "La cantidad a retirar (en wei)"
						}
					},
					"withdrawTreasury(uint256)": {
						"details": "Función para que el propietario retire fondos de la cuenta de tesorería",
						"params": {
							"_amount": "La cantidad a retirar de la tesorería (en wei)"
						}
					}
				},
				"title": "SimpleBankExtended - Jose Valperga",
				"version": 1
			},
			"evm": {
				"assembly": "    /* \"TrabajoFinalModulo2/SimpleBankExtended.sol\":230:5358  contract SimpleBank {... */\n  mstore(0x40, 0x80)\n    /* \"TrabajoFinalModulo2/SimpleBankExtended.sol\":1499:1801  constructor(uint256 _fee, address _treasury) {... */\n  callvalue\n  dup1\n  iszero\n  tag_1\n  jumpi\n  0x00\n  dup1\n  revert\ntag_1:\n  pop\n  mload(0x40)\n  sub(codesize, bytecodeSize)\n  dup1\n  bytecodeSize\n  dup4\n  codecopy\n  dup2\n  dup2\n  add\n  0x40\n  mstore\n  dup2\n  add\n  swap1\n  tag_2\n  swap2\n  swap1\n  tag_3\n  jump\t// in\ntag_2:\n    /* \"TrabajoFinalModulo2/SimpleBankExtended.sol\":1583:1584  0 */\n  0x00\n    /* \"TrabajoFinalModulo2/SimpleBankExtended.sol\":1562:1585  _treasury != address(0) */\n  0xffffffffffffffffffffffffffffffffffffffff\n  and\n    /* \"TrabajoFinalModulo2/SimpleBankExtended.sol\":1562:1571  _treasury */\n  dup2\n    /* \"TrabajoFinalModulo2/SimpleBankExtended.sol\":1562:1585  _treasury != address(0) */\n  0xffffffffffffffffffffffffffffffffffffffff\n  and\n  sub\n    /* \"TrabajoFinalModulo2/SimpleBankExtended.sol\":1554:1622  require(_treasury != address(0), \"Direccion de tesoreria no valida\") */\n  tag_6\n  jumpi\n  mload(0x40)\n  0x08c379a000000000000000000000000000000000000000000000000000000000\n  dup2\n  mstore\n  0x04\n  add\n  tag_7\n  swap1\n  tag_8\n  jump\t// in\ntag_7:\n  mload(0x40)\n  dup1\n  swap2\n  sub\n  swap1\n  revert\ntag_6:\n    /* \"TrabajoFinalModulo2/SimpleBankExtended.sol\":1648:1653  10000 */\n  0x2710\n    /* \"TrabajoFinalModulo2/SimpleBankExtended.sol\":1640:1644  _fee */\n  dup3\n    /* \"TrabajoFinalModulo2/SimpleBankExtended.sol\":1640:1653  _fee <= 10000 */\n  gt\n  iszero\n    /* \"TrabajoFinalModulo2/SimpleBankExtended.sol\":1632:1686  require(_fee <= 10000, \"Fee debe ser <= 10000 puntos\") */\n  tag_9\n  jumpi\n  mload(0x40)\n  0x08c379a000000000000000000000000000000000000000000000000000000000\n  dup2\n  mstore\n  0x04\n  add\n  tag_10\n  swap1\n  tag_11\n  jump\t// in\ntag_10:\n  mload(0x40)\n  dup1\n  swap2\n  sub\n  swap1\n  revert\ntag_9:\n    /* \"TrabajoFinalModulo2/SimpleBankExtended.sol\":1705:1715  msg.sender */\n  caller\n    /* \"TrabajoFinalModulo2/SimpleBankExtended.sol\":1697:1702  owner */\n  0x01\n  0x00\n    /* \"TrabajoFinalModulo2/SimpleBankExtended.sol\":1697:1715  owner = msg.sender */\n  0x0100\n  exp\n  dup2\n  sload\n  dup2\n  0xffffffffffffffffffffffffffffffffffffffff\n  mul\n  not\n  and\n  swap1\n  dup4\n  0xffffffffffffffffffffffffffffffffffffffff\n  and\n  mul\n  or\n  swap1\n  sstore\n  pop\n    /* \"TrabajoFinalModulo2/SimpleBankExtended.sol\":1731:1735  _fee */\n  dup2\n    /* \"TrabajoFinalModulo2/SimpleBankExtended.sol\":1725:1728  fee */\n  0x03\n    /* \"TrabajoFinalModulo2/SimpleBankExtended.sol\":1725:1735  fee = _fee */\n  dup2\n  swap1\n  sstore\n  pop\n    /* \"TrabajoFinalModulo2/SimpleBankExtended.sol\":1756:1765  _treasury */\n  dup1\n    /* \"TrabajoFinalModulo2/SimpleBankExtended.sol\":1745:1753  treasury */\n  0x02\n  0x00\n    /* \"TrabajoFinalModulo2/SimpleBankExtended.sol\":1745:1765  treasury = _treasury */\n  0x0100\n  exp\n  dup2\n  sload\n  dup2\n  0xffffffffffffffffffffffffffffffffffffffff\n  mul\n  not\n  and\n  swap1\n  dup4\n  0xffffffffffffffffffffffffffffffffffffffff\n  and\n  mul\n  or\n  swap1\n  sstore\n  pop\n    /* \"TrabajoFinalModulo2/SimpleBankExtended.sol\":1793:1794  0 */\n  0x00\n    /* \"TrabajoFinalModulo2/SimpleBankExtended.sol\":1775:1790  treasuryBalance */\n  0x04\n    /* \"TrabajoFinalModulo2/SimpleBankExtended.sol\":1775:1794  treasuryBalance = 0 */\n  dup2\n  swap1\n  sstore\n  pop\n    /* \"TrabajoFinalModulo2/SimpleBankExtended.sol\":1499:1801  constructor(uint256 _fee, address _treasury) {... */\n  pop\n  pop\n    /* \"TrabajoFinalModulo2/SimpleBankExtended.sol\":230:5358  contract SimpleBank {... */\n  jump(tag_12)\n    /* \"#utility.yul\":88:205   */\ntag_14:\n    /* \"#utility.yul\":197:198   */\n  0x00\n    /* \"#utility.yul\":194:195   */\n  dup1\n    /* \"#utility.yul\":187:199   */\n  revert\n    /* \"#utility.yul\":334:411   */\ntag_16:\n    /* \"#utility.yul\":371:378   */\n  0x00\n    /* \"#utility.yul\":400:405   */\n  dup2\n    /* \"#utility.yul\":389:405   */\n  swap1\n  pop\n    /* \"#utility.yul\":334:411   */\n  swap2\n  swap1\n  pop\n  jump\t// out\n    /* \"#utility.yul\":417:539   */\ntag_17:\n    /* \"#utility.yul\":490:514   */\n  tag_34\n    /* \"#utility.yul\":508:513   */\n  dup2\n    /* \"#utility.yul\":490:514   */\n  tag_16\n  jump\t// in\ntag_34:\n    /* \"#utility.yul\":483:488   */\n  dup2\n    /* \"#utility.yul\":480:515   */\n  eq\n    /* \"#utility.yul\":470:533   */\n  tag_35\n  jumpi\n    /* \"#utility.yul\":529:530   */\n  0x00\n    /* \"#utility.yul\":526:527   */\n  dup1\n    /* \"#utility.yul\":519:531   */\n  revert\n    /* \"#utility.yul\":470:533   */\ntag_35:\n    /* \"#utility.yul\":417:539   */\n  pop\n  jump\t// out\n    /* \"#utility.yul\":545:688   */\ntag_18:\n    /* \"#utility.yul\":602:607   */\n  0x00\n    /* \"#utility.yul\":633:639   */\n  dup2\n    /* \"#utility.yul\":627:640   */\n  mload\n    /* \"#utility.yul\":618:640   */\n  swap1\n  pop\n    /* \"#utility.yul\":649:682   */\n  tag_37\n    /* \"#utility.yul\":676:681   */\n  dup2\n    /* \"#utility.yul\":649:682   */\n  tag_17\n  jump\t// in\ntag_37:\n    /* \"#utility.yul\":545:688   */\n  swap3\n  swap2\n  pop\n  pop\n  jump\t// out\n    /* \"#utility.yul\":694:820   */\ntag_19:\n    /* \"#utility.yul\":731:738   */\n  0x00\n    /* \"#utility.yul\":771:813   */\n  0xffffffffffffffffffffffffffffffffffffffff\n    /* \"#utility.yul\":764:769   */\n  dup3\n    /* \"#utility.yul\":760:814   */\n  and\n    /* \"#utility.yul\":749:814   */\n  swap1\n  pop\n    /* \"#utility.yul\":694:820   */\n  swap2\n  swap1\n  pop\n  jump\t// out\n    /* \"#utility.yul\":826:922   */\ntag_20:\n    /* \"#utility.yul\":863:870   */\n  0x00\n    /* \"#utility.yul\":892:916   */\n  tag_40\n    /* \"#utility.yul\":910:915   */\n  dup3\n    /* \"#utility.yul\":892:916   */\n  tag_19\n  jump\t// in\ntag_40:\n    /* \"#utility.yul\":881:916   */\n  swap1\n  pop\n    /* \"#utility.yul\":826:922   */\n  swap2\n  swap1\n  pop\n  jump\t// out\n    /* \"#utility.yul\":928:1050   */\ntag_21:\n    /* \"#utility.yul\":1001:1025   */\n  tag_42\n    /* \"#utility.yul\":1019:1024   */\n  dup2\n    /* \"#utility.yul\":1001:1025   */\n  tag_20\n  jump\t// in\ntag_42:\n    /* \"#utility.yul\":994:999   */\n  dup2\n    /* \"#utility.yul\":991:1026   */\n  eq\n    /* \"#utility.yul\":981:1044   */\n  tag_43\n  jumpi\n    /* \"#utility.yul\":1040:1041   */\n  0x00\n    /* \"#utility.yul\":1037:1038   */\n  dup1\n    /* \"#utility.yul\":1030:1042   */\n  revert\n    /* \"#utility.yul\":981:1044   */\ntag_43:\n    /* \"#utility.yul\":928:1050   */\n  pop\n  jump\t// out\n    /* \"#utility.yul\":1056:1199   */\ntag_22:\n    /* \"#utility.yul\":1113:1118   */\n  0x00\n    /* \"#utility.yul\":1144:1150   */\n  dup2\n    /* \"#utility.yul\":1138:1151   */\n  mload\n    /* \"#utility.yul\":1129:1151   */\n  swap1\n  pop\n    /* \"#utility.yul\":1160:1193   */\n  tag_45\n    /* \"#utility.yul\":1187:1192   */\n  dup2\n    /* \"#utility.yul\":1160:1193   */\n  tag_21\n  jump\t// in\ntag_45:\n    /* \"#utility.yul\":1056:1199   */\n  swap3\n  swap2\n  pop\n  pop\n  jump\t// out\n    /* \"#utility.yul\":1205:1712   */\ntag_3:\n    /* \"#utility.yul\":1284:1290   */\n  0x00\n    /* \"#utility.yul\":1292:1298   */\n  dup1\n    /* \"#utility.yul\":1341:1343   */\n  0x40\n    /* \"#utility.yul\":1329:1338   */\n  dup4\n    /* \"#utility.yul\":1320:1327   */\n  dup6\n    /* \"#utility.yul\":1316:1339   */\n  sub\n    /* \"#utility.yul\":1312:1344   */\n  slt\n    /* \"#utility.yul\":1309:1428   */\n  iszero\n  tag_47\n  jumpi\n    /* \"#utility.yul\":1347:1426   */\n  tag_48\n  tag_14\n  jump\t// in\ntag_48:\n    /* \"#utility.yul\":1309:1428   */\ntag_47:\n    /* \"#utility.yul\":1467:1468   */\n  0x00\n    /* \"#utility.yul\":1492:1556   */\n  tag_49\n    /* \"#utility.yul\":1548:1555   */\n  dup6\n    /* \"#utility.yul\":1539:1545   */\n  dup3\n    /* \"#utility.yul\":1528:1537   */\n  dup7\n    /* \"#utility.yul\":1524:1546   */\n  add\n    /* \"#utility.yul\":1492:1556   */\n  tag_18\n  jump\t// in\ntag_49:\n    /* \"#utility.yul\":1482:1556   */\n  swap3\n  pop\n    /* \"#utility.yul\":1438:1566   */\n  pop\n    /* \"#utility.yul\":1605:1607   */\n  0x20\n    /* \"#utility.yul\":1631:1695   */\n  tag_50\n    /* \"#utility.yul\":1687:1694   */\n  dup6\n    /* \"#utility.yul\":1678:1684   */\n  dup3\n    /* \"#utility.yul\":1667:1676   */\n  dup7\n    /* \"#utility.yul\":1663:1685   */\n  add\n    /* \"#utility.yul\":1631:1695   */\n  tag_22\n  jump\t// in\ntag_50:\n    /* \"#utility.yul\":1621:1695   */\n  swap2\n  pop\n    /* \"#utility.yul\":1576:1705   */\n  pop\n    /* \"#utility.yul\":1205:1712   */\n  swap3\n  pop\n  swap3\n  swap1\n  pop\n  jump\t// out\n    /* \"#utility.yul\":1718:1887   */\ntag_23:\n    /* \"#utility.yul\":1802:1813   */\n  0x00\n    /* \"#utility.yul\":1836:1842   */\n  dup3\n    /* \"#utility.yul\":1831:1834   */\n  dup3\n    /* \"#utility.yul\":1824:1843   */\n  mstore\n    /* \"#utility.yul\":1876:1880   */\n  0x20\n    /* \"#utility.yul\":1871:1874   */\n  dup3\n    /* \"#utility.yul\":1867:1881   */\n  add\n    /* \"#utility.yul\":1852:1881   */\n  swap1\n  pop\n    /* \"#utility.yul\":1718:1887   */\n  swap3\n  swap2\n  pop\n  pop\n  jump\t// out\n    /* \"#utility.yul\":1893:2075   */\ntag_24:\n    /* \"#utility.yul\":2033:2067   */\n  0x446972656363696f6e206465207465736f7265726961206e6f2076616c696461\n    /* \"#utility.yul\":2029:2030   */\n  0x00\n    /* \"#utility.yul\":2021:2027   */\n  dup3\n    /* \"#utility.yul\":2017:2031   */\n  add\n    /* \"#utility.yul\":2010:2068   */\n  mstore\n    /* \"#utility.yul\":1893:2075   */\n  pop\n  jump\t// out\n    /* \"#utility.yul\":2081:2447   */\ntag_25:\n    /* \"#utility.yul\":2223:2226   */\n  0x00\n    /* \"#utility.yul\":2244:2311   */\n  tag_54\n    /* \"#utility.yul\":2308:2310   */\n  0x20\n    /* \"#utility.yul\":2303:2306   */\n  dup4\n    /* \"#utility.yul\":2244:2311   */\n  tag_23\n  jump\t// in\ntag_54:\n    /* \"#utility.yul\":2237:2311   */\n  swap2\n  pop\n    /* \"#utility.yul\":2320:2413   */\n  tag_55\n    /* \"#utility.yul\":2409:2412   */\n  dup3\n    /* \"#utility.yul\":2320:2413   */\n  tag_24\n  jump\t// in\ntag_55:\n    /* \"#utility.yul\":2438:2440   */\n  0x20\n    /* \"#utility.yul\":2433:2436   */\n  dup3\n    /* \"#utility.yul\":2429:2441   */\n  add\n    /* \"#utility.yul\":2422:2441   */\n  swap1\n  pop\n    /* \"#utility.yul\":2081:2447   */\n  swap2\n  swap1\n  pop\n  jump\t// out\n    /* \"#utility.yul\":2453:2872   */\ntag_8:\n    /* \"#utility.yul\":2619:2623   */\n  0x00\n    /* \"#utility.yul\":2657:2659   */\n  0x20\n    /* \"#utility.yul\":2646:2655   */\n  dup3\n    /* \"#utility.yul\":2642:2660   */\n  add\n    /* \"#utility.yul\":2634:2660   */\n  swap1\n  pop\n    /* \"#utility.yul\":2706:2715   */\n  dup2\n    /* \"#utility.yul\":2700:2704   */\n  dup2\n    /* \"#utility.yul\":2696:2716   */\n  sub\n    /* \"#utility.yul\":2692:2693   */\n  0x00\n    /* \"#utility.yul\":2681:2690   */\n  dup4\n    /* \"#utility.yul\":2677:2694   */\n  add\n    /* \"#utility.yul\":2670:2717   */\n  mstore\n    /* \"#utility.yul\":2734:2865   */\n  tag_57\n    /* \"#utility.yul\":2860:2864   */\n  dup2\n    /* \"#utility.yul\":2734:2865   */\n  tag_25\n  jump\t// in\ntag_57:\n    /* \"#utility.yul\":2726:2865   */\n  swap1\n  pop\n    /* \"#utility.yul\":2453:2872   */\n  swap2\n  swap1\n  pop\n  jump\t// out\n    /* \"#utility.yul\":2878:3056   */\ntag_26:\n    /* \"#utility.yul\":3018:3048   */\n  0x466565206465626520736572203c3d2031303030302070756e746f7300000000\n    /* \"#utility.yul\":3014:3015   */\n  0x00\n    /* \"#utility.yul\":3006:3012   */\n  dup3\n    /* \"#utility.yul\":3002:3016   */\n  add\n    /* \"#utility.yul\":2995:3049   */\n  mstore\n    /* \"#utility.yul\":2878:3056   */\n  pop\n  jump\t// out\n    /* \"#utility.yul\":3062:3428   */\ntag_27:\n    /* \"#utility.yul\":3204:3207   */\n  0x00\n    /* \"#utility.yul\":3225:3292   */\n  tag_60\n    /* \"#utility.yul\":3289:3291   */\n  0x1c\n    /* \"#utility.yul\":3284:3287   */\n  dup4\n    /* \"#utility.yul\":3225:3292   */\n  tag_23\n  jump\t// in\ntag_60:\n    /* \"#utility.yul\":3218:3292   */\n  swap2\n  pop\n    /* \"#utility.yul\":3301:3394   */\n  tag_61\n    /* \"#utility.yul\":3390:3393   */\n  dup3\n    /* \"#utility.yul\":3301:3394   */\n  tag_26\n  jump\t// in\ntag_61:\n    /* \"#utility.yul\":3419:3421   */\n  0x20\n    /* \"#utility.yul\":3414:3417   */\n  dup3\n    /* \"#utility.yul\":3410:3422   */\n  add\n    /* \"#utility.yul\":3403:3422   */\n  swap1\n  pop\n    /* \"#utility.yul\":3062:3428   */\n  swap2\n  swap1\n  pop\n  jump\t// out\n    /* \"#utility.yul\":3434:3853   */\ntag_11:\n    /* \"#utility.yul\":3600:3604   */\n  0x00\n    /* \"#utility.yul\":3638:3640   */\n  0x20\n    /* \"#utility.yul\":3627:3636   */\n  dup3\n    /* \"#utility.yul\":3623:3641   */\n  add\n    /* \"#utility.yul\":3615:3641   */\n  swap1\n  pop\n    /* \"#utility.yul\":3687:3696   */\n  dup2\n    /* \"#utility.yul\":3681:3685   */\n  dup2\n    /* \"#utility.yul\":3677:3697   */\n  sub\n    /* \"#utility.yul\":3673:3674   */\n  0x00\n    /* \"#utility.yul\":3662:3671   */\n  dup4\n    /* \"#utility.yul\":3658:3675   */\n  add\n    /* \"#utility.yul\":3651:3698   */\n  mstore\n    /* \"#utility.yul\":3715:3846   */\n  tag_63\n    /* \"#utility.yul\":3841:3845   */\n  dup2\n    /* \"#utility.yul\":3715:3846   */\n  tag_27\n  jump\t// in\ntag_63:\n    /* \"#utility.yul\":3707:3846   */\n  swap1\n  pop\n    /* \"#utility.yul\":3434:3853   */\n  swap2\n  swap1\n  pop\n  jump\t// out\n    /* \"TrabajoFinalModulo2/SimpleBankExtended.sol\":230:5358  contract SimpleBank {... */\ntag_12:\n  dataSize(sub_0)\n  dup1\n  dataOffset(sub_0)\n  0x00\n  codecopy\n  0x00\n  return\nstop\n\nsub_0: assembly {\n        /* \"TrabajoFinalModulo2/SimpleBankExtended.sol\":230:5358  contract SimpleBank {... */\n      mstore(0x40, 0x80)\n      jumpi(tag_1, lt(calldatasize, 0x04))\n      shr(0xe0, calldataload(0x00))\n      dup1\n      0x61d027b3\n      gt\n      tag_13\n      jumpi\n      dup1\n      0x61d027b3\n      eq\n      tag_7\n      jumpi\n      dup1\n      0x8da5cb5b\n      eq\n      tag_8\n      jumpi\n      dup1\n      0xa87430ba\n      eq\n      tag_9\n      jumpi\n      dup1\n      0xc3346c3e\n      eq\n      tag_10\n      jumpi\n      dup1\n      0xd0e30db0\n      eq\n      tag_11\n      jumpi\n      dup1\n      0xddca3f43\n      eq\n      tag_12\n      jumpi\n      jump(tag_1)\n    tag_13:\n      dup1\n      0x11f1fc99\n      eq\n      tag_2\n      jumpi\n      dup1\n      0x12065fe0\n      eq\n      tag_3\n      jumpi\n      dup1\n      0x2e1a7d4d\n      eq\n      tag_4\n      jumpi\n      dup1\n      0x313dab20\n      eq\n      tag_5\n      jumpi\n      dup1\n      0x3ffbd47f\n      eq\n      tag_6\n      jumpi\n    tag_1:\n      0x00\n      dup1\n      revert\n        /* \"TrabajoFinalModulo2/SimpleBankExtended.sol\":4107:4453  function withdrawTreasury(uint256 _amount) external onlyOwner {... */\n    tag_2:\n      callvalue\n      dup1\n      iszero\n      tag_14\n      jumpi\n      0x00\n      dup1\n      revert\n    tag_14:\n      pop\n      tag_15\n      0x04\n      dup1\n      calldatasize\n      sub\n      dup2\n      add\n      swap1\n      tag_16\n      swap2\n      swap1\n      tag_17\n      jump\t// in\n    tag_16:\n      tag_18\n      jump\t// in\n    tag_15:\n      stop\n        /* \"TrabajoFinalModulo2/SimpleBankExtended.sol\":3112:3230  function getBalance() external view onlyRegistered returns (uint256) {... */\n    tag_3:\n      callvalue\n      dup1\n      iszero\n      tag_19\n      jumpi\n      0x00\n      dup1\n      revert\n    tag_19:\n      pop\n      tag_20\n      tag_21\n      jump\t// in\n    tag_20:\n      mload(0x40)\n      tag_22\n      swap2\n      swap1\n      tag_23\n      jump\t// in\n    tag_22:\n      mload(0x40)\n      dup1\n      swap2\n      sub\n      swap1\n      return\n        /* \"TrabajoFinalModulo2/SimpleBankExtended.sol\":3368:3929  function withdraw(uint256 _amount) external onlyRegistered {... */\n    tag_4:\n      callvalue\n      dup1\n      iszero\n      tag_24\n      jumpi\n      0x00\n      dup1\n      revert\n    tag_24:\n      pop\n      tag_25\n      0x04\n      dup1\n      calldatasize\n      sub\n      dup2\n      add\n      swap1\n      tag_26\n      swap2\n      swap1\n      tag_17\n      jump\t// in\n    tag_26:\n      tag_27\n      jump\t// in\n    tag_25:\n      stop\n        /* \"TrabajoFinalModulo2/SimpleBankExtended.sol\":522:552  uint256 public treasuryBalance */\n    tag_5:\n      callvalue\n      dup1\n      iszero\n      tag_28\n      jumpi\n      0x00\n      dup1\n      revert\n    tag_28:\n      pop\n      tag_29\n      tag_30\n      jump\t// in\n    tag_29:\n      mload(0x40)\n      tag_31\n      swap2\n      swap1\n      tag_23\n      jump\t// in\n    tag_31:\n      mload(0x40)\n      dup1\n      swap2\n      sub\n      swap1\n      return\n        /* \"TrabajoFinalModulo2/SimpleBankExtended.sol\":1978:2676  function register(string calldata _firstName, string calldata _lastName)... */\n    tag_6:\n      callvalue\n      dup1\n      iszero\n      tag_32\n      jumpi\n      0x00\n      dup1\n      revert\n    tag_32:\n      pop\n      tag_33\n      0x04\n      dup1\n      calldatasize\n      sub\n      dup2\n      add\n      swap1\n      tag_34\n      swap2\n      swap1\n      tag_35\n      jump\t// in\n    tag_34:\n      tag_36\n      jump\t// in\n    tag_33:\n      stop\n        /* \"TrabajoFinalModulo2/SimpleBankExtended.sol\":469:492  address public treasury */\n    tag_7:\n      callvalue\n      dup1\n      iszero\n      tag_37\n      jumpi\n      0x00\n      dup1\n      revert\n    tag_37:\n      pop\n      tag_38\n      tag_39\n      jump\t// in\n    tag_38:\n      mload(0x40)\n      tag_40\n      swap2\n      swap1\n      tag_41\n      jump\t// in\n    tag_40:\n      mload(0x40)\n      dup1\n      swap2\n      sub\n      swap1\n      return\n        /* \"TrabajoFinalModulo2/SimpleBankExtended.sol\":443:463  address public owner */\n    tag_8:\n      callvalue\n      dup1\n      iszero\n      tag_42\n      jumpi\n      0x00\n      dup1\n      revert\n    tag_42:\n      pop\n      tag_43\n      tag_44\n      jump\t// in\n    tag_43:\n      mload(0x40)\n      tag_45\n      swap2\n      swap1\n      tag_41\n      jump\t// in\n    tag_45:\n      mload(0x40)\n      dup1\n      swap2\n      sub\n      swap1\n      return\n        /* \"TrabajoFinalModulo2/SimpleBankExtended.sol\":400:437  mapping(address => User) public users */\n    tag_9:\n      callvalue\n      dup1\n      iszero\n      tag_46\n      jumpi\n      0x00\n      dup1\n      revert\n    tag_46:\n      pop\n      tag_47\n      0x04\n      dup1\n      calldatasize\n      sub\n      dup2\n      add\n      swap1\n      tag_48\n      swap2\n      swap1\n      tag_49\n      jump\t// in\n    tag_48:\n      tag_50\n      jump\t// in\n    tag_47:\n      mload(0x40)\n      tag_51\n      swap5\n      swap4\n      swap3\n      swap2\n      swap1\n      tag_52\n      jump\t// in\n    tag_51:\n      mload(0x40)\n      dup1\n      swap2\n      sub\n      swap1\n      return\n        /* \"TrabajoFinalModulo2/SimpleBankExtended.sol\":4644:5356  function transferBetweenUsers(address _receiver, uint256 _amount)... */\n    tag_10:\n      callvalue\n      dup1\n      iszero\n      tag_53\n      jumpi\n      0x00\n      dup1\n      revert\n    tag_53:\n      pop\n      tag_54\n      0x04\n      dup1\n      calldatasize\n      sub\n      dup2\n      add\n      swap1\n      tag_55\n      swap2\n      swap1\n      tag_56\n      jump\t// in\n    tag_55:\n      tag_57\n      jump\t// in\n    tag_54:\n      stop\n        /* \"TrabajoFinalModulo2/SimpleBankExtended.sol\":2775:2990  function deposit() external payable onlyRegistered {... */\n    tag_11:\n      tag_58\n      tag_59\n      jump\t// in\n    tag_58:\n      stop\n        /* \"TrabajoFinalModulo2/SimpleBankExtended.sol\":498:516  uint256 public fee */\n    tag_12:\n      callvalue\n      dup1\n      iszero\n      tag_60\n      jumpi\n      0x00\n      dup1\n      revert\n    tag_60:\n      pop\n      tag_61\n      tag_62\n      jump\t// in\n    tag_61:\n      mload(0x40)\n      tag_63\n      swap2\n      swap1\n      tag_23\n      jump\t// in\n    tag_63:\n      mload(0x40)\n      dup1\n      swap2\n      sub\n      swap1\n      return\n        /* \"TrabajoFinalModulo2/SimpleBankExtended.sol\":4107:4453  function withdrawTreasury(uint256 _amount) external onlyOwner {... */\n    tag_18:\n        /* \"TrabajoFinalModulo2/SimpleBankExtended.sol\":1221:1226  owner */\n      0x01\n      0x00\n      swap1\n      sload\n      swap1\n      0x0100\n      exp\n      swap1\n      div\n      0xffffffffffffffffffffffffffffffffffffffff\n      and\n        /* \"TrabajoFinalModulo2/SimpleBankExtended.sol\":1207:1226  msg.sender == owner */\n      0xffffffffffffffffffffffffffffffffffffffff\n      and\n        /* \"TrabajoFinalModulo2/SimpleBankExtended.sol\":1207:1217  msg.sender */\n      caller\n        /* \"TrabajoFinalModulo2/SimpleBankExtended.sol\":1207:1226  msg.sender == owner */\n      0xffffffffffffffffffffffffffffffffffffffff\n      and\n      eq\n        /* \"TrabajoFinalModulo2/SimpleBankExtended.sol\":1186:1295  require(... */\n      tag_65\n      jumpi\n      mload(0x40)\n      0x08c379a000000000000000000000000000000000000000000000000000000000\n      dup2\n      mstore\n      0x04\n      add\n      tag_66\n      swap1\n      tag_67\n      jump\t// in\n    tag_66:\n      mload(0x40)\n      dup1\n      swap2\n      sub\n      swap1\n      revert\n    tag_65:\n        /* \"TrabajoFinalModulo2/SimpleBankExtended.sol\":4219:4226  _amount */\n      dup1\n        /* \"TrabajoFinalModulo2/SimpleBankExtended.sol\":4200:4215  treasuryBalance */\n      sload(0x04)\n        /* \"TrabajoFinalModulo2/SimpleBankExtended.sol\":4200:4226  treasuryBalance >= _amount */\n      lt\n      iszero\n        /* \"TrabajoFinalModulo2/SimpleBankExtended.sol\":4179:4312  require(... */\n      tag_69\n      jumpi\n      mload(0x40)\n      0x08c379a000000000000000000000000000000000000000000000000000000000\n      dup2\n      mstore\n      0x04\n      add\n      tag_70\n      swap1\n      tag_71\n      jump\t// in\n    tag_70:\n      mload(0x40)\n      dup1\n      swap2\n      sub\n      swap1\n      revert\n    tag_69:\n        /* \"TrabajoFinalModulo2/SimpleBankExtended.sol\":4342:4349  _amount */\n      dup1\n        /* \"TrabajoFinalModulo2/SimpleBankExtended.sol\":4323:4338  treasuryBalance */\n      0x04\n      0x00\n        /* \"TrabajoFinalModulo2/SimpleBankExtended.sol\":4323:4349  treasuryBalance -= _amount */\n      dup3\n      dup3\n      sload\n      tag_72\n      swap2\n      swap1\n      tag_73\n      jump\t// in\n    tag_72:\n      swap3\n      pop\n      pop\n      dup2\n      swap1\n      sstore\n      pop\n        /* \"TrabajoFinalModulo2/SimpleBankExtended.sol\":4367:4372  owner */\n      0x01\n      0x00\n      swap1\n      sload\n      swap1\n      0x0100\n      exp\n      swap1\n      div\n      0xffffffffffffffffffffffffffffffffffffffff\n      and\n        /* \"TrabajoFinalModulo2/SimpleBankExtended.sol\":4359:4382  payable(owner).transfer */\n      0xffffffffffffffffffffffffffffffffffffffff\n      and\n        /* \"TrabajoFinalModulo2/SimpleBankExtended.sol\":4359:4391  payable(owner).transfer(_amount) */\n      0x08fc\n        /* \"TrabajoFinalModulo2/SimpleBankExtended.sol\":4383:4390  _amount */\n      dup3\n        /* \"TrabajoFinalModulo2/SimpleBankExtended.sol\":4359:4391  payable(owner).transfer(_amount) */\n      swap1\n      dup2\n      iszero\n      mul\n      swap1\n      mload(0x40)\n      0x00\n      mload(0x40)\n      dup1\n      dup4\n      sub\n      dup2\n      dup6\n      dup9\n      dup9\n      call\n      swap4\n      pop\n      pop\n      pop\n      pop\n      iszero\n      dup1\n      iszero\n      tag_75\n      jumpi\n      returndatasize\n      0x00\n      dup1\n      returndatacopy\n      revert(0x00, returndatasize)\n    tag_75:\n      pop\n        /* \"TrabajoFinalModulo2/SimpleBankExtended.sol\":4426:4436  msg.sender */\n      caller\n        /* \"TrabajoFinalModulo2/SimpleBankExtended.sol\":4407:4446  TreasuryWithdrawal(msg.sender, _amount) */\n      0xffffffffffffffffffffffffffffffffffffffff\n      and\n      0x233c84dc0c19fbf51f9fa92214ffd8a59f512e0098bff5827455d02e401221c0\n        /* \"TrabajoFinalModulo2/SimpleBankExtended.sol\":4438:4445  _amount */\n      dup3\n        /* \"TrabajoFinalModulo2/SimpleBankExtended.sol\":4407:4446  TreasuryWithdrawal(msg.sender, _amount) */\n      mload(0x40)\n      tag_76\n      swap2\n      swap1\n      tag_23\n      jump\t// in\n    tag_76:\n      mload(0x40)\n      dup1\n      swap2\n      sub\n      swap1\n      log2\n        /* \"TrabajoFinalModulo2/SimpleBankExtended.sol\":4107:4453  function withdrawTreasury(uint256 _amount) external onlyOwner {... */\n      pop\n      jump\t// out\n        /* \"TrabajoFinalModulo2/SimpleBankExtended.sol\":3112:3230  function getBalance() external view onlyRegistered returns (uint256) {... */\n    tag_21:\n        /* \"TrabajoFinalModulo2/SimpleBankExtended.sol\":3172:3179  uint256 */\n      0x00\n        /* \"TrabajoFinalModulo2/SimpleBankExtended.sol\":1047:1052  users */\n      dup1\n        /* \"TrabajoFinalModulo2/SimpleBankExtended.sol\":1047:1064  users[msg.sender] */\n      0x00\n        /* \"TrabajoFinalModulo2/SimpleBankExtended.sol\":1053:1063  msg.sender */\n      caller\n        /* \"TrabajoFinalModulo2/SimpleBankExtended.sol\":1047:1064  users[msg.sender] */\n      0xffffffffffffffffffffffffffffffffffffffff\n      and\n      0xffffffffffffffffffffffffffffffffffffffff\n      and\n      dup2\n      mstore\n      0x20\n      add\n      swap1\n      dup2\n      mstore\n      0x20\n      add\n      0x00\n      keccak256\n        /* \"TrabajoFinalModulo2/SimpleBankExtended.sol\":1047:1077  users[msg.sender].isRegistered */\n      0x03\n      add\n      0x00\n      swap1\n      sload\n      swap1\n      0x0100\n      exp\n      swap1\n      div\n      0xff\n      and\n        /* \"TrabajoFinalModulo2/SimpleBankExtended.sol\":1026:1132  require(... */\n      tag_78\n      jumpi\n      mload(0x40)\n      0x08c379a000000000000000000000000000000000000000000000000000000000\n      dup2\n      mstore\n      0x04\n      add\n      tag_79\n      swap1\n      tag_80\n      jump\t// in\n    tag_79:\n      mload(0x40)\n      dup1\n      swap2\n      sub\n      swap1\n      revert\n    tag_78:\n        /* \"TrabajoFinalModulo2/SimpleBankExtended.sol\":3198:3203  users */\n      0x00\n        /* \"TrabajoFinalModulo2/SimpleBankExtended.sol\":3198:3215  users[msg.sender] */\n      dup1\n        /* \"TrabajoFinalModulo2/SimpleBankExtended.sol\":3204:3214  msg.sender */\n      caller\n        /* \"TrabajoFinalModulo2/SimpleBankExtended.sol\":3198:3215  users[msg.sender] */\n      0xffffffffffffffffffffffffffffffffffffffff\n      and\n      0xffffffffffffffffffffffffffffffffffffffff\n      and\n      dup2\n      mstore\n      0x20\n      add\n      swap1\n      dup2\n      mstore\n      0x20\n      add\n      0x00\n      keccak256\n        /* \"TrabajoFinalModulo2/SimpleBankExtended.sol\":3198:3223  users[msg.sender].balance */\n      0x02\n      add\n      sload\n        /* \"TrabajoFinalModulo2/SimpleBankExtended.sol\":3191:3223  return users[msg.sender].balance */\n      swap1\n      pop\n        /* \"TrabajoFinalModulo2/SimpleBankExtended.sol\":3112:3230  function getBalance() external view onlyRegistered returns (uint256) {... */\n      swap1\n      jump\t// out\n        /* \"TrabajoFinalModulo2/SimpleBankExtended.sol\":3368:3929  function withdraw(uint256 _amount) external onlyRegistered {... */\n    tag_27:\n        /* \"TrabajoFinalModulo2/SimpleBankExtended.sol\":1047:1052  users */\n      0x00\n        /* \"TrabajoFinalModulo2/SimpleBankExtended.sol\":1047:1064  users[msg.sender] */\n      dup1\n        /* \"TrabajoFinalModulo2/SimpleBankExtended.sol\":1053:1063  msg.sender */\n      caller\n        /* \"TrabajoFinalModulo2/SimpleBankExtended.sol\":1047:1064  users[msg.sender] */\n      0xffffffffffffffffffffffffffffffffffffffff\n      and\n      0xffffffffffffffffffffffffffffffffffffffff\n      and\n      dup2\n      mstore\n      0x20\n      add\n      swap1\n      dup2\n      mstore\n      0x20\n      add\n      0x00\n      keccak256\n        /* \"TrabajoFinalModulo2/SimpleBankExtended.sol\":1047:1077  users[msg.sender].isRegistered */\n      0x03\n      add\n      0x00\n      swap1\n      sload\n      swap1\n      0x0100\n      exp\n      swap1\n      div\n      0xff\n      and\n        /* \"TrabajoFinalModulo2/SimpleBankExtended.sol\":1026:1132  require(... */\n      tag_83\n      jumpi\n      mload(0x40)\n      0x08c379a000000000000000000000000000000000000000000000000000000000\n      dup2\n      mstore\n      0x04\n      add\n      tag_84\n      swap1\n      tag_80\n      jump\t// in\n    tag_84:\n      mload(0x40)\n      dup1\n      swap2\n      sub\n      swap1\n      revert\n    tag_83:\n        /* \"TrabajoFinalModulo2/SimpleBankExtended.sol\":3455:3456  0 */\n      0x00\n        /* \"TrabajoFinalModulo2/SimpleBankExtended.sol\":3445:3452  _amount */\n      dup2\n        /* \"TrabajoFinalModulo2/SimpleBankExtended.sol\":3445:3456  _amount > 0 */\n      gt\n        /* \"TrabajoFinalModulo2/SimpleBankExtended.sol\":3437:3487  require(_amount > 0, \"Debe ingresar una cantidad\") */\n      tag_86\n      jumpi\n      mload(0x40)\n      0x08c379a000000000000000000000000000000000000000000000000000000000\n      dup2\n      mstore\n      0x04\n      add\n      tag_87\n      swap1\n      tag_88\n      jump\t// in\n    tag_87:\n      mload(0x40)\n      dup1\n      swap2\n      sub\n      swap1\n      revert\n    tag_86:\n        /* \"TrabajoFinalModulo2/SimpleBankExtended.sol\":3547:3554  _amount */\n      dup1\n        /* \"TrabajoFinalModulo2/SimpleBankExtended.sol\":3518:3523  users */\n      0x00\n        /* \"TrabajoFinalModulo2/SimpleBankExtended.sol\":3518:3535  users[msg.sender] */\n      dup1\n        /* \"TrabajoFinalModulo2/SimpleBankExtended.sol\":3524:3534  msg.sender */\n      caller\n        /* \"TrabajoFinalModulo2/SimpleBankExtended.sol\":3518:3535  users[msg.sender] */\n      0xffffffffffffffffffffffffffffffffffffffff\n      and\n      0xffffffffffffffffffffffffffffffffffffffff\n      and\n      dup2\n      mstore\n      0x20\n      add\n      swap1\n      dup2\n      mstore\n      0x20\n      add\n      0x00\n      keccak256\n        /* \"TrabajoFinalModulo2/SimpleBankExtended.sol\":3518:3543  users[msg.sender].balance */\n      0x02\n      add\n      sload\n        /* \"TrabajoFinalModulo2/SimpleBankExtended.sol\":3518:3554  users[msg.sender].balance >= _amount */\n      lt\n      iszero\n        /* \"TrabajoFinalModulo2/SimpleBankExtended.sol\":3497:3627  require(... */\n      tag_89\n      jumpi\n      mload(0x40)\n      0x08c379a000000000000000000000000000000000000000000000000000000000\n      dup2\n      mstore\n      0x04\n      add\n      tag_90\n      swap1\n      tag_91\n      jump\t// in\n    tag_90:\n      mload(0x40)\n      dup1\n      swap2\n      sub\n      swap1\n      revert\n    tag_89:\n        /* \"TrabajoFinalModulo2/SimpleBankExtended.sol\":3638:3655  uint256 feeAmount */\n      0x00\n        /* \"TrabajoFinalModulo2/SimpleBankExtended.sol\":3676:3681  10000 */\n      0x2710\n        /* \"TrabajoFinalModulo2/SimpleBankExtended.sol\":3669:3672  fee */\n      sload(0x03)\n        /* \"TrabajoFinalModulo2/SimpleBankExtended.sol\":3659:3666  _amount */\n      dup4\n        /* \"TrabajoFinalModulo2/SimpleBankExtended.sol\":3659:3672  _amount * fee */\n      tag_92\n      swap2\n      swap1\n      tag_93\n      jump\t// in\n    tag_92:\n        /* \"TrabajoFinalModulo2/SimpleBankExtended.sol\":3658:3681  (_amount * fee) / 10000 */\n      tag_94\n      swap2\n      swap1\n      tag_95\n      jump\t// in\n    tag_94:\n        /* \"TrabajoFinalModulo2/SimpleBankExtended.sol\":3638:3681  uint256 feeAmount = (_amount * fee) / 10000 */\n      swap1\n      pop\n        /* \"TrabajoFinalModulo2/SimpleBankExtended.sol\":3691:3708  uint256 netAmount */\n      0x00\n        /* \"TrabajoFinalModulo2/SimpleBankExtended.sol\":3721:3730  feeAmount */\n      dup2\n        /* \"TrabajoFinalModulo2/SimpleBankExtended.sol\":3711:3718  _amount */\n      dup4\n        /* \"TrabajoFinalModulo2/SimpleBankExtended.sol\":3711:3730  _amount - feeAmount */\n      tag_96\n      swap2\n      swap1\n      tag_73\n      jump\t// in\n    tag_96:\n        /* \"TrabajoFinalModulo2/SimpleBankExtended.sol\":3691:3730  uint256 netAmount = _amount - feeAmount */\n      swap1\n      pop\n        /* \"TrabajoFinalModulo2/SimpleBankExtended.sol\":3770:3777  _amount */\n      dup3\n        /* \"TrabajoFinalModulo2/SimpleBankExtended.sol\":3741:3746  users */\n      0x00\n        /* \"TrabajoFinalModulo2/SimpleBankExtended.sol\":3741:3758  users[msg.sender] */\n      dup1\n        /* \"TrabajoFinalModulo2/SimpleBankExtended.sol\":3747:3757  msg.sender */\n      caller\n        /* \"TrabajoFinalModulo2/SimpleBankExtended.sol\":3741:3758  users[msg.sender] */\n      0xffffffffffffffffffffffffffffffffffffffff\n      and\n      0xffffffffffffffffffffffffffffffffffffffff\n      and\n      dup2\n      mstore\n      0x20\n      add\n      swap1\n      dup2\n      mstore\n      0x20\n      add\n      0x00\n      keccak256\n        /* \"TrabajoFinalModulo2/SimpleBankExtended.sol\":3741:3766  users[msg.sender].balance */\n      0x02\n      add\n      0x00\n        /* \"TrabajoFinalModulo2/SimpleBankExtended.sol\":3741:3777  users[msg.sender].balance -= _amount */\n      dup3\n      dup3\n      sload\n      tag_97\n      swap2\n      swap1\n      tag_73\n      jump\t// in\n    tag_97:\n      swap3\n      pop\n      pop\n      dup2\n      swap1\n      sstore\n      pop\n        /* \"TrabajoFinalModulo2/SimpleBankExtended.sol\":3806:3815  feeAmount */\n      dup2\n        /* \"TrabajoFinalModulo2/SimpleBankExtended.sol\":3787:3802  treasuryBalance */\n      0x04\n      0x00\n        /* \"TrabajoFinalModulo2/SimpleBankExtended.sol\":3787:3815  treasuryBalance += feeAmount */\n      dup3\n      dup3\n      sload\n      tag_98\n      swap2\n      swap1\n      tag_99\n      jump\t// in\n    tag_98:\n      swap3\n      pop\n      pop\n      dup2\n      swap1\n      sstore\n      pop\n        /* \"TrabajoFinalModulo2/SimpleBankExtended.sol\":3833:3843  msg.sender */\n      caller\n        /* \"TrabajoFinalModulo2/SimpleBankExtended.sol\":3825:3853  payable(msg.sender).transfer */\n      0xffffffffffffffffffffffffffffffffffffffff\n      and\n        /* \"TrabajoFinalModulo2/SimpleBankExtended.sol\":3825:3864  payable(msg.sender).transfer(netAmount) */\n      0x08fc\n        /* \"TrabajoFinalModulo2/SimpleBankExtended.sol\":3854:3863  netAmount */\n      dup3\n        /* \"TrabajoFinalModulo2/SimpleBankExtended.sol\":3825:3864  payable(msg.sender).transfer(netAmount) */\n      swap1\n      dup2\n      iszero\n      mul\n      swap1\n      mload(0x40)\n      0x00\n      mload(0x40)\n      dup1\n      dup4\n      sub\n      dup2\n      dup6\n      dup9\n      dup9\n      call\n      swap4\n      pop\n      pop\n      pop\n      pop\n      iszero\n      dup1\n      iszero\n      tag_101\n      jumpi\n      returndatasize\n      0x00\n      dup1\n      returndatacopy\n      revert(0x00, returndatasize)\n    tag_101:\n      pop\n        /* \"TrabajoFinalModulo2/SimpleBankExtended.sol\":3891:3901  msg.sender */\n      caller\n        /* \"TrabajoFinalModulo2/SimpleBankExtended.sol\":3880:3922  Withdrawal(msg.sender, _amount, feeAmount) */\n      0xffffffffffffffffffffffffffffffffffffffff\n      and\n      0xdf273cb619d95419a9cd0ec88123a0538c85064229baa6363788f743fff90deb\n        /* \"TrabajoFinalModulo2/SimpleBankExtended.sol\":3903:3910  _amount */\n      dup5\n        /* \"TrabajoFinalModulo2/SimpleBankExtended.sol\":3912:3921  feeAmount */\n      dup5\n        /* \"TrabajoFinalModulo2/SimpleBankExtended.sol\":3880:3922  Withdrawal(msg.sender, _amount, feeAmount) */\n      mload(0x40)\n      tag_102\n      swap3\n      swap2\n      swap1\n      tag_103\n      jump\t// in\n    tag_102:\n      mload(0x40)\n      dup1\n      swap2\n      sub\n      swap1\n      log2\n        /* \"TrabajoFinalModulo2/SimpleBankExtended.sol\":3427:3929  {... */\n      pop\n      pop\n        /* \"TrabajoFinalModulo2/SimpleBankExtended.sol\":3368:3929  function withdraw(uint256 _amount) external onlyRegistered {... */\n      pop\n      jump\t// out\n        /* \"TrabajoFinalModulo2/SimpleBankExtended.sol\":522:552  uint256 public treasuryBalance */\n    tag_30:\n      sload(0x04)\n      dup2\n      jump\t// out\n        /* \"TrabajoFinalModulo2/SimpleBankExtended.sol\":1978:2676  function register(string calldata _firstName, string calldata _lastName)... */\n    tag_36:\n        /* \"TrabajoFinalModulo2/SimpleBankExtended.sol\":2130:2131  0 */\n      0x00\n        /* \"TrabajoFinalModulo2/SimpleBankExtended.sol\":2109:2119  _firstName */\n      dup5\n      dup5\n        /* \"TrabajoFinalModulo2/SimpleBankExtended.sol\":2103:2127  bytes(_firstName).length */\n      swap1\n      pop\n        /* \"TrabajoFinalModulo2/SimpleBankExtended.sol\":2103:2131  bytes(_firstName).length > 0 */\n      gt\n        /* \"TrabajoFinalModulo2/SimpleBankExtended.sol\":2082:2197  require(... */\n      tag_105\n      jumpi\n      mload(0x40)\n      0x08c379a000000000000000000000000000000000000000000000000000000000\n      dup2\n      mstore\n      0x04\n      add\n      tag_106\n      swap1\n      tag_107\n      jump\t// in\n    tag_106:\n      mload(0x40)\n      dup1\n      swap2\n      sub\n      swap1\n      revert\n    tag_105:\n        /* \"TrabajoFinalModulo2/SimpleBankExtended.sol\":2254:2255  0 */\n      0x00\n        /* \"TrabajoFinalModulo2/SimpleBankExtended.sol\":2234:2243  _lastName */\n      dup3\n      dup3\n        /* \"TrabajoFinalModulo2/SimpleBankExtended.sol\":2228:2251  bytes(_lastName).length */\n      swap1\n      pop\n        /* \"TrabajoFinalModulo2/SimpleBankExtended.sol\":2228:2255  bytes(_lastName).length > 0 */\n      gt\n        /* \"TrabajoFinalModulo2/SimpleBankExtended.sol\":2207:2316  require(... */\n      tag_108\n      jumpi\n      mload(0x40)\n      0x08c379a000000000000000000000000000000000000000000000000000000000\n      dup2\n      mstore\n      0x04\n      add\n      tag_109\n      swap1\n      tag_110\n      jump\t// in\n    tag_109:\n      mload(0x40)\n      dup1\n      swap2\n      sub\n      swap1\n      revert\n    tag_108:\n        /* \"TrabajoFinalModulo2/SimpleBankExtended.sol\":2348:2353  users */\n      0x00\n        /* \"TrabajoFinalModulo2/SimpleBankExtended.sol\":2348:2365  users[msg.sender] */\n      dup1\n        /* \"TrabajoFinalModulo2/SimpleBankExtended.sol\":2354:2364  msg.sender */\n      caller\n        /* \"TrabajoFinalModulo2/SimpleBankExtended.sol\":2348:2365  users[msg.sender] */\n      0xffffffffffffffffffffffffffffffffffffffff\n      and\n      0xffffffffffffffffffffffffffffffffffffffff\n      and\n      dup2\n      mstore\n      0x20\n      add\n      swap1\n      dup2\n      mstore\n      0x20\n      add\n      0x00\n      keccak256\n        /* \"TrabajoFinalModulo2/SimpleBankExtended.sol\":2348:2378  users[msg.sender].isRegistered */\n      0x03\n      add\n      0x00\n      swap1\n      sload\n      swap1\n      0x0100\n      exp\n      swap1\n      div\n      0xff\n      and\n        /* \"TrabajoFinalModulo2/SimpleBankExtended.sol\":2347:2378  !users[msg.sender].isRegistered */\n      iszero\n        /* \"TrabajoFinalModulo2/SimpleBankExtended.sol\":2326:2433  require(... */\n      tag_111\n      jumpi\n      mload(0x40)\n      0x08c379a000000000000000000000000000000000000000000000000000000000\n      dup2\n      mstore\n      0x04\n      add\n      tag_112\n      swap1\n      tag_113\n      jump\t// in\n    tag_112:\n      mload(0x40)\n      dup1\n      swap2\n      sub\n      swap1\n      revert\n    tag_111:\n        /* \"TrabajoFinalModulo2/SimpleBankExtended.sol\":2464:2604  User({... */\n      mload(0x40)\n      dup1\n      0x80\n      add\n      0x40\n      mstore\n      dup1\n        /* \"TrabajoFinalModulo2/SimpleBankExtended.sol\":2494:2504  _firstName */\n      dup6\n      dup6\n        /* \"TrabajoFinalModulo2/SimpleBankExtended.sol\":2464:2604  User({... */\n      dup1\n      dup1\n      0x1f\n      add\n      0x20\n      dup1\n      swap2\n      div\n      mul\n      0x20\n      add\n      mload(0x40)\n      swap1\n      dup2\n      add\n      0x40\n      mstore\n      dup1\n      swap4\n      swap3\n      swap2\n      swap1\n      dup2\n      dup2\n      mstore\n      0x20\n      add\n      dup4\n      dup4\n      dup1\n      dup3\n      dup5\n      calldatacopy\n      0x00\n      dup2\n      dup5\n      add\n      mstore\n      not(0x1f)\n      0x1f\n      dup3\n      add\n      and\n      swap1\n      pop\n      dup1\n      dup4\n      add\n      swap3\n      pop\n      pop\n      pop\n      pop\n      pop\n      pop\n      pop\n      dup2\n      mstore\n      0x20\n      add\n        /* \"TrabajoFinalModulo2/SimpleBankExtended.sol\":2528:2537  _lastName */\n      dup4\n      dup4\n        /* \"TrabajoFinalModulo2/SimpleBankExtended.sol\":2464:2604  User({... */\n      dup1\n      dup1\n      0x1f\n      add\n      0x20\n      dup1\n      swap2\n      div\n      mul\n      0x20\n      add\n      mload(0x40)\n      swap1\n      dup2\n      add\n      0x40\n      mstore\n      dup1\n      swap4\n      swap3\n      swap2\n      swap1\n      dup2\n      dup2\n      mstore\n      0x20\n      add\n      dup4\n      dup4\n      dup1\n      dup3\n      dup5\n      calldatacopy\n      0x00\n      dup2\n      dup5\n      add\n      mstore\n      not(0x1f)\n      0x1f\n      dup3\n      add\n      and\n      swap1\n      pop\n      dup1\n      dup4\n      add\n      swap3\n      pop\n      pop\n      pop\n      pop\n      pop\n      pop\n      pop\n      dup2\n      mstore\n      0x20\n      add\n        /* \"TrabajoFinalModulo2/SimpleBankExtended.sol\":2560:2561  0 */\n      0x00\n        /* \"TrabajoFinalModulo2/SimpleBankExtended.sol\":2464:2604  User({... */\n      dup2\n      mstore\n      0x20\n      add\n        /* \"TrabajoFinalModulo2/SimpleBankExtended.sol\":2589:2593  true */\n      0x01\n        /* \"TrabajoFinalModulo2/SimpleBankExtended.sol\":2464:2604  User({... */\n      iszero\n      iszero\n      dup2\n      mstore\n      pop\n        /* \"TrabajoFinalModulo2/SimpleBankExtended.sol\":2444:2449  users */\n      0x00\n        /* \"TrabajoFinalModulo2/SimpleBankExtended.sol\":2444:2461  users[msg.sender] */\n      dup1\n        /* \"TrabajoFinalModulo2/SimpleBankExtended.sol\":2450:2460  msg.sender */\n      caller\n        /* \"TrabajoFinalModulo2/SimpleBankExtended.sol\":2444:2461  users[msg.sender] */\n      0xffffffffffffffffffffffffffffffffffffffff\n      and\n      0xffffffffffffffffffffffffffffffffffffffff\n      and\n      dup2\n      mstore\n      0x20\n      add\n      swap1\n      dup2\n      mstore\n      0x20\n      add\n      0x00\n      keccak256\n        /* \"TrabajoFinalModulo2/SimpleBankExtended.sol\":2444:2604  users[msg.sender] = User({... */\n      0x00\n      dup3\n      add\n      mload\n      dup2\n      0x00\n      add\n      swap1\n      dup2\n      tag_114\n      swap2\n      swap1\n      tag_115\n      jump\t// in\n    tag_114:\n      pop\n      0x20\n      dup3\n      add\n      mload\n      dup2\n      0x01\n      add\n      swap1\n      dup2\n      tag_116\n      swap2\n      swap1\n      tag_115\n      jump\t// in\n    tag_116:\n      pop\n      0x40\n      dup3\n      add\n      mload\n      dup2\n      0x02\n      add\n      sstore\n      0x60\n      dup3\n      add\n      mload\n      dup2\n      0x03\n      add\n      exp(0x0100, 0x00)\n      dup2\n      sload\n      dup2\n      0xff\n      mul\n      not\n      and\n      swap1\n      dup4\n      iszero\n      iszero\n      mul\n      or\n      swap1\n      sstore\n      pop\n      swap1\n      pop\n      pop\n        /* \"TrabajoFinalModulo2/SimpleBankExtended.sol\":2635:2645  msg.sender */\n      caller\n        /* \"TrabajoFinalModulo2/SimpleBankExtended.sol\":2620:2669  UserRegistered(msg.sender, _firstName, _lastName) */\n      0xffffffffffffffffffffffffffffffffffffffff\n      and\n      0x92822564bab8864c3a47b34e8d23fbce5c46234eb5da261f94087b995ac0f33b\n        /* \"TrabajoFinalModulo2/SimpleBankExtended.sol\":2647:2657  _firstName */\n      dup6\n      dup6\n        /* \"TrabajoFinalModulo2/SimpleBankExtended.sol\":2659:2668  _lastName */\n      dup6\n      dup6\n        /* \"TrabajoFinalModulo2/SimpleBankExtended.sol\":2620:2669  UserRegistered(msg.sender, _firstName, _lastName) */\n      mload(0x40)\n      tag_117\n      swap5\n      swap4\n      swap3\n      swap2\n      swap1\n      tag_118\n      jump\t// in\n    tag_117:\n      mload(0x40)\n      dup1\n      swap2\n      sub\n      swap1\n      log2\n        /* \"TrabajoFinalModulo2/SimpleBankExtended.sol\":1978:2676  function register(string calldata _firstName, string calldata _lastName)... */\n      pop\n      pop\n      pop\n      pop\n      jump\t// out\n        /* \"TrabajoFinalModulo2/SimpleBankExtended.sol\":469:492  address public treasury */\n    tag_39:\n      0x02\n      0x00\n      swap1\n      sload\n      swap1\n      0x0100\n      exp\n      swap1\n      div\n      0xffffffffffffffffffffffffffffffffffffffff\n      and\n      dup2\n      jump\t// out\n        /* \"TrabajoFinalModulo2/SimpleBankExtended.sol\":443:463  address public owner */\n    tag_44:\n      0x01\n      0x00\n      swap1\n      sload\n      swap1\n      0x0100\n      exp\n      swap1\n      div\n      0xffffffffffffffffffffffffffffffffffffffff\n      and\n      dup2\n      jump\t// out\n        /* \"TrabajoFinalModulo2/SimpleBankExtended.sol\":400:437  mapping(address => User) public users */\n    tag_50:\n      mstore(0x20, 0x00)\n      dup1\n      0x00\n      mstore\n      keccak256(0x00, 0x40)\n      0x00\n      swap2\n      pop\n      swap1\n      pop\n      dup1\n      0x00\n      add\n      dup1\n      sload\n      tag_119\n      swap1\n      tag_120\n      jump\t// in\n    tag_119:\n      dup1\n      0x1f\n      add\n      0x20\n      dup1\n      swap2\n      div\n      mul\n      0x20\n      add\n      mload(0x40)\n      swap1\n      dup2\n      add\n      0x40\n      mstore\n      dup1\n      swap3\n      swap2\n      swap1\n      dup2\n      dup2\n      mstore\n      0x20\n      add\n      dup3\n      dup1\n      sload\n      tag_121\n      swap1\n      tag_120\n      jump\t// in\n    tag_121:\n      dup1\n      iszero\n      tag_122\n      jumpi\n      dup1\n      0x1f\n      lt\n      tag_123\n      jumpi\n      0x0100\n      dup1\n      dup4\n      sload\n      div\n      mul\n      dup4\n      mstore\n      swap2\n      0x20\n      add\n      swap2\n      jump(tag_122)\n    tag_123:\n      dup3\n      add\n      swap2\n      swap1\n      0x00\n      mstore\n      keccak256(0x00, 0x20)\n      swap1\n    tag_124:\n      dup2\n      sload\n      dup2\n      mstore\n      swap1\n      0x01\n      add\n      swap1\n      0x20\n      add\n      dup1\n      dup4\n      gt\n      tag_124\n      jumpi\n      dup3\n      swap1\n      sub\n      0x1f\n      and\n      dup3\n      add\n      swap2\n    tag_122:\n      pop\n      pop\n      pop\n      pop\n      pop\n      swap1\n      dup1\n      0x01\n      add\n      dup1\n      sload\n      tag_125\n      swap1\n      tag_120\n      jump\t// in\n    tag_125:\n      dup1\n      0x1f\n      add\n      0x20\n      dup1\n      swap2\n      div\n      mul\n      0x20\n      add\n      mload(0x40)\n      swap1\n      dup2\n      add\n      0x40\n      mstore\n      dup1\n      swap3\n      swap2\n      swap1\n      dup2\n      dup2\n      mstore\n      0x20\n      add\n      dup3\n      dup1\n      sload\n      tag_126\n      swap1\n      tag_120\n      jump\t// in\n    tag_126:\n      dup1\n      iszero\n      tag_127\n      jumpi\n      dup1\n      0x1f\n      lt\n      tag_128\n      jumpi\n      0x0100\n      dup1\n      dup4\n      sload\n      div\n      mul\n      dup4\n      mstore\n      swap2\n      0x20\n      add\n      swap2\n      jump(tag_127)\n    tag_128:\n      dup3\n      add\n      swap2\n      swap1\n      0x00\n      mstore\n      keccak256(0x00, 0x20)\n      swap1\n    tag_129:\n      dup2\n      sload\n      dup2\n      mstore\n      swap1\n      0x01\n      add\n      swap1\n      0x20\n      add\n      dup1\n      dup4\n      gt\n      tag_129\n      jumpi\n      dup3\n      swap1\n      sub\n      0x1f\n      and\n      dup3\n      add\n      swap2\n    tag_127:\n      pop\n      pop\n      pop\n      pop\n      pop\n      swap1\n      dup1\n      0x02\n      add\n      sload\n      swap1\n      dup1\n      0x03\n      add\n      0x00\n      swap1\n      sload\n      swap1\n      0x0100\n      exp\n      swap1\n      div\n      0xff\n      and\n      swap1\n      pop\n      dup5\n      jump\t// out\n        /* \"TrabajoFinalModulo2/SimpleBankExtended.sol\":4644:5356  function transferBetweenUsers(address _receiver, uint256 _amount)... */\n    tag_57:\n        /* \"TrabajoFinalModulo2/SimpleBankExtended.sol\":1047:1052  users */\n      0x00\n        /* \"TrabajoFinalModulo2/SimpleBankExtended.sol\":1047:1064  users[msg.sender] */\n      dup1\n        /* \"TrabajoFinalModulo2/SimpleBankExtended.sol\":1053:1063  msg.sender */\n      caller\n        /* \"TrabajoFinalModulo2/SimpleBankExtended.sol\":1047:1064  users[msg.sender] */\n      0xffffffffffffffffffffffffffffffffffffffff\n      and\n      0xffffffffffffffffffffffffffffffffffffffff\n      and\n      dup2\n      mstore\n      0x20\n      add\n      swap1\n      dup2\n      mstore\n      0x20\n      add\n      0x00\n      keccak256\n        /* \"TrabajoFinalModulo2/SimpleBankExtended.sol\":1047:1077  users[msg.sender].isRegistered */\n      0x03\n      add\n      0x00\n      swap1\n      sload\n      swap1\n      0x0100\n      exp\n      swap1\n      div\n      0xff\n      and\n        /* \"TrabajoFinalModulo2/SimpleBankExtended.sol\":1026:1132  require(... */\n      tag_131\n      jumpi\n      mload(0x40)\n      0x08c379a000000000000000000000000000000000000000000000000000000000\n      dup2\n      mstore\n      0x04\n      add\n      tag_132\n      swap1\n      tag_80\n      jump\t// in\n    tag_132:\n      mload(0x40)\n      dup1\n      swap2\n      sub\n      swap1\n      revert\n    tag_131:\n        /* \"TrabajoFinalModulo2/SimpleBankExtended.sol\":4772:4777  users */\n      0x00\n        /* \"TrabajoFinalModulo2/SimpleBankExtended.sol\":4772:4788  users[_receiver] */\n      dup1\n        /* \"TrabajoFinalModulo2/SimpleBankExtended.sol\":4778:4787  _receiver */\n      dup4\n        /* \"TrabajoFinalModulo2/SimpleBankExtended.sol\":4772:4788  users[_receiver] */\n      0xffffffffffffffffffffffffffffffffffffffff\n      and\n      0xffffffffffffffffffffffffffffffffffffffff\n      and\n      dup2\n      mstore\n      0x20\n      add\n      swap1\n      dup2\n      mstore\n      0x20\n      add\n      0x00\n      keccak256\n        /* \"TrabajoFinalModulo2/SimpleBankExtended.sol\":4772:4801  users[_receiver].isRegistered */\n      0x03\n      add\n      0x00\n      swap1\n      sload\n      swap1\n      0x0100\n      exp\n      swap1\n      div\n      0xff\n      and\n        /* \"TrabajoFinalModulo2/SimpleBankExtended.sol\":4764:4843  require(users[_receiver].isRegistered, \"El usuario destino no esta registrado\") */\n      tag_134\n      jumpi\n      mload(0x40)\n      0x08c379a000000000000000000000000000000000000000000000000000000000\n      dup2\n      mstore\n      0x04\n      add\n      tag_135\n      swap1\n      tag_136\n      jump\t// in\n    tag_135:\n      mload(0x40)\n      dup1\n      swap2\n      sub\n      swap1\n      revert\n    tag_134:\n        /* \"TrabajoFinalModulo2/SimpleBankExtended.sol\":4871:4872  0 */\n      0x00\n        /* \"TrabajoFinalModulo2/SimpleBankExtended.sol\":4861:4868  _amount */\n      dup2\n        /* \"TrabajoFinalModulo2/SimpleBankExtended.sol\":4861:4872  _amount > 0 */\n      gt\n        /* \"TrabajoFinalModulo2/SimpleBankExtended.sol\":4853:4903  require(_amount > 0, \"Debe ingresar una cantidad\") */\n      tag_137\n      jumpi\n      mload(0x40)\n      0x08c379a000000000000000000000000000000000000000000000000000000000\n      dup2\n      mstore\n      0x04\n      add\n      tag_138\n      swap1\n      tag_88\n      jump\t// in\n    tag_138:\n      mload(0x40)\n      dup1\n      swap2\n      sub\n      swap1\n      revert\n    tag_137:\n        /* \"TrabajoFinalModulo2/SimpleBankExtended.sol\":4922:4939  uint256 feeAmount */\n      0x00\n        /* \"TrabajoFinalModulo2/SimpleBankExtended.sol\":4960:4965  10000 */\n      0x2710\n        /* \"TrabajoFinalModulo2/SimpleBankExtended.sol\":4953:4956  fee */\n      sload(0x03)\n        /* \"TrabajoFinalModulo2/SimpleBankExtended.sol\":4943:4950  _amount */\n      dup4\n        /* \"TrabajoFinalModulo2/SimpleBankExtended.sol\":4943:4956  _amount * fee */\n      tag_139\n      swap2\n      swap1\n      tag_93\n      jump\t// in\n    tag_139:\n        /* \"TrabajoFinalModulo2/SimpleBankExtended.sol\":4942:4965  (_amount * fee) / 10000 */\n      tag_140\n      swap2\n      swap1\n      tag_95\n      jump\t// in\n    tag_140:\n        /* \"TrabajoFinalModulo2/SimpleBankExtended.sol\":4922:4965  uint256 feeAmount = (_amount * fee) / 10000 */\n      swap1\n      pop\n        /* \"TrabajoFinalModulo2/SimpleBankExtended.sol\":4975:4988  uint netAmont */\n      0x00\n        /* \"TrabajoFinalModulo2/SimpleBankExtended.sol\":4999:5008  feeAmount */\n      dup2\n        /* \"TrabajoFinalModulo2/SimpleBankExtended.sol\":4991:4998  _amount */\n      dup4\n        /* \"TrabajoFinalModulo2/SimpleBankExtended.sol\":4991:5008  _amount+feeAmount */\n      tag_141\n      swap2\n      swap1\n      tag_99\n      jump\t// in\n    tag_141:\n        /* \"TrabajoFinalModulo2/SimpleBankExtended.sol\":4975:5008  uint netAmont = _amount+feeAmount */\n      swap1\n      pop\n        /* \"TrabajoFinalModulo2/SimpleBankExtended.sol\":5078:5086  netAmont */\n      dup1\n        /* \"TrabajoFinalModulo2/SimpleBankExtended.sol\":5048:5053  users */\n      0x00\n        /* \"TrabajoFinalModulo2/SimpleBankExtended.sol\":5048:5065  users[msg.sender] */\n      dup1\n        /* \"TrabajoFinalModulo2/SimpleBankExtended.sol\":5054:5064  msg.sender */\n      caller\n        /* \"TrabajoFinalModulo2/SimpleBankExtended.sol\":5048:5065  users[msg.sender] */\n      0xffffffffffffffffffffffffffffffffffffffff\n      and\n      0xffffffffffffffffffffffffffffffffffffffff\n      and\n      dup2\n      mstore\n      0x20\n      add\n      swap1\n      dup2\n      mstore\n      0x20\n      add\n      0x00\n      keccak256\n        /* \"TrabajoFinalModulo2/SimpleBankExtended.sol\":5048:5073  users[msg.sender].balance */\n      0x02\n      add\n      sload\n        /* \"TrabajoFinalModulo2/SimpleBankExtended.sol\":5048:5087  users[msg.sender].balance >= (netAmont) */\n      lt\n      iszero\n        /* \"TrabajoFinalModulo2/SimpleBankExtended.sol\":5027:5160  require(... */\n      tag_142\n      jumpi\n      mload(0x40)\n      0x08c379a000000000000000000000000000000000000000000000000000000000\n      dup2\n      mstore\n      0x04\n      add\n      tag_143\n      swap1\n      tag_91\n      jump\t// in\n    tag_143:\n      mload(0x40)\n      dup1\n      swap2\n      sub\n      swap1\n      revert\n    tag_142:\n        /* \"TrabajoFinalModulo2/SimpleBankExtended.sol\":5200:5208  netAmont */\n      dup1\n        /* \"TrabajoFinalModulo2/SimpleBankExtended.sol\":5170:5175  users */\n      0x00\n        /* \"TrabajoFinalModulo2/SimpleBankExtended.sol\":5170:5187  users[msg.sender] */\n      dup1\n        /* \"TrabajoFinalModulo2/SimpleBankExtended.sol\":5176:5186  msg.sender */\n      caller\n        /* \"TrabajoFinalModulo2/SimpleBankExtended.sol\":5170:5187  users[msg.sender] */\n      0xffffffffffffffffffffffffffffffffffffffff\n      and\n      0xffffffffffffffffffffffffffffffffffffffff\n      and\n      dup2\n      mstore\n      0x20\n      add\n      swap1\n      dup2\n      mstore\n      0x20\n      add\n      0x00\n      keccak256\n        /* \"TrabajoFinalModulo2/SimpleBankExtended.sol\":5170:5195  users[msg.sender].balance */\n      0x02\n      add\n      0x00\n        /* \"TrabajoFinalModulo2/SimpleBankExtended.sol\":5170:5209  users[msg.sender].balance -= (netAmont) */\n      dup3\n      dup3\n      sload\n      tag_144\n      swap2\n      swap1\n      tag_73\n      jump\t// in\n    tag_144:\n      swap3\n      pop\n      pop\n      dup2\n      swap1\n      sstore\n      pop\n        /* \"TrabajoFinalModulo2/SimpleBankExtended.sol\":5247:5254  _amount */\n      dup3\n        /* \"TrabajoFinalModulo2/SimpleBankExtended.sol\":5219:5224  users */\n      0x00\n        /* \"TrabajoFinalModulo2/SimpleBankExtended.sol\":5219:5235  users[_receiver] */\n      dup1\n        /* \"TrabajoFinalModulo2/SimpleBankExtended.sol\":5225:5234  _receiver */\n      dup7\n        /* \"TrabajoFinalModulo2/SimpleBankExtended.sol\":5219:5235  users[_receiver] */\n      0xffffffffffffffffffffffffffffffffffffffff\n      and\n      0xffffffffffffffffffffffffffffffffffffffff\n      and\n      dup2\n      mstore\n      0x20\n      add\n      swap1\n      dup2\n      mstore\n      0x20\n      add\n      0x00\n      keccak256\n        /* \"TrabajoFinalModulo2/SimpleBankExtended.sol\":5219:5243  users[_receiver].balance */\n      0x02\n      add\n      0x00\n        /* \"TrabajoFinalModulo2/SimpleBankExtended.sol\":5219:5254  users[_receiver].balance += _amount */\n      dup3\n      dup3\n      sload\n      tag_145\n      swap2\n      swap1\n      tag_99\n      jump\t// in\n    tag_145:\n      swap3\n      pop\n      pop\n      dup2\n      swap1\n      sstore\n      pop\n        /* \"TrabajoFinalModulo2/SimpleBankExtended.sol\":5283:5292  feeAmount */\n      dup2\n        /* \"TrabajoFinalModulo2/SimpleBankExtended.sol\":5264:5279  treasuryBalance */\n      0x04\n      0x00\n        /* \"TrabajoFinalModulo2/SimpleBankExtended.sol\":5264:5292  treasuryBalance += feeAmount */\n      dup3\n      dup3\n      sload\n      tag_146\n      swap2\n      swap1\n      tag_99\n      jump\t// in\n    tag_146:\n      swap3\n      pop\n      pop\n      dup2\n      swap1\n      sstore\n      pop\n        /* \"TrabajoFinalModulo2/SimpleBankExtended.sol\":5329:5338  _receiver */\n      dup4\n        /* \"TrabajoFinalModulo2/SimpleBankExtended.sol\":5308:5348  Transfer(msg.sender, _receiver, _amount) */\n      0xffffffffffffffffffffffffffffffffffffffff\n      and\n        /* \"TrabajoFinalModulo2/SimpleBankExtended.sol\":5317:5327  msg.sender */\n      caller\n        /* \"TrabajoFinalModulo2/SimpleBankExtended.sol\":5308:5348  Transfer(msg.sender, _receiver, _amount) */\n      0xffffffffffffffffffffffffffffffffffffffff\n      and\n      0xddf252ad1be2c89b69c2b068fc378daa952ba7f163c4a11628f55a4df523b3ef\n        /* \"TrabajoFinalModulo2/SimpleBankExtended.sol\":5340:5347  _amount */\n      dup6\n        /* \"TrabajoFinalModulo2/SimpleBankExtended.sol\":5308:5348  Transfer(msg.sender, _receiver, _amount) */\n      mload(0x40)\n      tag_147\n      swap2\n      swap1\n      tag_23\n      jump\t// in\n    tag_147:\n      mload(0x40)\n      dup1\n      swap2\n      sub\n      swap1\n      log3\n        /* \"TrabajoFinalModulo2/SimpleBankExtended.sol\":4754:5356  {... */\n      pop\n      pop\n        /* \"TrabajoFinalModulo2/SimpleBankExtended.sol\":4644:5356  function transferBetweenUsers(address _receiver, uint256 _amount)... */\n      pop\n      pop\n      jump\t// out\n        /* \"TrabajoFinalModulo2/SimpleBankExtended.sol\":2775:2990  function deposit() external payable onlyRegistered {... */\n    tag_59:\n        /* \"TrabajoFinalModulo2/SimpleBankExtended.sol\":1047:1052  users */\n      0x00\n        /* \"TrabajoFinalModulo2/SimpleBankExtended.sol\":1047:1064  users[msg.sender] */\n      dup1\n        /* \"TrabajoFinalModulo2/SimpleBankExtended.sol\":1053:1063  msg.sender */\n      caller\n        /* \"TrabajoFinalModulo2/SimpleBankExtended.sol\":1047:1064  users[msg.sender] */\n      0xffffffffffffffffffffffffffffffffffffffff\n      and\n      0xffffffffffffffffffffffffffffffffffffffff\n      and\n      dup2\n      mstore\n      0x20\n      add\n      swap1\n      dup2\n      mstore\n      0x20\n      add\n      0x00\n      keccak256\n        /* \"TrabajoFinalModulo2/SimpleBankExtended.sol\":1047:1077  users[msg.sender].isRegistered */\n      0x03\n      add\n      0x00\n      swap1\n      sload\n      swap1\n      0x0100\n      exp\n      swap1\n      div\n      0xff\n      and\n        /* \"TrabajoFinalModulo2/SimpleBankExtended.sol\":1026:1132  require(... */\n      tag_149\n      jumpi\n      mload(0x40)\n      0x08c379a000000000000000000000000000000000000000000000000000000000\n      dup2\n      mstore\n      0x04\n      add\n      tag_150\n      swap1\n      tag_80\n      jump\t// in\n    tag_150:\n      mload(0x40)\n      dup1\n      swap2\n      sub\n      swap1\n      revert\n    tag_149:\n        /* \"TrabajoFinalModulo2/SimpleBankExtended.sol\":2856:2857  0 */\n      0x00\n        /* \"TrabajoFinalModulo2/SimpleBankExtended.sol\":2844:2853  msg.value */\n      callvalue\n        /* \"TrabajoFinalModulo2/SimpleBankExtended.sol\":2844:2857  msg.value > 0 */\n      gt\n        /* \"TrabajoFinalModulo2/SimpleBankExtended.sol\":2836:2888  require(msg.value > 0, \"Debe ingresar una cantidad\") */\n      tag_152\n      jumpi\n      mload(0x40)\n      0x08c379a000000000000000000000000000000000000000000000000000000000\n      dup2\n      mstore\n      0x04\n      add\n      tag_153\n      swap1\n      tag_88\n      jump\t// in\n    tag_153:\n      mload(0x40)\n      dup1\n      swap2\n      sub\n      swap1\n      revert\n    tag_152:\n        /* \"TrabajoFinalModulo2/SimpleBankExtended.sol\":2928:2937  msg.value */\n      callvalue\n        /* \"TrabajoFinalModulo2/SimpleBankExtended.sol\":2899:2904  users */\n      0x00\n        /* \"TrabajoFinalModulo2/SimpleBankExtended.sol\":2899:2916  users[msg.sender] */\n      dup1\n        /* \"TrabajoFinalModulo2/SimpleBankExtended.sol\":2905:2915  msg.sender */\n      caller\n        /* \"TrabajoFinalModulo2/SimpleBankExtended.sol\":2899:2916  users[msg.sender] */\n      0xffffffffffffffffffffffffffffffffffffffff\n      and\n      0xffffffffffffffffffffffffffffffffffffffff\n      and\n      dup2\n      mstore\n      0x20\n      add\n      swap1\n      dup2\n      mstore\n      0x20\n      add\n      0x00\n      keccak256\n        /* \"TrabajoFinalModulo2/SimpleBankExtended.sol\":2899:2924  users[msg.sender].balance */\n      0x02\n      add\n      0x00\n        /* \"TrabajoFinalModulo2/SimpleBankExtended.sol\":2899:2937  users[msg.sender].balance += msg.value */\n      dup3\n      dup3\n      sload\n      tag_154\n      swap2\n      swap1\n      tag_99\n      jump\t// in\n    tag_154:\n      swap3\n      pop\n      pop\n      dup2\n      swap1\n      sstore\n      pop\n        /* \"TrabajoFinalModulo2/SimpleBankExtended.sol\":2961:2971  msg.sender */\n      caller\n        /* \"TrabajoFinalModulo2/SimpleBankExtended.sol\":2953:2983  Deposit(msg.sender, msg.value) */\n      0xffffffffffffffffffffffffffffffffffffffff\n      and\n      0xe1fffcc4923d04b559f4d29a8bfc6cda04eb5b0d3c460751c2402c5c5cc9109c\n        /* \"TrabajoFinalModulo2/SimpleBankExtended.sol\":2973:2982  msg.value */\n      callvalue\n        /* \"TrabajoFinalModulo2/SimpleBankExtended.sol\":2953:2983  Deposit(msg.sender, msg.value) */\n      mload(0x40)\n      tag_155\n      swap2\n      swap1\n      tag_23\n      jump\t// in\n    tag_155:\n      mload(0x40)\n      dup1\n      swap2\n      sub\n      swap1\n      log2\n        /* \"TrabajoFinalModulo2/SimpleBankExtended.sol\":2775:2990  function deposit() external payable onlyRegistered {... */\n      jump\t// out\n        /* \"TrabajoFinalModulo2/SimpleBankExtended.sol\":498:516  uint256 public fee */\n    tag_62:\n      sload(0x03)\n      dup2\n      jump\t// out\n        /* \"#utility.yul\":88:205   */\n    tag_157:\n        /* \"#utility.yul\":197:198   */\n      0x00\n        /* \"#utility.yul\":194:195   */\n      dup1\n        /* \"#utility.yul\":187:199   */\n      revert\n        /* \"#utility.yul\":211:328   */\n    tag_158:\n        /* \"#utility.yul\":320:321   */\n      0x00\n        /* \"#utility.yul\":317:318   */\n      dup1\n        /* \"#utility.yul\":310:322   */\n      revert\n        /* \"#utility.yul\":334:411   */\n    tag_159:\n        /* \"#utility.yul\":371:378   */\n      0x00\n        /* \"#utility.yul\":400:405   */\n      dup2\n        /* \"#utility.yul\":389:405   */\n      swap1\n      pop\n        /* \"#utility.yul\":334:411   */\n      swap2\n      swap1\n      pop\n      jump\t// out\n        /* \"#utility.yul\":417:539   */\n    tag_160:\n        /* \"#utility.yul\":490:514   */\n      tag_224\n        /* \"#utility.yul\":508:513   */\n      dup2\n        /* \"#utility.yul\":490:514   */\n      tag_159\n      jump\t// in\n    tag_224:\n        /* \"#utility.yul\":483:488   */\n      dup2\n        /* \"#utility.yul\":480:515   */\n      eq\n        /* \"#utility.yul\":470:533   */\n      tag_225\n      jumpi\n        /* \"#utility.yul\":529:530   */\n      0x00\n        /* \"#utility.yul\":526:527   */\n      dup1\n        /* \"#utility.yul\":519:531   */\n      revert\n        /* \"#utility.yul\":470:533   */\n    tag_225:\n        /* \"#utility.yul\":417:539   */\n      pop\n      jump\t// out\n        /* \"#utility.yul\":545:684   */\n    tag_161:\n        /* \"#utility.yul\":591:596   */\n      0x00\n        /* \"#utility.yul\":629:635   */\n      dup2\n        /* \"#utility.yul\":616:636   */\n      calldataload\n        /* \"#utility.yul\":607:636   */\n      swap1\n      pop\n        /* \"#utility.yul\":645:678   */\n      tag_227\n        /* \"#utility.yul\":672:677   */\n      dup2\n        /* \"#utility.yul\":645:678   */\n      tag_160\n      jump\t// in\n    tag_227:\n        /* \"#utility.yul\":545:684   */\n      swap3\n      swap2\n      pop\n      pop\n      jump\t// out\n        /* \"#utility.yul\":690:1019   */\n    tag_17:\n        /* \"#utility.yul\":749:755   */\n      0x00\n        /* \"#utility.yul\":798:800   */\n      0x20\n        /* \"#utility.yul\":786:795   */\n      dup3\n        /* \"#utility.yul\":777:784   */\n      dup5\n        /* \"#utility.yul\":773:796   */\n      sub\n        /* \"#utility.yul\":769:801   */\n      slt\n        /* \"#utility.yul\":766:885   */\n      iszero\n      tag_229\n      jumpi\n        /* \"#utility.yul\":804:883   */\n      tag_230\n      tag_157\n      jump\t// in\n    tag_230:\n        /* \"#utility.yul\":766:885   */\n    tag_229:\n        /* \"#utility.yul\":924:925   */\n      0x00\n        /* \"#utility.yul\":949:1002   */\n      tag_231\n        /* \"#utility.yul\":994:1001   */\n      dup5\n        /* \"#utility.yul\":985:991   */\n      dup3\n        /* \"#utility.yul\":974:983   */\n      dup6\n        /* \"#utility.yul\":970:992   */\n      add\n        /* \"#utility.yul\":949:1002   */\n      tag_161\n      jump\t// in\n    tag_231:\n        /* \"#utility.yul\":939:1002   */\n      swap2\n      pop\n        /* \"#utility.yul\":895:1012   */\n      pop\n        /* \"#utility.yul\":690:1019   */\n      swap3\n      swap2\n      pop\n      pop\n      jump\t// out\n        /* \"#utility.yul\":1025:1143   */\n    tag_162:\n        /* \"#utility.yul\":1112:1136   */\n      tag_233\n        /* \"#utility.yul\":1130:1135   */\n      dup2\n        /* \"#utility.yul\":1112:1136   */\n      tag_159\n      jump\t// in\n    tag_233:\n        /* \"#utility.yul\":1107:1110   */\n      dup3\n        /* \"#utility.yul\":1100:1137   */\n      mstore\n        /* \"#utility.yul\":1025:1143   */\n      pop\n      pop\n      jump\t// out\n        /* \"#utility.yul\":1149:1371   */\n    tag_23:\n        /* \"#utility.yul\":1242:1246   */\n      0x00\n        /* \"#utility.yul\":1280:1282   */\n      0x20\n        /* \"#utility.yul\":1269:1278   */\n      dup3\n        /* \"#utility.yul\":1265:1283   */\n      add\n        /* \"#utility.yul\":1257:1283   */\n      swap1\n      pop\n        /* \"#utility.yul\":1293:1364   */\n      tag_235\n        /* \"#utility.yul\":1361:1362   */\n      0x00\n        /* \"#utility.yul\":1350:1359   */\n      dup4\n        /* \"#utility.yul\":1346:1363   */\n      add\n        /* \"#utility.yul\":1337:1343   */\n      dup5\n        /* \"#utility.yul\":1293:1364   */\n      tag_162\n      jump\t// in\n    tag_235:\n        /* \"#utility.yul\":1149:1371   */\n      swap3\n      swap2\n      pop\n      pop\n      jump\t// out\n        /* \"#utility.yul\":1377:1494   */\n    tag_163:\n        /* \"#utility.yul\":1486:1487   */\n      0x00\n        /* \"#utility.yul\":1483:1484   */\n      dup1\n        /* \"#utility.yul\":1476:1488   */\n      revert\n        /* \"#utility.yul\":1500:1617   */\n    tag_164:\n        /* \"#utility.yul\":1609:1610   */\n      0x00\n        /* \"#utility.yul\":1606:1607   */\n      dup1\n        /* \"#utility.yul\":1599:1611   */\n      revert\n        /* \"#utility.yul\":1623:1740   */\n    tag_165:\n        /* \"#utility.yul\":1732:1733   */\n      0x00\n        /* \"#utility.yul\":1729:1730   */\n      dup1\n        /* \"#utility.yul\":1722:1734   */\n      revert\n        /* \"#utility.yul\":1760:2313   */\n    tag_166:\n        /* \"#utility.yul\":1818:1826   */\n      0x00\n        /* \"#utility.yul\":1828:1834   */\n      dup1\n        /* \"#utility.yul\":1878:1881   */\n      dup4\n        /* \"#utility.yul\":1871:1875   */\n      0x1f\n        /* \"#utility.yul\":1863:1869   */\n      dup5\n        /* \"#utility.yul\":1859:1876   */\n      add\n        /* \"#utility.yul\":1855:1882   */\n      slt\n        /* \"#utility.yul\":1845:1967   */\n      tag_240\n      jumpi\n        /* \"#utility.yul\":1886:1965   */\n      tag_241\n      tag_163\n      jump\t// in\n    tag_241:\n        /* \"#utility.yul\":1845:1967   */\n    tag_240:\n        /* \"#utility.yul\":1999:2005   */\n      dup3\n        /* \"#utility.yul\":1986:2006   */\n      calldataload\n        /* \"#utility.yul\":1976:2006   */\n      swap1\n      pop\n        /* \"#utility.yul\":2029:2047   */\n      0xffffffffffffffff\n        /* \"#utility.yul\":2021:2027   */\n      dup2\n        /* \"#utility.yul\":2018:2048   */\n      gt\n        /* \"#utility.yul\":2015:2132   */\n      iszero\n      tag_242\n      jumpi\n        /* \"#utility.yul\":2051:2130   */\n      tag_243\n      tag_164\n      jump\t// in\n    tag_243:\n        /* \"#utility.yul\":2015:2132   */\n    tag_242:\n        /* \"#utility.yul\":2165:2169   */\n      0x20\n        /* \"#utility.yul\":2157:2163   */\n      dup4\n        /* \"#utility.yul\":2153:2170   */\n      add\n        /* \"#utility.yul\":2141:2170   */\n      swap2\n      pop\n        /* \"#utility.yul\":2219:2222   */\n      dup4\n        /* \"#utility.yul\":2211:2215   */\n      0x01\n        /* \"#utility.yul\":2203:2209   */\n      dup3\n        /* \"#utility.yul\":2199:2216   */\n      mul\n        /* \"#utility.yul\":2189:2197   */\n      dup4\n        /* \"#utility.yul\":2185:2217   */\n      add\n        /* \"#utility.yul\":2182:2223   */\n      gt\n        /* \"#utility.yul\":2179:2307   */\n      iszero\n      tag_244\n      jumpi\n        /* \"#utility.yul\":2226:2305   */\n      tag_245\n      tag_165\n      jump\t// in\n    tag_245:\n        /* \"#utility.yul\":2179:2307   */\n    tag_244:\n        /* \"#utility.yul\":1760:2313   */\n      swap3\n      pop\n      swap3\n      swap1\n      pop\n      jump\t// out\n        /* \"#utility.yul\":2319:3193   */\n    tag_35:\n        /* \"#utility.yul\":2411:2417   */\n      0x00\n        /* \"#utility.yul\":2419:2425   */\n      dup1\n        /* \"#utility.yul\":2427:2433   */\n      0x00\n        /* \"#utility.yul\":2435:2441   */\n      dup1\n        /* \"#utility.yul\":2484:2486   */\n      0x40\n        /* \"#utility.yul\":2472:2481   */\n      dup6\n        /* \"#utility.yul\":2463:2470   */\n      dup8\n        /* \"#utility.yul\":2459:2482   */\n      sub\n        /* \"#utility.yul\":2455:2487   */\n      slt\n        /* \"#utility.yul\":2452:2571   */\n      iszero\n      tag_247\n      jumpi\n        /* \"#utility.yul\":2490:2569   */\n      tag_248\n      tag_157\n      jump\t// in\n    tag_248:\n        /* \"#utility.yul\":2452:2571   */\n    tag_247:\n        /* \"#utility.yul\":2638:2639   */\n      0x00\n        /* \"#utility.yul\":2627:2636   */\n      dup6\n        /* \"#utility.yul\":2623:2640   */\n      add\n        /* \"#utility.yul\":2610:2641   */\n      calldataload\n        /* \"#utility.yul\":2668:2686   */\n      0xffffffffffffffff\n        /* \"#utility.yul\":2660:2666   */\n      dup2\n        /* \"#utility.yul\":2657:2687   */\n      gt\n        /* \"#utility.yul\":2654:2771   */\n      iszero\n      tag_249\n      jumpi\n        /* \"#utility.yul\":2690:2769   */\n      tag_250\n      tag_158\n      jump\t// in\n    tag_250:\n        /* \"#utility.yul\":2654:2771   */\n    tag_249:\n        /* \"#utility.yul\":2803:2868   */\n      tag_251\n        /* \"#utility.yul\":2860:2867   */\n      dup8\n        /* \"#utility.yul\":2851:2857   */\n      dup3\n        /* \"#utility.yul\":2840:2849   */\n      dup9\n        /* \"#utility.yul\":2836:2858   */\n      add\n        /* \"#utility.yul\":2803:2868   */\n      tag_166\n      jump\t// in\n    tag_251:\n        /* \"#utility.yul\":2785:2868   */\n      swap5\n      pop\n      swap5\n      pop\n        /* \"#utility.yul\":2581:2878   */\n      pop\n        /* \"#utility.yul\":2945:2947   */\n      0x20\n        /* \"#utility.yul\":2934:2943   */\n      dup6\n        /* \"#utility.yul\":2930:2948   */\n      add\n        /* \"#utility.yul\":2917:2949   */\n      calldataload\n        /* \"#utility.yul\":2976:2994   */\n      0xffffffffffffffff\n        /* \"#utility.yul\":2968:2974   */\n      dup2\n        /* \"#utility.yul\":2965:2995   */\n      gt\n        /* \"#utility.yul\":2962:3079   */\n      iszero\n      tag_252\n      jumpi\n        /* \"#utility.yul\":2998:3077   */\n      tag_253\n      tag_158\n      jump\t// in\n    tag_253:\n        /* \"#utility.yul\":2962:3079   */\n    tag_252:\n        /* \"#utility.yul\":3111:3176   */\n      tag_254\n        /* \"#utility.yul\":3168:3175   */\n      dup8\n        /* \"#utility.yul\":3159:3165   */\n      dup3\n        /* \"#utility.yul\":3148:3157   */\n      dup9\n        /* \"#utility.yul\":3144:3166   */\n      add\n        /* \"#utility.yul\":3111:3176   */\n      tag_166\n      jump\t// in\n    tag_254:\n        /* \"#utility.yul\":3093:3176   */\n      swap3\n      pop\n      swap3\n      pop\n        /* \"#utility.yul\":2888:3186   */\n      pop\n        /* \"#utility.yul\":2319:3193   */\n      swap3\n      swap6\n      swap2\n      swap5\n      pop\n      swap3\n      pop\n      jump\t// out\n        /* \"#utility.yul\":3199:3325   */\n    tag_167:\n        /* \"#utility.yul\":3236:3243   */\n      0x00\n        /* \"#utility.yul\":3276:3318   */\n      0xffffffffffffffffffffffffffffffffffffffff\n        /* \"#utility.yul\":3269:3274   */\n      dup3\n        /* \"#utility.yul\":3265:3319   */\n      and\n        /* \"#utility.yul\":3254:3319   */\n      swap1\n      pop\n        /* \"#utility.yul\":3199:3325   */\n      swap2\n      swap1\n      pop\n      jump\t// out\n        /* \"#utility.yul\":3331:3427   */\n    tag_168:\n        /* \"#utility.yul\":3368:3375   */\n      0x00\n        /* \"#utility.yul\":3397:3421   */\n      tag_257\n        /* \"#utility.yul\":3415:3420   */\n      dup3\n        /* \"#utility.yul\":3397:3421   */\n      tag_167\n      jump\t// in\n    tag_257:\n        /* \"#utility.yul\":3386:3421   */\n      swap1\n      pop\n        /* \"#utility.yul\":3331:3427   */\n      swap2\n      swap1\n      pop\n      jump\t// out\n        /* \"#utility.yul\":3433:3551   */\n    tag_169:\n        /* \"#utility.yul\":3520:3544   */\n      tag_259\n        /* \"#utility.yul\":3538:3543   */\n      dup2\n        /* \"#utility.yul\":3520:3544   */\n      tag_168\n      jump\t// in\n    tag_259:\n        /* \"#utility.yul\":3515:3518   */\n      dup3\n        /* \"#utility.yul\":3508:3545   */\n      mstore\n        /* \"#utility.yul\":3433:3551   */\n      pop\n      pop\n      jump\t// out\n        /* \"#utility.yul\":3557:3779   */\n    tag_41:\n        /* \"#utility.yul\":3650:3654   */\n      0x00\n        /* \"#utility.yul\":3688:3690   */\n      0x20\n        /* \"#utility.yul\":3677:3686   */\n      dup3\n        /* \"#utility.yul\":3673:3691   */\n      add\n        /* \"#utility.yul\":3665:3691   */\n      swap1\n      pop\n        /* \"#utility.yul\":3701:3772   */\n      tag_261\n        /* \"#utility.yul\":3769:3770   */\n      0x00\n        /* \"#utility.yul\":3758:3767   */\n      dup4\n        /* \"#utility.yul\":3754:3771   */\n      add\n        /* \"#utility.yul\":3745:3751   */\n      dup5\n        /* \"#utility.yul\":3701:3772   */\n      tag_169\n      jump\t// in\n    tag_261:\n        /* \"#utility.yul\":3557:3779   */\n      swap3\n      swap2\n      pop\n      pop\n      jump\t// out\n        /* \"#utility.yul\":3785:3907   */\n    tag_170:\n        /* \"#utility.yul\":3858:3882   */\n      tag_263\n        /* \"#utility.yul\":3876:3881   */\n      dup2\n        /* \"#utility.yul\":3858:3882   */\n      tag_168\n      jump\t// in\n    tag_263:\n        /* \"#utility.yul\":3851:3856   */\n      dup2\n        /* \"#utility.yul\":3848:3883   */\n      eq\n        /* \"#utility.yul\":3838:3901   */\n      tag_264\n      jumpi\n        /* \"#utility.yul\":3897:3898   */\n      0x00\n        /* \"#utility.yul\":3894:3895   */\n      dup1\n        /* \"#utility.yul\":3887:3899   */\n      revert\n        /* \"#utility.yul\":3838:3901   */\n    tag_264:\n        /* \"#utility.yul\":3785:3907   */\n      pop\n      jump\t// out\n        /* \"#utility.yul\":3913:4052   */\n    tag_171:\n        /* \"#utility.yul\":3959:3964   */\n      0x00\n        /* \"#utility.yul\":3997:4003   */\n      dup2\n        /* \"#utility.yul\":3984:4004   */\n      calldataload\n        /* \"#utility.yul\":3975:4004   */\n      swap1\n      pop\n        /* \"#utility.yul\":4013:4046   */\n      tag_266\n        /* \"#utility.yul\":4040:4045   */\n      dup2\n        /* \"#utility.yul\":4013:4046   */\n      tag_170\n      jump\t// in\n    tag_266:\n        /* \"#utility.yul\":3913:4052   */\n      swap3\n      swap2\n      pop\n      pop\n      jump\t// out\n        /* \"#utility.yul\":4058:4387   */\n    tag_49:\n        /* \"#utility.yul\":4117:4123   */\n      0x00\n        /* \"#utility.yul\":4166:4168   */\n      0x20\n        /* \"#utility.yul\":4154:4163   */\n      dup3\n        /* \"#utility.yul\":4145:4152   */\n      dup5\n        /* \"#utility.yul\":4141:4164   */\n      sub\n        /* \"#utility.yul\":4137:4169   */\n      slt\n        /* \"#utility.yul\":4134:4253   */\n      iszero\n      tag_268\n      jumpi\n        /* \"#utility.yul\":4172:4251   */\n      tag_269\n      tag_157\n      jump\t// in\n    tag_269:\n        /* \"#utility.yul\":4134:4253   */\n    tag_268:\n        /* \"#utility.yul\":4292:4293   */\n      0x00\n        /* \"#utility.yul\":4317:4370   */\n      tag_270\n        /* \"#utility.yul\":4362:4369   */\n      dup5\n        /* \"#utility.yul\":4353:4359   */\n      dup3\n        /* \"#utility.yul\":4342:4351   */\n      dup6\n        /* \"#utility.yul\":4338:4360   */\n      add\n        /* \"#utility.yul\":4317:4370   */\n      tag_171\n      jump\t// in\n    tag_270:\n        /* \"#utility.yul\":4307:4370   */\n      swap2\n      pop\n        /* \"#utility.yul\":4263:4380   */\n      pop\n        /* \"#utility.yul\":4058:4387   */\n      swap3\n      swap2\n      pop\n      pop\n      jump\t// out\n        /* \"#utility.yul\":4393:4492   */\n    tag_172:\n        /* \"#utility.yul\":4445:4451   */\n      0x00\n        /* \"#utility.yul\":4479:4484   */\n      dup2\n        /* \"#utility.yul\":4473:4485   */\n      mload\n        /* \"#utility.yul\":4463:4485   */\n      swap1\n      pop\n        /* \"#utility.yul\":4393:4492   */\n      swap2\n      swap1\n      pop\n      jump\t// out\n        /* \"#utility.yul\":4498:4667   */\n    tag_173:\n        /* \"#utility.yul\":4582:4593   */\n      0x00\n        /* \"#utility.yul\":4616:4622   */\n      dup3\n        /* \"#utility.yul\":4611:4614   */\n      dup3\n        /* \"#utility.yul\":4604:4623   */\n      mstore\n        /* \"#utility.yul\":4656:4660   */\n      0x20\n        /* \"#utility.yul\":4651:4654   */\n      dup3\n        /* \"#utility.yul\":4647:4661   */\n      add\n        /* \"#utility.yul\":4632:4661   */\n      swap1\n      pop\n        /* \"#utility.yul\":4498:4667   */\n      swap3\n      swap2\n      pop\n      pop\n      jump\t// out\n        /* \"#utility.yul\":4673:4812   */\n    tag_174:\n        /* \"#utility.yul\":4762:4768   */\n      dup3\n        /* \"#utility.yul\":4757:4760   */\n      dup2\n        /* \"#utility.yul\":4752:4755   */\n      dup4\n        /* \"#utility.yul\":4746:4769   */\n      mcopy\n        /* \"#utility.yul\":4803:4804   */\n      0x00\n        /* \"#utility.yul\":4794:4800   */\n      dup4\n        /* \"#utility.yul\":4789:4792   */\n      dup4\n        /* \"#utility.yul\":4785:4801   */\n      add\n        /* \"#utility.yul\":4778:4805   */\n      mstore\n        /* \"#utility.yul\":4673:4812   */\n      pop\n      pop\n      pop\n      jump\t// out\n        /* \"#utility.yul\":4818:4920   */\n    tag_175:\n        /* \"#utility.yul\":4859:4865   */\n      0x00\n        /* \"#utility.yul\":4910:4912   */\n      0x1f\n        /* \"#utility.yul\":4906:4913   */\n      not\n        /* \"#utility.yul\":4901:4903   */\n      0x1f\n        /* \"#utility.yul\":4894:4899   */\n      dup4\n        /* \"#utility.yul\":4890:4904   */\n      add\n        /* \"#utility.yul\":4886:4914   */\n      and\n        /* \"#utility.yul\":4876:4914   */\n      swap1\n      pop\n        /* \"#utility.yul\":4818:4920   */\n      swap2\n      swap1\n      pop\n      jump\t// out\n        /* \"#utility.yul\":4926:5303   */\n    tag_176:\n        /* \"#utility.yul\":5014:5017   */\n      0x00\n        /* \"#utility.yul\":5042:5081   */\n      tag_276\n        /* \"#utility.yul\":5075:5080   */\n      dup3\n        /* \"#utility.yul\":5042:5081   */\n      tag_172\n      jump\t// in\n    tag_276:\n        /* \"#utility.yul\":5097:5168   */\n      tag_277\n        /* \"#utility.yul\":5161:5167   */\n      dup2\n        /* \"#utility.yul\":5156:5159   */\n      dup6\n        /* \"#utility.yul\":5097:5168   */\n      tag_173\n      jump\t// in\n    tag_277:\n        /* \"#utility.yul\":5090:5168   */\n      swap4\n      pop\n        /* \"#utility.yul\":5177:5242   */\n      tag_278\n        /* \"#utility.yul\":5235:5241   */\n      dup2\n        /* \"#utility.yul\":5230:5233   */\n      dup6\n        /* \"#utility.yul\":5223:5227   */\n      0x20\n        /* \"#utility.yul\":5216:5221   */\n      dup7\n        /* \"#utility.yul\":5212:5228   */\n      add\n        /* \"#utility.yul\":5177:5242   */\n      tag_174\n      jump\t// in\n    tag_278:\n        /* \"#utility.yul\":5267:5296   */\n      tag_279\n        /* \"#utility.yul\":5289:5295   */\n      dup2\n        /* \"#utility.yul\":5267:5296   */\n      tag_175\n      jump\t// in\n    tag_279:\n        /* \"#utility.yul\":5262:5265   */\n      dup5\n        /* \"#utility.yul\":5258:5297   */\n      add\n        /* \"#utility.yul\":5251:5297   */\n      swap2\n      pop\n        /* \"#utility.yul\":5018:5303   */\n      pop\n        /* \"#utility.yul\":4926:5303   */\n      swap3\n      swap2\n      pop\n      pop\n      jump\t// out\n        /* \"#utility.yul\":5309:5399   */\n    tag_177:\n        /* \"#utility.yul\":5343:5350   */\n      0x00\n        /* \"#utility.yul\":5386:5391   */\n      dup2\n        /* \"#utility.yul\":5379:5392   */\n      iszero\n        /* \"#utility.yul\":5372:5393   */\n      iszero\n        /* \"#utility.yul\":5361:5393   */\n      swap1\n      pop\n        /* \"#utility.yul\":5309:5399   */\n      swap2\n      swap1\n      pop\n      jump\t// out\n        /* \"#utility.yul\":5405:5514   */\n    tag_178:\n        /* \"#utility.yul\":5486:5507   */\n      tag_282\n        /* \"#utility.yul\":5501:5506   */\n      dup2\n        /* \"#utility.yul\":5486:5507   */\n      tag_177\n      jump\t// in\n    tag_282:\n        /* \"#utility.yul\":5481:5484   */\n      dup3\n        /* \"#utility.yul\":5474:5508   */\n      mstore\n        /* \"#utility.yul\":5405:5514   */\n      pop\n      pop\n      jump\t// out\n        /* \"#utility.yul\":5520:6243   */\n    tag_52:\n        /* \"#utility.yul\":5731:5735   */\n      0x00\n        /* \"#utility.yul\":5769:5772   */\n      0x80\n        /* \"#utility.yul\":5758:5767   */\n      dup3\n        /* \"#utility.yul\":5754:5773   */\n      add\n        /* \"#utility.yul\":5746:5773   */\n      swap1\n      pop\n        /* \"#utility.yul\":5819:5828   */\n      dup2\n        /* \"#utility.yul\":5813:5817   */\n      dup2\n        /* \"#utility.yul\":5809:5829   */\n      sub\n        /* \"#utility.yul\":5805:5806   */\n      0x00\n        /* \"#utility.yul\":5794:5803   */\n      dup4\n        /* \"#utility.yul\":5790:5807   */\n      add\n        /* \"#utility.yul\":5783:5830   */\n      mstore\n        /* \"#utility.yul\":5847:5925   */\n      tag_284\n        /* \"#utility.yul\":5920:5924   */\n      dup2\n        /* \"#utility.yul\":5911:5917   */\n      dup8\n        /* \"#utility.yul\":5847:5925   */\n      tag_176\n      jump\t// in\n    tag_284:\n        /* \"#utility.yul\":5839:5925   */\n      swap1\n      pop\n        /* \"#utility.yul\":5972:5981   */\n      dup2\n        /* \"#utility.yul\":5966:5970   */\n      dup2\n        /* \"#utility.yul\":5962:5982   */\n      sub\n        /* \"#utility.yul\":5957:5959   */\n      0x20\n        /* \"#utility.yul\":5946:5955   */\n      dup4\n        /* \"#utility.yul\":5942:5960   */\n      add\n        /* \"#utility.yul\":5935:5983   */\n      mstore\n        /* \"#utility.yul\":6000:6078   */\n      tag_285\n        /* \"#utility.yul\":6073:6077   */\n      dup2\n        /* \"#utility.yul\":6064:6070   */\n      dup7\n        /* \"#utility.yul\":6000:6078   */\n      tag_176\n      jump\t// in\n    tag_285:\n        /* \"#utility.yul\":5992:6078   */\n      swap1\n      pop\n        /* \"#utility.yul\":6088:6160   */\n      tag_286\n        /* \"#utility.yul\":6156:6158   */\n      0x40\n        /* \"#utility.yul\":6145:6154   */\n      dup4\n        /* \"#utility.yul\":6141:6159   */\n      add\n        /* \"#utility.yul\":6132:6138   */\n      dup6\n        /* \"#utility.yul\":6088:6160   */\n      tag_162\n      jump\t// in\n    tag_286:\n        /* \"#utility.yul\":6170:6236   */\n      tag_287\n        /* \"#utility.yul\":6232:6234   */\n      0x60\n        /* \"#utility.yul\":6221:6230   */\n      dup4\n        /* \"#utility.yul\":6217:6235   */\n      add\n        /* \"#utility.yul\":6208:6214   */\n      dup5\n        /* \"#utility.yul\":6170:6236   */\n      tag_178\n      jump\t// in\n    tag_287:\n        /* \"#utility.yul\":5520:6243   */\n      swap6\n      swap5\n      pop\n      pop\n      pop\n      pop\n      pop\n      jump\t// out\n        /* \"#utility.yul\":6249:6723   */\n    tag_56:\n        /* \"#utility.yul\":6317:6323   */\n      0x00\n        /* \"#utility.yul\":6325:6331   */\n      dup1\n        /* \"#utility.yul\":6374:6376   */\n      0x40\n        /* \"#utility.yul\":6362:6371   */\n      dup4\n        /* \"#utility.yul\":6353:6360   */\n      dup6\n        /* \"#utility.yul\":6349:6372   */\n      sub\n        /* \"#utility.yul\":6345:6377   */\n      slt\n        /* \"#utility.yul\":6342:6461   */\n      iszero\n      tag_289\n      jumpi\n        /* \"#utility.yul\":6380:6459   */\n      tag_290\n      tag_157\n      jump\t// in\n    tag_290:\n        /* \"#utility.yul\":6342:6461   */\n    tag_289:\n        /* \"#utility.yul\":6500:6501   */\n      0x00\n        /* \"#utility.yul\":6525:6578   */\n      tag_291\n        /* \"#utility.yul\":6570:6577   */\n      dup6\n        /* \"#utility.yul\":6561:6567   */\n      dup3\n        /* \"#utility.yul\":6550:6559   */\n      dup7\n        /* \"#utility.yul\":6546:6568   */\n      add\n        /* \"#utility.yul\":6525:6578   */\n      tag_171\n      jump\t// in\n    tag_291:\n        /* \"#utility.yul\":6515:6578   */\n      swap3\n      pop\n        /* \"#utility.yul\":6471:6588   */\n      pop\n        /* \"#utility.yul\":6627:6629   */\n      0x20\n        /* \"#utility.yul\":6653:6706   */\n      tag_292\n        /* \"#utility.yul\":6698:6705   */\n      dup6\n        /* \"#utility.yul\":6689:6695   */\n      dup3\n        /* \"#utility.yul\":6678:6687   */\n      dup7\n        /* \"#utility.yul\":6674:6696   */\n      add\n        /* \"#utility.yul\":6653:6706   */\n      tag_161\n      jump\t// in\n    tag_292:\n        /* \"#utility.yul\":6643:6706   */\n      swap2\n      pop\n        /* \"#utility.yul\":6598:6716   */\n      pop\n        /* \"#utility.yul\":6249:6723   */\n      swap3\n      pop\n      swap3\n      swap1\n      pop\n      jump\t// out\n        /* \"#utility.yul\":6729:6959   */\n    tag_179:\n        /* \"#utility.yul\":6869:6903   */\n      0x536f6c6f20656c207573756172696f207075656465206c6c616d617220612065\n        /* \"#utility.yul\":6865:6866   */\n      0x00\n        /* \"#utility.yul\":6857:6863   */\n      dup3\n        /* \"#utility.yul\":6853:6867   */\n      add\n        /* \"#utility.yul\":6846:6904   */\n      mstore\n        /* \"#utility.yul\":6938:6951   */\n      0x7374612066756e63696f6e000000000000000000000000000000000000000000\n        /* \"#utility.yul\":6933:6935   */\n      0x20\n        /* \"#utility.yul\":6925:6931   */\n      dup3\n        /* \"#utility.yul\":6921:6936   */\n      add\n        /* \"#utility.yul\":6914:6952   */\n      mstore\n        /* \"#utility.yul\":6729:6959   */\n      pop\n      jump\t// out\n        /* \"#utility.yul\":6965:7331   */\n    tag_180:\n        /* \"#utility.yul\":7107:7110   */\n      0x00\n        /* \"#utility.yul\":7128:7195   */\n      tag_295\n        /* \"#utility.yul\":7192:7194   */\n      0x2b\n        /* \"#utility.yul\":7187:7190   */\n      dup4\n        /* \"#utility.yul\":7128:7195   */\n      tag_173\n      jump\t// in\n    tag_295:\n        /* \"#utility.yul\":7121:7195   */\n      swap2\n      pop\n        /* \"#utility.yul\":7204:7297   */\n      tag_296\n        /* \"#utility.yul\":7293:7296   */\n      dup3\n        /* \"#utility.yul\":7204:7297   */\n      tag_179\n      jump\t// in\n    tag_296:\n        /* \"#utility.yul\":7322:7324   */\n      0x40\n        /* \"#utility.yul\":7317:7320   */\n      dup3\n        /* \"#utility.yul\":7313:7325   */\n      add\n        /* \"#utility.yul\":7306:7325   */\n      swap1\n      pop\n        /* \"#utility.yul\":6965:7331   */\n      swap2\n      swap1\n      pop\n      jump\t// out\n        /* \"#utility.yul\":7337:7756   */\n    tag_67:\n        /* \"#utility.yul\":7503:7507   */\n      0x00\n        /* \"#utility.yul\":7541:7543   */\n      0x20\n        /* \"#utility.yul\":7530:7539   */\n      dup3\n        /* \"#utility.yul\":7526:7544   */\n      add\n        /* \"#utility.yul\":7518:7544   */\n      swap1\n      pop\n        /* \"#utility.yul\":7590:7599   */\n      dup2\n        /* \"#utility.yul\":7584:7588   */\n      dup2\n        /* \"#utility.yul\":7580:7600   */\n      sub\n        /* \"#utility.yul\":7576:7577   */\n      0x00\n        /* \"#utility.yul\":7565:7574   */\n      dup4\n        /* \"#utility.yul\":7561:7578   */\n      add\n        /* \"#utility.yul\":7554:7601   */\n      mstore\n        /* \"#utility.yul\":7618:7749   */\n      tag_298\n        /* \"#utility.yul\":7744:7748   */\n      dup2\n        /* \"#utility.yul\":7618:7749   */\n      tag_180\n      jump\t// in\n    tag_298:\n        /* \"#utility.yul\":7610:7749   */\n      swap1\n      pop\n        /* \"#utility.yul\":7337:7756   */\n      swap2\n      swap1\n      pop\n      jump\t// out\n        /* \"#utility.yul\":7762:8009   */\n    tag_181:\n        /* \"#utility.yul\":7902:7936   */\n      0x53616c646f20696e737566696369656e746520656e207465736f726572696120\n        /* \"#utility.yul\":7898:7899   */\n      0x00\n        /* \"#utility.yul\":7890:7896   */\n      dup3\n        /* \"#utility.yul\":7886:7900   */\n      add\n        /* \"#utility.yul\":7879:7937   */\n      mstore\n        /* \"#utility.yul\":7971:8001   */\n      0x70617261206c61206f7065726163696f6e20736f6c6963697461646100000000\n        /* \"#utility.yul\":7966:7968   */\n      0x20\n        /* \"#utility.yul\":7958:7964   */\n      dup3\n        /* \"#utility.yul\":7954:7969   */\n      add\n        /* \"#utility.yul\":7947:8002   */\n      mstore\n        /* \"#utility.yul\":7762:8009   */\n      pop\n      jump\t// out\n        /* \"#utility.yul\":8015:8381   */\n    tag_182:\n        /* \"#utility.yul\":8157:8160   */\n      0x00\n        /* \"#utility.yul\":8178:8245   */\n      tag_301\n        /* \"#utility.yul\":8242:8244   */\n      0x3c\n        /* \"#utility.yul\":8237:8240   */\n      dup4\n        /* \"#utility.yul\":8178:8245   */\n      tag_173\n      jump\t// in\n    tag_301:\n        /* \"#utility.yul\":8171:8245   */\n      swap2\n      pop\n        /* \"#utility.yul\":8254:8347   */\n      tag_302\n        /* \"#utility.yul\":8343:8346   */\n      dup3\n        /* \"#utility.yul\":8254:8347   */\n      tag_181\n      jump\t// in\n    tag_302:\n        /* \"#utility.yul\":8372:8374   */\n      0x40\n        /* \"#utility.yul\":8367:8370   */\n      dup3\n        /* \"#utility.yul\":8363:8375   */\n      add\n        /* \"#utility.yul\":8356:8375   */\n      swap1\n      pop\n        /* \"#utility.yul\":8015:8381   */\n      swap2\n      swap1\n      pop\n      jump\t// out\n        /* \"#utility.yul\":8387:8806   */\n    tag_71:\n        /* \"#utility.yul\":8553:8557   */\n      0x00\n        /* \"#utility.yul\":8591:8593   */\n      0x20\n        /* \"#utility.yul\":8580:8589   */\n      dup3\n        /* \"#utility.yul\":8576:8594   */\n      add\n        /* \"#utility.yul\":8568:8594   */\n      swap1\n      pop\n        /* \"#utility.yul\":8640:8649   */\n      dup2\n        /* \"#utility.yul\":8634:8638   */\n      dup2\n        /* \"#utility.yul\":8630:8650   */\n      sub\n        /* \"#utility.yul\":8626:8627   */\n      0x00\n        /* \"#utility.yul\":8615:8624   */\n      dup4\n        /* \"#utility.yul\":8611:8628   */\n      add\n        /* \"#utility.yul\":8604:8651   */\n      mstore\n        /* \"#utility.yul\":8668:8799   */\n      tag_304\n        /* \"#utility.yul\":8794:8798   */\n      dup2\n        /* \"#utility.yul\":8668:8799   */\n      tag_182\n      jump\t// in\n    tag_304:\n        /* \"#utility.yul\":8660:8799   */\n      swap1\n      pop\n        /* \"#utility.yul\":8387:8806   */\n      swap2\n      swap1\n      pop\n      jump\t// out\n        /* \"#utility.yul\":8812:8992   */\n    tag_183:\n        /* \"#utility.yul\":8860:8937   */\n      0x4e487b7100000000000000000000000000000000000000000000000000000000\n        /* \"#utility.yul\":8857:8858   */\n      0x00\n        /* \"#utility.yul\":8850:8938   */\n      mstore\n        /* \"#utility.yul\":8957:8961   */\n      0x11\n        /* \"#utility.yul\":8954:8955   */\n      0x04\n        /* \"#utility.yul\":8947:8962   */\n      mstore\n        /* \"#utility.yul\":8981:8985   */\n      0x24\n        /* \"#utility.yul\":8978:8979   */\n      0x00\n        /* \"#utility.yul\":8971:8986   */\n      revert\n        /* \"#utility.yul\":8998:9192   */\n    tag_73:\n        /* \"#utility.yul\":9038:9042   */\n      0x00\n        /* \"#utility.yul\":9058:9078   */\n      tag_307\n        /* \"#utility.yul\":9076:9077   */\n      dup3\n        /* \"#utility.yul\":9058:9078   */\n      tag_159\n      jump\t// in\n    tag_307:\n        /* \"#utility.yul\":9053:9078   */\n      swap2\n      pop\n        /* \"#utility.yul\":9092:9112   */\n      tag_308\n        /* \"#utility.yul\":9110:9111   */\n      dup4\n        /* \"#utility.yul\":9092:9112   */\n      tag_159\n      jump\t// in\n    tag_308:\n        /* \"#utility.yul\":9087:9112   */\n      swap3\n      pop\n        /* \"#utility.yul\":9136:9137   */\n      dup3\n        /* \"#utility.yul\":9133:9134   */\n      dup3\n        /* \"#utility.yul\":9129:9138   */\n      sub\n        /* \"#utility.yul\":9121:9138   */\n      swap1\n      pop\n        /* \"#utility.yul\":9160:9161   */\n      dup2\n        /* \"#utility.yul\":9154:9158   */\n      dup2\n        /* \"#utility.yul\":9151:9162   */\n      gt\n        /* \"#utility.yul\":9148:9185   */\n      iszero\n      tag_309\n      jumpi\n        /* \"#utility.yul\":9165:9183   */\n      tag_310\n      tag_183\n      jump\t// in\n    tag_310:\n        /* \"#utility.yul\":9148:9185   */\n    tag_309:\n        /* \"#utility.yul\":8998:9192   */\n      swap3\n      swap2\n      pop\n      pop\n      jump\t// out\n        /* \"#utility.yul\":9198:9377   */\n    tag_184:\n        /* \"#utility.yul\":9338:9369   */\n      0x456c207573756172696f206e6f2065737461207265676973747261646f000000\n        /* \"#utility.yul\":9334:9335   */\n      0x00\n        /* \"#utility.yul\":9326:9332   */\n      dup3\n        /* \"#utility.yul\":9322:9336   */\n      add\n        /* \"#utility.yul\":9315:9370   */\n      mstore\n        /* \"#utility.yul\":9198:9377   */\n      pop\n      jump\t// out\n        /* \"#utility.yul\":9383:9749   */\n    tag_185:\n        /* \"#utility.yul\":9525:9528   */\n      0x00\n        /* \"#utility.yul\":9546:9613   */\n      tag_313\n        /* \"#utility.yul\":9610:9612   */\n      0x1d\n        /* \"#utility.yul\":9605:9608   */\n      dup4\n        /* \"#utility.yul\":9546:9613   */\n      tag_173\n      jump\t// in\n    tag_313:\n        /* \"#utility.yul\":9539:9613   */\n      swap2\n      pop\n        /* \"#utility.yul\":9622:9715   */\n      tag_314\n        /* \"#utility.yul\":9711:9714   */\n      dup3\n        /* \"#utility.yul\":9622:9715   */\n      tag_184\n      jump\t// in\n    tag_314:\n        /* \"#utility.yul\":9740:9742   */\n      0x20\n        /* \"#utility.yul\":9735:9738   */\n      dup3\n        /* \"#utility.yul\":9731:9743   */\n      add\n        /* \"#utility.yul\":9724:9743   */\n      swap1\n      pop\n        /* \"#utility.yul\":9383:9749   */\n      swap2\n      swap1\n      pop\n      jump\t// out\n        /* \"#utility.yul\":9755:10174   */\n    tag_80:\n        /* \"#utility.yul\":9921:9925   */\n      0x00\n        /* \"#utility.yul\":9959:9961   */\n      0x20\n        /* \"#utility.yul\":9948:9957   */\n      dup3\n        /* \"#utility.yul\":9944:9962   */\n      add\n        /* \"#utility.yul\":9936:9962   */\n      swap1\n      pop\n        /* \"#utility.yul\":10008:10017   */\n      dup2\n        /* \"#utility.yul\":10002:10006   */\n      dup2\n        /* \"#utility.yul\":9998:10018   */\n      sub\n        /* \"#utility.yul\":9994:9995   */\n      0x00\n        /* \"#utility.yul\":9983:9992   */\n      dup4\n        /* \"#utility.yul\":9979:9996   */\n      add\n        /* \"#utility.yul\":9972:10019   */\n      mstore\n        /* \"#utility.yul\":10036:10167   */\n      tag_316\n        /* \"#utility.yul\":10162:10166   */\n      dup2\n        /* \"#utility.yul\":10036:10167   */\n      tag_185\n      jump\t// in\n    tag_316:\n        /* \"#utility.yul\":10028:10167   */\n      swap1\n      pop\n        /* \"#utility.yul\":9755:10174   */\n      swap2\n      swap1\n      pop\n      jump\t// out\n        /* \"#utility.yul\":10180:10356   */\n    tag_186:\n        /* \"#utility.yul\":10320:10348   */\n      0x4465626520696e67726573617220756e612063616e7469646164000000000000\n        /* \"#utility.yul\":10316:10317   */\n      0x00\n        /* \"#utility.yul\":10308:10314   */\n      dup3\n        /* \"#utility.yul\":10304:10318   */\n      add\n        /* \"#utility.yul\":10297:10349   */\n      mstore\n        /* \"#utility.yul\":10180:10356   */\n      pop\n      jump\t// out\n        /* \"#utility.yul\":10362:10728   */\n    tag_187:\n        /* \"#utility.yul\":10504:10507   */\n      0x00\n        /* \"#utility.yul\":10525:10592   */\n      tag_319\n        /* \"#utility.yul\":10589:10591   */\n      0x1a\n        /* \"#utility.yul\":10584:10587   */\n      dup4\n        /* \"#utility.yul\":10525:10592   */\n      tag_173\n      jump\t// in\n    tag_319:\n        /* \"#utility.yul\":10518:10592   */\n      swap2\n      pop\n        /* \"#utility.yul\":10601:10694   */\n      tag_320\n        /* \"#utility.yul\":10690:10693   */\n      dup3\n        /* \"#utility.yul\":10601:10694   */\n      tag_186\n      jump\t// in\n    tag_320:\n        /* \"#utility.yul\":10719:10721   */\n      0x20\n        /* \"#utility.yul\":10714:10717   */\n      dup3\n        /* \"#utility.yul\":10710:10722   */\n      add\n        /* \"#utility.yul\":10703:10722   */\n      swap1\n      pop\n        /* \"#utility.yul\":10362:10728   */\n      swap2\n      swap1\n      pop\n      jump\t// out\n        /* \"#utility.yul\":10734:11153   */\n    tag_88:\n        /* \"#utility.yul\":10900:10904   */\n      0x00\n        /* \"#utility.yul\":10938:10940   */\n      0x20\n        /* \"#utility.yul\":10927:10936   */\n      dup3\n        /* \"#utility.yul\":10923:10941   */\n      add\n        /* \"#utility.yul\":10915:10941   */\n      swap1\n      pop\n        /* \"#utility.yul\":10987:10996   */\n      dup2\n        /* \"#utility.yul\":10981:10985   */\n      dup2\n        /* \"#utility.yul\":10977:10997   */\n      sub\n        /* \"#utility.yul\":10973:10974   */\n      0x00\n        /* \"#utility.yul\":10962:10971   */\n      dup4\n        /* \"#utility.yul\":10958:10975   */\n      add\n        /* \"#utility.yul\":10951:10998   */\n      mstore\n        /* \"#utility.yul\":11015:11146   */\n      tag_322\n        /* \"#utility.yul\":11141:11145   */\n      dup2\n        /* \"#utility.yul\":11015:11146   */\n      tag_187\n      jump\t// in\n    tag_322:\n        /* \"#utility.yul\":11007:11146   */\n      swap1\n      pop\n        /* \"#utility.yul\":10734:11153   */\n      swap2\n      swap1\n      pop\n      jump\t// out\n        /* \"#utility.yul\":11159:11393   */\n    tag_188:\n        /* \"#utility.yul\":11299:11333   */\n      0x53616c646f20696e737566696369656e74652070617261206c61206f70657261\n        /* \"#utility.yul\":11295:11296   */\n      0x00\n        /* \"#utility.yul\":11287:11293   */\n      dup3\n        /* \"#utility.yul\":11283:11297   */\n      add\n        /* \"#utility.yul\":11276:11334   */\n      mstore\n        /* \"#utility.yul\":11368:11385   */\n      0x63696f6e20736f6c696369746164610000000000000000000000000000000000\n        /* \"#utility.yul\":11363:11365   */\n      0x20\n        /* \"#utility.yul\":11355:11361   */\n      dup3\n        /* \"#utility.yul\":11351:11366   */\n      add\n        /* \"#utility.yul\":11344:11386   */\n      mstore\n        /* \"#utility.yul\":11159:11393   */\n      pop\n      jump\t// out\n        /* \"#utility.yul\":11399:11765   */\n    tag_189:\n        /* \"#utility.yul\":11541:11544   */\n      0x00\n        /* \"#utility.yul\":11562:11629   */\n      tag_325\n        /* \"#utility.yul\":11626:11628   */\n      0x2f\n        /* \"#utility.yul\":11621:11624   */\n      dup4\n        /* \"#utility.yul\":11562:11629   */\n      tag_173\n      jump\t// in\n    tag_325:\n        /* \"#utility.yul\":11555:11629   */\n      swap2\n      pop\n        /* \"#utility.yul\":11638:11731   */\n      tag_326\n        /* \"#utility.yul\":11727:11730   */\n      dup3\n        /* \"#utility.yul\":11638:11731   */\n      tag_188\n      jump\t// in\n    tag_326:\n        /* \"#utility.yul\":11756:11758   */\n      0x40\n        /* \"#utility.yul\":11751:11754   */\n      dup3\n        /* \"#utility.yul\":11747:11759   */\n      add\n        /* \"#utility.yul\":11740:11759   */\n      swap1\n      pop\n        /* \"#utility.yul\":11399:11765   */\n      swap2\n      swap1\n      pop\n      jump\t// out\n        /* \"#utility.yul\":11771:12190   */\n    tag_91:\n        /* \"#utility.yul\":11937:11941   */\n      0x00\n        /* \"#utility.yul\":11975:11977   */\n      0x20\n        /* \"#utility.yul\":11964:11973   */\n      dup3\n        /* \"#utility.yul\":11960:11978   */\n      add\n        /* \"#utility.yul\":11952:11978   */\n      swap1\n      pop\n        /* \"#utility.yul\":12024:12033   */\n      dup2\n        /* \"#utility.yul\":12018:12022   */\n      dup2\n        /* \"#utility.yul\":12014:12034   */\n      sub\n        /* \"#utility.yul\":12010:12011   */\n      0x00\n        /* \"#utility.yul\":11999:12008   */\n      dup4\n        /* \"#utility.yul\":11995:12012   */\n      add\n        /* \"#utility.yul\":11988:12035   */\n      mstore\n        /* \"#utility.yul\":12052:12183   */\n      tag_328\n        /* \"#utility.yul\":12178:12182   */\n      dup2\n        /* \"#utility.yul\":12052:12183   */\n      tag_189\n      jump\t// in\n    tag_328:\n        /* \"#utility.yul\":12044:12183   */\n      swap1\n      pop\n        /* \"#utility.yul\":11771:12190   */\n      swap2\n      swap1\n      pop\n      jump\t// out\n        /* \"#utility.yul\":12196:12606   */\n    tag_93:\n        /* \"#utility.yul\":12236:12243   */\n      0x00\n        /* \"#utility.yul\":12259:12279   */\n      tag_330\n        /* \"#utility.yul\":12277:12278   */\n      dup3\n        /* \"#utility.yul\":12259:12279   */\n      tag_159\n      jump\t// in\n    tag_330:\n        /* \"#utility.yul\":12254:12279   */\n      swap2\n      pop\n        /* \"#utility.yul\":12293:12313   */\n      tag_331\n        /* \"#utility.yul\":12311:12312   */\n      dup4\n        /* \"#utility.yul\":12293:12313   */\n      tag_159\n      jump\t// in\n    tag_331:\n        /* \"#utility.yul\":12288:12313   */\n      swap3\n      pop\n        /* \"#utility.yul\":12348:12349   */\n      dup3\n        /* \"#utility.yul\":12345:12346   */\n      dup3\n        /* \"#utility.yul\":12341:12350   */\n      mul\n        /* \"#utility.yul\":12370:12400   */\n      tag_332\n        /* \"#utility.yul\":12388:12399   */\n      dup2\n        /* \"#utility.yul\":12370:12400   */\n      tag_159\n      jump\t// in\n    tag_332:\n        /* \"#utility.yul\":12359:12400   */\n      swap2\n      pop\n        /* \"#utility.yul\":12549:12550   */\n      dup3\n        /* \"#utility.yul\":12540:12547   */\n      dup3\n        /* \"#utility.yul\":12536:12551   */\n      div\n        /* \"#utility.yul\":12533:12534   */\n      dup5\n        /* \"#utility.yul\":12530:12552   */\n      eq\n        /* \"#utility.yul\":12510:12511   */\n      dup4\n        /* \"#utility.yul\":12503:12512   */\n      iszero\n        /* \"#utility.yul\":12483:12566   */\n      or\n        /* \"#utility.yul\":12460:12599   */\n      tag_333\n      jumpi\n        /* \"#utility.yul\":12579:12597   */\n      tag_334\n      tag_183\n      jump\t// in\n    tag_334:\n        /* \"#utility.yul\":12460:12599   */\n    tag_333:\n        /* \"#utility.yul\":12244:12606   */\n      pop\n        /* \"#utility.yul\":12196:12606   */\n      swap3\n      swap2\n      pop\n      pop\n      jump\t// out\n        /* \"#utility.yul\":12612:12792   */\n    tag_190:\n        /* \"#utility.yul\":12660:12737   */\n      0x4e487b7100000000000000000000000000000000000000000000000000000000\n        /* \"#utility.yul\":12657:12658   */\n      0x00\n        /* \"#utility.yul\":12650:12738   */\n      mstore\n        /* \"#utility.yul\":12757:12761   */\n      0x12\n        /* \"#utility.yul\":12754:12755   */\n      0x04\n        /* \"#utility.yul\":12747:12762   */\n      mstore\n        /* \"#utility.yul\":12781:12785   */\n      0x24\n        /* \"#utility.yul\":12778:12779   */\n      0x00\n        /* \"#utility.yul\":12771:12786   */\n      revert\n        /* \"#utility.yul\":12798:12983   */\n    tag_95:\n        /* \"#utility.yul\":12838:12839   */\n      0x00\n        /* \"#utility.yul\":12855:12875   */\n      tag_337\n        /* \"#utility.yul\":12873:12874   */\n      dup3\n        /* \"#utility.yul\":12855:12875   */\n      tag_159\n      jump\t// in\n    tag_337:\n        /* \"#utility.yul\":12850:12875   */\n      swap2\n      pop\n        /* \"#utility.yul\":12889:12909   */\n      tag_338\n        /* \"#utility.yul\":12907:12908   */\n      dup4\n        /* \"#utility.yul\":12889:12909   */\n      tag_159\n      jump\t// in\n    tag_338:\n        /* \"#utility.yul\":12884:12909   */\n      swap3\n      pop\n        /* \"#utility.yul\":12928:12929   */\n      dup3\n        /* \"#utility.yul\":12918:12953   */\n      tag_339\n      jumpi\n        /* \"#utility.yul\":12933:12951   */\n      tag_340\n      tag_190\n      jump\t// in\n    tag_340:\n        /* \"#utility.yul\":12918:12953   */\n    tag_339:\n        /* \"#utility.yul\":12975:12976   */\n      dup3\n        /* \"#utility.yul\":12972:12973   */\n      dup3\n        /* \"#utility.yul\":12968:12977   */\n      div\n        /* \"#utility.yul\":12963:12977   */\n      swap1\n      pop\n        /* \"#utility.yul\":12798:12983   */\n      swap3\n      swap2\n      pop\n      pop\n      jump\t// out\n        /* \"#utility.yul\":12989:13180   */\n    tag_99:\n        /* \"#utility.yul\":13029:13032   */\n      0x00\n        /* \"#utility.yul\":13048:13068   */\n      tag_342\n        /* \"#utility.yul\":13066:13067   */\n      dup3\n        /* \"#utility.yul\":13048:13068   */\n      tag_159\n      jump\t// in\n    tag_342:\n        /* \"#utility.yul\":13043:13068   */\n      swap2\n      pop\n        /* \"#utility.yul\":13082:13102   */\n      tag_343\n        /* \"#utility.yul\":13100:13101   */\n      dup4\n        /* \"#utility.yul\":13082:13102   */\n      tag_159\n      jump\t// in\n    tag_343:\n        /* \"#utility.yul\":13077:13102   */\n      swap3\n      pop\n        /* \"#utility.yul\":13125:13126   */\n      dup3\n        /* \"#utility.yul\":13122:13123   */\n      dup3\n        /* \"#utility.yul\":13118:13127   */\n      add\n        /* \"#utility.yul\":13111:13127   */\n      swap1\n      pop\n        /* \"#utility.yul\":13146:13149   */\n      dup1\n        /* \"#utility.yul\":13143:13144   */\n      dup3\n        /* \"#utility.yul\":13140:13150   */\n      gt\n        /* \"#utility.yul\":13137:13173   */\n      iszero\n      tag_344\n      jumpi\n        /* \"#utility.yul\":13153:13171   */\n      tag_345\n      tag_183\n      jump\t// in\n    tag_345:\n        /* \"#utility.yul\":13137:13173   */\n    tag_344:\n        /* \"#utility.yul\":12989:13180   */\n      swap3\n      swap2\n      pop\n      pop\n      jump\t// out\n        /* \"#utility.yul\":13186:13518   */\n    tag_103:\n        /* \"#utility.yul\":13307:13311   */\n      0x00\n        /* \"#utility.yul\":13345:13347   */\n      0x40\n        /* \"#utility.yul\":13334:13343   */\n      dup3\n        /* \"#utility.yul\":13330:13348   */\n      add\n        /* \"#utility.yul\":13322:13348   */\n      swap1\n      pop\n        /* \"#utility.yul\":13358:13429   */\n      tag_347\n        /* \"#utility.yul\":13426:13427   */\n      0x00\n        /* \"#utility.yul\":13415:13424   */\n      dup4\n        /* \"#utility.yul\":13411:13428   */\n      add\n        /* \"#utility.yul\":13402:13408   */\n      dup6\n        /* \"#utility.yul\":13358:13429   */\n      tag_162\n      jump\t// in\n    tag_347:\n        /* \"#utility.yul\":13439:13511   */\n      tag_348\n        /* \"#utility.yul\":13507:13509   */\n      0x20\n        /* \"#utility.yul\":13496:13505   */\n      dup4\n        /* \"#utility.yul\":13492:13510   */\n      add\n        /* \"#utility.yul\":13483:13489   */\n      dup5\n        /* \"#utility.yul\":13439:13511   */\n      tag_162\n      jump\t// in\n    tag_348:\n        /* \"#utility.yul\":13186:13518   */\n      swap4\n      swap3\n      pop\n      pop\n      pop\n      jump\t// out\n        /* \"#utility.yul\":13524:13751   */\n    tag_191:\n        /* \"#utility.yul\":13664:13698   */\n      0x4573206f626c696761746f72696f20696e67726573617220656c207072696d65\n        /* \"#utility.yul\":13660:13661   */\n      0x00\n        /* \"#utility.yul\":13652:13658   */\n      dup3\n        /* \"#utility.yul\":13648:13662   */\n      add\n        /* \"#utility.yul\":13641:13699   */\n      mstore\n        /* \"#utility.yul\":13733:13743   */\n      0x72206e6f6d627265000000000000000000000000000000000000000000000000\n        /* \"#utility.yul\":13728:13730   */\n      0x20\n        /* \"#utility.yul\":13720:13726   */\n      dup3\n        /* \"#utility.yul\":13716:13731   */\n      add\n        /* \"#utility.yul\":13709:13744   */\n      mstore\n        /* \"#utility.yul\":13524:13751   */\n      pop\n      jump\t// out\n        /* \"#utility.yul\":13757:14123   */\n    tag_192:\n        /* \"#utility.yul\":13899:13902   */\n      0x00\n        /* \"#utility.yul\":13920:13987   */\n      tag_351\n        /* \"#utility.yul\":13984:13986   */\n      0x28\n        /* \"#utility.yul\":13979:13982   */\n      dup4\n        /* \"#utility.yul\":13920:13987   */\n      tag_173\n      jump\t// in\n    tag_351:\n        /* \"#utility.yul\":13913:13987   */\n      swap2\n      pop\n        /* \"#utility.yul\":13996:14089   */\n      tag_352\n        /* \"#utility.yul\":14085:14088   */\n      dup3\n        /* \"#utility.yul\":13996:14089   */\n      tag_191\n      jump\t// in\n    tag_352:\n        /* \"#utility.yul\":14114:14116   */\n      0x40\n        /* \"#utility.yul\":14109:14112   */\n      dup3\n        /* \"#utility.yul\":14105:14117   */\n      add\n        /* \"#utility.yul\":14098:14117   */\n      swap1\n      pop\n        /* \"#utility.yul\":13757:14123   */\n      swap2\n      swap1\n      pop\n      jump\t// out\n        /* \"#utility.yul\":14129:14548   */\n    tag_107:\n        /* \"#utility.yul\":14295:14299   */\n      0x00\n        /* \"#utility.yul\":14333:14335   */\n      0x20\n        /* \"#utility.yul\":14322:14331   */\n      dup3\n        /* \"#utility.yul\":14318:14336   */\n      add\n        /* \"#utility.yul\":14310:14336   */\n      swap1\n      pop\n        /* \"#utility.yul\":14382:14391   */\n      dup2\n        /* \"#utility.yul\":14376:14380   */\n      dup2\n        /* \"#utility.yul\":14372:14392   */\n      sub\n        /* \"#utility.yul\":14368:14369   */\n      0x00\n        /* \"#utility.yul\":14357:14366   */\n      dup4\n        /* \"#utility.yul\":14353:14370   */\n      add\n        /* \"#utility.yul\":14346:14393   */\n      mstore\n        /* \"#utility.yul\":14410:14541   */\n      tag_354\n        /* \"#utility.yul\":14536:14540   */\n      dup2\n        /* \"#utility.yul\":14410:14541   */\n      tag_192\n      jump\t// in\n    tag_354:\n        /* \"#utility.yul\":14402:14541   */\n      swap1\n      pop\n        /* \"#utility.yul\":14129:14548   */\n      swap2\n      swap1\n      pop\n      jump\t// out\n        /* \"#utility.yul\":14554:14776   */\n    tag_193:\n        /* \"#utility.yul\":14694:14728   */\n      0x4573206f626c696761746f72696f20696e67726573617220656c206170656c6c\n        /* \"#utility.yul\":14690:14691   */\n      0x00\n        /* \"#utility.yul\":14682:14688   */\n      dup3\n        /* \"#utility.yul\":14678:14692   */\n      add\n        /* \"#utility.yul\":14671:14729   */\n      mstore\n        /* \"#utility.yul\":14763:14768   */\n      0x69646f0000000000000000000000000000000000000000000000000000000000\n        /* \"#utility.yul\":14758:14760   */\n      0x20\n        /* \"#utility.yul\":14750:14756   */\n      dup3\n        /* \"#utility.yul\":14746:14761   */\n      add\n        /* \"#utility.yul\":14739:14769   */\n      mstore\n        /* \"#utility.yul\":14554:14776   */\n      pop\n      jump\t// out\n        /* \"#utility.yul\":14782:15148   */\n    tag_194:\n        /* \"#utility.yul\":14924:14927   */\n      0x00\n        /* \"#utility.yul\":14945:15012   */\n      tag_357\n        /* \"#utility.yul\":15009:15011   */\n      0x23\n        /* \"#utility.yul\":15004:15007   */\n      dup4\n        /* \"#utility.yul\":14945:15012   */\n      tag_173\n      jump\t// in\n    tag_357:\n        /* \"#utility.yul\":14938:15012   */\n      swap2\n      pop\n        /* \"#utility.yul\":15021:15114   */\n      tag_358\n        /* \"#utility.yul\":15110:15113   */\n      dup3\n        /* \"#utility.yul\":15021:15114   */\n      tag_193\n      jump\t// in\n    tag_358:\n        /* \"#utility.yul\":15139:15141   */\n      0x40\n        /* \"#utility.yul\":15134:15137   */\n      dup3\n        /* \"#utility.yul\":15130:15142   */\n      add\n        /* \"#utility.yul\":15123:15142   */\n      swap1\n      pop\n        /* \"#utility.yul\":14782:15148   */\n      swap2\n      swap1\n      pop\n      jump\t// out\n        /* \"#utility.yul\":15154:15573   */\n    tag_110:\n        /* \"#utility.yul\":15320:15324   */\n      0x00\n        /* \"#utility.yul\":15358:15360   */\n      0x20\n        /* \"#utility.yul\":15347:15356   */\n      dup3\n        /* \"#utility.yul\":15343:15361   */\n      add\n        /* \"#utility.yul\":15335:15361   */\n      swap1\n      pop\n        /* \"#utility.yul\":15407:15416   */\n      dup2\n        /* \"#utility.yul\":15401:15405   */\n      dup2\n        /* \"#utility.yul\":15397:15417   */\n      sub\n        /* \"#utility.yul\":15393:15394   */\n      0x00\n        /* \"#utility.yul\":15382:15391   */\n      dup4\n        /* \"#utility.yul\":15378:15395   */\n      add\n        /* \"#utility.yul\":15371:15418   */\n      mstore\n        /* \"#utility.yul\":15435:15566   */\n      tag_360\n        /* \"#utility.yul\":15561:15565   */\n      dup2\n        /* \"#utility.yul\":15435:15566   */\n      tag_194\n      jump\t// in\n    tag_360:\n        /* \"#utility.yul\":15427:15566   */\n      swap1\n      pop\n        /* \"#utility.yul\":15154:15573   */\n      swap2\n      swap1\n      pop\n      jump\t// out\n        /* \"#utility.yul\":15579:15758   */\n    tag_195:\n        /* \"#utility.yul\":15719:15750   */\n      0x456c207573756172696f2079612065737461207265676973747261646f000000\n        /* \"#utility.yul\":15715:15716   */\n      0x00\n        /* \"#utility.yul\":15707:15713   */\n      dup3\n        /* \"#utility.yul\":15703:15717   */\n      add\n        /* \"#utility.yul\":15696:15751   */\n      mstore\n        /* \"#utility.yul\":15579:15758   */\n      pop\n      jump\t// out\n        /* \"#utility.yul\":15764:16130   */\n    tag_196:\n        /* \"#utility.yul\":15906:15909   */\n      0x00\n        /* \"#utility.yul\":15927:15994   */\n      tag_363\n        /* \"#utility.yul\":15991:15993   */\n      0x1d\n        /* \"#utility.yul\":15986:15989   */\n      dup4\n        /* \"#utility.yul\":15927:15994   */\n      tag_173\n      jump\t// in\n    tag_363:\n        /* \"#utility.yul\":15920:15994   */\n      swap2\n      pop\n        /* \"#utility.yul\":16003:16096   */\n      tag_364\n        /* \"#utility.yul\":16092:16095   */\n      dup3\n        /* \"#utility.yul\":16003:16096   */\n      tag_195\n      jump\t// in\n    tag_364:\n        /* \"#utility.yul\":16121:16123   */\n      0x20\n        /* \"#utility.yul\":16116:16119   */\n      dup3\n        /* \"#utility.yul\":16112:16124   */\n      add\n        /* \"#utility.yul\":16105:16124   */\n      swap1\n      pop\n        /* \"#utility.yul\":15764:16130   */\n      swap2\n      swap1\n      pop\n      jump\t// out\n        /* \"#utility.yul\":16136:16555   */\n    tag_113:\n        /* \"#utility.yul\":16302:16306   */\n      0x00\n        /* \"#utility.yul\":16340:16342   */\n      0x20\n        /* \"#utility.yul\":16329:16338   */\n      dup3\n        /* \"#utility.yul\":16325:16343   */\n      add\n        /* \"#utility.yul\":16317:16343   */\n      swap1\n      pop\n        /* \"#utility.yul\":16389:16398   */\n      dup2\n        /* \"#utility.yul\":16383:16387   */\n      dup2\n        /* \"#utility.yul\":16379:16399   */\n      sub\n        /* \"#utility.yul\":16375:16376   */\n      0x00\n        /* \"#utility.yul\":16364:16373   */\n      dup4\n        /* \"#utility.yul\":16360:16377   */\n      add\n        /* \"#utility.yul\":16353:16400   */\n      mstore\n        /* \"#utility.yul\":16417:16548   */\n      tag_366\n        /* \"#utility.yul\":16543:16547   */\n      dup2\n        /* \"#utility.yul\":16417:16548   */\n      tag_196\n      jump\t// in\n    tag_366:\n        /* \"#utility.yul\":16409:16548   */\n      swap1\n      pop\n        /* \"#utility.yul\":16136:16555   */\n      swap2\n      swap1\n      pop\n      jump\t// out\n        /* \"#utility.yul\":16561:16741   */\n    tag_197:\n        /* \"#utility.yul\":16609:16686   */\n      0x4e487b7100000000000000000000000000000000000000000000000000000000\n        /* \"#utility.yul\":16606:16607   */\n      0x00\n        /* \"#utility.yul\":16599:16687   */\n      mstore\n        /* \"#utility.yul\":16706:16710   */\n      0x41\n        /* \"#utility.yul\":16703:16704   */\n      0x04\n        /* \"#utility.yul\":16696:16711   */\n      mstore\n        /* \"#utility.yul\":16730:16734   */\n      0x24\n        /* \"#utility.yul\":16727:16728   */\n      0x00\n        /* \"#utility.yul\":16720:16735   */\n      revert\n        /* \"#utility.yul\":16747:16927   */\n    tag_198:\n        /* \"#utility.yul\":16795:16872   */\n      0x4e487b7100000000000000000000000000000000000000000000000000000000\n        /* \"#utility.yul\":16792:16793   */\n      0x00\n        /* \"#utility.yul\":16785:16873   */\n      mstore\n        /* \"#utility.yul\":16892:16896   */\n      0x22\n        /* \"#utility.yul\":16889:16890   */\n      0x04\n        /* \"#utility.yul\":16882:16897   */\n      mstore\n        /* \"#utility.yul\":16916:16920   */\n      0x24\n        /* \"#utility.yul\":16913:16914   */\n      0x00\n        /* \"#utility.yul\":16906:16921   */\n      revert\n        /* \"#utility.yul\":16933:17253   */\n    tag_120:\n        /* \"#utility.yul\":16977:16983   */\n      0x00\n        /* \"#utility.yul\":17014:17015   */\n      0x02\n        /* \"#utility.yul\":17008:17012   */\n      dup3\n        /* \"#utility.yul\":17004:17016   */\n      div\n        /* \"#utility.yul\":16994:17016   */\n      swap1\n      pop\n        /* \"#utility.yul\":17061:17062   */\n      0x01\n        /* \"#utility.yul\":17055:17059   */\n      dup3\n        /* \"#utility.yul\":17051:17063   */\n      and\n        /* \"#utility.yul\":17082:17100   */\n      dup1\n        /* \"#utility.yul\":17072:17153   */\n      tag_370\n      jumpi\n        /* \"#utility.yul\":17138:17142   */\n      0x7f\n        /* \"#utility.yul\":17130:17136   */\n      dup3\n        /* \"#utility.yul\":17126:17143   */\n      and\n        /* \"#utility.yul\":17116:17143   */\n      swap2\n      pop\n        /* \"#utility.yul\":17072:17153   */\n    tag_370:\n        /* \"#utility.yul\":17200:17202   */\n      0x20\n        /* \"#utility.yul\":17192:17198   */\n      dup3\n        /* \"#utility.yul\":17189:17203   */\n      lt\n        /* \"#utility.yul\":17169:17187   */\n      dup2\n        /* \"#utility.yul\":17166:17204   */\n      sub\n        /* \"#utility.yul\":17163:17247   */\n      tag_371\n      jumpi\n        /* \"#utility.yul\":17219:17237   */\n      tag_372\n      tag_198\n      jump\t// in\n    tag_372:\n        /* \"#utility.yul\":17163:17247   */\n    tag_371:\n        /* \"#utility.yul\":16984:17253   */\n      pop\n        /* \"#utility.yul\":16933:17253   */\n      swap2\n      swap1\n      pop\n      jump\t// out\n        /* \"#utility.yul\":17259:17400   */\n    tag_199:\n        /* \"#utility.yul\":17308:17312   */\n      0x00\n        /* \"#utility.yul\":17331:17334   */\n      dup2\n        /* \"#utility.yul\":17323:17334   */\n      swap1\n      pop\n        /* \"#utility.yul\":17354:17357   */\n      dup2\n        /* \"#utility.yul\":17351:17352   */\n      0x00\n        /* \"#utility.yul\":17344:17358   */\n      mstore\n        /* \"#utility.yul\":17388:17392   */\n      0x20\n        /* \"#utility.yul\":17385:17386   */\n      0x00\n        /* \"#utility.yul\":17375:17393   */\n      keccak256\n        /* \"#utility.yul\":17367:17393   */\n      swap1\n      pop\n        /* \"#utility.yul\":17259:17400   */\n      swap2\n      swap1\n      pop\n      jump\t// out\n        /* \"#utility.yul\":17406:17499   */\n    tag_200:\n        /* \"#utility.yul\":17443:17449   */\n      0x00\n        /* \"#utility.yul\":17490:17492   */\n      0x20\n        /* \"#utility.yul\":17485:17487   */\n      0x1f\n        /* \"#utility.yul\":17478:17483   */\n      dup4\n        /* \"#utility.yul\":17474:17488   */\n      add\n        /* \"#utility.yul\":17470:17493   */\n      div\n        /* \"#utility.yul\":17460:17493   */\n      swap1\n      pop\n        /* \"#utility.yul\":17406:17499   */\n      swap2\n      swap1\n      pop\n      jump\t// out\n        /* \"#utility.yul\":17505:17612   */\n    tag_201:\n        /* \"#utility.yul\":17549:17557   */\n      0x00\n        /* \"#utility.yul\":17599:17604   */\n      dup3\n        /* \"#utility.yul\":17593:17597   */\n      dup3\n        /* \"#utility.yul\":17589:17605   */\n      shl\n        /* \"#utility.yul\":17568:17605   */\n      swap1\n      pop\n        /* \"#utility.yul\":17505:17612   */\n      swap3\n      swap2\n      pop\n      pop\n      jump\t// out\n        /* \"#utility.yul\":17618:18011   */\n    tag_202:\n        /* \"#utility.yul\":17687:17693   */\n      0x00\n        /* \"#utility.yul\":17737:17738   */\n      0x08\n        /* \"#utility.yul\":17725:17735   */\n      dup4\n        /* \"#utility.yul\":17721:17739   */\n      mul\n        /* \"#utility.yul\":17760:17857   */\n      tag_377\n        /* \"#utility.yul\":17790:17856   */\n      0xffffffffffffffffffffffffffffffffffffffffffffffffffffffffffffffff\n        /* \"#utility.yul\":17779:17788   */\n      dup3\n        /* \"#utility.yul\":17760:17857   */\n      tag_201\n      jump\t// in\n    tag_377:\n        /* \"#utility.yul\":17878:17917   */\n      tag_378\n        /* \"#utility.yul\":17908:17916   */\n      dup7\n        /* \"#utility.yul\":17897:17906   */\n      dup4\n        /* \"#utility.yul\":17878:17917   */\n      tag_201\n      jump\t// in\n    tag_378:\n        /* \"#utility.yul\":17866:17917   */\n      swap6\n      pop\n        /* \"#utility.yul\":17950:17954   */\n      dup1\n        /* \"#utility.yul\":17946:17955   */\n      not\n        /* \"#utility.yul\":17939:17944   */\n      dup5\n        /* \"#utility.yul\":17935:17956   */\n      and\n        /* \"#utility.yul\":17926:17956   */\n      swap4\n      pop\n        /* \"#utility.yul\":17999:18003   */\n      dup1\n        /* \"#utility.yul\":17989:17997   */\n      dup7\n        /* \"#utility.yul\":17985:18004   */\n      and\n        /* \"#utility.yul\":17978:17983   */\n      dup5\n        /* \"#utility.yul\":17975:18005   */\n      or\n        /* \"#utility.yul\":17965:18005   */\n      swap3\n      pop\n        /* \"#utility.yul\":17694:18011   */\n      pop\n      pop\n        /* \"#utility.yul\":17618:18011   */\n      swap4\n      swap3\n      pop\n      pop\n      pop\n      jump\t// out\n        /* \"#utility.yul\":18017:18077   */\n    tag_203:\n        /* \"#utility.yul\":18045:18048   */\n      0x00\n        /* \"#utility.yul\":18066:18071   */\n      dup2\n        /* \"#utility.yul\":18059:18071   */\n      swap1\n      pop\n        /* \"#utility.yul\":18017:18077   */\n      swap2\n      swap1\n      pop\n      jump\t// out\n        /* \"#utility.yul\":18083:18225   */\n    tag_204:\n        /* \"#utility.yul\":18133:18142   */\n      0x00\n        /* \"#utility.yul\":18166:18219   */\n      tag_381\n        /* \"#utility.yul\":18184:18218   */\n      tag_382\n        /* \"#utility.yul\":18193:18217   */\n      tag_383\n        /* \"#utility.yul\":18211:18216   */\n      dup5\n        /* \"#utility.yul\":18193:18217   */\n      tag_159\n      jump\t// in\n    tag_383:\n        /* \"#utility.yul\":18184:18218   */\n      tag_203\n      jump\t// in\n    tag_382:\n        /* \"#utility.yul\":18166:18219   */\n      tag_159\n      jump\t// in\n    tag_381:\n        /* \"#utility.yul\":18153:18219   */\n      swap1\n      pop\n        /* \"#utility.yul\":18083:18225   */\n      swap2\n      swap1\n      pop\n      jump\t// out\n        /* \"#utility.yul\":18231:18306   */\n    tag_205:\n        /* \"#utility.yul\":18274:18277   */\n      0x00\n        /* \"#utility.yul\":18295:18300   */\n      dup2\n        /* \"#utility.yul\":18288:18300   */\n      swap1\n      pop\n        /* \"#utility.yul\":18231:18306   */\n      swap2\n      swap1\n      pop\n      jump\t// out\n        /* \"#utility.yul\":18312:18581   */\n    tag_206:\n        /* \"#utility.yul\":18422:18461   */\n      tag_386\n        /* \"#utility.yul\":18453:18460   */\n      dup4\n        /* \"#utility.yul\":18422:18461   */\n      tag_204\n      jump\t// in\n    tag_386:\n        /* \"#utility.yul\":18483:18574   */\n      tag_387\n        /* \"#utility.yul\":18532:18573   */\n      tag_388\n        /* \"#utility.yul\":18556:18572   */\n      dup3\n        /* \"#utility.yul\":18532:18573   */\n      tag_205\n      jump\t// in\n    tag_388:\n        /* \"#utility.yul\":18524:18530   */\n      dup5\n        /* \"#utility.yul\":18517:18521   */\n      dup5\n        /* \"#utility.yul\":18511:18522   */\n      sload\n        /* \"#utility.yul\":18483:18574   */\n      tag_202\n      jump\t// in\n    tag_387:\n        /* \"#utility.yul\":18477:18481   */\n      dup3\n        /* \"#utility.yul\":18470:18575   */\n      sstore\n        /* \"#utility.yul\":18388:18581   */\n      pop\n        /* \"#utility.yul\":18312:18581   */\n      pop\n      pop\n      pop\n      jump\t// out\n        /* \"#utility.yul\":18587:18660   */\n    tag_207:\n        /* \"#utility.yul\":18632:18635   */\n      0x00\n        /* \"#utility.yul\":18587:18660   */\n      swap1\n      jump\t// out\n        /* \"#utility.yul\":18666:18855   */\n    tag_208:\n        /* \"#utility.yul\":18743:18775   */\n      tag_391\n      tag_207\n      jump\t// in\n    tag_391:\n        /* \"#utility.yul\":18784:18849   */\n      tag_392\n        /* \"#utility.yul\":18842:18848   */\n      dup2\n        /* \"#utility.yul\":18834:18840   */\n      dup5\n        /* \"#utility.yul\":18828:18832   */\n      dup5\n        /* \"#utility.yul\":18784:18849   */\n      tag_206\n      jump\t// in\n    tag_392:\n        /* \"#utility.yul\":18719:18855   */\n      pop\n        /* \"#utility.yul\":18666:18855   */\n      pop\n      pop\n      jump\t// out\n        /* \"#utility.yul\":18861:19047   */\n    tag_209:\n        /* \"#utility.yul\":18921:19041   */\n    tag_394:\n        /* \"#utility.yul\":18938:18941   */\n      dup2\n        /* \"#utility.yul\":18931:18936   */\n      dup2\n        /* \"#utility.yul\":18928:18942   */\n      lt\n        /* \"#utility.yul\":18921:19041   */\n      iszero\n      tag_396\n      jumpi\n        /* \"#utility.yul\":18992:19031   */\n      tag_397\n        /* \"#utility.yul\":19029:19030   */\n      0x00\n        /* \"#utility.yul\":19022:19027   */\n      dup3\n        /* \"#utility.yul\":18992:19031   */\n      tag_208\n      jump\t// in\n    tag_397:\n        /* \"#utility.yul\":18965:18966   */\n      0x01\n        /* \"#utility.yul\":18958:18963   */\n      dup2\n        /* \"#utility.yul\":18954:18967   */\n      add\n        /* \"#utility.yul\":18945:18967   */\n      swap1\n      pop\n        /* \"#utility.yul\":18921:19041   */\n      jump(tag_394)\n    tag_396:\n        /* \"#utility.yul\":18861:19047   */\n      pop\n      pop\n      jump\t// out\n        /* \"#utility.yul\":19053:19596   */\n    tag_210:\n        /* \"#utility.yul\":19154:19156   */\n      0x1f\n        /* \"#utility.yul\":19149:19152   */\n      dup3\n        /* \"#utility.yul\":19146:19157   */\n      gt\n        /* \"#utility.yul\":19143:19589   */\n      iszero\n      tag_399\n      jumpi\n        /* \"#utility.yul\":19188:19226   */\n      tag_400\n        /* \"#utility.yul\":19220:19225   */\n      dup2\n        /* \"#utility.yul\":19188:19226   */\n      tag_199\n      jump\t// in\n    tag_400:\n        /* \"#utility.yul\":19272:19301   */\n      tag_401\n        /* \"#utility.yul\":19290:19300   */\n      dup5\n        /* \"#utility.yul\":19272:19301   */\n      tag_200\n      jump\t// in\n    tag_401:\n        /* \"#utility.yul\":19262:19270   */\n      dup2\n        /* \"#utility.yul\":19258:19302   */\n      add\n        /* \"#utility.yul\":19455:19457   */\n      0x20\n        /* \"#utility.yul\":19443:19453   */\n      dup6\n        /* \"#utility.yul\":19440:19458   */\n      lt\n        /* \"#utility.yul\":19437:19486   */\n      iszero\n      tag_402\n      jumpi\n        /* \"#utility.yul\":19476:19484   */\n      dup2\n        /* \"#utility.yul\":19461:19484   */\n      swap1\n      pop\n        /* \"#utility.yul\":19437:19486   */\n    tag_402:\n        /* \"#utility.yul\":19499:19579   */\n      tag_403\n        /* \"#utility.yul\":19555:19577   */\n      tag_404\n        /* \"#utility.yul\":19573:19576   */\n      dup6\n        /* \"#utility.yul\":19555:19577   */\n      tag_200\n      jump\t// in\n    tag_404:\n        /* \"#utility.yul\":19545:19553   */\n      dup4\n        /* \"#utility.yul\":19541:19578   */\n      add\n        /* \"#utility.yul\":19528:19539   */\n      dup3\n        /* \"#utility.yul\":19499:19579   */\n      tag_209\n      jump\t// in\n    tag_403:\n        /* \"#utility.yul\":19158:19589   */\n      pop\n      pop\n        /* \"#utility.yul\":19143:19589   */\n    tag_399:\n        /* \"#utility.yul\":19053:19596   */\n      pop\n      pop\n      pop\n      jump\t// out\n        /* \"#utility.yul\":19602:19719   */\n    tag_211:\n        /* \"#utility.yul\":19656:19664   */\n      0x00\n        /* \"#utility.yul\":19706:19711   */\n      dup3\n        /* \"#utility.yul\":19700:19704   */\n      dup3\n        /* \"#utility.yul\":19696:19712   */\n      shr\n        /* \"#utility.yul\":19675:19712   */\n      swap1\n      pop\n        /* \"#utility.yul\":19602:19719   */\n      swap3\n      swap2\n      pop\n      pop\n      jump\t// out\n        /* \"#utility.yul\":19725:19894   */\n    tag_212:\n        /* \"#utility.yul\":19769:19775   */\n      0x00\n        /* \"#utility.yul\":19802:19853   */\n      tag_407\n        /* \"#utility.yul\":19850:19851   */\n      0x00\n        /* \"#utility.yul\":19846:19852   */\n      not\n        /* \"#utility.yul\":19838:19843   */\n      dup5\n        /* \"#utility.yul\":19835:19836   */\n      0x08\n        /* \"#utility.yul\":19831:19844   */\n      mul\n        /* \"#utility.yul\":19802:19853   */\n      tag_211\n      jump\t// in\n    tag_407:\n        /* \"#utility.yul\":19798:19854   */\n      not\n        /* \"#utility.yul\":19883:19887   */\n      dup1\n        /* \"#utility.yul\":19877:19881   */\n      dup4\n        /* \"#utility.yul\":19873:19888   */\n      and\n        /* \"#utility.yul\":19863:19888   */\n      swap2\n      pop\n        /* \"#utility.yul\":19776:19894   */\n      pop\n        /* \"#utility.yul\":19725:19894   */\n      swap3\n      swap2\n      pop\n      pop\n      jump\t// out\n        /* \"#utility.yul\":19899:20194   */\n    tag_213:\n        /* \"#utility.yul\":19975:19979   */\n      0x00\n        /* \"#utility.yul\":20121:20150   */\n      tag_409\n        /* \"#utility.yul\":20146:20149   */\n      dup4\n        /* \"#utility.yul\":20140:20144   */\n      dup4\n        /* \"#utility.yul\":20121:20150   */\n      tag_212\n      jump\t// in\n    tag_409:\n        /* \"#utility.yul\":20113:20150   */\n      swap2\n      pop\n        /* \"#utility.yul\":20183:20186   */\n      dup3\n        /* \"#utility.yul\":20180:20181   */\n      0x02\n        /* \"#utility.yul\":20176:20187   */\n      mul\n        /* \"#utility.yul\":20170:20174   */\n      dup3\n        /* \"#utility.yul\":20167:20188   */\n      or\n        /* \"#utility.yul\":20159:20188   */\n      swap1\n      pop\n        /* \"#utility.yul\":19899:20194   */\n      swap3\n      swap2\n      pop\n      pop\n      jump\t// out\n        /* \"#utility.yul\":20199:21594   */\n    tag_115:\n        /* \"#utility.yul\":20316:20353   */\n      tag_411\n        /* \"#utility.yul\":20349:20352   */\n      dup3\n        /* \"#utility.yul\":20316:20353   */\n      tag_172\n      jump\t// in\n    tag_411:\n        /* \"#utility.yul\":20418:20436   */\n      0xffffffffffffffff\n        /* \"#utility.yul\":20410:20416   */\n      dup2\n        /* \"#utility.yul\":20407:20437   */\n      gt\n        /* \"#utility.yul\":20404:20460   */\n      iszero\n      tag_412\n      jumpi\n        /* \"#utility.yul\":20440:20458   */\n      tag_413\n      tag_197\n      jump\t// in\n    tag_413:\n        /* \"#utility.yul\":20404:20460   */\n    tag_412:\n        /* \"#utility.yul\":20484:20522   */\n      tag_414\n        /* \"#utility.yul\":20516:20520   */\n      dup3\n        /* \"#utility.yul\":20510:20521   */\n      sload\n        /* \"#utility.yul\":20484:20522   */\n      tag_120\n      jump\t// in\n    tag_414:\n        /* \"#utility.yul\":20569:20636   */\n      tag_415\n        /* \"#utility.yul\":20629:20635   */\n      dup3\n        /* \"#utility.yul\":20621:20627   */\n      dup3\n        /* \"#utility.yul\":20615:20619   */\n      dup6\n        /* \"#utility.yul\":20569:20636   */\n      tag_210\n      jump\t// in\n    tag_415:\n        /* \"#utility.yul\":20663:20664   */\n      0x00\n        /* \"#utility.yul\":20687:20691   */\n      0x20\n        /* \"#utility.yul\":20674:20691   */\n      swap1\n      pop\n        /* \"#utility.yul\":20719:20721   */\n      0x1f\n        /* \"#utility.yul\":20711:20717   */\n      dup4\n        /* \"#utility.yul\":20708:20722   */\n      gt\n        /* \"#utility.yul\":20736:20737   */\n      0x01\n        /* \"#utility.yul\":20731:21349   */\n      dup2\n      eq\n      tag_417\n      jumpi\n        /* \"#utility.yul\":21393:21394   */\n      0x00\n        /* \"#utility.yul\":21410:21416   */\n      dup5\n        /* \"#utility.yul\":21407:21484   */\n      iszero\n      tag_418\n      jumpi\n        /* \"#utility.yul\":21459:21468   */\n      dup3\n        /* \"#utility.yul\":21454:21457   */\n      dup8\n        /* \"#utility.yul\":21450:21469   */\n      add\n        /* \"#utility.yul\":21444:21470   */\n      mload\n        /* \"#utility.yul\":21435:21470   */\n      swap1\n      pop\n        /* \"#utility.yul\":21407:21484   */\n    tag_418:\n        /* \"#utility.yul\":21510:21577   */\n      tag_419\n        /* \"#utility.yul\":21570:21576   */\n      dup6\n        /* \"#utility.yul\":21563:21568   */\n      dup3\n        /* \"#utility.yul\":21510:21577   */\n      tag_213\n      jump\t// in\n    tag_419:\n        /* \"#utility.yul\":21504:21508   */\n      dup7\n        /* \"#utility.yul\":21497:21578   */\n      sstore\n        /* \"#utility.yul\":21366:21588   */\n      pop\n        /* \"#utility.yul\":20701:21588   */\n      jump(tag_416)\n        /* \"#utility.yul\":20731:21349   */\n    tag_417:\n        /* \"#utility.yul\":20783:20787   */\n      0x1f\n        /* \"#utility.yul\":20779:20788   */\n      not\n        /* \"#utility.yul\":20771:20777   */\n      dup5\n        /* \"#utility.yul\":20767:20789   */\n      and\n        /* \"#utility.yul\":20817:20854   */\n      tag_420\n        /* \"#utility.yul\":20849:20853   */\n      dup7\n        /* \"#utility.yul\":20817:20854   */\n      tag_199\n      jump\t// in\n    tag_420:\n        /* \"#utility.yul\":20876:20877   */\n      0x00\n        /* \"#utility.yul\":20890:21098   */\n    tag_421:\n        /* \"#utility.yul\":20904:20911   */\n      dup3\n        /* \"#utility.yul\":20901:20902   */\n      dup2\n        /* \"#utility.yul\":20898:20912   */\n      lt\n        /* \"#utility.yul\":20890:21098   */\n      iszero\n      tag_423\n      jumpi\n        /* \"#utility.yul\":20983:20992   */\n      dup5\n        /* \"#utility.yul\":20978:20981   */\n      dup10\n        /* \"#utility.yul\":20974:20993   */\n      add\n        /* \"#utility.yul\":20968:20994   */\n      mload\n        /* \"#utility.yul\":20960:20966   */\n      dup3\n        /* \"#utility.yul\":20953:20995   */\n      sstore\n        /* \"#utility.yul\":21034:21035   */\n      0x01\n        /* \"#utility.yul\":21026:21032   */\n      dup3\n        /* \"#utility.yul\":21022:21036   */\n      add\n        /* \"#utility.yul\":21012:21036   */\n      swap2\n      pop\n        /* \"#utility.yul\":21081:21083   */\n      0x20\n        /* \"#utility.yul\":21070:21079   */\n      dup6\n        /* \"#utility.yul\":21066:21084   */\n      add\n        /* \"#utility.yul\":21053:21084   */\n      swap5\n      pop\n        /* \"#utility.yul\":20927:20931   */\n      0x20\n        /* \"#utility.yul\":20924:20925   */\n      dup2\n        /* \"#utility.yul\":20920:20932   */\n      add\n        /* \"#utility.yul\":20915:20932   */\n      swap1\n      pop\n        /* \"#utility.yul\":20890:21098   */\n      jump(tag_421)\n    tag_423:\n        /* \"#utility.yul\":21126:21132   */\n      dup7\n        /* \"#utility.yul\":21117:21124   */\n      dup4\n        /* \"#utility.yul\":21114:21133   */\n      lt\n        /* \"#utility.yul\":21111:21290   */\n      iszero\n      tag_424\n      jumpi\n        /* \"#utility.yul\":21184:21193   */\n      dup5\n        /* \"#utility.yul\":21179:21182   */\n      dup10\n        /* \"#utility.yul\":21175:21194   */\n      add\n        /* \"#utility.yul\":21169:21195   */\n      mload\n        /* \"#utility.yul\":21227:21275   */\n      tag_425\n        /* \"#utility.yul\":21269:21273   */\n      0x1f\n        /* \"#utility.yul\":21261:21267   */\n      dup10\n        /* \"#utility.yul\":21257:21274   */\n      and\n        /* \"#utility.yul\":21246:21255   */\n      dup3\n        /* \"#utility.yul\":21227:21275   */\n      tag_212\n      jump\t// in\n    tag_425:\n        /* \"#utility.yul\":21219:21225   */\n      dup4\n        /* \"#utility.yul\":21212:21276   */\n      sstore\n        /* \"#utility.yul\":21134:21290   */\n      pop\n        /* \"#utility.yul\":21111:21290   */\n    tag_424:\n        /* \"#utility.yul\":21336:21337   */\n      0x01\n        /* \"#utility.yul\":21332:21333   */\n      0x02\n        /* \"#utility.yul\":21324:21330   */\n      dup9\n        /* \"#utility.yul\":21320:21334   */\n      mul\n        /* \"#utility.yul\":21316:21338   */\n      add\n        /* \"#utility.yul\":21310:21314   */\n      dup9\n        /* \"#utility.yul\":21303:21339   */\n      sstore\n        /* \"#utility.yul\":20738:21349   */\n      pop\n      pop\n      pop\n        /* \"#utility.yul\":20701:21588   */\n    tag_416:\n      pop\n        /* \"#utility.yul\":20291:21594   */\n      pop\n      pop\n      pop\n        /* \"#utility.yul\":20199:21594   */\n      pop\n      pop\n      jump\t// out\n        /* \"#utility.yul\":21600:21748   */\n    tag_214:\n        /* \"#utility.yul\":21698:21704   */\n      dup3\n        /* \"#utility.yul\":21693:21696   */\n      dup2\n        /* \"#utility.yul\":21688:21691   */\n      dup4\n        /* \"#utility.yul\":21675:21705   */\n      calldatacopy\n        /* \"#utility.yul\":21739:21740   */\n      0x00\n        /* \"#utility.yul\":21730:21736   */\n      dup4\n        /* \"#utility.yul\":21725:21728   */\n      dup4\n        /* \"#utility.yul\":21721:21737   */\n      add\n        /* \"#utility.yul\":21714:21741   */\n      mstore\n        /* \"#utility.yul\":21600:21748   */\n      pop\n      pop\n      pop\n      jump\t// out\n        /* \"#utility.yul\":21778:22095   */\n    tag_215:\n        /* \"#utility.yul\":21876:21879   */\n      0x00\n        /* \"#utility.yul\":21897:21968   */\n      tag_428\n        /* \"#utility.yul\":21961:21967   */\n      dup4\n        /* \"#utility.yul\":21956:21959   */\n      dup6\n        /* \"#utility.yul\":21897:21968   */\n      tag_173\n      jump\t// in\n    tag_428:\n        /* \"#utility.yul\":21890:21968   */\n      swap4\n      pop\n        /* \"#utility.yul\":21978:22034   */\n      tag_429\n        /* \"#utility.yul\":22027:22033   */\n      dup4\n        /* \"#utility.yul\":22022:22025   */\n      dup6\n        /* \"#utility.yul\":22015:22020   */\n      dup5\n        /* \"#utility.yul\":21978:22034   */\n      tag_214\n      jump\t// in\n    tag_429:\n        /* \"#utility.yul\":22059:22088   */\n      tag_430\n        /* \"#utility.yul\":22081:22087   */\n      dup4\n        /* \"#utility.yul\":22059:22088   */\n      tag_175\n      jump\t// in\n    tag_430:\n        /* \"#utility.yul\":22054:22057   */\n      dup5\n        /* \"#utility.yul\":22050:22089   */\n      add\n        /* \"#utility.yul\":22043:22089   */\n      swap1\n      pop\n        /* \"#utility.yul\":21778:22095   */\n      swap4\n      swap3\n      pop\n      pop\n      pop\n      jump\t// out\n        /* \"#utility.yul\":22101:22655   */\n    tag_118:\n        /* \"#utility.yul\":22282:22286   */\n      0x00\n        /* \"#utility.yul\":22320:22322   */\n      0x40\n        /* \"#utility.yul\":22309:22318   */\n      dup3\n        /* \"#utility.yul\":22305:22323   */\n      add\n        /* \"#utility.yul\":22297:22323   */\n      swap1\n      pop\n        /* \"#utility.yul\":22369:22378   */\n      dup2\n        /* \"#utility.yul\":22363:22367   */\n      dup2\n        /* \"#utility.yul\":22359:22379   */\n      sub\n        /* \"#utility.yul\":22355:22356   */\n      0x00\n        /* \"#utility.yul\":22344:22353   */\n      dup4\n        /* \"#utility.yul\":22340:22357   */\n      add\n        /* \"#utility.yul\":22333:22380   */\n      mstore\n        /* \"#utility.yul\":22397:22485   */\n      tag_432\n        /* \"#utility.yul\":22480:22484   */\n      dup2\n        /* \"#utility.yul\":22471:22477   */\n      dup7\n        /* \"#utility.yul\":22463:22469   */\n      dup9\n        /* \"#utility.yul\":22397:22485   */\n      tag_215\n      jump\t// in\n    tag_432:\n        /* \"#utility.yul\":22389:22485   */\n      swap1\n      pop\n        /* \"#utility.yul\":22532:22541   */\n      dup2\n        /* \"#utility.yul\":22526:22530   */\n      dup2\n        /* \"#utility.yul\":22522:22542   */\n      sub\n        /* \"#utility.yul\":22517:22519   */\n      0x20\n        /* \"#utility.yul\":22506:22515   */\n      dup4\n        /* \"#utility.yul\":22502:22520   */\n      add\n        /* \"#utility.yul\":22495:22543   */\n      mstore\n        /* \"#utility.yul\":22560:22648   */\n      tag_433\n        /* \"#utility.yul\":22643:22647   */\n      dup2\n        /* \"#utility.yul\":22634:22640   */\n      dup5\n        /* \"#utility.yul\":22626:22632   */\n      dup7\n        /* \"#utility.yul\":22560:22648   */\n      tag_215\n      jump\t// in\n    tag_433:\n        /* \"#utility.yul\":22552:22648   */\n      swap1\n      pop\n        /* \"#utility.yul\":22101:22655   */\n      swap6\n      swap5\n      pop\n      pop\n      pop\n      pop\n      pop\n      jump\t// out\n        /* \"#utility.yul\":22661:22885   */\n    tag_216:\n        /* \"#utility.yul\":22801:22835   */\n      0x456c207573756172696f2064657374696e6f206e6f2065737461207265676973\n        /* \"#utility.yul\":22797:22798   */\n      0x00\n        /* \"#utility.yul\":22789:22795   */\n      dup3\n        /* \"#utility.yul\":22785:22799   */\n      add\n        /* \"#utility.yul\":22778:22836   */\n      mstore\n        /* \"#utility.yul\":22870:22877   */\n      0x747261646f000000000000000000000000000000000000000000000000000000\n        /* \"#utility.yul\":22865:22867   */\n      0x20\n        /* \"#utility.yul\":22857:22863   */\n      dup3\n        /* \"#utility.yul\":22853:22868   */\n      add\n        /* \"#utility.yul\":22846:22878   */\n      mstore\n        /* \"#utility.yul\":22661:22885   */\n      pop\n      jump\t// out\n        /* \"#utility.yul\":22891:23257   */\n    tag_217:\n        /* \"#utility.yul\":23033:23036   */\n      0x00\n        /* \"#utility.yul\":23054:23121   */\n      tag_436\n        /* \"#utility.yul\":23118:23120   */\n      0x25\n        /* \"#utility.yul\":23113:23116   */\n      dup4\n        /* \"#utility.yul\":23054:23121   */\n      tag_173\n      jump\t// in\n    tag_436:\n        /* \"#utility.yul\":23047:23121   */\n      swap2\n      pop\n        /* \"#utility.yul\":23130:23223   */\n      tag_437\n        /* \"#utility.yul\":23219:23222   */\n      dup3\n        /* \"#utility.yul\":23130:23223   */\n      tag_216\n      jump\t// in\n    tag_437:\n        /* \"#utility.yul\":23248:23250   */\n      0x40\n        /* \"#utility.yul\":23243:23246   */\n      dup3\n        /* \"#utility.yul\":23239:23251   */\n      add\n        /* \"#utility.yul\":23232:23251   */\n      swap1\n      pop\n        /* \"#utility.yul\":22891:23257   */\n      swap2\n      swap1\n      pop\n      jump\t// out\n        /* \"#utility.yul\":23263:23682   */\n    tag_136:\n        /* \"#utility.yul\":23429:23433   */\n      0x00\n        /* \"#utility.yul\":23467:23469   */\n      0x20\n        /* \"#utility.yul\":23456:23465   */\n      dup3\n        /* \"#utility.yul\":23452:23470   */\n      add\n        /* \"#utility.yul\":23444:23470   */\n      swap1\n      pop\n        /* \"#utility.yul\":23516:23525   */\n      dup2\n        /* \"#utility.yul\":23510:23514   */\n      dup2\n        /* \"#utility.yul\":23506:23526   */\n      sub\n        /* \"#utility.yul\":23502:23503   */\n      0x00\n        /* \"#utility.yul\":23491:23500   */\n      dup4\n        /* \"#utility.yul\":23487:23504   */\n      add\n        /* \"#utility.yul\":23480:23527   */\n      mstore\n        /* \"#utility.yul\":23544:23675   */\n      tag_439\n        /* \"#utility.yul\":23670:23674   */\n      dup2\n        /* \"#utility.yul\":23544:23675   */\n      tag_217\n      jump\t// in\n    tag_439:\n        /* \"#utility.yul\":23536:23675   */\n      swap1\n      pop\n        /* \"#utility.yul\":23263:23682   */\n      swap2\n      swap1\n      pop\n      jump\t// out\n\n    auxdata: 0xa264697066735822122023396f615862534c9a52130832aa45e4716e24e0a116b11c6b1ad15a678f41b664736f6c634300081a0033\n}\n",
				"bytecode": {
					"linkReferences": {},
					"object": "608060405234801561000f575f80fd5b506040516120253803806120258339818101604052810190610031919061020a565b5f73ffffffffffffffffffffffffffffffffffffffff168173ffffffffffffffffffffffffffffffffffffffff160361009f576040517f08c379a0000000000000000000000000000000000000000000000000000000008152600401610096906102a2565b60405180910390fd5b6127108211156100e4576040517f08c379a00000000000000000000000000000000000000000000000000000000081526004016100db9061030a565b60405180910390fd5b3360015f6101000a81548173ffffffffffffffffffffffffffffffffffffffff021916908373ffffffffffffffffffffffffffffffffffffffff160217905550816003819055508060025f6101000a81548173ffffffffffffffffffffffffffffffffffffffff021916908373ffffffffffffffffffffffffffffffffffffffff1602179055505f6004819055505050610328565b5f80fd5b5f819050919050565b61018f8161017d565b8114610199575f80fd5b50565b5f815190506101aa81610186565b92915050565b5f73ffffffffffffffffffffffffffffffffffffffff82169050919050565b5f6101d9826101b0565b9050919050565b6101e9816101cf565b81146101f3575f80fd5b50565b5f81519050610204816101e0565b92915050565b5f80604083850312156102205761021f610179565b5b5f61022d8582860161019c565b925050602061023e858286016101f6565b9150509250929050565b5f82825260208201905092915050565b7f446972656363696f6e206465207465736f7265726961206e6f2076616c6964615f82015250565b5f61028c602083610248565b915061029782610258565b602082019050919050565b5f6020820190508181035f8301526102b981610280565b9050919050565b7f466565206465626520736572203c3d2031303030302070756e746f73000000005f82015250565b5f6102f4601c83610248565b91506102ff826102c0565b602082019050919050565b5f6020820190508181035f830152610321816102e8565b9050919050565b611cf0806103355f395ff3fe60806040526004361061009b575f3560e01c806361d027b31161006357806361d027b31461016b5780638da5cb5b14610195578063a87430ba146101bf578063c3346c3e146101fe578063d0e30db014610226578063ddca3f43146102305761009b565b806311f1fc991461009f57806312065fe0146100c75780632e1a7d4d146100f1578063313dab20146101195780633ffbd47f14610143575b5f80fd5b3480156100aa575f80fd5b506100c560048036038101906100c09190611075565b61025a565b005b3480156100d2575f80fd5b506100db6103fc565b6040516100e891906110af565b60405180910390f35b3480156100fc575f80fd5b5061011760048036038101906101129190611075565b6104cd565b005b348015610124575f80fd5b5061012d61074f565b60405161013a91906110af565b60405180910390f35b34801561014e575f80fd5b5061016960048036038101906101649190611129565b610755565b005b348015610176575f80fd5b5061017f610a01565b60405161018c91906111e6565b60405180910390f35b3480156101a0575f80fd5b506101a9610a26565b6040516101b691906111e6565b60405180910390f35b3480156101ca575f80fd5b506101e560048036038101906101e09190611229565b610a4b565b6040516101f594939291906112de565b60405180910390f35b348015610209575f80fd5b50610224600480360381019061021f919061132f565b610b8e565b005b61022e610ec2565b005b34801561023b575f80fd5b50610244611034565b60405161025191906110af565b60405180910390f35b60015f9054906101000a900473ffffffffffffffffffffffffffffffffffffffff1673ffffffffffffffffffffffffffffffffffffffff163373ffffffffffffffffffffffffffffffffffffffff16146102e9576040517f08c379a00000000000000000000000000000000000000000000000000000000081526004016102e0906113dd565b60405180910390fd5b80600454101561032e576040517f08c379a00000000000000000000000000000000000000000000000000000000081526004016103259061146b565b60405180910390fd5b8060045f82825461033f91906114b6565b9250508190555060015f9054906101000a900473ffffffffffffffffffffffffffffffffffffffff1673ffffffffffffffffffffffffffffffffffffffff166108fc8290811502906040515f60405180830381858888f193505050501580156103aa573d5f803e3d5ffd5b503373ffffffffffffffffffffffffffffffffffffffff167f233c84dc0c19fbf51f9fa92214ffd8a59f512e0098bff5827455d02e401221c0826040516103f191906110af565b60405180910390a250565b5f805f3373ffffffffffffffffffffffffffffffffffffffff1673ffffffffffffffffffffffffffffffffffffffff1681526020019081526020015f206003015f9054906101000a900460ff16610488576040517f08c379a000000000000000000000000000000000000000000000000000000000815260040161047f90611533565b60405180910390fd5b5f803373ffffffffffffffffffffffffffffffffffffffff1673ffffffffffffffffffffffffffffffffffffffff1681526020019081526020015f2060020154905090565b5f803373ffffffffffffffffffffffffffffffffffffffff1673ffffffffffffffffffffffffffffffffffffffff1681526020019081526020015f206003015f9054906101000a900460ff16610558576040517f08c379a000000000000000000000000000000000000000000000000000000000815260040161054f90611533565b60405180910390fd5b5f811161059a576040517f08c379a00000000000000000000000000000000000000000000000000000000081526004016105919061159b565b60405180910390fd5b805f803373ffffffffffffffffffffffffffffffffffffffff1673ffffffffffffffffffffffffffffffffffffffff1681526020019081526020015f2060020154101561061c576040517f08c379a000000000000000000000000000000000000000000000000000000000815260040161061390611629565b60405180910390fd5b5f6127106003548361062e9190611647565b61063891906116b5565b90505f818361064791906114b6565b9050825f803373ffffffffffffffffffffffffffffffffffffffff1673ffffffffffffffffffffffffffffffffffffffff1681526020019081526020015f206002015f82825461069791906114b6565b925050819055508160045f8282546106af91906116e5565b925050819055503373ffffffffffffffffffffffffffffffffffffffff166108fc8290811502906040515f60405180830381858888f193505050501580156106f9573d5f803e3d5ffd5b503373ffffffffffffffffffffffffffffffffffffffff167fdf273cb619d95419a9cd0ec88123a0538c85064229baa6363788f743fff90deb8484604051610742929190611718565b60405180910390a2505050565b60045481565b5f848490501161079a576040517f08c379a0000000000000000000000000000000000000000000000000000000008152600401610791906117af565b60405180910390fd5b5f82829050116107df576040517f08c379a00000000000000000000000000000000000000000000000000000000081526004016107d69061183d565b60405180910390fd5b5f803373ffffffffffffffffffffffffffffffffffffffff1673ffffffffffffffffffffffffffffffffffffffff1681526020019081526020015f206003015f9054906101000a900460ff161561086b576040517f08c379a0000000000000000000000000000000000000000000000000000000008152600401610862906118a5565b60405180910390fd5b604051806080016040528085858080601f0160208091040260200160405190810160405280939291908181526020018383808284375f81840152601f19601f82011690508083019250505050505050815260200183838080601f0160208091040260200160405190810160405280939291908181526020018383808284375f81840152601f19601f8201169050808301925050505050505081526020015f8152602001600115158152505f803373ffffffffffffffffffffffffffffffffffffffff1673ffffffffffffffffffffffffffffffffffffffff1681526020019081526020015f205f820151815f0190816109649190611aea565b50602082015181600101908161097a9190611aea565b50604082015181600201556060820151816003015f6101000a81548160ff0219169083151502179055509050503373ffffffffffffffffffffffffffffffffffffffff167f92822564bab8864c3a47b34e8d23fbce5c46234eb5da261f94087b995ac0f33b858585856040516109f39493929190611bf3565b60405180910390a250505050565b60025f9054906101000a900473ffffffffffffffffffffffffffffffffffffffff1681565b60015f9054906101000a900473ffffffffffffffffffffffffffffffffffffffff1681565b5f602052805f5260405f205f91509050805f018054610a699061191d565b80601f0160208091040260200160405190810160405280929190818152602001828054610a959061191d565b8015610ae05780601f10610ab757610100808354040283529160200191610ae0565b820191905f5260205f20905b815481529060010190602001808311610ac357829003601f168201915b505050505090806001018054610af59061191d565b80601f0160208091040260200160405190810160405280929190818152602001828054610b219061191d565b8015610b6c5780601f10610b4357610100808354040283529160200191610b6c565b820191905f5260205f20905b815481529060010190602001808311610b4f57829003601f168201915b505050505090806002015490806003015f9054906101000a900460ff16905084565b5f803373ffffffffffffffffffffffffffffffffffffffff1673ffffffffffffffffffffffffffffffffffffffff1681526020019081526020015f206003015f9054906101000a900460ff16610c19576040517f08c379a0000000000000000000000000000000000000000000000000000000008152600401610c1090611533565b60405180910390fd5b5f808373ffffffffffffffffffffffffffffffffffffffff1673ffffffffffffffffffffffffffffffffffffffff1681526020019081526020015f206003015f9054906101000a900460ff16610ca4576040517f08c379a0000000000000000000000000000000000000000000000000000000008152600401610c9b90611c9c565b60405180910390fd5b5f8111610ce6576040517f08c379a0000000000000000000000000000000000000000000000000000000008152600401610cdd9061159b565b60405180910390fd5b5f61271060035483610cf89190611647565b610d0291906116b5565b90505f8183610d1191906116e5565b9050805f803373ffffffffffffffffffffffffffffffffffffffff1673ffffffffffffffffffffffffffffffffffffffff1681526020019081526020015f20600201541015610d95576040517f08c379a0000000000000000000000000000000000000000000000000000000008152600401610d8c90611629565b60405180910390fd5b805f803373ffffffffffffffffffffffffffffffffffffffff1673ffffffffffffffffffffffffffffffffffffffff1681526020019081526020015f206002015f828254610de391906114b6565b92505081905550825f808673ffffffffffffffffffffffffffffffffffffffff1673ffffffffffffffffffffffffffffffffffffffff1681526020019081526020015f206002015f828254610e3891906116e5565b925050819055508160045f828254610e5091906116e5565b925050819055508373ffffffffffffffffffffffffffffffffffffffff163373ffffffffffffffffffffffffffffffffffffffff167fddf252ad1be2c89b69c2b068fc378daa952ba7f163c4a11628f55a4df523b3ef85604051610eb491906110af565b60405180910390a350505050565b5f803373ffffffffffffffffffffffffffffffffffffffff1673ffffffffffffffffffffffffffffffffffffffff1681526020019081526020015f206003015f9054906101000a900460ff16610f4d576040517f08c379a0000000000000000000000000000000000000000000000000000000008152600401610f4490611533565b60405180910390fd5b5f3411610f8f576040517f08c379a0000000000000000000000000000000000000000000000000000000008152600401610f869061159b565b60405180910390fd5b345f803373ffffffffffffffffffffffffffffffffffffffff1673ffffffffffffffffffffffffffffffffffffffff1681526020019081526020015f206002015f828254610fdd91906116e5565b925050819055503373ffffffffffffffffffffffffffffffffffffffff167fe1fffcc4923d04b559f4d29a8bfc6cda04eb5b0d3c460751c2402c5c5cc9109c3460405161102a91906110af565b60405180910390a2565b60035481565b5f80fd5b5f80fd5b5f819050919050565b61105481611042565b811461105e575f80fd5b50565b5f8135905061106f8161104b565b92915050565b5f6020828403121561108a5761108961103a565b5b5f61109784828501611061565b91505092915050565b6110a981611042565b82525050565b5f6020820190506110c25f8301846110a0565b92915050565b5f80fd5b5f80fd5b5f80fd5b5f8083601f8401126110e9576110e86110c8565b5b8235905067ffffffffffffffff811115611106576111056110cc565b5b602083019150836001820283011115611122576111216110d0565b5b9250929050565b5f805f80604085870312156111415761114061103a565b5b5f85013567ffffffffffffffff81111561115e5761115d61103e565b5b61116a878288016110d4565b9450945050602085013567ffffffffffffffff81111561118d5761118c61103e565b5b611199878288016110d4565b925092505092959194509250565b5f73ffffffffffffffffffffffffffffffffffffffff82169050919050565b5f6111d0826111a7565b9050919050565b6111e0816111c6565b82525050565b5f6020820190506111f95f8301846111d7565b92915050565b611208816111c6565b8114611212575f80fd5b50565b5f81359050611223816111ff565b92915050565b5f6020828403121561123e5761123d61103a565b5b5f61124b84828501611215565b91505092915050565b5f81519050919050565b5f82825260208201905092915050565b8281835e5f83830152505050565b5f601f19601f8301169050919050565b5f61129682611254565b6112a0818561125e565b93506112b081856020860161126e565b6112b98161127c565b840191505092915050565b5f8115159050919050565b6112d8816112c4565b82525050565b5f6080820190508181035f8301526112f6818761128c565b9050818103602083015261130a818661128c565b905061131960408301856110a0565b61132660608301846112cf565b95945050505050565b5f80604083850312156113455761134461103a565b5b5f61135285828601611215565b925050602061136385828601611061565b9150509250929050565b7f536f6c6f20656c207573756172696f207075656465206c6c616d6172206120655f8201527f7374612066756e63696f6e000000000000000000000000000000000000000000602082015250565b5f6113c7602b8361125e565b91506113d28261136d565b604082019050919050565b5f6020820190508181035f8301526113f4816113bb565b9050919050565b7f53616c646f20696e737566696369656e746520656e207465736f7265726961205f8201527f70617261206c61206f7065726163696f6e20736f6c6963697461646100000000602082015250565b5f611455603c8361125e565b9150611460826113fb565b604082019050919050565b5f6020820190508181035f83015261148281611449565b9050919050565b7f4e487b71000000000000000000000000000000000000000000000000000000005f52601160045260245ffd5b5f6114c082611042565b91506114cb83611042565b92508282039050818111156114e3576114e2611489565b5b92915050565b7f456c207573756172696f206e6f2065737461207265676973747261646f0000005f82015250565b5f61151d601d8361125e565b9150611528826114e9565b602082019050919050565b5f6020820190508181035f83015261154a81611511565b9050919050565b7f4465626520696e67726573617220756e612063616e74696461640000000000005f82015250565b5f611585601a8361125e565b915061159082611551565b602082019050919050565b5f6020820190508181035f8301526115b281611579565b9050919050565b7f53616c646f20696e737566696369656e74652070617261206c61206f706572615f8201527f63696f6e20736f6c696369746164610000000000000000000000000000000000602082015250565b5f611613602f8361125e565b915061161e826115b9565b604082019050919050565b5f6020820190508181035f83015261164081611607565b9050919050565b5f61165182611042565b915061165c83611042565b925082820261166a81611042565b9150828204841483151761168157611680611489565b5b5092915050565b7f4e487b71000000000000000000000000000000000000000000000000000000005f52601260045260245ffd5b5f6116bf82611042565b91506116ca83611042565b9250826116da576116d9611688565b5b828204905092915050565b5f6116ef82611042565b91506116fa83611042565b925082820190508082111561171257611711611489565b5b92915050565b5f60408201905061172b5f8301856110a0565b61173860208301846110a0565b9392505050565b7f4573206f626c696761746f72696f20696e67726573617220656c207072696d655f8201527f72206e6f6d627265000000000000000000000000000000000000000000000000602082015250565b5f61179960288361125e565b91506117a48261173f565b604082019050919050565b5f6020820190508181035f8301526117c68161178d565b9050919050565b7f4573206f626c696761746f72696f20696e67726573617220656c206170656c6c5f8201527f69646f0000000000000000000000000000000000000000000000000000000000602082015250565b5f61182760238361125e565b9150611832826117cd565b604082019050919050565b5f6020820190508181035f8301526118548161181b565b9050919050565b7f456c207573756172696f2079612065737461207265676973747261646f0000005f82015250565b5f61188f601d8361125e565b915061189a8261185b565b602082019050919050565b5f6020820190508181035f8301526118bc81611883565b9050919050565b7f4e487b71000000000000000000000000000000000000000000000000000000005f52604160045260245ffd5b7f4e487b71000000000000000000000000000000000000000000000000000000005f52602260045260245ffd5b5f600282049050600182168061193457607f821691505b602082108103611947576119466118f0565b5b50919050565b5f819050815f5260205f209050919050565b5f6020601f8301049050919050565b5f82821b905092915050565b5f600883026119a97fffffffffffffffffffffffffffffffffffffffffffffffffffffffffffffffff8261196e565b6119b3868361196e565b95508019841693508086168417925050509392505050565b5f819050919050565b5f6119ee6119e96119e484611042565b6119cb565b611042565b9050919050565b5f819050919050565b611a07836119d4565b611a1b611a13826119f5565b84845461197a565b825550505050565b5f90565b611a2f611a23565b611a3a8184846119fe565b505050565b5b81811015611a5d57611a525f82611a27565b600181019050611a40565b5050565b601f821115611aa257611a738161194d565b611a7c8461195f565b81016020851015611a8b578190505b611a9f611a978561195f565b830182611a3f565b50505b505050565b5f82821c905092915050565b5f611ac25f1984600802611aa7565b1980831691505092915050565b5f611ada8383611ab3565b9150826002028217905092915050565b611af382611254565b67ffffffffffffffff811115611b0c57611b0b6118c3565b5b611b16825461191d565b611b21828285611a61565b5f60209050601f831160018114611b52575f8415611b40578287015190505b611b4a8582611acf565b865550611bb1565b601f198416611b608661194d565b5f5b82811015611b8757848901518255600182019150602085019450602081019050611b62565b86831015611ba45784890151611ba0601f891682611ab3565b8355505b6001600288020188555050505b505050505050565b828183375f83830152505050565b5f611bd2838561125e565b9350611bdf838584611bb9565b611be88361127c565b840190509392505050565b5f6040820190508181035f830152611c0c818688611bc7565b90508181036020830152611c21818486611bc7565b905095945050505050565b7f456c207573756172696f2064657374696e6f206e6f20657374612072656769735f8201527f747261646f000000000000000000000000000000000000000000000000000000602082015250565b5f611c8660258361125e565b9150611c9182611c2c565b604082019050919050565b5f6020820190508181035f830152611cb381611c7a565b905091905056fea264697066735822122023396f615862534c9a52130832aa45e4716e24e0a116b11c6b1ad15a678f41b664736f6c634300081a0033",
					"opcodes": "PUSH1 0x80 PUSH1 0x40 MSTORE CALLVALUE DUP1 ISZERO PUSH2 0xF JUMPI PUSH0 DUP1 REVERT JUMPDEST POP PUSH1 0x40 MLOAD PUSH2 0x2025 CODESIZE SUB DUP1 PUSH2 0x2025 DUP4 CODECOPY DUP2 DUP2 ADD PUSH1 0x40 MSTORE DUP2 ADD SWAP1 PUSH2 0x31 SWAP2 SWAP1 PUSH2 0x20A JUMP JUMPDEST PUSH0 PUSH20 0xFFFFFFFFFFFFFFFFFFFFFFFFFFFFFFFFFFFFFFFF AND DUP2 PUSH20 0xFFFFFFFFFFFFFFFFFFFFFFFFFFFFFFFFFFFFFFFF AND SUB PUSH2 0x9F JUMPI PUSH1 0x40 MLOAD PUSH32 0x8C379A000000000000000000000000000000000000000000000000000000000 DUP2 MSTORE PUSH1 0x4 ADD PUSH2 0x96 SWAP1 PUSH2 0x2A2 JUMP JUMPDEST PUSH1 0x40 MLOAD DUP1 SWAP2 SUB SWAP1 REVERT JUMPDEST PUSH2 0x2710 DUP3 GT ISZERO PUSH2 0xE4 JUMPI PUSH1 0x40 MLOAD PUSH32 0x8C379A000000000000000000000000000000000000000000000000000000000 DUP2 MSTORE PUSH1 0x4 ADD PUSH2 0xDB SWAP1 PUSH2 0x30A JUMP JUMPDEST PUSH1 0x40 MLOAD DUP1 SWAP2 SUB SWAP1 REVERT JUMPDEST CALLER PUSH1 0x1 PUSH0 PUSH2 0x100 EXP DUP2 SLOAD DUP2 PUSH20 0xFFFFFFFFFFFFFFFFFFFFFFFFFFFFFFFFFFFFFFFF MUL NOT AND SWAP1 DUP4 PUSH20 0xFFFFFFFFFFFFFFFFFFFFFFFFFFFFFFFFFFFFFFFF AND MUL OR SWAP1 SSTORE POP DUP2 PUSH1 0x3 DUP2 SWAP1 SSTORE POP DUP1 PUSH1 0x2 PUSH0 PUSH2 0x100 EXP DUP2 SLOAD DUP2 PUSH20 0xFFFFFFFFFFFFFFFFFFFFFFFFFFFFFFFFFFFFFFFF MUL NOT AND SWAP1 DUP4 PUSH20 0xFFFFFFFFFFFFFFFFFFFFFFFFFFFFFFFFFFFFFFFF AND MUL OR SWAP1 SSTORE POP PUSH0 PUSH1 0x4 DUP2 SWAP1 SSTORE POP POP POP PUSH2 0x328 JUMP JUMPDEST PUSH0 DUP1 REVERT JUMPDEST PUSH0 DUP2 SWAP1 POP SWAP2 SWAP1 POP JUMP JUMPDEST PUSH2 0x18F DUP2 PUSH2 0x17D JUMP JUMPDEST DUP2 EQ PUSH2 0x199 JUMPI PUSH0 DUP1 REVERT JUMPDEST POP JUMP JUMPDEST PUSH0 DUP2 MLOAD SWAP1 POP PUSH2 0x1AA DUP2 PUSH2 0x186 JUMP JUMPDEST SWAP3 SWAP2 POP POP JUMP JUMPDEST PUSH0 PUSH20 0xFFFFFFFFFFFFFFFFFFFFFFFFFFFFFFFFFFFFFFFF DUP3 AND SWAP1 POP SWAP2 SWAP1 POP JUMP JUMPDEST PUSH0 PUSH2 0x1D9 DUP3 PUSH2 0x1B0 JUMP JUMPDEST SWAP1 POP SWAP2 SWAP1 POP JUMP JUMPDEST PUSH2 0x1E9 DUP2 PUSH2 0x1CF JUMP JUMPDEST DUP2 EQ PUSH2 0x1F3 JUMPI PUSH0 DUP1 REVERT JUMPDEST POP JUMP JUMPDEST PUSH0 DUP2 MLOAD SWAP1 POP PUSH2 0x204 DUP2 PUSH2 0x1E0 JUMP JUMPDEST SWAP3 SWAP2 POP POP JUMP JUMPDEST PUSH0 DUP1 PUSH1 0x40 DUP4 DUP6 SUB SLT ISZERO PUSH2 0x220 JUMPI PUSH2 0x21F PUSH2 0x179 JUMP JUMPDEST JUMPDEST PUSH0 PUSH2 0x22D DUP6 DUP3 DUP7 ADD PUSH2 0x19C JUMP JUMPDEST SWAP3 POP POP PUSH1 0x20 PUSH2 0x23E DUP6 DUP3 DUP7 ADD PUSH2 0x1F6 JUMP JUMPDEST SWAP2 POP POP SWAP3 POP SWAP3 SWAP1 POP JUMP JUMPDEST PUSH0 DUP3 DUP3 MSTORE PUSH1 0x20 DUP3 ADD SWAP1 POP SWAP3 SWAP2 POP POP JUMP JUMPDEST PUSH32 0x446972656363696F6E206465207465736F7265726961206E6F2076616C696461 PUSH0 DUP3 ADD MSTORE POP JUMP JUMPDEST PUSH0 PUSH2 0x28C PUSH1 0x20 DUP4 PUSH2 0x248 JUMP JUMPDEST SWAP2 POP PUSH2 0x297 DUP3 PUSH2 0x258 JUMP JUMPDEST PUSH1 0x20 DUP3 ADD SWAP1 POP SWAP2 SWAP1 POP JUMP JUMPDEST PUSH0 PUSH1 0x20 DUP3 ADD SWAP1 POP DUP2 DUP2 SUB PUSH0 DUP4 ADD MSTORE PUSH2 0x2B9 DUP2 PUSH2 0x280 JUMP JUMPDEST SWAP1 POP SWAP2 SWAP1 POP JUMP JUMPDEST PUSH32 0x466565206465626520736572203C3D2031303030302070756E746F7300000000 PUSH0 DUP3 ADD MSTORE POP JUMP JUMPDEST PUSH0 PUSH2 0x2F4 PUSH1 0x1C DUP4 PUSH2 0x248 JUMP JUMPDEST SWAP2 POP PUSH2 0x2FF DUP3 PUSH2 0x2C0 JUMP JUMPDEST PUSH1 0x20 DUP3 ADD SWAP1 POP SWAP2 SWAP1 POP JUMP JUMPDEST PUSH0 PUSH1 0x20 DUP3 ADD SWAP1 POP DUP2 DUP2 SUB PUSH0 DUP4 ADD MSTORE PUSH2 0x321 DUP2 PUSH2 0x2E8 JUMP JUMPDEST SWAP1 POP SWAP2 SWAP1 POP JUMP JUMPDEST PUSH2 0x1CF0 DUP1 PUSH2 0x335 PUSH0 CODECOPY PUSH0 RETURN INVALID PUSH1 0x80 PUSH1 0x40 MSTORE PUSH1 0x4 CALLDATASIZE LT PUSH2 0x9B JUMPI PUSH0 CALLDATALOAD PUSH1 0xE0 SHR DUP1 PUSH4 0x61D027B3 GT PUSH2 0x63 JUMPI DUP1 PUSH4 0x61D027B3 EQ PUSH2 0x16B JUMPI DUP1 PUSH4 0x8DA5CB5B EQ PUSH2 0x195 JUMPI DUP1 PUSH4 0xA87430BA EQ PUSH2 0x1BF JUMPI DUP1 PUSH4 0xC3346C3E EQ PUSH2 0x1FE JUMPI DUP1 PUSH4 0xD0E30DB0 EQ PUSH2 0x226 JUMPI DUP1 PUSH4 0xDDCA3F43 EQ PUSH2 0x230 JUMPI PUSH2 0x9B JUMP JUMPDEST DUP1 PUSH4 0x11F1FC99 EQ PUSH2 0x9F JUMPI DUP1 PUSH4 0x12065FE0 EQ PUSH2 0xC7 JUMPI DUP1 PUSH4 0x2E1A7D4D EQ PUSH2 0xF1 JUMPI DUP1 PUSH4 0x313DAB20 EQ PUSH2 0x119 JUMPI DUP1 PUSH4 0x3FFBD47F EQ PUSH2 0x143 JUMPI JUMPDEST PUSH0 DUP1 REVERT JUMPDEST CALLVALUE DUP1 ISZERO PUSH2 0xAA JUMPI PUSH0 DUP1 REVERT JUMPDEST POP PUSH2 0xC5 PUSH1 0x4 DUP1 CALLDATASIZE SUB DUP2 ADD SWAP1 PUSH2 0xC0 SWAP2 SWAP1 PUSH2 0x1075 JUMP JUMPDEST PUSH2 0x25A JUMP JUMPDEST STOP JUMPDEST CALLVALUE DUP1 ISZERO PUSH2 0xD2 JUMPI PUSH0 DUP1 REVERT JUMPDEST POP PUSH2 0xDB PUSH2 0x3FC JUMP JUMPDEST PUSH1 0x40 MLOAD PUSH2 0xE8 SWAP2 SWAP1 PUSH2 0x10AF JUMP JUMPDEST PUSH1 0x40 MLOAD DUP1 SWAP2 SUB SWAP1 RETURN JUMPDEST CALLVALUE DUP1 ISZERO PUSH2 0xFC JUMPI PUSH0 DUP1 REVERT JUMPDEST POP PUSH2 0x117 PUSH1 0x4 DUP1 CALLDATASIZE SUB DUP2 ADD SWAP1 PUSH2 0x112 SWAP2 SWAP1 PUSH2 0x1075 JUMP JUMPDEST PUSH2 0x4CD JUMP JUMPDEST STOP JUMPDEST CALLVALUE DUP1 ISZERO PUSH2 0x124 JUMPI PUSH0 DUP1 REVERT JUMPDEST POP PUSH2 0x12D PUSH2 0x74F JUMP JUMPDEST PUSH1 0x40 MLOAD PUSH2 0x13A SWAP2 SWAP1 PUSH2 0x10AF JUMP JUMPDEST PUSH1 0x40 MLOAD DUP1 SWAP2 SUB SWAP1 RETURN JUMPDEST CALLVALUE DUP1 ISZERO PUSH2 0x14E JUMPI PUSH0 DUP1 REVERT JUMPDEST POP PUSH2 0x169 PUSH1 0x4 DUP1 CALLDATASIZE SUB DUP2 ADD SWAP1 PUSH2 0x164 SWAP2 SWAP1 PUSH2 0x1129 JUMP JUMPDEST PUSH2 0x755 JUMP JUMPDEST STOP JUMPDEST CALLVALUE DUP1 ISZERO PUSH2 0x176 JUMPI PUSH0 DUP1 REVERT JUMPDEST POP PUSH2 0x17F PUSH2 0xA01 JUMP JUMPDEST PUSH1 0x40 MLOAD PUSH2 0x18C SWAP2 SWAP1 PUSH2 0x11E6 JUMP JUMPDEST PUSH1 0x40 MLOAD DUP1 SWAP2 SUB SWAP1 RETURN JUMPDEST CALLVALUE DUP1 ISZERO PUSH2 0x1A0 JUMPI PUSH0 DUP1 REVERT JUMPDEST POP PUSH2 0x1A9 PUSH2 0xA26 JUMP JUMPDEST PUSH1 0x40 MLOAD PUSH2 0x1B6 SWAP2 SWAP1 PUSH2 0x11E6 JUMP JUMPDEST PUSH1 0x40 MLOAD DUP1 SWAP2 SUB SWAP1 RETURN JUMPDEST CALLVALUE DUP1 ISZERO PUSH2 0x1CA JUMPI PUSH0 DUP1 REVERT JUMPDEST POP PUSH2 0x1E5 PUSH1 0x4 DUP1 CALLDATASIZE SUB DUP2 ADD SWAP1 PUSH2 0x1E0 SWAP2 SWAP1 PUSH2 0x1229 JUMP JUMPDEST PUSH2 0xA4B JUMP JUMPDEST PUSH1 0x40 MLOAD PUSH2 0x1F5 SWAP5 SWAP4 SWAP3 SWAP2 SWAP1 PUSH2 0x12DE JUMP JUMPDEST PUSH1 0x40 MLOAD DUP1 SWAP2 SUB SWAP1 RETURN JUMPDEST CALLVALUE DUP1 ISZERO PUSH2 0x209 JUMPI PUSH0 DUP1 REVERT JUMPDEST POP PUSH2 0x224 PUSH1 0x4 DUP1 CALLDATASIZE SUB DUP2 ADD SWAP1 PUSH2 0x21F SWAP2 SWAP1 PUSH2 0x132F JUMP JUMPDEST PUSH2 0xB8E JUMP JUMPDEST STOP JUMPDEST PUSH2 0x22E PUSH2 0xEC2 JUMP JUMPDEST STOP JUMPDEST CALLVALUE DUP1 ISZERO PUSH2 0x23B JUMPI PUSH0 DUP1 REVERT JUMPDEST POP PUSH2 0x244 PUSH2 0x1034 JUMP JUMPDEST PUSH1 0x40 MLOAD PUSH2 0x251 SWAP2 SWAP1 PUSH2 0x10AF JUMP JUMPDEST PUSH1 0x40 MLOAD DUP1 SWAP2 SUB SWAP1 RETURN JUMPDEST PUSH1 0x1 PUSH0 SWAP1 SLOAD SWAP1 PUSH2 0x100 EXP SWAP1 DIV PUSH20 0xFFFFFFFFFFFFFFFFFFFFFFFFFFFFFFFFFFFFFFFF AND PUSH20 0xFFFFFFFFFFFFFFFFFFFFFFFFFFFFFFFFFFFFFFFF AND CALLER PUSH20 0xFFFFFFFFFFFFFFFFFFFFFFFFFFFFFFFFFFFFFFFF AND EQ PUSH2 0x2E9 JUMPI PUSH1 0x40 MLOAD PUSH32 0x8C379A000000000000000000000000000000000000000000000000000000000 DUP2 MSTORE PUSH1 0x4 ADD PUSH2 0x2E0 SWAP1 PUSH2 0x13DD JUMP JUMPDEST PUSH1 0x40 MLOAD DUP1 SWAP2 SUB SWAP1 REVERT JUMPDEST DUP1 PUSH1 0x4 SLOAD LT ISZERO PUSH2 0x32E JUMPI PUSH1 0x40 MLOAD PUSH32 0x8C379A000000000000000000000000000000000000000000000000000000000 DUP2 MSTORE PUSH1 0x4 ADD PUSH2 0x325 SWAP1 PUSH2 0x146B JUMP JUMPDEST PUSH1 0x40 MLOAD DUP1 SWAP2 SUB SWAP1 REVERT JUMPDEST DUP1 PUSH1 0x4 PUSH0 DUP3 DUP3 SLOAD PUSH2 0x33F SWAP2 SWAP1 PUSH2 0x14B6 JUMP JUMPDEST SWAP3 POP POP DUP2 SWAP1 SSTORE POP PUSH1 0x1 PUSH0 SWAP1 SLOAD SWAP1 PUSH2 0x100 EXP SWAP1 DIV PUSH20 0xFFFFFFFFFFFFFFFFFFFFFFFFFFFFFFFFFFFFFFFF AND PUSH20 0xFFFFFFFFFFFFFFFFFFFFFFFFFFFFFFFFFFFFFFFF AND PUSH2 0x8FC DUP3 SWAP1 DUP2 ISZERO MUL SWAP1 PUSH1 0x40 MLOAD PUSH0 PUSH1 0x40 MLOAD DUP1 DUP4 SUB DUP2 DUP6 DUP9 DUP9 CALL SWAP4 POP POP POP POP ISZERO DUP1 ISZERO PUSH2 0x3AA JUMPI RETURNDATASIZE PUSH0 DUP1 RETURNDATACOPY RETURNDATASIZE PUSH0 REVERT JUMPDEST POP CALLER PUSH20 0xFFFFFFFFFFFFFFFFFFFFFFFFFFFFFFFFFFFFFFFF AND PUSH32 0x233C84DC0C19FBF51F9FA92214FFD8A59F512E0098BFF5827455D02E401221C0 DUP3 PUSH1 0x40 MLOAD PUSH2 0x3F1 SWAP2 SWAP1 PUSH2 0x10AF JUMP JUMPDEST PUSH1 0x40 MLOAD DUP1 SWAP2 SUB SWAP1 LOG2 POP JUMP JUMPDEST PUSH0 DUP1 PUSH0 CALLER PUSH20 0xFFFFFFFFFFFFFFFFFFFFFFFFFFFFFFFFFFFFFFFF AND PUSH20 0xFFFFFFFFFFFFFFFFFFFFFFFFFFFFFFFFFFFFFFFF AND DUP2 MSTORE PUSH1 0x20 ADD SWAP1 DUP2 MSTORE PUSH1 0x20 ADD PUSH0 KECCAK256 PUSH1 0x3 ADD PUSH0 SWAP1 SLOAD SWAP1 PUSH2 0x100 EXP SWAP1 DIV PUSH1 0xFF AND PUSH2 0x488 JUMPI PUSH1 0x40 MLOAD PUSH32 0x8C379A000000000000000000000000000000000000000000000000000000000 DUP2 MSTORE PUSH1 0x4 ADD PUSH2 0x47F SWAP1 PUSH2 0x1533 JUMP JUMPDEST PUSH1 0x40 MLOAD DUP1 SWAP2 SUB SWAP1 REVERT JUMPDEST PUSH0 DUP1 CALLER PUSH20 0xFFFFFFFFFFFFFFFFFFFFFFFFFFFFFFFFFFFFFFFF AND PUSH20 0xFFFFFFFFFFFFFFFFFFFFFFFFFFFFFFFFFFFFFFFF AND DUP2 MSTORE PUSH1 0x20 ADD SWAP1 DUP2 MSTORE PUSH1 0x20 ADD PUSH0 KECCAK256 PUSH1 0x2 ADD SLOAD SWAP1 POP SWAP1 JUMP JUMPDEST PUSH0 DUP1 CALLER PUSH20 0xFFFFFFFFFFFFFFFFFFFFFFFFFFFFFFFFFFFFFFFF AND PUSH20 0xFFFFFFFFFFFFFFFFFFFFFFFFFFFFFFFFFFFFFFFF AND DUP2 MSTORE PUSH1 0x20 ADD SWAP1 DUP2 MSTORE PUSH1 0x20 ADD PUSH0 KECCAK256 PUSH1 0x3 ADD PUSH0 SWAP1 SLOAD SWAP1 PUSH2 0x100 EXP SWAP1 DIV PUSH1 0xFF AND PUSH2 0x558 JUMPI PUSH1 0x40 MLOAD PUSH32 0x8C379A000000000000000000000000000000000000000000000000000000000 DUP2 MSTORE PUSH1 0x4 ADD PUSH2 0x54F SWAP1 PUSH2 0x1533 JUMP JUMPDEST PUSH1 0x40 MLOAD DUP1 SWAP2 SUB SWAP1 REVERT JUMPDEST PUSH0 DUP2 GT PUSH2 0x59A JUMPI PUSH1 0x40 MLOAD PUSH32 0x8C379A000000000000000000000000000000000000000000000000000000000 DUP2 MSTORE PUSH1 0x4 ADD PUSH2 0x591 SWAP1 PUSH2 0x159B JUMP JUMPDEST PUSH1 0x40 MLOAD DUP1 SWAP2 SUB SWAP1 REVERT JUMPDEST DUP1 PUSH0 DUP1 CALLER PUSH20 0xFFFFFFFFFFFFFFFFFFFFFFFFFFFFFFFFFFFFFFFF AND PUSH20 0xFFFFFFFFFFFFFFFFFFFFFFFFFFFFFFFFFFFFFFFF AND DUP2 MSTORE PUSH1 0x20 ADD SWAP1 DUP2 MSTORE PUSH1 0x20 ADD PUSH0 KECCAK256 PUSH1 0x2 ADD SLOAD LT ISZERO PUSH2 0x61C JUMPI PUSH1 0x40 MLOAD PUSH32 0x8C379A000000000000000000000000000000000000000000000000000000000 DUP2 MSTORE PUSH1 0x4 ADD PUSH2 0x613 SWAP1 PUSH2 0x1629 JUMP JUMPDEST PUSH1 0x40 MLOAD DUP1 SWAP2 SUB SWAP1 REVERT JUMPDEST PUSH0 PUSH2 0x2710 PUSH1 0x3 SLOAD DUP4 PUSH2 0x62E SWAP2 SWAP1 PUSH2 0x1647 JUMP JUMPDEST PUSH2 0x638 SWAP2 SWAP1 PUSH2 0x16B5 JUMP JUMPDEST SWAP1 POP PUSH0 DUP2 DUP4 PUSH2 0x647 SWAP2 SWAP1 PUSH2 0x14B6 JUMP JUMPDEST SWAP1 POP DUP3 PUSH0 DUP1 CALLER PUSH20 0xFFFFFFFFFFFFFFFFFFFFFFFFFFFFFFFFFFFFFFFF AND PUSH20 0xFFFFFFFFFFFFFFFFFFFFFFFFFFFFFFFFFFFFFFFF AND DUP2 MSTORE PUSH1 0x20 ADD SWAP1 DUP2 MSTORE PUSH1 0x20 ADD PUSH0 KECCAK256 PUSH1 0x2 ADD PUSH0 DUP3 DUP3 SLOAD PUSH2 0x697 SWAP2 SWAP1 PUSH2 0x14B6 JUMP JUMPDEST SWAP3 POP POP DUP2 SWAP1 SSTORE POP DUP2 PUSH1 0x4 PUSH0 DUP3 DUP3 SLOAD PUSH2 0x6AF SWAP2 SWAP1 PUSH2 0x16E5 JUMP JUMPDEST SWAP3 POP POP DUP2 SWAP1 SSTORE POP CALLER PUSH20 0xFFFFFFFFFFFFFFFFFFFFFFFFFFFFFFFFFFFFFFFF AND PUSH2 0x8FC DUP3 SWAP1 DUP2 ISZERO MUL SWAP1 PUSH1 0x40 MLOAD PUSH0 PUSH1 0x40 MLOAD DUP1 DUP4 SUB DUP2 DUP6 DUP9 DUP9 CALL SWAP4 POP POP POP POP ISZERO DUP1 ISZERO PUSH2 0x6F9 JUMPI RETURNDATASIZE PUSH0 DUP1 RETURNDATACOPY RETURNDATASIZE PUSH0 REVERT JUMPDEST POP CALLER PUSH20 0xFFFFFFFFFFFFFFFFFFFFFFFFFFFFFFFFFFFFFFFF AND PUSH32 0xDF273CB619D95419A9CD0EC88123A0538C85064229BAA6363788F743FFF90DEB DUP5 DUP5 PUSH1 0x40 MLOAD PUSH2 0x742 SWAP3 SWAP2 SWAP1 PUSH2 0x1718 JUMP JUMPDEST PUSH1 0x40 MLOAD DUP1 SWAP2 SUB SWAP1 LOG2 POP POP POP JUMP JUMPDEST PUSH1 0x4 SLOAD DUP2 JUMP JUMPDEST PUSH0 DUP5 DUP5 SWAP1 POP GT PUSH2 0x79A JUMPI PUSH1 0x40 MLOAD PUSH32 0x8C379A000000000000000000000000000000000000000000000000000000000 DUP2 MSTORE PUSH1 0x4 ADD PUSH2 0x791 SWAP1 PUSH2 0x17AF JUMP JUMPDEST PUSH1 0x40 MLOAD DUP1 SWAP2 SUB SWAP1 REVERT JUMPDEST PUSH0 DUP3 DUP3 SWAP1 POP GT PUSH2 0x7DF JUMPI PUSH1 0x40 MLOAD PUSH32 0x8C379A000000000000000000000000000000000000000000000000000000000 DUP2 MSTORE PUSH1 0x4 ADD PUSH2 0x7D6 SWAP1 PUSH2 0x183D JUMP JUMPDEST PUSH1 0x40 MLOAD DUP1 SWAP2 SUB SWAP1 REVERT JUMPDEST PUSH0 DUP1 CALLER PUSH20 0xFFFFFFFFFFFFFFFFFFFFFFFFFFFFFFFFFFFFFFFF AND PUSH20 0xFFFFFFFFFFFFFFFFFFFFFFFFFFFFFFFFFFFFFFFF AND DUP2 MSTORE PUSH1 0x20 ADD SWAP1 DUP2 MSTORE PUSH1 0x20 ADD PUSH0 KECCAK256 PUSH1 0x3 ADD PUSH0 SWAP1 SLOAD SWAP1 PUSH2 0x100 EXP SWAP1 DIV PUSH1 0xFF AND ISZERO PUSH2 0x86B JUMPI PUSH1 0x40 MLOAD PUSH32 0x8C379A000000000000000000000000000000000000000000000000000000000 DUP2 MSTORE PUSH1 0x4 ADD PUSH2 0x862 SWAP1 PUSH2 0x18A5 JUMP JUMPDEST PUSH1 0x40 MLOAD DUP1 SWAP2 SUB SWAP1 REVERT JUMPDEST PUSH1 0x40 MLOAD DUP1 PUSH1 0x80 ADD PUSH1 0x40 MSTORE DUP1 DUP6 DUP6 DUP1 DUP1 PUSH1 0x1F ADD PUSH1 0x20 DUP1 SWAP2 DIV MUL PUSH1 0x20 ADD PUSH1 0x40 MLOAD SWAP1 DUP2 ADD PUSH1 0x40 MSTORE DUP1 SWAP4 SWAP3 SWAP2 SWAP1 DUP2 DUP2 MSTORE PUSH1 0x20 ADD DUP4 DUP4 DUP1 DUP3 DUP5 CALLDATACOPY PUSH0 DUP2 DUP5 ADD MSTORE PUSH1 0x1F NOT PUSH1 0x1F DUP3 ADD AND SWAP1 POP DUP1 DUP4 ADD SWAP3 POP POP POP POP POP POP POP DUP2 MSTORE PUSH1 0x20 ADD DUP4 DUP4 DUP1 DUP1 PUSH1 0x1F ADD PUSH1 0x20 DUP1 SWAP2 DIV MUL PUSH1 0x20 ADD PUSH1 0x40 MLOAD SWAP1 DUP2 ADD PUSH1 0x40 MSTORE DUP1 SWAP4 SWAP3 SWAP2 SWAP1 DUP2 DUP2 MSTORE PUSH1 0x20 ADD DUP4 DUP4 DUP1 DUP3 DUP5 CALLDATACOPY PUSH0 DUP2 DUP5 ADD MSTORE PUSH1 0x1F NOT PUSH1 0x1F DUP3 ADD AND SWAP1 POP DUP1 DUP4 ADD SWAP3 POP POP POP POP POP POP POP DUP2 MSTORE PUSH1 0x20 ADD PUSH0 DUP2 MSTORE PUSH1 0x20 ADD PUSH1 0x1 ISZERO ISZERO DUP2 MSTORE POP PUSH0 DUP1 CALLER PUSH20 0xFFFFFFFFFFFFFFFFFFFFFFFFFFFFFFFFFFFFFFFF AND PUSH20 0xFFFFFFFFFFFFFFFFFFFFFFFFFFFFFFFFFFFFFFFF AND DUP2 MSTORE PUSH1 0x20 ADD SWAP1 DUP2 MSTORE PUSH1 0x20 ADD PUSH0 KECCAK256 PUSH0 DUP3 ADD MLOAD DUP2 PUSH0 ADD SWAP1 DUP2 PUSH2 0x964 SWAP2 SWAP1 PUSH2 0x1AEA JUMP JUMPDEST POP PUSH1 0x20 DUP3 ADD MLOAD DUP2 PUSH1 0x1 ADD SWAP1 DUP2 PUSH2 0x97A SWAP2 SWAP1 PUSH2 0x1AEA JUMP JUMPDEST POP PUSH1 0x40 DUP3 ADD MLOAD DUP2 PUSH1 0x2 ADD SSTORE PUSH1 0x60 DUP3 ADD MLOAD DUP2 PUSH1 0x3 ADD PUSH0 PUSH2 0x100 EXP DUP2 SLOAD DUP2 PUSH1 0xFF MUL NOT AND SWAP1 DUP4 ISZERO ISZERO MUL OR SWAP1 SSTORE POP SWAP1 POP POP CALLER PUSH20 0xFFFFFFFFFFFFFFFFFFFFFFFFFFFFFFFFFFFFFFFF AND PUSH32 0x92822564BAB8864C3A47B34E8D23FBCE5C46234EB5DA261F94087B995AC0F33B DUP6 DUP6 DUP6 DUP6 PUSH1 0x40 MLOAD PUSH2 0x9F3 SWAP5 SWAP4 SWAP3 SWAP2 SWAP1 PUSH2 0x1BF3 JUMP JUMPDEST PUSH1 0x40 MLOAD DUP1 SWAP2 SUB SWAP1 LOG2 POP POP POP POP JUMP JUMPDEST PUSH1 0x2 PUSH0 SWAP1 SLOAD SWAP1 PUSH2 0x100 EXP SWAP1 DIV PUSH20 0xFFFFFFFFFFFFFFFFFFFFFFFFFFFFFFFFFFFFFFFF AND DUP2 JUMP JUMPDEST PUSH1 0x1 PUSH0 SWAP1 SLOAD SWAP1 PUSH2 0x100 EXP SWAP1 DIV PUSH20 0xFFFFFFFFFFFFFFFFFFFFFFFFFFFFFFFFFFFFFFFF AND DUP2 JUMP JUMPDEST PUSH0 PUSH1 0x20 MSTORE DUP1 PUSH0 MSTORE PUSH1 0x40 PUSH0 KECCAK256 PUSH0 SWAP2 POP SWAP1 POP DUP1 PUSH0 ADD DUP1 SLOAD PUSH2 0xA69 SWAP1 PUSH2 0x191D JUMP JUMPDEST DUP1 PUSH1 0x1F ADD PUSH1 0x20 DUP1 SWAP2 DIV MUL PUSH1 0x20 ADD PUSH1 0x40 MLOAD SWAP1 DUP2 ADD PUSH1 0x40 MSTORE DUP1 SWAP3 SWAP2 SWAP1 DUP2 DUP2 MSTORE PUSH1 0x20 ADD DUP3 DUP1 SLOAD PUSH2 0xA95 SWAP1 PUSH2 0x191D JUMP JUMPDEST DUP1 ISZERO PUSH2 0xAE0 JUMPI DUP1 PUSH1 0x1F LT PUSH2 0xAB7 JUMPI PUSH2 0x100 DUP1 DUP4 SLOAD DIV MUL DUP4 MSTORE SWAP2 PUSH1 0x20 ADD SWAP2 PUSH2 0xAE0 JUMP JUMPDEST DUP3 ADD SWAP2 SWAP1 PUSH0 MSTORE PUSH1 0x20 PUSH0 KECCAK256 SWAP1 JUMPDEST DUP2 SLOAD DUP2 MSTORE SWAP1 PUSH1 0x1 ADD SWAP1 PUSH1 0x20 ADD DUP1 DUP4 GT PUSH2 0xAC3 JUMPI DUP3 SWAP1 SUB PUSH1 0x1F AND DUP3 ADD SWAP2 JUMPDEST POP POP POP POP POP SWAP1 DUP1 PUSH1 0x1 ADD DUP1 SLOAD PUSH2 0xAF5 SWAP1 PUSH2 0x191D JUMP JUMPDEST DUP1 PUSH1 0x1F ADD PUSH1 0x20 DUP1 SWAP2 DIV MUL PUSH1 0x20 ADD PUSH1 0x40 MLOAD SWAP1 DUP2 ADD PUSH1 0x40 MSTORE DUP1 SWAP3 SWAP2 SWAP1 DUP2 DUP2 MSTORE PUSH1 0x20 ADD DUP3 DUP1 SLOAD PUSH2 0xB21 SWAP1 PUSH2 0x191D JUMP JUMPDEST DUP1 ISZERO PUSH2 0xB6C JUMPI DUP1 PUSH1 0x1F LT PUSH2 0xB43 JUMPI PUSH2 0x100 DUP1 DUP4 SLOAD DIV MUL DUP4 MSTORE SWAP2 PUSH1 0x20 ADD SWAP2 PUSH2 0xB6C JUMP JUMPDEST DUP3 ADD SWAP2 SWAP1 PUSH0 MSTORE PUSH1 0x20 PUSH0 KECCAK256 SWAP1 JUMPDEST DUP2 SLOAD DUP2 MSTORE SWAP1 PUSH1 0x1 ADD SWAP1 PUSH1 0x20 ADD DUP1 DUP4 GT PUSH2 0xB4F JUMPI DUP3 SWAP1 SUB PUSH1 0x1F AND DUP3 ADD SWAP2 JUMPDEST POP POP POP POP POP SWAP1 DUP1 PUSH1 0x2 ADD SLOAD SWAP1 DUP1 PUSH1 0x3 ADD PUSH0 SWAP1 SLOAD SWAP1 PUSH2 0x100 EXP SWAP1 DIV PUSH1 0xFF AND SWAP1 POP DUP5 JUMP JUMPDEST PUSH0 DUP1 CALLER PUSH20 0xFFFFFFFFFFFFFFFFFFFFFFFFFFFFFFFFFFFFFFFF AND PUSH20 0xFFFFFFFFFFFFFFFFFFFFFFFFFFFFFFFFFFFFFFFF AND DUP2 MSTORE PUSH1 0x20 ADD SWAP1 DUP2 MSTORE PUSH1 0x20 ADD PUSH0 KECCAK256 PUSH1 0x3 ADD PUSH0 SWAP1 SLOAD SWAP1 PUSH2 0x100 EXP SWAP1 DIV PUSH1 0xFF AND PUSH2 0xC19 JUMPI PUSH1 0x40 MLOAD PUSH32 0x8C379A000000000000000000000000000000000000000000000000000000000 DUP2 MSTORE PUSH1 0x4 ADD PUSH2 0xC10 SWAP1 PUSH2 0x1533 JUMP JUMPDEST PUSH1 0x40 MLOAD DUP1 SWAP2 SUB SWAP1 REVERT JUMPDEST PUSH0 DUP1 DUP4 PUSH20 0xFFFFFFFFFFFFFFFFFFFFFFFFFFFFFFFFFFFFFFFF AND PUSH20 0xFFFFFFFFFFFFFFFFFFFFFFFFFFFFFFFFFFFFFFFF AND DUP2 MSTORE PUSH1 0x20 ADD SWAP1 DUP2 MSTORE PUSH1 0x20 ADD PUSH0 KECCAK256 PUSH1 0x3 ADD PUSH0 SWAP1 SLOAD SWAP1 PUSH2 0x100 EXP SWAP1 DIV PUSH1 0xFF AND PUSH2 0xCA4 JUMPI PUSH1 0x40 MLOAD PUSH32 0x8C379A000000000000000000000000000000000000000000000000000000000 DUP2 MSTORE PUSH1 0x4 ADD PUSH2 0xC9B SWAP1 PUSH2 0x1C9C JUMP JUMPDEST PUSH1 0x40 MLOAD DUP1 SWAP2 SUB SWAP1 REVERT JUMPDEST PUSH0 DUP2 GT PUSH2 0xCE6 JUMPI PUSH1 0x40 MLOAD PUSH32 0x8C379A000000000000000000000000000000000000000000000000000000000 DUP2 MSTORE PUSH1 0x4 ADD PUSH2 0xCDD SWAP1 PUSH2 0x159B JUMP JUMPDEST PUSH1 0x40 MLOAD DUP1 SWAP2 SUB SWAP1 REVERT JUMPDEST PUSH0 PUSH2 0x2710 PUSH1 0x3 SLOAD DUP4 PUSH2 0xCF8 SWAP2 SWAP1 PUSH2 0x1647 JUMP JUMPDEST PUSH2 0xD02 SWAP2 SWAP1 PUSH2 0x16B5 JUMP JUMPDEST SWAP1 POP PUSH0 DUP2 DUP4 PUSH2 0xD11 SWAP2 SWAP1 PUSH2 0x16E5 JUMP JUMPDEST SWAP1 POP DUP1 PUSH0 DUP1 CALLER PUSH20 0xFFFFFFFFFFFFFFFFFFFFFFFFFFFFFFFFFFFFFFFF AND PUSH20 0xFFFFFFFFFFFFFFFFFFFFFFFFFFFFFFFFFFFFFFFF AND DUP2 MSTORE PUSH1 0x20 ADD SWAP1 DUP2 MSTORE PUSH1 0x20 ADD PUSH0 KECCAK256 PUSH1 0x2 ADD SLOAD LT ISZERO PUSH2 0xD95 JUMPI PUSH1 0x40 MLOAD PUSH32 0x8C379A000000000000000000000000000000000000000000000000000000000 DUP2 MSTORE PUSH1 0x4 ADD PUSH2 0xD8C SWAP1 PUSH2 0x1629 JUMP JUMPDEST PUSH1 0x40 MLOAD DUP1 SWAP2 SUB SWAP1 REVERT JUMPDEST DUP1 PUSH0 DUP1 CALLER PUSH20 0xFFFFFFFFFFFFFFFFFFFFFFFFFFFFFFFFFFFFFFFF AND PUSH20 0xFFFFFFFFFFFFFFFFFFFFFFFFFFFFFFFFFFFFFFFF AND DUP2 MSTORE PUSH1 0x20 ADD SWAP1 DUP2 MSTORE PUSH1 0x20 ADD PUSH0 KECCAK256 PUSH1 0x2 ADD PUSH0 DUP3 DUP3 SLOAD PUSH2 0xDE3 SWAP2 SWAP1 PUSH2 0x14B6 JUMP JUMPDEST SWAP3 POP POP DUP2 SWAP1 SSTORE POP DUP3 PUSH0 DUP1 DUP7 PUSH20 0xFFFFFFFFFFFFFFFFFFFFFFFFFFFFFFFFFFFFFFFF AND PUSH20 0xFFFFFFFFFFFFFFFFFFFFFFFFFFFFFFFFFFFFFFFF AND DUP2 MSTORE PUSH1 0x20 ADD SWAP1 DUP2 MSTORE PUSH1 0x20 ADD PUSH0 KECCAK256 PUSH1 0x2 ADD PUSH0 DUP3 DUP3 SLOAD PUSH2 0xE38 SWAP2 SWAP1 PUSH2 0x16E5 JUMP JUMPDEST SWAP3 POP POP DUP2 SWAP1 SSTORE POP DUP2 PUSH1 0x4 PUSH0 DUP3 DUP3 SLOAD PUSH2 0xE50 SWAP2 SWAP1 PUSH2 0x16E5 JUMP JUMPDEST SWAP3 POP POP DUP2 SWAP1 SSTORE POP DUP4 PUSH20 0xFFFFFFFFFFFFFFFFFFFFFFFFFFFFFFFFFFFFFFFF AND CALLER PUSH20 0xFFFFFFFFFFFFFFFFFFFFFFFFFFFFFFFFFFFFFFFF AND PUSH32 0xDDF252AD1BE2C89B69C2B068FC378DAA952BA7F163C4A11628F55A4DF523B3EF DUP6 PUSH1 0x40 MLOAD PUSH2 0xEB4 SWAP2 SWAP1 PUSH2 0x10AF JUMP JUMPDEST PUSH1 0x40 MLOAD DUP1 SWAP2 SUB SWAP1 LOG3 POP POP POP POP JUMP JUMPDEST PUSH0 DUP1 CALLER PUSH20 0xFFFFFFFFFFFFFFFFFFFFFFFFFFFFFFFFFFFFFFFF AND PUSH20 0xFFFFFFFFFFFFFFFFFFFFFFFFFFFFFFFFFFFFFFFF AND DUP2 MSTORE PUSH1 0x20 ADD SWAP1 DUP2 MSTORE PUSH1 0x20 ADD PUSH0 KECCAK256 PUSH1 0x3 ADD PUSH0 SWAP1 SLOAD SWAP1 PUSH2 0x100 EXP SWAP1 DIV PUSH1 0xFF AND PUSH2 0xF4D JUMPI PUSH1 0x40 MLOAD PUSH32 0x8C379A000000000000000000000000000000000000000000000000000000000 DUP2 MSTORE PUSH1 0x4 ADD PUSH2 0xF44 SWAP1 PUSH2 0x1533 JUMP JUMPDEST PUSH1 0x40 MLOAD DUP1 SWAP2 SUB SWAP1 REVERT JUMPDEST PUSH0 CALLVALUE GT PUSH2 0xF8F JUMPI PUSH1 0x40 MLOAD PUSH32 0x8C379A000000000000000000000000000000000000000000000000000000000 DUP2 MSTORE PUSH1 0x4 ADD PUSH2 0xF86 SWAP1 PUSH2 0x159B JUMP JUMPDEST PUSH1 0x40 MLOAD DUP1 SWAP2 SUB SWAP1 REVERT JUMPDEST CALLVALUE PUSH0 DUP1 CALLER PUSH20 0xFFFFFFFFFFFFFFFFFFFFFFFFFFFFFFFFFFFFFFFF AND PUSH20 0xFFFFFFFFFFFFFFFFFFFFFFFFFFFFFFFFFFFFFFFF AND DUP2 MSTORE PUSH1 0x20 ADD SWAP1 DUP2 MSTORE PUSH1 0x20 ADD PUSH0 KECCAK256 PUSH1 0x2 ADD PUSH0 DUP3 DUP3 SLOAD PUSH2 0xFDD SWAP2 SWAP1 PUSH2 0x16E5 JUMP JUMPDEST SWAP3 POP POP DUP2 SWAP1 SSTORE POP CALLER PUSH20 0xFFFFFFFFFFFFFFFFFFFFFFFFFFFFFFFFFFFFFFFF AND PUSH32 0xE1FFFCC4923D04B559F4D29A8BFC6CDA04EB5B0D3C460751C2402C5C5CC9109C CALLVALUE PUSH1 0x40 MLOAD PUSH2 0x102A SWAP2 SWAP1 PUSH2 0x10AF JUMP JUMPDEST PUSH1 0x40 MLOAD DUP1 SWAP2 SUB SWAP1 LOG2 JUMP JUMPDEST PUSH1 0x3 SLOAD DUP2 JUMP JUMPDEST PUSH0 DUP1 REVERT JUMPDEST PUSH0 DUP1 REVERT JUMPDEST PUSH0 DUP2 SWAP1 POP SWAP2 SWAP1 POP JUMP JUMPDEST PUSH2 0x1054 DUP2 PUSH2 0x1042 JUMP JUMPDEST DUP2 EQ PUSH2 0x105E JUMPI PUSH0 DUP1 REVERT JUMPDEST POP JUMP JUMPDEST PUSH0 DUP2 CALLDATALOAD SWAP1 POP PUSH2 0x106F DUP2 PUSH2 0x104B JUMP JUMPDEST SWAP3 SWAP2 POP POP JUMP JUMPDEST PUSH0 PUSH1 0x20 DUP3 DUP5 SUB SLT ISZERO PUSH2 0x108A JUMPI PUSH2 0x1089 PUSH2 0x103A JUMP JUMPDEST JUMPDEST PUSH0 PUSH2 0x1097 DUP5 DUP3 DUP6 ADD PUSH2 0x1061 JUMP JUMPDEST SWAP2 POP POP SWAP3 SWAP2 POP POP JUMP JUMPDEST PUSH2 0x10A9 DUP2 PUSH2 0x1042 JUMP JUMPDEST DUP3 MSTORE POP POP JUMP JUMPDEST PUSH0 PUSH1 0x20 DUP3 ADD SWAP1 POP PUSH2 0x10C2 PUSH0 DUP4 ADD DUP5 PUSH2 0x10A0 JUMP JUMPDEST SWAP3 SWAP2 POP POP JUMP JUMPDEST PUSH0 DUP1 REVERT JUMPDEST PUSH0 DUP1 REVERT JUMPDEST PUSH0 DUP1 REVERT JUMPDEST PUSH0 DUP1 DUP4 PUSH1 0x1F DUP5 ADD SLT PUSH2 0x10E9 JUMPI PUSH2 0x10E8 PUSH2 0x10C8 JUMP JUMPDEST JUMPDEST DUP3 CALLDATALOAD SWAP1 POP PUSH8 0xFFFFFFFFFFFFFFFF DUP2 GT ISZERO PUSH2 0x1106 JUMPI PUSH2 0x1105 PUSH2 0x10CC JUMP JUMPDEST JUMPDEST PUSH1 0x20 DUP4 ADD SWAP2 POP DUP4 PUSH1 0x1 DUP3 MUL DUP4 ADD GT ISZERO PUSH2 0x1122 JUMPI PUSH2 0x1121 PUSH2 0x10D0 JUMP JUMPDEST JUMPDEST SWAP3 POP SWAP3 SWAP1 POP JUMP JUMPDEST PUSH0 DUP1 PUSH0 DUP1 PUSH1 0x40 DUP6 DUP8 SUB SLT ISZERO PUSH2 0x1141 JUMPI PUSH2 0x1140 PUSH2 0x103A JUMP JUMPDEST JUMPDEST PUSH0 DUP6 ADD CALLDATALOAD PUSH8 0xFFFFFFFFFFFFFFFF DUP2 GT ISZERO PUSH2 0x115E JUMPI PUSH2 0x115D PUSH2 0x103E JUMP JUMPDEST JUMPDEST PUSH2 0x116A DUP8 DUP3 DUP9 ADD PUSH2 0x10D4 JUMP JUMPDEST SWAP5 POP SWAP5 POP POP PUSH1 0x20 DUP6 ADD CALLDATALOAD PUSH8 0xFFFFFFFFFFFFFFFF DUP2 GT ISZERO PUSH2 0x118D JUMPI PUSH2 0x118C PUSH2 0x103E JUMP JUMPDEST JUMPDEST PUSH2 0x1199 DUP8 DUP3 DUP9 ADD PUSH2 0x10D4 JUMP JUMPDEST SWAP3 POP SWAP3 POP POP SWAP3 SWAP6 SWAP2 SWAP5 POP SWAP3 POP JUMP JUMPDEST PUSH0 PUSH20 0xFFFFFFFFFFFFFFFFFFFFFFFFFFFFFFFFFFFFFFFF DUP3 AND SWAP1 POP SWAP2 SWAP1 POP JUMP JUMPDEST PUSH0 PUSH2 0x11D0 DUP3 PUSH2 0x11A7 JUMP JUMPDEST SWAP1 POP SWAP2 SWAP1 POP JUMP JUMPDEST PUSH2 0x11E0 DUP2 PUSH2 0x11C6 JUMP JUMPDEST DUP3 MSTORE POP POP JUMP JUMPDEST PUSH0 PUSH1 0x20 DUP3 ADD SWAP1 POP PUSH2 0x11F9 PUSH0 DUP4 ADD DUP5 PUSH2 0x11D7 JUMP JUMPDEST SWAP3 SWAP2 POP POP JUMP JUMPDEST PUSH2 0x1208 DUP2 PUSH2 0x11C6 JUMP JUMPDEST DUP2 EQ PUSH2 0x1212 JUMPI PUSH0 DUP1 REVERT JUMPDEST POP JUMP JUMPDEST PUSH0 DUP2 CALLDATALOAD SWAP1 POP PUSH2 0x1223 DUP2 PUSH2 0x11FF JUMP JUMPDEST SWAP3 SWAP2 POP POP JUMP JUMPDEST PUSH0 PUSH1 0x20 DUP3 DUP5 SUB SLT ISZERO PUSH2 0x123E JUMPI PUSH2 0x123D PUSH2 0x103A JUMP JUMPDEST JUMPDEST PUSH0 PUSH2 0x124B DUP5 DUP3 DUP6 ADD PUSH2 0x1215 JUMP JUMPDEST SWAP2 POP POP SWAP3 SWAP2 POP POP JUMP JUMPDEST PUSH0 DUP2 MLOAD SWAP1 POP SWAP2 SWAP1 POP JUMP JUMPDEST PUSH0 DUP3 DUP3 MSTORE PUSH1 0x20 DUP3 ADD SWAP1 POP SWAP3 SWAP2 POP POP JUMP JUMPDEST DUP3 DUP2 DUP4 MCOPY PUSH0 DUP4 DUP4 ADD MSTORE POP POP POP JUMP JUMPDEST PUSH0 PUSH1 0x1F NOT PUSH1 0x1F DUP4 ADD AND SWAP1 POP SWAP2 SWAP1 POP JUMP JUMPDEST PUSH0 PUSH2 0x1296 DUP3 PUSH2 0x1254 JUMP JUMPDEST PUSH2 0x12A0 DUP2 DUP6 PUSH2 0x125E JUMP JUMPDEST SWAP4 POP PUSH2 0x12B0 DUP2 DUP6 PUSH1 0x20 DUP7 ADD PUSH2 0x126E JUMP JUMPDEST PUSH2 0x12B9 DUP2 PUSH2 0x127C JUMP JUMPDEST DUP5 ADD SWAP2 POP POP SWAP3 SWAP2 POP POP JUMP JUMPDEST PUSH0 DUP2 ISZERO ISZERO SWAP1 POP SWAP2 SWAP1 POP JUMP JUMPDEST PUSH2 0x12D8 DUP2 PUSH2 0x12C4 JUMP JUMPDEST DUP3 MSTORE POP POP JUMP JUMPDEST PUSH0 PUSH1 0x80 DUP3 ADD SWAP1 POP DUP2 DUP2 SUB PUSH0 DUP4 ADD MSTORE PUSH2 0x12F6 DUP2 DUP8 PUSH2 0x128C JUMP JUMPDEST SWAP1 POP DUP2 DUP2 SUB PUSH1 0x20 DUP4 ADD MSTORE PUSH2 0x130A DUP2 DUP7 PUSH2 0x128C JUMP JUMPDEST SWAP1 POP PUSH2 0x1319 PUSH1 0x40 DUP4 ADD DUP6 PUSH2 0x10A0 JUMP JUMPDEST PUSH2 0x1326 PUSH1 0x60 DUP4 ADD DUP5 PUSH2 0x12CF JUMP JUMPDEST SWAP6 SWAP5 POP POP POP POP POP JUMP JUMPDEST PUSH0 DUP1 PUSH1 0x40 DUP4 DUP6 SUB SLT ISZERO PUSH2 0x1345 JUMPI PUSH2 0x1344 PUSH2 0x103A JUMP JUMPDEST JUMPDEST PUSH0 PUSH2 0x1352 DUP6 DUP3 DUP7 ADD PUSH2 0x1215 JUMP JUMPDEST SWAP3 POP POP PUSH1 0x20 PUSH2 0x1363 DUP6 DUP3 DUP7 ADD PUSH2 0x1061 JUMP JUMPDEST SWAP2 POP POP SWAP3 POP SWAP3 SWAP1 POP JUMP JUMPDEST PUSH32 0x536F6C6F20656C207573756172696F207075656465206C6C616D617220612065 PUSH0 DUP3 ADD MSTORE PUSH32 0x7374612066756E63696F6E000000000000000000000000000000000000000000 PUSH1 0x20 DUP3 ADD MSTORE POP JUMP JUMPDEST PUSH0 PUSH2 0x13C7 PUSH1 0x2B DUP4 PUSH2 0x125E JUMP JUMPDEST SWAP2 POP PUSH2 0x13D2 DUP3 PUSH2 0x136D JUMP JUMPDEST PUSH1 0x40 DUP3 ADD SWAP1 POP SWAP2 SWAP1 POP JUMP JUMPDEST PUSH0 PUSH1 0x20 DUP3 ADD SWAP1 POP DUP2 DUP2 SUB PUSH0 DUP4 ADD MSTORE PUSH2 0x13F4 DUP2 PUSH2 0x13BB JUMP JUMPDEST SWAP1 POP SWAP2 SWAP1 POP JUMP JUMPDEST PUSH32 0x53616C646F20696E737566696369656E746520656E207465736F726572696120 PUSH0 DUP3 ADD MSTORE PUSH32 0x70617261206C61206F7065726163696F6E20736F6C6963697461646100000000 PUSH1 0x20 DUP3 ADD MSTORE POP JUMP JUMPDEST PUSH0 PUSH2 0x1455 PUSH1 0x3C DUP4 PUSH2 0x125E JUMP JUMPDEST SWAP2 POP PUSH2 0x1460 DUP3 PUSH2 0x13FB JUMP JUMPDEST PUSH1 0x40 DUP3 ADD SWAP1 POP SWAP2 SWAP1 POP JUMP JUMPDEST PUSH0 PUSH1 0x20 DUP3 ADD SWAP1 POP DUP2 DUP2 SUB PUSH0 DUP4 ADD MSTORE PUSH2 0x1482 DUP2 PUSH2 0x1449 JUMP JUMPDEST SWAP1 POP SWAP2 SWAP1 POP JUMP JUMPDEST PUSH32 0x4E487B7100000000000000000000000000000000000000000000000000000000 PUSH0 MSTORE PUSH1 0x11 PUSH1 0x4 MSTORE PUSH1 0x24 PUSH0 REVERT JUMPDEST PUSH0 PUSH2 0x14C0 DUP3 PUSH2 0x1042 JUMP JUMPDEST SWAP2 POP PUSH2 0x14CB DUP4 PUSH2 0x1042 JUMP JUMPDEST SWAP3 POP DUP3 DUP3 SUB SWAP1 POP DUP2 DUP2 GT ISZERO PUSH2 0x14E3 JUMPI PUSH2 0x14E2 PUSH2 0x1489 JUMP JUMPDEST JUMPDEST SWAP3 SWAP2 POP POP JUMP JUMPDEST PUSH32 0x456C207573756172696F206E6F2065737461207265676973747261646F000000 PUSH0 DUP3 ADD MSTORE POP JUMP JUMPDEST PUSH0 PUSH2 0x151D PUSH1 0x1D DUP4 PUSH2 0x125E JUMP JUMPDEST SWAP2 POP PUSH2 0x1528 DUP3 PUSH2 0x14E9 JUMP JUMPDEST PUSH1 0x20 DUP3 ADD SWAP1 POP SWAP2 SWAP1 POP JUMP JUMPDEST PUSH0 PUSH1 0x20 DUP3 ADD SWAP1 POP DUP2 DUP2 SUB PUSH0 DUP4 ADD MSTORE PUSH2 0x154A DUP2 PUSH2 0x1511 JUMP JUMPDEST SWAP1 POP SWAP2 SWAP1 POP JUMP JUMPDEST PUSH32 0x4465626520696E67726573617220756E612063616E7469646164000000000000 PUSH0 DUP3 ADD MSTORE POP JUMP JUMPDEST PUSH0 PUSH2 0x1585 PUSH1 0x1A DUP4 PUSH2 0x125E JUMP JUMPDEST SWAP2 POP PUSH2 0x1590 DUP3 PUSH2 0x1551 JUMP JUMPDEST PUSH1 0x20 DUP3 ADD SWAP1 POP SWAP2 SWAP1 POP JUMP JUMPDEST PUSH0 PUSH1 0x20 DUP3 ADD SWAP1 POP DUP2 DUP2 SUB PUSH0 DUP4 ADD MSTORE PUSH2 0x15B2 DUP2 PUSH2 0x1579 JUMP JUMPDEST SWAP1 POP SWAP2 SWAP1 POP JUMP JUMPDEST PUSH32 0x53616C646F20696E737566696369656E74652070617261206C61206F70657261 PUSH0 DUP3 ADD MSTORE PUSH32 0x63696F6E20736F6C696369746164610000000000000000000000000000000000 PUSH1 0x20 DUP3 ADD MSTORE POP JUMP JUMPDEST PUSH0 PUSH2 0x1613 PUSH1 0x2F DUP4 PUSH2 0x125E JUMP JUMPDEST SWAP2 POP PUSH2 0x161E DUP3 PUSH2 0x15B9 JUMP JUMPDEST PUSH1 0x40 DUP3 ADD SWAP1 POP SWAP2 SWAP1 POP JUMP JUMPDEST PUSH0 PUSH1 0x20 DUP3 ADD SWAP1 POP DUP2 DUP2 SUB PUSH0 DUP4 ADD MSTORE PUSH2 0x1640 DUP2 PUSH2 0x1607 JUMP JUMPDEST SWAP1 POP SWAP2 SWAP1 POP JUMP JUMPDEST PUSH0 PUSH2 0x1651 DUP3 PUSH2 0x1042 JUMP JUMPDEST SWAP2 POP PUSH2 0x165C DUP4 PUSH2 0x1042 JUMP JUMPDEST SWAP3 POP DUP3 DUP3 MUL PUSH2 0x166A DUP2 PUSH2 0x1042 JUMP JUMPDEST SWAP2 POP DUP3 DUP3 DIV DUP5 EQ DUP4 ISZERO OR PUSH2 0x1681 JUMPI PUSH2 0x1680 PUSH2 0x1489 JUMP JUMPDEST JUMPDEST POP SWAP3 SWAP2 POP POP JUMP JUMPDEST PUSH32 0x4E487B7100000000000000000000000000000000000000000000000000000000 PUSH0 MSTORE PUSH1 0x12 PUSH1 0x4 MSTORE PUSH1 0x24 PUSH0 REVERT JUMPDEST PUSH0 PUSH2 0x16BF DUP3 PUSH2 0x1042 JUMP JUMPDEST SWAP2 POP PUSH2 0x16CA DUP4 PUSH2 0x1042 JUMP JUMPDEST SWAP3 POP DUP3 PUSH2 0x16DA JUMPI PUSH2 0x16D9 PUSH2 0x1688 JUMP JUMPDEST JUMPDEST DUP3 DUP3 DIV SWAP1 POP SWAP3 SWAP2 POP POP JUMP JUMPDEST PUSH0 PUSH2 0x16EF DUP3 PUSH2 0x1042 JUMP JUMPDEST SWAP2 POP PUSH2 0x16FA DUP4 PUSH2 0x1042 JUMP JUMPDEST SWAP3 POP DUP3 DUP3 ADD SWAP1 POP DUP1 DUP3 GT ISZERO PUSH2 0x1712 JUMPI PUSH2 0x1711 PUSH2 0x1489 JUMP JUMPDEST JUMPDEST SWAP3 SWAP2 POP POP JUMP JUMPDEST PUSH0 PUSH1 0x40 DUP3 ADD SWAP1 POP PUSH2 0x172B PUSH0 DUP4 ADD DUP6 PUSH2 0x10A0 JUMP JUMPDEST PUSH2 0x1738 PUSH1 0x20 DUP4 ADD DUP5 PUSH2 0x10A0 JUMP JUMPDEST SWAP4 SWAP3 POP POP POP JUMP JUMPDEST PUSH32 0x4573206F626C696761746F72696F20696E67726573617220656C207072696D65 PUSH0 DUP3 ADD MSTORE PUSH32 0x72206E6F6D627265000000000000000000000000000000000000000000000000 PUSH1 0x20 DUP3 ADD MSTORE POP JUMP JUMPDEST PUSH0 PUSH2 0x1799 PUSH1 0x28 DUP4 PUSH2 0x125E JUMP JUMPDEST SWAP2 POP PUSH2 0x17A4 DUP3 PUSH2 0x173F JUMP JUMPDEST PUSH1 0x40 DUP3 ADD SWAP1 POP SWAP2 SWAP1 POP JUMP JUMPDEST PUSH0 PUSH1 0x20 DUP3 ADD SWAP1 POP DUP2 DUP2 SUB PUSH0 DUP4 ADD MSTORE PUSH2 0x17C6 DUP2 PUSH2 0x178D JUMP JUMPDEST SWAP1 POP SWAP2 SWAP1 POP JUMP JUMPDEST PUSH32 0x4573206F626C696761746F72696F20696E67726573617220656C206170656C6C PUSH0 DUP3 ADD MSTORE PUSH32 0x69646F0000000000000000000000000000000000000000000000000000000000 PUSH1 0x20 DUP3 ADD MSTORE POP JUMP JUMPDEST PUSH0 PUSH2 0x1827 PUSH1 0x23 DUP4 PUSH2 0x125E JUMP JUMPDEST SWAP2 POP PUSH2 0x1832 DUP3 PUSH2 0x17CD JUMP JUMPDEST PUSH1 0x40 DUP3 ADD SWAP1 POP SWAP2 SWAP1 POP JUMP JUMPDEST PUSH0 PUSH1 0x20 DUP3 ADD SWAP1 POP DUP2 DUP2 SUB PUSH0 DUP4 ADD MSTORE PUSH2 0x1854 DUP2 PUSH2 0x181B JUMP JUMPDEST SWAP1 POP SWAP2 SWAP1 POP JUMP JUMPDEST PUSH32 0x456C207573756172696F2079612065737461207265676973747261646F000000 PUSH0 DUP3 ADD MSTORE POP JUMP JUMPDEST PUSH0 PUSH2 0x188F PUSH1 0x1D DUP4 PUSH2 0x125E JUMP JUMPDEST SWAP2 POP PUSH2 0x189A DUP3 PUSH2 0x185B JUMP JUMPDEST PUSH1 0x20 DUP3 ADD SWAP1 POP SWAP2 SWAP1 POP JUMP JUMPDEST PUSH0 PUSH1 0x20 DUP3 ADD SWAP1 POP DUP2 DUP2 SUB PUSH0 DUP4 ADD MSTORE PUSH2 0x18BC DUP2 PUSH2 0x1883 JUMP JUMPDEST SWAP1 POP SWAP2 SWAP1 POP JUMP JUMPDEST PUSH32 0x4E487B7100000000000000000000000000000000000000000000000000000000 PUSH0 MSTORE PUSH1 0x41 PUSH1 0x4 MSTORE PUSH1 0x24 PUSH0 REVERT JUMPDEST PUSH32 0x4E487B7100000000000000000000000000000000000000000000000000000000 PUSH0 MSTORE PUSH1 0x22 PUSH1 0x4 MSTORE PUSH1 0x24 PUSH0 REVERT JUMPDEST PUSH0 PUSH1 0x2 DUP3 DIV SWAP1 POP PUSH1 0x1 DUP3 AND DUP1 PUSH2 0x1934 JUMPI PUSH1 0x7F DUP3 AND SWAP2 POP JUMPDEST PUSH1 0x20 DUP3 LT DUP2 SUB PUSH2 0x1947 JUMPI PUSH2 0x1946 PUSH2 0x18F0 JUMP JUMPDEST JUMPDEST POP SWAP2 SWAP1 POP JUMP JUMPDEST PUSH0 DUP2 SWAP1 POP DUP2 PUSH0 MSTORE PUSH1 0x20 PUSH0 KECCAK256 SWAP1 POP SWAP2 SWAP1 POP JUMP JUMPDEST PUSH0 PUSH1 0x20 PUSH1 0x1F DUP4 ADD DIV SWAP1 POP SWAP2 SWAP1 POP JUMP JUMPDEST PUSH0 DUP3 DUP3 SHL SWAP1 POP SWAP3 SWAP2 POP POP JUMP JUMPDEST PUSH0 PUSH1 0x8 DUP4 MUL PUSH2 0x19A9 PUSH32 0xFFFFFFFFFFFFFFFFFFFFFFFFFFFFFFFFFFFFFFFFFFFFFFFFFFFFFFFFFFFFFFFF DUP3 PUSH2 0x196E JUMP JUMPDEST PUSH2 0x19B3 DUP7 DUP4 PUSH2 0x196E JUMP JUMPDEST SWAP6 POP DUP1 NOT DUP5 AND SWAP4 POP DUP1 DUP7 AND DUP5 OR SWAP3 POP POP POP SWAP4 SWAP3 POP POP POP JUMP JUMPDEST PUSH0 DUP2 SWAP1 POP SWAP2 SWAP1 POP JUMP JUMPDEST PUSH0 PUSH2 0x19EE PUSH2 0x19E9 PUSH2 0x19E4 DUP5 PUSH2 0x1042 JUMP JUMPDEST PUSH2 0x19CB JUMP JUMPDEST PUSH2 0x1042 JUMP JUMPDEST SWAP1 POP SWAP2 SWAP1 POP JUMP JUMPDEST PUSH0 DUP2 SWAP1 POP SWAP2 SWAP1 POP JUMP JUMPDEST PUSH2 0x1A07 DUP4 PUSH2 0x19D4 JUMP JUMPDEST PUSH2 0x1A1B PUSH2 0x1A13 DUP3 PUSH2 0x19F5 JUMP JUMPDEST DUP5 DUP5 SLOAD PUSH2 0x197A JUMP JUMPDEST DUP3 SSTORE POP POP POP POP JUMP JUMPDEST PUSH0 SWAP1 JUMP JUMPDEST PUSH2 0x1A2F PUSH2 0x1A23 JUMP JUMPDEST PUSH2 0x1A3A DUP2 DUP5 DUP5 PUSH2 0x19FE JUMP JUMPDEST POP POP POP JUMP JUMPDEST JUMPDEST DUP2 DUP2 LT ISZERO PUSH2 0x1A5D JUMPI PUSH2 0x1A52 PUSH0 DUP3 PUSH2 0x1A27 JUMP JUMPDEST PUSH1 0x1 DUP2 ADD SWAP1 POP PUSH2 0x1A40 JUMP JUMPDEST POP POP JUMP JUMPDEST PUSH1 0x1F DUP3 GT ISZERO PUSH2 0x1AA2 JUMPI PUSH2 0x1A73 DUP2 PUSH2 0x194D JUMP JUMPDEST PUSH2 0x1A7C DUP5 PUSH2 0x195F JUMP JUMPDEST DUP2 ADD PUSH1 0x20 DUP6 LT ISZERO PUSH2 0x1A8B JUMPI DUP2 SWAP1 POP JUMPDEST PUSH2 0x1A9F PUSH2 0x1A97 DUP6 PUSH2 0x195F JUMP JUMPDEST DUP4 ADD DUP3 PUSH2 0x1A3F JUMP JUMPDEST POP POP JUMPDEST POP POP POP JUMP JUMPDEST PUSH0 DUP3 DUP3 SHR SWAP1 POP SWAP3 SWAP2 POP POP JUMP JUMPDEST PUSH0 PUSH2 0x1AC2 PUSH0 NOT DUP5 PUSH1 0x8 MUL PUSH2 0x1AA7 JUMP JUMPDEST NOT DUP1 DUP4 AND SWAP2 POP POP SWAP3 SWAP2 POP POP JUMP JUMPDEST PUSH0 PUSH2 0x1ADA DUP4 DUP4 PUSH2 0x1AB3 JUMP JUMPDEST SWAP2 POP DUP3 PUSH1 0x2 MUL DUP3 OR SWAP1 POP SWAP3 SWAP2 POP POP JUMP JUMPDEST PUSH2 0x1AF3 DUP3 PUSH2 0x1254 JUMP JUMPDEST PUSH8 0xFFFFFFFFFFFFFFFF DUP2 GT ISZERO PUSH2 0x1B0C JUMPI PUSH2 0x1B0B PUSH2 0x18C3 JUMP JUMPDEST JUMPDEST PUSH2 0x1B16 DUP3 SLOAD PUSH2 0x191D JUMP JUMPDEST PUSH2 0x1B21 DUP3 DUP3 DUP6 PUSH2 0x1A61 JUMP JUMPDEST PUSH0 PUSH1 0x20 SWAP1 POP PUSH1 0x1F DUP4 GT PUSH1 0x1 DUP2 EQ PUSH2 0x1B52 JUMPI PUSH0 DUP5 ISZERO PUSH2 0x1B40 JUMPI DUP3 DUP8 ADD MLOAD SWAP1 POP JUMPDEST PUSH2 0x1B4A DUP6 DUP3 PUSH2 0x1ACF JUMP JUMPDEST DUP7 SSTORE POP PUSH2 0x1BB1 JUMP JUMPDEST PUSH1 0x1F NOT DUP5 AND PUSH2 0x1B60 DUP7 PUSH2 0x194D JUMP JUMPDEST PUSH0 JUMPDEST DUP3 DUP2 LT ISZERO PUSH2 0x1B87 JUMPI DUP5 DUP10 ADD MLOAD DUP3 SSTORE PUSH1 0x1 DUP3 ADD SWAP2 POP PUSH1 0x20 DUP6 ADD SWAP5 POP PUSH1 0x20 DUP2 ADD SWAP1 POP PUSH2 0x1B62 JUMP JUMPDEST DUP7 DUP4 LT ISZERO PUSH2 0x1BA4 JUMPI DUP5 DUP10 ADD MLOAD PUSH2 0x1BA0 PUSH1 0x1F DUP10 AND DUP3 PUSH2 0x1AB3 JUMP JUMPDEST DUP4 SSTORE POP JUMPDEST PUSH1 0x1 PUSH1 0x2 DUP9 MUL ADD DUP9 SSTORE POP POP POP JUMPDEST POP POP POP POP POP POP JUMP JUMPDEST DUP3 DUP2 DUP4 CALLDATACOPY PUSH0 DUP4 DUP4 ADD MSTORE POP POP POP JUMP JUMPDEST PUSH0 PUSH2 0x1BD2 DUP4 DUP6 PUSH2 0x125E JUMP JUMPDEST SWAP4 POP PUSH2 0x1BDF DUP4 DUP6 DUP5 PUSH2 0x1BB9 JUMP JUMPDEST PUSH2 0x1BE8 DUP4 PUSH2 0x127C JUMP JUMPDEST DUP5 ADD SWAP1 POP SWAP4 SWAP3 POP POP POP JUMP JUMPDEST PUSH0 PUSH1 0x40 DUP3 ADD SWAP1 POP DUP2 DUP2 SUB PUSH0 DUP4 ADD MSTORE PUSH2 0x1C0C DUP2 DUP7 DUP9 PUSH2 0x1BC7 JUMP JUMPDEST SWAP1 POP DUP2 DUP2 SUB PUSH1 0x20 DUP4 ADD MSTORE PUSH2 0x1C21 DUP2 DUP5 DUP7 PUSH2 0x1BC7 JUMP JUMPDEST SWAP1 POP SWAP6 SWAP5 POP POP POP POP POP JUMP JUMPDEST PUSH32 0x456C207573756172696F2064657374696E6F206E6F2065737461207265676973 PUSH0 DUP3 ADD MSTORE PUSH32 0x747261646F000000000000000000000000000000000000000000000000000000 PUSH1 0x20 DUP3 ADD MSTORE POP JUMP JUMPDEST PUSH0 PUSH2 0x1C86 PUSH1 0x25 DUP4 PUSH2 0x125E JUMP JUMPDEST SWAP2 POP PUSH2 0x1C91 DUP3 PUSH2 0x1C2C JUMP JUMPDEST PUSH1 0x40 DUP3 ADD SWAP1 POP SWAP2 SWAP1 POP JUMP JUMPDEST PUSH0 PUSH1 0x20 DUP3 ADD SWAP1 POP DUP2 DUP2 SUB PUSH0 DUP4 ADD MSTORE PUSH2 0x1CB3 DUP2 PUSH2 0x1C7A JUMP JUMPDEST SWAP1 POP SWAP2 SWAP1 POP JUMP INVALID LOG2 PUSH5 0x6970667358 0x22 SLT KECCAK256 0x23 CODECOPY PUSH16 0x615862534C9A52130832AA45E4716E24 0xE0 LOG1 AND 0xB1 SHR PUSH12 0x1AD15A678F41B664736F6C63 NUMBER STOP ADDMOD BYTE STOP CALLER "
				},
				"gasEstimates": {
					"creation": {
						"codeDepositCost": "1481600",
						"executionCost": "infinite",
						"totalCost": "infinite"
					},
					"external": {
						"deposit()": "infinite",
						"fee()": "2535",
						"getBalance()": "4793",
						"owner()": "2530",
						"register(string,string)": "infinite",
						"transferBetweenUsers(address,uint256)": "infinite",
						"treasury()": "2508",
						"treasuryBalance()": "2492",
						"users(address)": "infinite",
						"withdraw(uint256)": "infinite",
						"withdrawTreasury(uint256)": "infinite"
					}
				},
				"methodIdentifiers": {
					"deposit()": "d0e30db0",
					"fee()": "ddca3f43",
					"getBalance()": "12065fe0",
					"owner()": "8da5cb5b",
					"register(string,string)": "3ffbd47f",
					"transferBetweenUsers(address,uint256)": "c3346c3e",
					"treasury()": "61d027b3",
					"treasuryBalance()": "313dab20",
					"users(address)": "a87430ba",
					"withdraw(uint256)": "2e1a7d4d",
					"withdrawTreasury(uint256)": "11f1fc99"
				}
			},
			"storageLayout": {
				"storage": [
					{
						"astId": 16,
						"contract": "TrabajoFinalModulo2/SimpleBankExtended.sol:SimpleBank",
						"label": "users",
						"offset": 0,
						"slot": "0",
						"type": "t_mapping(t_address,t_struct(User)11_storage)"
					},
					{
						"astId": 18,
						"contract": "TrabajoFinalModulo2/SimpleBankExtended.sol:SimpleBank",
						"label": "owner",
						"offset": 0,
						"slot": "1",
						"type": "t_address"
					},
					{
						"astId": 20,
						"contract": "TrabajoFinalModulo2/SimpleBankExtended.sol:SimpleBank",
						"label": "treasury",
						"offset": 0,
						"slot": "2",
						"type": "t_address"
					},
					{
						"astId": 22,
						"contract": "TrabajoFinalModulo2/SimpleBankExtended.sol:SimpleBank",
						"label": "fee",
						"offset": 0,
						"slot": "3",
						"type": "t_uint256"
					},
					{
						"astId": 24,
						"contract": "TrabajoFinalModulo2/SimpleBankExtended.sol:SimpleBank",
						"label": "treasuryBalance",
						"offset": 0,
						"slot": "4",
						"type": "t_uint256"
					}
				],
				"types": {
					"t_address": {
						"encoding": "inplace",
						"label": "address",
						"numberOfBytes": "20"
					},
					"t_bool": {
						"encoding": "inplace",
						"label": "bool",
						"numberOfBytes": "1"
					},
					"t_mapping(t_address,t_struct(User)11_storage)": {
						"encoding": "mapping",
						"key": "t_address",
						"label": "mapping(address => struct SimpleBank.User)",
						"numberOfBytes": "32",
						"value": "t_struct(User)11_storage"
					},
					"t_string_storage": {
						"encoding": "bytes",
						"label": "string",
						"numberOfBytes": "32"
					},
					"t_struct(User)11_storage": {
						"encoding": "inplace",
						"label": "struct SimpleBank.User",
						"members": [
							{
								"astId": 4,
								"contract": "TrabajoFinalModulo2/SimpleBankExtended.sol:SimpleBank",
								"label": "firstName",
								"offset": 0,
								"slot": "0",
								"type": "t_string_storage"
							},
							{
								"astId": 6,
								"contract": "TrabajoFinalModulo2/SimpleBankExtended.sol:SimpleBank",
								"label": "lastName",
								"offset": 0,
								"slot": "1",
								"type": "t_string_storage"
							},
							{
								"astId": 8,
								"contract": "TrabajoFinalModulo2/SimpleBankExtended.sol:SimpleBank",
								"label": "balance",
								"offset": 0,
								"slot": "2",
								"type": "t_uint256"
							},
							{
								"astId": 10,
								"contract": "TrabajoFinalModulo2/SimpleBankExtended.sol:SimpleBank",
								"label": "isRegistered",
								"offset": 0,
								"slot": "3",
								"type": "t_bool"
							}
						],
						"numberOfBytes": "128"
					},
					"t_uint256": {
						"encoding": "inplace",
						"label": "uint256",
						"numberOfBytes": "32"
					}
				}
			},
			"userdoc": {
				"kind": "user",
				"methods": {},
				"version": 1
			}
		}
	}
}