{
	"preventa/JFVCrowdsale.sol": {
		"JFVCrowdsale": {
			"abi": [
				{
					"inputs": [
						{
							"internalType": "address",
							"name": "token_",
							"type": "address"
						},
						{
							"internalType": "address",
							"name": "wallet_",
							"type": "address"
						},
						{
							"internalType": "uint256",
							"name": "rate_",
							"type": "uint256"
						},
						{
							"internalType": "uint256",
							"name": "softCap_",
							"type": "uint256"
						},
						{
							"internalType": "uint256",
							"name": "hardCap_",
							"type": "uint256"
						},
						{
							"internalType": "uint64",
							"name": "openingTime_",
							"type": "uint64"
						},
						{
							"internalType": "uint64",
							"name": "closingTime_",
							"type": "uint64"
						},
						{
							"internalType": "uint256",
							"name": "minContribution_",
							"type": "uint256"
						},
						{
							"internalType": "uint256",
							"name": "maxContribution_",
							"type": "uint256"
						},
						{
							"internalType": "uint16",
							"name": "tgeBps_",
							"type": "uint16"
						},
						{
							"internalType": "address",
							"name": "admin_",
							"type": "address"
						}
					],
					"stateMutability": "nonpayable",
					"type": "constructor"
				},
				{
					"inputs": [],
					"name": "AccessControlBadConfirmation",
					"type": "error"
				},
				{
					"inputs": [
						{
							"internalType": "address",
							"name": "account",
							"type": "address"
						},
						{
							"internalType": "bytes32",
							"name": "neededRole",
							"type": "bytes32"
						}
					],
					"name": "AccessControlUnauthorizedAccount",
					"type": "error"
				},
				{
					"inputs": [],
					"name": "AlreadyFinalized",
					"type": "error"
				},
				{
					"inputs": [],
					"name": "CapExceeded",
					"type": "error"
				},
				{
					"inputs": [],
					"name": "EnforcedPause",
					"type": "error"
				},
				{
					"inputs": [],
					"name": "ExpectedPause",
					"type": "error"
				},
				{
					"inputs": [],
					"name": "InvalidParams",
					"type": "error"
				},
				{
					"inputs": [],
					"name": "MinMaxViolation",
					"type": "error"
				},
				{
					"inputs": [],
					"name": "NothingToClaim",
					"type": "error"
				},
				{
					"inputs": [],
					"name": "ReentrancyGuardReentrantCall",
					"type": "error"
				},
				{
					"inputs": [],
					"name": "RefundsNotEnabled",
					"type": "error"
				},
				{
					"inputs": [],
					"name": "SaleNotClosed",
					"type": "error"
				},
				{
					"inputs": [],
					"name": "SaleNotOpen",
					"type": "error"
				},
				{
					"inputs": [],
					"name": "SoftCapNotReached",
					"type": "error"
				},
				{
					"inputs": [],
					"name": "ZeroAddress",
					"type": "error"
				},
				{
					"anonymous": false,
					"inputs": [
						{
							"indexed": false,
							"internalType": "bool",
							"name": "success",
							"type": "bool"
						}
					],
					"name": "Finalized",
					"type": "event"
				},
				{
					"anonymous": false,
					"inputs": [
						{
							"indexed": false,
							"internalType": "uint256",
							"name": "minContribution",
							"type": "uint256"
						},
						{
							"indexed": false,
							"internalType": "uint256",
							"name": "maxContribution",
							"type": "uint256"
						}
					],
					"name": "LimitsUpdated",
					"type": "event"
				},
				{
					"anonymous": false,
					"inputs": [
						{
							"indexed": false,
							"internalType": "address",
							"name": "account",
							"type": "address"
						}
					],
					"name": "Paused",
					"type": "event"
				},
				{
					"anonymous": false,
					"inputs": [
						{
							"indexed": false,
							"internalType": "uint256",
							"name": "oldRate",
							"type": "uint256"
						},
						{
							"indexed": false,
							"internalType": "uint256",
							"name": "newRate",
							"type": "uint256"
						}
					],
					"name": "RateUpdated",
					"type": "event"
				},
				{
					"anonymous": false,
					"inputs": [
						{
							"indexed": true,
							"internalType": "address",
							"name": "beneficiary",
							"type": "address"
						},
						{
							"indexed": false,
							"internalType": "uint256",
							"name": "valueETH",
							"type": "uint256"
						}
					],
					"name": "Refunded",
					"type": "event"
				},
				{
					"anonymous": false,
					"inputs": [],
					"name": "RefundsEnabled",
					"type": "event"
				},
				{
					"anonymous": false,
					"inputs": [
						{
							"indexed": true,
							"internalType": "bytes32",
							"name": "role",
							"type": "bytes32"
						},
						{
							"indexed": true,
							"internalType": "bytes32",
							"name": "previousAdminRole",
							"type": "bytes32"
						},
						{
							"indexed": true,
							"internalType": "bytes32",
							"name": "newAdminRole",
							"type": "bytes32"
						}
					],
					"name": "RoleAdminChanged",
					"type": "event"
				},
				{
					"anonymous": false,
					"inputs": [
						{
							"indexed": true,
							"internalType": "bytes32",
							"name": "role",
							"type": "bytes32"
						},
						{
							"indexed": true,
							"internalType": "address",
							"name": "account",
							"type": "address"
						},
						{
							"indexed": true,
							"internalType": "address",
							"name": "sender",
							"type": "address"
						}
					],
					"name": "RoleGranted",
					"type": "event"
				},
				{
					"anonymous": false,
					"inputs": [
						{
							"indexed": true,
							"internalType": "bytes32",
							"name": "role",
							"type": "bytes32"
						},
						{
							"indexed": true,
							"internalType": "address",
							"name": "account",
							"type": "address"
						},
						{
							"indexed": true,
							"internalType": "address",
							"name": "sender",
							"type": "address"
						}
					],
					"name": "RoleRevoked",
					"type": "event"
				},
				{
					"anonymous": false,
					"inputs": [
						{
							"indexed": true,
							"internalType": "address",
							"name": "beneficiary",
							"type": "address"
						},
						{
							"indexed": false,
							"internalType": "uint256",
							"name": "amountJFV",
							"type": "uint256"
						}
					],
					"name": "TGEClaimed",
					"type": "event"
				},
				{
					"anonymous": false,
					"inputs": [
						{
							"indexed": false,
							"internalType": "uint64",
							"name": "openingTime",
							"type": "uint64"
						},
						{
							"indexed": false,
							"internalType": "uint64",
							"name": "closingTime",
							"type": "uint64"
						}
					],
					"name": "TimesUpdated",
					"type": "event"
				},
				{
					"anonymous": false,
					"inputs": [
						{
							"indexed": true,
							"internalType": "address",
							"name": "buyer",
							"type": "address"
						},
						{
							"indexed": true,
							"internalType": "address",
							"name": "beneficiary",
							"type": "address"
						},
						{
							"indexed": false,
							"internalType": "uint256",
							"name": "valueETH",
							"type": "uint256"
						},
						{
							"indexed": false,
							"internalType": "uint256",
							"name": "amountJFV",
							"type": "uint256"
						}
					],
					"name": "TokensPurchased",
					"type": "event"
				},
				{
					"anonymous": false,
					"inputs": [
						{
							"indexed": false,
							"internalType": "address",
							"name": "account",
							"type": "address"
						}
					],
					"name": "Unpaused",
					"type": "event"
				},
				{
					"anonymous": false,
					"inputs": [
						{
							"indexed": false,
							"internalType": "address",
							"name": "oldWallet",
							"type": "address"
						},
						{
							"indexed": false,
							"internalType": "address",
							"name": "newWallet",
							"type": "address"
						}
					],
					"name": "WalletUpdated",
					"type": "event"
				},
				{
					"inputs": [],
					"name": "CONFIG_ROLE",
					"outputs": [
						{
							"internalType": "bytes32",
							"name": "",
							"type": "bytes32"
						}
					],
					"stateMutability": "view",
					"type": "function"
				},
				{
					"inputs": [],
					"name": "DEFAULT_ADMIN_ROLE",
					"outputs": [
						{
							"internalType": "bytes32",
							"name": "",
							"type": "bytes32"
						}
					],
					"stateMutability": "view",
					"type": "function"
				},
				{
					"inputs": [],
					"name": "PAUSER_ROLE",
					"outputs": [
						{
							"internalType": "bytes32",
							"name": "",
							"type": "bytes32"
						}
					],
					"stateMutability": "view",
					"type": "function"
				},
				{
					"inputs": [
						{
							"internalType": "address",
							"name": "",
							"type": "address"
						}
					],
					"name": "allocated",
					"outputs": [
						{
							"internalType": "uint256",
							"name": "",
							"type": "uint256"
						}
					],
					"stateMutability": "view",
					"type": "function"
				},
				{
					"inputs": [
						{
							"internalType": "address",
							"name": "beneficiary",
							"type": "address"
						}
					],
					"name": "buyTokens",
					"outputs": [],
					"stateMutability": "payable",
					"type": "function"
				},
				{
					"inputs": [],
					"name": "claimRefund",
					"outputs": [],
					"stateMutability": "nonpayable",
					"type": "function"
				},
				{
					"inputs": [],
					"name": "claimTGE",
					"outputs": [],
					"stateMutability": "nonpayable",
					"type": "function"
				},
				{
					"inputs": [],
					"name": "closingTime",
					"outputs": [
						{
							"internalType": "uint64",
							"name": "",
							"type": "uint64"
						}
					],
					"stateMutability": "view",
					"type": "function"
				},
				{
					"inputs": [
						{
							"internalType": "address",
							"name": "",
							"type": "address"
						}
					],
					"name": "contributed",
					"outputs": [
						{
							"internalType": "uint256",
							"name": "",
							"type": "uint256"
						}
					],
					"stateMutability": "view",
					"type": "function"
				},
				{
					"inputs": [],
					"name": "finalize",
					"outputs": [],
					"stateMutability": "nonpayable",
					"type": "function"
				},
				{
					"inputs": [],
					"name": "finalized",
					"outputs": [
						{
							"internalType": "bool",
							"name": "",
							"type": "bool"
						}
					],
					"stateMutability": "view",
					"type": "function"
				},
				{
					"inputs": [
						{
							"internalType": "bytes32",
							"name": "role",
							"type": "bytes32"
						}
					],
					"name": "getRoleAdmin",
					"outputs": [
						{
							"internalType": "bytes32",
							"name": "",
							"type": "bytes32"
						}
					],
					"stateMutability": "view",
					"type": "function"
				},
				{
					"inputs": [
						{
							"internalType": "bytes32",
							"name": "role",
							"type": "bytes32"
						},
						{
							"internalType": "address",
							"name": "account",
							"type": "address"
						}
					],
					"name": "grantRole",
					"outputs": [],
					"stateMutability": "nonpayable",
					"type": "function"
				},
				{
					"inputs": [],
					"name": "hardCap",
					"outputs": [
						{
							"internalType": "uint256",
							"name": "",
							"type": "uint256"
						}
					],
					"stateMutability": "view",
					"type": "function"
				},
				{
					"inputs": [
						{
							"internalType": "bytes32",
							"name": "role",
							"type": "bytes32"
						},
						{
							"internalType": "address",
							"name": "account",
							"type": "address"
						}
					],
					"name": "hasRole",
					"outputs": [
						{
							"internalType": "bool",
							"name": "",
							"type": "bool"
						}
					],
					"stateMutability": "view",
					"type": "function"
				},
				{
					"inputs": [],
					"name": "isClosed",
					"outputs": [
						{
							"internalType": "bool",
							"name": "",
							"type": "bool"
						}
					],
					"stateMutability": "view",
					"type": "function"
				},
				{
					"inputs": [],
					"name": "isOpen",
					"outputs": [
						{
							"internalType": "bool",
							"name": "",
							"type": "bool"
						}
					],
					"stateMutability": "view",
					"type": "function"
				},
				{
					"inputs": [],
					"name": "maxContribution",
					"outputs": [
						{
							"internalType": "uint256",
							"name": "",
							"type": "uint256"
						}
					],
					"stateMutability": "view",
					"type": "function"
				},
				{
					"inputs": [],
					"name": "minContribution",
					"outputs": [
						{
							"internalType": "uint256",
							"name": "",
							"type": "uint256"
						}
					],
					"stateMutability": "view",
					"type": "function"
				},
				{
					"inputs": [],
					"name": "openingTime",
					"outputs": [
						{
							"internalType": "uint64",
							"name": "",
							"type": "uint64"
						}
					],
					"stateMutability": "view",
					"type": "function"
				},
				{
					"inputs": [],
					"name": "pause",
					"outputs": [],
					"stateMutability": "nonpayable",
					"type": "function"
				},
				{
					"inputs": [],
					"name": "paused",
					"outputs": [
						{
							"internalType": "bool",
							"name": "",
							"type": "bool"
						}
					],
					"stateMutability": "view",
					"type": "function"
				},
				{
					"inputs": [],
					"name": "rate",
					"outputs": [
						{
							"internalType": "uint256",
							"name": "",
							"type": "uint256"
						}
					],
					"stateMutability": "view",
					"type": "function"
				},
				{
					"inputs": [],
					"name": "refunding",
					"outputs": [
						{
							"internalType": "bool",
							"name": "",
							"type": "bool"
						}
					],
					"stateMutability": "view",
					"type": "function"
				},
				{
					"inputs": [
						{
							"internalType": "bytes32",
							"name": "role",
							"type": "bytes32"
						},
						{
							"internalType": "address",
							"name": "callerConfirmation",
							"type": "address"
						}
					],
					"name": "renounceRole",
					"outputs": [],
					"stateMutability": "nonpayable",
					"type": "function"
				},
				{
					"inputs": [
						{
							"internalType": "bytes32",
							"name": "role",
							"type": "bytes32"
						},
						{
							"internalType": "address",
							"name": "account",
							"type": "address"
						}
					],
					"name": "revokeRole",
					"outputs": [],
					"stateMutability": "nonpayable",
					"type": "function"
				},
				{
					"inputs": [
						{
							"internalType": "uint256",
							"name": "newMin",
							"type": "uint256"
						},
						{
							"internalType": "uint256",
							"name": "newMax",
							"type": "uint256"
						}
					],
					"name": "setLimits",
					"outputs": [],
					"stateMutability": "nonpayable",
					"type": "function"
				},
				{
					"inputs": [
						{
							"internalType": "uint256",
							"name": "newRate",
							"type": "uint256"
						}
					],
					"name": "setRate",
					"outputs": [],
					"stateMutability": "nonpayable",
					"type": "function"
				},
				{
					"inputs": [
						{
							"internalType": "uint64",
							"name": "newOpen",
							"type": "uint64"
						},
						{
							"internalType": "uint64",
							"name": "newClose",
							"type": "uint64"
						}
					],
					"name": "setTimes",
					"outputs": [],
					"stateMutability": "nonpayable",
					"type": "function"
				},
				{
					"inputs": [
						{
							"internalType": "address",
							"name": "newWallet",
							"type": "address"
						}
					],
					"name": "setWallet",
					"outputs": [],
					"stateMutability": "nonpayable",
					"type": "function"
				},
				{
					"inputs": [],
					"name": "softCap",
					"outputs": [
						{
							"internalType": "uint256",
							"name": "",
							"type": "uint256"
						}
					],
					"stateMutability": "view",
					"type": "function"
				},
				{
					"inputs": [
						{
							"internalType": "bytes4",
							"name": "interfaceId",
							"type": "bytes4"
						}
					],
					"name": "supportsInterface",
					"outputs": [
						{
							"internalType": "bool",
							"name": "",
							"type": "bool"
						}
					],
					"stateMutability": "view",
					"type": "function"
				},
				{
					"inputs": [],
					"name": "tgeBps",
					"outputs": [
						{
							"internalType": "uint16",
							"name": "",
							"type": "uint16"
						}
					],
					"stateMutability": "view",
					"type": "function"
				},
				{
					"inputs": [
						{
							"internalType": "address",
							"name": "",
							"type": "address"
						}
					],
					"name": "tgeClaimed",
					"outputs": [
						{
							"internalType": "uint256",
							"name": "",
							"type": "uint256"
						}
					],
					"stateMutability": "view",
					"type": "function"
				},
				{
					"inputs": [],
					"name": "token",
					"outputs": [
						{
							"internalType": "contract IJFVToken",
							"name": "",
							"type": "address"
						}
					],
					"stateMutability": "view",
					"type": "function"
				},
				{
					"inputs": [],
					"name": "tokensSold",
					"outputs": [
						{
							"internalType": "uint256",
							"name": "",
							"type": "uint256"
						}
					],
					"stateMutability": "view",
					"type": "function"
				},
				{
					"inputs": [],
					"name": "unpause",
					"outputs": [],
					"stateMutability": "nonpayable",
					"type": "function"
				},
				{
					"inputs": [],
					"name": "wallet",
					"outputs": [
						{
							"internalType": "address",
							"name": "",
							"type": "address"
						}
					],
					"stateMutability": "view",
					"type": "function"
				},
				{
					"inputs": [],
					"name": "weiRaised",
					"outputs": [
						{
							"internalType": "uint256",
							"name": "",
							"type": "uint256"
						}
					],
					"stateMutability": "view",
					"type": "function"
				},
				{
					"inputs": [],
					"name": "withdrawETH",
					"outputs": [],
					"stateMutability": "nonpayable",
					"type": "function"
				},
				{
					"stateMutability": "payable",
					"type": "receive"
				}
			],
			"devdoc": {
				"errors": {
					"AccessControlBadConfirmation()": [
						{
							"details": "The caller of a function is not the expected one. NOTE: Don't confuse with {AccessControlUnauthorizedAccount}."
						}
					],
					"AccessControlUnauthorizedAccount(address,bytes32)": [
						{
							"details": "The `account` is missing a role."
						}
					],
					"EnforcedPause()": [
						{
							"details": "The operation failed because the contract is paused."
						}
					],
					"ExpectedPause()": [
						{
							"details": "The operation failed because the contract is not paused."
						}
					],
					"ReentrancyGuardReentrantCall()": [
						{
							"details": "Unauthorized reentrant call."
						}
					]
				},
				"events": {
					"Paused(address)": {
						"details": "Emitted when the pause is triggered by `account`."
					},
					"RoleAdminChanged(bytes32,bytes32,bytes32)": {
						"details": "Emitted when `newAdminRole` is set as ``role``'s admin role, replacing `previousAdminRole` `DEFAULT_ADMIN_ROLE` is the starting admin for all roles, despite {RoleAdminChanged} not being emitted to signal this."
					},
					"RoleGranted(bytes32,address,address)": {
						"details": "Emitted when `account` is granted `role`. `sender` is the account that originated the contract call. This account bears the admin role (for the granted role). Expected in cases where the role was granted using the internal {AccessControl-_grantRole}."
					},
					"RoleRevoked(bytes32,address,address)": {
						"details": "Emitted when `account` is revoked `role`. `sender` is the account that originated the contract call:   - if using `revokeRole`, it is the admin role bearer   - if using `renounceRole`, it is the role bearer (i.e. `account`)"
					},
					"Unpaused(address)": {
						"details": "Emitted when the pause is lifted by `account`."
					}
				},
				"kind": "dev",
				"methods": {
					"getRoleAdmin(bytes32)": {
						"details": "Returns the admin role that controls `role`. See {grantRole} and {revokeRole}. To change a role's admin, use {_setRoleAdmin}."
					},
					"grantRole(bytes32,address)": {
						"details": "Grants `role` to `account`. If `account` had not been already granted `role`, emits a {RoleGranted} event. Requirements: - the caller must have ``role``'s admin role. May emit a {RoleGranted} event."
					},
					"hasRole(bytes32,address)": {
						"details": "Returns `true` if `account` has been granted `role`."
					},
					"paused()": {
						"details": "Returns true if the contract is paused, and false otherwise."
					},
					"renounceRole(bytes32,address)": {
						"details": "Revokes `role` from the calling account. Roles are often managed via {grantRole} and {revokeRole}: this function's purpose is to provide a mechanism for accounts to lose their privileges if they are compromised (such as when a trusted device is misplaced). If the calling account had been revoked `role`, emits a {RoleRevoked} event. Requirements: - the caller must be `callerConfirmation`. May emit a {RoleRevoked} event."
					},
					"revokeRole(bytes32,address)": {
						"details": "Revokes `role` from `account`. If `account` had been granted `role`, emits a {RoleRevoked} event. Requirements: - the caller must have ``role``'s admin role. May emit a {RoleRevoked} event."
					},
					"supportsInterface(bytes4)": {
						"details": "See {IERC165-supportsInterface}."
					}
				},
				"version": 1
			},
			"evm": {
				"assembly": "    /* \"preventa/JFVCrowdsale.sol\":1114:10388  contract JFVCrowdsale is ReentrancyGuard, Pausable, AccessControl {... */\n  mstore(0x40, 0x0100)\n    /* \"preventa/JFVCrowdsale.sol\":3494:4898  constructor(... */\n  callvalue\n  dup1\n  iszero\n  tag_1\n  jumpi\n  0x00\n  dup1\n  revert\ntag_1:\n  pop\n  mload(0x40)\n  sub(codesize, bytecodeSize)\n  dup1\n  bytecodeSize\n  dup4\n  codecopy\n  dup2\n  dup2\n  add\n  0x40\n  mstore\n  dup2\n  add\n  swap1\n  tag_2\n  swap2\n  swap1\n  tag_3\n  jump\t// in\ntag_2:\n    /* \"@openzeppelin/contracts/utils/ReentrancyGuard.sol\":1857:1858  1 */\n  0x01\n    /* \"@openzeppelin/contracts/utils/ReentrancyGuard.sol\":2061:2068  _status */\n  0x00\n    /* \"@openzeppelin/contracts/utils/ReentrancyGuard.sol\":2061:2082  _status = NOT_ENTERED */\n  dup2\n  swap1\n  sstore\n  pop\n    /* \"preventa/JFVCrowdsale.sol\":3926:3927  0 */\n  0x00\n    /* \"preventa/JFVCrowdsale.sol\":3908:3928  token_ == address(0) */\n  0xffffffffffffffffffffffffffffffffffffffff\n  and\n    /* \"preventa/JFVCrowdsale.sol\":3908:3914  token_ */\n  dup12\n    /* \"preventa/JFVCrowdsale.sol\":3908:3928  token_ == address(0) */\n  0xffffffffffffffffffffffffffffffffffffffff\n  and\n  eq\n    /* \"preventa/JFVCrowdsale.sol\":3908:3966  token_ == address(0) ||... */\n  dup1\n  tag_8\n  jumpi\n  pop\n    /* \"preventa/JFVCrowdsale.sol\":3964:3965  0 */\n  0x00\n    /* \"preventa/JFVCrowdsale.sol\":3945:3966  wallet_ == address(0) */\n  0xffffffffffffffffffffffffffffffffffffffff\n  and\n    /* \"preventa/JFVCrowdsale.sol\":3945:3952  wallet_ */\n  dup11\n    /* \"preventa/JFVCrowdsale.sol\":3945:3966  wallet_ == address(0) */\n  0xffffffffffffffffffffffffffffffffffffffff\n  and\n  eq\n    /* \"preventa/JFVCrowdsale.sol\":3908:3966  token_ == address(0) ||... */\ntag_8:\n    /* \"preventa/JFVCrowdsale.sol\":3908:4003  token_ == address(0) ||... */\n  dup1\n  tag_9\n  jumpi\n  pop\n    /* \"preventa/JFVCrowdsale.sol\":4001:4002  0 */\n  0x00\n    /* \"preventa/JFVCrowdsale.sol\":3983:4003  admin_ == address(0) */\n  0xffffffffffffffffffffffffffffffffffffffff\n  and\n    /* \"preventa/JFVCrowdsale.sol\":3983:3989  admin_ */\n  dup2\n    /* \"preventa/JFVCrowdsale.sol\":3983:4003  admin_ == address(0) */\n  0xffffffffffffffffffffffffffffffffffffffff\n  and\n  eq\n    /* \"preventa/JFVCrowdsale.sol\":3908:4003  token_ == address(0) ||... */\ntag_9:\n    /* \"preventa/JFVCrowdsale.sol\":3908:4030  token_ == address(0) ||... */\n  dup1\n  tag_10\n  jumpi\n  pop\n    /* \"preventa/JFVCrowdsale.sol\":4029:4030  0 */\n  0x00\n    /* \"preventa/JFVCrowdsale.sol\":4020:4025  rate_ */\n  dup10\n    /* \"preventa/JFVCrowdsale.sol\":4020:4030  rate_ == 0 */\n  eq\n    /* \"preventa/JFVCrowdsale.sol\":3908:4030  token_ == address(0) ||... */\ntag_10:\n    /* \"preventa/JFVCrowdsale.sol\":3908:4060  token_ == address(0) ||... */\n  dup1\n  tag_11\n  jumpi\n  pop\n    /* \"preventa/JFVCrowdsale.sol\":4059:4060  0 */\n  0x00\n    /* \"preventa/JFVCrowdsale.sol\":4047:4055  softCap_ */\n  dup9\n    /* \"preventa/JFVCrowdsale.sol\":4047:4060  softCap_ == 0 */\n  eq\n    /* \"preventa/JFVCrowdsale.sol\":3908:4060  token_ == address(0) ||... */\ntag_11:\n    /* \"preventa/JFVCrowdsale.sol\":3908:4090  token_ == address(0) ||... */\n  dup1\n  tag_12\n  jumpi\n  pop\n    /* \"preventa/JFVCrowdsale.sol\":4089:4090  0 */\n  0x00\n    /* \"preventa/JFVCrowdsale.sol\":4077:4085  hardCap_ */\n  dup8\n    /* \"preventa/JFVCrowdsale.sol\":4077:4090  hardCap_ == 0 */\n  eq\n    /* \"preventa/JFVCrowdsale.sol\":3908:4090  token_ == address(0) ||... */\ntag_12:\n    /* \"preventa/JFVCrowdsale.sol\":3908:4127  token_ == address(0) ||... */\n  dup1\n  tag_13\n  jumpi\n  pop\n    /* \"preventa/JFVCrowdsale.sol\":4119:4127  softCap_ */\n  dup8\n    /* \"preventa/JFVCrowdsale.sol\":4107:4115  hardCap_ */\n  dup8\n    /* \"preventa/JFVCrowdsale.sol\":4107:4127  hardCap_ <= softCap_ */\n  gt\n  iszero\n    /* \"preventa/JFVCrowdsale.sol\":3908:4127  token_ == address(0) ||... */\ntag_13:\n    /* \"preventa/JFVCrowdsale.sol\":3908:4172  token_ == address(0) ||... */\n  dup1\n  tag_14\n  jumpi\n  pop\n    /* \"preventa/JFVCrowdsale.sol\":4160:4172  closingTime_ */\n  dup5\n    /* \"preventa/JFVCrowdsale.sol\":4144:4172  openingTime_ >= closingTime_ */\n  0xffffffffffffffff\n  and\n    /* \"preventa/JFVCrowdsale.sol\":4144:4156  openingTime_ */\n  dup7\n    /* \"preventa/JFVCrowdsale.sol\":4144:4172  openingTime_ >= closingTime_ */\n  0xffffffffffffffff\n  and\n  lt\n  iszero\n    /* \"preventa/JFVCrowdsale.sol\":3908:4172  token_ == address(0) ||... */\ntag_14:\n    /* \"preventa/JFVCrowdsale.sol\":3908:4210  token_ == address(0) ||... */\n  dup1\n  tag_15\n  jumpi\n  pop\n    /* \"preventa/JFVCrowdsale.sol\":4209:4210  0 */\n  0x00\n    /* \"preventa/JFVCrowdsale.sol\":4189:4205  minContribution_ */\n  dup5\n    /* \"preventa/JFVCrowdsale.sol\":4189:4210  minContribution_ == 0 */\n  eq\n    /* \"preventa/JFVCrowdsale.sol\":3908:4210  token_ == address(0) ||... */\ntag_15:\n    /* \"preventa/JFVCrowdsale.sol\":3908:4248  token_ == address(0) ||... */\n  dup1\n  tag_16\n  jumpi\n  pop\n    /* \"preventa/JFVCrowdsale.sol\":4247:4248  0 */\n  0x00\n    /* \"preventa/JFVCrowdsale.sol\":4227:4243  maxContribution_ */\n  dup4\n    /* \"preventa/JFVCrowdsale.sol\":4227:4248  maxContribution_ == 0 */\n  eq\n    /* \"preventa/JFVCrowdsale.sol\":3908:4248  token_ == address(0) ||... */\ntag_16:\n    /* \"preventa/JFVCrowdsale.sol\":3908:4300  token_ == address(0) ||... */\n  dup1\n  tag_17\n  jumpi\n  pop\n    /* \"preventa/JFVCrowdsale.sol\":4284:4300  minContribution_ */\n  dup4\n    /* \"preventa/JFVCrowdsale.sol\":4265:4281  maxContribution_ */\n  dup4\n    /* \"preventa/JFVCrowdsale.sol\":4265:4300  maxContribution_ < minContribution_ */\n  lt\n    /* \"preventa/JFVCrowdsale.sol\":3908:4300  token_ == address(0) ||... */\ntag_17:\n    /* \"preventa/JFVCrowdsale.sol\":3908:4333  token_ == address(0) ||... */\n  dup1\n  tag_18\n  jumpi\n  pop\n    /* \"preventa/JFVCrowdsale.sol\":4327:4333  10_000 */\n  0x2710\n    /* \"preventa/JFVCrowdsale.sol\":4317:4324  tgeBps_ */\n  dup3\n    /* \"preventa/JFVCrowdsale.sol\":4317:4333  tgeBps_ > 10_000 */\n  0xffff\n  and\n  gt\n    /* \"preventa/JFVCrowdsale.sol\":3908:4333  token_ == address(0) ||... */\ntag_18:\n    /* \"preventa/JFVCrowdsale.sol\":3890:4367  if (... */\n  iszero\n  tag_19\n  jumpi\n    /* \"preventa/JFVCrowdsale.sol\":4352:4367  InvalidParams() */\n  mload(0x40)\n  0xa86b651200000000000000000000000000000000000000000000000000000000\n  dup2\n  mstore\n  0x04\n  add\n  mload(0x40)\n  dup1\n  swap2\n  sub\n  swap1\n  revert\n    /* \"preventa/JFVCrowdsale.sol\":3890:4367  if (... */\ntag_19:\n    /* \"preventa/JFVCrowdsale.sol\":4398:4404  token_ */\n  dup11\n    /* \"preventa/JFVCrowdsale.sol\":4380:4405  token = IJFVToken(token_) */\n  0xffffffffffffffffffffffffffffffffffffffff\n  and\n  0x80\n  dup2\n  0xffffffffffffffffffffffffffffffffffffffff\n  and\n  dup2\n  mstore\n  pop\n  pop\n    /* \"preventa/JFVCrowdsale.sol\":4425:4432  wallet_ */\n  dup10\n    /* \"preventa/JFVCrowdsale.sol\":4416:4422  wallet */\n  0x03\n  0x00\n    /* \"preventa/JFVCrowdsale.sol\":4416:4432  wallet = wallet_ */\n  0x0100\n  exp\n  dup2\n  sload\n  dup2\n  0xffffffffffffffffffffffffffffffffffffffff\n  mul\n  not\n  and\n  swap1\n  dup4\n  0xffffffffffffffffffffffffffffffffffffffff\n  and\n  mul\n  or\n  swap1\n  sstore\n  pop\n    /* \"preventa/JFVCrowdsale.sol\":4452:4457  rate_ */\n  dup9\n    /* \"preventa/JFVCrowdsale.sol\":4445:4449  rate */\n  0x04\n    /* \"preventa/JFVCrowdsale.sol\":4445:4457  rate = rate_ */\n  dup2\n  swap1\n  sstore\n  pop\n    /* \"preventa/JFVCrowdsale.sol\":4478:4486  softCap_ */\n  dup8\n    /* \"preventa/JFVCrowdsale.sol\":4468:4486  softCap = softCap_ */\n  0xa0\n  dup2\n  dup2\n  mstore\n  pop\n  pop\n    /* \"preventa/JFVCrowdsale.sol\":4507:4515  hardCap_ */\n  dup7\n    /* \"preventa/JFVCrowdsale.sol\":4497:4515  hardCap = hardCap_ */\n  0xc0\n  dup2\n  dup2\n  mstore\n  pop\n  pop\n    /* \"preventa/JFVCrowdsale.sol\":4540:4552  openingTime_ */\n  dup6\n    /* \"preventa/JFVCrowdsale.sol\":4526:4537  openingTime */\n  0x05\n  0x00\n    /* \"preventa/JFVCrowdsale.sol\":4526:4552  openingTime = openingTime_ */\n  0x0100\n  exp\n  dup2\n  sload\n  dup2\n  0xffffffffffffffff\n  mul\n  not\n  and\n  swap1\n  dup4\n  0xffffffffffffffff\n  and\n  mul\n  or\n  swap1\n  sstore\n  pop\n    /* \"preventa/JFVCrowdsale.sol\":4577:4589  closingTime_ */\n  dup5\n    /* \"preventa/JFVCrowdsale.sol\":4563:4574  closingTime */\n  0x05\n  0x08\n    /* \"preventa/JFVCrowdsale.sol\":4563:4589  closingTime = closingTime_ */\n  0x0100\n  exp\n  dup2\n  sload\n  dup2\n  0xffffffffffffffff\n  mul\n  not\n  and\n  swap1\n  dup4\n  0xffffffffffffffff\n  and\n  mul\n  or\n  swap1\n  sstore\n  pop\n    /* \"preventa/JFVCrowdsale.sol\":4618:4634  minContribution_ */\n  dup4\n    /* \"preventa/JFVCrowdsale.sol\":4600:4615  minContribution */\n  0x06\n    /* \"preventa/JFVCrowdsale.sol\":4600:4634  minContribution = minContribution_ */\n  dup2\n  swap1\n  sstore\n  pop\n    /* \"preventa/JFVCrowdsale.sol\":4663:4679  maxContribution_ */\n  dup3\n    /* \"preventa/JFVCrowdsale.sol\":4645:4660  maxContribution */\n  0x07\n    /* \"preventa/JFVCrowdsale.sol\":4645:4679  maxContribution = maxContribution_ */\n  dup2\n  swap1\n  sstore\n  pop\n    /* \"preventa/JFVCrowdsale.sol\":4699:4706  tgeBps_ */\n  dup2\n    /* \"preventa/JFVCrowdsale.sol\":4690:4706  tgeBps = tgeBps_ */\n  0xffff\n  and\n  0xe0\n  dup2\n  0xffff\n  and\n  dup2\n  mstore\n  pop\n  pop\n    /* \"preventa/JFVCrowdsale.sol\":4719:4757  _grantRole(DEFAULT_ADMIN_ROLE, admin_) */\n  tag_20\n    /* \"@openzeppelin/contracts/access/AccessControl.sol\":2232:2236  0x00 */\n  0x00\n    /* \"preventa/JFVCrowdsale.sol\":4730:4748  DEFAULT_ADMIN_ROLE */\n  dup1\n  shl\n    /* \"preventa/JFVCrowdsale.sol\":4750:4756  admin_ */\n  dup3\n    /* \"preventa/JFVCrowdsale.sol\":4719:4729  _grantRole */\n  shl(0x20, tag_21)\n    /* \"preventa/JFVCrowdsale.sol\":4719:4757  _grantRole(DEFAULT_ADMIN_ROLE, admin_) */\n  0x20\n  shr\n  jump\t// in\ntag_20:\n  pop\n    /* \"preventa/JFVCrowdsale.sol\":4768:4799  _grantRole(PAUSER_ROLE, admin_) */\n  tag_22\n    /* \"preventa/JFVCrowdsale.sol\":1259:1283  keccak256(\"PAUSER_ROLE\") */\n  0x65d7a28e3265b37a6474929f336521b332c1681b933f6cb9f3376673440d862a\n    /* \"preventa/JFVCrowdsale.sol\":4792:4798  admin_ */\n  dup3\n    /* \"preventa/JFVCrowdsale.sol\":4768:4778  _grantRole */\n  shl(0x20, tag_21)\n    /* \"preventa/JFVCrowdsale.sol\":4768:4799  _grantRole(PAUSER_ROLE, admin_) */\n  0x20\n  shr\n  jump\t// in\ntag_22:\n  pop\n    /* \"preventa/JFVCrowdsale.sol\":4810:4841  _grantRole(CONFIG_ROLE, admin_) */\n  tag_23\n    /* \"preventa/JFVCrowdsale.sol\":1328:1352  keccak256(\"CONFIG_ROLE\") */\n  0x82db594318110a04b6349ce48645aa69f0892751bc893d15e61d9e2b9c4630f5\n    /* \"preventa/JFVCrowdsale.sol\":4834:4840  admin_ */\n  dup3\n    /* \"preventa/JFVCrowdsale.sol\":4810:4820  _grantRole */\n  shl(0x20, tag_21)\n    /* \"preventa/JFVCrowdsale.sol\":4810:4841  _grantRole(CONFIG_ROLE, admin_) */\n  0x20\n  shr\n  jump\t// in\ntag_23:\n  pop\n    /* \"preventa/JFVCrowdsale.sol\":3494:4898  constructor(... */\n  pop\n  pop\n  pop\n  pop\n  pop\n  pop\n  pop\n  pop\n  pop\n  pop\n  pop\n    /* \"preventa/JFVCrowdsale.sol\":1114:10388  contract JFVCrowdsale is ReentrancyGuard, Pausable, AccessControl {... */\n  jump(tag_24)\n    /* \"@openzeppelin/contracts/access/AccessControl.sol\":6179:6495  function _grantRole(bytes32 role, address account) internal virtual returns (bool) {... */\ntag_21:\n    /* \"@openzeppelin/contracts/access/AccessControl.sol\":6256:6260  bool */\n  0x00\n    /* \"@openzeppelin/contracts/access/AccessControl.sol\":6277:6299  hasRole(role, account) */\n  tag_26\n    /* \"@openzeppelin/contracts/access/AccessControl.sol\":6285:6289  role */\n  dup4\n    /* \"@openzeppelin/contracts/access/AccessControl.sol\":6291:6298  account */\n  dup4\n    /* \"@openzeppelin/contracts/access/AccessControl.sol\":6277:6284  hasRole */\n  shl(0x20, tag_27)\n    /* \"@openzeppelin/contracts/access/AccessControl.sol\":6277:6299  hasRole(role, account) */\n  0x20\n  shr\n  jump\t// in\ntag_26:\n    /* \"@openzeppelin/contracts/access/AccessControl.sol\":6272:6489  if (!hasRole(role, account)) {... */\n  tag_28\n  jumpi\n    /* \"@openzeppelin/contracts/access/AccessControl.sol\":6347:6351  true */\n  0x01\n    /* \"@openzeppelin/contracts/access/AccessControl.sol\":6315:6321  _roles */\n  0x02\n    /* \"@openzeppelin/contracts/access/AccessControl.sol\":6315:6327  _roles[role] */\n  0x00\n    /* \"@openzeppelin/contracts/access/AccessControl.sol\":6322:6326  role */\n  dup6\n    /* \"@openzeppelin/contracts/access/AccessControl.sol\":6315:6327  _roles[role] */\n  dup2\n  mstore\n  0x20\n  add\n  swap1\n  dup2\n  mstore\n  0x20\n  add\n  0x00\n  keccak256\n    /* \"@openzeppelin/contracts/access/AccessControl.sol\":6315:6335  _roles[role].hasRole */\n  0x00\n  add\n    /* \"@openzeppelin/contracts/access/AccessControl.sol\":6315:6344  _roles[role].hasRole[account] */\n  0x00\n    /* \"@openzeppelin/contracts/access/AccessControl.sol\":6336:6343  account */\n  dup5\n    /* \"@openzeppelin/contracts/access/AccessControl.sol\":6315:6344  _roles[role].hasRole[account] */\n  0xffffffffffffffffffffffffffffffffffffffff\n  and\n  0xffffffffffffffffffffffffffffffffffffffff\n  and\n  dup2\n  mstore\n  0x20\n  add\n  swap1\n  dup2\n  mstore\n  0x20\n  add\n  0x00\n  keccak256\n  0x00\n    /* \"@openzeppelin/contracts/access/AccessControl.sol\":6315:6351  _roles[role].hasRole[account] = true */\n  0x0100\n  exp\n  dup2\n  sload\n  dup2\n  0xff\n  mul\n  not\n  and\n  swap1\n  dup4\n  iszero\n  iszero\n  mul\n  or\n  swap1\n  sstore\n  pop\n    /* \"@openzeppelin/contracts/access/AccessControl.sol\":6397:6409  _msgSender() */\n  tag_29\n    /* \"@openzeppelin/contracts/access/AccessControl.sol\":6397:6407  _msgSender */\n  shl(0x20, tag_30)\n    /* \"@openzeppelin/contracts/access/AccessControl.sol\":6397:6409  _msgSender() */\n  0x20\n  shr\n  jump\t// in\ntag_29:\n    /* \"@openzeppelin/contracts/access/AccessControl.sol\":6370:6410  RoleGranted(role, account, _msgSender()) */\n  0xffffffffffffffffffffffffffffffffffffffff\n  and\n    /* \"@openzeppelin/contracts/access/AccessControl.sol\":6388:6395  account */\n  dup3\n    /* \"@openzeppelin/contracts/access/AccessControl.sol\":6370:6410  RoleGranted(role, account, _msgSender()) */\n  0xffffffffffffffffffffffffffffffffffffffff\n  and\n    /* \"@openzeppelin/contracts/access/AccessControl.sol\":6382:6386  role */\n  dup5\n    /* \"@openzeppelin/contracts/access/AccessControl.sol\":6370:6410  RoleGranted(role, account, _msgSender()) */\n  0x2f8788117e7eff1d82e926ec794901d17c78024a50270940304540a733656f0d\n  mload(0x40)\n  mload(0x40)\n  dup1\n  swap2\n  sub\n  swap1\n  log4\n    /* \"@openzeppelin/contracts/access/AccessControl.sol\":6431:6435  true */\n  0x01\n    /* \"@openzeppelin/contracts/access/AccessControl.sol\":6424:6435  return true */\n  swap1\n  pop\n  jump(tag_25)\n    /* \"@openzeppelin/contracts/access/AccessControl.sol\":6272:6489  if (!hasRole(role, account)) {... */\ntag_28:\n    /* \"@openzeppelin/contracts/access/AccessControl.sol\":6473:6478  false */\n  0x00\n    /* \"@openzeppelin/contracts/access/AccessControl.sol\":6466:6478  return false */\n  swap1\n  pop\n    /* \"@openzeppelin/contracts/access/AccessControl.sol\":6179:6495  function _grantRole(bytes32 role, address account) internal virtual returns (bool) {... */\ntag_25:\n  swap3\n  swap2\n  pop\n  pop\n  jump\t// out\n    /* \"@openzeppelin/contracts/access/AccessControl.sol\":2854:2990  function hasRole(bytes32 role, address account) public view virtual returns (bool) {... */\ntag_27:\n    /* \"@openzeppelin/contracts/access/AccessControl.sol\":2931:2935  bool */\n  0x00\n    /* \"@openzeppelin/contracts/access/AccessControl.sol\":2954:2960  _roles */\n  0x02\n    /* \"@openzeppelin/contracts/access/AccessControl.sol\":2954:2966  _roles[role] */\n  0x00\n    /* \"@openzeppelin/contracts/access/AccessControl.sol\":2961:2965  role */\n  dup5\n    /* \"@openzeppelin/contracts/access/AccessControl.sol\":2954:2966  _roles[role] */\n  dup2\n  mstore\n  0x20\n  add\n  swap1\n  dup2\n  mstore\n  0x20\n  add\n  0x00\n  keccak256\n    /* \"@openzeppelin/contracts/access/AccessControl.sol\":2954:2974  _roles[role].hasRole */\n  0x00\n  add\n    /* \"@openzeppelin/contracts/access/AccessControl.sol\":2954:2983  _roles[role].hasRole[account] */\n  0x00\n    /* \"@openzeppelin/contracts/access/AccessControl.sol\":2975:2982  account */\n  dup4\n    /* \"@openzeppelin/contracts/access/AccessControl.sol\":2954:2983  _roles[role].hasRole[account] */\n  0xffffffffffffffffffffffffffffffffffffffff\n  and\n  0xffffffffffffffffffffffffffffffffffffffff\n  and\n  dup2\n  mstore\n  0x20\n  add\n  swap1\n  dup2\n  mstore\n  0x20\n  add\n  0x00\n  keccak256\n  0x00\n  swap1\n  sload\n  swap1\n  0x0100\n  exp\n  swap1\n  div\n  0xff\n  and\n    /* \"@openzeppelin/contracts/access/AccessControl.sol\":2947:2983  return _roles[role].hasRole[account] */\n  swap1\n  pop\n    /* \"@openzeppelin/contracts/access/AccessControl.sol\":2854:2990  function hasRole(bytes32 role, address account) public view virtual returns (bool) {... */\n  swap3\n  swap2\n  pop\n  pop\n  jump\t// out\n    /* \"@openzeppelin/contracts/utils/Context.sol\":656:752  function _msgSender() internal view virtual returns (address) {... */\ntag_30:\n    /* \"@openzeppelin/contracts/utils/Context.sol\":709:716  address */\n  0x00\n    /* \"@openzeppelin/contracts/utils/Context.sol\":735:745  msg.sender */\n  caller\n    /* \"@openzeppelin/contracts/utils/Context.sol\":728:745  return msg.sender */\n  swap1\n  pop\n    /* \"@openzeppelin/contracts/utils/Context.sol\":656:752  function _msgSender() internal view virtual returns (address) {... */\n  swap1\n  jump\t// out\n    /* \"#utility.yul\":88:205   */\ntag_35:\n    /* \"#utility.yul\":197:198   */\n  0x00\n    /* \"#utility.yul\":194:195   */\n  dup1\n    /* \"#utility.yul\":187:199   */\n  revert\n    /* \"#utility.yul\":334:460   */\ntag_37:\n    /* \"#utility.yul\":371:378   */\n  0x00\n    /* \"#utility.yul\":411:453   */\n  0xffffffffffffffffffffffffffffffffffffffff\n    /* \"#utility.yul\":404:409   */\n  dup3\n    /* \"#utility.yul\":400:454   */\n  and\n    /* \"#utility.yul\":389:454   */\n  swap1\n  pop\n    /* \"#utility.yul\":334:460   */\n  swap2\n  swap1\n  pop\n  jump\t// out\n    /* \"#utility.yul\":466:562   */\ntag_38:\n    /* \"#utility.yul\":503:510   */\n  0x00\n    /* \"#utility.yul\":532:556   */\n  tag_56\n    /* \"#utility.yul\":550:555   */\n  dup3\n    /* \"#utility.yul\":532:556   */\n  tag_37\n  jump\t// in\ntag_56:\n    /* \"#utility.yul\":521:556   */\n  swap1\n  pop\n    /* \"#utility.yul\":466:562   */\n  swap2\n  swap1\n  pop\n  jump\t// out\n    /* \"#utility.yul\":568:690   */\ntag_39:\n    /* \"#utility.yul\":641:665   */\n  tag_58\n    /* \"#utility.yul\":659:664   */\n  dup2\n    /* \"#utility.yul\":641:665   */\n  tag_38\n  jump\t// in\ntag_58:\n    /* \"#utility.yul\":634:639   */\n  dup2\n    /* \"#utility.yul\":631:666   */\n  eq\n    /* \"#utility.yul\":621:684   */\n  tag_59\n  jumpi\n    /* \"#utility.yul\":680:681   */\n  0x00\n    /* \"#utility.yul\":677:678   */\n  dup1\n    /* \"#utility.yul\":670:682   */\n  revert\n    /* \"#utility.yul\":621:684   */\ntag_59:\n    /* \"#utility.yul\":568:690   */\n  pop\n  jump\t// out\n    /* \"#utility.yul\":696:839   */\ntag_40:\n    /* \"#utility.yul\":753:758   */\n  0x00\n    /* \"#utility.yul\":784:790   */\n  dup2\n    /* \"#utility.yul\":778:791   */\n  mload\n    /* \"#utility.yul\":769:791   */\n  swap1\n  pop\n    /* \"#utility.yul\":800:833   */\n  tag_61\n    /* \"#utility.yul\":827:832   */\n  dup2\n    /* \"#utility.yul\":800:833   */\n  tag_39\n  jump\t// in\ntag_61:\n    /* \"#utility.yul\":696:839   */\n  swap3\n  swap2\n  pop\n  pop\n  jump\t// out\n    /* \"#utility.yul\":845:922   */\ntag_41:\n    /* \"#utility.yul\":882:889   */\n  0x00\n    /* \"#utility.yul\":911:916   */\n  dup2\n    /* \"#utility.yul\":900:916   */\n  swap1\n  pop\n    /* \"#utility.yul\":845:922   */\n  swap2\n  swap1\n  pop\n  jump\t// out\n    /* \"#utility.yul\":928:1050   */\ntag_42:\n    /* \"#utility.yul\":1001:1025   */\n  tag_64\n    /* \"#utility.yul\":1019:1024   */\n  dup2\n    /* \"#utility.yul\":1001:1025   */\n  tag_41\n  jump\t// in\ntag_64:\n    /* \"#utility.yul\":994:999   */\n  dup2\n    /* \"#utility.yul\":991:1026   */\n  eq\n    /* \"#utility.yul\":981:1044   */\n  tag_65\n  jumpi\n    /* \"#utility.yul\":1040:1041   */\n  0x00\n    /* \"#utility.yul\":1037:1038   */\n  dup1\n    /* \"#utility.yul\":1030:1042   */\n  revert\n    /* \"#utility.yul\":981:1044   */\ntag_65:\n    /* \"#utility.yul\":928:1050   */\n  pop\n  jump\t// out\n    /* \"#utility.yul\":1056:1199   */\ntag_43:\n    /* \"#utility.yul\":1113:1118   */\n  0x00\n    /* \"#utility.yul\":1144:1150   */\n  dup2\n    /* \"#utility.yul\":1138:1151   */\n  mload\n    /* \"#utility.yul\":1129:1151   */\n  swap1\n  pop\n    /* \"#utility.yul\":1160:1193   */\n  tag_67\n    /* \"#utility.yul\":1187:1192   */\n  dup2\n    /* \"#utility.yul\":1160:1193   */\n  tag_42\n  jump\t// in\ntag_67:\n    /* \"#utility.yul\":1056:1199   */\n  swap3\n  swap2\n  pop\n  pop\n  jump\t// out\n    /* \"#utility.yul\":1205:1306   */\ntag_44:\n    /* \"#utility.yul\":1241:1248   */\n  0x00\n    /* \"#utility.yul\":1281:1299   */\n  0xffffffffffffffff\n    /* \"#utility.yul\":1274:1279   */\n  dup3\n    /* \"#utility.yul\":1270:1300   */\n  and\n    /* \"#utility.yul\":1259:1300   */\n  swap1\n  pop\n    /* \"#utility.yul\":1205:1306   */\n  swap2\n  swap1\n  pop\n  jump\t// out\n    /* \"#utility.yul\":1312:1432   */\ntag_45:\n    /* \"#utility.yul\":1384:1407   */\n  tag_70\n    /* \"#utility.yul\":1401:1406   */\n  dup2\n    /* \"#utility.yul\":1384:1407   */\n  tag_44\n  jump\t// in\ntag_70:\n    /* \"#utility.yul\":1377:1382   */\n  dup2\n    /* \"#utility.yul\":1374:1408   */\n  eq\n    /* \"#utility.yul\":1364:1426   */\n  tag_71\n  jumpi\n    /* \"#utility.yul\":1422:1423   */\n  0x00\n    /* \"#utility.yul\":1419:1420   */\n  dup1\n    /* \"#utility.yul\":1412:1424   */\n  revert\n    /* \"#utility.yul\":1364:1426   */\ntag_71:\n    /* \"#utility.yul\":1312:1432   */\n  pop\n  jump\t// out\n    /* \"#utility.yul\":1438:1579   */\ntag_46:\n    /* \"#utility.yul\":1494:1499   */\n  0x00\n    /* \"#utility.yul\":1525:1531   */\n  dup2\n    /* \"#utility.yul\":1519:1532   */\n  mload\n    /* \"#utility.yul\":1510:1532   */\n  swap1\n  pop\n    /* \"#utility.yul\":1541:1573   */\n  tag_73\n    /* \"#utility.yul\":1567:1572   */\n  dup2\n    /* \"#utility.yul\":1541:1573   */\n  tag_45\n  jump\t// in\ntag_73:\n    /* \"#utility.yul\":1438:1579   */\n  swap3\n  swap2\n  pop\n  pop\n  jump\t// out\n    /* \"#utility.yul\":1585:1674   */\ntag_47:\n    /* \"#utility.yul\":1621:1628   */\n  0x00\n    /* \"#utility.yul\":1661:1667   */\n  0xffff\n    /* \"#utility.yul\":1654:1659   */\n  dup3\n    /* \"#utility.yul\":1650:1668   */\n  and\n    /* \"#utility.yul\":1639:1668   */\n  swap1\n  pop\n    /* \"#utility.yul\":1585:1674   */\n  swap2\n  swap1\n  pop\n  jump\t// out\n    /* \"#utility.yul\":1680:1800   */\ntag_48:\n    /* \"#utility.yul\":1752:1775   */\n  tag_76\n    /* \"#utility.yul\":1769:1774   */\n  dup2\n    /* \"#utility.yul\":1752:1775   */\n  tag_47\n  jump\t// in\ntag_76:\n    /* \"#utility.yul\":1745:1750   */\n  dup2\n    /* \"#utility.yul\":1742:1776   */\n  eq\n    /* \"#utility.yul\":1732:1794   */\n  tag_77\n  jumpi\n    /* \"#utility.yul\":1790:1791   */\n  0x00\n    /* \"#utility.yul\":1787:1788   */\n  dup1\n    /* \"#utility.yul\":1780:1792   */\n  revert\n    /* \"#utility.yul\":1732:1794   */\ntag_77:\n    /* \"#utility.yul\":1680:1800   */\n  pop\n  jump\t// out\n    /* \"#utility.yul\":1806:1947   */\ntag_49:\n    /* \"#utility.yul\":1862:1867   */\n  0x00\n    /* \"#utility.yul\":1893:1899   */\n  dup2\n    /* \"#utility.yul\":1887:1900   */\n  mload\n    /* \"#utility.yul\":1878:1900   */\n  swap1\n  pop\n    /* \"#utility.yul\":1909:1941   */\n  tag_79\n    /* \"#utility.yul\":1935:1940   */\n  dup2\n    /* \"#utility.yul\":1909:1941   */\n  tag_48\n  jump\t// in\ntag_79:\n    /* \"#utility.yul\":1806:1947   */\n  swap3\n  swap2\n  pop\n  pop\n  jump\t// out\n    /* \"#utility.yul\":1953:3868   */\ntag_3:\n    /* \"#utility.yul\":2110:2116   */\n  0x00\n    /* \"#utility.yul\":2118:2124   */\n  dup1\n    /* \"#utility.yul\":2126:2132   */\n  0x00\n    /* \"#utility.yul\":2134:2140   */\n  dup1\n    /* \"#utility.yul\":2142:2148   */\n  0x00\n    /* \"#utility.yul\":2150:2156   */\n  dup1\n    /* \"#utility.yul\":2158:2164   */\n  0x00\n    /* \"#utility.yul\":2166:2172   */\n  dup1\n    /* \"#utility.yul\":2174:2180   */\n  0x00\n    /* \"#utility.yul\":2182:2188   */\n  dup1\n    /* \"#utility.yul\":2190:2197   */\n  0x00\n    /* \"#utility.yul\":2240:2243   */\n  0x0160\n    /* \"#utility.yul\":2228:2237   */\n  dup13\n    /* \"#utility.yul\":2219:2226   */\n  dup15\n    /* \"#utility.yul\":2215:2238   */\n  sub\n    /* \"#utility.yul\":2211:2244   */\n  slt\n    /* \"#utility.yul\":2208:2328   */\n  iszero\n  tag_81\n  jumpi\n    /* \"#utility.yul\":2247:2326   */\n  tag_82\n  tag_35\n  jump\t// in\ntag_82:\n    /* \"#utility.yul\":2208:2328   */\ntag_81:\n    /* \"#utility.yul\":2367:2368   */\n  0x00\n    /* \"#utility.yul\":2392:2456   */\n  tag_83\n    /* \"#utility.yul\":2448:2455   */\n  dup15\n    /* \"#utility.yul\":2439:2445   */\n  dup3\n    /* \"#utility.yul\":2428:2437   */\n  dup16\n    /* \"#utility.yul\":2424:2446   */\n  add\n    /* \"#utility.yul\":2392:2456   */\n  tag_40\n  jump\t// in\ntag_83:\n    /* \"#utility.yul\":2382:2456   */\n  swap12\n  pop\n    /* \"#utility.yul\":2338:2466   */\n  pop\n    /* \"#utility.yul\":2505:2507   */\n  0x20\n    /* \"#utility.yul\":2531:2595   */\n  tag_84\n    /* \"#utility.yul\":2587:2594   */\n  dup15\n    /* \"#utility.yul\":2578:2584   */\n  dup3\n    /* \"#utility.yul\":2567:2576   */\n  dup16\n    /* \"#utility.yul\":2563:2585   */\n  add\n    /* \"#utility.yul\":2531:2595   */\n  tag_40\n  jump\t// in\ntag_84:\n    /* \"#utility.yul\":2521:2595   */\n  swap11\n  pop\n    /* \"#utility.yul\":2476:2605   */\n  pop\n    /* \"#utility.yul\":2644:2646   */\n  0x40\n    /* \"#utility.yul\":2670:2734   */\n  tag_85\n    /* \"#utility.yul\":2726:2733   */\n  dup15\n    /* \"#utility.yul\":2717:2723   */\n  dup3\n    /* \"#utility.yul\":2706:2715   */\n  dup16\n    /* \"#utility.yul\":2702:2724   */\n  add\n    /* \"#utility.yul\":2670:2734   */\n  tag_43\n  jump\t// in\ntag_85:\n    /* \"#utility.yul\":2660:2734   */\n  swap10\n  pop\n    /* \"#utility.yul\":2615:2744   */\n  pop\n    /* \"#utility.yul\":2783:2785   */\n  0x60\n    /* \"#utility.yul\":2809:2873   */\n  tag_86\n    /* \"#utility.yul\":2865:2872   */\n  dup15\n    /* \"#utility.yul\":2856:2862   */\n  dup3\n    /* \"#utility.yul\":2845:2854   */\n  dup16\n    /* \"#utility.yul\":2841:2863   */\n  add\n    /* \"#utility.yul\":2809:2873   */\n  tag_43\n  jump\t// in\ntag_86:\n    /* \"#utility.yul\":2799:2873   */\n  swap9\n  pop\n    /* \"#utility.yul\":2754:2883   */\n  pop\n    /* \"#utility.yul\":2922:2925   */\n  0x80\n    /* \"#utility.yul\":2949:3013   */\n  tag_87\n    /* \"#utility.yul\":3005:3012   */\n  dup15\n    /* \"#utility.yul\":2996:3002   */\n  dup3\n    /* \"#utility.yul\":2985:2994   */\n  dup16\n    /* \"#utility.yul\":2981:3003   */\n  add\n    /* \"#utility.yul\":2949:3013   */\n  tag_43\n  jump\t// in\ntag_87:\n    /* \"#utility.yul\":2939:3013   */\n  swap8\n  pop\n    /* \"#utility.yul\":2893:3023   */\n  pop\n    /* \"#utility.yul\":3062:3065   */\n  0xa0\n    /* \"#utility.yul\":3089:3152   */\n  tag_88\n    /* \"#utility.yul\":3144:3151   */\n  dup15\n    /* \"#utility.yul\":3135:3141   */\n  dup3\n    /* \"#utility.yul\":3124:3133   */\n  dup16\n    /* \"#utility.yul\":3120:3142   */\n  add\n    /* \"#utility.yul\":3089:3152   */\n  tag_46\n  jump\t// in\ntag_88:\n    /* \"#utility.yul\":3079:3152   */\n  swap7\n  pop\n    /* \"#utility.yul\":3033:3162   */\n  pop\n    /* \"#utility.yul\":3201:3204   */\n  0xc0\n    /* \"#utility.yul\":3228:3291   */\n  tag_89\n    /* \"#utility.yul\":3283:3290   */\n  dup15\n    /* \"#utility.yul\":3274:3280   */\n  dup3\n    /* \"#utility.yul\":3263:3272   */\n  dup16\n    /* \"#utility.yul\":3259:3281   */\n  add\n    /* \"#utility.yul\":3228:3291   */\n  tag_46\n  jump\t// in\ntag_89:\n    /* \"#utility.yul\":3218:3291   */\n  swap6\n  pop\n    /* \"#utility.yul\":3172:3301   */\n  pop\n    /* \"#utility.yul\":3340:3343   */\n  0xe0\n    /* \"#utility.yul\":3367:3431   */\n  tag_90\n    /* \"#utility.yul\":3423:3430   */\n  dup15\n    /* \"#utility.yul\":3414:3420   */\n  dup3\n    /* \"#utility.yul\":3403:3412   */\n  dup16\n    /* \"#utility.yul\":3399:3421   */\n  add\n    /* \"#utility.yul\":3367:3431   */\n  tag_43\n  jump\t// in\ntag_90:\n    /* \"#utility.yul\":3357:3431   */\n  swap5\n  pop\n    /* \"#utility.yul\":3311:3441   */\n  pop\n    /* \"#utility.yul\":3480:3483   */\n  0x0100\n    /* \"#utility.yul\":3507:3571   */\n  tag_91\n    /* \"#utility.yul\":3563:3570   */\n  dup15\n    /* \"#utility.yul\":3554:3560   */\n  dup3\n    /* \"#utility.yul\":3543:3552   */\n  dup16\n    /* \"#utility.yul\":3539:3561   */\n  add\n    /* \"#utility.yul\":3507:3571   */\n  tag_43\n  jump\t// in\ntag_91:\n    /* \"#utility.yul\":3497:3571   */\n  swap4\n  pop\n    /* \"#utility.yul\":3451:3581   */\n  pop\n    /* \"#utility.yul\":3620:3623   */\n  0x0120\n    /* \"#utility.yul\":3647:3710   */\n  tag_92\n    /* \"#utility.yul\":3702:3709   */\n  dup15\n    /* \"#utility.yul\":3693:3699   */\n  dup3\n    /* \"#utility.yul\":3682:3691   */\n  dup16\n    /* \"#utility.yul\":3678:3700   */\n  add\n    /* \"#utility.yul\":3647:3710   */\n  tag_49\n  jump\t// in\ntag_92:\n    /* \"#utility.yul\":3637:3710   */\n  swap3\n  pop\n    /* \"#utility.yul\":3591:3720   */\n  pop\n    /* \"#utility.yul\":3759:3762   */\n  0x0140\n    /* \"#utility.yul\":3787:3851   */\n  tag_93\n    /* \"#utility.yul\":3843:3850   */\n  dup15\n    /* \"#utility.yul\":3834:3840   */\n  dup3\n    /* \"#utility.yul\":3823:3832   */\n  dup16\n    /* \"#utility.yul\":3819:3841   */\n  add\n    /* \"#utility.yul\":3787:3851   */\n  tag_40\n  jump\t// in\ntag_93:\n    /* \"#utility.yul\":3776:3851   */\n  swap2\n  pop\n    /* \"#utility.yul\":3730:3861   */\n  pop\n    /* \"#utility.yul\":1953:3868   */\n  swap3\n  swap6\n  swap9\n  swap12\n  pop\n  swap3\n  swap6\n  swap9\n  swap12\n  swap1\n  swap4\n  swap7\n  swap10\n  pop\n  jump\t// out\n    /* \"preventa/JFVCrowdsale.sol\":1114:10388  contract JFVCrowdsale is ReentrancyGuard, Pausable, AccessControl {... */\ntag_24:\n  mload(0x80)\n  mload(0xa0)\n  mload(0xc0)\n  mload(0xe0)\n  codecopy(0x00, dataOffset(sub_0), dataSize(sub_0))\n  0x00\n  assignImmutable(\"0x5192c7f75669ca0287240345ac757ca313b6b35719d108d92e530d5617eb4a60\")\n  0x00\n  assignImmutable(\"0xeae3a40291c102cf85748609ff9046ea32530afca3ce058bd94a667258369fd6\")\n  0x00\n  assignImmutable(\"0x6d7e9d25f7937a025d098651c32892e1256b8f7bcedf36aadd28cccf92a5a08d\")\n  0x00\n  assignImmutable(\"0xd73e0b65d8a88e087fe45492939659264b6eeb687212994f56dac859eedb899a\")\n  return(0x00, dataSize(sub_0))\nstop\n\nsub_0: assembly {\n        /* \"preventa/JFVCrowdsale.sol\":1114:10388  contract JFVCrowdsale is ReentrancyGuard, Pausable, AccessControl {... */\n      mstore(0x40, 0x80)\n      jumpi(tag_1, lt(calldatasize, 0x04))\n      shr(0xe0, calldataload(0x00))\n      dup1\n      0x9b8c1fed\n      gt\n      tag_43\n      jumpi\n      dup1\n      0xd547741f\n      gt\n      tag_44\n      jumpi\n      dup1\n      0xec8ac4d8\n      gt\n      tag_45\n      jumpi\n      dup1\n      0xec8ac4d8\n      eq\n      tag_38\n      jumpi\n      dup1\n      0xf43e98c7\n      eq\n      tag_39\n      jumpi\n      dup1\n      0xf49e2514\n      eq\n      tag_40\n      jumpi\n      dup1\n      0xfb86a404\n      eq\n      tag_41\n      jumpi\n      dup1\n      0xfc0c546a\n      eq\n      tag_42\n      jumpi\n      jump(tag_2)\n    tag_45:\n      dup1\n      0xd547741f\n      eq\n      tag_33\n      jumpi\n      dup1\n      0xdeaa59df\n      eq\n      tag_34\n      jumpi\n      dup1\n      0xe086e5ec\n      eq\n      tag_35\n      jumpi\n      dup1\n      0xe63ab1e9\n      eq\n      tag_36\n      jumpi\n      dup1\n      0xeb3b3fe6\n      eq\n      tag_37\n      jumpi\n      jump(tag_2)\n    tag_44:\n      dup1\n      0xb5545a3c\n      gt\n      tag_46\n      jumpi\n      dup1\n      0xb5545a3c\n      eq\n      tag_28\n      jumpi\n      dup1\n      0xb7a8807c\n      eq\n      tag_29\n      jumpi\n      dup1\n      0xbe68d17a\n      eq\n      tag_30\n      jumpi\n      dup1\n      0xc2b6b58c\n      eq\n      tag_31\n      jumpi\n      dup1\n      0xc4590d3f\n      eq\n      tag_32\n      jumpi\n      jump(tag_2)\n    tag_46:\n      dup1\n      0x9b8c1fed\n      eq\n      tag_23\n      jumpi\n      dup1\n      0xa217fddf\n      eq\n      tag_24\n      jumpi\n      dup1\n      0xa4d19feb\n      eq\n      tag_25\n      jumpi\n      dup1\n      0xaaffadf3\n      eq\n      tag_26\n      jumpi\n      dup1\n      0xb3f05b97\n      eq\n      tag_27\n      jumpi\n      jump(tag_2)\n    tag_43:\n      dup1\n      0x4b6753bc\n      gt\n      tag_47\n      jumpi\n      dup1\n      0x8456cb59\n      gt\n      tag_48\n      jumpi\n      dup1\n      0x8456cb59\n      eq\n      tag_18\n      jumpi\n      dup1\n      0x8d3d6576\n      eq\n      tag_19\n      jumpi\n      dup1\n      0x906a26e0\n      eq\n      tag_20\n      jumpi\n      dup1\n      0x91d14854\n      eq\n      tag_21\n      jumpi\n      dup1\n      0x995c5e9d\n      eq\n      tag_22\n      jumpi\n      jump(tag_2)\n    tag_48:\n      dup1\n      0x4b6753bc\n      eq\n      tag_13\n      jumpi\n      dup1\n      0x4bb278f3\n      eq\n      tag_14\n      jumpi\n      dup1\n      0x518ab2a8\n      eq\n      tag_15\n      jumpi\n      dup1\n      0x521eb273\n      eq\n      tag_16\n      jumpi\n      dup1\n      0x5c975abb\n      eq\n      tag_17\n      jumpi\n      jump(tag_2)\n    tag_47:\n      dup1\n      0x36568abe\n      gt\n      tag_49\n      jumpi\n      dup1\n      0x36568abe\n      eq\n      tag_8\n      jumpi\n      dup1\n      0x3f4ba83a\n      eq\n      tag_9\n      jumpi\n      dup1\n      0x4042b66f\n      eq\n      tag_10\n      jumpi\n      dup1\n      0x4225e5bb\n      eq\n      tag_11\n      jumpi\n      dup1\n      0x47535d7b\n      eq\n      tag_12\n      jumpi\n      jump(tag_2)\n    tag_49:\n      dup1\n      0x01ffc9a7\n      eq\n      tag_3\n      jumpi\n      dup1\n      0x248a9ca3\n      eq\n      tag_4\n      jumpi\n      dup1\n      0x2c4e722e\n      eq\n      tag_5\n      jumpi\n      dup1\n      0x2f2ff15d\n      eq\n      tag_6\n      jumpi\n      dup1\n      0x34fcf437\n      eq\n      tag_7\n      jumpi\n      jump(tag_2)\n    tag_1:\n      jumpi(tag_2, calldatasize)\n      stop\n    tag_2:\n      0x00\n      dup1\n      revert\n        /* \"@openzeppelin/contracts/access/AccessControl.sol\":2565:2767  function supportsInterface(bytes4 interfaceId) public view virtual override returns (bool) {... */\n    tag_3:\n      callvalue\n      dup1\n      iszero\n      tag_52\n      jumpi\n      0x00\n      dup1\n      revert\n    tag_52:\n      pop\n      tag_53\n      0x04\n      dup1\n      calldatasize\n      sub\n      dup2\n      add\n      swap1\n      tag_54\n      swap2\n      swap1\n      tag_55\n      jump\t// in\n    tag_54:\n      tag_56\n      jump\t// in\n    tag_53:\n      mload(0x40)\n      tag_57\n      swap2\n      swap1\n      tag_58\n      jump\t// in\n    tag_57:\n      mload(0x40)\n      dup1\n      swap2\n      sub\n      swap1\n      return\n        /* \"@openzeppelin/contracts/access/AccessControl.sol\":3810:3930  function getRoleAdmin(bytes32 role) public view virtual returns (bytes32) {... */\n    tag_4:\n      callvalue\n      dup1\n      iszero\n      tag_59\n      jumpi\n      0x00\n      dup1\n      revert\n    tag_59:\n      pop\n      tag_60\n      0x04\n      dup1\n      calldatasize\n      sub\n      dup2\n      add\n      swap1\n      tag_61\n      swap2\n      swap1\n      tag_62\n      jump\t// in\n    tag_61:\n      tag_63\n      jump\t// in\n    tag_60:\n      mload(0x40)\n      tag_64\n      swap2\n      swap1\n      tag_65\n      jump\t// in\n    tag_64:\n      mload(0x40)\n      dup1\n      swap2\n      sub\n      swap1\n      return\n        /* \"preventa/JFVCrowdsale.sol\":2618:2637  uint256 public rate */\n    tag_5:\n      callvalue\n      dup1\n      iszero\n      tag_66\n      jumpi\n      0x00\n      dup1\n      revert\n    tag_66:\n      pop\n      tag_67\n      tag_68\n      jump\t// in\n    tag_67:\n      mload(0x40)\n      tag_69\n      swap2\n      swap1\n      tag_70\n      jump\t// in\n    tag_69:\n      mload(0x40)\n      dup1\n      swap2\n      sub\n      swap1\n      return\n        /* \"@openzeppelin/contracts/access/AccessControl.sol\":4226:4362  function grantRole(bytes32 role, address account) public virtual onlyRole(getRoleAdmin(role)) {... */\n    tag_6:\n      callvalue\n      dup1\n      iszero\n      tag_71\n      jumpi\n      0x00\n      dup1\n      revert\n    tag_71:\n      pop\n      tag_72\n      0x04\n      dup1\n      calldatasize\n      sub\n      dup2\n      add\n      swap1\n      tag_73\n      swap2\n      swap1\n      tag_74\n      jump\t// in\n    tag_73:\n      tag_75\n      jump\t// in\n    tag_72:\n      stop\n        /* \"preventa/JFVCrowdsale.sol\":9527:9813  function setRate(uint256 newRate) external onlyRole(CONFIG_ROLE) {... */\n    tag_7:\n      callvalue\n      dup1\n      iszero\n      tag_76\n      jumpi\n      0x00\n      dup1\n      revert\n    tag_76:\n      pop\n      tag_77\n      0x04\n      dup1\n      calldatasize\n      sub\n      dup2\n      add\n      swap1\n      tag_78\n      swap2\n      swap1\n      tag_79\n      jump\t// in\n    tag_78:\n      tag_80\n      jump\t// in\n    tag_77:\n      stop\n        /* \"@openzeppelin/contracts/access/AccessControl.sol\":5328:5573  function renounceRole(bytes32 role, address callerConfirmation) public virtual {... */\n    tag_8:\n      callvalue\n      dup1\n      iszero\n      tag_81\n      jumpi\n      0x00\n      dup1\n      revert\n    tag_81:\n      pop\n      tag_82\n      0x04\n      dup1\n      calldatasize\n      sub\n      dup2\n      add\n      swap1\n      tag_83\n      swap2\n      swap1\n      tag_74\n      jump\t// in\n    tag_83:\n      tag_84\n      jump\t// in\n    tag_82:\n      stop\n        /* \"preventa/JFVCrowdsale.sol\":8596:8675  function unpause() external onlyRole(PAUSER_ROLE) {... */\n    tag_9:\n      callvalue\n      dup1\n      iszero\n      tag_85\n      jumpi\n      0x00\n      dup1\n      revert\n    tag_85:\n      pop\n      tag_86\n      tag_87\n      jump\t// in\n    tag_86:\n      stop\n        /* \"preventa/JFVCrowdsale.sol\":3133:3157  uint256 public weiRaised */\n    tag_10:\n      callvalue\n      dup1\n      iszero\n      tag_88\n      jumpi\n      0x00\n      dup1\n      revert\n    tag_88:\n      pop\n      tag_89\n      tag_90\n      jump\t// in\n    tag_89:\n      mload(0x40)\n      tag_91\n      swap2\n      swap1\n      tag_70\n      jump\t// in\n    tag_91:\n      mload(0x40)\n      dup1\n      swap2\n      sub\n      swap1\n      return\n        /* \"preventa/JFVCrowdsale.sol\":3278:3322  mapping(address => uint256) public allocated */\n    tag_11:\n      callvalue\n      dup1\n      iszero\n      tag_92\n      jumpi\n      0x00\n      dup1\n      revert\n    tag_92:\n      pop\n      tag_93\n      0x04\n      dup1\n      calldatasize\n      sub\n      dup2\n      add\n      swap1\n      tag_94\n      swap2\n      swap1\n      tag_95\n      jump\t// in\n    tag_94:\n      tag_96\n      jump\t// in\n    tag_93:\n      mload(0x40)\n      tag_97\n      swap2\n      swap1\n      tag_70\n      jump\t// in\n    tag_97:\n      mload(0x40)\n      dup1\n      swap2\n      sub\n      swap1\n      return\n        /* \"preventa/JFVCrowdsale.sol\":4953:5176  function isOpen() public view returns (bool) {... */\n    tag_12:\n      callvalue\n      dup1\n      iszero\n      tag_98\n      jumpi\n      0x00\n      dup1\n      revert\n    tag_98:\n      pop\n      tag_99\n      tag_100\n      jump\t// in\n    tag_99:\n      mload(0x40)\n      tag_101\n      swap2\n      swap1\n      tag_58\n      jump\t// in\n    tag_101:\n      mload(0x40)\n      dup1\n      swap2\n      sub\n      swap1\n      return\n        /* \"preventa/JFVCrowdsale.sol\":2834:2859  uint64 public closingTime */\n    tag_13:\n      callvalue\n      dup1\n      iszero\n      tag_102\n      jumpi\n      0x00\n      dup1\n      revert\n    tag_102:\n      pop\n      tag_103\n      tag_104\n      jump\t// in\n    tag_103:\n      mload(0x40)\n      tag_105\n      swap2\n      swap1\n      tag_106\n      jump\t// in\n    tag_105:\n      mload(0x40)\n      dup1\n      swap2\n      sub\n      swap1\n      return\n        /* \"preventa/JFVCrowdsale.sol\":6380:6847  function finalize() external nonReentrant {... */\n    tag_14:\n      callvalue\n      dup1\n      iszero\n      tag_107\n      jumpi\n      0x00\n      dup1\n      revert\n    tag_107:\n      pop\n      tag_108\n      tag_109\n      jump\t// in\n    tag_108:\n      stop\n        /* \"preventa/JFVCrowdsale.sol\":3164:3189  uint256 public tokensSold */\n    tag_15:\n      callvalue\n      dup1\n      iszero\n      tag_110\n      jumpi\n      0x00\n      dup1\n      revert\n    tag_110:\n      pop\n      tag_111\n      tag_112\n      jump\t// in\n    tag_111:\n      mload(0x40)\n      tag_113\n      swap2\n      swap1\n      tag_70\n      jump\t// in\n    tag_113:\n      mload(0x40)\n      dup1\n      swap2\n      sub\n      swap1\n      return\n        /* \"preventa/JFVCrowdsale.sol\":2544:2565  address public wallet */\n    tag_16:\n      callvalue\n      dup1\n      iszero\n      tag_114\n      jumpi\n      0x00\n      dup1\n      revert\n    tag_114:\n      pop\n      tag_115\n      tag_116\n      jump\t// in\n    tag_115:\n      mload(0x40)\n      tag_117\n      swap2\n      swap1\n      tag_118\n      jump\t// in\n    tag_117:\n      mload(0x40)\n      dup1\n      swap2\n      sub\n      swap1\n      return\n        /* \"@openzeppelin/contracts/utils/Pausable.sol\":1726:1810  function paused() public view virtual returns (bool) {... */\n    tag_17:\n      callvalue\n      dup1\n      iszero\n      tag_119\n      jumpi\n      0x00\n      dup1\n      revert\n    tag_119:\n      pop\n      tag_120\n      tag_121\n      jump\t// in\n    tag_120:\n      mload(0x40)\n      tag_122\n      swap2\n      swap1\n      tag_58\n      jump\t// in\n    tag_122:\n      mload(0x40)\n      dup1\n      swap2\n      sub\n      swap1\n      return\n        /* \"preventa/JFVCrowdsale.sol\":8513:8588  function pause() external onlyRole(PAUSER_ROLE) {... */\n    tag_18:\n      callvalue\n      dup1\n      iszero\n      tag_123\n      jumpi\n      0x00\n      dup1\n      revert\n    tag_123:\n      pop\n      tag_124\n      tag_125\n      jump\t// in\n    tag_124:\n      stop\n        /* \"preventa/JFVCrowdsale.sol\":2939:2969  uint256 public maxContribution */\n    tag_19:\n      callvalue\n      dup1\n      iszero\n      tag_126\n      jumpi\n      0x00\n      dup1\n      revert\n    tag_126:\n      pop\n      tag_127\n      tag_128\n      jump\t// in\n    tag_127:\n      mload(0x40)\n      tag_129\n      swap2\n      swap1\n      tag_70\n      jump\t// in\n    tag_129:\n      mload(0x40)\n      dup1\n      swap2\n      sub\n      swap1\n      return\n        /* \"preventa/JFVCrowdsale.sol\":2663:2695  uint256 public immutable softCap */\n    tag_20:\n      callvalue\n      dup1\n      iszero\n      tag_130\n      jumpi\n      0x00\n      dup1\n      revert\n    tag_130:\n      pop\n      tag_131\n      tag_132\n      jump\t// in\n    tag_131:\n      mload(0x40)\n      tag_133\n      swap2\n      swap1\n      tag_70\n      jump\t// in\n    tag_133:\n      mload(0x40)\n      dup1\n      swap2\n      sub\n      swap1\n      return\n        /* \"@openzeppelin/contracts/access/AccessControl.sol\":2854:2990  function hasRole(bytes32 role, address account) public view virtual returns (bool) {... */\n    tag_21:\n      callvalue\n      dup1\n      iszero\n      tag_134\n      jumpi\n      0x00\n      dup1\n      revert\n    tag_134:\n      pop\n      tag_135\n      0x04\n      dup1\n      calldatasize\n      sub\n      dup2\n      add\n      swap1\n      tag_136\n      swap2\n      swap1\n      tag_74\n      jump\t// in\n    tag_136:\n      tag_137\n      jump\t// in\n    tag_135:\n      mload(0x40)\n      tag_138\n      swap2\n      swap1\n      tag_58\n      jump\t// in\n    tag_138:\n      mload(0x40)\n      dup1\n      swap2\n      sub\n      swap1\n      return\n        /* \"preventa/JFVCrowdsale.sol\":3198:3244  mapping(address => uint256) public contributed */\n    tag_22:\n      callvalue\n      dup1\n      iszero\n      tag_139\n      jumpi\n      0x00\n      dup1\n      revert\n    tag_139:\n      pop\n      tag_140\n      0x04\n      dup1\n      calldatasize\n      sub\n      dup2\n      add\n      swap1\n      tag_141\n      swap2\n      swap1\n      tag_95\n      jump\t// in\n    tag_141:\n      tag_142\n      jump\t// in\n    tag_140:\n      mload(0x40)\n      tag_143\n      swap2\n      swap1\n      tag_70\n      jump\t// in\n    tag_143:\n      mload(0x40)\n      dup1\n      swap2\n      sub\n      swap1\n      return\n        /* \"preventa/JFVCrowdsale.sol\":6890:7603  function claimTGE() external nonReentrant whenNotPaused {... */\n    tag_23:\n      callvalue\n      dup1\n      iszero\n      tag_144\n      jumpi\n      0x00\n      dup1\n      revert\n    tag_144:\n      pop\n      tag_145\n      tag_146\n      jump\t// in\n    tag_145:\n      stop\n        /* \"@openzeppelin/contracts/access/AccessControl.sol\":2187:2236  bytes32 public constant DEFAULT_ADMIN_ROLE = 0x00 */\n    tag_24:\n      callvalue\n      dup1\n      iszero\n      tag_147\n      jumpi\n      0x00\n      dup1\n      revert\n    tag_147:\n      pop\n      tag_148\n      tag_149\n      jump\t// in\n    tag_148:\n      mload(0x40)\n      tag_150\n      swap2\n      swap1\n      tag_65\n      jump\t// in\n    tag_150:\n      mload(0x40)\n      dup1\n      swap2\n      sub\n      swap1\n      return\n        /* \"preventa/JFVCrowdsale.sol\":1290:1352  bytes32 public constant CONFIG_ROLE = keccak256(\"CONFIG_ROLE\") */\n    tag_25:\n      callvalue\n      dup1\n      iszero\n      tag_151\n      jumpi\n      0x00\n      dup1\n      revert\n    tag_151:\n      pop\n      tag_152\n      tag_153\n      jump\t// in\n    tag_152:\n      mload(0x40)\n      tag_154\n      swap2\n      swap1\n      tag_65\n      jump\t// in\n    tag_154:\n      mload(0x40)\n      dup1\n      swap2\n      sub\n      swap1\n      return\n        /* \"preventa/JFVCrowdsale.sol\":2875:2905  uint256 public minContribution */\n    tag_26:\n      callvalue\n      dup1\n      iszero\n      tag_155\n      jumpi\n      0x00\n      dup1\n      revert\n    tag_155:\n      pop\n      tag_156\n      tag_157\n      jump\t// in\n    tag_156:\n      mload(0x40)\n      tag_158\n      swap2\n      swap1\n      tag_70\n      jump\t// in\n    tag_158:\n      mload(0x40)\n      dup1\n      swap2\n      sub\n      swap1\n      return\n        /* \"preventa/JFVCrowdsale.sol\":3436:3457  bool public finalized */\n    tag_27:\n      callvalue\n      dup1\n      iszero\n      tag_159\n      jumpi\n      0x00\n      dup1\n      revert\n    tag_159:\n      pop\n      tag_160\n      tag_161\n      jump\t// in\n    tag_160:\n      mload(0x40)\n      tag_162\n      swap2\n      swap1\n      tag_58\n      jump\t// in\n    tag_162:\n      mload(0x40)\n      dup1\n      swap2\n      sub\n      swap1\n      return\n        /* \"preventa/JFVCrowdsale.sol\":7667:8128  function claimRefund() external nonReentrant {... */\n    tag_28:\n      callvalue\n      dup1\n      iszero\n      tag_163\n      jumpi\n      0x00\n      dup1\n      revert\n    tag_163:\n      pop\n      tag_164\n      tag_165\n      jump\t// in\n    tag_164:\n      stop\n        /* \"preventa/JFVCrowdsale.sol\":2792:2817  uint64 public openingTime */\n    tag_29:\n      callvalue\n      dup1\n      iszero\n      tag_166\n      jumpi\n      0x00\n      dup1\n      revert\n    tag_166:\n      pop\n      tag_167\n      tag_168\n      jump\t// in\n    tag_167:\n      mload(0x40)\n      tag_169\n      swap2\n      swap1\n      tag_106\n      jump\t// in\n    tag_169:\n      mload(0x40)\n      dup1\n      swap2\n      sub\n      swap1\n      return\n        /* \"preventa/JFVCrowdsale.sol\":3360:3405  mapping(address => uint256) public tgeClaimed */\n    tag_30:\n      callvalue\n      dup1\n      iszero\n      tag_170\n      jumpi\n      0x00\n      dup1\n      revert\n    tag_170:\n      pop\n      tag_171\n      0x04\n      dup1\n      calldatasize\n      sub\n      dup2\n      add\n      swap1\n      tag_172\n      swap2\n      swap1\n      tag_95\n      jump\t// in\n    tag_172:\n      tag_173\n      jump\t// in\n    tag_171:\n      mload(0x40)\n      tag_174\n      swap2\n      swap1\n      tag_70\n      jump\t// in\n    tag_174:\n      mload(0x40)\n      dup1\n      swap2\n      sub\n      swap1\n      return\n        /* \"preventa/JFVCrowdsale.sol\":5184:5310  function isClosed() public view returns (bool) {... */\n    tag_31:\n      callvalue\n      dup1\n      iszero\n      tag_175\n      jumpi\n      0x00\n      dup1\n      revert\n    tag_175:\n      pop\n      tag_176\n      tag_177\n      jump\t// in\n    tag_176:\n      mload(0x40)\n      tag_178\n      swap2\n      swap1\n      tag_58\n      jump\t// in\n    tag_178:\n      mload(0x40)\n      dup1\n      swap2\n      sub\n      swap1\n      return\n        /* \"preventa/JFVCrowdsale.sol\":8765:9159  function setLimits(... */\n    tag_32:\n      callvalue\n      dup1\n      iszero\n      tag_179\n      jumpi\n      0x00\n      dup1\n      revert\n    tag_179:\n      pop\n      tag_180\n      0x04\n      dup1\n      calldatasize\n      sub\n      dup2\n      add\n      swap1\n      tag_181\n      swap2\n      swap1\n      tag_182\n      jump\t// in\n    tag_181:\n      tag_183\n      jump\t// in\n    tag_180:\n      stop\n        /* \"@openzeppelin/contracts/access/AccessControl.sol\":4642:4780  function revokeRole(bytes32 role, address account) public virtual onlyRole(getRoleAdmin(role)) {... */\n    tag_33:\n      callvalue\n      dup1\n      iszero\n      tag_184\n      jumpi\n      0x00\n      dup1\n      revert\n    tag_184:\n      pop\n      tag_185\n      0x04\n      dup1\n      calldatasize\n      sub\n      dup2\n      add\n      swap1\n      tag_186\n      swap2\n      swap1\n      tag_74\n      jump\t// in\n    tag_186:\n      tag_187\n      jump\t// in\n    tag_185:\n      stop\n        /* \"preventa/JFVCrowdsale.sol\":9821:10130  function setWallet(address newWallet) external onlyRole(CONFIG_ROLE) {... */\n    tag_34:\n      callvalue\n      dup1\n      iszero\n      tag_188\n      jumpi\n      0x00\n      dup1\n      revert\n    tag_188:\n      pop\n      tag_189\n      0x04\n      dup1\n      calldatasize\n      sub\n      dup2\n      add\n      swap1\n      tag_190\n      swap2\n      swap1\n      tag_95\n      jump\t// in\n    tag_190:\n      tag_191\n      jump\t// in\n    tag_189:\n      stop\n        /* \"preventa/JFVCrowdsale.sol\":8191:8458  function withdrawETH() external nonReentrant {... */\n    tag_35:\n      callvalue\n      dup1\n      iszero\n      tag_192\n      jumpi\n      0x00\n      dup1\n      revert\n    tag_192:\n      pop\n      tag_193\n      tag_194\n      jump\t// in\n    tag_193:\n      stop\n        /* \"preventa/JFVCrowdsale.sol\":1221:1283  bytes32 public constant PAUSER_ROLE = keccak256(\"PAUSER_ROLE\") */\n    tag_36:\n      callvalue\n      dup1\n      iszero\n      tag_195\n      jumpi\n      0x00\n      dup1\n      revert\n    tag_195:\n      pop\n      tag_196\n      tag_197\n      jump\t// in\n    tag_196:\n      mload(0x40)\n      tag_198\n      swap2\n      swap1\n      tag_65\n      jump\t// in\n    tag_198:\n      mload(0x40)\n      dup1\n      swap2\n      sub\n      swap1\n      return\n        /* \"preventa/JFVCrowdsale.sol\":9167:9519  function setTimes(... */\n    tag_37:\n      callvalue\n      dup1\n      iszero\n      tag_199\n      jumpi\n      0x00\n      dup1\n      revert\n    tag_199:\n      pop\n      tag_200\n      0x04\n      dup1\n      calldatasize\n      sub\n      dup2\n      add\n      swap1\n      tag_201\n      swap2\n      swap1\n      tag_202\n      jump\t// in\n    tag_201:\n      tag_203\n      jump\t// in\n    tag_200:\n      stop\n        /* \"preventa/JFVCrowdsale.sol\":5353:6330  function buyTokens(... */\n    tag_38:\n      tag_204\n      0x04\n      dup1\n      calldatasize\n      sub\n      dup2\n      add\n      swap1\n      tag_205\n      swap2\n      swap1\n      tag_95\n      jump\t// in\n    tag_205:\n      tag_206\n      jump\t// in\n    tag_204:\n      stop\n        /* \"preventa/JFVCrowdsale.sol\":3464:3485  bool public refunding */\n    tag_39:\n      callvalue\n      dup1\n      iszero\n      tag_207\n      jumpi\n      0x00\n      dup1\n      revert\n    tag_207:\n      pop\n      tag_208\n      tag_209\n      jump\t// in\n    tag_208:\n      mload(0x40)\n      tag_210\n      swap2\n      swap1\n      tag_58\n      jump\t// in\n    tag_210:\n      mload(0x40)\n      dup1\n      swap2\n      sub\n      swap1\n      return\n        /* \"preventa/JFVCrowdsale.sol\":3005:3035  uint16 public immutable tgeBps */\n    tag_40:\n      callvalue\n      dup1\n      iszero\n      tag_211\n      jumpi\n      0x00\n      dup1\n      revert\n    tag_211:\n      pop\n      tag_212\n      tag_213\n      jump\t// in\n    tag_212:\n      mload(0x40)\n      tag_214\n      swap2\n      swap1\n      tag_215\n      jump\t// in\n    tag_214:\n      mload(0x40)\n      dup1\n      swap2\n      sub\n      swap1\n      return\n        /* \"preventa/JFVCrowdsale.sol\":2729:2761  uint256 public immutable hardCap */\n    tag_41:\n      callvalue\n      dup1\n      iszero\n      tag_216\n      jumpi\n      0x00\n      dup1\n      revert\n    tag_216:\n      pop\n      tag_217\n      tag_218\n      jump\t// in\n    tag_217:\n      mload(0x40)\n      tag_219\n      swap2\n      swap1\n      tag_70\n      jump\t// in\n    tag_219:\n      mload(0x40)\n      dup1\n      swap2\n      sub\n      swap1\n      return\n        /* \"preventa/JFVCrowdsale.sol\":2452:2484  IJFVToken public immutable token */\n    tag_42:\n      callvalue\n      dup1\n      iszero\n      tag_220\n      jumpi\n      0x00\n      dup1\n      revert\n    tag_220:\n      pop\n      tag_221\n      tag_222\n      jump\t// in\n    tag_221:\n      mload(0x40)\n      tag_223\n      swap2\n      swap1\n      tag_224\n      jump\t// in\n    tag_223:\n      mload(0x40)\n      dup1\n      swap2\n      sub\n      swap1\n      return\n        /* \"@openzeppelin/contracts/access/AccessControl.sol\":2565:2767  function supportsInterface(bytes4 interfaceId) public view virtual override returns (bool) {... */\n    tag_56:\n        /* \"@openzeppelin/contracts/access/AccessControl.sol\":2650:2654  bool */\n      0x00\n        /* \"@openzeppelin/contracts/access/AccessControl.sol\":2688:2720  type(IAccessControl).interfaceId */\n      0x7965db0b00000000000000000000000000000000000000000000000000000000\n        /* \"@openzeppelin/contracts/access/AccessControl.sol\":2673:2720  interfaceId == type(IAccessControl).interfaceId */\n      not(0xffffffffffffffffffffffffffffffffffffffffffffffffffffffff)\n      and\n        /* \"@openzeppelin/contracts/access/AccessControl.sol\":2673:2684  interfaceId */\n      dup3\n        /* \"@openzeppelin/contracts/access/AccessControl.sol\":2673:2720  interfaceId == type(IAccessControl).interfaceId */\n      not(0xffffffffffffffffffffffffffffffffffffffffffffffffffffffff)\n      and\n      eq\n        /* \"@openzeppelin/contracts/access/AccessControl.sol\":2673:2760  interfaceId == type(IAccessControl).interfaceId || super.supportsInterface(interfaceId) */\n      dup1\n      tag_226\n      jumpi\n      pop\n        /* \"@openzeppelin/contracts/access/AccessControl.sol\":2724:2760  super.supportsInterface(interfaceId) */\n      tag_227\n        /* \"@openzeppelin/contracts/access/AccessControl.sol\":2748:2759  interfaceId */\n      dup3\n        /* \"@openzeppelin/contracts/access/AccessControl.sol\":2724:2747  super.supportsInterface */\n      tag_228\n        /* \"@openzeppelin/contracts/access/AccessControl.sol\":2724:2760  super.supportsInterface(interfaceId) */\n      jump\t// in\n    tag_227:\n        /* \"@openzeppelin/contracts/access/AccessControl.sol\":2673:2760  interfaceId == type(IAccessControl).interfaceId || super.supportsInterface(interfaceId) */\n    tag_226:\n        /* \"@openzeppelin/contracts/access/AccessControl.sol\":2666:2760  return interfaceId == type(IAccessControl).interfaceId || super.supportsInterface(interfaceId) */\n      swap1\n      pop\n        /* \"@openzeppelin/contracts/access/AccessControl.sol\":2565:2767  function supportsInterface(bytes4 interfaceId) public view virtual override returns (bool) {... */\n      swap2\n      swap1\n      pop\n      jump\t// out\n        /* \"@openzeppelin/contracts/access/AccessControl.sol\":3810:3930  function getRoleAdmin(bytes32 role) public view virtual returns (bytes32) {... */\n    tag_63:\n        /* \"@openzeppelin/contracts/access/AccessControl.sol\":3875:3882  bytes32 */\n      0x00\n        /* \"@openzeppelin/contracts/access/AccessControl.sol\":3901:3907  _roles */\n      0x02\n        /* \"@openzeppelin/contracts/access/AccessControl.sol\":3901:3913  _roles[role] */\n      0x00\n        /* \"@openzeppelin/contracts/access/AccessControl.sol\":3908:3912  role */\n      dup4\n        /* \"@openzeppelin/contracts/access/AccessControl.sol\":3901:3913  _roles[role] */\n      dup2\n      mstore\n      0x20\n      add\n      swap1\n      dup2\n      mstore\n      0x20\n      add\n      0x00\n      keccak256\n        /* \"@openzeppelin/contracts/access/AccessControl.sol\":3901:3923  _roles[role].adminRole */\n      0x01\n      add\n      sload\n        /* \"@openzeppelin/contracts/access/AccessControl.sol\":3894:3923  return _roles[role].adminRole */\n      swap1\n      pop\n        /* \"@openzeppelin/contracts/access/AccessControl.sol\":3810:3930  function getRoleAdmin(bytes32 role) public view virtual returns (bytes32) {... */\n      swap2\n      swap1\n      pop\n      jump\t// out\n        /* \"preventa/JFVCrowdsale.sol\":2618:2637  uint256 public rate */\n    tag_68:\n      sload(0x04)\n      dup2\n      jump\t// out\n        /* \"@openzeppelin/contracts/access/AccessControl.sol\":4226:4362  function grantRole(bytes32 role, address account) public virtual onlyRole(getRoleAdmin(role)) {... */\n    tag_75:\n        /* \"@openzeppelin/contracts/access/AccessControl.sol\":4300:4318  getRoleAdmin(role) */\n      tag_230\n        /* \"@openzeppelin/contracts/access/AccessControl.sol\":4313:4317  role */\n      dup3\n        /* \"@openzeppelin/contracts/access/AccessControl.sol\":4300:4312  getRoleAdmin */\n      tag_63\n        /* \"@openzeppelin/contracts/access/AccessControl.sol\":4300:4318  getRoleAdmin(role) */\n      jump\t// in\n    tag_230:\n        /* \"@openzeppelin/contracts/access/AccessControl.sol\":2464:2480  _checkRole(role) */\n      tag_232\n        /* \"@openzeppelin/contracts/access/AccessControl.sol\":2475:2479  role */\n      dup2\n        /* \"@openzeppelin/contracts/access/AccessControl.sol\":2464:2474  _checkRole */\n      tag_233\n        /* \"@openzeppelin/contracts/access/AccessControl.sol\":2464:2480  _checkRole(role) */\n      jump\t// in\n    tag_232:\n        /* \"@openzeppelin/contracts/access/AccessControl.sol\":4330:4355  _grantRole(role, account) */\n      tag_235\n        /* \"@openzeppelin/contracts/access/AccessControl.sol\":4341:4345  role */\n      dup4\n        /* \"@openzeppelin/contracts/access/AccessControl.sol\":4347:4354  account */\n      dup4\n        /* \"@openzeppelin/contracts/access/AccessControl.sol\":4330:4340  _grantRole */\n      tag_236\n        /* \"@openzeppelin/contracts/access/AccessControl.sol\":4330:4355  _grantRole(role, account) */\n      jump\t// in\n    tag_235:\n      pop\n        /* \"@openzeppelin/contracts/access/AccessControl.sol\":4226:4362  function grantRole(bytes32 role, address account) public virtual onlyRole(getRoleAdmin(role)) {... */\n      pop\n      pop\n      pop\n      jump\t// out\n        /* \"preventa/JFVCrowdsale.sol\":9527:9813  function setRate(uint256 newRate) external onlyRole(CONFIG_ROLE) {... */\n    tag_80:\n        /* \"preventa/JFVCrowdsale.sol\":1328:1352  keccak256(\"CONFIG_ROLE\") */\n      0x82db594318110a04b6349ce48645aa69f0892751bc893d15e61d9e2b9c4630f5\n        /* \"@openzeppelin/contracts/access/AccessControl.sol\":2464:2480  _checkRole(role) */\n      tag_238\n        /* \"@openzeppelin/contracts/access/AccessControl.sol\":2475:2479  role */\n      dup2\n        /* \"@openzeppelin/contracts/access/AccessControl.sol\":2464:2474  _checkRole */\n      tag_233\n        /* \"@openzeppelin/contracts/access/AccessControl.sol\":2464:2480  _checkRole(role) */\n      jump\t// in\n    tag_238:\n        /* \"preventa/JFVCrowdsale.sol\":9626:9637  openingTime */\n      0x05\n      0x00\n      swap1\n      sload\n      swap1\n      0x0100\n      exp\n      swap1\n      div\n      0xffffffffffffffff\n      and\n        /* \"preventa/JFVCrowdsale.sol\":9607:9637  block.timestamp >= openingTime */\n      0xffffffffffffffff\n      and\n        /* \"preventa/JFVCrowdsale.sol\":9607:9622  block.timestamp */\n      timestamp\n        /* \"preventa/JFVCrowdsale.sol\":9607:9637  block.timestamp >= openingTime */\n      lt\n        /* \"preventa/JFVCrowdsale.sol\":9603:9659  if (block.timestamp >= openingTime) revert SaleNotOpen() */\n      tag_240\n      jumpi\n        /* \"preventa/JFVCrowdsale.sol\":9646:9659  SaleNotOpen() */\n      mload(0x40)\n      0x445dce4c00000000000000000000000000000000000000000000000000000000\n      dup2\n      mstore\n      0x04\n      add\n      mload(0x40)\n      dup1\n      swap2\n      sub\n      swap1\n      revert\n        /* \"preventa/JFVCrowdsale.sol\":9603:9659  if (block.timestamp >= openingTime) revert SaleNotOpen() */\n    tag_240:\n        /* \"preventa/JFVCrowdsale.sol\":9685:9686  0 */\n      0x00\n        /* \"preventa/JFVCrowdsale.sol\":9674:9681  newRate */\n      dup3\n        /* \"preventa/JFVCrowdsale.sol\":9674:9686  newRate == 0 */\n      sub\n        /* \"preventa/JFVCrowdsale.sol\":9670:9710  if (newRate == 0) revert InvalidParams() */\n      tag_241\n      jumpi\n        /* \"preventa/JFVCrowdsale.sol\":9695:9710  InvalidParams() */\n      mload(0x40)\n      0xa86b651200000000000000000000000000000000000000000000000000000000\n      dup2\n      mstore\n      0x04\n      add\n      mload(0x40)\n      dup1\n      swap2\n      sub\n      swap1\n      revert\n        /* \"preventa/JFVCrowdsale.sol\":9670:9710  if (newRate == 0) revert InvalidParams() */\n    tag_241:\n        /* \"preventa/JFVCrowdsale.sol\":9721:9732  uint256 old */\n      0x00\n        /* \"preventa/JFVCrowdsale.sol\":9735:9739  rate */\n      sload(0x04)\n        /* \"preventa/JFVCrowdsale.sol\":9721:9739  uint256 old = rate */\n      swap1\n      pop\n        /* \"preventa/JFVCrowdsale.sol\":9757:9764  newRate */\n      dup3\n        /* \"preventa/JFVCrowdsale.sol\":9750:9754  rate */\n      0x04\n        /* \"preventa/JFVCrowdsale.sol\":9750:9764  rate = newRate */\n      dup2\n      swap1\n      sstore\n      pop\n        /* \"preventa/JFVCrowdsale.sol\":9780:9805  RateUpdated(old, newRate) */\n      0xb38780ddde1f073d91c150de2696f3f7085883648ba21cc5ef01029cb21d1916\n        /* \"preventa/JFVCrowdsale.sol\":9792:9795  old */\n      dup2\n        /* \"preventa/JFVCrowdsale.sol\":9797:9804  newRate */\n      dup5\n        /* \"preventa/JFVCrowdsale.sol\":9780:9805  RateUpdated(old, newRate) */\n      mload(0x40)\n      tag_242\n      swap3\n      swap2\n      swap1\n      tag_243\n      jump\t// in\n    tag_242:\n      mload(0x40)\n      dup1\n      swap2\n      sub\n      swap1\n      log1\n        /* \"preventa/JFVCrowdsale.sol\":9592:9813  {... */\n      pop\n        /* \"preventa/JFVCrowdsale.sol\":9527:9813  function setRate(uint256 newRate) external onlyRole(CONFIG_ROLE) {... */\n      pop\n      pop\n      jump\t// out\n        /* \"@openzeppelin/contracts/access/AccessControl.sol\":5328:5573  function renounceRole(bytes32 role, address callerConfirmation) public virtual {... */\n    tag_84:\n        /* \"@openzeppelin/contracts/access/AccessControl.sol\":5443:5455  _msgSender() */\n      tag_245\n        /* \"@openzeppelin/contracts/access/AccessControl.sol\":5443:5453  _msgSender */\n      tag_246\n        /* \"@openzeppelin/contracts/access/AccessControl.sol\":5443:5455  _msgSender() */\n      jump\t// in\n    tag_245:\n        /* \"@openzeppelin/contracts/access/AccessControl.sol\":5421:5455  callerConfirmation != _msgSender() */\n      0xffffffffffffffffffffffffffffffffffffffff\n      and\n        /* \"@openzeppelin/contracts/access/AccessControl.sol\":5421:5439  callerConfirmation */\n      dup2\n        /* \"@openzeppelin/contracts/access/AccessControl.sol\":5421:5455  callerConfirmation != _msgSender() */\n      0xffffffffffffffffffffffffffffffffffffffff\n      and\n      eq\n        /* \"@openzeppelin/contracts/access/AccessControl.sol\":5417:5519  if (callerConfirmation != _msgSender()) {... */\n      tag_247\n      jumpi\n        /* \"@openzeppelin/contracts/access/AccessControl.sol\":5478:5508  AccessControlBadConfirmation() */\n      mload(0x40)\n      0x6697b23200000000000000000000000000000000000000000000000000000000\n      dup2\n      mstore\n      0x04\n      add\n      mload(0x40)\n      dup1\n      swap2\n      sub\n      swap1\n      revert\n        /* \"@openzeppelin/contracts/access/AccessControl.sol\":5417:5519  if (callerConfirmation != _msgSender()) {... */\n    tag_247:\n        /* \"@openzeppelin/contracts/access/AccessControl.sol\":5529:5566  _revokeRole(role, callerConfirmation) */\n      tag_248\n        /* \"@openzeppelin/contracts/access/AccessControl.sol\":5541:5545  role */\n      dup3\n        /* \"@openzeppelin/contracts/access/AccessControl.sol\":5547:5565  callerConfirmation */\n      dup3\n        /* \"@openzeppelin/contracts/access/AccessControl.sol\":5529:5540  _revokeRole */\n      tag_249\n        /* \"@openzeppelin/contracts/access/AccessControl.sol\":5529:5566  _revokeRole(role, callerConfirmation) */\n      jump\t// in\n    tag_248:\n      pop\n        /* \"@openzeppelin/contracts/access/AccessControl.sol\":5328:5573  function renounceRole(bytes32 role, address callerConfirmation) public virtual {... */\n      pop\n      pop\n      jump\t// out\n        /* \"preventa/JFVCrowdsale.sol\":8596:8675  function unpause() external onlyRole(PAUSER_ROLE) {... */\n    tag_87:\n        /* \"preventa/JFVCrowdsale.sol\":1259:1283  keccak256(\"PAUSER_ROLE\") */\n      0x65d7a28e3265b37a6474929f336521b332c1681b933f6cb9f3376673440d862a\n        /* \"@openzeppelin/contracts/access/AccessControl.sol\":2464:2480  _checkRole(role) */\n      tag_251\n        /* \"@openzeppelin/contracts/access/AccessControl.sol\":2475:2479  role */\n      dup2\n        /* \"@openzeppelin/contracts/access/AccessControl.sol\":2464:2474  _checkRole */\n      tag_233\n        /* \"@openzeppelin/contracts/access/AccessControl.sol\":2464:2480  _checkRole(role) */\n      jump\t// in\n    tag_251:\n        /* \"preventa/JFVCrowdsale.sol\":8657:8667  _unpause() */\n      tag_253\n        /* \"preventa/JFVCrowdsale.sol\":8657:8665  _unpause */\n      tag_254\n        /* \"preventa/JFVCrowdsale.sol\":8657:8667  _unpause() */\n      jump\t// in\n    tag_253:\n        /* \"preventa/JFVCrowdsale.sol\":8596:8675  function unpause() external onlyRole(PAUSER_ROLE) {... */\n      pop\n      jump\t// out\n        /* \"preventa/JFVCrowdsale.sol\":3133:3157  uint256 public weiRaised */\n    tag_90:\n      sload(0x08)\n      dup2\n      jump\t// out\n        /* \"preventa/JFVCrowdsale.sol\":3278:3322  mapping(address => uint256) public allocated */\n    tag_96:\n      mstore(0x20, 0x0b)\n      dup1\n      0x00\n      mstore\n      keccak256(0x00, 0x40)\n      0x00\n      swap2\n      pop\n      swap1\n      pop\n      sload\n      dup2\n      jump\t// out\n        /* \"preventa/JFVCrowdsale.sol\":4953:5176  function isOpen() public view returns (bool) {... */\n    tag_100:\n        /* \"preventa/JFVCrowdsale.sol\":4992:4996  bool */\n      0x00\n        /* \"preventa/JFVCrowdsale.sol\":5048:5059  openingTime */\n      0x05\n      0x00\n      swap1\n      sload\n      swap1\n      0x0100\n      exp\n      swap1\n      div\n      0xffffffffffffffff\n      and\n        /* \"preventa/JFVCrowdsale.sol\":5029:5059  block.timestamp >= openingTime */\n      0xffffffffffffffff\n      and\n        /* \"preventa/JFVCrowdsale.sol\":5029:5044  block.timestamp */\n      timestamp\n        /* \"preventa/JFVCrowdsale.sol\":5029:5059  block.timestamp >= openingTime */\n      lt\n      iszero\n        /* \"preventa/JFVCrowdsale.sol\":5029:5106  block.timestamp >= openingTime &&... */\n      dup1\n      iszero\n      tag_256\n      jumpi\n      pop\n        /* \"preventa/JFVCrowdsale.sol\":5095:5106  closingTime */\n      0x05\n      0x08\n      swap1\n      sload\n      swap1\n      0x0100\n      exp\n      swap1\n      div\n      0xffffffffffffffff\n      and\n        /* \"preventa/JFVCrowdsale.sol\":5076:5106  block.timestamp <= closingTime */\n      0xffffffffffffffff\n      and\n        /* \"preventa/JFVCrowdsale.sol\":5076:5091  block.timestamp */\n      timestamp\n        /* \"preventa/JFVCrowdsale.sol\":5076:5106  block.timestamp <= closingTime */\n      gt\n      iszero\n        /* \"preventa/JFVCrowdsale.sol\":5029:5106  block.timestamp >= openingTime &&... */\n    tag_256:\n        /* \"preventa/JFVCrowdsale.sol\":5029:5142  block.timestamp >= openingTime &&... */\n      dup1\n      iszero\n      tag_257\n      jumpi\n      pop\n        /* \"preventa/JFVCrowdsale.sol\":5135:5142  hardCap */\n      immutable(\"0xeae3a40291c102cf85748609ff9046ea32530afca3ce058bd94a667258369fd6\")\n        /* \"preventa/JFVCrowdsale.sol\":5123:5132  weiRaised */\n      sload(0x08)\n        /* \"preventa/JFVCrowdsale.sol\":5123:5142  weiRaised < hardCap */\n      lt\n        /* \"preventa/JFVCrowdsale.sol\":5029:5142  block.timestamp >= openingTime &&... */\n    tag_257:\n        /* \"preventa/JFVCrowdsale.sol\":5029:5168  block.timestamp >= openingTime &&... */\n      dup1\n      iszero\n      tag_258\n      jumpi\n      pop\n        /* \"preventa/JFVCrowdsale.sol\":5160:5168  paused() */\n      tag_259\n        /* \"preventa/JFVCrowdsale.sol\":5160:5166  paused */\n      tag_121\n        /* \"preventa/JFVCrowdsale.sol\":5160:5168  paused() */\n      jump\t// in\n    tag_259:\n        /* \"preventa/JFVCrowdsale.sol\":5159:5168  !paused() */\n      iszero\n        /* \"preventa/JFVCrowdsale.sol\":5029:5168  block.timestamp >= openingTime &&... */\n    tag_258:\n        /* \"preventa/JFVCrowdsale.sol\":5009:5168  return... */\n      swap1\n      pop\n        /* \"preventa/JFVCrowdsale.sol\":4953:5176  function isOpen() public view returns (bool) {... */\n      swap1\n      jump\t// out\n        /* \"preventa/JFVCrowdsale.sol\":2834:2859  uint64 public closingTime */\n    tag_104:\n      0x05\n      0x08\n      swap1\n      sload\n      swap1\n      0x0100\n      exp\n      swap1\n      div\n      0xffffffffffffffff\n      and\n      dup2\n      jump\t// out\n        /* \"preventa/JFVCrowdsale.sol\":6380:6847  function finalize() external nonReentrant {... */\n    tag_109:\n        /* \"@openzeppelin/contracts/utils/ReentrancyGuard.sol\":2500:2521  _nonReentrantBefore() */\n      tag_261\n        /* \"@openzeppelin/contracts/utils/ReentrancyGuard.sol\":2500:2519  _nonReentrantBefore */\n      tag_262\n        /* \"@openzeppelin/contracts/utils/ReentrancyGuard.sol\":2500:2521  _nonReentrantBefore() */\n      jump\t// in\n    tag_261:\n        /* \"preventa/JFVCrowdsale.sol\":6438:6448  isClosed() */\n      tag_264\n        /* \"preventa/JFVCrowdsale.sol\":6438:6446  isClosed */\n      tag_177\n        /* \"preventa/JFVCrowdsale.sol\":6438:6448  isClosed() */\n      jump\t// in\n    tag_264:\n        /* \"preventa/JFVCrowdsale.sol\":6433:6472  if (!isClosed()) revert SaleNotClosed() */\n      tag_265\n      jumpi\n        /* \"preventa/JFVCrowdsale.sol\":6457:6472  SaleNotClosed() */\n      mload(0x40)\n      0x78fa807700000000000000000000000000000000000000000000000000000000\n      dup2\n      mstore\n      0x04\n      add\n      mload(0x40)\n      dup1\n      swap2\n      sub\n      swap1\n      revert\n        /* \"preventa/JFVCrowdsale.sol\":6433:6472  if (!isClosed()) revert SaleNotClosed() */\n    tag_265:\n        /* \"preventa/JFVCrowdsale.sol\":6487:6496  finalized */\n      0x0d\n      0x00\n      swap1\n      sload\n      swap1\n      0x0100\n      exp\n      swap1\n      div\n      0xff\n      and\n        /* \"preventa/JFVCrowdsale.sol\":6483:6523  if (finalized) revert AlreadyFinalized() */\n      iszero\n      tag_266\n      jumpi\n        /* \"preventa/JFVCrowdsale.sol\":6505:6523  AlreadyFinalized() */\n      mload(0x40)\n      0x475a253500000000000000000000000000000000000000000000000000000000\n      dup2\n      mstore\n      0x04\n      add\n      mload(0x40)\n      dup1\n      swap2\n      sub\n      swap1\n      revert\n        /* \"preventa/JFVCrowdsale.sol\":6483:6523  if (finalized) revert AlreadyFinalized() */\n    tag_266:\n        /* \"preventa/JFVCrowdsale.sol\":6548:6552  true */\n      0x01\n        /* \"preventa/JFVCrowdsale.sol\":6536:6545  finalized */\n      0x0d\n      0x00\n        /* \"preventa/JFVCrowdsale.sol\":6536:6552  finalized = true */\n      0x0100\n      exp\n      dup2\n      sload\n      dup2\n      0xff\n      mul\n      not\n      and\n      swap1\n      dup4\n      iszero\n      iszero\n      mul\n      or\n      swap1\n      sstore\n      pop\n        /* \"preventa/JFVCrowdsale.sol\":6582:6589  softCap */\n      immutable(\"0x6d7e9d25f7937a025d098651c32892e1256b8f7bcedf36aadd28cccf92a5a08d\")\n        /* \"preventa/JFVCrowdsale.sol\":6569:6578  weiRaised */\n      sload(0x08)\n        /* \"preventa/JFVCrowdsale.sol\":6569:6589  weiRaised >= softCap */\n      lt\n        /* \"preventa/JFVCrowdsale.sol\":6565:6840  if (weiRaised >= softCap) {... */\n      tag_267\n      jumpi\n        /* \"preventa/JFVCrowdsale.sol\":6611:6626  Finalized(true) */\n      0x41493253ae80c9f89e25283c36f67849365d0515134ce43de1314223cb6f7342\n        /* \"preventa/JFVCrowdsale.sol\":6621:6625  true */\n      0x01\n        /* \"preventa/JFVCrowdsale.sol\":6611:6626  Finalized(true) */\n      mload(0x40)\n      tag_268\n      swap2\n      swap1\n      tag_58\n      jump\t// in\n    tag_268:\n      mload(0x40)\n      dup1\n      swap2\n      sub\n      swap1\n      log1\n        /* \"preventa/JFVCrowdsale.sol\":6565:6840  if (weiRaised >= softCap) {... */\n      jump(tag_269)\n    tag_267:\n        /* \"preventa/JFVCrowdsale.sol\":6752:6756  true */\n      0x01\n        /* \"preventa/JFVCrowdsale.sol\":6740:6749  refunding */\n      0x0d\n      0x01\n        /* \"preventa/JFVCrowdsale.sol\":6740:6756  refunding = true */\n      0x0100\n      exp\n      dup2\n      sload\n      dup2\n      0xff\n      mul\n      not\n      and\n      swap1\n      dup4\n      iszero\n      iszero\n      mul\n      or\n      swap1\n      sstore\n      pop\n        /* \"preventa/JFVCrowdsale.sol\":6776:6792  RefundsEnabled() */\n      0x599d8e5a83cffb867d051598c4d70e805d59802d8081c1c7d6dffc5b6aca2b89\n      mload(0x40)\n      mload(0x40)\n      dup1\n      swap2\n      sub\n      swap1\n      log1\n        /* \"preventa/JFVCrowdsale.sol\":6812:6828  Finalized(false) */\n      0x41493253ae80c9f89e25283c36f67849365d0515134ce43de1314223cb6f7342\n        /* \"preventa/JFVCrowdsale.sol\":6822:6827  false */\n      0x00\n        /* \"preventa/JFVCrowdsale.sol\":6812:6828  Finalized(false) */\n      mload(0x40)\n      tag_270\n      swap2\n      swap1\n      tag_58\n      jump\t// in\n    tag_270:\n      mload(0x40)\n      dup1\n      swap2\n      sub\n      swap1\n      log1\n        /* \"preventa/JFVCrowdsale.sol\":6565:6840  if (weiRaised >= softCap) {... */\n    tag_269:\n        /* \"@openzeppelin/contracts/utils/ReentrancyGuard.sol\":2542:2562  _nonReentrantAfter() */\n      tag_271\n        /* \"@openzeppelin/contracts/utils/ReentrancyGuard.sol\":2542:2560  _nonReentrantAfter */\n      tag_272\n        /* \"@openzeppelin/contracts/utils/ReentrancyGuard.sol\":2542:2562  _nonReentrantAfter() */\n      jump\t// in\n    tag_271:\n        /* \"preventa/JFVCrowdsale.sol\":6380:6847  function finalize() external nonReentrant {... */\n      jump\t// out\n        /* \"preventa/JFVCrowdsale.sol\":3164:3189  uint256 public tokensSold */\n    tag_112:\n      sload(0x09)\n      dup2\n      jump\t// out\n        /* \"preventa/JFVCrowdsale.sol\":2544:2565  address public wallet */\n    tag_116:\n      0x03\n      0x00\n      swap1\n      sload\n      swap1\n      0x0100\n      exp\n      swap1\n      div\n      0xffffffffffffffffffffffffffffffffffffffff\n      and\n      dup2\n      jump\t// out\n        /* \"@openzeppelin/contracts/utils/Pausable.sol\":1726:1810  function paused() public view virtual returns (bool) {... */\n    tag_121:\n        /* \"@openzeppelin/contracts/utils/Pausable.sol\":1773:1777  bool */\n      0x00\n        /* \"@openzeppelin/contracts/utils/Pausable.sol\":1796:1803  _paused */\n      0x01\n      0x00\n      swap1\n      sload\n      swap1\n      0x0100\n      exp\n      swap1\n      div\n      0xff\n      and\n        /* \"@openzeppelin/contracts/utils/Pausable.sol\":1789:1803  return _paused */\n      swap1\n      pop\n        /* \"@openzeppelin/contracts/utils/Pausable.sol\":1726:1810  function paused() public view virtual returns (bool) {... */\n      swap1\n      jump\t// out\n        /* \"preventa/JFVCrowdsale.sol\":8513:8588  function pause() external onlyRole(PAUSER_ROLE) {... */\n    tag_125:\n        /* \"preventa/JFVCrowdsale.sol\":1259:1283  keccak256(\"PAUSER_ROLE\") */\n      0x65d7a28e3265b37a6474929f336521b332c1681b933f6cb9f3376673440d862a\n        /* \"@openzeppelin/contracts/access/AccessControl.sol\":2464:2480  _checkRole(role) */\n      tag_275\n        /* \"@openzeppelin/contracts/access/AccessControl.sol\":2475:2479  role */\n      dup2\n        /* \"@openzeppelin/contracts/access/AccessControl.sol\":2464:2474  _checkRole */\n      tag_233\n        /* \"@openzeppelin/contracts/access/AccessControl.sol\":2464:2480  _checkRole(role) */\n      jump\t// in\n    tag_275:\n        /* \"preventa/JFVCrowdsale.sol\":8572:8580  _pause() */\n      tag_277\n        /* \"preventa/JFVCrowdsale.sol\":8572:8578  _pause */\n      tag_278\n        /* \"preventa/JFVCrowdsale.sol\":8572:8580  _pause() */\n      jump\t// in\n    tag_277:\n        /* \"preventa/JFVCrowdsale.sol\":8513:8588  function pause() external onlyRole(PAUSER_ROLE) {... */\n      pop\n      jump\t// out\n        /* \"preventa/JFVCrowdsale.sol\":2939:2969  uint256 public maxContribution */\n    tag_128:\n      sload(0x07)\n      dup2\n      jump\t// out\n        /* \"preventa/JFVCrowdsale.sol\":2663:2695  uint256 public immutable softCap */\n    tag_132:\n      immutable(\"0x6d7e9d25f7937a025d098651c32892e1256b8f7bcedf36aadd28cccf92a5a08d\")\n      dup2\n      jump\t// out\n        /* \"@openzeppelin/contracts/access/AccessControl.sol\":2854:2990  function hasRole(bytes32 role, address account) public view virtual returns (bool) {... */\n    tag_137:\n        /* \"@openzeppelin/contracts/access/AccessControl.sol\":2931:2935  bool */\n      0x00\n        /* \"@openzeppelin/contracts/access/AccessControl.sol\":2954:2960  _roles */\n      0x02\n        /* \"@openzeppelin/contracts/access/AccessControl.sol\":2954:2966  _roles[role] */\n      0x00\n        /* \"@openzeppelin/contracts/access/AccessControl.sol\":2961:2965  role */\n      dup5\n        /* \"@openzeppelin/contracts/access/AccessControl.sol\":2954:2966  _roles[role] */\n      dup2\n      mstore\n      0x20\n      add\n      swap1\n      dup2\n      mstore\n      0x20\n      add\n      0x00\n      keccak256\n        /* \"@openzeppelin/contracts/access/AccessControl.sol\":2954:2974  _roles[role].hasRole */\n      0x00\n      add\n        /* \"@openzeppelin/contracts/access/AccessControl.sol\":2954:2983  _roles[role].hasRole[account] */\n      0x00\n        /* \"@openzeppelin/contracts/access/AccessControl.sol\":2975:2982  account */\n      dup4\n        /* \"@openzeppelin/contracts/access/AccessControl.sol\":2954:2983  _roles[role].hasRole[account] */\n      0xffffffffffffffffffffffffffffffffffffffff\n      and\n      0xffffffffffffffffffffffffffffffffffffffff\n      and\n      dup2\n      mstore\n      0x20\n      add\n      swap1\n      dup2\n      mstore\n      0x20\n      add\n      0x00\n      keccak256\n      0x00\n      swap1\n      sload\n      swap1\n      0x0100\n      exp\n      swap1\n      div\n      0xff\n      and\n        /* \"@openzeppelin/contracts/access/AccessControl.sol\":2947:2983  return _roles[role].hasRole[account] */\n      swap1\n      pop\n        /* \"@openzeppelin/contracts/access/AccessControl.sol\":2854:2990  function hasRole(bytes32 role, address account) public view virtual returns (bool) {... */\n      swap3\n      swap2\n      pop\n      pop\n      jump\t// out\n        /* \"preventa/JFVCrowdsale.sol\":3198:3244  mapping(address => uint256) public contributed */\n    tag_142:\n      mstore(0x20, 0x0a)\n      dup1\n      0x00\n      mstore\n      keccak256(0x00, 0x40)\n      0x00\n      swap2\n      pop\n      swap1\n      pop\n      sload\n      dup2\n      jump\t// out\n        /* \"preventa/JFVCrowdsale.sol\":6890:7603  function claimTGE() external nonReentrant whenNotPaused {... */\n    tag_146:\n        /* \"@openzeppelin/contracts/utils/ReentrancyGuard.sol\":2500:2521  _nonReentrantBefore() */\n      tag_281\n        /* \"@openzeppelin/contracts/utils/ReentrancyGuard.sol\":2500:2519  _nonReentrantBefore */\n      tag_262\n        /* \"@openzeppelin/contracts/utils/ReentrancyGuard.sol\":2500:2521  _nonReentrantBefore() */\n      jump\t// in\n    tag_281:\n        /* \"@openzeppelin/contracts/utils/Pausable.sol\":1350:1369  _requireNotPaused() */\n      tag_283\n        /* \"@openzeppelin/contracts/utils/Pausable.sol\":1350:1367  _requireNotPaused */\n      tag_284\n        /* \"@openzeppelin/contracts/utils/Pausable.sol\":1350:1369  _requireNotPaused() */\n      jump\t// in\n    tag_283:\n        /* \"preventa/JFVCrowdsale.sol\":6962:6971  finalized */\n      0x0d\n      0x00\n      swap1\n      sload\n      swap1\n      0x0100\n      exp\n      swap1\n      div\n      0xff\n      and\n        /* \"preventa/JFVCrowdsale.sol\":6961:6971  !finalized */\n      iszero\n        /* \"preventa/JFVCrowdsale.sol\":6961:6984  !finalized || refunding */\n      dup1\n      tag_286\n      jumpi\n      pop\n        /* \"preventa/JFVCrowdsale.sol\":6975:6984  refunding */\n      0x0d\n      0x01\n      swap1\n      sload\n      swap1\n      0x0100\n      exp\n      swap1\n      div\n      0xff\n      and\n        /* \"preventa/JFVCrowdsale.sol\":6961:6984  !finalized || refunding */\n    tag_286:\n        /* \"preventa/JFVCrowdsale.sol\":6957:7012  if (!finalized || refunding) revert SoftCapNotReached() */\n      iszero\n      tag_287\n      jumpi\n        /* \"preventa/JFVCrowdsale.sol\":6993:7012  SoftCapNotReached() */\n      mload(0x40)\n      0x2bdc91ad00000000000000000000000000000000000000000000000000000000\n      dup2\n      mstore\n      0x04\n      add\n      mload(0x40)\n      dup1\n      swap2\n      sub\n      swap1\n      revert\n        /* \"preventa/JFVCrowdsale.sol\":6957:7012  if (!finalized || refunding) revert SoftCapNotReached() */\n    tag_287:\n        /* \"preventa/JFVCrowdsale.sol\":7025:7038  uint256 alloc */\n      0x00\n        /* \"preventa/JFVCrowdsale.sol\":7041:7050  allocated */\n      0x0b\n        /* \"preventa/JFVCrowdsale.sol\":7041:7062  allocated[msg.sender] */\n      0x00\n        /* \"preventa/JFVCrowdsale.sol\":7051:7061  msg.sender */\n      caller\n        /* \"preventa/JFVCrowdsale.sol\":7041:7062  allocated[msg.sender] */\n      0xffffffffffffffffffffffffffffffffffffffff\n      and\n      0xffffffffffffffffffffffffffffffffffffffff\n      and\n      dup2\n      mstore\n      0x20\n      add\n      swap1\n      dup2\n      mstore\n      0x20\n      add\n      0x00\n      keccak256\n      sload\n        /* \"preventa/JFVCrowdsale.sol\":7025:7062  uint256 alloc = allocated[msg.sender] */\n      swap1\n      pop\n        /* \"preventa/JFVCrowdsale.sol\":7086:7087  0 */\n      0x00\n        /* \"preventa/JFVCrowdsale.sol\":7077:7082  alloc */\n      dup2\n        /* \"preventa/JFVCrowdsale.sol\":7077:7087  alloc == 0 */\n      sub\n        /* \"preventa/JFVCrowdsale.sol\":7073:7112  if (alloc == 0) revert NothingToClaim() */\n      tag_288\n      jumpi\n        /* \"preventa/JFVCrowdsale.sol\":7096:7112  NothingToClaim() */\n      mload(0x40)\n      0x969bf72800000000000000000000000000000000000000000000000000000000\n      dup2\n      mstore\n      0x04\n      add\n      mload(0x40)\n      dup1\n      swap2\n      sub\n      swap1\n      revert\n        /* \"preventa/JFVCrowdsale.sol\":7073:7112  if (alloc == 0) revert NothingToClaim() */\n    tag_288:\n        /* \"preventa/JFVCrowdsale.sol\":7125:7141  uint256 tgeTotal */\n      0x00\n        /* \"preventa/JFVCrowdsale.sol\":7163:7169  10_000 */\n      0x2710\n        /* \"preventa/JFVCrowdsale.sol\":7153:7159  tgeBps */\n      immutable(\"0x5192c7f75669ca0287240345ac757ca313b6b35719d108d92e530d5617eb4a60\")\n        /* \"preventa/JFVCrowdsale.sol\":7145:7159  alloc * tgeBps */\n      0xffff\n      and\n        /* \"preventa/JFVCrowdsale.sol\":7145:7150  alloc */\n      dup4\n        /* \"preventa/JFVCrowdsale.sol\":7145:7159  alloc * tgeBps */\n      tag_289\n      swap2\n      swap1\n      tag_290\n      jump\t// in\n    tag_289:\n        /* \"preventa/JFVCrowdsale.sol\":7144:7169  (alloc * tgeBps) / 10_000 */\n      tag_291\n      swap2\n      swap1\n      tag_292\n      jump\t// in\n    tag_291:\n        /* \"preventa/JFVCrowdsale.sol\":7125:7169  uint256 tgeTotal = (alloc * tgeBps) / 10_000 */\n      swap1\n      pop\n        /* \"preventa/JFVCrowdsale.sol\":7180:7195  uint256 already */\n      0x00\n        /* \"preventa/JFVCrowdsale.sol\":7198:7208  tgeClaimed */\n      0x0c\n        /* \"preventa/JFVCrowdsale.sol\":7198:7220  tgeClaimed[msg.sender] */\n      0x00\n        /* \"preventa/JFVCrowdsale.sol\":7209:7219  msg.sender */\n      caller\n        /* \"preventa/JFVCrowdsale.sol\":7198:7220  tgeClaimed[msg.sender] */\n      0xffffffffffffffffffffffffffffffffffffffff\n      and\n      0xffffffffffffffffffffffffffffffffffffffff\n      and\n      dup2\n      mstore\n      0x20\n      add\n      swap1\n      dup2\n      mstore\n      0x20\n      add\n      0x00\n      keccak256\n      sload\n        /* \"preventa/JFVCrowdsale.sol\":7180:7220  uint256 already = tgeClaimed[msg.sender] */\n      swap1\n      pop\n        /* \"preventa/JFVCrowdsale.sol\":7247:7254  already */\n      dup1\n        /* \"preventa/JFVCrowdsale.sol\":7235:7243  tgeTotal */\n      dup3\n        /* \"preventa/JFVCrowdsale.sol\":7235:7254  tgeTotal <= already */\n      gt\n        /* \"preventa/JFVCrowdsale.sol\":7231:7279  if (tgeTotal <= already) revert NothingToClaim() */\n      tag_293\n      jumpi\n        /* \"preventa/JFVCrowdsale.sol\":7263:7279  NothingToClaim() */\n      mload(0x40)\n      0x969bf72800000000000000000000000000000000000000000000000000000000\n      dup2\n      mstore\n      0x04\n      add\n      mload(0x40)\n      dup1\n      swap2\n      sub\n      swap1\n      revert\n        /* \"preventa/JFVCrowdsale.sol\":7231:7279  if (tgeTotal <= already) revert NothingToClaim() */\n    tag_293:\n        /* \"preventa/JFVCrowdsale.sol\":7292:7303  uint256 due */\n      0x00\n        /* \"preventa/JFVCrowdsale.sol\":7317:7324  already */\n      dup2\n        /* \"preventa/JFVCrowdsale.sol\":7306:7314  tgeTotal */\n      dup4\n        /* \"preventa/JFVCrowdsale.sol\":7306:7324  tgeTotal - already */\n      tag_294\n      swap2\n      swap1\n      tag_295\n      jump\t// in\n    tag_294:\n        /* \"preventa/JFVCrowdsale.sol\":7292:7324  uint256 due = tgeTotal - already */\n      swap1\n      pop\n        /* \"preventa/JFVCrowdsale.sol\":7360:7368  tgeTotal */\n      dup3\n        /* \"preventa/JFVCrowdsale.sol\":7335:7345  tgeClaimed */\n      0x0c\n        /* \"preventa/JFVCrowdsale.sol\":7335:7357  tgeClaimed[msg.sender] */\n      0x00\n        /* \"preventa/JFVCrowdsale.sol\":7346:7356  msg.sender */\n      caller\n        /* \"preventa/JFVCrowdsale.sol\":7335:7357  tgeClaimed[msg.sender] */\n      0xffffffffffffffffffffffffffffffffffffffff\n      and\n      0xffffffffffffffffffffffffffffffffffffffff\n      and\n      dup2\n      mstore\n      0x20\n      add\n      swap1\n      dup2\n      mstore\n      0x20\n      add\n      0x00\n      keccak256\n        /* \"preventa/JFVCrowdsale.sol\":7335:7368  tgeClaimed[msg.sender] = tgeTotal */\n      dup2\n      swap1\n      sstore\n      pop\n        /* \"preventa/JFVCrowdsale.sol\":7523:7528  token */\n      immutable(\"0xd73e0b65d8a88e087fe45492939659264b6eeb687212994f56dac859eedb899a\")\n        /* \"preventa/JFVCrowdsale.sol\":7523:7533  token.mint */\n      0xffffffffffffffffffffffffffffffffffffffff\n      and\n      0x40c10f19\n        /* \"preventa/JFVCrowdsale.sol\":7534:7544  msg.sender */\n      caller\n        /* \"preventa/JFVCrowdsale.sol\":7546:7549  due */\n      dup4\n        /* \"preventa/JFVCrowdsale.sol\":7523:7550  token.mint(msg.sender, due) */\n      mload(0x40)\n      dup4\n      0xffffffff\n      and\n      0xe0\n      shl\n      dup2\n      mstore\n      0x04\n      add\n      tag_296\n      swap3\n      swap2\n      swap1\n      tag_297\n      jump\t// in\n    tag_296:\n      0x00\n      mload(0x40)\n      dup1\n      dup4\n      sub\n      dup2\n      0x00\n      dup8\n      dup1\n      extcodesize\n      iszero\n      dup1\n      iszero\n      tag_298\n      jumpi\n      0x00\n      dup1\n      revert\n    tag_298:\n      pop\n      gas\n      call\n      iszero\n      dup1\n      iszero\n      tag_300\n      jumpi\n      returndatasize\n      0x00\n      dup1\n      returndatacopy\n      revert(0x00, returndatasize)\n    tag_300:\n      pop\n      pop\n      pop\n      pop\n        /* \"preventa/JFVCrowdsale.sol\":7579:7589  msg.sender */\n      caller\n        /* \"preventa/JFVCrowdsale.sol\":7568:7595  TGEClaimed(msg.sender, due) */\n      0xffffffffffffffffffffffffffffffffffffffff\n      and\n      0x9d9f91c7e63ecab055ab1ecb358d2e74e46aa0e4c65f9594aa73e56cfb5d0a47\n        /* \"preventa/JFVCrowdsale.sol\":7591:7594  due */\n      dup3\n        /* \"preventa/JFVCrowdsale.sol\":7568:7595  TGEClaimed(msg.sender, due) */\n      mload(0x40)\n      tag_301\n      swap2\n      swap1\n      tag_70\n      jump\t// in\n    tag_301:\n      mload(0x40)\n      dup1\n      swap2\n      sub\n      swap1\n      log2\n        /* \"preventa/JFVCrowdsale.sol\":6946:7603  {... */\n      pop\n      pop\n      pop\n      pop\n        /* \"@openzeppelin/contracts/utils/ReentrancyGuard.sol\":2542:2562  _nonReentrantAfter() */\n      tag_302\n        /* \"@openzeppelin/contracts/utils/ReentrancyGuard.sol\":2542:2560  _nonReentrantAfter */\n      tag_272\n        /* \"@openzeppelin/contracts/utils/ReentrancyGuard.sol\":2542:2562  _nonReentrantAfter() */\n      jump\t// in\n    tag_302:\n        /* \"preventa/JFVCrowdsale.sol\":6890:7603  function claimTGE() external nonReentrant whenNotPaused {... */\n      jump\t// out\n        /* \"@openzeppelin/contracts/access/AccessControl.sol\":2187:2236  bytes32 public constant DEFAULT_ADMIN_ROLE = 0x00 */\n    tag_149:\n        /* \"@openzeppelin/contracts/access/AccessControl.sol\":2232:2236  0x00 */\n      0x00\n        /* \"@openzeppelin/contracts/access/AccessControl.sol\":2187:2236  bytes32 public constant DEFAULT_ADMIN_ROLE = 0x00 */\n      dup1\n      shl\n      dup2\n      jump\t// out\n        /* \"preventa/JFVCrowdsale.sol\":1290:1352  bytes32 public constant CONFIG_ROLE = keccak256(\"CONFIG_ROLE\") */\n    tag_153:\n        /* \"preventa/JFVCrowdsale.sol\":1328:1352  keccak256(\"CONFIG_ROLE\") */\n      0x82db594318110a04b6349ce48645aa69f0892751bc893d15e61d9e2b9c4630f5\n        /* \"preventa/JFVCrowdsale.sol\":1290:1352  bytes32 public constant CONFIG_ROLE = keccak256(\"CONFIG_ROLE\") */\n      dup2\n      jump\t// out\n        /* \"preventa/JFVCrowdsale.sol\":2875:2905  uint256 public minContribution */\n    tag_157:\n      sload(0x06)\n      dup2\n      jump\t// out\n        /* \"preventa/JFVCrowdsale.sol\":3436:3457  bool public finalized */\n    tag_161:\n      0x0d\n      0x00\n      swap1\n      sload\n      swap1\n      0x0100\n      exp\n      swap1\n      div\n      0xff\n      and\n      dup2\n      jump\t// out\n        /* \"preventa/JFVCrowdsale.sol\":7667:8128  function claimRefund() external nonReentrant {... */\n    tag_165:\n        /* \"@openzeppelin/contracts/utils/ReentrancyGuard.sol\":2500:2521  _nonReentrantBefore() */\n      tag_304\n        /* \"@openzeppelin/contracts/utils/ReentrancyGuard.sol\":2500:2519  _nonReentrantBefore */\n      tag_262\n        /* \"@openzeppelin/contracts/utils/ReentrancyGuard.sol\":2500:2521  _nonReentrantBefore() */\n      jump\t// in\n    tag_304:\n        /* \"preventa/JFVCrowdsale.sol\":7728:7737  refunding */\n      0x0d\n      0x01\n      swap1\n      sload\n      swap1\n      0x0100\n      exp\n      swap1\n      div\n      0xff\n      and\n        /* \"preventa/JFVCrowdsale.sol\":7723:7765  if (!refunding) revert RefundsNotEnabled() */\n      tag_306\n      jumpi\n        /* \"preventa/JFVCrowdsale.sol\":7746:7765  RefundsNotEnabled() */\n      mload(0x40)\n      0x64547e6900000000000000000000000000000000000000000000000000000000\n      dup2\n      mstore\n      0x04\n      add\n      mload(0x40)\n      dup1\n      swap2\n      sub\n      swap1\n      revert\n        /* \"preventa/JFVCrowdsale.sol\":7723:7765  if (!refunding) revert RefundsNotEnabled() */\n    tag_306:\n        /* \"preventa/JFVCrowdsale.sol\":7778:7792  uint256 amount */\n      0x00\n        /* \"preventa/JFVCrowdsale.sol\":7795:7806  contributed */\n      0x0a\n        /* \"preventa/JFVCrowdsale.sol\":7795:7818  contributed[msg.sender] */\n      0x00\n        /* \"preventa/JFVCrowdsale.sol\":7807:7817  msg.sender */\n      caller\n        /* \"preventa/JFVCrowdsale.sol\":7795:7818  contributed[msg.sender] */\n      0xffffffffffffffffffffffffffffffffffffffff\n      and\n      0xffffffffffffffffffffffffffffffffffffffff\n      and\n      dup2\n      mstore\n      0x20\n      add\n      swap1\n      dup2\n      mstore\n      0x20\n      add\n      0x00\n      keccak256\n      sload\n        /* \"preventa/JFVCrowdsale.sol\":7778:7818  uint256 amount = contributed[msg.sender] */\n      swap1\n      pop\n        /* \"preventa/JFVCrowdsale.sol\":7843:7844  0 */\n      0x00\n        /* \"preventa/JFVCrowdsale.sol\":7833:7839  amount */\n      dup2\n        /* \"preventa/JFVCrowdsale.sol\":7833:7844  amount == 0 */\n      sub\n        /* \"preventa/JFVCrowdsale.sol\":7829:7869  if (amount == 0) revert NothingToClaim() */\n      tag_307\n      jumpi\n        /* \"preventa/JFVCrowdsale.sol\":7853:7869  NothingToClaim() */\n      mload(0x40)\n      0x969bf72800000000000000000000000000000000000000000000000000000000\n      dup2\n      mstore\n      0x04\n      add\n      mload(0x40)\n      dup1\n      swap2\n      sub\n      swap1\n      revert\n        /* \"preventa/JFVCrowdsale.sol\":7829:7869  if (amount == 0) revert NothingToClaim() */\n    tag_307:\n        /* \"preventa/JFVCrowdsale.sol\":7908:7909  0 */\n      0x00\n        /* \"preventa/JFVCrowdsale.sol\":7882:7893  contributed */\n      0x0a\n        /* \"preventa/JFVCrowdsale.sol\":7882:7905  contributed[msg.sender] */\n      0x00\n        /* \"preventa/JFVCrowdsale.sol\":7894:7904  msg.sender */\n      caller\n        /* \"preventa/JFVCrowdsale.sol\":7882:7905  contributed[msg.sender] */\n      0xffffffffffffffffffffffffffffffffffffffff\n      and\n      0xffffffffffffffffffffffffffffffffffffffff\n      and\n      dup2\n      mstore\n      0x20\n      add\n      swap1\n      dup2\n      mstore\n      0x20\n      add\n      0x00\n      keccak256\n        /* \"preventa/JFVCrowdsale.sol\":7882:7909  contributed[msg.sender] = 0 */\n      dup2\n      swap1\n      sstore\n      pop\n        /* \"preventa/JFVCrowdsale.sol\":7970:7977  bool ok */\n      0x00\n        /* \"preventa/JFVCrowdsale.sol\":7991:8001  msg.sender */\n      caller\n        /* \"preventa/JFVCrowdsale.sol\":7983:8007  payable(msg.sender).call */\n      0xffffffffffffffffffffffffffffffffffffffff\n      and\n        /* \"preventa/JFVCrowdsale.sol\":8015:8021  amount */\n      dup3\n        /* \"preventa/JFVCrowdsale.sol\":7983:8026  payable(msg.sender).call{value: amount}(\"\") */\n      mload(0x40)\n      tag_308\n      swap1\n      tag_309\n      jump\t// in\n    tag_308:\n      0x00\n      mload(0x40)\n      dup1\n      dup4\n      sub\n      dup2\n      dup6\n      dup8\n      gas\n      call\n      swap3\n      pop\n      pop\n      pop\n      returndatasize\n      dup1\n      0x00\n      dup2\n      eq\n      tag_312\n      jumpi\n      mload(0x40)\n      swap2\n      pop\n      and(add(returndatasize, 0x3f), not(0x1f))\n      dup3\n      add\n      0x40\n      mstore\n      returndatasize\n      dup3\n      mstore\n      returndatasize\n      0x00\n      0x20\n      dup5\n      add\n      returndatacopy\n      jump(tag_311)\n    tag_312:\n      0x60\n      swap2\n      pop\n    tag_311:\n      pop\n        /* \"preventa/JFVCrowdsale.sol\":7969:8026  (bool ok, ) = payable(msg.sender).call{value: amount}(\"\") */\n      pop\n      swap1\n      pop\n        /* \"preventa/JFVCrowdsale.sol\":8045:8047  ok */\n      dup1\n        /* \"preventa/JFVCrowdsale.sol\":8037:8074  require(ok, \"Refund transfer failed\") */\n      tag_313\n      jumpi\n      mload(0x40)\n      0x08c379a000000000000000000000000000000000000000000000000000000000\n      dup2\n      mstore\n      0x04\n      add\n      tag_314\n      swap1\n      tag_315\n      jump\t// in\n    tag_314:\n      mload(0x40)\n      dup1\n      swap2\n      sub\n      swap1\n      revert\n    tag_313:\n        /* \"preventa/JFVCrowdsale.sol\":8101:8111  msg.sender */\n      caller\n        /* \"preventa/JFVCrowdsale.sol\":8092:8120  Refunded(msg.sender, amount) */\n      0xffffffffffffffffffffffffffffffffffffffff\n      and\n      0xd7dee2702d63ad89917b6a4da9981c90c4d24f8c2bdfd64c604ecae57d8d0651\n        /* \"preventa/JFVCrowdsale.sol\":8113:8119  amount */\n      dup4\n        /* \"preventa/JFVCrowdsale.sol\":8092:8120  Refunded(msg.sender, amount) */\n      mload(0x40)\n      tag_316\n      swap2\n      swap1\n      tag_70\n      jump\t// in\n    tag_316:\n      mload(0x40)\n      dup1\n      swap2\n      sub\n      swap1\n      log2\n        /* \"preventa/JFVCrowdsale.sol\":7712:8128  {... */\n      pop\n      pop\n        /* \"@openzeppelin/contracts/utils/ReentrancyGuard.sol\":2542:2562  _nonReentrantAfter() */\n      tag_317\n        /* \"@openzeppelin/contracts/utils/ReentrancyGuard.sol\":2542:2560  _nonReentrantAfter */\n      tag_272\n        /* \"@openzeppelin/contracts/utils/ReentrancyGuard.sol\":2542:2562  _nonReentrantAfter() */\n      jump\t// in\n    tag_317:\n        /* \"preventa/JFVCrowdsale.sol\":7667:8128  function claimRefund() external nonReentrant {... */\n      jump\t// out\n        /* \"preventa/JFVCrowdsale.sol\":2792:2817  uint64 public openingTime */\n    tag_168:\n      0x05\n      0x00\n      swap1\n      sload\n      swap1\n      0x0100\n      exp\n      swap1\n      div\n      0xffffffffffffffff\n      and\n      dup2\n      jump\t// out\n        /* \"preventa/JFVCrowdsale.sol\":3360:3405  mapping(address => uint256) public tgeClaimed */\n    tag_173:\n      mstore(0x20, 0x0c)\n      dup1\n      0x00\n      mstore\n      keccak256(0x00, 0x40)\n      0x00\n      swap2\n      pop\n      swap1\n      pop\n      sload\n      dup2\n      jump\t// out\n        /* \"preventa/JFVCrowdsale.sol\":5184:5310  function isClosed() public view returns (bool) {... */\n    tag_177:\n        /* \"preventa/JFVCrowdsale.sol\":5225:5229  bool */\n      0x00\n        /* \"preventa/JFVCrowdsale.sol\":5267:5278  closingTime */\n      0x05\n      0x08\n      swap1\n      sload\n      swap1\n      0x0100\n      exp\n      swap1\n      div\n      0xffffffffffffffff\n      and\n        /* \"preventa/JFVCrowdsale.sol\":5249:5278  block.timestamp > closingTime */\n      0xffffffffffffffff\n      and\n        /* \"preventa/JFVCrowdsale.sol\":5249:5264  block.timestamp */\n      timestamp\n        /* \"preventa/JFVCrowdsale.sol\":5249:5278  block.timestamp > closingTime */\n      gt\n        /* \"preventa/JFVCrowdsale.sol\":5249:5302  block.timestamp > closingTime || weiRaised >= hardCap */\n      dup1\n      tag_319\n      jumpi\n      pop\n        /* \"preventa/JFVCrowdsale.sol\":5295:5302  hardCap */\n      immutable(\"0xeae3a40291c102cf85748609ff9046ea32530afca3ce058bd94a667258369fd6\")\n        /* \"preventa/JFVCrowdsale.sol\":5282:5291  weiRaised */\n      sload(0x08)\n        /* \"preventa/JFVCrowdsale.sol\":5282:5302  weiRaised >= hardCap */\n      lt\n      iszero\n        /* \"preventa/JFVCrowdsale.sol\":5249:5302  block.timestamp > closingTime || weiRaised >= hardCap */\n    tag_319:\n        /* \"preventa/JFVCrowdsale.sol\":5242:5302  return block.timestamp > closingTime || weiRaised >= hardCap */\n      swap1\n      pop\n        /* \"preventa/JFVCrowdsale.sol\":5184:5310  function isClosed() public view returns (bool) {... */\n      swap1\n      jump\t// out\n        /* \"preventa/JFVCrowdsale.sol\":8765:9159  function setLimits(... */\n    tag_183:\n        /* \"preventa/JFVCrowdsale.sol\":1328:1352  keccak256(\"CONFIG_ROLE\") */\n      0x82db594318110a04b6349ce48645aa69f0892751bc893d15e61d9e2b9c4630f5\n        /* \"@openzeppelin/contracts/access/AccessControl.sol\":2464:2480  _checkRole(role) */\n      tag_321\n        /* \"@openzeppelin/contracts/access/AccessControl.sol\":2475:2479  role */\n      dup2\n        /* \"@openzeppelin/contracts/access/AccessControl.sol\":2464:2474  _checkRole */\n      tag_233\n        /* \"@openzeppelin/contracts/access/AccessControl.sol\":2464:2480  _checkRole(role) */\n      jump\t// in\n    tag_321:\n        /* \"preventa/JFVCrowdsale.sol\":8906:8917  openingTime */\n      0x05\n      0x00\n      swap1\n      sload\n      swap1\n      0x0100\n      exp\n      swap1\n      div\n      0xffffffffffffffff\n      and\n        /* \"preventa/JFVCrowdsale.sol\":8887:8917  block.timestamp >= openingTime */\n      0xffffffffffffffff\n      and\n        /* \"preventa/JFVCrowdsale.sol\":8887:8902  block.timestamp */\n      timestamp\n        /* \"preventa/JFVCrowdsale.sol\":8887:8917  block.timestamp >= openingTime */\n      lt\n        /* \"preventa/JFVCrowdsale.sol\":8883:8939  if (block.timestamp >= openingTime) revert SaleNotOpen() */\n      tag_323\n      jumpi\n        /* \"preventa/JFVCrowdsale.sol\":8926:8939  SaleNotOpen() */\n      mload(0x40)\n      0x445dce4c00000000000000000000000000000000000000000000000000000000\n      dup2\n      mstore\n      0x04\n      add\n      mload(0x40)\n      dup1\n      swap2\n      sub\n      swap1\n      revert\n        /* \"preventa/JFVCrowdsale.sol\":8883:8939  if (block.timestamp >= openingTime) revert SaleNotOpen() */\n    tag_323:\n        /* \"preventa/JFVCrowdsale.sol\":8964:8965  0 */\n      0x00\n        /* \"preventa/JFVCrowdsale.sol\":8954:8960  newMin */\n      dup4\n        /* \"preventa/JFVCrowdsale.sol\":8954:8965  newMin == 0 */\n      eq\n        /* \"preventa/JFVCrowdsale.sol\":8954:8980  newMin == 0 || newMax == 0 */\n      dup1\n      tag_324\n      jumpi\n      pop\n        /* \"preventa/JFVCrowdsale.sol\":8979:8980  0 */\n      0x00\n        /* \"preventa/JFVCrowdsale.sol\":8969:8975  newMax */\n      dup3\n        /* \"preventa/JFVCrowdsale.sol\":8969:8980  newMax == 0 */\n      eq\n        /* \"preventa/JFVCrowdsale.sol\":8954:8980  newMin == 0 || newMax == 0 */\n    tag_324:\n        /* \"preventa/JFVCrowdsale.sol\":8954:8999  newMin == 0 || newMax == 0 || newMax < newMin */\n      dup1\n      tag_325\n      jumpi\n      pop\n        /* \"preventa/JFVCrowdsale.sol\":8993:8999  newMin */\n      dup3\n        /* \"preventa/JFVCrowdsale.sol\":8984:8990  newMax */\n      dup3\n        /* \"preventa/JFVCrowdsale.sol\":8984:8999  newMax < newMin */\n      lt\n        /* \"preventa/JFVCrowdsale.sol\":8954:8999  newMin == 0 || newMax == 0 || newMax < newMin */\n    tag_325:\n        /* \"preventa/JFVCrowdsale.sol\":8950:9036  if (newMin == 0 || newMax == 0 || newMax < newMin)... */\n      iszero\n      tag_326\n      jumpi\n        /* \"preventa/JFVCrowdsale.sol\":9021:9036  InvalidParams() */\n      mload(0x40)\n      0xa86b651200000000000000000000000000000000000000000000000000000000\n      dup2\n      mstore\n      0x04\n      add\n      mload(0x40)\n      dup1\n      swap2\n      sub\n      swap1\n      revert\n        /* \"preventa/JFVCrowdsale.sol\":8950:9036  if (newMin == 0 || newMax == 0 || newMax < newMin)... */\n    tag_326:\n        /* \"preventa/JFVCrowdsale.sol\":9065:9071  newMin */\n      dup3\n        /* \"preventa/JFVCrowdsale.sol\":9047:9062  minContribution */\n      0x06\n        /* \"preventa/JFVCrowdsale.sol\":9047:9071  minContribution = newMin */\n      dup2\n      swap1\n      sstore\n      pop\n        /* \"preventa/JFVCrowdsale.sol\":9100:9106  newMax */\n      dup2\n        /* \"preventa/JFVCrowdsale.sol\":9082:9097  maxContribution */\n      0x07\n        /* \"preventa/JFVCrowdsale.sol\":9082:9106  maxContribution = newMax */\n      dup2\n      swap1\n      sstore\n      pop\n        /* \"preventa/JFVCrowdsale.sol\":9122:9151  LimitsUpdated(newMin, newMax) */\n      0x4d4981437d0211f9e6843eb024d9ada1fa3a99514d4343d4aece106dd11524bb\n        /* \"preventa/JFVCrowdsale.sol\":9136:9142  newMin */\n      dup4\n        /* \"preventa/JFVCrowdsale.sol\":9144:9150  newMax */\n      dup4\n        /* \"preventa/JFVCrowdsale.sol\":9122:9151  LimitsUpdated(newMin, newMax) */\n      mload(0x40)\n      tag_327\n      swap3\n      swap2\n      swap1\n      tag_243\n      jump\t// in\n    tag_327:\n      mload(0x40)\n      dup1\n      swap2\n      sub\n      swap1\n      log1\n        /* \"preventa/JFVCrowdsale.sol\":8765:9159  function setLimits(... */\n      pop\n      pop\n      pop\n      jump\t// out\n        /* \"@openzeppelin/contracts/access/AccessControl.sol\":4642:4780  function revokeRole(bytes32 role, address account) public virtual onlyRole(getRoleAdmin(role)) {... */\n    tag_187:\n        /* \"@openzeppelin/contracts/access/AccessControl.sol\":4717:4735  getRoleAdmin(role) */\n      tag_328\n        /* \"@openzeppelin/contracts/access/AccessControl.sol\":4730:4734  role */\n      dup3\n        /* \"@openzeppelin/contracts/access/AccessControl.sol\":4717:4729  getRoleAdmin */\n      tag_63\n        /* \"@openzeppelin/contracts/access/AccessControl.sol\":4717:4735  getRoleAdmin(role) */\n      jump\t// in\n    tag_328:\n        /* \"@openzeppelin/contracts/access/AccessControl.sol\":2464:2480  _checkRole(role) */\n      tag_330\n        /* \"@openzeppelin/contracts/access/AccessControl.sol\":2475:2479  role */\n      dup2\n        /* \"@openzeppelin/contracts/access/AccessControl.sol\":2464:2474  _checkRole */\n      tag_233\n        /* \"@openzeppelin/contracts/access/AccessControl.sol\":2464:2480  _checkRole(role) */\n      jump\t// in\n    tag_330:\n        /* \"@openzeppelin/contracts/access/AccessControl.sol\":4747:4773  _revokeRole(role, account) */\n      tag_332\n        /* \"@openzeppelin/contracts/access/AccessControl.sol\":4759:4763  role */\n      dup4\n        /* \"@openzeppelin/contracts/access/AccessControl.sol\":4765:4772  account */\n      dup4\n        /* \"@openzeppelin/contracts/access/AccessControl.sol\":4747:4758  _revokeRole */\n      tag_249\n        /* \"@openzeppelin/contracts/access/AccessControl.sol\":4747:4773  _revokeRole(role, account) */\n      jump\t// in\n    tag_332:\n      pop\n        /* \"@openzeppelin/contracts/access/AccessControl.sol\":4642:4780  function revokeRole(bytes32 role, address account) public virtual onlyRole(getRoleAdmin(role)) {... */\n      pop\n      pop\n      pop\n      jump\t// out\n        /* \"preventa/JFVCrowdsale.sol\":9821:10130  function setWallet(address newWallet) external onlyRole(CONFIG_ROLE) {... */\n    tag_191:\n        /* \"preventa/JFVCrowdsale.sol\":1328:1352  keccak256(\"CONFIG_ROLE\") */\n      0x82db594318110a04b6349ce48645aa69f0892751bc893d15e61d9e2b9c4630f5\n        /* \"@openzeppelin/contracts/access/AccessControl.sol\":2464:2480  _checkRole(role) */\n      tag_334\n        /* \"@openzeppelin/contracts/access/AccessControl.sol\":2475:2479  role */\n      dup2\n        /* \"@openzeppelin/contracts/access/AccessControl.sol\":2464:2474  _checkRole */\n      tag_233\n        /* \"@openzeppelin/contracts/access/AccessControl.sol\":2464:2480  _checkRole(role) */\n      jump\t// in\n    tag_334:\n        /* \"preventa/JFVCrowdsale.sol\":9924:9935  openingTime */\n      0x05\n      0x00\n      swap1\n      sload\n      swap1\n      0x0100\n      exp\n      swap1\n      div\n      0xffffffffffffffff\n      and\n        /* \"preventa/JFVCrowdsale.sol\":9905:9935  block.timestamp >= openingTime */\n      0xffffffffffffffff\n      and\n        /* \"preventa/JFVCrowdsale.sol\":9905:9920  block.timestamp */\n      timestamp\n        /* \"preventa/JFVCrowdsale.sol\":9905:9935  block.timestamp >= openingTime */\n      lt\n        /* \"preventa/JFVCrowdsale.sol\":9901:9957  if (block.timestamp >= openingTime) revert SaleNotOpen() */\n      tag_336\n      jumpi\n        /* \"preventa/JFVCrowdsale.sol\":9944:9957  SaleNotOpen() */\n      mload(0x40)\n      0x445dce4c00000000000000000000000000000000000000000000000000000000\n      dup2\n      mstore\n      0x04\n      add\n      mload(0x40)\n      dup1\n      swap2\n      sub\n      swap1\n      revert\n        /* \"preventa/JFVCrowdsale.sol\":9901:9957  if (block.timestamp >= openingTime) revert SaleNotOpen() */\n    tag_336:\n        /* \"preventa/JFVCrowdsale.sol\":9993:9994  0 */\n      0x00\n        /* \"preventa/JFVCrowdsale.sol\":9972:9995  newWallet == address(0) */\n      0xffffffffffffffffffffffffffffffffffffffff\n      and\n        /* \"preventa/JFVCrowdsale.sol\":9972:9981  newWallet */\n      dup3\n        /* \"preventa/JFVCrowdsale.sol\":9972:9995  newWallet == address(0) */\n      0xffffffffffffffffffffffffffffffffffffffff\n      and\n      sub\n        /* \"preventa/JFVCrowdsale.sol\":9968:10017  if (newWallet == address(0)) revert ZeroAddress() */\n      tag_337\n      jumpi\n        /* \"preventa/JFVCrowdsale.sol\":10004:10017  ZeroAddress() */\n      mload(0x40)\n      0xd92e233d00000000000000000000000000000000000000000000000000000000\n      dup2\n      mstore\n      0x04\n      add\n      mload(0x40)\n      dup1\n      swap2\n      sub\n      swap1\n      revert\n        /* \"preventa/JFVCrowdsale.sol\":9968:10017  if (newWallet == address(0)) revert ZeroAddress() */\n    tag_337:\n        /* \"preventa/JFVCrowdsale.sol\":10028:10039  address old */\n      0x00\n        /* \"preventa/JFVCrowdsale.sol\":10042:10048  wallet */\n      0x03\n      0x00\n      swap1\n      sload\n      swap1\n      0x0100\n      exp\n      swap1\n      div\n      0xffffffffffffffffffffffffffffffffffffffff\n      and\n        /* \"preventa/JFVCrowdsale.sol\":10028:10048  address old = wallet */\n      swap1\n      pop\n        /* \"preventa/JFVCrowdsale.sol\":10068:10077  newWallet */\n      dup3\n        /* \"preventa/JFVCrowdsale.sol\":10059:10065  wallet */\n      0x03\n      0x00\n        /* \"preventa/JFVCrowdsale.sol\":10059:10077  wallet = newWallet */\n      0x0100\n      exp\n      dup2\n      sload\n      dup2\n      0xffffffffffffffffffffffffffffffffffffffff\n      mul\n      not\n      and\n      swap1\n      dup4\n      0xffffffffffffffffffffffffffffffffffffffff\n      and\n      mul\n      or\n      swap1\n      sstore\n      pop\n        /* \"preventa/JFVCrowdsale.sol\":10093:10122  WalletUpdated(old, newWallet) */\n      0x0f37c6733428a3a65d46b7f1853a5ce4bfa3cf92d25322507a50bf23a0b5a0a8\n        /* \"preventa/JFVCrowdsale.sol\":10107:10110  old */\n      dup2\n        /* \"preventa/JFVCrowdsale.sol\":10112:10121  newWallet */\n      dup5\n        /* \"preventa/JFVCrowdsale.sol\":10093:10122  WalletUpdated(old, newWallet) */\n      mload(0x40)\n      tag_338\n      swap3\n      swap2\n      swap1\n      tag_339\n      jump\t// in\n    tag_338:\n      mload(0x40)\n      dup1\n      swap2\n      sub\n      swap1\n      log1\n        /* \"preventa/JFVCrowdsale.sol\":9890:10130  {... */\n      pop\n        /* \"preventa/JFVCrowdsale.sol\":9821:10130  function setWallet(address newWallet) external onlyRole(CONFIG_ROLE) {... */\n      pop\n      pop\n      jump\t// out\n        /* \"preventa/JFVCrowdsale.sol\":8191:8458  function withdrawETH() external nonReentrant {... */\n    tag_194:\n        /* \"@openzeppelin/contracts/utils/ReentrancyGuard.sol\":2500:2521  _nonReentrantBefore() */\n      tag_341\n        /* \"@openzeppelin/contracts/utils/ReentrancyGuard.sol\":2500:2519  _nonReentrantBefore */\n      tag_262\n        /* \"@openzeppelin/contracts/utils/ReentrancyGuard.sol\":2500:2521  _nonReentrantBefore() */\n      jump\t// in\n    tag_341:\n        /* \"preventa/JFVCrowdsale.sol\":8252:8261  finalized */\n      0x0d\n      0x00\n      swap1\n      sload\n      swap1\n      0x0100\n      exp\n      swap1\n      div\n      0xff\n      and\n        /* \"preventa/JFVCrowdsale.sol\":8251:8261  !finalized */\n      iszero\n        /* \"preventa/JFVCrowdsale.sol\":8251:8274  !finalized || refunding */\n      dup1\n      tag_343\n      jumpi\n      pop\n        /* \"preventa/JFVCrowdsale.sol\":8265:8274  refunding */\n      0x0d\n      0x01\n      swap1\n      sload\n      swap1\n      0x0100\n      exp\n      swap1\n      div\n      0xff\n      and\n        /* \"preventa/JFVCrowdsale.sol\":8251:8274  !finalized || refunding */\n    tag_343:\n        /* \"preventa/JFVCrowdsale.sol\":8247:8302  if (!finalized || refunding) revert SoftCapNotReached() */\n      iszero\n      tag_344\n      jumpi\n        /* \"preventa/JFVCrowdsale.sol\":8283:8302  SoftCapNotReached() */\n      mload(0x40)\n      0x2bdc91ad00000000000000000000000000000000000000000000000000000000\n      dup2\n      mstore\n      0x04\n      add\n      mload(0x40)\n      dup1\n      swap2\n      sub\n      swap1\n      revert\n        /* \"preventa/JFVCrowdsale.sol\":8247:8302  if (!finalized || refunding) revert SoftCapNotReached() */\n    tag_344:\n        /* \"preventa/JFVCrowdsale.sol\":8313:8324  uint256 bal */\n      0x00\n        /* \"preventa/JFVCrowdsale.sol\":8327:8348  address(this).balance */\n      selfbalance\n        /* \"preventa/JFVCrowdsale.sol\":8313:8348  uint256 bal = address(this).balance */\n      swap1\n      pop\n        /* \"preventa/JFVCrowdsale.sol\":8360:8367  bool ok */\n      0x00\n        /* \"preventa/JFVCrowdsale.sol\":8381:8387  wallet */\n      0x03\n      0x00\n      swap1\n      sload\n      swap1\n      0x0100\n      exp\n      swap1\n      div\n      0xffffffffffffffffffffffffffffffffffffffff\n      and\n        /* \"preventa/JFVCrowdsale.sol\":8373:8393  payable(wallet).call */\n      0xffffffffffffffffffffffffffffffffffffffff\n      and\n        /* \"preventa/JFVCrowdsale.sol\":8401:8404  bal */\n      dup3\n        /* \"preventa/JFVCrowdsale.sol\":8373:8409  payable(wallet).call{value: bal}(\"\") */\n      mload(0x40)\n      tag_345\n      swap1\n      tag_309\n      jump\t// in\n    tag_345:\n      0x00\n      mload(0x40)\n      dup1\n      dup4\n      sub\n      dup2\n      dup6\n      dup8\n      gas\n      call\n      swap3\n      pop\n      pop\n      pop\n      returndatasize\n      dup1\n      0x00\n      dup2\n      eq\n      tag_348\n      jumpi\n      mload(0x40)\n      swap2\n      pop\n      and(add(returndatasize, 0x3f), not(0x1f))\n      dup3\n      add\n      0x40\n      mstore\n      returndatasize\n      dup3\n      mstore\n      returndatasize\n      0x00\n      0x20\n      dup5\n      add\n      returndatacopy\n      jump(tag_347)\n    tag_348:\n      0x60\n      swap2\n      pop\n    tag_347:\n      pop\n        /* \"preventa/JFVCrowdsale.sol\":8359:8409  (bool ok, ) = payable(wallet).call{value: bal}(\"\") */\n      pop\n      swap1\n      pop\n        /* \"preventa/JFVCrowdsale.sol\":8428:8430  ok */\n      dup1\n        /* \"preventa/JFVCrowdsale.sol\":8420:8450  require(ok, \"Withdraw failed\") */\n      tag_349\n      jumpi\n      mload(0x40)\n      0x08c379a000000000000000000000000000000000000000000000000000000000\n      dup2\n      mstore\n      0x04\n      add\n      tag_350\n      swap1\n      tag_351\n      jump\t// in\n    tag_350:\n      mload(0x40)\n      dup1\n      swap2\n      sub\n      swap1\n      revert\n    tag_349:\n        /* \"preventa/JFVCrowdsale.sol\":8236:8458  {... */\n      pop\n      pop\n        /* \"@openzeppelin/contracts/utils/ReentrancyGuard.sol\":2542:2562  _nonReentrantAfter() */\n      tag_352\n        /* \"@openzeppelin/contracts/utils/ReentrancyGuard.sol\":2542:2560  _nonReentrantAfter */\n      tag_272\n        /* \"@openzeppelin/contracts/utils/ReentrancyGuard.sol\":2542:2562  _nonReentrantAfter() */\n      jump\t// in\n    tag_352:\n        /* \"preventa/JFVCrowdsale.sol\":8191:8458  function withdrawETH() external nonReentrant {... */\n      jump\t// out\n        /* \"preventa/JFVCrowdsale.sol\":1221:1283  bytes32 public constant PAUSER_ROLE = keccak256(\"PAUSER_ROLE\") */\n    tag_197:\n        /* \"preventa/JFVCrowdsale.sol\":1259:1283  keccak256(\"PAUSER_ROLE\") */\n      0x65d7a28e3265b37a6474929f336521b332c1681b933f6cb9f3376673440d862a\n        /* \"preventa/JFVCrowdsale.sol\":1221:1283  bytes32 public constant PAUSER_ROLE = keccak256(\"PAUSER_ROLE\") */\n      dup2\n      jump\t// out\n        /* \"preventa/JFVCrowdsale.sol\":9167:9519  function setTimes(... */\n    tag_203:\n        /* \"preventa/JFVCrowdsale.sol\":1328:1352  keccak256(\"CONFIG_ROLE\") */\n      0x82db594318110a04b6349ce48645aa69f0892751bc893d15e61d9e2b9c4630f5\n        /* \"@openzeppelin/contracts/access/AccessControl.sol\":2464:2480  _checkRole(role) */\n      tag_354\n        /* \"@openzeppelin/contracts/access/AccessControl.sol\":2475:2479  role */\n      dup2\n        /* \"@openzeppelin/contracts/access/AccessControl.sol\":2464:2474  _checkRole */\n      tag_233\n        /* \"@openzeppelin/contracts/access/AccessControl.sol\":2464:2480  _checkRole(role) */\n      jump\t// in\n    tag_354:\n        /* \"preventa/JFVCrowdsale.sol\":9308:9319  openingTime */\n      0x05\n      0x00\n      swap1\n      sload\n      swap1\n      0x0100\n      exp\n      swap1\n      div\n      0xffffffffffffffff\n      and\n        /* \"preventa/JFVCrowdsale.sol\":9289:9319  block.timestamp >= openingTime */\n      0xffffffffffffffff\n      and\n        /* \"preventa/JFVCrowdsale.sol\":9289:9304  block.timestamp */\n      timestamp\n        /* \"preventa/JFVCrowdsale.sol\":9289:9319  block.timestamp >= openingTime */\n      lt\n        /* \"preventa/JFVCrowdsale.sol\":9285:9341  if (block.timestamp >= openingTime) revert SaleNotOpen() */\n      tag_356\n      jumpi\n        /* \"preventa/JFVCrowdsale.sol\":9328:9341  SaleNotOpen() */\n      mload(0x40)\n      0x445dce4c00000000000000000000000000000000000000000000000000000000\n      dup2\n      mstore\n      0x04\n      add\n      mload(0x40)\n      dup1\n      swap2\n      sub\n      swap1\n      revert\n        /* \"preventa/JFVCrowdsale.sol\":9285:9341  if (block.timestamp >= openingTime) revert SaleNotOpen() */\n    tag_356:\n        /* \"preventa/JFVCrowdsale.sol\":9367:9375  newClose */\n      dup2\n        /* \"preventa/JFVCrowdsale.sol\":9356:9375  newOpen >= newClose */\n      0xffffffffffffffff\n      and\n        /* \"preventa/JFVCrowdsale.sol\":9356:9363  newOpen */\n      dup4\n        /* \"preventa/JFVCrowdsale.sol\":9356:9375  newOpen >= newClose */\n      0xffffffffffffffff\n      and\n      lt\n        /* \"preventa/JFVCrowdsale.sol\":9352:9399  if (newOpen >= newClose) revert InvalidParams() */\n      tag_357\n      jumpi\n        /* \"preventa/JFVCrowdsale.sol\":9384:9399  InvalidParams() */\n      mload(0x40)\n      0xa86b651200000000000000000000000000000000000000000000000000000000\n      dup2\n      mstore\n      0x04\n      add\n      mload(0x40)\n      dup1\n      swap2\n      sub\n      swap1\n      revert\n        /* \"preventa/JFVCrowdsale.sol\":9352:9399  if (newOpen >= newClose) revert InvalidParams() */\n    tag_357:\n        /* \"preventa/JFVCrowdsale.sol\":9424:9431  newOpen */\n      dup3\n        /* \"preventa/JFVCrowdsale.sol\":9410:9421  openingTime */\n      0x05\n      0x00\n        /* \"preventa/JFVCrowdsale.sol\":9410:9431  openingTime = newOpen */\n      0x0100\n      exp\n      dup2\n      sload\n      dup2\n      0xffffffffffffffff\n      mul\n      not\n      and\n      swap1\n      dup4\n      0xffffffffffffffff\n      and\n      mul\n      or\n      swap1\n      sstore\n      pop\n        /* \"preventa/JFVCrowdsale.sol\":9456:9464  newClose */\n      dup2\n        /* \"preventa/JFVCrowdsale.sol\":9442:9453  closingTime */\n      0x05\n      0x08\n        /* \"preventa/JFVCrowdsale.sol\":9442:9464  closingTime = newClose */\n      0x0100\n      exp\n      dup2\n      sload\n      dup2\n      0xffffffffffffffff\n      mul\n      not\n      and\n      swap1\n      dup4\n      0xffffffffffffffff\n      and\n      mul\n      or\n      swap1\n      sstore\n      pop\n        /* \"preventa/JFVCrowdsale.sol\":9480:9511  TimesUpdated(newOpen, newClose) */\n      0x114f2c213e3ab7c4e4e09d28a2efed89fe0c35a82be187299e8bb20e1b755768\n        /* \"preventa/JFVCrowdsale.sol\":9493:9500  newOpen */\n      dup4\n        /* \"preventa/JFVCrowdsale.sol\":9502:9510  newClose */\n      dup4\n        /* \"preventa/JFVCrowdsale.sol\":9480:9511  TimesUpdated(newOpen, newClose) */\n      mload(0x40)\n      tag_358\n      swap3\n      swap2\n      swap1\n      tag_359\n      jump\t// in\n    tag_358:\n      mload(0x40)\n      dup1\n      swap2\n      sub\n      swap1\n      log1\n        /* \"preventa/JFVCrowdsale.sol\":9167:9519  function setTimes(... */\n      pop\n      pop\n      pop\n      jump\t// out\n        /* \"preventa/JFVCrowdsale.sol\":5353:6330  function buyTokens(... */\n    tag_206:\n        /* \"@openzeppelin/contracts/utils/ReentrancyGuard.sol\":2500:2521  _nonReentrantBefore() */\n      tag_361\n        /* \"@openzeppelin/contracts/utils/ReentrancyGuard.sol\":2500:2519  _nonReentrantBefore */\n      tag_262\n        /* \"@openzeppelin/contracts/utils/ReentrancyGuard.sol\":2500:2521  _nonReentrantBefore() */\n      jump\t// in\n    tag_361:\n        /* \"@openzeppelin/contracts/utils/Pausable.sol\":1350:1369  _requireNotPaused() */\n      tag_363\n        /* \"@openzeppelin/contracts/utils/Pausable.sol\":1350:1367  _requireNotPaused */\n      tag_284\n        /* \"@openzeppelin/contracts/utils/Pausable.sol\":1350:1369  _requireNotPaused() */\n      jump\t// in\n    tag_363:\n        /* \"preventa/JFVCrowdsale.sol\":5469:5477  isOpen() */\n      tag_365\n        /* \"preventa/JFVCrowdsale.sol\":5469:5475  isOpen */\n      tag_100\n        /* \"preventa/JFVCrowdsale.sol\":5469:5477  isOpen() */\n      jump\t// in\n    tag_365:\n        /* \"preventa/JFVCrowdsale.sol\":5464:5499  if (!isOpen()) revert SaleNotOpen() */\n      tag_366\n      jumpi\n        /* \"preventa/JFVCrowdsale.sol\":5486:5499  SaleNotOpen() */\n      mload(0x40)\n      0x445dce4c00000000000000000000000000000000000000000000000000000000\n      dup2\n      mstore\n      0x04\n      add\n      mload(0x40)\n      dup1\n      swap2\n      sub\n      swap1\n      revert\n        /* \"preventa/JFVCrowdsale.sol\":5464:5499  if (!isOpen()) revert SaleNotOpen() */\n    tag_366:\n        /* \"preventa/JFVCrowdsale.sol\":5537:5538  0 */\n      0x00\n        /* \"preventa/JFVCrowdsale.sol\":5514:5539  beneficiary == address(0) */\n      0xffffffffffffffffffffffffffffffffffffffff\n      and\n        /* \"preventa/JFVCrowdsale.sol\":5514:5525  beneficiary */\n      dup2\n        /* \"preventa/JFVCrowdsale.sol\":5514:5539  beneficiary == address(0) */\n      0xffffffffffffffffffffffffffffffffffffffff\n      and\n      sub\n        /* \"preventa/JFVCrowdsale.sol\":5510:5561  if (beneficiary == address(0)) revert ZeroAddress() */\n      tag_367\n      jumpi\n        /* \"preventa/JFVCrowdsale.sol\":5548:5561  ZeroAddress() */\n      mload(0x40)\n      0xd92e233d00000000000000000000000000000000000000000000000000000000\n      dup2\n      mstore\n      0x04\n      add\n      mload(0x40)\n      dup1\n      swap2\n      sub\n      swap1\n      revert\n        /* \"preventa/JFVCrowdsale.sol\":5510:5561  if (beneficiary == address(0)) revert ZeroAddress() */\n    tag_367:\n        /* \"preventa/JFVCrowdsale.sol\":5589:5590  0 */\n      0x00\n        /* \"preventa/JFVCrowdsale.sol\":5576:5585  msg.value */\n      callvalue\n        /* \"preventa/JFVCrowdsale.sol\":5576:5590  msg.value == 0 */\n      sub\n        /* \"preventa/JFVCrowdsale.sol\":5572:5616  if (msg.value == 0) revert MinMaxViolation() */\n      tag_368\n      jumpi\n        /* \"preventa/JFVCrowdsale.sol\":5599:5616  MinMaxViolation() */\n      mload(0x40)\n      0x8d8f5cdc00000000000000000000000000000000000000000000000000000000\n      dup2\n      mstore\n      0x04\n      add\n      mload(0x40)\n      dup1\n      swap2\n      sub\n      swap1\n      revert\n        /* \"preventa/JFVCrowdsale.sol\":5572:5616  if (msg.value == 0) revert MinMaxViolation() */\n    tag_368:\n        /* \"preventa/JFVCrowdsale.sol\":5655:5662  hardCap */\n      immutable(\"0xeae3a40291c102cf85748609ff9046ea32530afca3ce058bd94a667258369fd6\")\n        /* \"preventa/JFVCrowdsale.sol\":5643:5652  msg.value */\n      callvalue\n        /* \"preventa/JFVCrowdsale.sol\":5631:5640  weiRaised */\n      sload(0x08)\n        /* \"preventa/JFVCrowdsale.sol\":5631:5652  weiRaised + msg.value */\n      tag_369\n      swap2\n      swap1\n      tag_370\n      jump\t// in\n    tag_369:\n        /* \"preventa/JFVCrowdsale.sol\":5631:5662  weiRaised + msg.value > hardCap */\n      gt\n        /* \"preventa/JFVCrowdsale.sol\":5627:5684  if (weiRaised + msg.value > hardCap) revert CapExceeded() */\n      iszero\n      tag_371\n      jumpi\n        /* \"preventa/JFVCrowdsale.sol\":5671:5684  CapExceeded() */\n      mload(0x40)\n      0xa4875a4900000000000000000000000000000000000000000000000000000000\n      dup2\n      mstore\n      0x04\n      add\n      mload(0x40)\n      dup1\n      swap2\n      sub\n      swap1\n      revert\n        /* \"preventa/JFVCrowdsale.sol\":5627:5684  if (weiRaised + msg.value > hardCap) revert CapExceeded() */\n    tag_371:\n        /* \"preventa/JFVCrowdsale.sol\":5697:5720  uint256 newContribution */\n      0x00\n        /* \"preventa/JFVCrowdsale.sol\":5749:5758  msg.value */\n      callvalue\n        /* \"preventa/JFVCrowdsale.sol\":5723:5734  contributed */\n      0x0a\n        /* \"preventa/JFVCrowdsale.sol\":5723:5746  contributed[msg.sender] */\n      0x00\n        /* \"preventa/JFVCrowdsale.sol\":5735:5745  msg.sender */\n      caller\n        /* \"preventa/JFVCrowdsale.sol\":5723:5746  contributed[msg.sender] */\n      0xffffffffffffffffffffffffffffffffffffffff\n      and\n      0xffffffffffffffffffffffffffffffffffffffff\n      and\n      dup2\n      mstore\n      0x20\n      add\n      swap1\n      dup2\n      mstore\n      0x20\n      add\n      0x00\n      keccak256\n      sload\n        /* \"preventa/JFVCrowdsale.sol\":5723:5758  contributed[msg.sender] + msg.value */\n      tag_372\n      swap2\n      swap1\n      tag_370\n      jump\t// in\n    tag_372:\n        /* \"preventa/JFVCrowdsale.sol\":5697:5758  uint256 newContribution = contributed[msg.sender] + msg.value */\n      swap1\n      pop\n        /* \"preventa/JFVCrowdsale.sol\":5805:5820  minContribution */\n      sload(0x06)\n        /* \"preventa/JFVCrowdsale.sol\":5787:5802  newContribution */\n      dup2\n        /* \"preventa/JFVCrowdsale.sol\":5787:5820  newContribution < minContribution */\n      lt\n        /* \"preventa/JFVCrowdsale.sol\":5787:5870  newContribution < minContribution ||... */\n      dup1\n      tag_373\n      jumpi\n      pop\n        /* \"preventa/JFVCrowdsale.sol\":5855:5870  maxContribution */\n      sload(0x07)\n        /* \"preventa/JFVCrowdsale.sol\":5837:5852  newContribution */\n      dup2\n        /* \"preventa/JFVCrowdsale.sol\":5837:5870  newContribution > maxContribution */\n      gt\n        /* \"preventa/JFVCrowdsale.sol\":5787:5870  newContribution < minContribution ||... */\n    tag_373:\n        /* \"preventa/JFVCrowdsale.sol\":5769:5933  if (... */\n      iszero\n      tag_374\n      jumpi\n        /* \"preventa/JFVCrowdsale.sol\":5904:5921  MinMaxViolation() */\n      mload(0x40)\n      0x8d8f5cdc00000000000000000000000000000000000000000000000000000000\n      dup2\n      mstore\n      0x04\n      add\n      mload(0x40)\n      dup1\n      swap2\n      sub\n      swap1\n      revert\n        /* \"preventa/JFVCrowdsale.sol\":5769:5933  if (... */\n    tag_374:\n        /* \"preventa/JFVCrowdsale.sol\":6039:6056  uint256 amountJFV */\n      0x00\n        /* \"preventa/JFVCrowdsale.sol\":6071:6075  rate */\n      sload(0x04)\n        /* \"preventa/JFVCrowdsale.sol\":6059:6068  msg.value */\n      callvalue\n        /* \"preventa/JFVCrowdsale.sol\":6059:6075  msg.value * rate */\n      tag_375\n      swap2\n      swap1\n      tag_290\n      jump\t// in\n    tag_375:\n        /* \"preventa/JFVCrowdsale.sol\":6039:6075  uint256 amountJFV = msg.value * rate */\n      swap1\n      pop\n        /* \"preventa/JFVCrowdsale.sol\":6101:6110  msg.value */\n      callvalue\n        /* \"preventa/JFVCrowdsale.sol\":6088:6097  weiRaised */\n      0x08\n      0x00\n        /* \"preventa/JFVCrowdsale.sol\":6088:6110  weiRaised += msg.value */\n      dup3\n      dup3\n      sload\n      tag_376\n      swap2\n      swap1\n      tag_370\n      jump\t// in\n    tag_376:\n      swap3\n      pop\n      pop\n      dup2\n      swap1\n      sstore\n      pop\n        /* \"preventa/JFVCrowdsale.sol\":6135:6144  amountJFV */\n      dup1\n        /* \"preventa/JFVCrowdsale.sol\":6121:6131  tokensSold */\n      0x09\n      0x00\n        /* \"preventa/JFVCrowdsale.sol\":6121:6144  tokensSold += amountJFV */\n      dup3\n      dup3\n      sload\n      tag_377\n      swap2\n      swap1\n      tag_370\n      jump\t// in\n    tag_377:\n      swap3\n      pop\n      pop\n      dup2\n      swap1\n      sstore\n      pop\n        /* \"preventa/JFVCrowdsale.sol\":6181:6196  newContribution */\n      dup2\n        /* \"preventa/JFVCrowdsale.sol\":6155:6166  contributed */\n      0x0a\n        /* \"preventa/JFVCrowdsale.sol\":6155:6178  contributed[msg.sender] */\n      0x00\n        /* \"preventa/JFVCrowdsale.sol\":6167:6177  msg.sender */\n      caller\n        /* \"preventa/JFVCrowdsale.sol\":6155:6178  contributed[msg.sender] */\n      0xffffffffffffffffffffffffffffffffffffffff\n      and\n      0xffffffffffffffffffffffffffffffffffffffff\n      and\n      dup2\n      mstore\n      0x20\n      add\n      swap1\n      dup2\n      mstore\n      0x20\n      add\n      0x00\n      keccak256\n        /* \"preventa/JFVCrowdsale.sol\":6155:6196  contributed[msg.sender] = newContribution */\n      dup2\n      swap1\n      sstore\n      pop\n        /* \"preventa/JFVCrowdsale.sol\":6233:6242  amountJFV */\n      dup1\n        /* \"preventa/JFVCrowdsale.sol\":6207:6216  allocated */\n      0x0b\n        /* \"preventa/JFVCrowdsale.sol\":6207:6229  allocated[beneficiary] */\n      0x00\n        /* \"preventa/JFVCrowdsale.sol\":6217:6228  beneficiary */\n      dup6\n        /* \"preventa/JFVCrowdsale.sol\":6207:6229  allocated[beneficiary] */\n      0xffffffffffffffffffffffffffffffffffffffff\n      and\n      0xffffffffffffffffffffffffffffffffffffffff\n      and\n      dup2\n      mstore\n      0x20\n      add\n      swap1\n      dup2\n      mstore\n      0x20\n      add\n      0x00\n      keccak256\n      0x00\n        /* \"preventa/JFVCrowdsale.sol\":6207:6242  allocated[beneficiary] += amountJFV */\n      dup3\n      dup3\n      sload\n      tag_378\n      swap2\n      swap1\n      tag_370\n      jump\t// in\n    tag_378:\n      swap3\n      pop\n      pop\n      dup2\n      swap1\n      sstore\n      pop\n        /* \"preventa/JFVCrowdsale.sol\":6288:6299  beneficiary */\n      dup3\n        /* \"preventa/JFVCrowdsale.sol\":6260:6322  TokensPurchased(msg.sender, beneficiary, msg.value, amountJFV) */\n      0xffffffffffffffffffffffffffffffffffffffff\n      and\n        /* \"preventa/JFVCrowdsale.sol\":6276:6286  msg.sender */\n      caller\n        /* \"preventa/JFVCrowdsale.sol\":6260:6322  TokensPurchased(msg.sender, beneficiary, msg.value, amountJFV) */\n      0xffffffffffffffffffffffffffffffffffffffff\n      and\n      0x6faf93231a456e552dbc9961f58d9713ee4f2e69d15f1975b050ef0911053a7b\n        /* \"preventa/JFVCrowdsale.sol\":6301:6310  msg.value */\n      callvalue\n        /* \"preventa/JFVCrowdsale.sol\":6312:6321  amountJFV */\n      dup5\n        /* \"preventa/JFVCrowdsale.sol\":6260:6322  TokensPurchased(msg.sender, beneficiary, msg.value, amountJFV) */\n      mload(0x40)\n      tag_379\n      swap3\n      swap2\n      swap1\n      tag_243\n      jump\t// in\n    tag_379:\n      mload(0x40)\n      dup1\n      swap2\n      sub\n      swap1\n      log3\n        /* \"preventa/JFVCrowdsale.sol\":5453:6330  {... */\n      pop\n      pop\n        /* \"@openzeppelin/contracts/utils/ReentrancyGuard.sol\":2542:2562  _nonReentrantAfter() */\n      tag_380\n        /* \"@openzeppelin/contracts/utils/ReentrancyGuard.sol\":2542:2560  _nonReentrantAfter */\n      tag_272\n        /* \"@openzeppelin/contracts/utils/ReentrancyGuard.sol\":2542:2562  _nonReentrantAfter() */\n      jump\t// in\n    tag_380:\n        /* \"preventa/JFVCrowdsale.sol\":5353:6330  function buyTokens(... */\n      pop\n      jump\t// out\n        /* \"preventa/JFVCrowdsale.sol\":3464:3485  bool public refunding */\n    tag_209:\n      0x0d\n      0x01\n      swap1\n      sload\n      swap1\n      0x0100\n      exp\n      swap1\n      div\n      0xff\n      and\n      dup2\n      jump\t// out\n        /* \"preventa/JFVCrowdsale.sol\":3005:3035  uint16 public immutable tgeBps */\n    tag_213:\n      immutable(\"0x5192c7f75669ca0287240345ac757ca313b6b35719d108d92e530d5617eb4a60\")\n      dup2\n      jump\t// out\n        /* \"preventa/JFVCrowdsale.sol\":2729:2761  uint256 public immutable hardCap */\n    tag_218:\n      immutable(\"0xeae3a40291c102cf85748609ff9046ea32530afca3ce058bd94a667258369fd6\")\n      dup2\n      jump\t// out\n        /* \"preventa/JFVCrowdsale.sol\":2452:2484  IJFVToken public immutable token */\n    tag_222:\n      immutable(\"0xd73e0b65d8a88e087fe45492939659264b6eeb687212994f56dac859eedb899a\")\n      dup2\n      jump\t// out\n        /* \"@openzeppelin/contracts/utils/introspection/ERC165.sol\":763:909  function supportsInterface(bytes4 interfaceId) public view virtual returns (bool) {... */\n    tag_228:\n        /* \"@openzeppelin/contracts/utils/introspection/ERC165.sol\":839:843  bool */\n      0x00\n        /* \"@openzeppelin/contracts/utils/introspection/ERC165.sol\":877:902  type(IERC165).interfaceId */\n      0x01ffc9a700000000000000000000000000000000000000000000000000000000\n        /* \"@openzeppelin/contracts/utils/introspection/ERC165.sol\":862:902  interfaceId == type(IERC165).interfaceId */\n      not(0xffffffffffffffffffffffffffffffffffffffffffffffffffffffff)\n      and\n        /* \"@openzeppelin/contracts/utils/introspection/ERC165.sol\":862:873  interfaceId */\n      dup3\n        /* \"@openzeppelin/contracts/utils/introspection/ERC165.sol\":862:902  interfaceId == type(IERC165).interfaceId */\n      not(0xffffffffffffffffffffffffffffffffffffffffffffffffffffffff)\n      and\n      eq\n        /* \"@openzeppelin/contracts/utils/introspection/ERC165.sol\":855:902  return interfaceId == type(IERC165).interfaceId */\n      swap1\n      pop\n        /* \"@openzeppelin/contracts/utils/introspection/ERC165.sol\":763:909  function supportsInterface(bytes4 interfaceId) public view virtual returns (bool) {... */\n      swap2\n      swap1\n      pop\n      jump\t// out\n        /* \"@openzeppelin/contracts/access/AccessControl.sol\":3199:3302  function _checkRole(bytes32 role) internal view virtual {... */\n    tag_233:\n        /* \"@openzeppelin/contracts/access/AccessControl.sol\":3265:3295  _checkRole(role, _msgSender()) */\n      tag_383\n        /* \"@openzeppelin/contracts/access/AccessControl.sol\":3276:3280  role */\n      dup2\n        /* \"@openzeppelin/contracts/access/AccessControl.sol\":3282:3294  _msgSender() */\n      tag_384\n        /* \"@openzeppelin/contracts/access/AccessControl.sol\":3282:3292  _msgSender */\n      tag_246\n        /* \"@openzeppelin/contracts/access/AccessControl.sol\":3282:3294  _msgSender() */\n      jump\t// in\n    tag_384:\n        /* \"@openzeppelin/contracts/access/AccessControl.sol\":3265:3275  _checkRole */\n      tag_385\n        /* \"@openzeppelin/contracts/access/AccessControl.sol\":3265:3295  _checkRole(role, _msgSender()) */\n      jump\t// in\n    tag_383:\n        /* \"@openzeppelin/contracts/access/AccessControl.sol\":3199:3302  function _checkRole(bytes32 role) internal view virtual {... */\n      pop\n      jump\t// out\n        /* \"@openzeppelin/contracts/access/AccessControl.sol\":6179:6495  function _grantRole(bytes32 role, address account) internal virtual returns (bool) {... */\n    tag_236:\n        /* \"@openzeppelin/contracts/access/AccessControl.sol\":6256:6260  bool */\n      0x00\n        /* \"@openzeppelin/contracts/access/AccessControl.sol\":6277:6299  hasRole(role, account) */\n      tag_387\n        /* \"@openzeppelin/contracts/access/AccessControl.sol\":6285:6289  role */\n      dup4\n        /* \"@openzeppelin/contracts/access/AccessControl.sol\":6291:6298  account */\n      dup4\n        /* \"@openzeppelin/contracts/access/AccessControl.sol\":6277:6284  hasRole */\n      tag_137\n        /* \"@openzeppelin/contracts/access/AccessControl.sol\":6277:6299  hasRole(role, account) */\n      jump\t// in\n    tag_387:\n        /* \"@openzeppelin/contracts/access/AccessControl.sol\":6272:6489  if (!hasRole(role, account)) {... */\n      tag_388\n      jumpi\n        /* \"@openzeppelin/contracts/access/AccessControl.sol\":6347:6351  true */\n      0x01\n        /* \"@openzeppelin/contracts/access/AccessControl.sol\":6315:6321  _roles */\n      0x02\n        /* \"@openzeppelin/contracts/access/AccessControl.sol\":6315:6327  _roles[role] */\n      0x00\n        /* \"@openzeppelin/contracts/access/AccessControl.sol\":6322:6326  role */\n      dup6\n        /* \"@openzeppelin/contracts/access/AccessControl.sol\":6315:6327  _roles[role] */\n      dup2\n      mstore\n      0x20\n      add\n      swap1\n      dup2\n      mstore\n      0x20\n      add\n      0x00\n      keccak256\n        /* \"@openzeppelin/contracts/access/AccessControl.sol\":6315:6335  _roles[role].hasRole */\n      0x00\n      add\n        /* \"@openzeppelin/contracts/access/AccessControl.sol\":6315:6344  _roles[role].hasRole[account] */\n      0x00\n        /* \"@openzeppelin/contracts/access/AccessControl.sol\":6336:6343  account */\n      dup5\n        /* \"@openzeppelin/contracts/access/AccessControl.sol\":6315:6344  _roles[role].hasRole[account] */\n      0xffffffffffffffffffffffffffffffffffffffff\n      and\n      0xffffffffffffffffffffffffffffffffffffffff\n      and\n      dup2\n      mstore\n      0x20\n      add\n      swap1\n      dup2\n      mstore\n      0x20\n      add\n      0x00\n      keccak256\n      0x00\n        /* \"@openzeppelin/contracts/access/AccessControl.sol\":6315:6351  _roles[role].hasRole[account] = true */\n      0x0100\n      exp\n      dup2\n      sload\n      dup2\n      0xff\n      mul\n      not\n      and\n      swap1\n      dup4\n      iszero\n      iszero\n      mul\n      or\n      swap1\n      sstore\n      pop\n        /* \"@openzeppelin/contracts/access/AccessControl.sol\":6397:6409  _msgSender() */\n      tag_389\n        /* \"@openzeppelin/contracts/access/AccessControl.sol\":6397:6407  _msgSender */\n      tag_246\n        /* \"@openzeppelin/contracts/access/AccessControl.sol\":6397:6409  _msgSender() */\n      jump\t// in\n    tag_389:\n        /* \"@openzeppelin/contracts/access/AccessControl.sol\":6370:6410  RoleGranted(role, account, _msgSender()) */\n      0xffffffffffffffffffffffffffffffffffffffff\n      and\n        /* \"@openzeppelin/contracts/access/AccessControl.sol\":6388:6395  account */\n      dup3\n        /* \"@openzeppelin/contracts/access/AccessControl.sol\":6370:6410  RoleGranted(role, account, _msgSender()) */\n      0xffffffffffffffffffffffffffffffffffffffff\n      and\n        /* \"@openzeppelin/contracts/access/AccessControl.sol\":6382:6386  role */\n      dup5\n        /* \"@openzeppelin/contracts/access/AccessControl.sol\":6370:6410  RoleGranted(role, account, _msgSender()) */\n      0x2f8788117e7eff1d82e926ec794901d17c78024a50270940304540a733656f0d\n      mload(0x40)\n      mload(0x40)\n      dup1\n      swap2\n      sub\n      swap1\n      log4\n        /* \"@openzeppelin/contracts/access/AccessControl.sol\":6431:6435  true */\n      0x01\n        /* \"@openzeppelin/contracts/access/AccessControl.sol\":6424:6435  return true */\n      swap1\n      pop\n      jump(tag_386)\n        /* \"@openzeppelin/contracts/access/AccessControl.sol\":6272:6489  if (!hasRole(role, account)) {... */\n    tag_388:\n        /* \"@openzeppelin/contracts/access/AccessControl.sol\":6473:6478  false */\n      0x00\n        /* \"@openzeppelin/contracts/access/AccessControl.sol\":6466:6478  return false */\n      swap1\n      pop\n        /* \"@openzeppelin/contracts/access/AccessControl.sol\":6179:6495  function _grantRole(bytes32 role, address account) internal virtual returns (bool) {... */\n    tag_386:\n      swap3\n      swap2\n      pop\n      pop\n      jump\t// out\n        /* \"@openzeppelin/contracts/utils/Context.sol\":656:752  function _msgSender() internal view virtual returns (address) {... */\n    tag_246:\n        /* \"@openzeppelin/contracts/utils/Context.sol\":709:716  address */\n      0x00\n        /* \"@openzeppelin/contracts/utils/Context.sol\":735:745  msg.sender */\n      caller\n        /* \"@openzeppelin/contracts/utils/Context.sol\":728:745  return msg.sender */\n      swap1\n      pop\n        /* \"@openzeppelin/contracts/utils/Context.sol\":656:752  function _msgSender() internal view virtual returns (address) {... */\n      swap1\n      jump\t// out\n        /* \"@openzeppelin/contracts/access/AccessControl.sol\":6732:7049  function _revokeRole(bytes32 role, address account) internal virtual returns (bool) {... */\n    tag_249:\n        /* \"@openzeppelin/contracts/access/AccessControl.sol\":6810:6814  bool */\n      0x00\n        /* \"@openzeppelin/contracts/access/AccessControl.sol\":6830:6852  hasRole(role, account) */\n      tag_393\n        /* \"@openzeppelin/contracts/access/AccessControl.sol\":6838:6842  role */\n      dup4\n        /* \"@openzeppelin/contracts/access/AccessControl.sol\":6844:6851  account */\n      dup4\n        /* \"@openzeppelin/contracts/access/AccessControl.sol\":6830:6837  hasRole */\n      tag_137\n        /* \"@openzeppelin/contracts/access/AccessControl.sol\":6830:6852  hasRole(role, account) */\n      jump\t// in\n    tag_393:\n        /* \"@openzeppelin/contracts/access/AccessControl.sol\":6826:7043  if (hasRole(role, account)) {... */\n      iszero\n      tag_394\n      jumpi\n        /* \"@openzeppelin/contracts/access/AccessControl.sol\":6900:6905  false */\n      0x00\n        /* \"@openzeppelin/contracts/access/AccessControl.sol\":6868:6874  _roles */\n      0x02\n        /* \"@openzeppelin/contracts/access/AccessControl.sol\":6868:6880  _roles[role] */\n      0x00\n        /* \"@openzeppelin/contracts/access/AccessControl.sol\":6875:6879  role */\n      dup6\n        /* \"@openzeppelin/contracts/access/AccessControl.sol\":6868:6880  _roles[role] */\n      dup2\n      mstore\n      0x20\n      add\n      swap1\n      dup2\n      mstore\n      0x20\n      add\n      0x00\n      keccak256\n        /* \"@openzeppelin/contracts/access/AccessControl.sol\":6868:6888  _roles[role].hasRole */\n      0x00\n      add\n        /* \"@openzeppelin/contracts/access/AccessControl.sol\":6868:6897  _roles[role].hasRole[account] */\n      0x00\n        /* \"@openzeppelin/contracts/access/AccessControl.sol\":6889:6896  account */\n      dup5\n        /* \"@openzeppelin/contracts/access/AccessControl.sol\":6868:6897  _roles[role].hasRole[account] */\n      0xffffffffffffffffffffffffffffffffffffffff\n      and\n      0xffffffffffffffffffffffffffffffffffffffff\n      and\n      dup2\n      mstore\n      0x20\n      add\n      swap1\n      dup2\n      mstore\n      0x20\n      add\n      0x00\n      keccak256\n      0x00\n        /* \"@openzeppelin/contracts/access/AccessControl.sol\":6868:6905  _roles[role].hasRole[account] = false */\n      0x0100\n      exp\n      dup2\n      sload\n      dup2\n      0xff\n      mul\n      not\n      and\n      swap1\n      dup4\n      iszero\n      iszero\n      mul\n      or\n      swap1\n      sstore\n      pop\n        /* \"@openzeppelin/contracts/access/AccessControl.sol\":6951:6963  _msgSender() */\n      tag_395\n        /* \"@openzeppelin/contracts/access/AccessControl.sol\":6951:6961  _msgSender */\n      tag_246\n        /* \"@openzeppelin/contracts/access/AccessControl.sol\":6951:6963  _msgSender() */\n      jump\t// in\n    tag_395:\n        /* \"@openzeppelin/contracts/access/AccessControl.sol\":6924:6964  RoleRevoked(role, account, _msgSender()) */\n      0xffffffffffffffffffffffffffffffffffffffff\n      and\n        /* \"@openzeppelin/contracts/access/AccessControl.sol\":6942:6949  account */\n      dup3\n        /* \"@openzeppelin/contracts/access/AccessControl.sol\":6924:6964  RoleRevoked(role, account, _msgSender()) */\n      0xffffffffffffffffffffffffffffffffffffffff\n      and\n        /* \"@openzeppelin/contracts/access/AccessControl.sol\":6936:6940  role */\n      dup5\n        /* \"@openzeppelin/contracts/access/AccessControl.sol\":6924:6964  RoleRevoked(role, account, _msgSender()) */\n      0xf6391f5c32d9c69d2a47ea670b442974b53935d1edc7fd64eb21e047a839171b\n      mload(0x40)\n      mload(0x40)\n      dup1\n      swap2\n      sub\n      swap1\n      log4\n        /* \"@openzeppelin/contracts/access/AccessControl.sol\":6985:6989  true */\n      0x01\n        /* \"@openzeppelin/contracts/access/AccessControl.sol\":6978:6989  return true */\n      swap1\n      pop\n      jump(tag_392)\n        /* \"@openzeppelin/contracts/access/AccessControl.sol\":6826:7043  if (hasRole(role, account)) {... */\n    tag_394:\n        /* \"@openzeppelin/contracts/access/AccessControl.sol\":7027:7032  false */\n      0x00\n        /* \"@openzeppelin/contracts/access/AccessControl.sol\":7020:7032  return false */\n      swap1\n      pop\n        /* \"@openzeppelin/contracts/access/AccessControl.sol\":6732:7049  function _revokeRole(bytes32 role, address account) internal virtual returns (bool) {... */\n    tag_392:\n      swap3\n      swap2\n      pop\n      pop\n      jump\t// out\n        /* \"@openzeppelin/contracts/utils/Pausable.sol\":2586:2703  function _unpause() internal virtual whenPaused {... */\n    tag_254:\n        /* \"@openzeppelin/contracts/utils/Pausable.sol\":1597:1613  _requirePaused() */\n      tag_398\n        /* \"@openzeppelin/contracts/utils/Pausable.sol\":1597:1611  _requirePaused */\n      tag_399\n        /* \"@openzeppelin/contracts/utils/Pausable.sol\":1597:1613  _requirePaused() */\n      jump\t// in\n    tag_398:\n        /* \"@openzeppelin/contracts/utils/Pausable.sol\":2654:2659  false */\n      0x00\n        /* \"@openzeppelin/contracts/utils/Pausable.sol\":2644:2651  _paused */\n      0x01\n      0x00\n        /* \"@openzeppelin/contracts/utils/Pausable.sol\":2644:2659  _paused = false */\n      0x0100\n      exp\n      dup2\n      sload\n      dup2\n      0xff\n      mul\n      not\n      and\n      swap1\n      dup4\n      iszero\n      iszero\n      mul\n      or\n      swap1\n      sstore\n      pop\n        /* \"@openzeppelin/contracts/utils/Pausable.sol\":2674:2696  Unpaused(_msgSender()) */\n      0x5db9ee0a495bf2e6ff9c91a7834c1ba4fdd244a5e8aa4e537bd38aeae4b073aa\n        /* \"@openzeppelin/contracts/utils/Pausable.sol\":2683:2695  _msgSender() */\n      tag_401\n        /* \"@openzeppelin/contracts/utils/Pausable.sol\":2683:2693  _msgSender */\n      tag_246\n        /* \"@openzeppelin/contracts/utils/Pausable.sol\":2683:2695  _msgSender() */\n      jump\t// in\n    tag_401:\n        /* \"@openzeppelin/contracts/utils/Pausable.sol\":2674:2696  Unpaused(_msgSender()) */\n      mload(0x40)\n      tag_402\n      swap2\n      swap1\n      tag_118\n      jump\t// in\n    tag_402:\n      mload(0x40)\n      dup1\n      swap2\n      sub\n      swap1\n      log1\n        /* \"@openzeppelin/contracts/utils/Pausable.sol\":2586:2703  function _unpause() internal virtual whenPaused {... */\n      jump\t// out\n        /* \"@openzeppelin/contracts/utils/ReentrancyGuard.sol\":2575:2882  function _nonReentrantBefore() private {... */\n    tag_262:\n        /* \"@openzeppelin/contracts/utils/ReentrancyGuard.sol\":1899:1900  2 */\n      0x02\n        /* \"@openzeppelin/contracts/utils/ReentrancyGuard.sol\":2702:2709  _status */\n      sload(0x00)\n        /* \"@openzeppelin/contracts/utils/ReentrancyGuard.sol\":2702:2720  _status == ENTERED */\n      sub\n        /* \"@openzeppelin/contracts/utils/ReentrancyGuard.sol\":2698:2784  if (_status == ENTERED) {... */\n      tag_404\n      jumpi\n        /* \"@openzeppelin/contracts/utils/ReentrancyGuard.sol\":2743:2773  ReentrancyGuardReentrantCall() */\n      mload(0x40)\n      0x3ee5aeb500000000000000000000000000000000000000000000000000000000\n      dup2\n      mstore\n      0x04\n      add\n      mload(0x40)\n      dup1\n      swap2\n      sub\n      swap1\n      revert\n        /* \"@openzeppelin/contracts/utils/ReentrancyGuard.sol\":2698:2784  if (_status == ENTERED) {... */\n    tag_404:\n        /* \"@openzeppelin/contracts/utils/ReentrancyGuard.sol\":1899:1900  2 */\n      0x02\n        /* \"@openzeppelin/contracts/utils/ReentrancyGuard.sol\":2858:2865  _status */\n      0x00\n        /* \"@openzeppelin/contracts/utils/ReentrancyGuard.sol\":2858:2875  _status = ENTERED */\n      dup2\n      swap1\n      sstore\n      pop\n        /* \"@openzeppelin/contracts/utils/ReentrancyGuard.sol\":2575:2882  function _nonReentrantBefore() private {... */\n      jump\t// out\n        /* \"@openzeppelin/contracts/utils/ReentrancyGuard.sol\":2888:3096  function _nonReentrantAfter() private {... */\n    tag_272:\n        /* \"@openzeppelin/contracts/utils/ReentrancyGuard.sol\":1857:1858  1 */\n      0x01\n        /* \"@openzeppelin/contracts/utils/ReentrancyGuard.sol\":3068:3075  _status */\n      0x00\n        /* \"@openzeppelin/contracts/utils/ReentrancyGuard.sol\":3068:3089  _status = NOT_ENTERED */\n      dup2\n      swap1\n      sstore\n      pop\n        /* \"@openzeppelin/contracts/utils/ReentrancyGuard.sol\":2888:3096  function _nonReentrantAfter() private {... */\n      jump\t// out\n        /* \"@openzeppelin/contracts/utils/Pausable.sol\":2339:2454  function _pause() internal virtual whenNotPaused {... */\n    tag_278:\n        /* \"@openzeppelin/contracts/utils/Pausable.sol\":1350:1369  _requireNotPaused() */\n      tag_407\n        /* \"@openzeppelin/contracts/utils/Pausable.sol\":1350:1367  _requireNotPaused */\n      tag_284\n        /* \"@openzeppelin/contracts/utils/Pausable.sol\":1350:1369  _requireNotPaused() */\n      jump\t// in\n    tag_407:\n        /* \"@openzeppelin/contracts/utils/Pausable.sol\":2408:2412  true */\n      0x01\n        /* \"@openzeppelin/contracts/utils/Pausable.sol\":2398:2405  _paused */\n      dup1\n      0x00\n        /* \"@openzeppelin/contracts/utils/Pausable.sol\":2398:2412  _paused = true */\n      0x0100\n      exp\n      dup2\n      sload\n      dup2\n      0xff\n      mul\n      not\n      and\n      swap1\n      dup4\n      iszero\n      iszero\n      mul\n      or\n      swap1\n      sstore\n      pop\n        /* \"@openzeppelin/contracts/utils/Pausable.sol\":2427:2447  Paused(_msgSender()) */\n      0x62e78cea01bee320cd4e420270b5ea74000d11b0c9f74754ebdbfc544b05a258\n        /* \"@openzeppelin/contracts/utils/Pausable.sol\":2434:2446  _msgSender() */\n      tag_409\n        /* \"@openzeppelin/contracts/utils/Pausable.sol\":2434:2444  _msgSender */\n      tag_246\n        /* \"@openzeppelin/contracts/utils/Pausable.sol\":2434:2446  _msgSender() */\n      jump\t// in\n    tag_409:\n        /* \"@openzeppelin/contracts/utils/Pausable.sol\":2427:2447  Paused(_msgSender()) */\n      mload(0x40)\n      tag_410\n      swap2\n      swap1\n      tag_118\n      jump\t// in\n    tag_410:\n      mload(0x40)\n      dup1\n      swap2\n      sub\n      swap1\n      log1\n        /* \"@openzeppelin/contracts/utils/Pausable.sol\":2339:2454  function _pause() internal virtual whenNotPaused {... */\n      jump\t// out\n        /* \"@openzeppelin/contracts/utils/Pausable.sol\":1878:2006  function _requireNotPaused() internal view virtual {... */\n    tag_284:\n        /* \"@openzeppelin/contracts/utils/Pausable.sol\":1943:1951  paused() */\n      tag_412\n        /* \"@openzeppelin/contracts/utils/Pausable.sol\":1943:1949  paused */\n      tag_121\n        /* \"@openzeppelin/contracts/utils/Pausable.sol\":1943:1951  paused() */\n      jump\t// in\n    tag_412:\n        /* \"@openzeppelin/contracts/utils/Pausable.sol\":1939:2000  if (paused()) {... */\n      iszero\n      tag_413\n      jumpi\n        /* \"@openzeppelin/contracts/utils/Pausable.sol\":1974:1989  EnforcedPause() */\n      mload(0x40)\n      0xd93c066500000000000000000000000000000000000000000000000000000000\n      dup2\n      mstore\n      0x04\n      add\n      mload(0x40)\n      dup1\n      swap2\n      sub\n      swap1\n      revert\n        /* \"@openzeppelin/contracts/utils/Pausable.sol\":1939:2000  if (paused()) {... */\n    tag_413:\n        /* \"@openzeppelin/contracts/utils/Pausable.sol\":1878:2006  function _requireNotPaused() internal view virtual {... */\n      jump\t// out\n        /* \"@openzeppelin/contracts/access/AccessControl.sol\":3432:3629  function _checkRole(bytes32 role, address account) internal view virtual {... */\n    tag_385:\n        /* \"@openzeppelin/contracts/access/AccessControl.sol\":3520:3542  hasRole(role, account) */\n      tag_415\n        /* \"@openzeppelin/contracts/access/AccessControl.sol\":3528:3532  role */\n      dup3\n        /* \"@openzeppelin/contracts/access/AccessControl.sol\":3534:3541  account */\n      dup3\n        /* \"@openzeppelin/contracts/access/AccessControl.sol\":3520:3527  hasRole */\n      tag_137\n        /* \"@openzeppelin/contracts/access/AccessControl.sol\":3520:3542  hasRole(role, account) */\n      jump\t// in\n    tag_415:\n        /* \"@openzeppelin/contracts/access/AccessControl.sol\":3515:3623  if (!hasRole(role, account)) {... */\n      tag_416\n      jumpi\n        /* \"@openzeppelin/contracts/access/AccessControl.sol\":3598:3605  account */\n      dup1\n        /* \"@openzeppelin/contracts/access/AccessControl.sol\":3607:3611  role */\n      dup3\n        /* \"@openzeppelin/contracts/access/AccessControl.sol\":3565:3612  AccessControlUnauthorizedAccount(account, role) */\n      mload(0x40)\n      0xe2517d3f00000000000000000000000000000000000000000000000000000000\n      dup2\n      mstore\n      0x04\n      add\n      tag_417\n      swap3\n      swap2\n      swap1\n      tag_418\n      jump\t// in\n    tag_417:\n      mload(0x40)\n      dup1\n      swap2\n      sub\n      swap1\n      revert\n        /* \"@openzeppelin/contracts/access/AccessControl.sol\":3515:3623  if (!hasRole(role, account)) {... */\n    tag_416:\n        /* \"@openzeppelin/contracts/access/AccessControl.sol\":3432:3629  function _checkRole(bytes32 role, address account) internal view virtual {... */\n      pop\n      pop\n      jump\t// out\n        /* \"@openzeppelin/contracts/utils/Pausable.sol\":2078:2204  function _requirePaused() internal view virtual {... */\n    tag_399:\n        /* \"@openzeppelin/contracts/utils/Pausable.sol\":2141:2149  paused() */\n      tag_420\n        /* \"@openzeppelin/contracts/utils/Pausable.sol\":2141:2147  paused */\n      tag_121\n        /* \"@openzeppelin/contracts/utils/Pausable.sol\":2141:2149  paused() */\n      jump\t// in\n    tag_420:\n        /* \"@openzeppelin/contracts/utils/Pausable.sol\":2136:2198  if (!paused()) {... */\n      tag_421\n      jumpi\n        /* \"@openzeppelin/contracts/utils/Pausable.sol\":2172:2187  ExpectedPause() */\n      mload(0x40)\n      0x8dfc202b00000000000000000000000000000000000000000000000000000000\n      dup2\n      mstore\n      0x04\n      add\n      mload(0x40)\n      dup1\n      swap2\n      sub\n      swap1\n      revert\n        /* \"@openzeppelin/contracts/utils/Pausable.sol\":2136:2198  if (!paused()) {... */\n    tag_421:\n        /* \"@openzeppelin/contracts/utils/Pausable.sol\":2078:2204  function _requirePaused() internal view virtual {... */\n      jump\t// out\n        /* \"#utility.yul\":88:205   */\n    tag_423:\n        /* \"#utility.yul\":197:198   */\n      0x00\n        /* \"#utility.yul\":194:195   */\n      dup1\n        /* \"#utility.yul\":187:199   */\n      revert\n        /* \"#utility.yul\":334:483   */\n    tag_425:\n        /* \"#utility.yul\":370:377   */\n      0x00\n        /* \"#utility.yul\":410:476   */\n      0xffffffff00000000000000000000000000000000000000000000000000000000\n        /* \"#utility.yul\":403:408   */\n      dup3\n        /* \"#utility.yul\":399:477   */\n      and\n        /* \"#utility.yul\":388:477   */\n      swap1\n      pop\n        /* \"#utility.yul\":334:483   */\n      swap2\n      swap1\n      pop\n      jump\t// out\n        /* \"#utility.yul\":489:609   */\n    tag_426:\n        /* \"#utility.yul\":561:584   */\n      tag_470\n        /* \"#utility.yul\":578:583   */\n      dup2\n        /* \"#utility.yul\":561:584   */\n      tag_425\n      jump\t// in\n    tag_470:\n        /* \"#utility.yul\":554:559   */\n      dup2\n        /* \"#utility.yul\":551:585   */\n      eq\n        /* \"#utility.yul\":541:603   */\n      tag_471\n      jumpi\n        /* \"#utility.yul\":599:600   */\n      0x00\n        /* \"#utility.yul\":596:597   */\n      dup1\n        /* \"#utility.yul\":589:601   */\n      revert\n        /* \"#utility.yul\":541:603   */\n    tag_471:\n        /* \"#utility.yul\":489:609   */\n      pop\n      jump\t// out\n        /* \"#utility.yul\":615:752   */\n    tag_427:\n        /* \"#utility.yul\":660:665   */\n      0x00\n        /* \"#utility.yul\":698:704   */\n      dup2\n        /* \"#utility.yul\":685:705   */\n      calldataload\n        /* \"#utility.yul\":676:705   */\n      swap1\n      pop\n        /* \"#utility.yul\":714:746   */\n      tag_473\n        /* \"#utility.yul\":740:745   */\n      dup2\n        /* \"#utility.yul\":714:746   */\n      tag_426\n      jump\t// in\n    tag_473:\n        /* \"#utility.yul\":615:752   */\n      swap3\n      swap2\n      pop\n      pop\n      jump\t// out\n        /* \"#utility.yul\":758:1085   */\n    tag_55:\n        /* \"#utility.yul\":816:822   */\n      0x00\n        /* \"#utility.yul\":865:867   */\n      0x20\n        /* \"#utility.yul\":853:862   */\n      dup3\n        /* \"#utility.yul\":844:851   */\n      dup5\n        /* \"#utility.yul\":840:863   */\n      sub\n        /* \"#utility.yul\":836:868   */\n      slt\n        /* \"#utility.yul\":833:952   */\n      iszero\n      tag_475\n      jumpi\n        /* \"#utility.yul\":871:950   */\n      tag_476\n      tag_423\n      jump\t// in\n    tag_476:\n        /* \"#utility.yul\":833:952   */\n    tag_475:\n        /* \"#utility.yul\":991:992   */\n      0x00\n        /* \"#utility.yul\":1016:1068   */\n      tag_477\n        /* \"#utility.yul\":1060:1067   */\n      dup5\n        /* \"#utility.yul\":1051:1057   */\n      dup3\n        /* \"#utility.yul\":1040:1049   */\n      dup6\n        /* \"#utility.yul\":1036:1058   */\n      add\n        /* \"#utility.yul\":1016:1068   */\n      tag_427\n      jump\t// in\n    tag_477:\n        /* \"#utility.yul\":1006:1068   */\n      swap2\n      pop\n        /* \"#utility.yul\":962:1078   */\n      pop\n        /* \"#utility.yul\":758:1085   */\n      swap3\n      swap2\n      pop\n      pop\n      jump\t// out\n        /* \"#utility.yul\":1091:1181   */\n    tag_428:\n        /* \"#utility.yul\":1125:1132   */\n      0x00\n        /* \"#utility.yul\":1168:1173   */\n      dup2\n        /* \"#utility.yul\":1161:1174   */\n      iszero\n        /* \"#utility.yul\":1154:1175   */\n      iszero\n        /* \"#utility.yul\":1143:1175   */\n      swap1\n      pop\n        /* \"#utility.yul\":1091:1181   */\n      swap2\n      swap1\n      pop\n      jump\t// out\n        /* \"#utility.yul\":1187:1296   */\n    tag_429:\n        /* \"#utility.yul\":1268:1289   */\n      tag_480\n        /* \"#utility.yul\":1283:1288   */\n      dup2\n        /* \"#utility.yul\":1268:1289   */\n      tag_428\n      jump\t// in\n    tag_480:\n        /* \"#utility.yul\":1263:1266   */\n      dup3\n        /* \"#utility.yul\":1256:1290   */\n      mstore\n        /* \"#utility.yul\":1187:1296   */\n      pop\n      pop\n      jump\t// out\n        /* \"#utility.yul\":1302:1512   */\n    tag_58:\n        /* \"#utility.yul\":1389:1393   */\n      0x00\n        /* \"#utility.yul\":1427:1429   */\n      0x20\n        /* \"#utility.yul\":1416:1425   */\n      dup3\n        /* \"#utility.yul\":1412:1430   */\n      add\n        /* \"#utility.yul\":1404:1430   */\n      swap1\n      pop\n        /* \"#utility.yul\":1440:1505   */\n      tag_482\n        /* \"#utility.yul\":1502:1503   */\n      0x00\n        /* \"#utility.yul\":1491:1500   */\n      dup4\n        /* \"#utility.yul\":1487:1504   */\n      add\n        /* \"#utility.yul\":1478:1484   */\n      dup5\n        /* \"#utility.yul\":1440:1505   */\n      tag_429\n      jump\t// in\n    tag_482:\n        /* \"#utility.yul\":1302:1512   */\n      swap3\n      swap2\n      pop\n      pop\n      jump\t// out\n        /* \"#utility.yul\":1518:1595   */\n    tag_430:\n        /* \"#utility.yul\":1555:1562   */\n      0x00\n        /* \"#utility.yul\":1584:1589   */\n      dup2\n        /* \"#utility.yul\":1573:1589   */\n      swap1\n      pop\n        /* \"#utility.yul\":1518:1595   */\n      swap2\n      swap1\n      pop\n      jump\t// out\n        /* \"#utility.yul\":1601:1723   */\n    tag_431:\n        /* \"#utility.yul\":1674:1698   */\n      tag_485\n        /* \"#utility.yul\":1692:1697   */\n      dup2\n        /* \"#utility.yul\":1674:1698   */\n      tag_430\n      jump\t// in\n    tag_485:\n        /* \"#utility.yul\":1667:1672   */\n      dup2\n        /* \"#utility.yul\":1664:1699   */\n      eq\n        /* \"#utility.yul\":1654:1717   */\n      tag_486\n      jumpi\n        /* \"#utility.yul\":1713:1714   */\n      0x00\n        /* \"#utility.yul\":1710:1711   */\n      dup1\n        /* \"#utility.yul\":1703:1715   */\n      revert\n        /* \"#utility.yul\":1654:1717   */\n    tag_486:\n        /* \"#utility.yul\":1601:1723   */\n      pop\n      jump\t// out\n        /* \"#utility.yul\":1729:1868   */\n    tag_432:\n        /* \"#utility.yul\":1775:1780   */\n      0x00\n        /* \"#utility.yul\":1813:1819   */\n      dup2\n        /* \"#utility.yul\":1800:1820   */\n      calldataload\n        /* \"#utility.yul\":1791:1820   */\n      swap1\n      pop\n        /* \"#utility.yul\":1829:1862   */\n      tag_488\n        /* \"#utility.yul\":1856:1861   */\n      dup2\n        /* \"#utility.yul\":1829:1862   */\n      tag_431\n      jump\t// in\n    tag_488:\n        /* \"#utility.yul\":1729:1868   */\n      swap3\n      swap2\n      pop\n      pop\n      jump\t// out\n        /* \"#utility.yul\":1874:2203   */\n    tag_62:\n        /* \"#utility.yul\":1933:1939   */\n      0x00\n        /* \"#utility.yul\":1982:1984   */\n      0x20\n        /* \"#utility.yul\":1970:1979   */\n      dup3\n        /* \"#utility.yul\":1961:1968   */\n      dup5\n        /* \"#utility.yul\":1957:1980   */\n      sub\n        /* \"#utility.yul\":1953:1985   */\n      slt\n        /* \"#utility.yul\":1950:2069   */\n      iszero\n      tag_490\n      jumpi\n        /* \"#utility.yul\":1988:2067   */\n      tag_491\n      tag_423\n      jump\t// in\n    tag_491:\n        /* \"#utility.yul\":1950:2069   */\n    tag_490:\n        /* \"#utility.yul\":2108:2109   */\n      0x00\n        /* \"#utility.yul\":2133:2186   */\n      tag_492\n        /* \"#utility.yul\":2178:2185   */\n      dup5\n        /* \"#utility.yul\":2169:2175   */\n      dup3\n        /* \"#utility.yul\":2158:2167   */\n      dup6\n        /* \"#utility.yul\":2154:2176   */\n      add\n        /* \"#utility.yul\":2133:2186   */\n      tag_432\n      jump\t// in\n    tag_492:\n        /* \"#utility.yul\":2123:2186   */\n      swap2\n      pop\n        /* \"#utility.yul\":2079:2196   */\n      pop\n        /* \"#utility.yul\":1874:2203   */\n      swap3\n      swap2\n      pop\n      pop\n      jump\t// out\n        /* \"#utility.yul\":2209:2327   */\n    tag_433:\n        /* \"#utility.yul\":2296:2320   */\n      tag_494\n        /* \"#utility.yul\":2314:2319   */\n      dup2\n        /* \"#utility.yul\":2296:2320   */\n      tag_430\n      jump\t// in\n    tag_494:\n        /* \"#utility.yul\":2291:2294   */\n      dup3\n        /* \"#utility.yul\":2284:2321   */\n      mstore\n        /* \"#utility.yul\":2209:2327   */\n      pop\n      pop\n      jump\t// out\n        /* \"#utility.yul\":2333:2555   */\n    tag_65:\n        /* \"#utility.yul\":2426:2430   */\n      0x00\n        /* \"#utility.yul\":2464:2466   */\n      0x20\n        /* \"#utility.yul\":2453:2462   */\n      dup3\n        /* \"#utility.yul\":2449:2467   */\n      add\n        /* \"#utility.yul\":2441:2467   */\n      swap1\n      pop\n        /* \"#utility.yul\":2477:2548   */\n      tag_496\n        /* \"#utility.yul\":2545:2546   */\n      0x00\n        /* \"#utility.yul\":2534:2543   */\n      dup4\n        /* \"#utility.yul\":2530:2547   */\n      add\n        /* \"#utility.yul\":2521:2527   */\n      dup5\n        /* \"#utility.yul\":2477:2548   */\n      tag_433\n      jump\t// in\n    tag_496:\n        /* \"#utility.yul\":2333:2555   */\n      swap3\n      swap2\n      pop\n      pop\n      jump\t// out\n        /* \"#utility.yul\":2561:2638   */\n    tag_434:\n        /* \"#utility.yul\":2598:2605   */\n      0x00\n        /* \"#utility.yul\":2627:2632   */\n      dup2\n        /* \"#utility.yul\":2616:2632   */\n      swap1\n      pop\n        /* \"#utility.yul\":2561:2638   */\n      swap2\n      swap1\n      pop\n      jump\t// out\n        /* \"#utility.yul\":2644:2762   */\n    tag_435:\n        /* \"#utility.yul\":2731:2755   */\n      tag_499\n        /* \"#utility.yul\":2749:2754   */\n      dup2\n        /* \"#utility.yul\":2731:2755   */\n      tag_434\n      jump\t// in\n    tag_499:\n        /* \"#utility.yul\":2726:2729   */\n      dup3\n        /* \"#utility.yul\":2719:2756   */\n      mstore\n        /* \"#utility.yul\":2644:2762   */\n      pop\n      pop\n      jump\t// out\n        /* \"#utility.yul\":2768:2990   */\n    tag_70:\n        /* \"#utility.yul\":2861:2865   */\n      0x00\n        /* \"#utility.yul\":2899:2901   */\n      0x20\n        /* \"#utility.yul\":2888:2897   */\n      dup3\n        /* \"#utility.yul\":2884:2902   */\n      add\n        /* \"#utility.yul\":2876:2902   */\n      swap1\n      pop\n        /* \"#utility.yul\":2912:2983   */\n      tag_501\n        /* \"#utility.yul\":2980:2981   */\n      0x00\n        /* \"#utility.yul\":2969:2978   */\n      dup4\n        /* \"#utility.yul\":2965:2982   */\n      add\n        /* \"#utility.yul\":2956:2962   */\n      dup5\n        /* \"#utility.yul\":2912:2983   */\n      tag_435\n      jump\t// in\n    tag_501:\n        /* \"#utility.yul\":2768:2990   */\n      swap3\n      swap2\n      pop\n      pop\n      jump\t// out\n        /* \"#utility.yul\":2996:3122   */\n    tag_436:\n        /* \"#utility.yul\":3033:3040   */\n      0x00\n        /* \"#utility.yul\":3073:3115   */\n      0xffffffffffffffffffffffffffffffffffffffff\n        /* \"#utility.yul\":3066:3071   */\n      dup3\n        /* \"#utility.yul\":3062:3116   */\n      and\n        /* \"#utility.yul\":3051:3116   */\n      swap1\n      pop\n        /* \"#utility.yul\":2996:3122   */\n      swap2\n      swap1\n      pop\n      jump\t// out\n        /* \"#utility.yul\":3128:3224   */\n    tag_437:\n        /* \"#utility.yul\":3165:3172   */\n      0x00\n        /* \"#utility.yul\":3194:3218   */\n      tag_504\n        /* \"#utility.yul\":3212:3217   */\n      dup3\n        /* \"#utility.yul\":3194:3218   */\n      tag_436\n      jump\t// in\n    tag_504:\n        /* \"#utility.yul\":3183:3218   */\n      swap1\n      pop\n        /* \"#utility.yul\":3128:3224   */\n      swap2\n      swap1\n      pop\n      jump\t// out\n        /* \"#utility.yul\":3230:3352   */\n    tag_438:\n        /* \"#utility.yul\":3303:3327   */\n      tag_506\n        /* \"#utility.yul\":3321:3326   */\n      dup2\n        /* \"#utility.yul\":3303:3327   */\n      tag_437\n      jump\t// in\n    tag_506:\n        /* \"#utility.yul\":3296:3301   */\n      dup2\n        /* \"#utility.yul\":3293:3328   */\n      eq\n        /* \"#utility.yul\":3283:3346   */\n      tag_507\n      jumpi\n        /* \"#utility.yul\":3342:3343   */\n      0x00\n        /* \"#utility.yul\":3339:3340   */\n      dup1\n        /* \"#utility.yul\":3332:3344   */\n      revert\n        /* \"#utility.yul\":3283:3346   */\n    tag_507:\n        /* \"#utility.yul\":3230:3352   */\n      pop\n      jump\t// out\n        /* \"#utility.yul\":3358:3497   */\n    tag_439:\n        /* \"#utility.yul\":3404:3409   */\n      0x00\n        /* \"#utility.yul\":3442:3448   */\n      dup2\n        /* \"#utility.yul\":3429:3449   */\n      calldataload\n        /* \"#utility.yul\":3420:3449   */\n      swap1\n      pop\n        /* \"#utility.yul\":3458:3491   */\n      tag_509\n        /* \"#utility.yul\":3485:3490   */\n      dup2\n        /* \"#utility.yul\":3458:3491   */\n      tag_438\n      jump\t// in\n    tag_509:\n        /* \"#utility.yul\":3358:3497   */\n      swap3\n      swap2\n      pop\n      pop\n      jump\t// out\n        /* \"#utility.yul\":3503:3977   */\n    tag_74:\n        /* \"#utility.yul\":3571:3577   */\n      0x00\n        /* \"#utility.yul\":3579:3585   */\n      dup1\n        /* \"#utility.yul\":3628:3630   */\n      0x40\n        /* \"#utility.yul\":3616:3625   */\n      dup4\n        /* \"#utility.yul\":3607:3614   */\n      dup6\n        /* \"#utility.yul\":3603:3626   */\n      sub\n        /* \"#utility.yul\":3599:3631   */\n      slt\n        /* \"#utility.yul\":3596:3715   */\n      iszero\n      tag_511\n      jumpi\n        /* \"#utility.yul\":3634:3713   */\n      tag_512\n      tag_423\n      jump\t// in\n    tag_512:\n        /* \"#utility.yul\":3596:3715   */\n    tag_511:\n        /* \"#utility.yul\":3754:3755   */\n      0x00\n        /* \"#utility.yul\":3779:3832   */\n      tag_513\n        /* \"#utility.yul\":3824:3831   */\n      dup6\n        /* \"#utility.yul\":3815:3821   */\n      dup3\n        /* \"#utility.yul\":3804:3813   */\n      dup7\n        /* \"#utility.yul\":3800:3822   */\n      add\n        /* \"#utility.yul\":3779:3832   */\n      tag_432\n      jump\t// in\n    tag_513:\n        /* \"#utility.yul\":3769:3832   */\n      swap3\n      pop\n        /* \"#utility.yul\":3725:3842   */\n      pop\n        /* \"#utility.yul\":3881:3883   */\n      0x20\n        /* \"#utility.yul\":3907:3960   */\n      tag_514\n        /* \"#utility.yul\":3952:3959   */\n      dup6\n        /* \"#utility.yul\":3943:3949   */\n      dup3\n        /* \"#utility.yul\":3932:3941   */\n      dup7\n        /* \"#utility.yul\":3928:3950   */\n      add\n        /* \"#utility.yul\":3907:3960   */\n      tag_439\n      jump\t// in\n    tag_514:\n        /* \"#utility.yul\":3897:3960   */\n      swap2\n      pop\n        /* \"#utility.yul\":3852:3970   */\n      pop\n        /* \"#utility.yul\":3503:3977   */\n      swap3\n      pop\n      swap3\n      swap1\n      pop\n      jump\t// out\n        /* \"#utility.yul\":3983:4105   */\n    tag_440:\n        /* \"#utility.yul\":4056:4080   */\n      tag_516\n        /* \"#utility.yul\":4074:4079   */\n      dup2\n        /* \"#utility.yul\":4056:4080   */\n      tag_434\n      jump\t// in\n    tag_516:\n        /* \"#utility.yul\":4049:4054   */\n      dup2\n        /* \"#utility.yul\":4046:4081   */\n      eq\n        /* \"#utility.yul\":4036:4099   */\n      tag_517\n      jumpi\n        /* \"#utility.yul\":4095:4096   */\n      0x00\n        /* \"#utility.yul\":4092:4093   */\n      dup1\n        /* \"#utility.yul\":4085:4097   */\n      revert\n        /* \"#utility.yul\":4036:4099   */\n    tag_517:\n        /* \"#utility.yul\":3983:4105   */\n      pop\n      jump\t// out\n        /* \"#utility.yul\":4111:4250   */\n    tag_441:\n        /* \"#utility.yul\":4157:4162   */\n      0x00\n        /* \"#utility.yul\":4195:4201   */\n      dup2\n        /* \"#utility.yul\":4182:4202   */\n      calldataload\n        /* \"#utility.yul\":4173:4202   */\n      swap1\n      pop\n        /* \"#utility.yul\":4211:4244   */\n      tag_519\n        /* \"#utility.yul\":4238:4243   */\n      dup2\n        /* \"#utility.yul\":4211:4244   */\n      tag_440\n      jump\t// in\n    tag_519:\n        /* \"#utility.yul\":4111:4250   */\n      swap3\n      swap2\n      pop\n      pop\n      jump\t// out\n        /* \"#utility.yul\":4256:4585   */\n    tag_79:\n        /* \"#utility.yul\":4315:4321   */\n      0x00\n        /* \"#utility.yul\":4364:4366   */\n      0x20\n        /* \"#utility.yul\":4352:4361   */\n      dup3\n        /* \"#utility.yul\":4343:4350   */\n      dup5\n        /* \"#utility.yul\":4339:4362   */\n      sub\n        /* \"#utility.yul\":4335:4367   */\n      slt\n        /* \"#utility.yul\":4332:4451   */\n      iszero\n      tag_521\n      jumpi\n        /* \"#utility.yul\":4370:4449   */\n      tag_522\n      tag_423\n      jump\t// in\n    tag_522:\n        /* \"#utility.yul\":4332:4451   */\n    tag_521:\n        /* \"#utility.yul\":4490:4491   */\n      0x00\n        /* \"#utility.yul\":4515:4568   */\n      tag_523\n        /* \"#utility.yul\":4560:4567   */\n      dup5\n        /* \"#utility.yul\":4551:4557   */\n      dup3\n        /* \"#utility.yul\":4540:4549   */\n      dup6\n        /* \"#utility.yul\":4536:4558   */\n      add\n        /* \"#utility.yul\":4515:4568   */\n      tag_441\n      jump\t// in\n    tag_523:\n        /* \"#utility.yul\":4505:4568   */\n      swap2\n      pop\n        /* \"#utility.yul\":4461:4578   */\n      pop\n        /* \"#utility.yul\":4256:4585   */\n      swap3\n      swap2\n      pop\n      pop\n      jump\t// out\n        /* \"#utility.yul\":4591:4920   */\n    tag_95:\n        /* \"#utility.yul\":4650:4656   */\n      0x00\n        /* \"#utility.yul\":4699:4701   */\n      0x20\n        /* \"#utility.yul\":4687:4696   */\n      dup3\n        /* \"#utility.yul\":4678:4685   */\n      dup5\n        /* \"#utility.yul\":4674:4697   */\n      sub\n        /* \"#utility.yul\":4670:4702   */\n      slt\n        /* \"#utility.yul\":4667:4786   */\n      iszero\n      tag_525\n      jumpi\n        /* \"#utility.yul\":4705:4784   */\n      tag_526\n      tag_423\n      jump\t// in\n    tag_526:\n        /* \"#utility.yul\":4667:4786   */\n    tag_525:\n        /* \"#utility.yul\":4825:4826   */\n      0x00\n        /* \"#utility.yul\":4850:4903   */\n      tag_527\n        /* \"#utility.yul\":4895:4902   */\n      dup5\n        /* \"#utility.yul\":4886:4892   */\n      dup3\n        /* \"#utility.yul\":4875:4884   */\n      dup6\n        /* \"#utility.yul\":4871:4893   */\n      add\n        /* \"#utility.yul\":4850:4903   */\n      tag_439\n      jump\t// in\n    tag_527:\n        /* \"#utility.yul\":4840:4903   */\n      swap2\n      pop\n        /* \"#utility.yul\":4796:4913   */\n      pop\n        /* \"#utility.yul\":4591:4920   */\n      swap3\n      swap2\n      pop\n      pop\n      jump\t// out\n        /* \"#utility.yul\":4926:5027   */\n    tag_442:\n        /* \"#utility.yul\":4962:4969   */\n      0x00\n        /* \"#utility.yul\":5002:5020   */\n      0xffffffffffffffff\n        /* \"#utility.yul\":4995:5000   */\n      dup3\n        /* \"#utility.yul\":4991:5021   */\n      and\n        /* \"#utility.yul\":4980:5021   */\n      swap1\n      pop\n        /* \"#utility.yul\":4926:5027   */\n      swap2\n      swap1\n      pop\n      jump\t// out\n        /* \"#utility.yul\":5033:5148   */\n    tag_443:\n        /* \"#utility.yul\":5118:5141   */\n      tag_530\n        /* \"#utility.yul\":5135:5140   */\n      dup2\n        /* \"#utility.yul\":5118:5141   */\n      tag_442\n      jump\t// in\n    tag_530:\n        /* \"#utility.yul\":5113:5116   */\n      dup3\n        /* \"#utility.yul\":5106:5142   */\n      mstore\n        /* \"#utility.yul\":5033:5148   */\n      pop\n      pop\n      jump\t// out\n        /* \"#utility.yul\":5154:5372   */\n    tag_106:\n        /* \"#utility.yul\":5245:5249   */\n      0x00\n        /* \"#utility.yul\":5283:5285   */\n      0x20\n        /* \"#utility.yul\":5272:5281   */\n      dup3\n        /* \"#utility.yul\":5268:5286   */\n      add\n        /* \"#utility.yul\":5260:5286   */\n      swap1\n      pop\n        /* \"#utility.yul\":5296:5365   */\n      tag_532\n        /* \"#utility.yul\":5362:5363   */\n      0x00\n        /* \"#utility.yul\":5351:5360   */\n      dup4\n        /* \"#utility.yul\":5347:5364   */\n      add\n        /* \"#utility.yul\":5338:5344   */\n      dup5\n        /* \"#utility.yul\":5296:5365   */\n      tag_443\n      jump\t// in\n    tag_532:\n        /* \"#utility.yul\":5154:5372   */\n      swap3\n      swap2\n      pop\n      pop\n      jump\t// out\n        /* \"#utility.yul\":5378:5496   */\n    tag_444:\n        /* \"#utility.yul\":5465:5489   */\n      tag_534\n        /* \"#utility.yul\":5483:5488   */\n      dup2\n        /* \"#utility.yul\":5465:5489   */\n      tag_437\n      jump\t// in\n    tag_534:\n        /* \"#utility.yul\":5460:5463   */\n      dup3\n        /* \"#utility.yul\":5453:5490   */\n      mstore\n        /* \"#utility.yul\":5378:5496   */\n      pop\n      pop\n      jump\t// out\n        /* \"#utility.yul\":5502:5724   */\n    tag_118:\n        /* \"#utility.yul\":5595:5599   */\n      0x00\n        /* \"#utility.yul\":5633:5635   */\n      0x20\n        /* \"#utility.yul\":5622:5631   */\n      dup3\n        /* \"#utility.yul\":5618:5636   */\n      add\n        /* \"#utility.yul\":5610:5636   */\n      swap1\n      pop\n        /* \"#utility.yul\":5646:5717   */\n      tag_536\n        /* \"#utility.yul\":5714:5715   */\n      0x00\n        /* \"#utility.yul\":5703:5712   */\n      dup4\n        /* \"#utility.yul\":5699:5716   */\n      add\n        /* \"#utility.yul\":5690:5696   */\n      dup5\n        /* \"#utility.yul\":5646:5717   */\n      tag_444\n      jump\t// in\n    tag_536:\n        /* \"#utility.yul\":5502:5724   */\n      swap3\n      swap2\n      pop\n      pop\n      jump\t// out\n        /* \"#utility.yul\":5730:6204   */\n    tag_182:\n        /* \"#utility.yul\":5798:5804   */\n      0x00\n        /* \"#utility.yul\":5806:5812   */\n      dup1\n        /* \"#utility.yul\":5855:5857   */\n      0x40\n        /* \"#utility.yul\":5843:5852   */\n      dup4\n        /* \"#utility.yul\":5834:5841   */\n      dup6\n        /* \"#utility.yul\":5830:5853   */\n      sub\n        /* \"#utility.yul\":5826:5858   */\n      slt\n        /* \"#utility.yul\":5823:5942   */\n      iszero\n      tag_538\n      jumpi\n        /* \"#utility.yul\":5861:5940   */\n      tag_539\n      tag_423\n      jump\t// in\n    tag_539:\n        /* \"#utility.yul\":5823:5942   */\n    tag_538:\n        /* \"#utility.yul\":5981:5982   */\n      0x00\n        /* \"#utility.yul\":6006:6059   */\n      tag_540\n        /* \"#utility.yul\":6051:6058   */\n      dup6\n        /* \"#utility.yul\":6042:6048   */\n      dup3\n        /* \"#utility.yul\":6031:6040   */\n      dup7\n        /* \"#utility.yul\":6027:6049   */\n      add\n        /* \"#utility.yul\":6006:6059   */\n      tag_441\n      jump\t// in\n    tag_540:\n        /* \"#utility.yul\":5996:6059   */\n      swap3\n      pop\n        /* \"#utility.yul\":5952:6069   */\n      pop\n        /* \"#utility.yul\":6108:6110   */\n      0x20\n        /* \"#utility.yul\":6134:6187   */\n      tag_541\n        /* \"#utility.yul\":6179:6186   */\n      dup6\n        /* \"#utility.yul\":6170:6176   */\n      dup3\n        /* \"#utility.yul\":6159:6168   */\n      dup7\n        /* \"#utility.yul\":6155:6177   */\n      add\n        /* \"#utility.yul\":6134:6187   */\n      tag_441\n      jump\t// in\n    tag_541:\n        /* \"#utility.yul\":6124:6187   */\n      swap2\n      pop\n        /* \"#utility.yul\":6079:6197   */\n      pop\n        /* \"#utility.yul\":5730:6204   */\n      swap3\n      pop\n      swap3\n      swap1\n      pop\n      jump\t// out\n        /* \"#utility.yul\":6210:6330   */\n    tag_445:\n        /* \"#utility.yul\":6282:6305   */\n      tag_543\n        /* \"#utility.yul\":6299:6304   */\n      dup2\n        /* \"#utility.yul\":6282:6305   */\n      tag_442\n      jump\t// in\n    tag_543:\n        /* \"#utility.yul\":6275:6280   */\n      dup2\n        /* \"#utility.yul\":6272:6306   */\n      eq\n        /* \"#utility.yul\":6262:6324   */\n      tag_544\n      jumpi\n        /* \"#utility.yul\":6320:6321   */\n      0x00\n        /* \"#utility.yul\":6317:6318   */\n      dup1\n        /* \"#utility.yul\":6310:6322   */\n      revert\n        /* \"#utility.yul\":6262:6324   */\n    tag_544:\n        /* \"#utility.yul\":6210:6330   */\n      pop\n      jump\t// out\n        /* \"#utility.yul\":6336:6473   */\n    tag_446:\n        /* \"#utility.yul\":6381:6386   */\n      0x00\n        /* \"#utility.yul\":6419:6425   */\n      dup2\n        /* \"#utility.yul\":6406:6426   */\n      calldataload\n        /* \"#utility.yul\":6397:6426   */\n      swap1\n      pop\n        /* \"#utility.yul\":6435:6467   */\n      tag_546\n        /* \"#utility.yul\":6461:6466   */\n      dup2\n        /* \"#utility.yul\":6435:6467   */\n      tag_445\n      jump\t// in\n    tag_546:\n        /* \"#utility.yul\":6336:6473   */\n      swap3\n      swap2\n      pop\n      pop\n      jump\t// out\n        /* \"#utility.yul\":6479:6949   */\n    tag_202:\n        /* \"#utility.yul\":6545:6551   */\n      0x00\n        /* \"#utility.yul\":6553:6559   */\n      dup1\n        /* \"#utility.yul\":6602:6604   */\n      0x40\n        /* \"#utility.yul\":6590:6599   */\n      dup4\n        /* \"#utility.yul\":6581:6588   */\n      dup6\n        /* \"#utility.yul\":6577:6600   */\n      sub\n        /* \"#utility.yul\":6573:6605   */\n      slt\n        /* \"#utility.yul\":6570:6689   */\n      iszero\n      tag_548\n      jumpi\n        /* \"#utility.yul\":6608:6687   */\n      tag_549\n      tag_423\n      jump\t// in\n    tag_549:\n        /* \"#utility.yul\":6570:6689   */\n    tag_548:\n        /* \"#utility.yul\":6728:6729   */\n      0x00\n        /* \"#utility.yul\":6753:6805   */\n      tag_550\n        /* \"#utility.yul\":6797:6804   */\n      dup6\n        /* \"#utility.yul\":6788:6794   */\n      dup3\n        /* \"#utility.yul\":6777:6786   */\n      dup7\n        /* \"#utility.yul\":6773:6795   */\n      add\n        /* \"#utility.yul\":6753:6805   */\n      tag_446\n      jump\t// in\n    tag_550:\n        /* \"#utility.yul\":6743:6805   */\n      swap3\n      pop\n        /* \"#utility.yul\":6699:6815   */\n      pop\n        /* \"#utility.yul\":6854:6856   */\n      0x20\n        /* \"#utility.yul\":6880:6932   */\n      tag_551\n        /* \"#utility.yul\":6924:6931   */\n      dup6\n        /* \"#utility.yul\":6915:6921   */\n      dup3\n        /* \"#utility.yul\":6904:6913   */\n      dup7\n        /* \"#utility.yul\":6900:6922   */\n      add\n        /* \"#utility.yul\":6880:6932   */\n      tag_446\n      jump\t// in\n    tag_551:\n        /* \"#utility.yul\":6870:6932   */\n      swap2\n      pop\n        /* \"#utility.yul\":6825:6942   */\n      pop\n        /* \"#utility.yul\":6479:6949   */\n      swap3\n      pop\n      swap3\n      swap1\n      pop\n      jump\t// out\n        /* \"#utility.yul\":6955:7044   */\n    tag_447:\n        /* \"#utility.yul\":6991:6998   */\n      0x00\n        /* \"#utility.yul\":7031:7037   */\n      0xffff\n        /* \"#utility.yul\":7024:7029   */\n      dup3\n        /* \"#utility.yul\":7020:7038   */\n      and\n        /* \"#utility.yul\":7009:7038   */\n      swap1\n      pop\n        /* \"#utility.yul\":6955:7044   */\n      swap2\n      swap1\n      pop\n      jump\t// out\n        /* \"#utility.yul\":7050:7165   */\n    tag_448:\n        /* \"#utility.yul\":7135:7158   */\n      tag_554\n        /* \"#utility.yul\":7152:7157   */\n      dup2\n        /* \"#utility.yul\":7135:7158   */\n      tag_447\n      jump\t// in\n    tag_554:\n        /* \"#utility.yul\":7130:7133   */\n      dup3\n        /* \"#utility.yul\":7123:7159   */\n      mstore\n        /* \"#utility.yul\":7050:7165   */\n      pop\n      pop\n      jump\t// out\n        /* \"#utility.yul\":7171:7389   */\n    tag_215:\n        /* \"#utility.yul\":7262:7266   */\n      0x00\n        /* \"#utility.yul\":7300:7302   */\n      0x20\n        /* \"#utility.yul\":7289:7298   */\n      dup3\n        /* \"#utility.yul\":7285:7303   */\n      add\n        /* \"#utility.yul\":7277:7303   */\n      swap1\n      pop\n        /* \"#utility.yul\":7313:7382   */\n      tag_556\n        /* \"#utility.yul\":7379:7380   */\n      0x00\n        /* \"#utility.yul\":7368:7377   */\n      dup4\n        /* \"#utility.yul\":7364:7381   */\n      add\n        /* \"#utility.yul\":7355:7361   */\n      dup5\n        /* \"#utility.yul\":7313:7382   */\n      tag_448\n      jump\t// in\n    tag_556:\n        /* \"#utility.yul\":7171:7389   */\n      swap3\n      swap2\n      pop\n      pop\n      jump\t// out\n        /* \"#utility.yul\":7395:7455   */\n    tag_449:\n        /* \"#utility.yul\":7423:7426   */\n      0x00\n        /* \"#utility.yul\":7444:7449   */\n      dup2\n        /* \"#utility.yul\":7437:7449   */\n      swap1\n      pop\n        /* \"#utility.yul\":7395:7455   */\n      swap2\n      swap1\n      pop\n      jump\t// out\n        /* \"#utility.yul\":7461:7603   */\n    tag_450:\n        /* \"#utility.yul\":7511:7520   */\n      0x00\n        /* \"#utility.yul\":7544:7597   */\n      tag_559\n        /* \"#utility.yul\":7562:7596   */\n      tag_560\n        /* \"#utility.yul\":7571:7595   */\n      tag_561\n        /* \"#utility.yul\":7589:7594   */\n      dup5\n        /* \"#utility.yul\":7571:7595   */\n      tag_436\n      jump\t// in\n    tag_561:\n        /* \"#utility.yul\":7562:7596   */\n      tag_449\n      jump\t// in\n    tag_560:\n        /* \"#utility.yul\":7544:7597   */\n      tag_436\n      jump\t// in\n    tag_559:\n        /* \"#utility.yul\":7531:7597   */\n      swap1\n      pop\n        /* \"#utility.yul\":7461:7603   */\n      swap2\n      swap1\n      pop\n      jump\t// out\n        /* \"#utility.yul\":7609:7735   */\n    tag_451:\n        /* \"#utility.yul\":7659:7668   */\n      0x00\n        /* \"#utility.yul\":7692:7729   */\n      tag_563\n        /* \"#utility.yul\":7723:7728   */\n      dup3\n        /* \"#utility.yul\":7692:7729   */\n      tag_450\n      jump\t// in\n    tag_563:\n        /* \"#utility.yul\":7679:7729   */\n      swap1\n      pop\n        /* \"#utility.yul\":7609:7735   */\n      swap2\n      swap1\n      pop\n      jump\t// out\n        /* \"#utility.yul\":7741:7885   */\n    tag_452:\n        /* \"#utility.yul\":7809:7818   */\n      0x00\n        /* \"#utility.yul\":7842:7879   */\n      tag_565\n        /* \"#utility.yul\":7873:7878   */\n      dup3\n        /* \"#utility.yul\":7842:7879   */\n      tag_451\n      jump\t// in\n    tag_565:\n        /* \"#utility.yul\":7829:7879   */\n      swap1\n      pop\n        /* \"#utility.yul\":7741:7885   */\n      swap2\n      swap1\n      pop\n      jump\t// out\n        /* \"#utility.yul\":7891:8058   */\n    tag_453:\n        /* \"#utility.yul\":7996:8051   */\n      tag_567\n        /* \"#utility.yul\":8045:8050   */\n      dup2\n        /* \"#utility.yul\":7996:8051   */\n      tag_452\n      jump\t// in\n    tag_567:\n        /* \"#utility.yul\":7991:7994   */\n      dup3\n        /* \"#utility.yul\":7984:8052   */\n      mstore\n        /* \"#utility.yul\":7891:8058   */\n      pop\n      pop\n      jump\t// out\n        /* \"#utility.yul\":8064:8322   */\n    tag_224:\n        /* \"#utility.yul\":8175:8179   */\n      0x00\n        /* \"#utility.yul\":8213:8215   */\n      0x20\n        /* \"#utility.yul\":8202:8211   */\n      dup3\n        /* \"#utility.yul\":8198:8216   */\n      add\n        /* \"#utility.yul\":8190:8216   */\n      swap1\n      pop\n        /* \"#utility.yul\":8226:8315   */\n      tag_569\n        /* \"#utility.yul\":8312:8313   */\n      0x00\n        /* \"#utility.yul\":8301:8310   */\n      dup4\n        /* \"#utility.yul\":8297:8314   */\n      add\n        /* \"#utility.yul\":8288:8294   */\n      dup5\n        /* \"#utility.yul\":8226:8315   */\n      tag_453\n      jump\t// in\n    tag_569:\n        /* \"#utility.yul\":8064:8322   */\n      swap3\n      swap2\n      pop\n      pop\n      jump\t// out\n        /* \"#utility.yul\":8328:8660   */\n    tag_243:\n        /* \"#utility.yul\":8449:8453   */\n      0x00\n        /* \"#utility.yul\":8487:8489   */\n      0x40\n        /* \"#utility.yul\":8476:8485   */\n      dup3\n        /* \"#utility.yul\":8472:8490   */\n      add\n        /* \"#utility.yul\":8464:8490   */\n      swap1\n      pop\n        /* \"#utility.yul\":8500:8571   */\n      tag_571\n        /* \"#utility.yul\":8568:8569   */\n      0x00\n        /* \"#utility.yul\":8557:8566   */\n      dup4\n        /* \"#utility.yul\":8553:8570   */\n      add\n        /* \"#utility.yul\":8544:8550   */\n      dup6\n        /* \"#utility.yul\":8500:8571   */\n      tag_435\n      jump\t// in\n    tag_571:\n        /* \"#utility.yul\":8581:8653   */\n      tag_572\n        /* \"#utility.yul\":8649:8651   */\n      0x20\n        /* \"#utility.yul\":8638:8647   */\n      dup4\n        /* \"#utility.yul\":8634:8652   */\n      add\n        /* \"#utility.yul\":8625:8631   */\n      dup5\n        /* \"#utility.yul\":8581:8653   */\n      tag_435\n      jump\t// in\n    tag_572:\n        /* \"#utility.yul\":8328:8660   */\n      swap4\n      swap3\n      pop\n      pop\n      pop\n      jump\t// out\n        /* \"#utility.yul\":8666:8846   */\n    tag_454:\n        /* \"#utility.yul\":8714:8791   */\n      0x4e487b7100000000000000000000000000000000000000000000000000000000\n        /* \"#utility.yul\":8711:8712   */\n      0x00\n        /* \"#utility.yul\":8704:8792   */\n      mstore\n        /* \"#utility.yul\":8811:8815   */\n      0x11\n        /* \"#utility.yul\":8808:8809   */\n      0x04\n        /* \"#utility.yul\":8801:8816   */\n      mstore\n        /* \"#utility.yul\":8835:8839   */\n      0x24\n        /* \"#utility.yul\":8832:8833   */\n      0x00\n        /* \"#utility.yul\":8825:8840   */\n      revert\n        /* \"#utility.yul\":8852:9262   */\n    tag_290:\n        /* \"#utility.yul\":8892:8899   */\n      0x00\n        /* \"#utility.yul\":8915:8935   */\n      tag_575\n        /* \"#utility.yul\":8933:8934   */\n      dup3\n        /* \"#utility.yul\":8915:8935   */\n      tag_434\n      jump\t// in\n    tag_575:\n        /* \"#utility.yul\":8910:8935   */\n      swap2\n      pop\n        /* \"#utility.yul\":8949:8969   */\n      tag_576\n        /* \"#utility.yul\":8967:8968   */\n      dup4\n        /* \"#utility.yul\":8949:8969   */\n      tag_434\n      jump\t// in\n    tag_576:\n        /* \"#utility.yul\":8944:8969   */\n      swap3\n      pop\n        /* \"#utility.yul\":9004:9005   */\n      dup3\n        /* \"#utility.yul\":9001:9002   */\n      dup3\n        /* \"#utility.yul\":8997:9006   */\n      mul\n        /* \"#utility.yul\":9026:9056   */\n      tag_577\n        /* \"#utility.yul\":9044:9055   */\n      dup2\n        /* \"#utility.yul\":9026:9056   */\n      tag_434\n      jump\t// in\n    tag_577:\n        /* \"#utility.yul\":9015:9056   */\n      swap2\n      pop\n        /* \"#utility.yul\":9205:9206   */\n      dup3\n        /* \"#utility.yul\":9196:9203   */\n      dup3\n        /* \"#utility.yul\":9192:9207   */\n      div\n        /* \"#utility.yul\":9189:9190   */\n      dup5\n        /* \"#utility.yul\":9186:9208   */\n      eq\n        /* \"#utility.yul\":9166:9167   */\n      dup4\n        /* \"#utility.yul\":9159:9168   */\n      iszero\n        /* \"#utility.yul\":9139:9222   */\n      or\n        /* \"#utility.yul\":9116:9255   */\n      tag_578\n      jumpi\n        /* \"#utility.yul\":9235:9253   */\n      tag_579\n      tag_454\n      jump\t// in\n    tag_579:\n        /* \"#utility.yul\":9116:9255   */\n    tag_578:\n        /* \"#utility.yul\":8900:9262   */\n      pop\n        /* \"#utility.yul\":8852:9262   */\n      swap3\n      swap2\n      pop\n      pop\n      jump\t// out\n        /* \"#utility.yul\":9268:9448   */\n    tag_455:\n        /* \"#utility.yul\":9316:9393   */\n      0x4e487b7100000000000000000000000000000000000000000000000000000000\n        /* \"#utility.yul\":9313:9314   */\n      0x00\n        /* \"#utility.yul\":9306:9394   */\n      mstore\n        /* \"#utility.yul\":9413:9417   */\n      0x12\n        /* \"#utility.yul\":9410:9411   */\n      0x04\n        /* \"#utility.yul\":9403:9418   */\n      mstore\n        /* \"#utility.yul\":9437:9441   */\n      0x24\n        /* \"#utility.yul\":9434:9435   */\n      0x00\n        /* \"#utility.yul\":9427:9442   */\n      revert\n        /* \"#utility.yul\":9454:9639   */\n    tag_292:\n        /* \"#utility.yul\":9494:9495   */\n      0x00\n        /* \"#utility.yul\":9511:9531   */\n      tag_582\n        /* \"#utility.yul\":9529:9530   */\n      dup3\n        /* \"#utility.yul\":9511:9531   */\n      tag_434\n      jump\t// in\n    tag_582:\n        /* \"#utility.yul\":9506:9531   */\n      swap2\n      pop\n        /* \"#utility.yul\":9545:9565   */\n      tag_583\n        /* \"#utility.yul\":9563:9564   */\n      dup4\n        /* \"#utility.yul\":9545:9565   */\n      tag_434\n      jump\t// in\n    tag_583:\n        /* \"#utility.yul\":9540:9565   */\n      swap3\n      pop\n        /* \"#utility.yul\":9584:9585   */\n      dup3\n        /* \"#utility.yul\":9574:9609   */\n      tag_584\n      jumpi\n        /* \"#utility.yul\":9589:9607   */\n      tag_585\n      tag_455\n      jump\t// in\n    tag_585:\n        /* \"#utility.yul\":9574:9609   */\n    tag_584:\n        /* \"#utility.yul\":9631:9632   */\n      dup3\n        /* \"#utility.yul\":9628:9629   */\n      dup3\n        /* \"#utility.yul\":9624:9633   */\n      div\n        /* \"#utility.yul\":9619:9633   */\n      swap1\n      pop\n        /* \"#utility.yul\":9454:9639   */\n      swap3\n      swap2\n      pop\n      pop\n      jump\t// out\n        /* \"#utility.yul\":9645:9839   */\n    tag_295:\n        /* \"#utility.yul\":9685:9689   */\n      0x00\n        /* \"#utility.yul\":9705:9725   */\n      tag_587\n        /* \"#utility.yul\":9723:9724   */\n      dup3\n        /* \"#utility.yul\":9705:9725   */\n      tag_434\n      jump\t// in\n    tag_587:\n        /* \"#utility.yul\":9700:9725   */\n      swap2\n      pop\n        /* \"#utility.yul\":9739:9759   */\n      tag_588\n        /* \"#utility.yul\":9757:9758   */\n      dup4\n        /* \"#utility.yul\":9739:9759   */\n      tag_434\n      jump\t// in\n    tag_588:\n        /* \"#utility.yul\":9734:9759   */\n      swap3\n      pop\n        /* \"#utility.yul\":9783:9784   */\n      dup3\n        /* \"#utility.yul\":9780:9781   */\n      dup3\n        /* \"#utility.yul\":9776:9785   */\n      sub\n        /* \"#utility.yul\":9768:9785   */\n      swap1\n      pop\n        /* \"#utility.yul\":9807:9808   */\n      dup2\n        /* \"#utility.yul\":9801:9805   */\n      dup2\n        /* \"#utility.yul\":9798:9809   */\n      gt\n        /* \"#utility.yul\":9795:9832   */\n      iszero\n      tag_589\n      jumpi\n        /* \"#utility.yul\":9812:9830   */\n      tag_590\n      tag_454\n      jump\t// in\n    tag_590:\n        /* \"#utility.yul\":9795:9832   */\n    tag_589:\n        /* \"#utility.yul\":9645:9839   */\n      swap3\n      swap2\n      pop\n      pop\n      jump\t// out\n        /* \"#utility.yul\":9845:10177   */\n    tag_297:\n        /* \"#utility.yul\":9966:9970   */\n      0x00\n        /* \"#utility.yul\":10004:10006   */\n      0x40\n        /* \"#utility.yul\":9993:10002   */\n      dup3\n        /* \"#utility.yul\":9989:10007   */\n      add\n        /* \"#utility.yul\":9981:10007   */\n      swap1\n      pop\n        /* \"#utility.yul\":10017:10088   */\n      tag_592\n        /* \"#utility.yul\":10085:10086   */\n      0x00\n        /* \"#utility.yul\":10074:10083   */\n      dup4\n        /* \"#utility.yul\":10070:10087   */\n      add\n        /* \"#utility.yul\":10061:10067   */\n      dup6\n        /* \"#utility.yul\":10017:10088   */\n      tag_444\n      jump\t// in\n    tag_592:\n        /* \"#utility.yul\":10098:10170   */\n      tag_593\n        /* \"#utility.yul\":10166:10168   */\n      0x20\n        /* \"#utility.yul\":10155:10164   */\n      dup4\n        /* \"#utility.yul\":10151:10169   */\n      add\n        /* \"#utility.yul\":10142:10148   */\n      dup5\n        /* \"#utility.yul\":10098:10170   */\n      tag_435\n      jump\t// in\n    tag_593:\n        /* \"#utility.yul\":9845:10177   */\n      swap4\n      swap3\n      pop\n      pop\n      pop\n      jump\t// out\n        /* \"#utility.yul\":10183:10330   */\n    tag_456:\n        /* \"#utility.yul\":10284:10295   */\n      0x00\n        /* \"#utility.yul\":10321:10324   */\n      dup2\n        /* \"#utility.yul\":10306:10324   */\n      swap1\n      pop\n        /* \"#utility.yul\":10183:10330   */\n      swap3\n      swap2\n      pop\n      pop\n      jump\t// out\n        /* \"#utility.yul\":10336:10450   */\n    tag_457:\n      pop\n      jump\t// out\n        /* \"#utility.yul\":10456:10854   */\n    tag_458:\n        /* \"#utility.yul\":10615:10618   */\n      0x00\n        /* \"#utility.yul\":10636:10719   */\n      tag_597\n        /* \"#utility.yul\":10717:10718   */\n      0x00\n        /* \"#utility.yul\":10712:10715   */\n      dup4\n        /* \"#utility.yul\":10636:10719   */\n      tag_456\n      jump\t// in\n    tag_597:\n        /* \"#utility.yul\":10629:10719   */\n      swap2\n      pop\n        /* \"#utility.yul\":10728:10821   */\n      tag_598\n        /* \"#utility.yul\":10817:10820   */\n      dup3\n        /* \"#utility.yul\":10728:10821   */\n      tag_457\n      jump\t// in\n    tag_598:\n        /* \"#utility.yul\":10846:10847   */\n      0x00\n        /* \"#utility.yul\":10841:10844   */\n      dup3\n        /* \"#utility.yul\":10837:10848   */\n      add\n        /* \"#utility.yul\":10830:10848   */\n      swap1\n      pop\n        /* \"#utility.yul\":10456:10854   */\n      swap2\n      swap1\n      pop\n      jump\t// out\n        /* \"#utility.yul\":10860:11239   */\n    tag_309:\n        /* \"#utility.yul\":11044:11047   */\n      0x00\n        /* \"#utility.yul\":11066:11213   */\n      tag_600\n        /* \"#utility.yul\":11209:11212   */\n      dup3\n        /* \"#utility.yul\":11066:11213   */\n      tag_458\n      jump\t// in\n    tag_600:\n        /* \"#utility.yul\":11059:11213   */\n      swap2\n      pop\n        /* \"#utility.yul\":11230:11233   */\n      dup2\n        /* \"#utility.yul\":11223:11233   */\n      swap1\n      pop\n        /* \"#utility.yul\":10860:11239   */\n      swap2\n      swap1\n      pop\n      jump\t// out\n        /* \"#utility.yul\":11245:11414   */\n    tag_459:\n        /* \"#utility.yul\":11329:11340   */\n      0x00\n        /* \"#utility.yul\":11363:11369   */\n      dup3\n        /* \"#utility.yul\":11358:11361   */\n      dup3\n        /* \"#utility.yul\":11351:11370   */\n      mstore\n        /* \"#utility.yul\":11403:11407   */\n      0x20\n        /* \"#utility.yul\":11398:11401   */\n      dup3\n        /* \"#utility.yul\":11394:11408   */\n      add\n        /* \"#utility.yul\":11379:11408   */\n      swap1\n      pop\n        /* \"#utility.yul\":11245:11414   */\n      swap3\n      swap2\n      pop\n      pop\n      jump\t// out\n        /* \"#utility.yul\":11420:11592   */\n    tag_460:\n        /* \"#utility.yul\":11560:11584   */\n      0x526566756e64207472616e73666572206661696c656400000000000000000000\n        /* \"#utility.yul\":11556:11557   */\n      0x00\n        /* \"#utility.yul\":11548:11554   */\n      dup3\n        /* \"#utility.yul\":11544:11558   */\n      add\n        /* \"#utility.yul\":11537:11585   */\n      mstore\n        /* \"#utility.yul\":11420:11592   */\n      pop\n      jump\t// out\n        /* \"#utility.yul\":11598:11964   */\n    tag_461:\n        /* \"#utility.yul\":11740:11743   */\n      0x00\n        /* \"#utility.yul\":11761:11828   */\n      tag_604\n        /* \"#utility.yul\":11825:11827   */\n      0x16\n        /* \"#utility.yul\":11820:11823   */\n      dup4\n        /* \"#utility.yul\":11761:11828   */\n      tag_459\n      jump\t// in\n    tag_604:\n        /* \"#utility.yul\":11754:11828   */\n      swap2\n      pop\n        /* \"#utility.yul\":11837:11930   */\n      tag_605\n        /* \"#utility.yul\":11926:11929   */\n      dup3\n        /* \"#utility.yul\":11837:11930   */\n      tag_460\n      jump\t// in\n    tag_605:\n        /* \"#utility.yul\":11955:11957   */\n      0x20\n        /* \"#utility.yul\":11950:11953   */\n      dup3\n        /* \"#utility.yul\":11946:11958   */\n      add\n        /* \"#utility.yul\":11939:11958   */\n      swap1\n      pop\n        /* \"#utility.yul\":11598:11964   */\n      swap2\n      swap1\n      pop\n      jump\t// out\n        /* \"#utility.yul\":11970:12389   */\n    tag_315:\n        /* \"#utility.yul\":12136:12140   */\n      0x00\n        /* \"#utility.yul\":12174:12176   */\n      0x20\n        /* \"#utility.yul\":12163:12172   */\n      dup3\n        /* \"#utility.yul\":12159:12177   */\n      add\n        /* \"#utility.yul\":12151:12177   */\n      swap1\n      pop\n        /* \"#utility.yul\":12223:12232   */\n      dup2\n        /* \"#utility.yul\":12217:12221   */\n      dup2\n        /* \"#utility.yul\":12213:12233   */\n      sub\n        /* \"#utility.yul\":12209:12210   */\n      0x00\n        /* \"#utility.yul\":12198:12207   */\n      dup4\n        /* \"#utility.yul\":12194:12211   */\n      add\n        /* \"#utility.yul\":12187:12234   */\n      mstore\n        /* \"#utility.yul\":12251:12382   */\n      tag_607\n        /* \"#utility.yul\":12377:12381   */\n      dup2\n        /* \"#utility.yul\":12251:12382   */\n      tag_461\n      jump\t// in\n    tag_607:\n        /* \"#utility.yul\":12243:12382   */\n      swap1\n      pop\n        /* \"#utility.yul\":11970:12389   */\n      swap2\n      swap1\n      pop\n      jump\t// out\n        /* \"#utility.yul\":12395:12727   */\n    tag_339:\n        /* \"#utility.yul\":12516:12520   */\n      0x00\n        /* \"#utility.yul\":12554:12556   */\n      0x40\n        /* \"#utility.yul\":12543:12552   */\n      dup3\n        /* \"#utility.yul\":12539:12557   */\n      add\n        /* \"#utility.yul\":12531:12557   */\n      swap1\n      pop\n        /* \"#utility.yul\":12567:12638   */\n      tag_609\n        /* \"#utility.yul\":12635:12636   */\n      0x00\n        /* \"#utility.yul\":12624:12633   */\n      dup4\n        /* \"#utility.yul\":12620:12637   */\n      add\n        /* \"#utility.yul\":12611:12617   */\n      dup6\n        /* \"#utility.yul\":12567:12638   */\n      tag_444\n      jump\t// in\n    tag_609:\n        /* \"#utility.yul\":12648:12720   */\n      tag_610\n        /* \"#utility.yul\":12716:12718   */\n      0x20\n        /* \"#utility.yul\":12705:12714   */\n      dup4\n        /* \"#utility.yul\":12701:12719   */\n      add\n        /* \"#utility.yul\":12692:12698   */\n      dup5\n        /* \"#utility.yul\":12648:12720   */\n      tag_444\n      jump\t// in\n    tag_610:\n        /* \"#utility.yul\":12395:12727   */\n      swap4\n      swap3\n      pop\n      pop\n      pop\n      jump\t// out\n        /* \"#utility.yul\":12733:12898   */\n    tag_462:\n        /* \"#utility.yul\":12873:12890   */\n      0x5769746864726177206661696c65640000000000000000000000000000000000\n        /* \"#utility.yul\":12869:12870   */\n      0x00\n        /* \"#utility.yul\":12861:12867   */\n      dup3\n        /* \"#utility.yul\":12857:12871   */\n      add\n        /* \"#utility.yul\":12850:12891   */\n      mstore\n        /* \"#utility.yul\":12733:12898   */\n      pop\n      jump\t// out\n        /* \"#utility.yul\":12904:13270   */\n    tag_463:\n        /* \"#utility.yul\":13046:13049   */\n      0x00\n        /* \"#utility.yul\":13067:13134   */\n      tag_613\n        /* \"#utility.yul\":13131:13133   */\n      0x0f\n        /* \"#utility.yul\":13126:13129   */\n      dup4\n        /* \"#utility.yul\":13067:13134   */\n      tag_459\n      jump\t// in\n    tag_613:\n        /* \"#utility.yul\":13060:13134   */\n      swap2\n      pop\n        /* \"#utility.yul\":13143:13236   */\n      tag_614\n        /* \"#utility.yul\":13232:13235   */\n      dup3\n        /* \"#utility.yul\":13143:13236   */\n      tag_462\n      jump\t// in\n    tag_614:\n        /* \"#utility.yul\":13261:13263   */\n      0x20\n        /* \"#utility.yul\":13256:13259   */\n      dup3\n        /* \"#utility.yul\":13252:13264   */\n      add\n        /* \"#utility.yul\":13245:13264   */\n      swap1\n      pop\n        /* \"#utility.yul\":12904:13270   */\n      swap2\n      swap1\n      pop\n      jump\t// out\n        /* \"#utility.yul\":13276:13695   */\n    tag_351:\n        /* \"#utility.yul\":13442:13446   */\n      0x00\n        /* \"#utility.yul\":13480:13482   */\n      0x20\n        /* \"#utility.yul\":13469:13478   */\n      dup3\n        /* \"#utility.yul\":13465:13483   */\n      add\n        /* \"#utility.yul\":13457:13483   */\n      swap1\n      pop\n        /* \"#utility.yul\":13529:13538   */\n      dup2\n        /* \"#utility.yul\":13523:13527   */\n      dup2\n        /* \"#utility.yul\":13519:13539   */\n      sub\n        /* \"#utility.yul\":13515:13516   */\n      0x00\n        /* \"#utility.yul\":13504:13513   */\n      dup4\n        /* \"#utility.yul\":13500:13517   */\n      add\n        /* \"#utility.yul\":13493:13540   */\n      mstore\n        /* \"#utility.yul\":13557:13688   */\n      tag_616\n        /* \"#utility.yul\":13683:13687   */\n      dup2\n        /* \"#utility.yul\":13557:13688   */\n      tag_463\n      jump\t// in\n    tag_616:\n        /* \"#utility.yul\":13549:13688   */\n      swap1\n      pop\n        /* \"#utility.yul\":13276:13695   */\n      swap2\n      swap1\n      pop\n      jump\t// out\n        /* \"#utility.yul\":13701:14025   */\n    tag_359:\n        /* \"#utility.yul\":13818:13822   */\n      0x00\n        /* \"#utility.yul\":13856:13858   */\n      0x40\n        /* \"#utility.yul\":13845:13854   */\n      dup3\n        /* \"#utility.yul\":13841:13859   */\n      add\n        /* \"#utility.yul\":13833:13859   */\n      swap1\n      pop\n        /* \"#utility.yul\":13869:13938   */\n      tag_618\n        /* \"#utility.yul\":13935:13936   */\n      0x00\n        /* \"#utility.yul\":13924:13933   */\n      dup4\n        /* \"#utility.yul\":13920:13937   */\n      add\n        /* \"#utility.yul\":13911:13917   */\n      dup6\n        /* \"#utility.yul\":13869:13938   */\n      tag_443\n      jump\t// in\n    tag_618:\n        /* \"#utility.yul\":13948:14018   */\n      tag_619\n        /* \"#utility.yul\":14014:14016   */\n      0x20\n        /* \"#utility.yul\":14003:14012   */\n      dup4\n        /* \"#utility.yul\":13999:14017   */\n      add\n        /* \"#utility.yul\":13990:13996   */\n      dup5\n        /* \"#utility.yul\":13948:14018   */\n      tag_443\n      jump\t// in\n    tag_619:\n        /* \"#utility.yul\":13701:14025   */\n      swap4\n      swap3\n      pop\n      pop\n      pop\n      jump\t// out\n        /* \"#utility.yul\":14031:14222   */\n    tag_370:\n        /* \"#utility.yul\":14071:14074   */\n      0x00\n        /* \"#utility.yul\":14090:14110   */\n      tag_621\n        /* \"#utility.yul\":14108:14109   */\n      dup3\n        /* \"#utility.yul\":14090:14110   */\n      tag_434\n      jump\t// in\n    tag_621:\n        /* \"#utility.yul\":14085:14110   */\n      swap2\n      pop\n        /* \"#utility.yul\":14124:14144   */\n      tag_622\n        /* \"#utility.yul\":14142:14143   */\n      dup4\n        /* \"#utility.yul\":14124:14144   */\n      tag_434\n      jump\t// in\n    tag_622:\n        /* \"#utility.yul\":14119:14144   */\n      swap3\n      pop\n        /* \"#utility.yul\":14167:14168   */\n      dup3\n        /* \"#utility.yul\":14164:14165   */\n      dup3\n        /* \"#utility.yul\":14160:14169   */\n      add\n        /* \"#utility.yul\":14153:14169   */\n      swap1\n      pop\n        /* \"#utility.yul\":14188:14191   */\n      dup1\n        /* \"#utility.yul\":14185:14186   */\n      dup3\n        /* \"#utility.yul\":14182:14192   */\n      gt\n        /* \"#utility.yul\":14179:14215   */\n      iszero\n      tag_623\n      jumpi\n        /* \"#utility.yul\":14195:14213   */\n      tag_624\n      tag_454\n      jump\t// in\n    tag_624:\n        /* \"#utility.yul\":14179:14215   */\n    tag_623:\n        /* \"#utility.yul\":14031:14222   */\n      swap3\n      swap2\n      pop\n      pop\n      jump\t// out\n        /* \"#utility.yul\":14228:14560   */\n    tag_418:\n        /* \"#utility.yul\":14349:14353   */\n      0x00\n        /* \"#utility.yul\":14387:14389   */\n      0x40\n        /* \"#utility.yul\":14376:14385   */\n      dup3\n        /* \"#utility.yul\":14372:14390   */\n      add\n        /* \"#utility.yul\":14364:14390   */\n      swap1\n      pop\n        /* \"#utility.yul\":14400:14471   */\n      tag_626\n        /* \"#utility.yul\":14468:14469   */\n      0x00\n        /* \"#utility.yul\":14457:14466   */\n      dup4\n        /* \"#utility.yul\":14453:14470   */\n      add\n        /* \"#utility.yul\":14444:14450   */\n      dup6\n        /* \"#utility.yul\":14400:14471   */\n      tag_444\n      jump\t// in\n    tag_626:\n        /* \"#utility.yul\":14481:14553   */\n      tag_627\n        /* \"#utility.yul\":14549:14551   */\n      0x20\n        /* \"#utility.yul\":14538:14547   */\n      dup4\n        /* \"#utility.yul\":14534:14552   */\n      add\n        /* \"#utility.yul\":14525:14531   */\n      dup5\n        /* \"#utility.yul\":14481:14553   */\n      tag_433\n      jump\t// in\n    tag_627:\n        /* \"#utility.yul\":14228:14560   */\n      swap4\n      swap3\n      pop\n      pop\n      pop\n      jump\t// out\n\n    auxdata: 0xa2646970667358221220fea7cf49223413867b3550a9a7904a00d0313234fc3153c727174863e1745af064736f6c634300081a0033\n}\n",
				"bytecode": {
					"linkReferences": {},
					"object": "610100604052348015610010575f80fd5b50604051612fe8380380612fe883398181016040528101906100329190610566565b60015f819055505f73ffffffffffffffffffffffffffffffffffffffff168b73ffffffffffffffffffffffffffffffffffffffff16148061009e57505f73ffffffffffffffffffffffffffffffffffffffff168a73ffffffffffffffffffffffffffffffffffffffff16145b806100d457505f73ffffffffffffffffffffffffffffffffffffffff168173ffffffffffffffffffffffffffffffffffffffff16145b806100de57505f89145b806100e857505f88145b806100f257505f87145b806100fd5750878711155b8061011c57508467ffffffffffffffff168667ffffffffffffffff1610155b8061012657505f84145b8061013057505f83145b8061013a57508383105b8061014a57506127108261ffff16115b15610181576040517fa86b651200000000000000000000000000000000000000000000000000000000815260040160405180910390fd5b8a73ffffffffffffffffffffffffffffffffffffffff1660808173ffffffffffffffffffffffffffffffffffffffff16815250508960035f6101000a81548173ffffffffffffffffffffffffffffffffffffffff021916908373ffffffffffffffffffffffffffffffffffffffff160217905550886004819055508760a081815250508660c081815250508560055f6101000a81548167ffffffffffffffff021916908367ffffffffffffffff16021790555084600560086101000a81548167ffffffffffffffff021916908367ffffffffffffffff16021790555083600681905550826007819055508161ffff1660e08161ffff168152505061028d5f801b8261030060201b60201c565b506102be7f65d7a28e3265b37a6474929f336521b332c1681b933f6cb9f3376673440d862a8261030060201b60201c565b506102ef7f82db594318110a04b6349ce48645aa69f0892751bc893d15e61d9e2b9c4630f58261030060201b60201c565b505050505050505050505050610653565b5f61031183836103f660201b60201c565b6103ec57600160025f8581526020019081526020015f205f015f8473ffffffffffffffffffffffffffffffffffffffff1673ffffffffffffffffffffffffffffffffffffffff1681526020019081526020015f205f6101000a81548160ff02191690831515021790555061038961045a60201b60201c565b73ffffffffffffffffffffffffffffffffffffffff168273ffffffffffffffffffffffffffffffffffffffff16847f2f8788117e7eff1d82e926ec794901d17c78024a50270940304540a733656f0d60405160405180910390a4600190506103f0565b5f90505b92915050565b5f60025f8481526020019081526020015f205f015f8373ffffffffffffffffffffffffffffffffffffffff1673ffffffffffffffffffffffffffffffffffffffff1681526020019081526020015f205f9054906101000a900460ff16905092915050565b5f33905090565b5f80fd5b5f73ffffffffffffffffffffffffffffffffffffffff82169050919050565b5f61048e82610465565b9050919050565b61049e81610484565b81146104a8575f80fd5b50565b5f815190506104b981610495565b92915050565b5f819050919050565b6104d1816104bf565b81146104db575f80fd5b50565b5f815190506104ec816104c8565b92915050565b5f67ffffffffffffffff82169050919050565b61050e816104f2565b8114610518575f80fd5b50565b5f8151905061052981610505565b92915050565b5f61ffff82169050919050565b6105458161052f565b811461054f575f80fd5b50565b5f815190506105608161053c565b92915050565b5f805f805f805f805f805f6101608c8e03121561058657610585610461565b5b5f6105938e828f016104ab565b9b505060206105a48e828f016104ab565b9a505060406105b58e828f016104de565b99505060606105c68e828f016104de565b98505060806105d78e828f016104de565b97505060a06105e88e828f0161051b565b96505060c06105f98e828f0161051b565b95505060e061060a8e828f016104de565b94505061010061061c8e828f016104de565b93505061012061062e8e828f01610552565b9250506101406106408e828f016104ab565b9150509295989b509295989b9093969950565b60805160a05160c05160e0516129386106b05f395f8181610f880152611d1201525f8181610b990152818161141901528181611aba0152611d3601525f8181610c950152610dff01525f818161108f0152611d5a01526129385ff3fe60806040526004361061023e575f3560e01c80639b8c1fed1161012d578063d547741f116100aa578063ec8ac4d81161006e578063ec8ac4d8146107ed578063f43e98c714610809578063f49e251414610833578063fb86a4041461085d578063fc0c546a1461088757610245565b8063d547741f14610735578063deaa59df1461075d578063e086e5ec14610785578063e63ab1e91461079b578063eb3b3fe6146107c557610245565b8063b5545a3c116100f1578063b5545a3c14610667578063b7a8807c1461067d578063be68d17a146106a7578063c2b6b58c146106e3578063c4590d3f1461070d57610245565b80639b8c1fed146105a9578063a217fddf146105bf578063a4d19feb146105e9578063aaffadf314610613578063b3f05b971461063d57610245565b80634b6753bc116101bb5780638456cb591161017f5780638456cb59146104c75780638d3d6576146104dd578063906a26e01461050757806391d1485414610531578063995c5e9d1461056d57610245565b80634b6753bc146104095780634bb278f314610433578063518ab2a814610449578063521eb273146104735780635c975abb1461049d57610245565b806336568abe1161020257806336568abe1461033b5780633f4ba83a146103635780634042b66f146103795780634225e5bb146103a357806347535d7b146103df57610245565b806301ffc9a714610249578063248a9ca3146102855780632c4e722e146102c15780632f2ff15d146102eb57806334fcf4371461031357610245565b3661024557005b5f80fd5b348015610254575f80fd5b5061026f600480360381019061026a919061220e565b6108b1565b60405161027c9190612253565b60405180910390f35b348015610290575f80fd5b506102ab60048036038101906102a6919061229f565b61092a565b6040516102b891906122d9565b60405180910390f35b3480156102cc575f80fd5b506102d5610947565b6040516102e2919061230a565b60405180910390f35b3480156102f6575f80fd5b50610311600480360381019061030c919061237d565b61094d565b005b34801561031e575f80fd5b50610339600480360381019061033491906123e5565b61096f565b005b348015610346575f80fd5b50610361600480360381019061035c919061237d565b610a75565b005b34801561036e575f80fd5b50610377610af0565b005b348015610384575f80fd5b5061038d610b25565b60405161039a919061230a565b60405180910390f35b3480156103ae575f80fd5b506103c960048036038101906103c49190612410565b610b2b565b6040516103d6919061230a565b60405180910390f35b3480156103ea575f80fd5b506103f3610b40565b6040516104009190612253565b60405180910390f35b348015610414575f80fd5b5061041d610bd3565b60405161042a919061245d565b60405180910390f35b34801561043e575f80fd5b50610447610bed565b005b348015610454575f80fd5b5061045d610d82565b60405161046a919061230a565b60405180910390f35b34801561047e575f80fd5b50610487610d88565b6040516104949190612485565b60405180910390f35b3480156104a8575f80fd5b506104b1610dad565b6040516104be9190612253565b60405180910390f35b3480156104d2575f80fd5b506104db610dc2565b005b3480156104e8575f80fd5b506104f1610df7565b6040516104fe919061230a565b60405180910390f35b348015610512575f80fd5b5061051b610dfd565b604051610528919061230a565b60405180910390f35b34801561053c575f80fd5b506105576004803603810190610552919061237d565b610e21565b6040516105649190612253565b60405180910390f35b348015610578575f80fd5b50610593600480360381019061058e9190612410565b610e85565b6040516105a0919061230a565b60405180910390f35b3480156105b4575f80fd5b506105bd610e9a565b005b3480156105ca575f80fd5b506105d3611171565b6040516105e091906122d9565b60405180910390f35b3480156105f4575f80fd5b506105fd611177565b60405161060a91906122d9565b60405180910390f35b34801561061e575f80fd5b5061062761119b565b604051610634919061230a565b60405180910390f35b348015610648575f80fd5b506106516111a1565b60405161065e9190612253565b60405180910390f35b348015610672575f80fd5b5061067b6111b3565b005b348015610688575f80fd5b506106916113bf565b60405161069e919061245d565b60405180910390f35b3480156106b2575f80fd5b506106cd60048036038101906106c89190612410565b6113d8565b6040516106da919061230a565b60405180910390f35b3480156106ee575f80fd5b506106f76113ed565b6040516107049190612253565b60405180910390f35b348015610718575f80fd5b50610733600480360381019061072e919061249e565b611443565b005b348015610740575f80fd5b5061075b6004803603810190610756919061237d565b61155f565b005b348015610768575f80fd5b50610783600480360381019061077e9190612410565b611581565b005b348015610790575f80fd5b5061079961170b565b005b3480156107a6575f80fd5b506107af61184a565b6040516107bc91906122d9565b60405180910390f35b3480156107d0575f80fd5b506107eb60048036038101906107e69190612506565b61186e565b005b61080760048036038101906108029190612410565b6119cc565b005b348015610814575f80fd5b5061081d611cfd565b60405161082a9190612253565b60405180910390f35b34801561083e575f80fd5b50610847611d10565b6040516108549190612560565b60405180910390f35b348015610868575f80fd5b50610871611d34565b60405161087e919061230a565b60405180910390f35b348015610892575f80fd5b5061089b611d58565b6040516108a891906125d4565b60405180910390f35b5f7f7965db0b000000000000000000000000000000000000000000000000000000007bffffffffffffffffffffffffffffffffffffffffffffffffffffffff1916827bffffffffffffffffffffffffffffffffffffffffffffffffffffffff19161480610923575061092282611d7c565b5b9050919050565b5f60025f8381526020019081526020015f20600101549050919050565b60045481565b6109568261092a565b61095f81611de5565b6109698383611df9565b50505050565b7f82db594318110a04b6349ce48645aa69f0892751bc893d15e61d9e2b9c4630f561099981611de5565b60055f9054906101000a900467ffffffffffffffff1667ffffffffffffffff1642106109f1576040517f445dce4c00000000000000000000000000000000000000000000000000000000815260040160405180910390fd5b5f8203610a2a576040517fa86b651200000000000000000000000000000000000000000000000000000000815260040160405180910390fd5b5f6004549050826004819055507fb38780ddde1f073d91c150de2696f3f7085883648ba21cc5ef01029cb21d19168184604051610a689291906125ed565b60405180910390a1505050565b610a7d611ee3565b73ffffffffffffffffffffffffffffffffffffffff168173ffffffffffffffffffffffffffffffffffffffff1614610ae1576040517f6697b23200000000000000000000000000000000000000000000000000000000815260040160405180910390fd5b610aeb8282611eea565b505050565b7f65d7a28e3265b37a6474929f336521b332c1681b933f6cb9f3376673440d862a610b1a81611de5565b610b22611fd4565b50565b60085481565b600b602052805f5260405f205f915090505481565b5f60055f9054906101000a900467ffffffffffffffff1667ffffffffffffffff164210158015610b905750600560089054906101000a900467ffffffffffffffff1667ffffffffffffffff164211155b8015610bbd57507f0000000000000000000000000000000000000000000000000000000000000000600854105b8015610bce5750610bcc610dad565b155b905090565b600560089054906101000a900467ffffffffffffffff1681565b610bf5612035565b610bfd6113ed565b610c33576040517f78fa807700000000000000000000000000000000000000000000000000000000815260040160405180910390fd5b600d5f9054906101000a900460ff1615610c79576040517f475a253500000000000000000000000000000000000000000000000000000000815260040160405180910390fd5b6001600d5f6101000a81548160ff0219169083151502179055507f000000000000000000000000000000000000000000000000000000000000000060085410610cf9577f41493253ae80c9f89e25283c36f67849365d0515134ce43de1314223cb6f73426001604051610cec9190612253565b60405180910390a1610d78565b6001600d60016101000a81548160ff0219169083151502179055507f599d8e5a83cffb867d051598c4d70e805d59802d8081c1c7d6dffc5b6aca2b8960405160405180910390a17f41493253ae80c9f89e25283c36f67849365d0515134ce43de1314223cb6f73425f604051610d6f9190612253565b60405180910390a15b610d80612079565b565b60095481565b60035f9054906101000a900473ffffffffffffffffffffffffffffffffffffffff1681565b5f60015f9054906101000a900460ff16905090565b7f65d7a28e3265b37a6474929f336521b332c1681b933f6cb9f3376673440d862a610dec81611de5565b610df4612082565b50565b60075481565b7f000000000000000000000000000000000000000000000000000000000000000081565b5f60025f8481526020019081526020015f205f015f8373ffffffffffffffffffffffffffffffffffffffff1673ffffffffffffffffffffffffffffffffffffffff1681526020019081526020015f205f9054906101000a900460ff16905092915050565b600a602052805f5260405f205f915090505481565b610ea2612035565b610eaa6120e3565b600d5f9054906101000a900460ff161580610ed15750600d60019054906101000a900460ff165b15610f08576040517f2bdc91ad00000000000000000000000000000000000000000000000000000000815260040160405180910390fd5b5f600b5f3373ffffffffffffffffffffffffffffffffffffffff1673ffffffffffffffffffffffffffffffffffffffff1681526020019081526020015f205490505f8103610f82576040517f969bf72800000000000000000000000000000000000000000000000000000000815260040160405180910390fd5b5f6127107f000000000000000000000000000000000000000000000000000000000000000061ffff1683610fb69190612641565b610fc091906126af565b90505f600c5f3373ffffffffffffffffffffffffffffffffffffffff1673ffffffffffffffffffffffffffffffffffffffff1681526020019081526020015f2054905080821161103c576040517f969bf72800000000000000000000000000000000000000000000000000000000815260040160405180910390fd5b5f818361104991906126df565b905082600c5f3373ffffffffffffffffffffffffffffffffffffffff1673ffffffffffffffffffffffffffffffffffffffff1681526020019081526020015f20819055507f000000000000000000000000000000000000000000000000000000000000000073ffffffffffffffffffffffffffffffffffffffff166340c10f1933836040518363ffffffff1660e01b81526004016110e8929190612712565b5f604051808303815f87803b1580156110ff575f80fd5b505af1158015611111573d5f803e3d5ffd5b505050503373ffffffffffffffffffffffffffffffffffffffff167f9d9f91c7e63ecab055ab1ecb358d2e74e46aa0e4c65f9594aa73e56cfb5d0a478260405161115b919061230a565b60405180910390a25050505061116f612079565b565b5f801b81565b7f82db594318110a04b6349ce48645aa69f0892751bc893d15e61d9e2b9c4630f581565b60065481565b600d5f9054906101000a900460ff1681565b6111bb612035565b600d60019054906101000a900460ff16611201576040517f64547e6900000000000000000000000000000000000000000000000000000000815260040160405180910390fd5b5f600a5f3373ffffffffffffffffffffffffffffffffffffffff1673ffffffffffffffffffffffffffffffffffffffff1681526020019081526020015f205490505f810361127b576040517f969bf72800000000000000000000000000000000000000000000000000000000815260040160405180910390fd5b5f600a5f3373ffffffffffffffffffffffffffffffffffffffff1673ffffffffffffffffffffffffffffffffffffffff1681526020019081526020015f20819055505f3373ffffffffffffffffffffffffffffffffffffffff16826040516112e290612766565b5f6040518083038185875af1925050503d805f811461131c576040519150601f19603f3d011682016040523d82523d5f602084013e611321565b606091505b5050905080611365576040517f08c379a000000000000000000000000000000000000000000000000000000000815260040161135c906127d4565b60405180910390fd5b3373ffffffffffffffffffffffffffffffffffffffff167fd7dee2702d63ad89917b6a4da9981c90c4d24f8c2bdfd64c604ecae57d8d0651836040516113ab919061230a565b60405180910390a250506113bd612079565b565b60055f9054906101000a900467ffffffffffffffff1681565b600c602052805f5260405f205f915090505481565b5f600560089054906101000a900467ffffffffffffffff1667ffffffffffffffff1642118061143e57507f000000000000000000000000000000000000000000000000000000000000000060085410155b905090565b7f82db594318110a04b6349ce48645aa69f0892751bc893d15e61d9e2b9c4630f561146d81611de5565b60055f9054906101000a900467ffffffffffffffff1667ffffffffffffffff1642106114c5576040517f445dce4c00000000000000000000000000000000000000000000000000000000815260040160405180910390fd5b5f8314806114d257505f82145b806114dc57508282105b15611513576040517fa86b651200000000000000000000000000000000000000000000000000000000815260040160405180910390fd5b82600681905550816007819055507f4d4981437d0211f9e6843eb024d9ada1fa3a99514d4343d4aece106dd11524bb83836040516115529291906125ed565b60405180910390a1505050565b6115688261092a565b61157181611de5565b61157b8383611eea565b50505050565b7f82db594318110a04b6349ce48645aa69f0892751bc893d15e61d9e2b9c4630f56115ab81611de5565b60055f9054906101000a900467ffffffffffffffff1667ffffffffffffffff164210611603576040517f445dce4c00000000000000000000000000000000000000000000000000000000815260040160405180910390fd5b5f73ffffffffffffffffffffffffffffffffffffffff168273ffffffffffffffffffffffffffffffffffffffff1603611668576040517fd92e233d00000000000000000000000000000000000000000000000000000000815260040160405180910390fd5b5f60035f9054906101000a900473ffffffffffffffffffffffffffffffffffffffff1690508260035f6101000a81548173ffffffffffffffffffffffffffffffffffffffff021916908373ffffffffffffffffffffffffffffffffffffffff1602179055507f0f37c6733428a3a65d46b7f1853a5ce4bfa3cf92d25322507a50bf23a0b5a0a881846040516116fe9291906127f2565b60405180910390a1505050565b611713612035565b600d5f9054906101000a900460ff16158061173a5750600d60019054906101000a900460ff165b15611771576040517f2bdc91ad00000000000000000000000000000000000000000000000000000000815260040160405180910390fd5b5f4790505f60035f9054906101000a900473ffffffffffffffffffffffffffffffffffffffff1673ffffffffffffffffffffffffffffffffffffffff16826040516117bb90612766565b5f6040518083038185875af1925050503d805f81146117f5576040519150601f19603f3d011682016040523d82523d5f602084013e6117fa565b606091505b505090508061183e576040517f08c379a000000000000000000000000000000000000000000000000000000000815260040161183590612863565b60405180910390fd5b5050611848612079565b565b7f65d7a28e3265b37a6474929f336521b332c1681b933f6cb9f3376673440d862a81565b7f82db594318110a04b6349ce48645aa69f0892751bc893d15e61d9e2b9c4630f561189881611de5565b60055f9054906101000a900467ffffffffffffffff1667ffffffffffffffff1642106118f0576040517f445dce4c00000000000000000000000000000000000000000000000000000000815260040160405180910390fd5b8167ffffffffffffffff168367ffffffffffffffff161061193d576040517fa86b651200000000000000000000000000000000000000000000000000000000815260040160405180910390fd5b8260055f6101000a81548167ffffffffffffffff021916908367ffffffffffffffff16021790555081600560086101000a81548167ffffffffffffffff021916908367ffffffffffffffff1602179055507f114f2c213e3ab7c4e4e09d28a2efed89fe0c35a82be187299e8bb20e1b75576883836040516119bf929190612881565b60405180910390a1505050565b6119d4612035565b6119dc6120e3565b6119e4610b40565b611a1a576040517f445dce4c00000000000000000000000000000000000000000000000000000000815260040160405180910390fd5b5f73ffffffffffffffffffffffffffffffffffffffff168173ffffffffffffffffffffffffffffffffffffffff1603611a7f576040517fd92e233d00000000000000000000000000000000000000000000000000000000815260040160405180910390fd5b5f3403611ab8576040517f8d8f5cdc00000000000000000000000000000000000000000000000000000000815260040160405180910390fd5b7f000000000000000000000000000000000000000000000000000000000000000034600854611ae791906128a8565b1115611b1f576040517fa4875a4900000000000000000000000000000000000000000000000000000000815260040160405180910390fd5b5f34600a5f3373ffffffffffffffffffffffffffffffffffffffff1673ffffffffffffffffffffffffffffffffffffffff1681526020019081526020015f2054611b6991906128a8565b9050600654811080611b7c575060075481115b15611bb3576040517f8d8f5cdc00000000000000000000000000000000000000000000000000000000815260040160405180910390fd5b5f60045434611bc29190612641565b90503460085f828254611bd591906128a8565b925050819055508060095f828254611bed91906128a8565b9250508190555081600a5f3373ffffffffffffffffffffffffffffffffffffffff1673ffffffffffffffffffffffffffffffffffffffff1681526020019081526020015f208190555080600b5f8573ffffffffffffffffffffffffffffffffffffffff1673ffffffffffffffffffffffffffffffffffffffff1681526020019081526020015f205f828254611c8291906128a8565b925050819055508273ffffffffffffffffffffffffffffffffffffffff163373ffffffffffffffffffffffffffffffffffffffff167f6faf93231a456e552dbc9961f58d9713ee4f2e69d15f1975b050ef0911053a7b3484604051611ce89291906125ed565b60405180910390a35050611cfa612079565b50565b600d60019054906101000a900460ff1681565b7f000000000000000000000000000000000000000000000000000000000000000081565b7f000000000000000000000000000000000000000000000000000000000000000081565b7f000000000000000000000000000000000000000000000000000000000000000081565b5f7f01ffc9a7000000000000000000000000000000000000000000000000000000007bffffffffffffffffffffffffffffffffffffffffffffffffffffffff1916827bffffffffffffffffffffffffffffffffffffffffffffffffffffffff1916149050919050565b611df681611df1611ee3565b612124565b50565b5f611e048383610e21565b611ed957600160025f8581526020019081526020015f205f015f8473ffffffffffffffffffffffffffffffffffffffff1673ffffffffffffffffffffffffffffffffffffffff1681526020019081526020015f205f6101000a81548160ff021916908315150217905550611e76611ee3565b73ffffffffffffffffffffffffffffffffffffffff168273ffffffffffffffffffffffffffffffffffffffff16847f2f8788117e7eff1d82e926ec794901d17c78024a50270940304540a733656f0d60405160405180910390a460019050611edd565b5f90505b92915050565b5f33905090565b5f611ef58383610e21565b15611fca575f60025f8581526020019081526020015f205f015f8473ffffffffffffffffffffffffffffffffffffffff1673ffffffffffffffffffffffffffffffffffffffff1681526020019081526020015f205f6101000a81548160ff021916908315150217905550611f67611ee3565b73ffffffffffffffffffffffffffffffffffffffff168273ffffffffffffffffffffffffffffffffffffffff16847ff6391f5c32d9c69d2a47ea670b442974b53935d1edc7fd64eb21e047a839171b60405160405180910390a460019050611fce565b5f90505b92915050565b611fdc612175565b5f60015f6101000a81548160ff0219169083151502179055507f5db9ee0a495bf2e6ff9c91a7834c1ba4fdd244a5e8aa4e537bd38aeae4b073aa61201e611ee3565b60405161202b9190612485565b60405180910390a1565b60025f5403612070576040517f3ee5aeb500000000000000000000000000000000000000000000000000000000815260040160405180910390fd5b60025f81905550565b60015f81905550565b61208a6120e3565b6001805f6101000a81548160ff0219169083151502179055507f62e78cea01bee320cd4e420270b5ea74000d11b0c9f74754ebdbfc544b05a2586120cc611ee3565b6040516120d99190612485565b60405180910390a1565b6120eb610dad565b15612122576040517fd93c066500000000000000000000000000000000000000000000000000000000815260040160405180910390fd5b565b61212e8282610e21565b6121715780826040517fe2517d3f0000000000000000000000000000000000000000000000000000000081526004016121689291906128db565b60405180910390fd5b5050565b61217d610dad565b6121b3576040517f8dfc202b00000000000000000000000000000000000000000000000000000000815260040160405180910390fd5b565b5f80fd5b5f7fffffffff0000000000000000000000000000000000000000000000000000000082169050919050565b6121ed816121b9565b81146121f7575f80fd5b50565b5f81359050612208816121e4565b92915050565b5f60208284031215612223576122226121b5565b5b5f612230848285016121fa565b91505092915050565b5f8115159050919050565b61224d81612239565b82525050565b5f6020820190506122665f830184612244565b92915050565b5f819050919050565b61227e8161226c565b8114612288575f80fd5b50565b5f8135905061229981612275565b92915050565b5f602082840312156122b4576122b36121b5565b5b5f6122c18482850161228b565b91505092915050565b6122d38161226c565b82525050565b5f6020820190506122ec5f8301846122ca565b92915050565b5f819050919050565b612304816122f2565b82525050565b5f60208201905061231d5f8301846122fb565b92915050565b5f73ffffffffffffffffffffffffffffffffffffffff82169050919050565b5f61234c82612323565b9050919050565b61235c81612342565b8114612366575f80fd5b50565b5f8135905061237781612353565b92915050565b5f8060408385031215612393576123926121b5565b5b5f6123a08582860161228b565b92505060206123b185828601612369565b9150509250929050565b6123c4816122f2565b81146123ce575f80fd5b50565b5f813590506123df816123bb565b92915050565b5f602082840312156123fa576123f96121b5565b5b5f612407848285016123d1565b91505092915050565b5f60208284031215612425576124246121b5565b5b5f61243284828501612369565b91505092915050565b5f67ffffffffffffffff82169050919050565b6124578161243b565b82525050565b5f6020820190506124705f83018461244e565b92915050565b61247f81612342565b82525050565b5f6020820190506124985f830184612476565b92915050565b5f80604083850312156124b4576124b36121b5565b5b5f6124c1858286016123d1565b92505060206124d2858286016123d1565b9150509250929050565b6124e58161243b565b81146124ef575f80fd5b50565b5f81359050612500816124dc565b92915050565b5f806040838503121561251c5761251b6121b5565b5b5f612529858286016124f2565b925050602061253a858286016124f2565b9150509250929050565b5f61ffff82169050919050565b61255a81612544565b82525050565b5f6020820190506125735f830184612551565b92915050565b5f819050919050565b5f61259c61259761259284612323565b612579565b612323565b9050919050565b5f6125ad82612582565b9050919050565b5f6125be826125a3565b9050919050565b6125ce816125b4565b82525050565b5f6020820190506125e75f8301846125c5565b92915050565b5f6040820190506126005f8301856122fb565b61260d60208301846122fb565b9392505050565b7f4e487b71000000000000000000000000000000000000000000000000000000005f52601160045260245ffd5b5f61264b826122f2565b9150612656836122f2565b9250828202612664816122f2565b9150828204841483151761267b5761267a612614565b5b5092915050565b7f4e487b71000000000000000000000000000000000000000000000000000000005f52601260045260245ffd5b5f6126b9826122f2565b91506126c4836122f2565b9250826126d4576126d3612682565b5b828204905092915050565b5f6126e9826122f2565b91506126f4836122f2565b925082820390508181111561270c5761270b612614565b5b92915050565b5f6040820190506127255f830185612476565b61273260208301846122fb565b9392505050565b5f81905092915050565b50565b5f6127515f83612739565b915061275c82612743565b5f82019050919050565b5f61277082612746565b9150819050919050565b5f82825260208201905092915050565b7f526566756e64207472616e73666572206661696c6564000000000000000000005f82015250565b5f6127be60168361277a565b91506127c98261278a565b602082019050919050565b5f6020820190508181035f8301526127eb816127b2565b9050919050565b5f6040820190506128055f830185612476565b6128126020830184612476565b9392505050565b7f5769746864726177206661696c656400000000000000000000000000000000005f82015250565b5f61284d600f8361277a565b915061285882612819565b602082019050919050565b5f6020820190508181035f83015261287a81612841565b9050919050565b5f6040820190506128945f83018561244e565b6128a1602083018461244e565b9392505050565b5f6128b2826122f2565b91506128bd836122f2565b92508282019050808211156128d5576128d4612614565b5b92915050565b5f6040820190506128ee5f830185612476565b6128fb60208301846122ca565b939250505056fea2646970667358221220fea7cf49223413867b3550a9a7904a00d0313234fc3153c727174863e1745af064736f6c634300081a0033",
					"opcodes": "PUSH2 0x100 PUSH1 0x40 MSTORE CALLVALUE DUP1 ISZERO PUSH2 0x10 JUMPI PUSH0 DUP1 REVERT JUMPDEST POP PUSH1 0x40 MLOAD PUSH2 0x2FE8 CODESIZE SUB DUP1 PUSH2 0x2FE8 DUP4 CODECOPY DUP2 DUP2 ADD PUSH1 0x40 MSTORE DUP2 ADD SWAP1 PUSH2 0x32 SWAP2 SWAP1 PUSH2 0x566 JUMP JUMPDEST PUSH1 0x1 PUSH0 DUP2 SWAP1 SSTORE POP PUSH0 PUSH20 0xFFFFFFFFFFFFFFFFFFFFFFFFFFFFFFFFFFFFFFFF AND DUP12 PUSH20 0xFFFFFFFFFFFFFFFFFFFFFFFFFFFFFFFFFFFFFFFF AND EQ DUP1 PUSH2 0x9E JUMPI POP PUSH0 PUSH20 0xFFFFFFFFFFFFFFFFFFFFFFFFFFFFFFFFFFFFFFFF AND DUP11 PUSH20 0xFFFFFFFFFFFFFFFFFFFFFFFFFFFFFFFFFFFFFFFF AND EQ JUMPDEST DUP1 PUSH2 0xD4 JUMPI POP PUSH0 PUSH20 0xFFFFFFFFFFFFFFFFFFFFFFFFFFFFFFFFFFFFFFFF AND DUP2 PUSH20 0xFFFFFFFFFFFFFFFFFFFFFFFFFFFFFFFFFFFFFFFF AND EQ JUMPDEST DUP1 PUSH2 0xDE JUMPI POP PUSH0 DUP10 EQ JUMPDEST DUP1 PUSH2 0xE8 JUMPI POP PUSH0 DUP9 EQ JUMPDEST DUP1 PUSH2 0xF2 JUMPI POP PUSH0 DUP8 EQ JUMPDEST DUP1 PUSH2 0xFD JUMPI POP DUP8 DUP8 GT ISZERO JUMPDEST DUP1 PUSH2 0x11C JUMPI POP DUP5 PUSH8 0xFFFFFFFFFFFFFFFF AND DUP7 PUSH8 0xFFFFFFFFFFFFFFFF AND LT ISZERO JUMPDEST DUP1 PUSH2 0x126 JUMPI POP PUSH0 DUP5 EQ JUMPDEST DUP1 PUSH2 0x130 JUMPI POP PUSH0 DUP4 EQ JUMPDEST DUP1 PUSH2 0x13A JUMPI POP DUP4 DUP4 LT JUMPDEST DUP1 PUSH2 0x14A JUMPI POP PUSH2 0x2710 DUP3 PUSH2 0xFFFF AND GT JUMPDEST ISZERO PUSH2 0x181 JUMPI PUSH1 0x40 MLOAD PUSH32 0xA86B651200000000000000000000000000000000000000000000000000000000 DUP2 MSTORE PUSH1 0x4 ADD PUSH1 0x40 MLOAD DUP1 SWAP2 SUB SWAP1 REVERT JUMPDEST DUP11 PUSH20 0xFFFFFFFFFFFFFFFFFFFFFFFFFFFFFFFFFFFFFFFF AND PUSH1 0x80 DUP2 PUSH20 0xFFFFFFFFFFFFFFFFFFFFFFFFFFFFFFFFFFFFFFFF AND DUP2 MSTORE POP POP DUP10 PUSH1 0x3 PUSH0 PUSH2 0x100 EXP DUP2 SLOAD DUP2 PUSH20 0xFFFFFFFFFFFFFFFFFFFFFFFFFFFFFFFFFFFFFFFF MUL NOT AND SWAP1 DUP4 PUSH20 0xFFFFFFFFFFFFFFFFFFFFFFFFFFFFFFFFFFFFFFFF AND MUL OR SWAP1 SSTORE POP DUP9 PUSH1 0x4 DUP2 SWAP1 SSTORE POP DUP8 PUSH1 0xA0 DUP2 DUP2 MSTORE POP POP DUP7 PUSH1 0xC0 DUP2 DUP2 MSTORE POP POP DUP6 PUSH1 0x5 PUSH0 PUSH2 0x100 EXP DUP2 SLOAD DUP2 PUSH8 0xFFFFFFFFFFFFFFFF MUL NOT AND SWAP1 DUP4 PUSH8 0xFFFFFFFFFFFFFFFF AND MUL OR SWAP1 SSTORE POP DUP5 PUSH1 0x5 PUSH1 0x8 PUSH2 0x100 EXP DUP2 SLOAD DUP2 PUSH8 0xFFFFFFFFFFFFFFFF MUL NOT AND SWAP1 DUP4 PUSH8 0xFFFFFFFFFFFFFFFF AND MUL OR SWAP1 SSTORE POP DUP4 PUSH1 0x6 DUP2 SWAP1 SSTORE POP DUP3 PUSH1 0x7 DUP2 SWAP1 SSTORE POP DUP2 PUSH2 0xFFFF AND PUSH1 0xE0 DUP2 PUSH2 0xFFFF AND DUP2 MSTORE POP POP PUSH2 0x28D PUSH0 DUP1 SHL DUP3 PUSH2 0x300 PUSH1 0x20 SHL PUSH1 0x20 SHR JUMP JUMPDEST POP PUSH2 0x2BE PUSH32 0x65D7A28E3265B37A6474929F336521B332C1681B933F6CB9F3376673440D862A DUP3 PUSH2 0x300 PUSH1 0x20 SHL PUSH1 0x20 SHR JUMP JUMPDEST POP PUSH2 0x2EF PUSH32 0x82DB594318110A04B6349CE48645AA69F0892751BC893D15E61D9E2B9C4630F5 DUP3 PUSH2 0x300 PUSH1 0x20 SHL PUSH1 0x20 SHR JUMP JUMPDEST POP POP POP POP POP POP POP POP POP POP POP POP PUSH2 0x653 JUMP JUMPDEST PUSH0 PUSH2 0x311 DUP4 DUP4 PUSH2 0x3F6 PUSH1 0x20 SHL PUSH1 0x20 SHR JUMP JUMPDEST PUSH2 0x3EC JUMPI PUSH1 0x1 PUSH1 0x2 PUSH0 DUP6 DUP2 MSTORE PUSH1 0x20 ADD SWAP1 DUP2 MSTORE PUSH1 0x20 ADD PUSH0 KECCAK256 PUSH0 ADD PUSH0 DUP5 PUSH20 0xFFFFFFFFFFFFFFFFFFFFFFFFFFFFFFFFFFFFFFFF AND PUSH20 0xFFFFFFFFFFFFFFFFFFFFFFFFFFFFFFFFFFFFFFFF AND DUP2 MSTORE PUSH1 0x20 ADD SWAP1 DUP2 MSTORE PUSH1 0x20 ADD PUSH0 KECCAK256 PUSH0 PUSH2 0x100 EXP DUP2 SLOAD DUP2 PUSH1 0xFF MUL NOT AND SWAP1 DUP4 ISZERO ISZERO MUL OR SWAP1 SSTORE POP PUSH2 0x389 PUSH2 0x45A PUSH1 0x20 SHL PUSH1 0x20 SHR JUMP JUMPDEST PUSH20 0xFFFFFFFFFFFFFFFFFFFFFFFFFFFFFFFFFFFFFFFF AND DUP3 PUSH20 0xFFFFFFFFFFFFFFFFFFFFFFFFFFFFFFFFFFFFFFFF AND DUP5 PUSH32 0x2F8788117E7EFF1D82E926EC794901D17C78024A50270940304540A733656F0D PUSH1 0x40 MLOAD PUSH1 0x40 MLOAD DUP1 SWAP2 SUB SWAP1 LOG4 PUSH1 0x1 SWAP1 POP PUSH2 0x3F0 JUMP JUMPDEST PUSH0 SWAP1 POP JUMPDEST SWAP3 SWAP2 POP POP JUMP JUMPDEST PUSH0 PUSH1 0x2 PUSH0 DUP5 DUP2 MSTORE PUSH1 0x20 ADD SWAP1 DUP2 MSTORE PUSH1 0x20 ADD PUSH0 KECCAK256 PUSH0 ADD PUSH0 DUP4 PUSH20 0xFFFFFFFFFFFFFFFFFFFFFFFFFFFFFFFFFFFFFFFF AND PUSH20 0xFFFFFFFFFFFFFFFFFFFFFFFFFFFFFFFFFFFFFFFF AND DUP2 MSTORE PUSH1 0x20 ADD SWAP1 DUP2 MSTORE PUSH1 0x20 ADD PUSH0 KECCAK256 PUSH0 SWAP1 SLOAD SWAP1 PUSH2 0x100 EXP SWAP1 DIV PUSH1 0xFF AND SWAP1 POP SWAP3 SWAP2 POP POP JUMP JUMPDEST PUSH0 CALLER SWAP1 POP SWAP1 JUMP JUMPDEST PUSH0 DUP1 REVERT JUMPDEST PUSH0 PUSH20 0xFFFFFFFFFFFFFFFFFFFFFFFFFFFFFFFFFFFFFFFF DUP3 AND SWAP1 POP SWAP2 SWAP1 POP JUMP JUMPDEST PUSH0 PUSH2 0x48E DUP3 PUSH2 0x465 JUMP JUMPDEST SWAP1 POP SWAP2 SWAP1 POP JUMP JUMPDEST PUSH2 0x49E DUP2 PUSH2 0x484 JUMP JUMPDEST DUP2 EQ PUSH2 0x4A8 JUMPI PUSH0 DUP1 REVERT JUMPDEST POP JUMP JUMPDEST PUSH0 DUP2 MLOAD SWAP1 POP PUSH2 0x4B9 DUP2 PUSH2 0x495 JUMP JUMPDEST SWAP3 SWAP2 POP POP JUMP JUMPDEST PUSH0 DUP2 SWAP1 POP SWAP2 SWAP1 POP JUMP JUMPDEST PUSH2 0x4D1 DUP2 PUSH2 0x4BF JUMP JUMPDEST DUP2 EQ PUSH2 0x4DB JUMPI PUSH0 DUP1 REVERT JUMPDEST POP JUMP JUMPDEST PUSH0 DUP2 MLOAD SWAP1 POP PUSH2 0x4EC DUP2 PUSH2 0x4C8 JUMP JUMPDEST SWAP3 SWAP2 POP POP JUMP JUMPDEST PUSH0 PUSH8 0xFFFFFFFFFFFFFFFF DUP3 AND SWAP1 POP SWAP2 SWAP1 POP JUMP JUMPDEST PUSH2 0x50E DUP2 PUSH2 0x4F2 JUMP JUMPDEST DUP2 EQ PUSH2 0x518 JUMPI PUSH0 DUP1 REVERT JUMPDEST POP JUMP JUMPDEST PUSH0 DUP2 MLOAD SWAP1 POP PUSH2 0x529 DUP2 PUSH2 0x505 JUMP JUMPDEST SWAP3 SWAP2 POP POP JUMP JUMPDEST PUSH0 PUSH2 0xFFFF DUP3 AND SWAP1 POP SWAP2 SWAP1 POP JUMP JUMPDEST PUSH2 0x545 DUP2 PUSH2 0x52F JUMP JUMPDEST DUP2 EQ PUSH2 0x54F JUMPI PUSH0 DUP1 REVERT JUMPDEST POP JUMP JUMPDEST PUSH0 DUP2 MLOAD SWAP1 POP PUSH2 0x560 DUP2 PUSH2 0x53C JUMP JUMPDEST SWAP3 SWAP2 POP POP JUMP JUMPDEST PUSH0 DUP1 PUSH0 DUP1 PUSH0 DUP1 PUSH0 DUP1 PUSH0 DUP1 PUSH0 PUSH2 0x160 DUP13 DUP15 SUB SLT ISZERO PUSH2 0x586 JUMPI PUSH2 0x585 PUSH2 0x461 JUMP JUMPDEST JUMPDEST PUSH0 PUSH2 0x593 DUP15 DUP3 DUP16 ADD PUSH2 0x4AB JUMP JUMPDEST SWAP12 POP POP PUSH1 0x20 PUSH2 0x5A4 DUP15 DUP3 DUP16 ADD PUSH2 0x4AB JUMP JUMPDEST SWAP11 POP POP PUSH1 0x40 PUSH2 0x5B5 DUP15 DUP3 DUP16 ADD PUSH2 0x4DE JUMP JUMPDEST SWAP10 POP POP PUSH1 0x60 PUSH2 0x5C6 DUP15 DUP3 DUP16 ADD PUSH2 0x4DE JUMP JUMPDEST SWAP9 POP POP PUSH1 0x80 PUSH2 0x5D7 DUP15 DUP3 DUP16 ADD PUSH2 0x4DE JUMP JUMPDEST SWAP8 POP POP PUSH1 0xA0 PUSH2 0x5E8 DUP15 DUP3 DUP16 ADD PUSH2 0x51B JUMP JUMPDEST SWAP7 POP POP PUSH1 0xC0 PUSH2 0x5F9 DUP15 DUP3 DUP16 ADD PUSH2 0x51B JUMP JUMPDEST SWAP6 POP POP PUSH1 0xE0 PUSH2 0x60A DUP15 DUP3 DUP16 ADD PUSH2 0x4DE JUMP JUMPDEST SWAP5 POP POP PUSH2 0x100 PUSH2 0x61C DUP15 DUP3 DUP16 ADD PUSH2 0x4DE JUMP JUMPDEST SWAP4 POP POP PUSH2 0x120 PUSH2 0x62E DUP15 DUP3 DUP16 ADD PUSH2 0x552 JUMP JUMPDEST SWAP3 POP POP PUSH2 0x140 PUSH2 0x640 DUP15 DUP3 DUP16 ADD PUSH2 0x4AB JUMP JUMPDEST SWAP2 POP POP SWAP3 SWAP6 SWAP9 SWAP12 POP SWAP3 SWAP6 SWAP9 SWAP12 SWAP1 SWAP4 SWAP7 SWAP10 POP JUMP JUMPDEST PUSH1 0x80 MLOAD PUSH1 0xA0 MLOAD PUSH1 0xC0 MLOAD PUSH1 0xE0 MLOAD PUSH2 0x2938 PUSH2 0x6B0 PUSH0 CODECOPY PUSH0 DUP2 DUP2 PUSH2 0xF88 ADD MSTORE PUSH2 0x1D12 ADD MSTORE PUSH0 DUP2 DUP2 PUSH2 0xB99 ADD MSTORE DUP2 DUP2 PUSH2 0x1419 ADD MSTORE DUP2 DUP2 PUSH2 0x1ABA ADD MSTORE PUSH2 0x1D36 ADD MSTORE PUSH0 DUP2 DUP2 PUSH2 0xC95 ADD MSTORE PUSH2 0xDFF ADD MSTORE PUSH0 DUP2 DUP2 PUSH2 0x108F ADD MSTORE PUSH2 0x1D5A ADD MSTORE PUSH2 0x2938 PUSH0 RETURN INVALID PUSH1 0x80 PUSH1 0x40 MSTORE PUSH1 0x4 CALLDATASIZE LT PUSH2 0x23E JUMPI PUSH0 CALLDATALOAD PUSH1 0xE0 SHR DUP1 PUSH4 0x9B8C1FED GT PUSH2 0x12D JUMPI DUP1 PUSH4 0xD547741F GT PUSH2 0xAA JUMPI DUP1 PUSH4 0xEC8AC4D8 GT PUSH2 0x6E JUMPI DUP1 PUSH4 0xEC8AC4D8 EQ PUSH2 0x7ED JUMPI DUP1 PUSH4 0xF43E98C7 EQ PUSH2 0x809 JUMPI DUP1 PUSH4 0xF49E2514 EQ PUSH2 0x833 JUMPI DUP1 PUSH4 0xFB86A404 EQ PUSH2 0x85D JUMPI DUP1 PUSH4 0xFC0C546A EQ PUSH2 0x887 JUMPI PUSH2 0x245 JUMP JUMPDEST DUP1 PUSH4 0xD547741F EQ PUSH2 0x735 JUMPI DUP1 PUSH4 0xDEAA59DF EQ PUSH2 0x75D JUMPI DUP1 PUSH4 0xE086E5EC EQ PUSH2 0x785 JUMPI DUP1 PUSH4 0xE63AB1E9 EQ PUSH2 0x79B JUMPI DUP1 PUSH4 0xEB3B3FE6 EQ PUSH2 0x7C5 JUMPI PUSH2 0x245 JUMP JUMPDEST DUP1 PUSH4 0xB5545A3C GT PUSH2 0xF1 JUMPI DUP1 PUSH4 0xB5545A3C EQ PUSH2 0x667 JUMPI DUP1 PUSH4 0xB7A8807C EQ PUSH2 0x67D JUMPI DUP1 PUSH4 0xBE68D17A EQ PUSH2 0x6A7 JUMPI DUP1 PUSH4 0xC2B6B58C EQ PUSH2 0x6E3 JUMPI DUP1 PUSH4 0xC4590D3F EQ PUSH2 0x70D JUMPI PUSH2 0x245 JUMP JUMPDEST DUP1 PUSH4 0x9B8C1FED EQ PUSH2 0x5A9 JUMPI DUP1 PUSH4 0xA217FDDF EQ PUSH2 0x5BF JUMPI DUP1 PUSH4 0xA4D19FEB EQ PUSH2 0x5E9 JUMPI DUP1 PUSH4 0xAAFFADF3 EQ PUSH2 0x613 JUMPI DUP1 PUSH4 0xB3F05B97 EQ PUSH2 0x63D JUMPI PUSH2 0x245 JUMP JUMPDEST DUP1 PUSH4 0x4B6753BC GT PUSH2 0x1BB JUMPI DUP1 PUSH4 0x8456CB59 GT PUSH2 0x17F JUMPI DUP1 PUSH4 0x8456CB59 EQ PUSH2 0x4C7 JUMPI DUP1 PUSH4 0x8D3D6576 EQ PUSH2 0x4DD JUMPI DUP1 PUSH4 0x906A26E0 EQ PUSH2 0x507 JUMPI DUP1 PUSH4 0x91D14854 EQ PUSH2 0x531 JUMPI DUP1 PUSH4 0x995C5E9D EQ PUSH2 0x56D JUMPI PUSH2 0x245 JUMP JUMPDEST DUP1 PUSH4 0x4B6753BC EQ PUSH2 0x409 JUMPI DUP1 PUSH4 0x4BB278F3 EQ PUSH2 0x433 JUMPI DUP1 PUSH4 0x518AB2A8 EQ PUSH2 0x449 JUMPI DUP1 PUSH4 0x521EB273 EQ PUSH2 0x473 JUMPI DUP1 PUSH4 0x5C975ABB EQ PUSH2 0x49D JUMPI PUSH2 0x245 JUMP JUMPDEST DUP1 PUSH4 0x36568ABE GT PUSH2 0x202 JUMPI DUP1 PUSH4 0x36568ABE EQ PUSH2 0x33B JUMPI DUP1 PUSH4 0x3F4BA83A EQ PUSH2 0x363 JUMPI DUP1 PUSH4 0x4042B66F EQ PUSH2 0x379 JUMPI DUP1 PUSH4 0x4225E5BB EQ PUSH2 0x3A3 JUMPI DUP1 PUSH4 0x47535D7B EQ PUSH2 0x3DF JUMPI PUSH2 0x245 JUMP JUMPDEST DUP1 PUSH4 0x1FFC9A7 EQ PUSH2 0x249 JUMPI DUP1 PUSH4 0x248A9CA3 EQ PUSH2 0x285 JUMPI DUP1 PUSH4 0x2C4E722E EQ PUSH2 0x2C1 JUMPI DUP1 PUSH4 0x2F2FF15D EQ PUSH2 0x2EB JUMPI DUP1 PUSH4 0x34FCF437 EQ PUSH2 0x313 JUMPI PUSH2 0x245 JUMP JUMPDEST CALLDATASIZE PUSH2 0x245 JUMPI STOP JUMPDEST PUSH0 DUP1 REVERT JUMPDEST CALLVALUE DUP1 ISZERO PUSH2 0x254 JUMPI PUSH0 DUP1 REVERT JUMPDEST POP PUSH2 0x26F PUSH1 0x4 DUP1 CALLDATASIZE SUB DUP2 ADD SWAP1 PUSH2 0x26A SWAP2 SWAP1 PUSH2 0x220E JUMP JUMPDEST PUSH2 0x8B1 JUMP JUMPDEST PUSH1 0x40 MLOAD PUSH2 0x27C SWAP2 SWAP1 PUSH2 0x2253 JUMP JUMPDEST PUSH1 0x40 MLOAD DUP1 SWAP2 SUB SWAP1 RETURN JUMPDEST CALLVALUE DUP1 ISZERO PUSH2 0x290 JUMPI PUSH0 DUP1 REVERT JUMPDEST POP PUSH2 0x2AB PUSH1 0x4 DUP1 CALLDATASIZE SUB DUP2 ADD SWAP1 PUSH2 0x2A6 SWAP2 SWAP1 PUSH2 0x229F JUMP JUMPDEST PUSH2 0x92A JUMP JUMPDEST PUSH1 0x40 MLOAD PUSH2 0x2B8 SWAP2 SWAP1 PUSH2 0x22D9 JUMP JUMPDEST PUSH1 0x40 MLOAD DUP1 SWAP2 SUB SWAP1 RETURN JUMPDEST CALLVALUE DUP1 ISZERO PUSH2 0x2CC JUMPI PUSH0 DUP1 REVERT JUMPDEST POP PUSH2 0x2D5 PUSH2 0x947 JUMP JUMPDEST PUSH1 0x40 MLOAD PUSH2 0x2E2 SWAP2 SWAP1 PUSH2 0x230A JUMP JUMPDEST PUSH1 0x40 MLOAD DUP1 SWAP2 SUB SWAP1 RETURN JUMPDEST CALLVALUE DUP1 ISZERO PUSH2 0x2F6 JUMPI PUSH0 DUP1 REVERT JUMPDEST POP PUSH2 0x311 PUSH1 0x4 DUP1 CALLDATASIZE SUB DUP2 ADD SWAP1 PUSH2 0x30C SWAP2 SWAP1 PUSH2 0x237D JUMP JUMPDEST PUSH2 0x94D JUMP JUMPDEST STOP JUMPDEST CALLVALUE DUP1 ISZERO PUSH2 0x31E JUMPI PUSH0 DUP1 REVERT JUMPDEST POP PUSH2 0x339 PUSH1 0x4 DUP1 CALLDATASIZE SUB DUP2 ADD SWAP1 PUSH2 0x334 SWAP2 SWAP1 PUSH2 0x23E5 JUMP JUMPDEST PUSH2 0x96F JUMP JUMPDEST STOP JUMPDEST CALLVALUE DUP1 ISZERO PUSH2 0x346 JUMPI PUSH0 DUP1 REVERT JUMPDEST POP PUSH2 0x361 PUSH1 0x4 DUP1 CALLDATASIZE SUB DUP2 ADD SWAP1 PUSH2 0x35C SWAP2 SWAP1 PUSH2 0x237D JUMP JUMPDEST PUSH2 0xA75 JUMP JUMPDEST STOP JUMPDEST CALLVALUE DUP1 ISZERO PUSH2 0x36E JUMPI PUSH0 DUP1 REVERT JUMPDEST POP PUSH2 0x377 PUSH2 0xAF0 JUMP JUMPDEST STOP JUMPDEST CALLVALUE DUP1 ISZERO PUSH2 0x384 JUMPI PUSH0 DUP1 REVERT JUMPDEST POP PUSH2 0x38D PUSH2 0xB25 JUMP JUMPDEST PUSH1 0x40 MLOAD PUSH2 0x39A SWAP2 SWAP1 PUSH2 0x230A JUMP JUMPDEST PUSH1 0x40 MLOAD DUP1 SWAP2 SUB SWAP1 RETURN JUMPDEST CALLVALUE DUP1 ISZERO PUSH2 0x3AE JUMPI PUSH0 DUP1 REVERT JUMPDEST POP PUSH2 0x3C9 PUSH1 0x4 DUP1 CALLDATASIZE SUB DUP2 ADD SWAP1 PUSH2 0x3C4 SWAP2 SWAP1 PUSH2 0x2410 JUMP JUMPDEST PUSH2 0xB2B JUMP JUMPDEST PUSH1 0x40 MLOAD PUSH2 0x3D6 SWAP2 SWAP1 PUSH2 0x230A JUMP JUMPDEST PUSH1 0x40 MLOAD DUP1 SWAP2 SUB SWAP1 RETURN JUMPDEST CALLVALUE DUP1 ISZERO PUSH2 0x3EA JUMPI PUSH0 DUP1 REVERT JUMPDEST POP PUSH2 0x3F3 PUSH2 0xB40 JUMP JUMPDEST PUSH1 0x40 MLOAD PUSH2 0x400 SWAP2 SWAP1 PUSH2 0x2253 JUMP JUMPDEST PUSH1 0x40 MLOAD DUP1 SWAP2 SUB SWAP1 RETURN JUMPDEST CALLVALUE DUP1 ISZERO PUSH2 0x414 JUMPI PUSH0 DUP1 REVERT JUMPDEST POP PUSH2 0x41D PUSH2 0xBD3 JUMP JUMPDEST PUSH1 0x40 MLOAD PUSH2 0x42A SWAP2 SWAP1 PUSH2 0x245D JUMP JUMPDEST PUSH1 0x40 MLOAD DUP1 SWAP2 SUB SWAP1 RETURN JUMPDEST CALLVALUE DUP1 ISZERO PUSH2 0x43E JUMPI PUSH0 DUP1 REVERT JUMPDEST POP PUSH2 0x447 PUSH2 0xBED JUMP JUMPDEST STOP JUMPDEST CALLVALUE DUP1 ISZERO PUSH2 0x454 JUMPI PUSH0 DUP1 REVERT JUMPDEST POP PUSH2 0x45D PUSH2 0xD82 JUMP JUMPDEST PUSH1 0x40 MLOAD PUSH2 0x46A SWAP2 SWAP1 PUSH2 0x230A JUMP JUMPDEST PUSH1 0x40 MLOAD DUP1 SWAP2 SUB SWAP1 RETURN JUMPDEST CALLVALUE DUP1 ISZERO PUSH2 0x47E JUMPI PUSH0 DUP1 REVERT JUMPDEST POP PUSH2 0x487 PUSH2 0xD88 JUMP JUMPDEST PUSH1 0x40 MLOAD PUSH2 0x494 SWAP2 SWAP1 PUSH2 0x2485 JUMP JUMPDEST PUSH1 0x40 MLOAD DUP1 SWAP2 SUB SWAP1 RETURN JUMPDEST CALLVALUE DUP1 ISZERO PUSH2 0x4A8 JUMPI PUSH0 DUP1 REVERT JUMPDEST POP PUSH2 0x4B1 PUSH2 0xDAD JUMP JUMPDEST PUSH1 0x40 MLOAD PUSH2 0x4BE SWAP2 SWAP1 PUSH2 0x2253 JUMP JUMPDEST PUSH1 0x40 MLOAD DUP1 SWAP2 SUB SWAP1 RETURN JUMPDEST CALLVALUE DUP1 ISZERO PUSH2 0x4D2 JUMPI PUSH0 DUP1 REVERT JUMPDEST POP PUSH2 0x4DB PUSH2 0xDC2 JUMP JUMPDEST STOP JUMPDEST CALLVALUE DUP1 ISZERO PUSH2 0x4E8 JUMPI PUSH0 DUP1 REVERT JUMPDEST POP PUSH2 0x4F1 PUSH2 0xDF7 JUMP JUMPDEST PUSH1 0x40 MLOAD PUSH2 0x4FE SWAP2 SWAP1 PUSH2 0x230A JUMP JUMPDEST PUSH1 0x40 MLOAD DUP1 SWAP2 SUB SWAP1 RETURN JUMPDEST CALLVALUE DUP1 ISZERO PUSH2 0x512 JUMPI PUSH0 DUP1 REVERT JUMPDEST POP PUSH2 0x51B PUSH2 0xDFD JUMP JUMPDEST PUSH1 0x40 MLOAD PUSH2 0x528 SWAP2 SWAP1 PUSH2 0x230A JUMP JUMPDEST PUSH1 0x40 MLOAD DUP1 SWAP2 SUB SWAP1 RETURN JUMPDEST CALLVALUE DUP1 ISZERO PUSH2 0x53C JUMPI PUSH0 DUP1 REVERT JUMPDEST POP PUSH2 0x557 PUSH1 0x4 DUP1 CALLDATASIZE SUB DUP2 ADD SWAP1 PUSH2 0x552 SWAP2 SWAP1 PUSH2 0x237D JUMP JUMPDEST PUSH2 0xE21 JUMP JUMPDEST PUSH1 0x40 MLOAD PUSH2 0x564 SWAP2 SWAP1 PUSH2 0x2253 JUMP JUMPDEST PUSH1 0x40 MLOAD DUP1 SWAP2 SUB SWAP1 RETURN JUMPDEST CALLVALUE DUP1 ISZERO PUSH2 0x578 JUMPI PUSH0 DUP1 REVERT JUMPDEST POP PUSH2 0x593 PUSH1 0x4 DUP1 CALLDATASIZE SUB DUP2 ADD SWAP1 PUSH2 0x58E SWAP2 SWAP1 PUSH2 0x2410 JUMP JUMPDEST PUSH2 0xE85 JUMP JUMPDEST PUSH1 0x40 MLOAD PUSH2 0x5A0 SWAP2 SWAP1 PUSH2 0x230A JUMP JUMPDEST PUSH1 0x40 MLOAD DUP1 SWAP2 SUB SWAP1 RETURN JUMPDEST CALLVALUE DUP1 ISZERO PUSH2 0x5B4 JUMPI PUSH0 DUP1 REVERT JUMPDEST POP PUSH2 0x5BD PUSH2 0xE9A JUMP JUMPDEST STOP JUMPDEST CALLVALUE DUP1 ISZERO PUSH2 0x5CA JUMPI PUSH0 DUP1 REVERT JUMPDEST POP PUSH2 0x5D3 PUSH2 0x1171 JUMP JUMPDEST PUSH1 0x40 MLOAD PUSH2 0x5E0 SWAP2 SWAP1 PUSH2 0x22D9 JUMP JUMPDEST PUSH1 0x40 MLOAD DUP1 SWAP2 SUB SWAP1 RETURN JUMPDEST CALLVALUE DUP1 ISZERO PUSH2 0x5F4 JUMPI PUSH0 DUP1 REVERT JUMPDEST POP PUSH2 0x5FD PUSH2 0x1177 JUMP JUMPDEST PUSH1 0x40 MLOAD PUSH2 0x60A SWAP2 SWAP1 PUSH2 0x22D9 JUMP JUMPDEST PUSH1 0x40 MLOAD DUP1 SWAP2 SUB SWAP1 RETURN JUMPDEST CALLVALUE DUP1 ISZERO PUSH2 0x61E JUMPI PUSH0 DUP1 REVERT JUMPDEST POP PUSH2 0x627 PUSH2 0x119B JUMP JUMPDEST PUSH1 0x40 MLOAD PUSH2 0x634 SWAP2 SWAP1 PUSH2 0x230A JUMP JUMPDEST PUSH1 0x40 MLOAD DUP1 SWAP2 SUB SWAP1 RETURN JUMPDEST CALLVALUE DUP1 ISZERO PUSH2 0x648 JUMPI PUSH0 DUP1 REVERT JUMPDEST POP PUSH2 0x651 PUSH2 0x11A1 JUMP JUMPDEST PUSH1 0x40 MLOAD PUSH2 0x65E SWAP2 SWAP1 PUSH2 0x2253 JUMP JUMPDEST PUSH1 0x40 MLOAD DUP1 SWAP2 SUB SWAP1 RETURN JUMPDEST CALLVALUE DUP1 ISZERO PUSH2 0x672 JUMPI PUSH0 DUP1 REVERT JUMPDEST POP PUSH2 0x67B PUSH2 0x11B3 JUMP JUMPDEST STOP JUMPDEST CALLVALUE DUP1 ISZERO PUSH2 0x688 JUMPI PUSH0 DUP1 REVERT JUMPDEST POP PUSH2 0x691 PUSH2 0x13BF JUMP JUMPDEST PUSH1 0x40 MLOAD PUSH2 0x69E SWAP2 SWAP1 PUSH2 0x245D JUMP JUMPDEST PUSH1 0x40 MLOAD DUP1 SWAP2 SUB SWAP1 RETURN JUMPDEST CALLVALUE DUP1 ISZERO PUSH2 0x6B2 JUMPI PUSH0 DUP1 REVERT JUMPDEST POP PUSH2 0x6CD PUSH1 0x4 DUP1 CALLDATASIZE SUB DUP2 ADD SWAP1 PUSH2 0x6C8 SWAP2 SWAP1 PUSH2 0x2410 JUMP JUMPDEST PUSH2 0x13D8 JUMP JUMPDEST PUSH1 0x40 MLOAD PUSH2 0x6DA SWAP2 SWAP1 PUSH2 0x230A JUMP JUMPDEST PUSH1 0x40 MLOAD DUP1 SWAP2 SUB SWAP1 RETURN JUMPDEST CALLVALUE DUP1 ISZERO PUSH2 0x6EE JUMPI PUSH0 DUP1 REVERT JUMPDEST POP PUSH2 0x6F7 PUSH2 0x13ED JUMP JUMPDEST PUSH1 0x40 MLOAD PUSH2 0x704 SWAP2 SWAP1 PUSH2 0x2253 JUMP JUMPDEST PUSH1 0x40 MLOAD DUP1 SWAP2 SUB SWAP1 RETURN JUMPDEST CALLVALUE DUP1 ISZERO PUSH2 0x718 JUMPI PUSH0 DUP1 REVERT JUMPDEST POP PUSH2 0x733 PUSH1 0x4 DUP1 CALLDATASIZE SUB DUP2 ADD SWAP1 PUSH2 0x72E SWAP2 SWAP1 PUSH2 0x249E JUMP JUMPDEST PUSH2 0x1443 JUMP JUMPDEST STOP JUMPDEST CALLVALUE DUP1 ISZERO PUSH2 0x740 JUMPI PUSH0 DUP1 REVERT JUMPDEST POP PUSH2 0x75B PUSH1 0x4 DUP1 CALLDATASIZE SUB DUP2 ADD SWAP1 PUSH2 0x756 SWAP2 SWAP1 PUSH2 0x237D JUMP JUMPDEST PUSH2 0x155F JUMP JUMPDEST STOP JUMPDEST CALLVALUE DUP1 ISZERO PUSH2 0x768 JUMPI PUSH0 DUP1 REVERT JUMPDEST POP PUSH2 0x783 PUSH1 0x4 DUP1 CALLDATASIZE SUB DUP2 ADD SWAP1 PUSH2 0x77E SWAP2 SWAP1 PUSH2 0x2410 JUMP JUMPDEST PUSH2 0x1581 JUMP JUMPDEST STOP JUMPDEST CALLVALUE DUP1 ISZERO PUSH2 0x790 JUMPI PUSH0 DUP1 REVERT JUMPDEST POP PUSH2 0x799 PUSH2 0x170B JUMP JUMPDEST STOP JUMPDEST CALLVALUE DUP1 ISZERO PUSH2 0x7A6 JUMPI PUSH0 DUP1 REVERT JUMPDEST POP PUSH2 0x7AF PUSH2 0x184A JUMP JUMPDEST PUSH1 0x40 MLOAD PUSH2 0x7BC SWAP2 SWAP1 PUSH2 0x22D9 JUMP JUMPDEST PUSH1 0x40 MLOAD DUP1 SWAP2 SUB SWAP1 RETURN JUMPDEST CALLVALUE DUP1 ISZERO PUSH2 0x7D0 JUMPI PUSH0 DUP1 REVERT JUMPDEST POP PUSH2 0x7EB PUSH1 0x4 DUP1 CALLDATASIZE SUB DUP2 ADD SWAP1 PUSH2 0x7E6 SWAP2 SWAP1 PUSH2 0x2506 JUMP JUMPDEST PUSH2 0x186E JUMP JUMPDEST STOP JUMPDEST PUSH2 0x807 PUSH1 0x4 DUP1 CALLDATASIZE SUB DUP2 ADD SWAP1 PUSH2 0x802 SWAP2 SWAP1 PUSH2 0x2410 JUMP JUMPDEST PUSH2 0x19CC JUMP JUMPDEST STOP JUMPDEST CALLVALUE DUP1 ISZERO PUSH2 0x814 JUMPI PUSH0 DUP1 REVERT JUMPDEST POP PUSH2 0x81D PUSH2 0x1CFD JUMP JUMPDEST PUSH1 0x40 MLOAD PUSH2 0x82A SWAP2 SWAP1 PUSH2 0x2253 JUMP JUMPDEST PUSH1 0x40 MLOAD DUP1 SWAP2 SUB SWAP1 RETURN JUMPDEST CALLVALUE DUP1 ISZERO PUSH2 0x83E JUMPI PUSH0 DUP1 REVERT JUMPDEST POP PUSH2 0x847 PUSH2 0x1D10 JUMP JUMPDEST PUSH1 0x40 MLOAD PUSH2 0x854 SWAP2 SWAP1 PUSH2 0x2560 JUMP JUMPDEST PUSH1 0x40 MLOAD DUP1 SWAP2 SUB SWAP1 RETURN JUMPDEST CALLVALUE DUP1 ISZERO PUSH2 0x868 JUMPI PUSH0 DUP1 REVERT JUMPDEST POP PUSH2 0x871 PUSH2 0x1D34 JUMP JUMPDEST PUSH1 0x40 MLOAD PUSH2 0x87E SWAP2 SWAP1 PUSH2 0x230A JUMP JUMPDEST PUSH1 0x40 MLOAD DUP1 SWAP2 SUB SWAP1 RETURN JUMPDEST CALLVALUE DUP1 ISZERO PUSH2 0x892 JUMPI PUSH0 DUP1 REVERT JUMPDEST POP PUSH2 0x89B PUSH2 0x1D58 JUMP JUMPDEST PUSH1 0x40 MLOAD PUSH2 0x8A8 SWAP2 SWAP1 PUSH2 0x25D4 JUMP JUMPDEST PUSH1 0x40 MLOAD DUP1 SWAP2 SUB SWAP1 RETURN JUMPDEST PUSH0 PUSH32 0x7965DB0B00000000000000000000000000000000000000000000000000000000 PUSH28 0xFFFFFFFFFFFFFFFFFFFFFFFFFFFFFFFFFFFFFFFFFFFFFFFFFFFFFFFF NOT AND DUP3 PUSH28 0xFFFFFFFFFFFFFFFFFFFFFFFFFFFFFFFFFFFFFFFFFFFFFFFFFFFFFFFF NOT AND EQ DUP1 PUSH2 0x923 JUMPI POP PUSH2 0x922 DUP3 PUSH2 0x1D7C JUMP JUMPDEST JUMPDEST SWAP1 POP SWAP2 SWAP1 POP JUMP JUMPDEST PUSH0 PUSH1 0x2 PUSH0 DUP4 DUP2 MSTORE PUSH1 0x20 ADD SWAP1 DUP2 MSTORE PUSH1 0x20 ADD PUSH0 KECCAK256 PUSH1 0x1 ADD SLOAD SWAP1 POP SWAP2 SWAP1 POP JUMP JUMPDEST PUSH1 0x4 SLOAD DUP2 JUMP JUMPDEST PUSH2 0x956 DUP3 PUSH2 0x92A JUMP JUMPDEST PUSH2 0x95F DUP2 PUSH2 0x1DE5 JUMP JUMPDEST PUSH2 0x969 DUP4 DUP4 PUSH2 0x1DF9 JUMP JUMPDEST POP POP POP POP JUMP JUMPDEST PUSH32 0x82DB594318110A04B6349CE48645AA69F0892751BC893D15E61D9E2B9C4630F5 PUSH2 0x999 DUP2 PUSH2 0x1DE5 JUMP JUMPDEST PUSH1 0x5 PUSH0 SWAP1 SLOAD SWAP1 PUSH2 0x100 EXP SWAP1 DIV PUSH8 0xFFFFFFFFFFFFFFFF AND PUSH8 0xFFFFFFFFFFFFFFFF AND TIMESTAMP LT PUSH2 0x9F1 JUMPI PUSH1 0x40 MLOAD PUSH32 0x445DCE4C00000000000000000000000000000000000000000000000000000000 DUP2 MSTORE PUSH1 0x4 ADD PUSH1 0x40 MLOAD DUP1 SWAP2 SUB SWAP1 REVERT JUMPDEST PUSH0 DUP3 SUB PUSH2 0xA2A JUMPI PUSH1 0x40 MLOAD PUSH32 0xA86B651200000000000000000000000000000000000000000000000000000000 DUP2 MSTORE PUSH1 0x4 ADD PUSH1 0x40 MLOAD DUP1 SWAP2 SUB SWAP1 REVERT JUMPDEST PUSH0 PUSH1 0x4 SLOAD SWAP1 POP DUP3 PUSH1 0x4 DUP2 SWAP1 SSTORE POP PUSH32 0xB38780DDDE1F073D91C150DE2696F3F7085883648BA21CC5EF01029CB21D1916 DUP2 DUP5 PUSH1 0x40 MLOAD PUSH2 0xA68 SWAP3 SWAP2 SWAP1 PUSH2 0x25ED JUMP JUMPDEST PUSH1 0x40 MLOAD DUP1 SWAP2 SUB SWAP1 LOG1 POP POP POP JUMP JUMPDEST PUSH2 0xA7D PUSH2 0x1EE3 JUMP JUMPDEST PUSH20 0xFFFFFFFFFFFFFFFFFFFFFFFFFFFFFFFFFFFFFFFF AND DUP2 PUSH20 0xFFFFFFFFFFFFFFFFFFFFFFFFFFFFFFFFFFFFFFFF AND EQ PUSH2 0xAE1 JUMPI PUSH1 0x40 MLOAD PUSH32 0x6697B23200000000000000000000000000000000000000000000000000000000 DUP2 MSTORE PUSH1 0x4 ADD PUSH1 0x40 MLOAD DUP1 SWAP2 SUB SWAP1 REVERT JUMPDEST PUSH2 0xAEB DUP3 DUP3 PUSH2 0x1EEA JUMP JUMPDEST POP POP POP JUMP JUMPDEST PUSH32 0x65D7A28E3265B37A6474929F336521B332C1681B933F6CB9F3376673440D862A PUSH2 0xB1A DUP2 PUSH2 0x1DE5 JUMP JUMPDEST PUSH2 0xB22 PUSH2 0x1FD4 JUMP JUMPDEST POP JUMP JUMPDEST PUSH1 0x8 SLOAD DUP2 JUMP JUMPDEST PUSH1 0xB PUSH1 0x20 MSTORE DUP1 PUSH0 MSTORE PUSH1 0x40 PUSH0 KECCAK256 PUSH0 SWAP2 POP SWAP1 POP SLOAD DUP2 JUMP JUMPDEST PUSH0 PUSH1 0x5 PUSH0 SWAP1 SLOAD SWAP1 PUSH2 0x100 EXP SWAP1 DIV PUSH8 0xFFFFFFFFFFFFFFFF AND PUSH8 0xFFFFFFFFFFFFFFFF AND TIMESTAMP LT ISZERO DUP1 ISZERO PUSH2 0xB90 JUMPI POP PUSH1 0x5 PUSH1 0x8 SWAP1 SLOAD SWAP1 PUSH2 0x100 EXP SWAP1 DIV PUSH8 0xFFFFFFFFFFFFFFFF AND PUSH8 0xFFFFFFFFFFFFFFFF AND TIMESTAMP GT ISZERO JUMPDEST DUP1 ISZERO PUSH2 0xBBD JUMPI POP PUSH32 0x0 PUSH1 0x8 SLOAD LT JUMPDEST DUP1 ISZERO PUSH2 0xBCE JUMPI POP PUSH2 0xBCC PUSH2 0xDAD JUMP JUMPDEST ISZERO JUMPDEST SWAP1 POP SWAP1 JUMP JUMPDEST PUSH1 0x5 PUSH1 0x8 SWAP1 SLOAD SWAP1 PUSH2 0x100 EXP SWAP1 DIV PUSH8 0xFFFFFFFFFFFFFFFF AND DUP2 JUMP JUMPDEST PUSH2 0xBF5 PUSH2 0x2035 JUMP JUMPDEST PUSH2 0xBFD PUSH2 0x13ED JUMP JUMPDEST PUSH2 0xC33 JUMPI PUSH1 0x40 MLOAD PUSH32 0x78FA807700000000000000000000000000000000000000000000000000000000 DUP2 MSTORE PUSH1 0x4 ADD PUSH1 0x40 MLOAD DUP1 SWAP2 SUB SWAP1 REVERT JUMPDEST PUSH1 0xD PUSH0 SWAP1 SLOAD SWAP1 PUSH2 0x100 EXP SWAP1 DIV PUSH1 0xFF AND ISZERO PUSH2 0xC79 JUMPI PUSH1 0x40 MLOAD PUSH32 0x475A253500000000000000000000000000000000000000000000000000000000 DUP2 MSTORE PUSH1 0x4 ADD PUSH1 0x40 MLOAD DUP1 SWAP2 SUB SWAP1 REVERT JUMPDEST PUSH1 0x1 PUSH1 0xD PUSH0 PUSH2 0x100 EXP DUP2 SLOAD DUP2 PUSH1 0xFF MUL NOT AND SWAP1 DUP4 ISZERO ISZERO MUL OR SWAP1 SSTORE POP PUSH32 0x0 PUSH1 0x8 SLOAD LT PUSH2 0xCF9 JUMPI PUSH32 0x41493253AE80C9F89E25283C36F67849365D0515134CE43DE1314223CB6F7342 PUSH1 0x1 PUSH1 0x40 MLOAD PUSH2 0xCEC SWAP2 SWAP1 PUSH2 0x2253 JUMP JUMPDEST PUSH1 0x40 MLOAD DUP1 SWAP2 SUB SWAP1 LOG1 PUSH2 0xD78 JUMP JUMPDEST PUSH1 0x1 PUSH1 0xD PUSH1 0x1 PUSH2 0x100 EXP DUP2 SLOAD DUP2 PUSH1 0xFF MUL NOT AND SWAP1 DUP4 ISZERO ISZERO MUL OR SWAP1 SSTORE POP PUSH32 0x599D8E5A83CFFB867D051598C4D70E805D59802D8081C1C7D6DFFC5B6ACA2B89 PUSH1 0x40 MLOAD PUSH1 0x40 MLOAD DUP1 SWAP2 SUB SWAP1 LOG1 PUSH32 0x41493253AE80C9F89E25283C36F67849365D0515134CE43DE1314223CB6F7342 PUSH0 PUSH1 0x40 MLOAD PUSH2 0xD6F SWAP2 SWAP1 PUSH2 0x2253 JUMP JUMPDEST PUSH1 0x40 MLOAD DUP1 SWAP2 SUB SWAP1 LOG1 JUMPDEST PUSH2 0xD80 PUSH2 0x2079 JUMP JUMPDEST JUMP JUMPDEST PUSH1 0x9 SLOAD DUP2 JUMP JUMPDEST PUSH1 0x3 PUSH0 SWAP1 SLOAD SWAP1 PUSH2 0x100 EXP SWAP1 DIV PUSH20 0xFFFFFFFFFFFFFFFFFFFFFFFFFFFFFFFFFFFFFFFF AND DUP2 JUMP JUMPDEST PUSH0 PUSH1 0x1 PUSH0 SWAP1 SLOAD SWAP1 PUSH2 0x100 EXP SWAP1 DIV PUSH1 0xFF AND SWAP1 POP SWAP1 JUMP JUMPDEST PUSH32 0x65D7A28E3265B37A6474929F336521B332C1681B933F6CB9F3376673440D862A PUSH2 0xDEC DUP2 PUSH2 0x1DE5 JUMP JUMPDEST PUSH2 0xDF4 PUSH2 0x2082 JUMP JUMPDEST POP JUMP JUMPDEST PUSH1 0x7 SLOAD DUP2 JUMP JUMPDEST PUSH32 0x0 DUP2 JUMP JUMPDEST PUSH0 PUSH1 0x2 PUSH0 DUP5 DUP2 MSTORE PUSH1 0x20 ADD SWAP1 DUP2 MSTORE PUSH1 0x20 ADD PUSH0 KECCAK256 PUSH0 ADD PUSH0 DUP4 PUSH20 0xFFFFFFFFFFFFFFFFFFFFFFFFFFFFFFFFFFFFFFFF AND PUSH20 0xFFFFFFFFFFFFFFFFFFFFFFFFFFFFFFFFFFFFFFFF AND DUP2 MSTORE PUSH1 0x20 ADD SWAP1 DUP2 MSTORE PUSH1 0x20 ADD PUSH0 KECCAK256 PUSH0 SWAP1 SLOAD SWAP1 PUSH2 0x100 EXP SWAP1 DIV PUSH1 0xFF AND SWAP1 POP SWAP3 SWAP2 POP POP JUMP JUMPDEST PUSH1 0xA PUSH1 0x20 MSTORE DUP1 PUSH0 MSTORE PUSH1 0x40 PUSH0 KECCAK256 PUSH0 SWAP2 POP SWAP1 POP SLOAD DUP2 JUMP JUMPDEST PUSH2 0xEA2 PUSH2 0x2035 JUMP JUMPDEST PUSH2 0xEAA PUSH2 0x20E3 JUMP JUMPDEST PUSH1 0xD PUSH0 SWAP1 SLOAD SWAP1 PUSH2 0x100 EXP SWAP1 DIV PUSH1 0xFF AND ISZERO DUP1 PUSH2 0xED1 JUMPI POP PUSH1 0xD PUSH1 0x1 SWAP1 SLOAD SWAP1 PUSH2 0x100 EXP SWAP1 DIV PUSH1 0xFF AND JUMPDEST ISZERO PUSH2 0xF08 JUMPI PUSH1 0x40 MLOAD PUSH32 0x2BDC91AD00000000000000000000000000000000000000000000000000000000 DUP2 MSTORE PUSH1 0x4 ADD PUSH1 0x40 MLOAD DUP1 SWAP2 SUB SWAP1 REVERT JUMPDEST PUSH0 PUSH1 0xB PUSH0 CALLER PUSH20 0xFFFFFFFFFFFFFFFFFFFFFFFFFFFFFFFFFFFFFFFF AND PUSH20 0xFFFFFFFFFFFFFFFFFFFFFFFFFFFFFFFFFFFFFFFF AND DUP2 MSTORE PUSH1 0x20 ADD SWAP1 DUP2 MSTORE PUSH1 0x20 ADD PUSH0 KECCAK256 SLOAD SWAP1 POP PUSH0 DUP2 SUB PUSH2 0xF82 JUMPI PUSH1 0x40 MLOAD PUSH32 0x969BF72800000000000000000000000000000000000000000000000000000000 DUP2 MSTORE PUSH1 0x4 ADD PUSH1 0x40 MLOAD DUP1 SWAP2 SUB SWAP1 REVERT JUMPDEST PUSH0 PUSH2 0x2710 PUSH32 0x0 PUSH2 0xFFFF AND DUP4 PUSH2 0xFB6 SWAP2 SWAP1 PUSH2 0x2641 JUMP JUMPDEST PUSH2 0xFC0 SWAP2 SWAP1 PUSH2 0x26AF JUMP JUMPDEST SWAP1 POP PUSH0 PUSH1 0xC PUSH0 CALLER PUSH20 0xFFFFFFFFFFFFFFFFFFFFFFFFFFFFFFFFFFFFFFFF AND PUSH20 0xFFFFFFFFFFFFFFFFFFFFFFFFFFFFFFFFFFFFFFFF AND DUP2 MSTORE PUSH1 0x20 ADD SWAP1 DUP2 MSTORE PUSH1 0x20 ADD PUSH0 KECCAK256 SLOAD SWAP1 POP DUP1 DUP3 GT PUSH2 0x103C JUMPI PUSH1 0x40 MLOAD PUSH32 0x969BF72800000000000000000000000000000000000000000000000000000000 DUP2 MSTORE PUSH1 0x4 ADD PUSH1 0x40 MLOAD DUP1 SWAP2 SUB SWAP1 REVERT JUMPDEST PUSH0 DUP2 DUP4 PUSH2 0x1049 SWAP2 SWAP1 PUSH2 0x26DF JUMP JUMPDEST SWAP1 POP DUP3 PUSH1 0xC PUSH0 CALLER PUSH20 0xFFFFFFFFFFFFFFFFFFFFFFFFFFFFFFFFFFFFFFFF AND PUSH20 0xFFFFFFFFFFFFFFFFFFFFFFFFFFFFFFFFFFFFFFFF AND DUP2 MSTORE PUSH1 0x20 ADD SWAP1 DUP2 MSTORE PUSH1 0x20 ADD PUSH0 KECCAK256 DUP2 SWAP1 SSTORE POP PUSH32 0x0 PUSH20 0xFFFFFFFFFFFFFFFFFFFFFFFFFFFFFFFFFFFFFFFF AND PUSH4 0x40C10F19 CALLER DUP4 PUSH1 0x40 MLOAD DUP4 PUSH4 0xFFFFFFFF AND PUSH1 0xE0 SHL DUP2 MSTORE PUSH1 0x4 ADD PUSH2 0x10E8 SWAP3 SWAP2 SWAP1 PUSH2 0x2712 JUMP JUMPDEST PUSH0 PUSH1 0x40 MLOAD DUP1 DUP4 SUB DUP2 PUSH0 DUP8 DUP1 EXTCODESIZE ISZERO DUP1 ISZERO PUSH2 0x10FF JUMPI PUSH0 DUP1 REVERT JUMPDEST POP GAS CALL ISZERO DUP1 ISZERO PUSH2 0x1111 JUMPI RETURNDATASIZE PUSH0 DUP1 RETURNDATACOPY RETURNDATASIZE PUSH0 REVERT JUMPDEST POP POP POP POP CALLER PUSH20 0xFFFFFFFFFFFFFFFFFFFFFFFFFFFFFFFFFFFFFFFF AND PUSH32 0x9D9F91C7E63ECAB055AB1ECB358D2E74E46AA0E4C65F9594AA73E56CFB5D0A47 DUP3 PUSH1 0x40 MLOAD PUSH2 0x115B SWAP2 SWAP1 PUSH2 0x230A JUMP JUMPDEST PUSH1 0x40 MLOAD DUP1 SWAP2 SUB SWAP1 LOG2 POP POP POP POP PUSH2 0x116F PUSH2 0x2079 JUMP JUMPDEST JUMP JUMPDEST PUSH0 DUP1 SHL DUP2 JUMP JUMPDEST PUSH32 0x82DB594318110A04B6349CE48645AA69F0892751BC893D15E61D9E2B9C4630F5 DUP2 JUMP JUMPDEST PUSH1 0x6 SLOAD DUP2 JUMP JUMPDEST PUSH1 0xD PUSH0 SWAP1 SLOAD SWAP1 PUSH2 0x100 EXP SWAP1 DIV PUSH1 0xFF AND DUP2 JUMP JUMPDEST PUSH2 0x11BB PUSH2 0x2035 JUMP JUMPDEST PUSH1 0xD PUSH1 0x1 SWAP1 SLOAD SWAP1 PUSH2 0x100 EXP SWAP1 DIV PUSH1 0xFF AND PUSH2 0x1201 JUMPI PUSH1 0x40 MLOAD PUSH32 0x64547E6900000000000000000000000000000000000000000000000000000000 DUP2 MSTORE PUSH1 0x4 ADD PUSH1 0x40 MLOAD DUP1 SWAP2 SUB SWAP1 REVERT JUMPDEST PUSH0 PUSH1 0xA PUSH0 CALLER PUSH20 0xFFFFFFFFFFFFFFFFFFFFFFFFFFFFFFFFFFFFFFFF AND PUSH20 0xFFFFFFFFFFFFFFFFFFFFFFFFFFFFFFFFFFFFFFFF AND DUP2 MSTORE PUSH1 0x20 ADD SWAP1 DUP2 MSTORE PUSH1 0x20 ADD PUSH0 KECCAK256 SLOAD SWAP1 POP PUSH0 DUP2 SUB PUSH2 0x127B JUMPI PUSH1 0x40 MLOAD PUSH32 0x969BF72800000000000000000000000000000000000000000000000000000000 DUP2 MSTORE PUSH1 0x4 ADD PUSH1 0x40 MLOAD DUP1 SWAP2 SUB SWAP1 REVERT JUMPDEST PUSH0 PUSH1 0xA PUSH0 CALLER PUSH20 0xFFFFFFFFFFFFFFFFFFFFFFFFFFFFFFFFFFFFFFFF AND PUSH20 0xFFFFFFFFFFFFFFFFFFFFFFFFFFFFFFFFFFFFFFFF AND DUP2 MSTORE PUSH1 0x20 ADD SWAP1 DUP2 MSTORE PUSH1 0x20 ADD PUSH0 KECCAK256 DUP2 SWAP1 SSTORE POP PUSH0 CALLER PUSH20 0xFFFFFFFFFFFFFFFFFFFFFFFFFFFFFFFFFFFFFFFF AND DUP3 PUSH1 0x40 MLOAD PUSH2 0x12E2 SWAP1 PUSH2 0x2766 JUMP JUMPDEST PUSH0 PUSH1 0x40 MLOAD DUP1 DUP4 SUB DUP2 DUP6 DUP8 GAS CALL SWAP3 POP POP POP RETURNDATASIZE DUP1 PUSH0 DUP2 EQ PUSH2 0x131C JUMPI PUSH1 0x40 MLOAD SWAP2 POP PUSH1 0x1F NOT PUSH1 0x3F RETURNDATASIZE ADD AND DUP3 ADD PUSH1 0x40 MSTORE RETURNDATASIZE DUP3 MSTORE RETURNDATASIZE PUSH0 PUSH1 0x20 DUP5 ADD RETURNDATACOPY PUSH2 0x1321 JUMP JUMPDEST PUSH1 0x60 SWAP2 POP JUMPDEST POP POP SWAP1 POP DUP1 PUSH2 0x1365 JUMPI PUSH1 0x40 MLOAD PUSH32 0x8C379A000000000000000000000000000000000000000000000000000000000 DUP2 MSTORE PUSH1 0x4 ADD PUSH2 0x135C SWAP1 PUSH2 0x27D4 JUMP JUMPDEST PUSH1 0x40 MLOAD DUP1 SWAP2 SUB SWAP1 REVERT JUMPDEST CALLER PUSH20 0xFFFFFFFFFFFFFFFFFFFFFFFFFFFFFFFFFFFFFFFF AND PUSH32 0xD7DEE2702D63AD89917B6A4DA9981C90C4D24F8C2BDFD64C604ECAE57D8D0651 DUP4 PUSH1 0x40 MLOAD PUSH2 0x13AB SWAP2 SWAP1 PUSH2 0x230A JUMP JUMPDEST PUSH1 0x40 MLOAD DUP1 SWAP2 SUB SWAP1 LOG2 POP POP PUSH2 0x13BD PUSH2 0x2079 JUMP JUMPDEST JUMP JUMPDEST PUSH1 0x5 PUSH0 SWAP1 SLOAD SWAP1 PUSH2 0x100 EXP SWAP1 DIV PUSH8 0xFFFFFFFFFFFFFFFF AND DUP2 JUMP JUMPDEST PUSH1 0xC PUSH1 0x20 MSTORE DUP1 PUSH0 MSTORE PUSH1 0x40 PUSH0 KECCAK256 PUSH0 SWAP2 POP SWAP1 POP SLOAD DUP2 JUMP JUMPDEST PUSH0 PUSH1 0x5 PUSH1 0x8 SWAP1 SLOAD SWAP1 PUSH2 0x100 EXP SWAP1 DIV PUSH8 0xFFFFFFFFFFFFFFFF AND PUSH8 0xFFFFFFFFFFFFFFFF AND TIMESTAMP GT DUP1 PUSH2 0x143E JUMPI POP PUSH32 0x0 PUSH1 0x8 SLOAD LT ISZERO JUMPDEST SWAP1 POP SWAP1 JUMP JUMPDEST PUSH32 0x82DB594318110A04B6349CE48645AA69F0892751BC893D15E61D9E2B9C4630F5 PUSH2 0x146D DUP2 PUSH2 0x1DE5 JUMP JUMPDEST PUSH1 0x5 PUSH0 SWAP1 SLOAD SWAP1 PUSH2 0x100 EXP SWAP1 DIV PUSH8 0xFFFFFFFFFFFFFFFF AND PUSH8 0xFFFFFFFFFFFFFFFF AND TIMESTAMP LT PUSH2 0x14C5 JUMPI PUSH1 0x40 MLOAD PUSH32 0x445DCE4C00000000000000000000000000000000000000000000000000000000 DUP2 MSTORE PUSH1 0x4 ADD PUSH1 0x40 MLOAD DUP1 SWAP2 SUB SWAP1 REVERT JUMPDEST PUSH0 DUP4 EQ DUP1 PUSH2 0x14D2 JUMPI POP PUSH0 DUP3 EQ JUMPDEST DUP1 PUSH2 0x14DC JUMPI POP DUP3 DUP3 LT JUMPDEST ISZERO PUSH2 0x1513 JUMPI PUSH1 0x40 MLOAD PUSH32 0xA86B651200000000000000000000000000000000000000000000000000000000 DUP2 MSTORE PUSH1 0x4 ADD PUSH1 0x40 MLOAD DUP1 SWAP2 SUB SWAP1 REVERT JUMPDEST DUP3 PUSH1 0x6 DUP2 SWAP1 SSTORE POP DUP2 PUSH1 0x7 DUP2 SWAP1 SSTORE POP PUSH32 0x4D4981437D0211F9E6843EB024D9ADA1FA3A99514D4343D4AECE106DD11524BB DUP4 DUP4 PUSH1 0x40 MLOAD PUSH2 0x1552 SWAP3 SWAP2 SWAP1 PUSH2 0x25ED JUMP JUMPDEST PUSH1 0x40 MLOAD DUP1 SWAP2 SUB SWAP1 LOG1 POP POP POP JUMP JUMPDEST PUSH2 0x1568 DUP3 PUSH2 0x92A JUMP JUMPDEST PUSH2 0x1571 DUP2 PUSH2 0x1DE5 JUMP JUMPDEST PUSH2 0x157B DUP4 DUP4 PUSH2 0x1EEA JUMP JUMPDEST POP POP POP POP JUMP JUMPDEST PUSH32 0x82DB594318110A04B6349CE48645AA69F0892751BC893D15E61D9E2B9C4630F5 PUSH2 0x15AB DUP2 PUSH2 0x1DE5 JUMP JUMPDEST PUSH1 0x5 PUSH0 SWAP1 SLOAD SWAP1 PUSH2 0x100 EXP SWAP1 DIV PUSH8 0xFFFFFFFFFFFFFFFF AND PUSH8 0xFFFFFFFFFFFFFFFF AND TIMESTAMP LT PUSH2 0x1603 JUMPI PUSH1 0x40 MLOAD PUSH32 0x445DCE4C00000000000000000000000000000000000000000000000000000000 DUP2 MSTORE PUSH1 0x4 ADD PUSH1 0x40 MLOAD DUP1 SWAP2 SUB SWAP1 REVERT JUMPDEST PUSH0 PUSH20 0xFFFFFFFFFFFFFFFFFFFFFFFFFFFFFFFFFFFFFFFF AND DUP3 PUSH20 0xFFFFFFFFFFFFFFFFFFFFFFFFFFFFFFFFFFFFFFFF AND SUB PUSH2 0x1668 JUMPI PUSH1 0x40 MLOAD PUSH32 0xD92E233D00000000000000000000000000000000000000000000000000000000 DUP2 MSTORE PUSH1 0x4 ADD PUSH1 0x40 MLOAD DUP1 SWAP2 SUB SWAP1 REVERT JUMPDEST PUSH0 PUSH1 0x3 PUSH0 SWAP1 SLOAD SWAP1 PUSH2 0x100 EXP SWAP1 DIV PUSH20 0xFFFFFFFFFFFFFFFFFFFFFFFFFFFFFFFFFFFFFFFF AND SWAP1 POP DUP3 PUSH1 0x3 PUSH0 PUSH2 0x100 EXP DUP2 SLOAD DUP2 PUSH20 0xFFFFFFFFFFFFFFFFFFFFFFFFFFFFFFFFFFFFFFFF MUL NOT AND SWAP1 DUP4 PUSH20 0xFFFFFFFFFFFFFFFFFFFFFFFFFFFFFFFFFFFFFFFF AND MUL OR SWAP1 SSTORE POP PUSH32 0xF37C6733428A3A65D46B7F1853A5CE4BFA3CF92D25322507A50BF23A0B5A0A8 DUP2 DUP5 PUSH1 0x40 MLOAD PUSH2 0x16FE SWAP3 SWAP2 SWAP1 PUSH2 0x27F2 JUMP JUMPDEST PUSH1 0x40 MLOAD DUP1 SWAP2 SUB SWAP1 LOG1 POP POP POP JUMP JUMPDEST PUSH2 0x1713 PUSH2 0x2035 JUMP JUMPDEST PUSH1 0xD PUSH0 SWAP1 SLOAD SWAP1 PUSH2 0x100 EXP SWAP1 DIV PUSH1 0xFF AND ISZERO DUP1 PUSH2 0x173A JUMPI POP PUSH1 0xD PUSH1 0x1 SWAP1 SLOAD SWAP1 PUSH2 0x100 EXP SWAP1 DIV PUSH1 0xFF AND JUMPDEST ISZERO PUSH2 0x1771 JUMPI PUSH1 0x40 MLOAD PUSH32 0x2BDC91AD00000000000000000000000000000000000000000000000000000000 DUP2 MSTORE PUSH1 0x4 ADD PUSH1 0x40 MLOAD DUP1 SWAP2 SUB SWAP1 REVERT JUMPDEST PUSH0 SELFBALANCE SWAP1 POP PUSH0 PUSH1 0x3 PUSH0 SWAP1 SLOAD SWAP1 PUSH2 0x100 EXP SWAP1 DIV PUSH20 0xFFFFFFFFFFFFFFFFFFFFFFFFFFFFFFFFFFFFFFFF AND PUSH20 0xFFFFFFFFFFFFFFFFFFFFFFFFFFFFFFFFFFFFFFFF AND DUP3 PUSH1 0x40 MLOAD PUSH2 0x17BB SWAP1 PUSH2 0x2766 JUMP JUMPDEST PUSH0 PUSH1 0x40 MLOAD DUP1 DUP4 SUB DUP2 DUP6 DUP8 GAS CALL SWAP3 POP POP POP RETURNDATASIZE DUP1 PUSH0 DUP2 EQ PUSH2 0x17F5 JUMPI PUSH1 0x40 MLOAD SWAP2 POP PUSH1 0x1F NOT PUSH1 0x3F RETURNDATASIZE ADD AND DUP3 ADD PUSH1 0x40 MSTORE RETURNDATASIZE DUP3 MSTORE RETURNDATASIZE PUSH0 PUSH1 0x20 DUP5 ADD RETURNDATACOPY PUSH2 0x17FA JUMP JUMPDEST PUSH1 0x60 SWAP2 POP JUMPDEST POP POP SWAP1 POP DUP1 PUSH2 0x183E JUMPI PUSH1 0x40 MLOAD PUSH32 0x8C379A000000000000000000000000000000000000000000000000000000000 DUP2 MSTORE PUSH1 0x4 ADD PUSH2 0x1835 SWAP1 PUSH2 0x2863 JUMP JUMPDEST PUSH1 0x40 MLOAD DUP1 SWAP2 SUB SWAP1 REVERT JUMPDEST POP POP PUSH2 0x1848 PUSH2 0x2079 JUMP JUMPDEST JUMP JUMPDEST PUSH32 0x65D7A28E3265B37A6474929F336521B332C1681B933F6CB9F3376673440D862A DUP2 JUMP JUMPDEST PUSH32 0x82DB594318110A04B6349CE48645AA69F0892751BC893D15E61D9E2B9C4630F5 PUSH2 0x1898 DUP2 PUSH2 0x1DE5 JUMP JUMPDEST PUSH1 0x5 PUSH0 SWAP1 SLOAD SWAP1 PUSH2 0x100 EXP SWAP1 DIV PUSH8 0xFFFFFFFFFFFFFFFF AND PUSH8 0xFFFFFFFFFFFFFFFF AND TIMESTAMP LT PUSH2 0x18F0 JUMPI PUSH1 0x40 MLOAD PUSH32 0x445DCE4C00000000000000000000000000000000000000000000000000000000 DUP2 MSTORE PUSH1 0x4 ADD PUSH1 0x40 MLOAD DUP1 SWAP2 SUB SWAP1 REVERT JUMPDEST DUP2 PUSH8 0xFFFFFFFFFFFFFFFF AND DUP4 PUSH8 0xFFFFFFFFFFFFFFFF AND LT PUSH2 0x193D JUMPI PUSH1 0x40 MLOAD PUSH32 0xA86B651200000000000000000000000000000000000000000000000000000000 DUP2 MSTORE PUSH1 0x4 ADD PUSH1 0x40 MLOAD DUP1 SWAP2 SUB SWAP1 REVERT JUMPDEST DUP3 PUSH1 0x5 PUSH0 PUSH2 0x100 EXP DUP2 SLOAD DUP2 PUSH8 0xFFFFFFFFFFFFFFFF MUL NOT AND SWAP1 DUP4 PUSH8 0xFFFFFFFFFFFFFFFF AND MUL OR SWAP1 SSTORE POP DUP2 PUSH1 0x5 PUSH1 0x8 PUSH2 0x100 EXP DUP2 SLOAD DUP2 PUSH8 0xFFFFFFFFFFFFFFFF MUL NOT AND SWAP1 DUP4 PUSH8 0xFFFFFFFFFFFFFFFF AND MUL OR SWAP1 SSTORE POP PUSH32 0x114F2C213E3AB7C4E4E09D28A2EFED89FE0C35A82BE187299E8BB20E1B755768 DUP4 DUP4 PUSH1 0x40 MLOAD PUSH2 0x19BF SWAP3 SWAP2 SWAP1 PUSH2 0x2881 JUMP JUMPDEST PUSH1 0x40 MLOAD DUP1 SWAP2 SUB SWAP1 LOG1 POP POP POP JUMP JUMPDEST PUSH2 0x19D4 PUSH2 0x2035 JUMP JUMPDEST PUSH2 0x19DC PUSH2 0x20E3 JUMP JUMPDEST PUSH2 0x19E4 PUSH2 0xB40 JUMP JUMPDEST PUSH2 0x1A1A JUMPI PUSH1 0x40 MLOAD PUSH32 0x445DCE4C00000000000000000000000000000000000000000000000000000000 DUP2 MSTORE PUSH1 0x4 ADD PUSH1 0x40 MLOAD DUP1 SWAP2 SUB SWAP1 REVERT JUMPDEST PUSH0 PUSH20 0xFFFFFFFFFFFFFFFFFFFFFFFFFFFFFFFFFFFFFFFF AND DUP2 PUSH20 0xFFFFFFFFFFFFFFFFFFFFFFFFFFFFFFFFFFFFFFFF AND SUB PUSH2 0x1A7F JUMPI PUSH1 0x40 MLOAD PUSH32 0xD92E233D00000000000000000000000000000000000000000000000000000000 DUP2 MSTORE PUSH1 0x4 ADD PUSH1 0x40 MLOAD DUP1 SWAP2 SUB SWAP1 REVERT JUMPDEST PUSH0 CALLVALUE SUB PUSH2 0x1AB8 JUMPI PUSH1 0x40 MLOAD PUSH32 0x8D8F5CDC00000000000000000000000000000000000000000000000000000000 DUP2 MSTORE PUSH1 0x4 ADD PUSH1 0x40 MLOAD DUP1 SWAP2 SUB SWAP1 REVERT JUMPDEST PUSH32 0x0 CALLVALUE PUSH1 0x8 SLOAD PUSH2 0x1AE7 SWAP2 SWAP1 PUSH2 0x28A8 JUMP JUMPDEST GT ISZERO PUSH2 0x1B1F JUMPI PUSH1 0x40 MLOAD PUSH32 0xA4875A4900000000000000000000000000000000000000000000000000000000 DUP2 MSTORE PUSH1 0x4 ADD PUSH1 0x40 MLOAD DUP1 SWAP2 SUB SWAP1 REVERT JUMPDEST PUSH0 CALLVALUE PUSH1 0xA PUSH0 CALLER PUSH20 0xFFFFFFFFFFFFFFFFFFFFFFFFFFFFFFFFFFFFFFFF AND PUSH20 0xFFFFFFFFFFFFFFFFFFFFFFFFFFFFFFFFFFFFFFFF AND DUP2 MSTORE PUSH1 0x20 ADD SWAP1 DUP2 MSTORE PUSH1 0x20 ADD PUSH0 KECCAK256 SLOAD PUSH2 0x1B69 SWAP2 SWAP1 PUSH2 0x28A8 JUMP JUMPDEST SWAP1 POP PUSH1 0x6 SLOAD DUP2 LT DUP1 PUSH2 0x1B7C JUMPI POP PUSH1 0x7 SLOAD DUP2 GT JUMPDEST ISZERO PUSH2 0x1BB3 JUMPI PUSH1 0x40 MLOAD PUSH32 0x8D8F5CDC00000000000000000000000000000000000000000000000000000000 DUP2 MSTORE PUSH1 0x4 ADD PUSH1 0x40 MLOAD DUP1 SWAP2 SUB SWAP1 REVERT JUMPDEST PUSH0 PUSH1 0x4 SLOAD CALLVALUE PUSH2 0x1BC2 SWAP2 SWAP1 PUSH2 0x2641 JUMP JUMPDEST SWAP1 POP CALLVALUE PUSH1 0x8 PUSH0 DUP3 DUP3 SLOAD PUSH2 0x1BD5 SWAP2 SWAP1 PUSH2 0x28A8 JUMP JUMPDEST SWAP3 POP POP DUP2 SWAP1 SSTORE POP DUP1 PUSH1 0x9 PUSH0 DUP3 DUP3 SLOAD PUSH2 0x1BED SWAP2 SWAP1 PUSH2 0x28A8 JUMP JUMPDEST SWAP3 POP POP DUP2 SWAP1 SSTORE POP DUP2 PUSH1 0xA PUSH0 CALLER PUSH20 0xFFFFFFFFFFFFFFFFFFFFFFFFFFFFFFFFFFFFFFFF AND PUSH20 0xFFFFFFFFFFFFFFFFFFFFFFFFFFFFFFFFFFFFFFFF AND DUP2 MSTORE PUSH1 0x20 ADD SWAP1 DUP2 MSTORE PUSH1 0x20 ADD PUSH0 KECCAK256 DUP2 SWAP1 SSTORE POP DUP1 PUSH1 0xB PUSH0 DUP6 PUSH20 0xFFFFFFFFFFFFFFFFFFFFFFFFFFFFFFFFFFFFFFFF AND PUSH20 0xFFFFFFFFFFFFFFFFFFFFFFFFFFFFFFFFFFFFFFFF AND DUP2 MSTORE PUSH1 0x20 ADD SWAP1 DUP2 MSTORE PUSH1 0x20 ADD PUSH0 KECCAK256 PUSH0 DUP3 DUP3 SLOAD PUSH2 0x1C82 SWAP2 SWAP1 PUSH2 0x28A8 JUMP JUMPDEST SWAP3 POP POP DUP2 SWAP1 SSTORE POP DUP3 PUSH20 0xFFFFFFFFFFFFFFFFFFFFFFFFFFFFFFFFFFFFFFFF AND CALLER PUSH20 0xFFFFFFFFFFFFFFFFFFFFFFFFFFFFFFFFFFFFFFFF AND PUSH32 0x6FAF93231A456E552DBC9961F58D9713EE4F2E69D15F1975B050EF0911053A7B CALLVALUE DUP5 PUSH1 0x40 MLOAD PUSH2 0x1CE8 SWAP3 SWAP2 SWAP1 PUSH2 0x25ED JUMP JUMPDEST PUSH1 0x40 MLOAD DUP1 SWAP2 SUB SWAP1 LOG3 POP POP PUSH2 0x1CFA PUSH2 0x2079 JUMP JUMPDEST POP JUMP JUMPDEST PUSH1 0xD PUSH1 0x1 SWAP1 SLOAD SWAP1 PUSH2 0x100 EXP SWAP1 DIV PUSH1 0xFF AND DUP2 JUMP JUMPDEST PUSH32 0x0 DUP2 JUMP JUMPDEST PUSH32 0x0 DUP2 JUMP JUMPDEST PUSH32 0x0 DUP2 JUMP JUMPDEST PUSH0 PUSH32 0x1FFC9A700000000000000000000000000000000000000000000000000000000 PUSH28 0xFFFFFFFFFFFFFFFFFFFFFFFFFFFFFFFFFFFFFFFFFFFFFFFFFFFFFFFF NOT AND DUP3 PUSH28 0xFFFFFFFFFFFFFFFFFFFFFFFFFFFFFFFFFFFFFFFFFFFFFFFFFFFFFFFF NOT AND EQ SWAP1 POP SWAP2 SWAP1 POP JUMP JUMPDEST PUSH2 0x1DF6 DUP2 PUSH2 0x1DF1 PUSH2 0x1EE3 JUMP JUMPDEST PUSH2 0x2124 JUMP JUMPDEST POP JUMP JUMPDEST PUSH0 PUSH2 0x1E04 DUP4 DUP4 PUSH2 0xE21 JUMP JUMPDEST PUSH2 0x1ED9 JUMPI PUSH1 0x1 PUSH1 0x2 PUSH0 DUP6 DUP2 MSTORE PUSH1 0x20 ADD SWAP1 DUP2 MSTORE PUSH1 0x20 ADD PUSH0 KECCAK256 PUSH0 ADD PUSH0 DUP5 PUSH20 0xFFFFFFFFFFFFFFFFFFFFFFFFFFFFFFFFFFFFFFFF AND PUSH20 0xFFFFFFFFFFFFFFFFFFFFFFFFFFFFFFFFFFFFFFFF AND DUP2 MSTORE PUSH1 0x20 ADD SWAP1 DUP2 MSTORE PUSH1 0x20 ADD PUSH0 KECCAK256 PUSH0 PUSH2 0x100 EXP DUP2 SLOAD DUP2 PUSH1 0xFF MUL NOT AND SWAP1 DUP4 ISZERO ISZERO MUL OR SWAP1 SSTORE POP PUSH2 0x1E76 PUSH2 0x1EE3 JUMP JUMPDEST PUSH20 0xFFFFFFFFFFFFFFFFFFFFFFFFFFFFFFFFFFFFFFFF AND DUP3 PUSH20 0xFFFFFFFFFFFFFFFFFFFFFFFFFFFFFFFFFFFFFFFF AND DUP5 PUSH32 0x2F8788117E7EFF1D82E926EC794901D17C78024A50270940304540A733656F0D PUSH1 0x40 MLOAD PUSH1 0x40 MLOAD DUP1 SWAP2 SUB SWAP1 LOG4 PUSH1 0x1 SWAP1 POP PUSH2 0x1EDD JUMP JUMPDEST PUSH0 SWAP1 POP JUMPDEST SWAP3 SWAP2 POP POP JUMP JUMPDEST PUSH0 CALLER SWAP1 POP SWAP1 JUMP JUMPDEST PUSH0 PUSH2 0x1EF5 DUP4 DUP4 PUSH2 0xE21 JUMP JUMPDEST ISZERO PUSH2 0x1FCA JUMPI PUSH0 PUSH1 0x2 PUSH0 DUP6 DUP2 MSTORE PUSH1 0x20 ADD SWAP1 DUP2 MSTORE PUSH1 0x20 ADD PUSH0 KECCAK256 PUSH0 ADD PUSH0 DUP5 PUSH20 0xFFFFFFFFFFFFFFFFFFFFFFFFFFFFFFFFFFFFFFFF AND PUSH20 0xFFFFFFFFFFFFFFFFFFFFFFFFFFFFFFFFFFFFFFFF AND DUP2 MSTORE PUSH1 0x20 ADD SWAP1 DUP2 MSTORE PUSH1 0x20 ADD PUSH0 KECCAK256 PUSH0 PUSH2 0x100 EXP DUP2 SLOAD DUP2 PUSH1 0xFF MUL NOT AND SWAP1 DUP4 ISZERO ISZERO MUL OR SWAP1 SSTORE POP PUSH2 0x1F67 PUSH2 0x1EE3 JUMP JUMPDEST PUSH20 0xFFFFFFFFFFFFFFFFFFFFFFFFFFFFFFFFFFFFFFFF AND DUP3 PUSH20 0xFFFFFFFFFFFFFFFFFFFFFFFFFFFFFFFFFFFFFFFF AND DUP5 PUSH32 0xF6391F5C32D9C69D2A47EA670B442974B53935D1EDC7FD64EB21E047A839171B PUSH1 0x40 MLOAD PUSH1 0x40 MLOAD DUP1 SWAP2 SUB SWAP1 LOG4 PUSH1 0x1 SWAP1 POP PUSH2 0x1FCE JUMP JUMPDEST PUSH0 SWAP1 POP JUMPDEST SWAP3 SWAP2 POP POP JUMP JUMPDEST PUSH2 0x1FDC PUSH2 0x2175 JUMP JUMPDEST PUSH0 PUSH1 0x1 PUSH0 PUSH2 0x100 EXP DUP2 SLOAD DUP2 PUSH1 0xFF MUL NOT AND SWAP1 DUP4 ISZERO ISZERO MUL OR SWAP1 SSTORE POP PUSH32 0x5DB9EE0A495BF2E6FF9C91A7834C1BA4FDD244A5E8AA4E537BD38AEAE4B073AA PUSH2 0x201E PUSH2 0x1EE3 JUMP JUMPDEST PUSH1 0x40 MLOAD PUSH2 0x202B SWAP2 SWAP1 PUSH2 0x2485 JUMP JUMPDEST PUSH1 0x40 MLOAD DUP1 SWAP2 SUB SWAP1 LOG1 JUMP JUMPDEST PUSH1 0x2 PUSH0 SLOAD SUB PUSH2 0x2070 JUMPI PUSH1 0x40 MLOAD PUSH32 0x3EE5AEB500000000000000000000000000000000000000000000000000000000 DUP2 MSTORE PUSH1 0x4 ADD PUSH1 0x40 MLOAD DUP1 SWAP2 SUB SWAP1 REVERT JUMPDEST PUSH1 0x2 PUSH0 DUP2 SWAP1 SSTORE POP JUMP JUMPDEST PUSH1 0x1 PUSH0 DUP2 SWAP1 SSTORE POP JUMP JUMPDEST PUSH2 0x208A PUSH2 0x20E3 JUMP JUMPDEST PUSH1 0x1 DUP1 PUSH0 PUSH2 0x100 EXP DUP2 SLOAD DUP2 PUSH1 0xFF MUL NOT AND SWAP1 DUP4 ISZERO ISZERO MUL OR SWAP1 SSTORE POP PUSH32 0x62E78CEA01BEE320CD4E420270B5EA74000D11B0C9F74754EBDBFC544B05A258 PUSH2 0x20CC PUSH2 0x1EE3 JUMP JUMPDEST PUSH1 0x40 MLOAD PUSH2 0x20D9 SWAP2 SWAP1 PUSH2 0x2485 JUMP JUMPDEST PUSH1 0x40 MLOAD DUP1 SWAP2 SUB SWAP1 LOG1 JUMP JUMPDEST PUSH2 0x20EB PUSH2 0xDAD JUMP JUMPDEST ISZERO PUSH2 0x2122 JUMPI PUSH1 0x40 MLOAD PUSH32 0xD93C066500000000000000000000000000000000000000000000000000000000 DUP2 MSTORE PUSH1 0x4 ADD PUSH1 0x40 MLOAD DUP1 SWAP2 SUB SWAP1 REVERT JUMPDEST JUMP JUMPDEST PUSH2 0x212E DUP3 DUP3 PUSH2 0xE21 JUMP JUMPDEST PUSH2 0x2171 JUMPI DUP1 DUP3 PUSH1 0x40 MLOAD PUSH32 0xE2517D3F00000000000000000000000000000000000000000000000000000000 DUP2 MSTORE PUSH1 0x4 ADD PUSH2 0x2168 SWAP3 SWAP2 SWAP1 PUSH2 0x28DB JUMP JUMPDEST PUSH1 0x40 MLOAD DUP1 SWAP2 SUB SWAP1 REVERT JUMPDEST POP POP JUMP JUMPDEST PUSH2 0x217D PUSH2 0xDAD JUMP JUMPDEST PUSH2 0x21B3 JUMPI PUSH1 0x40 MLOAD PUSH32 0x8DFC202B00000000000000000000000000000000000000000000000000000000 DUP2 MSTORE PUSH1 0x4 ADD PUSH1 0x40 MLOAD DUP1 SWAP2 SUB SWAP1 REVERT JUMPDEST JUMP JUMPDEST PUSH0 DUP1 REVERT JUMPDEST PUSH0 PUSH32 0xFFFFFFFF00000000000000000000000000000000000000000000000000000000 DUP3 AND SWAP1 POP SWAP2 SWAP1 POP JUMP JUMPDEST PUSH2 0x21ED DUP2 PUSH2 0x21B9 JUMP JUMPDEST DUP2 EQ PUSH2 0x21F7 JUMPI PUSH0 DUP1 REVERT JUMPDEST POP JUMP JUMPDEST PUSH0 DUP2 CALLDATALOAD SWAP1 POP PUSH2 0x2208 DUP2 PUSH2 0x21E4 JUMP JUMPDEST SWAP3 SWAP2 POP POP JUMP JUMPDEST PUSH0 PUSH1 0x20 DUP3 DUP5 SUB SLT ISZERO PUSH2 0x2223 JUMPI PUSH2 0x2222 PUSH2 0x21B5 JUMP JUMPDEST JUMPDEST PUSH0 PUSH2 0x2230 DUP5 DUP3 DUP6 ADD PUSH2 0x21FA JUMP JUMPDEST SWAP2 POP POP SWAP3 SWAP2 POP POP JUMP JUMPDEST PUSH0 DUP2 ISZERO ISZERO SWAP1 POP SWAP2 SWAP1 POP JUMP JUMPDEST PUSH2 0x224D DUP2 PUSH2 0x2239 JUMP JUMPDEST DUP3 MSTORE POP POP JUMP JUMPDEST PUSH0 PUSH1 0x20 DUP3 ADD SWAP1 POP PUSH2 0x2266 PUSH0 DUP4 ADD DUP5 PUSH2 0x2244 JUMP JUMPDEST SWAP3 SWAP2 POP POP JUMP JUMPDEST PUSH0 DUP2 SWAP1 POP SWAP2 SWAP1 POP JUMP JUMPDEST PUSH2 0x227E DUP2 PUSH2 0x226C JUMP JUMPDEST DUP2 EQ PUSH2 0x2288 JUMPI PUSH0 DUP1 REVERT JUMPDEST POP JUMP JUMPDEST PUSH0 DUP2 CALLDATALOAD SWAP1 POP PUSH2 0x2299 DUP2 PUSH2 0x2275 JUMP JUMPDEST SWAP3 SWAP2 POP POP JUMP JUMPDEST PUSH0 PUSH1 0x20 DUP3 DUP5 SUB SLT ISZERO PUSH2 0x22B4 JUMPI PUSH2 0x22B3 PUSH2 0x21B5 JUMP JUMPDEST JUMPDEST PUSH0 PUSH2 0x22C1 DUP5 DUP3 DUP6 ADD PUSH2 0x228B JUMP JUMPDEST SWAP2 POP POP SWAP3 SWAP2 POP POP JUMP JUMPDEST PUSH2 0x22D3 DUP2 PUSH2 0x226C JUMP JUMPDEST DUP3 MSTORE POP POP JUMP JUMPDEST PUSH0 PUSH1 0x20 DUP3 ADD SWAP1 POP PUSH2 0x22EC PUSH0 DUP4 ADD DUP5 PUSH2 0x22CA JUMP JUMPDEST SWAP3 SWAP2 POP POP JUMP JUMPDEST PUSH0 DUP2 SWAP1 POP SWAP2 SWAP1 POP JUMP JUMPDEST PUSH2 0x2304 DUP2 PUSH2 0x22F2 JUMP JUMPDEST DUP3 MSTORE POP POP JUMP JUMPDEST PUSH0 PUSH1 0x20 DUP3 ADD SWAP1 POP PUSH2 0x231D PUSH0 DUP4 ADD DUP5 PUSH2 0x22FB JUMP JUMPDEST SWAP3 SWAP2 POP POP JUMP JUMPDEST PUSH0 PUSH20 0xFFFFFFFFFFFFFFFFFFFFFFFFFFFFFFFFFFFFFFFF DUP3 AND SWAP1 POP SWAP2 SWAP1 POP JUMP JUMPDEST PUSH0 PUSH2 0x234C DUP3 PUSH2 0x2323 JUMP JUMPDEST SWAP1 POP SWAP2 SWAP1 POP JUMP JUMPDEST PUSH2 0x235C DUP2 PUSH2 0x2342 JUMP JUMPDEST DUP2 EQ PUSH2 0x2366 JUMPI PUSH0 DUP1 REVERT JUMPDEST POP JUMP JUMPDEST PUSH0 DUP2 CALLDATALOAD SWAP1 POP PUSH2 0x2377 DUP2 PUSH2 0x2353 JUMP JUMPDEST SWAP3 SWAP2 POP POP JUMP JUMPDEST PUSH0 DUP1 PUSH1 0x40 DUP4 DUP6 SUB SLT ISZERO PUSH2 0x2393 JUMPI PUSH2 0x2392 PUSH2 0x21B5 JUMP JUMPDEST JUMPDEST PUSH0 PUSH2 0x23A0 DUP6 DUP3 DUP7 ADD PUSH2 0x228B JUMP JUMPDEST SWAP3 POP POP PUSH1 0x20 PUSH2 0x23B1 DUP6 DUP3 DUP7 ADD PUSH2 0x2369 JUMP JUMPDEST SWAP2 POP POP SWAP3 POP SWAP3 SWAP1 POP JUMP JUMPDEST PUSH2 0x23C4 DUP2 PUSH2 0x22F2 JUMP JUMPDEST DUP2 EQ PUSH2 0x23CE JUMPI PUSH0 DUP1 REVERT JUMPDEST POP JUMP JUMPDEST PUSH0 DUP2 CALLDATALOAD SWAP1 POP PUSH2 0x23DF DUP2 PUSH2 0x23BB JUMP JUMPDEST SWAP3 SWAP2 POP POP JUMP JUMPDEST PUSH0 PUSH1 0x20 DUP3 DUP5 SUB SLT ISZERO PUSH2 0x23FA JUMPI PUSH2 0x23F9 PUSH2 0x21B5 JUMP JUMPDEST JUMPDEST PUSH0 PUSH2 0x2407 DUP5 DUP3 DUP6 ADD PUSH2 0x23D1 JUMP JUMPDEST SWAP2 POP POP SWAP3 SWAP2 POP POP JUMP JUMPDEST PUSH0 PUSH1 0x20 DUP3 DUP5 SUB SLT ISZERO PUSH2 0x2425 JUMPI PUSH2 0x2424 PUSH2 0x21B5 JUMP JUMPDEST JUMPDEST PUSH0 PUSH2 0x2432 DUP5 DUP3 DUP6 ADD PUSH2 0x2369 JUMP JUMPDEST SWAP2 POP POP SWAP3 SWAP2 POP POP JUMP JUMPDEST PUSH0 PUSH8 0xFFFFFFFFFFFFFFFF DUP3 AND SWAP1 POP SWAP2 SWAP1 POP JUMP JUMPDEST PUSH2 0x2457 DUP2 PUSH2 0x243B JUMP JUMPDEST DUP3 MSTORE POP POP JUMP JUMPDEST PUSH0 PUSH1 0x20 DUP3 ADD SWAP1 POP PUSH2 0x2470 PUSH0 DUP4 ADD DUP5 PUSH2 0x244E JUMP JUMPDEST SWAP3 SWAP2 POP POP JUMP JUMPDEST PUSH2 0x247F DUP2 PUSH2 0x2342 JUMP JUMPDEST DUP3 MSTORE POP POP JUMP JUMPDEST PUSH0 PUSH1 0x20 DUP3 ADD SWAP1 POP PUSH2 0x2498 PUSH0 DUP4 ADD DUP5 PUSH2 0x2476 JUMP JUMPDEST SWAP3 SWAP2 POP POP JUMP JUMPDEST PUSH0 DUP1 PUSH1 0x40 DUP4 DUP6 SUB SLT ISZERO PUSH2 0x24B4 JUMPI PUSH2 0x24B3 PUSH2 0x21B5 JUMP JUMPDEST JUMPDEST PUSH0 PUSH2 0x24C1 DUP6 DUP3 DUP7 ADD PUSH2 0x23D1 JUMP JUMPDEST SWAP3 POP POP PUSH1 0x20 PUSH2 0x24D2 DUP6 DUP3 DUP7 ADD PUSH2 0x23D1 JUMP JUMPDEST SWAP2 POP POP SWAP3 POP SWAP3 SWAP1 POP JUMP JUMPDEST PUSH2 0x24E5 DUP2 PUSH2 0x243B JUMP JUMPDEST DUP2 EQ PUSH2 0x24EF JUMPI PUSH0 DUP1 REVERT JUMPDEST POP JUMP JUMPDEST PUSH0 DUP2 CALLDATALOAD SWAP1 POP PUSH2 0x2500 DUP2 PUSH2 0x24DC JUMP JUMPDEST SWAP3 SWAP2 POP POP JUMP JUMPDEST PUSH0 DUP1 PUSH1 0x40 DUP4 DUP6 SUB SLT ISZERO PUSH2 0x251C JUMPI PUSH2 0x251B PUSH2 0x21B5 JUMP JUMPDEST JUMPDEST PUSH0 PUSH2 0x2529 DUP6 DUP3 DUP7 ADD PUSH2 0x24F2 JUMP JUMPDEST SWAP3 POP POP PUSH1 0x20 PUSH2 0x253A DUP6 DUP3 DUP7 ADD PUSH2 0x24F2 JUMP JUMPDEST SWAP2 POP POP SWAP3 POP SWAP3 SWAP1 POP JUMP JUMPDEST PUSH0 PUSH2 0xFFFF DUP3 AND SWAP1 POP SWAP2 SWAP1 POP JUMP JUMPDEST PUSH2 0x255A DUP2 PUSH2 0x2544 JUMP JUMPDEST DUP3 MSTORE POP POP JUMP JUMPDEST PUSH0 PUSH1 0x20 DUP3 ADD SWAP1 POP PUSH2 0x2573 PUSH0 DUP4 ADD DUP5 PUSH2 0x2551 JUMP JUMPDEST SWAP3 SWAP2 POP POP JUMP JUMPDEST PUSH0 DUP2 SWAP1 POP SWAP2 SWAP1 POP JUMP JUMPDEST PUSH0 PUSH2 0x259C PUSH2 0x2597 PUSH2 0x2592 DUP5 PUSH2 0x2323 JUMP JUMPDEST PUSH2 0x2579 JUMP JUMPDEST PUSH2 0x2323 JUMP JUMPDEST SWAP1 POP SWAP2 SWAP1 POP JUMP JUMPDEST PUSH0 PUSH2 0x25AD DUP3 PUSH2 0x2582 JUMP JUMPDEST SWAP1 POP SWAP2 SWAP1 POP JUMP JUMPDEST PUSH0 PUSH2 0x25BE DUP3 PUSH2 0x25A3 JUMP JUMPDEST SWAP1 POP SWAP2 SWAP1 POP JUMP JUMPDEST PUSH2 0x25CE DUP2 PUSH2 0x25B4 JUMP JUMPDEST DUP3 MSTORE POP POP JUMP JUMPDEST PUSH0 PUSH1 0x20 DUP3 ADD SWAP1 POP PUSH2 0x25E7 PUSH0 DUP4 ADD DUP5 PUSH2 0x25C5 JUMP JUMPDEST SWAP3 SWAP2 POP POP JUMP JUMPDEST PUSH0 PUSH1 0x40 DUP3 ADD SWAP1 POP PUSH2 0x2600 PUSH0 DUP4 ADD DUP6 PUSH2 0x22FB JUMP JUMPDEST PUSH2 0x260D PUSH1 0x20 DUP4 ADD DUP5 PUSH2 0x22FB JUMP JUMPDEST SWAP4 SWAP3 POP POP POP JUMP JUMPDEST PUSH32 0x4E487B7100000000000000000000000000000000000000000000000000000000 PUSH0 MSTORE PUSH1 0x11 PUSH1 0x4 MSTORE PUSH1 0x24 PUSH0 REVERT JUMPDEST PUSH0 PUSH2 0x264B DUP3 PUSH2 0x22F2 JUMP JUMPDEST SWAP2 POP PUSH2 0x2656 DUP4 PUSH2 0x22F2 JUMP JUMPDEST SWAP3 POP DUP3 DUP3 MUL PUSH2 0x2664 DUP2 PUSH2 0x22F2 JUMP JUMPDEST SWAP2 POP DUP3 DUP3 DIV DUP5 EQ DUP4 ISZERO OR PUSH2 0x267B JUMPI PUSH2 0x267A PUSH2 0x2614 JUMP JUMPDEST JUMPDEST POP SWAP3 SWAP2 POP POP JUMP JUMPDEST PUSH32 0x4E487B7100000000000000000000000000000000000000000000000000000000 PUSH0 MSTORE PUSH1 0x12 PUSH1 0x4 MSTORE PUSH1 0x24 PUSH0 REVERT JUMPDEST PUSH0 PUSH2 0x26B9 DUP3 PUSH2 0x22F2 JUMP JUMPDEST SWAP2 POP PUSH2 0x26C4 DUP4 PUSH2 0x22F2 JUMP JUMPDEST SWAP3 POP DUP3 PUSH2 0x26D4 JUMPI PUSH2 0x26D3 PUSH2 0x2682 JUMP JUMPDEST JUMPDEST DUP3 DUP3 DIV SWAP1 POP SWAP3 SWAP2 POP POP JUMP JUMPDEST PUSH0 PUSH2 0x26E9 DUP3 PUSH2 0x22F2 JUMP JUMPDEST SWAP2 POP PUSH2 0x26F4 DUP4 PUSH2 0x22F2 JUMP JUMPDEST SWAP3 POP DUP3 DUP3 SUB SWAP1 POP DUP2 DUP2 GT ISZERO PUSH2 0x270C JUMPI PUSH2 0x270B PUSH2 0x2614 JUMP JUMPDEST JUMPDEST SWAP3 SWAP2 POP POP JUMP JUMPDEST PUSH0 PUSH1 0x40 DUP3 ADD SWAP1 POP PUSH2 0x2725 PUSH0 DUP4 ADD DUP6 PUSH2 0x2476 JUMP JUMPDEST PUSH2 0x2732 PUSH1 0x20 DUP4 ADD DUP5 PUSH2 0x22FB JUMP JUMPDEST SWAP4 SWAP3 POP POP POP JUMP JUMPDEST PUSH0 DUP2 SWAP1 POP SWAP3 SWAP2 POP POP JUMP JUMPDEST POP JUMP JUMPDEST PUSH0 PUSH2 0x2751 PUSH0 DUP4 PUSH2 0x2739 JUMP JUMPDEST SWAP2 POP PUSH2 0x275C DUP3 PUSH2 0x2743 JUMP JUMPDEST PUSH0 DUP3 ADD SWAP1 POP SWAP2 SWAP1 POP JUMP JUMPDEST PUSH0 PUSH2 0x2770 DUP3 PUSH2 0x2746 JUMP JUMPDEST SWAP2 POP DUP2 SWAP1 POP SWAP2 SWAP1 POP JUMP JUMPDEST PUSH0 DUP3 DUP3 MSTORE PUSH1 0x20 DUP3 ADD SWAP1 POP SWAP3 SWAP2 POP POP JUMP JUMPDEST PUSH32 0x526566756E64207472616E73666572206661696C656400000000000000000000 PUSH0 DUP3 ADD MSTORE POP JUMP JUMPDEST PUSH0 PUSH2 0x27BE PUSH1 0x16 DUP4 PUSH2 0x277A JUMP JUMPDEST SWAP2 POP PUSH2 0x27C9 DUP3 PUSH2 0x278A JUMP JUMPDEST PUSH1 0x20 DUP3 ADD SWAP1 POP SWAP2 SWAP1 POP JUMP JUMPDEST PUSH0 PUSH1 0x20 DUP3 ADD SWAP1 POP DUP2 DUP2 SUB PUSH0 DUP4 ADD MSTORE PUSH2 0x27EB DUP2 PUSH2 0x27B2 JUMP JUMPDEST SWAP1 POP SWAP2 SWAP1 POP JUMP JUMPDEST PUSH0 PUSH1 0x40 DUP3 ADD SWAP1 POP PUSH2 0x2805 PUSH0 DUP4 ADD DUP6 PUSH2 0x2476 JUMP JUMPDEST PUSH2 0x2812 PUSH1 0x20 DUP4 ADD DUP5 PUSH2 0x2476 JUMP JUMPDEST SWAP4 SWAP3 POP POP POP JUMP JUMPDEST PUSH32 0x5769746864726177206661696C65640000000000000000000000000000000000 PUSH0 DUP3 ADD MSTORE POP JUMP JUMPDEST PUSH0 PUSH2 0x284D PUSH1 0xF DUP4 PUSH2 0x277A JUMP JUMPDEST SWAP2 POP PUSH2 0x2858 DUP3 PUSH2 0x2819 JUMP JUMPDEST PUSH1 0x20 DUP3 ADD SWAP1 POP SWAP2 SWAP1 POP JUMP JUMPDEST PUSH0 PUSH1 0x20 DUP3 ADD SWAP1 POP DUP2 DUP2 SUB PUSH0 DUP4 ADD MSTORE PUSH2 0x287A DUP2 PUSH2 0x2841 JUMP JUMPDEST SWAP1 POP SWAP2 SWAP1 POP JUMP JUMPDEST PUSH0 PUSH1 0x40 DUP3 ADD SWAP1 POP PUSH2 0x2894 PUSH0 DUP4 ADD DUP6 PUSH2 0x244E JUMP JUMPDEST PUSH2 0x28A1 PUSH1 0x20 DUP4 ADD DUP5 PUSH2 0x244E JUMP JUMPDEST SWAP4 SWAP3 POP POP POP JUMP JUMPDEST PUSH0 PUSH2 0x28B2 DUP3 PUSH2 0x22F2 JUMP JUMPDEST SWAP2 POP PUSH2 0x28BD DUP4 PUSH2 0x22F2 JUMP JUMPDEST SWAP3 POP DUP3 DUP3 ADD SWAP1 POP DUP1 DUP3 GT ISZERO PUSH2 0x28D5 JUMPI PUSH2 0x28D4 PUSH2 0x2614 JUMP JUMPDEST JUMPDEST SWAP3 SWAP2 POP POP JUMP JUMPDEST PUSH0 PUSH1 0x40 DUP3 ADD SWAP1 POP PUSH2 0x28EE PUSH0 DUP4 ADD DUP6 PUSH2 0x2476 JUMP JUMPDEST PUSH2 0x28FB PUSH1 0x20 DUP4 ADD DUP5 PUSH2 0x22CA JUMP JUMPDEST SWAP4 SWAP3 POP POP POP JUMP INVALID LOG2 PUSH5 0x6970667358 0x22 SLT KECCAK256 INVALID 0xA7 0xCF BLOBHASH 0x22 CALLVALUE SGT DUP7 PUSH28 0x3550A9A7904A00D0313234FC3153C727174863E1745AF064736F6C63 NUMBER STOP ADDMOD BYTE STOP CALLER "
				},
				"gasEstimates": {
					"creation": {
						"codeDepositCost": "2110400",
						"executionCost": "infinite",
						"totalCost": "infinite"
					},
					"external": {
						"CONFIG_ROLE()": "415",
						"DEFAULT_ADMIN_ROLE()": "398",
						"PAUSER_ROLE()": "436",
						"allocated(address)": "2914",
						"buyTokens(address)": "infinite",
						"claimRefund()": "infinite",
						"claimTGE()": "infinite",
						"closingTime()": "2563",
						"contributed(address)": "2935",
						"finalize()": "infinite",
						"finalized()": "2600",
						"getRoleAdmin(bytes32)": "infinite",
						"grantRole(bytes32,address)": "infinite",
						"hardCap()": "infinite",
						"hasRole(bytes32,address)": "3233",
						"isClosed()": "infinite",
						"isOpen()": "infinite",
						"maxContribution()": "2492",
						"minContribution()": "2537",
						"openingTime()": "2533",
						"pause()": "infinite",
						"paused()": "2607",
						"rate()": "2516",
						"refunding()": "2583",
						"renounceRole(bytes32,address)": "infinite",
						"revokeRole(bytes32,address)": "infinite",
						"setLimits(uint256,uint256)": "infinite",
						"setRate(uint256)": "infinite",
						"setTimes(uint64,uint64)": "infinite",
						"setWallet(address)": "infinite",
						"softCap()": "infinite",
						"supportsInterface(bytes4)": "764",
						"tgeBps()": "infinite",
						"tgeClaimed(address)": "2891",
						"token()": "infinite",
						"tokensSold()": "2515",
						"unpause()": "infinite",
						"wallet()": "2620",
						"weiRaised()": "2515",
						"withdrawETH()": "infinite"
					}
				},
				"methodIdentifiers": {
					"CONFIG_ROLE()": "a4d19feb",
					"DEFAULT_ADMIN_ROLE()": "a217fddf",
					"PAUSER_ROLE()": "e63ab1e9",
					"allocated(address)": "4225e5bb",
					"buyTokens(address)": "ec8ac4d8",
					"claimRefund()": "b5545a3c",
					"claimTGE()": "9b8c1fed",
					"closingTime()": "4b6753bc",
					"contributed(address)": "995c5e9d",
					"finalize()": "4bb278f3",
					"finalized()": "b3f05b97",
					"getRoleAdmin(bytes32)": "248a9ca3",
					"grantRole(bytes32,address)": "2f2ff15d",
					"hardCap()": "fb86a404",
					"hasRole(bytes32,address)": "91d14854",
					"isClosed()": "c2b6b58c",
					"isOpen()": "47535d7b",
					"maxContribution()": "8d3d6576",
					"minContribution()": "aaffadf3",
					"openingTime()": "b7a8807c",
					"pause()": "8456cb59",
					"paused()": "5c975abb",
					"rate()": "2c4e722e",
					"refunding()": "f43e98c7",
					"renounceRole(bytes32,address)": "36568abe",
					"revokeRole(bytes32,address)": "d547741f",
					"setLimits(uint256,uint256)": "c4590d3f",
					"setRate(uint256)": "34fcf437",
					"setTimes(uint64,uint64)": "eb3b3fe6",
					"setWallet(address)": "deaa59df",
					"softCap()": "906a26e0",
					"supportsInterface(bytes4)": "01ffc9a7",
					"tgeBps()": "f49e2514",
					"tgeClaimed(address)": "be68d17a",
					"token()": "fc0c546a",
					"tokensSold()": "518ab2a8",
					"unpause()": "3f4ba83a",
					"wallet()": "521eb273",
					"weiRaised()": "4042b66f",
					"withdrawETH()": "e086e5ec"
				}
			},
			"storageLayout": {
				"storage": [
					{
						"astId": 605,
						"contract": "preventa/JFVCrowdsale.sol:JFVCrowdsale",
						"label": "_status",
						"offset": 0,
						"slot": "0",
						"type": "t_uint256"
					},
					{
						"astId": 495,
						"contract": "preventa/JFVCrowdsale.sol:JFVCrowdsale",
						"label": "_paused",
						"offset": 0,
						"slot": "1",
						"type": "t_bool"
					},
					{
						"astId": 26,
						"contract": "preventa/JFVCrowdsale.sol:JFVCrowdsale",
						"label": "_roles",
						"offset": 0,
						"slot": "2",
						"type": "t_mapping(t_bytes32,t_struct(RoleData)21_storage)"
					},
					{
						"astId": 802,
						"contract": "preventa/JFVCrowdsale.sol:JFVCrowdsale",
						"label": "wallet",
						"offset": 0,
						"slot": "3",
						"type": "t_address"
					},
					{
						"astId": 804,
						"contract": "preventa/JFVCrowdsale.sol:JFVCrowdsale",
						"label": "rate",
						"offset": 0,
						"slot": "4",
						"type": "t_uint256"
					},
					{
						"astId": 810,
						"contract": "preventa/JFVCrowdsale.sol:JFVCrowdsale",
						"label": "openingTime",
						"offset": 0,
						"slot": "5",
						"type": "t_uint64"
					},
					{
						"astId": 812,
						"contract": "preventa/JFVCrowdsale.sol:JFVCrowdsale",
						"label": "closingTime",
						"offset": 8,
						"slot": "5",
						"type": "t_uint64"
					},
					{
						"astId": 814,
						"contract": "preventa/JFVCrowdsale.sol:JFVCrowdsale",
						"label": "minContribution",
						"offset": 0,
						"slot": "6",
						"type": "t_uint256"
					},
					{
						"astId": 816,
						"contract": "preventa/JFVCrowdsale.sol:JFVCrowdsale",
						"label": "maxContribution",
						"offset": 0,
						"slot": "7",
						"type": "t_uint256"
					},
					{
						"astId": 820,
						"contract": "preventa/JFVCrowdsale.sol:JFVCrowdsale",
						"label": "weiRaised",
						"offset": 0,
						"slot": "8",
						"type": "t_uint256"
					},
					{
						"astId": 822,
						"contract": "preventa/JFVCrowdsale.sol:JFVCrowdsale",
						"label": "tokensSold",
						"offset": 0,
						"slot": "9",
						"type": "t_uint256"
					},
					{
						"astId": 826,
						"contract": "preventa/JFVCrowdsale.sol:JFVCrowdsale",
						"label": "contributed",
						"offset": 0,
						"slot": "10",
						"type": "t_mapping(t_address,t_uint256)"
					},
					{
						"astId": 830,
						"contract": "preventa/JFVCrowdsale.sol:JFVCrowdsale",
						"label": "allocated",
						"offset": 0,
						"slot": "11",
						"type": "t_mapping(t_address,t_uint256)"
					},
					{
						"astId": 834,
						"contract": "preventa/JFVCrowdsale.sol:JFVCrowdsale",
						"label": "tgeClaimed",
						"offset": 0,
						"slot": "12",
						"type": "t_mapping(t_address,t_uint256)"
					},
					{
						"astId": 836,
						"contract": "preventa/JFVCrowdsale.sol:JFVCrowdsale",
						"label": "finalized",
						"offset": 0,
						"slot": "13",
						"type": "t_bool"
					},
					{
						"astId": 838,
						"contract": "preventa/JFVCrowdsale.sol:JFVCrowdsale",
						"label": "refunding",
						"offset": 1,
						"slot": "13",
						"type": "t_bool"
					}
				],
				"types": {
					"t_address": {
						"encoding": "inplace",
						"label": "address",
						"numberOfBytes": "20"
					},
					"t_bool": {
						"encoding": "inplace",
						"label": "bool",
						"numberOfBytes": "1"
					},
					"t_bytes32": {
						"encoding": "inplace",
						"label": "bytes32",
						"numberOfBytes": "32"
					},
					"t_mapping(t_address,t_bool)": {
						"encoding": "mapping",
						"key": "t_address",
						"label": "mapping(address => bool)",
						"numberOfBytes": "32",
						"value": "t_bool"
					},
					"t_mapping(t_address,t_uint256)": {
						"encoding": "mapping",
						"key": "t_address",
						"label": "mapping(address => uint256)",
						"numberOfBytes": "32",
						"value": "t_uint256"
					},
					"t_mapping(t_bytes32,t_struct(RoleData)21_storage)": {
						"encoding": "mapping",
						"key": "t_bytes32",
						"label": "mapping(bytes32 => struct AccessControl.RoleData)",
						"numberOfBytes": "32",
						"value": "t_struct(RoleData)21_storage"
					},
					"t_struct(RoleData)21_storage": {
						"encoding": "inplace",
						"label": "struct AccessControl.RoleData",
						"members": [
							{
								"astId": 18,
								"contract": "preventa/JFVCrowdsale.sol:JFVCrowdsale",
								"label": "hasRole",
								"offset": 0,
								"slot": "0",
								"type": "t_mapping(t_address,t_bool)"
							},
							{
								"astId": 20,
								"contract": "preventa/JFVCrowdsale.sol:JFVCrowdsale",
								"label": "adminRole",
								"offset": 0,
								"slot": "1",
								"type": "t_bytes32"
							}
						],
						"numberOfBytes": "64"
					},
					"t_uint256": {
						"encoding": "inplace",
						"label": "uint256",
						"numberOfBytes": "32"
					},
					"t_uint64": {
						"encoding": "inplace",
						"label": "uint64",
						"numberOfBytes": "8"
					}
				}
			},
			"userdoc": {
				"kind": "user",
				"methods": {},
				"version": 1
			}
		}
	}
}