{
	"preventa/JFVCrowdsale.sol": {
		"JFVCrowdsale": {
			"abi": [
				{
					"inputs": [
						{
							"internalType": "address",
							"name": "_token",
							"type": "address"
						},
						{
							"internalType": "address",
							"name": "_wallet",
							"type": "address"
						},
						{
							"internalType": "uint256",
							"name": "_rate",
							"type": "uint256"
						},
						{
							"internalType": "uint256",
							"name": "_softCap",
							"type": "uint256"
						},
						{
							"internalType": "uint256",
							"name": "_hardCap",
							"type": "uint256"
						},
						{
							"internalType": "uint256",
							"name": "_openingTime",
							"type": "uint256"
						},
						{
							"internalType": "uint256",
							"name": "_closingTime",
							"type": "uint256"
						},
						{
							"internalType": "uint256",
							"name": "_minContribution",
							"type": "uint256"
						},
						{
							"internalType": "uint256",
							"name": "_maxContribution",
							"type": "uint256"
						},
						{
							"internalType": "uint256",
							"name": "_tgeBps",
							"type": "uint256"
						},
						{
							"internalType": "address",
							"name": "_admin",
							"type": "address"
						}
					],
					"stateMutability": "nonpayable",
					"type": "constructor"
				},
				{
					"inputs": [],
					"name": "AccessControlBadConfirmation",
					"type": "error"
				},
				{
					"inputs": [
						{
							"internalType": "address",
							"name": "account",
							"type": "address"
						},
						{
							"internalType": "bytes32",
							"name": "neededRole",
							"type": "bytes32"
						}
					],
					"name": "AccessControlUnauthorizedAccount",
					"type": "error"
				},
				{
					"inputs": [],
					"name": "AlreadyFinalized",
					"type": "error"
				},
				{
					"inputs": [],
					"name": "CapExceeded",
					"type": "error"
				},
				{
					"inputs": [],
					"name": "EnforcedPause",
					"type": "error"
				},
				{
					"inputs": [],
					"name": "ExpectedPause",
					"type": "error"
				},
				{
					"inputs": [],
					"name": "InvalidParams",
					"type": "error"
				},
				{
					"inputs": [],
					"name": "MinMaxViolation",
					"type": "error"
				},
				{
					"inputs": [],
					"name": "MintFailed",
					"type": "error"
				},
				{
					"inputs": [],
					"name": "NothingToClaim",
					"type": "error"
				},
				{
					"inputs": [],
					"name": "ReentrancyGuardReentrantCall",
					"type": "error"
				},
				{
					"inputs": [],
					"name": "RefundsNotEnabled",
					"type": "error"
				},
				{
					"inputs": [],
					"name": "SaleNotClosed",
					"type": "error"
				},
				{
					"inputs": [],
					"name": "SaleNotOpen",
					"type": "error"
				},
				{
					"inputs": [],
					"name": "SoftCapNotReached",
					"type": "error"
				},
				{
					"inputs": [],
					"name": "ZeroAddress",
					"type": "error"
				},
				{
					"anonymous": false,
					"inputs": [
						{
							"indexed": false,
							"internalType": "bool",
							"name": "success",
							"type": "bool"
						}
					],
					"name": "Finalized",
					"type": "event"
				},
				{
					"anonymous": false,
					"inputs": [
						{
							"indexed": false,
							"internalType": "uint256",
							"name": "minContribution",
							"type": "uint256"
						},
						{
							"indexed": false,
							"internalType": "uint256",
							"name": "maxContribution",
							"type": "uint256"
						}
					],
					"name": "LimitsUpdated",
					"type": "event"
				},
				{
					"anonymous": false,
					"inputs": [
						{
							"indexed": false,
							"internalType": "address",
							"name": "account",
							"type": "address"
						}
					],
					"name": "Paused",
					"type": "event"
				},
				{
					"anonymous": false,
					"inputs": [
						{
							"indexed": false,
							"internalType": "uint256",
							"name": "oldRate",
							"type": "uint256"
						},
						{
							"indexed": false,
							"internalType": "uint256",
							"name": "newRate",
							"type": "uint256"
						}
					],
					"name": "RateUpdated",
					"type": "event"
				},
				{
					"anonymous": false,
					"inputs": [
						{
							"indexed": true,
							"internalType": "address",
							"name": "beneficiary",
							"type": "address"
						},
						{
							"indexed": false,
							"internalType": "uint256",
							"name": "valueETH",
							"type": "uint256"
						}
					],
					"name": "Refunded",
					"type": "event"
				},
				{
					"anonymous": false,
					"inputs": [],
					"name": "RefundsEnabled",
					"type": "event"
				},
				{
					"anonymous": false,
					"inputs": [
						{
							"indexed": true,
							"internalType": "bytes32",
							"name": "role",
							"type": "bytes32"
						},
						{
							"indexed": true,
							"internalType": "bytes32",
							"name": "previousAdminRole",
							"type": "bytes32"
						},
						{
							"indexed": true,
							"internalType": "bytes32",
							"name": "newAdminRole",
							"type": "bytes32"
						}
					],
					"name": "RoleAdminChanged",
					"type": "event"
				},
				{
					"anonymous": false,
					"inputs": [
						{
							"indexed": true,
							"internalType": "bytes32",
							"name": "role",
							"type": "bytes32"
						},
						{
							"indexed": true,
							"internalType": "address",
							"name": "account",
							"type": "address"
						},
						{
							"indexed": true,
							"internalType": "address",
							"name": "sender",
							"type": "address"
						}
					],
					"name": "RoleGranted",
					"type": "event"
				},
				{
					"anonymous": false,
					"inputs": [
						{
							"indexed": true,
							"internalType": "bytes32",
							"name": "role",
							"type": "bytes32"
						},
						{
							"indexed": true,
							"internalType": "address",
							"name": "account",
							"type": "address"
						},
						{
							"indexed": true,
							"internalType": "address",
							"name": "sender",
							"type": "address"
						}
					],
					"name": "RoleRevoked",
					"type": "event"
				},
				{
					"anonymous": false,
					"inputs": [
						{
							"indexed": true,
							"internalType": "address",
							"name": "beneficiary",
							"type": "address"
						},
						{
							"indexed": false,
							"internalType": "uint256",
							"name": "amountJFV",
							"type": "uint256"
						}
					],
					"name": "TGEClaimed",
					"type": "event"
				},
				{
					"anonymous": false,
					"inputs": [
						{
							"indexed": false,
							"internalType": "uint64",
							"name": "openingTime",
							"type": "uint64"
						},
						{
							"indexed": false,
							"internalType": "uint64",
							"name": "closingTime",
							"type": "uint64"
						}
					],
					"name": "TimesUpdated",
					"type": "event"
				},
				{
					"anonymous": false,
					"inputs": [
						{
							"indexed": true,
							"internalType": "address",
							"name": "buyer",
							"type": "address"
						},
						{
							"indexed": true,
							"internalType": "address",
							"name": "beneficiary",
							"type": "address"
						},
						{
							"indexed": false,
							"internalType": "uint256",
							"name": "valueETH",
							"type": "uint256"
						},
						{
							"indexed": false,
							"internalType": "uint256",
							"name": "amountJFV",
							"type": "uint256"
						}
					],
					"name": "TokensPurchased",
					"type": "event"
				},
				{
					"anonymous": false,
					"inputs": [
						{
							"indexed": false,
							"internalType": "address",
							"name": "account",
							"type": "address"
						}
					],
					"name": "Unpaused",
					"type": "event"
				},
				{
					"anonymous": false,
					"inputs": [
						{
							"indexed": false,
							"internalType": "address",
							"name": "oldWallet",
							"type": "address"
						},
						{
							"indexed": false,
							"internalType": "address",
							"name": "newWallet",
							"type": "address"
						}
					],
					"name": "WalletUpdated",
					"type": "event"
				},
				{
					"stateMutability": "payable",
					"type": "fallback"
				},
				{
					"inputs": [],
					"name": "CONFIG_ROLE",
					"outputs": [
						{
							"internalType": "bytes32",
							"name": "",
							"type": "bytes32"
						}
					],
					"stateMutability": "view",
					"type": "function"
				},
				{
					"inputs": [],
					"name": "DEFAULT_ADMIN_ROLE",
					"outputs": [
						{
							"internalType": "bytes32",
							"name": "",
							"type": "bytes32"
						}
					],
					"stateMutability": "view",
					"type": "function"
				},
				{
					"inputs": [],
					"name": "PAUSER_ROLE",
					"outputs": [
						{
							"internalType": "bytes32",
							"name": "",
							"type": "bytes32"
						}
					],
					"stateMutability": "view",
					"type": "function"
				},
				{
					"inputs": [
						{
							"internalType": "address",
							"name": "",
							"type": "address"
						}
					],
					"name": "allocated",
					"outputs": [
						{
							"internalType": "uint256",
							"name": "",
							"type": "uint256"
						}
					],
					"stateMutability": "view",
					"type": "function"
				},
				{
					"inputs": [
						{
							"internalType": "address",
							"name": "beneficiary",
							"type": "address"
						}
					],
					"name": "buyTokens",
					"outputs": [],
					"stateMutability": "payable",
					"type": "function"
				},
				{
					"inputs": [],
					"name": "claimRefunds",
					"outputs": [],
					"stateMutability": "nonpayable",
					"type": "function"
				},
				{
					"inputs": [],
					"name": "claimTGE",
					"outputs": [],
					"stateMutability": "nonpayable",
					"type": "function"
				},
				{
					"inputs": [],
					"name": "closingTime",
					"outputs": [
						{
							"internalType": "uint256",
							"name": "",
							"type": "uint256"
						}
					],
					"stateMutability": "view",
					"type": "function"
				},
				{
					"inputs": [
						{
							"internalType": "address",
							"name": "",
							"type": "address"
						}
					],
					"name": "contributed",
					"outputs": [
						{
							"internalType": "uint256",
							"name": "",
							"type": "uint256"
						}
					],
					"stateMutability": "view",
					"type": "function"
				},
				{
					"inputs": [],
					"name": "finalize",
					"outputs": [],
					"stateMutability": "nonpayable",
					"type": "function"
				},
				{
					"inputs": [],
					"name": "finalized",
					"outputs": [
						{
							"internalType": "bool",
							"name": "",
							"type": "bool"
						}
					],
					"stateMutability": "view",
					"type": "function"
				},
				{
					"inputs": [
						{
							"internalType": "bytes32",
							"name": "role",
							"type": "bytes32"
						}
					],
					"name": "getRoleAdmin",
					"outputs": [
						{
							"internalType": "bytes32",
							"name": "",
							"type": "bytes32"
						}
					],
					"stateMutability": "view",
					"type": "function"
				},
				{
					"inputs": [
						{
							"internalType": "bytes32",
							"name": "role",
							"type": "bytes32"
						},
						{
							"internalType": "address",
							"name": "account",
							"type": "address"
						}
					],
					"name": "grantRole",
					"outputs": [],
					"stateMutability": "nonpayable",
					"type": "function"
				},
				{
					"inputs": [],
					"name": "hardCap",
					"outputs": [
						{
							"internalType": "uint256",
							"name": "",
							"type": "uint256"
						}
					],
					"stateMutability": "view",
					"type": "function"
				},
				{
					"inputs": [
						{
							"internalType": "bytes32",
							"name": "role",
							"type": "bytes32"
						},
						{
							"internalType": "address",
							"name": "account",
							"type": "address"
						}
					],
					"name": "hasRole",
					"outputs": [
						{
							"internalType": "bool",
							"name": "",
							"type": "bool"
						}
					],
					"stateMutability": "view",
					"type": "function"
				},
				{
					"inputs": [],
					"name": "isClosed",
					"outputs": [
						{
							"internalType": "bool",
							"name": "",
							"type": "bool"
						}
					],
					"stateMutability": "view",
					"type": "function"
				},
				{
					"inputs": [],
					"name": "isOpen",
					"outputs": [
						{
							"internalType": "bool",
							"name": "",
							"type": "bool"
						}
					],
					"stateMutability": "view",
					"type": "function"
				},
				{
					"inputs": [],
					"name": "maxContribution",
					"outputs": [
						{
							"internalType": "uint256",
							"name": "",
							"type": "uint256"
						}
					],
					"stateMutability": "view",
					"type": "function"
				},
				{
					"inputs": [],
					"name": "minContribution",
					"outputs": [
						{
							"internalType": "uint256",
							"name": "",
							"type": "uint256"
						}
					],
					"stateMutability": "view",
					"type": "function"
				},
				{
					"inputs": [],
					"name": "openingTime",
					"outputs": [
						{
							"internalType": "uint256",
							"name": "",
							"type": "uint256"
						}
					],
					"stateMutability": "view",
					"type": "function"
				},
				{
					"inputs": [],
					"name": "pause",
					"outputs": [],
					"stateMutability": "nonpayable",
					"type": "function"
				},
				{
					"inputs": [],
					"name": "paused",
					"outputs": [
						{
							"internalType": "bool",
							"name": "",
							"type": "bool"
						}
					],
					"stateMutability": "view",
					"type": "function"
				},
				{
					"inputs": [],
					"name": "rate",
					"outputs": [
						{
							"internalType": "uint256",
							"name": "",
							"type": "uint256"
						}
					],
					"stateMutability": "view",
					"type": "function"
				},
				{
					"inputs": [],
					"name": "refunding",
					"outputs": [
						{
							"internalType": "bool",
							"name": "",
							"type": "bool"
						}
					],
					"stateMutability": "view",
					"type": "function"
				},
				{
					"inputs": [
						{
							"internalType": "bytes32",
							"name": "role",
							"type": "bytes32"
						},
						{
							"internalType": "address",
							"name": "callerConfirmation",
							"type": "address"
						}
					],
					"name": "renounceRole",
					"outputs": [],
					"stateMutability": "nonpayable",
					"type": "function"
				},
				{
					"inputs": [
						{
							"internalType": "bytes32",
							"name": "role",
							"type": "bytes32"
						},
						{
							"internalType": "address",
							"name": "account",
							"type": "address"
						}
					],
					"name": "revokeRole",
					"outputs": [],
					"stateMutability": "nonpayable",
					"type": "function"
				},
				{
					"inputs": [
						{
							"internalType": "uint256",
							"name": "min_",
							"type": "uint256"
						},
						{
							"internalType": "uint256",
							"name": "max_",
							"type": "uint256"
						}
					],
					"name": "setLimits",
					"outputs": [],
					"stateMutability": "nonpayable",
					"type": "function"
				},
				{
					"inputs": [
						{
							"internalType": "uint256",
							"name": "newRate",
							"type": "uint256"
						}
					],
					"name": "setRate",
					"outputs": [],
					"stateMutability": "nonpayable",
					"type": "function"
				},
				{
					"inputs": [
						{
							"internalType": "uint64",
							"name": "start_",
							"type": "uint64"
						},
						{
							"internalType": "uint64",
							"name": "end_",
							"type": "uint64"
						}
					],
					"name": "setTimes",
					"outputs": [],
					"stateMutability": "nonpayable",
					"type": "function"
				},
				{
					"inputs": [
						{
							"internalType": "address",
							"name": "newWallet",
							"type": "address"
						}
					],
					"name": "setWallet",
					"outputs": [],
					"stateMutability": "nonpayable",
					"type": "function"
				},
				{
					"inputs": [],
					"name": "softCap",
					"outputs": [
						{
							"internalType": "uint256",
							"name": "",
							"type": "uint256"
						}
					],
					"stateMutability": "view",
					"type": "function"
				},
				{
					"inputs": [
						{
							"internalType": "bytes4",
							"name": "interfaceId",
							"type": "bytes4"
						}
					],
					"name": "supportsInterface",
					"outputs": [
						{
							"internalType": "bool",
							"name": "",
							"type": "bool"
						}
					],
					"stateMutability": "view",
					"type": "function"
				},
				{
					"inputs": [],
					"name": "tgeBps",
					"outputs": [
						{
							"internalType": "uint256",
							"name": "",
							"type": "uint256"
						}
					],
					"stateMutability": "view",
					"type": "function"
				},
				{
					"inputs": [
						{
							"internalType": "address",
							"name": "user",
							"type": "address"
						}
					],
					"name": "tgeClaimableOf",
					"outputs": [
						{
							"internalType": "uint256",
							"name": "",
							"type": "uint256"
						}
					],
					"stateMutability": "view",
					"type": "function"
				},
				{
					"inputs": [
						{
							"internalType": "address",
							"name": "",
							"type": "address"
						}
					],
					"name": "tgeClaimed",
					"outputs": [
						{
							"internalType": "uint256",
							"name": "",
							"type": "uint256"
						}
					],
					"stateMutability": "view",
					"type": "function"
				},
				{
					"inputs": [],
					"name": "token",
					"outputs": [
						{
							"internalType": "contract IJFVToken",
							"name": "",
							"type": "address"
						}
					],
					"stateMutability": "view",
					"type": "function"
				},
				{
					"inputs": [],
					"name": "tokensSold",
					"outputs": [
						{
							"internalType": "uint256",
							"name": "",
							"type": "uint256"
						}
					],
					"stateMutability": "view",
					"type": "function"
				},
				{
					"inputs": [],
					"name": "unpause",
					"outputs": [],
					"stateMutability": "nonpayable",
					"type": "function"
				},
				{
					"inputs": [],
					"name": "wallet",
					"outputs": [
						{
							"internalType": "address",
							"name": "",
							"type": "address"
						}
					],
					"stateMutability": "view",
					"type": "function"
				},
				{
					"inputs": [],
					"name": "weiRaised",
					"outputs": [
						{
							"internalType": "uint256",
							"name": "",
							"type": "uint256"
						}
					],
					"stateMutability": "view",
					"type": "function"
				},
				{
					"inputs": [],
					"name": "withdrawETH",
					"outputs": [],
					"stateMutability": "nonpayable",
					"type": "function"
				},
				{
					"stateMutability": "payable",
					"type": "receive"
				}
			],
			"devdoc": {
				"errors": {
					"AccessControlBadConfirmation()": [
						{
							"details": "The caller of a function is not the expected one. NOTE: Don't confuse with {AccessControlUnauthorizedAccount}."
						}
					],
					"AccessControlUnauthorizedAccount(address,bytes32)": [
						{
							"details": "The `account` is missing a role."
						}
					],
					"EnforcedPause()": [
						{
							"details": "The operation failed because the contract is paused."
						}
					],
					"ExpectedPause()": [
						{
							"details": "The operation failed because the contract is not paused."
						}
					],
					"ReentrancyGuardReentrantCall()": [
						{
							"details": "Unauthorized reentrant call."
						}
					]
				},
				"events": {
					"Paused(address)": {
						"details": "Emitted when the pause is triggered by `account`."
					},
					"RoleAdminChanged(bytes32,bytes32,bytes32)": {
						"details": "Emitted when `newAdminRole` is set as ``role``'s admin role, replacing `previousAdminRole` `DEFAULT_ADMIN_ROLE` is the starting admin for all roles, despite {RoleAdminChanged} not being emitted to signal this."
					},
					"RoleGranted(bytes32,address,address)": {
						"details": "Emitted when `account` is granted `role`. `sender` is the account that originated the contract call. This account bears the admin role (for the granted role). Expected in cases where the role was granted using the internal {AccessControl-_grantRole}."
					},
					"RoleRevoked(bytes32,address,address)": {
						"details": "Emitted when `account` is revoked `role`. `sender` is the account that originated the contract call:   - if using `revokeRole`, it is the admin role bearer   - if using `renounceRole`, it is the role bearer (i.e. `account`)"
					},
					"Unpaused(address)": {
						"details": "Emitted when the pause is lifted by `account`."
					}
				},
				"kind": "dev",
				"methods": {
					"getRoleAdmin(bytes32)": {
						"details": "Returns the admin role that controls `role`. See {grantRole} and {revokeRole}. To change a role's admin, use {_setRoleAdmin}."
					},
					"grantRole(bytes32,address)": {
						"details": "Grants `role` to `account`. If `account` had not been already granted `role`, emits a {RoleGranted} event. Requirements: - the caller must have ``role``'s admin role. May emit a {RoleGranted} event."
					},
					"hasRole(bytes32,address)": {
						"details": "Returns `true` if `account` has been granted `role`."
					},
					"paused()": {
						"details": "Returns true if the contract is paused, and false otherwise."
					},
					"renounceRole(bytes32,address)": {
						"details": "Revokes `role` from the calling account. Roles are often managed via {grantRole} and {revokeRole}: this function's purpose is to provide a mechanism for accounts to lose their privileges if they are compromised (such as when a trusted device is misplaced). If the calling account had been revoked `role`, emits a {RoleRevoked} event. Requirements: - the caller must be `callerConfirmation`. May emit a {RoleRevoked} event."
					},
					"revokeRole(bytes32,address)": {
						"details": "Revokes `role` from `account`. If `account` had been granted `role`, emits a {RoleRevoked} event. Requirements: - the caller must have ``role``'s admin role. May emit a {RoleRevoked} event."
					},
					"supportsInterface(bytes4)": {
						"details": "See {IERC165-supportsInterface}."
					}
				},
				"version": 1
			},
			"evm": {
				"assembly": "    /* \"preventa/JFVCrowdsale.sol\":317:9203  contract JFVCrowdsale is ReentrancyGuard, Pausable, AccessControl {... */\n  mstore(0x40, 0x0100)\n    /* \"preventa/JFVCrowdsale.sol\":2610:4241  constructor(... */\n  callvalue\n  dup1\n  iszero\n  tag_1\n  jumpi\n  revert(0x00, 0x00)\ntag_1:\n  pop\n  mload(0x40)\n  sub(codesize, bytecodeSize)\n  dup1\n  bytecodeSize\n  dup4\n  codecopy\n  dup2\n  dup2\n  add\n  0x40\n  mstore\n  dup2\n  add\n  swap1\n  tag_2\n  swap2\n  swap1\n  tag_3\n  jump\t// in\ntag_2:\n    /* \"@openzeppelin/contracts/utils/ReentrancyGuard.sol\":1857:1858  1 */\n  0x01\n    /* \"@openzeppelin/contracts/utils/ReentrancyGuard.sol\":2061:2068  _status */\n  0x00\n    /* \"@openzeppelin/contracts/utils/ReentrancyGuard.sol\":2061:2082  _status = NOT_ENTERED */\n  dup2\n  swap1\n  sstore\n  pop\n    /* \"preventa/JFVCrowdsale.sol\":3004:3005  0 */\n  0x00\n    /* \"preventa/JFVCrowdsale.sol\":2986:3006  _token != address(0) */\n  0xffffffffffffffffffffffffffffffffffffffff\n  and\n    /* \"preventa/JFVCrowdsale.sol\":2986:2992  _token */\n  dup12\n    /* \"preventa/JFVCrowdsale.sol\":2986:3006  _token != address(0) */\n  0xffffffffffffffffffffffffffffffffffffffff\n  and\n  sub\n    /* \"preventa/JFVCrowdsale.sol\":2978:3032  require(_token != address(0), \"Token address is zero\") */\n  tag_8\n  jumpi\n  mload(0x40)\n  0x08c379a000000000000000000000000000000000000000000000000000000000\n  dup2\n  mstore\n  0x04\n  add\n  tag_9\n  swap1\n  tag_10\n  jump\t// in\ntag_9:\n  mload(0x40)\n  dup1\n  swap2\n  sub\n  swap1\n  revert\ntag_8:\n    /* \"preventa/JFVCrowdsale.sol\":3069:3070  0 */\n  0x00\n    /* \"preventa/JFVCrowdsale.sol\":3050:3071  _wallet != address(0) */\n  0xffffffffffffffffffffffffffffffffffffffff\n  and\n    /* \"preventa/JFVCrowdsale.sol\":3050:3057  _wallet */\n  dup11\n    /* \"preventa/JFVCrowdsale.sol\":3050:3071  _wallet != address(0) */\n  0xffffffffffffffffffffffffffffffffffffffff\n  and\n  sub\n    /* \"preventa/JFVCrowdsale.sol\":3042:3098  require(_wallet != address(0), \"Wallet address is zero\") */\n  tag_11\n  jumpi\n  mload(0x40)\n  0x08c379a000000000000000000000000000000000000000000000000000000000\n  dup2\n  mstore\n  0x04\n  add\n  tag_12\n  swap1\n  tag_13\n  jump\t// in\ntag_12:\n  mload(0x40)\n  dup1\n  swap2\n  sub\n  swap1\n  revert\ntag_11:\n    /* \"preventa/JFVCrowdsale.sol\":3124:3125  0 */\n  0x00\n    /* \"preventa/JFVCrowdsale.sol\":3116:3121  _rate */\n  dup10\n    /* \"preventa/JFVCrowdsale.sol\":3116:3125  _rate > 0 */\n  gt\n    /* \"preventa/JFVCrowdsale.sol\":3108:3142  require(_rate > 0, \"Rate is zero\") */\n  tag_14\n  jumpi\n  mload(0x40)\n  0x08c379a000000000000000000000000000000000000000000000000000000000\n  dup2\n  mstore\n  0x04\n  add\n  tag_15\n  swap1\n  tag_16\n  jump\t// in\ntag_15:\n  mload(0x40)\n  dup1\n  swap2\n  sub\n  swap1\n  revert\ntag_14:\n    /* \"preventa/JFVCrowdsale.sol\":3171:3172  0 */\n  0x00\n    /* \"preventa/JFVCrowdsale.sol\":3160:3168  _softCap */\n  dup9\n    /* \"preventa/JFVCrowdsale.sol\":3160:3172  _softCap > 0 */\n  gt\n    /* \"preventa/JFVCrowdsale.sol\":3152:3193  require(_softCap > 0, \"Soft cap is zero\") */\n  tag_17\n  jumpi\n  mload(0x40)\n  0x08c379a000000000000000000000000000000000000000000000000000000000\n  dup2\n  mstore\n  0x04\n  add\n  tag_18\n  swap1\n  tag_19\n  jump\t// in\ntag_18:\n  mload(0x40)\n  dup1\n  swap2\n  sub\n  swap1\n  revert\ntag_17:\n    /* \"preventa/JFVCrowdsale.sol\":3222:3223  0 */\n  0x00\n    /* \"preventa/JFVCrowdsale.sol\":3211:3219  _hardCap */\n  dup8\n    /* \"preventa/JFVCrowdsale.sol\":3211:3223  _hardCap > 0 */\n  gt\n    /* \"preventa/JFVCrowdsale.sol\":3203:3244  require(_hardCap > 0, \"Hard cap is zero\") */\n  tag_20\n  jumpi\n  mload(0x40)\n  0x08c379a000000000000000000000000000000000000000000000000000000000\n  dup2\n  mstore\n  0x04\n  add\n  tag_21\n  swap1\n  tag_22\n  jump\t// in\ntag_21:\n  mload(0x40)\n  dup1\n  swap2\n  sub\n  swap1\n  revert\ntag_20:\n    /* \"preventa/JFVCrowdsale.sol\":3274:3282  _hardCap */\n  dup7\n    /* \"preventa/JFVCrowdsale.sol\":3262:3270  _softCap */\n  dup9\n    /* \"preventa/JFVCrowdsale.sol\":3262:3282  _softCap <= _hardCap */\n  gt\n  iszero\n    /* \"preventa/JFVCrowdsale.sol\":3254:3312  require(_softCap <= _hardCap, \"Soft cap exceeds hard cap\") */\n  tag_23\n  jumpi\n  mload(0x40)\n  0x08c379a000000000000000000000000000000000000000000000000000000000\n  dup2\n  mstore\n  0x04\n  add\n  tag_24\n  swap1\n  tag_25\n  jump\t// in\ntag_24:\n  mload(0x40)\n  dup1\n  swap2\n  sub\n  swap1\n  revert\ntag_23:\n    /* \"preventa/JFVCrowdsale.sol\":3346:3361  block.timestamp */\n  timestamp\n    /* \"preventa/JFVCrowdsale.sol\":3330:3342  _openingTime */\n  dup7\n    /* \"preventa/JFVCrowdsale.sol\":3330:3361  _openingTime >= block.timestamp */\n  lt\n  iszero\n    /* \"preventa/JFVCrowdsale.sol\":3322:3384  require(_openingTime >= block.timestamp, \"Opening before now\") */\n  tag_26\n  jumpi\n  mload(0x40)\n  0x08c379a000000000000000000000000000000000000000000000000000000000\n  dup2\n  mstore\n  0x04\n  add\n  tag_27\n  swap1\n  tag_28\n  jump\t// in\ntag_27:\n  mload(0x40)\n  dup1\n  swap2\n  sub\n  swap1\n  revert\ntag_26:\n    /* \"preventa/JFVCrowdsale.sol\":3417:3429  _openingTime */\n  dup6\n    /* \"preventa/JFVCrowdsale.sol\":3402:3414  _closingTime */\n  dup6\n    /* \"preventa/JFVCrowdsale.sol\":3402:3429  _closingTime > _openingTime */\n  gt\n    /* \"preventa/JFVCrowdsale.sol\":3394:3456  require(_closingTime > _openingTime, \"Closing before opening\") */\n  tag_29\n  jumpi\n  mload(0x40)\n  0x08c379a000000000000000000000000000000000000000000000000000000000\n  dup2\n  mstore\n  0x04\n  add\n  tag_30\n  swap1\n  tag_31\n  jump\t// in\ntag_30:\n  mload(0x40)\n  dup1\n  swap2\n  sub\n  swap1\n  revert\ntag_29:\n    /* \"preventa/JFVCrowdsale.sol\":3493:3494  0 */\n  0x00\n    /* \"preventa/JFVCrowdsale.sol\":3474:3490  _minContribution */\n  dup5\n    /* \"preventa/JFVCrowdsale.sol\":3474:3494  _minContribution > 0 */\n  gt\n    /* \"preventa/JFVCrowdsale.sol\":3466:3523  require(_minContribution > 0, \"Min contribution is zero\") */\n  tag_32\n  jumpi\n  mload(0x40)\n  0x08c379a000000000000000000000000000000000000000000000000000000000\n  dup2\n  mstore\n  0x04\n  add\n  tag_33\n  swap1\n  tag_34\n  jump\t// in\ntag_33:\n  mload(0x40)\n  dup1\n  swap2\n  sub\n  swap1\n  revert\ntag_32:\n    /* \"preventa/JFVCrowdsale.sol\":3560:3561  0 */\n  0x00\n    /* \"preventa/JFVCrowdsale.sol\":3541:3557  _maxContribution */\n  dup4\n    /* \"preventa/JFVCrowdsale.sol\":3541:3561  _maxContribution > 0 */\n  gt\n    /* \"preventa/JFVCrowdsale.sol\":3533:3590  require(_maxContribution > 0, \"Max contribution is zero\") */\n  tag_35\n  jumpi\n  mload(0x40)\n  0x08c379a000000000000000000000000000000000000000000000000000000000\n  dup2\n  mstore\n  0x04\n  add\n  tag_36\n  swap1\n  tag_37\n  jump\t// in\ntag_36:\n  mload(0x40)\n  dup1\n  swap2\n  sub\n  swap1\n  revert\ntag_35:\n    /* \"preventa/JFVCrowdsale.sol\":3628:3644  _maxContribution */\n  dup3\n    /* \"preventa/JFVCrowdsale.sol\":3608:3624  _minContribution */\n  dup5\n    /* \"preventa/JFVCrowdsale.sol\":3608:3644  _minContribution <= _maxContribution */\n  gt\n  iszero\n    /* \"preventa/JFVCrowdsale.sol\":3600:3658  require(_minContribution <= _maxContribution, \"Min > Max\") */\n  tag_38\n  jumpi\n  mload(0x40)\n  0x08c379a000000000000000000000000000000000000000000000000000000000\n  dup2\n  mstore\n  0x04\n  add\n  tag_39\n  swap1\n  tag_40\n  jump\t// in\ntag_39:\n  mload(0x40)\n  dup1\n  swap2\n  sub\n  swap1\n  revert\ntag_38:\n    /* \"preventa/JFVCrowdsale.sol\":3687:3693  10_000 */\n  0x2710\n    /* \"preventa/JFVCrowdsale.sol\":3676:3683  _tgeBps */\n  dup3\n    /* \"preventa/JFVCrowdsale.sol\":3676:3693  _tgeBps <= 10_000 */\n  gt\n  iszero\n    /* \"preventa/JFVCrowdsale.sol\":3668:3713  require(_tgeBps <= 10_000, \"TGE bps > 10000\") */\n  tag_41\n  jumpi\n  mload(0x40)\n  0x08c379a000000000000000000000000000000000000000000000000000000000\n  dup2\n  mstore\n  0x04\n  add\n  tag_42\n  swap1\n  tag_43\n  jump\t// in\ntag_42:\n  mload(0x40)\n  dup1\n  swap2\n  sub\n  swap1\n  revert\ntag_41:\n    /* \"preventa/JFVCrowdsale.sol\":3749:3750  0 */\n  0x00\n    /* \"preventa/JFVCrowdsale.sol\":3731:3751  _admin != address(0) */\n  0xffffffffffffffffffffffffffffffffffffffff\n  and\n    /* \"preventa/JFVCrowdsale.sol\":3731:3737  _admin */\n  dup2\n    /* \"preventa/JFVCrowdsale.sol\":3731:3751  _admin != address(0) */\n  0xffffffffffffffffffffffffffffffffffffffff\n  and\n  sub\n    /* \"preventa/JFVCrowdsale.sol\":3723:3777  require(_admin != address(0), \"Admin address is zero\") */\n  tag_44\n  jumpi\n  mload(0x40)\n  0x08c379a000000000000000000000000000000000000000000000000000000000\n  dup2\n  mstore\n  0x04\n  add\n  tag_45\n  swap1\n  tag_46\n  jump\t// in\ntag_45:\n  mload(0x40)\n  dup1\n  swap2\n  sub\n  swap1\n  revert\ntag_44:\n    /* \"preventa/JFVCrowdsale.sol\":3806:3812  _token */\n  dup11\n    /* \"preventa/JFVCrowdsale.sol\":3788:3813  token = IJFVToken(_token) */\n  0xffffffffffffffffffffffffffffffffffffffff\n  and\n  0x80\n  dup2\n  0xffffffffffffffffffffffffffffffffffffffff\n  and\n  dup2\n  mstore\n  pop\n  pop\n    /* \"preventa/JFVCrowdsale.sol\":3832:3839  _wallet */\n  dup10\n    /* \"preventa/JFVCrowdsale.sol\":3823:3829  wallet */\n  0x03\n  0x00\n    /* \"preventa/JFVCrowdsale.sol\":3823:3839  wallet = _wallet */\n  0x0100\n  exp\n  dup2\n  sload\n  dup2\n  0xffffffffffffffffffffffffffffffffffffffff\n  mul\n  not\n  and\n  swap1\n  dup4\n  0xffffffffffffffffffffffffffffffffffffffff\n  and\n  mul\n  or\n  swap1\n  sstore\n  pop\n    /* \"preventa/JFVCrowdsale.sol\":3856:3861  _rate */\n  dup9\n    /* \"preventa/JFVCrowdsale.sol\":3849:3853  rate */\n  0x04\n    /* \"preventa/JFVCrowdsale.sol\":3849:3861  rate = _rate */\n  dup2\n  swap1\n  sstore\n  pop\n    /* \"preventa/JFVCrowdsale.sol\":3881:3889  _softCap */\n  dup8\n    /* \"preventa/JFVCrowdsale.sol\":3871:3889  softCap = _softCap */\n  0xa0\n  dup2\n  dup2\n  mstore\n  pop\n  pop\n    /* \"preventa/JFVCrowdsale.sol\":3909:3917  _hardCap */\n  dup7\n    /* \"preventa/JFVCrowdsale.sol\":3899:3917  hardCap = _hardCap */\n  0xc0\n  dup2\n  dup2\n  mstore\n  pop\n  pop\n    /* \"preventa/JFVCrowdsale.sol\":3941:3953  _openingTime */\n  dup6\n    /* \"preventa/JFVCrowdsale.sol\":3927:3938  openingTime */\n  0x05\n    /* \"preventa/JFVCrowdsale.sol\":3927:3953  openingTime = _openingTime */\n  dup2\n  swap1\n  sstore\n  pop\n    /* \"preventa/JFVCrowdsale.sol\":3977:3989  _closingTime */\n  dup5\n    /* \"preventa/JFVCrowdsale.sol\":3963:3974  closingTime */\n  0x06\n    /* \"preventa/JFVCrowdsale.sol\":3963:3989  closingTime = _closingTime */\n  dup2\n  swap1\n  sstore\n  pop\n    /* \"preventa/JFVCrowdsale.sol\":4017:4033  _minContribution */\n  dup4\n    /* \"preventa/JFVCrowdsale.sol\":3999:4014  minContribution */\n  0x07\n    /* \"preventa/JFVCrowdsale.sol\":3999:4033  minContribution = _minContribution */\n  dup2\n  swap1\n  sstore\n  pop\n    /* \"preventa/JFVCrowdsale.sol\":4061:4077  _maxContribution */\n  dup3\n    /* \"preventa/JFVCrowdsale.sol\":4043:4058  maxContribution */\n  0x08\n    /* \"preventa/JFVCrowdsale.sol\":4043:4077  maxContribution = _maxContribution */\n  dup2\n  swap1\n  sstore\n  pop\n    /* \"preventa/JFVCrowdsale.sol\":4096:4103  _tgeBps */\n  dup2\n    /* \"preventa/JFVCrowdsale.sol\":4087:4103  tgeBps = _tgeBps */\n  0xe0\n  dup2\n  dup2\n  mstore\n  pop\n  pop\n    /* \"preventa/JFVCrowdsale.sol\":4114:4152  _grantRole(DEFAULT_ADMIN_ROLE, _admin) */\n  tag_47\n    /* \"@openzeppelin/contracts/access/AccessControl.sol\":2232:2236  0x00 */\n  0x00\n    /* \"preventa/JFVCrowdsale.sol\":4125:4143  DEFAULT_ADMIN_ROLE */\n  0x00\n  shl\n    /* \"preventa/JFVCrowdsale.sol\":4145:4151  _admin */\n  dup3\n    /* \"preventa/JFVCrowdsale.sol\":4114:4124  _grantRole */\n  shl(0x20, tag_48)\n    /* \"preventa/JFVCrowdsale.sol\":4114:4152  _grantRole(DEFAULT_ADMIN_ROLE, _admin) */\n  0x20\n  shr\n  jump\t// in\ntag_47:\n  pop\n    /* \"preventa/JFVCrowdsale.sol\":4162:4193  _grantRole(PAUSER_ROLE, _admin) */\n  tag_49\n    /* \"preventa/JFVCrowdsale.sol\":440:464  keccak256(\"PAUSER_ROLE\") */\n  0x65d7a28e3265b37a6474929f336521b332c1681b933f6cb9f3376673440d862a\n    /* \"preventa/JFVCrowdsale.sol\":4186:4192  _admin */\n  dup3\n    /* \"preventa/JFVCrowdsale.sol\":4162:4172  _grantRole */\n  shl(0x20, tag_48)\n    /* \"preventa/JFVCrowdsale.sol\":4162:4193  _grantRole(PAUSER_ROLE, _admin) */\n  0x20\n  shr\n  jump\t// in\ntag_49:\n  pop\n    /* \"preventa/JFVCrowdsale.sol\":4203:4234  _grantRole(CONFIG_ROLE, _admin) */\n  tag_50\n    /* \"preventa/JFVCrowdsale.sol\":508:532  keccak256(\"CONFIG_ROLE\") */\n  0x82db594318110a04b6349ce48645aa69f0892751bc893d15e61d9e2b9c4630f5\n    /* \"preventa/JFVCrowdsale.sol\":4227:4233  _admin */\n  dup3\n    /* \"preventa/JFVCrowdsale.sol\":4203:4213  _grantRole */\n  shl(0x20, tag_48)\n    /* \"preventa/JFVCrowdsale.sol\":4203:4234  _grantRole(CONFIG_ROLE, _admin) */\n  0x20\n  shr\n  jump\t// in\ntag_50:\n  pop\n    /* \"preventa/JFVCrowdsale.sol\":2610:4241  constructor(... */\n  pop\n  pop\n  pop\n  pop\n  pop\n  pop\n  pop\n  pop\n  pop\n  pop\n  pop\n    /* \"preventa/JFVCrowdsale.sol\":317:9203  contract JFVCrowdsale is ReentrancyGuard, Pausable, AccessControl {... */\n  jump(tag_51)\n    /* \"@openzeppelin/contracts/access/AccessControl.sol\":6179:6495  function _grantRole(bytes32 role, address account) internal virtual returns (bool) {... */\ntag_48:\n    /* \"@openzeppelin/contracts/access/AccessControl.sol\":6256:6260  bool */\n  0x00\n    /* \"@openzeppelin/contracts/access/AccessControl.sol\":6277:6299  hasRole(role, account) */\n  tag_53\n    /* \"@openzeppelin/contracts/access/AccessControl.sol\":6285:6289  role */\n  dup4\n    /* \"@openzeppelin/contracts/access/AccessControl.sol\":6291:6298  account */\n  dup4\n    /* \"@openzeppelin/contracts/access/AccessControl.sol\":6277:6284  hasRole */\n  shl(0x20, tag_54)\n    /* \"@openzeppelin/contracts/access/AccessControl.sol\":6277:6299  hasRole(role, account) */\n  0x20\n  shr\n  jump\t// in\ntag_53:\n    /* \"@openzeppelin/contracts/access/AccessControl.sol\":6272:6489  if (!hasRole(role, account)) {... */\n  tag_55\n  jumpi\n    /* \"@openzeppelin/contracts/access/AccessControl.sol\":6347:6351  true */\n  0x01\n    /* \"@openzeppelin/contracts/access/AccessControl.sol\":6315:6321  _roles */\n  0x02\n    /* \"@openzeppelin/contracts/access/AccessControl.sol\":6315:6327  _roles[role] */\n  0x00\n    /* \"@openzeppelin/contracts/access/AccessControl.sol\":6322:6326  role */\n  dup6\n    /* \"@openzeppelin/contracts/access/AccessControl.sol\":6315:6327  _roles[role] */\n  dup2\n  mstore\n  0x20\n  add\n  swap1\n  dup2\n  mstore\n  0x20\n  add\n  0x00\n  keccak256\n    /* \"@openzeppelin/contracts/access/AccessControl.sol\":6315:6335  _roles[role].hasRole */\n  0x00\n  add\n    /* \"@openzeppelin/contracts/access/AccessControl.sol\":6315:6344  _roles[role].hasRole[account] */\n  0x00\n    /* \"@openzeppelin/contracts/access/AccessControl.sol\":6336:6343  account */\n  dup5\n    /* \"@openzeppelin/contracts/access/AccessControl.sol\":6315:6344  _roles[role].hasRole[account] */\n  0xffffffffffffffffffffffffffffffffffffffff\n  and\n  0xffffffffffffffffffffffffffffffffffffffff\n  and\n  dup2\n  mstore\n  0x20\n  add\n  swap1\n  dup2\n  mstore\n  0x20\n  add\n  0x00\n  keccak256\n  0x00\n    /* \"@openzeppelin/contracts/access/AccessControl.sol\":6315:6351  _roles[role].hasRole[account] = true */\n  0x0100\n  exp\n  dup2\n  sload\n  dup2\n  0xff\n  mul\n  not\n  and\n  swap1\n  dup4\n  iszero\n  iszero\n  mul\n  or\n  swap1\n  sstore\n  pop\n    /* \"@openzeppelin/contracts/access/AccessControl.sol\":6397:6409  _msgSender() */\n  tag_56\n    /* \"@openzeppelin/contracts/access/AccessControl.sol\":6397:6407  _msgSender */\n  shl(0x20, tag_57)\n    /* \"@openzeppelin/contracts/access/AccessControl.sol\":6397:6409  _msgSender() */\n  0x20\n  shr\n  jump\t// in\ntag_56:\n    /* \"@openzeppelin/contracts/access/AccessControl.sol\":6370:6410  RoleGranted(role, account, _msgSender()) */\n  0xffffffffffffffffffffffffffffffffffffffff\n  and\n    /* \"@openzeppelin/contracts/access/AccessControl.sol\":6388:6395  account */\n  dup3\n    /* \"@openzeppelin/contracts/access/AccessControl.sol\":6370:6410  RoleGranted(role, account, _msgSender()) */\n  0xffffffffffffffffffffffffffffffffffffffff\n  and\n    /* \"@openzeppelin/contracts/access/AccessControl.sol\":6382:6386  role */\n  dup5\n    /* \"@openzeppelin/contracts/access/AccessControl.sol\":6370:6410  RoleGranted(role, account, _msgSender()) */\n  0x2f8788117e7eff1d82e926ec794901d17c78024a50270940304540a733656f0d\n  mload(0x40)\n  mload(0x40)\n  dup1\n  swap2\n  sub\n  swap1\n  log4\n    /* \"@openzeppelin/contracts/access/AccessControl.sol\":6431:6435  true */\n  0x01\n    /* \"@openzeppelin/contracts/access/AccessControl.sol\":6424:6435  return true */\n  swap1\n  pop\n  jump(tag_52)\n    /* \"@openzeppelin/contracts/access/AccessControl.sol\":6272:6489  if (!hasRole(role, account)) {... */\ntag_55:\n    /* \"@openzeppelin/contracts/access/AccessControl.sol\":6473:6478  false */\n  0x00\n    /* \"@openzeppelin/contracts/access/AccessControl.sol\":6466:6478  return false */\n  swap1\n  pop\n    /* \"@openzeppelin/contracts/access/AccessControl.sol\":6179:6495  function _grantRole(bytes32 role, address account) internal virtual returns (bool) {... */\ntag_52:\n  swap3\n  swap2\n  pop\n  pop\n  jump\t// out\n    /* \"@openzeppelin/contracts/access/AccessControl.sol\":2854:2990  function hasRole(bytes32 role, address account) public view virtual returns (bool) {... */\ntag_54:\n    /* \"@openzeppelin/contracts/access/AccessControl.sol\":2931:2935  bool */\n  0x00\n    /* \"@openzeppelin/contracts/access/AccessControl.sol\":2954:2960  _roles */\n  0x02\n    /* \"@openzeppelin/contracts/access/AccessControl.sol\":2954:2966  _roles[role] */\n  0x00\n    /* \"@openzeppelin/contracts/access/AccessControl.sol\":2961:2965  role */\n  dup5\n    /* \"@openzeppelin/contracts/access/AccessControl.sol\":2954:2966  _roles[role] */\n  dup2\n  mstore\n  0x20\n  add\n  swap1\n  dup2\n  mstore\n  0x20\n  add\n  0x00\n  keccak256\n    /* \"@openzeppelin/contracts/access/AccessControl.sol\":2954:2974  _roles[role].hasRole */\n  0x00\n  add\n    /* \"@openzeppelin/contracts/access/AccessControl.sol\":2954:2983  _roles[role].hasRole[account] */\n  0x00\n    /* \"@openzeppelin/contracts/access/AccessControl.sol\":2975:2982  account */\n  dup4\n    /* \"@openzeppelin/contracts/access/AccessControl.sol\":2954:2983  _roles[role].hasRole[account] */\n  0xffffffffffffffffffffffffffffffffffffffff\n  and\n  0xffffffffffffffffffffffffffffffffffffffff\n  and\n  dup2\n  mstore\n  0x20\n  add\n  swap1\n  dup2\n  mstore\n  0x20\n  add\n  0x00\n  keccak256\n  0x00\n  swap1\n  sload\n  swap1\n  0x0100\n  exp\n  swap1\n  div\n  0xff\n  and\n    /* \"@openzeppelin/contracts/access/AccessControl.sol\":2947:2983  return _roles[role].hasRole[account] */\n  swap1\n  pop\n    /* \"@openzeppelin/contracts/access/AccessControl.sol\":2854:2990  function hasRole(bytes32 role, address account) public view virtual returns (bool) {... */\n  swap3\n  swap2\n  pop\n  pop\n  jump\t// out\n    /* \"@openzeppelin/contracts/utils/Context.sol\":656:752  function _msgSender() internal view virtual returns (address) {... */\ntag_57:\n    /* \"@openzeppelin/contracts/utils/Context.sol\":709:716  address */\n  0x00\n    /* \"@openzeppelin/contracts/utils/Context.sol\":735:745  msg.sender */\n  caller\n    /* \"@openzeppelin/contracts/utils/Context.sol\":728:745  return msg.sender */\n  swap1\n  pop\n    /* \"@openzeppelin/contracts/utils/Context.sol\":656:752  function _msgSender() internal view virtual returns (address) {... */\n  swap1\n  jump\t// out\n    /* \"#utility.yul\":88:205   */\ntag_62:\n    /* \"#utility.yul\":197:198   */\n  0x00\n    /* \"#utility.yul\":194:195   */\n  0x00\n    /* \"#utility.yul\":187:199   */\n  revert\n    /* \"#utility.yul\":334:460   */\ntag_64:\n    /* \"#utility.yul\":371:378   */\n  0x00\n    /* \"#utility.yul\":411:453   */\n  0xffffffffffffffffffffffffffffffffffffffff\n    /* \"#utility.yul\":404:409   */\n  dup3\n    /* \"#utility.yul\":400:454   */\n  and\n    /* \"#utility.yul\":389:454   */\n  swap1\n  pop\n    /* \"#utility.yul\":334:460   */\n  swap2\n  swap1\n  pop\n  jump\t// out\n    /* \"#utility.yul\":466:562   */\ntag_65:\n    /* \"#utility.yul\":503:510   */\n  0x00\n    /* \"#utility.yul\":532:556   */\n  tag_104\n    /* \"#utility.yul\":550:555   */\n  dup3\n    /* \"#utility.yul\":532:556   */\n  tag_64\n  jump\t// in\ntag_104:\n    /* \"#utility.yul\":521:556   */\n  swap1\n  pop\n    /* \"#utility.yul\":466:562   */\n  swap2\n  swap1\n  pop\n  jump\t// out\n    /* \"#utility.yul\":568:690   */\ntag_66:\n    /* \"#utility.yul\":641:665   */\n  tag_106\n    /* \"#utility.yul\":659:664   */\n  dup2\n    /* \"#utility.yul\":641:665   */\n  tag_65\n  jump\t// in\ntag_106:\n    /* \"#utility.yul\":634:639   */\n  dup2\n    /* \"#utility.yul\":631:666   */\n  eq\n    /* \"#utility.yul\":621:684   */\n  tag_107\n  jumpi\n    /* \"#utility.yul\":680:681   */\n  0x00\n    /* \"#utility.yul\":677:678   */\n  0x00\n    /* \"#utility.yul\":670:682   */\n  revert\n    /* \"#utility.yul\":621:684   */\ntag_107:\n    /* \"#utility.yul\":568:690   */\n  pop\n  jump\t// out\n    /* \"#utility.yul\":696:839   */\ntag_67:\n    /* \"#utility.yul\":753:758   */\n  0x00\n    /* \"#utility.yul\":784:790   */\n  dup2\n    /* \"#utility.yul\":778:791   */\n  mload\n    /* \"#utility.yul\":769:791   */\n  swap1\n  pop\n    /* \"#utility.yul\":800:833   */\n  tag_109\n    /* \"#utility.yul\":827:832   */\n  dup2\n    /* \"#utility.yul\":800:833   */\n  tag_66\n  jump\t// in\ntag_109:\n    /* \"#utility.yul\":696:839   */\n  swap3\n  swap2\n  pop\n  pop\n  jump\t// out\n    /* \"#utility.yul\":845:922   */\ntag_68:\n    /* \"#utility.yul\":882:889   */\n  0x00\n    /* \"#utility.yul\":911:916   */\n  dup2\n    /* \"#utility.yul\":900:916   */\n  swap1\n  pop\n    /* \"#utility.yul\":845:922   */\n  swap2\n  swap1\n  pop\n  jump\t// out\n    /* \"#utility.yul\":928:1050   */\ntag_69:\n    /* \"#utility.yul\":1001:1025   */\n  tag_112\n    /* \"#utility.yul\":1019:1024   */\n  dup2\n    /* \"#utility.yul\":1001:1025   */\n  tag_68\n  jump\t// in\ntag_112:\n    /* \"#utility.yul\":994:999   */\n  dup2\n    /* \"#utility.yul\":991:1026   */\n  eq\n    /* \"#utility.yul\":981:1044   */\n  tag_113\n  jumpi\n    /* \"#utility.yul\":1040:1041   */\n  0x00\n    /* \"#utility.yul\":1037:1038   */\n  0x00\n    /* \"#utility.yul\":1030:1042   */\n  revert\n    /* \"#utility.yul\":981:1044   */\ntag_113:\n    /* \"#utility.yul\":928:1050   */\n  pop\n  jump\t// out\n    /* \"#utility.yul\":1056:1199   */\ntag_70:\n    /* \"#utility.yul\":1113:1118   */\n  0x00\n    /* \"#utility.yul\":1144:1150   */\n  dup2\n    /* \"#utility.yul\":1138:1151   */\n  mload\n    /* \"#utility.yul\":1129:1151   */\n  swap1\n  pop\n    /* \"#utility.yul\":1160:1193   */\n  tag_115\n    /* \"#utility.yul\":1187:1192   */\n  dup2\n    /* \"#utility.yul\":1160:1193   */\n  tag_69\n  jump\t// in\ntag_115:\n    /* \"#utility.yul\":1056:1199   */\n  swap3\n  swap2\n  pop\n  pop\n  jump\t// out\n    /* \"#utility.yul\":1205:3126   */\ntag_3:\n    /* \"#utility.yul\":1365:1371   */\n  0x00\n    /* \"#utility.yul\":1373:1379   */\n  0x00\n    /* \"#utility.yul\":1381:1387   */\n  0x00\n    /* \"#utility.yul\":1389:1395   */\n  0x00\n    /* \"#utility.yul\":1397:1403   */\n  0x00\n    /* \"#utility.yul\":1405:1411   */\n  0x00\n    /* \"#utility.yul\":1413:1419   */\n  0x00\n    /* \"#utility.yul\":1421:1427   */\n  0x00\n    /* \"#utility.yul\":1429:1435   */\n  0x00\n    /* \"#utility.yul\":1437:1443   */\n  0x00\n    /* \"#utility.yul\":1445:1452   */\n  0x00\n    /* \"#utility.yul\":1495:1498   */\n  0x0160\n    /* \"#utility.yul\":1483:1492   */\n  dup13\n    /* \"#utility.yul\":1474:1481   */\n  dup15\n    /* \"#utility.yul\":1470:1493   */\n  sub\n    /* \"#utility.yul\":1466:1499   */\n  slt\n    /* \"#utility.yul\":1463:1583   */\n  iszero\n  tag_117\n  jumpi\n    /* \"#utility.yul\":1502:1581   */\n  tag_118\n  tag_62\n  jump\t// in\ntag_118:\n    /* \"#utility.yul\":1463:1583   */\ntag_117:\n    /* \"#utility.yul\":1622:1623   */\n  0x00\n    /* \"#utility.yul\":1647:1711   */\n  tag_119\n    /* \"#utility.yul\":1703:1710   */\n  dup15\n    /* \"#utility.yul\":1694:1700   */\n  dup3\n    /* \"#utility.yul\":1683:1692   */\n  dup16\n    /* \"#utility.yul\":1679:1701   */\n  add\n    /* \"#utility.yul\":1647:1711   */\n  tag_67\n  jump\t// in\ntag_119:\n    /* \"#utility.yul\":1637:1711   */\n  swap12\n  pop\n    /* \"#utility.yul\":1593:1721   */\n  pop\n    /* \"#utility.yul\":1760:1762   */\n  0x20\n    /* \"#utility.yul\":1786:1850   */\n  tag_120\n    /* \"#utility.yul\":1842:1849   */\n  dup15\n    /* \"#utility.yul\":1833:1839   */\n  dup3\n    /* \"#utility.yul\":1822:1831   */\n  dup16\n    /* \"#utility.yul\":1818:1840   */\n  add\n    /* \"#utility.yul\":1786:1850   */\n  tag_67\n  jump\t// in\ntag_120:\n    /* \"#utility.yul\":1776:1850   */\n  swap11\n  pop\n    /* \"#utility.yul\":1731:1860   */\n  pop\n    /* \"#utility.yul\":1899:1901   */\n  0x40\n    /* \"#utility.yul\":1925:1989   */\n  tag_121\n    /* \"#utility.yul\":1981:1988   */\n  dup15\n    /* \"#utility.yul\":1972:1978   */\n  dup3\n    /* \"#utility.yul\":1961:1970   */\n  dup16\n    /* \"#utility.yul\":1957:1979   */\n  add\n    /* \"#utility.yul\":1925:1989   */\n  tag_70\n  jump\t// in\ntag_121:\n    /* \"#utility.yul\":1915:1989   */\n  swap10\n  pop\n    /* \"#utility.yul\":1870:1999   */\n  pop\n    /* \"#utility.yul\":2038:2040   */\n  0x60\n    /* \"#utility.yul\":2064:2128   */\n  tag_122\n    /* \"#utility.yul\":2120:2127   */\n  dup15\n    /* \"#utility.yul\":2111:2117   */\n  dup3\n    /* \"#utility.yul\":2100:2109   */\n  dup16\n    /* \"#utility.yul\":2096:2118   */\n  add\n    /* \"#utility.yul\":2064:2128   */\n  tag_70\n  jump\t// in\ntag_122:\n    /* \"#utility.yul\":2054:2128   */\n  swap9\n  pop\n    /* \"#utility.yul\":2009:2138   */\n  pop\n    /* \"#utility.yul\":2177:2180   */\n  0x80\n    /* \"#utility.yul\":2204:2268   */\n  tag_123\n    /* \"#utility.yul\":2260:2267   */\n  dup15\n    /* \"#utility.yul\":2251:2257   */\n  dup3\n    /* \"#utility.yul\":2240:2249   */\n  dup16\n    /* \"#utility.yul\":2236:2258   */\n  add\n    /* \"#utility.yul\":2204:2268   */\n  tag_70\n  jump\t// in\ntag_123:\n    /* \"#utility.yul\":2194:2268   */\n  swap8\n  pop\n    /* \"#utility.yul\":2148:2278   */\n  pop\n    /* \"#utility.yul\":2317:2320   */\n  0xa0\n    /* \"#utility.yul\":2344:2408   */\n  tag_124\n    /* \"#utility.yul\":2400:2407   */\n  dup15\n    /* \"#utility.yul\":2391:2397   */\n  dup3\n    /* \"#utility.yul\":2380:2389   */\n  dup16\n    /* \"#utility.yul\":2376:2398   */\n  add\n    /* \"#utility.yul\":2344:2408   */\n  tag_70\n  jump\t// in\ntag_124:\n    /* \"#utility.yul\":2334:2408   */\n  swap7\n  pop\n    /* \"#utility.yul\":2288:2418   */\n  pop\n    /* \"#utility.yul\":2457:2460   */\n  0xc0\n    /* \"#utility.yul\":2484:2548   */\n  tag_125\n    /* \"#utility.yul\":2540:2547   */\n  dup15\n    /* \"#utility.yul\":2531:2537   */\n  dup3\n    /* \"#utility.yul\":2520:2529   */\n  dup16\n    /* \"#utility.yul\":2516:2538   */\n  add\n    /* \"#utility.yul\":2484:2548   */\n  tag_70\n  jump\t// in\ntag_125:\n    /* \"#utility.yul\":2474:2548   */\n  swap6\n  pop\n    /* \"#utility.yul\":2428:2558   */\n  pop\n    /* \"#utility.yul\":2597:2600   */\n  0xe0\n    /* \"#utility.yul\":2624:2688   */\n  tag_126\n    /* \"#utility.yul\":2680:2687   */\n  dup15\n    /* \"#utility.yul\":2671:2677   */\n  dup3\n    /* \"#utility.yul\":2660:2669   */\n  dup16\n    /* \"#utility.yul\":2656:2678   */\n  add\n    /* \"#utility.yul\":2624:2688   */\n  tag_70\n  jump\t// in\ntag_126:\n    /* \"#utility.yul\":2614:2688   */\n  swap5\n  pop\n    /* \"#utility.yul\":2568:2698   */\n  pop\n    /* \"#utility.yul\":2737:2740   */\n  0x0100\n    /* \"#utility.yul\":2764:2828   */\n  tag_127\n    /* \"#utility.yul\":2820:2827   */\n  dup15\n    /* \"#utility.yul\":2811:2817   */\n  dup3\n    /* \"#utility.yul\":2800:2809   */\n  dup16\n    /* \"#utility.yul\":2796:2818   */\n  add\n    /* \"#utility.yul\":2764:2828   */\n  tag_70\n  jump\t// in\ntag_127:\n    /* \"#utility.yul\":2754:2828   */\n  swap4\n  pop\n    /* \"#utility.yul\":2708:2838   */\n  pop\n    /* \"#utility.yul\":2877:2880   */\n  0x0120\n    /* \"#utility.yul\":2904:2968   */\n  tag_128\n    /* \"#utility.yul\":2960:2967   */\n  dup15\n    /* \"#utility.yul\":2951:2957   */\n  dup3\n    /* \"#utility.yul\":2940:2949   */\n  dup16\n    /* \"#utility.yul\":2936:2958   */\n  add\n    /* \"#utility.yul\":2904:2968   */\n  tag_70\n  jump\t// in\ntag_128:\n    /* \"#utility.yul\":2894:2968   */\n  swap3\n  pop\n    /* \"#utility.yul\":2848:2978   */\n  pop\n    /* \"#utility.yul\":3017:3020   */\n  0x0140\n    /* \"#utility.yul\":3045:3109   */\n  tag_129\n    /* \"#utility.yul\":3101:3108   */\n  dup15\n    /* \"#utility.yul\":3092:3098   */\n  dup3\n    /* \"#utility.yul\":3081:3090   */\n  dup16\n    /* \"#utility.yul\":3077:3099   */\n  add\n    /* \"#utility.yul\":3045:3109   */\n  tag_67\n  jump\t// in\ntag_129:\n    /* \"#utility.yul\":3034:3109   */\n  swap2\n  pop\n    /* \"#utility.yul\":2988:3119   */\n  pop\n    /* \"#utility.yul\":1205:3126   */\n  swap3\n  swap6\n  swap9\n  swap12\n  pop\n  swap3\n  swap6\n  swap9\n  swap12\n  swap1\n  swap4\n  swap7\n  swap10\n  pop\n  jump\t// out\n    /* \"#utility.yul\":3132:3301   */\ntag_71:\n    /* \"#utility.yul\":3216:3227   */\n  0x00\n    /* \"#utility.yul\":3250:3256   */\n  dup3\n    /* \"#utility.yul\":3245:3248   */\n  dup3\n    /* \"#utility.yul\":3238:3257   */\n  mstore\n    /* \"#utility.yul\":3290:3294   */\n  0x20\n    /* \"#utility.yul\":3285:3288   */\n  dup3\n    /* \"#utility.yul\":3281:3295   */\n  add\n    /* \"#utility.yul\":3266:3295   */\n  swap1\n  pop\n    /* \"#utility.yul\":3132:3301   */\n  swap3\n  swap2\n  pop\n  pop\n  jump\t// out\n    /* \"#utility.yul\":3307:3478   */\ntag_72:\n    /* \"#utility.yul\":3447:3470   */\n  0x546f6b656e2061646472657373206973207a65726f0000000000000000000000\n    /* \"#utility.yul\":3443:3444   */\n  0x00\n    /* \"#utility.yul\":3435:3441   */\n  dup3\n    /* \"#utility.yul\":3431:3445   */\n  add\n    /* \"#utility.yul\":3424:3471   */\n  mstore\n    /* \"#utility.yul\":3307:3478   */\n  pop\n  jump\t// out\n    /* \"#utility.yul\":3484:3850   */\ntag_73:\n    /* \"#utility.yul\":3626:3629   */\n  0x00\n    /* \"#utility.yul\":3647:3714   */\n  tag_133\n    /* \"#utility.yul\":3711:3713   */\n  0x15\n    /* \"#utility.yul\":3706:3709   */\n  dup4\n    /* \"#utility.yul\":3647:3714   */\n  tag_71\n  jump\t// in\ntag_133:\n    /* \"#utility.yul\":3640:3714   */\n  swap2\n  pop\n    /* \"#utility.yul\":3723:3816   */\n  tag_134\n    /* \"#utility.yul\":3812:3815   */\n  dup3\n    /* \"#utility.yul\":3723:3816   */\n  tag_72\n  jump\t// in\ntag_134:\n    /* \"#utility.yul\":3841:3843   */\n  0x20\n    /* \"#utility.yul\":3836:3839   */\n  dup3\n    /* \"#utility.yul\":3832:3844   */\n  add\n    /* \"#utility.yul\":3825:3844   */\n  swap1\n  pop\n    /* \"#utility.yul\":3484:3850   */\n  swap2\n  swap1\n  pop\n  jump\t// out\n    /* \"#utility.yul\":3856:4275   */\ntag_10:\n    /* \"#utility.yul\":4022:4026   */\n  0x00\n    /* \"#utility.yul\":4060:4062   */\n  0x20\n    /* \"#utility.yul\":4049:4058   */\n  dup3\n    /* \"#utility.yul\":4045:4063   */\n  add\n    /* \"#utility.yul\":4037:4063   */\n  swap1\n  pop\n    /* \"#utility.yul\":4109:4118   */\n  dup2\n    /* \"#utility.yul\":4103:4107   */\n  dup2\n    /* \"#utility.yul\":4099:4119   */\n  sub\n    /* \"#utility.yul\":4095:4096   */\n  0x00\n    /* \"#utility.yul\":4084:4093   */\n  dup4\n    /* \"#utility.yul\":4080:4097   */\n  add\n    /* \"#utility.yul\":4073:4120   */\n  mstore\n    /* \"#utility.yul\":4137:4268   */\n  tag_136\n    /* \"#utility.yul\":4263:4267   */\n  dup2\n    /* \"#utility.yul\":4137:4268   */\n  tag_73\n  jump\t// in\ntag_136:\n    /* \"#utility.yul\":4129:4268   */\n  swap1\n  pop\n    /* \"#utility.yul\":3856:4275   */\n  swap2\n  swap1\n  pop\n  jump\t// out\n    /* \"#utility.yul\":4281:4453   */\ntag_74:\n    /* \"#utility.yul\":4421:4445   */\n  0x57616c6c65742061646472657373206973207a65726f00000000000000000000\n    /* \"#utility.yul\":4417:4418   */\n  0x00\n    /* \"#utility.yul\":4409:4415   */\n  dup3\n    /* \"#utility.yul\":4405:4419   */\n  add\n    /* \"#utility.yul\":4398:4446   */\n  mstore\n    /* \"#utility.yul\":4281:4453   */\n  pop\n  jump\t// out\n    /* \"#utility.yul\":4459:4825   */\ntag_75:\n    /* \"#utility.yul\":4601:4604   */\n  0x00\n    /* \"#utility.yul\":4622:4689   */\n  tag_139\n    /* \"#utility.yul\":4686:4688   */\n  0x16\n    /* \"#utility.yul\":4681:4684   */\n  dup4\n    /* \"#utility.yul\":4622:4689   */\n  tag_71\n  jump\t// in\ntag_139:\n    /* \"#utility.yul\":4615:4689   */\n  swap2\n  pop\n    /* \"#utility.yul\":4698:4791   */\n  tag_140\n    /* \"#utility.yul\":4787:4790   */\n  dup3\n    /* \"#utility.yul\":4698:4791   */\n  tag_74\n  jump\t// in\ntag_140:\n    /* \"#utility.yul\":4816:4818   */\n  0x20\n    /* \"#utility.yul\":4811:4814   */\n  dup3\n    /* \"#utility.yul\":4807:4819   */\n  add\n    /* \"#utility.yul\":4800:4819   */\n  swap1\n  pop\n    /* \"#utility.yul\":4459:4825   */\n  swap2\n  swap1\n  pop\n  jump\t// out\n    /* \"#utility.yul\":4831:5250   */\ntag_13:\n    /* \"#utility.yul\":4997:5001   */\n  0x00\n    /* \"#utility.yul\":5035:5037   */\n  0x20\n    /* \"#utility.yul\":5024:5033   */\n  dup3\n    /* \"#utility.yul\":5020:5038   */\n  add\n    /* \"#utility.yul\":5012:5038   */\n  swap1\n  pop\n    /* \"#utility.yul\":5084:5093   */\n  dup2\n    /* \"#utility.yul\":5078:5082   */\n  dup2\n    /* \"#utility.yul\":5074:5094   */\n  sub\n    /* \"#utility.yul\":5070:5071   */\n  0x00\n    /* \"#utility.yul\":5059:5068   */\n  dup4\n    /* \"#utility.yul\":5055:5072   */\n  add\n    /* \"#utility.yul\":5048:5095   */\n  mstore\n    /* \"#utility.yul\":5112:5243   */\n  tag_142\n    /* \"#utility.yul\":5238:5242   */\n  dup2\n    /* \"#utility.yul\":5112:5243   */\n  tag_75\n  jump\t// in\ntag_142:\n    /* \"#utility.yul\":5104:5243   */\n  swap1\n  pop\n    /* \"#utility.yul\":4831:5250   */\n  swap2\n  swap1\n  pop\n  jump\t// out\n    /* \"#utility.yul\":5256:5418   */\ntag_76:\n    /* \"#utility.yul\":5396:5410   */\n  0x52617465206973207a65726f0000000000000000000000000000000000000000\n    /* \"#utility.yul\":5392:5393   */\n  0x00\n    /* \"#utility.yul\":5384:5390   */\n  dup3\n    /* \"#utility.yul\":5380:5394   */\n  add\n    /* \"#utility.yul\":5373:5411   */\n  mstore\n    /* \"#utility.yul\":5256:5418   */\n  pop\n  jump\t// out\n    /* \"#utility.yul\":5424:5790   */\ntag_77:\n    /* \"#utility.yul\":5566:5569   */\n  0x00\n    /* \"#utility.yul\":5587:5654   */\n  tag_145\n    /* \"#utility.yul\":5651:5653   */\n  0x0c\n    /* \"#utility.yul\":5646:5649   */\n  dup4\n    /* \"#utility.yul\":5587:5654   */\n  tag_71\n  jump\t// in\ntag_145:\n    /* \"#utility.yul\":5580:5654   */\n  swap2\n  pop\n    /* \"#utility.yul\":5663:5756   */\n  tag_146\n    /* \"#utility.yul\":5752:5755   */\n  dup3\n    /* \"#utility.yul\":5663:5756   */\n  tag_76\n  jump\t// in\ntag_146:\n    /* \"#utility.yul\":5781:5783   */\n  0x20\n    /* \"#utility.yul\":5776:5779   */\n  dup3\n    /* \"#utility.yul\":5772:5784   */\n  add\n    /* \"#utility.yul\":5765:5784   */\n  swap1\n  pop\n    /* \"#utility.yul\":5424:5790   */\n  swap2\n  swap1\n  pop\n  jump\t// out\n    /* \"#utility.yul\":5796:6215   */\ntag_16:\n    /* \"#utility.yul\":5962:5966   */\n  0x00\n    /* \"#utility.yul\":6000:6002   */\n  0x20\n    /* \"#utility.yul\":5989:5998   */\n  dup3\n    /* \"#utility.yul\":5985:6003   */\n  add\n    /* \"#utility.yul\":5977:6003   */\n  swap1\n  pop\n    /* \"#utility.yul\":6049:6058   */\n  dup2\n    /* \"#utility.yul\":6043:6047   */\n  dup2\n    /* \"#utility.yul\":6039:6059   */\n  sub\n    /* \"#utility.yul\":6035:6036   */\n  0x00\n    /* \"#utility.yul\":6024:6033   */\n  dup4\n    /* \"#utility.yul\":6020:6037   */\n  add\n    /* \"#utility.yul\":6013:6060   */\n  mstore\n    /* \"#utility.yul\":6077:6208   */\n  tag_148\n    /* \"#utility.yul\":6203:6207   */\n  dup2\n    /* \"#utility.yul\":6077:6208   */\n  tag_77\n  jump\t// in\ntag_148:\n    /* \"#utility.yul\":6069:6208   */\n  swap1\n  pop\n    /* \"#utility.yul\":5796:6215   */\n  swap2\n  swap1\n  pop\n  jump\t// out\n    /* \"#utility.yul\":6221:6387   */\ntag_78:\n    /* \"#utility.yul\":6361:6379   */\n  0x536f667420636170206973207a65726f00000000000000000000000000000000\n    /* \"#utility.yul\":6357:6358   */\n  0x00\n    /* \"#utility.yul\":6349:6355   */\n  dup3\n    /* \"#utility.yul\":6345:6359   */\n  add\n    /* \"#utility.yul\":6338:6380   */\n  mstore\n    /* \"#utility.yul\":6221:6387   */\n  pop\n  jump\t// out\n    /* \"#utility.yul\":6393:6759   */\ntag_79:\n    /* \"#utility.yul\":6535:6538   */\n  0x00\n    /* \"#utility.yul\":6556:6623   */\n  tag_151\n    /* \"#utility.yul\":6620:6622   */\n  0x10\n    /* \"#utility.yul\":6615:6618   */\n  dup4\n    /* \"#utility.yul\":6556:6623   */\n  tag_71\n  jump\t// in\ntag_151:\n    /* \"#utility.yul\":6549:6623   */\n  swap2\n  pop\n    /* \"#utility.yul\":6632:6725   */\n  tag_152\n    /* \"#utility.yul\":6721:6724   */\n  dup3\n    /* \"#utility.yul\":6632:6725   */\n  tag_78\n  jump\t// in\ntag_152:\n    /* \"#utility.yul\":6750:6752   */\n  0x20\n    /* \"#utility.yul\":6745:6748   */\n  dup3\n    /* \"#utility.yul\":6741:6753   */\n  add\n    /* \"#utility.yul\":6734:6753   */\n  swap1\n  pop\n    /* \"#utility.yul\":6393:6759   */\n  swap2\n  swap1\n  pop\n  jump\t// out\n    /* \"#utility.yul\":6765:7184   */\ntag_19:\n    /* \"#utility.yul\":6931:6935   */\n  0x00\n    /* \"#utility.yul\":6969:6971   */\n  0x20\n    /* \"#utility.yul\":6958:6967   */\n  dup3\n    /* \"#utility.yul\":6954:6972   */\n  add\n    /* \"#utility.yul\":6946:6972   */\n  swap1\n  pop\n    /* \"#utility.yul\":7018:7027   */\n  dup2\n    /* \"#utility.yul\":7012:7016   */\n  dup2\n    /* \"#utility.yul\":7008:7028   */\n  sub\n    /* \"#utility.yul\":7004:7005   */\n  0x00\n    /* \"#utility.yul\":6993:7002   */\n  dup4\n    /* \"#utility.yul\":6989:7006   */\n  add\n    /* \"#utility.yul\":6982:7029   */\n  mstore\n    /* \"#utility.yul\":7046:7177   */\n  tag_154\n    /* \"#utility.yul\":7172:7176   */\n  dup2\n    /* \"#utility.yul\":7046:7177   */\n  tag_79\n  jump\t// in\ntag_154:\n    /* \"#utility.yul\":7038:7177   */\n  swap1\n  pop\n    /* \"#utility.yul\":6765:7184   */\n  swap2\n  swap1\n  pop\n  jump\t// out\n    /* \"#utility.yul\":7190:7356   */\ntag_80:\n    /* \"#utility.yul\":7330:7348   */\n  0x4861726420636170206973207a65726f00000000000000000000000000000000\n    /* \"#utility.yul\":7326:7327   */\n  0x00\n    /* \"#utility.yul\":7318:7324   */\n  dup3\n    /* \"#utility.yul\":7314:7328   */\n  add\n    /* \"#utility.yul\":7307:7349   */\n  mstore\n    /* \"#utility.yul\":7190:7356   */\n  pop\n  jump\t// out\n    /* \"#utility.yul\":7362:7728   */\ntag_81:\n    /* \"#utility.yul\":7504:7507   */\n  0x00\n    /* \"#utility.yul\":7525:7592   */\n  tag_157\n    /* \"#utility.yul\":7589:7591   */\n  0x10\n    /* \"#utility.yul\":7584:7587   */\n  dup4\n    /* \"#utility.yul\":7525:7592   */\n  tag_71\n  jump\t// in\ntag_157:\n    /* \"#utility.yul\":7518:7592   */\n  swap2\n  pop\n    /* \"#utility.yul\":7601:7694   */\n  tag_158\n    /* \"#utility.yul\":7690:7693   */\n  dup3\n    /* \"#utility.yul\":7601:7694   */\n  tag_80\n  jump\t// in\ntag_158:\n    /* \"#utility.yul\":7719:7721   */\n  0x20\n    /* \"#utility.yul\":7714:7717   */\n  dup3\n    /* \"#utility.yul\":7710:7722   */\n  add\n    /* \"#utility.yul\":7703:7722   */\n  swap1\n  pop\n    /* \"#utility.yul\":7362:7728   */\n  swap2\n  swap1\n  pop\n  jump\t// out\n    /* \"#utility.yul\":7734:8153   */\ntag_22:\n    /* \"#utility.yul\":7900:7904   */\n  0x00\n    /* \"#utility.yul\":7938:7940   */\n  0x20\n    /* \"#utility.yul\":7927:7936   */\n  dup3\n    /* \"#utility.yul\":7923:7941   */\n  add\n    /* \"#utility.yul\":7915:7941   */\n  swap1\n  pop\n    /* \"#utility.yul\":7987:7996   */\n  dup2\n    /* \"#utility.yul\":7981:7985   */\n  dup2\n    /* \"#utility.yul\":7977:7997   */\n  sub\n    /* \"#utility.yul\":7973:7974   */\n  0x00\n    /* \"#utility.yul\":7962:7971   */\n  dup4\n    /* \"#utility.yul\":7958:7975   */\n  add\n    /* \"#utility.yul\":7951:7998   */\n  mstore\n    /* \"#utility.yul\":8015:8146   */\n  tag_160\n    /* \"#utility.yul\":8141:8145   */\n  dup2\n    /* \"#utility.yul\":8015:8146   */\n  tag_81\n  jump\t// in\ntag_160:\n    /* \"#utility.yul\":8007:8146   */\n  swap1\n  pop\n    /* \"#utility.yul\":7734:8153   */\n  swap2\n  swap1\n  pop\n  jump\t// out\n    /* \"#utility.yul\":8159:8334   */\ntag_82:\n    /* \"#utility.yul\":8299:8326   */\n  0x536f667420636170206578636565647320686172642063617000000000000000\n    /* \"#utility.yul\":8295:8296   */\n  0x00\n    /* \"#utility.yul\":8287:8293   */\n  dup3\n    /* \"#utility.yul\":8283:8297   */\n  add\n    /* \"#utility.yul\":8276:8327   */\n  mstore\n    /* \"#utility.yul\":8159:8334   */\n  pop\n  jump\t// out\n    /* \"#utility.yul\":8340:8706   */\ntag_83:\n    /* \"#utility.yul\":8482:8485   */\n  0x00\n    /* \"#utility.yul\":8503:8570   */\n  tag_163\n    /* \"#utility.yul\":8567:8569   */\n  0x19\n    /* \"#utility.yul\":8562:8565   */\n  dup4\n    /* \"#utility.yul\":8503:8570   */\n  tag_71\n  jump\t// in\ntag_163:\n    /* \"#utility.yul\":8496:8570   */\n  swap2\n  pop\n    /* \"#utility.yul\":8579:8672   */\n  tag_164\n    /* \"#utility.yul\":8668:8671   */\n  dup3\n    /* \"#utility.yul\":8579:8672   */\n  tag_82\n  jump\t// in\ntag_164:\n    /* \"#utility.yul\":8697:8699   */\n  0x20\n    /* \"#utility.yul\":8692:8695   */\n  dup3\n    /* \"#utility.yul\":8688:8700   */\n  add\n    /* \"#utility.yul\":8681:8700   */\n  swap1\n  pop\n    /* \"#utility.yul\":8340:8706   */\n  swap2\n  swap1\n  pop\n  jump\t// out\n    /* \"#utility.yul\":8712:9131   */\ntag_25:\n    /* \"#utility.yul\":8878:8882   */\n  0x00\n    /* \"#utility.yul\":8916:8918   */\n  0x20\n    /* \"#utility.yul\":8905:8914   */\n  dup3\n    /* \"#utility.yul\":8901:8919   */\n  add\n    /* \"#utility.yul\":8893:8919   */\n  swap1\n  pop\n    /* \"#utility.yul\":8965:8974   */\n  dup2\n    /* \"#utility.yul\":8959:8963   */\n  dup2\n    /* \"#utility.yul\":8955:8975   */\n  sub\n    /* \"#utility.yul\":8951:8952   */\n  0x00\n    /* \"#utility.yul\":8940:8949   */\n  dup4\n    /* \"#utility.yul\":8936:8953   */\n  add\n    /* \"#utility.yul\":8929:8976   */\n  mstore\n    /* \"#utility.yul\":8993:9124   */\n  tag_166\n    /* \"#utility.yul\":9119:9123   */\n  dup2\n    /* \"#utility.yul\":8993:9124   */\n  tag_83\n  jump\t// in\ntag_166:\n    /* \"#utility.yul\":8985:9124   */\n  swap1\n  pop\n    /* \"#utility.yul\":8712:9131   */\n  swap2\n  swap1\n  pop\n  jump\t// out\n    /* \"#utility.yul\":9137:9305   */\ntag_84:\n    /* \"#utility.yul\":9277:9297   */\n  0x4f70656e696e67206265666f7265206e6f770000000000000000000000000000\n    /* \"#utility.yul\":9273:9274   */\n  0x00\n    /* \"#utility.yul\":9265:9271   */\n  dup3\n    /* \"#utility.yul\":9261:9275   */\n  add\n    /* \"#utility.yul\":9254:9298   */\n  mstore\n    /* \"#utility.yul\":9137:9305   */\n  pop\n  jump\t// out\n    /* \"#utility.yul\":9311:9677   */\ntag_85:\n    /* \"#utility.yul\":9453:9456   */\n  0x00\n    /* \"#utility.yul\":9474:9541   */\n  tag_169\n    /* \"#utility.yul\":9538:9540   */\n  0x12\n    /* \"#utility.yul\":9533:9536   */\n  dup4\n    /* \"#utility.yul\":9474:9541   */\n  tag_71\n  jump\t// in\ntag_169:\n    /* \"#utility.yul\":9467:9541   */\n  swap2\n  pop\n    /* \"#utility.yul\":9550:9643   */\n  tag_170\n    /* \"#utility.yul\":9639:9642   */\n  dup3\n    /* \"#utility.yul\":9550:9643   */\n  tag_84\n  jump\t// in\ntag_170:\n    /* \"#utility.yul\":9668:9670   */\n  0x20\n    /* \"#utility.yul\":9663:9666   */\n  dup3\n    /* \"#utility.yul\":9659:9671   */\n  add\n    /* \"#utility.yul\":9652:9671   */\n  swap1\n  pop\n    /* \"#utility.yul\":9311:9677   */\n  swap2\n  swap1\n  pop\n  jump\t// out\n    /* \"#utility.yul\":9683:10102   */\ntag_28:\n    /* \"#utility.yul\":9849:9853   */\n  0x00\n    /* \"#utility.yul\":9887:9889   */\n  0x20\n    /* \"#utility.yul\":9876:9885   */\n  dup3\n    /* \"#utility.yul\":9872:9890   */\n  add\n    /* \"#utility.yul\":9864:9890   */\n  swap1\n  pop\n    /* \"#utility.yul\":9936:9945   */\n  dup2\n    /* \"#utility.yul\":9930:9934   */\n  dup2\n    /* \"#utility.yul\":9926:9946   */\n  sub\n    /* \"#utility.yul\":9922:9923   */\n  0x00\n    /* \"#utility.yul\":9911:9920   */\n  dup4\n    /* \"#utility.yul\":9907:9924   */\n  add\n    /* \"#utility.yul\":9900:9947   */\n  mstore\n    /* \"#utility.yul\":9964:10095   */\n  tag_172\n    /* \"#utility.yul\":10090:10094   */\n  dup2\n    /* \"#utility.yul\":9964:10095   */\n  tag_85\n  jump\t// in\ntag_172:\n    /* \"#utility.yul\":9956:10095   */\n  swap1\n  pop\n    /* \"#utility.yul\":9683:10102   */\n  swap2\n  swap1\n  pop\n  jump\t// out\n    /* \"#utility.yul\":10108:10280   */\ntag_86:\n    /* \"#utility.yul\":10248:10272   */\n  0x436c6f73696e67206265666f7265206f70656e696e6700000000000000000000\n    /* \"#utility.yul\":10244:10245   */\n  0x00\n    /* \"#utility.yul\":10236:10242   */\n  dup3\n    /* \"#utility.yul\":10232:10246   */\n  add\n    /* \"#utility.yul\":10225:10273   */\n  mstore\n    /* \"#utility.yul\":10108:10280   */\n  pop\n  jump\t// out\n    /* \"#utility.yul\":10286:10652   */\ntag_87:\n    /* \"#utility.yul\":10428:10431   */\n  0x00\n    /* \"#utility.yul\":10449:10516   */\n  tag_175\n    /* \"#utility.yul\":10513:10515   */\n  0x16\n    /* \"#utility.yul\":10508:10511   */\n  dup4\n    /* \"#utility.yul\":10449:10516   */\n  tag_71\n  jump\t// in\ntag_175:\n    /* \"#utility.yul\":10442:10516   */\n  swap2\n  pop\n    /* \"#utility.yul\":10525:10618   */\n  tag_176\n    /* \"#utility.yul\":10614:10617   */\n  dup3\n    /* \"#utility.yul\":10525:10618   */\n  tag_86\n  jump\t// in\ntag_176:\n    /* \"#utility.yul\":10643:10645   */\n  0x20\n    /* \"#utility.yul\":10638:10641   */\n  dup3\n    /* \"#utility.yul\":10634:10646   */\n  add\n    /* \"#utility.yul\":10627:10646   */\n  swap1\n  pop\n    /* \"#utility.yul\":10286:10652   */\n  swap2\n  swap1\n  pop\n  jump\t// out\n    /* \"#utility.yul\":10658:11077   */\ntag_31:\n    /* \"#utility.yul\":10824:10828   */\n  0x00\n    /* \"#utility.yul\":10862:10864   */\n  0x20\n    /* \"#utility.yul\":10851:10860   */\n  dup3\n    /* \"#utility.yul\":10847:10865   */\n  add\n    /* \"#utility.yul\":10839:10865   */\n  swap1\n  pop\n    /* \"#utility.yul\":10911:10920   */\n  dup2\n    /* \"#utility.yul\":10905:10909   */\n  dup2\n    /* \"#utility.yul\":10901:10921   */\n  sub\n    /* \"#utility.yul\":10897:10898   */\n  0x00\n    /* \"#utility.yul\":10886:10895   */\n  dup4\n    /* \"#utility.yul\":10882:10899   */\n  add\n    /* \"#utility.yul\":10875:10922   */\n  mstore\n    /* \"#utility.yul\":10939:11070   */\n  tag_178\n    /* \"#utility.yul\":11065:11069   */\n  dup2\n    /* \"#utility.yul\":10939:11070   */\n  tag_87\n  jump\t// in\ntag_178:\n    /* \"#utility.yul\":10931:11070   */\n  swap1\n  pop\n    /* \"#utility.yul\":10658:11077   */\n  swap2\n  swap1\n  pop\n  jump\t// out\n    /* \"#utility.yul\":11083:11257   */\ntag_88:\n    /* \"#utility.yul\":11223:11249   */\n  0x4d696e20636f6e747269627574696f6e206973207a65726f0000000000000000\n    /* \"#utility.yul\":11219:11220   */\n  0x00\n    /* \"#utility.yul\":11211:11217   */\n  dup3\n    /* \"#utility.yul\":11207:11221   */\n  add\n    /* \"#utility.yul\":11200:11250   */\n  mstore\n    /* \"#utility.yul\":11083:11257   */\n  pop\n  jump\t// out\n    /* \"#utility.yul\":11263:11629   */\ntag_89:\n    /* \"#utility.yul\":11405:11408   */\n  0x00\n    /* \"#utility.yul\":11426:11493   */\n  tag_181\n    /* \"#utility.yul\":11490:11492   */\n  0x18\n    /* \"#utility.yul\":11485:11488   */\n  dup4\n    /* \"#utility.yul\":11426:11493   */\n  tag_71\n  jump\t// in\ntag_181:\n    /* \"#utility.yul\":11419:11493   */\n  swap2\n  pop\n    /* \"#utility.yul\":11502:11595   */\n  tag_182\n    /* \"#utility.yul\":11591:11594   */\n  dup3\n    /* \"#utility.yul\":11502:11595   */\n  tag_88\n  jump\t// in\ntag_182:\n    /* \"#utility.yul\":11620:11622   */\n  0x20\n    /* \"#utility.yul\":11615:11618   */\n  dup3\n    /* \"#utility.yul\":11611:11623   */\n  add\n    /* \"#utility.yul\":11604:11623   */\n  swap1\n  pop\n    /* \"#utility.yul\":11263:11629   */\n  swap2\n  swap1\n  pop\n  jump\t// out\n    /* \"#utility.yul\":11635:12054   */\ntag_34:\n    /* \"#utility.yul\":11801:11805   */\n  0x00\n    /* \"#utility.yul\":11839:11841   */\n  0x20\n    /* \"#utility.yul\":11828:11837   */\n  dup3\n    /* \"#utility.yul\":11824:11842   */\n  add\n    /* \"#utility.yul\":11816:11842   */\n  swap1\n  pop\n    /* \"#utility.yul\":11888:11897   */\n  dup2\n    /* \"#utility.yul\":11882:11886   */\n  dup2\n    /* \"#utility.yul\":11878:11898   */\n  sub\n    /* \"#utility.yul\":11874:11875   */\n  0x00\n    /* \"#utility.yul\":11863:11872   */\n  dup4\n    /* \"#utility.yul\":11859:11876   */\n  add\n    /* \"#utility.yul\":11852:11899   */\n  mstore\n    /* \"#utility.yul\":11916:12047   */\n  tag_184\n    /* \"#utility.yul\":12042:12046   */\n  dup2\n    /* \"#utility.yul\":11916:12047   */\n  tag_89\n  jump\t// in\ntag_184:\n    /* \"#utility.yul\":11908:12047   */\n  swap1\n  pop\n    /* \"#utility.yul\":11635:12054   */\n  swap2\n  swap1\n  pop\n  jump\t// out\n    /* \"#utility.yul\":12060:12234   */\ntag_90:\n    /* \"#utility.yul\":12200:12226   */\n  0x4d617820636f6e747269627574696f6e206973207a65726f0000000000000000\n    /* \"#utility.yul\":12196:12197   */\n  0x00\n    /* \"#utility.yul\":12188:12194   */\n  dup3\n    /* \"#utility.yul\":12184:12198   */\n  add\n    /* \"#utility.yul\":12177:12227   */\n  mstore\n    /* \"#utility.yul\":12060:12234   */\n  pop\n  jump\t// out\n    /* \"#utility.yul\":12240:12606   */\ntag_91:\n    /* \"#utility.yul\":12382:12385   */\n  0x00\n    /* \"#utility.yul\":12403:12470   */\n  tag_187\n    /* \"#utility.yul\":12467:12469   */\n  0x18\n    /* \"#utility.yul\":12462:12465   */\n  dup4\n    /* \"#utility.yul\":12403:12470   */\n  tag_71\n  jump\t// in\ntag_187:\n    /* \"#utility.yul\":12396:12470   */\n  swap2\n  pop\n    /* \"#utility.yul\":12479:12572   */\n  tag_188\n    /* \"#utility.yul\":12568:12571   */\n  dup3\n    /* \"#utility.yul\":12479:12572   */\n  tag_90\n  jump\t// in\ntag_188:\n    /* \"#utility.yul\":12597:12599   */\n  0x20\n    /* \"#utility.yul\":12592:12595   */\n  dup3\n    /* \"#utility.yul\":12588:12600   */\n  add\n    /* \"#utility.yul\":12581:12600   */\n  swap1\n  pop\n    /* \"#utility.yul\":12240:12606   */\n  swap2\n  swap1\n  pop\n  jump\t// out\n    /* \"#utility.yul\":12612:13031   */\ntag_37:\n    /* \"#utility.yul\":12778:12782   */\n  0x00\n    /* \"#utility.yul\":12816:12818   */\n  0x20\n    /* \"#utility.yul\":12805:12814   */\n  dup3\n    /* \"#utility.yul\":12801:12819   */\n  add\n    /* \"#utility.yul\":12793:12819   */\n  swap1\n  pop\n    /* \"#utility.yul\":12865:12874   */\n  dup2\n    /* \"#utility.yul\":12859:12863   */\n  dup2\n    /* \"#utility.yul\":12855:12875   */\n  sub\n    /* \"#utility.yul\":12851:12852   */\n  0x00\n    /* \"#utility.yul\":12840:12849   */\n  dup4\n    /* \"#utility.yul\":12836:12853   */\n  add\n    /* \"#utility.yul\":12829:12876   */\n  mstore\n    /* \"#utility.yul\":12893:13024   */\n  tag_190\n    /* \"#utility.yul\":13019:13023   */\n  dup2\n    /* \"#utility.yul\":12893:13024   */\n  tag_91\n  jump\t// in\ntag_190:\n    /* \"#utility.yul\":12885:13024   */\n  swap1\n  pop\n    /* \"#utility.yul\":12612:13031   */\n  swap2\n  swap1\n  pop\n  jump\t// out\n    /* \"#utility.yul\":13037:13196   */\ntag_92:\n    /* \"#utility.yul\":13177:13188   */\n  0x4d696e203e204d61780000000000000000000000000000000000000000000000\n    /* \"#utility.yul\":13173:13174   */\n  0x00\n    /* \"#utility.yul\":13165:13171   */\n  dup3\n    /* \"#utility.yul\":13161:13175   */\n  add\n    /* \"#utility.yul\":13154:13189   */\n  mstore\n    /* \"#utility.yul\":13037:13196   */\n  pop\n  jump\t// out\n    /* \"#utility.yul\":13202:13567   */\ntag_93:\n    /* \"#utility.yul\":13344:13347   */\n  0x00\n    /* \"#utility.yul\":13365:13431   */\n  tag_193\n    /* \"#utility.yul\":13429:13430   */\n  0x09\n    /* \"#utility.yul\":13424:13427   */\n  dup4\n    /* \"#utility.yul\":13365:13431   */\n  tag_71\n  jump\t// in\ntag_193:\n    /* \"#utility.yul\":13358:13431   */\n  swap2\n  pop\n    /* \"#utility.yul\":13440:13533   */\n  tag_194\n    /* \"#utility.yul\":13529:13532   */\n  dup3\n    /* \"#utility.yul\":13440:13533   */\n  tag_92\n  jump\t// in\ntag_194:\n    /* \"#utility.yul\":13558:13560   */\n  0x20\n    /* \"#utility.yul\":13553:13556   */\n  dup3\n    /* \"#utility.yul\":13549:13561   */\n  add\n    /* \"#utility.yul\":13542:13561   */\n  swap1\n  pop\n    /* \"#utility.yul\":13202:13567   */\n  swap2\n  swap1\n  pop\n  jump\t// out\n    /* \"#utility.yul\":13573:13992   */\ntag_40:\n    /* \"#utility.yul\":13739:13743   */\n  0x00\n    /* \"#utility.yul\":13777:13779   */\n  0x20\n    /* \"#utility.yul\":13766:13775   */\n  dup3\n    /* \"#utility.yul\":13762:13780   */\n  add\n    /* \"#utility.yul\":13754:13780   */\n  swap1\n  pop\n    /* \"#utility.yul\":13826:13835   */\n  dup2\n    /* \"#utility.yul\":13820:13824   */\n  dup2\n    /* \"#utility.yul\":13816:13836   */\n  sub\n    /* \"#utility.yul\":13812:13813   */\n  0x00\n    /* \"#utility.yul\":13801:13810   */\n  dup4\n    /* \"#utility.yul\":13797:13814   */\n  add\n    /* \"#utility.yul\":13790:13837   */\n  mstore\n    /* \"#utility.yul\":13854:13985   */\n  tag_196\n    /* \"#utility.yul\":13980:13984   */\n  dup2\n    /* \"#utility.yul\":13854:13985   */\n  tag_93\n  jump\t// in\ntag_196:\n    /* \"#utility.yul\":13846:13985   */\n  swap1\n  pop\n    /* \"#utility.yul\":13573:13992   */\n  swap2\n  swap1\n  pop\n  jump\t// out\n    /* \"#utility.yul\":13998:14163   */\ntag_94:\n    /* \"#utility.yul\":14138:14155   */\n  0x54474520627073203e2031303030300000000000000000000000000000000000\n    /* \"#utility.yul\":14134:14135   */\n  0x00\n    /* \"#utility.yul\":14126:14132   */\n  dup3\n    /* \"#utility.yul\":14122:14136   */\n  add\n    /* \"#utility.yul\":14115:14156   */\n  mstore\n    /* \"#utility.yul\":13998:14163   */\n  pop\n  jump\t// out\n    /* \"#utility.yul\":14169:14535   */\ntag_95:\n    /* \"#utility.yul\":14311:14314   */\n  0x00\n    /* \"#utility.yul\":14332:14399   */\n  tag_199\n    /* \"#utility.yul\":14396:14398   */\n  0x0f\n    /* \"#utility.yul\":14391:14394   */\n  dup4\n    /* \"#utility.yul\":14332:14399   */\n  tag_71\n  jump\t// in\ntag_199:\n    /* \"#utility.yul\":14325:14399   */\n  swap2\n  pop\n    /* \"#utility.yul\":14408:14501   */\n  tag_200\n    /* \"#utility.yul\":14497:14500   */\n  dup3\n    /* \"#utility.yul\":14408:14501   */\n  tag_94\n  jump\t// in\ntag_200:\n    /* \"#utility.yul\":14526:14528   */\n  0x20\n    /* \"#utility.yul\":14521:14524   */\n  dup3\n    /* \"#utility.yul\":14517:14529   */\n  add\n    /* \"#utility.yul\":14510:14529   */\n  swap1\n  pop\n    /* \"#utility.yul\":14169:14535   */\n  swap2\n  swap1\n  pop\n  jump\t// out\n    /* \"#utility.yul\":14541:14960   */\ntag_43:\n    /* \"#utility.yul\":14707:14711   */\n  0x00\n    /* \"#utility.yul\":14745:14747   */\n  0x20\n    /* \"#utility.yul\":14734:14743   */\n  dup3\n    /* \"#utility.yul\":14730:14748   */\n  add\n    /* \"#utility.yul\":14722:14748   */\n  swap1\n  pop\n    /* \"#utility.yul\":14794:14803   */\n  dup2\n    /* \"#utility.yul\":14788:14792   */\n  dup2\n    /* \"#utility.yul\":14784:14804   */\n  sub\n    /* \"#utility.yul\":14780:14781   */\n  0x00\n    /* \"#utility.yul\":14769:14778   */\n  dup4\n    /* \"#utility.yul\":14765:14782   */\n  add\n    /* \"#utility.yul\":14758:14805   */\n  mstore\n    /* \"#utility.yul\":14822:14953   */\n  tag_202\n    /* \"#utility.yul\":14948:14952   */\n  dup2\n    /* \"#utility.yul\":14822:14953   */\n  tag_95\n  jump\t// in\ntag_202:\n    /* \"#utility.yul\":14814:14953   */\n  swap1\n  pop\n    /* \"#utility.yul\":14541:14960   */\n  swap2\n  swap1\n  pop\n  jump\t// out\n    /* \"#utility.yul\":14966:15137   */\ntag_96:\n    /* \"#utility.yul\":15106:15129   */\n  0x41646d696e2061646472657373206973207a65726f0000000000000000000000\n    /* \"#utility.yul\":15102:15103   */\n  0x00\n    /* \"#utility.yul\":15094:15100   */\n  dup3\n    /* \"#utility.yul\":15090:15104   */\n  add\n    /* \"#utility.yul\":15083:15130   */\n  mstore\n    /* \"#utility.yul\":14966:15137   */\n  pop\n  jump\t// out\n    /* \"#utility.yul\":15143:15509   */\ntag_97:\n    /* \"#utility.yul\":15285:15288   */\n  0x00\n    /* \"#utility.yul\":15306:15373   */\n  tag_205\n    /* \"#utility.yul\":15370:15372   */\n  0x15\n    /* \"#utility.yul\":15365:15368   */\n  dup4\n    /* \"#utility.yul\":15306:15373   */\n  tag_71\n  jump\t// in\ntag_205:\n    /* \"#utility.yul\":15299:15373   */\n  swap2\n  pop\n    /* \"#utility.yul\":15382:15475   */\n  tag_206\n    /* \"#utility.yul\":15471:15474   */\n  dup3\n    /* \"#utility.yul\":15382:15475   */\n  tag_96\n  jump\t// in\ntag_206:\n    /* \"#utility.yul\":15500:15502   */\n  0x20\n    /* \"#utility.yul\":15495:15498   */\n  dup3\n    /* \"#utility.yul\":15491:15503   */\n  add\n    /* \"#utility.yul\":15484:15503   */\n  swap1\n  pop\n    /* \"#utility.yul\":15143:15509   */\n  swap2\n  swap1\n  pop\n  jump\t// out\n    /* \"#utility.yul\":15515:15934   */\ntag_46:\n    /* \"#utility.yul\":15681:15685   */\n  0x00\n    /* \"#utility.yul\":15719:15721   */\n  0x20\n    /* \"#utility.yul\":15708:15717   */\n  dup3\n    /* \"#utility.yul\":15704:15722   */\n  add\n    /* \"#utility.yul\":15696:15722   */\n  swap1\n  pop\n    /* \"#utility.yul\":15768:15777   */\n  dup2\n    /* \"#utility.yul\":15762:15766   */\n  dup2\n    /* \"#utility.yul\":15758:15778   */\n  sub\n    /* \"#utility.yul\":15754:15755   */\n  0x00\n    /* \"#utility.yul\":15743:15752   */\n  dup4\n    /* \"#utility.yul\":15739:15756   */\n  add\n    /* \"#utility.yul\":15732:15779   */\n  mstore\n    /* \"#utility.yul\":15796:15927   */\n  tag_208\n    /* \"#utility.yul\":15922:15926   */\n  dup2\n    /* \"#utility.yul\":15796:15927   */\n  tag_97\n  jump\t// in\ntag_208:\n    /* \"#utility.yul\":15788:15927   */\n  swap1\n  pop\n    /* \"#utility.yul\":15515:15934   */\n  swap2\n  swap1\n  pop\n  jump\t// out\n    /* \"preventa/JFVCrowdsale.sol\":317:9203  contract JFVCrowdsale is ReentrancyGuard, Pausable, AccessControl {... */\ntag_51:\n  mload(0x80)\n  mload(0xa0)\n  mload(0xc0)\n  mload(0xe0)\n  codecopy(0x00, dataOffset(sub_0), dataSize(sub_0))\n  0x00\n  assignImmutable(\"0x2c3da56e833e1428007d8637dd3cd84c748b28d433badee9fb79b2375e44acbf\")\n  0x00\n  assignImmutable(\"0x887d510a66c2c5edb473d8bcaa91e9efa96aa179a0ec88f5292ca216a1999f71\")\n  0x00\n  assignImmutable(\"0xde3e84ddd45b00ed4c2983e163b11185e5a8d55e6ce91f0a78f922802245220e\")\n  0x00\n  assignImmutable(\"0x784395980707f20063da7968cb078d3d4afc80091be06131ccab5c3acfe23124\")\n  return(0x00, dataSize(sub_0))\nstop\n\nsub_0: assembly {\n        /* \"preventa/JFVCrowdsale.sol\":317:9203  contract JFVCrowdsale is ReentrancyGuard, Pausable, AccessControl {... */\n      mstore(0x40, 0x80)\n      jumpi(tag_1, lt(calldatasize, 0x04))\n      shr(0xe0, calldataload(0x00))\n      dup1\n      0x995c5e9d\n      gt\n      tag_44\n      jumpi\n      dup1\n      0xc4590d3f\n      gt\n      tag_45\n      jumpi\n      dup1\n      0xeb3b3fe6\n      gt\n      tag_46\n      jumpi\n      dup1\n      0xeb3b3fe6\n      eq\n      tag_38\n      jumpi\n      dup1\n      0xec8ac4d8\n      eq\n      tag_39\n      jumpi\n      dup1\n      0xf43e98c7\n      eq\n      tag_40\n      jumpi\n      dup1\n      0xf49e2514\n      eq\n      tag_41\n      jumpi\n      dup1\n      0xfb86a404\n      eq\n      tag_42\n      jumpi\n      dup1\n      0xfc0c546a\n      eq\n      tag_43\n      jumpi\n      jump(tag_2)\n    tag_46:\n      dup1\n      0xc4590d3f\n      eq\n      tag_33\n      jumpi\n      dup1\n      0xd547741f\n      eq\n      tag_34\n      jumpi\n      dup1\n      0xdeaa59df\n      eq\n      tag_35\n      jumpi\n      dup1\n      0xe086e5ec\n      eq\n      tag_36\n      jumpi\n      dup1\n      0xe63ab1e9\n      eq\n      tag_37\n      jumpi\n      jump(tag_2)\n    tag_45:\n      dup1\n      0xb0178f3d\n      gt\n      tag_47\n      jumpi\n      dup1\n      0xb0178f3d\n      eq\n      tag_28\n      jumpi\n      dup1\n      0xb3f05b97\n      eq\n      tag_29\n      jumpi\n      dup1\n      0xb7a8807c\n      eq\n      tag_30\n      jumpi\n      dup1\n      0xbe68d17a\n      eq\n      tag_31\n      jumpi\n      dup1\n      0xc2b6b58c\n      eq\n      tag_32\n      jumpi\n      jump(tag_2)\n    tag_47:\n      dup1\n      0x995c5e9d\n      eq\n      tag_23\n      jumpi\n      dup1\n      0x9b8c1fed\n      eq\n      tag_24\n      jumpi\n      dup1\n      0xa217fddf\n      eq\n      tag_25\n      jumpi\n      dup1\n      0xa4d19feb\n      eq\n      tag_26\n      jumpi\n      dup1\n      0xaaffadf3\n      eq\n      tag_27\n      jumpi\n      jump(tag_2)\n    tag_44:\n      dup1\n      0x47535d7b\n      gt\n      tag_48\n      jumpi\n      dup1\n      0x5c975abb\n      gt\n      tag_49\n      jumpi\n      dup1\n      0x5c975abb\n      eq\n      tag_18\n      jumpi\n      dup1\n      0x8456cb59\n      eq\n      tag_19\n      jumpi\n      dup1\n      0x8d3d6576\n      eq\n      tag_20\n      jumpi\n      dup1\n      0x906a26e0\n      eq\n      tag_21\n      jumpi\n      dup1\n      0x91d14854\n      eq\n      tag_22\n      jumpi\n      jump(tag_2)\n    tag_49:\n      dup1\n      0x47535d7b\n      eq\n      tag_13\n      jumpi\n      dup1\n      0x4b6753bc\n      eq\n      tag_14\n      jumpi\n      dup1\n      0x4bb278f3\n      eq\n      tag_15\n      jumpi\n      dup1\n      0x518ab2a8\n      eq\n      tag_16\n      jumpi\n      dup1\n      0x521eb273\n      eq\n      tag_17\n      jumpi\n      jump(tag_2)\n    tag_48:\n      dup1\n      0x36568abe\n      gt\n      tag_50\n      jumpi\n      dup1\n      0x36568abe\n      eq\n      tag_8\n      jumpi\n      dup1\n      0x3a45e6fd\n      eq\n      tag_9\n      jumpi\n      dup1\n      0x3f4ba83a\n      eq\n      tag_10\n      jumpi\n      dup1\n      0x4042b66f\n      eq\n      tag_11\n      jumpi\n      dup1\n      0x4225e5bb\n      eq\n      tag_12\n      jumpi\n      jump(tag_2)\n    tag_50:\n      dup1\n      0x01ffc9a7\n      eq\n      tag_3\n      jumpi\n      dup1\n      0x248a9ca3\n      eq\n      tag_4\n      jumpi\n      dup1\n      0x2c4e722e\n      eq\n      tag_5\n      jumpi\n      dup1\n      0x2f2ff15d\n      eq\n      tag_6\n      jumpi\n      dup1\n      0x34fcf437\n      eq\n      tag_7\n      jumpi\n      jump(tag_2)\n    tag_1:\n      jumpi(tag_2, calldatasize)\n        /* \"preventa/JFVCrowdsale.sol\":4515:4540  revert(\"Use buyTokens()\") */\n      mload(0x40)\n      0x08c379a000000000000000000000000000000000000000000000000000000000\n      dup2\n      mstore\n      0x04\n      add\n      tag_53\n      swap1\n      tag_54\n      jump\t// in\n    tag_53:\n      mload(0x40)\n      dup1\n      swap2\n      sub\n      swap1\n      revert\n        /* \"preventa/JFVCrowdsale.sol\":317:9203  contract JFVCrowdsale is ReentrancyGuard, Pausable, AccessControl {... */\n    tag_2:\n        /* \"preventa/JFVCrowdsale.sol\":4591:4613  revert(\"Invalid call\") */\n      mload(0x40)\n      0x08c379a000000000000000000000000000000000000000000000000000000000\n      dup2\n      mstore\n      0x04\n      add\n      tag_57\n      swap1\n      tag_58\n      jump\t// in\n    tag_57:\n      mload(0x40)\n      dup1\n      swap2\n      sub\n      swap1\n      revert\n        /* \"@openzeppelin/contracts/access/AccessControl.sol\":2565:2767  function supportsInterface(bytes4 interfaceId) public view virtual override returns (bool) {... */\n    tag_3:\n      callvalue\n      dup1\n      iszero\n      tag_59\n      jumpi\n      revert(0x00, 0x00)\n    tag_59:\n      pop\n      tag_60\n      0x04\n      dup1\n      calldatasize\n      sub\n      dup2\n      add\n      swap1\n      tag_61\n      swap2\n      swap1\n      tag_62\n      jump\t// in\n    tag_61:\n      tag_63\n      jump\t// in\n    tag_60:\n      mload(0x40)\n      tag_64\n      swap2\n      swap1\n      tag_65\n      jump\t// in\n    tag_64:\n      mload(0x40)\n      dup1\n      swap2\n      sub\n      swap1\n      return\n        /* \"@openzeppelin/contracts/access/AccessControl.sol\":3810:3930  function getRoleAdmin(bytes32 role) public view virtual returns (bytes32) {... */\n    tag_4:\n      callvalue\n      dup1\n      iszero\n      tag_66\n      jumpi\n      revert(0x00, 0x00)\n    tag_66:\n      pop\n      tag_67\n      0x04\n      dup1\n      calldatasize\n      sub\n      dup2\n      add\n      swap1\n      tag_68\n      swap2\n      swap1\n      tag_69\n      jump\t// in\n    tag_68:\n      tag_70\n      jump\t// in\n    tag_67:\n      mload(0x40)\n      tag_71\n      swap2\n      swap1\n      tag_72\n      jump\t// in\n    tag_71:\n      mload(0x40)\n      dup1\n      swap2\n      sub\n      swap1\n      return\n        /* \"preventa/JFVCrowdsale.sol\":715:734  uint256 public rate */\n    tag_5:\n      callvalue\n      dup1\n      iszero\n      tag_73\n      jumpi\n      revert(0x00, 0x00)\n    tag_73:\n      pop\n      tag_74\n      tag_75\n      jump\t// in\n    tag_74:\n      mload(0x40)\n      tag_76\n      swap2\n      swap1\n      tag_77\n      jump\t// in\n    tag_76:\n      mload(0x40)\n      dup1\n      swap2\n      sub\n      swap1\n      return\n        /* \"@openzeppelin/contracts/access/AccessControl.sol\":4226:4362  function grantRole(bytes32 role, address account) public virtual onlyRole(getRoleAdmin(role)) {... */\n    tag_6:\n      callvalue\n      dup1\n      iszero\n      tag_78\n      jumpi\n      revert(0x00, 0x00)\n    tag_78:\n      pop\n      tag_79\n      0x04\n      dup1\n      calldatasize\n      sub\n      dup2\n      add\n      swap1\n      tag_80\n      swap2\n      swap1\n      tag_81\n      jump\t// in\n    tag_80:\n      tag_82\n      jump\t// in\n    tag_79:\n      stop\n        /* \"preventa/JFVCrowdsale.sol\":8315:8452  function setRate(uint256 newRate) external onlyRole(CONFIG_ROLE) {... */\n    tag_7:\n      callvalue\n      dup1\n      iszero\n      tag_83\n      jumpi\n      revert(0x00, 0x00)\n    tag_83:\n      pop\n      tag_84\n      0x04\n      dup1\n      calldatasize\n      sub\n      dup2\n      add\n      swap1\n      tag_85\n      swap2\n      swap1\n      tag_86\n      jump\t// in\n    tag_85:\n      tag_87\n      jump\t// in\n    tag_84:\n      stop\n        /* \"@openzeppelin/contracts/access/AccessControl.sol\":5328:5573  function renounceRole(bytes32 role, address callerConfirmation) public virtual {... */\n    tag_8:\n      callvalue\n      dup1\n      iszero\n      tag_88\n      jumpi\n      revert(0x00, 0x00)\n    tag_88:\n      pop\n      tag_89\n      0x04\n      dup1\n      calldatasize\n      sub\n      dup2\n      add\n      swap1\n      tag_90\n      swap2\n      swap1\n      tag_81\n      jump\t// in\n    tag_90:\n      tag_91\n      jump\t// in\n    tag_89:\n      stop\n        /* \"preventa/JFVCrowdsale.sol\":7030:7444  function claimRefunds() external nonReentrant whenNotPaused {... */\n    tag_9:\n      callvalue\n      dup1\n      iszero\n      tag_92\n      jumpi\n      revert(0x00, 0x00)\n    tag_92:\n      pop\n      tag_93\n      tag_94\n      jump\t// in\n    tag_93:\n      stop\n        /* \"preventa/JFVCrowdsale.sol\":4359:4436  function unpause() external onlyRole(PAUSER_ROLE) {... */\n    tag_10:\n      callvalue\n      dup1\n      iszero\n      tag_95\n      jumpi\n      revert(0x00, 0x00)\n    tag_95:\n      pop\n      tag_96\n      tag_97\n      jump\t// in\n    tag_96:\n      stop\n        /* \"preventa/JFVCrowdsale.sol\":1921:1945  uint256 public weiRaised */\n    tag_11:\n      callvalue\n      dup1\n      iszero\n      tag_98\n      jumpi\n      revert(0x00, 0x00)\n    tag_98:\n      pop\n      tag_99\n      tag_100\n      jump\t// in\n    tag_99:\n      mload(0x40)\n      tag_101\n      swap2\n      swap1\n      tag_77\n      jump\t// in\n    tag_101:\n      mload(0x40)\n      dup1\n      swap2\n      sub\n      swap1\n      return\n        /* \"preventa/JFVCrowdsale.sol\":2062:2106  mapping(address => uint256) public allocated */\n    tag_12:\n      callvalue\n      dup1\n      iszero\n      tag_102\n      jumpi\n      revert(0x00, 0x00)\n    tag_102:\n      pop\n      tag_103\n      0x04\n      dup1\n      calldatasize\n      sub\n      dup2\n      add\n      swap1\n      tag_104\n      swap2\n      swap1\n      tag_105\n      jump\t// in\n    tag_104:\n      tag_106\n      jump\t// in\n    tag_103:\n      mload(0x40)\n      tag_107\n      swap2\n      swap1\n      tag_77\n      jump\t// in\n    tag_107:\n      mload(0x40)\n      dup1\n      swap2\n      sub\n      swap1\n      return\n        /* \"preventa/JFVCrowdsale.sol\":4626:4834  function isOpen() public view returns (bool) {... */\n    tag_13:\n      callvalue\n      dup1\n      iszero\n      tag_108\n      jumpi\n      revert(0x00, 0x00)\n    tag_108:\n      pop\n      tag_109\n      tag_110\n      jump\t// in\n    tag_109:\n      mload(0x40)\n      tag_111\n      swap2\n      swap1\n      tag_65\n      jump\t// in\n    tag_111:\n      mload(0x40)\n      dup1\n      swap2\n      sub\n      swap1\n      return\n        /* \"preventa/JFVCrowdsale.sol\":951:977  uint256 public closingTime */\n    tag_14:\n      callvalue\n      dup1\n      iszero\n      tag_112\n      jumpi\n      revert(0x00, 0x00)\n    tag_112:\n      pop\n      tag_113\n      tag_114\n      jump\t// in\n    tag_113:\n      mload(0x40)\n      tag_115\n      swap2\n      swap1\n      tag_77\n      jump\t// in\n    tag_115:\n      mload(0x40)\n      dup1\n      swap2\n      sub\n      swap1\n      return\n        /* \"preventa/JFVCrowdsale.sol\":6020:6378  function finalize() external {... */\n    tag_15:\n      callvalue\n      dup1\n      iszero\n      tag_116\n      jumpi\n      revert(0x00, 0x00)\n    tag_116:\n      pop\n      tag_117\n      tag_118\n      jump\t// in\n    tag_117:\n      stop\n        /* \"preventa/JFVCrowdsale.sol\":1951:1976  uint256 public tokensSold */\n    tag_16:\n      callvalue\n      dup1\n      iszero\n      tag_119\n      jumpi\n      revert(0x00, 0x00)\n    tag_119:\n      pop\n      tag_120\n      tag_121\n      jump\t// in\n    tag_120:\n      mload(0x40)\n      tag_122\n      swap2\n      swap1\n      tag_77\n      jump\t// in\n    tag_122:\n      mload(0x40)\n      dup1\n      swap2\n      sub\n      swap1\n      return\n        /* \"preventa/JFVCrowdsale.sol\":674:695  address public wallet */\n    tag_17:\n      callvalue\n      dup1\n      iszero\n      tag_123\n      jumpi\n      revert(0x00, 0x00)\n    tag_123:\n      pop\n      tag_124\n      tag_125\n      jump\t// in\n    tag_124:\n      mload(0x40)\n      tag_126\n      swap2\n      swap1\n      tag_127\n      jump\t// in\n    tag_126:\n      mload(0x40)\n      dup1\n      swap2\n      sub\n      swap1\n      return\n        /* \"@openzeppelin/contracts/utils/Pausable.sol\":1726:1810  function paused() public view virtual returns (bool) {... */\n    tag_18:\n      callvalue\n      dup1\n      iszero\n      tag_128\n      jumpi\n      revert(0x00, 0x00)\n    tag_128:\n      pop\n      tag_129\n      tag_130\n      jump\t// in\n    tag_129:\n      mload(0x40)\n      tag_131\n      swap2\n      swap1\n      tag_65\n      jump\t// in\n    tag_131:\n      mload(0x40)\n      dup1\n      swap2\n      sub\n      swap1\n      return\n        /* \"preventa/JFVCrowdsale.sol\":4280:4353  function pause() external onlyRole(PAUSER_ROLE) {... */\n    tag_19:\n      callvalue\n      dup1\n      iszero\n      tag_132\n      jumpi\n      revert(0x00, 0x00)\n    tag_132:\n      pop\n      tag_133\n      tag_134\n      jump\t// in\n    tag_133:\n      stop\n        /* \"preventa/JFVCrowdsale.sol\":1054:1084  uint256 public maxContribution */\n    tag_20:\n      callvalue\n      dup1\n      iszero\n      tag_135\n      jumpi\n      revert(0x00, 0x00)\n    tag_135:\n      pop\n      tag_136\n      tag_137\n      jump\t// in\n    tag_136:\n      mload(0x40)\n      tag_138\n      swap2\n      swap1\n      tag_77\n      jump\t// in\n    tag_138:\n      mload(0x40)\n      dup1\n      swap2\n      sub\n      swap1\n      return\n        /* \"preventa/JFVCrowdsale.sol\":782:814  uint256 public immutable softCap */\n    tag_21:\n      callvalue\n      dup1\n      iszero\n      tag_139\n      jumpi\n      revert(0x00, 0x00)\n    tag_139:\n      pop\n      tag_140\n      tag_141\n      jump\t// in\n    tag_140:\n      mload(0x40)\n      tag_142\n      swap2\n      swap1\n      tag_77\n      jump\t// in\n    tag_142:\n      mload(0x40)\n      dup1\n      swap2\n      sub\n      swap1\n      return\n        /* \"@openzeppelin/contracts/access/AccessControl.sol\":2854:2990  function hasRole(bytes32 role, address account) public view virtual returns (bool) {... */\n    tag_22:\n      callvalue\n      dup1\n      iszero\n      tag_143\n      jumpi\n      revert(0x00, 0x00)\n    tag_143:\n      pop\n      tag_144\n      0x04\n      dup1\n      calldatasize\n      sub\n      dup2\n      add\n      swap1\n      tag_145\n      swap2\n      swap1\n      tag_81\n      jump\t// in\n    tag_145:\n      tag_146\n      jump\t// in\n    tag_144:\n      mload(0x40)\n      tag_147\n      swap2\n      swap1\n      tag_65\n      jump\t// in\n    tag_147:\n      mload(0x40)\n      dup1\n      swap2\n      sub\n      swap1\n      return\n        /* \"preventa/JFVCrowdsale.sol\":1983:2029  mapping(address => uint256) public contributed */\n    tag_23:\n      callvalue\n      dup1\n      iszero\n      tag_148\n      jumpi\n      revert(0x00, 0x00)\n    tag_148:\n      pop\n      tag_149\n      0x04\n      dup1\n      calldatasize\n      sub\n      dup2\n      add\n      swap1\n      tag_150\n      swap2\n      swap1\n      tag_105\n      jump\t// in\n    tag_150:\n      tag_151\n      jump\t// in\n    tag_149:\n      mload(0x40)\n      tag_152\n      swap2\n      swap1\n      tag_77\n      jump\t// in\n    tag_152:\n      mload(0x40)\n      dup1\n      swap2\n      sub\n      swap1\n      return\n        /* \"preventa/JFVCrowdsale.sol\":6384:7024  function claimTGE() external nonReentrant whenNotPaused {... */\n    tag_24:\n      callvalue\n      dup1\n      iszero\n      tag_153\n      jumpi\n      revert(0x00, 0x00)\n    tag_153:\n      pop\n      tag_154\n      tag_155\n      jump\t// in\n    tag_154:\n      stop\n        /* \"@openzeppelin/contracts/access/AccessControl.sol\":2187:2236  bytes32 public constant DEFAULT_ADMIN_ROLE = 0x00 */\n    tag_25:\n      callvalue\n      dup1\n      iszero\n      tag_156\n      jumpi\n      revert(0x00, 0x00)\n    tag_156:\n      pop\n      tag_157\n      tag_158\n      jump\t// in\n    tag_157:\n      mload(0x40)\n      tag_159\n      swap2\n      swap1\n      tag_72\n      jump\t// in\n    tag_159:\n      mload(0x40)\n      dup1\n      swap2\n      sub\n      swap1\n      return\n        /* \"preventa/JFVCrowdsale.sol\":470:532  bytes32 public constant CONFIG_ROLE = keccak256(\"CONFIG_ROLE\") */\n    tag_26:\n      callvalue\n      dup1\n      iszero\n      tag_160\n      jumpi\n      revert(0x00, 0x00)\n    tag_160:\n      pop\n      tag_161\n      tag_162\n      jump\t// in\n    tag_161:\n      mload(0x40)\n      tag_163\n      swap2\n      swap1\n      tag_72\n      jump\t// in\n    tag_163:\n      mload(0x40)\n      dup1\n      swap2\n      sub\n      swap1\n      return\n        /* \"preventa/JFVCrowdsale.sol\":991:1021  uint256 public minContribution */\n    tag_27:\n      callvalue\n      dup1\n      iszero\n      tag_164\n      jumpi\n      revert(0x00, 0x00)\n    tag_164:\n      pop\n      tag_165\n      tag_166\n      jump\t// in\n    tag_165:\n      mload(0x40)\n      tag_167\n      swap2\n      swap1\n      tag_77\n      jump\t// in\n    tag_167:\n      mload(0x40)\n      dup1\n      swap2\n      sub\n      swap1\n      return\n        /* \"preventa/JFVCrowdsale.sol\":7862:8237  function tgeClaimableOf(address user) external view returns (uint256) {... */\n    tag_28:\n      callvalue\n      dup1\n      iszero\n      tag_168\n      jumpi\n      revert(0x00, 0x00)\n    tag_168:\n      pop\n      tag_169\n      0x04\n      dup1\n      calldatasize\n      sub\n      dup2\n      add\n      swap1\n      tag_170\n      swap2\n      swap1\n      tag_105\n      jump\t// in\n    tag_170:\n      tag_171\n      jump\t// in\n    tag_169:\n      mload(0x40)\n      tag_172\n      swap2\n      swap1\n      tag_77\n      jump\t// in\n    tag_172:\n      mload(0x40)\n      dup1\n      swap2\n      sub\n      swap1\n      return\n        /* \"preventa/JFVCrowdsale.sol\":2217:2238  bool public finalized */\n    tag_29:\n      callvalue\n      dup1\n      iszero\n      tag_173\n      jumpi\n      revert(0x00, 0x00)\n    tag_173:\n      pop\n      tag_174\n      tag_175\n      jump\t// in\n    tag_174:\n      mload(0x40)\n      tag_176\n      swap2\n      swap1\n      tag_65\n      jump\t// in\n    tag_176:\n      mload(0x40)\n      dup1\n      swap2\n      sub\n      swap1\n      return\n        /* \"preventa/JFVCrowdsale.sol\":909:935  uint256 public openingTime */\n    tag_30:\n      callvalue\n      dup1\n      iszero\n      tag_177\n      jumpi\n      revert(0x00, 0x00)\n    tag_177:\n      pop\n      tag_178\n      tag_179\n      jump\t// in\n    tag_178:\n      mload(0x40)\n      tag_180\n      swap2\n      swap1\n      tag_77\n      jump\t// in\n    tag_180:\n      mload(0x40)\n      dup1\n      swap2\n      sub\n      swap1\n      return\n        /* \"preventa/JFVCrowdsale.sol\":2143:2188  mapping(address => uint256) public tgeClaimed */\n    tag_31:\n      callvalue\n      dup1\n      iszero\n      tag_181\n      jumpi\n      revert(0x00, 0x00)\n    tag_181:\n      pop\n      tag_182\n      0x04\n      dup1\n      calldatasize\n      sub\n      dup2\n      add\n      swap1\n      tag_183\n      swap2\n      swap1\n      tag_105\n      jump\t// in\n    tag_183:\n      tag_184\n      jump\t// in\n    tag_182:\n      mload(0x40)\n      tag_185\n      swap2\n      swap1\n      tag_77\n      jump\t// in\n    tag_185:\n      mload(0x40)\n      dup1\n      swap2\n      sub\n      swap1\n      return\n        /* \"preventa/JFVCrowdsale.sol\":4840:5003  function isClosed() public view returns (bool) {... */\n    tag_32:\n      callvalue\n      dup1\n      iszero\n      tag_186\n      jumpi\n      revert(0x00, 0x00)\n    tag_186:\n      pop\n      tag_187\n      tag_188\n      jump\t// in\n    tag_187:\n      mload(0x40)\n      tag_189\n      swap2\n      swap1\n      tag_65\n      jump\t// in\n    tag_189:\n      mload(0x40)\n      dup1\n      swap2\n      sub\n      swap1\n      return\n        /* \"preventa/JFVCrowdsale.sol\":8709:8985  function setLimits(... */\n    tag_33:\n      callvalue\n      dup1\n      iszero\n      tag_190\n      jumpi\n      revert(0x00, 0x00)\n    tag_190:\n      pop\n      tag_191\n      0x04\n      dup1\n      calldatasize\n      sub\n      dup2\n      add\n      swap1\n      tag_192\n      swap2\n      swap1\n      tag_193\n      jump\t// in\n    tag_192:\n      tag_194\n      jump\t// in\n    tag_191:\n      stop\n        /* \"@openzeppelin/contracts/access/AccessControl.sol\":4642:4780  function revokeRole(bytes32 role, address account) public virtual onlyRole(getRoleAdmin(role)) {... */\n    tag_34:\n      callvalue\n      dup1\n      iszero\n      tag_195\n      jumpi\n      revert(0x00, 0x00)\n    tag_195:\n      pop\n      tag_196\n      0x04\n      dup1\n      calldatasize\n      sub\n      dup2\n      add\n      swap1\n      tag_197\n      swap2\n      swap1\n      tag_81\n      jump\t// in\n    tag_197:\n      tag_198\n      jump\t// in\n    tag_196:\n      stop\n        /* \"preventa/JFVCrowdsale.sol\":8991:9201  function setWallet(address newWallet) external onlyRole(CONFIG_ROLE) {... */\n    tag_35:\n      callvalue\n      dup1\n      iszero\n      tag_199\n      jumpi\n      revert(0x00, 0x00)\n    tag_199:\n      pop\n      tag_200\n      0x04\n      dup1\n      calldatasize\n      sub\n      dup2\n      add\n      swap1\n      tag_201\n      swap2\n      swap1\n      tag_105\n      jump\t// in\n    tag_201:\n      tag_202\n      jump\t// in\n    tag_200:\n      stop\n        /* \"preventa/JFVCrowdsale.sol\":7504:7788  function withdrawETH() external nonReentrant onlyRole(CONFIG_ROLE) {... */\n    tag_36:\n      callvalue\n      dup1\n      iszero\n      tag_203\n      jumpi\n      revert(0x00, 0x00)\n    tag_203:\n      pop\n      tag_204\n      tag_205\n      jump\t// in\n    tag_204:\n      stop\n        /* \"preventa/JFVCrowdsale.sol\":402:464  bytes32 public constant PAUSER_ROLE = keccak256(\"PAUSER_ROLE\") */\n    tag_37:\n      callvalue\n      dup1\n      iszero\n      tag_206\n      jumpi\n      revert(0x00, 0x00)\n    tag_206:\n      pop\n      tag_207\n      tag_208\n      jump\t// in\n    tag_207:\n      mload(0x40)\n      tag_209\n      swap2\n      swap1\n      tag_72\n      jump\t// in\n    tag_209:\n      mload(0x40)\n      dup1\n      swap2\n      sub\n      swap1\n      return\n        /* \"preventa/JFVCrowdsale.sol\":8458:8703  function setTimes(... */\n    tag_38:\n      callvalue\n      dup1\n      iszero\n      tag_210\n      jumpi\n      revert(0x00, 0x00)\n    tag_210:\n      pop\n      tag_211\n      0x04\n      dup1\n      calldatasize\n      sub\n      dup2\n      add\n      swap1\n      tag_212\n      swap2\n      swap1\n      tag_213\n      jump\t// in\n    tag_212:\n      tag_214\n      jump\t// in\n    tag_211:\n      stop\n        /* \"preventa/JFVCrowdsale.sol\":5009:6014  function buyTokens(... */\n    tag_39:\n      tag_215\n      0x04\n      dup1\n      calldatasize\n      sub\n      dup2\n      add\n      swap1\n      tag_216\n      swap2\n      swap1\n      tag_105\n      jump\t// in\n    tag_216:\n      tag_217\n      jump\t// in\n    tag_215:\n      stop\n        /* \"preventa/JFVCrowdsale.sol\":2244:2265  bool public refunding */\n    tag_40:\n      callvalue\n      dup1\n      iszero\n      tag_218\n      jumpi\n      revert(0x00, 0x00)\n    tag_218:\n      pop\n      tag_219\n      tag_220\n      jump\t// in\n    tag_219:\n      mload(0x40)\n      tag_221\n      swap2\n      swap1\n      tag_65\n      jump\t// in\n    tag_221:\n      mload(0x40)\n      dup1\n      swap2\n      sub\n      swap1\n      return\n        /* \"preventa/JFVCrowdsale.sol\":1118:1149  uint256 public immutable tgeBps */\n    tag_41:\n      callvalue\n      dup1\n      iszero\n      tag_222\n      jumpi\n      revert(0x00, 0x00)\n    tag_222:\n      pop\n      tag_223\n      tag_224\n      jump\t// in\n    tag_223:\n      mload(0x40)\n      tag_225\n      swap2\n      swap1\n      tag_77\n      jump\t// in\n    tag_225:\n      mload(0x40)\n      dup1\n      swap2\n      sub\n      swap1\n      return\n        /* \"preventa/JFVCrowdsale.sol\":847:879  uint256 public immutable hardCap */\n    tag_42:\n      callvalue\n      dup1\n      iszero\n      tag_226\n      jumpi\n      revert(0x00, 0x00)\n    tag_226:\n      pop\n      tag_227\n      tag_228\n      jump\t// in\n    tag_227:\n      mload(0x40)\n      tag_229\n      swap2\n      swap1\n      tag_77\n      jump\t// in\n    tag_229:\n      mload(0x40)\n      dup1\n      swap2\n      sub\n      swap1\n      return\n        /* \"preventa/JFVCrowdsale.sol\":583:615  IJFVToken public immutable token */\n    tag_43:\n      callvalue\n      dup1\n      iszero\n      tag_230\n      jumpi\n      revert(0x00, 0x00)\n    tag_230:\n      pop\n      tag_231\n      tag_232\n      jump\t// in\n    tag_231:\n      mload(0x40)\n      tag_233\n      swap2\n      swap1\n      tag_234\n      jump\t// in\n    tag_233:\n      mload(0x40)\n      dup1\n      swap2\n      sub\n      swap1\n      return\n        /* \"@openzeppelin/contracts/access/AccessControl.sol\":2565:2767  function supportsInterface(bytes4 interfaceId) public view virtual override returns (bool) {... */\n    tag_63:\n        /* \"@openzeppelin/contracts/access/AccessControl.sol\":2650:2654  bool */\n      0x00\n        /* \"@openzeppelin/contracts/access/AccessControl.sol\":2688:2720  type(IAccessControl).interfaceId */\n      0x7965db0b00000000000000000000000000000000000000000000000000000000\n        /* \"@openzeppelin/contracts/access/AccessControl.sol\":2673:2720  interfaceId == type(IAccessControl).interfaceId */\n      not(0xffffffffffffffffffffffffffffffffffffffffffffffffffffffff)\n      and\n        /* \"@openzeppelin/contracts/access/AccessControl.sol\":2673:2684  interfaceId */\n      dup3\n        /* \"@openzeppelin/contracts/access/AccessControl.sol\":2673:2720  interfaceId == type(IAccessControl).interfaceId */\n      not(0xffffffffffffffffffffffffffffffffffffffffffffffffffffffff)\n      and\n      eq\n        /* \"@openzeppelin/contracts/access/AccessControl.sol\":2673:2760  interfaceId == type(IAccessControl).interfaceId || super.supportsInterface(interfaceId) */\n      dup1\n      tag_236\n      jumpi\n      pop\n        /* \"@openzeppelin/contracts/access/AccessControl.sol\":2724:2760  super.supportsInterface(interfaceId) */\n      tag_237\n        /* \"@openzeppelin/contracts/access/AccessControl.sol\":2748:2759  interfaceId */\n      dup3\n        /* \"@openzeppelin/contracts/access/AccessControl.sol\":2724:2747  super.supportsInterface */\n      tag_238\n        /* \"@openzeppelin/contracts/access/AccessControl.sol\":2724:2760  super.supportsInterface(interfaceId) */\n      jump\t// in\n    tag_237:\n        /* \"@openzeppelin/contracts/access/AccessControl.sol\":2673:2760  interfaceId == type(IAccessControl).interfaceId || super.supportsInterface(interfaceId) */\n    tag_236:\n        /* \"@openzeppelin/contracts/access/AccessControl.sol\":2666:2760  return interfaceId == type(IAccessControl).interfaceId || super.supportsInterface(interfaceId) */\n      swap1\n      pop\n        /* \"@openzeppelin/contracts/access/AccessControl.sol\":2565:2767  function supportsInterface(bytes4 interfaceId) public view virtual override returns (bool) {... */\n      swap2\n      swap1\n      pop\n      jump\t// out\n        /* \"@openzeppelin/contracts/access/AccessControl.sol\":3810:3930  function getRoleAdmin(bytes32 role) public view virtual returns (bytes32) {... */\n    tag_70:\n        /* \"@openzeppelin/contracts/access/AccessControl.sol\":3875:3882  bytes32 */\n      0x00\n        /* \"@openzeppelin/contracts/access/AccessControl.sol\":3901:3907  _roles */\n      0x02\n        /* \"@openzeppelin/contracts/access/AccessControl.sol\":3901:3913  _roles[role] */\n      0x00\n        /* \"@openzeppelin/contracts/access/AccessControl.sol\":3908:3912  role */\n      dup4\n        /* \"@openzeppelin/contracts/access/AccessControl.sol\":3901:3913  _roles[role] */\n      dup2\n      mstore\n      0x20\n      add\n      swap1\n      dup2\n      mstore\n      0x20\n      add\n      0x00\n      keccak256\n        /* \"@openzeppelin/contracts/access/AccessControl.sol\":3901:3923  _roles[role].adminRole */\n      0x01\n      add\n      sload\n        /* \"@openzeppelin/contracts/access/AccessControl.sol\":3894:3923  return _roles[role].adminRole */\n      swap1\n      pop\n        /* \"@openzeppelin/contracts/access/AccessControl.sol\":3810:3930  function getRoleAdmin(bytes32 role) public view virtual returns (bytes32) {... */\n      swap2\n      swap1\n      pop\n      jump\t// out\n        /* \"preventa/JFVCrowdsale.sol\":715:734  uint256 public rate */\n    tag_75:\n      sload(0x04)\n      dup2\n      jump\t// out\n        /* \"@openzeppelin/contracts/access/AccessControl.sol\":4226:4362  function grantRole(bytes32 role, address account) public virtual onlyRole(getRoleAdmin(role)) {... */\n    tag_82:\n        /* \"@openzeppelin/contracts/access/AccessControl.sol\":4300:4318  getRoleAdmin(role) */\n      tag_240\n        /* \"@openzeppelin/contracts/access/AccessControl.sol\":4313:4317  role */\n      dup3\n        /* \"@openzeppelin/contracts/access/AccessControl.sol\":4300:4312  getRoleAdmin */\n      tag_70\n        /* \"@openzeppelin/contracts/access/AccessControl.sol\":4300:4318  getRoleAdmin(role) */\n      jump\t// in\n    tag_240:\n        /* \"@openzeppelin/contracts/access/AccessControl.sol\":2464:2480  _checkRole(role) */\n      tag_242\n        /* \"@openzeppelin/contracts/access/AccessControl.sol\":2475:2479  role */\n      dup2\n        /* \"@openzeppelin/contracts/access/AccessControl.sol\":2464:2474  _checkRole */\n      tag_243\n        /* \"@openzeppelin/contracts/access/AccessControl.sol\":2464:2480  _checkRole(role) */\n      jump\t// in\n    tag_242:\n        /* \"@openzeppelin/contracts/access/AccessControl.sol\":4330:4355  _grantRole(role, account) */\n      tag_245\n        /* \"@openzeppelin/contracts/access/AccessControl.sol\":4341:4345  role */\n      dup4\n        /* \"@openzeppelin/contracts/access/AccessControl.sol\":4347:4354  account */\n      dup4\n        /* \"@openzeppelin/contracts/access/AccessControl.sol\":4330:4340  _grantRole */\n      tag_246\n        /* \"@openzeppelin/contracts/access/AccessControl.sol\":4330:4355  _grantRole(role, account) */\n      jump\t// in\n    tag_245:\n      pop\n        /* \"@openzeppelin/contracts/access/AccessControl.sol\":4226:4362  function grantRole(bytes32 role, address account) public virtual onlyRole(getRoleAdmin(role)) {... */\n      pop\n      pop\n      pop\n      jump\t// out\n        /* \"preventa/JFVCrowdsale.sol\":8315:8452  function setRate(uint256 newRate) external onlyRole(CONFIG_ROLE) {... */\n    tag_87:\n        /* \"preventa/JFVCrowdsale.sol\":508:532  keccak256(\"CONFIG_ROLE\") */\n      0x82db594318110a04b6349ce48645aa69f0892751bc893d15e61d9e2b9c4630f5\n        /* \"@openzeppelin/contracts/access/AccessControl.sol\":2464:2480  _checkRole(role) */\n      tag_248\n        /* \"@openzeppelin/contracts/access/AccessControl.sol\":2475:2479  role */\n      dup2\n        /* \"@openzeppelin/contracts/access/AccessControl.sol\":2464:2474  _checkRole */\n      tag_243\n        /* \"@openzeppelin/contracts/access/AccessControl.sol\":2464:2480  _checkRole(role) */\n      jump\t// in\n    tag_248:\n        /* \"preventa/JFVCrowdsale.sol\":8395:8421  RateUpdated(rate, newRate) */\n      0xb38780ddde1f073d91c150de2696f3f7085883648ba21cc5ef01029cb21d1916\n        /* \"preventa/JFVCrowdsale.sol\":8407:8411  rate */\n      sload(0x04)\n        /* \"preventa/JFVCrowdsale.sol\":8413:8420  newRate */\n      dup4\n        /* \"preventa/JFVCrowdsale.sol\":8395:8421  RateUpdated(rate, newRate) */\n      mload(0x40)\n      tag_250\n      swap3\n      swap2\n      swap1\n      tag_251\n      jump\t// in\n    tag_250:\n      mload(0x40)\n      dup1\n      swap2\n      sub\n      swap1\n      log1\n        /* \"preventa/JFVCrowdsale.sol\":8438:8445  newRate */\n      dup2\n        /* \"preventa/JFVCrowdsale.sol\":8431:8435  rate */\n      0x04\n        /* \"preventa/JFVCrowdsale.sol\":8431:8445  rate = newRate */\n      dup2\n      swap1\n      sstore\n      pop\n        /* \"preventa/JFVCrowdsale.sol\":8315:8452  function setRate(uint256 newRate) external onlyRole(CONFIG_ROLE) {... */\n      pop\n      pop\n      jump\t// out\n        /* \"@openzeppelin/contracts/access/AccessControl.sol\":5328:5573  function renounceRole(bytes32 role, address callerConfirmation) public virtual {... */\n    tag_91:\n        /* \"@openzeppelin/contracts/access/AccessControl.sol\":5443:5455  _msgSender() */\n      tag_253\n        /* \"@openzeppelin/contracts/access/AccessControl.sol\":5443:5453  _msgSender */\n      tag_254\n        /* \"@openzeppelin/contracts/access/AccessControl.sol\":5443:5455  _msgSender() */\n      jump\t// in\n    tag_253:\n        /* \"@openzeppelin/contracts/access/AccessControl.sol\":5421:5455  callerConfirmation != _msgSender() */\n      0xffffffffffffffffffffffffffffffffffffffff\n      and\n        /* \"@openzeppelin/contracts/access/AccessControl.sol\":5421:5439  callerConfirmation */\n      dup2\n        /* \"@openzeppelin/contracts/access/AccessControl.sol\":5421:5455  callerConfirmation != _msgSender() */\n      0xffffffffffffffffffffffffffffffffffffffff\n      and\n      eq\n        /* \"@openzeppelin/contracts/access/AccessControl.sol\":5417:5519  if (callerConfirmation != _msgSender()) {... */\n      tag_255\n      jumpi\n        /* \"@openzeppelin/contracts/access/AccessControl.sol\":5478:5508  AccessControlBadConfirmation() */\n      mload(0x40)\n      0x6697b23200000000000000000000000000000000000000000000000000000000\n      dup2\n      mstore\n      0x04\n      add\n      mload(0x40)\n      dup1\n      swap2\n      sub\n      swap1\n      revert\n        /* \"@openzeppelin/contracts/access/AccessControl.sol\":5417:5519  if (callerConfirmation != _msgSender()) {... */\n    tag_255:\n        /* \"@openzeppelin/contracts/access/AccessControl.sol\":5529:5566  _revokeRole(role, callerConfirmation) */\n      tag_256\n        /* \"@openzeppelin/contracts/access/AccessControl.sol\":5541:5545  role */\n      dup3\n        /* \"@openzeppelin/contracts/access/AccessControl.sol\":5547:5565  callerConfirmation */\n      dup3\n        /* \"@openzeppelin/contracts/access/AccessControl.sol\":5529:5540  _revokeRole */\n      tag_257\n        /* \"@openzeppelin/contracts/access/AccessControl.sol\":5529:5566  _revokeRole(role, callerConfirmation) */\n      jump\t// in\n    tag_256:\n      pop\n        /* \"@openzeppelin/contracts/access/AccessControl.sol\":5328:5573  function renounceRole(bytes32 role, address callerConfirmation) public virtual {... */\n      pop\n      pop\n      jump\t// out\n        /* \"preventa/JFVCrowdsale.sol\":7030:7444  function claimRefunds() external nonReentrant whenNotPaused {... */\n    tag_94:\n        /* \"@openzeppelin/contracts/utils/ReentrancyGuard.sol\":2500:2521  _nonReentrantBefore() */\n      tag_259\n        /* \"@openzeppelin/contracts/utils/ReentrancyGuard.sol\":2500:2519  _nonReentrantBefore */\n      tag_260\n        /* \"@openzeppelin/contracts/utils/ReentrancyGuard.sol\":2500:2521  _nonReentrantBefore() */\n      jump\t// in\n    tag_259:\n        /* \"@openzeppelin/contracts/utils/Pausable.sol\":1350:1369  _requireNotPaused() */\n      tag_262\n        /* \"@openzeppelin/contracts/utils/Pausable.sol\":1350:1367  _requireNotPaused */\n      tag_263\n        /* \"@openzeppelin/contracts/utils/Pausable.sol\":1350:1369  _requireNotPaused() */\n      jump\t// in\n    tag_262:\n        /* \"preventa/JFVCrowdsale.sol\":7105:7114  refunding */\n      0x0e\n      0x01\n      swap1\n      sload\n      swap1\n      0x0100\n      exp\n      swap1\n      div\n      0xff\n      and\n        /* \"preventa/JFVCrowdsale.sol\":7100:7142  if (!refunding) revert RefundsNotEnabled() */\n      tag_265\n      jumpi\n        /* \"preventa/JFVCrowdsale.sol\":7123:7142  RefundsNotEnabled() */\n      mload(0x40)\n      0x64547e6900000000000000000000000000000000000000000000000000000000\n      dup2\n      mstore\n      0x04\n      add\n      mload(0x40)\n      dup1\n      swap2\n      sub\n      swap1\n      revert\n        /* \"preventa/JFVCrowdsale.sol\":7100:7142  if (!refunding) revert RefundsNotEnabled() */\n    tag_265:\n        /* \"preventa/JFVCrowdsale.sol\":7152:7166  uint256 amount */\n      0x00\n        /* \"preventa/JFVCrowdsale.sol\":7169:7180  contributed */\n      0x0b\n        /* \"preventa/JFVCrowdsale.sol\":7169:7192  contributed[msg.sender] */\n      0x00\n        /* \"preventa/JFVCrowdsale.sol\":7181:7191  msg.sender */\n      caller\n        /* \"preventa/JFVCrowdsale.sol\":7169:7192  contributed[msg.sender] */\n      0xffffffffffffffffffffffffffffffffffffffff\n      and\n      0xffffffffffffffffffffffffffffffffffffffff\n      and\n      dup2\n      mstore\n      0x20\n      add\n      swap1\n      dup2\n      mstore\n      0x20\n      add\n      0x00\n      keccak256\n      sload\n        /* \"preventa/JFVCrowdsale.sol\":7152:7192  uint256 amount = contributed[msg.sender] */\n      swap1\n      pop\n        /* \"preventa/JFVCrowdsale.sol\":7216:7217  0 */\n      0x00\n        /* \"preventa/JFVCrowdsale.sol\":7206:7212  amount */\n      dup2\n        /* \"preventa/JFVCrowdsale.sol\":7206:7217  amount == 0 */\n      sub\n        /* \"preventa/JFVCrowdsale.sol\":7202:7242  if (amount == 0) revert NothingToClaim() */\n      tag_266\n      jumpi\n        /* \"preventa/JFVCrowdsale.sol\":7226:7242  NothingToClaim() */\n      mload(0x40)\n      0x969bf72800000000000000000000000000000000000000000000000000000000\n      dup2\n      mstore\n      0x04\n      add\n      mload(0x40)\n      dup1\n      swap2\n      sub\n      swap1\n      revert\n        /* \"preventa/JFVCrowdsale.sol\":7202:7242  if (amount == 0) revert NothingToClaim() */\n    tag_266:\n        /* \"preventa/JFVCrowdsale.sol\":7279:7280  0 */\n      0x00\n        /* \"preventa/JFVCrowdsale.sol\":7253:7264  contributed */\n      0x0b\n        /* \"preventa/JFVCrowdsale.sol\":7253:7276  contributed[msg.sender] */\n      0x00\n        /* \"preventa/JFVCrowdsale.sol\":7265:7275  msg.sender */\n      caller\n        /* \"preventa/JFVCrowdsale.sol\":7253:7276  contributed[msg.sender] */\n      0xffffffffffffffffffffffffffffffffffffffff\n      and\n      0xffffffffffffffffffffffffffffffffffffffff\n      and\n      dup2\n      mstore\n      0x20\n      add\n      swap1\n      dup2\n      mstore\n      0x20\n      add\n      0x00\n      keccak256\n        /* \"preventa/JFVCrowdsale.sol\":7253:7280  contributed[msg.sender] = 0 */\n      dup2\n      swap1\n      sstore\n      pop\n        /* \"preventa/JFVCrowdsale.sol\":7291:7298  bool ok */\n      0x00\n        /* \"preventa/JFVCrowdsale.sol\":7312:7322  msg.sender */\n      caller\n        /* \"preventa/JFVCrowdsale.sol\":7304:7328  payable(msg.sender).call */\n      0xffffffffffffffffffffffffffffffffffffffff\n      and\n        /* \"preventa/JFVCrowdsale.sol\":7336:7342  amount */\n      dup3\n        /* \"preventa/JFVCrowdsale.sol\":7304:7347  payable(msg.sender).call{value: amount}(\"\") */\n      mload(0x40)\n      tag_267\n      swap1\n      tag_268\n      jump\t// in\n    tag_267:\n      0x00\n      mload(0x40)\n      dup1\n      dup4\n      sub\n      dup2\n      dup6\n      dup8\n      gas\n      call\n      swap3\n      pop\n      pop\n      pop\n      returndatasize\n      dup1\n      0x00\n      dup2\n      eq\n      tag_271\n      jumpi\n      mload(0x40)\n      swap2\n      pop\n      and(add(returndatasize, 0x3f), not(0x1f))\n      dup3\n      add\n      0x40\n      mstore\n      returndatasize\n      dup3\n      mstore\n      returndatasize\n      0x00\n      0x20\n      dup5\n      add\n      returndatacopy\n      jump(tag_270)\n    tag_271:\n      0x60\n      swap2\n      pop\n    tag_270:\n      pop\n        /* \"preventa/JFVCrowdsale.sol\":7290:7347  (bool ok, ) = payable(msg.sender).call{value: amount}(\"\") */\n      pop\n      swap1\n      pop\n        /* \"preventa/JFVCrowdsale.sol\":7365:7367  ok */\n      dup1\n        /* \"preventa/JFVCrowdsale.sol\":7357:7394  require(ok, \"Refund transfer failed\") */\n      tag_272\n      jumpi\n      mload(0x40)\n      0x08c379a000000000000000000000000000000000000000000000000000000000\n      dup2\n      mstore\n      0x04\n      add\n      tag_273\n      swap1\n      tag_274\n      jump\t// in\n    tag_273:\n      mload(0x40)\n      dup1\n      swap2\n      sub\n      swap1\n      revert\n    tag_272:\n        /* \"preventa/JFVCrowdsale.sol\":7418:7428  msg.sender */\n      caller\n        /* \"preventa/JFVCrowdsale.sol\":7409:7437  Refunded(msg.sender, amount) */\n      0xffffffffffffffffffffffffffffffffffffffff\n      and\n      0xd7dee2702d63ad89917b6a4da9981c90c4d24f8c2bdfd64c604ecae57d8d0651\n        /* \"preventa/JFVCrowdsale.sol\":7430:7436  amount */\n      dup4\n        /* \"preventa/JFVCrowdsale.sol\":7409:7437  Refunded(msg.sender, amount) */\n      mload(0x40)\n      tag_275\n      swap2\n      swap1\n      tag_77\n      jump\t// in\n    tag_275:\n      mload(0x40)\n      dup1\n      swap2\n      sub\n      swap1\n      log2\n        /* \"preventa/JFVCrowdsale.sol\":7090:7444  {... */\n      pop\n      pop\n        /* \"@openzeppelin/contracts/utils/ReentrancyGuard.sol\":2542:2562  _nonReentrantAfter() */\n      tag_276\n        /* \"@openzeppelin/contracts/utils/ReentrancyGuard.sol\":2542:2560  _nonReentrantAfter */\n      tag_277\n        /* \"@openzeppelin/contracts/utils/ReentrancyGuard.sol\":2542:2562  _nonReentrantAfter() */\n      jump\t// in\n    tag_276:\n        /* \"preventa/JFVCrowdsale.sol\":7030:7444  function claimRefunds() external nonReentrant whenNotPaused {... */\n      jump\t// out\n        /* \"preventa/JFVCrowdsale.sol\":4359:4436  function unpause() external onlyRole(PAUSER_ROLE) {... */\n    tag_97:\n        /* \"preventa/JFVCrowdsale.sol\":440:464  keccak256(\"PAUSER_ROLE\") */\n      0x65d7a28e3265b37a6474929f336521b332c1681b933f6cb9f3376673440d862a\n        /* \"@openzeppelin/contracts/access/AccessControl.sol\":2464:2480  _checkRole(role) */\n      tag_279\n        /* \"@openzeppelin/contracts/access/AccessControl.sol\":2475:2479  role */\n      dup2\n        /* \"@openzeppelin/contracts/access/AccessControl.sol\":2464:2474  _checkRole */\n      tag_243\n        /* \"@openzeppelin/contracts/access/AccessControl.sol\":2464:2480  _checkRole(role) */\n      jump\t// in\n    tag_279:\n        /* \"preventa/JFVCrowdsale.sol\":4419:4429  _unpause() */\n      tag_281\n        /* \"preventa/JFVCrowdsale.sol\":4419:4427  _unpause */\n      tag_282\n        /* \"preventa/JFVCrowdsale.sol\":4419:4429  _unpause() */\n      jump\t// in\n    tag_281:\n        /* \"preventa/JFVCrowdsale.sol\":4359:4436  function unpause() external onlyRole(PAUSER_ROLE) {... */\n      pop\n      jump\t// out\n        /* \"preventa/JFVCrowdsale.sol\":1921:1945  uint256 public weiRaised */\n    tag_100:\n      sload(0x09)\n      dup2\n      jump\t// out\n        /* \"preventa/JFVCrowdsale.sol\":2062:2106  mapping(address => uint256) public allocated */\n    tag_106:\n      mstore(0x20, 0x0c)\n      dup1\n      0x00\n      mstore\n      keccak256(0x00, 0x40)\n      0x00\n      swap2\n      pop\n      swap1\n      pop\n      sload\n      dup2\n      jump\t// out\n        /* \"preventa/JFVCrowdsale.sol\":4626:4834  function isOpen() public view returns (bool) {... */\n    tag_110:\n        /* \"preventa/JFVCrowdsale.sol\":4665:4669  bool */\n      0x00\n        /* \"preventa/JFVCrowdsale.sol\":4708:4719  openingTime */\n      sload(0x05)\n        /* \"preventa/JFVCrowdsale.sol\":4689:4704  block.timestamp */\n      timestamp\n        /* \"preventa/JFVCrowdsale.sol\":4689:4719  block.timestamp >= openingTime */\n      lt\n      iszero\n        /* \"preventa/JFVCrowdsale.sol\":4689:4765  block.timestamp >= openingTime &&... */\n      dup1\n      iszero\n      tag_284\n      jumpi\n      pop\n        /* \"preventa/JFVCrowdsale.sol\":4754:4765  closingTime */\n      sload(0x06)\n        /* \"preventa/JFVCrowdsale.sol\":4735:4750  block.timestamp */\n      timestamp\n        /* \"preventa/JFVCrowdsale.sol\":4735:4765  block.timestamp <= closingTime */\n      gt\n      iszero\n        /* \"preventa/JFVCrowdsale.sol\":4689:4765  block.timestamp >= openingTime &&... */\n    tag_284:\n        /* \"preventa/JFVCrowdsale.sol\":4689:4800  block.timestamp >= openingTime &&... */\n      dup1\n      iszero\n      tag_285\n      jumpi\n      pop\n        /* \"preventa/JFVCrowdsale.sol\":4793:4800  hardCap */\n      immutable(\"0x887d510a66c2c5edb473d8bcaa91e9efa96aa179a0ec88f5292ca216a1999f71\")\n        /* \"preventa/JFVCrowdsale.sol\":4781:4790  weiRaised */\n      sload(0x09)\n        /* \"preventa/JFVCrowdsale.sol\":4781:4800  weiRaised < hardCap */\n      lt\n        /* \"preventa/JFVCrowdsale.sol\":4689:4800  block.timestamp >= openingTime &&... */\n    tag_285:\n        /* \"preventa/JFVCrowdsale.sol\":4689:4826  block.timestamp >= openingTime &&... */\n      dup1\n      iszero\n      tag_286\n      jumpi\n      pop\n        /* \"preventa/JFVCrowdsale.sol\":4817:4826  finalized */\n      0x0e\n      0x00\n      swap1\n      sload\n      swap1\n      0x0100\n      exp\n      swap1\n      div\n      0xff\n      and\n        /* \"preventa/JFVCrowdsale.sol\":4816:4826  !finalized */\n      iszero\n        /* \"preventa/JFVCrowdsale.sol\":4689:4826  block.timestamp >= openingTime &&... */\n    tag_286:\n        /* \"preventa/JFVCrowdsale.sol\":4681:4827  return (block.timestamp >= openingTime &&... */\n      swap1\n      pop\n        /* \"preventa/JFVCrowdsale.sol\":4626:4834  function isOpen() public view returns (bool) {... */\n      swap1\n      jump\t// out\n        /* \"preventa/JFVCrowdsale.sol\":951:977  uint256 public closingTime */\n    tag_114:\n      sload(0x06)\n      dup2\n      jump\t// out\n        /* \"preventa/JFVCrowdsale.sol\":6020:6378  function finalize() external {... */\n    tag_118:\n        /* \"preventa/JFVCrowdsale.sol\":6064:6074  isClosed() */\n      tag_288\n        /* \"preventa/JFVCrowdsale.sol\":6064:6072  isClosed */\n      tag_188\n        /* \"preventa/JFVCrowdsale.sol\":6064:6074  isClosed() */\n      jump\t// in\n    tag_288:\n        /* \"preventa/JFVCrowdsale.sol\":6059:6098  if (!isClosed()) revert SaleNotClosed() */\n      tag_289\n      jumpi\n        /* \"preventa/JFVCrowdsale.sol\":6083:6098  SaleNotClosed() */\n      mload(0x40)\n      0x78fa807700000000000000000000000000000000000000000000000000000000\n      dup2\n      mstore\n      0x04\n      add\n      mload(0x40)\n      dup1\n      swap2\n      sub\n      swap1\n      revert\n        /* \"preventa/JFVCrowdsale.sol\":6059:6098  if (!isClosed()) revert SaleNotClosed() */\n    tag_289:\n        /* \"preventa/JFVCrowdsale.sol\":6112:6121  finalized */\n      0x0e\n      0x00\n      swap1\n      sload\n      swap1\n      0x0100\n      exp\n      swap1\n      div\n      0xff\n      and\n        /* \"preventa/JFVCrowdsale.sol\":6108:6148  if (finalized) revert AlreadyFinalized() */\n      iszero\n      tag_290\n      jumpi\n        /* \"preventa/JFVCrowdsale.sol\":6130:6148  AlreadyFinalized() */\n      mload(0x40)\n      0x475a253500000000000000000000000000000000000000000000000000000000\n      dup2\n      mstore\n      0x04\n      add\n      mload(0x40)\n      dup1\n      swap2\n      sub\n      swap1\n      revert\n        /* \"preventa/JFVCrowdsale.sol\":6108:6148  if (finalized) revert AlreadyFinalized() */\n    tag_290:\n        /* \"preventa/JFVCrowdsale.sol\":6170:6174  true */\n      0x01\n        /* \"preventa/JFVCrowdsale.sol\":6158:6167  finalized */\n      0x0e\n      0x00\n        /* \"preventa/JFVCrowdsale.sol\":6158:6174  finalized = true */\n      0x0100\n      exp\n      dup2\n      sload\n      dup2\n      0xff\n      mul\n      not\n      and\n      swap1\n      dup4\n      iszero\n      iszero\n      mul\n      or\n      swap1\n      sstore\n      pop\n        /* \"preventa/JFVCrowdsale.sol\":6201:6208  softCap */\n      immutable(\"0xde3e84ddd45b00ed4c2983e163b11185e5a8d55e6ce91f0a78f922802245220e\")\n        /* \"preventa/JFVCrowdsale.sol\":6188:6197  weiRaised */\n      sload(0x09)\n        /* \"preventa/JFVCrowdsale.sol\":6188:6208  weiRaised >= softCap */\n      lt\n        /* \"preventa/JFVCrowdsale.sol\":6184:6372  if (weiRaised >= softCap) {... */\n      tag_291\n      jumpi\n        /* \"preventa/JFVCrowdsale.sol\":6229:6244  Finalized(true) */\n      0x41493253ae80c9f89e25283c36f67849365d0515134ce43de1314223cb6f7342\n        /* \"preventa/JFVCrowdsale.sol\":6239:6243  true */\n      0x01\n        /* \"preventa/JFVCrowdsale.sol\":6229:6244  Finalized(true) */\n      mload(0x40)\n      tag_292\n      swap2\n      swap1\n      tag_65\n      jump\t// in\n    tag_292:\n      mload(0x40)\n      dup1\n      swap2\n      sub\n      swap1\n      log1\n        /* \"preventa/JFVCrowdsale.sol\":6184:6372  if (weiRaised >= softCap) {... */\n      jump(tag_293)\n    tag_291:\n        /* \"preventa/JFVCrowdsale.sol\":6287:6291  true */\n      0x01\n        /* \"preventa/JFVCrowdsale.sol\":6275:6284  refunding */\n      0x0e\n      0x01\n        /* \"preventa/JFVCrowdsale.sol\":6275:6291  refunding = true */\n      0x0100\n      exp\n      dup2\n      sload\n      dup2\n      0xff\n      mul\n      not\n      and\n      swap1\n      dup4\n      iszero\n      iszero\n      mul\n      or\n      swap1\n      sstore\n      pop\n        /* \"preventa/JFVCrowdsale.sol\":6310:6326  RefundsEnabled() */\n      0x599d8e5a83cffb867d051598c4d70e805d59802d8081c1c7d6dffc5b6aca2b89\n      mload(0x40)\n      mload(0x40)\n      dup1\n      swap2\n      sub\n      swap1\n      log1\n        /* \"preventa/JFVCrowdsale.sol\":6345:6361  Finalized(false) */\n      0x41493253ae80c9f89e25283c36f67849365d0515134ce43de1314223cb6f7342\n        /* \"preventa/JFVCrowdsale.sol\":6355:6360  false */\n      0x00\n        /* \"preventa/JFVCrowdsale.sol\":6345:6361  Finalized(false) */\n      mload(0x40)\n      tag_294\n      swap2\n      swap1\n      tag_65\n      jump\t// in\n    tag_294:\n      mload(0x40)\n      dup1\n      swap2\n      sub\n      swap1\n      log1\n        /* \"preventa/JFVCrowdsale.sol\":6184:6372  if (weiRaised >= softCap) {... */\n    tag_293:\n        /* \"preventa/JFVCrowdsale.sol\":6020:6378  function finalize() external {... */\n      jump\t// out\n        /* \"preventa/JFVCrowdsale.sol\":1951:1976  uint256 public tokensSold */\n    tag_121:\n      sload(0x0a)\n      dup2\n      jump\t// out\n        /* \"preventa/JFVCrowdsale.sol\":674:695  address public wallet */\n    tag_125:\n      0x03\n      0x00\n      swap1\n      sload\n      swap1\n      0x0100\n      exp\n      swap1\n      div\n      0xffffffffffffffffffffffffffffffffffffffff\n      and\n      dup2\n      jump\t// out\n        /* \"@openzeppelin/contracts/utils/Pausable.sol\":1726:1810  function paused() public view virtual returns (bool) {... */\n    tag_130:\n        /* \"@openzeppelin/contracts/utils/Pausable.sol\":1773:1777  bool */\n      0x00\n        /* \"@openzeppelin/contracts/utils/Pausable.sol\":1796:1803  _paused */\n      0x01\n      0x00\n      swap1\n      sload\n      swap1\n      0x0100\n      exp\n      swap1\n      div\n      0xff\n      and\n        /* \"@openzeppelin/contracts/utils/Pausable.sol\":1789:1803  return _paused */\n      swap1\n      pop\n        /* \"@openzeppelin/contracts/utils/Pausable.sol\":1726:1810  function paused() public view virtual returns (bool) {... */\n      swap1\n      jump\t// out\n        /* \"preventa/JFVCrowdsale.sol\":4280:4353  function pause() external onlyRole(PAUSER_ROLE) {... */\n    tag_134:\n        /* \"preventa/JFVCrowdsale.sol\":440:464  keccak256(\"PAUSER_ROLE\") */\n      0x65d7a28e3265b37a6474929f336521b332c1681b933f6cb9f3376673440d862a\n        /* \"@openzeppelin/contracts/access/AccessControl.sol\":2464:2480  _checkRole(role) */\n      tag_297\n        /* \"@openzeppelin/contracts/access/AccessControl.sol\":2475:2479  role */\n      dup2\n        /* \"@openzeppelin/contracts/access/AccessControl.sol\":2464:2474  _checkRole */\n      tag_243\n        /* \"@openzeppelin/contracts/access/AccessControl.sol\":2464:2480  _checkRole(role) */\n      jump\t// in\n    tag_297:\n        /* \"preventa/JFVCrowdsale.sol\":4338:4346  _pause() */\n      tag_299\n        /* \"preventa/JFVCrowdsale.sol\":4338:4344  _pause */\n      tag_300\n        /* \"preventa/JFVCrowdsale.sol\":4338:4346  _pause() */\n      jump\t// in\n    tag_299:\n        /* \"preventa/JFVCrowdsale.sol\":4280:4353  function pause() external onlyRole(PAUSER_ROLE) {... */\n      pop\n      jump\t// out\n        /* \"preventa/JFVCrowdsale.sol\":1054:1084  uint256 public maxContribution */\n    tag_137:\n      sload(0x08)\n      dup2\n      jump\t// out\n        /* \"preventa/JFVCrowdsale.sol\":782:814  uint256 public immutable softCap */\n    tag_141:\n      immutable(\"0xde3e84ddd45b00ed4c2983e163b11185e5a8d55e6ce91f0a78f922802245220e\")\n      dup2\n      jump\t// out\n        /* \"@openzeppelin/contracts/access/AccessControl.sol\":2854:2990  function hasRole(bytes32 role, address account) public view virtual returns (bool) {... */\n    tag_146:\n        /* \"@openzeppelin/contracts/access/AccessControl.sol\":2931:2935  bool */\n      0x00\n        /* \"@openzeppelin/contracts/access/AccessControl.sol\":2954:2960  _roles */\n      0x02\n        /* \"@openzeppelin/contracts/access/AccessControl.sol\":2954:2966  _roles[role] */\n      0x00\n        /* \"@openzeppelin/contracts/access/AccessControl.sol\":2961:2965  role */\n      dup5\n        /* \"@openzeppelin/contracts/access/AccessControl.sol\":2954:2966  _roles[role] */\n      dup2\n      mstore\n      0x20\n      add\n      swap1\n      dup2\n      mstore\n      0x20\n      add\n      0x00\n      keccak256\n        /* \"@openzeppelin/contracts/access/AccessControl.sol\":2954:2974  _roles[role].hasRole */\n      0x00\n      add\n        /* \"@openzeppelin/contracts/access/AccessControl.sol\":2954:2983  _roles[role].hasRole[account] */\n      0x00\n        /* \"@openzeppelin/contracts/access/AccessControl.sol\":2975:2982  account */\n      dup4\n        /* \"@openzeppelin/contracts/access/AccessControl.sol\":2954:2983  _roles[role].hasRole[account] */\n      0xffffffffffffffffffffffffffffffffffffffff\n      and\n      0xffffffffffffffffffffffffffffffffffffffff\n      and\n      dup2\n      mstore\n      0x20\n      add\n      swap1\n      dup2\n      mstore\n      0x20\n      add\n      0x00\n      keccak256\n      0x00\n      swap1\n      sload\n      swap1\n      0x0100\n      exp\n      swap1\n      div\n      0xff\n      and\n        /* \"@openzeppelin/contracts/access/AccessControl.sol\":2947:2983  return _roles[role].hasRole[account] */\n      swap1\n      pop\n        /* \"@openzeppelin/contracts/access/AccessControl.sol\":2854:2990  function hasRole(bytes32 role, address account) public view virtual returns (bool) {... */\n      swap3\n      swap2\n      pop\n      pop\n      jump\t// out\n        /* \"preventa/JFVCrowdsale.sol\":1983:2029  mapping(address => uint256) public contributed */\n    tag_151:\n      mstore(0x20, 0x0b)\n      dup1\n      0x00\n      mstore\n      keccak256(0x00, 0x40)\n      0x00\n      swap2\n      pop\n      swap1\n      pop\n      sload\n      dup2\n      jump\t// out\n        /* \"preventa/JFVCrowdsale.sol\":6384:7024  function claimTGE() external nonReentrant whenNotPaused {... */\n    tag_155:\n        /* \"@openzeppelin/contracts/utils/ReentrancyGuard.sol\":2500:2521  _nonReentrantBefore() */\n      tag_303\n        /* \"@openzeppelin/contracts/utils/ReentrancyGuard.sol\":2500:2519  _nonReentrantBefore */\n      tag_260\n        /* \"@openzeppelin/contracts/utils/ReentrancyGuard.sol\":2500:2521  _nonReentrantBefore() */\n      jump\t// in\n    tag_303:\n        /* \"@openzeppelin/contracts/utils/Pausable.sol\":1350:1369  _requireNotPaused() */\n      tag_305\n        /* \"@openzeppelin/contracts/utils/Pausable.sol\":1350:1367  _requireNotPaused */\n      tag_263\n        /* \"@openzeppelin/contracts/utils/Pausable.sol\":1350:1369  _requireNotPaused() */\n      jump\t// in\n    tag_305:\n        /* \"preventa/JFVCrowdsale.sol\":6455:6464  finalized */\n      0x0e\n      0x00\n      swap1\n      sload\n      swap1\n      0x0100\n      exp\n      swap1\n      div\n      0xff\n      and\n        /* \"preventa/JFVCrowdsale.sol\":6454:6464  !finalized */\n      iszero\n        /* \"preventa/JFVCrowdsale.sol\":6454:6477  !finalized || refunding */\n      dup1\n      tag_307\n      jumpi\n      pop\n        /* \"preventa/JFVCrowdsale.sol\":6468:6477  refunding */\n      0x0e\n      0x01\n      swap1\n      sload\n      swap1\n      0x0100\n      exp\n      swap1\n      div\n      0xff\n      and\n        /* \"preventa/JFVCrowdsale.sol\":6454:6477  !finalized || refunding */\n    tag_307:\n        /* \"preventa/JFVCrowdsale.sol\":6450:6505  if (!finalized || refunding) revert SoftCapNotReached() */\n      iszero\n      tag_308\n      jumpi\n        /* \"preventa/JFVCrowdsale.sol\":6486:6505  SoftCapNotReached() */\n      mload(0x40)\n      0x2bdc91ad00000000000000000000000000000000000000000000000000000000\n      dup2\n      mstore\n      0x04\n      add\n      mload(0x40)\n      dup1\n      swap2\n      sub\n      swap1\n      revert\n        /* \"preventa/JFVCrowdsale.sol\":6450:6505  if (!finalized || refunding) revert SoftCapNotReached() */\n    tag_308:\n        /* \"preventa/JFVCrowdsale.sol\":6516:6529  uint256 alloc */\n      0x00\n        /* \"preventa/JFVCrowdsale.sol\":6532:6541  allocated */\n      0x0c\n        /* \"preventa/JFVCrowdsale.sol\":6532:6553  allocated[msg.sender] */\n      0x00\n        /* \"preventa/JFVCrowdsale.sol\":6542:6552  msg.sender */\n      caller\n        /* \"preventa/JFVCrowdsale.sol\":6532:6553  allocated[msg.sender] */\n      0xffffffffffffffffffffffffffffffffffffffff\n      and\n      0xffffffffffffffffffffffffffffffffffffffff\n      and\n      dup2\n      mstore\n      0x20\n      add\n      swap1\n      dup2\n      mstore\n      0x20\n      add\n      0x00\n      keccak256\n      sload\n        /* \"preventa/JFVCrowdsale.sol\":6516:6553  uint256 alloc = allocated[msg.sender] */\n      swap1\n      pop\n        /* \"preventa/JFVCrowdsale.sol\":6576:6577  0 */\n      0x00\n        /* \"preventa/JFVCrowdsale.sol\":6567:6572  alloc */\n      dup2\n        /* \"preventa/JFVCrowdsale.sol\":6567:6577  alloc == 0 */\n      sub\n        /* \"preventa/JFVCrowdsale.sol\":6563:6602  if (alloc == 0) revert NothingToClaim() */\n      tag_309\n      jumpi\n        /* \"preventa/JFVCrowdsale.sol\":6586:6602  NothingToClaim() */\n      mload(0x40)\n      0x969bf72800000000000000000000000000000000000000000000000000000000\n      dup2\n      mstore\n      0x04\n      add\n      mload(0x40)\n      dup1\n      swap2\n      sub\n      swap1\n      revert\n        /* \"preventa/JFVCrowdsale.sol\":6563:6602  if (alloc == 0) revert NothingToClaim() */\n    tag_309:\n        /* \"preventa/JFVCrowdsale.sol\":6613:6629  uint256 tgeTotal */\n      0x00\n        /* \"preventa/JFVCrowdsale.sol\":6651:6657  10_000 */\n      0x2710\n        /* \"preventa/JFVCrowdsale.sol\":6641:6647  tgeBps */\n      immutable(\"0x2c3da56e833e1428007d8637dd3cd84c748b28d433badee9fb79b2375e44acbf\")\n        /* \"preventa/JFVCrowdsale.sol\":6633:6638  alloc */\n      dup4\n        /* \"preventa/JFVCrowdsale.sol\":6633:6647  alloc * tgeBps */\n      tag_310\n      swap2\n      swap1\n      tag_311\n      jump\t// in\n    tag_310:\n        /* \"preventa/JFVCrowdsale.sol\":6632:6657  (alloc * tgeBps) / 10_000 */\n      tag_312\n      swap2\n      swap1\n      tag_313\n      jump\t// in\n    tag_312:\n        /* \"preventa/JFVCrowdsale.sol\":6613:6657  uint256 tgeTotal = (alloc * tgeBps) / 10_000 */\n      swap1\n      pop\n        /* \"preventa/JFVCrowdsale.sol\":6668:6683  uint256 already */\n      0x00\n        /* \"preventa/JFVCrowdsale.sol\":6686:6696  tgeClaimed */\n      0x0d\n        /* \"preventa/JFVCrowdsale.sol\":6686:6708  tgeClaimed[msg.sender] */\n      0x00\n        /* \"preventa/JFVCrowdsale.sol\":6697:6707  msg.sender */\n      caller\n        /* \"preventa/JFVCrowdsale.sol\":6686:6708  tgeClaimed[msg.sender] */\n      0xffffffffffffffffffffffffffffffffffffffff\n      and\n      0xffffffffffffffffffffffffffffffffffffffff\n      and\n      dup2\n      mstore\n      0x20\n      add\n      swap1\n      dup2\n      mstore\n      0x20\n      add\n      0x00\n      keccak256\n      sload\n        /* \"preventa/JFVCrowdsale.sol\":6668:6708  uint256 already = tgeClaimed[msg.sender] */\n      swap1\n      pop\n        /* \"preventa/JFVCrowdsale.sol\":6734:6741  already */\n      dup1\n        /* \"preventa/JFVCrowdsale.sol\":6722:6730  tgeTotal */\n      dup3\n        /* \"preventa/JFVCrowdsale.sol\":6722:6741  tgeTotal <= already */\n      gt\n        /* \"preventa/JFVCrowdsale.sol\":6718:6766  if (tgeTotal <= already) revert NothingToClaim() */\n      tag_314\n      jumpi\n        /* \"preventa/JFVCrowdsale.sol\":6750:6766  NothingToClaim() */\n      mload(0x40)\n      0x969bf72800000000000000000000000000000000000000000000000000000000\n      dup2\n      mstore\n      0x04\n      add\n      mload(0x40)\n      dup1\n      swap2\n      sub\n      swap1\n      revert\n        /* \"preventa/JFVCrowdsale.sol\":6718:6766  if (tgeTotal <= already) revert NothingToClaim() */\n    tag_314:\n        /* \"preventa/JFVCrowdsale.sol\":6777:6788  uint256 due */\n      0x00\n        /* \"preventa/JFVCrowdsale.sol\":6802:6809  already */\n      dup2\n        /* \"preventa/JFVCrowdsale.sol\":6791:6799  tgeTotal */\n      dup4\n        /* \"preventa/JFVCrowdsale.sol\":6791:6809  tgeTotal - already */\n      tag_315\n      swap2\n      swap1\n      tag_316\n      jump\t// in\n    tag_315:\n        /* \"preventa/JFVCrowdsale.sol\":6777:6809  uint256 due = tgeTotal - already */\n      swap1\n      pop\n        /* \"preventa/JFVCrowdsale.sol\":6844:6852  tgeTotal */\n      dup3\n        /* \"preventa/JFVCrowdsale.sol\":6819:6829  tgeClaimed */\n      0x0d\n        /* \"preventa/JFVCrowdsale.sol\":6819:6841  tgeClaimed[msg.sender] */\n      0x00\n        /* \"preventa/JFVCrowdsale.sol\":6830:6840  msg.sender */\n      caller\n        /* \"preventa/JFVCrowdsale.sol\":6819:6841  tgeClaimed[msg.sender] */\n      0xffffffffffffffffffffffffffffffffffffffff\n      and\n      0xffffffffffffffffffffffffffffffffffffffff\n      and\n      dup2\n      mstore\n      0x20\n      add\n      swap1\n      dup2\n      mstore\n      0x20\n      add\n      0x00\n      keccak256\n        /* \"preventa/JFVCrowdsale.sol\":6819:6852  tgeClaimed[msg.sender] = tgeTotal */\n      dup2\n      swap1\n      sstore\n      pop\n        /* \"preventa/JFVCrowdsale.sol\":6867:6872  token */\n      immutable(\"0x784395980707f20063da7968cb078d3d4afc80091be06131ccab5c3acfe23124\")\n        /* \"preventa/JFVCrowdsale.sol\":6867:6877  token.mint */\n      0xffffffffffffffffffffffffffffffffffffffff\n      and\n      0x40c10f19\n        /* \"preventa/JFVCrowdsale.sol\":6878:6888  msg.sender */\n      caller\n        /* \"preventa/JFVCrowdsale.sol\":6890:6893  due */\n      dup4\n        /* \"preventa/JFVCrowdsale.sol\":6867:6894  token.mint(msg.sender, due) */\n      mload(0x40)\n      dup4\n      0xffffffff\n      and\n      0xe0\n      shl\n      dup2\n      mstore\n      0x04\n      add\n      tag_317\n      swap3\n      swap2\n      swap1\n      tag_318\n      jump\t// in\n    tag_317:\n      0x00\n      mload(0x40)\n      dup1\n      dup4\n      sub\n      dup2\n      0x00\n      dup8\n      dup1\n      extcodesize\n      iszero\n      dup1\n      iszero\n      tag_319\n      jumpi\n      revert(0x00, 0x00)\n    tag_319:\n      pop\n      gas\n      call\n      swap3\n      pop\n      pop\n      pop\n      dup1\n      iszero\n      tag_320\n      jumpi\n      pop\n      0x01\n    tag_320:\n        /* \"preventa/JFVCrowdsale.sol\":6863:6975  try token.mint(msg.sender, due) {... */\n      tag_321\n      jumpi\n        /* \"preventa/JFVCrowdsale.sol\":6952:6964  MintFailed() */\n      mload(0x40)\n      0x07637bd800000000000000000000000000000000000000000000000000000000\n      dup2\n      mstore\n      0x04\n      add\n      mload(0x40)\n      dup1\n      swap2\n      sub\n      swap1\n      revert\n        /* \"preventa/JFVCrowdsale.sol\":6863:6975  try token.mint(msg.sender, due) {... */\n    tag_321:\n        /* \"preventa/JFVCrowdsale.sol\":7001:7011  msg.sender */\n      caller\n        /* \"preventa/JFVCrowdsale.sol\":6990:7017  TGEClaimed(msg.sender, due) */\n      0xffffffffffffffffffffffffffffffffffffffff\n      and\n      0x9d9f91c7e63ecab055ab1ecb358d2e74e46aa0e4c65f9594aa73e56cfb5d0a47\n        /* \"preventa/JFVCrowdsale.sol\":7013:7016  due */\n      dup3\n        /* \"preventa/JFVCrowdsale.sol\":6990:7017  TGEClaimed(msg.sender, due) */\n      mload(0x40)\n      tag_326\n      swap2\n      swap1\n      tag_77\n      jump\t// in\n    tag_326:\n      mload(0x40)\n      dup1\n      swap2\n      sub\n      swap1\n      log2\n        /* \"preventa/JFVCrowdsale.sol\":6440:7024  {... */\n      pop\n      pop\n      pop\n      pop\n        /* \"@openzeppelin/contracts/utils/ReentrancyGuard.sol\":2542:2562  _nonReentrantAfter() */\n      tag_327\n        /* \"@openzeppelin/contracts/utils/ReentrancyGuard.sol\":2542:2560  _nonReentrantAfter */\n      tag_277\n        /* \"@openzeppelin/contracts/utils/ReentrancyGuard.sol\":2542:2562  _nonReentrantAfter() */\n      jump\t// in\n    tag_327:\n        /* \"preventa/JFVCrowdsale.sol\":6384:7024  function claimTGE() external nonReentrant whenNotPaused {... */\n      jump\t// out\n        /* \"@openzeppelin/contracts/access/AccessControl.sol\":2187:2236  bytes32 public constant DEFAULT_ADMIN_ROLE = 0x00 */\n    tag_158:\n        /* \"@openzeppelin/contracts/access/AccessControl.sol\":2232:2236  0x00 */\n      0x00\n        /* \"@openzeppelin/contracts/access/AccessControl.sol\":2187:2236  bytes32 public constant DEFAULT_ADMIN_ROLE = 0x00 */\n      0x00\n      shl\n      dup2\n      jump\t// out\n        /* \"preventa/JFVCrowdsale.sol\":470:532  bytes32 public constant CONFIG_ROLE = keccak256(\"CONFIG_ROLE\") */\n    tag_162:\n        /* \"preventa/JFVCrowdsale.sol\":508:532  keccak256(\"CONFIG_ROLE\") */\n      0x82db594318110a04b6349ce48645aa69f0892751bc893d15e61d9e2b9c4630f5\n        /* \"preventa/JFVCrowdsale.sol\":470:532  bytes32 public constant CONFIG_ROLE = keccak256(\"CONFIG_ROLE\") */\n      dup2\n      jump\t// out\n        /* \"preventa/JFVCrowdsale.sol\":991:1021  uint256 public minContribution */\n    tag_166:\n      sload(0x07)\n      dup2\n      jump\t// out\n        /* \"preventa/JFVCrowdsale.sol\":7862:8237  function tgeClaimableOf(address user) external view returns (uint256) {... */\n    tag_171:\n        /* \"preventa/JFVCrowdsale.sol\":7923:7930  uint256 */\n      0x00\n        /* \"preventa/JFVCrowdsale.sol\":7947:7956  finalized */\n      0x0e\n      0x00\n      swap1\n      sload\n      swap1\n      0x0100\n      exp\n      swap1\n      div\n      0xff\n      and\n        /* \"preventa/JFVCrowdsale.sol\":7946:7956  !finalized */\n      iszero\n        /* \"preventa/JFVCrowdsale.sol\":7946:7969  !finalized || refunding */\n      dup1\n      tag_329\n      jumpi\n      pop\n        /* \"preventa/JFVCrowdsale.sol\":7960:7969  refunding */\n      0x0e\n      0x01\n      swap1\n      sload\n      swap1\n      0x0100\n      exp\n      swap1\n      div\n      0xff\n      and\n        /* \"preventa/JFVCrowdsale.sol\":7946:7969  !finalized || refunding */\n    tag_329:\n        /* \"preventa/JFVCrowdsale.sol\":7942:7979  if (!finalized || refunding) return 0 */\n      iszero\n      tag_330\n      jumpi\n        /* \"preventa/JFVCrowdsale.sol\":7978:7979  0 */\n      0x00\n        /* \"preventa/JFVCrowdsale.sol\":7971:7979  return 0 */\n      swap1\n      pop\n      jump(tag_328)\n        /* \"preventa/JFVCrowdsale.sol\":7942:7979  if (!finalized || refunding) return 0 */\n    tag_330:\n        /* \"preventa/JFVCrowdsale.sol\":7989:8002  uint256 alloc */\n      0x00\n        /* \"preventa/JFVCrowdsale.sol\":8005:8014  allocated */\n      0x0c\n        /* \"preventa/JFVCrowdsale.sol\":8005:8020  allocated[user] */\n      0x00\n        /* \"preventa/JFVCrowdsale.sol\":8015:8019  user */\n      dup5\n        /* \"preventa/JFVCrowdsale.sol\":8005:8020  allocated[user] */\n      0xffffffffffffffffffffffffffffffffffffffff\n      and\n      0xffffffffffffffffffffffffffffffffffffffff\n      and\n      dup2\n      mstore\n      0x20\n      add\n      swap1\n      dup2\n      mstore\n      0x20\n      add\n      0x00\n      keccak256\n      sload\n        /* \"preventa/JFVCrowdsale.sol\":7989:8020  uint256 alloc = allocated[user] */\n      swap1\n      pop\n        /* \"preventa/JFVCrowdsale.sol\":8043:8044  0 */\n      0x00\n        /* \"preventa/JFVCrowdsale.sol\":8034:8039  alloc */\n      dup2\n        /* \"preventa/JFVCrowdsale.sol\":8034:8044  alloc == 0 */\n      sub\n        /* \"preventa/JFVCrowdsale.sol\":8030:8054  if (alloc == 0) return 0 */\n      tag_331\n      jumpi\n        /* \"preventa/JFVCrowdsale.sol\":8053:8054  0 */\n      0x00\n        /* \"preventa/JFVCrowdsale.sol\":8046:8054  return 0 */\n      swap2\n      pop\n      pop\n      jump(tag_328)\n        /* \"preventa/JFVCrowdsale.sol\":8030:8054  if (alloc == 0) return 0 */\n    tag_331:\n        /* \"preventa/JFVCrowdsale.sol\":8064:8080  uint256 tgeTotal */\n      0x00\n        /* \"preventa/JFVCrowdsale.sol\":8102:8108  10_000 */\n      0x2710\n        /* \"preventa/JFVCrowdsale.sol\":8092:8098  tgeBps */\n      immutable(\"0x2c3da56e833e1428007d8637dd3cd84c748b28d433badee9fb79b2375e44acbf\")\n        /* \"preventa/JFVCrowdsale.sol\":8084:8089  alloc */\n      dup4\n        /* \"preventa/JFVCrowdsale.sol\":8084:8098  alloc * tgeBps */\n      tag_332\n      swap2\n      swap1\n      tag_311\n      jump\t// in\n    tag_332:\n        /* \"preventa/JFVCrowdsale.sol\":8083:8108  (alloc * tgeBps) / 10_000 */\n      tag_333\n      swap2\n      swap1\n      tag_313\n      jump\t// in\n    tag_333:\n        /* \"preventa/JFVCrowdsale.sol\":8064:8108  uint256 tgeTotal = (alloc * tgeBps) / 10_000 */\n      swap1\n      pop\n        /* \"preventa/JFVCrowdsale.sol\":8118:8133  uint256 already */\n      0x00\n        /* \"preventa/JFVCrowdsale.sol\":8136:8146  tgeClaimed */\n      0x0d\n        /* \"preventa/JFVCrowdsale.sol\":8136:8152  tgeClaimed[user] */\n      0x00\n        /* \"preventa/JFVCrowdsale.sol\":8147:8151  user */\n      dup7\n        /* \"preventa/JFVCrowdsale.sol\":8136:8152  tgeClaimed[user] */\n      0xffffffffffffffffffffffffffffffffffffffff\n      and\n      0xffffffffffffffffffffffffffffffffffffffff\n      and\n      dup2\n      mstore\n      0x20\n      add\n      swap1\n      dup2\n      mstore\n      0x20\n      add\n      0x00\n      keccak256\n      sload\n        /* \"preventa/JFVCrowdsale.sol\":8118:8152  uint256 already = tgeClaimed[user] */\n      swap1\n      pop\n        /* \"preventa/JFVCrowdsale.sol\":8178:8185  already */\n      dup1\n        /* \"preventa/JFVCrowdsale.sol\":8166:8174  tgeTotal */\n      dup3\n        /* \"preventa/JFVCrowdsale.sol\":8166:8185  tgeTotal <= already */\n      gt\n        /* \"preventa/JFVCrowdsale.sol\":8162:8195  if (tgeTotal <= already) return 0 */\n      tag_334\n      jumpi\n        /* \"preventa/JFVCrowdsale.sol\":8194:8195  0 */\n      0x00\n        /* \"preventa/JFVCrowdsale.sol\":8187:8195  return 0 */\n      swap4\n      pop\n      pop\n      pop\n      pop\n      jump(tag_328)\n        /* \"preventa/JFVCrowdsale.sol\":8162:8195  if (tgeTotal <= already) return 0 */\n    tag_334:\n        /* \"preventa/JFVCrowdsale.sol\":8223:8230  already */\n      dup1\n        /* \"preventa/JFVCrowdsale.sol\":8212:8220  tgeTotal */\n      dup3\n        /* \"preventa/JFVCrowdsale.sol\":8212:8230  tgeTotal - already */\n      tag_335\n      swap2\n      swap1\n      tag_316\n      jump\t// in\n    tag_335:\n        /* \"preventa/JFVCrowdsale.sol\":8205:8230  return tgeTotal - already */\n      swap4\n      pop\n      pop\n      pop\n      pop\n        /* \"preventa/JFVCrowdsale.sol\":7862:8237  function tgeClaimableOf(address user) external view returns (uint256) {... */\n    tag_328:\n      swap2\n      swap1\n      pop\n      jump\t// out\n        /* \"preventa/JFVCrowdsale.sol\":2217:2238  bool public finalized */\n    tag_175:\n      0x0e\n      0x00\n      swap1\n      sload\n      swap1\n      0x0100\n      exp\n      swap1\n      div\n      0xff\n      and\n      dup2\n      jump\t// out\n        /* \"preventa/JFVCrowdsale.sol\":909:935  uint256 public openingTime */\n    tag_179:\n      sload(0x05)\n      dup2\n      jump\t// out\n        /* \"preventa/JFVCrowdsale.sol\":2143:2188  mapping(address => uint256) public tgeClaimed */\n    tag_184:\n      mstore(0x20, 0x0d)\n      dup1\n      0x00\n      mstore\n      keccak256(0x00, 0x40)\n      0x00\n      swap2\n      pop\n      swap1\n      pop\n      sload\n      dup2\n      jump\t// out\n        /* \"preventa/JFVCrowdsale.sol\":4840:5003  function isClosed() public view returns (bool) {... */\n    tag_188:\n        /* \"preventa/JFVCrowdsale.sol\":4881:4885  bool */\n      0x00\n        /* \"preventa/JFVCrowdsale.sol\":4923:4934  closingTime */\n      sload(0x06)\n        /* \"preventa/JFVCrowdsale.sol\":4905:4920  block.timestamp */\n      timestamp\n        /* \"preventa/JFVCrowdsale.sol\":4905:4934  block.timestamp > closingTime */\n      gt\n        /* \"preventa/JFVCrowdsale.sol\":4905:4970  block.timestamp > closingTime ||... */\n      dup1\n      tag_337\n      jumpi\n      pop\n        /* \"preventa/JFVCrowdsale.sol\":4963:4970  hardCap */\n      immutable(\"0x887d510a66c2c5edb473d8bcaa91e9efa96aa179a0ec88f5292ca216a1999f71\")\n        /* \"preventa/JFVCrowdsale.sol\":4950:4959  weiRaised */\n      sload(0x09)\n        /* \"preventa/JFVCrowdsale.sol\":4950:4970  weiRaised >= hardCap */\n      lt\n      iszero\n        /* \"preventa/JFVCrowdsale.sol\":4905:4970  block.timestamp > closingTime ||... */\n    tag_337:\n        /* \"preventa/JFVCrowdsale.sol\":4905:4995  block.timestamp > closingTime ||... */\n      dup1\n      tag_338\n      jumpi\n      pop\n        /* \"preventa/JFVCrowdsale.sol\":4986:4995  finalized */\n      0x0e\n      0x00\n      swap1\n      sload\n      swap1\n      0x0100\n      exp\n      swap1\n      div\n      0xff\n      and\n        /* \"preventa/JFVCrowdsale.sol\":4905:4995  block.timestamp > closingTime ||... */\n    tag_338:\n        /* \"preventa/JFVCrowdsale.sol\":4897:4996  return (block.timestamp > closingTime ||... */\n      swap1\n      pop\n        /* \"preventa/JFVCrowdsale.sol\":4840:5003  function isClosed() public view returns (bool) {... */\n      swap1\n      jump\t// out\n        /* \"preventa/JFVCrowdsale.sol\":8709:8985  function setLimits(... */\n    tag_194:\n        /* \"preventa/JFVCrowdsale.sol\":508:532  keccak256(\"CONFIG_ROLE\") */\n      0x82db594318110a04b6349ce48645aa69f0892751bc893d15e61d9e2b9c4630f5\n        /* \"@openzeppelin/contracts/access/AccessControl.sol\":2464:2480  _checkRole(role) */\n      tag_340\n        /* \"@openzeppelin/contracts/access/AccessControl.sol\":2475:2479  role */\n      dup2\n        /* \"@openzeppelin/contracts/access/AccessControl.sol\":2464:2474  _checkRole */\n      tag_243\n        /* \"@openzeppelin/contracts/access/AccessControl.sol\":2464:2480  _checkRole(role) */\n      jump\t// in\n    tag_340:\n        /* \"preventa/JFVCrowdsale.sol\":8834:8835  0 */\n      0x00\n        /* \"preventa/JFVCrowdsale.sol\":8827:8831  min_ */\n      dup4\n        /* \"preventa/JFVCrowdsale.sol\":8827:8835  min_ > 0 */\n      gt\n        /* \"preventa/JFVCrowdsale.sol\":8827:8847  min_ > 0 && max_ > 0 */\n      dup1\n      iszero\n      tag_342\n      jumpi\n      pop\n        /* \"preventa/JFVCrowdsale.sol\":8846:8847  0 */\n      0x00\n        /* \"preventa/JFVCrowdsale.sol\":8839:8843  max_ */\n      dup3\n        /* \"preventa/JFVCrowdsale.sol\":8839:8847  max_ > 0 */\n      gt\n        /* \"preventa/JFVCrowdsale.sol\":8827:8847  min_ > 0 && max_ > 0 */\n    tag_342:\n        /* \"preventa/JFVCrowdsale.sol\":8827:8863  min_ > 0 && max_ > 0 && min_ <= max_ */\n      dup1\n      iszero\n      tag_343\n      jumpi\n      pop\n        /* \"preventa/JFVCrowdsale.sol\":8859:8863  max_ */\n      dup2\n        /* \"preventa/JFVCrowdsale.sol\":8851:8855  min_ */\n      dup4\n        /* \"preventa/JFVCrowdsale.sol\":8851:8863  min_ <= max_ */\n      gt\n      iszero\n        /* \"preventa/JFVCrowdsale.sol\":8827:8863  min_ > 0 && max_ > 0 && min_ <= max_ */\n    tag_343:\n        /* \"preventa/JFVCrowdsale.sol\":8819:8874  require(min_ > 0 && max_ > 0 && min_ <= max_, \"limits\") */\n      tag_344\n      jumpi\n      mload(0x40)\n      0x08c379a000000000000000000000000000000000000000000000000000000000\n      dup2\n      mstore\n      0x04\n      add\n      tag_345\n      swap1\n      tag_346\n      jump\t// in\n    tag_345:\n      mload(0x40)\n      dup1\n      swap2\n      sub\n      swap1\n      revert\n    tag_344:\n        /* \"preventa/JFVCrowdsale.sol\":8889:8914  LimitsUpdated(min_, max_) */\n      0x4d4981437d0211f9e6843eb024d9ada1fa3a99514d4343d4aece106dd11524bb\n        /* \"preventa/JFVCrowdsale.sol\":8903:8907  min_ */\n      dup4\n        /* \"preventa/JFVCrowdsale.sol\":8909:8913  max_ */\n      dup4\n        /* \"preventa/JFVCrowdsale.sol\":8889:8914  LimitsUpdated(min_, max_) */\n      mload(0x40)\n      tag_347\n      swap3\n      swap2\n      swap1\n      tag_251\n      jump\t// in\n    tag_347:\n      mload(0x40)\n      dup1\n      swap2\n      sub\n      swap1\n      log1\n        /* \"preventa/JFVCrowdsale.sol\":8942:8946  min_ */\n      dup3\n        /* \"preventa/JFVCrowdsale.sol\":8924:8939  minContribution */\n      0x07\n        /* \"preventa/JFVCrowdsale.sol\":8924:8946  minContribution = min_ */\n      dup2\n      swap1\n      sstore\n      pop\n        /* \"preventa/JFVCrowdsale.sol\":8974:8978  max_ */\n      dup2\n        /* \"preventa/JFVCrowdsale.sol\":8956:8971  maxContribution */\n      0x08\n        /* \"preventa/JFVCrowdsale.sol\":8956:8978  maxContribution = max_ */\n      dup2\n      swap1\n      sstore\n      pop\n        /* \"preventa/JFVCrowdsale.sol\":8709:8985  function setLimits(... */\n      pop\n      pop\n      pop\n      jump\t// out\n        /* \"@openzeppelin/contracts/access/AccessControl.sol\":4642:4780  function revokeRole(bytes32 role, address account) public virtual onlyRole(getRoleAdmin(role)) {... */\n    tag_198:\n        /* \"@openzeppelin/contracts/access/AccessControl.sol\":4717:4735  getRoleAdmin(role) */\n      tag_348\n        /* \"@openzeppelin/contracts/access/AccessControl.sol\":4730:4734  role */\n      dup3\n        /* \"@openzeppelin/contracts/access/AccessControl.sol\":4717:4729  getRoleAdmin */\n      tag_70\n        /* \"@openzeppelin/contracts/access/AccessControl.sol\":4717:4735  getRoleAdmin(role) */\n      jump\t// in\n    tag_348:\n        /* \"@openzeppelin/contracts/access/AccessControl.sol\":2464:2480  _checkRole(role) */\n      tag_350\n        /* \"@openzeppelin/contracts/access/AccessControl.sol\":2475:2479  role */\n      dup2\n        /* \"@openzeppelin/contracts/access/AccessControl.sol\":2464:2474  _checkRole */\n      tag_243\n        /* \"@openzeppelin/contracts/access/AccessControl.sol\":2464:2480  _checkRole(role) */\n      jump\t// in\n    tag_350:\n        /* \"@openzeppelin/contracts/access/AccessControl.sol\":4747:4773  _revokeRole(role, account) */\n      tag_352\n        /* \"@openzeppelin/contracts/access/AccessControl.sol\":4759:4763  role */\n      dup4\n        /* \"@openzeppelin/contracts/access/AccessControl.sol\":4765:4772  account */\n      dup4\n        /* \"@openzeppelin/contracts/access/AccessControl.sol\":4747:4758  _revokeRole */\n      tag_257\n        /* \"@openzeppelin/contracts/access/AccessControl.sol\":4747:4773  _revokeRole(role, account) */\n      jump\t// in\n    tag_352:\n      pop\n        /* \"@openzeppelin/contracts/access/AccessControl.sol\":4642:4780  function revokeRole(bytes32 role, address account) public virtual onlyRole(getRoleAdmin(role)) {... */\n      pop\n      pop\n      pop\n      jump\t// out\n        /* \"preventa/JFVCrowdsale.sol\":8991:9201  function setWallet(address newWallet) external onlyRole(CONFIG_ROLE) {... */\n    tag_202:\n        /* \"preventa/JFVCrowdsale.sol\":508:532  keccak256(\"CONFIG_ROLE\") */\n      0x82db594318110a04b6349ce48645aa69f0892751bc893d15e61d9e2b9c4630f5\n        /* \"@openzeppelin/contracts/access/AccessControl.sol\":2464:2480  _checkRole(role) */\n      tag_354\n        /* \"@openzeppelin/contracts/access/AccessControl.sol\":2475:2479  role */\n      dup2\n        /* \"@openzeppelin/contracts/access/AccessControl.sol\":2464:2474  _checkRole */\n      tag_243\n        /* \"@openzeppelin/contracts/access/AccessControl.sol\":2464:2480  _checkRole(role) */\n      jump\t// in\n    tag_354:\n        /* \"preventa/JFVCrowdsale.sol\":9095:9096  0 */\n      0x00\n        /* \"preventa/JFVCrowdsale.sol\":9074:9097  newWallet == address(0) */\n      0xffffffffffffffffffffffffffffffffffffffff\n      and\n        /* \"preventa/JFVCrowdsale.sol\":9074:9083  newWallet */\n      dup3\n        /* \"preventa/JFVCrowdsale.sol\":9074:9097  newWallet == address(0) */\n      0xffffffffffffffffffffffffffffffffffffffff\n      and\n      sub\n        /* \"preventa/JFVCrowdsale.sol\":9070:9119  if (newWallet == address(0)) revert ZeroAddress() */\n      tag_356\n      jumpi\n        /* \"preventa/JFVCrowdsale.sol\":9106:9119  ZeroAddress() */\n      mload(0x40)\n      0xd92e233d00000000000000000000000000000000000000000000000000000000\n      dup2\n      mstore\n      0x04\n      add\n      mload(0x40)\n      dup1\n      swap2\n      sub\n      swap1\n      revert\n        /* \"preventa/JFVCrowdsale.sol\":9070:9119  if (newWallet == address(0)) revert ZeroAddress() */\n    tag_356:\n        /* \"preventa/JFVCrowdsale.sol\":9134:9166  WalletUpdated(wallet, newWallet) */\n      0x0f37c6733428a3a65d46b7f1853a5ce4bfa3cf92d25322507a50bf23a0b5a0a8\n        /* \"preventa/JFVCrowdsale.sol\":9148:9154  wallet */\n      0x03\n      0x00\n      swap1\n      sload\n      swap1\n      0x0100\n      exp\n      swap1\n      div\n      0xffffffffffffffffffffffffffffffffffffffff\n      and\n        /* \"preventa/JFVCrowdsale.sol\":9156:9165  newWallet */\n      dup4\n        /* \"preventa/JFVCrowdsale.sol\":9134:9166  WalletUpdated(wallet, newWallet) */\n      mload(0x40)\n      tag_357\n      swap3\n      swap2\n      swap1\n      tag_358\n      jump\t// in\n    tag_357:\n      mload(0x40)\n      dup1\n      swap2\n      sub\n      swap1\n      log1\n        /* \"preventa/JFVCrowdsale.sol\":9185:9194  newWallet */\n      dup2\n        /* \"preventa/JFVCrowdsale.sol\":9176:9182  wallet */\n      0x03\n      0x00\n        /* \"preventa/JFVCrowdsale.sol\":9176:9194  wallet = newWallet */\n      0x0100\n      exp\n      dup2\n      sload\n      dup2\n      0xffffffffffffffffffffffffffffffffffffffff\n      mul\n      not\n      and\n      swap1\n      dup4\n      0xffffffffffffffffffffffffffffffffffffffff\n      and\n      mul\n      or\n      swap1\n      sstore\n      pop\n        /* \"preventa/JFVCrowdsale.sol\":8991:9201  function setWallet(address newWallet) external onlyRole(CONFIG_ROLE) {... */\n      pop\n      pop\n      jump\t// out\n        /* \"preventa/JFVCrowdsale.sol\":7504:7788  function withdrawETH() external nonReentrant onlyRole(CONFIG_ROLE) {... */\n    tag_205:\n        /* \"@openzeppelin/contracts/utils/ReentrancyGuard.sol\":2500:2521  _nonReentrantBefore() */\n      tag_360\n        /* \"@openzeppelin/contracts/utils/ReentrancyGuard.sol\":2500:2519  _nonReentrantBefore */\n      tag_260\n        /* \"@openzeppelin/contracts/utils/ReentrancyGuard.sol\":2500:2521  _nonReentrantBefore() */\n      jump\t// in\n    tag_360:\n        /* \"preventa/JFVCrowdsale.sol\":508:532  keccak256(\"CONFIG_ROLE\") */\n      0x82db594318110a04b6349ce48645aa69f0892751bc893d15e61d9e2b9c4630f5\n        /* \"@openzeppelin/contracts/access/AccessControl.sol\":2464:2480  _checkRole(role) */\n      tag_362\n        /* \"@openzeppelin/contracts/access/AccessControl.sol\":2475:2479  role */\n      dup2\n        /* \"@openzeppelin/contracts/access/AccessControl.sol\":2464:2474  _checkRole */\n      tag_243\n        /* \"@openzeppelin/contracts/access/AccessControl.sol\":2464:2480  _checkRole(role) */\n      jump\t// in\n    tag_362:\n        /* \"preventa/JFVCrowdsale.sol\":7586:7595  finalized */\n      0x0e\n      0x00\n      swap1\n      sload\n      swap1\n      0x0100\n      exp\n      swap1\n      div\n      0xff\n      and\n        /* \"preventa/JFVCrowdsale.sol\":7585:7595  !finalized */\n      iszero\n        /* \"preventa/JFVCrowdsale.sol\":7585:7608  !finalized || refunding */\n      dup1\n      tag_364\n      jumpi\n      pop\n        /* \"preventa/JFVCrowdsale.sol\":7599:7608  refunding */\n      0x0e\n      0x01\n      swap1\n      sload\n      swap1\n      0x0100\n      exp\n      swap1\n      div\n      0xff\n      and\n        /* \"preventa/JFVCrowdsale.sol\":7585:7608  !finalized || refunding */\n    tag_364:\n        /* \"preventa/JFVCrowdsale.sol\":7581:7636  if (!finalized || refunding) revert SoftCapNotReached() */\n      iszero\n      tag_365\n      jumpi\n        /* \"preventa/JFVCrowdsale.sol\":7617:7636  SoftCapNotReached() */\n      mload(0x40)\n      0x2bdc91ad00000000000000000000000000000000000000000000000000000000\n      dup2\n      mstore\n      0x04\n      add\n      mload(0x40)\n      dup1\n      swap2\n      sub\n      swap1\n      revert\n        /* \"preventa/JFVCrowdsale.sol\":7581:7636  if (!finalized || refunding) revert SoftCapNotReached() */\n    tag_365:\n        /* \"preventa/JFVCrowdsale.sol\":7646:7657  uint256 bal */\n      0x00\n        /* \"preventa/JFVCrowdsale.sol\":7660:7681  address(this).balance */\n      selfbalance\n        /* \"preventa/JFVCrowdsale.sol\":7646:7681  uint256 bal = address(this).balance */\n      swap1\n      pop\n        /* \"preventa/JFVCrowdsale.sol\":7692:7699  bool ok */\n      0x00\n        /* \"preventa/JFVCrowdsale.sol\":7713:7719  wallet */\n      0x03\n      0x00\n      swap1\n      sload\n      swap1\n      0x0100\n      exp\n      swap1\n      div\n      0xffffffffffffffffffffffffffffffffffffffff\n      and\n        /* \"preventa/JFVCrowdsale.sol\":7705:7725  payable(wallet).call */\n      0xffffffffffffffffffffffffffffffffffffffff\n      and\n        /* \"preventa/JFVCrowdsale.sol\":7733:7736  bal */\n      dup3\n        /* \"preventa/JFVCrowdsale.sol\":7705:7741  payable(wallet).call{value: bal}(\"\") */\n      mload(0x40)\n      tag_366\n      swap1\n      tag_268\n      jump\t// in\n    tag_366:\n      0x00\n      mload(0x40)\n      dup1\n      dup4\n      sub\n      dup2\n      dup6\n      dup8\n      gas\n      call\n      swap3\n      pop\n      pop\n      pop\n      returndatasize\n      dup1\n      0x00\n      dup2\n      eq\n      tag_369\n      jumpi\n      mload(0x40)\n      swap2\n      pop\n      and(add(returndatasize, 0x3f), not(0x1f))\n      dup3\n      add\n      0x40\n      mstore\n      returndatasize\n      dup3\n      mstore\n      returndatasize\n      0x00\n      0x20\n      dup5\n      add\n      returndatacopy\n      jump(tag_368)\n    tag_369:\n      0x60\n      swap2\n      pop\n    tag_368:\n      pop\n        /* \"preventa/JFVCrowdsale.sol\":7691:7741  (bool ok, ) = payable(wallet).call{value: bal}(\"\") */\n      pop\n      swap1\n      pop\n        /* \"preventa/JFVCrowdsale.sol\":7759:7761  ok */\n      dup1\n        /* \"preventa/JFVCrowdsale.sol\":7751:7781  require(ok, \"Withdraw failed\") */\n      tag_370\n      jumpi\n      mload(0x40)\n      0x08c379a000000000000000000000000000000000000000000000000000000000\n      dup2\n      mstore\n      0x04\n      add\n      tag_371\n      swap1\n      tag_372\n      jump\t// in\n    tag_371:\n      mload(0x40)\n      dup1\n      swap2\n      sub\n      swap1\n      revert\n    tag_370:\n        /* \"preventa/JFVCrowdsale.sol\":7571:7788  {... */\n      pop\n      pop\n        /* \"@openzeppelin/contracts/utils/ReentrancyGuard.sol\":2531:2532  _ */\n      pop\n        /* \"@openzeppelin/contracts/utils/ReentrancyGuard.sol\":2542:2562  _nonReentrantAfter() */\n      tag_373\n        /* \"@openzeppelin/contracts/utils/ReentrancyGuard.sol\":2542:2560  _nonReentrantAfter */\n      tag_277\n        /* \"@openzeppelin/contracts/utils/ReentrancyGuard.sol\":2542:2562  _nonReentrantAfter() */\n      jump\t// in\n    tag_373:\n        /* \"preventa/JFVCrowdsale.sol\":7504:7788  function withdrawETH() external nonReentrant onlyRole(CONFIG_ROLE) {... */\n      jump\t// out\n        /* \"preventa/JFVCrowdsale.sol\":402:464  bytes32 public constant PAUSER_ROLE = keccak256(\"PAUSER_ROLE\") */\n    tag_208:\n        /* \"preventa/JFVCrowdsale.sol\":440:464  keccak256(\"PAUSER_ROLE\") */\n      0x65d7a28e3265b37a6474929f336521b332c1681b933f6cb9f3376673440d862a\n        /* \"preventa/JFVCrowdsale.sol\":402:464  bytes32 public constant PAUSER_ROLE = keccak256(\"PAUSER_ROLE\") */\n      dup2\n      jump\t// out\n        /* \"preventa/JFVCrowdsale.sol\":8458:8703  function setTimes(... */\n    tag_214:\n        /* \"preventa/JFVCrowdsale.sol\":508:532  keccak256(\"CONFIG_ROLE\") */\n      0x82db594318110a04b6349ce48645aa69f0892751bc893d15e61d9e2b9c4630f5\n        /* \"@openzeppelin/contracts/access/AccessControl.sol\":2464:2480  _checkRole(role) */\n      tag_375\n        /* \"@openzeppelin/contracts/access/AccessControl.sol\":2475:2479  role */\n      dup2\n        /* \"@openzeppelin/contracts/access/AccessControl.sol\":2464:2474  _checkRole */\n      tag_243\n        /* \"@openzeppelin/contracts/access/AccessControl.sol\":2464:2480  _checkRole(role) */\n      jump\t// in\n    tag_375:\n        /* \"preventa/JFVCrowdsale.sol\":8584:8588  end_ */\n      dup2\n        /* \"preventa/JFVCrowdsale.sol\":8575:8588  start_ < end_ */\n      0xffffffffffffffff\n      and\n        /* \"preventa/JFVCrowdsale.sol\":8575:8581  start_ */\n      dup4\n        /* \"preventa/JFVCrowdsale.sol\":8575:8588  start_ < end_ */\n      0xffffffffffffffff\n      and\n      lt\n        /* \"preventa/JFVCrowdsale.sol\":8567:8597  require(start_ < end_, \"time\") */\n      tag_377\n      jumpi\n      mload(0x40)\n      0x08c379a000000000000000000000000000000000000000000000000000000000\n      dup2\n      mstore\n      0x04\n      add\n      tag_378\n      swap1\n      tag_379\n      jump\t// in\n    tag_378:\n      mload(0x40)\n      dup1\n      swap2\n      sub\n      swap1\n      revert\n    tag_377:\n        /* \"preventa/JFVCrowdsale.sol\":8612:8638  TimesUpdated(start_, end_) */\n      0x114f2c213e3ab7c4e4e09d28a2efed89fe0c35a82be187299e8bb20e1b755768\n        /* \"preventa/JFVCrowdsale.sol\":8625:8631  start_ */\n      dup4\n        /* \"preventa/JFVCrowdsale.sol\":8633:8637  end_ */\n      dup4\n        /* \"preventa/JFVCrowdsale.sol\":8612:8638  TimesUpdated(start_, end_) */\n      mload(0x40)\n      tag_380\n      swap3\n      swap2\n      swap1\n      tag_381\n      jump\t// in\n    tag_380:\n      mload(0x40)\n      dup1\n      swap2\n      sub\n      swap1\n      log1\n        /* \"preventa/JFVCrowdsale.sol\":8662:8668  start_ */\n      dup3\n        /* \"preventa/JFVCrowdsale.sol\":8648:8668  openingTime = start_ */\n      0xffffffffffffffff\n      and\n        /* \"preventa/JFVCrowdsale.sol\":8648:8659  openingTime */\n      0x05\n        /* \"preventa/JFVCrowdsale.sol\":8648:8668  openingTime = start_ */\n      dup2\n      swap1\n      sstore\n      pop\n        /* \"preventa/JFVCrowdsale.sol\":8692:8696  end_ */\n      dup2\n        /* \"preventa/JFVCrowdsale.sol\":8678:8696  closingTime = end_ */\n      0xffffffffffffffff\n      and\n        /* \"preventa/JFVCrowdsale.sol\":8678:8689  closingTime */\n      0x06\n        /* \"preventa/JFVCrowdsale.sol\":8678:8696  closingTime = end_ */\n      dup2\n      swap1\n      sstore\n      pop\n        /* \"preventa/JFVCrowdsale.sol\":8458:8703  function setTimes(... */\n      pop\n      pop\n      pop\n      jump\t// out\n        /* \"preventa/JFVCrowdsale.sol\":5009:6014  function buyTokens(... */\n    tag_217:\n        /* \"@openzeppelin/contracts/utils/ReentrancyGuard.sol\":2500:2521  _nonReentrantBefore() */\n      tag_383\n        /* \"@openzeppelin/contracts/utils/ReentrancyGuard.sol\":2500:2519  _nonReentrantBefore */\n      tag_260\n        /* \"@openzeppelin/contracts/utils/ReentrancyGuard.sol\":2500:2521  _nonReentrantBefore() */\n      jump\t// in\n    tag_383:\n        /* \"@openzeppelin/contracts/utils/Pausable.sol\":1350:1369  _requireNotPaused() */\n      tag_385\n        /* \"@openzeppelin/contracts/utils/Pausable.sol\":1350:1367  _requireNotPaused */\n      tag_263\n        /* \"@openzeppelin/contracts/utils/Pausable.sol\":1350:1369  _requireNotPaused() */\n      jump\t// in\n    tag_385:\n        /* \"preventa/JFVCrowdsale.sol\":5140:5150  msg.sender */\n      caller\n        /* \"preventa/JFVCrowdsale.sol\":5125:5150  beneficiary == msg.sender */\n      0xffffffffffffffffffffffffffffffffffffffff\n      and\n        /* \"preventa/JFVCrowdsale.sol\":5125:5136  beneficiary */\n      dup2\n        /* \"preventa/JFVCrowdsale.sol\":5125:5150  beneficiary == msg.sender */\n      0xffffffffffffffffffffffffffffffffffffffff\n      and\n      eq\n        /* \"preventa/JFVCrowdsale.sol\":5117:5168  require(beneficiary == msg.sender, \"Only self-buy\") */\n      tag_387\n      jumpi\n      mload(0x40)\n      0x08c379a000000000000000000000000000000000000000000000000000000000\n      dup2\n      mstore\n      0x04\n      add\n      tag_388\n      swap1\n      tag_389\n      jump\t// in\n    tag_388:\n      mload(0x40)\n      dup1\n      swap2\n      sub\n      swap1\n      revert\n    tag_387:\n        /* \"preventa/JFVCrowdsale.sol\":5192:5200  isOpen() */\n      tag_390\n        /* \"preventa/JFVCrowdsale.sol\":5192:5198  isOpen */\n      tag_110\n        /* \"preventa/JFVCrowdsale.sol\":5192:5200  isOpen() */\n      jump\t// in\n    tag_390:\n        /* \"preventa/JFVCrowdsale.sol\":5187:5222  if (!isOpen()) revert SaleNotOpen() */\n      tag_391\n      jumpi\n        /* \"preventa/JFVCrowdsale.sol\":5209:5222  SaleNotOpen() */\n      mload(0x40)\n      0x445dce4c00000000000000000000000000000000000000000000000000000000\n      dup2\n      mstore\n      0x04\n      add\n      mload(0x40)\n      dup1\n      swap2\n      sub\n      swap1\n      revert\n        /* \"preventa/JFVCrowdsale.sol\":5187:5222  if (!isOpen()) revert SaleNotOpen() */\n    tag_391:\n        /* \"preventa/JFVCrowdsale.sol\":5259:5260  0 */\n      0x00\n        /* \"preventa/JFVCrowdsale.sol\":5236:5261  beneficiary == address(0) */\n      0xffffffffffffffffffffffffffffffffffffffff\n      and\n        /* \"preventa/JFVCrowdsale.sol\":5236:5247  beneficiary */\n      dup2\n        /* \"preventa/JFVCrowdsale.sol\":5236:5261  beneficiary == address(0) */\n      0xffffffffffffffffffffffffffffffffffffffff\n      and\n      sub\n        /* \"preventa/JFVCrowdsale.sol\":5232:5283  if (beneficiary == address(0)) revert ZeroAddress() */\n      tag_392\n      jumpi\n        /* \"preventa/JFVCrowdsale.sol\":5270:5283  ZeroAddress() */\n      mload(0x40)\n      0xd92e233d00000000000000000000000000000000000000000000000000000000\n      dup2\n      mstore\n      0x04\n      add\n      mload(0x40)\n      dup1\n      swap2\n      sub\n      swap1\n      revert\n        /* \"preventa/JFVCrowdsale.sol\":5232:5283  if (beneficiary == address(0)) revert ZeroAddress() */\n    tag_392:\n        /* \"preventa/JFVCrowdsale.sol\":5310:5311  0 */\n      0x00\n        /* \"preventa/JFVCrowdsale.sol\":5297:5306  msg.value */\n      callvalue\n        /* \"preventa/JFVCrowdsale.sol\":5297:5311  msg.value == 0 */\n      sub\n        /* \"preventa/JFVCrowdsale.sol\":5293:5337  if (msg.value == 0) revert MinMaxViolation() */\n      tag_393\n      jumpi\n        /* \"preventa/JFVCrowdsale.sol\":5320:5337  MinMaxViolation() */\n      mload(0x40)\n      0x8d8f5cdc00000000000000000000000000000000000000000000000000000000\n      dup2\n      mstore\n      0x04\n      add\n      mload(0x40)\n      dup1\n      swap2\n      sub\n      swap1\n      revert\n        /* \"preventa/JFVCrowdsale.sol\":5293:5337  if (msg.value == 0) revert MinMaxViolation() */\n    tag_393:\n        /* \"preventa/JFVCrowdsale.sol\":5375:5382  hardCap */\n      immutable(\"0x887d510a66c2c5edb473d8bcaa91e9efa96aa179a0ec88f5292ca216a1999f71\")\n        /* \"preventa/JFVCrowdsale.sol\":5363:5372  msg.value */\n      callvalue\n        /* \"preventa/JFVCrowdsale.sol\":5351:5360  weiRaised */\n      sload(0x09)\n        /* \"preventa/JFVCrowdsale.sol\":5351:5372  weiRaised + msg.value */\n      tag_394\n      swap2\n      swap1\n      tag_395\n      jump\t// in\n    tag_394:\n        /* \"preventa/JFVCrowdsale.sol\":5351:5382  weiRaised + msg.value > hardCap */\n      gt\n        /* \"preventa/JFVCrowdsale.sol\":5347:5404  if (weiRaised + msg.value > hardCap) revert CapExceeded() */\n      iszero\n      tag_396\n      jumpi\n        /* \"preventa/JFVCrowdsale.sol\":5391:5404  CapExceeded() */\n      mload(0x40)\n      0xa4875a4900000000000000000000000000000000000000000000000000000000\n      dup2\n      mstore\n      0x04\n      add\n      mload(0x40)\n      dup1\n      swap2\n      sub\n      swap1\n      revert\n        /* \"preventa/JFVCrowdsale.sol\":5347:5404  if (weiRaised + msg.value > hardCap) revert CapExceeded() */\n    tag_396:\n        /* \"preventa/JFVCrowdsale.sol\":5415:5438  uint256 newContribution */\n      0x00\n        /* \"preventa/JFVCrowdsale.sol\":5467:5476  msg.value */\n      callvalue\n        /* \"preventa/JFVCrowdsale.sol\":5441:5452  contributed */\n      0x0b\n        /* \"preventa/JFVCrowdsale.sol\":5441:5464  contributed[msg.sender] */\n      0x00\n        /* \"preventa/JFVCrowdsale.sol\":5453:5463  msg.sender */\n      caller\n        /* \"preventa/JFVCrowdsale.sol\":5441:5464  contributed[msg.sender] */\n      0xffffffffffffffffffffffffffffffffffffffff\n      and\n      0xffffffffffffffffffffffffffffffffffffffff\n      and\n      dup2\n      mstore\n      0x20\n      add\n      swap1\n      dup2\n      mstore\n      0x20\n      add\n      0x00\n      keccak256\n      sload\n        /* \"preventa/JFVCrowdsale.sol\":5441:5476  contributed[msg.sender] + msg.value */\n      tag_397\n      swap2\n      swap1\n      tag_395\n      jump\t// in\n    tag_397:\n        /* \"preventa/JFVCrowdsale.sol\":5415:5476  uint256 newContribution = contributed[msg.sender] + msg.value */\n      swap1\n      pop\n        /* \"preventa/JFVCrowdsale.sol\":5521:5536  minContribution */\n      sload(0x07)\n        /* \"preventa/JFVCrowdsale.sol\":5503:5518  newContribution */\n      dup2\n        /* \"preventa/JFVCrowdsale.sol\":5503:5536  newContribution < minContribution */\n      lt\n        /* \"preventa/JFVCrowdsale.sol\":5503:5585  newContribution < minContribution ||... */\n      dup1\n      tag_398\n      jumpi\n      pop\n        /* \"preventa/JFVCrowdsale.sol\":5570:5585  maxContribution */\n      sload(0x08)\n        /* \"preventa/JFVCrowdsale.sol\":5552:5567  newContribution */\n      dup2\n        /* \"preventa/JFVCrowdsale.sol\":5552:5585  newContribution > maxContribution */\n      gt\n        /* \"preventa/JFVCrowdsale.sol\":5503:5585  newContribution < minContribution ||... */\n    tag_398:\n        /* \"preventa/JFVCrowdsale.sol\":5486:5645  if (... */\n      iszero\n      tag_399\n      jumpi\n        /* \"preventa/JFVCrowdsale.sol\":5617:5634  MinMaxViolation() */\n      mload(0x40)\n      0x8d8f5cdc00000000000000000000000000000000000000000000000000000000\n      dup2\n      mstore\n      0x04\n      add\n      mload(0x40)\n      dup1\n      swap2\n      sub\n      swap1\n      revert\n        /* \"preventa/JFVCrowdsale.sol\":5486:5645  if (... */\n    tag_399:\n        /* \"preventa/JFVCrowdsale.sol\":5722:5739  uint256 amountJFV */\n      0x00\n        /* \"preventa/JFVCrowdsale.sol\":5763:5767  1e18 */\n      0x0de0b6b3a7640000\n        /* \"preventa/JFVCrowdsale.sol\":5755:5759  rate */\n      sload(0x04)\n        /* \"preventa/JFVCrowdsale.sol\":5743:5752  msg.value */\n      callvalue\n        /* \"preventa/JFVCrowdsale.sol\":5743:5759  msg.value * rate */\n      tag_400\n      swap2\n      swap1\n      tag_311\n      jump\t// in\n    tag_400:\n        /* \"preventa/JFVCrowdsale.sol\":5742:5767  (msg.value * rate) / 1e18 */\n      tag_401\n      swap2\n      swap1\n      tag_313\n      jump\t// in\n    tag_401:\n        /* \"preventa/JFVCrowdsale.sol\":5722:5767  uint256 amountJFV = (msg.value * rate) / 1e18 */\n      swap1\n      pop\n        /* \"preventa/JFVCrowdsale.sol\":5791:5800  msg.value */\n      callvalue\n        /* \"preventa/JFVCrowdsale.sol\":5778:5787  weiRaised */\n      0x09\n      0x00\n        /* \"preventa/JFVCrowdsale.sol\":5778:5800  weiRaised += msg.value */\n      dup3\n      dup3\n      sload\n      tag_402\n      swap2\n      swap1\n      tag_395\n      jump\t// in\n    tag_402:\n      swap3\n      pop\n      pop\n      dup2\n      swap1\n      sstore\n      pop\n        /* \"preventa/JFVCrowdsale.sol\":5824:5833  amountJFV */\n      dup1\n        /* \"preventa/JFVCrowdsale.sol\":5810:5820  tokensSold */\n      0x0a\n      0x00\n        /* \"preventa/JFVCrowdsale.sol\":5810:5833  tokensSold += amountJFV */\n      dup3\n      dup3\n      sload\n      tag_403\n      swap2\n      swap1\n      tag_395\n      jump\t// in\n    tag_403:\n      swap3\n      pop\n      pop\n      dup2\n      swap1\n      sstore\n      pop\n        /* \"preventa/JFVCrowdsale.sol\":5869:5884  newContribution */\n      dup2\n        /* \"preventa/JFVCrowdsale.sol\":5843:5854  contributed */\n      0x0b\n        /* \"preventa/JFVCrowdsale.sol\":5843:5866  contributed[msg.sender] */\n      0x00\n        /* \"preventa/JFVCrowdsale.sol\":5855:5865  msg.sender */\n      caller\n        /* \"preventa/JFVCrowdsale.sol\":5843:5866  contributed[msg.sender] */\n      0xffffffffffffffffffffffffffffffffffffffff\n      and\n      0xffffffffffffffffffffffffffffffffffffffff\n      and\n      dup2\n      mstore\n      0x20\n      add\n      swap1\n      dup2\n      mstore\n      0x20\n      add\n      0x00\n      keccak256\n        /* \"preventa/JFVCrowdsale.sol\":5843:5884  contributed[msg.sender] = newContribution */\n      dup2\n      swap1\n      sstore\n      pop\n        /* \"preventa/JFVCrowdsale.sol\":5920:5929  amountJFV */\n      dup1\n        /* \"preventa/JFVCrowdsale.sol\":5894:5903  allocated */\n      0x0c\n        /* \"preventa/JFVCrowdsale.sol\":5894:5916  allocated[beneficiary] */\n      0x00\n        /* \"preventa/JFVCrowdsale.sol\":5904:5915  beneficiary */\n      dup6\n        /* \"preventa/JFVCrowdsale.sol\":5894:5916  allocated[beneficiary] */\n      0xffffffffffffffffffffffffffffffffffffffff\n      and\n      0xffffffffffffffffffffffffffffffffffffffff\n      and\n      dup2\n      mstore\n      0x20\n      add\n      swap1\n      dup2\n      mstore\n      0x20\n      add\n      0x00\n      keccak256\n      0x00\n        /* \"preventa/JFVCrowdsale.sol\":5894:5929  allocated[beneficiary] += amountJFV */\n      dup3\n      dup3\n      sload\n      tag_404\n      swap2\n      swap1\n      tag_395\n      jump\t// in\n    tag_404:\n      swap3\n      pop\n      pop\n      dup2\n      swap1\n      sstore\n      pop\n        /* \"preventa/JFVCrowdsale.sol\":5973:5984  beneficiary */\n      dup3\n        /* \"preventa/JFVCrowdsale.sol\":5945:6007  TokensPurchased(msg.sender, beneficiary, msg.value, amountJFV) */\n      0xffffffffffffffffffffffffffffffffffffffff\n      and\n        /* \"preventa/JFVCrowdsale.sol\":5961:5971  msg.sender */\n      caller\n        /* \"preventa/JFVCrowdsale.sol\":5945:6007  TokensPurchased(msg.sender, beneficiary, msg.value, amountJFV) */\n      0xffffffffffffffffffffffffffffffffffffffff\n      and\n      0x6faf93231a456e552dbc9961f58d9713ee4f2e69d15f1975b050ef0911053a7b\n        /* \"preventa/JFVCrowdsale.sol\":5986:5995  msg.value */\n      callvalue\n        /* \"preventa/JFVCrowdsale.sol\":5997:6006  amountJFV */\n      dup5\n        /* \"preventa/JFVCrowdsale.sol\":5945:6007  TokensPurchased(msg.sender, beneficiary, msg.value, amountJFV) */\n      mload(0x40)\n      tag_405\n      swap3\n      swap2\n      swap1\n      tag_251\n      jump\t// in\n    tag_405:\n      mload(0x40)\n      dup1\n      swap2\n      sub\n      swap1\n      log3\n        /* \"preventa/JFVCrowdsale.sol\":5107:6014  {... */\n      pop\n      pop\n        /* \"@openzeppelin/contracts/utils/ReentrancyGuard.sol\":2542:2562  _nonReentrantAfter() */\n      tag_406\n        /* \"@openzeppelin/contracts/utils/ReentrancyGuard.sol\":2542:2560  _nonReentrantAfter */\n      tag_277\n        /* \"@openzeppelin/contracts/utils/ReentrancyGuard.sol\":2542:2562  _nonReentrantAfter() */\n      jump\t// in\n    tag_406:\n        /* \"preventa/JFVCrowdsale.sol\":5009:6014  function buyTokens(... */\n      pop\n      jump\t// out\n        /* \"preventa/JFVCrowdsale.sol\":2244:2265  bool public refunding */\n    tag_220:\n      0x0e\n      0x01\n      swap1\n      sload\n      swap1\n      0x0100\n      exp\n      swap1\n      div\n      0xff\n      and\n      dup2\n      jump\t// out\n        /* \"preventa/JFVCrowdsale.sol\":1118:1149  uint256 public immutable tgeBps */\n    tag_224:\n      immutable(\"0x2c3da56e833e1428007d8637dd3cd84c748b28d433badee9fb79b2375e44acbf\")\n      dup2\n      jump\t// out\n        /* \"preventa/JFVCrowdsale.sol\":847:879  uint256 public immutable hardCap */\n    tag_228:\n      immutable(\"0x887d510a66c2c5edb473d8bcaa91e9efa96aa179a0ec88f5292ca216a1999f71\")\n      dup2\n      jump\t// out\n        /* \"preventa/JFVCrowdsale.sol\":583:615  IJFVToken public immutable token */\n    tag_232:\n      immutable(\"0x784395980707f20063da7968cb078d3d4afc80091be06131ccab5c3acfe23124\")\n      dup2\n      jump\t// out\n        /* \"@openzeppelin/contracts/utils/introspection/ERC165.sol\":763:909  function supportsInterface(bytes4 interfaceId) public view virtual returns (bool) {... */\n    tag_238:\n        /* \"@openzeppelin/contracts/utils/introspection/ERC165.sol\":839:843  bool */\n      0x00\n        /* \"@openzeppelin/contracts/utils/introspection/ERC165.sol\":877:902  type(IERC165).interfaceId */\n      0x01ffc9a700000000000000000000000000000000000000000000000000000000\n        /* \"@openzeppelin/contracts/utils/introspection/ERC165.sol\":862:902  interfaceId == type(IERC165).interfaceId */\n      not(0xffffffffffffffffffffffffffffffffffffffffffffffffffffffff)\n      and\n        /* \"@openzeppelin/contracts/utils/introspection/ERC165.sol\":862:873  interfaceId */\n      dup3\n        /* \"@openzeppelin/contracts/utils/introspection/ERC165.sol\":862:902  interfaceId == type(IERC165).interfaceId */\n      not(0xffffffffffffffffffffffffffffffffffffffffffffffffffffffff)\n      and\n      eq\n        /* \"@openzeppelin/contracts/utils/introspection/ERC165.sol\":855:902  return interfaceId == type(IERC165).interfaceId */\n      swap1\n      pop\n        /* \"@openzeppelin/contracts/utils/introspection/ERC165.sol\":763:909  function supportsInterface(bytes4 interfaceId) public view virtual returns (bool) {... */\n      swap2\n      swap1\n      pop\n      jump\t// out\n        /* \"@openzeppelin/contracts/access/AccessControl.sol\":3199:3302  function _checkRole(bytes32 role) internal view virtual {... */\n    tag_243:\n        /* \"@openzeppelin/contracts/access/AccessControl.sol\":3265:3295  _checkRole(role, _msgSender()) */\n      tag_409\n        /* \"@openzeppelin/contracts/access/AccessControl.sol\":3276:3280  role */\n      dup2\n        /* \"@openzeppelin/contracts/access/AccessControl.sol\":3282:3294  _msgSender() */\n      tag_410\n        /* \"@openzeppelin/contracts/access/AccessControl.sol\":3282:3292  _msgSender */\n      tag_254\n        /* \"@openzeppelin/contracts/access/AccessControl.sol\":3282:3294  _msgSender() */\n      jump\t// in\n    tag_410:\n        /* \"@openzeppelin/contracts/access/AccessControl.sol\":3265:3275  _checkRole */\n      tag_411\n        /* \"@openzeppelin/contracts/access/AccessControl.sol\":3265:3295  _checkRole(role, _msgSender()) */\n      jump\t// in\n    tag_409:\n        /* \"@openzeppelin/contracts/access/AccessControl.sol\":3199:3302  function _checkRole(bytes32 role) internal view virtual {... */\n      pop\n      jump\t// out\n        /* \"@openzeppelin/contracts/access/AccessControl.sol\":6179:6495  function _grantRole(bytes32 role, address account) internal virtual returns (bool) {... */\n    tag_246:\n        /* \"@openzeppelin/contracts/access/AccessControl.sol\":6256:6260  bool */\n      0x00\n        /* \"@openzeppelin/contracts/access/AccessControl.sol\":6277:6299  hasRole(role, account) */\n      tag_413\n        /* \"@openzeppelin/contracts/access/AccessControl.sol\":6285:6289  role */\n      dup4\n        /* \"@openzeppelin/contracts/access/AccessControl.sol\":6291:6298  account */\n      dup4\n        /* \"@openzeppelin/contracts/access/AccessControl.sol\":6277:6284  hasRole */\n      tag_146\n        /* \"@openzeppelin/contracts/access/AccessControl.sol\":6277:6299  hasRole(role, account) */\n      jump\t// in\n    tag_413:\n        /* \"@openzeppelin/contracts/access/AccessControl.sol\":6272:6489  if (!hasRole(role, account)) {... */\n      tag_414\n      jumpi\n        /* \"@openzeppelin/contracts/access/AccessControl.sol\":6347:6351  true */\n      0x01\n        /* \"@openzeppelin/contracts/access/AccessControl.sol\":6315:6321  _roles */\n      0x02\n        /* \"@openzeppelin/contracts/access/AccessControl.sol\":6315:6327  _roles[role] */\n      0x00\n        /* \"@openzeppelin/contracts/access/AccessControl.sol\":6322:6326  role */\n      dup6\n        /* \"@openzeppelin/contracts/access/AccessControl.sol\":6315:6327  _roles[role] */\n      dup2\n      mstore\n      0x20\n      add\n      swap1\n      dup2\n      mstore\n      0x20\n      add\n      0x00\n      keccak256\n        /* \"@openzeppelin/contracts/access/AccessControl.sol\":6315:6335  _roles[role].hasRole */\n      0x00\n      add\n        /* \"@openzeppelin/contracts/access/AccessControl.sol\":6315:6344  _roles[role].hasRole[account] */\n      0x00\n        /* \"@openzeppelin/contracts/access/AccessControl.sol\":6336:6343  account */\n      dup5\n        /* \"@openzeppelin/contracts/access/AccessControl.sol\":6315:6344  _roles[role].hasRole[account] */\n      0xffffffffffffffffffffffffffffffffffffffff\n      and\n      0xffffffffffffffffffffffffffffffffffffffff\n      and\n      dup2\n      mstore\n      0x20\n      add\n      swap1\n      dup2\n      mstore\n      0x20\n      add\n      0x00\n      keccak256\n      0x00\n        /* \"@openzeppelin/contracts/access/AccessControl.sol\":6315:6351  _roles[role].hasRole[account] = true */\n      0x0100\n      exp\n      dup2\n      sload\n      dup2\n      0xff\n      mul\n      not\n      and\n      swap1\n      dup4\n      iszero\n      iszero\n      mul\n      or\n      swap1\n      sstore\n      pop\n        /* \"@openzeppelin/contracts/access/AccessControl.sol\":6397:6409  _msgSender() */\n      tag_415\n        /* \"@openzeppelin/contracts/access/AccessControl.sol\":6397:6407  _msgSender */\n      tag_254\n        /* \"@openzeppelin/contracts/access/AccessControl.sol\":6397:6409  _msgSender() */\n      jump\t// in\n    tag_415:\n        /* \"@openzeppelin/contracts/access/AccessControl.sol\":6370:6410  RoleGranted(role, account, _msgSender()) */\n      0xffffffffffffffffffffffffffffffffffffffff\n      and\n        /* \"@openzeppelin/contracts/access/AccessControl.sol\":6388:6395  account */\n      dup3\n        /* \"@openzeppelin/contracts/access/AccessControl.sol\":6370:6410  RoleGranted(role, account, _msgSender()) */\n      0xffffffffffffffffffffffffffffffffffffffff\n      and\n        /* \"@openzeppelin/contracts/access/AccessControl.sol\":6382:6386  role */\n      dup5\n        /* \"@openzeppelin/contracts/access/AccessControl.sol\":6370:6410  RoleGranted(role, account, _msgSender()) */\n      0x2f8788117e7eff1d82e926ec794901d17c78024a50270940304540a733656f0d\n      mload(0x40)\n      mload(0x40)\n      dup1\n      swap2\n      sub\n      swap1\n      log4\n        /* \"@openzeppelin/contracts/access/AccessControl.sol\":6431:6435  true */\n      0x01\n        /* \"@openzeppelin/contracts/access/AccessControl.sol\":6424:6435  return true */\n      swap1\n      pop\n      jump(tag_412)\n        /* \"@openzeppelin/contracts/access/AccessControl.sol\":6272:6489  if (!hasRole(role, account)) {... */\n    tag_414:\n        /* \"@openzeppelin/contracts/access/AccessControl.sol\":6473:6478  false */\n      0x00\n        /* \"@openzeppelin/contracts/access/AccessControl.sol\":6466:6478  return false */\n      swap1\n      pop\n        /* \"@openzeppelin/contracts/access/AccessControl.sol\":6179:6495  function _grantRole(bytes32 role, address account) internal virtual returns (bool) {... */\n    tag_412:\n      swap3\n      swap2\n      pop\n      pop\n      jump\t// out\n        /* \"@openzeppelin/contracts/utils/Context.sol\":656:752  function _msgSender() internal view virtual returns (address) {... */\n    tag_254:\n        /* \"@openzeppelin/contracts/utils/Context.sol\":709:716  address */\n      0x00\n        /* \"@openzeppelin/contracts/utils/Context.sol\":735:745  msg.sender */\n      caller\n        /* \"@openzeppelin/contracts/utils/Context.sol\":728:745  return msg.sender */\n      swap1\n      pop\n        /* \"@openzeppelin/contracts/utils/Context.sol\":656:752  function _msgSender() internal view virtual returns (address) {... */\n      swap1\n      jump\t// out\n        /* \"@openzeppelin/contracts/access/AccessControl.sol\":6732:7049  function _revokeRole(bytes32 role, address account) internal virtual returns (bool) {... */\n    tag_257:\n        /* \"@openzeppelin/contracts/access/AccessControl.sol\":6810:6814  bool */\n      0x00\n        /* \"@openzeppelin/contracts/access/AccessControl.sol\":6830:6852  hasRole(role, account) */\n      tag_419\n        /* \"@openzeppelin/contracts/access/AccessControl.sol\":6838:6842  role */\n      dup4\n        /* \"@openzeppelin/contracts/access/AccessControl.sol\":6844:6851  account */\n      dup4\n        /* \"@openzeppelin/contracts/access/AccessControl.sol\":6830:6837  hasRole */\n      tag_146\n        /* \"@openzeppelin/contracts/access/AccessControl.sol\":6830:6852  hasRole(role, account) */\n      jump\t// in\n    tag_419:\n        /* \"@openzeppelin/contracts/access/AccessControl.sol\":6826:7043  if (hasRole(role, account)) {... */\n      iszero\n      tag_420\n      jumpi\n        /* \"@openzeppelin/contracts/access/AccessControl.sol\":6900:6905  false */\n      0x00\n        /* \"@openzeppelin/contracts/access/AccessControl.sol\":6868:6874  _roles */\n      0x02\n        /* \"@openzeppelin/contracts/access/AccessControl.sol\":6868:6880  _roles[role] */\n      0x00\n        /* \"@openzeppelin/contracts/access/AccessControl.sol\":6875:6879  role */\n      dup6\n        /* \"@openzeppelin/contracts/access/AccessControl.sol\":6868:6880  _roles[role] */\n      dup2\n      mstore\n      0x20\n      add\n      swap1\n      dup2\n      mstore\n      0x20\n      add\n      0x00\n      keccak256\n        /* \"@openzeppelin/contracts/access/AccessControl.sol\":6868:6888  _roles[role].hasRole */\n      0x00\n      add\n        /* \"@openzeppelin/contracts/access/AccessControl.sol\":6868:6897  _roles[role].hasRole[account] */\n      0x00\n        /* \"@openzeppelin/contracts/access/AccessControl.sol\":6889:6896  account */\n      dup5\n        /* \"@openzeppelin/contracts/access/AccessControl.sol\":6868:6897  _roles[role].hasRole[account] */\n      0xffffffffffffffffffffffffffffffffffffffff\n      and\n      0xffffffffffffffffffffffffffffffffffffffff\n      and\n      dup2\n      mstore\n      0x20\n      add\n      swap1\n      dup2\n      mstore\n      0x20\n      add\n      0x00\n      keccak256\n      0x00\n        /* \"@openzeppelin/contracts/access/AccessControl.sol\":6868:6905  _roles[role].hasRole[account] = false */\n      0x0100\n      exp\n      dup2\n      sload\n      dup2\n      0xff\n      mul\n      not\n      and\n      swap1\n      dup4\n      iszero\n      iszero\n      mul\n      or\n      swap1\n      sstore\n      pop\n        /* \"@openzeppelin/contracts/access/AccessControl.sol\":6951:6963  _msgSender() */\n      tag_421\n        /* \"@openzeppelin/contracts/access/AccessControl.sol\":6951:6961  _msgSender */\n      tag_254\n        /* \"@openzeppelin/contracts/access/AccessControl.sol\":6951:6963  _msgSender() */\n      jump\t// in\n    tag_421:\n        /* \"@openzeppelin/contracts/access/AccessControl.sol\":6924:6964  RoleRevoked(role, account, _msgSender()) */\n      0xffffffffffffffffffffffffffffffffffffffff\n      and\n        /* \"@openzeppelin/contracts/access/AccessControl.sol\":6942:6949  account */\n      dup3\n        /* \"@openzeppelin/contracts/access/AccessControl.sol\":6924:6964  RoleRevoked(role, account, _msgSender()) */\n      0xffffffffffffffffffffffffffffffffffffffff\n      and\n        /* \"@openzeppelin/contracts/access/AccessControl.sol\":6936:6940  role */\n      dup5\n        /* \"@openzeppelin/contracts/access/AccessControl.sol\":6924:6964  RoleRevoked(role, account, _msgSender()) */\n      0xf6391f5c32d9c69d2a47ea670b442974b53935d1edc7fd64eb21e047a839171b\n      mload(0x40)\n      mload(0x40)\n      dup1\n      swap2\n      sub\n      swap1\n      log4\n        /* \"@openzeppelin/contracts/access/AccessControl.sol\":6985:6989  true */\n      0x01\n        /* \"@openzeppelin/contracts/access/AccessControl.sol\":6978:6989  return true */\n      swap1\n      pop\n      jump(tag_418)\n        /* \"@openzeppelin/contracts/access/AccessControl.sol\":6826:7043  if (hasRole(role, account)) {... */\n    tag_420:\n        /* \"@openzeppelin/contracts/access/AccessControl.sol\":7027:7032  false */\n      0x00\n        /* \"@openzeppelin/contracts/access/AccessControl.sol\":7020:7032  return false */\n      swap1\n      pop\n        /* \"@openzeppelin/contracts/access/AccessControl.sol\":6732:7049  function _revokeRole(bytes32 role, address account) internal virtual returns (bool) {... */\n    tag_418:\n      swap3\n      swap2\n      pop\n      pop\n      jump\t// out\n        /* \"@openzeppelin/contracts/utils/ReentrancyGuard.sol\":2575:2882  function _nonReentrantBefore() private {... */\n    tag_260:\n        /* \"@openzeppelin/contracts/utils/ReentrancyGuard.sol\":1899:1900  2 */\n      0x02\n        /* \"@openzeppelin/contracts/utils/ReentrancyGuard.sol\":2702:2709  _status */\n      sload(0x00)\n        /* \"@openzeppelin/contracts/utils/ReentrancyGuard.sol\":2702:2720  _status == ENTERED */\n      sub\n        /* \"@openzeppelin/contracts/utils/ReentrancyGuard.sol\":2698:2784  if (_status == ENTERED) {... */\n      tag_424\n      jumpi\n        /* \"@openzeppelin/contracts/utils/ReentrancyGuard.sol\":2743:2773  ReentrancyGuardReentrantCall() */\n      mload(0x40)\n      0x3ee5aeb500000000000000000000000000000000000000000000000000000000\n      dup2\n      mstore\n      0x04\n      add\n      mload(0x40)\n      dup1\n      swap2\n      sub\n      swap1\n      revert\n        /* \"@openzeppelin/contracts/utils/ReentrancyGuard.sol\":2698:2784  if (_status == ENTERED) {... */\n    tag_424:\n        /* \"@openzeppelin/contracts/utils/ReentrancyGuard.sol\":1899:1900  2 */\n      0x02\n        /* \"@openzeppelin/contracts/utils/ReentrancyGuard.sol\":2858:2865  _status */\n      0x00\n        /* \"@openzeppelin/contracts/utils/ReentrancyGuard.sol\":2858:2875  _status = ENTERED */\n      dup2\n      swap1\n      sstore\n      pop\n        /* \"@openzeppelin/contracts/utils/ReentrancyGuard.sol\":2575:2882  function _nonReentrantBefore() private {... */\n      jump\t// out\n        /* \"@openzeppelin/contracts/utils/Pausable.sol\":1878:2006  function _requireNotPaused() internal view virtual {... */\n    tag_263:\n        /* \"@openzeppelin/contracts/utils/Pausable.sol\":1943:1951  paused() */\n      tag_426\n        /* \"@openzeppelin/contracts/utils/Pausable.sol\":1943:1949  paused */\n      tag_130\n        /* \"@openzeppelin/contracts/utils/Pausable.sol\":1943:1951  paused() */\n      jump\t// in\n    tag_426:\n        /* \"@openzeppelin/contracts/utils/Pausable.sol\":1939:2000  if (paused()) {... */\n      iszero\n      tag_427\n      jumpi\n        /* \"@openzeppelin/contracts/utils/Pausable.sol\":1974:1989  EnforcedPause() */\n      mload(0x40)\n      0xd93c066500000000000000000000000000000000000000000000000000000000\n      dup2\n      mstore\n      0x04\n      add\n      mload(0x40)\n      dup1\n      swap2\n      sub\n      swap1\n      revert\n        /* \"@openzeppelin/contracts/utils/Pausable.sol\":1939:2000  if (paused()) {... */\n    tag_427:\n        /* \"@openzeppelin/contracts/utils/Pausable.sol\":1878:2006  function _requireNotPaused() internal view virtual {... */\n      jump\t// out\n        /* \"@openzeppelin/contracts/utils/ReentrancyGuard.sol\":2888:3096  function _nonReentrantAfter() private {... */\n    tag_277:\n        /* \"@openzeppelin/contracts/utils/ReentrancyGuard.sol\":1857:1858  1 */\n      0x01\n        /* \"@openzeppelin/contracts/utils/ReentrancyGuard.sol\":3068:3075  _status */\n      0x00\n        /* \"@openzeppelin/contracts/utils/ReentrancyGuard.sol\":3068:3089  _status = NOT_ENTERED */\n      dup2\n      swap1\n      sstore\n      pop\n        /* \"@openzeppelin/contracts/utils/ReentrancyGuard.sol\":2888:3096  function _nonReentrantAfter() private {... */\n      jump\t// out\n        /* \"@openzeppelin/contracts/utils/Pausable.sol\":2586:2703  function _unpause() internal virtual whenPaused {... */\n    tag_282:\n        /* \"@openzeppelin/contracts/utils/Pausable.sol\":1597:1613  _requirePaused() */\n      tag_430\n        /* \"@openzeppelin/contracts/utils/Pausable.sol\":1597:1611  _requirePaused */\n      tag_431\n        /* \"@openzeppelin/contracts/utils/Pausable.sol\":1597:1613  _requirePaused() */\n      jump\t// in\n    tag_430:\n        /* \"@openzeppelin/contracts/utils/Pausable.sol\":2654:2659  false */\n      0x00\n        /* \"@openzeppelin/contracts/utils/Pausable.sol\":2644:2651  _paused */\n      0x01\n      0x00\n        /* \"@openzeppelin/contracts/utils/Pausable.sol\":2644:2659  _paused = false */\n      0x0100\n      exp\n      dup2\n      sload\n      dup2\n      0xff\n      mul\n      not\n      and\n      swap1\n      dup4\n      iszero\n      iszero\n      mul\n      or\n      swap1\n      sstore\n      pop\n        /* \"@openzeppelin/contracts/utils/Pausable.sol\":2674:2696  Unpaused(_msgSender()) */\n      0x5db9ee0a495bf2e6ff9c91a7834c1ba4fdd244a5e8aa4e537bd38aeae4b073aa\n        /* \"@openzeppelin/contracts/utils/Pausable.sol\":2683:2695  _msgSender() */\n      tag_433\n        /* \"@openzeppelin/contracts/utils/Pausable.sol\":2683:2693  _msgSender */\n      tag_254\n        /* \"@openzeppelin/contracts/utils/Pausable.sol\":2683:2695  _msgSender() */\n      jump\t// in\n    tag_433:\n        /* \"@openzeppelin/contracts/utils/Pausable.sol\":2674:2696  Unpaused(_msgSender()) */\n      mload(0x40)\n      tag_434\n      swap2\n      swap1\n      tag_127\n      jump\t// in\n    tag_434:\n      mload(0x40)\n      dup1\n      swap2\n      sub\n      swap1\n      log1\n        /* \"@openzeppelin/contracts/utils/Pausable.sol\":2586:2703  function _unpause() internal virtual whenPaused {... */\n      jump\t// out\n        /* \"@openzeppelin/contracts/utils/Pausable.sol\":2339:2454  function _pause() internal virtual whenNotPaused {... */\n    tag_300:\n        /* \"@openzeppelin/contracts/utils/Pausable.sol\":1350:1369  _requireNotPaused() */\n      tag_436\n        /* \"@openzeppelin/contracts/utils/Pausable.sol\":1350:1367  _requireNotPaused */\n      tag_263\n        /* \"@openzeppelin/contracts/utils/Pausable.sol\":1350:1369  _requireNotPaused() */\n      jump\t// in\n    tag_436:\n        /* \"@openzeppelin/contracts/utils/Pausable.sol\":2408:2412  true */\n      0x01\n        /* \"@openzeppelin/contracts/utils/Pausable.sol\":2398:2405  _paused */\n      dup1\n      0x00\n        /* \"@openzeppelin/contracts/utils/Pausable.sol\":2398:2412  _paused = true */\n      0x0100\n      exp\n      dup2\n      sload\n      dup2\n      0xff\n      mul\n      not\n      and\n      swap1\n      dup4\n      iszero\n      iszero\n      mul\n      or\n      swap1\n      sstore\n      pop\n        /* \"@openzeppelin/contracts/utils/Pausable.sol\":2427:2447  Paused(_msgSender()) */\n      0x62e78cea01bee320cd4e420270b5ea74000d11b0c9f74754ebdbfc544b05a258\n        /* \"@openzeppelin/contracts/utils/Pausable.sol\":2434:2446  _msgSender() */\n      tag_438\n        /* \"@openzeppelin/contracts/utils/Pausable.sol\":2434:2444  _msgSender */\n      tag_254\n        /* \"@openzeppelin/contracts/utils/Pausable.sol\":2434:2446  _msgSender() */\n      jump\t// in\n    tag_438:\n        /* \"@openzeppelin/contracts/utils/Pausable.sol\":2427:2447  Paused(_msgSender()) */\n      mload(0x40)\n      tag_439\n      swap2\n      swap1\n      tag_127\n      jump\t// in\n    tag_439:\n      mload(0x40)\n      dup1\n      swap2\n      sub\n      swap1\n      log1\n        /* \"@openzeppelin/contracts/utils/Pausable.sol\":2339:2454  function _pause() internal virtual whenNotPaused {... */\n      jump\t// out\n        /* \"@openzeppelin/contracts/access/AccessControl.sol\":3432:3629  function _checkRole(bytes32 role, address account) internal view virtual {... */\n    tag_411:\n        /* \"@openzeppelin/contracts/access/AccessControl.sol\":3520:3542  hasRole(role, account) */\n      tag_441\n        /* \"@openzeppelin/contracts/access/AccessControl.sol\":3528:3532  role */\n      dup3\n        /* \"@openzeppelin/contracts/access/AccessControl.sol\":3534:3541  account */\n      dup3\n        /* \"@openzeppelin/contracts/access/AccessControl.sol\":3520:3527  hasRole */\n      tag_146\n        /* \"@openzeppelin/contracts/access/AccessControl.sol\":3520:3542  hasRole(role, account) */\n      jump\t// in\n    tag_441:\n        /* \"@openzeppelin/contracts/access/AccessControl.sol\":3515:3623  if (!hasRole(role, account)) {... */\n      tag_442\n      jumpi\n        /* \"@openzeppelin/contracts/access/AccessControl.sol\":3598:3605  account */\n      dup1\n        /* \"@openzeppelin/contracts/access/AccessControl.sol\":3607:3611  role */\n      dup3\n        /* \"@openzeppelin/contracts/access/AccessControl.sol\":3565:3612  AccessControlUnauthorizedAccount(account, role) */\n      mload(0x40)\n      0xe2517d3f00000000000000000000000000000000000000000000000000000000\n      dup2\n      mstore\n      0x04\n      add\n      tag_443\n      swap3\n      swap2\n      swap1\n      tag_444\n      jump\t// in\n    tag_443:\n      mload(0x40)\n      dup1\n      swap2\n      sub\n      swap1\n      revert\n        /* \"@openzeppelin/contracts/access/AccessControl.sol\":3515:3623  if (!hasRole(role, account)) {... */\n    tag_442:\n        /* \"@openzeppelin/contracts/access/AccessControl.sol\":3432:3629  function _checkRole(bytes32 role, address account) internal view virtual {... */\n      pop\n      pop\n      jump\t// out\n        /* \"@openzeppelin/contracts/utils/Pausable.sol\":2078:2204  function _requirePaused() internal view virtual {... */\n    tag_431:\n        /* \"@openzeppelin/contracts/utils/Pausable.sol\":2141:2149  paused() */\n      tag_446\n        /* \"@openzeppelin/contracts/utils/Pausable.sol\":2141:2147  paused */\n      tag_130\n        /* \"@openzeppelin/contracts/utils/Pausable.sol\":2141:2149  paused() */\n      jump\t// in\n    tag_446:\n        /* \"@openzeppelin/contracts/utils/Pausable.sol\":2136:2198  if (!paused()) {... */\n      tag_447\n      jumpi\n        /* \"@openzeppelin/contracts/utils/Pausable.sol\":2172:2187  ExpectedPause() */\n      mload(0x40)\n      0x8dfc202b00000000000000000000000000000000000000000000000000000000\n      dup2\n      mstore\n      0x04\n      add\n      mload(0x40)\n      dup1\n      swap2\n      sub\n      swap1\n      revert\n        /* \"@openzeppelin/contracts/utils/Pausable.sol\":2136:2198  if (!paused()) {... */\n    tag_447:\n        /* \"@openzeppelin/contracts/utils/Pausable.sol\":2078:2204  function _requirePaused() internal view virtual {... */\n      jump\t// out\n        /* \"#utility.yul\":7:176   */\n    tag_448:\n        /* \"#utility.yul\":91:102   */\n      0x00\n        /* \"#utility.yul\":125:131   */\n      dup3\n        /* \"#utility.yul\":120:123   */\n      dup3\n        /* \"#utility.yul\":113:132   */\n      mstore\n        /* \"#utility.yul\":165:169   */\n      0x20\n        /* \"#utility.yul\":160:163   */\n      dup3\n        /* \"#utility.yul\":156:170   */\n      add\n        /* \"#utility.yul\":141:170   */\n      swap1\n      pop\n        /* \"#utility.yul\":7:176   */\n      swap3\n      swap2\n      pop\n      pop\n      jump\t// out\n        /* \"#utility.yul\":182:347   */\n    tag_449:\n        /* \"#utility.yul\":322:339   */\n      0x55736520627579546f6b656e7328290000000000000000000000000000000000\n        /* \"#utility.yul\":318:319   */\n      0x00\n        /* \"#utility.yul\":310:316   */\n      dup3\n        /* \"#utility.yul\":306:320   */\n      add\n        /* \"#utility.yul\":299:340   */\n      mstore\n        /* \"#utility.yul\":182:347   */\n      pop\n      jump\t// out\n        /* \"#utility.yul\":353:719   */\n    tag_450:\n        /* \"#utility.yul\":495:498   */\n      0x00\n        /* \"#utility.yul\":516:583   */\n      tag_502\n        /* \"#utility.yul\":580:582   */\n      0x0f\n        /* \"#utility.yul\":575:578   */\n      dup4\n        /* \"#utility.yul\":516:583   */\n      tag_448\n      jump\t// in\n    tag_502:\n        /* \"#utility.yul\":509:583   */\n      swap2\n      pop\n        /* \"#utility.yul\":592:685   */\n      tag_503\n        /* \"#utility.yul\":681:684   */\n      dup3\n        /* \"#utility.yul\":592:685   */\n      tag_449\n      jump\t// in\n    tag_503:\n        /* \"#utility.yul\":710:712   */\n      0x20\n        /* \"#utility.yul\":705:708   */\n      dup3\n        /* \"#utility.yul\":701:713   */\n      add\n        /* \"#utility.yul\":694:713   */\n      swap1\n      pop\n        /* \"#utility.yul\":353:719   */\n      swap2\n      swap1\n      pop\n      jump\t// out\n        /* \"#utility.yul\":725:1144   */\n    tag_54:\n        /* \"#utility.yul\":891:895   */\n      0x00\n        /* \"#utility.yul\":929:931   */\n      0x20\n        /* \"#utility.yul\":918:927   */\n      dup3\n        /* \"#utility.yul\":914:932   */\n      add\n        /* \"#utility.yul\":906:932   */\n      swap1\n      pop\n        /* \"#utility.yul\":978:987   */\n      dup2\n        /* \"#utility.yul\":972:976   */\n      dup2\n        /* \"#utility.yul\":968:988   */\n      sub\n        /* \"#utility.yul\":964:965   */\n      0x00\n        /* \"#utility.yul\":953:962   */\n      dup4\n        /* \"#utility.yul\":949:966   */\n      add\n        /* \"#utility.yul\":942:989   */\n      mstore\n        /* \"#utility.yul\":1006:1137   */\n      tag_505\n        /* \"#utility.yul\":1132:1136   */\n      dup2\n        /* \"#utility.yul\":1006:1137   */\n      tag_450\n      jump\t// in\n    tag_505:\n        /* \"#utility.yul\":998:1137   */\n      swap1\n      pop\n        /* \"#utility.yul\":725:1144   */\n      swap2\n      swap1\n      pop\n      jump\t// out\n        /* \"#utility.yul\":1150:1312   */\n    tag_451:\n        /* \"#utility.yul\":1290:1304   */\n      0x496e76616c69642063616c6c0000000000000000000000000000000000000000\n        /* \"#utility.yul\":1286:1287   */\n      0x00\n        /* \"#utility.yul\":1278:1284   */\n      dup3\n        /* \"#utility.yul\":1274:1288   */\n      add\n        /* \"#utility.yul\":1267:1305   */\n      mstore\n        /* \"#utility.yul\":1150:1312   */\n      pop\n      jump\t// out\n        /* \"#utility.yul\":1318:1684   */\n    tag_452:\n        /* \"#utility.yul\":1460:1463   */\n      0x00\n        /* \"#utility.yul\":1481:1548   */\n      tag_508\n        /* \"#utility.yul\":1545:1547   */\n      0x0c\n        /* \"#utility.yul\":1540:1543   */\n      dup4\n        /* \"#utility.yul\":1481:1548   */\n      tag_448\n      jump\t// in\n    tag_508:\n        /* \"#utility.yul\":1474:1548   */\n      swap2\n      pop\n        /* \"#utility.yul\":1557:1650   */\n      tag_509\n        /* \"#utility.yul\":1646:1649   */\n      dup3\n        /* \"#utility.yul\":1557:1650   */\n      tag_451\n      jump\t// in\n    tag_509:\n        /* \"#utility.yul\":1675:1677   */\n      0x20\n        /* \"#utility.yul\":1670:1673   */\n      dup3\n        /* \"#utility.yul\":1666:1678   */\n      add\n        /* \"#utility.yul\":1659:1678   */\n      swap1\n      pop\n        /* \"#utility.yul\":1318:1684   */\n      swap2\n      swap1\n      pop\n      jump\t// out\n        /* \"#utility.yul\":1690:2109   */\n    tag_58:\n        /* \"#utility.yul\":1856:1860   */\n      0x00\n        /* \"#utility.yul\":1894:1896   */\n      0x20\n        /* \"#utility.yul\":1883:1892   */\n      dup3\n        /* \"#utility.yul\":1879:1897   */\n      add\n        /* \"#utility.yul\":1871:1897   */\n      swap1\n      pop\n        /* \"#utility.yul\":1943:1952   */\n      dup2\n        /* \"#utility.yul\":1937:1941   */\n      dup2\n        /* \"#utility.yul\":1933:1953   */\n      sub\n        /* \"#utility.yul\":1929:1930   */\n      0x00\n        /* \"#utility.yul\":1918:1927   */\n      dup4\n        /* \"#utility.yul\":1914:1931   */\n      add\n        /* \"#utility.yul\":1907:1954   */\n      mstore\n        /* \"#utility.yul\":1971:2102   */\n      tag_511\n        /* \"#utility.yul\":2097:2101   */\n      dup2\n        /* \"#utility.yul\":1971:2102   */\n      tag_452\n      jump\t// in\n    tag_511:\n        /* \"#utility.yul\":1963:2102   */\n      swap1\n      pop\n        /* \"#utility.yul\":1690:2109   */\n      swap2\n      swap1\n      pop\n      jump\t// out\n        /* \"#utility.yul\":2196:2313   */\n    tag_454:\n        /* \"#utility.yul\":2305:2306   */\n      0x00\n        /* \"#utility.yul\":2302:2303   */\n      0x00\n        /* \"#utility.yul\":2295:2307   */\n      revert\n        /* \"#utility.yul\":2442:2591   */\n    tag_456:\n        /* \"#utility.yul\":2478:2485   */\n      0x00\n        /* \"#utility.yul\":2518:2584   */\n      0xffffffff00000000000000000000000000000000000000000000000000000000\n        /* \"#utility.yul\":2511:2516   */\n      dup3\n        /* \"#utility.yul\":2507:2585   */\n      and\n        /* \"#utility.yul\":2496:2585   */\n      swap1\n      pop\n        /* \"#utility.yul\":2442:2591   */\n      swap2\n      swap1\n      pop\n      jump\t// out\n        /* \"#utility.yul\":2597:2717   */\n    tag_457:\n        /* \"#utility.yul\":2669:2692   */\n      tag_517\n        /* \"#utility.yul\":2686:2691   */\n      dup2\n        /* \"#utility.yul\":2669:2692   */\n      tag_456\n      jump\t// in\n    tag_517:\n        /* \"#utility.yul\":2662:2667   */\n      dup2\n        /* \"#utility.yul\":2659:2693   */\n      eq\n        /* \"#utility.yul\":2649:2711   */\n      tag_518\n      jumpi\n        /* \"#utility.yul\":2707:2708   */\n      0x00\n        /* \"#utility.yul\":2704:2705   */\n      0x00\n        /* \"#utility.yul\":2697:2709   */\n      revert\n        /* \"#utility.yul\":2649:2711   */\n    tag_518:\n        /* \"#utility.yul\":2597:2717   */\n      pop\n      jump\t// out\n        /* \"#utility.yul\":2723:2860   */\n    tag_458:\n        /* \"#utility.yul\":2768:2773   */\n      0x00\n        /* \"#utility.yul\":2806:2812   */\n      dup2\n        /* \"#utility.yul\":2793:2813   */\n      calldataload\n        /* \"#utility.yul\":2784:2813   */\n      swap1\n      pop\n        /* \"#utility.yul\":2822:2854   */\n      tag_520\n        /* \"#utility.yul\":2848:2853   */\n      dup2\n        /* \"#utility.yul\":2822:2854   */\n      tag_457\n      jump\t// in\n    tag_520:\n        /* \"#utility.yul\":2723:2860   */\n      swap3\n      swap2\n      pop\n      pop\n      jump\t// out\n        /* \"#utility.yul\":2866:3193   */\n    tag_62:\n        /* \"#utility.yul\":2924:2930   */\n      0x00\n        /* \"#utility.yul\":2973:2975   */\n      0x20\n        /* \"#utility.yul\":2961:2970   */\n      dup3\n        /* \"#utility.yul\":2952:2959   */\n      dup5\n        /* \"#utility.yul\":2948:2971   */\n      sub\n        /* \"#utility.yul\":2944:2976   */\n      slt\n        /* \"#utility.yul\":2941:3060   */\n      iszero\n      tag_522\n      jumpi\n        /* \"#utility.yul\":2979:3058   */\n      tag_523\n      tag_454\n      jump\t// in\n    tag_523:\n        /* \"#utility.yul\":2941:3060   */\n    tag_522:\n        /* \"#utility.yul\":3099:3100   */\n      0x00\n        /* \"#utility.yul\":3124:3176   */\n      tag_524\n        /* \"#utility.yul\":3168:3175   */\n      dup5\n        /* \"#utility.yul\":3159:3165   */\n      dup3\n        /* \"#utility.yul\":3148:3157   */\n      dup6\n        /* \"#utility.yul\":3144:3166   */\n      add\n        /* \"#utility.yul\":3124:3176   */\n      tag_458\n      jump\t// in\n    tag_524:\n        /* \"#utility.yul\":3114:3176   */\n      swap2\n      pop\n        /* \"#utility.yul\":3070:3186   */\n      pop\n        /* \"#utility.yul\":2866:3193   */\n      swap3\n      swap2\n      pop\n      pop\n      jump\t// out\n        /* \"#utility.yul\":3199:3289   */\n    tag_459:\n        /* \"#utility.yul\":3233:3240   */\n      0x00\n        /* \"#utility.yul\":3276:3281   */\n      dup2\n        /* \"#utility.yul\":3269:3282   */\n      iszero\n        /* \"#utility.yul\":3262:3283   */\n      iszero\n        /* \"#utility.yul\":3251:3283   */\n      swap1\n      pop\n        /* \"#utility.yul\":3199:3289   */\n      swap2\n      swap1\n      pop\n      jump\t// out\n        /* \"#utility.yul\":3295:3404   */\n    tag_460:\n        /* \"#utility.yul\":3376:3397   */\n      tag_527\n        /* \"#utility.yul\":3391:3396   */\n      dup2\n        /* \"#utility.yul\":3376:3397   */\n      tag_459\n      jump\t// in\n    tag_527:\n        /* \"#utility.yul\":3371:3374   */\n      dup3\n        /* \"#utility.yul\":3364:3398   */\n      mstore\n        /* \"#utility.yul\":3295:3404   */\n      pop\n      pop\n      jump\t// out\n        /* \"#utility.yul\":3410:3620   */\n    tag_65:\n        /* \"#utility.yul\":3497:3501   */\n      0x00\n        /* \"#utility.yul\":3535:3537   */\n      0x20\n        /* \"#utility.yul\":3524:3533   */\n      dup3\n        /* \"#utility.yul\":3520:3538   */\n      add\n        /* \"#utility.yul\":3512:3538   */\n      swap1\n      pop\n        /* \"#utility.yul\":3548:3613   */\n      tag_529\n        /* \"#utility.yul\":3610:3611   */\n      0x00\n        /* \"#utility.yul\":3599:3608   */\n      dup4\n        /* \"#utility.yul\":3595:3612   */\n      add\n        /* \"#utility.yul\":3586:3592   */\n      dup5\n        /* \"#utility.yul\":3548:3613   */\n      tag_460\n      jump\t// in\n    tag_529:\n        /* \"#utility.yul\":3410:3620   */\n      swap3\n      swap2\n      pop\n      pop\n      jump\t// out\n        /* \"#utility.yul\":3626:3703   */\n    tag_461:\n        /* \"#utility.yul\":3663:3670   */\n      0x00\n        /* \"#utility.yul\":3692:3697   */\n      dup2\n        /* \"#utility.yul\":3681:3697   */\n      swap1\n      pop\n        /* \"#utility.yul\":3626:3703   */\n      swap2\n      swap1\n      pop\n      jump\t// out\n        /* \"#utility.yul\":3709:3831   */\n    tag_462:\n        /* \"#utility.yul\":3782:3806   */\n      tag_532\n        /* \"#utility.yul\":3800:3805   */\n      dup2\n        /* \"#utility.yul\":3782:3806   */\n      tag_461\n      jump\t// in\n    tag_532:\n        /* \"#utility.yul\":3775:3780   */\n      dup2\n        /* \"#utility.yul\":3772:3807   */\n      eq\n        /* \"#utility.yul\":3762:3825   */\n      tag_533\n      jumpi\n        /* \"#utility.yul\":3821:3822   */\n      0x00\n        /* \"#utility.yul\":3818:3819   */\n      0x00\n        /* \"#utility.yul\":3811:3823   */\n      revert\n        /* \"#utility.yul\":3762:3825   */\n    tag_533:\n        /* \"#utility.yul\":3709:3831   */\n      pop\n      jump\t// out\n        /* \"#utility.yul\":3837:3976   */\n    tag_463:\n        /* \"#utility.yul\":3883:3888   */\n      0x00\n        /* \"#utility.yul\":3921:3927   */\n      dup2\n        /* \"#utility.yul\":3908:3928   */\n      calldataload\n        /* \"#utility.yul\":3899:3928   */\n      swap1\n      pop\n        /* \"#utility.yul\":3937:3970   */\n      tag_535\n        /* \"#utility.yul\":3964:3969   */\n      dup2\n        /* \"#utility.yul\":3937:3970   */\n      tag_462\n      jump\t// in\n    tag_535:\n        /* \"#utility.yul\":3837:3976   */\n      swap3\n      swap2\n      pop\n      pop\n      jump\t// out\n        /* \"#utility.yul\":3982:4311   */\n    tag_69:\n        /* \"#utility.yul\":4041:4047   */\n      0x00\n        /* \"#utility.yul\":4090:4092   */\n      0x20\n        /* \"#utility.yul\":4078:4087   */\n      dup3\n        /* \"#utility.yul\":4069:4076   */\n      dup5\n        /* \"#utility.yul\":4065:4088   */\n      sub\n        /* \"#utility.yul\":4061:4093   */\n      slt\n        /* \"#utility.yul\":4058:4177   */\n      iszero\n      tag_537\n      jumpi\n        /* \"#utility.yul\":4096:4175   */\n      tag_538\n      tag_454\n      jump\t// in\n    tag_538:\n        /* \"#utility.yul\":4058:4177   */\n    tag_537:\n        /* \"#utility.yul\":4216:4217   */\n      0x00\n        /* \"#utility.yul\":4241:4294   */\n      tag_539\n        /* \"#utility.yul\":4286:4293   */\n      dup5\n        /* \"#utility.yul\":4277:4283   */\n      dup3\n        /* \"#utility.yul\":4266:4275   */\n      dup6\n        /* \"#utility.yul\":4262:4284   */\n      add\n        /* \"#utility.yul\":4241:4294   */\n      tag_463\n      jump\t// in\n    tag_539:\n        /* \"#utility.yul\":4231:4294   */\n      swap2\n      pop\n        /* \"#utility.yul\":4187:4304   */\n      pop\n        /* \"#utility.yul\":3982:4311   */\n      swap3\n      swap2\n      pop\n      pop\n      jump\t// out\n        /* \"#utility.yul\":4317:4435   */\n    tag_464:\n        /* \"#utility.yul\":4404:4428   */\n      tag_541\n        /* \"#utility.yul\":4422:4427   */\n      dup2\n        /* \"#utility.yul\":4404:4428   */\n      tag_461\n      jump\t// in\n    tag_541:\n        /* \"#utility.yul\":4399:4402   */\n      dup3\n        /* \"#utility.yul\":4392:4429   */\n      mstore\n        /* \"#utility.yul\":4317:4435   */\n      pop\n      pop\n      jump\t// out\n        /* \"#utility.yul\":4441:4663   */\n    tag_72:\n        /* \"#utility.yul\":4534:4538   */\n      0x00\n        /* \"#utility.yul\":4572:4574   */\n      0x20\n        /* \"#utility.yul\":4561:4570   */\n      dup3\n        /* \"#utility.yul\":4557:4575   */\n      add\n        /* \"#utility.yul\":4549:4575   */\n      swap1\n      pop\n        /* \"#utility.yul\":4585:4656   */\n      tag_543\n        /* \"#utility.yul\":4653:4654   */\n      0x00\n        /* \"#utility.yul\":4642:4651   */\n      dup4\n        /* \"#utility.yul\":4638:4655   */\n      add\n        /* \"#utility.yul\":4629:4635   */\n      dup5\n        /* \"#utility.yul\":4585:4656   */\n      tag_464\n      jump\t// in\n    tag_543:\n        /* \"#utility.yul\":4441:4663   */\n      swap3\n      swap2\n      pop\n      pop\n      jump\t// out\n        /* \"#utility.yul\":4669:4746   */\n    tag_465:\n        /* \"#utility.yul\":4706:4713   */\n      0x00\n        /* \"#utility.yul\":4735:4740   */\n      dup2\n        /* \"#utility.yul\":4724:4740   */\n      swap1\n      pop\n        /* \"#utility.yul\":4669:4746   */\n      swap2\n      swap1\n      pop\n      jump\t// out\n        /* \"#utility.yul\":4752:4870   */\n    tag_466:\n        /* \"#utility.yul\":4839:4863   */\n      tag_546\n        /* \"#utility.yul\":4857:4862   */\n      dup2\n        /* \"#utility.yul\":4839:4863   */\n      tag_465\n      jump\t// in\n    tag_546:\n        /* \"#utility.yul\":4834:4837   */\n      dup3\n        /* \"#utility.yul\":4827:4864   */\n      mstore\n        /* \"#utility.yul\":4752:4870   */\n      pop\n      pop\n      jump\t// out\n        /* \"#utility.yul\":4876:5098   */\n    tag_77:\n        /* \"#utility.yul\":4969:4973   */\n      0x00\n        /* \"#utility.yul\":5007:5009   */\n      0x20\n        /* \"#utility.yul\":4996:5005   */\n      dup3\n        /* \"#utility.yul\":4992:5010   */\n      add\n        /* \"#utility.yul\":4984:5010   */\n      swap1\n      pop\n        /* \"#utility.yul\":5020:5091   */\n      tag_548\n        /* \"#utility.yul\":5088:5089   */\n      0x00\n        /* \"#utility.yul\":5077:5086   */\n      dup4\n        /* \"#utility.yul\":5073:5090   */\n      add\n        /* \"#utility.yul\":5064:5070   */\n      dup5\n        /* \"#utility.yul\":5020:5091   */\n      tag_466\n      jump\t// in\n    tag_548:\n        /* \"#utility.yul\":4876:5098   */\n      swap3\n      swap2\n      pop\n      pop\n      jump\t// out\n        /* \"#utility.yul\":5104:5230   */\n    tag_467:\n        /* \"#utility.yul\":5141:5148   */\n      0x00\n        /* \"#utility.yul\":5181:5223   */\n      0xffffffffffffffffffffffffffffffffffffffff\n        /* \"#utility.yul\":5174:5179   */\n      dup3\n        /* \"#utility.yul\":5170:5224   */\n      and\n        /* \"#utility.yul\":5159:5224   */\n      swap1\n      pop\n        /* \"#utility.yul\":5104:5230   */\n      swap2\n      swap1\n      pop\n      jump\t// out\n        /* \"#utility.yul\":5236:5332   */\n    tag_468:\n        /* \"#utility.yul\":5273:5280   */\n      0x00\n        /* \"#utility.yul\":5302:5326   */\n      tag_551\n        /* \"#utility.yul\":5320:5325   */\n      dup3\n        /* \"#utility.yul\":5302:5326   */\n      tag_467\n      jump\t// in\n    tag_551:\n        /* \"#utility.yul\":5291:5326   */\n      swap1\n      pop\n        /* \"#utility.yul\":5236:5332   */\n      swap2\n      swap1\n      pop\n      jump\t// out\n        /* \"#utility.yul\":5338:5460   */\n    tag_469:\n        /* \"#utility.yul\":5411:5435   */\n      tag_553\n        /* \"#utility.yul\":5429:5434   */\n      dup2\n        /* \"#utility.yul\":5411:5435   */\n      tag_468\n      jump\t// in\n    tag_553:\n        /* \"#utility.yul\":5404:5409   */\n      dup2\n        /* \"#utility.yul\":5401:5436   */\n      eq\n        /* \"#utility.yul\":5391:5454   */\n      tag_554\n      jumpi\n        /* \"#utility.yul\":5450:5451   */\n      0x00\n        /* \"#utility.yul\":5447:5448   */\n      0x00\n        /* \"#utility.yul\":5440:5452   */\n      revert\n        /* \"#utility.yul\":5391:5454   */\n    tag_554:\n        /* \"#utility.yul\":5338:5460   */\n      pop\n      jump\t// out\n        /* \"#utility.yul\":5466:5605   */\n    tag_470:\n        /* \"#utility.yul\":5512:5517   */\n      0x00\n        /* \"#utility.yul\":5550:5556   */\n      dup2\n        /* \"#utility.yul\":5537:5557   */\n      calldataload\n        /* \"#utility.yul\":5528:5557   */\n      swap1\n      pop\n        /* \"#utility.yul\":5566:5599   */\n      tag_556\n        /* \"#utility.yul\":5593:5598   */\n      dup2\n        /* \"#utility.yul\":5566:5599   */\n      tag_469\n      jump\t// in\n    tag_556:\n        /* \"#utility.yul\":5466:5605   */\n      swap3\n      swap2\n      pop\n      pop\n      jump\t// out\n        /* \"#utility.yul\":5611:6085   */\n    tag_81:\n        /* \"#utility.yul\":5679:5685   */\n      0x00\n        /* \"#utility.yul\":5687:5693   */\n      0x00\n        /* \"#utility.yul\":5736:5738   */\n      0x40\n        /* \"#utility.yul\":5724:5733   */\n      dup4\n        /* \"#utility.yul\":5715:5722   */\n      dup6\n        /* \"#utility.yul\":5711:5734   */\n      sub\n        /* \"#utility.yul\":5707:5739   */\n      slt\n        /* \"#utility.yul\":5704:5823   */\n      iszero\n      tag_558\n      jumpi\n        /* \"#utility.yul\":5742:5821   */\n      tag_559\n      tag_454\n      jump\t// in\n    tag_559:\n        /* \"#utility.yul\":5704:5823   */\n    tag_558:\n        /* \"#utility.yul\":5862:5863   */\n      0x00\n        /* \"#utility.yul\":5887:5940   */\n      tag_560\n        /* \"#utility.yul\":5932:5939   */\n      dup6\n        /* \"#utility.yul\":5923:5929   */\n      dup3\n        /* \"#utility.yul\":5912:5921   */\n      dup7\n        /* \"#utility.yul\":5908:5930   */\n      add\n        /* \"#utility.yul\":5887:5940   */\n      tag_463\n      jump\t// in\n    tag_560:\n        /* \"#utility.yul\":5877:5940   */\n      swap3\n      pop\n        /* \"#utility.yul\":5833:5950   */\n      pop\n        /* \"#utility.yul\":5989:5991   */\n      0x20\n        /* \"#utility.yul\":6015:6068   */\n      tag_561\n        /* \"#utility.yul\":6060:6067   */\n      dup6\n        /* \"#utility.yul\":6051:6057   */\n      dup3\n        /* \"#utility.yul\":6040:6049   */\n      dup7\n        /* \"#utility.yul\":6036:6058   */\n      add\n        /* \"#utility.yul\":6015:6068   */\n      tag_470\n      jump\t// in\n    tag_561:\n        /* \"#utility.yul\":6005:6068   */\n      swap2\n      pop\n        /* \"#utility.yul\":5960:6078   */\n      pop\n        /* \"#utility.yul\":5611:6085   */\n      swap3\n      pop\n      swap3\n      swap1\n      pop\n      jump\t// out\n        /* \"#utility.yul\":6091:6213   */\n    tag_471:\n        /* \"#utility.yul\":6164:6188   */\n      tag_563\n        /* \"#utility.yul\":6182:6187   */\n      dup2\n        /* \"#utility.yul\":6164:6188   */\n      tag_465\n      jump\t// in\n    tag_563:\n        /* \"#utility.yul\":6157:6162   */\n      dup2\n        /* \"#utility.yul\":6154:6189   */\n      eq\n        /* \"#utility.yul\":6144:6207   */\n      tag_564\n      jumpi\n        /* \"#utility.yul\":6203:6204   */\n      0x00\n        /* \"#utility.yul\":6200:6201   */\n      0x00\n        /* \"#utility.yul\":6193:6205   */\n      revert\n        /* \"#utility.yul\":6144:6207   */\n    tag_564:\n        /* \"#utility.yul\":6091:6213   */\n      pop\n      jump\t// out\n        /* \"#utility.yul\":6219:6358   */\n    tag_472:\n        /* \"#utility.yul\":6265:6270   */\n      0x00\n        /* \"#utility.yul\":6303:6309   */\n      dup2\n        /* \"#utility.yul\":6290:6310   */\n      calldataload\n        /* \"#utility.yul\":6281:6310   */\n      swap1\n      pop\n        /* \"#utility.yul\":6319:6352   */\n      tag_566\n        /* \"#utility.yul\":6346:6351   */\n      dup2\n        /* \"#utility.yul\":6319:6352   */\n      tag_471\n      jump\t// in\n    tag_566:\n        /* \"#utility.yul\":6219:6358   */\n      swap3\n      swap2\n      pop\n      pop\n      jump\t// out\n        /* \"#utility.yul\":6364:6693   */\n    tag_86:\n        /* \"#utility.yul\":6423:6429   */\n      0x00\n        /* \"#utility.yul\":6472:6474   */\n      0x20\n        /* \"#utility.yul\":6460:6469   */\n      dup3\n        /* \"#utility.yul\":6451:6458   */\n      dup5\n        /* \"#utility.yul\":6447:6470   */\n      sub\n        /* \"#utility.yul\":6443:6475   */\n      slt\n        /* \"#utility.yul\":6440:6559   */\n      iszero\n      tag_568\n      jumpi\n        /* \"#utility.yul\":6478:6557   */\n      tag_569\n      tag_454\n      jump\t// in\n    tag_569:\n        /* \"#utility.yul\":6440:6559   */\n    tag_568:\n        /* \"#utility.yul\":6598:6599   */\n      0x00\n        /* \"#utility.yul\":6623:6676   */\n      tag_570\n        /* \"#utility.yul\":6668:6675   */\n      dup5\n        /* \"#utility.yul\":6659:6665   */\n      dup3\n        /* \"#utility.yul\":6648:6657   */\n      dup6\n        /* \"#utility.yul\":6644:6666   */\n      add\n        /* \"#utility.yul\":6623:6676   */\n      tag_472\n      jump\t// in\n    tag_570:\n        /* \"#utility.yul\":6613:6676   */\n      swap2\n      pop\n        /* \"#utility.yul\":6569:6686   */\n      pop\n        /* \"#utility.yul\":6364:6693   */\n      swap3\n      swap2\n      pop\n      pop\n      jump\t// out\n        /* \"#utility.yul\":6699:7028   */\n    tag_105:\n        /* \"#utility.yul\":6758:6764   */\n      0x00\n        /* \"#utility.yul\":6807:6809   */\n      0x20\n        /* \"#utility.yul\":6795:6804   */\n      dup3\n        /* \"#utility.yul\":6786:6793   */\n      dup5\n        /* \"#utility.yul\":6782:6805   */\n      sub\n        /* \"#utility.yul\":6778:6810   */\n      slt\n        /* \"#utility.yul\":6775:6894   */\n      iszero\n      tag_572\n      jumpi\n        /* \"#utility.yul\":6813:6892   */\n      tag_573\n      tag_454\n      jump\t// in\n    tag_573:\n        /* \"#utility.yul\":6775:6894   */\n    tag_572:\n        /* \"#utility.yul\":6933:6934   */\n      0x00\n        /* \"#utility.yul\":6958:7011   */\n      tag_574\n        /* \"#utility.yul\":7003:7010   */\n      dup5\n        /* \"#utility.yul\":6994:7000   */\n      dup3\n        /* \"#utility.yul\":6983:6992   */\n      dup6\n        /* \"#utility.yul\":6979:7001   */\n      add\n        /* \"#utility.yul\":6958:7011   */\n      tag_470\n      jump\t// in\n    tag_574:\n        /* \"#utility.yul\":6948:7011   */\n      swap2\n      pop\n        /* \"#utility.yul\":6904:7021   */\n      pop\n        /* \"#utility.yul\":6699:7028   */\n      swap3\n      swap2\n      pop\n      pop\n      jump\t// out\n        /* \"#utility.yul\":7034:7152   */\n    tag_473:\n        /* \"#utility.yul\":7121:7145   */\n      tag_576\n        /* \"#utility.yul\":7139:7144   */\n      dup2\n        /* \"#utility.yul\":7121:7145   */\n      tag_468\n      jump\t// in\n    tag_576:\n        /* \"#utility.yul\":7116:7119   */\n      dup3\n        /* \"#utility.yul\":7109:7146   */\n      mstore\n        /* \"#utility.yul\":7034:7152   */\n      pop\n      pop\n      jump\t// out\n        /* \"#utility.yul\":7158:7380   */\n    tag_127:\n        /* \"#utility.yul\":7251:7255   */\n      0x00\n        /* \"#utility.yul\":7289:7291   */\n      0x20\n        /* \"#utility.yul\":7278:7287   */\n      dup3\n        /* \"#utility.yul\":7274:7292   */\n      add\n        /* \"#utility.yul\":7266:7292   */\n      swap1\n      pop\n        /* \"#utility.yul\":7302:7373   */\n      tag_578\n        /* \"#utility.yul\":7370:7371   */\n      0x00\n        /* \"#utility.yul\":7359:7368   */\n      dup4\n        /* \"#utility.yul\":7355:7372   */\n      add\n        /* \"#utility.yul\":7346:7352   */\n      dup5\n        /* \"#utility.yul\":7302:7373   */\n      tag_473\n      jump\t// in\n    tag_578:\n        /* \"#utility.yul\":7158:7380   */\n      swap3\n      swap2\n      pop\n      pop\n      jump\t// out\n        /* \"#utility.yul\":7386:7860   */\n    tag_193:\n        /* \"#utility.yul\":7454:7460   */\n      0x00\n        /* \"#utility.yul\":7462:7468   */\n      0x00\n        /* \"#utility.yul\":7511:7513   */\n      0x40\n        /* \"#utility.yul\":7499:7508   */\n      dup4\n        /* \"#utility.yul\":7490:7497   */\n      dup6\n        /* \"#utility.yul\":7486:7509   */\n      sub\n        /* \"#utility.yul\":7482:7514   */\n      slt\n        /* \"#utility.yul\":7479:7598   */\n      iszero\n      tag_580\n      jumpi\n        /* \"#utility.yul\":7517:7596   */\n      tag_581\n      tag_454\n      jump\t// in\n    tag_581:\n        /* \"#utility.yul\":7479:7598   */\n    tag_580:\n        /* \"#utility.yul\":7637:7638   */\n      0x00\n        /* \"#utility.yul\":7662:7715   */\n      tag_582\n        /* \"#utility.yul\":7707:7714   */\n      dup6\n        /* \"#utility.yul\":7698:7704   */\n      dup3\n        /* \"#utility.yul\":7687:7696   */\n      dup7\n        /* \"#utility.yul\":7683:7705   */\n      add\n        /* \"#utility.yul\":7662:7715   */\n      tag_472\n      jump\t// in\n    tag_582:\n        /* \"#utility.yul\":7652:7715   */\n      swap3\n      pop\n        /* \"#utility.yul\":7608:7725   */\n      pop\n        /* \"#utility.yul\":7764:7766   */\n      0x20\n        /* \"#utility.yul\":7790:7843   */\n      tag_583\n        /* \"#utility.yul\":7835:7842   */\n      dup6\n        /* \"#utility.yul\":7826:7832   */\n      dup3\n        /* \"#utility.yul\":7815:7824   */\n      dup7\n        /* \"#utility.yul\":7811:7833   */\n      add\n        /* \"#utility.yul\":7790:7843   */\n      tag_472\n      jump\t// in\n    tag_583:\n        /* \"#utility.yul\":7780:7843   */\n      swap2\n      pop\n        /* \"#utility.yul\":7735:7853   */\n      pop\n        /* \"#utility.yul\":7386:7860   */\n      swap3\n      pop\n      swap3\n      swap1\n      pop\n      jump\t// out\n        /* \"#utility.yul\":7866:7967   */\n    tag_474:\n        /* \"#utility.yul\":7902:7909   */\n      0x00\n        /* \"#utility.yul\":7942:7960   */\n      0xffffffffffffffff\n        /* \"#utility.yul\":7935:7940   */\n      dup3\n        /* \"#utility.yul\":7931:7961   */\n      and\n        /* \"#utility.yul\":7920:7961   */\n      swap1\n      pop\n        /* \"#utility.yul\":7866:7967   */\n      swap2\n      swap1\n      pop\n      jump\t// out\n        /* \"#utility.yul\":7973:8093   */\n    tag_475:\n        /* \"#utility.yul\":8045:8068   */\n      tag_586\n        /* \"#utility.yul\":8062:8067   */\n      dup2\n        /* \"#utility.yul\":8045:8068   */\n      tag_474\n      jump\t// in\n    tag_586:\n        /* \"#utility.yul\":8038:8043   */\n      dup2\n        /* \"#utility.yul\":8035:8069   */\n      eq\n        /* \"#utility.yul\":8025:8087   */\n      tag_587\n      jumpi\n        /* \"#utility.yul\":8083:8084   */\n      0x00\n        /* \"#utility.yul\":8080:8081   */\n      0x00\n        /* \"#utility.yul\":8073:8085   */\n      revert\n        /* \"#utility.yul\":8025:8087   */\n    tag_587:\n        /* \"#utility.yul\":7973:8093   */\n      pop\n      jump\t// out\n        /* \"#utility.yul\":8099:8236   */\n    tag_476:\n        /* \"#utility.yul\":8144:8149   */\n      0x00\n        /* \"#utility.yul\":8182:8188   */\n      dup2\n        /* \"#utility.yul\":8169:8189   */\n      calldataload\n        /* \"#utility.yul\":8160:8189   */\n      swap1\n      pop\n        /* \"#utility.yul\":8198:8230   */\n      tag_589\n        /* \"#utility.yul\":8224:8229   */\n      dup2\n        /* \"#utility.yul\":8198:8230   */\n      tag_475\n      jump\t// in\n    tag_589:\n        /* \"#utility.yul\":8099:8236   */\n      swap3\n      swap2\n      pop\n      pop\n      jump\t// out\n        /* \"#utility.yul\":8242:8712   */\n    tag_213:\n        /* \"#utility.yul\":8308:8314   */\n      0x00\n        /* \"#utility.yul\":8316:8322   */\n      0x00\n        /* \"#utility.yul\":8365:8367   */\n      0x40\n        /* \"#utility.yul\":8353:8362   */\n      dup4\n        /* \"#utility.yul\":8344:8351   */\n      dup6\n        /* \"#utility.yul\":8340:8363   */\n      sub\n        /* \"#utility.yul\":8336:8368   */\n      slt\n        /* \"#utility.yul\":8333:8452   */\n      iszero\n      tag_591\n      jumpi\n        /* \"#utility.yul\":8371:8450   */\n      tag_592\n      tag_454\n      jump\t// in\n    tag_592:\n        /* \"#utility.yul\":8333:8452   */\n    tag_591:\n        /* \"#utility.yul\":8491:8492   */\n      0x00\n        /* \"#utility.yul\":8516:8568   */\n      tag_593\n        /* \"#utility.yul\":8560:8567   */\n      dup6\n        /* \"#utility.yul\":8551:8557   */\n      dup3\n        /* \"#utility.yul\":8540:8549   */\n      dup7\n        /* \"#utility.yul\":8536:8558   */\n      add\n        /* \"#utility.yul\":8516:8568   */\n      tag_476\n      jump\t// in\n    tag_593:\n        /* \"#utility.yul\":8506:8568   */\n      swap3\n      pop\n        /* \"#utility.yul\":8462:8578   */\n      pop\n        /* \"#utility.yul\":8617:8619   */\n      0x20\n        /* \"#utility.yul\":8643:8695   */\n      tag_594\n        /* \"#utility.yul\":8687:8694   */\n      dup6\n        /* \"#utility.yul\":8678:8684   */\n      dup3\n        /* \"#utility.yul\":8667:8676   */\n      dup7\n        /* \"#utility.yul\":8663:8685   */\n      add\n        /* \"#utility.yul\":8643:8695   */\n      tag_476\n      jump\t// in\n    tag_594:\n        /* \"#utility.yul\":8633:8695   */\n      swap2\n      pop\n        /* \"#utility.yul\":8588:8705   */\n      pop\n        /* \"#utility.yul\":8242:8712   */\n      swap3\n      pop\n      swap3\n      swap1\n      pop\n      jump\t// out\n        /* \"#utility.yul\":8718:8778   */\n    tag_477:\n        /* \"#utility.yul\":8746:8749   */\n      0x00\n        /* \"#utility.yul\":8767:8772   */\n      dup2\n        /* \"#utility.yul\":8760:8772   */\n      swap1\n      pop\n        /* \"#utility.yul\":8718:8778   */\n      swap2\n      swap1\n      pop\n      jump\t// out\n        /* \"#utility.yul\":8784:8926   */\n    tag_478:\n        /* \"#utility.yul\":8834:8843   */\n      0x00\n        /* \"#utility.yul\":8867:8920   */\n      tag_597\n        /* \"#utility.yul\":8885:8919   */\n      tag_598\n        /* \"#utility.yul\":8894:8918   */\n      tag_599\n        /* \"#utility.yul\":8912:8917   */\n      dup5\n        /* \"#utility.yul\":8894:8918   */\n      tag_467\n      jump\t// in\n    tag_599:\n        /* \"#utility.yul\":8885:8919   */\n      tag_477\n      jump\t// in\n    tag_598:\n        /* \"#utility.yul\":8867:8920   */\n      tag_467\n      jump\t// in\n    tag_597:\n        /* \"#utility.yul\":8854:8920   */\n      swap1\n      pop\n        /* \"#utility.yul\":8784:8926   */\n      swap2\n      swap1\n      pop\n      jump\t// out\n        /* \"#utility.yul\":8932:9058   */\n    tag_479:\n        /* \"#utility.yul\":8982:8991   */\n      0x00\n        /* \"#utility.yul\":9015:9052   */\n      tag_601\n        /* \"#utility.yul\":9046:9051   */\n      dup3\n        /* \"#utility.yul\":9015:9052   */\n      tag_478\n      jump\t// in\n    tag_601:\n        /* \"#utility.yul\":9002:9052   */\n      swap1\n      pop\n        /* \"#utility.yul\":8932:9058   */\n      swap2\n      swap1\n      pop\n      jump\t// out\n        /* \"#utility.yul\":9064:9207   */\n    tag_480:\n        /* \"#utility.yul\":9131:9140   */\n      0x00\n        /* \"#utility.yul\":9164:9201   */\n      tag_603\n        /* \"#utility.yul\":9195:9200   */\n      dup3\n        /* \"#utility.yul\":9164:9201   */\n      tag_479\n      jump\t// in\n    tag_603:\n        /* \"#utility.yul\":9151:9201   */\n      swap1\n      pop\n        /* \"#utility.yul\":9064:9207   */\n      swap2\n      swap1\n      pop\n      jump\t// out\n        /* \"#utility.yul\":9213:9378   */\n    tag_481:\n        /* \"#utility.yul\":9317:9371   */\n      tag_605\n        /* \"#utility.yul\":9365:9370   */\n      dup2\n        /* \"#utility.yul\":9317:9371   */\n      tag_480\n      jump\t// in\n    tag_605:\n        /* \"#utility.yul\":9312:9315   */\n      dup3\n        /* \"#utility.yul\":9305:9372   */\n      mstore\n        /* \"#utility.yul\":9213:9378   */\n      pop\n      pop\n      jump\t// out\n        /* \"#utility.yul\":9384:9640   */\n    tag_234:\n        /* \"#utility.yul\":9494:9498   */\n      0x00\n        /* \"#utility.yul\":9532:9534   */\n      0x20\n        /* \"#utility.yul\":9521:9530   */\n      dup3\n        /* \"#utility.yul\":9517:9535   */\n      add\n        /* \"#utility.yul\":9509:9535   */\n      swap1\n      pop\n        /* \"#utility.yul\":9545:9633   */\n      tag_607\n        /* \"#utility.yul\":9630:9631   */\n      0x00\n        /* \"#utility.yul\":9619:9628   */\n      dup4\n        /* \"#utility.yul\":9615:9632   */\n      add\n        /* \"#utility.yul\":9606:9612   */\n      dup5\n        /* \"#utility.yul\":9545:9633   */\n      tag_481\n      jump\t// in\n    tag_607:\n        /* \"#utility.yul\":9384:9640   */\n      swap3\n      swap2\n      pop\n      pop\n      jump\t// out\n        /* \"#utility.yul\":9646:9978   */\n    tag_251:\n        /* \"#utility.yul\":9767:9771   */\n      0x00\n        /* \"#utility.yul\":9805:9807   */\n      0x40\n        /* \"#utility.yul\":9794:9803   */\n      dup3\n        /* \"#utility.yul\":9790:9808   */\n      add\n        /* \"#utility.yul\":9782:9808   */\n      swap1\n      pop\n        /* \"#utility.yul\":9818:9889   */\n      tag_609\n        /* \"#utility.yul\":9886:9887   */\n      0x00\n        /* \"#utility.yul\":9875:9884   */\n      dup4\n        /* \"#utility.yul\":9871:9888   */\n      add\n        /* \"#utility.yul\":9862:9868   */\n      dup6\n        /* \"#utility.yul\":9818:9889   */\n      tag_466\n      jump\t// in\n    tag_609:\n        /* \"#utility.yul\":9899:9971   */\n      tag_610\n        /* \"#utility.yul\":9967:9969   */\n      0x20\n        /* \"#utility.yul\":9956:9965   */\n      dup4\n        /* \"#utility.yul\":9952:9970   */\n      add\n        /* \"#utility.yul\":9943:9949   */\n      dup5\n        /* \"#utility.yul\":9899:9971   */\n      tag_466\n      jump\t// in\n    tag_610:\n        /* \"#utility.yul\":9646:9978   */\n      swap4\n      swap3\n      pop\n      pop\n      pop\n      jump\t// out\n        /* \"#utility.yul\":9984:10131   */\n    tag_482:\n        /* \"#utility.yul\":10085:10096   */\n      0x00\n        /* \"#utility.yul\":10122:10125   */\n      dup2\n        /* \"#utility.yul\":10107:10125   */\n      swap1\n      pop\n        /* \"#utility.yul\":9984:10131   */\n      swap3\n      swap2\n      pop\n      pop\n      jump\t// out\n        /* \"#utility.yul\":10137:10251   */\n    tag_483:\n      pop\n      jump\t// out\n        /* \"#utility.yul\":10257:10655   */\n    tag_484:\n        /* \"#utility.yul\":10416:10419   */\n      0x00\n        /* \"#utility.yul\":10437:10520   */\n      tag_614\n        /* \"#utility.yul\":10518:10519   */\n      0x00\n        /* \"#utility.yul\":10513:10516   */\n      dup4\n        /* \"#utility.yul\":10437:10520   */\n      tag_482\n      jump\t// in\n    tag_614:\n        /* \"#utility.yul\":10430:10520   */\n      swap2\n      pop\n        /* \"#utility.yul\":10529:10622   */\n      tag_615\n        /* \"#utility.yul\":10618:10621   */\n      dup3\n        /* \"#utility.yul\":10529:10622   */\n      tag_483\n      jump\t// in\n    tag_615:\n        /* \"#utility.yul\":10647:10648   */\n      0x00\n        /* \"#utility.yul\":10642:10645   */\n      dup3\n        /* \"#utility.yul\":10638:10649   */\n      add\n        /* \"#utility.yul\":10631:10649   */\n      swap1\n      pop\n        /* \"#utility.yul\":10257:10655   */\n      swap2\n      swap1\n      pop\n      jump\t// out\n        /* \"#utility.yul\":10661:11040   */\n    tag_268:\n        /* \"#utility.yul\":10845:10848   */\n      0x00\n        /* \"#utility.yul\":10867:11014   */\n      tag_617\n        /* \"#utility.yul\":11010:11013   */\n      dup3\n        /* \"#utility.yul\":10867:11014   */\n      tag_484\n      jump\t// in\n    tag_617:\n        /* \"#utility.yul\":10860:11014   */\n      swap2\n      pop\n        /* \"#utility.yul\":11031:11034   */\n      dup2\n        /* \"#utility.yul\":11024:11034   */\n      swap1\n      pop\n        /* \"#utility.yul\":10661:11040   */\n      swap2\n      swap1\n      pop\n      jump\t// out\n        /* \"#utility.yul\":11046:11218   */\n    tag_485:\n        /* \"#utility.yul\":11186:11210   */\n      0x526566756e64207472616e73666572206661696c656400000000000000000000\n        /* \"#utility.yul\":11182:11183   */\n      0x00\n        /* \"#utility.yul\":11174:11180   */\n      dup3\n        /* \"#utility.yul\":11170:11184   */\n      add\n        /* \"#utility.yul\":11163:11211   */\n      mstore\n        /* \"#utility.yul\":11046:11218   */\n      pop\n      jump\t// out\n        /* \"#utility.yul\":11224:11590   */\n    tag_486:\n        /* \"#utility.yul\":11366:11369   */\n      0x00\n        /* \"#utility.yul\":11387:11454   */\n      tag_620\n        /* \"#utility.yul\":11451:11453   */\n      0x16\n        /* \"#utility.yul\":11446:11449   */\n      dup4\n        /* \"#utility.yul\":11387:11454   */\n      tag_448\n      jump\t// in\n    tag_620:\n        /* \"#utility.yul\":11380:11454   */\n      swap2\n      pop\n        /* \"#utility.yul\":11463:11556   */\n      tag_621\n        /* \"#utility.yul\":11552:11555   */\n      dup3\n        /* \"#utility.yul\":11463:11556   */\n      tag_485\n      jump\t// in\n    tag_621:\n        /* \"#utility.yul\":11581:11583   */\n      0x20\n        /* \"#utility.yul\":11576:11579   */\n      dup3\n        /* \"#utility.yul\":11572:11584   */\n      add\n        /* \"#utility.yul\":11565:11584   */\n      swap1\n      pop\n        /* \"#utility.yul\":11224:11590   */\n      swap2\n      swap1\n      pop\n      jump\t// out\n        /* \"#utility.yul\":11596:12015   */\n    tag_274:\n        /* \"#utility.yul\":11762:11766   */\n      0x00\n        /* \"#utility.yul\":11800:11802   */\n      0x20\n        /* \"#utility.yul\":11789:11798   */\n      dup3\n        /* \"#utility.yul\":11785:11803   */\n      add\n        /* \"#utility.yul\":11777:11803   */\n      swap1\n      pop\n        /* \"#utility.yul\":11849:11858   */\n      dup2\n        /* \"#utility.yul\":11843:11847   */\n      dup2\n        /* \"#utility.yul\":11839:11859   */\n      sub\n        /* \"#utility.yul\":11835:11836   */\n      0x00\n        /* \"#utility.yul\":11824:11833   */\n      dup4\n        /* \"#utility.yul\":11820:11837   */\n      add\n        /* \"#utility.yul\":11813:11860   */\n      mstore\n        /* \"#utility.yul\":11877:12008   */\n      tag_623\n        /* \"#utility.yul\":12003:12007   */\n      dup2\n        /* \"#utility.yul\":11877:12008   */\n      tag_486\n      jump\t// in\n    tag_623:\n        /* \"#utility.yul\":11869:12008   */\n      swap1\n      pop\n        /* \"#utility.yul\":11596:12015   */\n      swap2\n      swap1\n      pop\n      jump\t// out\n        /* \"#utility.yul\":12021:12201   */\n    tag_487:\n        /* \"#utility.yul\":12069:12146   */\n      0x4e487b7100000000000000000000000000000000000000000000000000000000\n        /* \"#utility.yul\":12066:12067   */\n      0x00\n        /* \"#utility.yul\":12059:12147   */\n      mstore\n        /* \"#utility.yul\":12166:12170   */\n      0x11\n        /* \"#utility.yul\":12163:12164   */\n      0x04\n        /* \"#utility.yul\":12156:12171   */\n      mstore\n        /* \"#utility.yul\":12190:12194   */\n      0x24\n        /* \"#utility.yul\":12187:12188   */\n      0x00\n        /* \"#utility.yul\":12180:12195   */\n      revert\n        /* \"#utility.yul\":12207:12617   */\n    tag_311:\n        /* \"#utility.yul\":12247:12254   */\n      0x00\n        /* \"#utility.yul\":12270:12290   */\n      tag_626\n        /* \"#utility.yul\":12288:12289   */\n      dup3\n        /* \"#utility.yul\":12270:12290   */\n      tag_465\n      jump\t// in\n    tag_626:\n        /* \"#utility.yul\":12265:12290   */\n      swap2\n      pop\n        /* \"#utility.yul\":12304:12324   */\n      tag_627\n        /* \"#utility.yul\":12322:12323   */\n      dup4\n        /* \"#utility.yul\":12304:12324   */\n      tag_465\n      jump\t// in\n    tag_627:\n        /* \"#utility.yul\":12299:12324   */\n      swap3\n      pop\n        /* \"#utility.yul\":12359:12360   */\n      dup3\n        /* \"#utility.yul\":12356:12357   */\n      dup3\n        /* \"#utility.yul\":12352:12361   */\n      mul\n        /* \"#utility.yul\":12381:12411   */\n      tag_628\n        /* \"#utility.yul\":12399:12410   */\n      dup2\n        /* \"#utility.yul\":12381:12411   */\n      tag_465\n      jump\t// in\n    tag_628:\n        /* \"#utility.yul\":12370:12411   */\n      swap2\n      pop\n        /* \"#utility.yul\":12560:12561   */\n      dup3\n        /* \"#utility.yul\":12551:12558   */\n      dup3\n        /* \"#utility.yul\":12547:12562   */\n      div\n        /* \"#utility.yul\":12544:12545   */\n      dup5\n        /* \"#utility.yul\":12541:12563   */\n      eq\n        /* \"#utility.yul\":12521:12522   */\n      dup4\n        /* \"#utility.yul\":12514:12523   */\n      iszero\n        /* \"#utility.yul\":12494:12577   */\n      or\n        /* \"#utility.yul\":12471:12610   */\n      tag_629\n      jumpi\n        /* \"#utility.yul\":12590:12608   */\n      tag_630\n      tag_487\n      jump\t// in\n    tag_630:\n        /* \"#utility.yul\":12471:12610   */\n    tag_629:\n        /* \"#utility.yul\":12255:12617   */\n      pop\n        /* \"#utility.yul\":12207:12617   */\n      swap3\n      swap2\n      pop\n      pop\n      jump\t// out\n        /* \"#utility.yul\":12623:12803   */\n    tag_488:\n        /* \"#utility.yul\":12671:12748   */\n      0x4e487b7100000000000000000000000000000000000000000000000000000000\n        /* \"#utility.yul\":12668:12669   */\n      0x00\n        /* \"#utility.yul\":12661:12749   */\n      mstore\n        /* \"#utility.yul\":12768:12772   */\n      0x12\n        /* \"#utility.yul\":12765:12766   */\n      0x04\n        /* \"#utility.yul\":12758:12773   */\n      mstore\n        /* \"#utility.yul\":12792:12796   */\n      0x24\n        /* \"#utility.yul\":12789:12790   */\n      0x00\n        /* \"#utility.yul\":12782:12797   */\n      revert\n        /* \"#utility.yul\":12809:12994   */\n    tag_313:\n        /* \"#utility.yul\":12849:12850   */\n      0x00\n        /* \"#utility.yul\":12866:12886   */\n      tag_633\n        /* \"#utility.yul\":12884:12885   */\n      dup3\n        /* \"#utility.yul\":12866:12886   */\n      tag_465\n      jump\t// in\n    tag_633:\n        /* \"#utility.yul\":12861:12886   */\n      swap2\n      pop\n        /* \"#utility.yul\":12900:12920   */\n      tag_634\n        /* \"#utility.yul\":12918:12919   */\n      dup4\n        /* \"#utility.yul\":12900:12920   */\n      tag_465\n      jump\t// in\n    tag_634:\n        /* \"#utility.yul\":12895:12920   */\n      swap3\n      pop\n        /* \"#utility.yul\":12939:12940   */\n      dup3\n        /* \"#utility.yul\":12929:12964   */\n      tag_635\n      jumpi\n        /* \"#utility.yul\":12944:12962   */\n      tag_636\n      tag_488\n      jump\t// in\n    tag_636:\n        /* \"#utility.yul\":12929:12964   */\n    tag_635:\n        /* \"#utility.yul\":12986:12987   */\n      dup3\n        /* \"#utility.yul\":12983:12984   */\n      dup3\n        /* \"#utility.yul\":12979:12988   */\n      div\n        /* \"#utility.yul\":12974:12988   */\n      swap1\n      pop\n        /* \"#utility.yul\":12809:12994   */\n      swap3\n      swap2\n      pop\n      pop\n      jump\t// out\n        /* \"#utility.yul\":13000:13194   */\n    tag_316:\n        /* \"#utility.yul\":13040:13044   */\n      0x00\n        /* \"#utility.yul\":13060:13080   */\n      tag_638\n        /* \"#utility.yul\":13078:13079   */\n      dup3\n        /* \"#utility.yul\":13060:13080   */\n      tag_465\n      jump\t// in\n    tag_638:\n        /* \"#utility.yul\":13055:13080   */\n      swap2\n      pop\n        /* \"#utility.yul\":13094:13114   */\n      tag_639\n        /* \"#utility.yul\":13112:13113   */\n      dup4\n        /* \"#utility.yul\":13094:13114   */\n      tag_465\n      jump\t// in\n    tag_639:\n        /* \"#utility.yul\":13089:13114   */\n      swap3\n      pop\n        /* \"#utility.yul\":13138:13139   */\n      dup3\n        /* \"#utility.yul\":13135:13136   */\n      dup3\n        /* \"#utility.yul\":13131:13140   */\n      sub\n        /* \"#utility.yul\":13123:13140   */\n      swap1\n      pop\n        /* \"#utility.yul\":13162:13163   */\n      dup2\n        /* \"#utility.yul\":13156:13160   */\n      dup2\n        /* \"#utility.yul\":13153:13164   */\n      gt\n        /* \"#utility.yul\":13150:13187   */\n      iszero\n      tag_640\n      jumpi\n        /* \"#utility.yul\":13167:13185   */\n      tag_641\n      tag_487\n      jump\t// in\n    tag_641:\n        /* \"#utility.yul\":13150:13187   */\n    tag_640:\n        /* \"#utility.yul\":13000:13194   */\n      swap3\n      swap2\n      pop\n      pop\n      jump\t// out\n        /* \"#utility.yul\":13200:13532   */\n    tag_318:\n        /* \"#utility.yul\":13321:13325   */\n      0x00\n        /* \"#utility.yul\":13359:13361   */\n      0x40\n        /* \"#utility.yul\":13348:13357   */\n      dup3\n        /* \"#utility.yul\":13344:13362   */\n      add\n        /* \"#utility.yul\":13336:13362   */\n      swap1\n      pop\n        /* \"#utility.yul\":13372:13443   */\n      tag_643\n        /* \"#utility.yul\":13440:13441   */\n      0x00\n        /* \"#utility.yul\":13429:13438   */\n      dup4\n        /* \"#utility.yul\":13425:13442   */\n      add\n        /* \"#utility.yul\":13416:13422   */\n      dup6\n        /* \"#utility.yul\":13372:13443   */\n      tag_473\n      jump\t// in\n    tag_643:\n        /* \"#utility.yul\":13453:13525   */\n      tag_644\n        /* \"#utility.yul\":13521:13523   */\n      0x20\n        /* \"#utility.yul\":13510:13519   */\n      dup4\n        /* \"#utility.yul\":13506:13524   */\n      add\n        /* \"#utility.yul\":13497:13503   */\n      dup5\n        /* \"#utility.yul\":13453:13525   */\n      tag_466\n      jump\t// in\n    tag_644:\n        /* \"#utility.yul\":13200:13532   */\n      swap4\n      swap3\n      pop\n      pop\n      pop\n      jump\t// out\n        /* \"#utility.yul\":13538:13694   */\n    tag_489:\n        /* \"#utility.yul\":13678:13686   */\n      0x6c696d6974730000000000000000000000000000000000000000000000000000\n        /* \"#utility.yul\":13674:13675   */\n      0x00\n        /* \"#utility.yul\":13666:13672   */\n      dup3\n        /* \"#utility.yul\":13662:13676   */\n      add\n        /* \"#utility.yul\":13655:13687   */\n      mstore\n        /* \"#utility.yul\":13538:13694   */\n      pop\n      jump\t// out\n        /* \"#utility.yul\":13700:14065   */\n    tag_490:\n        /* \"#utility.yul\":13842:13845   */\n      0x00\n        /* \"#utility.yul\":13863:13929   */\n      tag_647\n        /* \"#utility.yul\":13927:13928   */\n      0x06\n        /* \"#utility.yul\":13922:13925   */\n      dup4\n        /* \"#utility.yul\":13863:13929   */\n      tag_448\n      jump\t// in\n    tag_647:\n        /* \"#utility.yul\":13856:13929   */\n      swap2\n      pop\n        /* \"#utility.yul\":13938:14031   */\n      tag_648\n        /* \"#utility.yul\":14027:14030   */\n      dup3\n        /* \"#utility.yul\":13938:14031   */\n      tag_489\n      jump\t// in\n    tag_648:\n        /* \"#utility.yul\":14056:14058   */\n      0x20\n        /* \"#utility.yul\":14051:14054   */\n      dup3\n        /* \"#utility.yul\":14047:14059   */\n      add\n        /* \"#utility.yul\":14040:14059   */\n      swap1\n      pop\n        /* \"#utility.yul\":13700:14065   */\n      swap2\n      swap1\n      pop\n      jump\t// out\n        /* \"#utility.yul\":14071:14490   */\n    tag_346:\n        /* \"#utility.yul\":14237:14241   */\n      0x00\n        /* \"#utility.yul\":14275:14277   */\n      0x20\n        /* \"#utility.yul\":14264:14273   */\n      dup3\n        /* \"#utility.yul\":14260:14278   */\n      add\n        /* \"#utility.yul\":14252:14278   */\n      swap1\n      pop\n        /* \"#utility.yul\":14324:14333   */\n      dup2\n        /* \"#utility.yul\":14318:14322   */\n      dup2\n        /* \"#utility.yul\":14314:14334   */\n      sub\n        /* \"#utility.yul\":14310:14311   */\n      0x00\n        /* \"#utility.yul\":14299:14308   */\n      dup4\n        /* \"#utility.yul\":14295:14312   */\n      add\n        /* \"#utility.yul\":14288:14335   */\n      mstore\n        /* \"#utility.yul\":14352:14483   */\n      tag_650\n        /* \"#utility.yul\":14478:14482   */\n      dup2\n        /* \"#utility.yul\":14352:14483   */\n      tag_490\n      jump\t// in\n    tag_650:\n        /* \"#utility.yul\":14344:14483   */\n      swap1\n      pop\n        /* \"#utility.yul\":14071:14490   */\n      swap2\n      swap1\n      pop\n      jump\t// out\n        /* \"#utility.yul\":14496:14828   */\n    tag_358:\n        /* \"#utility.yul\":14617:14621   */\n      0x00\n        /* \"#utility.yul\":14655:14657   */\n      0x40\n        /* \"#utility.yul\":14644:14653   */\n      dup3\n        /* \"#utility.yul\":14640:14658   */\n      add\n        /* \"#utility.yul\":14632:14658   */\n      swap1\n      pop\n        /* \"#utility.yul\":14668:14739   */\n      tag_652\n        /* \"#utility.yul\":14736:14737   */\n      0x00\n        /* \"#utility.yul\":14725:14734   */\n      dup4\n        /* \"#utility.yul\":14721:14738   */\n      add\n        /* \"#utility.yul\":14712:14718   */\n      dup6\n        /* \"#utility.yul\":14668:14739   */\n      tag_473\n      jump\t// in\n    tag_652:\n        /* \"#utility.yul\":14749:14821   */\n      tag_653\n        /* \"#utility.yul\":14817:14819   */\n      0x20\n        /* \"#utility.yul\":14806:14815   */\n      dup4\n        /* \"#utility.yul\":14802:14820   */\n      add\n        /* \"#utility.yul\":14793:14799   */\n      dup5\n        /* \"#utility.yul\":14749:14821   */\n      tag_473\n      jump\t// in\n    tag_653:\n        /* \"#utility.yul\":14496:14828   */\n      swap4\n      swap3\n      pop\n      pop\n      pop\n      jump\t// out\n        /* \"#utility.yul\":14834:14999   */\n    tag_491:\n        /* \"#utility.yul\":14974:14991   */\n      0x5769746864726177206661696c65640000000000000000000000000000000000\n        /* \"#utility.yul\":14970:14971   */\n      0x00\n        /* \"#utility.yul\":14962:14968   */\n      dup3\n        /* \"#utility.yul\":14958:14972   */\n      add\n        /* \"#utility.yul\":14951:14992   */\n      mstore\n        /* \"#utility.yul\":14834:14999   */\n      pop\n      jump\t// out\n        /* \"#utility.yul\":15005:15371   */\n    tag_492:\n        /* \"#utility.yul\":15147:15150   */\n      0x00\n        /* \"#utility.yul\":15168:15235   */\n      tag_656\n        /* \"#utility.yul\":15232:15234   */\n      0x0f\n        /* \"#utility.yul\":15227:15230   */\n      dup4\n        /* \"#utility.yul\":15168:15235   */\n      tag_448\n      jump\t// in\n    tag_656:\n        /* \"#utility.yul\":15161:15235   */\n      swap2\n      pop\n        /* \"#utility.yul\":15244:15337   */\n      tag_657\n        /* \"#utility.yul\":15333:15336   */\n      dup3\n        /* \"#utility.yul\":15244:15337   */\n      tag_491\n      jump\t// in\n    tag_657:\n        /* \"#utility.yul\":15362:15364   */\n      0x20\n        /* \"#utility.yul\":15357:15360   */\n      dup3\n        /* \"#utility.yul\":15353:15365   */\n      add\n        /* \"#utility.yul\":15346:15365   */\n      swap1\n      pop\n        /* \"#utility.yul\":15005:15371   */\n      swap2\n      swap1\n      pop\n      jump\t// out\n        /* \"#utility.yul\":15377:15796   */\n    tag_372:\n        /* \"#utility.yul\":15543:15547   */\n      0x00\n        /* \"#utility.yul\":15581:15583   */\n      0x20\n        /* \"#utility.yul\":15570:15579   */\n      dup3\n        /* \"#utility.yul\":15566:15584   */\n      add\n        /* \"#utility.yul\":15558:15584   */\n      swap1\n      pop\n        /* \"#utility.yul\":15630:15639   */\n      dup2\n        /* \"#utility.yul\":15624:15628   */\n      dup2\n        /* \"#utility.yul\":15620:15640   */\n      sub\n        /* \"#utility.yul\":15616:15617   */\n      0x00\n        /* \"#utility.yul\":15605:15614   */\n      dup4\n        /* \"#utility.yul\":15601:15618   */\n      add\n        /* \"#utility.yul\":15594:15641   */\n      mstore\n        /* \"#utility.yul\":15658:15789   */\n      tag_659\n        /* \"#utility.yul\":15784:15788   */\n      dup2\n        /* \"#utility.yul\":15658:15789   */\n      tag_492\n      jump\t// in\n    tag_659:\n        /* \"#utility.yul\":15650:15789   */\n      swap1\n      pop\n        /* \"#utility.yul\":15377:15796   */\n      swap2\n      swap1\n      pop\n      jump\t// out\n        /* \"#utility.yul\":15802:15956   */\n    tag_493:\n        /* \"#utility.yul\":15942:15948   */\n      0x74696d6500000000000000000000000000000000000000000000000000000000\n        /* \"#utility.yul\":15938:15939   */\n      0x00\n        /* \"#utility.yul\":15930:15936   */\n      dup3\n        /* \"#utility.yul\":15926:15940   */\n      add\n        /* \"#utility.yul\":15919:15949   */\n      mstore\n        /* \"#utility.yul\":15802:15956   */\n      pop\n      jump\t// out\n        /* \"#utility.yul\":15962:16327   */\n    tag_494:\n        /* \"#utility.yul\":16104:16107   */\n      0x00\n        /* \"#utility.yul\":16125:16191   */\n      tag_662\n        /* \"#utility.yul\":16189:16190   */\n      0x04\n        /* \"#utility.yul\":16184:16187   */\n      dup4\n        /* \"#utility.yul\":16125:16191   */\n      tag_448\n      jump\t// in\n    tag_662:\n        /* \"#utility.yul\":16118:16191   */\n      swap2\n      pop\n        /* \"#utility.yul\":16200:16293   */\n      tag_663\n        /* \"#utility.yul\":16289:16292   */\n      dup3\n        /* \"#utility.yul\":16200:16293   */\n      tag_493\n      jump\t// in\n    tag_663:\n        /* \"#utility.yul\":16318:16320   */\n      0x20\n        /* \"#utility.yul\":16313:16316   */\n      dup3\n        /* \"#utility.yul\":16309:16321   */\n      add\n        /* \"#utility.yul\":16302:16321   */\n      swap1\n      pop\n        /* \"#utility.yul\":15962:16327   */\n      swap2\n      swap1\n      pop\n      jump\t// out\n        /* \"#utility.yul\":16333:16752   */\n    tag_379:\n        /* \"#utility.yul\":16499:16503   */\n      0x00\n        /* \"#utility.yul\":16537:16539   */\n      0x20\n        /* \"#utility.yul\":16526:16535   */\n      dup3\n        /* \"#utility.yul\":16522:16540   */\n      add\n        /* \"#utility.yul\":16514:16540   */\n      swap1\n      pop\n        /* \"#utility.yul\":16586:16595   */\n      dup2\n        /* \"#utility.yul\":16580:16584   */\n      dup2\n        /* \"#utility.yul\":16576:16596   */\n      sub\n        /* \"#utility.yul\":16572:16573   */\n      0x00\n        /* \"#utility.yul\":16561:16570   */\n      dup4\n        /* \"#utility.yul\":16557:16574   */\n      add\n        /* \"#utility.yul\":16550:16597   */\n      mstore\n        /* \"#utility.yul\":16614:16745   */\n      tag_665\n        /* \"#utility.yul\":16740:16744   */\n      dup2\n        /* \"#utility.yul\":16614:16745   */\n      tag_494\n      jump\t// in\n    tag_665:\n        /* \"#utility.yul\":16606:16745   */\n      swap1\n      pop\n        /* \"#utility.yul\":16333:16752   */\n      swap2\n      swap1\n      pop\n      jump\t// out\n        /* \"#utility.yul\":16758:16873   */\n    tag_495:\n        /* \"#utility.yul\":16843:16866   */\n      tag_667\n        /* \"#utility.yul\":16860:16865   */\n      dup2\n        /* \"#utility.yul\":16843:16866   */\n      tag_474\n      jump\t// in\n    tag_667:\n        /* \"#utility.yul\":16838:16841   */\n      dup3\n        /* \"#utility.yul\":16831:16867   */\n      mstore\n        /* \"#utility.yul\":16758:16873   */\n      pop\n      pop\n      jump\t// out\n        /* \"#utility.yul\":16879:17203   */\n    tag_381:\n        /* \"#utility.yul\":16996:17000   */\n      0x00\n        /* \"#utility.yul\":17034:17036   */\n      0x40\n        /* \"#utility.yul\":17023:17032   */\n      dup3\n        /* \"#utility.yul\":17019:17037   */\n      add\n        /* \"#utility.yul\":17011:17037   */\n      swap1\n      pop\n        /* \"#utility.yul\":17047:17116   */\n      tag_669\n        /* \"#utility.yul\":17113:17114   */\n      0x00\n        /* \"#utility.yul\":17102:17111   */\n      dup4\n        /* \"#utility.yul\":17098:17115   */\n      add\n        /* \"#utility.yul\":17089:17095   */\n      dup6\n        /* \"#utility.yul\":17047:17116   */\n      tag_495\n      jump\t// in\n    tag_669:\n        /* \"#utility.yul\":17126:17196   */\n      tag_670\n        /* \"#utility.yul\":17192:17194   */\n      0x20\n        /* \"#utility.yul\":17181:17190   */\n      dup4\n        /* \"#utility.yul\":17177:17195   */\n      add\n        /* \"#utility.yul\":17168:17174   */\n      dup5\n        /* \"#utility.yul\":17126:17196   */\n      tag_495\n      jump\t// in\n    tag_670:\n        /* \"#utility.yul\":16879:17203   */\n      swap4\n      swap3\n      pop\n      pop\n      pop\n      jump\t// out\n        /* \"#utility.yul\":17209:17372   */\n    tag_496:\n        /* \"#utility.yul\":17349:17364   */\n      0x4f6e6c792073656c662d62757900000000000000000000000000000000000000\n        /* \"#utility.yul\":17345:17346   */\n      0x00\n        /* \"#utility.yul\":17337:17343   */\n      dup3\n        /* \"#utility.yul\":17333:17347   */\n      add\n        /* \"#utility.yul\":17326:17365   */\n      mstore\n        /* \"#utility.yul\":17209:17372   */\n      pop\n      jump\t// out\n        /* \"#utility.yul\":17378:17744   */\n    tag_497:\n        /* \"#utility.yul\":17520:17523   */\n      0x00\n        /* \"#utility.yul\":17541:17608   */\n      tag_673\n        /* \"#utility.yul\":17605:17607   */\n      0x0d\n        /* \"#utility.yul\":17600:17603   */\n      dup4\n        /* \"#utility.yul\":17541:17608   */\n      tag_448\n      jump\t// in\n    tag_673:\n        /* \"#utility.yul\":17534:17608   */\n      swap2\n      pop\n        /* \"#utility.yul\":17617:17710   */\n      tag_674\n        /* \"#utility.yul\":17706:17709   */\n      dup3\n        /* \"#utility.yul\":17617:17710   */\n      tag_496\n      jump\t// in\n    tag_674:\n        /* \"#utility.yul\":17735:17737   */\n      0x20\n        /* \"#utility.yul\":17730:17733   */\n      dup3\n        /* \"#utility.yul\":17726:17738   */\n      add\n        /* \"#utility.yul\":17719:17738   */\n      swap1\n      pop\n        /* \"#utility.yul\":17378:17744   */\n      swap2\n      swap1\n      pop\n      jump\t// out\n        /* \"#utility.yul\":17750:18169   */\n    tag_389:\n        /* \"#utility.yul\":17916:17920   */\n      0x00\n        /* \"#utility.yul\":17954:17956   */\n      0x20\n        /* \"#utility.yul\":17943:17952   */\n      dup3\n        /* \"#utility.yul\":17939:17957   */\n      add\n        /* \"#utility.yul\":17931:17957   */\n      swap1\n      pop\n        /* \"#utility.yul\":18003:18012   */\n      dup2\n        /* \"#utility.yul\":17997:18001   */\n      dup2\n        /* \"#utility.yul\":17993:18013   */\n      sub\n        /* \"#utility.yul\":17989:17990   */\n      0x00\n        /* \"#utility.yul\":17978:17987   */\n      dup4\n        /* \"#utility.yul\":17974:17991   */\n      add\n        /* \"#utility.yul\":17967:18014   */\n      mstore\n        /* \"#utility.yul\":18031:18162   */\n      tag_676\n        /* \"#utility.yul\":18157:18161   */\n      dup2\n        /* \"#utility.yul\":18031:18162   */\n      tag_497\n      jump\t// in\n    tag_676:\n        /* \"#utility.yul\":18023:18162   */\n      swap1\n      pop\n        /* \"#utility.yul\":17750:18169   */\n      swap2\n      swap1\n      pop\n      jump\t// out\n        /* \"#utility.yul\":18175:18366   */\n    tag_395:\n        /* \"#utility.yul\":18215:18218   */\n      0x00\n        /* \"#utility.yul\":18234:18254   */\n      tag_678\n        /* \"#utility.yul\":18252:18253   */\n      dup3\n        /* \"#utility.yul\":18234:18254   */\n      tag_465\n      jump\t// in\n    tag_678:\n        /* \"#utility.yul\":18229:18254   */\n      swap2\n      pop\n        /* \"#utility.yul\":18268:18288   */\n      tag_679\n        /* \"#utility.yul\":18286:18287   */\n      dup4\n        /* \"#utility.yul\":18268:18288   */\n      tag_465\n      jump\t// in\n    tag_679:\n        /* \"#utility.yul\":18263:18288   */\n      swap3\n      pop\n        /* \"#utility.yul\":18311:18312   */\n      dup3\n        /* \"#utility.yul\":18308:18309   */\n      dup3\n        /* \"#utility.yul\":18304:18313   */\n      add\n        /* \"#utility.yul\":18297:18313   */\n      swap1\n      pop\n        /* \"#utility.yul\":18332:18335   */\n      dup1\n        /* \"#utility.yul\":18329:18330   */\n      dup3\n        /* \"#utility.yul\":18326:18336   */\n      gt\n        /* \"#utility.yul\":18323:18359   */\n      iszero\n      tag_680\n      jumpi\n        /* \"#utility.yul\":18339:18357   */\n      tag_681\n      tag_487\n      jump\t// in\n    tag_681:\n        /* \"#utility.yul\":18323:18359   */\n    tag_680:\n        /* \"#utility.yul\":18175:18366   */\n      swap3\n      swap2\n      pop\n      pop\n      jump\t// out\n        /* \"#utility.yul\":18372:18704   */\n    tag_444:\n        /* \"#utility.yul\":18493:18497   */\n      0x00\n        /* \"#utility.yul\":18531:18533   */\n      0x40\n        /* \"#utility.yul\":18520:18529   */\n      dup3\n        /* \"#utility.yul\":18516:18534   */\n      add\n        /* \"#utility.yul\":18508:18534   */\n      swap1\n      pop\n        /* \"#utility.yul\":18544:18615   */\n      tag_683\n        /* \"#utility.yul\":18612:18613   */\n      0x00\n        /* \"#utility.yul\":18601:18610   */\n      dup4\n        /* \"#utility.yul\":18597:18614   */\n      add\n        /* \"#utility.yul\":18588:18594   */\n      dup6\n        /* \"#utility.yul\":18544:18615   */\n      tag_473\n      jump\t// in\n    tag_683:\n        /* \"#utility.yul\":18625:18697   */\n      tag_684\n        /* \"#utility.yul\":18693:18695   */\n      0x20\n        /* \"#utility.yul\":18682:18691   */\n      dup4\n        /* \"#utility.yul\":18678:18696   */\n      add\n        /* \"#utility.yul\":18669:18675   */\n      dup5\n        /* \"#utility.yul\":18625:18697   */\n      tag_464\n      jump\t// in\n    tag_684:\n        /* \"#utility.yul\":18372:18704   */\n      swap4\n      swap3\n      pop\n      pop\n      pop\n      jump\t// out\n\n    auxdata: 0xa2646970667358221220f2ecc57261d879a52a94b49eaa2b66187cd54e24e2c4661b977b33b1d744d28364736f6c634300081e0033\n}\n",
				"bytecode": {
					"linkReferences": {},
					"object": "610100604052348015610010575f5ffd5b5060405161397138038061397183398181016040528101906100329190610743565b60015f819055505f73ffffffffffffffffffffffffffffffffffffffff168b73ffffffffffffffffffffffffffffffffffffffff16036100a7576040517f08c379a000000000000000000000000000000000000000000000000000000000815260040161009e9061088a565b60405180910390fd5b5f73ffffffffffffffffffffffffffffffffffffffff168a73ffffffffffffffffffffffffffffffffffffffff1603610115576040517f08c379a000000000000000000000000000000000000000000000000000000000815260040161010c906108f2565b60405180910390fd5b5f8911610157576040517f08c379a000000000000000000000000000000000000000000000000000000000815260040161014e9061095a565b60405180910390fd5b5f8811610199576040517f08c379a0000000000000000000000000000000000000000000000000000000008152600401610190906109c2565b60405180910390fd5b5f87116101db576040517f08c379a00000000000000000000000000000000000000000000000000000000081526004016101d290610a2a565b60405180910390fd5b8688111561021e576040517f08c379a000000000000000000000000000000000000000000000000000000000815260040161021590610a92565b60405180910390fd5b42861015610261576040517f08c379a000000000000000000000000000000000000000000000000000000000815260040161025890610afa565b60405180910390fd5b8585116102a3576040517f08c379a000000000000000000000000000000000000000000000000000000000815260040161029a90610b62565b60405180910390fd5b5f84116102e5576040517f08c379a00000000000000000000000000000000000000000000000000000000081526004016102dc90610bca565b60405180910390fd5b5f8311610327576040517f08c379a000000000000000000000000000000000000000000000000000000000815260040161031e90610c32565b60405180910390fd5b8284111561036a576040517f08c379a000000000000000000000000000000000000000000000000000000000815260040161036190610c9a565b60405180910390fd5b6127108211156103af576040517f08c379a00000000000000000000000000000000000000000000000000000000081526004016103a690610d02565b60405180910390fd5b5f73ffffffffffffffffffffffffffffffffffffffff168173ffffffffffffffffffffffffffffffffffffffff160361041d576040517f08c379a000000000000000000000000000000000000000000000000000000000815260040161041490610d6a565b60405180910390fd5b8a73ffffffffffffffffffffffffffffffffffffffff1660808173ffffffffffffffffffffffffffffffffffffffff16815250508960035f6101000a81548173ffffffffffffffffffffffffffffffffffffffff021916908373ffffffffffffffffffffffffffffffffffffffff160217905550886004819055508760a081815250508660c08181525050856005819055508460068190555083600781905550826008819055508160e081815250506104de5f5f1b8261055160201b60201c565b5061050f7f65d7a28e3265b37a6474929f336521b332c1681b933f6cb9f3376673440d862a8261055160201b60201c565b506105407f82db594318110a04b6349ce48645aa69f0892751bc893d15e61d9e2b9c4630f58261055160201b60201c565b505050505050505050505050610d88565b5f610562838361064760201b60201c565b61063d57600160025f8581526020019081526020015f205f015f8473ffffffffffffffffffffffffffffffffffffffff1673ffffffffffffffffffffffffffffffffffffffff1681526020019081526020015f205f6101000a81548160ff0219169083151502179055506105da6106ab60201b60201c565b73ffffffffffffffffffffffffffffffffffffffff168273ffffffffffffffffffffffffffffffffffffffff16847f2f8788117e7eff1d82e926ec794901d17c78024a50270940304540a733656f0d60405160405180910390a460019050610641565b5f90505b92915050565b5f60025f8481526020019081526020015f205f015f8373ffffffffffffffffffffffffffffffffffffffff1673ffffffffffffffffffffffffffffffffffffffff1681526020019081526020015f205f9054906101000a900460ff16905092915050565b5f33905090565b5f5ffd5b5f73ffffffffffffffffffffffffffffffffffffffff82169050919050565b5f6106df826106b6565b9050919050565b6106ef816106d5565b81146106f9575f5ffd5b50565b5f8151905061070a816106e6565b92915050565b5f819050919050565b61072281610710565b811461072c575f5ffd5b50565b5f8151905061073d81610719565b92915050565b5f5f5f5f5f5f5f5f5f5f5f6101608c8e031215610763576107626106b2565b5b5f6107708e828f016106fc565b9b505060206107818e828f016106fc565b9a505060406107928e828f0161072f565b99505060606107a38e828f0161072f565b98505060806107b48e828f0161072f565b97505060a06107c58e828f0161072f565b96505060c06107d68e828f0161072f565b95505060e06107e78e828f0161072f565b9450506101006107f98e828f0161072f565b93505061012061080b8e828f0161072f565b92505061014061081d8e828f016106fc565b9150509295989b509295989b9093969950565b5f82825260208201905092915050565b7f546f6b656e2061646472657373206973207a65726f00000000000000000000005f82015250565b5f610874601583610830565b915061087f82610840565b602082019050919050565b5f6020820190508181035f8301526108a181610868565b9050919050565b7f57616c6c65742061646472657373206973207a65726f000000000000000000005f82015250565b5f6108dc601683610830565b91506108e7826108a8565b602082019050919050565b5f6020820190508181035f830152610909816108d0565b9050919050565b7f52617465206973207a65726f00000000000000000000000000000000000000005f82015250565b5f610944600c83610830565b915061094f82610910565b602082019050919050565b5f6020820190508181035f83015261097181610938565b9050919050565b7f536f667420636170206973207a65726f000000000000000000000000000000005f82015250565b5f6109ac601083610830565b91506109b782610978565b602082019050919050565b5f6020820190508181035f8301526109d9816109a0565b9050919050565b7f4861726420636170206973207a65726f000000000000000000000000000000005f82015250565b5f610a14601083610830565b9150610a1f826109e0565b602082019050919050565b5f6020820190508181035f830152610a4181610a08565b9050919050565b7f536f6674206361702065786365656473206861726420636170000000000000005f82015250565b5f610a7c601983610830565b9150610a8782610a48565b602082019050919050565b5f6020820190508181035f830152610aa981610a70565b9050919050565b7f4f70656e696e67206265666f7265206e6f7700000000000000000000000000005f82015250565b5f610ae4601283610830565b9150610aef82610ab0565b602082019050919050565b5f6020820190508181035f830152610b1181610ad8565b9050919050565b7f436c6f73696e67206265666f7265206f70656e696e67000000000000000000005f82015250565b5f610b4c601683610830565b9150610b5782610b18565b602082019050919050565b5f6020820190508181035f830152610b7981610b40565b9050919050565b7f4d696e20636f6e747269627574696f6e206973207a65726f00000000000000005f82015250565b5f610bb4601883610830565b9150610bbf82610b80565b602082019050919050565b5f6020820190508181035f830152610be181610ba8565b9050919050565b7f4d617820636f6e747269627574696f6e206973207a65726f00000000000000005f82015250565b5f610c1c601883610830565b9150610c2782610be8565b602082019050919050565b5f6020820190508181035f830152610c4981610c10565b9050919050565b7f4d696e203e204d617800000000000000000000000000000000000000000000005f82015250565b5f610c84600983610830565b9150610c8f82610c50565b602082019050919050565b5f6020820190508181035f830152610cb181610c78565b9050919050565b7f54474520627073203e20313030303000000000000000000000000000000000005f82015250565b5f610cec600f83610830565b9150610cf782610cb8565b602082019050919050565b5f6020820190508181035f830152610d1981610ce0565b9050919050565b7f41646d696e2061646472657373206973207a65726f00000000000000000000005f82015250565b5f610d54601583610830565b9150610d5f82610d20565b602082019050919050565b5f6020820190508181035f830152610d8181610d48565b9050919050565b60805160a05160c05160e051612b85610dec5f395f8181611165015281816114370152611da501525f8181610d930152818161151201528181611b3a0152611dc901525f8181610e7a0152610fdc01525f81816112680152611ded0152612b855ff3fe608060405260043610610249575f3560e01c8063995c5e9d11610138578063c4590d3f116100b5578063eb3b3fe611610079578063eb3b3fe61461087c578063ec8ac4d8146108a4578063f43e98c7146108c0578063f49e2514146108ea578063fb86a40414610914578063fc0c546a1461093e57610289565b8063c4590d3f146107c4578063d547741f146107ec578063deaa59df14610814578063e086e5ec1461083c578063e63ab1e91461085257610289565b8063b0178f3d116100fc578063b0178f3d146106ce578063b3f05b971461070a578063b7a8807c14610734578063be68d17a1461075e578063c2b6b58c1461079a57610289565b8063995c5e9d146105fe5780639b8c1fed1461063a578063a217fddf14610650578063a4d19feb1461067a578063aaffadf3146106a457610289565b806347535d7b116101c65780635c975abb1161018a5780635c975abb1461052e5780638456cb59146105585780638d3d65761461056e578063906a26e01461059857806391d14854146105c257610289565b806347535d7b146104705780634b6753bc1461049a5780634bb278f3146104c4578063518ab2a8146104da578063521eb2731461050457610289565b806336568abe1161020d57806336568abe146103b65780633a45e6fd146103de5780633f4ba83a146103f45780634042b66f1461040a5780634225e5bb1461043457610289565b806301ffc9a7146102c4578063248a9ca3146103005780632c4e722e1461033c5780632f2ff15d1461036657806334fcf4371461038e57610289565b36610289576040517f08c379a0000000000000000000000000000000000000000000000000000000008152600401610280906122a2565b60405180910390fd5b6040517f08c379a00000000000000000000000000000000000000000000000000000000081526004016102bb9061230a565b60405180910390fd5b3480156102cf575f5ffd5b506102ea60048036038101906102e59190612381565b610968565b6040516102f791906123c6565b60405180910390f35b34801561030b575f5ffd5b5061032660048036038101906103219190612412565b6109e1565b604051610333919061244c565b60405180910390f35b348015610347575f5ffd5b506103506109fe565b60405161035d919061247d565b60405180910390f35b348015610371575f5ffd5b5061038c600480360381019061038791906124f0565b610a04565b005b348015610399575f5ffd5b506103b460048036038101906103af9190612558565b610a26565b005b3480156103c1575f5ffd5b506103dc60048036038101906103d791906124f0565b610a96565b005b3480156103e9575f5ffd5b506103f2610b11565b005b3480156103ff575f5ffd5b50610408610d25565b005b348015610415575f5ffd5b5061041e610d5a565b60405161042b919061247d565b60405180910390f35b34801561043f575f5ffd5b5061045a60048036038101906104559190612583565b610d60565b604051610467919061247d565b60405180910390f35b34801561047b575f5ffd5b50610484610d75565b60405161049191906123c6565b60405180910390f35b3480156104a5575f5ffd5b506104ae610dd4565b6040516104bb919061247d565b60405180910390f35b3480156104cf575f5ffd5b506104d8610dda565b005b3480156104e5575f5ffd5b506104ee610f5f565b6040516104fb919061247d565b60405180910390f35b34801561050f575f5ffd5b50610518610f65565b60405161052591906125bd565b60405180910390f35b348015610539575f5ffd5b50610542610f8a565b60405161054f91906123c6565b60405180910390f35b348015610563575f5ffd5b5061056c610f9f565b005b348015610579575f5ffd5b50610582610fd4565b60405161058f919061247d565b60405180910390f35b3480156105a3575f5ffd5b506105ac610fda565b6040516105b9919061247d565b60405180910390f35b3480156105cd575f5ffd5b506105e860048036038101906105e391906124f0565b610ffe565b6040516105f591906123c6565b60405180910390f35b348015610609575f5ffd5b50610624600480360381019061061f9190612583565b611062565b604051610631919061247d565b60405180910390f35b348015610645575f5ffd5b5061064e611077565b005b34801561065b575f5ffd5b5061066461137b565b604051610671919061244c565b60405180910390f35b348015610685575f5ffd5b5061068e611381565b60405161069b919061244c565b60405180910390f35b3480156106af575f5ffd5b506106b86113a5565b6040516106c5919061247d565b60405180910390f35b3480156106d9575f5ffd5b506106f460048036038101906106ef9190612583565b6113ab565b604051610701919061247d565b60405180910390f35b348015610715575f5ffd5b5061071e6114d7565b60405161072b91906123c6565b60405180910390f35b34801561073f575f5ffd5b506107486114e9565b604051610755919061247d565b60405180910390f35b348015610769575f5ffd5b50610784600480360381019061077f9190612583565b6114ef565b604051610791919061247d565b60405180910390f35b3480156107a5575f5ffd5b506107ae611504565b6040516107bb91906123c6565b60405180910390f35b3480156107cf575f5ffd5b506107ea60048036038101906107e591906125d6565b611552565b005b3480156107f7575f5ffd5b50610812600480360381019061080d91906124f0565b611621565b005b34801561081f575f5ffd5b5061083a60048036038101906108359190612583565b611643565b005b348015610847575f5ffd5b50610850611770565b005b34801561085d575f5ffd5b506108666118da565b604051610873919061244c565b60405180910390f35b348015610887575f5ffd5b506108a2600480360381019061089d9190612651565b6118fe565b005b6108be60048036038101906108b99190612583565b6119de565b005b3480156108cb575f5ffd5b506108d4611d90565b6040516108e191906123c6565b60405180910390f35b3480156108f5575f5ffd5b506108fe611da3565b60405161090b919061247d565b60405180910390f35b34801561091f575f5ffd5b50610928611dc7565b604051610935919061247d565b60405180910390f35b348015610949575f5ffd5b50610952611deb565b60405161095f91906126ea565b60405180910390f35b5f7f7965db0b000000000000000000000000000000000000000000000000000000007bffffffffffffffffffffffffffffffffffffffffffffffffffffffff1916827bffffffffffffffffffffffffffffffffffffffffffffffffffffffff191614806109da57506109d982611e0f565b5b9050919050565b5f60025f8381526020019081526020015f20600101549050919050565b60045481565b610a0d826109e1565b610a1681611e78565b610a208383611e8c565b50505050565b7f82db594318110a04b6349ce48645aa69f0892751bc893d15e61d9e2b9c4630f5610a5081611e78565b7fb38780ddde1f073d91c150de2696f3f7085883648ba21cc5ef01029cb21d191660045483604051610a83929190612703565b60405180910390a1816004819055505050565b610a9e611f76565b73ffffffffffffffffffffffffffffffffffffffff168173ffffffffffffffffffffffffffffffffffffffff1614610b02576040517f6697b23200000000000000000000000000000000000000000000000000000000815260040160405180910390fd5b610b0c8282611f7d565b505050565b610b19612067565b610b216120ab565b600e60019054906101000a900460ff16610b67576040517f64547e6900000000000000000000000000000000000000000000000000000000815260040160405180910390fd5b5f600b5f3373ffffffffffffffffffffffffffffffffffffffff1673ffffffffffffffffffffffffffffffffffffffff1681526020019081526020015f205490505f8103610be1576040517f969bf72800000000000000000000000000000000000000000000000000000000815260040160405180910390fd5b5f600b5f3373ffffffffffffffffffffffffffffffffffffffff1673ffffffffffffffffffffffffffffffffffffffff1681526020019081526020015f20819055505f3373ffffffffffffffffffffffffffffffffffffffff1682604051610c4890612757565b5f6040518083038185875af1925050503d805f8114610c82576040519150601f19603f3d011682016040523d82523d5f602084013e610c87565b606091505b5050905080610ccb576040517f08c379a0000000000000000000000000000000000000000000000000000000008152600401610cc2906127b5565b60405180910390fd5b3373ffffffffffffffffffffffffffffffffffffffff167fd7dee2702d63ad89917b6a4da9981c90c4d24f8c2bdfd64c604ecae57d8d065183604051610d11919061247d565b60405180910390a25050610d236120ec565b565b7f65d7a28e3265b37a6474929f336521b332c1681b933f6cb9f3376673440d862a610d4f81611e78565b610d576120f5565b50565b60095481565b600c602052805f5260405f205f915090505481565b5f6005544210158015610d8a57506006544211155b8015610db757507f0000000000000000000000000000000000000000000000000000000000000000600954105b8015610dcf5750600e5f9054906101000a900460ff16155b905090565b60065481565b610de2611504565b610e18576040517f78fa807700000000000000000000000000000000000000000000000000000000815260040160405180910390fd5b600e5f9054906101000a900460ff1615610e5e576040517f475a253500000000000000000000000000000000000000000000000000000000815260040160405180910390fd5b6001600e5f6101000a81548160ff0219169083151502179055507f000000000000000000000000000000000000000000000000000000000000000060095410610ede577f41493253ae80c9f89e25283c36f67849365d0515134ce43de1314223cb6f73426001604051610ed191906123c6565b60405180910390a1610f5d565b6001600e60016101000a81548160ff0219169083151502179055507f599d8e5a83cffb867d051598c4d70e805d59802d8081c1c7d6dffc5b6aca2b8960405160405180910390a17f41493253ae80c9f89e25283c36f67849365d0515134ce43de1314223cb6f73425f604051610f5491906123c6565b60405180910390a15b565b600a5481565b60035f9054906101000a900473ffffffffffffffffffffffffffffffffffffffff1681565b5f60015f9054906101000a900460ff16905090565b7f65d7a28e3265b37a6474929f336521b332c1681b933f6cb9f3376673440d862a610fc981611e78565b610fd1612156565b50565b60085481565b7f000000000000000000000000000000000000000000000000000000000000000081565b5f60025f8481526020019081526020015f205f015f8373ffffffffffffffffffffffffffffffffffffffff1673ffffffffffffffffffffffffffffffffffffffff1681526020019081526020015f205f9054906101000a900460ff16905092915050565b600b602052805f5260405f205f915090505481565b61107f612067565b6110876120ab565b600e5f9054906101000a900460ff1615806110ae5750600e60019054906101000a900460ff165b156110e5576040517f2bdc91ad00000000000000000000000000000000000000000000000000000000815260040160405180910390fd5b5f600c5f3373ffffffffffffffffffffffffffffffffffffffff1673ffffffffffffffffffffffffffffffffffffffff1681526020019081526020015f205490505f810361115f576040517f969bf72800000000000000000000000000000000000000000000000000000000815260040160405180910390fd5b5f6127107f00000000000000000000000000000000000000000000000000000000000000008361118f9190612800565b611199919061286e565b90505f600d5f3373ffffffffffffffffffffffffffffffffffffffff1673ffffffffffffffffffffffffffffffffffffffff1681526020019081526020015f20549050808211611215576040517f969bf72800000000000000000000000000000000000000000000000000000000815260040160405180910390fd5b5f8183611222919061289e565b905082600d5f3373ffffffffffffffffffffffffffffffffffffffff1673ffffffffffffffffffffffffffffffffffffffff1681526020019081526020015f20819055507f000000000000000000000000000000000000000000000000000000000000000073ffffffffffffffffffffffffffffffffffffffff166340c10f1933836040518363ffffffff1660e01b81526004016112c19291906128d1565b5f604051808303815f87803b1580156112d8575f5ffd5b505af19250505080156112e9575060015b61131f576040517f07637bd800000000000000000000000000000000000000000000000000000000815260040160405180910390fd5b3373ffffffffffffffffffffffffffffffffffffffff167f9d9f91c7e63ecab055ab1ecb358d2e74e46aa0e4c65f9594aa73e56cfb5d0a4782604051611365919061247d565b60405180910390a2505050506113796120ec565b565b5f5f1b81565b7f82db594318110a04b6349ce48645aa69f0892751bc893d15e61d9e2b9c4630f581565b60075481565b5f600e5f9054906101000a900460ff1615806113d35750600e60019054906101000a900460ff165b156113e0575f90506114d2565b5f600c5f8473ffffffffffffffffffffffffffffffffffffffff1673ffffffffffffffffffffffffffffffffffffffff1681526020019081526020015f205490505f8103611431575f9150506114d2565b5f6127107f0000000000000000000000000000000000000000000000000000000000000000836114619190612800565b61146b919061286e565b90505f600d5f8673ffffffffffffffffffffffffffffffffffffffff1673ffffffffffffffffffffffffffffffffffffffff1681526020019081526020015f205490508082116114c0575f93505050506114d2565b80826114cc919061289e565b93505050505b919050565b600e5f9054906101000a900460ff1681565b60055481565b600d602052805f5260405f205f915090505481565b5f60065442118061153757507f000000000000000000000000000000000000000000000000000000000000000060095410155b8061154d5750600e5f9054906101000a900460ff165b905090565b7f82db594318110a04b6349ce48645aa69f0892751bc893d15e61d9e2b9c4630f561157c81611e78565b5f8311801561158a57505f82115b80156115965750818311155b6115d5576040517f08c379a00000000000000000000000000000000000000000000000000000000081526004016115cc90612942565b60405180910390fd5b7f4d4981437d0211f9e6843eb024d9ada1fa3a99514d4343d4aece106dd11524bb8383604051611606929190612703565b60405180910390a18260078190555081600881905550505050565b61162a826109e1565b61163381611e78565b61163d8383611f7d565b50505050565b7f82db594318110a04b6349ce48645aa69f0892751bc893d15e61d9e2b9c4630f561166d81611e78565b5f73ffffffffffffffffffffffffffffffffffffffff168273ffffffffffffffffffffffffffffffffffffffff16036116d2576040517fd92e233d00000000000000000000000000000000000000000000000000000000815260040160405180910390fd5b7f0f37c6733428a3a65d46b7f1853a5ce4bfa3cf92d25322507a50bf23a0b5a0a860035f9054906101000a900473ffffffffffffffffffffffffffffffffffffffff1683604051611724929190612960565b60405180910390a18160035f6101000a81548173ffffffffffffffffffffffffffffffffffffffff021916908373ffffffffffffffffffffffffffffffffffffffff1602179055505050565b611778612067565b7f82db594318110a04b6349ce48645aa69f0892751bc893d15e61d9e2b9c4630f56117a281611e78565b600e5f9054906101000a900460ff1615806117c95750600e60019054906101000a900460ff165b15611800576040517f2bdc91ad00000000000000000000000000000000000000000000000000000000815260040160405180910390fd5b5f4790505f60035f9054906101000a900473ffffffffffffffffffffffffffffffffffffffff1673ffffffffffffffffffffffffffffffffffffffff168260405161184a90612757565b5f6040518083038185875af1925050503d805f8114611884576040519150601f19603f3d011682016040523d82523d5f602084013e611889565b606091505b50509050806118cd576040517f08c379a00000000000000000000000000000000000000000000000000000000081526004016118c4906129d1565b60405180910390fd5b5050506118d86120ec565b565b7f65d7a28e3265b37a6474929f336521b332c1681b933f6cb9f3376673440d862a81565b7f82db594318110a04b6349ce48645aa69f0892751bc893d15e61d9e2b9c4630f561192881611e78565b8167ffffffffffffffff168367ffffffffffffffff161061197e576040517f08c379a000000000000000000000000000000000000000000000000000000000815260040161197590612a39565b60405180910390fd5b7f114f2c213e3ab7c4e4e09d28a2efed89fe0c35a82be187299e8bb20e1b75576883836040516119af929190612a66565b60405180910390a18267ffffffffffffffff166005819055508167ffffffffffffffff16600681905550505050565b6119e6612067565b6119ee6120ab565b3373ffffffffffffffffffffffffffffffffffffffff168173ffffffffffffffffffffffffffffffffffffffff1614611a5c576040517f08c379a0000000000000000000000000000000000000000000000000000000008152600401611a5390612ad7565b60405180910390fd5b611a64610d75565b611a9a576040517f445dce4c00000000000000000000000000000000000000000000000000000000815260040160405180910390fd5b5f73ffffffffffffffffffffffffffffffffffffffff168173ffffffffffffffffffffffffffffffffffffffff1603611aff576040517fd92e233d00000000000000000000000000000000000000000000000000000000815260040160405180910390fd5b5f3403611b38576040517f8d8f5cdc00000000000000000000000000000000000000000000000000000000815260040160405180910390fd5b7f000000000000000000000000000000000000000000000000000000000000000034600954611b679190612af5565b1115611b9f576040517fa4875a4900000000000000000000000000000000000000000000000000000000815260040160405180910390fd5b5f34600b5f3373ffffffffffffffffffffffffffffffffffffffff1673ffffffffffffffffffffffffffffffffffffffff1681526020019081526020015f2054611be99190612af5565b9050600754811080611bfc575060085481115b15611c33576040517f8d8f5cdc00000000000000000000000000000000000000000000000000000000815260040160405180910390fd5b5f670de0b6b3a764000060045434611c4b9190612800565b611c55919061286e565b90503460095f828254611c689190612af5565b9250508190555080600a5f828254611c809190612af5565b9250508190555081600b5f3373ffffffffffffffffffffffffffffffffffffffff1673ffffffffffffffffffffffffffffffffffffffff1681526020019081526020015f208190555080600c5f8573ffffffffffffffffffffffffffffffffffffffff1673ffffffffffffffffffffffffffffffffffffffff1681526020019081526020015f205f828254611d159190612af5565b925050819055508273ffffffffffffffffffffffffffffffffffffffff163373ffffffffffffffffffffffffffffffffffffffff167f6faf93231a456e552dbc9961f58d9713ee4f2e69d15f1975b050ef0911053a7b3484604051611d7b929190612703565b60405180910390a35050611d8d6120ec565b50565b600e60019054906101000a900460ff1681565b7f000000000000000000000000000000000000000000000000000000000000000081565b7f000000000000000000000000000000000000000000000000000000000000000081565b7f000000000000000000000000000000000000000000000000000000000000000081565b5f7f01ffc9a7000000000000000000000000000000000000000000000000000000007bffffffffffffffffffffffffffffffffffffffffffffffffffffffff1916827bffffffffffffffffffffffffffffffffffffffffffffffffffffffff1916149050919050565b611e8981611e84611f76565b6121b7565b50565b5f611e978383610ffe565b611f6c57600160025f8581526020019081526020015f205f015f8473ffffffffffffffffffffffffffffffffffffffff1673ffffffffffffffffffffffffffffffffffffffff1681526020019081526020015f205f6101000a81548160ff021916908315150217905550611f09611f76565b73ffffffffffffffffffffffffffffffffffffffff168273ffffffffffffffffffffffffffffffffffffffff16847f2f8788117e7eff1d82e926ec794901d17c78024a50270940304540a733656f0d60405160405180910390a460019050611f70565b5f90505b92915050565b5f33905090565b5f611f888383610ffe565b1561205d575f60025f8581526020019081526020015f205f015f8473ffffffffffffffffffffffffffffffffffffffff1673ffffffffffffffffffffffffffffffffffffffff1681526020019081526020015f205f6101000a81548160ff021916908315150217905550611ffa611f76565b73ffffffffffffffffffffffffffffffffffffffff168273ffffffffffffffffffffffffffffffffffffffff16847ff6391f5c32d9c69d2a47ea670b442974b53935d1edc7fd64eb21e047a839171b60405160405180910390a460019050612061565b5f90505b92915050565b60025f54036120a2576040517f3ee5aeb500000000000000000000000000000000000000000000000000000000815260040160405180910390fd5b60025f81905550565b6120b3610f8a565b156120ea576040517fd93c066500000000000000000000000000000000000000000000000000000000815260040160405180910390fd5b565b60015f81905550565b6120fd612208565b5f60015f6101000a81548160ff0219169083151502179055507f5db9ee0a495bf2e6ff9c91a7834c1ba4fdd244a5e8aa4e537bd38aeae4b073aa61213f611f76565b60405161214c91906125bd565b60405180910390a1565b61215e6120ab565b6001805f6101000a81548160ff0219169083151502179055507f62e78cea01bee320cd4e420270b5ea74000d11b0c9f74754ebdbfc544b05a2586121a0611f76565b6040516121ad91906125bd565b60405180910390a1565b6121c18282610ffe565b6122045780826040517fe2517d3f0000000000000000000000000000000000000000000000000000000081526004016121fb929190612b28565b60405180910390fd5b5050565b612210610f8a565b612246576040517f8dfc202b00000000000000000000000000000000000000000000000000000000815260040160405180910390fd5b565b5f82825260208201905092915050565b7f55736520627579546f6b656e73282900000000000000000000000000000000005f82015250565b5f61228c600f83612248565b915061229782612258565b602082019050919050565b5f6020820190508181035f8301526122b981612280565b9050919050565b7f496e76616c69642063616c6c00000000000000000000000000000000000000005f82015250565b5f6122f4600c83612248565b91506122ff826122c0565b602082019050919050565b5f6020820190508181035f830152612321816122e8565b9050919050565b5f5ffd5b5f7fffffffff0000000000000000000000000000000000000000000000000000000082169050919050565b6123608161232c565b811461236a575f5ffd5b50565b5f8135905061237b81612357565b92915050565b5f6020828403121561239657612395612328565b5b5f6123a38482850161236d565b91505092915050565b5f8115159050919050565b6123c0816123ac565b82525050565b5f6020820190506123d95f8301846123b7565b92915050565b5f819050919050565b6123f1816123df565b81146123fb575f5ffd5b50565b5f8135905061240c816123e8565b92915050565b5f6020828403121561242757612426612328565b5b5f612434848285016123fe565b91505092915050565b612446816123df565b82525050565b5f60208201905061245f5f83018461243d565b92915050565b5f819050919050565b61247781612465565b82525050565b5f6020820190506124905f83018461246e565b92915050565b5f73ffffffffffffffffffffffffffffffffffffffff82169050919050565b5f6124bf82612496565b9050919050565b6124cf816124b5565b81146124d9575f5ffd5b50565b5f813590506124ea816124c6565b92915050565b5f5f6040838503121561250657612505612328565b5b5f612513858286016123fe565b9250506020612524858286016124dc565b9150509250929050565b61253781612465565b8114612541575f5ffd5b50565b5f813590506125528161252e565b92915050565b5f6020828403121561256d5761256c612328565b5b5f61257a84828501612544565b91505092915050565b5f6020828403121561259857612597612328565b5b5f6125a5848285016124dc565b91505092915050565b6125b7816124b5565b82525050565b5f6020820190506125d05f8301846125ae565b92915050565b5f5f604083850312156125ec576125eb612328565b5b5f6125f985828601612544565b925050602061260a85828601612544565b9150509250929050565b5f67ffffffffffffffff82169050919050565b61263081612614565b811461263a575f5ffd5b50565b5f8135905061264b81612627565b92915050565b5f5f6040838503121561266757612666612328565b5b5f6126748582860161263d565b92505060206126858582860161263d565b9150509250929050565b5f819050919050565b5f6126b26126ad6126a884612496565b61268f565b612496565b9050919050565b5f6126c382612698565b9050919050565b5f6126d4826126b9565b9050919050565b6126e4816126ca565b82525050565b5f6020820190506126fd5f8301846126db565b92915050565b5f6040820190506127165f83018561246e565b612723602083018461246e565b9392505050565b5f81905092915050565b50565b5f6127425f8361272a565b915061274d82612734565b5f82019050919050565b5f61276182612737565b9150819050919050565b7f526566756e64207472616e73666572206661696c6564000000000000000000005f82015250565b5f61279f601683612248565b91506127aa8261276b565b602082019050919050565b5f6020820190508181035f8301526127cc81612793565b9050919050565b7f4e487b71000000000000000000000000000000000000000000000000000000005f52601160045260245ffd5b5f61280a82612465565b915061281583612465565b925082820261282381612465565b9150828204841483151761283a576128396127d3565b5b5092915050565b7f4e487b71000000000000000000000000000000000000000000000000000000005f52601260045260245ffd5b5f61287882612465565b915061288383612465565b92508261289357612892612841565b5b828204905092915050565b5f6128a882612465565b91506128b383612465565b92508282039050818111156128cb576128ca6127d3565b5b92915050565b5f6040820190506128e45f8301856125ae565b6128f1602083018461246e565b9392505050565b7f6c696d69747300000000000000000000000000000000000000000000000000005f82015250565b5f61292c600683612248565b9150612937826128f8565b602082019050919050565b5f6020820190508181035f83015261295981612920565b9050919050565b5f6040820190506129735f8301856125ae565b61298060208301846125ae565b9392505050565b7f5769746864726177206661696c656400000000000000000000000000000000005f82015250565b5f6129bb600f83612248565b91506129c682612987565b602082019050919050565b5f6020820190508181035f8301526129e8816129af565b9050919050565b7f74696d65000000000000000000000000000000000000000000000000000000005f82015250565b5f612a23600483612248565b9150612a2e826129ef565b602082019050919050565b5f6020820190508181035f830152612a5081612a17565b9050919050565b612a6081612614565b82525050565b5f604082019050612a795f830185612a57565b612a866020830184612a57565b9392505050565b7f4f6e6c792073656c662d627579000000000000000000000000000000000000005f82015250565b5f612ac1600d83612248565b9150612acc82612a8d565b602082019050919050565b5f6020820190508181035f830152612aee81612ab5565b9050919050565b5f612aff82612465565b9150612b0a83612465565b9250828201905080821115612b2257612b216127d3565b5b92915050565b5f604082019050612b3b5f8301856125ae565b612b48602083018461243d565b939250505056fea2646970667358221220f2ecc57261d879a52a94b49eaa2b66187cd54e24e2c4661b977b33b1d744d28364736f6c634300081e0033",
					"opcodes": "PUSH2 0x100 PUSH1 0x40 MSTORE CALLVALUE DUP1 ISZERO PUSH2 0x10 JUMPI PUSH0 PUSH0 REVERT JUMPDEST POP PUSH1 0x40 MLOAD PUSH2 0x3971 CODESIZE SUB DUP1 PUSH2 0x3971 DUP4 CODECOPY DUP2 DUP2 ADD PUSH1 0x40 MSTORE DUP2 ADD SWAP1 PUSH2 0x32 SWAP2 SWAP1 PUSH2 0x743 JUMP JUMPDEST PUSH1 0x1 PUSH0 DUP2 SWAP1 SSTORE POP PUSH0 PUSH20 0xFFFFFFFFFFFFFFFFFFFFFFFFFFFFFFFFFFFFFFFF AND DUP12 PUSH20 0xFFFFFFFFFFFFFFFFFFFFFFFFFFFFFFFFFFFFFFFF AND SUB PUSH2 0xA7 JUMPI PUSH1 0x40 MLOAD PUSH32 0x8C379A000000000000000000000000000000000000000000000000000000000 DUP2 MSTORE PUSH1 0x4 ADD PUSH2 0x9E SWAP1 PUSH2 0x88A JUMP JUMPDEST PUSH1 0x40 MLOAD DUP1 SWAP2 SUB SWAP1 REVERT JUMPDEST PUSH0 PUSH20 0xFFFFFFFFFFFFFFFFFFFFFFFFFFFFFFFFFFFFFFFF AND DUP11 PUSH20 0xFFFFFFFFFFFFFFFFFFFFFFFFFFFFFFFFFFFFFFFF AND SUB PUSH2 0x115 JUMPI PUSH1 0x40 MLOAD PUSH32 0x8C379A000000000000000000000000000000000000000000000000000000000 DUP2 MSTORE PUSH1 0x4 ADD PUSH2 0x10C SWAP1 PUSH2 0x8F2 JUMP JUMPDEST PUSH1 0x40 MLOAD DUP1 SWAP2 SUB SWAP1 REVERT JUMPDEST PUSH0 DUP10 GT PUSH2 0x157 JUMPI PUSH1 0x40 MLOAD PUSH32 0x8C379A000000000000000000000000000000000000000000000000000000000 DUP2 MSTORE PUSH1 0x4 ADD PUSH2 0x14E SWAP1 PUSH2 0x95A JUMP JUMPDEST PUSH1 0x40 MLOAD DUP1 SWAP2 SUB SWAP1 REVERT JUMPDEST PUSH0 DUP9 GT PUSH2 0x199 JUMPI PUSH1 0x40 MLOAD PUSH32 0x8C379A000000000000000000000000000000000000000000000000000000000 DUP2 MSTORE PUSH1 0x4 ADD PUSH2 0x190 SWAP1 PUSH2 0x9C2 JUMP JUMPDEST PUSH1 0x40 MLOAD DUP1 SWAP2 SUB SWAP1 REVERT JUMPDEST PUSH0 DUP8 GT PUSH2 0x1DB JUMPI PUSH1 0x40 MLOAD PUSH32 0x8C379A000000000000000000000000000000000000000000000000000000000 DUP2 MSTORE PUSH1 0x4 ADD PUSH2 0x1D2 SWAP1 PUSH2 0xA2A JUMP JUMPDEST PUSH1 0x40 MLOAD DUP1 SWAP2 SUB SWAP1 REVERT JUMPDEST DUP7 DUP9 GT ISZERO PUSH2 0x21E JUMPI PUSH1 0x40 MLOAD PUSH32 0x8C379A000000000000000000000000000000000000000000000000000000000 DUP2 MSTORE PUSH1 0x4 ADD PUSH2 0x215 SWAP1 PUSH2 0xA92 JUMP JUMPDEST PUSH1 0x40 MLOAD DUP1 SWAP2 SUB SWAP1 REVERT JUMPDEST TIMESTAMP DUP7 LT ISZERO PUSH2 0x261 JUMPI PUSH1 0x40 MLOAD PUSH32 0x8C379A000000000000000000000000000000000000000000000000000000000 DUP2 MSTORE PUSH1 0x4 ADD PUSH2 0x258 SWAP1 PUSH2 0xAFA JUMP JUMPDEST PUSH1 0x40 MLOAD DUP1 SWAP2 SUB SWAP1 REVERT JUMPDEST DUP6 DUP6 GT PUSH2 0x2A3 JUMPI PUSH1 0x40 MLOAD PUSH32 0x8C379A000000000000000000000000000000000000000000000000000000000 DUP2 MSTORE PUSH1 0x4 ADD PUSH2 0x29A SWAP1 PUSH2 0xB62 JUMP JUMPDEST PUSH1 0x40 MLOAD DUP1 SWAP2 SUB SWAP1 REVERT JUMPDEST PUSH0 DUP5 GT PUSH2 0x2E5 JUMPI PUSH1 0x40 MLOAD PUSH32 0x8C379A000000000000000000000000000000000000000000000000000000000 DUP2 MSTORE PUSH1 0x4 ADD PUSH2 0x2DC SWAP1 PUSH2 0xBCA JUMP JUMPDEST PUSH1 0x40 MLOAD DUP1 SWAP2 SUB SWAP1 REVERT JUMPDEST PUSH0 DUP4 GT PUSH2 0x327 JUMPI PUSH1 0x40 MLOAD PUSH32 0x8C379A000000000000000000000000000000000000000000000000000000000 DUP2 MSTORE PUSH1 0x4 ADD PUSH2 0x31E SWAP1 PUSH2 0xC32 JUMP JUMPDEST PUSH1 0x40 MLOAD DUP1 SWAP2 SUB SWAP1 REVERT JUMPDEST DUP3 DUP5 GT ISZERO PUSH2 0x36A JUMPI PUSH1 0x40 MLOAD PUSH32 0x8C379A000000000000000000000000000000000000000000000000000000000 DUP2 MSTORE PUSH1 0x4 ADD PUSH2 0x361 SWAP1 PUSH2 0xC9A JUMP JUMPDEST PUSH1 0x40 MLOAD DUP1 SWAP2 SUB SWAP1 REVERT JUMPDEST PUSH2 0x2710 DUP3 GT ISZERO PUSH2 0x3AF JUMPI PUSH1 0x40 MLOAD PUSH32 0x8C379A000000000000000000000000000000000000000000000000000000000 DUP2 MSTORE PUSH1 0x4 ADD PUSH2 0x3A6 SWAP1 PUSH2 0xD02 JUMP JUMPDEST PUSH1 0x40 MLOAD DUP1 SWAP2 SUB SWAP1 REVERT JUMPDEST PUSH0 PUSH20 0xFFFFFFFFFFFFFFFFFFFFFFFFFFFFFFFFFFFFFFFF AND DUP2 PUSH20 0xFFFFFFFFFFFFFFFFFFFFFFFFFFFFFFFFFFFFFFFF AND SUB PUSH2 0x41D JUMPI PUSH1 0x40 MLOAD PUSH32 0x8C379A000000000000000000000000000000000000000000000000000000000 DUP2 MSTORE PUSH1 0x4 ADD PUSH2 0x414 SWAP1 PUSH2 0xD6A JUMP JUMPDEST PUSH1 0x40 MLOAD DUP1 SWAP2 SUB SWAP1 REVERT JUMPDEST DUP11 PUSH20 0xFFFFFFFFFFFFFFFFFFFFFFFFFFFFFFFFFFFFFFFF AND PUSH1 0x80 DUP2 PUSH20 0xFFFFFFFFFFFFFFFFFFFFFFFFFFFFFFFFFFFFFFFF AND DUP2 MSTORE POP POP DUP10 PUSH1 0x3 PUSH0 PUSH2 0x100 EXP DUP2 SLOAD DUP2 PUSH20 0xFFFFFFFFFFFFFFFFFFFFFFFFFFFFFFFFFFFFFFFF MUL NOT AND SWAP1 DUP4 PUSH20 0xFFFFFFFFFFFFFFFFFFFFFFFFFFFFFFFFFFFFFFFF AND MUL OR SWAP1 SSTORE POP DUP9 PUSH1 0x4 DUP2 SWAP1 SSTORE POP DUP8 PUSH1 0xA0 DUP2 DUP2 MSTORE POP POP DUP7 PUSH1 0xC0 DUP2 DUP2 MSTORE POP POP DUP6 PUSH1 0x5 DUP2 SWAP1 SSTORE POP DUP5 PUSH1 0x6 DUP2 SWAP1 SSTORE POP DUP4 PUSH1 0x7 DUP2 SWAP1 SSTORE POP DUP3 PUSH1 0x8 DUP2 SWAP1 SSTORE POP DUP2 PUSH1 0xE0 DUP2 DUP2 MSTORE POP POP PUSH2 0x4DE PUSH0 PUSH0 SHL DUP3 PUSH2 0x551 PUSH1 0x20 SHL PUSH1 0x20 SHR JUMP JUMPDEST POP PUSH2 0x50F PUSH32 0x65D7A28E3265B37A6474929F336521B332C1681B933F6CB9F3376673440D862A DUP3 PUSH2 0x551 PUSH1 0x20 SHL PUSH1 0x20 SHR JUMP JUMPDEST POP PUSH2 0x540 PUSH32 0x82DB594318110A04B6349CE48645AA69F0892751BC893D15E61D9E2B9C4630F5 DUP3 PUSH2 0x551 PUSH1 0x20 SHL PUSH1 0x20 SHR JUMP JUMPDEST POP POP POP POP POP POP POP POP POP POP POP POP PUSH2 0xD88 JUMP JUMPDEST PUSH0 PUSH2 0x562 DUP4 DUP4 PUSH2 0x647 PUSH1 0x20 SHL PUSH1 0x20 SHR JUMP JUMPDEST PUSH2 0x63D JUMPI PUSH1 0x1 PUSH1 0x2 PUSH0 DUP6 DUP2 MSTORE PUSH1 0x20 ADD SWAP1 DUP2 MSTORE PUSH1 0x20 ADD PUSH0 KECCAK256 PUSH0 ADD PUSH0 DUP5 PUSH20 0xFFFFFFFFFFFFFFFFFFFFFFFFFFFFFFFFFFFFFFFF AND PUSH20 0xFFFFFFFFFFFFFFFFFFFFFFFFFFFFFFFFFFFFFFFF AND DUP2 MSTORE PUSH1 0x20 ADD SWAP1 DUP2 MSTORE PUSH1 0x20 ADD PUSH0 KECCAK256 PUSH0 PUSH2 0x100 EXP DUP2 SLOAD DUP2 PUSH1 0xFF MUL NOT AND SWAP1 DUP4 ISZERO ISZERO MUL OR SWAP1 SSTORE POP PUSH2 0x5DA PUSH2 0x6AB PUSH1 0x20 SHL PUSH1 0x20 SHR JUMP JUMPDEST PUSH20 0xFFFFFFFFFFFFFFFFFFFFFFFFFFFFFFFFFFFFFFFF AND DUP3 PUSH20 0xFFFFFFFFFFFFFFFFFFFFFFFFFFFFFFFFFFFFFFFF AND DUP5 PUSH32 0x2F8788117E7EFF1D82E926EC794901D17C78024A50270940304540A733656F0D PUSH1 0x40 MLOAD PUSH1 0x40 MLOAD DUP1 SWAP2 SUB SWAP1 LOG4 PUSH1 0x1 SWAP1 POP PUSH2 0x641 JUMP JUMPDEST PUSH0 SWAP1 POP JUMPDEST SWAP3 SWAP2 POP POP JUMP JUMPDEST PUSH0 PUSH1 0x2 PUSH0 DUP5 DUP2 MSTORE PUSH1 0x20 ADD SWAP1 DUP2 MSTORE PUSH1 0x20 ADD PUSH0 KECCAK256 PUSH0 ADD PUSH0 DUP4 PUSH20 0xFFFFFFFFFFFFFFFFFFFFFFFFFFFFFFFFFFFFFFFF AND PUSH20 0xFFFFFFFFFFFFFFFFFFFFFFFFFFFFFFFFFFFFFFFF AND DUP2 MSTORE PUSH1 0x20 ADD SWAP1 DUP2 MSTORE PUSH1 0x20 ADD PUSH0 KECCAK256 PUSH0 SWAP1 SLOAD SWAP1 PUSH2 0x100 EXP SWAP1 DIV PUSH1 0xFF AND SWAP1 POP SWAP3 SWAP2 POP POP JUMP JUMPDEST PUSH0 CALLER SWAP1 POP SWAP1 JUMP JUMPDEST PUSH0 PUSH0 REVERT JUMPDEST PUSH0 PUSH20 0xFFFFFFFFFFFFFFFFFFFFFFFFFFFFFFFFFFFFFFFF DUP3 AND SWAP1 POP SWAP2 SWAP1 POP JUMP JUMPDEST PUSH0 PUSH2 0x6DF DUP3 PUSH2 0x6B6 JUMP JUMPDEST SWAP1 POP SWAP2 SWAP1 POP JUMP JUMPDEST PUSH2 0x6EF DUP2 PUSH2 0x6D5 JUMP JUMPDEST DUP2 EQ PUSH2 0x6F9 JUMPI PUSH0 PUSH0 REVERT JUMPDEST POP JUMP JUMPDEST PUSH0 DUP2 MLOAD SWAP1 POP PUSH2 0x70A DUP2 PUSH2 0x6E6 JUMP JUMPDEST SWAP3 SWAP2 POP POP JUMP JUMPDEST PUSH0 DUP2 SWAP1 POP SWAP2 SWAP1 POP JUMP JUMPDEST PUSH2 0x722 DUP2 PUSH2 0x710 JUMP JUMPDEST DUP2 EQ PUSH2 0x72C JUMPI PUSH0 PUSH0 REVERT JUMPDEST POP JUMP JUMPDEST PUSH0 DUP2 MLOAD SWAP1 POP PUSH2 0x73D DUP2 PUSH2 0x719 JUMP JUMPDEST SWAP3 SWAP2 POP POP JUMP JUMPDEST PUSH0 PUSH0 PUSH0 PUSH0 PUSH0 PUSH0 PUSH0 PUSH0 PUSH0 PUSH0 PUSH0 PUSH2 0x160 DUP13 DUP15 SUB SLT ISZERO PUSH2 0x763 JUMPI PUSH2 0x762 PUSH2 0x6B2 JUMP JUMPDEST JUMPDEST PUSH0 PUSH2 0x770 DUP15 DUP3 DUP16 ADD PUSH2 0x6FC JUMP JUMPDEST SWAP12 POP POP PUSH1 0x20 PUSH2 0x781 DUP15 DUP3 DUP16 ADD PUSH2 0x6FC JUMP JUMPDEST SWAP11 POP POP PUSH1 0x40 PUSH2 0x792 DUP15 DUP3 DUP16 ADD PUSH2 0x72F JUMP JUMPDEST SWAP10 POP POP PUSH1 0x60 PUSH2 0x7A3 DUP15 DUP3 DUP16 ADD PUSH2 0x72F JUMP JUMPDEST SWAP9 POP POP PUSH1 0x80 PUSH2 0x7B4 DUP15 DUP3 DUP16 ADD PUSH2 0x72F JUMP JUMPDEST SWAP8 POP POP PUSH1 0xA0 PUSH2 0x7C5 DUP15 DUP3 DUP16 ADD PUSH2 0x72F JUMP JUMPDEST SWAP7 POP POP PUSH1 0xC0 PUSH2 0x7D6 DUP15 DUP3 DUP16 ADD PUSH2 0x72F JUMP JUMPDEST SWAP6 POP POP PUSH1 0xE0 PUSH2 0x7E7 DUP15 DUP3 DUP16 ADD PUSH2 0x72F JUMP JUMPDEST SWAP5 POP POP PUSH2 0x100 PUSH2 0x7F9 DUP15 DUP3 DUP16 ADD PUSH2 0x72F JUMP JUMPDEST SWAP4 POP POP PUSH2 0x120 PUSH2 0x80B DUP15 DUP3 DUP16 ADD PUSH2 0x72F JUMP JUMPDEST SWAP3 POP POP PUSH2 0x140 PUSH2 0x81D DUP15 DUP3 DUP16 ADD PUSH2 0x6FC JUMP JUMPDEST SWAP2 POP POP SWAP3 SWAP6 SWAP9 SWAP12 POP SWAP3 SWAP6 SWAP9 SWAP12 SWAP1 SWAP4 SWAP7 SWAP10 POP JUMP JUMPDEST PUSH0 DUP3 DUP3 MSTORE PUSH1 0x20 DUP3 ADD SWAP1 POP SWAP3 SWAP2 POP POP JUMP JUMPDEST PUSH32 0x546F6B656E2061646472657373206973207A65726F0000000000000000000000 PUSH0 DUP3 ADD MSTORE POP JUMP JUMPDEST PUSH0 PUSH2 0x874 PUSH1 0x15 DUP4 PUSH2 0x830 JUMP JUMPDEST SWAP2 POP PUSH2 0x87F DUP3 PUSH2 0x840 JUMP JUMPDEST PUSH1 0x20 DUP3 ADD SWAP1 POP SWAP2 SWAP1 POP JUMP JUMPDEST PUSH0 PUSH1 0x20 DUP3 ADD SWAP1 POP DUP2 DUP2 SUB PUSH0 DUP4 ADD MSTORE PUSH2 0x8A1 DUP2 PUSH2 0x868 JUMP JUMPDEST SWAP1 POP SWAP2 SWAP1 POP JUMP JUMPDEST PUSH32 0x57616C6C65742061646472657373206973207A65726F00000000000000000000 PUSH0 DUP3 ADD MSTORE POP JUMP JUMPDEST PUSH0 PUSH2 0x8DC PUSH1 0x16 DUP4 PUSH2 0x830 JUMP JUMPDEST SWAP2 POP PUSH2 0x8E7 DUP3 PUSH2 0x8A8 JUMP JUMPDEST PUSH1 0x20 DUP3 ADD SWAP1 POP SWAP2 SWAP1 POP JUMP JUMPDEST PUSH0 PUSH1 0x20 DUP3 ADD SWAP1 POP DUP2 DUP2 SUB PUSH0 DUP4 ADD MSTORE PUSH2 0x909 DUP2 PUSH2 0x8D0 JUMP JUMPDEST SWAP1 POP SWAP2 SWAP1 POP JUMP JUMPDEST PUSH32 0x52617465206973207A65726F0000000000000000000000000000000000000000 PUSH0 DUP3 ADD MSTORE POP JUMP JUMPDEST PUSH0 PUSH2 0x944 PUSH1 0xC DUP4 PUSH2 0x830 JUMP JUMPDEST SWAP2 POP PUSH2 0x94F DUP3 PUSH2 0x910 JUMP JUMPDEST PUSH1 0x20 DUP3 ADD SWAP1 POP SWAP2 SWAP1 POP JUMP JUMPDEST PUSH0 PUSH1 0x20 DUP3 ADD SWAP1 POP DUP2 DUP2 SUB PUSH0 DUP4 ADD MSTORE PUSH2 0x971 DUP2 PUSH2 0x938 JUMP JUMPDEST SWAP1 POP SWAP2 SWAP1 POP JUMP JUMPDEST PUSH32 0x536F667420636170206973207A65726F00000000000000000000000000000000 PUSH0 DUP3 ADD MSTORE POP JUMP JUMPDEST PUSH0 PUSH2 0x9AC PUSH1 0x10 DUP4 PUSH2 0x830 JUMP JUMPDEST SWAP2 POP PUSH2 0x9B7 DUP3 PUSH2 0x978 JUMP JUMPDEST PUSH1 0x20 DUP3 ADD SWAP1 POP SWAP2 SWAP1 POP JUMP JUMPDEST PUSH0 PUSH1 0x20 DUP3 ADD SWAP1 POP DUP2 DUP2 SUB PUSH0 DUP4 ADD MSTORE PUSH2 0x9D9 DUP2 PUSH2 0x9A0 JUMP JUMPDEST SWAP1 POP SWAP2 SWAP1 POP JUMP JUMPDEST PUSH32 0x4861726420636170206973207A65726F00000000000000000000000000000000 PUSH0 DUP3 ADD MSTORE POP JUMP JUMPDEST PUSH0 PUSH2 0xA14 PUSH1 0x10 DUP4 PUSH2 0x830 JUMP JUMPDEST SWAP2 POP PUSH2 0xA1F DUP3 PUSH2 0x9E0 JUMP JUMPDEST PUSH1 0x20 DUP3 ADD SWAP1 POP SWAP2 SWAP1 POP JUMP JUMPDEST PUSH0 PUSH1 0x20 DUP3 ADD SWAP1 POP DUP2 DUP2 SUB PUSH0 DUP4 ADD MSTORE PUSH2 0xA41 DUP2 PUSH2 0xA08 JUMP JUMPDEST SWAP1 POP SWAP2 SWAP1 POP JUMP JUMPDEST PUSH32 0x536F667420636170206578636565647320686172642063617000000000000000 PUSH0 DUP3 ADD MSTORE POP JUMP JUMPDEST PUSH0 PUSH2 0xA7C PUSH1 0x19 DUP4 PUSH2 0x830 JUMP JUMPDEST SWAP2 POP PUSH2 0xA87 DUP3 PUSH2 0xA48 JUMP JUMPDEST PUSH1 0x20 DUP3 ADD SWAP1 POP SWAP2 SWAP1 POP JUMP JUMPDEST PUSH0 PUSH1 0x20 DUP3 ADD SWAP1 POP DUP2 DUP2 SUB PUSH0 DUP4 ADD MSTORE PUSH2 0xAA9 DUP2 PUSH2 0xA70 JUMP JUMPDEST SWAP1 POP SWAP2 SWAP1 POP JUMP JUMPDEST PUSH32 0x4F70656E696E67206265666F7265206E6F770000000000000000000000000000 PUSH0 DUP3 ADD MSTORE POP JUMP JUMPDEST PUSH0 PUSH2 0xAE4 PUSH1 0x12 DUP4 PUSH2 0x830 JUMP JUMPDEST SWAP2 POP PUSH2 0xAEF DUP3 PUSH2 0xAB0 JUMP JUMPDEST PUSH1 0x20 DUP3 ADD SWAP1 POP SWAP2 SWAP1 POP JUMP JUMPDEST PUSH0 PUSH1 0x20 DUP3 ADD SWAP1 POP DUP2 DUP2 SUB PUSH0 DUP4 ADD MSTORE PUSH2 0xB11 DUP2 PUSH2 0xAD8 JUMP JUMPDEST SWAP1 POP SWAP2 SWAP1 POP JUMP JUMPDEST PUSH32 0x436C6F73696E67206265666F7265206F70656E696E6700000000000000000000 PUSH0 DUP3 ADD MSTORE POP JUMP JUMPDEST PUSH0 PUSH2 0xB4C PUSH1 0x16 DUP4 PUSH2 0x830 JUMP JUMPDEST SWAP2 POP PUSH2 0xB57 DUP3 PUSH2 0xB18 JUMP JUMPDEST PUSH1 0x20 DUP3 ADD SWAP1 POP SWAP2 SWAP1 POP JUMP JUMPDEST PUSH0 PUSH1 0x20 DUP3 ADD SWAP1 POP DUP2 DUP2 SUB PUSH0 DUP4 ADD MSTORE PUSH2 0xB79 DUP2 PUSH2 0xB40 JUMP JUMPDEST SWAP1 POP SWAP2 SWAP1 POP JUMP JUMPDEST PUSH32 0x4D696E20636F6E747269627574696F6E206973207A65726F0000000000000000 PUSH0 DUP3 ADD MSTORE POP JUMP JUMPDEST PUSH0 PUSH2 0xBB4 PUSH1 0x18 DUP4 PUSH2 0x830 JUMP JUMPDEST SWAP2 POP PUSH2 0xBBF DUP3 PUSH2 0xB80 JUMP JUMPDEST PUSH1 0x20 DUP3 ADD SWAP1 POP SWAP2 SWAP1 POP JUMP JUMPDEST PUSH0 PUSH1 0x20 DUP3 ADD SWAP1 POP DUP2 DUP2 SUB PUSH0 DUP4 ADD MSTORE PUSH2 0xBE1 DUP2 PUSH2 0xBA8 JUMP JUMPDEST SWAP1 POP SWAP2 SWAP1 POP JUMP JUMPDEST PUSH32 0x4D617820636F6E747269627574696F6E206973207A65726F0000000000000000 PUSH0 DUP3 ADD MSTORE POP JUMP JUMPDEST PUSH0 PUSH2 0xC1C PUSH1 0x18 DUP4 PUSH2 0x830 JUMP JUMPDEST SWAP2 POP PUSH2 0xC27 DUP3 PUSH2 0xBE8 JUMP JUMPDEST PUSH1 0x20 DUP3 ADD SWAP1 POP SWAP2 SWAP1 POP JUMP JUMPDEST PUSH0 PUSH1 0x20 DUP3 ADD SWAP1 POP DUP2 DUP2 SUB PUSH0 DUP4 ADD MSTORE PUSH2 0xC49 DUP2 PUSH2 0xC10 JUMP JUMPDEST SWAP1 POP SWAP2 SWAP1 POP JUMP JUMPDEST PUSH32 0x4D696E203E204D61780000000000000000000000000000000000000000000000 PUSH0 DUP3 ADD MSTORE POP JUMP JUMPDEST PUSH0 PUSH2 0xC84 PUSH1 0x9 DUP4 PUSH2 0x830 JUMP JUMPDEST SWAP2 POP PUSH2 0xC8F DUP3 PUSH2 0xC50 JUMP JUMPDEST PUSH1 0x20 DUP3 ADD SWAP1 POP SWAP2 SWAP1 POP JUMP JUMPDEST PUSH0 PUSH1 0x20 DUP3 ADD SWAP1 POP DUP2 DUP2 SUB PUSH0 DUP4 ADD MSTORE PUSH2 0xCB1 DUP2 PUSH2 0xC78 JUMP JUMPDEST SWAP1 POP SWAP2 SWAP1 POP JUMP JUMPDEST PUSH32 0x54474520627073203E2031303030300000000000000000000000000000000000 PUSH0 DUP3 ADD MSTORE POP JUMP JUMPDEST PUSH0 PUSH2 0xCEC PUSH1 0xF DUP4 PUSH2 0x830 JUMP JUMPDEST SWAP2 POP PUSH2 0xCF7 DUP3 PUSH2 0xCB8 JUMP JUMPDEST PUSH1 0x20 DUP3 ADD SWAP1 POP SWAP2 SWAP1 POP JUMP JUMPDEST PUSH0 PUSH1 0x20 DUP3 ADD SWAP1 POP DUP2 DUP2 SUB PUSH0 DUP4 ADD MSTORE PUSH2 0xD19 DUP2 PUSH2 0xCE0 JUMP JUMPDEST SWAP1 POP SWAP2 SWAP1 POP JUMP JUMPDEST PUSH32 0x41646D696E2061646472657373206973207A65726F0000000000000000000000 PUSH0 DUP3 ADD MSTORE POP JUMP JUMPDEST PUSH0 PUSH2 0xD54 PUSH1 0x15 DUP4 PUSH2 0x830 JUMP JUMPDEST SWAP2 POP PUSH2 0xD5F DUP3 PUSH2 0xD20 JUMP JUMPDEST PUSH1 0x20 DUP3 ADD SWAP1 POP SWAP2 SWAP1 POP JUMP JUMPDEST PUSH0 PUSH1 0x20 DUP3 ADD SWAP1 POP DUP2 DUP2 SUB PUSH0 DUP4 ADD MSTORE PUSH2 0xD81 DUP2 PUSH2 0xD48 JUMP JUMPDEST SWAP1 POP SWAP2 SWAP1 POP JUMP JUMPDEST PUSH1 0x80 MLOAD PUSH1 0xA0 MLOAD PUSH1 0xC0 MLOAD PUSH1 0xE0 MLOAD PUSH2 0x2B85 PUSH2 0xDEC PUSH0 CODECOPY PUSH0 DUP2 DUP2 PUSH2 0x1165 ADD MSTORE DUP2 DUP2 PUSH2 0x1437 ADD MSTORE PUSH2 0x1DA5 ADD MSTORE PUSH0 DUP2 DUP2 PUSH2 0xD93 ADD MSTORE DUP2 DUP2 PUSH2 0x1512 ADD MSTORE DUP2 DUP2 PUSH2 0x1B3A ADD MSTORE PUSH2 0x1DC9 ADD MSTORE PUSH0 DUP2 DUP2 PUSH2 0xE7A ADD MSTORE PUSH2 0xFDC ADD MSTORE PUSH0 DUP2 DUP2 PUSH2 0x1268 ADD MSTORE PUSH2 0x1DED ADD MSTORE PUSH2 0x2B85 PUSH0 RETURN INVALID PUSH1 0x80 PUSH1 0x40 MSTORE PUSH1 0x4 CALLDATASIZE LT PUSH2 0x249 JUMPI PUSH0 CALLDATALOAD PUSH1 0xE0 SHR DUP1 PUSH4 0x995C5E9D GT PUSH2 0x138 JUMPI DUP1 PUSH4 0xC4590D3F GT PUSH2 0xB5 JUMPI DUP1 PUSH4 0xEB3B3FE6 GT PUSH2 0x79 JUMPI DUP1 PUSH4 0xEB3B3FE6 EQ PUSH2 0x87C JUMPI DUP1 PUSH4 0xEC8AC4D8 EQ PUSH2 0x8A4 JUMPI DUP1 PUSH4 0xF43E98C7 EQ PUSH2 0x8C0 JUMPI DUP1 PUSH4 0xF49E2514 EQ PUSH2 0x8EA JUMPI DUP1 PUSH4 0xFB86A404 EQ PUSH2 0x914 JUMPI DUP1 PUSH4 0xFC0C546A EQ PUSH2 0x93E JUMPI PUSH2 0x289 JUMP JUMPDEST DUP1 PUSH4 0xC4590D3F EQ PUSH2 0x7C4 JUMPI DUP1 PUSH4 0xD547741F EQ PUSH2 0x7EC JUMPI DUP1 PUSH4 0xDEAA59DF EQ PUSH2 0x814 JUMPI DUP1 PUSH4 0xE086E5EC EQ PUSH2 0x83C JUMPI DUP1 PUSH4 0xE63AB1E9 EQ PUSH2 0x852 JUMPI PUSH2 0x289 JUMP JUMPDEST DUP1 PUSH4 0xB0178F3D GT PUSH2 0xFC JUMPI DUP1 PUSH4 0xB0178F3D EQ PUSH2 0x6CE JUMPI DUP1 PUSH4 0xB3F05B97 EQ PUSH2 0x70A JUMPI DUP1 PUSH4 0xB7A8807C EQ PUSH2 0x734 JUMPI DUP1 PUSH4 0xBE68D17A EQ PUSH2 0x75E JUMPI DUP1 PUSH4 0xC2B6B58C EQ PUSH2 0x79A JUMPI PUSH2 0x289 JUMP JUMPDEST DUP1 PUSH4 0x995C5E9D EQ PUSH2 0x5FE JUMPI DUP1 PUSH4 0x9B8C1FED EQ PUSH2 0x63A JUMPI DUP1 PUSH4 0xA217FDDF EQ PUSH2 0x650 JUMPI DUP1 PUSH4 0xA4D19FEB EQ PUSH2 0x67A JUMPI DUP1 PUSH4 0xAAFFADF3 EQ PUSH2 0x6A4 JUMPI PUSH2 0x289 JUMP JUMPDEST DUP1 PUSH4 0x47535D7B GT PUSH2 0x1C6 JUMPI DUP1 PUSH4 0x5C975ABB GT PUSH2 0x18A JUMPI DUP1 PUSH4 0x5C975ABB EQ PUSH2 0x52E JUMPI DUP1 PUSH4 0x8456CB59 EQ PUSH2 0x558 JUMPI DUP1 PUSH4 0x8D3D6576 EQ PUSH2 0x56E JUMPI DUP1 PUSH4 0x906A26E0 EQ PUSH2 0x598 JUMPI DUP1 PUSH4 0x91D14854 EQ PUSH2 0x5C2 JUMPI PUSH2 0x289 JUMP JUMPDEST DUP1 PUSH4 0x47535D7B EQ PUSH2 0x470 JUMPI DUP1 PUSH4 0x4B6753BC EQ PUSH2 0x49A JUMPI DUP1 PUSH4 0x4BB278F3 EQ PUSH2 0x4C4 JUMPI DUP1 PUSH4 0x518AB2A8 EQ PUSH2 0x4DA JUMPI DUP1 PUSH4 0x521EB273 EQ PUSH2 0x504 JUMPI PUSH2 0x289 JUMP JUMPDEST DUP1 PUSH4 0x36568ABE GT PUSH2 0x20D JUMPI DUP1 PUSH4 0x36568ABE EQ PUSH2 0x3B6 JUMPI DUP1 PUSH4 0x3A45E6FD EQ PUSH2 0x3DE JUMPI DUP1 PUSH4 0x3F4BA83A EQ PUSH2 0x3F4 JUMPI DUP1 PUSH4 0x4042B66F EQ PUSH2 0x40A JUMPI DUP1 PUSH4 0x4225E5BB EQ PUSH2 0x434 JUMPI PUSH2 0x289 JUMP JUMPDEST DUP1 PUSH4 0x1FFC9A7 EQ PUSH2 0x2C4 JUMPI DUP1 PUSH4 0x248A9CA3 EQ PUSH2 0x300 JUMPI DUP1 PUSH4 0x2C4E722E EQ PUSH2 0x33C JUMPI DUP1 PUSH4 0x2F2FF15D EQ PUSH2 0x366 JUMPI DUP1 PUSH4 0x34FCF437 EQ PUSH2 0x38E JUMPI PUSH2 0x289 JUMP JUMPDEST CALLDATASIZE PUSH2 0x289 JUMPI PUSH1 0x40 MLOAD PUSH32 0x8C379A000000000000000000000000000000000000000000000000000000000 DUP2 MSTORE PUSH1 0x4 ADD PUSH2 0x280 SWAP1 PUSH2 0x22A2 JUMP JUMPDEST PUSH1 0x40 MLOAD DUP1 SWAP2 SUB SWAP1 REVERT JUMPDEST PUSH1 0x40 MLOAD PUSH32 0x8C379A000000000000000000000000000000000000000000000000000000000 DUP2 MSTORE PUSH1 0x4 ADD PUSH2 0x2BB SWAP1 PUSH2 0x230A JUMP JUMPDEST PUSH1 0x40 MLOAD DUP1 SWAP2 SUB SWAP1 REVERT JUMPDEST CALLVALUE DUP1 ISZERO PUSH2 0x2CF JUMPI PUSH0 PUSH0 REVERT JUMPDEST POP PUSH2 0x2EA PUSH1 0x4 DUP1 CALLDATASIZE SUB DUP2 ADD SWAP1 PUSH2 0x2E5 SWAP2 SWAP1 PUSH2 0x2381 JUMP JUMPDEST PUSH2 0x968 JUMP JUMPDEST PUSH1 0x40 MLOAD PUSH2 0x2F7 SWAP2 SWAP1 PUSH2 0x23C6 JUMP JUMPDEST PUSH1 0x40 MLOAD DUP1 SWAP2 SUB SWAP1 RETURN JUMPDEST CALLVALUE DUP1 ISZERO PUSH2 0x30B JUMPI PUSH0 PUSH0 REVERT JUMPDEST POP PUSH2 0x326 PUSH1 0x4 DUP1 CALLDATASIZE SUB DUP2 ADD SWAP1 PUSH2 0x321 SWAP2 SWAP1 PUSH2 0x2412 JUMP JUMPDEST PUSH2 0x9E1 JUMP JUMPDEST PUSH1 0x40 MLOAD PUSH2 0x333 SWAP2 SWAP1 PUSH2 0x244C JUMP JUMPDEST PUSH1 0x40 MLOAD DUP1 SWAP2 SUB SWAP1 RETURN JUMPDEST CALLVALUE DUP1 ISZERO PUSH2 0x347 JUMPI PUSH0 PUSH0 REVERT JUMPDEST POP PUSH2 0x350 PUSH2 0x9FE JUMP JUMPDEST PUSH1 0x40 MLOAD PUSH2 0x35D SWAP2 SWAP1 PUSH2 0x247D JUMP JUMPDEST PUSH1 0x40 MLOAD DUP1 SWAP2 SUB SWAP1 RETURN JUMPDEST CALLVALUE DUP1 ISZERO PUSH2 0x371 JUMPI PUSH0 PUSH0 REVERT JUMPDEST POP PUSH2 0x38C PUSH1 0x4 DUP1 CALLDATASIZE SUB DUP2 ADD SWAP1 PUSH2 0x387 SWAP2 SWAP1 PUSH2 0x24F0 JUMP JUMPDEST PUSH2 0xA04 JUMP JUMPDEST STOP JUMPDEST CALLVALUE DUP1 ISZERO PUSH2 0x399 JUMPI PUSH0 PUSH0 REVERT JUMPDEST POP PUSH2 0x3B4 PUSH1 0x4 DUP1 CALLDATASIZE SUB DUP2 ADD SWAP1 PUSH2 0x3AF SWAP2 SWAP1 PUSH2 0x2558 JUMP JUMPDEST PUSH2 0xA26 JUMP JUMPDEST STOP JUMPDEST CALLVALUE DUP1 ISZERO PUSH2 0x3C1 JUMPI PUSH0 PUSH0 REVERT JUMPDEST POP PUSH2 0x3DC PUSH1 0x4 DUP1 CALLDATASIZE SUB DUP2 ADD SWAP1 PUSH2 0x3D7 SWAP2 SWAP1 PUSH2 0x24F0 JUMP JUMPDEST PUSH2 0xA96 JUMP JUMPDEST STOP JUMPDEST CALLVALUE DUP1 ISZERO PUSH2 0x3E9 JUMPI PUSH0 PUSH0 REVERT JUMPDEST POP PUSH2 0x3F2 PUSH2 0xB11 JUMP JUMPDEST STOP JUMPDEST CALLVALUE DUP1 ISZERO PUSH2 0x3FF JUMPI PUSH0 PUSH0 REVERT JUMPDEST POP PUSH2 0x408 PUSH2 0xD25 JUMP JUMPDEST STOP JUMPDEST CALLVALUE DUP1 ISZERO PUSH2 0x415 JUMPI PUSH0 PUSH0 REVERT JUMPDEST POP PUSH2 0x41E PUSH2 0xD5A JUMP JUMPDEST PUSH1 0x40 MLOAD PUSH2 0x42B SWAP2 SWAP1 PUSH2 0x247D JUMP JUMPDEST PUSH1 0x40 MLOAD DUP1 SWAP2 SUB SWAP1 RETURN JUMPDEST CALLVALUE DUP1 ISZERO PUSH2 0x43F JUMPI PUSH0 PUSH0 REVERT JUMPDEST POP PUSH2 0x45A PUSH1 0x4 DUP1 CALLDATASIZE SUB DUP2 ADD SWAP1 PUSH2 0x455 SWAP2 SWAP1 PUSH2 0x2583 JUMP JUMPDEST PUSH2 0xD60 JUMP JUMPDEST PUSH1 0x40 MLOAD PUSH2 0x467 SWAP2 SWAP1 PUSH2 0x247D JUMP JUMPDEST PUSH1 0x40 MLOAD DUP1 SWAP2 SUB SWAP1 RETURN JUMPDEST CALLVALUE DUP1 ISZERO PUSH2 0x47B JUMPI PUSH0 PUSH0 REVERT JUMPDEST POP PUSH2 0x484 PUSH2 0xD75 JUMP JUMPDEST PUSH1 0x40 MLOAD PUSH2 0x491 SWAP2 SWAP1 PUSH2 0x23C6 JUMP JUMPDEST PUSH1 0x40 MLOAD DUP1 SWAP2 SUB SWAP1 RETURN JUMPDEST CALLVALUE DUP1 ISZERO PUSH2 0x4A5 JUMPI PUSH0 PUSH0 REVERT JUMPDEST POP PUSH2 0x4AE PUSH2 0xDD4 JUMP JUMPDEST PUSH1 0x40 MLOAD PUSH2 0x4BB SWAP2 SWAP1 PUSH2 0x247D JUMP JUMPDEST PUSH1 0x40 MLOAD DUP1 SWAP2 SUB SWAP1 RETURN JUMPDEST CALLVALUE DUP1 ISZERO PUSH2 0x4CF JUMPI PUSH0 PUSH0 REVERT JUMPDEST POP PUSH2 0x4D8 PUSH2 0xDDA JUMP JUMPDEST STOP JUMPDEST CALLVALUE DUP1 ISZERO PUSH2 0x4E5 JUMPI PUSH0 PUSH0 REVERT JUMPDEST POP PUSH2 0x4EE PUSH2 0xF5F JUMP JUMPDEST PUSH1 0x40 MLOAD PUSH2 0x4FB SWAP2 SWAP1 PUSH2 0x247D JUMP JUMPDEST PUSH1 0x40 MLOAD DUP1 SWAP2 SUB SWAP1 RETURN JUMPDEST CALLVALUE DUP1 ISZERO PUSH2 0x50F JUMPI PUSH0 PUSH0 REVERT JUMPDEST POP PUSH2 0x518 PUSH2 0xF65 JUMP JUMPDEST PUSH1 0x40 MLOAD PUSH2 0x525 SWAP2 SWAP1 PUSH2 0x25BD JUMP JUMPDEST PUSH1 0x40 MLOAD DUP1 SWAP2 SUB SWAP1 RETURN JUMPDEST CALLVALUE DUP1 ISZERO PUSH2 0x539 JUMPI PUSH0 PUSH0 REVERT JUMPDEST POP PUSH2 0x542 PUSH2 0xF8A JUMP JUMPDEST PUSH1 0x40 MLOAD PUSH2 0x54F SWAP2 SWAP1 PUSH2 0x23C6 JUMP JUMPDEST PUSH1 0x40 MLOAD DUP1 SWAP2 SUB SWAP1 RETURN JUMPDEST CALLVALUE DUP1 ISZERO PUSH2 0x563 JUMPI PUSH0 PUSH0 REVERT JUMPDEST POP PUSH2 0x56C PUSH2 0xF9F JUMP JUMPDEST STOP JUMPDEST CALLVALUE DUP1 ISZERO PUSH2 0x579 JUMPI PUSH0 PUSH0 REVERT JUMPDEST POP PUSH2 0x582 PUSH2 0xFD4 JUMP JUMPDEST PUSH1 0x40 MLOAD PUSH2 0x58F SWAP2 SWAP1 PUSH2 0x247D JUMP JUMPDEST PUSH1 0x40 MLOAD DUP1 SWAP2 SUB SWAP1 RETURN JUMPDEST CALLVALUE DUP1 ISZERO PUSH2 0x5A3 JUMPI PUSH0 PUSH0 REVERT JUMPDEST POP PUSH2 0x5AC PUSH2 0xFDA JUMP JUMPDEST PUSH1 0x40 MLOAD PUSH2 0x5B9 SWAP2 SWAP1 PUSH2 0x247D JUMP JUMPDEST PUSH1 0x40 MLOAD DUP1 SWAP2 SUB SWAP1 RETURN JUMPDEST CALLVALUE DUP1 ISZERO PUSH2 0x5CD JUMPI PUSH0 PUSH0 REVERT JUMPDEST POP PUSH2 0x5E8 PUSH1 0x4 DUP1 CALLDATASIZE SUB DUP2 ADD SWAP1 PUSH2 0x5E3 SWAP2 SWAP1 PUSH2 0x24F0 JUMP JUMPDEST PUSH2 0xFFE JUMP JUMPDEST PUSH1 0x40 MLOAD PUSH2 0x5F5 SWAP2 SWAP1 PUSH2 0x23C6 JUMP JUMPDEST PUSH1 0x40 MLOAD DUP1 SWAP2 SUB SWAP1 RETURN JUMPDEST CALLVALUE DUP1 ISZERO PUSH2 0x609 JUMPI PUSH0 PUSH0 REVERT JUMPDEST POP PUSH2 0x624 PUSH1 0x4 DUP1 CALLDATASIZE SUB DUP2 ADD SWAP1 PUSH2 0x61F SWAP2 SWAP1 PUSH2 0x2583 JUMP JUMPDEST PUSH2 0x1062 JUMP JUMPDEST PUSH1 0x40 MLOAD PUSH2 0x631 SWAP2 SWAP1 PUSH2 0x247D JUMP JUMPDEST PUSH1 0x40 MLOAD DUP1 SWAP2 SUB SWAP1 RETURN JUMPDEST CALLVALUE DUP1 ISZERO PUSH2 0x645 JUMPI PUSH0 PUSH0 REVERT JUMPDEST POP PUSH2 0x64E PUSH2 0x1077 JUMP JUMPDEST STOP JUMPDEST CALLVALUE DUP1 ISZERO PUSH2 0x65B JUMPI PUSH0 PUSH0 REVERT JUMPDEST POP PUSH2 0x664 PUSH2 0x137B JUMP JUMPDEST PUSH1 0x40 MLOAD PUSH2 0x671 SWAP2 SWAP1 PUSH2 0x244C JUMP JUMPDEST PUSH1 0x40 MLOAD DUP1 SWAP2 SUB SWAP1 RETURN JUMPDEST CALLVALUE DUP1 ISZERO PUSH2 0x685 JUMPI PUSH0 PUSH0 REVERT JUMPDEST POP PUSH2 0x68E PUSH2 0x1381 JUMP JUMPDEST PUSH1 0x40 MLOAD PUSH2 0x69B SWAP2 SWAP1 PUSH2 0x244C JUMP JUMPDEST PUSH1 0x40 MLOAD DUP1 SWAP2 SUB SWAP1 RETURN JUMPDEST CALLVALUE DUP1 ISZERO PUSH2 0x6AF JUMPI PUSH0 PUSH0 REVERT JUMPDEST POP PUSH2 0x6B8 PUSH2 0x13A5 JUMP JUMPDEST PUSH1 0x40 MLOAD PUSH2 0x6C5 SWAP2 SWAP1 PUSH2 0x247D JUMP JUMPDEST PUSH1 0x40 MLOAD DUP1 SWAP2 SUB SWAP1 RETURN JUMPDEST CALLVALUE DUP1 ISZERO PUSH2 0x6D9 JUMPI PUSH0 PUSH0 REVERT JUMPDEST POP PUSH2 0x6F4 PUSH1 0x4 DUP1 CALLDATASIZE SUB DUP2 ADD SWAP1 PUSH2 0x6EF SWAP2 SWAP1 PUSH2 0x2583 JUMP JUMPDEST PUSH2 0x13AB JUMP JUMPDEST PUSH1 0x40 MLOAD PUSH2 0x701 SWAP2 SWAP1 PUSH2 0x247D JUMP JUMPDEST PUSH1 0x40 MLOAD DUP1 SWAP2 SUB SWAP1 RETURN JUMPDEST CALLVALUE DUP1 ISZERO PUSH2 0x715 JUMPI PUSH0 PUSH0 REVERT JUMPDEST POP PUSH2 0x71E PUSH2 0x14D7 JUMP JUMPDEST PUSH1 0x40 MLOAD PUSH2 0x72B SWAP2 SWAP1 PUSH2 0x23C6 JUMP JUMPDEST PUSH1 0x40 MLOAD DUP1 SWAP2 SUB SWAP1 RETURN JUMPDEST CALLVALUE DUP1 ISZERO PUSH2 0x73F JUMPI PUSH0 PUSH0 REVERT JUMPDEST POP PUSH2 0x748 PUSH2 0x14E9 JUMP JUMPDEST PUSH1 0x40 MLOAD PUSH2 0x755 SWAP2 SWAP1 PUSH2 0x247D JUMP JUMPDEST PUSH1 0x40 MLOAD DUP1 SWAP2 SUB SWAP1 RETURN JUMPDEST CALLVALUE DUP1 ISZERO PUSH2 0x769 JUMPI PUSH0 PUSH0 REVERT JUMPDEST POP PUSH2 0x784 PUSH1 0x4 DUP1 CALLDATASIZE SUB DUP2 ADD SWAP1 PUSH2 0x77F SWAP2 SWAP1 PUSH2 0x2583 JUMP JUMPDEST PUSH2 0x14EF JUMP JUMPDEST PUSH1 0x40 MLOAD PUSH2 0x791 SWAP2 SWAP1 PUSH2 0x247D JUMP JUMPDEST PUSH1 0x40 MLOAD DUP1 SWAP2 SUB SWAP1 RETURN JUMPDEST CALLVALUE DUP1 ISZERO PUSH2 0x7A5 JUMPI PUSH0 PUSH0 REVERT JUMPDEST POP PUSH2 0x7AE PUSH2 0x1504 JUMP JUMPDEST PUSH1 0x40 MLOAD PUSH2 0x7BB SWAP2 SWAP1 PUSH2 0x23C6 JUMP JUMPDEST PUSH1 0x40 MLOAD DUP1 SWAP2 SUB SWAP1 RETURN JUMPDEST CALLVALUE DUP1 ISZERO PUSH2 0x7CF JUMPI PUSH0 PUSH0 REVERT JUMPDEST POP PUSH2 0x7EA PUSH1 0x4 DUP1 CALLDATASIZE SUB DUP2 ADD SWAP1 PUSH2 0x7E5 SWAP2 SWAP1 PUSH2 0x25D6 JUMP JUMPDEST PUSH2 0x1552 JUMP JUMPDEST STOP JUMPDEST CALLVALUE DUP1 ISZERO PUSH2 0x7F7 JUMPI PUSH0 PUSH0 REVERT JUMPDEST POP PUSH2 0x812 PUSH1 0x4 DUP1 CALLDATASIZE SUB DUP2 ADD SWAP1 PUSH2 0x80D SWAP2 SWAP1 PUSH2 0x24F0 JUMP JUMPDEST PUSH2 0x1621 JUMP JUMPDEST STOP JUMPDEST CALLVALUE DUP1 ISZERO PUSH2 0x81F JUMPI PUSH0 PUSH0 REVERT JUMPDEST POP PUSH2 0x83A PUSH1 0x4 DUP1 CALLDATASIZE SUB DUP2 ADD SWAP1 PUSH2 0x835 SWAP2 SWAP1 PUSH2 0x2583 JUMP JUMPDEST PUSH2 0x1643 JUMP JUMPDEST STOP JUMPDEST CALLVALUE DUP1 ISZERO PUSH2 0x847 JUMPI PUSH0 PUSH0 REVERT JUMPDEST POP PUSH2 0x850 PUSH2 0x1770 JUMP JUMPDEST STOP JUMPDEST CALLVALUE DUP1 ISZERO PUSH2 0x85D JUMPI PUSH0 PUSH0 REVERT JUMPDEST POP PUSH2 0x866 PUSH2 0x18DA JUMP JUMPDEST PUSH1 0x40 MLOAD PUSH2 0x873 SWAP2 SWAP1 PUSH2 0x244C JUMP JUMPDEST PUSH1 0x40 MLOAD DUP1 SWAP2 SUB SWAP1 RETURN JUMPDEST CALLVALUE DUP1 ISZERO PUSH2 0x887 JUMPI PUSH0 PUSH0 REVERT JUMPDEST POP PUSH2 0x8A2 PUSH1 0x4 DUP1 CALLDATASIZE SUB DUP2 ADD SWAP1 PUSH2 0x89D SWAP2 SWAP1 PUSH2 0x2651 JUMP JUMPDEST PUSH2 0x18FE JUMP JUMPDEST STOP JUMPDEST PUSH2 0x8BE PUSH1 0x4 DUP1 CALLDATASIZE SUB DUP2 ADD SWAP1 PUSH2 0x8B9 SWAP2 SWAP1 PUSH2 0x2583 JUMP JUMPDEST PUSH2 0x19DE JUMP JUMPDEST STOP JUMPDEST CALLVALUE DUP1 ISZERO PUSH2 0x8CB JUMPI PUSH0 PUSH0 REVERT JUMPDEST POP PUSH2 0x8D4 PUSH2 0x1D90 JUMP JUMPDEST PUSH1 0x40 MLOAD PUSH2 0x8E1 SWAP2 SWAP1 PUSH2 0x23C6 JUMP JUMPDEST PUSH1 0x40 MLOAD DUP1 SWAP2 SUB SWAP1 RETURN JUMPDEST CALLVALUE DUP1 ISZERO PUSH2 0x8F5 JUMPI PUSH0 PUSH0 REVERT JUMPDEST POP PUSH2 0x8FE PUSH2 0x1DA3 JUMP JUMPDEST PUSH1 0x40 MLOAD PUSH2 0x90B SWAP2 SWAP1 PUSH2 0x247D JUMP JUMPDEST PUSH1 0x40 MLOAD DUP1 SWAP2 SUB SWAP1 RETURN JUMPDEST CALLVALUE DUP1 ISZERO PUSH2 0x91F JUMPI PUSH0 PUSH0 REVERT JUMPDEST POP PUSH2 0x928 PUSH2 0x1DC7 JUMP JUMPDEST PUSH1 0x40 MLOAD PUSH2 0x935 SWAP2 SWAP1 PUSH2 0x247D JUMP JUMPDEST PUSH1 0x40 MLOAD DUP1 SWAP2 SUB SWAP1 RETURN JUMPDEST CALLVALUE DUP1 ISZERO PUSH2 0x949 JUMPI PUSH0 PUSH0 REVERT JUMPDEST POP PUSH2 0x952 PUSH2 0x1DEB JUMP JUMPDEST PUSH1 0x40 MLOAD PUSH2 0x95F SWAP2 SWAP1 PUSH2 0x26EA JUMP JUMPDEST PUSH1 0x40 MLOAD DUP1 SWAP2 SUB SWAP1 RETURN JUMPDEST PUSH0 PUSH32 0x7965DB0B00000000000000000000000000000000000000000000000000000000 PUSH28 0xFFFFFFFFFFFFFFFFFFFFFFFFFFFFFFFFFFFFFFFFFFFFFFFFFFFFFFFF NOT AND DUP3 PUSH28 0xFFFFFFFFFFFFFFFFFFFFFFFFFFFFFFFFFFFFFFFFFFFFFFFFFFFFFFFF NOT AND EQ DUP1 PUSH2 0x9DA JUMPI POP PUSH2 0x9D9 DUP3 PUSH2 0x1E0F JUMP JUMPDEST JUMPDEST SWAP1 POP SWAP2 SWAP1 POP JUMP JUMPDEST PUSH0 PUSH1 0x2 PUSH0 DUP4 DUP2 MSTORE PUSH1 0x20 ADD SWAP1 DUP2 MSTORE PUSH1 0x20 ADD PUSH0 KECCAK256 PUSH1 0x1 ADD SLOAD SWAP1 POP SWAP2 SWAP1 POP JUMP JUMPDEST PUSH1 0x4 SLOAD DUP2 JUMP JUMPDEST PUSH2 0xA0D DUP3 PUSH2 0x9E1 JUMP JUMPDEST PUSH2 0xA16 DUP2 PUSH2 0x1E78 JUMP JUMPDEST PUSH2 0xA20 DUP4 DUP4 PUSH2 0x1E8C JUMP JUMPDEST POP POP POP POP JUMP JUMPDEST PUSH32 0x82DB594318110A04B6349CE48645AA69F0892751BC893D15E61D9E2B9C4630F5 PUSH2 0xA50 DUP2 PUSH2 0x1E78 JUMP JUMPDEST PUSH32 0xB38780DDDE1F073D91C150DE2696F3F7085883648BA21CC5EF01029CB21D1916 PUSH1 0x4 SLOAD DUP4 PUSH1 0x40 MLOAD PUSH2 0xA83 SWAP3 SWAP2 SWAP1 PUSH2 0x2703 JUMP JUMPDEST PUSH1 0x40 MLOAD DUP1 SWAP2 SUB SWAP1 LOG1 DUP2 PUSH1 0x4 DUP2 SWAP1 SSTORE POP POP POP JUMP JUMPDEST PUSH2 0xA9E PUSH2 0x1F76 JUMP JUMPDEST PUSH20 0xFFFFFFFFFFFFFFFFFFFFFFFFFFFFFFFFFFFFFFFF AND DUP2 PUSH20 0xFFFFFFFFFFFFFFFFFFFFFFFFFFFFFFFFFFFFFFFF AND EQ PUSH2 0xB02 JUMPI PUSH1 0x40 MLOAD PUSH32 0x6697B23200000000000000000000000000000000000000000000000000000000 DUP2 MSTORE PUSH1 0x4 ADD PUSH1 0x40 MLOAD DUP1 SWAP2 SUB SWAP1 REVERT JUMPDEST PUSH2 0xB0C DUP3 DUP3 PUSH2 0x1F7D JUMP JUMPDEST POP POP POP JUMP JUMPDEST PUSH2 0xB19 PUSH2 0x2067 JUMP JUMPDEST PUSH2 0xB21 PUSH2 0x20AB JUMP JUMPDEST PUSH1 0xE PUSH1 0x1 SWAP1 SLOAD SWAP1 PUSH2 0x100 EXP SWAP1 DIV PUSH1 0xFF AND PUSH2 0xB67 JUMPI PUSH1 0x40 MLOAD PUSH32 0x64547E6900000000000000000000000000000000000000000000000000000000 DUP2 MSTORE PUSH1 0x4 ADD PUSH1 0x40 MLOAD DUP1 SWAP2 SUB SWAP1 REVERT JUMPDEST PUSH0 PUSH1 0xB PUSH0 CALLER PUSH20 0xFFFFFFFFFFFFFFFFFFFFFFFFFFFFFFFFFFFFFFFF AND PUSH20 0xFFFFFFFFFFFFFFFFFFFFFFFFFFFFFFFFFFFFFFFF AND DUP2 MSTORE PUSH1 0x20 ADD SWAP1 DUP2 MSTORE PUSH1 0x20 ADD PUSH0 KECCAK256 SLOAD SWAP1 POP PUSH0 DUP2 SUB PUSH2 0xBE1 JUMPI PUSH1 0x40 MLOAD PUSH32 0x969BF72800000000000000000000000000000000000000000000000000000000 DUP2 MSTORE PUSH1 0x4 ADD PUSH1 0x40 MLOAD DUP1 SWAP2 SUB SWAP1 REVERT JUMPDEST PUSH0 PUSH1 0xB PUSH0 CALLER PUSH20 0xFFFFFFFFFFFFFFFFFFFFFFFFFFFFFFFFFFFFFFFF AND PUSH20 0xFFFFFFFFFFFFFFFFFFFFFFFFFFFFFFFFFFFFFFFF AND DUP2 MSTORE PUSH1 0x20 ADD SWAP1 DUP2 MSTORE PUSH1 0x20 ADD PUSH0 KECCAK256 DUP2 SWAP1 SSTORE POP PUSH0 CALLER PUSH20 0xFFFFFFFFFFFFFFFFFFFFFFFFFFFFFFFFFFFFFFFF AND DUP3 PUSH1 0x40 MLOAD PUSH2 0xC48 SWAP1 PUSH2 0x2757 JUMP JUMPDEST PUSH0 PUSH1 0x40 MLOAD DUP1 DUP4 SUB DUP2 DUP6 DUP8 GAS CALL SWAP3 POP POP POP RETURNDATASIZE DUP1 PUSH0 DUP2 EQ PUSH2 0xC82 JUMPI PUSH1 0x40 MLOAD SWAP2 POP PUSH1 0x1F NOT PUSH1 0x3F RETURNDATASIZE ADD AND DUP3 ADD PUSH1 0x40 MSTORE RETURNDATASIZE DUP3 MSTORE RETURNDATASIZE PUSH0 PUSH1 0x20 DUP5 ADD RETURNDATACOPY PUSH2 0xC87 JUMP JUMPDEST PUSH1 0x60 SWAP2 POP JUMPDEST POP POP SWAP1 POP DUP1 PUSH2 0xCCB JUMPI PUSH1 0x40 MLOAD PUSH32 0x8C379A000000000000000000000000000000000000000000000000000000000 DUP2 MSTORE PUSH1 0x4 ADD PUSH2 0xCC2 SWAP1 PUSH2 0x27B5 JUMP JUMPDEST PUSH1 0x40 MLOAD DUP1 SWAP2 SUB SWAP1 REVERT JUMPDEST CALLER PUSH20 0xFFFFFFFFFFFFFFFFFFFFFFFFFFFFFFFFFFFFFFFF AND PUSH32 0xD7DEE2702D63AD89917B6A4DA9981C90C4D24F8C2BDFD64C604ECAE57D8D0651 DUP4 PUSH1 0x40 MLOAD PUSH2 0xD11 SWAP2 SWAP1 PUSH2 0x247D JUMP JUMPDEST PUSH1 0x40 MLOAD DUP1 SWAP2 SUB SWAP1 LOG2 POP POP PUSH2 0xD23 PUSH2 0x20EC JUMP JUMPDEST JUMP JUMPDEST PUSH32 0x65D7A28E3265B37A6474929F336521B332C1681B933F6CB9F3376673440D862A PUSH2 0xD4F DUP2 PUSH2 0x1E78 JUMP JUMPDEST PUSH2 0xD57 PUSH2 0x20F5 JUMP JUMPDEST POP JUMP JUMPDEST PUSH1 0x9 SLOAD DUP2 JUMP JUMPDEST PUSH1 0xC PUSH1 0x20 MSTORE DUP1 PUSH0 MSTORE PUSH1 0x40 PUSH0 KECCAK256 PUSH0 SWAP2 POP SWAP1 POP SLOAD DUP2 JUMP JUMPDEST PUSH0 PUSH1 0x5 SLOAD TIMESTAMP LT ISZERO DUP1 ISZERO PUSH2 0xD8A JUMPI POP PUSH1 0x6 SLOAD TIMESTAMP GT ISZERO JUMPDEST DUP1 ISZERO PUSH2 0xDB7 JUMPI POP PUSH32 0x0 PUSH1 0x9 SLOAD LT JUMPDEST DUP1 ISZERO PUSH2 0xDCF JUMPI POP PUSH1 0xE PUSH0 SWAP1 SLOAD SWAP1 PUSH2 0x100 EXP SWAP1 DIV PUSH1 0xFF AND ISZERO JUMPDEST SWAP1 POP SWAP1 JUMP JUMPDEST PUSH1 0x6 SLOAD DUP2 JUMP JUMPDEST PUSH2 0xDE2 PUSH2 0x1504 JUMP JUMPDEST PUSH2 0xE18 JUMPI PUSH1 0x40 MLOAD PUSH32 0x78FA807700000000000000000000000000000000000000000000000000000000 DUP2 MSTORE PUSH1 0x4 ADD PUSH1 0x40 MLOAD DUP1 SWAP2 SUB SWAP1 REVERT JUMPDEST PUSH1 0xE PUSH0 SWAP1 SLOAD SWAP1 PUSH2 0x100 EXP SWAP1 DIV PUSH1 0xFF AND ISZERO PUSH2 0xE5E JUMPI PUSH1 0x40 MLOAD PUSH32 0x475A253500000000000000000000000000000000000000000000000000000000 DUP2 MSTORE PUSH1 0x4 ADD PUSH1 0x40 MLOAD DUP1 SWAP2 SUB SWAP1 REVERT JUMPDEST PUSH1 0x1 PUSH1 0xE PUSH0 PUSH2 0x100 EXP DUP2 SLOAD DUP2 PUSH1 0xFF MUL NOT AND SWAP1 DUP4 ISZERO ISZERO MUL OR SWAP1 SSTORE POP PUSH32 0x0 PUSH1 0x9 SLOAD LT PUSH2 0xEDE JUMPI PUSH32 0x41493253AE80C9F89E25283C36F67849365D0515134CE43DE1314223CB6F7342 PUSH1 0x1 PUSH1 0x40 MLOAD PUSH2 0xED1 SWAP2 SWAP1 PUSH2 0x23C6 JUMP JUMPDEST PUSH1 0x40 MLOAD DUP1 SWAP2 SUB SWAP1 LOG1 PUSH2 0xF5D JUMP JUMPDEST PUSH1 0x1 PUSH1 0xE PUSH1 0x1 PUSH2 0x100 EXP DUP2 SLOAD DUP2 PUSH1 0xFF MUL NOT AND SWAP1 DUP4 ISZERO ISZERO MUL OR SWAP1 SSTORE POP PUSH32 0x599D8E5A83CFFB867D051598C4D70E805D59802D8081C1C7D6DFFC5B6ACA2B89 PUSH1 0x40 MLOAD PUSH1 0x40 MLOAD DUP1 SWAP2 SUB SWAP1 LOG1 PUSH32 0x41493253AE80C9F89E25283C36F67849365D0515134CE43DE1314223CB6F7342 PUSH0 PUSH1 0x40 MLOAD PUSH2 0xF54 SWAP2 SWAP1 PUSH2 0x23C6 JUMP JUMPDEST PUSH1 0x40 MLOAD DUP1 SWAP2 SUB SWAP1 LOG1 JUMPDEST JUMP JUMPDEST PUSH1 0xA SLOAD DUP2 JUMP JUMPDEST PUSH1 0x3 PUSH0 SWAP1 SLOAD SWAP1 PUSH2 0x100 EXP SWAP1 DIV PUSH20 0xFFFFFFFFFFFFFFFFFFFFFFFFFFFFFFFFFFFFFFFF AND DUP2 JUMP JUMPDEST PUSH0 PUSH1 0x1 PUSH0 SWAP1 SLOAD SWAP1 PUSH2 0x100 EXP SWAP1 DIV PUSH1 0xFF AND SWAP1 POP SWAP1 JUMP JUMPDEST PUSH32 0x65D7A28E3265B37A6474929F336521B332C1681B933F6CB9F3376673440D862A PUSH2 0xFC9 DUP2 PUSH2 0x1E78 JUMP JUMPDEST PUSH2 0xFD1 PUSH2 0x2156 JUMP JUMPDEST POP JUMP JUMPDEST PUSH1 0x8 SLOAD DUP2 JUMP JUMPDEST PUSH32 0x0 DUP2 JUMP JUMPDEST PUSH0 PUSH1 0x2 PUSH0 DUP5 DUP2 MSTORE PUSH1 0x20 ADD SWAP1 DUP2 MSTORE PUSH1 0x20 ADD PUSH0 KECCAK256 PUSH0 ADD PUSH0 DUP4 PUSH20 0xFFFFFFFFFFFFFFFFFFFFFFFFFFFFFFFFFFFFFFFF AND PUSH20 0xFFFFFFFFFFFFFFFFFFFFFFFFFFFFFFFFFFFFFFFF AND DUP2 MSTORE PUSH1 0x20 ADD SWAP1 DUP2 MSTORE PUSH1 0x20 ADD PUSH0 KECCAK256 PUSH0 SWAP1 SLOAD SWAP1 PUSH2 0x100 EXP SWAP1 DIV PUSH1 0xFF AND SWAP1 POP SWAP3 SWAP2 POP POP JUMP JUMPDEST PUSH1 0xB PUSH1 0x20 MSTORE DUP1 PUSH0 MSTORE PUSH1 0x40 PUSH0 KECCAK256 PUSH0 SWAP2 POP SWAP1 POP SLOAD DUP2 JUMP JUMPDEST PUSH2 0x107F PUSH2 0x2067 JUMP JUMPDEST PUSH2 0x1087 PUSH2 0x20AB JUMP JUMPDEST PUSH1 0xE PUSH0 SWAP1 SLOAD SWAP1 PUSH2 0x100 EXP SWAP1 DIV PUSH1 0xFF AND ISZERO DUP1 PUSH2 0x10AE JUMPI POP PUSH1 0xE PUSH1 0x1 SWAP1 SLOAD SWAP1 PUSH2 0x100 EXP SWAP1 DIV PUSH1 0xFF AND JUMPDEST ISZERO PUSH2 0x10E5 JUMPI PUSH1 0x40 MLOAD PUSH32 0x2BDC91AD00000000000000000000000000000000000000000000000000000000 DUP2 MSTORE PUSH1 0x4 ADD PUSH1 0x40 MLOAD DUP1 SWAP2 SUB SWAP1 REVERT JUMPDEST PUSH0 PUSH1 0xC PUSH0 CALLER PUSH20 0xFFFFFFFFFFFFFFFFFFFFFFFFFFFFFFFFFFFFFFFF AND PUSH20 0xFFFFFFFFFFFFFFFFFFFFFFFFFFFFFFFFFFFFFFFF AND DUP2 MSTORE PUSH1 0x20 ADD SWAP1 DUP2 MSTORE PUSH1 0x20 ADD PUSH0 KECCAK256 SLOAD SWAP1 POP PUSH0 DUP2 SUB PUSH2 0x115F JUMPI PUSH1 0x40 MLOAD PUSH32 0x969BF72800000000000000000000000000000000000000000000000000000000 DUP2 MSTORE PUSH1 0x4 ADD PUSH1 0x40 MLOAD DUP1 SWAP2 SUB SWAP1 REVERT JUMPDEST PUSH0 PUSH2 0x2710 PUSH32 0x0 DUP4 PUSH2 0x118F SWAP2 SWAP1 PUSH2 0x2800 JUMP JUMPDEST PUSH2 0x1199 SWAP2 SWAP1 PUSH2 0x286E JUMP JUMPDEST SWAP1 POP PUSH0 PUSH1 0xD PUSH0 CALLER PUSH20 0xFFFFFFFFFFFFFFFFFFFFFFFFFFFFFFFFFFFFFFFF AND PUSH20 0xFFFFFFFFFFFFFFFFFFFFFFFFFFFFFFFFFFFFFFFF AND DUP2 MSTORE PUSH1 0x20 ADD SWAP1 DUP2 MSTORE PUSH1 0x20 ADD PUSH0 KECCAK256 SLOAD SWAP1 POP DUP1 DUP3 GT PUSH2 0x1215 JUMPI PUSH1 0x40 MLOAD PUSH32 0x969BF72800000000000000000000000000000000000000000000000000000000 DUP2 MSTORE PUSH1 0x4 ADD PUSH1 0x40 MLOAD DUP1 SWAP2 SUB SWAP1 REVERT JUMPDEST PUSH0 DUP2 DUP4 PUSH2 0x1222 SWAP2 SWAP1 PUSH2 0x289E JUMP JUMPDEST SWAP1 POP DUP3 PUSH1 0xD PUSH0 CALLER PUSH20 0xFFFFFFFFFFFFFFFFFFFFFFFFFFFFFFFFFFFFFFFF AND PUSH20 0xFFFFFFFFFFFFFFFFFFFFFFFFFFFFFFFFFFFFFFFF AND DUP2 MSTORE PUSH1 0x20 ADD SWAP1 DUP2 MSTORE PUSH1 0x20 ADD PUSH0 KECCAK256 DUP2 SWAP1 SSTORE POP PUSH32 0x0 PUSH20 0xFFFFFFFFFFFFFFFFFFFFFFFFFFFFFFFFFFFFFFFF AND PUSH4 0x40C10F19 CALLER DUP4 PUSH1 0x40 MLOAD DUP4 PUSH4 0xFFFFFFFF AND PUSH1 0xE0 SHL DUP2 MSTORE PUSH1 0x4 ADD PUSH2 0x12C1 SWAP3 SWAP2 SWAP1 PUSH2 0x28D1 JUMP JUMPDEST PUSH0 PUSH1 0x40 MLOAD DUP1 DUP4 SUB DUP2 PUSH0 DUP8 DUP1 EXTCODESIZE ISZERO DUP1 ISZERO PUSH2 0x12D8 JUMPI PUSH0 PUSH0 REVERT JUMPDEST POP GAS CALL SWAP3 POP POP POP DUP1 ISZERO PUSH2 0x12E9 JUMPI POP PUSH1 0x1 JUMPDEST PUSH2 0x131F JUMPI PUSH1 0x40 MLOAD PUSH32 0x7637BD800000000000000000000000000000000000000000000000000000000 DUP2 MSTORE PUSH1 0x4 ADD PUSH1 0x40 MLOAD DUP1 SWAP2 SUB SWAP1 REVERT JUMPDEST CALLER PUSH20 0xFFFFFFFFFFFFFFFFFFFFFFFFFFFFFFFFFFFFFFFF AND PUSH32 0x9D9F91C7E63ECAB055AB1ECB358D2E74E46AA0E4C65F9594AA73E56CFB5D0A47 DUP3 PUSH1 0x40 MLOAD PUSH2 0x1365 SWAP2 SWAP1 PUSH2 0x247D JUMP JUMPDEST PUSH1 0x40 MLOAD DUP1 SWAP2 SUB SWAP1 LOG2 POP POP POP POP PUSH2 0x1379 PUSH2 0x20EC JUMP JUMPDEST JUMP JUMPDEST PUSH0 PUSH0 SHL DUP2 JUMP JUMPDEST PUSH32 0x82DB594318110A04B6349CE48645AA69F0892751BC893D15E61D9E2B9C4630F5 DUP2 JUMP JUMPDEST PUSH1 0x7 SLOAD DUP2 JUMP JUMPDEST PUSH0 PUSH1 0xE PUSH0 SWAP1 SLOAD SWAP1 PUSH2 0x100 EXP SWAP1 DIV PUSH1 0xFF AND ISZERO DUP1 PUSH2 0x13D3 JUMPI POP PUSH1 0xE PUSH1 0x1 SWAP1 SLOAD SWAP1 PUSH2 0x100 EXP SWAP1 DIV PUSH1 0xFF AND JUMPDEST ISZERO PUSH2 0x13E0 JUMPI PUSH0 SWAP1 POP PUSH2 0x14D2 JUMP JUMPDEST PUSH0 PUSH1 0xC PUSH0 DUP5 PUSH20 0xFFFFFFFFFFFFFFFFFFFFFFFFFFFFFFFFFFFFFFFF AND PUSH20 0xFFFFFFFFFFFFFFFFFFFFFFFFFFFFFFFFFFFFFFFF AND DUP2 MSTORE PUSH1 0x20 ADD SWAP1 DUP2 MSTORE PUSH1 0x20 ADD PUSH0 KECCAK256 SLOAD SWAP1 POP PUSH0 DUP2 SUB PUSH2 0x1431 JUMPI PUSH0 SWAP2 POP POP PUSH2 0x14D2 JUMP JUMPDEST PUSH0 PUSH2 0x2710 PUSH32 0x0 DUP4 PUSH2 0x1461 SWAP2 SWAP1 PUSH2 0x2800 JUMP JUMPDEST PUSH2 0x146B SWAP2 SWAP1 PUSH2 0x286E JUMP JUMPDEST SWAP1 POP PUSH0 PUSH1 0xD PUSH0 DUP7 PUSH20 0xFFFFFFFFFFFFFFFFFFFFFFFFFFFFFFFFFFFFFFFF AND PUSH20 0xFFFFFFFFFFFFFFFFFFFFFFFFFFFFFFFFFFFFFFFF AND DUP2 MSTORE PUSH1 0x20 ADD SWAP1 DUP2 MSTORE PUSH1 0x20 ADD PUSH0 KECCAK256 SLOAD SWAP1 POP DUP1 DUP3 GT PUSH2 0x14C0 JUMPI PUSH0 SWAP4 POP POP POP POP PUSH2 0x14D2 JUMP JUMPDEST DUP1 DUP3 PUSH2 0x14CC SWAP2 SWAP1 PUSH2 0x289E JUMP JUMPDEST SWAP4 POP POP POP POP JUMPDEST SWAP2 SWAP1 POP JUMP JUMPDEST PUSH1 0xE PUSH0 SWAP1 SLOAD SWAP1 PUSH2 0x100 EXP SWAP1 DIV PUSH1 0xFF AND DUP2 JUMP JUMPDEST PUSH1 0x5 SLOAD DUP2 JUMP JUMPDEST PUSH1 0xD PUSH1 0x20 MSTORE DUP1 PUSH0 MSTORE PUSH1 0x40 PUSH0 KECCAK256 PUSH0 SWAP2 POP SWAP1 POP SLOAD DUP2 JUMP JUMPDEST PUSH0 PUSH1 0x6 SLOAD TIMESTAMP GT DUP1 PUSH2 0x1537 JUMPI POP PUSH32 0x0 PUSH1 0x9 SLOAD LT ISZERO JUMPDEST DUP1 PUSH2 0x154D JUMPI POP PUSH1 0xE PUSH0 SWAP1 SLOAD SWAP1 PUSH2 0x100 EXP SWAP1 DIV PUSH1 0xFF AND JUMPDEST SWAP1 POP SWAP1 JUMP JUMPDEST PUSH32 0x82DB594318110A04B6349CE48645AA69F0892751BC893D15E61D9E2B9C4630F5 PUSH2 0x157C DUP2 PUSH2 0x1E78 JUMP JUMPDEST PUSH0 DUP4 GT DUP1 ISZERO PUSH2 0x158A JUMPI POP PUSH0 DUP3 GT JUMPDEST DUP1 ISZERO PUSH2 0x1596 JUMPI POP DUP2 DUP4 GT ISZERO JUMPDEST PUSH2 0x15D5 JUMPI PUSH1 0x40 MLOAD PUSH32 0x8C379A000000000000000000000000000000000000000000000000000000000 DUP2 MSTORE PUSH1 0x4 ADD PUSH2 0x15CC SWAP1 PUSH2 0x2942 JUMP JUMPDEST PUSH1 0x40 MLOAD DUP1 SWAP2 SUB SWAP1 REVERT JUMPDEST PUSH32 0x4D4981437D0211F9E6843EB024D9ADA1FA3A99514D4343D4AECE106DD11524BB DUP4 DUP4 PUSH1 0x40 MLOAD PUSH2 0x1606 SWAP3 SWAP2 SWAP1 PUSH2 0x2703 JUMP JUMPDEST PUSH1 0x40 MLOAD DUP1 SWAP2 SUB SWAP1 LOG1 DUP3 PUSH1 0x7 DUP2 SWAP1 SSTORE POP DUP2 PUSH1 0x8 DUP2 SWAP1 SSTORE POP POP POP POP JUMP JUMPDEST PUSH2 0x162A DUP3 PUSH2 0x9E1 JUMP JUMPDEST PUSH2 0x1633 DUP2 PUSH2 0x1E78 JUMP JUMPDEST PUSH2 0x163D DUP4 DUP4 PUSH2 0x1F7D JUMP JUMPDEST POP POP POP POP JUMP JUMPDEST PUSH32 0x82DB594318110A04B6349CE48645AA69F0892751BC893D15E61D9E2B9C4630F5 PUSH2 0x166D DUP2 PUSH2 0x1E78 JUMP JUMPDEST PUSH0 PUSH20 0xFFFFFFFFFFFFFFFFFFFFFFFFFFFFFFFFFFFFFFFF AND DUP3 PUSH20 0xFFFFFFFFFFFFFFFFFFFFFFFFFFFFFFFFFFFFFFFF AND SUB PUSH2 0x16D2 JUMPI PUSH1 0x40 MLOAD PUSH32 0xD92E233D00000000000000000000000000000000000000000000000000000000 DUP2 MSTORE PUSH1 0x4 ADD PUSH1 0x40 MLOAD DUP1 SWAP2 SUB SWAP1 REVERT JUMPDEST PUSH32 0xF37C6733428A3A65D46B7F1853A5CE4BFA3CF92D25322507A50BF23A0B5A0A8 PUSH1 0x3 PUSH0 SWAP1 SLOAD SWAP1 PUSH2 0x100 EXP SWAP1 DIV PUSH20 0xFFFFFFFFFFFFFFFFFFFFFFFFFFFFFFFFFFFFFFFF AND DUP4 PUSH1 0x40 MLOAD PUSH2 0x1724 SWAP3 SWAP2 SWAP1 PUSH2 0x2960 JUMP JUMPDEST PUSH1 0x40 MLOAD DUP1 SWAP2 SUB SWAP1 LOG1 DUP2 PUSH1 0x3 PUSH0 PUSH2 0x100 EXP DUP2 SLOAD DUP2 PUSH20 0xFFFFFFFFFFFFFFFFFFFFFFFFFFFFFFFFFFFFFFFF MUL NOT AND SWAP1 DUP4 PUSH20 0xFFFFFFFFFFFFFFFFFFFFFFFFFFFFFFFFFFFFFFFF AND MUL OR SWAP1 SSTORE POP POP POP JUMP JUMPDEST PUSH2 0x1778 PUSH2 0x2067 JUMP JUMPDEST PUSH32 0x82DB594318110A04B6349CE48645AA69F0892751BC893D15E61D9E2B9C4630F5 PUSH2 0x17A2 DUP2 PUSH2 0x1E78 JUMP JUMPDEST PUSH1 0xE PUSH0 SWAP1 SLOAD SWAP1 PUSH2 0x100 EXP SWAP1 DIV PUSH1 0xFF AND ISZERO DUP1 PUSH2 0x17C9 JUMPI POP PUSH1 0xE PUSH1 0x1 SWAP1 SLOAD SWAP1 PUSH2 0x100 EXP SWAP1 DIV PUSH1 0xFF AND JUMPDEST ISZERO PUSH2 0x1800 JUMPI PUSH1 0x40 MLOAD PUSH32 0x2BDC91AD00000000000000000000000000000000000000000000000000000000 DUP2 MSTORE PUSH1 0x4 ADD PUSH1 0x40 MLOAD DUP1 SWAP2 SUB SWAP1 REVERT JUMPDEST PUSH0 SELFBALANCE SWAP1 POP PUSH0 PUSH1 0x3 PUSH0 SWAP1 SLOAD SWAP1 PUSH2 0x100 EXP SWAP1 DIV PUSH20 0xFFFFFFFFFFFFFFFFFFFFFFFFFFFFFFFFFFFFFFFF AND PUSH20 0xFFFFFFFFFFFFFFFFFFFFFFFFFFFFFFFFFFFFFFFF AND DUP3 PUSH1 0x40 MLOAD PUSH2 0x184A SWAP1 PUSH2 0x2757 JUMP JUMPDEST PUSH0 PUSH1 0x40 MLOAD DUP1 DUP4 SUB DUP2 DUP6 DUP8 GAS CALL SWAP3 POP POP POP RETURNDATASIZE DUP1 PUSH0 DUP2 EQ PUSH2 0x1884 JUMPI PUSH1 0x40 MLOAD SWAP2 POP PUSH1 0x1F NOT PUSH1 0x3F RETURNDATASIZE ADD AND DUP3 ADD PUSH1 0x40 MSTORE RETURNDATASIZE DUP3 MSTORE RETURNDATASIZE PUSH0 PUSH1 0x20 DUP5 ADD RETURNDATACOPY PUSH2 0x1889 JUMP JUMPDEST PUSH1 0x60 SWAP2 POP JUMPDEST POP POP SWAP1 POP DUP1 PUSH2 0x18CD JUMPI PUSH1 0x40 MLOAD PUSH32 0x8C379A000000000000000000000000000000000000000000000000000000000 DUP2 MSTORE PUSH1 0x4 ADD PUSH2 0x18C4 SWAP1 PUSH2 0x29D1 JUMP JUMPDEST PUSH1 0x40 MLOAD DUP1 SWAP2 SUB SWAP1 REVERT JUMPDEST POP POP POP PUSH2 0x18D8 PUSH2 0x20EC JUMP JUMPDEST JUMP JUMPDEST PUSH32 0x65D7A28E3265B37A6474929F336521B332C1681B933F6CB9F3376673440D862A DUP2 JUMP JUMPDEST PUSH32 0x82DB594318110A04B6349CE48645AA69F0892751BC893D15E61D9E2B9C4630F5 PUSH2 0x1928 DUP2 PUSH2 0x1E78 JUMP JUMPDEST DUP2 PUSH8 0xFFFFFFFFFFFFFFFF AND DUP4 PUSH8 0xFFFFFFFFFFFFFFFF AND LT PUSH2 0x197E JUMPI PUSH1 0x40 MLOAD PUSH32 0x8C379A000000000000000000000000000000000000000000000000000000000 DUP2 MSTORE PUSH1 0x4 ADD PUSH2 0x1975 SWAP1 PUSH2 0x2A39 JUMP JUMPDEST PUSH1 0x40 MLOAD DUP1 SWAP2 SUB SWAP1 REVERT JUMPDEST PUSH32 0x114F2C213E3AB7C4E4E09D28A2EFED89FE0C35A82BE187299E8BB20E1B755768 DUP4 DUP4 PUSH1 0x40 MLOAD PUSH2 0x19AF SWAP3 SWAP2 SWAP1 PUSH2 0x2A66 JUMP JUMPDEST PUSH1 0x40 MLOAD DUP1 SWAP2 SUB SWAP1 LOG1 DUP3 PUSH8 0xFFFFFFFFFFFFFFFF AND PUSH1 0x5 DUP2 SWAP1 SSTORE POP DUP2 PUSH8 0xFFFFFFFFFFFFFFFF AND PUSH1 0x6 DUP2 SWAP1 SSTORE POP POP POP POP JUMP JUMPDEST PUSH2 0x19E6 PUSH2 0x2067 JUMP JUMPDEST PUSH2 0x19EE PUSH2 0x20AB JUMP JUMPDEST CALLER PUSH20 0xFFFFFFFFFFFFFFFFFFFFFFFFFFFFFFFFFFFFFFFF AND DUP2 PUSH20 0xFFFFFFFFFFFFFFFFFFFFFFFFFFFFFFFFFFFFFFFF AND EQ PUSH2 0x1A5C JUMPI PUSH1 0x40 MLOAD PUSH32 0x8C379A000000000000000000000000000000000000000000000000000000000 DUP2 MSTORE PUSH1 0x4 ADD PUSH2 0x1A53 SWAP1 PUSH2 0x2AD7 JUMP JUMPDEST PUSH1 0x40 MLOAD DUP1 SWAP2 SUB SWAP1 REVERT JUMPDEST PUSH2 0x1A64 PUSH2 0xD75 JUMP JUMPDEST PUSH2 0x1A9A JUMPI PUSH1 0x40 MLOAD PUSH32 0x445DCE4C00000000000000000000000000000000000000000000000000000000 DUP2 MSTORE PUSH1 0x4 ADD PUSH1 0x40 MLOAD DUP1 SWAP2 SUB SWAP1 REVERT JUMPDEST PUSH0 PUSH20 0xFFFFFFFFFFFFFFFFFFFFFFFFFFFFFFFFFFFFFFFF AND DUP2 PUSH20 0xFFFFFFFFFFFFFFFFFFFFFFFFFFFFFFFFFFFFFFFF AND SUB PUSH2 0x1AFF JUMPI PUSH1 0x40 MLOAD PUSH32 0xD92E233D00000000000000000000000000000000000000000000000000000000 DUP2 MSTORE PUSH1 0x4 ADD PUSH1 0x40 MLOAD DUP1 SWAP2 SUB SWAP1 REVERT JUMPDEST PUSH0 CALLVALUE SUB PUSH2 0x1B38 JUMPI PUSH1 0x40 MLOAD PUSH32 0x8D8F5CDC00000000000000000000000000000000000000000000000000000000 DUP2 MSTORE PUSH1 0x4 ADD PUSH1 0x40 MLOAD DUP1 SWAP2 SUB SWAP1 REVERT JUMPDEST PUSH32 0x0 CALLVALUE PUSH1 0x9 SLOAD PUSH2 0x1B67 SWAP2 SWAP1 PUSH2 0x2AF5 JUMP JUMPDEST GT ISZERO PUSH2 0x1B9F JUMPI PUSH1 0x40 MLOAD PUSH32 0xA4875A4900000000000000000000000000000000000000000000000000000000 DUP2 MSTORE PUSH1 0x4 ADD PUSH1 0x40 MLOAD DUP1 SWAP2 SUB SWAP1 REVERT JUMPDEST PUSH0 CALLVALUE PUSH1 0xB PUSH0 CALLER PUSH20 0xFFFFFFFFFFFFFFFFFFFFFFFFFFFFFFFFFFFFFFFF AND PUSH20 0xFFFFFFFFFFFFFFFFFFFFFFFFFFFFFFFFFFFFFFFF AND DUP2 MSTORE PUSH1 0x20 ADD SWAP1 DUP2 MSTORE PUSH1 0x20 ADD PUSH0 KECCAK256 SLOAD PUSH2 0x1BE9 SWAP2 SWAP1 PUSH2 0x2AF5 JUMP JUMPDEST SWAP1 POP PUSH1 0x7 SLOAD DUP2 LT DUP1 PUSH2 0x1BFC JUMPI POP PUSH1 0x8 SLOAD DUP2 GT JUMPDEST ISZERO PUSH2 0x1C33 JUMPI PUSH1 0x40 MLOAD PUSH32 0x8D8F5CDC00000000000000000000000000000000000000000000000000000000 DUP2 MSTORE PUSH1 0x4 ADD PUSH1 0x40 MLOAD DUP1 SWAP2 SUB SWAP1 REVERT JUMPDEST PUSH0 PUSH8 0xDE0B6B3A7640000 PUSH1 0x4 SLOAD CALLVALUE PUSH2 0x1C4B SWAP2 SWAP1 PUSH2 0x2800 JUMP JUMPDEST PUSH2 0x1C55 SWAP2 SWAP1 PUSH2 0x286E JUMP JUMPDEST SWAP1 POP CALLVALUE PUSH1 0x9 PUSH0 DUP3 DUP3 SLOAD PUSH2 0x1C68 SWAP2 SWAP1 PUSH2 0x2AF5 JUMP JUMPDEST SWAP3 POP POP DUP2 SWAP1 SSTORE POP DUP1 PUSH1 0xA PUSH0 DUP3 DUP3 SLOAD PUSH2 0x1C80 SWAP2 SWAP1 PUSH2 0x2AF5 JUMP JUMPDEST SWAP3 POP POP DUP2 SWAP1 SSTORE POP DUP2 PUSH1 0xB PUSH0 CALLER PUSH20 0xFFFFFFFFFFFFFFFFFFFFFFFFFFFFFFFFFFFFFFFF AND PUSH20 0xFFFFFFFFFFFFFFFFFFFFFFFFFFFFFFFFFFFFFFFF AND DUP2 MSTORE PUSH1 0x20 ADD SWAP1 DUP2 MSTORE PUSH1 0x20 ADD PUSH0 KECCAK256 DUP2 SWAP1 SSTORE POP DUP1 PUSH1 0xC PUSH0 DUP6 PUSH20 0xFFFFFFFFFFFFFFFFFFFFFFFFFFFFFFFFFFFFFFFF AND PUSH20 0xFFFFFFFFFFFFFFFFFFFFFFFFFFFFFFFFFFFFFFFF AND DUP2 MSTORE PUSH1 0x20 ADD SWAP1 DUP2 MSTORE PUSH1 0x20 ADD PUSH0 KECCAK256 PUSH0 DUP3 DUP3 SLOAD PUSH2 0x1D15 SWAP2 SWAP1 PUSH2 0x2AF5 JUMP JUMPDEST SWAP3 POP POP DUP2 SWAP1 SSTORE POP DUP3 PUSH20 0xFFFFFFFFFFFFFFFFFFFFFFFFFFFFFFFFFFFFFFFF AND CALLER PUSH20 0xFFFFFFFFFFFFFFFFFFFFFFFFFFFFFFFFFFFFFFFF AND PUSH32 0x6FAF93231A456E552DBC9961F58D9713EE4F2E69D15F1975B050EF0911053A7B CALLVALUE DUP5 PUSH1 0x40 MLOAD PUSH2 0x1D7B SWAP3 SWAP2 SWAP1 PUSH2 0x2703 JUMP JUMPDEST PUSH1 0x40 MLOAD DUP1 SWAP2 SUB SWAP1 LOG3 POP POP PUSH2 0x1D8D PUSH2 0x20EC JUMP JUMPDEST POP JUMP JUMPDEST PUSH1 0xE PUSH1 0x1 SWAP1 SLOAD SWAP1 PUSH2 0x100 EXP SWAP1 DIV PUSH1 0xFF AND DUP2 JUMP JUMPDEST PUSH32 0x0 DUP2 JUMP JUMPDEST PUSH32 0x0 DUP2 JUMP JUMPDEST PUSH32 0x0 DUP2 JUMP JUMPDEST PUSH0 PUSH32 0x1FFC9A700000000000000000000000000000000000000000000000000000000 PUSH28 0xFFFFFFFFFFFFFFFFFFFFFFFFFFFFFFFFFFFFFFFFFFFFFFFFFFFFFFFF NOT AND DUP3 PUSH28 0xFFFFFFFFFFFFFFFFFFFFFFFFFFFFFFFFFFFFFFFFFFFFFFFFFFFFFFFF NOT AND EQ SWAP1 POP SWAP2 SWAP1 POP JUMP JUMPDEST PUSH2 0x1E89 DUP2 PUSH2 0x1E84 PUSH2 0x1F76 JUMP JUMPDEST PUSH2 0x21B7 JUMP JUMPDEST POP JUMP JUMPDEST PUSH0 PUSH2 0x1E97 DUP4 DUP4 PUSH2 0xFFE JUMP JUMPDEST PUSH2 0x1F6C JUMPI PUSH1 0x1 PUSH1 0x2 PUSH0 DUP6 DUP2 MSTORE PUSH1 0x20 ADD SWAP1 DUP2 MSTORE PUSH1 0x20 ADD PUSH0 KECCAK256 PUSH0 ADD PUSH0 DUP5 PUSH20 0xFFFFFFFFFFFFFFFFFFFFFFFFFFFFFFFFFFFFFFFF AND PUSH20 0xFFFFFFFFFFFFFFFFFFFFFFFFFFFFFFFFFFFFFFFF AND DUP2 MSTORE PUSH1 0x20 ADD SWAP1 DUP2 MSTORE PUSH1 0x20 ADD PUSH0 KECCAK256 PUSH0 PUSH2 0x100 EXP DUP2 SLOAD DUP2 PUSH1 0xFF MUL NOT AND SWAP1 DUP4 ISZERO ISZERO MUL OR SWAP1 SSTORE POP PUSH2 0x1F09 PUSH2 0x1F76 JUMP JUMPDEST PUSH20 0xFFFFFFFFFFFFFFFFFFFFFFFFFFFFFFFFFFFFFFFF AND DUP3 PUSH20 0xFFFFFFFFFFFFFFFFFFFFFFFFFFFFFFFFFFFFFFFF AND DUP5 PUSH32 0x2F8788117E7EFF1D82E926EC794901D17C78024A50270940304540A733656F0D PUSH1 0x40 MLOAD PUSH1 0x40 MLOAD DUP1 SWAP2 SUB SWAP1 LOG4 PUSH1 0x1 SWAP1 POP PUSH2 0x1F70 JUMP JUMPDEST PUSH0 SWAP1 POP JUMPDEST SWAP3 SWAP2 POP POP JUMP JUMPDEST PUSH0 CALLER SWAP1 POP SWAP1 JUMP JUMPDEST PUSH0 PUSH2 0x1F88 DUP4 DUP4 PUSH2 0xFFE JUMP JUMPDEST ISZERO PUSH2 0x205D JUMPI PUSH0 PUSH1 0x2 PUSH0 DUP6 DUP2 MSTORE PUSH1 0x20 ADD SWAP1 DUP2 MSTORE PUSH1 0x20 ADD PUSH0 KECCAK256 PUSH0 ADD PUSH0 DUP5 PUSH20 0xFFFFFFFFFFFFFFFFFFFFFFFFFFFFFFFFFFFFFFFF AND PUSH20 0xFFFFFFFFFFFFFFFFFFFFFFFFFFFFFFFFFFFFFFFF AND DUP2 MSTORE PUSH1 0x20 ADD SWAP1 DUP2 MSTORE PUSH1 0x20 ADD PUSH0 KECCAK256 PUSH0 PUSH2 0x100 EXP DUP2 SLOAD DUP2 PUSH1 0xFF MUL NOT AND SWAP1 DUP4 ISZERO ISZERO MUL OR SWAP1 SSTORE POP PUSH2 0x1FFA PUSH2 0x1F76 JUMP JUMPDEST PUSH20 0xFFFFFFFFFFFFFFFFFFFFFFFFFFFFFFFFFFFFFFFF AND DUP3 PUSH20 0xFFFFFFFFFFFFFFFFFFFFFFFFFFFFFFFFFFFFFFFF AND DUP5 PUSH32 0xF6391F5C32D9C69D2A47EA670B442974B53935D1EDC7FD64EB21E047A839171B PUSH1 0x40 MLOAD PUSH1 0x40 MLOAD DUP1 SWAP2 SUB SWAP1 LOG4 PUSH1 0x1 SWAP1 POP PUSH2 0x2061 JUMP JUMPDEST PUSH0 SWAP1 POP JUMPDEST SWAP3 SWAP2 POP POP JUMP JUMPDEST PUSH1 0x2 PUSH0 SLOAD SUB PUSH2 0x20A2 JUMPI PUSH1 0x40 MLOAD PUSH32 0x3EE5AEB500000000000000000000000000000000000000000000000000000000 DUP2 MSTORE PUSH1 0x4 ADD PUSH1 0x40 MLOAD DUP1 SWAP2 SUB SWAP1 REVERT JUMPDEST PUSH1 0x2 PUSH0 DUP2 SWAP1 SSTORE POP JUMP JUMPDEST PUSH2 0x20B3 PUSH2 0xF8A JUMP JUMPDEST ISZERO PUSH2 0x20EA JUMPI PUSH1 0x40 MLOAD PUSH32 0xD93C066500000000000000000000000000000000000000000000000000000000 DUP2 MSTORE PUSH1 0x4 ADD PUSH1 0x40 MLOAD DUP1 SWAP2 SUB SWAP1 REVERT JUMPDEST JUMP JUMPDEST PUSH1 0x1 PUSH0 DUP2 SWAP1 SSTORE POP JUMP JUMPDEST PUSH2 0x20FD PUSH2 0x2208 JUMP JUMPDEST PUSH0 PUSH1 0x1 PUSH0 PUSH2 0x100 EXP DUP2 SLOAD DUP2 PUSH1 0xFF MUL NOT AND SWAP1 DUP4 ISZERO ISZERO MUL OR SWAP1 SSTORE POP PUSH32 0x5DB9EE0A495BF2E6FF9C91A7834C1BA4FDD244A5E8AA4E537BD38AEAE4B073AA PUSH2 0x213F PUSH2 0x1F76 JUMP JUMPDEST PUSH1 0x40 MLOAD PUSH2 0x214C SWAP2 SWAP1 PUSH2 0x25BD JUMP JUMPDEST PUSH1 0x40 MLOAD DUP1 SWAP2 SUB SWAP1 LOG1 JUMP JUMPDEST PUSH2 0x215E PUSH2 0x20AB JUMP JUMPDEST PUSH1 0x1 DUP1 PUSH0 PUSH2 0x100 EXP DUP2 SLOAD DUP2 PUSH1 0xFF MUL NOT AND SWAP1 DUP4 ISZERO ISZERO MUL OR SWAP1 SSTORE POP PUSH32 0x62E78CEA01BEE320CD4E420270B5EA74000D11B0C9F74754EBDBFC544B05A258 PUSH2 0x21A0 PUSH2 0x1F76 JUMP JUMPDEST PUSH1 0x40 MLOAD PUSH2 0x21AD SWAP2 SWAP1 PUSH2 0x25BD JUMP JUMPDEST PUSH1 0x40 MLOAD DUP1 SWAP2 SUB SWAP1 LOG1 JUMP JUMPDEST PUSH2 0x21C1 DUP3 DUP3 PUSH2 0xFFE JUMP JUMPDEST PUSH2 0x2204 JUMPI DUP1 DUP3 PUSH1 0x40 MLOAD PUSH32 0xE2517D3F00000000000000000000000000000000000000000000000000000000 DUP2 MSTORE PUSH1 0x4 ADD PUSH2 0x21FB SWAP3 SWAP2 SWAP1 PUSH2 0x2B28 JUMP JUMPDEST PUSH1 0x40 MLOAD DUP1 SWAP2 SUB SWAP1 REVERT JUMPDEST POP POP JUMP JUMPDEST PUSH2 0x2210 PUSH2 0xF8A JUMP JUMPDEST PUSH2 0x2246 JUMPI PUSH1 0x40 MLOAD PUSH32 0x8DFC202B00000000000000000000000000000000000000000000000000000000 DUP2 MSTORE PUSH1 0x4 ADD PUSH1 0x40 MLOAD DUP1 SWAP2 SUB SWAP1 REVERT JUMPDEST JUMP JUMPDEST PUSH0 DUP3 DUP3 MSTORE PUSH1 0x20 DUP3 ADD SWAP1 POP SWAP3 SWAP2 POP POP JUMP JUMPDEST PUSH32 0x55736520627579546F6B656E7328290000000000000000000000000000000000 PUSH0 DUP3 ADD MSTORE POP JUMP JUMPDEST PUSH0 PUSH2 0x228C PUSH1 0xF DUP4 PUSH2 0x2248 JUMP JUMPDEST SWAP2 POP PUSH2 0x2297 DUP3 PUSH2 0x2258 JUMP JUMPDEST PUSH1 0x20 DUP3 ADD SWAP1 POP SWAP2 SWAP1 POP JUMP JUMPDEST PUSH0 PUSH1 0x20 DUP3 ADD SWAP1 POP DUP2 DUP2 SUB PUSH0 DUP4 ADD MSTORE PUSH2 0x22B9 DUP2 PUSH2 0x2280 JUMP JUMPDEST SWAP1 POP SWAP2 SWAP1 POP JUMP JUMPDEST PUSH32 0x496E76616C69642063616C6C0000000000000000000000000000000000000000 PUSH0 DUP3 ADD MSTORE POP JUMP JUMPDEST PUSH0 PUSH2 0x22F4 PUSH1 0xC DUP4 PUSH2 0x2248 JUMP JUMPDEST SWAP2 POP PUSH2 0x22FF DUP3 PUSH2 0x22C0 JUMP JUMPDEST PUSH1 0x20 DUP3 ADD SWAP1 POP SWAP2 SWAP1 POP JUMP JUMPDEST PUSH0 PUSH1 0x20 DUP3 ADD SWAP1 POP DUP2 DUP2 SUB PUSH0 DUP4 ADD MSTORE PUSH2 0x2321 DUP2 PUSH2 0x22E8 JUMP JUMPDEST SWAP1 POP SWAP2 SWAP1 POP JUMP JUMPDEST PUSH0 PUSH0 REVERT JUMPDEST PUSH0 PUSH32 0xFFFFFFFF00000000000000000000000000000000000000000000000000000000 DUP3 AND SWAP1 POP SWAP2 SWAP1 POP JUMP JUMPDEST PUSH2 0x2360 DUP2 PUSH2 0x232C JUMP JUMPDEST DUP2 EQ PUSH2 0x236A JUMPI PUSH0 PUSH0 REVERT JUMPDEST POP JUMP JUMPDEST PUSH0 DUP2 CALLDATALOAD SWAP1 POP PUSH2 0x237B DUP2 PUSH2 0x2357 JUMP JUMPDEST SWAP3 SWAP2 POP POP JUMP JUMPDEST PUSH0 PUSH1 0x20 DUP3 DUP5 SUB SLT ISZERO PUSH2 0x2396 JUMPI PUSH2 0x2395 PUSH2 0x2328 JUMP JUMPDEST JUMPDEST PUSH0 PUSH2 0x23A3 DUP5 DUP3 DUP6 ADD PUSH2 0x236D JUMP JUMPDEST SWAP2 POP POP SWAP3 SWAP2 POP POP JUMP JUMPDEST PUSH0 DUP2 ISZERO ISZERO SWAP1 POP SWAP2 SWAP1 POP JUMP JUMPDEST PUSH2 0x23C0 DUP2 PUSH2 0x23AC JUMP JUMPDEST DUP3 MSTORE POP POP JUMP JUMPDEST PUSH0 PUSH1 0x20 DUP3 ADD SWAP1 POP PUSH2 0x23D9 PUSH0 DUP4 ADD DUP5 PUSH2 0x23B7 JUMP JUMPDEST SWAP3 SWAP2 POP POP JUMP JUMPDEST PUSH0 DUP2 SWAP1 POP SWAP2 SWAP1 POP JUMP JUMPDEST PUSH2 0x23F1 DUP2 PUSH2 0x23DF JUMP JUMPDEST DUP2 EQ PUSH2 0x23FB JUMPI PUSH0 PUSH0 REVERT JUMPDEST POP JUMP JUMPDEST PUSH0 DUP2 CALLDATALOAD SWAP1 POP PUSH2 0x240C DUP2 PUSH2 0x23E8 JUMP JUMPDEST SWAP3 SWAP2 POP POP JUMP JUMPDEST PUSH0 PUSH1 0x20 DUP3 DUP5 SUB SLT ISZERO PUSH2 0x2427 JUMPI PUSH2 0x2426 PUSH2 0x2328 JUMP JUMPDEST JUMPDEST PUSH0 PUSH2 0x2434 DUP5 DUP3 DUP6 ADD PUSH2 0x23FE JUMP JUMPDEST SWAP2 POP POP SWAP3 SWAP2 POP POP JUMP JUMPDEST PUSH2 0x2446 DUP2 PUSH2 0x23DF JUMP JUMPDEST DUP3 MSTORE POP POP JUMP JUMPDEST PUSH0 PUSH1 0x20 DUP3 ADD SWAP1 POP PUSH2 0x245F PUSH0 DUP4 ADD DUP5 PUSH2 0x243D JUMP JUMPDEST SWAP3 SWAP2 POP POP JUMP JUMPDEST PUSH0 DUP2 SWAP1 POP SWAP2 SWAP1 POP JUMP JUMPDEST PUSH2 0x2477 DUP2 PUSH2 0x2465 JUMP JUMPDEST DUP3 MSTORE POP POP JUMP JUMPDEST PUSH0 PUSH1 0x20 DUP3 ADD SWAP1 POP PUSH2 0x2490 PUSH0 DUP4 ADD DUP5 PUSH2 0x246E JUMP JUMPDEST SWAP3 SWAP2 POP POP JUMP JUMPDEST PUSH0 PUSH20 0xFFFFFFFFFFFFFFFFFFFFFFFFFFFFFFFFFFFFFFFF DUP3 AND SWAP1 POP SWAP2 SWAP1 POP JUMP JUMPDEST PUSH0 PUSH2 0x24BF DUP3 PUSH2 0x2496 JUMP JUMPDEST SWAP1 POP SWAP2 SWAP1 POP JUMP JUMPDEST PUSH2 0x24CF DUP2 PUSH2 0x24B5 JUMP JUMPDEST DUP2 EQ PUSH2 0x24D9 JUMPI PUSH0 PUSH0 REVERT JUMPDEST POP JUMP JUMPDEST PUSH0 DUP2 CALLDATALOAD SWAP1 POP PUSH2 0x24EA DUP2 PUSH2 0x24C6 JUMP JUMPDEST SWAP3 SWAP2 POP POP JUMP JUMPDEST PUSH0 PUSH0 PUSH1 0x40 DUP4 DUP6 SUB SLT ISZERO PUSH2 0x2506 JUMPI PUSH2 0x2505 PUSH2 0x2328 JUMP JUMPDEST JUMPDEST PUSH0 PUSH2 0x2513 DUP6 DUP3 DUP7 ADD PUSH2 0x23FE JUMP JUMPDEST SWAP3 POP POP PUSH1 0x20 PUSH2 0x2524 DUP6 DUP3 DUP7 ADD PUSH2 0x24DC JUMP JUMPDEST SWAP2 POP POP SWAP3 POP SWAP3 SWAP1 POP JUMP JUMPDEST PUSH2 0x2537 DUP2 PUSH2 0x2465 JUMP JUMPDEST DUP2 EQ PUSH2 0x2541 JUMPI PUSH0 PUSH0 REVERT JUMPDEST POP JUMP JUMPDEST PUSH0 DUP2 CALLDATALOAD SWAP1 POP PUSH2 0x2552 DUP2 PUSH2 0x252E JUMP JUMPDEST SWAP3 SWAP2 POP POP JUMP JUMPDEST PUSH0 PUSH1 0x20 DUP3 DUP5 SUB SLT ISZERO PUSH2 0x256D JUMPI PUSH2 0x256C PUSH2 0x2328 JUMP JUMPDEST JUMPDEST PUSH0 PUSH2 0x257A DUP5 DUP3 DUP6 ADD PUSH2 0x2544 JUMP JUMPDEST SWAP2 POP POP SWAP3 SWAP2 POP POP JUMP JUMPDEST PUSH0 PUSH1 0x20 DUP3 DUP5 SUB SLT ISZERO PUSH2 0x2598 JUMPI PUSH2 0x2597 PUSH2 0x2328 JUMP JUMPDEST JUMPDEST PUSH0 PUSH2 0x25A5 DUP5 DUP3 DUP6 ADD PUSH2 0x24DC JUMP JUMPDEST SWAP2 POP POP SWAP3 SWAP2 POP POP JUMP JUMPDEST PUSH2 0x25B7 DUP2 PUSH2 0x24B5 JUMP JUMPDEST DUP3 MSTORE POP POP JUMP JUMPDEST PUSH0 PUSH1 0x20 DUP3 ADD SWAP1 POP PUSH2 0x25D0 PUSH0 DUP4 ADD DUP5 PUSH2 0x25AE JUMP JUMPDEST SWAP3 SWAP2 POP POP JUMP JUMPDEST PUSH0 PUSH0 PUSH1 0x40 DUP4 DUP6 SUB SLT ISZERO PUSH2 0x25EC JUMPI PUSH2 0x25EB PUSH2 0x2328 JUMP JUMPDEST JUMPDEST PUSH0 PUSH2 0x25F9 DUP6 DUP3 DUP7 ADD PUSH2 0x2544 JUMP JUMPDEST SWAP3 POP POP PUSH1 0x20 PUSH2 0x260A DUP6 DUP3 DUP7 ADD PUSH2 0x2544 JUMP JUMPDEST SWAP2 POP POP SWAP3 POP SWAP3 SWAP1 POP JUMP JUMPDEST PUSH0 PUSH8 0xFFFFFFFFFFFFFFFF DUP3 AND SWAP1 POP SWAP2 SWAP1 POP JUMP JUMPDEST PUSH2 0x2630 DUP2 PUSH2 0x2614 JUMP JUMPDEST DUP2 EQ PUSH2 0x263A JUMPI PUSH0 PUSH0 REVERT JUMPDEST POP JUMP JUMPDEST PUSH0 DUP2 CALLDATALOAD SWAP1 POP PUSH2 0x264B DUP2 PUSH2 0x2627 JUMP JUMPDEST SWAP3 SWAP2 POP POP JUMP JUMPDEST PUSH0 PUSH0 PUSH1 0x40 DUP4 DUP6 SUB SLT ISZERO PUSH2 0x2667 JUMPI PUSH2 0x2666 PUSH2 0x2328 JUMP JUMPDEST JUMPDEST PUSH0 PUSH2 0x2674 DUP6 DUP3 DUP7 ADD PUSH2 0x263D JUMP JUMPDEST SWAP3 POP POP PUSH1 0x20 PUSH2 0x2685 DUP6 DUP3 DUP7 ADD PUSH2 0x263D JUMP JUMPDEST SWAP2 POP POP SWAP3 POP SWAP3 SWAP1 POP JUMP JUMPDEST PUSH0 DUP2 SWAP1 POP SWAP2 SWAP1 POP JUMP JUMPDEST PUSH0 PUSH2 0x26B2 PUSH2 0x26AD PUSH2 0x26A8 DUP5 PUSH2 0x2496 JUMP JUMPDEST PUSH2 0x268F JUMP JUMPDEST PUSH2 0x2496 JUMP JUMPDEST SWAP1 POP SWAP2 SWAP1 POP JUMP JUMPDEST PUSH0 PUSH2 0x26C3 DUP3 PUSH2 0x2698 JUMP JUMPDEST SWAP1 POP SWAP2 SWAP1 POP JUMP JUMPDEST PUSH0 PUSH2 0x26D4 DUP3 PUSH2 0x26B9 JUMP JUMPDEST SWAP1 POP SWAP2 SWAP1 POP JUMP JUMPDEST PUSH2 0x26E4 DUP2 PUSH2 0x26CA JUMP JUMPDEST DUP3 MSTORE POP POP JUMP JUMPDEST PUSH0 PUSH1 0x20 DUP3 ADD SWAP1 POP PUSH2 0x26FD PUSH0 DUP4 ADD DUP5 PUSH2 0x26DB JUMP JUMPDEST SWAP3 SWAP2 POP POP JUMP JUMPDEST PUSH0 PUSH1 0x40 DUP3 ADD SWAP1 POP PUSH2 0x2716 PUSH0 DUP4 ADD DUP6 PUSH2 0x246E JUMP JUMPDEST PUSH2 0x2723 PUSH1 0x20 DUP4 ADD DUP5 PUSH2 0x246E JUMP JUMPDEST SWAP4 SWAP3 POP POP POP JUMP JUMPDEST PUSH0 DUP2 SWAP1 POP SWAP3 SWAP2 POP POP JUMP JUMPDEST POP JUMP JUMPDEST PUSH0 PUSH2 0x2742 PUSH0 DUP4 PUSH2 0x272A JUMP JUMPDEST SWAP2 POP PUSH2 0x274D DUP3 PUSH2 0x2734 JUMP JUMPDEST PUSH0 DUP3 ADD SWAP1 POP SWAP2 SWAP1 POP JUMP JUMPDEST PUSH0 PUSH2 0x2761 DUP3 PUSH2 0x2737 JUMP JUMPDEST SWAP2 POP DUP2 SWAP1 POP SWAP2 SWAP1 POP JUMP JUMPDEST PUSH32 0x526566756E64207472616E73666572206661696C656400000000000000000000 PUSH0 DUP3 ADD MSTORE POP JUMP JUMPDEST PUSH0 PUSH2 0x279F PUSH1 0x16 DUP4 PUSH2 0x2248 JUMP JUMPDEST SWAP2 POP PUSH2 0x27AA DUP3 PUSH2 0x276B JUMP JUMPDEST PUSH1 0x20 DUP3 ADD SWAP1 POP SWAP2 SWAP1 POP JUMP JUMPDEST PUSH0 PUSH1 0x20 DUP3 ADD SWAP1 POP DUP2 DUP2 SUB PUSH0 DUP4 ADD MSTORE PUSH2 0x27CC DUP2 PUSH2 0x2793 JUMP JUMPDEST SWAP1 POP SWAP2 SWAP1 POP JUMP JUMPDEST PUSH32 0x4E487B7100000000000000000000000000000000000000000000000000000000 PUSH0 MSTORE PUSH1 0x11 PUSH1 0x4 MSTORE PUSH1 0x24 PUSH0 REVERT JUMPDEST PUSH0 PUSH2 0x280A DUP3 PUSH2 0x2465 JUMP JUMPDEST SWAP2 POP PUSH2 0x2815 DUP4 PUSH2 0x2465 JUMP JUMPDEST SWAP3 POP DUP3 DUP3 MUL PUSH2 0x2823 DUP2 PUSH2 0x2465 JUMP JUMPDEST SWAP2 POP DUP3 DUP3 DIV DUP5 EQ DUP4 ISZERO OR PUSH2 0x283A JUMPI PUSH2 0x2839 PUSH2 0x27D3 JUMP JUMPDEST JUMPDEST POP SWAP3 SWAP2 POP POP JUMP JUMPDEST PUSH32 0x4E487B7100000000000000000000000000000000000000000000000000000000 PUSH0 MSTORE PUSH1 0x12 PUSH1 0x4 MSTORE PUSH1 0x24 PUSH0 REVERT JUMPDEST PUSH0 PUSH2 0x2878 DUP3 PUSH2 0x2465 JUMP JUMPDEST SWAP2 POP PUSH2 0x2883 DUP4 PUSH2 0x2465 JUMP JUMPDEST SWAP3 POP DUP3 PUSH2 0x2893 JUMPI PUSH2 0x2892 PUSH2 0x2841 JUMP JUMPDEST JUMPDEST DUP3 DUP3 DIV SWAP1 POP SWAP3 SWAP2 POP POP JUMP JUMPDEST PUSH0 PUSH2 0x28A8 DUP3 PUSH2 0x2465 JUMP JUMPDEST SWAP2 POP PUSH2 0x28B3 DUP4 PUSH2 0x2465 JUMP JUMPDEST SWAP3 POP DUP3 DUP3 SUB SWAP1 POP DUP2 DUP2 GT ISZERO PUSH2 0x28CB JUMPI PUSH2 0x28CA PUSH2 0x27D3 JUMP JUMPDEST JUMPDEST SWAP3 SWAP2 POP POP JUMP JUMPDEST PUSH0 PUSH1 0x40 DUP3 ADD SWAP1 POP PUSH2 0x28E4 PUSH0 DUP4 ADD DUP6 PUSH2 0x25AE JUMP JUMPDEST PUSH2 0x28F1 PUSH1 0x20 DUP4 ADD DUP5 PUSH2 0x246E JUMP JUMPDEST SWAP4 SWAP3 POP POP POP JUMP JUMPDEST PUSH32 0x6C696D6974730000000000000000000000000000000000000000000000000000 PUSH0 DUP3 ADD MSTORE POP JUMP JUMPDEST PUSH0 PUSH2 0x292C PUSH1 0x6 DUP4 PUSH2 0x2248 JUMP JUMPDEST SWAP2 POP PUSH2 0x2937 DUP3 PUSH2 0x28F8 JUMP JUMPDEST PUSH1 0x20 DUP3 ADD SWAP1 POP SWAP2 SWAP1 POP JUMP JUMPDEST PUSH0 PUSH1 0x20 DUP3 ADD SWAP1 POP DUP2 DUP2 SUB PUSH0 DUP4 ADD MSTORE PUSH2 0x2959 DUP2 PUSH2 0x2920 JUMP JUMPDEST SWAP1 POP SWAP2 SWAP1 POP JUMP JUMPDEST PUSH0 PUSH1 0x40 DUP3 ADD SWAP1 POP PUSH2 0x2973 PUSH0 DUP4 ADD DUP6 PUSH2 0x25AE JUMP JUMPDEST PUSH2 0x2980 PUSH1 0x20 DUP4 ADD DUP5 PUSH2 0x25AE JUMP JUMPDEST SWAP4 SWAP3 POP POP POP JUMP JUMPDEST PUSH32 0x5769746864726177206661696C65640000000000000000000000000000000000 PUSH0 DUP3 ADD MSTORE POP JUMP JUMPDEST PUSH0 PUSH2 0x29BB PUSH1 0xF DUP4 PUSH2 0x2248 JUMP JUMPDEST SWAP2 POP PUSH2 0x29C6 DUP3 PUSH2 0x2987 JUMP JUMPDEST PUSH1 0x20 DUP3 ADD SWAP1 POP SWAP2 SWAP1 POP JUMP JUMPDEST PUSH0 PUSH1 0x20 DUP3 ADD SWAP1 POP DUP2 DUP2 SUB PUSH0 DUP4 ADD MSTORE PUSH2 0x29E8 DUP2 PUSH2 0x29AF JUMP JUMPDEST SWAP1 POP SWAP2 SWAP1 POP JUMP JUMPDEST PUSH32 0x74696D6500000000000000000000000000000000000000000000000000000000 PUSH0 DUP3 ADD MSTORE POP JUMP JUMPDEST PUSH0 PUSH2 0x2A23 PUSH1 0x4 DUP4 PUSH2 0x2248 JUMP JUMPDEST SWAP2 POP PUSH2 0x2A2E DUP3 PUSH2 0x29EF JUMP JUMPDEST PUSH1 0x20 DUP3 ADD SWAP1 POP SWAP2 SWAP1 POP JUMP JUMPDEST PUSH0 PUSH1 0x20 DUP3 ADD SWAP1 POP DUP2 DUP2 SUB PUSH0 DUP4 ADD MSTORE PUSH2 0x2A50 DUP2 PUSH2 0x2A17 JUMP JUMPDEST SWAP1 POP SWAP2 SWAP1 POP JUMP JUMPDEST PUSH2 0x2A60 DUP2 PUSH2 0x2614 JUMP JUMPDEST DUP3 MSTORE POP POP JUMP JUMPDEST PUSH0 PUSH1 0x40 DUP3 ADD SWAP1 POP PUSH2 0x2A79 PUSH0 DUP4 ADD DUP6 PUSH2 0x2A57 JUMP JUMPDEST PUSH2 0x2A86 PUSH1 0x20 DUP4 ADD DUP5 PUSH2 0x2A57 JUMP JUMPDEST SWAP4 SWAP3 POP POP POP JUMP JUMPDEST PUSH32 0x4F6E6C792073656C662D62757900000000000000000000000000000000000000 PUSH0 DUP3 ADD MSTORE POP JUMP JUMPDEST PUSH0 PUSH2 0x2AC1 PUSH1 0xD DUP4 PUSH2 0x2248 JUMP JUMPDEST SWAP2 POP PUSH2 0x2ACC DUP3 PUSH2 0x2A8D JUMP JUMPDEST PUSH1 0x20 DUP3 ADD SWAP1 POP SWAP2 SWAP1 POP JUMP JUMPDEST PUSH0 PUSH1 0x20 DUP3 ADD SWAP1 POP DUP2 DUP2 SUB PUSH0 DUP4 ADD MSTORE PUSH2 0x2AEE DUP2 PUSH2 0x2AB5 JUMP JUMPDEST SWAP1 POP SWAP2 SWAP1 POP JUMP JUMPDEST PUSH0 PUSH2 0x2AFF DUP3 PUSH2 0x2465 JUMP JUMPDEST SWAP2 POP PUSH2 0x2B0A DUP4 PUSH2 0x2465 JUMP JUMPDEST SWAP3 POP DUP3 DUP3 ADD SWAP1 POP DUP1 DUP3 GT ISZERO PUSH2 0x2B22 JUMPI PUSH2 0x2B21 PUSH2 0x27D3 JUMP JUMPDEST JUMPDEST SWAP3 SWAP2 POP POP JUMP JUMPDEST PUSH0 PUSH1 0x40 DUP3 ADD SWAP1 POP PUSH2 0x2B3B PUSH0 DUP4 ADD DUP6 PUSH2 0x25AE JUMP JUMPDEST PUSH2 0x2B48 PUSH1 0x20 DUP4 ADD DUP5 PUSH2 0x243D JUMP JUMPDEST SWAP4 SWAP3 POP POP POP JUMP INVALID LOG2 PUSH5 0x6970667358 0x22 SLT KECCAK256 CALLCODE EOFCREATE 0xC5 PUSH19 0x61D879A52A94B49EAA2B66187CD54E24E2C466 SHL SWAP8 PUSH28 0x33B1D744D28364736F6C634300081E00330000000000000000000000 "
				},
				"gasEstimates": {
					"creation": {
						"codeDepositCost": "2228200",
						"executionCost": "infinite",
						"totalCost": "infinite"
					},
					"external": {
						"": "535",
						"CONFIG_ROLE()": "437",
						"DEFAULT_ADMIN_ROLE()": "419",
						"PAUSER_ROLE()": "458",
						"allocated(address)": "2936",
						"buyTokens(address)": "infinite",
						"claimRefunds()": "infinite",
						"claimTGE()": "infinite",
						"closingTime()": "2493",
						"contributed(address)": "2848",
						"finalize()": "infinite",
						"finalized()": "2533",
						"getRoleAdmin(bytes32)": "infinite",
						"grantRole(bytes32,address)": "infinite",
						"hardCap()": "infinite",
						"hasRole(bytes32,address)": "3254",
						"isClosed()": "infinite",
						"isOpen()": "infinite",
						"maxContribution()": "2514",
						"minContribution()": "2559",
						"openingTime()": "2514",
						"pause()": "infinite",
						"paused()": "2518",
						"rate()": "2516",
						"refunding()": "2605",
						"renounceRole(bytes32,address)": "infinite",
						"revokeRole(bytes32,address)": "infinite",
						"setLimits(uint256,uint256)": "infinite",
						"setRate(uint256)": "infinite",
						"setTimes(uint64,uint64)": "infinite",
						"setWallet(address)": "infinite",
						"softCap()": "infinite",
						"supportsInterface(bytes4)": "764",
						"tgeBps()": "infinite",
						"tgeClaimableOf(address)": "infinite",
						"tgeClaimed(address)": "2913",
						"token()": "infinite",
						"tokensSold()": "2537",
						"unpause()": "infinite",
						"wallet()": "2642",
						"weiRaised()": "2537",
						"withdrawETH()": "infinite"
					}
				},
				"methodIdentifiers": {
					"CONFIG_ROLE()": "a4d19feb",
					"DEFAULT_ADMIN_ROLE()": "a217fddf",
					"PAUSER_ROLE()": "e63ab1e9",
					"allocated(address)": "4225e5bb",
					"buyTokens(address)": "ec8ac4d8",
					"claimRefunds()": "3a45e6fd",
					"claimTGE()": "9b8c1fed",
					"closingTime()": "4b6753bc",
					"contributed(address)": "995c5e9d",
					"finalize()": "4bb278f3",
					"finalized()": "b3f05b97",
					"getRoleAdmin(bytes32)": "248a9ca3",
					"grantRole(bytes32,address)": "2f2ff15d",
					"hardCap()": "fb86a404",
					"hasRole(bytes32,address)": "91d14854",
					"isClosed()": "c2b6b58c",
					"isOpen()": "47535d7b",
					"maxContribution()": "8d3d6576",
					"minContribution()": "aaffadf3",
					"openingTime()": "b7a8807c",
					"pause()": "8456cb59",
					"paused()": "5c975abb",
					"rate()": "2c4e722e",
					"refunding()": "f43e98c7",
					"renounceRole(bytes32,address)": "36568abe",
					"revokeRole(bytes32,address)": "d547741f",
					"setLimits(uint256,uint256)": "c4590d3f",
					"setRate(uint256)": "34fcf437",
					"setTimes(uint64,uint64)": "eb3b3fe6",
					"setWallet(address)": "deaa59df",
					"softCap()": "906a26e0",
					"supportsInterface(bytes4)": "01ffc9a7",
					"tgeBps()": "f49e2514",
					"tgeClaimableOf(address)": "b0178f3d",
					"tgeClaimed(address)": "be68d17a",
					"token()": "fc0c546a",
					"tokensSold()": "518ab2a8",
					"unpause()": "3f4ba83a",
					"wallet()": "521eb273",
					"weiRaised()": "4042b66f",
					"withdrawETH()": "e086e5ec"
				}
			},
			"storageLayout": {
				"storage": [
					{
						"astId": 527,
						"contract": "preventa/JFVCrowdsale.sol:JFVCrowdsale",
						"label": "_status",
						"offset": 0,
						"slot": "0",
						"type": "t_uint256"
					},
					{
						"astId": 417,
						"contract": "preventa/JFVCrowdsale.sol:JFVCrowdsale",
						"label": "_paused",
						"offset": 0,
						"slot": "1",
						"type": "t_bool"
					},
					{
						"astId": 26,
						"contract": "preventa/JFVCrowdsale.sol:JFVCrowdsale",
						"label": "_roles",
						"offset": 0,
						"slot": "2",
						"type": "t_mapping(t_bytes32,t_struct(RoleData)21_storage)"
					},
					{
						"astId": 661,
						"contract": "preventa/JFVCrowdsale.sol:JFVCrowdsale",
						"label": "wallet",
						"offset": 0,
						"slot": "3",
						"type": "t_address"
					},
					{
						"astId": 663,
						"contract": "preventa/JFVCrowdsale.sol:JFVCrowdsale",
						"label": "rate",
						"offset": 0,
						"slot": "4",
						"type": "t_uint256"
					},
					{
						"astId": 669,
						"contract": "preventa/JFVCrowdsale.sol:JFVCrowdsale",
						"label": "openingTime",
						"offset": 0,
						"slot": "5",
						"type": "t_uint256"
					},
					{
						"astId": 671,
						"contract": "preventa/JFVCrowdsale.sol:JFVCrowdsale",
						"label": "closingTime",
						"offset": 0,
						"slot": "6",
						"type": "t_uint256"
					},
					{
						"astId": 673,
						"contract": "preventa/JFVCrowdsale.sol:JFVCrowdsale",
						"label": "minContribution",
						"offset": 0,
						"slot": "7",
						"type": "t_uint256"
					},
					{
						"astId": 675,
						"contract": "preventa/JFVCrowdsale.sol:JFVCrowdsale",
						"label": "maxContribution",
						"offset": 0,
						"slot": "8",
						"type": "t_uint256"
					},
					{
						"astId": 731,
						"contract": "preventa/JFVCrowdsale.sol:JFVCrowdsale",
						"label": "weiRaised",
						"offset": 0,
						"slot": "9",
						"type": "t_uint256"
					},
					{
						"astId": 733,
						"contract": "preventa/JFVCrowdsale.sol:JFVCrowdsale",
						"label": "tokensSold",
						"offset": 0,
						"slot": "10",
						"type": "t_uint256"
					},
					{
						"astId": 737,
						"contract": "preventa/JFVCrowdsale.sol:JFVCrowdsale",
						"label": "contributed",
						"offset": 0,
						"slot": "11",
						"type": "t_mapping(t_address,t_uint256)"
					},
					{
						"astId": 741,
						"contract": "preventa/JFVCrowdsale.sol:JFVCrowdsale",
						"label": "allocated",
						"offset": 0,
						"slot": "12",
						"type": "t_mapping(t_address,t_uint256)"
					},
					{
						"astId": 745,
						"contract": "preventa/JFVCrowdsale.sol:JFVCrowdsale",
						"label": "tgeClaimed",
						"offset": 0,
						"slot": "13",
						"type": "t_mapping(t_address,t_uint256)"
					},
					{
						"astId": 747,
						"contract": "preventa/JFVCrowdsale.sol:JFVCrowdsale",
						"label": "finalized",
						"offset": 0,
						"slot": "14",
						"type": "t_bool"
					},
					{
						"astId": 749,
						"contract": "preventa/JFVCrowdsale.sol:JFVCrowdsale",
						"label": "refunding",
						"offset": 1,
						"slot": "14",
						"type": "t_bool"
					}
				],
				"types": {
					"t_address": {
						"encoding": "inplace",
						"label": "address",
						"numberOfBytes": "20"
					},
					"t_bool": {
						"encoding": "inplace",
						"label": "bool",
						"numberOfBytes": "1"
					},
					"t_bytes32": {
						"encoding": "inplace",
						"label": "bytes32",
						"numberOfBytes": "32"
					},
					"t_mapping(t_address,t_bool)": {
						"encoding": "mapping",
						"key": "t_address",
						"label": "mapping(address => bool)",
						"numberOfBytes": "32",
						"value": "t_bool"
					},
					"t_mapping(t_address,t_uint256)": {
						"encoding": "mapping",
						"key": "t_address",
						"label": "mapping(address => uint256)",
						"numberOfBytes": "32",
						"value": "t_uint256"
					},
					"t_mapping(t_bytes32,t_struct(RoleData)21_storage)": {
						"encoding": "mapping",
						"key": "t_bytes32",
						"label": "mapping(bytes32 => struct AccessControl.RoleData)",
						"numberOfBytes": "32",
						"value": "t_struct(RoleData)21_storage"
					},
					"t_struct(RoleData)21_storage": {
						"encoding": "inplace",
						"label": "struct AccessControl.RoleData",
						"members": [
							{
								"astId": 18,
								"contract": "preventa/JFVCrowdsale.sol:JFVCrowdsale",
								"label": "hasRole",
								"offset": 0,
								"slot": "0",
								"type": "t_mapping(t_address,t_bool)"
							},
							{
								"astId": 20,
								"contract": "preventa/JFVCrowdsale.sol:JFVCrowdsale",
								"label": "adminRole",
								"offset": 0,
								"slot": "1",
								"type": "t_bytes32"
							}
						],
						"numberOfBytes": "64"
					},
					"t_uint256": {
						"encoding": "inplace",
						"label": "uint256",
						"numberOfBytes": "32"
					}
				}
			},
			"userdoc": {
				"kind": "user",
				"methods": {},
				"version": 1
			}
		}
	}
}