{
	"ETH_KIPU/Register08_EjercicioResuelto.sol": {
		"RegistroConAcceso": {
			"abi": [
				{
					"inputs": [
						{
							"internalType": "string",
							"name": "valorInicial",
							"type": "string"
						}
					],
					"stateMutability": "nonpayable",
					"type": "constructor"
				},
				{
					"anonymous": false,
					"inputs": [
						{
							"indexed": false,
							"internalType": "string",
							"name": "antiguo",
							"type": "string"
						},
						{
							"indexed": false,
							"internalType": "string",
							"name": "nuevo",
							"type": "string"
						}
					],
					"name": "DataActualizada",
					"type": "event"
				},
				{
					"inputs": [
						{
							"internalType": "string",
							"name": "nuevoDato",
							"type": "string"
						}
					],
					"name": "actualizarData",
					"outputs": [],
					"stateMutability": "nonpayable",
					"type": "function"
				},
				{
					"inputs": [],
					"name": "numeroDeCambios",
					"outputs": [
						{
							"internalType": "uint256",
							"name": "",
							"type": "uint256"
						}
					],
					"stateMutability": "view",
					"type": "function"
				},
				{
					"inputs": [],
					"name": "obtenerData",
					"outputs": [
						{
							"internalType": "string",
							"name": "",
							"type": "string"
						}
					],
					"stateMutability": "view",
					"type": "function"
				},
				{
					"inputs": [],
					"name": "owner",
					"outputs": [
						{
							"internalType": "address",
							"name": "",
							"type": "address"
						}
					],
					"stateMutability": "view",
					"type": "function"
				},
				{
					"inputs": [
						{
							"internalType": "address",
							"name": "nuevoAdmin",
							"type": "address"
						}
					],
					"name": "transferirAdmin",
					"outputs": [],
					"stateMutability": "nonpayable",
					"type": "function"
				}
			],
			"devdoc": {
				"author": "Tu Nombre",
				"events": {
					"DataActualizada(string,string)": {
						"params": {
							"antiguo": "Valor antes de la actualización",
							"nuevo": "Valor después de la actualización"
						}
					}
				},
				"kind": "dev",
				"methods": {
					"actualizarData(string)": {
						"details": "Emitir el evento `DataActualizada` cuando se modifique el valor de `storedData`.Incrementar el contador de cambios después de actualizar la información.",
						"params": {
							"nuevoDato": "El nuevo dato que será almacenado."
						}
					},
					"constructor": {
						"details": "Constructor que asigna el rol de administrador al creador del contrato y establece un valor inicial para `storedData`.",
						"params": {
							"valorInicial": "El valor inicial para `storedData`."
						}
					},
					"obtenerData()": {
						"returns": {
							"_0": "El dato almacenado en la variable de estado `storedData`."
						}
					},
					"transferirAdmin(address)": {
						"details": "Solo el administrador actual puede llamar a esta función.",
						"params": {
							"nuevoAdmin": "La dirección del nuevo administrador."
						}
					}
				},
				"title": "Registro con Acceso Controlado y Eventos",
				"version": 1
			},
			"evm": {
				"assembly": "    /* \"ETH_KIPU/Register08_EjercicioResuelto.sol\":248:2580  contract RegistroConAcceso {... */\n  mstore(0x40, 0x80)\n    /* \"ETH_KIPU/Register08_EjercicioResuelto.sol\":963:1106  constructor(string memory valorInicial) {... */\n  callvalue\n  dup1\n  iszero\n  tag_1\n  jumpi\n  0x00\n  dup1\n  revert\ntag_1:\n  pop\n  mload(0x40)\n  sub(codesize, bytecodeSize)\n  dup1\n  bytecodeSize\n  dup4\n  codecopy\n  dup2\n  dup2\n  add\n  0x40\n  mstore\n  dup2\n  add\n  swap1\n  tag_2\n  swap2\n  swap1\n  tag_3\n  jump\t// in\ntag_2:\n    /* \"ETH_KIPU/Register08_EjercicioResuelto.sol\":1022:1032  msg.sender */\n  caller\n    /* \"ETH_KIPU/Register08_EjercicioResuelto.sol\":1014:1019  owner */\n  0x02\n  0x00\n    /* \"ETH_KIPU/Register08_EjercicioResuelto.sol\":1014:1032  owner = msg.sender */\n  0x0100\n  exp\n  dup2\n  sload\n  dup2\n  0xffffffffffffffffffffffffffffffffffffffff\n  mul\n  not\n  and\n  swap1\n  dup4\n  0xffffffffffffffffffffffffffffffffffffffff\n  and\n  mul\n  or\n  swap1\n  sstore\n  pop\n    /* \"ETH_KIPU/Register08_EjercicioResuelto.sol\":1056:1068  valorInicial */\n  dup1\n    /* \"ETH_KIPU/Register08_EjercicioResuelto.sol\":1043:1053  storedData */\n  0x00\n    /* \"ETH_KIPU/Register08_EjercicioResuelto.sol\":1043:1068  storedData = valorInicial */\n  swap1\n  dup2\n  tag_6\n  swap2\n  swap1\n  tag_7\n  jump\t// in\ntag_6:\n  pop\n    /* \"ETH_KIPU/Register08_EjercicioResuelto.sol\":1097:1098  0 */\n  0x00\n    /* \"ETH_KIPU/Register08_EjercicioResuelto.sol\":1079:1094  numeroDeCambios */\n  0x01\n    /* \"ETH_KIPU/Register08_EjercicioResuelto.sol\":1079:1098  numeroDeCambios = 0 */\n  dup2\n  swap1\n  sstore\n  pop\n    /* \"ETH_KIPU/Register08_EjercicioResuelto.sol\":963:1106  constructor(string memory valorInicial) {... */\n  pop\n    /* \"ETH_KIPU/Register08_EjercicioResuelto.sol\":248:2580  contract RegistroConAcceso {... */\n  jump(tag_8)\n    /* \"#utility.yul\":7:82   */\ntag_9:\n    /* \"#utility.yul\":40:46   */\n  0x00\n    /* \"#utility.yul\":73:75   */\n  0x40\n    /* \"#utility.yul\":67:76   */\n  mload\n    /* \"#utility.yul\":57:76   */\n  swap1\n  pop\n    /* \"#utility.yul\":7:82   */\n  swap1\n  jump\t// out\n    /* \"#utility.yul\":88:205   */\ntag_10:\n    /* \"#utility.yul\":197:198   */\n  0x00\n    /* \"#utility.yul\":194:195   */\n  dup1\n    /* \"#utility.yul\":187:199   */\n  revert\n    /* \"#utility.yul\":211:328   */\ntag_11:\n    /* \"#utility.yul\":320:321   */\n  0x00\n    /* \"#utility.yul\":317:318   */\n  dup1\n    /* \"#utility.yul\":310:322   */\n  revert\n    /* \"#utility.yul\":334:451   */\ntag_12:\n    /* \"#utility.yul\":443:444   */\n  0x00\n    /* \"#utility.yul\":440:441   */\n  dup1\n    /* \"#utility.yul\":433:445   */\n  revert\n    /* \"#utility.yul\":457:574   */\ntag_13:\n    /* \"#utility.yul\":566:567   */\n  0x00\n    /* \"#utility.yul\":563:564   */\n  dup1\n    /* \"#utility.yul\":556:568   */\n  revert\n    /* \"#utility.yul\":580:682   */\ntag_14:\n    /* \"#utility.yul\":621:627   */\n  0x00\n    /* \"#utility.yul\":672:674   */\n  0x1f\n    /* \"#utility.yul\":668:675   */\n  not\n    /* \"#utility.yul\":663:665   */\n  0x1f\n    /* \"#utility.yul\":656:661   */\n  dup4\n    /* \"#utility.yul\":652:666   */\n  add\n    /* \"#utility.yul\":648:676   */\n  and\n    /* \"#utility.yul\":638:676   */\n  swap1\n  pop\n    /* \"#utility.yul\":580:682   */\n  swap2\n  swap1\n  pop\n  jump\t// out\n    /* \"#utility.yul\":688:868   */\ntag_15:\n    /* \"#utility.yul\":736:813   */\n  0x4e487b7100000000000000000000000000000000000000000000000000000000\n    /* \"#utility.yul\":733:734   */\n  0x00\n    /* \"#utility.yul\":726:814   */\n  mstore\n    /* \"#utility.yul\":833:837   */\n  0x41\n    /* \"#utility.yul\":830:831   */\n  0x04\n    /* \"#utility.yul\":823:838   */\n  mstore\n    /* \"#utility.yul\":857:861   */\n  0x24\n    /* \"#utility.yul\":854:855   */\n  0x00\n    /* \"#utility.yul\":847:862   */\n  revert\n    /* \"#utility.yul\":874:1155   */\ntag_16:\n    /* \"#utility.yul\":957:984   */\n  tag_50\n    /* \"#utility.yul\":979:983   */\n  dup3\n    /* \"#utility.yul\":957:984   */\n  tag_14\n  jump\t// in\ntag_50:\n    /* \"#utility.yul\":949:955   */\n  dup2\n    /* \"#utility.yul\":945:985   */\n  add\n    /* \"#utility.yul\":1087:1093   */\n  dup2\n    /* \"#utility.yul\":1075:1085   */\n  dup2\n    /* \"#utility.yul\":1072:1094   */\n  lt\n    /* \"#utility.yul\":1051:1069   */\n  0xffffffffffffffff\n    /* \"#utility.yul\":1039:1049   */\n  dup3\n    /* \"#utility.yul\":1036:1070   */\n  gt\n    /* \"#utility.yul\":1033:1095   */\n  or\n    /* \"#utility.yul\":1030:1118   */\n  iszero\n  tag_51\n  jumpi\n    /* \"#utility.yul\":1098:1116   */\n  tag_52\n  tag_15\n  jump\t// in\ntag_52:\n    /* \"#utility.yul\":1030:1118   */\ntag_51:\n    /* \"#utility.yul\":1138:1148   */\n  dup1\n    /* \"#utility.yul\":1134:1136   */\n  0x40\n    /* \"#utility.yul\":1127:1149   */\n  mstore\n    /* \"#utility.yul\":917:1155   */\n  pop\n    /* \"#utility.yul\":874:1155   */\n  pop\n  pop\n  jump\t// out\n    /* \"#utility.yul\":1161:1290   */\ntag_17:\n    /* \"#utility.yul\":1195:1201   */\n  0x00\n    /* \"#utility.yul\":1222:1242   */\n  tag_54\n  tag_9\n  jump\t// in\ntag_54:\n    /* \"#utility.yul\":1212:1242   */\n  swap1\n  pop\n    /* \"#utility.yul\":1251:1284   */\n  tag_55\n    /* \"#utility.yul\":1279:1283   */\n  dup3\n    /* \"#utility.yul\":1271:1277   */\n  dup3\n    /* \"#utility.yul\":1251:1284   */\n  tag_16\n  jump\t// in\ntag_55:\n    /* \"#utility.yul\":1161:1290   */\n  swap2\n  swap1\n  pop\n  jump\t// out\n    /* \"#utility.yul\":1296:1604   */\ntag_18:\n    /* \"#utility.yul\":1358:1362   */\n  0x00\n    /* \"#utility.yul\":1448:1466   */\n  0xffffffffffffffff\n    /* \"#utility.yul\":1440:1446   */\n  dup3\n    /* \"#utility.yul\":1437:1467   */\n  gt\n    /* \"#utility.yul\":1434:1490   */\n  iszero\n  tag_57\n  jumpi\n    /* \"#utility.yul\":1470:1488   */\n  tag_58\n  tag_15\n  jump\t// in\ntag_58:\n    /* \"#utility.yul\":1434:1490   */\ntag_57:\n    /* \"#utility.yul\":1508:1537   */\n  tag_59\n    /* \"#utility.yul\":1530:1536   */\n  dup3\n    /* \"#utility.yul\":1508:1537   */\n  tag_14\n  jump\t// in\ntag_59:\n    /* \"#utility.yul\":1500:1537   */\n  swap1\n  pop\n    /* \"#utility.yul\":1592:1596   */\n  0x20\n    /* \"#utility.yul\":1586:1590   */\n  dup2\n    /* \"#utility.yul\":1582:1597   */\n  add\n    /* \"#utility.yul\":1574:1597   */\n  swap1\n  pop\n    /* \"#utility.yul\":1296:1604   */\n  swap2\n  swap1\n  pop\n  jump\t// out\n    /* \"#utility.yul\":1610:1856   */\ntag_19:\n    /* \"#utility.yul\":1691:1692   */\n  0x00\n    /* \"#utility.yul\":1701:1814   */\ntag_61:\n    /* \"#utility.yul\":1715:1721   */\n  dup4\n    /* \"#utility.yul\":1712:1713   */\n  dup2\n    /* \"#utility.yul\":1709:1722   */\n  lt\n    /* \"#utility.yul\":1701:1814   */\n  iszero\n  tag_63\n  jumpi\n    /* \"#utility.yul\":1800:1801   */\n  dup1\n    /* \"#utility.yul\":1795:1798   */\n  dup3\n    /* \"#utility.yul\":1791:1802   */\n  add\n    /* \"#utility.yul\":1785:1803   */\n  mload\n    /* \"#utility.yul\":1781:1782   */\n  dup2\n    /* \"#utility.yul\":1776:1779   */\n  dup5\n    /* \"#utility.yul\":1772:1783   */\n  add\n    /* \"#utility.yul\":1765:1804   */\n  mstore\n    /* \"#utility.yul\":1737:1739   */\n  0x20\n    /* \"#utility.yul\":1734:1735   */\n  dup2\n    /* \"#utility.yul\":1730:1740   */\n  add\n    /* \"#utility.yul\":1725:1740   */\n  swap1\n  pop\n    /* \"#utility.yul\":1701:1814   */\n  jump(tag_61)\ntag_63:\n    /* \"#utility.yul\":1848:1849   */\n  0x00\n    /* \"#utility.yul\":1839:1845   */\n  dup5\n    /* \"#utility.yul\":1834:1837   */\n  dup5\n    /* \"#utility.yul\":1830:1846   */\n  add\n    /* \"#utility.yul\":1823:1850   */\n  mstore\n    /* \"#utility.yul\":1672:1856   */\n  pop\n    /* \"#utility.yul\":1610:1856   */\n  pop\n  pop\n  pop\n  jump\t// out\n    /* \"#utility.yul\":1862:2296   */\ntag_20:\n    /* \"#utility.yul\":1951:1956   */\n  0x00\n    /* \"#utility.yul\":1976:2042   */\n  tag_65\n    /* \"#utility.yul\":1992:2041   */\n  tag_66\n    /* \"#utility.yul\":2034:2040   */\n  dup5\n    /* \"#utility.yul\":1992:2041   */\n  tag_18\n  jump\t// in\ntag_66:\n    /* \"#utility.yul\":1976:2042   */\n  tag_17\n  jump\t// in\ntag_65:\n    /* \"#utility.yul\":1967:2042   */\n  swap1\n  pop\n    /* \"#utility.yul\":2065:2071   */\n  dup3\n    /* \"#utility.yul\":2058:2063   */\n  dup2\n    /* \"#utility.yul\":2051:2072   */\n  mstore\n    /* \"#utility.yul\":2103:2107   */\n  0x20\n    /* \"#utility.yul\":2096:2101   */\n  dup2\n    /* \"#utility.yul\":2092:2108   */\n  add\n    /* \"#utility.yul\":2141:2144   */\n  dup5\n    /* \"#utility.yul\":2132:2138   */\n  dup5\n    /* \"#utility.yul\":2127:2130   */\n  dup5\n    /* \"#utility.yul\":2123:2139   */\n  add\n    /* \"#utility.yul\":2120:2145   */\n  gt\n    /* \"#utility.yul\":2117:2229   */\n  iszero\n  tag_67\n  jumpi\n    /* \"#utility.yul\":2148:2227   */\n  tag_68\n  tag_13\n  jump\t// in\ntag_68:\n    /* \"#utility.yul\":2117:2229   */\ntag_67:\n    /* \"#utility.yul\":2238:2290   */\n  tag_69\n    /* \"#utility.yul\":2283:2289   */\n  dup5\n    /* \"#utility.yul\":2278:2281   */\n  dup3\n    /* \"#utility.yul\":2273:2276   */\n  dup6\n    /* \"#utility.yul\":2238:2290   */\n  tag_19\n  jump\t// in\ntag_69:\n    /* \"#utility.yul\":1957:2296   */\n  pop\n    /* \"#utility.yul\":1862:2296   */\n  swap4\n  swap3\n  pop\n  pop\n  pop\n  jump\t// out\n    /* \"#utility.yul\":2316:2671   */\ntag_21:\n    /* \"#utility.yul\":2383:2388   */\n  0x00\n    /* \"#utility.yul\":2432:2435   */\n  dup3\n    /* \"#utility.yul\":2425:2429   */\n  0x1f\n    /* \"#utility.yul\":2417:2423   */\n  dup4\n    /* \"#utility.yul\":2413:2430   */\n  add\n    /* \"#utility.yul\":2409:2436   */\n  slt\n    /* \"#utility.yul\":2399:2521   */\n  tag_71\n  jumpi\n    /* \"#utility.yul\":2440:2519   */\n  tag_72\n  tag_12\n  jump\t// in\ntag_72:\n    /* \"#utility.yul\":2399:2521   */\ntag_71:\n    /* \"#utility.yul\":2550:2556   */\n  dup2\n    /* \"#utility.yul\":2544:2557   */\n  mload\n    /* \"#utility.yul\":2575:2665   */\n  tag_73\n    /* \"#utility.yul\":2661:2664   */\n  dup5\n    /* \"#utility.yul\":2653:2659   */\n  dup3\n    /* \"#utility.yul\":2646:2650   */\n  0x20\n    /* \"#utility.yul\":2638:2644   */\n  dup7\n    /* \"#utility.yul\":2634:2651   */\n  add\n    /* \"#utility.yul\":2575:2665   */\n  tag_20\n  jump\t// in\ntag_73:\n    /* \"#utility.yul\":2566:2665   */\n  swap2\n  pop\n    /* \"#utility.yul\":2389:2671   */\n  pop\n    /* \"#utility.yul\":2316:2671   */\n  swap3\n  swap2\n  pop\n  pop\n  jump\t// out\n    /* \"#utility.yul\":2677:3201   */\ntag_3:\n    /* \"#utility.yul\":2757:2763   */\n  0x00\n    /* \"#utility.yul\":2806:2808   */\n  0x20\n    /* \"#utility.yul\":2794:2803   */\n  dup3\n    /* \"#utility.yul\":2785:2792   */\n  dup5\n    /* \"#utility.yul\":2781:2804   */\n  sub\n    /* \"#utility.yul\":2777:2809   */\n  slt\n    /* \"#utility.yul\":2774:2893   */\n  iszero\n  tag_75\n  jumpi\n    /* \"#utility.yul\":2812:2891   */\n  tag_76\n  tag_10\n  jump\t// in\ntag_76:\n    /* \"#utility.yul\":2774:2893   */\ntag_75:\n    /* \"#utility.yul\":2953:2954   */\n  0x00\n    /* \"#utility.yul\":2942:2951   */\n  dup3\n    /* \"#utility.yul\":2938:2955   */\n  add\n    /* \"#utility.yul\":2932:2956   */\n  mload\n    /* \"#utility.yul\":2983:3001   */\n  0xffffffffffffffff\n    /* \"#utility.yul\":2975:2981   */\n  dup2\n    /* \"#utility.yul\":2972:3002   */\n  gt\n    /* \"#utility.yul\":2969:3086   */\n  iszero\n  tag_77\n  jumpi\n    /* \"#utility.yul\":3005:3084   */\n  tag_78\n  tag_11\n  jump\t// in\ntag_78:\n    /* \"#utility.yul\":2969:3086   */\ntag_77:\n    /* \"#utility.yul\":3110:3184   */\n  tag_79\n    /* \"#utility.yul\":3176:3183   */\n  dup5\n    /* \"#utility.yul\":3167:3173   */\n  dup3\n    /* \"#utility.yul\":3156:3165   */\n  dup6\n    /* \"#utility.yul\":3152:3174   */\n  add\n    /* \"#utility.yul\":3110:3184   */\n  tag_21\n  jump\t// in\ntag_79:\n    /* \"#utility.yul\":3100:3184   */\n  swap2\n  pop\n    /* \"#utility.yul\":2903:3194   */\n  pop\n    /* \"#utility.yul\":2677:3201   */\n  swap3\n  swap2\n  pop\n  pop\n  jump\t// out\n    /* \"#utility.yul\":3207:3306   */\ntag_22:\n    /* \"#utility.yul\":3259:3265   */\n  0x00\n    /* \"#utility.yul\":3293:3298   */\n  dup2\n    /* \"#utility.yul\":3287:3299   */\n  mload\n    /* \"#utility.yul\":3277:3299   */\n  swap1\n  pop\n    /* \"#utility.yul\":3207:3306   */\n  swap2\n  swap1\n  pop\n  jump\t// out\n    /* \"#utility.yul\":3312:3492   */\ntag_23:\n    /* \"#utility.yul\":3360:3437   */\n  0x4e487b7100000000000000000000000000000000000000000000000000000000\n    /* \"#utility.yul\":3357:3358   */\n  0x00\n    /* \"#utility.yul\":3350:3438   */\n  mstore\n    /* \"#utility.yul\":3457:3461   */\n  0x22\n    /* \"#utility.yul\":3454:3455   */\n  0x04\n    /* \"#utility.yul\":3447:3462   */\n  mstore\n    /* \"#utility.yul\":3481:3485   */\n  0x24\n    /* \"#utility.yul\":3478:3479   */\n  0x00\n    /* \"#utility.yul\":3471:3486   */\n  revert\n    /* \"#utility.yul\":3498:3818   */\ntag_24:\n    /* \"#utility.yul\":3542:3548   */\n  0x00\n    /* \"#utility.yul\":3579:3580   */\n  0x02\n    /* \"#utility.yul\":3573:3577   */\n  dup3\n    /* \"#utility.yul\":3569:3581   */\n  div\n    /* \"#utility.yul\":3559:3581   */\n  swap1\n  pop\n    /* \"#utility.yul\":3626:3627   */\n  0x01\n    /* \"#utility.yul\":3620:3624   */\n  dup3\n    /* \"#utility.yul\":3616:3628   */\n  and\n    /* \"#utility.yul\":3647:3665   */\n  dup1\n    /* \"#utility.yul\":3637:3718   */\n  tag_83\n  jumpi\n    /* \"#utility.yul\":3703:3707   */\n  0x7f\n    /* \"#utility.yul\":3695:3701   */\n  dup3\n    /* \"#utility.yul\":3691:3708   */\n  and\n    /* \"#utility.yul\":3681:3708   */\n  swap2\n  pop\n    /* \"#utility.yul\":3637:3718   */\ntag_83:\n    /* \"#utility.yul\":3765:3767   */\n  0x20\n    /* \"#utility.yul\":3757:3763   */\n  dup3\n    /* \"#utility.yul\":3754:3768   */\n  lt\n    /* \"#utility.yul\":3734:3752   */\n  dup2\n    /* \"#utility.yul\":3731:3769   */\n  sub\n    /* \"#utility.yul\":3728:3812   */\n  tag_84\n  jumpi\n    /* \"#utility.yul\":3784:3802   */\n  tag_85\n  tag_23\n  jump\t// in\ntag_85:\n    /* \"#utility.yul\":3728:3812   */\ntag_84:\n    /* \"#utility.yul\":3549:3818   */\n  pop\n    /* \"#utility.yul\":3498:3818   */\n  swap2\n  swap1\n  pop\n  jump\t// out\n    /* \"#utility.yul\":3824:3965   */\ntag_25:\n    /* \"#utility.yul\":3873:3877   */\n  0x00\n    /* \"#utility.yul\":3896:3899   */\n  dup2\n    /* \"#utility.yul\":3888:3899   */\n  swap1\n  pop\n    /* \"#utility.yul\":3919:3922   */\n  dup2\n    /* \"#utility.yul\":3916:3917   */\n  0x00\n    /* \"#utility.yul\":3909:3923   */\n  mstore\n    /* \"#utility.yul\":3953:3957   */\n  0x20\n    /* \"#utility.yul\":3950:3951   */\n  0x00\n    /* \"#utility.yul\":3940:3958   */\n  keccak256\n    /* \"#utility.yul\":3932:3958   */\n  swap1\n  pop\n    /* \"#utility.yul\":3824:3965   */\n  swap2\n  swap1\n  pop\n  jump\t// out\n    /* \"#utility.yul\":3971:4064   */\ntag_26:\n    /* \"#utility.yul\":4008:4014   */\n  0x00\n    /* \"#utility.yul\":4055:4057   */\n  0x20\n    /* \"#utility.yul\":4050:4052   */\n  0x1f\n    /* \"#utility.yul\":4043:4048   */\n  dup4\n    /* \"#utility.yul\":4039:4053   */\n  add\n    /* \"#utility.yul\":4035:4058   */\n  div\n    /* \"#utility.yul\":4025:4058   */\n  swap1\n  pop\n    /* \"#utility.yul\":3971:4064   */\n  swap2\n  swap1\n  pop\n  jump\t// out\n    /* \"#utility.yul\":4070:4177   */\ntag_27:\n    /* \"#utility.yul\":4114:4122   */\n  0x00\n    /* \"#utility.yul\":4164:4169   */\n  dup3\n    /* \"#utility.yul\":4158:4162   */\n  dup3\n    /* \"#utility.yul\":4154:4170   */\n  shl\n    /* \"#utility.yul\":4133:4170   */\n  swap1\n  pop\n    /* \"#utility.yul\":4070:4177   */\n  swap3\n  swap2\n  pop\n  pop\n  jump\t// out\n    /* \"#utility.yul\":4183:4576   */\ntag_28:\n    /* \"#utility.yul\":4252:4258   */\n  0x00\n    /* \"#utility.yul\":4302:4303   */\n  0x08\n    /* \"#utility.yul\":4290:4300   */\n  dup4\n    /* \"#utility.yul\":4286:4304   */\n  mul\n    /* \"#utility.yul\":4325:4422   */\n  tag_90\n    /* \"#utility.yul\":4355:4421   */\n  0xffffffffffffffffffffffffffffffffffffffffffffffffffffffffffffffff\n    /* \"#utility.yul\":4344:4353   */\n  dup3\n    /* \"#utility.yul\":4325:4422   */\n  tag_27\n  jump\t// in\ntag_90:\n    /* \"#utility.yul\":4443:4482   */\n  tag_91\n    /* \"#utility.yul\":4473:4481   */\n  dup7\n    /* \"#utility.yul\":4462:4471   */\n  dup4\n    /* \"#utility.yul\":4443:4482   */\n  tag_27\n  jump\t// in\ntag_91:\n    /* \"#utility.yul\":4431:4482   */\n  swap6\n  pop\n    /* \"#utility.yul\":4515:4519   */\n  dup1\n    /* \"#utility.yul\":4511:4520   */\n  not\n    /* \"#utility.yul\":4504:4509   */\n  dup5\n    /* \"#utility.yul\":4500:4521   */\n  and\n    /* \"#utility.yul\":4491:4521   */\n  swap4\n  pop\n    /* \"#utility.yul\":4564:4568   */\n  dup1\n    /* \"#utility.yul\":4554:4562   */\n  dup7\n    /* \"#utility.yul\":4550:4569   */\n  and\n    /* \"#utility.yul\":4543:4548   */\n  dup5\n    /* \"#utility.yul\":4540:4570   */\n  or\n    /* \"#utility.yul\":4530:4570   */\n  swap3\n  pop\n    /* \"#utility.yul\":4259:4576   */\n  pop\n  pop\n    /* \"#utility.yul\":4183:4576   */\n  swap4\n  swap3\n  pop\n  pop\n  pop\n  jump\t// out\n    /* \"#utility.yul\":4582:4659   */\ntag_29:\n    /* \"#utility.yul\":4619:4626   */\n  0x00\n    /* \"#utility.yul\":4648:4653   */\n  dup2\n    /* \"#utility.yul\":4637:4653   */\n  swap1\n  pop\n    /* \"#utility.yul\":4582:4659   */\n  swap2\n  swap1\n  pop\n  jump\t// out\n    /* \"#utility.yul\":4665:4725   */\ntag_30:\n    /* \"#utility.yul\":4693:4696   */\n  0x00\n    /* \"#utility.yul\":4714:4719   */\n  dup2\n    /* \"#utility.yul\":4707:4719   */\n  swap1\n  pop\n    /* \"#utility.yul\":4665:4725   */\n  swap2\n  swap1\n  pop\n  jump\t// out\n    /* \"#utility.yul\":4731:4873   */\ntag_31:\n    /* \"#utility.yul\":4781:4790   */\n  0x00\n    /* \"#utility.yul\":4814:4867   */\n  tag_95\n    /* \"#utility.yul\":4832:4866   */\n  tag_96\n    /* \"#utility.yul\":4841:4865   */\n  tag_97\n    /* \"#utility.yul\":4859:4864   */\n  dup5\n    /* \"#utility.yul\":4841:4865   */\n  tag_29\n  jump\t// in\ntag_97:\n    /* \"#utility.yul\":4832:4866   */\n  tag_30\n  jump\t// in\ntag_96:\n    /* \"#utility.yul\":4814:4867   */\n  tag_29\n  jump\t// in\ntag_95:\n    /* \"#utility.yul\":4801:4867   */\n  swap1\n  pop\n    /* \"#utility.yul\":4731:4873   */\n  swap2\n  swap1\n  pop\n  jump\t// out\n    /* \"#utility.yul\":4879:4954   */\ntag_32:\n    /* \"#utility.yul\":4922:4925   */\n  0x00\n    /* \"#utility.yul\":4943:4948   */\n  dup2\n    /* \"#utility.yul\":4936:4948   */\n  swap1\n  pop\n    /* \"#utility.yul\":4879:4954   */\n  swap2\n  swap1\n  pop\n  jump\t// out\n    /* \"#utility.yul\":4960:5229   */\ntag_33:\n    /* \"#utility.yul\":5070:5109   */\n  tag_100\n    /* \"#utility.yul\":5101:5108   */\n  dup4\n    /* \"#utility.yul\":5070:5109   */\n  tag_31\n  jump\t// in\ntag_100:\n    /* \"#utility.yul\":5131:5222   */\n  tag_101\n    /* \"#utility.yul\":5180:5221   */\n  tag_102\n    /* \"#utility.yul\":5204:5220   */\n  dup3\n    /* \"#utility.yul\":5180:5221   */\n  tag_32\n  jump\t// in\ntag_102:\n    /* \"#utility.yul\":5172:5178   */\n  dup5\n    /* \"#utility.yul\":5165:5169   */\n  dup5\n    /* \"#utility.yul\":5159:5170   */\n  sload\n    /* \"#utility.yul\":5131:5222   */\n  tag_28\n  jump\t// in\ntag_101:\n    /* \"#utility.yul\":5125:5129   */\n  dup3\n    /* \"#utility.yul\":5118:5223   */\n  sstore\n    /* \"#utility.yul\":5036:5229   */\n  pop\n    /* \"#utility.yul\":4960:5229   */\n  pop\n  pop\n  pop\n  jump\t// out\n    /* \"#utility.yul\":5235:5308   */\ntag_34:\n    /* \"#utility.yul\":5280:5283   */\n  0x00\n    /* \"#utility.yul\":5235:5308   */\n  swap1\n  jump\t// out\n    /* \"#utility.yul\":5314:5503   */\ntag_35:\n    /* \"#utility.yul\":5391:5423   */\n  tag_105\n  tag_34\n  jump\t// in\ntag_105:\n    /* \"#utility.yul\":5432:5497   */\n  tag_106\n    /* \"#utility.yul\":5490:5496   */\n  dup2\n    /* \"#utility.yul\":5482:5488   */\n  dup5\n    /* \"#utility.yul\":5476:5480   */\n  dup5\n    /* \"#utility.yul\":5432:5497   */\n  tag_33\n  jump\t// in\ntag_106:\n    /* \"#utility.yul\":5367:5503   */\n  pop\n    /* \"#utility.yul\":5314:5503   */\n  pop\n  pop\n  jump\t// out\n    /* \"#utility.yul\":5509:5695   */\ntag_36:\n    /* \"#utility.yul\":5569:5689   */\ntag_108:\n    /* \"#utility.yul\":5586:5589   */\n  dup2\n    /* \"#utility.yul\":5579:5584   */\n  dup2\n    /* \"#utility.yul\":5576:5590   */\n  lt\n    /* \"#utility.yul\":5569:5689   */\n  iszero\n  tag_110\n  jumpi\n    /* \"#utility.yul\":5640:5679   */\n  tag_111\n    /* \"#utility.yul\":5677:5678   */\n  0x00\n    /* \"#utility.yul\":5670:5675   */\n  dup3\n    /* \"#utility.yul\":5640:5679   */\n  tag_35\n  jump\t// in\ntag_111:\n    /* \"#utility.yul\":5613:5614   */\n  0x01\n    /* \"#utility.yul\":5606:5611   */\n  dup2\n    /* \"#utility.yul\":5602:5615   */\n  add\n    /* \"#utility.yul\":5593:5615   */\n  swap1\n  pop\n    /* \"#utility.yul\":5569:5689   */\n  jump(tag_108)\ntag_110:\n    /* \"#utility.yul\":5509:5695   */\n  pop\n  pop\n  jump\t// out\n    /* \"#utility.yul\":5701:6244   */\ntag_37:\n    /* \"#utility.yul\":5802:5804   */\n  0x1f\n    /* \"#utility.yul\":5797:5800   */\n  dup3\n    /* \"#utility.yul\":5794:5805   */\n  gt\n    /* \"#utility.yul\":5791:6237   */\n  iszero\n  tag_113\n  jumpi\n    /* \"#utility.yul\":5836:5874   */\n  tag_114\n    /* \"#utility.yul\":5868:5873   */\n  dup2\n    /* \"#utility.yul\":5836:5874   */\n  tag_25\n  jump\t// in\ntag_114:\n    /* \"#utility.yul\":5920:5949   */\n  tag_115\n    /* \"#utility.yul\":5938:5948   */\n  dup5\n    /* \"#utility.yul\":5920:5949   */\n  tag_26\n  jump\t// in\ntag_115:\n    /* \"#utility.yul\":5910:5918   */\n  dup2\n    /* \"#utility.yul\":5906:5950   */\n  add\n    /* \"#utility.yul\":6103:6105   */\n  0x20\n    /* \"#utility.yul\":6091:6101   */\n  dup6\n    /* \"#utility.yul\":6088:6106   */\n  lt\n    /* \"#utility.yul\":6085:6134   */\n  iszero\n  tag_116\n  jumpi\n    /* \"#utility.yul\":6124:6132   */\n  dup2\n    /* \"#utility.yul\":6109:6132   */\n  swap1\n  pop\n    /* \"#utility.yul\":6085:6134   */\ntag_116:\n    /* \"#utility.yul\":6147:6227   */\n  tag_117\n    /* \"#utility.yul\":6203:6225   */\n  tag_118\n    /* \"#utility.yul\":6221:6224   */\n  dup6\n    /* \"#utility.yul\":6203:6225   */\n  tag_26\n  jump\t// in\ntag_118:\n    /* \"#utility.yul\":6193:6201   */\n  dup4\n    /* \"#utility.yul\":6189:6226   */\n  add\n    /* \"#utility.yul\":6176:6187   */\n  dup3\n    /* \"#utility.yul\":6147:6227   */\n  tag_36\n  jump\t// in\ntag_117:\n    /* \"#utility.yul\":5806:6237   */\n  pop\n  pop\n    /* \"#utility.yul\":5791:6237   */\ntag_113:\n    /* \"#utility.yul\":5701:6244   */\n  pop\n  pop\n  pop\n  jump\t// out\n    /* \"#utility.yul\":6250:6367   */\ntag_38:\n    /* \"#utility.yul\":6304:6312   */\n  0x00\n    /* \"#utility.yul\":6354:6359   */\n  dup3\n    /* \"#utility.yul\":6348:6352   */\n  dup3\n    /* \"#utility.yul\":6344:6360   */\n  shr\n    /* \"#utility.yul\":6323:6360   */\n  swap1\n  pop\n    /* \"#utility.yul\":6250:6367   */\n  swap3\n  swap2\n  pop\n  pop\n  jump\t// out\n    /* \"#utility.yul\":6373:6542   */\ntag_39:\n    /* \"#utility.yul\":6417:6423   */\n  0x00\n    /* \"#utility.yul\":6450:6501   */\n  tag_121\n    /* \"#utility.yul\":6498:6499   */\n  0x00\n    /* \"#utility.yul\":6494:6500   */\n  not\n    /* \"#utility.yul\":6486:6491   */\n  dup5\n    /* \"#utility.yul\":6483:6484   */\n  0x08\n    /* \"#utility.yul\":6479:6492   */\n  mul\n    /* \"#utility.yul\":6450:6501   */\n  tag_38\n  jump\t// in\ntag_121:\n    /* \"#utility.yul\":6446:6502   */\n  not\n    /* \"#utility.yul\":6531:6535   */\n  dup1\n    /* \"#utility.yul\":6525:6529   */\n  dup4\n    /* \"#utility.yul\":6521:6536   */\n  and\n    /* \"#utility.yul\":6511:6536   */\n  swap2\n  pop\n    /* \"#utility.yul\":6424:6542   */\n  pop\n    /* \"#utility.yul\":6373:6542   */\n  swap3\n  swap2\n  pop\n  pop\n  jump\t// out\n    /* \"#utility.yul\":6547:6842   */\ntag_40:\n    /* \"#utility.yul\":6623:6627   */\n  0x00\n    /* \"#utility.yul\":6769:6798   */\n  tag_123\n    /* \"#utility.yul\":6794:6797   */\n  dup4\n    /* \"#utility.yul\":6788:6792   */\n  dup4\n    /* \"#utility.yul\":6769:6798   */\n  tag_39\n  jump\t// in\ntag_123:\n    /* \"#utility.yul\":6761:6798   */\n  swap2\n  pop\n    /* \"#utility.yul\":6831:6834   */\n  dup3\n    /* \"#utility.yul\":6828:6829   */\n  0x02\n    /* \"#utility.yul\":6824:6835   */\n  mul\n    /* \"#utility.yul\":6818:6822   */\n  dup3\n    /* \"#utility.yul\":6815:6836   */\n  or\n    /* \"#utility.yul\":6807:6836   */\n  swap1\n  pop\n    /* \"#utility.yul\":6547:6842   */\n  swap3\n  swap2\n  pop\n  pop\n  jump\t// out\n    /* \"#utility.yul\":6847:8242   */\ntag_7:\n    /* \"#utility.yul\":6964:7001   */\n  tag_125\n    /* \"#utility.yul\":6997:7000   */\n  dup3\n    /* \"#utility.yul\":6964:7001   */\n  tag_22\n  jump\t// in\ntag_125:\n    /* \"#utility.yul\":7066:7084   */\n  0xffffffffffffffff\n    /* \"#utility.yul\":7058:7064   */\n  dup2\n    /* \"#utility.yul\":7055:7085   */\n  gt\n    /* \"#utility.yul\":7052:7108   */\n  iszero\n  tag_126\n  jumpi\n    /* \"#utility.yul\":7088:7106   */\n  tag_127\n  tag_15\n  jump\t// in\ntag_127:\n    /* \"#utility.yul\":7052:7108   */\ntag_126:\n    /* \"#utility.yul\":7132:7170   */\n  tag_128\n    /* \"#utility.yul\":7164:7168   */\n  dup3\n    /* \"#utility.yul\":7158:7169   */\n  sload\n    /* \"#utility.yul\":7132:7170   */\n  tag_24\n  jump\t// in\ntag_128:\n    /* \"#utility.yul\":7217:7284   */\n  tag_129\n    /* \"#utility.yul\":7277:7283   */\n  dup3\n    /* \"#utility.yul\":7269:7275   */\n  dup3\n    /* \"#utility.yul\":7263:7267   */\n  dup6\n    /* \"#utility.yul\":7217:7284   */\n  tag_37\n  jump\t// in\ntag_129:\n    /* \"#utility.yul\":7311:7312   */\n  0x00\n    /* \"#utility.yul\":7335:7339   */\n  0x20\n    /* \"#utility.yul\":7322:7339   */\n  swap1\n  pop\n    /* \"#utility.yul\":7367:7369   */\n  0x1f\n    /* \"#utility.yul\":7359:7365   */\n  dup4\n    /* \"#utility.yul\":7356:7370   */\n  gt\n    /* \"#utility.yul\":7384:7385   */\n  0x01\n    /* \"#utility.yul\":7379:7997   */\n  dup2\n  eq\n  tag_131\n  jumpi\n    /* \"#utility.yul\":8041:8042   */\n  0x00\n    /* \"#utility.yul\":8058:8064   */\n  dup5\n    /* \"#utility.yul\":8055:8132   */\n  iszero\n  tag_132\n  jumpi\n    /* \"#utility.yul\":8107:8116   */\n  dup3\n    /* \"#utility.yul\":8102:8105   */\n  dup8\n    /* \"#utility.yul\":8098:8117   */\n  add\n    /* \"#utility.yul\":8092:8118   */\n  mload\n    /* \"#utility.yul\":8083:8118   */\n  swap1\n  pop\n    /* \"#utility.yul\":8055:8132   */\ntag_132:\n    /* \"#utility.yul\":8158:8225   */\n  tag_133\n    /* \"#utility.yul\":8218:8224   */\n  dup6\n    /* \"#utility.yul\":8211:8216   */\n  dup3\n    /* \"#utility.yul\":8158:8225   */\n  tag_40\n  jump\t// in\ntag_133:\n    /* \"#utility.yul\":8152:8156   */\n  dup7\n    /* \"#utility.yul\":8145:8226   */\n  sstore\n    /* \"#utility.yul\":8014:8236   */\n  pop\n    /* \"#utility.yul\":7349:8236   */\n  jump(tag_130)\n    /* \"#utility.yul\":7379:7997   */\ntag_131:\n    /* \"#utility.yul\":7431:7435   */\n  0x1f\n    /* \"#utility.yul\":7427:7436   */\n  not\n    /* \"#utility.yul\":7419:7425   */\n  dup5\n    /* \"#utility.yul\":7415:7437   */\n  and\n    /* \"#utility.yul\":7465:7502   */\n  tag_134\n    /* \"#utility.yul\":7497:7501   */\n  dup7\n    /* \"#utility.yul\":7465:7502   */\n  tag_25\n  jump\t// in\ntag_134:\n    /* \"#utility.yul\":7524:7525   */\n  0x00\n    /* \"#utility.yul\":7538:7746   */\ntag_135:\n    /* \"#utility.yul\":7552:7559   */\n  dup3\n    /* \"#utility.yul\":7549:7550   */\n  dup2\n    /* \"#utility.yul\":7546:7560   */\n  lt\n    /* \"#utility.yul\":7538:7746   */\n  iszero\n  tag_137\n  jumpi\n    /* \"#utility.yul\":7631:7640   */\n  dup5\n    /* \"#utility.yul\":7626:7629   */\n  dup10\n    /* \"#utility.yul\":7622:7641   */\n  add\n    /* \"#utility.yul\":7616:7642   */\n  mload\n    /* \"#utility.yul\":7608:7614   */\n  dup3\n    /* \"#utility.yul\":7601:7643   */\n  sstore\n    /* \"#utility.yul\":7682:7683   */\n  0x01\n    /* \"#utility.yul\":7674:7680   */\n  dup3\n    /* \"#utility.yul\":7670:7684   */\n  add\n    /* \"#utility.yul\":7660:7684   */\n  swap2\n  pop\n    /* \"#utility.yul\":7729:7731   */\n  0x20\n    /* \"#utility.yul\":7718:7727   */\n  dup6\n    /* \"#utility.yul\":7714:7732   */\n  add\n    /* \"#utility.yul\":7701:7732   */\n  swap5\n  pop\n    /* \"#utility.yul\":7575:7579   */\n  0x20\n    /* \"#utility.yul\":7572:7573   */\n  dup2\n    /* \"#utility.yul\":7568:7580   */\n  add\n    /* \"#utility.yul\":7563:7580   */\n  swap1\n  pop\n    /* \"#utility.yul\":7538:7746   */\n  jump(tag_135)\ntag_137:\n    /* \"#utility.yul\":7774:7780   */\n  dup7\n    /* \"#utility.yul\":7765:7772   */\n  dup4\n    /* \"#utility.yul\":7762:7781   */\n  lt\n    /* \"#utility.yul\":7759:7938   */\n  iszero\n  tag_138\n  jumpi\n    /* \"#utility.yul\":7832:7841   */\n  dup5\n    /* \"#utility.yul\":7827:7830   */\n  dup10\n    /* \"#utility.yul\":7823:7842   */\n  add\n    /* \"#utility.yul\":7817:7843   */\n  mload\n    /* \"#utility.yul\":7875:7923   */\n  tag_139\n    /* \"#utility.yul\":7917:7921   */\n  0x1f\n    /* \"#utility.yul\":7909:7915   */\n  dup10\n    /* \"#utility.yul\":7905:7922   */\n  and\n    /* \"#utility.yul\":7894:7903   */\n  dup3\n    /* \"#utility.yul\":7875:7923   */\n  tag_39\n  jump\t// in\ntag_139:\n    /* \"#utility.yul\":7867:7873   */\n  dup4\n    /* \"#utility.yul\":7860:7924   */\n  sstore\n    /* \"#utility.yul\":7782:7938   */\n  pop\n    /* \"#utility.yul\":7759:7938   */\ntag_138:\n    /* \"#utility.yul\":7984:7985   */\n  0x01\n    /* \"#utility.yul\":7980:7981   */\n  0x02\n    /* \"#utility.yul\":7972:7978   */\n  dup9\n    /* \"#utility.yul\":7968:7982   */\n  mul\n    /* \"#utility.yul\":7964:7986   */\n  add\n    /* \"#utility.yul\":7958:7962   */\n  dup9\n    /* \"#utility.yul\":7951:7987   */\n  sstore\n    /* \"#utility.yul\":7386:7997   */\n  pop\n  pop\n  pop\n    /* \"#utility.yul\":7349:8236   */\ntag_130:\n  pop\n    /* \"#utility.yul\":6939:8242   */\n  pop\n  pop\n  pop\n    /* \"#utility.yul\":6847:8242   */\n  pop\n  pop\n  jump\t// out\n    /* \"ETH_KIPU/Register08_EjercicioResuelto.sol\":248:2580  contract RegistroConAcceso {... */\ntag_8:\n  dataSize(sub_0)\n  dup1\n  dataOffset(sub_0)\n  0x00\n  codecopy\n  0x00\n  return\nstop\n\nsub_0: assembly {\n        /* \"ETH_KIPU/Register08_EjercicioResuelto.sol\":248:2580  contract RegistroConAcceso {... */\n      mstore(0x40, 0x80)\n      callvalue\n      dup1\n      iszero\n      tag_1\n      jumpi\n      0x00\n      dup1\n      revert\n    tag_1:\n      pop\n      jumpi(tag_2, lt(calldatasize, 0x04))\n      shr(0xe0, calldataload(0x00))\n      dup1\n      0x8da5cb5b\n      eq\n      tag_3\n      jumpi\n      dup1\n      0x8fec79be\n      eq\n      tag_4\n      jumpi\n      dup1\n      0xb5bb0fbe\n      eq\n      tag_5\n      jumpi\n      dup1\n      0xbbe99a1e\n      eq\n      tag_6\n      jumpi\n      dup1\n      0xec7a6f4a\n      eq\n      tag_7\n      jumpi\n    tag_2:\n      0x00\n      dup1\n      revert\n        /* \"ETH_KIPU/Register08_EjercicioResuelto.sol\":383:403  address public owner */\n    tag_3:\n      tag_8\n      tag_9\n      jump\t// in\n    tag_8:\n      mload(0x40)\n      tag_10\n      swap2\n      swap1\n      tag_11\n      jump\t// in\n    tag_10:\n      mload(0x40)\n      dup1\n      swap2\n      sub\n      swap1\n      return\n        /* \"ETH_KIPU/Register08_EjercicioResuelto.sol\":2074:2171  function obtenerData() external view returns (string memory) {... */\n    tag_4:\n      tag_12\n      tag_13\n      jump\t// in\n    tag_12:\n      mload(0x40)\n      tag_14\n      swap2\n      swap1\n      tag_15\n      jump\t// in\n    tag_14:\n      mload(0x40)\n      dup1\n      swap2\n      sub\n      swap1\n      return\n        /* \"ETH_KIPU/Register08_EjercicioResuelto.sol\":1684:1917  function actualizarData(string memory nuevoDato) external onlyOwner {... */\n    tag_5:\n      tag_16\n      0x04\n      dup1\n      calldatasize\n      sub\n      dup2\n      add\n      swap1\n      tag_17\n      swap2\n      swap1\n      tag_18\n      jump\t// in\n    tag_17:\n      tag_19\n      jump\t// in\n    tag_16:\n      stop\n        /* \"ETH_KIPU/Register08_EjercicioResuelto.sol\":2409:2577  function transferirAdmin(address nuevoAdmin) external onlyOwner {... */\n    tag_6:\n      tag_20\n      0x04\n      dup1\n      calldatasize\n      sub\n      dup2\n      add\n      swap1\n      tag_21\n      swap2\n      swap1\n      tag_22\n      jump\t// in\n    tag_21:\n      tag_23\n      jump\t// in\n    tag_20:\n      stop\n        /* \"ETH_KIPU/Register08_EjercicioResuelto.sol\":349:376  uint public numeroDeCambios */\n    tag_7:\n      tag_24\n      tag_25\n      jump\t// in\n    tag_24:\n      mload(0x40)\n      tag_26\n      swap2\n      swap1\n      tag_27\n      jump\t// in\n    tag_26:\n      mload(0x40)\n      dup1\n      swap2\n      sub\n      swap1\n      return\n        /* \"ETH_KIPU/Register08_EjercicioResuelto.sol\":383:403  address public owner */\n    tag_9:\n      0x02\n      0x00\n      swap1\n      sload\n      swap1\n      0x0100\n      exp\n      swap1\n      div\n      0xffffffffffffffffffffffffffffffffffffffff\n      and\n      dup2\n      jump\t// out\n        /* \"ETH_KIPU/Register08_EjercicioResuelto.sol\":2074:2171  function obtenerData() external view returns (string memory) {... */\n    tag_13:\n        /* \"ETH_KIPU/Register08_EjercicioResuelto.sol\":2120:2133  string memory */\n      0x60\n        /* \"ETH_KIPU/Register08_EjercicioResuelto.sol\":2153:2163  storedData */\n      0x00\n        /* \"ETH_KIPU/Register08_EjercicioResuelto.sol\":2146:2163  return storedData */\n      dup1\n      sload\n      tag_29\n      swap1\n      tag_30\n      jump\t// in\n    tag_29:\n      dup1\n      0x1f\n      add\n      0x20\n      dup1\n      swap2\n      div\n      mul\n      0x20\n      add\n      mload(0x40)\n      swap1\n      dup2\n      add\n      0x40\n      mstore\n      dup1\n      swap3\n      swap2\n      swap1\n      dup2\n      dup2\n      mstore\n      0x20\n      add\n      dup3\n      dup1\n      sload\n      tag_31\n      swap1\n      tag_30\n      jump\t// in\n    tag_31:\n      dup1\n      iszero\n      tag_32\n      jumpi\n      dup1\n      0x1f\n      lt\n      tag_33\n      jumpi\n      0x0100\n      dup1\n      dup4\n      sload\n      div\n      mul\n      dup4\n      mstore\n      swap2\n      0x20\n      add\n      swap2\n      jump(tag_32)\n    tag_33:\n      dup3\n      add\n      swap2\n      swap1\n      0x00\n      mstore\n      keccak256(0x00, 0x20)\n      swap1\n    tag_34:\n      dup2\n      sload\n      dup2\n      mstore\n      swap1\n      0x01\n      add\n      swap1\n      0x20\n      add\n      dup1\n      dup4\n      gt\n      tag_34\n      jumpi\n      dup3\n      swap1\n      sub\n      0x1f\n      and\n      dup3\n      add\n      swap2\n    tag_32:\n      pop\n      pop\n      pop\n      pop\n      pop\n      swap1\n      pop\n        /* \"ETH_KIPU/Register08_EjercicioResuelto.sol\":2074:2171  function obtenerData() external view returns (string memory) {... */\n      swap1\n      jump\t// out\n        /* \"ETH_KIPU/Register08_EjercicioResuelto.sol\":1684:1917  function actualizarData(string memory nuevoDato) external onlyOwner {... */\n    tag_19:\n        /* \"ETH_KIPU/Register08_EjercicioResuelto.sol\":1273:1278  owner */\n      0x02\n      0x00\n      swap1\n      sload\n      swap1\n      0x0100\n      exp\n      swap1\n      div\n      0xffffffffffffffffffffffffffffffffffffffff\n      and\n        /* \"ETH_KIPU/Register08_EjercicioResuelto.sol\":1259:1278  msg.sender == owner */\n      0xffffffffffffffffffffffffffffffffffffffff\n      and\n        /* \"ETH_KIPU/Register08_EjercicioResuelto.sol\":1259:1269  msg.sender */\n      caller\n        /* \"ETH_KIPU/Register08_EjercicioResuelto.sol\":1259:1278  msg.sender == owner */\n      0xffffffffffffffffffffffffffffffffffffffff\n      and\n      eq\n        /* \"ETH_KIPU/Register08_EjercicioResuelto.sol\":1251:1323  require(msg.sender == owner, \"Solo el admin puede realizar esta accion\") */\n      tag_36\n      jumpi\n      mload(0x40)\n      0x08c379a000000000000000000000000000000000000000000000000000000000\n      dup2\n      mstore\n      0x04\n      add\n      tag_37\n      swap1\n      tag_38\n      jump\t// in\n    tag_37:\n      mload(0x40)\n      dup1\n      swap2\n      sub\n      swap1\n      revert\n    tag_36:\n        /* \"ETH_KIPU/Register08_EjercicioResuelto.sol\":1763:1784  string memory antiguo */\n      0x00\n        /* \"ETH_KIPU/Register08_EjercicioResuelto.sol\":1787:1797  storedData */\n      dup1\n        /* \"ETH_KIPU/Register08_EjercicioResuelto.sol\":1763:1797  string memory antiguo = storedData */\n      dup1\n      sload\n      tag_40\n      swap1\n      tag_30\n      jump\t// in\n    tag_40:\n      dup1\n      0x1f\n      add\n      0x20\n      dup1\n      swap2\n      div\n      mul\n      0x20\n      add\n      mload(0x40)\n      swap1\n      dup2\n      add\n      0x40\n      mstore\n      dup1\n      swap3\n      swap2\n      swap1\n      dup2\n      dup2\n      mstore\n      0x20\n      add\n      dup3\n      dup1\n      sload\n      tag_41\n      swap1\n      tag_30\n      jump\t// in\n    tag_41:\n      dup1\n      iszero\n      tag_42\n      jumpi\n      dup1\n      0x1f\n      lt\n      tag_43\n      jumpi\n      0x0100\n      dup1\n      dup4\n      sload\n      div\n      mul\n      dup4\n      mstore\n      swap2\n      0x20\n      add\n      swap2\n      jump(tag_42)\n    tag_43:\n      dup3\n      add\n      swap2\n      swap1\n      0x00\n      mstore\n      keccak256(0x00, 0x20)\n      swap1\n    tag_44:\n      dup2\n      sload\n      dup2\n      mstore\n      swap1\n      0x01\n      add\n      swap1\n      0x20\n      add\n      dup1\n      dup4\n      gt\n      tag_44\n      jumpi\n      dup3\n      swap1\n      sub\n      0x1f\n      and\n      dup3\n      add\n      swap2\n    tag_42:\n      pop\n      pop\n      pop\n      pop\n      pop\n      swap1\n      pop\n        /* \"ETH_KIPU/Register08_EjercicioResuelto.sol\":1813:1848  DataActualizada(antiguo, nuevoDato) */\n      0x894ab8566b6602f0dd62f21043a76a009d9f66236f89aab04c76ed5487eda536\n        /* \"ETH_KIPU/Register08_EjercicioResuelto.sol\":1829:1836  antiguo */\n      dup2\n        /* \"ETH_KIPU/Register08_EjercicioResuelto.sol\":1838:1847  nuevoDato */\n      dup4\n        /* \"ETH_KIPU/Register08_EjercicioResuelto.sol\":1813:1848  DataActualizada(antiguo, nuevoDato) */\n      mload(0x40)\n      tag_45\n      swap3\n      swap2\n      swap1\n      tag_46\n      jump\t// in\n    tag_45:\n      mload(0x40)\n      dup1\n      swap2\n      sub\n      swap1\n      log1\n        /* \"ETH_KIPU/Register08_EjercicioResuelto.sol\":1872:1881  nuevoDato */\n      dup2\n        /* \"ETH_KIPU/Register08_EjercicioResuelto.sol\":1859:1869  storedData */\n      0x00\n        /* \"ETH_KIPU/Register08_EjercicioResuelto.sol\":1859:1881  storedData = nuevoDato */\n      swap1\n      dup2\n      tag_47\n      swap2\n      swap1\n      tag_48\n      jump\t// in\n    tag_47:\n      pop\n        /* \"ETH_KIPU/Register08_EjercicioResuelto.sol\":1892:1907  numeroDeCambios */\n      0x01\n      0x00\n        /* \"ETH_KIPU/Register08_EjercicioResuelto.sol\":1892:1909  numeroDeCambios++ */\n      dup2\n      sload\n      dup1\n      swap3\n      swap2\n      swap1\n      tag_49\n      swap1\n      tag_50\n      jump\t// in\n    tag_49:\n      swap2\n      swap1\n      pop\n      sstore\n      pop\n        /* \"ETH_KIPU/Register08_EjercicioResuelto.sol\":1752:1917  {... */\n      pop\n        /* \"ETH_KIPU/Register08_EjercicioResuelto.sol\":1684:1917  function actualizarData(string memory nuevoDato) external onlyOwner {... */\n      pop\n      jump\t// out\n        /* \"ETH_KIPU/Register08_EjercicioResuelto.sol\":2409:2577  function transferirAdmin(address nuevoAdmin) external onlyOwner {... */\n    tag_23:\n        /* \"ETH_KIPU/Register08_EjercicioResuelto.sol\":1273:1278  owner */\n      0x02\n      0x00\n      swap1\n      sload\n      swap1\n      0x0100\n      exp\n      swap1\n      div\n      0xffffffffffffffffffffffffffffffffffffffff\n      and\n        /* \"ETH_KIPU/Register08_EjercicioResuelto.sol\":1259:1278  msg.sender == owner */\n      0xffffffffffffffffffffffffffffffffffffffff\n      and\n        /* \"ETH_KIPU/Register08_EjercicioResuelto.sol\":1259:1269  msg.sender */\n      caller\n        /* \"ETH_KIPU/Register08_EjercicioResuelto.sol\":1259:1278  msg.sender == owner */\n      0xffffffffffffffffffffffffffffffffffffffff\n      and\n      eq\n        /* \"ETH_KIPU/Register08_EjercicioResuelto.sol\":1251:1323  require(msg.sender == owner, \"Solo el admin puede realizar esta accion\") */\n      tag_52\n      jumpi\n      mload(0x40)\n      0x08c379a000000000000000000000000000000000000000000000000000000000\n      dup2\n      mstore\n      0x04\n      add\n      tag_53\n      swap1\n      tag_38\n      jump\t// in\n    tag_53:\n      mload(0x40)\n      dup1\n      swap2\n      sub\n      swap1\n      revert\n    tag_52:\n        /* \"ETH_KIPU/Register08_EjercicioResuelto.sol\":2514:2515  0 */\n      0x00\n        /* \"ETH_KIPU/Register08_EjercicioResuelto.sol\":2492:2516  nuevoAdmin != address(0) */\n      0xffffffffffffffffffffffffffffffffffffffff\n      and\n        /* \"ETH_KIPU/Register08_EjercicioResuelto.sol\":2492:2502  nuevoAdmin */\n      dup2\n        /* \"ETH_KIPU/Register08_EjercicioResuelto.sol\":2492:2516  nuevoAdmin != address(0) */\n      0xffffffffffffffffffffffffffffffffffffffff\n      and\n      sub\n        /* \"ETH_KIPU/Register08_EjercicioResuelto.sol\":2484:2540  require(nuevoAdmin != address(0), \"Direccion no valida\") */\n      tag_55\n      jumpi\n      mload(0x40)\n      0x08c379a000000000000000000000000000000000000000000000000000000000\n      dup2\n      mstore\n      0x04\n      add\n      tag_56\n      swap1\n      tag_57\n      jump\t// in\n    tag_56:\n      mload(0x40)\n      dup1\n      swap2\n      sub\n      swap1\n      revert\n    tag_55:\n        /* \"ETH_KIPU/Register08_EjercicioResuelto.sol\":2559:2569  nuevoAdmin */\n      dup1\n        /* \"ETH_KIPU/Register08_EjercicioResuelto.sol\":2551:2556  owner */\n      0x02\n      0x00\n        /* \"ETH_KIPU/Register08_EjercicioResuelto.sol\":2551:2569  owner = nuevoAdmin */\n      0x0100\n      exp\n      dup2\n      sload\n      dup2\n      0xffffffffffffffffffffffffffffffffffffffff\n      mul\n      not\n      and\n      swap1\n      dup4\n      0xffffffffffffffffffffffffffffffffffffffff\n      and\n      mul\n      or\n      swap1\n      sstore\n      pop\n        /* \"ETH_KIPU/Register08_EjercicioResuelto.sol\":2409:2577  function transferirAdmin(address nuevoAdmin) external onlyOwner {... */\n      pop\n      jump\t// out\n        /* \"ETH_KIPU/Register08_EjercicioResuelto.sol\":349:376  uint public numeroDeCambios */\n    tag_25:\n      sload(0x01)\n      dup2\n      jump\t// out\n        /* \"#utility.yul\":7:133   */\n    tag_58:\n        /* \"#utility.yul\":44:51   */\n      0x00\n        /* \"#utility.yul\":84:126   */\n      0xffffffffffffffffffffffffffffffffffffffff\n        /* \"#utility.yul\":77:82   */\n      dup3\n        /* \"#utility.yul\":73:127   */\n      and\n        /* \"#utility.yul\":62:127   */\n      swap1\n      pop\n        /* \"#utility.yul\":7:133   */\n      swap2\n      swap1\n      pop\n      jump\t// out\n        /* \"#utility.yul\":139:235   */\n    tag_59:\n        /* \"#utility.yul\":176:183   */\n      0x00\n        /* \"#utility.yul\":205:229   */\n      tag_106\n        /* \"#utility.yul\":223:228   */\n      dup3\n        /* \"#utility.yul\":205:229   */\n      tag_58\n      jump\t// in\n    tag_106:\n        /* \"#utility.yul\":194:229   */\n      swap1\n      pop\n        /* \"#utility.yul\":139:235   */\n      swap2\n      swap1\n      pop\n      jump\t// out\n        /* \"#utility.yul\":241:359   */\n    tag_60:\n        /* \"#utility.yul\":328:352   */\n      tag_108\n        /* \"#utility.yul\":346:351   */\n      dup2\n        /* \"#utility.yul\":328:352   */\n      tag_59\n      jump\t// in\n    tag_108:\n        /* \"#utility.yul\":323:326   */\n      dup3\n        /* \"#utility.yul\":316:353   */\n      mstore\n        /* \"#utility.yul\":241:359   */\n      pop\n      pop\n      jump\t// out\n        /* \"#utility.yul\":365:587   */\n    tag_11:\n        /* \"#utility.yul\":458:462   */\n      0x00\n        /* \"#utility.yul\":496:498   */\n      0x20\n        /* \"#utility.yul\":485:494   */\n      dup3\n        /* \"#utility.yul\":481:499   */\n      add\n        /* \"#utility.yul\":473:499   */\n      swap1\n      pop\n        /* \"#utility.yul\":509:580   */\n      tag_110\n        /* \"#utility.yul\":577:578   */\n      0x00\n        /* \"#utility.yul\":566:575   */\n      dup4\n        /* \"#utility.yul\":562:579   */\n      add\n        /* \"#utility.yul\":553:559   */\n      dup5\n        /* \"#utility.yul\":509:580   */\n      tag_60\n      jump\t// in\n    tag_110:\n        /* \"#utility.yul\":365:587   */\n      swap3\n      swap2\n      pop\n      pop\n      jump\t// out\n        /* \"#utility.yul\":593:692   */\n    tag_61:\n        /* \"#utility.yul\":645:651   */\n      0x00\n        /* \"#utility.yul\":679:684   */\n      dup2\n        /* \"#utility.yul\":673:685   */\n      mload\n        /* \"#utility.yul\":663:685   */\n      swap1\n      pop\n        /* \"#utility.yul\":593:692   */\n      swap2\n      swap1\n      pop\n      jump\t// out\n        /* \"#utility.yul\":698:867   */\n    tag_62:\n        /* \"#utility.yul\":782:793   */\n      0x00\n        /* \"#utility.yul\":816:822   */\n      dup3\n        /* \"#utility.yul\":811:814   */\n      dup3\n        /* \"#utility.yul\":804:823   */\n      mstore\n        /* \"#utility.yul\":856:860   */\n      0x20\n        /* \"#utility.yul\":851:854   */\n      dup3\n        /* \"#utility.yul\":847:861   */\n      add\n        /* \"#utility.yul\":832:861   */\n      swap1\n      pop\n        /* \"#utility.yul\":698:867   */\n      swap3\n      swap2\n      pop\n      pop\n      jump\t// out\n        /* \"#utility.yul\":873:1119   */\n    tag_63:\n        /* \"#utility.yul\":954:955   */\n      0x00\n        /* \"#utility.yul\":964:1077   */\n    tag_114:\n        /* \"#utility.yul\":978:984   */\n      dup4\n        /* \"#utility.yul\":975:976   */\n      dup2\n        /* \"#utility.yul\":972:985   */\n      lt\n        /* \"#utility.yul\":964:1077   */\n      iszero\n      tag_116\n      jumpi\n        /* \"#utility.yul\":1063:1064   */\n      dup1\n        /* \"#utility.yul\":1058:1061   */\n      dup3\n        /* \"#utility.yul\":1054:1065   */\n      add\n        /* \"#utility.yul\":1048:1066   */\n      mload\n        /* \"#utility.yul\":1044:1045   */\n      dup2\n        /* \"#utility.yul\":1039:1042   */\n      dup5\n        /* \"#utility.yul\":1035:1046   */\n      add\n        /* \"#utility.yul\":1028:1067   */\n      mstore\n        /* \"#utility.yul\":1000:1002   */\n      0x20\n        /* \"#utility.yul\":997:998   */\n      dup2\n        /* \"#utility.yul\":993:1003   */\n      add\n        /* \"#utility.yul\":988:1003   */\n      swap1\n      pop\n        /* \"#utility.yul\":964:1077   */\n      jump(tag_114)\n    tag_116:\n        /* \"#utility.yul\":1111:1112   */\n      0x00\n        /* \"#utility.yul\":1102:1108   */\n      dup5\n        /* \"#utility.yul\":1097:1100   */\n      dup5\n        /* \"#utility.yul\":1093:1109   */\n      add\n        /* \"#utility.yul\":1086:1113   */\n      mstore\n        /* \"#utility.yul\":935:1119   */\n      pop\n        /* \"#utility.yul\":873:1119   */\n      pop\n      pop\n      pop\n      jump\t// out\n        /* \"#utility.yul\":1125:1227   */\n    tag_64:\n        /* \"#utility.yul\":1166:1172   */\n      0x00\n        /* \"#utility.yul\":1217:1219   */\n      0x1f\n        /* \"#utility.yul\":1213:1220   */\n      not\n        /* \"#utility.yul\":1208:1210   */\n      0x1f\n        /* \"#utility.yul\":1201:1206   */\n      dup4\n        /* \"#utility.yul\":1197:1211   */\n      add\n        /* \"#utility.yul\":1193:1221   */\n      and\n        /* \"#utility.yul\":1183:1221   */\n      swap1\n      pop\n        /* \"#utility.yul\":1125:1227   */\n      swap2\n      swap1\n      pop\n      jump\t// out\n        /* \"#utility.yul\":1233:1610   */\n    tag_65:\n        /* \"#utility.yul\":1321:1324   */\n      0x00\n        /* \"#utility.yul\":1349:1388   */\n      tag_119\n        /* \"#utility.yul\":1382:1387   */\n      dup3\n        /* \"#utility.yul\":1349:1388   */\n      tag_61\n      jump\t// in\n    tag_119:\n        /* \"#utility.yul\":1404:1475   */\n      tag_120\n        /* \"#utility.yul\":1468:1474   */\n      dup2\n        /* \"#utility.yul\":1463:1466   */\n      dup6\n        /* \"#utility.yul\":1404:1475   */\n      tag_62\n      jump\t// in\n    tag_120:\n        /* \"#utility.yul\":1397:1475   */\n      swap4\n      pop\n        /* \"#utility.yul\":1484:1549   */\n      tag_121\n        /* \"#utility.yul\":1542:1548   */\n      dup2\n        /* \"#utility.yul\":1537:1540   */\n      dup6\n        /* \"#utility.yul\":1530:1534   */\n      0x20\n        /* \"#utility.yul\":1523:1528   */\n      dup7\n        /* \"#utility.yul\":1519:1535   */\n      add\n        /* \"#utility.yul\":1484:1549   */\n      tag_63\n      jump\t// in\n    tag_121:\n        /* \"#utility.yul\":1574:1603   */\n      tag_122\n        /* \"#utility.yul\":1596:1602   */\n      dup2\n        /* \"#utility.yul\":1574:1603   */\n      tag_64\n      jump\t// in\n    tag_122:\n        /* \"#utility.yul\":1569:1572   */\n      dup5\n        /* \"#utility.yul\":1565:1604   */\n      add\n        /* \"#utility.yul\":1558:1604   */\n      swap2\n      pop\n        /* \"#utility.yul\":1325:1610   */\n      pop\n        /* \"#utility.yul\":1233:1610   */\n      swap3\n      swap2\n      pop\n      pop\n      jump\t// out\n        /* \"#utility.yul\":1616:1929   */\n    tag_15:\n        /* \"#utility.yul\":1729:1733   */\n      0x00\n        /* \"#utility.yul\":1767:1769   */\n      0x20\n        /* \"#utility.yul\":1756:1765   */\n      dup3\n        /* \"#utility.yul\":1752:1770   */\n      add\n        /* \"#utility.yul\":1744:1770   */\n      swap1\n      pop\n        /* \"#utility.yul\":1816:1825   */\n      dup2\n        /* \"#utility.yul\":1810:1814   */\n      dup2\n        /* \"#utility.yul\":1806:1826   */\n      sub\n        /* \"#utility.yul\":1802:1803   */\n      0x00\n        /* \"#utility.yul\":1791:1800   */\n      dup4\n        /* \"#utility.yul\":1787:1804   */\n      add\n        /* \"#utility.yul\":1780:1827   */\n      mstore\n        /* \"#utility.yul\":1844:1922   */\n      tag_124\n        /* \"#utility.yul\":1917:1921   */\n      dup2\n        /* \"#utility.yul\":1908:1914   */\n      dup5\n        /* \"#utility.yul\":1844:1922   */\n      tag_65\n      jump\t// in\n    tag_124:\n        /* \"#utility.yul\":1836:1922   */\n      swap1\n      pop\n        /* \"#utility.yul\":1616:1929   */\n      swap3\n      swap2\n      pop\n      pop\n      jump\t// out\n        /* \"#utility.yul\":1935:2010   */\n    tag_66:\n        /* \"#utility.yul\":1968:1974   */\n      0x00\n        /* \"#utility.yul\":2001:2003   */\n      0x40\n        /* \"#utility.yul\":1995:2004   */\n      mload\n        /* \"#utility.yul\":1985:2004   */\n      swap1\n      pop\n        /* \"#utility.yul\":1935:2010   */\n      swap1\n      jump\t// out\n        /* \"#utility.yul\":2016:2133   */\n    tag_67:\n        /* \"#utility.yul\":2125:2126   */\n      0x00\n        /* \"#utility.yul\":2122:2123   */\n      dup1\n        /* \"#utility.yul\":2115:2127   */\n      revert\n        /* \"#utility.yul\":2139:2256   */\n    tag_68:\n        /* \"#utility.yul\":2248:2249   */\n      0x00\n        /* \"#utility.yul\":2245:2246   */\n      dup1\n        /* \"#utility.yul\":2238:2250   */\n      revert\n        /* \"#utility.yul\":2262:2379   */\n    tag_69:\n        /* \"#utility.yul\":2371:2372   */\n      0x00\n        /* \"#utility.yul\":2368:2369   */\n      dup1\n        /* \"#utility.yul\":2361:2373   */\n      revert\n        /* \"#utility.yul\":2385:2502   */\n    tag_70:\n        /* \"#utility.yul\":2494:2495   */\n      0x00\n        /* \"#utility.yul\":2491:2492   */\n      dup1\n        /* \"#utility.yul\":2484:2496   */\n      revert\n        /* \"#utility.yul\":2508:2688   */\n    tag_71:\n        /* \"#utility.yul\":2556:2633   */\n      0x4e487b7100000000000000000000000000000000000000000000000000000000\n        /* \"#utility.yul\":2553:2554   */\n      0x00\n        /* \"#utility.yul\":2546:2634   */\n      mstore\n        /* \"#utility.yul\":2653:2657   */\n      0x41\n        /* \"#utility.yul\":2650:2651   */\n      0x04\n        /* \"#utility.yul\":2643:2658   */\n      mstore\n        /* \"#utility.yul\":2677:2681   */\n      0x24\n        /* \"#utility.yul\":2674:2675   */\n      0x00\n        /* \"#utility.yul\":2667:2682   */\n      revert\n        /* \"#utility.yul\":2694:2975   */\n    tag_72:\n        /* \"#utility.yul\":2777:2804   */\n      tag_132\n        /* \"#utility.yul\":2799:2803   */\n      dup3\n        /* \"#utility.yul\":2777:2804   */\n      tag_64\n      jump\t// in\n    tag_132:\n        /* \"#utility.yul\":2769:2775   */\n      dup2\n        /* \"#utility.yul\":2765:2805   */\n      add\n        /* \"#utility.yul\":2907:2913   */\n      dup2\n        /* \"#utility.yul\":2895:2905   */\n      dup2\n        /* \"#utility.yul\":2892:2914   */\n      lt\n        /* \"#utility.yul\":2871:2889   */\n      0xffffffffffffffff\n        /* \"#utility.yul\":2859:2869   */\n      dup3\n        /* \"#utility.yul\":2856:2890   */\n      gt\n        /* \"#utility.yul\":2853:2915   */\n      or\n        /* \"#utility.yul\":2850:2938   */\n      iszero\n      tag_133\n      jumpi\n        /* \"#utility.yul\":2918:2936   */\n      tag_134\n      tag_71\n      jump\t// in\n    tag_134:\n        /* \"#utility.yul\":2850:2938   */\n    tag_133:\n        /* \"#utility.yul\":2958:2968   */\n      dup1\n        /* \"#utility.yul\":2954:2956   */\n      0x40\n        /* \"#utility.yul\":2947:2969   */\n      mstore\n        /* \"#utility.yul\":2737:2975   */\n      pop\n        /* \"#utility.yul\":2694:2975   */\n      pop\n      pop\n      jump\t// out\n        /* \"#utility.yul\":2981:3110   */\n    tag_73:\n        /* \"#utility.yul\":3015:3021   */\n      0x00\n        /* \"#utility.yul\":3042:3062   */\n      tag_136\n      tag_66\n      jump\t// in\n    tag_136:\n        /* \"#utility.yul\":3032:3062   */\n      swap1\n      pop\n        /* \"#utility.yul\":3071:3104   */\n      tag_137\n        /* \"#utility.yul\":3099:3103   */\n      dup3\n        /* \"#utility.yul\":3091:3097   */\n      dup3\n        /* \"#utility.yul\":3071:3104   */\n      tag_72\n      jump\t// in\n    tag_137:\n        /* \"#utility.yul\":2981:3110   */\n      swap2\n      swap1\n      pop\n      jump\t// out\n        /* \"#utility.yul\":3116:3424   */\n    tag_74:\n        /* \"#utility.yul\":3178:3182   */\n      0x00\n        /* \"#utility.yul\":3268:3286   */\n      0xffffffffffffffff\n        /* \"#utility.yul\":3260:3266   */\n      dup3\n        /* \"#utility.yul\":3257:3287   */\n      gt\n        /* \"#utility.yul\":3254:3310   */\n      iszero\n      tag_139\n      jumpi\n        /* \"#utility.yul\":3290:3308   */\n      tag_140\n      tag_71\n      jump\t// in\n    tag_140:\n        /* \"#utility.yul\":3254:3310   */\n    tag_139:\n        /* \"#utility.yul\":3328:3357   */\n      tag_141\n        /* \"#utility.yul\":3350:3356   */\n      dup3\n        /* \"#utility.yul\":3328:3357   */\n      tag_64\n      jump\t// in\n    tag_141:\n        /* \"#utility.yul\":3320:3357   */\n      swap1\n      pop\n        /* \"#utility.yul\":3412:3416   */\n      0x20\n        /* \"#utility.yul\":3406:3410   */\n      dup2\n        /* \"#utility.yul\":3402:3417   */\n      add\n        /* \"#utility.yul\":3394:3417   */\n      swap1\n      pop\n        /* \"#utility.yul\":3116:3424   */\n      swap2\n      swap1\n      pop\n      jump\t// out\n        /* \"#utility.yul\":3430:3576   */\n    tag_75:\n        /* \"#utility.yul\":3527:3533   */\n      dup3\n        /* \"#utility.yul\":3522:3525   */\n      dup2\n        /* \"#utility.yul\":3517:3520   */\n      dup4\n        /* \"#utility.yul\":3504:3534   */\n      calldatacopy\n        /* \"#utility.yul\":3568:3569   */\n      0x00\n        /* \"#utility.yul\":3559:3565   */\n      dup4\n        /* \"#utility.yul\":3554:3557   */\n      dup4\n        /* \"#utility.yul\":3550:3566   */\n      add\n        /* \"#utility.yul\":3543:3570   */\n      mstore\n        /* \"#utility.yul\":3430:3576   */\n      pop\n      pop\n      pop\n      jump\t// out\n        /* \"#utility.yul\":3582:4007   */\n    tag_76:\n        /* \"#utility.yul\":3660:3665   */\n      0x00\n        /* \"#utility.yul\":3685:3751   */\n      tag_144\n        /* \"#utility.yul\":3701:3750   */\n      tag_145\n        /* \"#utility.yul\":3743:3749   */\n      dup5\n        /* \"#utility.yul\":3701:3750   */\n      tag_74\n      jump\t// in\n    tag_145:\n        /* \"#utility.yul\":3685:3751   */\n      tag_73\n      jump\t// in\n    tag_144:\n        /* \"#utility.yul\":3676:3751   */\n      swap1\n      pop\n        /* \"#utility.yul\":3774:3780   */\n      dup3\n        /* \"#utility.yul\":3767:3772   */\n      dup2\n        /* \"#utility.yul\":3760:3781   */\n      mstore\n        /* \"#utility.yul\":3812:3816   */\n      0x20\n        /* \"#utility.yul\":3805:3810   */\n      dup2\n        /* \"#utility.yul\":3801:3817   */\n      add\n        /* \"#utility.yul\":3850:3853   */\n      dup5\n        /* \"#utility.yul\":3841:3847   */\n      dup5\n        /* \"#utility.yul\":3836:3839   */\n      dup5\n        /* \"#utility.yul\":3832:3848   */\n      add\n        /* \"#utility.yul\":3829:3854   */\n      gt\n        /* \"#utility.yul\":3826:3938   */\n      iszero\n      tag_146\n      jumpi\n        /* \"#utility.yul\":3857:3936   */\n      tag_147\n      tag_70\n      jump\t// in\n    tag_147:\n        /* \"#utility.yul\":3826:3938   */\n    tag_146:\n        /* \"#utility.yul\":3947:4001   */\n      tag_148\n        /* \"#utility.yul\":3994:4000   */\n      dup5\n        /* \"#utility.yul\":3989:3992   */\n      dup3\n        /* \"#utility.yul\":3984:3987   */\n      dup6\n        /* \"#utility.yul\":3947:4001   */\n      tag_75\n      jump\t// in\n    tag_148:\n        /* \"#utility.yul\":3666:4007   */\n      pop\n        /* \"#utility.yul\":3582:4007   */\n      swap4\n      swap3\n      pop\n      pop\n      pop\n      jump\t// out\n        /* \"#utility.yul\":4027:4367   */\n    tag_77:\n        /* \"#utility.yul\":4083:4088   */\n      0x00\n        /* \"#utility.yul\":4132:4135   */\n      dup3\n        /* \"#utility.yul\":4125:4129   */\n      0x1f\n        /* \"#utility.yul\":4117:4123   */\n      dup4\n        /* \"#utility.yul\":4113:4130   */\n      add\n        /* \"#utility.yul\":4109:4136   */\n      slt\n        /* \"#utility.yul\":4099:4221   */\n      tag_150\n      jumpi\n        /* \"#utility.yul\":4140:4219   */\n      tag_151\n      tag_69\n      jump\t// in\n    tag_151:\n        /* \"#utility.yul\":4099:4221   */\n    tag_150:\n        /* \"#utility.yul\":4257:4263   */\n      dup2\n        /* \"#utility.yul\":4244:4264   */\n      calldataload\n        /* \"#utility.yul\":4282:4361   */\n      tag_152\n        /* \"#utility.yul\":4357:4360   */\n      dup5\n        /* \"#utility.yul\":4349:4355   */\n      dup3\n        /* \"#utility.yul\":4342:4346   */\n      0x20\n        /* \"#utility.yul\":4334:4340   */\n      dup7\n        /* \"#utility.yul\":4330:4347   */\n      add\n        /* \"#utility.yul\":4282:4361   */\n      tag_76\n      jump\t// in\n    tag_152:\n        /* \"#utility.yul\":4273:4361   */\n      swap2\n      pop\n        /* \"#utility.yul\":4089:4367   */\n      pop\n        /* \"#utility.yul\":4027:4367   */\n      swap3\n      swap2\n      pop\n      pop\n      jump\t// out\n        /* \"#utility.yul\":4373:4882   */\n    tag_18:\n        /* \"#utility.yul\":4442:4448   */\n      0x00\n        /* \"#utility.yul\":4491:4493   */\n      0x20\n        /* \"#utility.yul\":4479:4488   */\n      dup3\n        /* \"#utility.yul\":4470:4477   */\n      dup5\n        /* \"#utility.yul\":4466:4489   */\n      sub\n        /* \"#utility.yul\":4462:4494   */\n      slt\n        /* \"#utility.yul\":4459:4578   */\n      iszero\n      tag_154\n      jumpi\n        /* \"#utility.yul\":4497:4576   */\n      tag_155\n      tag_67\n      jump\t// in\n    tag_155:\n        /* \"#utility.yul\":4459:4578   */\n    tag_154:\n        /* \"#utility.yul\":4645:4646   */\n      0x00\n        /* \"#utility.yul\":4634:4643   */\n      dup3\n        /* \"#utility.yul\":4630:4647   */\n      add\n        /* \"#utility.yul\":4617:4648   */\n      calldataload\n        /* \"#utility.yul\":4675:4693   */\n      0xffffffffffffffff\n        /* \"#utility.yul\":4667:4673   */\n      dup2\n        /* \"#utility.yul\":4664:4694   */\n      gt\n        /* \"#utility.yul\":4661:4778   */\n      iszero\n      tag_156\n      jumpi\n        /* \"#utility.yul\":4697:4776   */\n      tag_157\n      tag_68\n      jump\t// in\n    tag_157:\n        /* \"#utility.yul\":4661:4778   */\n    tag_156:\n        /* \"#utility.yul\":4802:4865   */\n      tag_158\n        /* \"#utility.yul\":4857:4864   */\n      dup5\n        /* \"#utility.yul\":4848:4854   */\n      dup3\n        /* \"#utility.yul\":4837:4846   */\n      dup6\n        /* \"#utility.yul\":4833:4855   */\n      add\n        /* \"#utility.yul\":4802:4865   */\n      tag_77\n      jump\t// in\n    tag_158:\n        /* \"#utility.yul\":4792:4865   */\n      swap2\n      pop\n        /* \"#utility.yul\":4588:4875   */\n      pop\n        /* \"#utility.yul\":4373:4882   */\n      swap3\n      swap2\n      pop\n      pop\n      jump\t// out\n        /* \"#utility.yul\":4888:5010   */\n    tag_78:\n        /* \"#utility.yul\":4961:4985   */\n      tag_160\n        /* \"#utility.yul\":4979:4984   */\n      dup2\n        /* \"#utility.yul\":4961:4985   */\n      tag_59\n      jump\t// in\n    tag_160:\n        /* \"#utility.yul\":4954:4959   */\n      dup2\n        /* \"#utility.yul\":4951:4986   */\n      eq\n        /* \"#utility.yul\":4941:5004   */\n      tag_161\n      jumpi\n        /* \"#utility.yul\":5000:5001   */\n      0x00\n        /* \"#utility.yul\":4997:4998   */\n      dup1\n        /* \"#utility.yul\":4990:5002   */\n      revert\n        /* \"#utility.yul\":4941:5004   */\n    tag_161:\n        /* \"#utility.yul\":4888:5010   */\n      pop\n      jump\t// out\n        /* \"#utility.yul\":5016:5155   */\n    tag_79:\n        /* \"#utility.yul\":5062:5067   */\n      0x00\n        /* \"#utility.yul\":5100:5106   */\n      dup2\n        /* \"#utility.yul\":5087:5107   */\n      calldataload\n        /* \"#utility.yul\":5078:5107   */\n      swap1\n      pop\n        /* \"#utility.yul\":5116:5149   */\n      tag_163\n        /* \"#utility.yul\":5143:5148   */\n      dup2\n        /* \"#utility.yul\":5116:5149   */\n      tag_78\n      jump\t// in\n    tag_163:\n        /* \"#utility.yul\":5016:5155   */\n      swap3\n      swap2\n      pop\n      pop\n      jump\t// out\n        /* \"#utility.yul\":5161:5490   */\n    tag_22:\n        /* \"#utility.yul\":5220:5226   */\n      0x00\n        /* \"#utility.yul\":5269:5271   */\n      0x20\n        /* \"#utility.yul\":5257:5266   */\n      dup3\n        /* \"#utility.yul\":5248:5255   */\n      dup5\n        /* \"#utility.yul\":5244:5267   */\n      sub\n        /* \"#utility.yul\":5240:5272   */\n      slt\n        /* \"#utility.yul\":5237:5356   */\n      iszero\n      tag_165\n      jumpi\n        /* \"#utility.yul\":5275:5354   */\n      tag_166\n      tag_67\n      jump\t// in\n    tag_166:\n        /* \"#utility.yul\":5237:5356   */\n    tag_165:\n        /* \"#utility.yul\":5395:5396   */\n      0x00\n        /* \"#utility.yul\":5420:5473   */\n      tag_167\n        /* \"#utility.yul\":5465:5472   */\n      dup5\n        /* \"#utility.yul\":5456:5462   */\n      dup3\n        /* \"#utility.yul\":5445:5454   */\n      dup6\n        /* \"#utility.yul\":5441:5463   */\n      add\n        /* \"#utility.yul\":5420:5473   */\n      tag_79\n      jump\t// in\n    tag_167:\n        /* \"#utility.yul\":5410:5473   */\n      swap2\n      pop\n        /* \"#utility.yul\":5366:5483   */\n      pop\n        /* \"#utility.yul\":5161:5490   */\n      swap3\n      swap2\n      pop\n      pop\n      jump\t// out\n        /* \"#utility.yul\":5496:5573   */\n    tag_80:\n        /* \"#utility.yul\":5533:5540   */\n      0x00\n        /* \"#utility.yul\":5562:5567   */\n      dup2\n        /* \"#utility.yul\":5551:5567   */\n      swap1\n      pop\n        /* \"#utility.yul\":5496:5573   */\n      swap2\n      swap1\n      pop\n      jump\t// out\n        /* \"#utility.yul\":5579:5697   */\n    tag_81:\n        /* \"#utility.yul\":5666:5690   */\n      tag_170\n        /* \"#utility.yul\":5684:5689   */\n      dup2\n        /* \"#utility.yul\":5666:5690   */\n      tag_80\n      jump\t// in\n    tag_170:\n        /* \"#utility.yul\":5661:5664   */\n      dup3\n        /* \"#utility.yul\":5654:5691   */\n      mstore\n        /* \"#utility.yul\":5579:5697   */\n      pop\n      pop\n      jump\t// out\n        /* \"#utility.yul\":5703:5925   */\n    tag_27:\n        /* \"#utility.yul\":5796:5800   */\n      0x00\n        /* \"#utility.yul\":5834:5836   */\n      0x20\n        /* \"#utility.yul\":5823:5832   */\n      dup3\n        /* \"#utility.yul\":5819:5837   */\n      add\n        /* \"#utility.yul\":5811:5837   */\n      swap1\n      pop\n        /* \"#utility.yul\":5847:5918   */\n      tag_172\n        /* \"#utility.yul\":5915:5916   */\n      0x00\n        /* \"#utility.yul\":5904:5913   */\n      dup4\n        /* \"#utility.yul\":5900:5917   */\n      add\n        /* \"#utility.yul\":5891:5897   */\n      dup5\n        /* \"#utility.yul\":5847:5918   */\n      tag_81\n      jump\t// in\n    tag_172:\n        /* \"#utility.yul\":5703:5925   */\n      swap3\n      swap2\n      pop\n      pop\n      jump\t// out\n        /* \"#utility.yul\":5931:6111   */\n    tag_82:\n        /* \"#utility.yul\":5979:6056   */\n      0x4e487b7100000000000000000000000000000000000000000000000000000000\n        /* \"#utility.yul\":5976:5977   */\n      0x00\n        /* \"#utility.yul\":5969:6057   */\n      mstore\n        /* \"#utility.yul\":6076:6080   */\n      0x22\n        /* \"#utility.yul\":6073:6074   */\n      0x04\n        /* \"#utility.yul\":6066:6081   */\n      mstore\n        /* \"#utility.yul\":6100:6104   */\n      0x24\n        /* \"#utility.yul\":6097:6098   */\n      0x00\n        /* \"#utility.yul\":6090:6105   */\n      revert\n        /* \"#utility.yul\":6117:6437   */\n    tag_30:\n        /* \"#utility.yul\":6161:6167   */\n      0x00\n        /* \"#utility.yul\":6198:6199   */\n      0x02\n        /* \"#utility.yul\":6192:6196   */\n      dup3\n        /* \"#utility.yul\":6188:6200   */\n      div\n        /* \"#utility.yul\":6178:6200   */\n      swap1\n      pop\n        /* \"#utility.yul\":6245:6246   */\n      0x01\n        /* \"#utility.yul\":6239:6243   */\n      dup3\n        /* \"#utility.yul\":6235:6247   */\n      and\n        /* \"#utility.yul\":6266:6284   */\n      dup1\n        /* \"#utility.yul\":6256:6337   */\n      tag_175\n      jumpi\n        /* \"#utility.yul\":6322:6326   */\n      0x7f\n        /* \"#utility.yul\":6314:6320   */\n      dup3\n        /* \"#utility.yul\":6310:6327   */\n      and\n        /* \"#utility.yul\":6300:6327   */\n      swap2\n      pop\n        /* \"#utility.yul\":6256:6337   */\n    tag_175:\n        /* \"#utility.yul\":6384:6386   */\n      0x20\n        /* \"#utility.yul\":6376:6382   */\n      dup3\n        /* \"#utility.yul\":6373:6387   */\n      lt\n        /* \"#utility.yul\":6353:6371   */\n      dup2\n        /* \"#utility.yul\":6350:6388   */\n      sub\n        /* \"#utility.yul\":6347:6431   */\n      tag_176\n      jumpi\n        /* \"#utility.yul\":6403:6421   */\n      tag_177\n      tag_82\n      jump\t// in\n    tag_177:\n        /* \"#utility.yul\":6347:6431   */\n    tag_176:\n        /* \"#utility.yul\":6168:6437   */\n      pop\n        /* \"#utility.yul\":6117:6437   */\n      swap2\n      swap1\n      pop\n      jump\t// out\n        /* \"#utility.yul\":6443:6670   */\n    tag_83:\n        /* \"#utility.yul\":6583:6617   */\n      0x536f6c6f20656c2061646d696e207075656465207265616c697a617220657374\n        /* \"#utility.yul\":6579:6580   */\n      0x00\n        /* \"#utility.yul\":6571:6577   */\n      dup3\n        /* \"#utility.yul\":6567:6581   */\n      add\n        /* \"#utility.yul\":6560:6618   */\n      mstore\n        /* \"#utility.yul\":6652:6662   */\n      0x6120616363696f6e000000000000000000000000000000000000000000000000\n        /* \"#utility.yul\":6647:6649   */\n      0x20\n        /* \"#utility.yul\":6639:6645   */\n      dup3\n        /* \"#utility.yul\":6635:6650   */\n      add\n        /* \"#utility.yul\":6628:6663   */\n      mstore\n        /* \"#utility.yul\":6443:6670   */\n      pop\n      jump\t// out\n        /* \"#utility.yul\":6676:7042   */\n    tag_84:\n        /* \"#utility.yul\":6818:6821   */\n      0x00\n        /* \"#utility.yul\":6839:6906   */\n      tag_180\n        /* \"#utility.yul\":6903:6905   */\n      0x28\n        /* \"#utility.yul\":6898:6901   */\n      dup4\n        /* \"#utility.yul\":6839:6906   */\n      tag_62\n      jump\t// in\n    tag_180:\n        /* \"#utility.yul\":6832:6906   */\n      swap2\n      pop\n        /* \"#utility.yul\":6915:7008   */\n      tag_181\n        /* \"#utility.yul\":7004:7007   */\n      dup3\n        /* \"#utility.yul\":6915:7008   */\n      tag_83\n      jump\t// in\n    tag_181:\n        /* \"#utility.yul\":7033:7035   */\n      0x40\n        /* \"#utility.yul\":7028:7031   */\n      dup3\n        /* \"#utility.yul\":7024:7036   */\n      add\n        /* \"#utility.yul\":7017:7036   */\n      swap1\n      pop\n        /* \"#utility.yul\":6676:7042   */\n      swap2\n      swap1\n      pop\n      jump\t// out\n        /* \"#utility.yul\":7048:7467   */\n    tag_38:\n        /* \"#utility.yul\":7214:7218   */\n      0x00\n        /* \"#utility.yul\":7252:7254   */\n      0x20\n        /* \"#utility.yul\":7241:7250   */\n      dup3\n        /* \"#utility.yul\":7237:7255   */\n      add\n        /* \"#utility.yul\":7229:7255   */\n      swap1\n      pop\n        /* \"#utility.yul\":7301:7310   */\n      dup2\n        /* \"#utility.yul\":7295:7299   */\n      dup2\n        /* \"#utility.yul\":7291:7311   */\n      sub\n        /* \"#utility.yul\":7287:7288   */\n      0x00\n        /* \"#utility.yul\":7276:7285   */\n      dup4\n        /* \"#utility.yul\":7272:7289   */\n      add\n        /* \"#utility.yul\":7265:7312   */\n      mstore\n        /* \"#utility.yul\":7329:7460   */\n      tag_183\n        /* \"#utility.yul\":7455:7459   */\n      dup2\n        /* \"#utility.yul\":7329:7460   */\n      tag_84\n      jump\t// in\n    tag_183:\n        /* \"#utility.yul\":7321:7460   */\n      swap1\n      pop\n        /* \"#utility.yul\":7048:7467   */\n      swap2\n      swap1\n      pop\n      jump\t// out\n        /* \"#utility.yul\":7473:7987   */\n    tag_46:\n        /* \"#utility.yul\":7634:7638   */\n      0x00\n        /* \"#utility.yul\":7672:7674   */\n      0x40\n        /* \"#utility.yul\":7661:7670   */\n      dup3\n        /* \"#utility.yul\":7657:7675   */\n      add\n        /* \"#utility.yul\":7649:7675   */\n      swap1\n      pop\n        /* \"#utility.yul\":7721:7730   */\n      dup2\n        /* \"#utility.yul\":7715:7719   */\n      dup2\n        /* \"#utility.yul\":7711:7731   */\n      sub\n        /* \"#utility.yul\":7707:7708   */\n      0x00\n        /* \"#utility.yul\":7696:7705   */\n      dup4\n        /* \"#utility.yul\":7692:7709   */\n      add\n        /* \"#utility.yul\":7685:7732   */\n      mstore\n        /* \"#utility.yul\":7749:7827   */\n      tag_185\n        /* \"#utility.yul\":7822:7826   */\n      dup2\n        /* \"#utility.yul\":7813:7819   */\n      dup6\n        /* \"#utility.yul\":7749:7827   */\n      tag_65\n      jump\t// in\n    tag_185:\n        /* \"#utility.yul\":7741:7827   */\n      swap1\n      pop\n        /* \"#utility.yul\":7874:7883   */\n      dup2\n        /* \"#utility.yul\":7868:7872   */\n      dup2\n        /* \"#utility.yul\":7864:7884   */\n      sub\n        /* \"#utility.yul\":7859:7861   */\n      0x20\n        /* \"#utility.yul\":7848:7857   */\n      dup4\n        /* \"#utility.yul\":7844:7862   */\n      add\n        /* \"#utility.yul\":7837:7885   */\n      mstore\n        /* \"#utility.yul\":7902:7980   */\n      tag_186\n        /* \"#utility.yul\":7975:7979   */\n      dup2\n        /* \"#utility.yul\":7966:7972   */\n      dup5\n        /* \"#utility.yul\":7902:7980   */\n      tag_65\n      jump\t// in\n    tag_186:\n        /* \"#utility.yul\":7894:7980   */\n      swap1\n      pop\n        /* \"#utility.yul\":7473:7987   */\n      swap4\n      swap3\n      pop\n      pop\n      pop\n      jump\t// out\n        /* \"#utility.yul\":7993:8134   */\n    tag_85:\n        /* \"#utility.yul\":8042:8046   */\n      0x00\n        /* \"#utility.yul\":8065:8068   */\n      dup2\n        /* \"#utility.yul\":8057:8068   */\n      swap1\n      pop\n        /* \"#utility.yul\":8088:8091   */\n      dup2\n        /* \"#utility.yul\":8085:8086   */\n      0x00\n        /* \"#utility.yul\":8078:8092   */\n      mstore\n        /* \"#utility.yul\":8122:8126   */\n      0x20\n        /* \"#utility.yul\":8119:8120   */\n      0x00\n        /* \"#utility.yul\":8109:8127   */\n      keccak256\n        /* \"#utility.yul\":8101:8127   */\n      swap1\n      pop\n        /* \"#utility.yul\":7993:8134   */\n      swap2\n      swap1\n      pop\n      jump\t// out\n        /* \"#utility.yul\":8140:8233   */\n    tag_86:\n        /* \"#utility.yul\":8177:8183   */\n      0x00\n        /* \"#utility.yul\":8224:8226   */\n      0x20\n        /* \"#utility.yul\":8219:8221   */\n      0x1f\n        /* \"#utility.yul\":8212:8217   */\n      dup4\n        /* \"#utility.yul\":8208:8222   */\n      add\n        /* \"#utility.yul\":8204:8227   */\n      div\n        /* \"#utility.yul\":8194:8227   */\n      swap1\n      pop\n        /* \"#utility.yul\":8140:8233   */\n      swap2\n      swap1\n      pop\n      jump\t// out\n        /* \"#utility.yul\":8239:8346   */\n    tag_87:\n        /* \"#utility.yul\":8283:8291   */\n      0x00\n        /* \"#utility.yul\":8333:8338   */\n      dup3\n        /* \"#utility.yul\":8327:8331   */\n      dup3\n        /* \"#utility.yul\":8323:8339   */\n      shl\n        /* \"#utility.yul\":8302:8339   */\n      swap1\n      pop\n        /* \"#utility.yul\":8239:8346   */\n      swap3\n      swap2\n      pop\n      pop\n      jump\t// out\n        /* \"#utility.yul\":8352:8745   */\n    tag_88:\n        /* \"#utility.yul\":8421:8427   */\n      0x00\n        /* \"#utility.yul\":8471:8472   */\n      0x08\n        /* \"#utility.yul\":8459:8469   */\n      dup4\n        /* \"#utility.yul\":8455:8473   */\n      mul\n        /* \"#utility.yul\":8494:8591   */\n      tag_191\n        /* \"#utility.yul\":8524:8590   */\n      0xffffffffffffffffffffffffffffffffffffffffffffffffffffffffffffffff\n        /* \"#utility.yul\":8513:8522   */\n      dup3\n        /* \"#utility.yul\":8494:8591   */\n      tag_87\n      jump\t// in\n    tag_191:\n        /* \"#utility.yul\":8612:8651   */\n      tag_192\n        /* \"#utility.yul\":8642:8650   */\n      dup7\n        /* \"#utility.yul\":8631:8640   */\n      dup4\n        /* \"#utility.yul\":8612:8651   */\n      tag_87\n      jump\t// in\n    tag_192:\n        /* \"#utility.yul\":8600:8651   */\n      swap6\n      pop\n        /* \"#utility.yul\":8684:8688   */\n      dup1\n        /* \"#utility.yul\":8680:8689   */\n      not\n        /* \"#utility.yul\":8673:8678   */\n      dup5\n        /* \"#utility.yul\":8669:8690   */\n      and\n        /* \"#utility.yul\":8660:8690   */\n      swap4\n      pop\n        /* \"#utility.yul\":8733:8737   */\n      dup1\n        /* \"#utility.yul\":8723:8731   */\n      dup7\n        /* \"#utility.yul\":8719:8738   */\n      and\n        /* \"#utility.yul\":8712:8717   */\n      dup5\n        /* \"#utility.yul\":8709:8739   */\n      or\n        /* \"#utility.yul\":8699:8739   */\n      swap3\n      pop\n        /* \"#utility.yul\":8428:8745   */\n      pop\n      pop\n        /* \"#utility.yul\":8352:8745   */\n      swap4\n      swap3\n      pop\n      pop\n      pop\n      jump\t// out\n        /* \"#utility.yul\":8751:8811   */\n    tag_89:\n        /* \"#utility.yul\":8779:8782   */\n      0x00\n        /* \"#utility.yul\":8800:8805   */\n      dup2\n        /* \"#utility.yul\":8793:8805   */\n      swap1\n      pop\n        /* \"#utility.yul\":8751:8811   */\n      swap2\n      swap1\n      pop\n      jump\t// out\n        /* \"#utility.yul\":8817:8959   */\n    tag_90:\n        /* \"#utility.yul\":8867:8876   */\n      0x00\n        /* \"#utility.yul\":8900:8953   */\n      tag_195\n        /* \"#utility.yul\":8918:8952   */\n      tag_196\n        /* \"#utility.yul\":8927:8951   */\n      tag_197\n        /* \"#utility.yul\":8945:8950   */\n      dup5\n        /* \"#utility.yul\":8927:8951   */\n      tag_80\n      jump\t// in\n    tag_197:\n        /* \"#utility.yul\":8918:8952   */\n      tag_89\n      jump\t// in\n    tag_196:\n        /* \"#utility.yul\":8900:8953   */\n      tag_80\n      jump\t// in\n    tag_195:\n        /* \"#utility.yul\":8887:8953   */\n      swap1\n      pop\n        /* \"#utility.yul\":8817:8959   */\n      swap2\n      swap1\n      pop\n      jump\t// out\n        /* \"#utility.yul\":8965:9040   */\n    tag_91:\n        /* \"#utility.yul\":9008:9011   */\n      0x00\n        /* \"#utility.yul\":9029:9034   */\n      dup2\n        /* \"#utility.yul\":9022:9034   */\n      swap1\n      pop\n        /* \"#utility.yul\":8965:9040   */\n      swap2\n      swap1\n      pop\n      jump\t// out\n        /* \"#utility.yul\":9046:9315   */\n    tag_92:\n        /* \"#utility.yul\":9156:9195   */\n      tag_200\n        /* \"#utility.yul\":9187:9194   */\n      dup4\n        /* \"#utility.yul\":9156:9195   */\n      tag_90\n      jump\t// in\n    tag_200:\n        /* \"#utility.yul\":9217:9308   */\n      tag_201\n        /* \"#utility.yul\":9266:9307   */\n      tag_202\n        /* \"#utility.yul\":9290:9306   */\n      dup3\n        /* \"#utility.yul\":9266:9307   */\n      tag_91\n      jump\t// in\n    tag_202:\n        /* \"#utility.yul\":9258:9264   */\n      dup5\n        /* \"#utility.yul\":9251:9255   */\n      dup5\n        /* \"#utility.yul\":9245:9256   */\n      sload\n        /* \"#utility.yul\":9217:9308   */\n      tag_88\n      jump\t// in\n    tag_201:\n        /* \"#utility.yul\":9211:9215   */\n      dup3\n        /* \"#utility.yul\":9204:9309   */\n      sstore\n        /* \"#utility.yul\":9122:9315   */\n      pop\n        /* \"#utility.yul\":9046:9315   */\n      pop\n      pop\n      pop\n      jump\t// out\n        /* \"#utility.yul\":9321:9394   */\n    tag_93:\n        /* \"#utility.yul\":9366:9369   */\n      0x00\n        /* \"#utility.yul\":9321:9394   */\n      swap1\n      jump\t// out\n        /* \"#utility.yul\":9400:9589   */\n    tag_94:\n        /* \"#utility.yul\":9477:9509   */\n      tag_205\n      tag_93\n      jump\t// in\n    tag_205:\n        /* \"#utility.yul\":9518:9583   */\n      tag_206\n        /* \"#utility.yul\":9576:9582   */\n      dup2\n        /* \"#utility.yul\":9568:9574   */\n      dup5\n        /* \"#utility.yul\":9562:9566   */\n      dup5\n        /* \"#utility.yul\":9518:9583   */\n      tag_92\n      jump\t// in\n    tag_206:\n        /* \"#utility.yul\":9453:9589   */\n      pop\n        /* \"#utility.yul\":9400:9589   */\n      pop\n      pop\n      jump\t// out\n        /* \"#utility.yul\":9595:9781   */\n    tag_95:\n        /* \"#utility.yul\":9655:9775   */\n    tag_208:\n        /* \"#utility.yul\":9672:9675   */\n      dup2\n        /* \"#utility.yul\":9665:9670   */\n      dup2\n        /* \"#utility.yul\":9662:9676   */\n      lt\n        /* \"#utility.yul\":9655:9775   */\n      iszero\n      tag_210\n      jumpi\n        /* \"#utility.yul\":9726:9765   */\n      tag_211\n        /* \"#utility.yul\":9763:9764   */\n      0x00\n        /* \"#utility.yul\":9756:9761   */\n      dup3\n        /* \"#utility.yul\":9726:9765   */\n      tag_94\n      jump\t// in\n    tag_211:\n        /* \"#utility.yul\":9699:9700   */\n      0x01\n        /* \"#utility.yul\":9692:9697   */\n      dup2\n        /* \"#utility.yul\":9688:9701   */\n      add\n        /* \"#utility.yul\":9679:9701   */\n      swap1\n      pop\n        /* \"#utility.yul\":9655:9775   */\n      jump(tag_208)\n    tag_210:\n        /* \"#utility.yul\":9595:9781   */\n      pop\n      pop\n      jump\t// out\n        /* \"#utility.yul\":9787:10330   */\n    tag_96:\n        /* \"#utility.yul\":9888:9890   */\n      0x1f\n        /* \"#utility.yul\":9883:9886   */\n      dup3\n        /* \"#utility.yul\":9880:9891   */\n      gt\n        /* \"#utility.yul\":9877:10323   */\n      iszero\n      tag_213\n      jumpi\n        /* \"#utility.yul\":9922:9960   */\n      tag_214\n        /* \"#utility.yul\":9954:9959   */\n      dup2\n        /* \"#utility.yul\":9922:9960   */\n      tag_85\n      jump\t// in\n    tag_214:\n        /* \"#utility.yul\":10006:10035   */\n      tag_215\n        /* \"#utility.yul\":10024:10034   */\n      dup5\n        /* \"#utility.yul\":10006:10035   */\n      tag_86\n      jump\t// in\n    tag_215:\n        /* \"#utility.yul\":9996:10004   */\n      dup2\n        /* \"#utility.yul\":9992:10036   */\n      add\n        /* \"#utility.yul\":10189:10191   */\n      0x20\n        /* \"#utility.yul\":10177:10187   */\n      dup6\n        /* \"#utility.yul\":10174:10192   */\n      lt\n        /* \"#utility.yul\":10171:10220   */\n      iszero\n      tag_216\n      jumpi\n        /* \"#utility.yul\":10210:10218   */\n      dup2\n        /* \"#utility.yul\":10195:10218   */\n      swap1\n      pop\n        /* \"#utility.yul\":10171:10220   */\n    tag_216:\n        /* \"#utility.yul\":10233:10313   */\n      tag_217\n        /* \"#utility.yul\":10289:10311   */\n      tag_218\n        /* \"#utility.yul\":10307:10310   */\n      dup6\n        /* \"#utility.yul\":10289:10311   */\n      tag_86\n      jump\t// in\n    tag_218:\n        /* \"#utility.yul\":10279:10287   */\n      dup4\n        /* \"#utility.yul\":10275:10312   */\n      add\n        /* \"#utility.yul\":10262:10273   */\n      dup3\n        /* \"#utility.yul\":10233:10313   */\n      tag_95\n      jump\t// in\n    tag_217:\n        /* \"#utility.yul\":9892:10323   */\n      pop\n      pop\n        /* \"#utility.yul\":9877:10323   */\n    tag_213:\n        /* \"#utility.yul\":9787:10330   */\n      pop\n      pop\n      pop\n      jump\t// out\n        /* \"#utility.yul\":10336:10453   */\n    tag_97:\n        /* \"#utility.yul\":10390:10398   */\n      0x00\n        /* \"#utility.yul\":10440:10445   */\n      dup3\n        /* \"#utility.yul\":10434:10438   */\n      dup3\n        /* \"#utility.yul\":10430:10446   */\n      shr\n        /* \"#utility.yul\":10409:10446   */\n      swap1\n      pop\n        /* \"#utility.yul\":10336:10453   */\n      swap3\n      swap2\n      pop\n      pop\n      jump\t// out\n        /* \"#utility.yul\":10459:10628   */\n    tag_98:\n        /* \"#utility.yul\":10503:10509   */\n      0x00\n        /* \"#utility.yul\":10536:10587   */\n      tag_221\n        /* \"#utility.yul\":10584:10585   */\n      0x00\n        /* \"#utility.yul\":10580:10586   */\n      not\n        /* \"#utility.yul\":10572:10577   */\n      dup5\n        /* \"#utility.yul\":10569:10570   */\n      0x08\n        /* \"#utility.yul\":10565:10578   */\n      mul\n        /* \"#utility.yul\":10536:10587   */\n      tag_97\n      jump\t// in\n    tag_221:\n        /* \"#utility.yul\":10532:10588   */\n      not\n        /* \"#utility.yul\":10617:10621   */\n      dup1\n        /* \"#utility.yul\":10611:10615   */\n      dup4\n        /* \"#utility.yul\":10607:10622   */\n      and\n        /* \"#utility.yul\":10597:10622   */\n      swap2\n      pop\n        /* \"#utility.yul\":10510:10628   */\n      pop\n        /* \"#utility.yul\":10459:10628   */\n      swap3\n      swap2\n      pop\n      pop\n      jump\t// out\n        /* \"#utility.yul\":10633:10928   */\n    tag_99:\n        /* \"#utility.yul\":10709:10713   */\n      0x00\n        /* \"#utility.yul\":10855:10884   */\n      tag_223\n        /* \"#utility.yul\":10880:10883   */\n      dup4\n        /* \"#utility.yul\":10874:10878   */\n      dup4\n        /* \"#utility.yul\":10855:10884   */\n      tag_98\n      jump\t// in\n    tag_223:\n        /* \"#utility.yul\":10847:10884   */\n      swap2\n      pop\n        /* \"#utility.yul\":10917:10920   */\n      dup3\n        /* \"#utility.yul\":10914:10915   */\n      0x02\n        /* \"#utility.yul\":10910:10921   */\n      mul\n        /* \"#utility.yul\":10904:10908   */\n      dup3\n        /* \"#utility.yul\":10901:10922   */\n      or\n        /* \"#utility.yul\":10893:10922   */\n      swap1\n      pop\n        /* \"#utility.yul\":10633:10928   */\n      swap3\n      swap2\n      pop\n      pop\n      jump\t// out\n        /* \"#utility.yul\":10933:12328   */\n    tag_48:\n        /* \"#utility.yul\":11050:11087   */\n      tag_225\n        /* \"#utility.yul\":11083:11086   */\n      dup3\n        /* \"#utility.yul\":11050:11087   */\n      tag_61\n      jump\t// in\n    tag_225:\n        /* \"#utility.yul\":11152:11170   */\n      0xffffffffffffffff\n        /* \"#utility.yul\":11144:11150   */\n      dup2\n        /* \"#utility.yul\":11141:11171   */\n      gt\n        /* \"#utility.yul\":11138:11194   */\n      iszero\n      tag_226\n      jumpi\n        /* \"#utility.yul\":11174:11192   */\n      tag_227\n      tag_71\n      jump\t// in\n    tag_227:\n        /* \"#utility.yul\":11138:11194   */\n    tag_226:\n        /* \"#utility.yul\":11218:11256   */\n      tag_228\n        /* \"#utility.yul\":11250:11254   */\n      dup3\n        /* \"#utility.yul\":11244:11255   */\n      sload\n        /* \"#utility.yul\":11218:11256   */\n      tag_30\n      jump\t// in\n    tag_228:\n        /* \"#utility.yul\":11303:11370   */\n      tag_229\n        /* \"#utility.yul\":11363:11369   */\n      dup3\n        /* \"#utility.yul\":11355:11361   */\n      dup3\n        /* \"#utility.yul\":11349:11353   */\n      dup6\n        /* \"#utility.yul\":11303:11370   */\n      tag_96\n      jump\t// in\n    tag_229:\n        /* \"#utility.yul\":11397:11398   */\n      0x00\n        /* \"#utility.yul\":11421:11425   */\n      0x20\n        /* \"#utility.yul\":11408:11425   */\n      swap1\n      pop\n        /* \"#utility.yul\":11453:11455   */\n      0x1f\n        /* \"#utility.yul\":11445:11451   */\n      dup4\n        /* \"#utility.yul\":11442:11456   */\n      gt\n        /* \"#utility.yul\":11470:11471   */\n      0x01\n        /* \"#utility.yul\":11465:12083   */\n      dup2\n      eq\n      tag_231\n      jumpi\n        /* \"#utility.yul\":12127:12128   */\n      0x00\n        /* \"#utility.yul\":12144:12150   */\n      dup5\n        /* \"#utility.yul\":12141:12218   */\n      iszero\n      tag_232\n      jumpi\n        /* \"#utility.yul\":12193:12202   */\n      dup3\n        /* \"#utility.yul\":12188:12191   */\n      dup8\n        /* \"#utility.yul\":12184:12203   */\n      add\n        /* \"#utility.yul\":12178:12204   */\n      mload\n        /* \"#utility.yul\":12169:12204   */\n      swap1\n      pop\n        /* \"#utility.yul\":12141:12218   */\n    tag_232:\n        /* \"#utility.yul\":12244:12311   */\n      tag_233\n        /* \"#utility.yul\":12304:12310   */\n      dup6\n        /* \"#utility.yul\":12297:12302   */\n      dup3\n        /* \"#utility.yul\":12244:12311   */\n      tag_99\n      jump\t// in\n    tag_233:\n        /* \"#utility.yul\":12238:12242   */\n      dup7\n        /* \"#utility.yul\":12231:12312   */\n      sstore\n        /* \"#utility.yul\":12100:12322   */\n      pop\n        /* \"#utility.yul\":11435:12322   */\n      jump(tag_230)\n        /* \"#utility.yul\":11465:12083   */\n    tag_231:\n        /* \"#utility.yul\":11517:11521   */\n      0x1f\n        /* \"#utility.yul\":11513:11522   */\n      not\n        /* \"#utility.yul\":11505:11511   */\n      dup5\n        /* \"#utility.yul\":11501:11523   */\n      and\n        /* \"#utility.yul\":11551:11588   */\n      tag_234\n        /* \"#utility.yul\":11583:11587   */\n      dup7\n        /* \"#utility.yul\":11551:11588   */\n      tag_85\n      jump\t// in\n    tag_234:\n        /* \"#utility.yul\":11610:11611   */\n      0x00\n        /* \"#utility.yul\":11624:11832   */\n    tag_235:\n        /* \"#utility.yul\":11638:11645   */\n      dup3\n        /* \"#utility.yul\":11635:11636   */\n      dup2\n        /* \"#utility.yul\":11632:11646   */\n      lt\n        /* \"#utility.yul\":11624:11832   */\n      iszero\n      tag_237\n      jumpi\n        /* \"#utility.yul\":11717:11726   */\n      dup5\n        /* \"#utility.yul\":11712:11715   */\n      dup10\n        /* \"#utility.yul\":11708:11727   */\n      add\n        /* \"#utility.yul\":11702:11728   */\n      mload\n        /* \"#utility.yul\":11694:11700   */\n      dup3\n        /* \"#utility.yul\":11687:11729   */\n      sstore\n        /* \"#utility.yul\":11768:11769   */\n      0x01\n        /* \"#utility.yul\":11760:11766   */\n      dup3\n        /* \"#utility.yul\":11756:11770   */\n      add\n        /* \"#utility.yul\":11746:11770   */\n      swap2\n      pop\n        /* \"#utility.yul\":11815:11817   */\n      0x20\n        /* \"#utility.yul\":11804:11813   */\n      dup6\n        /* \"#utility.yul\":11800:11818   */\n      add\n        /* \"#utility.yul\":11787:11818   */\n      swap5\n      pop\n        /* \"#utility.yul\":11661:11665   */\n      0x20\n        /* \"#utility.yul\":11658:11659   */\n      dup2\n        /* \"#utility.yul\":11654:11666   */\n      add\n        /* \"#utility.yul\":11649:11666   */\n      swap1\n      pop\n        /* \"#utility.yul\":11624:11832   */\n      jump(tag_235)\n    tag_237:\n        /* \"#utility.yul\":11860:11866   */\n      dup7\n        /* \"#utility.yul\":11851:11858   */\n      dup4\n        /* \"#utility.yul\":11848:11867   */\n      lt\n        /* \"#utility.yul\":11845:12024   */\n      iszero\n      tag_238\n      jumpi\n        /* \"#utility.yul\":11918:11927   */\n      dup5\n        /* \"#utility.yul\":11913:11916   */\n      dup10\n        /* \"#utility.yul\":11909:11928   */\n      add\n        /* \"#utility.yul\":11903:11929   */\n      mload\n        /* \"#utility.yul\":11961:12009   */\n      tag_239\n        /* \"#utility.yul\":12003:12007   */\n      0x1f\n        /* \"#utility.yul\":11995:12001   */\n      dup10\n        /* \"#utility.yul\":11991:12008   */\n      and\n        /* \"#utility.yul\":11980:11989   */\n      dup3\n        /* \"#utility.yul\":11961:12009   */\n      tag_98\n      jump\t// in\n    tag_239:\n        /* \"#utility.yul\":11953:11959   */\n      dup4\n        /* \"#utility.yul\":11946:12010   */\n      sstore\n        /* \"#utility.yul\":11868:12024   */\n      pop\n        /* \"#utility.yul\":11845:12024   */\n    tag_238:\n        /* \"#utility.yul\":12070:12071   */\n      0x01\n        /* \"#utility.yul\":12066:12067   */\n      0x02\n        /* \"#utility.yul\":12058:12064   */\n      dup9\n        /* \"#utility.yul\":12054:12068   */\n      mul\n        /* \"#utility.yul\":12050:12072   */\n      add\n        /* \"#utility.yul\":12044:12048   */\n      dup9\n        /* \"#utility.yul\":12037:12073   */\n      sstore\n        /* \"#utility.yul\":11472:12083   */\n      pop\n      pop\n      pop\n        /* \"#utility.yul\":11435:12322   */\n    tag_230:\n      pop\n        /* \"#utility.yul\":11025:12328   */\n      pop\n      pop\n      pop\n        /* \"#utility.yul\":10933:12328   */\n      pop\n      pop\n      jump\t// out\n        /* \"#utility.yul\":12334:12514   */\n    tag_100:\n        /* \"#utility.yul\":12382:12459   */\n      0x4e487b7100000000000000000000000000000000000000000000000000000000\n        /* \"#utility.yul\":12379:12380   */\n      0x00\n        /* \"#utility.yul\":12372:12460   */\n      mstore\n        /* \"#utility.yul\":12479:12483   */\n      0x11\n        /* \"#utility.yul\":12476:12477   */\n      0x04\n        /* \"#utility.yul\":12469:12484   */\n      mstore\n        /* \"#utility.yul\":12503:12507   */\n      0x24\n        /* \"#utility.yul\":12500:12501   */\n      0x00\n        /* \"#utility.yul\":12493:12508   */\n      revert\n        /* \"#utility.yul\":12520:12753   */\n    tag_50:\n        /* \"#utility.yul\":12559:12562   */\n      0x00\n        /* \"#utility.yul\":12582:12606   */\n      tag_242\n        /* \"#utility.yul\":12600:12605   */\n      dup3\n        /* \"#utility.yul\":12582:12606   */\n      tag_80\n      jump\t// in\n    tag_242:\n        /* \"#utility.yul\":12573:12606   */\n      swap2\n      pop\n        /* \"#utility.yul\":12628:12694   */\n      0xffffffffffffffffffffffffffffffffffffffffffffffffffffffffffffffff\n        /* \"#utility.yul\":12621:12626   */\n      dup3\n        /* \"#utility.yul\":12618:12695   */\n      sub\n        /* \"#utility.yul\":12615:12718   */\n      tag_243\n      jumpi\n        /* \"#utility.yul\":12698:12716   */\n      tag_244\n      tag_100\n      jump\t// in\n    tag_244:\n        /* \"#utility.yul\":12615:12718   */\n    tag_243:\n        /* \"#utility.yul\":12745:12746   */\n      0x01\n        /* \"#utility.yul\":12738:12743   */\n      dup3\n        /* \"#utility.yul\":12734:12747   */\n      add\n        /* \"#utility.yul\":12727:12747   */\n      swap1\n      pop\n        /* \"#utility.yul\":12520:12753   */\n      swap2\n      swap1\n      pop\n      jump\t// out\n        /* \"#utility.yul\":12759:12928   */\n    tag_101:\n        /* \"#utility.yul\":12899:12920   */\n      0x446972656363696f6e206e6f2076616c69646100000000000000000000000000\n        /* \"#utility.yul\":12895:12896   */\n      0x00\n        /* \"#utility.yul\":12887:12893   */\n      dup3\n        /* \"#utility.yul\":12883:12897   */\n      add\n        /* \"#utility.yul\":12876:12921   */\n      mstore\n        /* \"#utility.yul\":12759:12928   */\n      pop\n      jump\t// out\n        /* \"#utility.yul\":12934:13300   */\n    tag_102:\n        /* \"#utility.yul\":13076:13079   */\n      0x00\n        /* \"#utility.yul\":13097:13164   */\n      tag_247\n        /* \"#utility.yul\":13161:13163   */\n      0x13\n        /* \"#utility.yul\":13156:13159   */\n      dup4\n        /* \"#utility.yul\":13097:13164   */\n      tag_62\n      jump\t// in\n    tag_247:\n        /* \"#utility.yul\":13090:13164   */\n      swap2\n      pop\n        /* \"#utility.yul\":13173:13266   */\n      tag_248\n        /* \"#utility.yul\":13262:13265   */\n      dup3\n        /* \"#utility.yul\":13173:13266   */\n      tag_101\n      jump\t// in\n    tag_248:\n        /* \"#utility.yul\":13291:13293   */\n      0x20\n        /* \"#utility.yul\":13286:13289   */\n      dup3\n        /* \"#utility.yul\":13282:13294   */\n      add\n        /* \"#utility.yul\":13275:13294   */\n      swap1\n      pop\n        /* \"#utility.yul\":12934:13300   */\n      swap2\n      swap1\n      pop\n      jump\t// out\n        /* \"#utility.yul\":13306:13725   */\n    tag_57:\n        /* \"#utility.yul\":13472:13476   */\n      0x00\n        /* \"#utility.yul\":13510:13512   */\n      0x20\n        /* \"#utility.yul\":13499:13508   */\n      dup3\n        /* \"#utility.yul\":13495:13513   */\n      add\n        /* \"#utility.yul\":13487:13513   */\n      swap1\n      pop\n        /* \"#utility.yul\":13559:13568   */\n      dup2\n        /* \"#utility.yul\":13553:13557   */\n      dup2\n        /* \"#utility.yul\":13549:13569   */\n      sub\n        /* \"#utility.yul\":13545:13546   */\n      0x00\n        /* \"#utility.yul\":13534:13543   */\n      dup4\n        /* \"#utility.yul\":13530:13547   */\n      add\n        /* \"#utility.yul\":13523:13570   */\n      mstore\n        /* \"#utility.yul\":13587:13718   */\n      tag_250\n        /* \"#utility.yul\":13713:13717   */\n      dup2\n        /* \"#utility.yul\":13587:13718   */\n      tag_102\n      jump\t// in\n    tag_250:\n        /* \"#utility.yul\":13579:13718   */\n      swap1\n      pop\n        /* \"#utility.yul\":13306:13725   */\n      swap2\n      swap1\n      pop\n      jump\t// out\n\n    auxdata: 0xa2646970667358221220d0159d9c5e7051c3259c92857602704413b6b2c8a7c60c1e36d7ba48eb7798fb64736f6c63430008130033\n}\n",
				"bytecode": {
					"linkReferences": {},
					"object": "60806040523480156200001157600080fd5b506040516200121e3803806200121e83398181016040528101906200003791906200022c565b33600260006101000a81548173ffffffffffffffffffffffffffffffffffffffff021916908373ffffffffffffffffffffffffffffffffffffffff1602179055508060009081620000899190620004c8565b50600060018190555050620005af565b6000604051905090565b600080fd5b600080fd5b600080fd5b600080fd5b6000601f19601f8301169050919050565b7f4e487b7100000000000000000000000000000000000000000000000000000000600052604160045260246000fd5b6200010282620000b7565b810181811067ffffffffffffffff82111715620001245762000123620000c8565b5b80604052505050565b60006200013962000099565b9050620001478282620000f7565b919050565b600067ffffffffffffffff8211156200016a5762000169620000c8565b5b6200017582620000b7565b9050602081019050919050565b60005b83811015620001a257808201518184015260208101905062000185565b60008484015250505050565b6000620001c5620001bf846200014c565b6200012d565b905082815260208101848484011115620001e457620001e3620000b2565b5b620001f184828562000182565b509392505050565b600082601f830112620002115762000210620000ad565b5b815162000223848260208601620001ae565b91505092915050565b600060208284031215620002455762000244620000a3565b5b600082015167ffffffffffffffff811115620002665762000265620000a8565b5b6200027484828501620001f9565b91505092915050565b600081519050919050565b7f4e487b7100000000000000000000000000000000000000000000000000000000600052602260045260246000fd5b60006002820490506001821680620002d057607f821691505b602082108103620002e657620002e562000288565b5b50919050565b60008190508160005260206000209050919050565b60006020601f8301049050919050565b600082821b905092915050565b600060088302620003507fffffffffffffffffffffffffffffffffffffffffffffffffffffffffffffffff8262000311565b6200035c868362000311565b95508019841693508086168417925050509392505050565b6000819050919050565b6000819050919050565b6000620003a9620003a36200039d8462000374565b6200037e565b62000374565b9050919050565b6000819050919050565b620003c58362000388565b620003dd620003d482620003b0565b8484546200031e565b825550505050565b600090565b620003f4620003e5565b62000401818484620003ba565b505050565b5b8181101562000429576200041d600082620003ea565b60018101905062000407565b5050565b601f82111562000478576200044281620002ec565b6200044d8462000301565b810160208510156200045d578190505b620004756200046c8562000301565b83018262000406565b50505b505050565b600082821c905092915050565b60006200049d600019846008026200047d565b1980831691505092915050565b6000620004b883836200048a565b9150826002028217905092915050565b620004d3826200027d565b67ffffffffffffffff811115620004ef57620004ee620000c8565b5b620004fb8254620002b7565b620005088282856200042d565b600060209050601f8311600181146200054057600084156200052b578287015190505b620005378582620004aa565b865550620005a7565b601f1984166200055086620002ec565b60005b828110156200057a5784890151825560018201915060208501945060208101905062000553565b868310156200059a578489015162000596601f8916826200048a565b8355505b6001600288020188555050505b505050505050565b610c5f80620005bf6000396000f3fe608060405234801561001057600080fd5b50600436106100575760003560e01c80638da5cb5b1461005c5780638fec79be1461007a578063b5bb0fbe14610098578063bbe99a1e146100b4578063ec7a6f4a146100d0575b600080fd5b6100646100ee565b60405161007191906104b3565b60405180910390f35b610082610114565b60405161008f919061055e565b60405180910390f35b6100b260048036038101906100ad91906106c9565b6101a6565b005b6100ce60048036038101906100c9919061073e565b610329565b005b6100d861046c565b6040516100e59190610784565b60405180910390f35b600260009054906101000a900473ffffffffffffffffffffffffffffffffffffffff1681565b606060008054610123906107ce565b80601f016020809104026020016040519081016040528092919081815260200182805461014f906107ce565b801561019c5780601f106101715761010080835404028352916020019161019c565b820191906000526020600020905b81548152906001019060200180831161017f57829003601f168201915b5050505050905090565b600260009054906101000a900473ffffffffffffffffffffffffffffffffffffffff1673ffffffffffffffffffffffffffffffffffffffff163373ffffffffffffffffffffffffffffffffffffffff1614610236576040517f08c379a000000000000000000000000000000000000000000000000000000000815260040161022d90610871565b60405180910390fd5b6000808054610244906107ce565b80601f0160208091040260200160405190810160405280929190818152602001828054610270906107ce565b80156102bd5780601f10610292576101008083540402835291602001916102bd565b820191906000526020600020905b8154815290600101906020018083116102a057829003601f168201915b505050505090507f894ab8566b6602f0dd62f21043a76a009d9f66236f89aab04c76ed5487eda53681836040516102f5929190610891565b60405180910390a1816000908161030c9190610a74565b506001600081548092919061032090610b75565b91905055505050565b600260009054906101000a900473ffffffffffffffffffffffffffffffffffffffff1673ffffffffffffffffffffffffffffffffffffffff163373ffffffffffffffffffffffffffffffffffffffff16146103b9576040517f08c379a00000000000000000000000000000000000000000000000000000000081526004016103b090610871565b60405180910390fd5b600073ffffffffffffffffffffffffffffffffffffffff168173ffffffffffffffffffffffffffffffffffffffff1603610428576040517f08c379a000000000000000000000000000000000000000000000000000000000815260040161041f90610c09565b60405180910390fd5b80600260006101000a81548173ffffffffffffffffffffffffffffffffffffffff021916908373ffffffffffffffffffffffffffffffffffffffff16021790555050565b60015481565b600073ffffffffffffffffffffffffffffffffffffffff82169050919050565b600061049d82610472565b9050919050565b6104ad81610492565b82525050565b60006020820190506104c860008301846104a4565b92915050565b600081519050919050565b600082825260208201905092915050565b60005b838110156105085780820151818401526020810190506104ed565b60008484015250505050565b6000601f19601f8301169050919050565b6000610530826104ce565b61053a81856104d9565b935061054a8185602086016104ea565b61055381610514565b840191505092915050565b600060208201905081810360008301526105788184610525565b905092915050565b6000604051905090565b600080fd5b600080fd5b600080fd5b600080fd5b7f4e487b7100000000000000000000000000000000000000000000000000000000600052604160045260246000fd5b6105d682610514565b810181811067ffffffffffffffff821117156105f5576105f461059e565b5b80604052505050565b6000610608610580565b905061061482826105cd565b919050565b600067ffffffffffffffff8211156106345761063361059e565b5b61063d82610514565b9050602081019050919050565b82818337600083830152505050565b600061066c61066784610619565b6105fe565b90508281526020810184848401111561068857610687610599565b5b61069384828561064a565b509392505050565b600082601f8301126106b0576106af610594565b5b81356106c0848260208601610659565b91505092915050565b6000602082840312156106df576106de61058a565b5b600082013567ffffffffffffffff8111156106fd576106fc61058f565b5b6107098482850161069b565b91505092915050565b61071b81610492565b811461072657600080fd5b50565b60008135905061073881610712565b92915050565b6000602082840312156107545761075361058a565b5b600061076284828501610729565b91505092915050565b6000819050919050565b61077e8161076b565b82525050565b60006020820190506107996000830184610775565b92915050565b7f4e487b7100000000000000000000000000000000000000000000000000000000600052602260045260246000fd5b600060028204905060018216806107e657607f821691505b6020821081036107f9576107f861079f565b5b50919050565b7f536f6c6f20656c2061646d696e207075656465207265616c697a61722065737460008201527f6120616363696f6e000000000000000000000000000000000000000000000000602082015250565b600061085b6028836104d9565b9150610866826107ff565b604082019050919050565b6000602082019050818103600083015261088a8161084e565b9050919050565b600060408201905081810360008301526108ab8185610525565b905081810360208301526108bf8184610525565b90509392505050565b60008190508160005260206000209050919050565b60006020601f8301049050919050565b600082821b905092915050565b60006008830261092a7fffffffffffffffffffffffffffffffffffffffffffffffffffffffffffffffff826108ed565b61093486836108ed565b95508019841693508086168417925050509392505050565b6000819050919050565b600061097161096c6109678461076b565b61094c565b61076b565b9050919050565b6000819050919050565b61098b83610956565b61099f61099782610978565b8484546108fa565b825550505050565b600090565b6109b46109a7565b6109bf818484610982565b505050565b5b818110156109e3576109d86000826109ac565b6001810190506109c5565b5050565b601f821115610a28576109f9816108c8565b610a02846108dd565b81016020851015610a11578190505b610a25610a1d856108dd565b8301826109c4565b50505b505050565b600082821c905092915050565b6000610a4b60001984600802610a2d565b1980831691505092915050565b6000610a648383610a3a565b9150826002028217905092915050565b610a7d826104ce565b67ffffffffffffffff811115610a9657610a9561059e565b5b610aa082546107ce565b610aab8282856109e7565b600060209050601f831160018114610ade5760008415610acc578287015190505b610ad68582610a58565b865550610b3e565b601f198416610aec866108c8565b60005b82811015610b1457848901518255600182019150602085019450602081019050610aef565b86831015610b315784890151610b2d601f891682610a3a565b8355505b6001600288020188555050505b505050505050565b7f4e487b7100000000000000000000000000000000000000000000000000000000600052601160045260246000fd5b6000610b808261076b565b91507fffffffffffffffffffffffffffffffffffffffffffffffffffffffffffffffff8203610bb257610bb1610b46565b5b600182019050919050565b7f446972656363696f6e206e6f2076616c69646100000000000000000000000000600082015250565b6000610bf36013836104d9565b9150610bfe82610bbd565b602082019050919050565b60006020820190508181036000830152610c2281610be6565b905091905056fea2646970667358221220d0159d9c5e7051c3259c92857602704413b6b2c8a7c60c1e36d7ba48eb7798fb64736f6c63430008130033",
					"opcodes": "PUSH1 0x80 PUSH1 0x40 MSTORE CALLVALUE DUP1 ISZERO PUSH3 0x11 JUMPI PUSH1 0x0 DUP1 REVERT JUMPDEST POP PUSH1 0x40 MLOAD PUSH3 0x121E CODESIZE SUB DUP1 PUSH3 0x121E DUP4 CODECOPY DUP2 DUP2 ADD PUSH1 0x40 MSTORE DUP2 ADD SWAP1 PUSH3 0x37 SWAP2 SWAP1 PUSH3 0x22C JUMP JUMPDEST CALLER PUSH1 0x2 PUSH1 0x0 PUSH2 0x100 EXP DUP2 SLOAD DUP2 PUSH20 0xFFFFFFFFFFFFFFFFFFFFFFFFFFFFFFFFFFFFFFFF MUL NOT AND SWAP1 DUP4 PUSH20 0xFFFFFFFFFFFFFFFFFFFFFFFFFFFFFFFFFFFFFFFF AND MUL OR SWAP1 SSTORE POP DUP1 PUSH1 0x0 SWAP1 DUP2 PUSH3 0x89 SWAP2 SWAP1 PUSH3 0x4C8 JUMP JUMPDEST POP PUSH1 0x0 PUSH1 0x1 DUP2 SWAP1 SSTORE POP POP PUSH3 0x5AF JUMP JUMPDEST PUSH1 0x0 PUSH1 0x40 MLOAD SWAP1 POP SWAP1 JUMP JUMPDEST PUSH1 0x0 DUP1 REVERT JUMPDEST PUSH1 0x0 DUP1 REVERT JUMPDEST PUSH1 0x0 DUP1 REVERT JUMPDEST PUSH1 0x0 DUP1 REVERT JUMPDEST PUSH1 0x0 PUSH1 0x1F NOT PUSH1 0x1F DUP4 ADD AND SWAP1 POP SWAP2 SWAP1 POP JUMP JUMPDEST PUSH32 0x4E487B7100000000000000000000000000000000000000000000000000000000 PUSH1 0x0 MSTORE PUSH1 0x41 PUSH1 0x4 MSTORE PUSH1 0x24 PUSH1 0x0 REVERT JUMPDEST PUSH3 0x102 DUP3 PUSH3 0xB7 JUMP JUMPDEST DUP2 ADD DUP2 DUP2 LT PUSH8 0xFFFFFFFFFFFFFFFF DUP3 GT OR ISZERO PUSH3 0x124 JUMPI PUSH3 0x123 PUSH3 0xC8 JUMP JUMPDEST JUMPDEST DUP1 PUSH1 0x40 MSTORE POP POP POP JUMP JUMPDEST PUSH1 0x0 PUSH3 0x139 PUSH3 0x99 JUMP JUMPDEST SWAP1 POP PUSH3 0x147 DUP3 DUP3 PUSH3 0xF7 JUMP JUMPDEST SWAP2 SWAP1 POP JUMP JUMPDEST PUSH1 0x0 PUSH8 0xFFFFFFFFFFFFFFFF DUP3 GT ISZERO PUSH3 0x16A JUMPI PUSH3 0x169 PUSH3 0xC8 JUMP JUMPDEST JUMPDEST PUSH3 0x175 DUP3 PUSH3 0xB7 JUMP JUMPDEST SWAP1 POP PUSH1 0x20 DUP2 ADD SWAP1 POP SWAP2 SWAP1 POP JUMP JUMPDEST PUSH1 0x0 JUMPDEST DUP4 DUP2 LT ISZERO PUSH3 0x1A2 JUMPI DUP1 DUP3 ADD MLOAD DUP2 DUP5 ADD MSTORE PUSH1 0x20 DUP2 ADD SWAP1 POP PUSH3 0x185 JUMP JUMPDEST PUSH1 0x0 DUP5 DUP5 ADD MSTORE POP POP POP POP JUMP JUMPDEST PUSH1 0x0 PUSH3 0x1C5 PUSH3 0x1BF DUP5 PUSH3 0x14C JUMP JUMPDEST PUSH3 0x12D JUMP JUMPDEST SWAP1 POP DUP3 DUP2 MSTORE PUSH1 0x20 DUP2 ADD DUP5 DUP5 DUP5 ADD GT ISZERO PUSH3 0x1E4 JUMPI PUSH3 0x1E3 PUSH3 0xB2 JUMP JUMPDEST JUMPDEST PUSH3 0x1F1 DUP5 DUP3 DUP6 PUSH3 0x182 JUMP JUMPDEST POP SWAP4 SWAP3 POP POP POP JUMP JUMPDEST PUSH1 0x0 DUP3 PUSH1 0x1F DUP4 ADD SLT PUSH3 0x211 JUMPI PUSH3 0x210 PUSH3 0xAD JUMP JUMPDEST JUMPDEST DUP2 MLOAD PUSH3 0x223 DUP5 DUP3 PUSH1 0x20 DUP7 ADD PUSH3 0x1AE JUMP JUMPDEST SWAP2 POP POP SWAP3 SWAP2 POP POP JUMP JUMPDEST PUSH1 0x0 PUSH1 0x20 DUP3 DUP5 SUB SLT ISZERO PUSH3 0x245 JUMPI PUSH3 0x244 PUSH3 0xA3 JUMP JUMPDEST JUMPDEST PUSH1 0x0 DUP3 ADD MLOAD PUSH8 0xFFFFFFFFFFFFFFFF DUP2 GT ISZERO PUSH3 0x266 JUMPI PUSH3 0x265 PUSH3 0xA8 JUMP JUMPDEST JUMPDEST PUSH3 0x274 DUP5 DUP3 DUP6 ADD PUSH3 0x1F9 JUMP JUMPDEST SWAP2 POP POP SWAP3 SWAP2 POP POP JUMP JUMPDEST PUSH1 0x0 DUP2 MLOAD SWAP1 POP SWAP2 SWAP1 POP JUMP JUMPDEST PUSH32 0x4E487B7100000000000000000000000000000000000000000000000000000000 PUSH1 0x0 MSTORE PUSH1 0x22 PUSH1 0x4 MSTORE PUSH1 0x24 PUSH1 0x0 REVERT JUMPDEST PUSH1 0x0 PUSH1 0x2 DUP3 DIV SWAP1 POP PUSH1 0x1 DUP3 AND DUP1 PUSH3 0x2D0 JUMPI PUSH1 0x7F DUP3 AND SWAP2 POP JUMPDEST PUSH1 0x20 DUP3 LT DUP2 SUB PUSH3 0x2E6 JUMPI PUSH3 0x2E5 PUSH3 0x288 JUMP JUMPDEST JUMPDEST POP SWAP2 SWAP1 POP JUMP JUMPDEST PUSH1 0x0 DUP2 SWAP1 POP DUP2 PUSH1 0x0 MSTORE PUSH1 0x20 PUSH1 0x0 KECCAK256 SWAP1 POP SWAP2 SWAP1 POP JUMP JUMPDEST PUSH1 0x0 PUSH1 0x20 PUSH1 0x1F DUP4 ADD DIV SWAP1 POP SWAP2 SWAP1 POP JUMP JUMPDEST PUSH1 0x0 DUP3 DUP3 SHL SWAP1 POP SWAP3 SWAP2 POP POP JUMP JUMPDEST PUSH1 0x0 PUSH1 0x8 DUP4 MUL PUSH3 0x350 PUSH32 0xFFFFFFFFFFFFFFFFFFFFFFFFFFFFFFFFFFFFFFFFFFFFFFFFFFFFFFFFFFFFFFFF DUP3 PUSH3 0x311 JUMP JUMPDEST PUSH3 0x35C DUP7 DUP4 PUSH3 0x311 JUMP JUMPDEST SWAP6 POP DUP1 NOT DUP5 AND SWAP4 POP DUP1 DUP7 AND DUP5 OR SWAP3 POP POP POP SWAP4 SWAP3 POP POP POP JUMP JUMPDEST PUSH1 0x0 DUP2 SWAP1 POP SWAP2 SWAP1 POP JUMP JUMPDEST PUSH1 0x0 DUP2 SWAP1 POP SWAP2 SWAP1 POP JUMP JUMPDEST PUSH1 0x0 PUSH3 0x3A9 PUSH3 0x3A3 PUSH3 0x39D DUP5 PUSH3 0x374 JUMP JUMPDEST PUSH3 0x37E JUMP JUMPDEST PUSH3 0x374 JUMP JUMPDEST SWAP1 POP SWAP2 SWAP1 POP JUMP JUMPDEST PUSH1 0x0 DUP2 SWAP1 POP SWAP2 SWAP1 POP JUMP JUMPDEST PUSH3 0x3C5 DUP4 PUSH3 0x388 JUMP JUMPDEST PUSH3 0x3DD PUSH3 0x3D4 DUP3 PUSH3 0x3B0 JUMP JUMPDEST DUP5 DUP5 SLOAD PUSH3 0x31E JUMP JUMPDEST DUP3 SSTORE POP POP POP POP JUMP JUMPDEST PUSH1 0x0 SWAP1 JUMP JUMPDEST PUSH3 0x3F4 PUSH3 0x3E5 JUMP JUMPDEST PUSH3 0x401 DUP2 DUP5 DUP5 PUSH3 0x3BA JUMP JUMPDEST POP POP POP JUMP JUMPDEST JUMPDEST DUP2 DUP2 LT ISZERO PUSH3 0x429 JUMPI PUSH3 0x41D PUSH1 0x0 DUP3 PUSH3 0x3EA JUMP JUMPDEST PUSH1 0x1 DUP2 ADD SWAP1 POP PUSH3 0x407 JUMP JUMPDEST POP POP JUMP JUMPDEST PUSH1 0x1F DUP3 GT ISZERO PUSH3 0x478 JUMPI PUSH3 0x442 DUP2 PUSH3 0x2EC JUMP JUMPDEST PUSH3 0x44D DUP5 PUSH3 0x301 JUMP JUMPDEST DUP2 ADD PUSH1 0x20 DUP6 LT ISZERO PUSH3 0x45D JUMPI DUP2 SWAP1 POP JUMPDEST PUSH3 0x475 PUSH3 0x46C DUP6 PUSH3 0x301 JUMP JUMPDEST DUP4 ADD DUP3 PUSH3 0x406 JUMP JUMPDEST POP POP JUMPDEST POP POP POP JUMP JUMPDEST PUSH1 0x0 DUP3 DUP3 SHR SWAP1 POP SWAP3 SWAP2 POP POP JUMP JUMPDEST PUSH1 0x0 PUSH3 0x49D PUSH1 0x0 NOT DUP5 PUSH1 0x8 MUL PUSH3 0x47D JUMP JUMPDEST NOT DUP1 DUP4 AND SWAP2 POP POP SWAP3 SWAP2 POP POP JUMP JUMPDEST PUSH1 0x0 PUSH3 0x4B8 DUP4 DUP4 PUSH3 0x48A JUMP JUMPDEST SWAP2 POP DUP3 PUSH1 0x2 MUL DUP3 OR SWAP1 POP SWAP3 SWAP2 POP POP JUMP JUMPDEST PUSH3 0x4D3 DUP3 PUSH3 0x27D JUMP JUMPDEST PUSH8 0xFFFFFFFFFFFFFFFF DUP2 GT ISZERO PUSH3 0x4EF JUMPI PUSH3 0x4EE PUSH3 0xC8 JUMP JUMPDEST JUMPDEST PUSH3 0x4FB DUP3 SLOAD PUSH3 0x2B7 JUMP JUMPDEST PUSH3 0x508 DUP3 DUP3 DUP6 PUSH3 0x42D JUMP JUMPDEST PUSH1 0x0 PUSH1 0x20 SWAP1 POP PUSH1 0x1F DUP4 GT PUSH1 0x1 DUP2 EQ PUSH3 0x540 JUMPI PUSH1 0x0 DUP5 ISZERO PUSH3 0x52B JUMPI DUP3 DUP8 ADD MLOAD SWAP1 POP JUMPDEST PUSH3 0x537 DUP6 DUP3 PUSH3 0x4AA JUMP JUMPDEST DUP7 SSTORE POP PUSH3 0x5A7 JUMP JUMPDEST PUSH1 0x1F NOT DUP5 AND PUSH3 0x550 DUP7 PUSH3 0x2EC JUMP JUMPDEST PUSH1 0x0 JUMPDEST DUP3 DUP2 LT ISZERO PUSH3 0x57A JUMPI DUP5 DUP10 ADD MLOAD DUP3 SSTORE PUSH1 0x1 DUP3 ADD SWAP2 POP PUSH1 0x20 DUP6 ADD SWAP5 POP PUSH1 0x20 DUP2 ADD SWAP1 POP PUSH3 0x553 JUMP JUMPDEST DUP7 DUP4 LT ISZERO PUSH3 0x59A JUMPI DUP5 DUP10 ADD MLOAD PUSH3 0x596 PUSH1 0x1F DUP10 AND DUP3 PUSH3 0x48A JUMP JUMPDEST DUP4 SSTORE POP JUMPDEST PUSH1 0x1 PUSH1 0x2 DUP9 MUL ADD DUP9 SSTORE POP POP POP JUMPDEST POP POP POP POP POP POP JUMP JUMPDEST PUSH2 0xC5F DUP1 PUSH3 0x5BF PUSH1 0x0 CODECOPY PUSH1 0x0 RETURN INVALID PUSH1 0x80 PUSH1 0x40 MSTORE CALLVALUE DUP1 ISZERO PUSH2 0x10 JUMPI PUSH1 0x0 DUP1 REVERT JUMPDEST POP PUSH1 0x4 CALLDATASIZE LT PUSH2 0x57 JUMPI PUSH1 0x0 CALLDATALOAD PUSH1 0xE0 SHR DUP1 PUSH4 0x8DA5CB5B EQ PUSH2 0x5C JUMPI DUP1 PUSH4 0x8FEC79BE EQ PUSH2 0x7A JUMPI DUP1 PUSH4 0xB5BB0FBE EQ PUSH2 0x98 JUMPI DUP1 PUSH4 0xBBE99A1E EQ PUSH2 0xB4 JUMPI DUP1 PUSH4 0xEC7A6F4A EQ PUSH2 0xD0 JUMPI JUMPDEST PUSH1 0x0 DUP1 REVERT JUMPDEST PUSH2 0x64 PUSH2 0xEE JUMP JUMPDEST PUSH1 0x40 MLOAD PUSH2 0x71 SWAP2 SWAP1 PUSH2 0x4B3 JUMP JUMPDEST PUSH1 0x40 MLOAD DUP1 SWAP2 SUB SWAP1 RETURN JUMPDEST PUSH2 0x82 PUSH2 0x114 JUMP JUMPDEST PUSH1 0x40 MLOAD PUSH2 0x8F SWAP2 SWAP1 PUSH2 0x55E JUMP JUMPDEST PUSH1 0x40 MLOAD DUP1 SWAP2 SUB SWAP1 RETURN JUMPDEST PUSH2 0xB2 PUSH1 0x4 DUP1 CALLDATASIZE SUB DUP2 ADD SWAP1 PUSH2 0xAD SWAP2 SWAP1 PUSH2 0x6C9 JUMP JUMPDEST PUSH2 0x1A6 JUMP JUMPDEST STOP JUMPDEST PUSH2 0xCE PUSH1 0x4 DUP1 CALLDATASIZE SUB DUP2 ADD SWAP1 PUSH2 0xC9 SWAP2 SWAP1 PUSH2 0x73E JUMP JUMPDEST PUSH2 0x329 JUMP JUMPDEST STOP JUMPDEST PUSH2 0xD8 PUSH2 0x46C JUMP JUMPDEST PUSH1 0x40 MLOAD PUSH2 0xE5 SWAP2 SWAP1 PUSH2 0x784 JUMP JUMPDEST PUSH1 0x40 MLOAD DUP1 SWAP2 SUB SWAP1 RETURN JUMPDEST PUSH1 0x2 PUSH1 0x0 SWAP1 SLOAD SWAP1 PUSH2 0x100 EXP SWAP1 DIV PUSH20 0xFFFFFFFFFFFFFFFFFFFFFFFFFFFFFFFFFFFFFFFF AND DUP2 JUMP JUMPDEST PUSH1 0x60 PUSH1 0x0 DUP1 SLOAD PUSH2 0x123 SWAP1 PUSH2 0x7CE JUMP JUMPDEST DUP1 PUSH1 0x1F ADD PUSH1 0x20 DUP1 SWAP2 DIV MUL PUSH1 0x20 ADD PUSH1 0x40 MLOAD SWAP1 DUP2 ADD PUSH1 0x40 MSTORE DUP1 SWAP3 SWAP2 SWAP1 DUP2 DUP2 MSTORE PUSH1 0x20 ADD DUP3 DUP1 SLOAD PUSH2 0x14F SWAP1 PUSH2 0x7CE JUMP JUMPDEST DUP1 ISZERO PUSH2 0x19C JUMPI DUP1 PUSH1 0x1F LT PUSH2 0x171 JUMPI PUSH2 0x100 DUP1 DUP4 SLOAD DIV MUL DUP4 MSTORE SWAP2 PUSH1 0x20 ADD SWAP2 PUSH2 0x19C JUMP JUMPDEST DUP3 ADD SWAP2 SWAP1 PUSH1 0x0 MSTORE PUSH1 0x20 PUSH1 0x0 KECCAK256 SWAP1 JUMPDEST DUP2 SLOAD DUP2 MSTORE SWAP1 PUSH1 0x1 ADD SWAP1 PUSH1 0x20 ADD DUP1 DUP4 GT PUSH2 0x17F JUMPI DUP3 SWAP1 SUB PUSH1 0x1F AND DUP3 ADD SWAP2 JUMPDEST POP POP POP POP POP SWAP1 POP SWAP1 JUMP JUMPDEST PUSH1 0x2 PUSH1 0x0 SWAP1 SLOAD SWAP1 PUSH2 0x100 EXP SWAP1 DIV PUSH20 0xFFFFFFFFFFFFFFFFFFFFFFFFFFFFFFFFFFFFFFFF AND PUSH20 0xFFFFFFFFFFFFFFFFFFFFFFFFFFFFFFFFFFFFFFFF AND CALLER PUSH20 0xFFFFFFFFFFFFFFFFFFFFFFFFFFFFFFFFFFFFFFFF AND EQ PUSH2 0x236 JUMPI PUSH1 0x40 MLOAD PUSH32 0x8C379A000000000000000000000000000000000000000000000000000000000 DUP2 MSTORE PUSH1 0x4 ADD PUSH2 0x22D SWAP1 PUSH2 0x871 JUMP JUMPDEST PUSH1 0x40 MLOAD DUP1 SWAP2 SUB SWAP1 REVERT JUMPDEST PUSH1 0x0 DUP1 DUP1 SLOAD PUSH2 0x244 SWAP1 PUSH2 0x7CE JUMP JUMPDEST DUP1 PUSH1 0x1F ADD PUSH1 0x20 DUP1 SWAP2 DIV MUL PUSH1 0x20 ADD PUSH1 0x40 MLOAD SWAP1 DUP2 ADD PUSH1 0x40 MSTORE DUP1 SWAP3 SWAP2 SWAP1 DUP2 DUP2 MSTORE PUSH1 0x20 ADD DUP3 DUP1 SLOAD PUSH2 0x270 SWAP1 PUSH2 0x7CE JUMP JUMPDEST DUP1 ISZERO PUSH2 0x2BD JUMPI DUP1 PUSH1 0x1F LT PUSH2 0x292 JUMPI PUSH2 0x100 DUP1 DUP4 SLOAD DIV MUL DUP4 MSTORE SWAP2 PUSH1 0x20 ADD SWAP2 PUSH2 0x2BD JUMP JUMPDEST DUP3 ADD SWAP2 SWAP1 PUSH1 0x0 MSTORE PUSH1 0x20 PUSH1 0x0 KECCAK256 SWAP1 JUMPDEST DUP2 SLOAD DUP2 MSTORE SWAP1 PUSH1 0x1 ADD SWAP1 PUSH1 0x20 ADD DUP1 DUP4 GT PUSH2 0x2A0 JUMPI DUP3 SWAP1 SUB PUSH1 0x1F AND DUP3 ADD SWAP2 JUMPDEST POP POP POP POP POP SWAP1 POP PUSH32 0x894AB8566B6602F0DD62F21043A76A009D9F66236F89AAB04C76ED5487EDA536 DUP2 DUP4 PUSH1 0x40 MLOAD PUSH2 0x2F5 SWAP3 SWAP2 SWAP1 PUSH2 0x891 JUMP JUMPDEST PUSH1 0x40 MLOAD DUP1 SWAP2 SUB SWAP1 LOG1 DUP2 PUSH1 0x0 SWAP1 DUP2 PUSH2 0x30C SWAP2 SWAP1 PUSH2 0xA74 JUMP JUMPDEST POP PUSH1 0x1 PUSH1 0x0 DUP2 SLOAD DUP1 SWAP3 SWAP2 SWAP1 PUSH2 0x320 SWAP1 PUSH2 0xB75 JUMP JUMPDEST SWAP2 SWAP1 POP SSTORE POP POP POP JUMP JUMPDEST PUSH1 0x2 PUSH1 0x0 SWAP1 SLOAD SWAP1 PUSH2 0x100 EXP SWAP1 DIV PUSH20 0xFFFFFFFFFFFFFFFFFFFFFFFFFFFFFFFFFFFFFFFF AND PUSH20 0xFFFFFFFFFFFFFFFFFFFFFFFFFFFFFFFFFFFFFFFF AND CALLER PUSH20 0xFFFFFFFFFFFFFFFFFFFFFFFFFFFFFFFFFFFFFFFF AND EQ PUSH2 0x3B9 JUMPI PUSH1 0x40 MLOAD PUSH32 0x8C379A000000000000000000000000000000000000000000000000000000000 DUP2 MSTORE PUSH1 0x4 ADD PUSH2 0x3B0 SWAP1 PUSH2 0x871 JUMP JUMPDEST PUSH1 0x40 MLOAD DUP1 SWAP2 SUB SWAP1 REVERT JUMPDEST PUSH1 0x0 PUSH20 0xFFFFFFFFFFFFFFFFFFFFFFFFFFFFFFFFFFFFFFFF AND DUP2 PUSH20 0xFFFFFFFFFFFFFFFFFFFFFFFFFFFFFFFFFFFFFFFF AND SUB PUSH2 0x428 JUMPI PUSH1 0x40 MLOAD PUSH32 0x8C379A000000000000000000000000000000000000000000000000000000000 DUP2 MSTORE PUSH1 0x4 ADD PUSH2 0x41F SWAP1 PUSH2 0xC09 JUMP JUMPDEST PUSH1 0x40 MLOAD DUP1 SWAP2 SUB SWAP1 REVERT JUMPDEST DUP1 PUSH1 0x2 PUSH1 0x0 PUSH2 0x100 EXP DUP2 SLOAD DUP2 PUSH20 0xFFFFFFFFFFFFFFFFFFFFFFFFFFFFFFFFFFFFFFFF MUL NOT AND SWAP1 DUP4 PUSH20 0xFFFFFFFFFFFFFFFFFFFFFFFFFFFFFFFFFFFFFFFF AND MUL OR SWAP1 SSTORE POP POP JUMP JUMPDEST PUSH1 0x1 SLOAD DUP2 JUMP JUMPDEST PUSH1 0x0 PUSH20 0xFFFFFFFFFFFFFFFFFFFFFFFFFFFFFFFFFFFFFFFF DUP3 AND SWAP1 POP SWAP2 SWAP1 POP JUMP JUMPDEST PUSH1 0x0 PUSH2 0x49D DUP3 PUSH2 0x472 JUMP JUMPDEST SWAP1 POP SWAP2 SWAP1 POP JUMP JUMPDEST PUSH2 0x4AD DUP2 PUSH2 0x492 JUMP JUMPDEST DUP3 MSTORE POP POP JUMP JUMPDEST PUSH1 0x0 PUSH1 0x20 DUP3 ADD SWAP1 POP PUSH2 0x4C8 PUSH1 0x0 DUP4 ADD DUP5 PUSH2 0x4A4 JUMP JUMPDEST SWAP3 SWAP2 POP POP JUMP JUMPDEST PUSH1 0x0 DUP2 MLOAD SWAP1 POP SWAP2 SWAP1 POP JUMP JUMPDEST PUSH1 0x0 DUP3 DUP3 MSTORE PUSH1 0x20 DUP3 ADD SWAP1 POP SWAP3 SWAP2 POP POP JUMP JUMPDEST PUSH1 0x0 JUMPDEST DUP4 DUP2 LT ISZERO PUSH2 0x508 JUMPI DUP1 DUP3 ADD MLOAD DUP2 DUP5 ADD MSTORE PUSH1 0x20 DUP2 ADD SWAP1 POP PUSH2 0x4ED JUMP JUMPDEST PUSH1 0x0 DUP5 DUP5 ADD MSTORE POP POP POP POP JUMP JUMPDEST PUSH1 0x0 PUSH1 0x1F NOT PUSH1 0x1F DUP4 ADD AND SWAP1 POP SWAP2 SWAP1 POP JUMP JUMPDEST PUSH1 0x0 PUSH2 0x530 DUP3 PUSH2 0x4CE JUMP JUMPDEST PUSH2 0x53A DUP2 DUP6 PUSH2 0x4D9 JUMP JUMPDEST SWAP4 POP PUSH2 0x54A DUP2 DUP6 PUSH1 0x20 DUP7 ADD PUSH2 0x4EA JUMP JUMPDEST PUSH2 0x553 DUP2 PUSH2 0x514 JUMP JUMPDEST DUP5 ADD SWAP2 POP POP SWAP3 SWAP2 POP POP JUMP JUMPDEST PUSH1 0x0 PUSH1 0x20 DUP3 ADD SWAP1 POP DUP2 DUP2 SUB PUSH1 0x0 DUP4 ADD MSTORE PUSH2 0x578 DUP2 DUP5 PUSH2 0x525 JUMP JUMPDEST SWAP1 POP SWAP3 SWAP2 POP POP JUMP JUMPDEST PUSH1 0x0 PUSH1 0x40 MLOAD SWAP1 POP SWAP1 JUMP JUMPDEST PUSH1 0x0 DUP1 REVERT JUMPDEST PUSH1 0x0 DUP1 REVERT JUMPDEST PUSH1 0x0 DUP1 REVERT JUMPDEST PUSH1 0x0 DUP1 REVERT JUMPDEST PUSH32 0x4E487B7100000000000000000000000000000000000000000000000000000000 PUSH1 0x0 MSTORE PUSH1 0x41 PUSH1 0x4 MSTORE PUSH1 0x24 PUSH1 0x0 REVERT JUMPDEST PUSH2 0x5D6 DUP3 PUSH2 0x514 JUMP JUMPDEST DUP2 ADD DUP2 DUP2 LT PUSH8 0xFFFFFFFFFFFFFFFF DUP3 GT OR ISZERO PUSH2 0x5F5 JUMPI PUSH2 0x5F4 PUSH2 0x59E JUMP JUMPDEST JUMPDEST DUP1 PUSH1 0x40 MSTORE POP POP POP JUMP JUMPDEST PUSH1 0x0 PUSH2 0x608 PUSH2 0x580 JUMP JUMPDEST SWAP1 POP PUSH2 0x614 DUP3 DUP3 PUSH2 0x5CD JUMP JUMPDEST SWAP2 SWAP1 POP JUMP JUMPDEST PUSH1 0x0 PUSH8 0xFFFFFFFFFFFFFFFF DUP3 GT ISZERO PUSH2 0x634 JUMPI PUSH2 0x633 PUSH2 0x59E JUMP JUMPDEST JUMPDEST PUSH2 0x63D DUP3 PUSH2 0x514 JUMP JUMPDEST SWAP1 POP PUSH1 0x20 DUP2 ADD SWAP1 POP SWAP2 SWAP1 POP JUMP JUMPDEST DUP3 DUP2 DUP4 CALLDATACOPY PUSH1 0x0 DUP4 DUP4 ADD MSTORE POP POP POP JUMP JUMPDEST PUSH1 0x0 PUSH2 0x66C PUSH2 0x667 DUP5 PUSH2 0x619 JUMP JUMPDEST PUSH2 0x5FE JUMP JUMPDEST SWAP1 POP DUP3 DUP2 MSTORE PUSH1 0x20 DUP2 ADD DUP5 DUP5 DUP5 ADD GT ISZERO PUSH2 0x688 JUMPI PUSH2 0x687 PUSH2 0x599 JUMP JUMPDEST JUMPDEST PUSH2 0x693 DUP5 DUP3 DUP6 PUSH2 0x64A JUMP JUMPDEST POP SWAP4 SWAP3 POP POP POP JUMP JUMPDEST PUSH1 0x0 DUP3 PUSH1 0x1F DUP4 ADD SLT PUSH2 0x6B0 JUMPI PUSH2 0x6AF PUSH2 0x594 JUMP JUMPDEST JUMPDEST DUP2 CALLDATALOAD PUSH2 0x6C0 DUP5 DUP3 PUSH1 0x20 DUP7 ADD PUSH2 0x659 JUMP JUMPDEST SWAP2 POP POP SWAP3 SWAP2 POP POP JUMP JUMPDEST PUSH1 0x0 PUSH1 0x20 DUP3 DUP5 SUB SLT ISZERO PUSH2 0x6DF JUMPI PUSH2 0x6DE PUSH2 0x58A JUMP JUMPDEST JUMPDEST PUSH1 0x0 DUP3 ADD CALLDATALOAD PUSH8 0xFFFFFFFFFFFFFFFF DUP2 GT ISZERO PUSH2 0x6FD JUMPI PUSH2 0x6FC PUSH2 0x58F JUMP JUMPDEST JUMPDEST PUSH2 0x709 DUP5 DUP3 DUP6 ADD PUSH2 0x69B JUMP JUMPDEST SWAP2 POP POP SWAP3 SWAP2 POP POP JUMP JUMPDEST PUSH2 0x71B DUP2 PUSH2 0x492 JUMP JUMPDEST DUP2 EQ PUSH2 0x726 JUMPI PUSH1 0x0 DUP1 REVERT JUMPDEST POP JUMP JUMPDEST PUSH1 0x0 DUP2 CALLDATALOAD SWAP1 POP PUSH2 0x738 DUP2 PUSH2 0x712 JUMP JUMPDEST SWAP3 SWAP2 POP POP JUMP JUMPDEST PUSH1 0x0 PUSH1 0x20 DUP3 DUP5 SUB SLT ISZERO PUSH2 0x754 JUMPI PUSH2 0x753 PUSH2 0x58A JUMP JUMPDEST JUMPDEST PUSH1 0x0 PUSH2 0x762 DUP5 DUP3 DUP6 ADD PUSH2 0x729 JUMP JUMPDEST SWAP2 POP POP SWAP3 SWAP2 POP POP JUMP JUMPDEST PUSH1 0x0 DUP2 SWAP1 POP SWAP2 SWAP1 POP JUMP JUMPDEST PUSH2 0x77E DUP2 PUSH2 0x76B JUMP JUMPDEST DUP3 MSTORE POP POP JUMP JUMPDEST PUSH1 0x0 PUSH1 0x20 DUP3 ADD SWAP1 POP PUSH2 0x799 PUSH1 0x0 DUP4 ADD DUP5 PUSH2 0x775 JUMP JUMPDEST SWAP3 SWAP2 POP POP JUMP JUMPDEST PUSH32 0x4E487B7100000000000000000000000000000000000000000000000000000000 PUSH1 0x0 MSTORE PUSH1 0x22 PUSH1 0x4 MSTORE PUSH1 0x24 PUSH1 0x0 REVERT JUMPDEST PUSH1 0x0 PUSH1 0x2 DUP3 DIV SWAP1 POP PUSH1 0x1 DUP3 AND DUP1 PUSH2 0x7E6 JUMPI PUSH1 0x7F DUP3 AND SWAP2 POP JUMPDEST PUSH1 0x20 DUP3 LT DUP2 SUB PUSH2 0x7F9 JUMPI PUSH2 0x7F8 PUSH2 0x79F JUMP JUMPDEST JUMPDEST POP SWAP2 SWAP1 POP JUMP JUMPDEST PUSH32 0x536F6C6F20656C2061646D696E207075656465207265616C697A617220657374 PUSH1 0x0 DUP3 ADD MSTORE PUSH32 0x6120616363696F6E000000000000000000000000000000000000000000000000 PUSH1 0x20 DUP3 ADD MSTORE POP JUMP JUMPDEST PUSH1 0x0 PUSH2 0x85B PUSH1 0x28 DUP4 PUSH2 0x4D9 JUMP JUMPDEST SWAP2 POP PUSH2 0x866 DUP3 PUSH2 0x7FF JUMP JUMPDEST PUSH1 0x40 DUP3 ADD SWAP1 POP SWAP2 SWAP1 POP JUMP JUMPDEST PUSH1 0x0 PUSH1 0x20 DUP3 ADD SWAP1 POP DUP2 DUP2 SUB PUSH1 0x0 DUP4 ADD MSTORE PUSH2 0x88A DUP2 PUSH2 0x84E JUMP JUMPDEST SWAP1 POP SWAP2 SWAP1 POP JUMP JUMPDEST PUSH1 0x0 PUSH1 0x40 DUP3 ADD SWAP1 POP DUP2 DUP2 SUB PUSH1 0x0 DUP4 ADD MSTORE PUSH2 0x8AB DUP2 DUP6 PUSH2 0x525 JUMP JUMPDEST SWAP1 POP DUP2 DUP2 SUB PUSH1 0x20 DUP4 ADD MSTORE PUSH2 0x8BF DUP2 DUP5 PUSH2 0x525 JUMP JUMPDEST SWAP1 POP SWAP4 SWAP3 POP POP POP JUMP JUMPDEST PUSH1 0x0 DUP2 SWAP1 POP DUP2 PUSH1 0x0 MSTORE PUSH1 0x20 PUSH1 0x0 KECCAK256 SWAP1 POP SWAP2 SWAP1 POP JUMP JUMPDEST PUSH1 0x0 PUSH1 0x20 PUSH1 0x1F DUP4 ADD DIV SWAP1 POP SWAP2 SWAP1 POP JUMP JUMPDEST PUSH1 0x0 DUP3 DUP3 SHL SWAP1 POP SWAP3 SWAP2 POP POP JUMP JUMPDEST PUSH1 0x0 PUSH1 0x8 DUP4 MUL PUSH2 0x92A PUSH32 0xFFFFFFFFFFFFFFFFFFFFFFFFFFFFFFFFFFFFFFFFFFFFFFFFFFFFFFFFFFFFFFFF DUP3 PUSH2 0x8ED JUMP JUMPDEST PUSH2 0x934 DUP7 DUP4 PUSH2 0x8ED JUMP JUMPDEST SWAP6 POP DUP1 NOT DUP5 AND SWAP4 POP DUP1 DUP7 AND DUP5 OR SWAP3 POP POP POP SWAP4 SWAP3 POP POP POP JUMP JUMPDEST PUSH1 0x0 DUP2 SWAP1 POP SWAP2 SWAP1 POP JUMP JUMPDEST PUSH1 0x0 PUSH2 0x971 PUSH2 0x96C PUSH2 0x967 DUP5 PUSH2 0x76B JUMP JUMPDEST PUSH2 0x94C JUMP JUMPDEST PUSH2 0x76B JUMP JUMPDEST SWAP1 POP SWAP2 SWAP1 POP JUMP JUMPDEST PUSH1 0x0 DUP2 SWAP1 POP SWAP2 SWAP1 POP JUMP JUMPDEST PUSH2 0x98B DUP4 PUSH2 0x956 JUMP JUMPDEST PUSH2 0x99F PUSH2 0x997 DUP3 PUSH2 0x978 JUMP JUMPDEST DUP5 DUP5 SLOAD PUSH2 0x8FA JUMP JUMPDEST DUP3 SSTORE POP POP POP POP JUMP JUMPDEST PUSH1 0x0 SWAP1 JUMP JUMPDEST PUSH2 0x9B4 PUSH2 0x9A7 JUMP JUMPDEST PUSH2 0x9BF DUP2 DUP5 DUP5 PUSH2 0x982 JUMP JUMPDEST POP POP POP JUMP JUMPDEST JUMPDEST DUP2 DUP2 LT ISZERO PUSH2 0x9E3 JUMPI PUSH2 0x9D8 PUSH1 0x0 DUP3 PUSH2 0x9AC JUMP JUMPDEST PUSH1 0x1 DUP2 ADD SWAP1 POP PUSH2 0x9C5 JUMP JUMPDEST POP POP JUMP JUMPDEST PUSH1 0x1F DUP3 GT ISZERO PUSH2 0xA28 JUMPI PUSH2 0x9F9 DUP2 PUSH2 0x8C8 JUMP JUMPDEST PUSH2 0xA02 DUP5 PUSH2 0x8DD JUMP JUMPDEST DUP2 ADD PUSH1 0x20 DUP6 LT ISZERO PUSH2 0xA11 JUMPI DUP2 SWAP1 POP JUMPDEST PUSH2 0xA25 PUSH2 0xA1D DUP6 PUSH2 0x8DD JUMP JUMPDEST DUP4 ADD DUP3 PUSH2 0x9C4 JUMP JUMPDEST POP POP JUMPDEST POP POP POP JUMP JUMPDEST PUSH1 0x0 DUP3 DUP3 SHR SWAP1 POP SWAP3 SWAP2 POP POP JUMP JUMPDEST PUSH1 0x0 PUSH2 0xA4B PUSH1 0x0 NOT DUP5 PUSH1 0x8 MUL PUSH2 0xA2D JUMP JUMPDEST NOT DUP1 DUP4 AND SWAP2 POP POP SWAP3 SWAP2 POP POP JUMP JUMPDEST PUSH1 0x0 PUSH2 0xA64 DUP4 DUP4 PUSH2 0xA3A JUMP JUMPDEST SWAP2 POP DUP3 PUSH1 0x2 MUL DUP3 OR SWAP1 POP SWAP3 SWAP2 POP POP JUMP JUMPDEST PUSH2 0xA7D DUP3 PUSH2 0x4CE JUMP JUMPDEST PUSH8 0xFFFFFFFFFFFFFFFF DUP2 GT ISZERO PUSH2 0xA96 JUMPI PUSH2 0xA95 PUSH2 0x59E JUMP JUMPDEST JUMPDEST PUSH2 0xAA0 DUP3 SLOAD PUSH2 0x7CE JUMP JUMPDEST PUSH2 0xAAB DUP3 DUP3 DUP6 PUSH2 0x9E7 JUMP JUMPDEST PUSH1 0x0 PUSH1 0x20 SWAP1 POP PUSH1 0x1F DUP4 GT PUSH1 0x1 DUP2 EQ PUSH2 0xADE JUMPI PUSH1 0x0 DUP5 ISZERO PUSH2 0xACC JUMPI DUP3 DUP8 ADD MLOAD SWAP1 POP JUMPDEST PUSH2 0xAD6 DUP6 DUP3 PUSH2 0xA58 JUMP JUMPDEST DUP7 SSTORE POP PUSH2 0xB3E JUMP JUMPDEST PUSH1 0x1F NOT DUP5 AND PUSH2 0xAEC DUP7 PUSH2 0x8C8 JUMP JUMPDEST PUSH1 0x0 JUMPDEST DUP3 DUP2 LT ISZERO PUSH2 0xB14 JUMPI DUP5 DUP10 ADD MLOAD DUP3 SSTORE PUSH1 0x1 DUP3 ADD SWAP2 POP PUSH1 0x20 DUP6 ADD SWAP5 POP PUSH1 0x20 DUP2 ADD SWAP1 POP PUSH2 0xAEF JUMP JUMPDEST DUP7 DUP4 LT ISZERO PUSH2 0xB31 JUMPI DUP5 DUP10 ADD MLOAD PUSH2 0xB2D PUSH1 0x1F DUP10 AND DUP3 PUSH2 0xA3A JUMP JUMPDEST DUP4 SSTORE POP JUMPDEST PUSH1 0x1 PUSH1 0x2 DUP9 MUL ADD DUP9 SSTORE POP POP POP JUMPDEST POP POP POP POP POP POP JUMP JUMPDEST PUSH32 0x4E487B7100000000000000000000000000000000000000000000000000000000 PUSH1 0x0 MSTORE PUSH1 0x11 PUSH1 0x4 MSTORE PUSH1 0x24 PUSH1 0x0 REVERT JUMPDEST PUSH1 0x0 PUSH2 0xB80 DUP3 PUSH2 0x76B JUMP JUMPDEST SWAP2 POP PUSH32 0xFFFFFFFFFFFFFFFFFFFFFFFFFFFFFFFFFFFFFFFFFFFFFFFFFFFFFFFFFFFFFFFF DUP3 SUB PUSH2 0xBB2 JUMPI PUSH2 0xBB1 PUSH2 0xB46 JUMP JUMPDEST JUMPDEST PUSH1 0x1 DUP3 ADD SWAP1 POP SWAP2 SWAP1 POP JUMP JUMPDEST PUSH32 0x446972656363696F6E206E6F2076616C69646100000000000000000000000000 PUSH1 0x0 DUP3 ADD MSTORE POP JUMP JUMPDEST PUSH1 0x0 PUSH2 0xBF3 PUSH1 0x13 DUP4 PUSH2 0x4D9 JUMP JUMPDEST SWAP2 POP PUSH2 0xBFE DUP3 PUSH2 0xBBD JUMP JUMPDEST PUSH1 0x20 DUP3 ADD SWAP1 POP SWAP2 SWAP1 POP JUMP JUMPDEST PUSH1 0x0 PUSH1 0x20 DUP3 ADD SWAP1 POP DUP2 DUP2 SUB PUSH1 0x0 DUP4 ADD MSTORE PUSH2 0xC22 DUP2 PUSH2 0xBE6 JUMP JUMPDEST SWAP1 POP SWAP2 SWAP1 POP JUMP INVALID LOG2 PUSH5 0x6970667358 0x22 SLT KECCAK256 0xD0 ISZERO SWAP14 SWAP13 0x5E PUSH17 0x51C3259C92857602704413B6B2C8A7C60C 0x1E CALLDATASIZE 0xD7 0xBA BASEFEE 0xEB PUSH24 0x98FB64736F6C634300081300330000000000000000000000 "
				},
				"gasEstimates": {
					"creation": {
						"codeDepositCost": "633400",
						"executionCost": "infinite",
						"totalCost": "infinite"
					},
					"external": {
						"actualizarData(string)": "infinite",
						"numeroDeCambios()": "2495",
						"obtenerData()": "infinite",
						"owner()": "2492",
						"transferirAdmin(address)": "26971"
					}
				},
				"methodIdentifiers": {
					"actualizarData(string)": "b5bb0fbe",
					"numeroDeCambios()": "ec7a6f4a",
					"obtenerData()": "8fec79be",
					"owner()": "8da5cb5b",
					"transferirAdmin(address)": "bbe99a1e"
				}
			},
			"storageLayout": {
				"storage": [
					{
						"astId": 4,
						"contract": "ETH_KIPU/Register08_EjercicioResuelto.sol:RegistroConAcceso",
						"label": "storedData",
						"offset": 0,
						"slot": "0",
						"type": "t_string_storage"
					},
					{
						"astId": 6,
						"contract": "ETH_KIPU/Register08_EjercicioResuelto.sol:RegistroConAcceso",
						"label": "numeroDeCambios",
						"offset": 0,
						"slot": "1",
						"type": "t_uint256"
					},
					{
						"astId": 8,
						"contract": "ETH_KIPU/Register08_EjercicioResuelto.sol:RegistroConAcceso",
						"label": "owner",
						"offset": 0,
						"slot": "2",
						"type": "t_address"
					}
				],
				"types": {
					"t_address": {
						"encoding": "inplace",
						"label": "address",
						"numberOfBytes": "20"
					},
					"t_string_storage": {
						"encoding": "bytes",
						"label": "string",
						"numberOfBytes": "32"
					},
					"t_uint256": {
						"encoding": "inplace",
						"label": "uint256",
						"numberOfBytes": "32"
					}
				}
			},
			"userdoc": {
				"events": {
					"DataActualizada(string,string)": {
						"notice": "Emite los valores antiguo y nuevo cuando se actualiza `storedData`"
					}
				},
				"kind": "user",
				"methods": {
					"actualizarData(string)": {
						"notice": "Permite al administrador actualizar el dato almacenado."
					},
					"obtenerData()": {
						"notice": "Devuelve el dato almacenado actualmente."
					},
					"transferirAdmin(address)": {
						"notice": "Permite al administrador transferir su rol a otro usuario."
					}
				},
				"notice": "Este contrato permite almacenar y actualizar una cadena de texto, con control de acceso y eventos.",
				"version": 1
			}
		}
	}
}