{
	"ETH_KIPU/Register08_Ejercicio.sol": {
		"RegistroConAcceso": {
			"abi": [
				{
					"inputs": [],
					"stateMutability": "nonpayable",
					"type": "constructor"
				},
				{
					"anonymous": false,
					"inputs": [
						{
							"indexed": false,
							"internalType": "string",
							"name": "oldInfo",
							"type": "string"
						},
						{
							"indexed": false,
							"internalType": "string",
							"name": "newInfo",
							"type": "string"
						}
					],
					"name": "InfoChange",
					"type": "event"
				},
				{
					"inputs": [
						{
							"internalType": "string",
							"name": "nuevoDato",
							"type": "string"
						}
					],
					"name": "actualizarData",
					"outputs": [],
					"stateMutability": "nonpayable",
					"type": "function"
				},
				{
					"inputs": [],
					"name": "numeroDeCambios",
					"outputs": [
						{
							"internalType": "uint256",
							"name": "",
							"type": "uint256"
						}
					],
					"stateMutability": "view",
					"type": "function"
				},
				{
					"inputs": [],
					"name": "obtenerData",
					"outputs": [
						{
							"internalType": "string",
							"name": "",
							"type": "string"
						}
					],
					"stateMutability": "view",
					"type": "function"
				},
				{
					"inputs": [],
					"name": "owner",
					"outputs": [
						{
							"internalType": "address",
							"name": "",
							"type": "address"
						}
					],
					"stateMutability": "view",
					"type": "function"
				},
				{
					"inputs": [
						{
							"internalType": "address",
							"name": "nuevoAdmin",
							"type": "address"
						}
					],
					"name": "transferirAdmin",
					"outputs": [],
					"stateMutability": "nonpayable",
					"type": "function"
				}
			],
			"devdoc": {
				"author": "[Jose Valperga]",
				"kind": "dev",
				"methods": {
					"actualizarData(string)": {
						"details": "Emitir el evento `DataActualizada` cuando se modifique el valor de `storedData`.Incrementar el contador de cambios después de actualizar la información.",
						"params": {
							"nuevoDato": "El nuevo dato que será almacenado. TODO: Implementar la funcionalidad de esta función."
						}
					},
					"constructor": {
						"details": "Constructor que asigna el rol de administrador al creador del contrato y establece un valor inicial para `storedData`."
					},
					"obtenerData()": {
						"returns": {
							"_0": "El dato almacenado en la variable de estado `storedData`. TODO: Implementar esta función para devolver el dato almacenado."
						}
					},
					"transferirAdmin(address)": {
						"details": "Solo el administrador actual puede llamar a esta función. TODO: Completar la función para permitir la transferencia de la propiedad.",
						"params": {
							"nuevoAdmin": "La dirección del nuevo administrador."
						}
					}
				},
				"title": "Registro con Acceso Controlado y Eventos (Versión incompleta)",
				"version": 1
			},
			"evm": {
				"assembly": "    /* \"ETH_KIPU/Register08_Ejercicio.sol\":270:2770  contract RegistroConAcceso {... */\n  mstore(0x40, 0x80)\n    /* \"ETH_KIPU/Register08_Ejercicio.sol\":399:400  0 */\n  0x00\n    /* \"ETH_KIPU/Register08_Ejercicio.sol\":366:400  uint256 public numeroDeCambios = 0 */\n  0x01\n  sstore\n    /* \"ETH_KIPU/Register08_Ejercicio.sol\":711:760  constructor() {... */\n  callvalue\n  dup1\n  iszero\n  tag_1\n  jumpi\n  0x00\n  dup1\n  revert\ntag_1:\n  pop\n    /* \"ETH_KIPU/Register08_Ejercicio.sol\":743:753  msg.sender */\n  caller\n    /* \"ETH_KIPU/Register08_Ejercicio.sol\":735:740  owner */\n  0x02\n  0x00\n    /* \"ETH_KIPU/Register08_Ejercicio.sol\":735:753  owner = msg.sender */\n  0x0100\n  exp\n  dup2\n  sload\n  dup2\n  0xffffffffffffffffffffffffffffffffffffffff\n  mul\n  not\n  and\n  swap1\n  dup4\n  0xffffffffffffffffffffffffffffffffffffffff\n  and\n  mul\n  or\n  swap1\n  sstore\n  pop\n    /* \"ETH_KIPU/Register08_Ejercicio.sol\":270:2770  contract RegistroConAcceso {... */\n  dataSize(sub_0)\n  dup1\n  dataOffset(sub_0)\n  0x00\n  codecopy\n  0x00\n  return\nstop\n\nsub_0: assembly {\n        /* \"ETH_KIPU/Register08_Ejercicio.sol\":270:2770  contract RegistroConAcceso {... */\n      mstore(0x40, 0x80)\n      callvalue\n      dup1\n      iszero\n      tag_1\n      jumpi\n      0x00\n      dup1\n      revert\n    tag_1:\n      pop\n      jumpi(tag_2, lt(calldatasize, 0x04))\n      shr(0xe0, calldataload(0x00))\n      dup1\n      0x8da5cb5b\n      eq\n      tag_3\n      jumpi\n      dup1\n      0x8fec79be\n      eq\n      tag_4\n      jumpi\n      dup1\n      0xb5bb0fbe\n      eq\n      tag_5\n      jumpi\n      dup1\n      0xbbe99a1e\n      eq\n      tag_6\n      jumpi\n      dup1\n      0xec7a6f4a\n      eq\n      tag_7\n      jumpi\n    tag_2:\n      0x00\n      dup1\n      revert\n        /* \"ETH_KIPU/Register08_Ejercicio.sol\":406:426  address public owner */\n    tag_3:\n      tag_8\n      tag_9\n      jump\t// in\n    tag_8:\n      mload(0x40)\n      tag_10\n      swap2\n      swap1\n      tag_11\n      jump\t// in\n    tag_10:\n      mload(0x40)\n      dup1\n      swap2\n      sub\n      swap1\n      return\n        /* \"ETH_KIPU/Register08_Ejercicio.sol\":2072:2215  function obtenerData() external view returns (string memory) {... */\n    tag_4:\n      tag_12\n      tag_13\n      jump\t// in\n    tag_12:\n      mload(0x40)\n      tag_14\n      swap2\n      swap1\n      tag_15\n      jump\t// in\n    tag_14:\n      mload(0x40)\n      dup1\n      swap2\n      sub\n      swap1\n      return\n        /* \"ETH_KIPU/Register08_Ejercicio.sol\":1460:1848  function actualizarData(string memory nuevoDato) external onlyOwner {... */\n    tag_5:\n      tag_16\n      0x04\n      dup1\n      calldatasize\n      sub\n      dup2\n      add\n      swap1\n      tag_17\n      swap2\n      swap1\n      tag_18\n      jump\t// in\n    tag_17:\n      tag_19\n      jump\t// in\n    tag_16:\n      stop\n        /* \"ETH_KIPU/Register08_Ejercicio.sol\":2529:2768  function transferirAdmin(address nuevoAdmin) external onlyOwner {... */\n    tag_6:\n      tag_20\n      0x04\n      dup1\n      calldatasize\n      sub\n      dup2\n      add\n      swap1\n      tag_21\n      swap2\n      swap1\n      tag_22\n      jump\t// in\n    tag_21:\n      tag_23\n      jump\t// in\n    tag_20:\n      stop\n        /* \"ETH_KIPU/Register08_Ejercicio.sol\":366:400  uint256 public numeroDeCambios = 0 */\n    tag_7:\n      tag_24\n      tag_25\n      jump\t// in\n    tag_24:\n      mload(0x40)\n      tag_26\n      swap2\n      swap1\n      tag_27\n      jump\t// in\n    tag_26:\n      mload(0x40)\n      dup1\n      swap2\n      sub\n      swap1\n      return\n        /* \"ETH_KIPU/Register08_Ejercicio.sol\":406:426  address public owner */\n    tag_9:\n      0x02\n      0x00\n      swap1\n      sload\n      swap1\n      0x0100\n      exp\n      swap1\n      div\n      0xffffffffffffffffffffffffffffffffffffffff\n      and\n      dup2\n      jump\t// out\n        /* \"ETH_KIPU/Register08_Ejercicio.sol\":2072:2215  function obtenerData() external view returns (string memory) {... */\n    tag_13:\n        /* \"ETH_KIPU/Register08_Ejercicio.sol\":2118:2131  string memory */\n      0x60\n        /* \"ETH_KIPU/Register08_Ejercicio.sol\":2198:2208  storedData */\n      0x00\n        /* \"ETH_KIPU/Register08_Ejercicio.sol\":2191:2208  return storedData */\n      dup1\n      sload\n      tag_29\n      swap1\n      tag_30\n      jump\t// in\n    tag_29:\n      dup1\n      0x1f\n      add\n      0x20\n      dup1\n      swap2\n      div\n      mul\n      0x20\n      add\n      mload(0x40)\n      swap1\n      dup2\n      add\n      0x40\n      mstore\n      dup1\n      swap3\n      swap2\n      swap1\n      dup2\n      dup2\n      mstore\n      0x20\n      add\n      dup3\n      dup1\n      sload\n      tag_31\n      swap1\n      tag_30\n      jump\t// in\n    tag_31:\n      dup1\n      iszero\n      tag_32\n      jumpi\n      dup1\n      0x1f\n      lt\n      tag_33\n      jumpi\n      0x0100\n      dup1\n      dup4\n      sload\n      div\n      mul\n      dup4\n      mstore\n      swap2\n      0x20\n      add\n      swap2\n      jump(tag_32)\n    tag_33:\n      dup3\n      add\n      swap2\n      swap1\n      0x00\n      mstore\n      keccak256(0x00, 0x20)\n      swap1\n    tag_34:\n      dup2\n      sload\n      dup2\n      mstore\n      swap1\n      0x01\n      add\n      swap1\n      0x20\n      add\n      dup1\n      dup4\n      gt\n      tag_34\n      jumpi\n      dup3\n      swap1\n      sub\n      0x1f\n      and\n      dup3\n      add\n      swap2\n    tag_32:\n      pop\n      pop\n      pop\n      pop\n      pop\n      swap1\n      pop\n        /* \"ETH_KIPU/Register08_Ejercicio.sol\":2072:2215  function obtenerData() external view returns (string memory) {... */\n      swap1\n      jump\t// out\n        /* \"ETH_KIPU/Register08_Ejercicio.sol\":1460:1848  function actualizarData(string memory nuevoDato) external onlyOwner {... */\n    tag_19:\n        /* \"ETH_KIPU/Register08_Ejercicio.sol\":1029:1034  owner */\n      0x02\n      0x00\n      swap1\n      sload\n      swap1\n      0x0100\n      exp\n      swap1\n      div\n      0xffffffffffffffffffffffffffffffffffffffff\n      and\n        /* \"ETH_KIPU/Register08_Ejercicio.sol\":1015:1034  msg.sender == owner */\n      0xffffffffffffffffffffffffffffffffffffffff\n      and\n        /* \"ETH_KIPU/Register08_Ejercicio.sol\":1015:1025  msg.sender */\n      caller\n        /* \"ETH_KIPU/Register08_Ejercicio.sol\":1015:1034  msg.sender == owner */\n      0xffffffffffffffffffffffffffffffffffffffff\n      and\n      eq\n        /* \"ETH_KIPU/Register08_Ejercicio.sol\":1007:1049  require(msg.sender == owner, \"Only owner\") */\n      tag_36\n      jumpi\n      mload(0x40)\n      0x08c379a000000000000000000000000000000000000000000000000000000000\n      dup2\n      mstore\n      0x04\n      add\n      tag_37\n      swap1\n      tag_38\n      jump\t// in\n    tag_37:\n      mload(0x40)\n      dup1\n      swap2\n      sub\n      swap1\n      revert\n    tag_36:\n        /* \"ETH_KIPU/Register08_Ejercicio.sol\":1622:1654  InfoChange(\"oldInfo\", nuevoDato) */\n      0x305058d54db6daf26994cd687b168a24cdd9a7201462f1659782c4e429987992\n        /* \"ETH_KIPU/Register08_Ejercicio.sol\":1644:1653  nuevoDato */\n      dup2\n        /* \"ETH_KIPU/Register08_Ejercicio.sol\":1622:1654  InfoChange(\"oldInfo\", nuevoDato) */\n      mload(0x40)\n      tag_40\n      swap2\n      swap1\n      tag_41\n      jump\t// in\n    tag_40:\n      mload(0x40)\n      dup1\n      swap2\n      sub\n      swap1\n      log1\n        /* \"ETH_KIPU/Register08_Ejercicio.sol\":1746:1755  nuevoDato */\n      dup1\n        /* \"ETH_KIPU/Register08_Ejercicio.sol\":1733:1743  storedData */\n      0x00\n        /* \"ETH_KIPU/Register08_Ejercicio.sol\":1733:1755  storedData = nuevoDato */\n      swap1\n      dup2\n      tag_42\n      swap2\n      swap1\n      tag_43\n      jump\t// in\n    tag_42:\n      pop\n        /* \"ETH_KIPU/Register08_Ejercicio.sol\":1824:1839  numeroDeCambios */\n      0x01\n      0x00\n        /* \"ETH_KIPU/Register08_Ejercicio.sol\":1824:1841  numeroDeCambios++ */\n      dup2\n      sload\n      dup1\n      swap3\n      swap2\n      swap1\n      tag_44\n      swap1\n      tag_45\n      jump\t// in\n    tag_44:\n      swap2\n      swap1\n      pop\n      sstore\n      pop\n        /* \"ETH_KIPU/Register08_Ejercicio.sol\":1460:1848  function actualizarData(string memory nuevoDato) external onlyOwner {... */\n      pop\n      jump\t// out\n        /* \"ETH_KIPU/Register08_Ejercicio.sol\":2529:2768  function transferirAdmin(address nuevoAdmin) external onlyOwner {... */\n    tag_23:\n        /* \"ETH_KIPU/Register08_Ejercicio.sol\":1029:1034  owner */\n      0x02\n      0x00\n      swap1\n      sload\n      swap1\n      0x0100\n      exp\n      swap1\n      div\n      0xffffffffffffffffffffffffffffffffffffffff\n      and\n        /* \"ETH_KIPU/Register08_Ejercicio.sol\":1015:1034  msg.sender == owner */\n      0xffffffffffffffffffffffffffffffffffffffff\n      and\n        /* \"ETH_KIPU/Register08_Ejercicio.sol\":1015:1025  msg.sender */\n      caller\n        /* \"ETH_KIPU/Register08_Ejercicio.sol\":1015:1034  msg.sender == owner */\n      0xffffffffffffffffffffffffffffffffffffffff\n      and\n      eq\n        /* \"ETH_KIPU/Register08_Ejercicio.sol\":1007:1049  require(msg.sender == owner, \"Only owner\") */\n      tag_47\n      jumpi\n      mload(0x40)\n      0x08c379a000000000000000000000000000000000000000000000000000000000\n      dup2\n      mstore\n      0x04\n      add\n      tag_48\n      swap1\n      tag_38\n      jump\t// in\n    tag_48:\n      mload(0x40)\n      dup1\n      swap2\n      sub\n      swap1\n      revert\n    tag_47:\n        /* \"ETH_KIPU/Register08_Ejercicio.sol\":2633:2634  0 */\n      0x00\n        /* \"ETH_KIPU/Register08_Ejercicio.sol\":2611:2635  nuevoAdmin != address(0) */\n      0xffffffffffffffffffffffffffffffffffffffff\n      and\n        /* \"ETH_KIPU/Register08_Ejercicio.sol\":2611:2621  nuevoAdmin */\n      dup2\n        /* \"ETH_KIPU/Register08_Ejercicio.sol\":2611:2635  nuevoAdmin != address(0) */\n      0xffffffffffffffffffffffffffffffffffffffff\n      and\n      sub\n        /* \"ETH_KIPU/Register08_Ejercicio.sol\":2603:2659  require(nuevoAdmin != address(0), \"Direccion no valida\") */\n      tag_50\n      jumpi\n      mload(0x40)\n      0x08c379a000000000000000000000000000000000000000000000000000000000\n      dup2\n      mstore\n      0x04\n      add\n      tag_51\n      swap1\n      tag_52\n      jump\t// in\n    tag_51:\n      mload(0x40)\n      dup1\n      swap2\n      sub\n      swap1\n      revert\n    tag_50:\n        /* \"ETH_KIPU/Register08_Ejercicio.sol\":2677:2687  nuevoAdmin */\n      dup1\n        /* \"ETH_KIPU/Register08_Ejercicio.sol\":2669:2674  owner */\n      0x02\n      0x00\n        /* \"ETH_KIPU/Register08_Ejercicio.sol\":2669:2687  owner = nuevoAdmin */\n      0x0100\n      exp\n      dup2\n      sload\n      dup2\n      0xffffffffffffffffffffffffffffffffffffffff\n      mul\n      not\n      and\n      swap1\n      dup4\n      0xffffffffffffffffffffffffffffffffffffffff\n      and\n      mul\n      or\n      swap1\n      sstore\n      pop\n        /* \"ETH_KIPU/Register08_Ejercicio.sol\":2529:2768  function transferirAdmin(address nuevoAdmin) external onlyOwner {... */\n      pop\n      jump\t// out\n        /* \"ETH_KIPU/Register08_Ejercicio.sol\":366:400  uint256 public numeroDeCambios = 0 */\n    tag_25:\n      sload(0x01)\n      dup2\n      jump\t// out\n        /* \"#utility.yul\":7:133   */\n    tag_53:\n        /* \"#utility.yul\":44:51   */\n      0x00\n        /* \"#utility.yul\":84:126   */\n      0xffffffffffffffffffffffffffffffffffffffff\n        /* \"#utility.yul\":77:82   */\n      dup3\n        /* \"#utility.yul\":73:127   */\n      and\n        /* \"#utility.yul\":62:127   */\n      swap1\n      pop\n        /* \"#utility.yul\":7:133   */\n      swap2\n      swap1\n      pop\n      jump\t// out\n        /* \"#utility.yul\":139:235   */\n    tag_54:\n        /* \"#utility.yul\":176:183   */\n      0x00\n        /* \"#utility.yul\":205:229   */\n      tag_103\n        /* \"#utility.yul\":223:228   */\n      dup3\n        /* \"#utility.yul\":205:229   */\n      tag_53\n      jump\t// in\n    tag_103:\n        /* \"#utility.yul\":194:229   */\n      swap1\n      pop\n        /* \"#utility.yul\":139:235   */\n      swap2\n      swap1\n      pop\n      jump\t// out\n        /* \"#utility.yul\":241:359   */\n    tag_55:\n        /* \"#utility.yul\":328:352   */\n      tag_105\n        /* \"#utility.yul\":346:351   */\n      dup2\n        /* \"#utility.yul\":328:352   */\n      tag_54\n      jump\t// in\n    tag_105:\n        /* \"#utility.yul\":323:326   */\n      dup3\n        /* \"#utility.yul\":316:353   */\n      mstore\n        /* \"#utility.yul\":241:359   */\n      pop\n      pop\n      jump\t// out\n        /* \"#utility.yul\":365:587   */\n    tag_11:\n        /* \"#utility.yul\":458:462   */\n      0x00\n        /* \"#utility.yul\":496:498   */\n      0x20\n        /* \"#utility.yul\":485:494   */\n      dup3\n        /* \"#utility.yul\":481:499   */\n      add\n        /* \"#utility.yul\":473:499   */\n      swap1\n      pop\n        /* \"#utility.yul\":509:580   */\n      tag_107\n        /* \"#utility.yul\":577:578   */\n      0x00\n        /* \"#utility.yul\":566:575   */\n      dup4\n        /* \"#utility.yul\":562:579   */\n      add\n        /* \"#utility.yul\":553:559   */\n      dup5\n        /* \"#utility.yul\":509:580   */\n      tag_55\n      jump\t// in\n    tag_107:\n        /* \"#utility.yul\":365:587   */\n      swap3\n      swap2\n      pop\n      pop\n      jump\t// out\n        /* \"#utility.yul\":593:692   */\n    tag_56:\n        /* \"#utility.yul\":645:651   */\n      0x00\n        /* \"#utility.yul\":679:684   */\n      dup2\n        /* \"#utility.yul\":673:685   */\n      mload\n        /* \"#utility.yul\":663:685   */\n      swap1\n      pop\n        /* \"#utility.yul\":593:692   */\n      swap2\n      swap1\n      pop\n      jump\t// out\n        /* \"#utility.yul\":698:867   */\n    tag_57:\n        /* \"#utility.yul\":782:793   */\n      0x00\n        /* \"#utility.yul\":816:822   */\n      dup3\n        /* \"#utility.yul\":811:814   */\n      dup3\n        /* \"#utility.yul\":804:823   */\n      mstore\n        /* \"#utility.yul\":856:860   */\n      0x20\n        /* \"#utility.yul\":851:854   */\n      dup3\n        /* \"#utility.yul\":847:861   */\n      add\n        /* \"#utility.yul\":832:861   */\n      swap1\n      pop\n        /* \"#utility.yul\":698:867   */\n      swap3\n      swap2\n      pop\n      pop\n      jump\t// out\n        /* \"#utility.yul\":873:1119   */\n    tag_58:\n        /* \"#utility.yul\":954:955   */\n      0x00\n        /* \"#utility.yul\":964:1077   */\n    tag_111:\n        /* \"#utility.yul\":978:984   */\n      dup4\n        /* \"#utility.yul\":975:976   */\n      dup2\n        /* \"#utility.yul\":972:985   */\n      lt\n        /* \"#utility.yul\":964:1077   */\n      iszero\n      tag_113\n      jumpi\n        /* \"#utility.yul\":1063:1064   */\n      dup1\n        /* \"#utility.yul\":1058:1061   */\n      dup3\n        /* \"#utility.yul\":1054:1065   */\n      add\n        /* \"#utility.yul\":1048:1066   */\n      mload\n        /* \"#utility.yul\":1044:1045   */\n      dup2\n        /* \"#utility.yul\":1039:1042   */\n      dup5\n        /* \"#utility.yul\":1035:1046   */\n      add\n        /* \"#utility.yul\":1028:1067   */\n      mstore\n        /* \"#utility.yul\":1000:1002   */\n      0x20\n        /* \"#utility.yul\":997:998   */\n      dup2\n        /* \"#utility.yul\":993:1003   */\n      add\n        /* \"#utility.yul\":988:1003   */\n      swap1\n      pop\n        /* \"#utility.yul\":964:1077   */\n      jump(tag_111)\n    tag_113:\n        /* \"#utility.yul\":1111:1112   */\n      0x00\n        /* \"#utility.yul\":1102:1108   */\n      dup5\n        /* \"#utility.yul\":1097:1100   */\n      dup5\n        /* \"#utility.yul\":1093:1109   */\n      add\n        /* \"#utility.yul\":1086:1113   */\n      mstore\n        /* \"#utility.yul\":935:1119   */\n      pop\n        /* \"#utility.yul\":873:1119   */\n      pop\n      pop\n      pop\n      jump\t// out\n        /* \"#utility.yul\":1125:1227   */\n    tag_59:\n        /* \"#utility.yul\":1166:1172   */\n      0x00\n        /* \"#utility.yul\":1217:1219   */\n      0x1f\n        /* \"#utility.yul\":1213:1220   */\n      not\n        /* \"#utility.yul\":1208:1210   */\n      0x1f\n        /* \"#utility.yul\":1201:1206   */\n      dup4\n        /* \"#utility.yul\":1197:1211   */\n      add\n        /* \"#utility.yul\":1193:1221   */\n      and\n        /* \"#utility.yul\":1183:1221   */\n      swap1\n      pop\n        /* \"#utility.yul\":1125:1227   */\n      swap2\n      swap1\n      pop\n      jump\t// out\n        /* \"#utility.yul\":1233:1610   */\n    tag_60:\n        /* \"#utility.yul\":1321:1324   */\n      0x00\n        /* \"#utility.yul\":1349:1388   */\n      tag_116\n        /* \"#utility.yul\":1382:1387   */\n      dup3\n        /* \"#utility.yul\":1349:1388   */\n      tag_56\n      jump\t// in\n    tag_116:\n        /* \"#utility.yul\":1404:1475   */\n      tag_117\n        /* \"#utility.yul\":1468:1474   */\n      dup2\n        /* \"#utility.yul\":1463:1466   */\n      dup6\n        /* \"#utility.yul\":1404:1475   */\n      tag_57\n      jump\t// in\n    tag_117:\n        /* \"#utility.yul\":1397:1475   */\n      swap4\n      pop\n        /* \"#utility.yul\":1484:1549   */\n      tag_118\n        /* \"#utility.yul\":1542:1548   */\n      dup2\n        /* \"#utility.yul\":1537:1540   */\n      dup6\n        /* \"#utility.yul\":1530:1534   */\n      0x20\n        /* \"#utility.yul\":1523:1528   */\n      dup7\n        /* \"#utility.yul\":1519:1535   */\n      add\n        /* \"#utility.yul\":1484:1549   */\n      tag_58\n      jump\t// in\n    tag_118:\n        /* \"#utility.yul\":1574:1603   */\n      tag_119\n        /* \"#utility.yul\":1596:1602   */\n      dup2\n        /* \"#utility.yul\":1574:1603   */\n      tag_59\n      jump\t// in\n    tag_119:\n        /* \"#utility.yul\":1569:1572   */\n      dup5\n        /* \"#utility.yul\":1565:1604   */\n      add\n        /* \"#utility.yul\":1558:1604   */\n      swap2\n      pop\n        /* \"#utility.yul\":1325:1610   */\n      pop\n        /* \"#utility.yul\":1233:1610   */\n      swap3\n      swap2\n      pop\n      pop\n      jump\t// out\n        /* \"#utility.yul\":1616:1929   */\n    tag_15:\n        /* \"#utility.yul\":1729:1733   */\n      0x00\n        /* \"#utility.yul\":1767:1769   */\n      0x20\n        /* \"#utility.yul\":1756:1765   */\n      dup3\n        /* \"#utility.yul\":1752:1770   */\n      add\n        /* \"#utility.yul\":1744:1770   */\n      swap1\n      pop\n        /* \"#utility.yul\":1816:1825   */\n      dup2\n        /* \"#utility.yul\":1810:1814   */\n      dup2\n        /* \"#utility.yul\":1806:1826   */\n      sub\n        /* \"#utility.yul\":1802:1803   */\n      0x00\n        /* \"#utility.yul\":1791:1800   */\n      dup4\n        /* \"#utility.yul\":1787:1804   */\n      add\n        /* \"#utility.yul\":1780:1827   */\n      mstore\n        /* \"#utility.yul\":1844:1922   */\n      tag_121\n        /* \"#utility.yul\":1917:1921   */\n      dup2\n        /* \"#utility.yul\":1908:1914   */\n      dup5\n        /* \"#utility.yul\":1844:1922   */\n      tag_60\n      jump\t// in\n    tag_121:\n        /* \"#utility.yul\":1836:1922   */\n      swap1\n      pop\n        /* \"#utility.yul\":1616:1929   */\n      swap3\n      swap2\n      pop\n      pop\n      jump\t// out\n        /* \"#utility.yul\":1935:2010   */\n    tag_61:\n        /* \"#utility.yul\":1968:1974   */\n      0x00\n        /* \"#utility.yul\":2001:2003   */\n      0x40\n        /* \"#utility.yul\":1995:2004   */\n      mload\n        /* \"#utility.yul\":1985:2004   */\n      swap1\n      pop\n        /* \"#utility.yul\":1935:2010   */\n      swap1\n      jump\t// out\n        /* \"#utility.yul\":2016:2133   */\n    tag_62:\n        /* \"#utility.yul\":2125:2126   */\n      0x00\n        /* \"#utility.yul\":2122:2123   */\n      dup1\n        /* \"#utility.yul\":2115:2127   */\n      revert\n        /* \"#utility.yul\":2139:2256   */\n    tag_63:\n        /* \"#utility.yul\":2248:2249   */\n      0x00\n        /* \"#utility.yul\":2245:2246   */\n      dup1\n        /* \"#utility.yul\":2238:2250   */\n      revert\n        /* \"#utility.yul\":2262:2379   */\n    tag_64:\n        /* \"#utility.yul\":2371:2372   */\n      0x00\n        /* \"#utility.yul\":2368:2369   */\n      dup1\n        /* \"#utility.yul\":2361:2373   */\n      revert\n        /* \"#utility.yul\":2385:2502   */\n    tag_65:\n        /* \"#utility.yul\":2494:2495   */\n      0x00\n        /* \"#utility.yul\":2491:2492   */\n      dup1\n        /* \"#utility.yul\":2484:2496   */\n      revert\n        /* \"#utility.yul\":2508:2688   */\n    tag_66:\n        /* \"#utility.yul\":2556:2633   */\n      0x4e487b7100000000000000000000000000000000000000000000000000000000\n        /* \"#utility.yul\":2553:2554   */\n      0x00\n        /* \"#utility.yul\":2546:2634   */\n      mstore\n        /* \"#utility.yul\":2653:2657   */\n      0x41\n        /* \"#utility.yul\":2650:2651   */\n      0x04\n        /* \"#utility.yul\":2643:2658   */\n      mstore\n        /* \"#utility.yul\":2677:2681   */\n      0x24\n        /* \"#utility.yul\":2674:2675   */\n      0x00\n        /* \"#utility.yul\":2667:2682   */\n      revert\n        /* \"#utility.yul\":2694:2975   */\n    tag_67:\n        /* \"#utility.yul\":2777:2804   */\n      tag_129\n        /* \"#utility.yul\":2799:2803   */\n      dup3\n        /* \"#utility.yul\":2777:2804   */\n      tag_59\n      jump\t// in\n    tag_129:\n        /* \"#utility.yul\":2769:2775   */\n      dup2\n        /* \"#utility.yul\":2765:2805   */\n      add\n        /* \"#utility.yul\":2907:2913   */\n      dup2\n        /* \"#utility.yul\":2895:2905   */\n      dup2\n        /* \"#utility.yul\":2892:2914   */\n      lt\n        /* \"#utility.yul\":2871:2889   */\n      0xffffffffffffffff\n        /* \"#utility.yul\":2859:2869   */\n      dup3\n        /* \"#utility.yul\":2856:2890   */\n      gt\n        /* \"#utility.yul\":2853:2915   */\n      or\n        /* \"#utility.yul\":2850:2938   */\n      iszero\n      tag_130\n      jumpi\n        /* \"#utility.yul\":2918:2936   */\n      tag_131\n      tag_66\n      jump\t// in\n    tag_131:\n        /* \"#utility.yul\":2850:2938   */\n    tag_130:\n        /* \"#utility.yul\":2958:2968   */\n      dup1\n        /* \"#utility.yul\":2954:2956   */\n      0x40\n        /* \"#utility.yul\":2947:2969   */\n      mstore\n        /* \"#utility.yul\":2737:2975   */\n      pop\n        /* \"#utility.yul\":2694:2975   */\n      pop\n      pop\n      jump\t// out\n        /* \"#utility.yul\":2981:3110   */\n    tag_68:\n        /* \"#utility.yul\":3015:3021   */\n      0x00\n        /* \"#utility.yul\":3042:3062   */\n      tag_133\n      tag_61\n      jump\t// in\n    tag_133:\n        /* \"#utility.yul\":3032:3062   */\n      swap1\n      pop\n        /* \"#utility.yul\":3071:3104   */\n      tag_134\n        /* \"#utility.yul\":3099:3103   */\n      dup3\n        /* \"#utility.yul\":3091:3097   */\n      dup3\n        /* \"#utility.yul\":3071:3104   */\n      tag_67\n      jump\t// in\n    tag_134:\n        /* \"#utility.yul\":2981:3110   */\n      swap2\n      swap1\n      pop\n      jump\t// out\n        /* \"#utility.yul\":3116:3424   */\n    tag_69:\n        /* \"#utility.yul\":3178:3182   */\n      0x00\n        /* \"#utility.yul\":3268:3286   */\n      0xffffffffffffffff\n        /* \"#utility.yul\":3260:3266   */\n      dup3\n        /* \"#utility.yul\":3257:3287   */\n      gt\n        /* \"#utility.yul\":3254:3310   */\n      iszero\n      tag_136\n      jumpi\n        /* \"#utility.yul\":3290:3308   */\n      tag_137\n      tag_66\n      jump\t// in\n    tag_137:\n        /* \"#utility.yul\":3254:3310   */\n    tag_136:\n        /* \"#utility.yul\":3328:3357   */\n      tag_138\n        /* \"#utility.yul\":3350:3356   */\n      dup3\n        /* \"#utility.yul\":3328:3357   */\n      tag_59\n      jump\t// in\n    tag_138:\n        /* \"#utility.yul\":3320:3357   */\n      swap1\n      pop\n        /* \"#utility.yul\":3412:3416   */\n      0x20\n        /* \"#utility.yul\":3406:3410   */\n      dup2\n        /* \"#utility.yul\":3402:3417   */\n      add\n        /* \"#utility.yul\":3394:3417   */\n      swap1\n      pop\n        /* \"#utility.yul\":3116:3424   */\n      swap2\n      swap1\n      pop\n      jump\t// out\n        /* \"#utility.yul\":3430:3576   */\n    tag_70:\n        /* \"#utility.yul\":3527:3533   */\n      dup3\n        /* \"#utility.yul\":3522:3525   */\n      dup2\n        /* \"#utility.yul\":3517:3520   */\n      dup4\n        /* \"#utility.yul\":3504:3534   */\n      calldatacopy\n        /* \"#utility.yul\":3568:3569   */\n      0x00\n        /* \"#utility.yul\":3559:3565   */\n      dup4\n        /* \"#utility.yul\":3554:3557   */\n      dup4\n        /* \"#utility.yul\":3550:3566   */\n      add\n        /* \"#utility.yul\":3543:3570   */\n      mstore\n        /* \"#utility.yul\":3430:3576   */\n      pop\n      pop\n      pop\n      jump\t// out\n        /* \"#utility.yul\":3582:4007   */\n    tag_71:\n        /* \"#utility.yul\":3660:3665   */\n      0x00\n        /* \"#utility.yul\":3685:3751   */\n      tag_141\n        /* \"#utility.yul\":3701:3750   */\n      tag_142\n        /* \"#utility.yul\":3743:3749   */\n      dup5\n        /* \"#utility.yul\":3701:3750   */\n      tag_69\n      jump\t// in\n    tag_142:\n        /* \"#utility.yul\":3685:3751   */\n      tag_68\n      jump\t// in\n    tag_141:\n        /* \"#utility.yul\":3676:3751   */\n      swap1\n      pop\n        /* \"#utility.yul\":3774:3780   */\n      dup3\n        /* \"#utility.yul\":3767:3772   */\n      dup2\n        /* \"#utility.yul\":3760:3781   */\n      mstore\n        /* \"#utility.yul\":3812:3816   */\n      0x20\n        /* \"#utility.yul\":3805:3810   */\n      dup2\n        /* \"#utility.yul\":3801:3817   */\n      add\n        /* \"#utility.yul\":3850:3853   */\n      dup5\n        /* \"#utility.yul\":3841:3847   */\n      dup5\n        /* \"#utility.yul\":3836:3839   */\n      dup5\n        /* \"#utility.yul\":3832:3848   */\n      add\n        /* \"#utility.yul\":3829:3854   */\n      gt\n        /* \"#utility.yul\":3826:3938   */\n      iszero\n      tag_143\n      jumpi\n        /* \"#utility.yul\":3857:3936   */\n      tag_144\n      tag_65\n      jump\t// in\n    tag_144:\n        /* \"#utility.yul\":3826:3938   */\n    tag_143:\n        /* \"#utility.yul\":3947:4001   */\n      tag_145\n        /* \"#utility.yul\":3994:4000   */\n      dup5\n        /* \"#utility.yul\":3989:3992   */\n      dup3\n        /* \"#utility.yul\":3984:3987   */\n      dup6\n        /* \"#utility.yul\":3947:4001   */\n      tag_70\n      jump\t// in\n    tag_145:\n        /* \"#utility.yul\":3666:4007   */\n      pop\n        /* \"#utility.yul\":3582:4007   */\n      swap4\n      swap3\n      pop\n      pop\n      pop\n      jump\t// out\n        /* \"#utility.yul\":4027:4367   */\n    tag_72:\n        /* \"#utility.yul\":4083:4088   */\n      0x00\n        /* \"#utility.yul\":4132:4135   */\n      dup3\n        /* \"#utility.yul\":4125:4129   */\n      0x1f\n        /* \"#utility.yul\":4117:4123   */\n      dup4\n        /* \"#utility.yul\":4113:4130   */\n      add\n        /* \"#utility.yul\":4109:4136   */\n      slt\n        /* \"#utility.yul\":4099:4221   */\n      tag_147\n      jumpi\n        /* \"#utility.yul\":4140:4219   */\n      tag_148\n      tag_64\n      jump\t// in\n    tag_148:\n        /* \"#utility.yul\":4099:4221   */\n    tag_147:\n        /* \"#utility.yul\":4257:4263   */\n      dup2\n        /* \"#utility.yul\":4244:4264   */\n      calldataload\n        /* \"#utility.yul\":4282:4361   */\n      tag_149\n        /* \"#utility.yul\":4357:4360   */\n      dup5\n        /* \"#utility.yul\":4349:4355   */\n      dup3\n        /* \"#utility.yul\":4342:4346   */\n      0x20\n        /* \"#utility.yul\":4334:4340   */\n      dup7\n        /* \"#utility.yul\":4330:4347   */\n      add\n        /* \"#utility.yul\":4282:4361   */\n      tag_71\n      jump\t// in\n    tag_149:\n        /* \"#utility.yul\":4273:4361   */\n      swap2\n      pop\n        /* \"#utility.yul\":4089:4367   */\n      pop\n        /* \"#utility.yul\":4027:4367   */\n      swap3\n      swap2\n      pop\n      pop\n      jump\t// out\n        /* \"#utility.yul\":4373:4882   */\n    tag_18:\n        /* \"#utility.yul\":4442:4448   */\n      0x00\n        /* \"#utility.yul\":4491:4493   */\n      0x20\n        /* \"#utility.yul\":4479:4488   */\n      dup3\n        /* \"#utility.yul\":4470:4477   */\n      dup5\n        /* \"#utility.yul\":4466:4489   */\n      sub\n        /* \"#utility.yul\":4462:4494   */\n      slt\n        /* \"#utility.yul\":4459:4578   */\n      iszero\n      tag_151\n      jumpi\n        /* \"#utility.yul\":4497:4576   */\n      tag_152\n      tag_62\n      jump\t// in\n    tag_152:\n        /* \"#utility.yul\":4459:4578   */\n    tag_151:\n        /* \"#utility.yul\":4645:4646   */\n      0x00\n        /* \"#utility.yul\":4634:4643   */\n      dup3\n        /* \"#utility.yul\":4630:4647   */\n      add\n        /* \"#utility.yul\":4617:4648   */\n      calldataload\n        /* \"#utility.yul\":4675:4693   */\n      0xffffffffffffffff\n        /* \"#utility.yul\":4667:4673   */\n      dup2\n        /* \"#utility.yul\":4664:4694   */\n      gt\n        /* \"#utility.yul\":4661:4778   */\n      iszero\n      tag_153\n      jumpi\n        /* \"#utility.yul\":4697:4776   */\n      tag_154\n      tag_63\n      jump\t// in\n    tag_154:\n        /* \"#utility.yul\":4661:4778   */\n    tag_153:\n        /* \"#utility.yul\":4802:4865   */\n      tag_155\n        /* \"#utility.yul\":4857:4864   */\n      dup5\n        /* \"#utility.yul\":4848:4854   */\n      dup3\n        /* \"#utility.yul\":4837:4846   */\n      dup6\n        /* \"#utility.yul\":4833:4855   */\n      add\n        /* \"#utility.yul\":4802:4865   */\n      tag_72\n      jump\t// in\n    tag_155:\n        /* \"#utility.yul\":4792:4865   */\n      swap2\n      pop\n        /* \"#utility.yul\":4588:4875   */\n      pop\n        /* \"#utility.yul\":4373:4882   */\n      swap3\n      swap2\n      pop\n      pop\n      jump\t// out\n        /* \"#utility.yul\":4888:5010   */\n    tag_73:\n        /* \"#utility.yul\":4961:4985   */\n      tag_157\n        /* \"#utility.yul\":4979:4984   */\n      dup2\n        /* \"#utility.yul\":4961:4985   */\n      tag_54\n      jump\t// in\n    tag_157:\n        /* \"#utility.yul\":4954:4959   */\n      dup2\n        /* \"#utility.yul\":4951:4986   */\n      eq\n        /* \"#utility.yul\":4941:5004   */\n      tag_158\n      jumpi\n        /* \"#utility.yul\":5000:5001   */\n      0x00\n        /* \"#utility.yul\":4997:4998   */\n      dup1\n        /* \"#utility.yul\":4990:5002   */\n      revert\n        /* \"#utility.yul\":4941:5004   */\n    tag_158:\n        /* \"#utility.yul\":4888:5010   */\n      pop\n      jump\t// out\n        /* \"#utility.yul\":5016:5155   */\n    tag_74:\n        /* \"#utility.yul\":5062:5067   */\n      0x00\n        /* \"#utility.yul\":5100:5106   */\n      dup2\n        /* \"#utility.yul\":5087:5107   */\n      calldataload\n        /* \"#utility.yul\":5078:5107   */\n      swap1\n      pop\n        /* \"#utility.yul\":5116:5149   */\n      tag_160\n        /* \"#utility.yul\":5143:5148   */\n      dup2\n        /* \"#utility.yul\":5116:5149   */\n      tag_73\n      jump\t// in\n    tag_160:\n        /* \"#utility.yul\":5016:5155   */\n      swap3\n      swap2\n      pop\n      pop\n      jump\t// out\n        /* \"#utility.yul\":5161:5490   */\n    tag_22:\n        /* \"#utility.yul\":5220:5226   */\n      0x00\n        /* \"#utility.yul\":5269:5271   */\n      0x20\n        /* \"#utility.yul\":5257:5266   */\n      dup3\n        /* \"#utility.yul\":5248:5255   */\n      dup5\n        /* \"#utility.yul\":5244:5267   */\n      sub\n        /* \"#utility.yul\":5240:5272   */\n      slt\n        /* \"#utility.yul\":5237:5356   */\n      iszero\n      tag_162\n      jumpi\n        /* \"#utility.yul\":5275:5354   */\n      tag_163\n      tag_62\n      jump\t// in\n    tag_163:\n        /* \"#utility.yul\":5237:5356   */\n    tag_162:\n        /* \"#utility.yul\":5395:5396   */\n      0x00\n        /* \"#utility.yul\":5420:5473   */\n      tag_164\n        /* \"#utility.yul\":5465:5472   */\n      dup5\n        /* \"#utility.yul\":5456:5462   */\n      dup3\n        /* \"#utility.yul\":5445:5454   */\n      dup6\n        /* \"#utility.yul\":5441:5463   */\n      add\n        /* \"#utility.yul\":5420:5473   */\n      tag_74\n      jump\t// in\n    tag_164:\n        /* \"#utility.yul\":5410:5473   */\n      swap2\n      pop\n        /* \"#utility.yul\":5366:5483   */\n      pop\n        /* \"#utility.yul\":5161:5490   */\n      swap3\n      swap2\n      pop\n      pop\n      jump\t// out\n        /* \"#utility.yul\":5496:5573   */\n    tag_75:\n        /* \"#utility.yul\":5533:5540   */\n      0x00\n        /* \"#utility.yul\":5562:5567   */\n      dup2\n        /* \"#utility.yul\":5551:5567   */\n      swap1\n      pop\n        /* \"#utility.yul\":5496:5573   */\n      swap2\n      swap1\n      pop\n      jump\t// out\n        /* \"#utility.yul\":5579:5697   */\n    tag_76:\n        /* \"#utility.yul\":5666:5690   */\n      tag_167\n        /* \"#utility.yul\":5684:5689   */\n      dup2\n        /* \"#utility.yul\":5666:5690   */\n      tag_75\n      jump\t// in\n    tag_167:\n        /* \"#utility.yul\":5661:5664   */\n      dup3\n        /* \"#utility.yul\":5654:5691   */\n      mstore\n        /* \"#utility.yul\":5579:5697   */\n      pop\n      pop\n      jump\t// out\n        /* \"#utility.yul\":5703:5925   */\n    tag_27:\n        /* \"#utility.yul\":5796:5800   */\n      0x00\n        /* \"#utility.yul\":5834:5836   */\n      0x20\n        /* \"#utility.yul\":5823:5832   */\n      dup3\n        /* \"#utility.yul\":5819:5837   */\n      add\n        /* \"#utility.yul\":5811:5837   */\n      swap1\n      pop\n        /* \"#utility.yul\":5847:5918   */\n      tag_169\n        /* \"#utility.yul\":5915:5916   */\n      0x00\n        /* \"#utility.yul\":5904:5913   */\n      dup4\n        /* \"#utility.yul\":5900:5917   */\n      add\n        /* \"#utility.yul\":5891:5897   */\n      dup5\n        /* \"#utility.yul\":5847:5918   */\n      tag_76\n      jump\t// in\n    tag_169:\n        /* \"#utility.yul\":5703:5925   */\n      swap3\n      swap2\n      pop\n      pop\n      jump\t// out\n        /* \"#utility.yul\":5931:6111   */\n    tag_77:\n        /* \"#utility.yul\":5979:6056   */\n      0x4e487b7100000000000000000000000000000000000000000000000000000000\n        /* \"#utility.yul\":5976:5977   */\n      0x00\n        /* \"#utility.yul\":5969:6057   */\n      mstore\n        /* \"#utility.yul\":6076:6080   */\n      0x22\n        /* \"#utility.yul\":6073:6074   */\n      0x04\n        /* \"#utility.yul\":6066:6081   */\n      mstore\n        /* \"#utility.yul\":6100:6104   */\n      0x24\n        /* \"#utility.yul\":6097:6098   */\n      0x00\n        /* \"#utility.yul\":6090:6105   */\n      revert\n        /* \"#utility.yul\":6117:6437   */\n    tag_30:\n        /* \"#utility.yul\":6161:6167   */\n      0x00\n        /* \"#utility.yul\":6198:6199   */\n      0x02\n        /* \"#utility.yul\":6192:6196   */\n      dup3\n        /* \"#utility.yul\":6188:6200   */\n      div\n        /* \"#utility.yul\":6178:6200   */\n      swap1\n      pop\n        /* \"#utility.yul\":6245:6246   */\n      0x01\n        /* \"#utility.yul\":6239:6243   */\n      dup3\n        /* \"#utility.yul\":6235:6247   */\n      and\n        /* \"#utility.yul\":6266:6284   */\n      dup1\n        /* \"#utility.yul\":6256:6337   */\n      tag_172\n      jumpi\n        /* \"#utility.yul\":6322:6326   */\n      0x7f\n        /* \"#utility.yul\":6314:6320   */\n      dup3\n        /* \"#utility.yul\":6310:6327   */\n      and\n        /* \"#utility.yul\":6300:6327   */\n      swap2\n      pop\n        /* \"#utility.yul\":6256:6337   */\n    tag_172:\n        /* \"#utility.yul\":6384:6386   */\n      0x20\n        /* \"#utility.yul\":6376:6382   */\n      dup3\n        /* \"#utility.yul\":6373:6387   */\n      lt\n        /* \"#utility.yul\":6353:6371   */\n      dup2\n        /* \"#utility.yul\":6350:6388   */\n      sub\n        /* \"#utility.yul\":6347:6431   */\n      tag_173\n      jumpi\n        /* \"#utility.yul\":6403:6421   */\n      tag_174\n      tag_77\n      jump\t// in\n    tag_174:\n        /* \"#utility.yul\":6347:6431   */\n    tag_173:\n        /* \"#utility.yul\":6168:6437   */\n      pop\n        /* \"#utility.yul\":6117:6437   */\n      swap2\n      swap1\n      pop\n      jump\t// out\n        /* \"#utility.yul\":6443:6603   */\n    tag_78:\n        /* \"#utility.yul\":6583:6595   */\n      0x4f6e6c79206f776e657200000000000000000000000000000000000000000000\n        /* \"#utility.yul\":6579:6580   */\n      0x00\n        /* \"#utility.yul\":6571:6577   */\n      dup3\n        /* \"#utility.yul\":6567:6581   */\n      add\n        /* \"#utility.yul\":6560:6596   */\n      mstore\n        /* \"#utility.yul\":6443:6603   */\n      pop\n      jump\t// out\n        /* \"#utility.yul\":6609:6975   */\n    tag_79:\n        /* \"#utility.yul\":6751:6754   */\n      0x00\n        /* \"#utility.yul\":6772:6839   */\n      tag_177\n        /* \"#utility.yul\":6836:6838   */\n      0x0a\n        /* \"#utility.yul\":6831:6834   */\n      dup4\n        /* \"#utility.yul\":6772:6839   */\n      tag_57\n      jump\t// in\n    tag_177:\n        /* \"#utility.yul\":6765:6839   */\n      swap2\n      pop\n        /* \"#utility.yul\":6848:6941   */\n      tag_178\n        /* \"#utility.yul\":6937:6940   */\n      dup3\n        /* \"#utility.yul\":6848:6941   */\n      tag_78\n      jump\t// in\n    tag_178:\n        /* \"#utility.yul\":6966:6968   */\n      0x20\n        /* \"#utility.yul\":6961:6964   */\n      dup3\n        /* \"#utility.yul\":6957:6969   */\n      add\n        /* \"#utility.yul\":6950:6969   */\n      swap1\n      pop\n        /* \"#utility.yul\":6609:6975   */\n      swap2\n      swap1\n      pop\n      jump\t// out\n        /* \"#utility.yul\":6981:7400   */\n    tag_38:\n        /* \"#utility.yul\":7147:7151   */\n      0x00\n        /* \"#utility.yul\":7185:7187   */\n      0x20\n        /* \"#utility.yul\":7174:7183   */\n      dup3\n        /* \"#utility.yul\":7170:7188   */\n      add\n        /* \"#utility.yul\":7162:7188   */\n      swap1\n      pop\n        /* \"#utility.yul\":7234:7243   */\n      dup2\n        /* \"#utility.yul\":7228:7232   */\n      dup2\n        /* \"#utility.yul\":7224:7244   */\n      sub\n        /* \"#utility.yul\":7220:7221   */\n      0x00\n        /* \"#utility.yul\":7209:7218   */\n      dup4\n        /* \"#utility.yul\":7205:7222   */\n      add\n        /* \"#utility.yul\":7198:7245   */\n      mstore\n        /* \"#utility.yul\":7262:7393   */\n      tag_180\n        /* \"#utility.yul\":7388:7392   */\n      dup2\n        /* \"#utility.yul\":7262:7393   */\n      tag_79\n      jump\t// in\n    tag_180:\n        /* \"#utility.yul\":7254:7393   */\n      swap1\n      pop\n        /* \"#utility.yul\":6981:7400   */\n      swap2\n      swap1\n      pop\n      jump\t// out\n        /* \"#utility.yul\":7406:7563   */\n    tag_80:\n        /* \"#utility.yul\":7546:7555   */\n      0x6f6c64496e666f00000000000000000000000000000000000000000000000000\n        /* \"#utility.yul\":7542:7543   */\n      0x00\n        /* \"#utility.yul\":7534:7540   */\n      dup3\n        /* \"#utility.yul\":7530:7544   */\n      add\n        /* \"#utility.yul\":7523:7556   */\n      mstore\n        /* \"#utility.yul\":7406:7563   */\n      pop\n      jump\t// out\n        /* \"#utility.yul\":7569:7934   */\n    tag_81:\n        /* \"#utility.yul\":7711:7714   */\n      0x00\n        /* \"#utility.yul\":7732:7798   */\n      tag_183\n        /* \"#utility.yul\":7796:7797   */\n      0x07\n        /* \"#utility.yul\":7791:7794   */\n      dup4\n        /* \"#utility.yul\":7732:7798   */\n      tag_57\n      jump\t// in\n    tag_183:\n        /* \"#utility.yul\":7725:7798   */\n      swap2\n      pop\n        /* \"#utility.yul\":7807:7900   */\n      tag_184\n        /* \"#utility.yul\":7896:7899   */\n      dup3\n        /* \"#utility.yul\":7807:7900   */\n      tag_80\n      jump\t// in\n    tag_184:\n        /* \"#utility.yul\":7925:7927   */\n      0x20\n        /* \"#utility.yul\":7920:7923   */\n      dup3\n        /* \"#utility.yul\":7916:7928   */\n      add\n        /* \"#utility.yul\":7909:7928   */\n      swap1\n      pop\n        /* \"#utility.yul\":7569:7934   */\n      swap2\n      swap1\n      pop\n      jump\t// out\n        /* \"#utility.yul\":7940:8560   */\n    tag_41:\n        /* \"#utility.yul\":8154:8158   */\n      0x00\n        /* \"#utility.yul\":8192:8194   */\n      0x40\n        /* \"#utility.yul\":8181:8190   */\n      dup3\n        /* \"#utility.yul\":8177:8195   */\n      add\n        /* \"#utility.yul\":8169:8195   */\n      swap1\n      pop\n        /* \"#utility.yul\":8241:8250   */\n      dup2\n        /* \"#utility.yul\":8235:8239   */\n      dup2\n        /* \"#utility.yul\":8231:8251   */\n      sub\n        /* \"#utility.yul\":8227:8228   */\n      0x00\n        /* \"#utility.yul\":8216:8225   */\n      dup4\n        /* \"#utility.yul\":8212:8229   */\n      add\n        /* \"#utility.yul\":8205:8252   */\n      mstore\n        /* \"#utility.yul\":8269:8400   */\n      tag_186\n        /* \"#utility.yul\":8395:8399   */\n      dup2\n        /* \"#utility.yul\":8269:8400   */\n      tag_81\n      jump\t// in\n    tag_186:\n        /* \"#utility.yul\":8261:8400   */\n      swap1\n      pop\n        /* \"#utility.yul\":8447:8456   */\n      dup2\n        /* \"#utility.yul\":8441:8445   */\n      dup2\n        /* \"#utility.yul\":8437:8457   */\n      sub\n        /* \"#utility.yul\":8432:8434   */\n      0x20\n        /* \"#utility.yul\":8421:8430   */\n      dup4\n        /* \"#utility.yul\":8417:8435   */\n      add\n        /* \"#utility.yul\":8410:8458   */\n      mstore\n        /* \"#utility.yul\":8475:8553   */\n      tag_187\n        /* \"#utility.yul\":8548:8552   */\n      dup2\n        /* \"#utility.yul\":8539:8545   */\n      dup5\n        /* \"#utility.yul\":8475:8553   */\n      tag_60\n      jump\t// in\n    tag_187:\n        /* \"#utility.yul\":8467:8553   */\n      swap1\n      pop\n        /* \"#utility.yul\":7940:8560   */\n      swap3\n      swap2\n      pop\n      pop\n      jump\t// out\n        /* \"#utility.yul\":8566:8707   */\n    tag_82:\n        /* \"#utility.yul\":8615:8619   */\n      0x00\n        /* \"#utility.yul\":8638:8641   */\n      dup2\n        /* \"#utility.yul\":8630:8641   */\n      swap1\n      pop\n        /* \"#utility.yul\":8661:8664   */\n      dup2\n        /* \"#utility.yul\":8658:8659   */\n      0x00\n        /* \"#utility.yul\":8651:8665   */\n      mstore\n        /* \"#utility.yul\":8695:8699   */\n      0x20\n        /* \"#utility.yul\":8692:8693   */\n      0x00\n        /* \"#utility.yul\":8682:8700   */\n      keccak256\n        /* \"#utility.yul\":8674:8700   */\n      swap1\n      pop\n        /* \"#utility.yul\":8566:8707   */\n      swap2\n      swap1\n      pop\n      jump\t// out\n        /* \"#utility.yul\":8713:8806   */\n    tag_83:\n        /* \"#utility.yul\":8750:8756   */\n      0x00\n        /* \"#utility.yul\":8797:8799   */\n      0x20\n        /* \"#utility.yul\":8792:8794   */\n      0x1f\n        /* \"#utility.yul\":8785:8790   */\n      dup4\n        /* \"#utility.yul\":8781:8795   */\n      add\n        /* \"#utility.yul\":8777:8800   */\n      div\n        /* \"#utility.yul\":8767:8800   */\n      swap1\n      pop\n        /* \"#utility.yul\":8713:8806   */\n      swap2\n      swap1\n      pop\n      jump\t// out\n        /* \"#utility.yul\":8812:8919   */\n    tag_84:\n        /* \"#utility.yul\":8856:8864   */\n      0x00\n        /* \"#utility.yul\":8906:8911   */\n      dup3\n        /* \"#utility.yul\":8900:8904   */\n      dup3\n        /* \"#utility.yul\":8896:8912   */\n      shl\n        /* \"#utility.yul\":8875:8912   */\n      swap1\n      pop\n        /* \"#utility.yul\":8812:8919   */\n      swap3\n      swap2\n      pop\n      pop\n      jump\t// out\n        /* \"#utility.yul\":8925:9318   */\n    tag_85:\n        /* \"#utility.yul\":8994:9000   */\n      0x00\n        /* \"#utility.yul\":9044:9045   */\n      0x08\n        /* \"#utility.yul\":9032:9042   */\n      dup4\n        /* \"#utility.yul\":9028:9046   */\n      mul\n        /* \"#utility.yul\":9067:9164   */\n      tag_192\n        /* \"#utility.yul\":9097:9163   */\n      0xffffffffffffffffffffffffffffffffffffffffffffffffffffffffffffffff\n        /* \"#utility.yul\":9086:9095   */\n      dup3\n        /* \"#utility.yul\":9067:9164   */\n      tag_84\n      jump\t// in\n    tag_192:\n        /* \"#utility.yul\":9185:9224   */\n      tag_193\n        /* \"#utility.yul\":9215:9223   */\n      dup7\n        /* \"#utility.yul\":9204:9213   */\n      dup4\n        /* \"#utility.yul\":9185:9224   */\n      tag_84\n      jump\t// in\n    tag_193:\n        /* \"#utility.yul\":9173:9224   */\n      swap6\n      pop\n        /* \"#utility.yul\":9257:9261   */\n      dup1\n        /* \"#utility.yul\":9253:9262   */\n      not\n        /* \"#utility.yul\":9246:9251   */\n      dup5\n        /* \"#utility.yul\":9242:9263   */\n      and\n        /* \"#utility.yul\":9233:9263   */\n      swap4\n      pop\n        /* \"#utility.yul\":9306:9310   */\n      dup1\n        /* \"#utility.yul\":9296:9304   */\n      dup7\n        /* \"#utility.yul\":9292:9311   */\n      and\n        /* \"#utility.yul\":9285:9290   */\n      dup5\n        /* \"#utility.yul\":9282:9312   */\n      or\n        /* \"#utility.yul\":9272:9312   */\n      swap3\n      pop\n        /* \"#utility.yul\":9001:9318   */\n      pop\n      pop\n        /* \"#utility.yul\":8925:9318   */\n      swap4\n      swap3\n      pop\n      pop\n      pop\n      jump\t// out\n        /* \"#utility.yul\":9324:9384   */\n    tag_86:\n        /* \"#utility.yul\":9352:9355   */\n      0x00\n        /* \"#utility.yul\":9373:9378   */\n      dup2\n        /* \"#utility.yul\":9366:9378   */\n      swap1\n      pop\n        /* \"#utility.yul\":9324:9384   */\n      swap2\n      swap1\n      pop\n      jump\t// out\n        /* \"#utility.yul\":9390:9532   */\n    tag_87:\n        /* \"#utility.yul\":9440:9449   */\n      0x00\n        /* \"#utility.yul\":9473:9526   */\n      tag_196\n        /* \"#utility.yul\":9491:9525   */\n      tag_197\n        /* \"#utility.yul\":9500:9524   */\n      tag_198\n        /* \"#utility.yul\":9518:9523   */\n      dup5\n        /* \"#utility.yul\":9500:9524   */\n      tag_75\n      jump\t// in\n    tag_198:\n        /* \"#utility.yul\":9491:9525   */\n      tag_86\n      jump\t// in\n    tag_197:\n        /* \"#utility.yul\":9473:9526   */\n      tag_75\n      jump\t// in\n    tag_196:\n        /* \"#utility.yul\":9460:9526   */\n      swap1\n      pop\n        /* \"#utility.yul\":9390:9532   */\n      swap2\n      swap1\n      pop\n      jump\t// out\n        /* \"#utility.yul\":9538:9613   */\n    tag_88:\n        /* \"#utility.yul\":9581:9584   */\n      0x00\n        /* \"#utility.yul\":9602:9607   */\n      dup2\n        /* \"#utility.yul\":9595:9607   */\n      swap1\n      pop\n        /* \"#utility.yul\":9538:9613   */\n      swap2\n      swap1\n      pop\n      jump\t// out\n        /* \"#utility.yul\":9619:9888   */\n    tag_89:\n        /* \"#utility.yul\":9729:9768   */\n      tag_201\n        /* \"#utility.yul\":9760:9767   */\n      dup4\n        /* \"#utility.yul\":9729:9768   */\n      tag_87\n      jump\t// in\n    tag_201:\n        /* \"#utility.yul\":9790:9881   */\n      tag_202\n        /* \"#utility.yul\":9839:9880   */\n      tag_203\n        /* \"#utility.yul\":9863:9879   */\n      dup3\n        /* \"#utility.yul\":9839:9880   */\n      tag_88\n      jump\t// in\n    tag_203:\n        /* \"#utility.yul\":9831:9837   */\n      dup5\n        /* \"#utility.yul\":9824:9828   */\n      dup5\n        /* \"#utility.yul\":9818:9829   */\n      sload\n        /* \"#utility.yul\":9790:9881   */\n      tag_85\n      jump\t// in\n    tag_202:\n        /* \"#utility.yul\":9784:9788   */\n      dup3\n        /* \"#utility.yul\":9777:9882   */\n      sstore\n        /* \"#utility.yul\":9695:9888   */\n      pop\n        /* \"#utility.yul\":9619:9888   */\n      pop\n      pop\n      pop\n      jump\t// out\n        /* \"#utility.yul\":9894:9967   */\n    tag_90:\n        /* \"#utility.yul\":9939:9942   */\n      0x00\n        /* \"#utility.yul\":9894:9967   */\n      swap1\n      jump\t// out\n        /* \"#utility.yul\":9973:10162   */\n    tag_91:\n        /* \"#utility.yul\":10050:10082   */\n      tag_206\n      tag_90\n      jump\t// in\n    tag_206:\n        /* \"#utility.yul\":10091:10156   */\n      tag_207\n        /* \"#utility.yul\":10149:10155   */\n      dup2\n        /* \"#utility.yul\":10141:10147   */\n      dup5\n        /* \"#utility.yul\":10135:10139   */\n      dup5\n        /* \"#utility.yul\":10091:10156   */\n      tag_89\n      jump\t// in\n    tag_207:\n        /* \"#utility.yul\":10026:10162   */\n      pop\n        /* \"#utility.yul\":9973:10162   */\n      pop\n      pop\n      jump\t// out\n        /* \"#utility.yul\":10168:10354   */\n    tag_92:\n        /* \"#utility.yul\":10228:10348   */\n    tag_209:\n        /* \"#utility.yul\":10245:10248   */\n      dup2\n        /* \"#utility.yul\":10238:10243   */\n      dup2\n        /* \"#utility.yul\":10235:10249   */\n      lt\n        /* \"#utility.yul\":10228:10348   */\n      iszero\n      tag_211\n      jumpi\n        /* \"#utility.yul\":10299:10338   */\n      tag_212\n        /* \"#utility.yul\":10336:10337   */\n      0x00\n        /* \"#utility.yul\":10329:10334   */\n      dup3\n        /* \"#utility.yul\":10299:10338   */\n      tag_91\n      jump\t// in\n    tag_212:\n        /* \"#utility.yul\":10272:10273   */\n      0x01\n        /* \"#utility.yul\":10265:10270   */\n      dup2\n        /* \"#utility.yul\":10261:10274   */\n      add\n        /* \"#utility.yul\":10252:10274   */\n      swap1\n      pop\n        /* \"#utility.yul\":10228:10348   */\n      jump(tag_209)\n    tag_211:\n        /* \"#utility.yul\":10168:10354   */\n      pop\n      pop\n      jump\t// out\n        /* \"#utility.yul\":10360:10903   */\n    tag_93:\n        /* \"#utility.yul\":10461:10463   */\n      0x1f\n        /* \"#utility.yul\":10456:10459   */\n      dup3\n        /* \"#utility.yul\":10453:10464   */\n      gt\n        /* \"#utility.yul\":10450:10896   */\n      iszero\n      tag_214\n      jumpi\n        /* \"#utility.yul\":10495:10533   */\n      tag_215\n        /* \"#utility.yul\":10527:10532   */\n      dup2\n        /* \"#utility.yul\":10495:10533   */\n      tag_82\n      jump\t// in\n    tag_215:\n        /* \"#utility.yul\":10579:10608   */\n      tag_216\n        /* \"#utility.yul\":10597:10607   */\n      dup5\n        /* \"#utility.yul\":10579:10608   */\n      tag_83\n      jump\t// in\n    tag_216:\n        /* \"#utility.yul\":10569:10577   */\n      dup2\n        /* \"#utility.yul\":10565:10609   */\n      add\n        /* \"#utility.yul\":10762:10764   */\n      0x20\n        /* \"#utility.yul\":10750:10760   */\n      dup6\n        /* \"#utility.yul\":10747:10765   */\n      lt\n        /* \"#utility.yul\":10744:10793   */\n      iszero\n      tag_217\n      jumpi\n        /* \"#utility.yul\":10783:10791   */\n      dup2\n        /* \"#utility.yul\":10768:10791   */\n      swap1\n      pop\n        /* \"#utility.yul\":10744:10793   */\n    tag_217:\n        /* \"#utility.yul\":10806:10886   */\n      tag_218\n        /* \"#utility.yul\":10862:10884   */\n      tag_219\n        /* \"#utility.yul\":10880:10883   */\n      dup6\n        /* \"#utility.yul\":10862:10884   */\n      tag_83\n      jump\t// in\n    tag_219:\n        /* \"#utility.yul\":10852:10860   */\n      dup4\n        /* \"#utility.yul\":10848:10885   */\n      add\n        /* \"#utility.yul\":10835:10846   */\n      dup3\n        /* \"#utility.yul\":10806:10886   */\n      tag_92\n      jump\t// in\n    tag_218:\n        /* \"#utility.yul\":10465:10896   */\n      pop\n      pop\n        /* \"#utility.yul\":10450:10896   */\n    tag_214:\n        /* \"#utility.yul\":10360:10903   */\n      pop\n      pop\n      pop\n      jump\t// out\n        /* \"#utility.yul\":10909:11026   */\n    tag_94:\n        /* \"#utility.yul\":10963:10971   */\n      0x00\n        /* \"#utility.yul\":11013:11018   */\n      dup3\n        /* \"#utility.yul\":11007:11011   */\n      dup3\n        /* \"#utility.yul\":11003:11019   */\n      shr\n        /* \"#utility.yul\":10982:11019   */\n      swap1\n      pop\n        /* \"#utility.yul\":10909:11026   */\n      swap3\n      swap2\n      pop\n      pop\n      jump\t// out\n        /* \"#utility.yul\":11032:11201   */\n    tag_95:\n        /* \"#utility.yul\":11076:11082   */\n      0x00\n        /* \"#utility.yul\":11109:11160   */\n      tag_222\n        /* \"#utility.yul\":11157:11158   */\n      0x00\n        /* \"#utility.yul\":11153:11159   */\n      not\n        /* \"#utility.yul\":11145:11150   */\n      dup5\n        /* \"#utility.yul\":11142:11143   */\n      0x08\n        /* \"#utility.yul\":11138:11151   */\n      mul\n        /* \"#utility.yul\":11109:11160   */\n      tag_94\n      jump\t// in\n    tag_222:\n        /* \"#utility.yul\":11105:11161   */\n      not\n        /* \"#utility.yul\":11190:11194   */\n      dup1\n        /* \"#utility.yul\":11184:11188   */\n      dup4\n        /* \"#utility.yul\":11180:11195   */\n      and\n        /* \"#utility.yul\":11170:11195   */\n      swap2\n      pop\n        /* \"#utility.yul\":11083:11201   */\n      pop\n        /* \"#utility.yul\":11032:11201   */\n      swap3\n      swap2\n      pop\n      pop\n      jump\t// out\n        /* \"#utility.yul\":11206:11501   */\n    tag_96:\n        /* \"#utility.yul\":11282:11286   */\n      0x00\n        /* \"#utility.yul\":11428:11457   */\n      tag_224\n        /* \"#utility.yul\":11453:11456   */\n      dup4\n        /* \"#utility.yul\":11447:11451   */\n      dup4\n        /* \"#utility.yul\":11428:11457   */\n      tag_95\n      jump\t// in\n    tag_224:\n        /* \"#utility.yul\":11420:11457   */\n      swap2\n      pop\n        /* \"#utility.yul\":11490:11493   */\n      dup3\n        /* \"#utility.yul\":11487:11488   */\n      0x02\n        /* \"#utility.yul\":11483:11494   */\n      mul\n        /* \"#utility.yul\":11477:11481   */\n      dup3\n        /* \"#utility.yul\":11474:11495   */\n      or\n        /* \"#utility.yul\":11466:11495   */\n      swap1\n      pop\n        /* \"#utility.yul\":11206:11501   */\n      swap3\n      swap2\n      pop\n      pop\n      jump\t// out\n        /* \"#utility.yul\":11506:12901   */\n    tag_43:\n        /* \"#utility.yul\":11623:11660   */\n      tag_226\n        /* \"#utility.yul\":11656:11659   */\n      dup3\n        /* \"#utility.yul\":11623:11660   */\n      tag_56\n      jump\t// in\n    tag_226:\n        /* \"#utility.yul\":11725:11743   */\n      0xffffffffffffffff\n        /* \"#utility.yul\":11717:11723   */\n      dup2\n        /* \"#utility.yul\":11714:11744   */\n      gt\n        /* \"#utility.yul\":11711:11767   */\n      iszero\n      tag_227\n      jumpi\n        /* \"#utility.yul\":11747:11765   */\n      tag_228\n      tag_66\n      jump\t// in\n    tag_228:\n        /* \"#utility.yul\":11711:11767   */\n    tag_227:\n        /* \"#utility.yul\":11791:11829   */\n      tag_229\n        /* \"#utility.yul\":11823:11827   */\n      dup3\n        /* \"#utility.yul\":11817:11828   */\n      sload\n        /* \"#utility.yul\":11791:11829   */\n      tag_30\n      jump\t// in\n    tag_229:\n        /* \"#utility.yul\":11876:11943   */\n      tag_230\n        /* \"#utility.yul\":11936:11942   */\n      dup3\n        /* \"#utility.yul\":11928:11934   */\n      dup3\n        /* \"#utility.yul\":11922:11926   */\n      dup6\n        /* \"#utility.yul\":11876:11943   */\n      tag_93\n      jump\t// in\n    tag_230:\n        /* \"#utility.yul\":11970:11971   */\n      0x00\n        /* \"#utility.yul\":11994:11998   */\n      0x20\n        /* \"#utility.yul\":11981:11998   */\n      swap1\n      pop\n        /* \"#utility.yul\":12026:12028   */\n      0x1f\n        /* \"#utility.yul\":12018:12024   */\n      dup4\n        /* \"#utility.yul\":12015:12029   */\n      gt\n        /* \"#utility.yul\":12043:12044   */\n      0x01\n        /* \"#utility.yul\":12038:12656   */\n      dup2\n      eq\n      tag_232\n      jumpi\n        /* \"#utility.yul\":12700:12701   */\n      0x00\n        /* \"#utility.yul\":12717:12723   */\n      dup5\n        /* \"#utility.yul\":12714:12791   */\n      iszero\n      tag_233\n      jumpi\n        /* \"#utility.yul\":12766:12775   */\n      dup3\n        /* \"#utility.yul\":12761:12764   */\n      dup8\n        /* \"#utility.yul\":12757:12776   */\n      add\n        /* \"#utility.yul\":12751:12777   */\n      mload\n        /* \"#utility.yul\":12742:12777   */\n      swap1\n      pop\n        /* \"#utility.yul\":12714:12791   */\n    tag_233:\n        /* \"#utility.yul\":12817:12884   */\n      tag_234\n        /* \"#utility.yul\":12877:12883   */\n      dup6\n        /* \"#utility.yul\":12870:12875   */\n      dup3\n        /* \"#utility.yul\":12817:12884   */\n      tag_96\n      jump\t// in\n    tag_234:\n        /* \"#utility.yul\":12811:12815   */\n      dup7\n        /* \"#utility.yul\":12804:12885   */\n      sstore\n        /* \"#utility.yul\":12673:12895   */\n      pop\n        /* \"#utility.yul\":12008:12895   */\n      jump(tag_231)\n        /* \"#utility.yul\":12038:12656   */\n    tag_232:\n        /* \"#utility.yul\":12090:12094   */\n      0x1f\n        /* \"#utility.yul\":12086:12095   */\n      not\n        /* \"#utility.yul\":12078:12084   */\n      dup5\n        /* \"#utility.yul\":12074:12096   */\n      and\n        /* \"#utility.yul\":12124:12161   */\n      tag_235\n        /* \"#utility.yul\":12156:12160   */\n      dup7\n        /* \"#utility.yul\":12124:12161   */\n      tag_82\n      jump\t// in\n    tag_235:\n        /* \"#utility.yul\":12183:12184   */\n      0x00\n        /* \"#utility.yul\":12197:12405   */\n    tag_236:\n        /* \"#utility.yul\":12211:12218   */\n      dup3\n        /* \"#utility.yul\":12208:12209   */\n      dup2\n        /* \"#utility.yul\":12205:12219   */\n      lt\n        /* \"#utility.yul\":12197:12405   */\n      iszero\n      tag_238\n      jumpi\n        /* \"#utility.yul\":12290:12299   */\n      dup5\n        /* \"#utility.yul\":12285:12288   */\n      dup10\n        /* \"#utility.yul\":12281:12300   */\n      add\n        /* \"#utility.yul\":12275:12301   */\n      mload\n        /* \"#utility.yul\":12267:12273   */\n      dup3\n        /* \"#utility.yul\":12260:12302   */\n      sstore\n        /* \"#utility.yul\":12341:12342   */\n      0x01\n        /* \"#utility.yul\":12333:12339   */\n      dup3\n        /* \"#utility.yul\":12329:12343   */\n      add\n        /* \"#utility.yul\":12319:12343   */\n      swap2\n      pop\n        /* \"#utility.yul\":12388:12390   */\n      0x20\n        /* \"#utility.yul\":12377:12386   */\n      dup6\n        /* \"#utility.yul\":12373:12391   */\n      add\n        /* \"#utility.yul\":12360:12391   */\n      swap5\n      pop\n        /* \"#utility.yul\":12234:12238   */\n      0x20\n        /* \"#utility.yul\":12231:12232   */\n      dup2\n        /* \"#utility.yul\":12227:12239   */\n      add\n        /* \"#utility.yul\":12222:12239   */\n      swap1\n      pop\n        /* \"#utility.yul\":12197:12405   */\n      jump(tag_236)\n    tag_238:\n        /* \"#utility.yul\":12433:12439   */\n      dup7\n        /* \"#utility.yul\":12424:12431   */\n      dup4\n        /* \"#utility.yul\":12421:12440   */\n      lt\n        /* \"#utility.yul\":12418:12597   */\n      iszero\n      tag_239\n      jumpi\n        /* \"#utility.yul\":12491:12500   */\n      dup5\n        /* \"#utility.yul\":12486:12489   */\n      dup10\n        /* \"#utility.yul\":12482:12501   */\n      add\n        /* \"#utility.yul\":12476:12502   */\n      mload\n        /* \"#utility.yul\":12534:12582   */\n      tag_240\n        /* \"#utility.yul\":12576:12580   */\n      0x1f\n        /* \"#utility.yul\":12568:12574   */\n      dup10\n        /* \"#utility.yul\":12564:12581   */\n      and\n        /* \"#utility.yul\":12553:12562   */\n      dup3\n        /* \"#utility.yul\":12534:12582   */\n      tag_95\n      jump\t// in\n    tag_240:\n        /* \"#utility.yul\":12526:12532   */\n      dup4\n        /* \"#utility.yul\":12519:12583   */\n      sstore\n        /* \"#utility.yul\":12441:12597   */\n      pop\n        /* \"#utility.yul\":12418:12597   */\n    tag_239:\n        /* \"#utility.yul\":12643:12644   */\n      0x01\n        /* \"#utility.yul\":12639:12640   */\n      0x02\n        /* \"#utility.yul\":12631:12637   */\n      dup9\n        /* \"#utility.yul\":12627:12641   */\n      mul\n        /* \"#utility.yul\":12623:12645   */\n      add\n        /* \"#utility.yul\":12617:12621   */\n      dup9\n        /* \"#utility.yul\":12610:12646   */\n      sstore\n        /* \"#utility.yul\":12045:12656   */\n      pop\n      pop\n      pop\n        /* \"#utility.yul\":12008:12895   */\n    tag_231:\n      pop\n        /* \"#utility.yul\":11598:12901   */\n      pop\n      pop\n      pop\n        /* \"#utility.yul\":11506:12901   */\n      pop\n      pop\n      jump\t// out\n        /* \"#utility.yul\":12907:13087   */\n    tag_97:\n        /* \"#utility.yul\":12955:13032   */\n      0x4e487b7100000000000000000000000000000000000000000000000000000000\n        /* \"#utility.yul\":12952:12953   */\n      0x00\n        /* \"#utility.yul\":12945:13033   */\n      mstore\n        /* \"#utility.yul\":13052:13056   */\n      0x11\n        /* \"#utility.yul\":13049:13050   */\n      0x04\n        /* \"#utility.yul\":13042:13057   */\n      mstore\n        /* \"#utility.yul\":13076:13080   */\n      0x24\n        /* \"#utility.yul\":13073:13074   */\n      0x00\n        /* \"#utility.yul\":13066:13081   */\n      revert\n        /* \"#utility.yul\":13093:13326   */\n    tag_45:\n        /* \"#utility.yul\":13132:13135   */\n      0x00\n        /* \"#utility.yul\":13155:13179   */\n      tag_243\n        /* \"#utility.yul\":13173:13178   */\n      dup3\n        /* \"#utility.yul\":13155:13179   */\n      tag_75\n      jump\t// in\n    tag_243:\n        /* \"#utility.yul\":13146:13179   */\n      swap2\n      pop\n        /* \"#utility.yul\":13201:13267   */\n      0xffffffffffffffffffffffffffffffffffffffffffffffffffffffffffffffff\n        /* \"#utility.yul\":13194:13199   */\n      dup3\n        /* \"#utility.yul\":13191:13268   */\n      sub\n        /* \"#utility.yul\":13188:13291   */\n      tag_244\n      jumpi\n        /* \"#utility.yul\":13271:13289   */\n      tag_245\n      tag_97\n      jump\t// in\n    tag_245:\n        /* \"#utility.yul\":13188:13291   */\n    tag_244:\n        /* \"#utility.yul\":13318:13319   */\n      0x01\n        /* \"#utility.yul\":13311:13316   */\n      dup3\n        /* \"#utility.yul\":13307:13320   */\n      add\n        /* \"#utility.yul\":13300:13320   */\n      swap1\n      pop\n        /* \"#utility.yul\":13093:13326   */\n      swap2\n      swap1\n      pop\n      jump\t// out\n        /* \"#utility.yul\":13332:13501   */\n    tag_98:\n        /* \"#utility.yul\":13472:13493   */\n      0x446972656363696f6e206e6f2076616c69646100000000000000000000000000\n        /* \"#utility.yul\":13468:13469   */\n      0x00\n        /* \"#utility.yul\":13460:13466   */\n      dup3\n        /* \"#utility.yul\":13456:13470   */\n      add\n        /* \"#utility.yul\":13449:13494   */\n      mstore\n        /* \"#utility.yul\":13332:13501   */\n      pop\n      jump\t// out\n        /* \"#utility.yul\":13507:13873   */\n    tag_99:\n        /* \"#utility.yul\":13649:13652   */\n      0x00\n        /* \"#utility.yul\":13670:13737   */\n      tag_248\n        /* \"#utility.yul\":13734:13736   */\n      0x13\n        /* \"#utility.yul\":13729:13732   */\n      dup4\n        /* \"#utility.yul\":13670:13737   */\n      tag_57\n      jump\t// in\n    tag_248:\n        /* \"#utility.yul\":13663:13737   */\n      swap2\n      pop\n        /* \"#utility.yul\":13746:13839   */\n      tag_249\n        /* \"#utility.yul\":13835:13838   */\n      dup3\n        /* \"#utility.yul\":13746:13839   */\n      tag_98\n      jump\t// in\n    tag_249:\n        /* \"#utility.yul\":13864:13866   */\n      0x20\n        /* \"#utility.yul\":13859:13862   */\n      dup3\n        /* \"#utility.yul\":13855:13867   */\n      add\n        /* \"#utility.yul\":13848:13867   */\n      swap1\n      pop\n        /* \"#utility.yul\":13507:13873   */\n      swap2\n      swap1\n      pop\n      jump\t// out\n        /* \"#utility.yul\":13879:14298   */\n    tag_52:\n        /* \"#utility.yul\":14045:14049   */\n      0x00\n        /* \"#utility.yul\":14083:14085   */\n      0x20\n        /* \"#utility.yul\":14072:14081   */\n      dup3\n        /* \"#utility.yul\":14068:14086   */\n      add\n        /* \"#utility.yul\":14060:14086   */\n      swap1\n      pop\n        /* \"#utility.yul\":14132:14141   */\n      dup2\n        /* \"#utility.yul\":14126:14130   */\n      dup2\n        /* \"#utility.yul\":14122:14142   */\n      sub\n        /* \"#utility.yul\":14118:14119   */\n      0x00\n        /* \"#utility.yul\":14107:14116   */\n      dup4\n        /* \"#utility.yul\":14103:14120   */\n      add\n        /* \"#utility.yul\":14096:14143   */\n      mstore\n        /* \"#utility.yul\":14160:14291   */\n      tag_251\n        /* \"#utility.yul\":14286:14290   */\n      dup2\n        /* \"#utility.yul\":14160:14291   */\n      tag_99\n      jump\t// in\n    tag_251:\n        /* \"#utility.yul\":14152:14291   */\n      swap1\n      pop\n        /* \"#utility.yul\":13879:14298   */\n      swap2\n      swap1\n      pop\n      jump\t// out\n\n    auxdata: 0xa264697066735822122009c389542bf746fbae21df38c6542ff578d2c9d8e0a256afc4aa10e77608f35064736f6c63430008130033\n}\n",
				"bytecode": {
					"linkReferences": {},
					"object": "6080604052600060015534801561001557600080fd5b5033600260006101000a81548173ffffffffffffffffffffffffffffffffffffffff021916908373ffffffffffffffffffffffffffffffffffffffff160217905550610bf2806100666000396000f3fe608060405234801561001057600080fd5b50600436106100575760003560e01c80638da5cb5b1461005c5780638fec79be1461007a578063b5bb0fbe14610098578063bbe99a1e146100b4578063ec7a6f4a146100d0575b600080fd5b6100646100ee565b6040516100719190610422565b60405180910390f35b610082610114565b60405161008f91906104cd565b60405180910390f35b6100b260048036038101906100ad9190610638565b6101a6565b005b6100ce60048036038101906100c991906106ad565b610298565b005b6100d86103db565b6040516100e591906106f3565b60405180910390f35b600260009054906101000a900473ffffffffffffffffffffffffffffffffffffffff1681565b6060600080546101239061073d565b80601f016020809104026020016040519081016040528092919081815260200182805461014f9061073d565b801561019c5780601f106101715761010080835404028352916020019161019c565b820191906000526020600020905b81548152906001019060200180831161017f57829003601f168201915b5050505050905090565b600260009054906101000a900473ffffffffffffffffffffffffffffffffffffffff1673ffffffffffffffffffffffffffffffffffffffff163373ffffffffffffffffffffffffffffffffffffffff1614610236576040517f08c379a000000000000000000000000000000000000000000000000000000000815260040161022d906107ba565b60405180910390fd5b7f305058d54db6daf26994cd687b168a24cdd9a7201462f1659782c4e429987992816040516102659190610826565b60405180910390a1806000908161027c9190610a07565b506001600081548092919061029090610b08565b919050555050565b600260009054906101000a900473ffffffffffffffffffffffffffffffffffffffff1673ffffffffffffffffffffffffffffffffffffffff163373ffffffffffffffffffffffffffffffffffffffff1614610328576040517f08c379a000000000000000000000000000000000000000000000000000000000815260040161031f906107ba565b60405180910390fd5b600073ffffffffffffffffffffffffffffffffffffffff168173ffffffffffffffffffffffffffffffffffffffff1603610397576040517f08c379a000000000000000000000000000000000000000000000000000000000815260040161038e90610b9c565b60405180910390fd5b80600260006101000a81548173ffffffffffffffffffffffffffffffffffffffff021916908373ffffffffffffffffffffffffffffffffffffffff16021790555050565b60015481565b600073ffffffffffffffffffffffffffffffffffffffff82169050919050565b600061040c826103e1565b9050919050565b61041c81610401565b82525050565b60006020820190506104376000830184610413565b92915050565b600081519050919050565b600082825260208201905092915050565b60005b8381101561047757808201518184015260208101905061045c565b60008484015250505050565b6000601f19601f8301169050919050565b600061049f8261043d565b6104a98185610448565b93506104b9818560208601610459565b6104c281610483565b840191505092915050565b600060208201905081810360008301526104e78184610494565b905092915050565b6000604051905090565b600080fd5b600080fd5b600080fd5b600080fd5b7f4e487b7100000000000000000000000000000000000000000000000000000000600052604160045260246000fd5b61054582610483565b810181811067ffffffffffffffff821117156105645761056361050d565b5b80604052505050565b60006105776104ef565b9050610583828261053c565b919050565b600067ffffffffffffffff8211156105a3576105a261050d565b5b6105ac82610483565b9050602081019050919050565b82818337600083830152505050565b60006105db6105d684610588565b61056d565b9050828152602081018484840111156105f7576105f6610508565b5b6106028482856105b9565b509392505050565b600082601f83011261061f5761061e610503565b5b813561062f8482602086016105c8565b91505092915050565b60006020828403121561064e5761064d6104f9565b5b600082013567ffffffffffffffff81111561066c5761066b6104fe565b5b6106788482850161060a565b91505092915050565b61068a81610401565b811461069557600080fd5b50565b6000813590506106a781610681565b92915050565b6000602082840312156106c3576106c26104f9565b5b60006106d184828501610698565b91505092915050565b6000819050919050565b6106ed816106da565b82525050565b600060208201905061070860008301846106e4565b92915050565b7f4e487b7100000000000000000000000000000000000000000000000000000000600052602260045260246000fd5b6000600282049050600182168061075557607f821691505b6020821081036107685761076761070e565b5b50919050565b7f4f6e6c79206f776e657200000000000000000000000000000000000000000000600082015250565b60006107a4600a83610448565b91506107af8261076e565b602082019050919050565b600060208201905081810360008301526107d381610797565b9050919050565b7f6f6c64496e666f00000000000000000000000000000000000000000000000000600082015250565b6000610810600783610448565b915061081b826107da565b602082019050919050565b6000604082019050818103600083015261083f81610803565b905081810360208301526108538184610494565b905092915050565b60008190508160005260206000209050919050565b60006020601f8301049050919050565b600082821b905092915050565b6000600883026108bd7fffffffffffffffffffffffffffffffffffffffffffffffffffffffffffffffff82610880565b6108c78683610880565b95508019841693508086168417925050509392505050565b6000819050919050565b60006109046108ff6108fa846106da565b6108df565b6106da565b9050919050565b6000819050919050565b61091e836108e9565b61093261092a8261090b565b84845461088d565b825550505050565b600090565b61094761093a565b610952818484610915565b505050565b5b818110156109765761096b60008261093f565b600181019050610958565b5050565b601f8211156109bb5761098c8161085b565b61099584610870565b810160208510156109a4578190505b6109b86109b085610870565b830182610957565b50505b505050565b600082821c905092915050565b60006109de600019846008026109c0565b1980831691505092915050565b60006109f783836109cd565b9150826002028217905092915050565b610a108261043d565b67ffffffffffffffff811115610a2957610a2861050d565b5b610a33825461073d565b610a3e82828561097a565b600060209050601f831160018114610a715760008415610a5f578287015190505b610a6985826109eb565b865550610ad1565b601f198416610a7f8661085b565b60005b82811015610aa757848901518255600182019150602085019450602081019050610a82565b86831015610ac45784890151610ac0601f8916826109cd565b8355505b6001600288020188555050505b505050505050565b7f4e487b7100000000000000000000000000000000000000000000000000000000600052601160045260246000fd5b6000610b13826106da565b91507fffffffffffffffffffffffffffffffffffffffffffffffffffffffffffffffff8203610b4557610b44610ad9565b5b600182019050919050565b7f446972656363696f6e206e6f2076616c69646100000000000000000000000000600082015250565b6000610b86601383610448565b9150610b9182610b50565b602082019050919050565b60006020820190508181036000830152610bb581610b79565b905091905056fea264697066735822122009c389542bf746fbae21df38c6542ff578d2c9d8e0a256afc4aa10e77608f35064736f6c63430008130033",
					"opcodes": "PUSH1 0x80 PUSH1 0x40 MSTORE PUSH1 0x0 PUSH1 0x1 SSTORE CALLVALUE DUP1 ISZERO PUSH2 0x15 JUMPI PUSH1 0x0 DUP1 REVERT JUMPDEST POP CALLER PUSH1 0x2 PUSH1 0x0 PUSH2 0x100 EXP DUP2 SLOAD DUP2 PUSH20 0xFFFFFFFFFFFFFFFFFFFFFFFFFFFFFFFFFFFFFFFF MUL NOT AND SWAP1 DUP4 PUSH20 0xFFFFFFFFFFFFFFFFFFFFFFFFFFFFFFFFFFFFFFFF AND MUL OR SWAP1 SSTORE POP PUSH2 0xBF2 DUP1 PUSH2 0x66 PUSH1 0x0 CODECOPY PUSH1 0x0 RETURN INVALID PUSH1 0x80 PUSH1 0x40 MSTORE CALLVALUE DUP1 ISZERO PUSH2 0x10 JUMPI PUSH1 0x0 DUP1 REVERT JUMPDEST POP PUSH1 0x4 CALLDATASIZE LT PUSH2 0x57 JUMPI PUSH1 0x0 CALLDATALOAD PUSH1 0xE0 SHR DUP1 PUSH4 0x8DA5CB5B EQ PUSH2 0x5C JUMPI DUP1 PUSH4 0x8FEC79BE EQ PUSH2 0x7A JUMPI DUP1 PUSH4 0xB5BB0FBE EQ PUSH2 0x98 JUMPI DUP1 PUSH4 0xBBE99A1E EQ PUSH2 0xB4 JUMPI DUP1 PUSH4 0xEC7A6F4A EQ PUSH2 0xD0 JUMPI JUMPDEST PUSH1 0x0 DUP1 REVERT JUMPDEST PUSH2 0x64 PUSH2 0xEE JUMP JUMPDEST PUSH1 0x40 MLOAD PUSH2 0x71 SWAP2 SWAP1 PUSH2 0x422 JUMP JUMPDEST PUSH1 0x40 MLOAD DUP1 SWAP2 SUB SWAP1 RETURN JUMPDEST PUSH2 0x82 PUSH2 0x114 JUMP JUMPDEST PUSH1 0x40 MLOAD PUSH2 0x8F SWAP2 SWAP1 PUSH2 0x4CD JUMP JUMPDEST PUSH1 0x40 MLOAD DUP1 SWAP2 SUB SWAP1 RETURN JUMPDEST PUSH2 0xB2 PUSH1 0x4 DUP1 CALLDATASIZE SUB DUP2 ADD SWAP1 PUSH2 0xAD SWAP2 SWAP1 PUSH2 0x638 JUMP JUMPDEST PUSH2 0x1A6 JUMP JUMPDEST STOP JUMPDEST PUSH2 0xCE PUSH1 0x4 DUP1 CALLDATASIZE SUB DUP2 ADD SWAP1 PUSH2 0xC9 SWAP2 SWAP1 PUSH2 0x6AD JUMP JUMPDEST PUSH2 0x298 JUMP JUMPDEST STOP JUMPDEST PUSH2 0xD8 PUSH2 0x3DB JUMP JUMPDEST PUSH1 0x40 MLOAD PUSH2 0xE5 SWAP2 SWAP1 PUSH2 0x6F3 JUMP JUMPDEST PUSH1 0x40 MLOAD DUP1 SWAP2 SUB SWAP1 RETURN JUMPDEST PUSH1 0x2 PUSH1 0x0 SWAP1 SLOAD SWAP1 PUSH2 0x100 EXP SWAP1 DIV PUSH20 0xFFFFFFFFFFFFFFFFFFFFFFFFFFFFFFFFFFFFFFFF AND DUP2 JUMP JUMPDEST PUSH1 0x60 PUSH1 0x0 DUP1 SLOAD PUSH2 0x123 SWAP1 PUSH2 0x73D JUMP JUMPDEST DUP1 PUSH1 0x1F ADD PUSH1 0x20 DUP1 SWAP2 DIV MUL PUSH1 0x20 ADD PUSH1 0x40 MLOAD SWAP1 DUP2 ADD PUSH1 0x40 MSTORE DUP1 SWAP3 SWAP2 SWAP1 DUP2 DUP2 MSTORE PUSH1 0x20 ADD DUP3 DUP1 SLOAD PUSH2 0x14F SWAP1 PUSH2 0x73D JUMP JUMPDEST DUP1 ISZERO PUSH2 0x19C JUMPI DUP1 PUSH1 0x1F LT PUSH2 0x171 JUMPI PUSH2 0x100 DUP1 DUP4 SLOAD DIV MUL DUP4 MSTORE SWAP2 PUSH1 0x20 ADD SWAP2 PUSH2 0x19C JUMP JUMPDEST DUP3 ADD SWAP2 SWAP1 PUSH1 0x0 MSTORE PUSH1 0x20 PUSH1 0x0 KECCAK256 SWAP1 JUMPDEST DUP2 SLOAD DUP2 MSTORE SWAP1 PUSH1 0x1 ADD SWAP1 PUSH1 0x20 ADD DUP1 DUP4 GT PUSH2 0x17F JUMPI DUP3 SWAP1 SUB PUSH1 0x1F AND DUP3 ADD SWAP2 JUMPDEST POP POP POP POP POP SWAP1 POP SWAP1 JUMP JUMPDEST PUSH1 0x2 PUSH1 0x0 SWAP1 SLOAD SWAP1 PUSH2 0x100 EXP SWAP1 DIV PUSH20 0xFFFFFFFFFFFFFFFFFFFFFFFFFFFFFFFFFFFFFFFF AND PUSH20 0xFFFFFFFFFFFFFFFFFFFFFFFFFFFFFFFFFFFFFFFF AND CALLER PUSH20 0xFFFFFFFFFFFFFFFFFFFFFFFFFFFFFFFFFFFFFFFF AND EQ PUSH2 0x236 JUMPI PUSH1 0x40 MLOAD PUSH32 0x8C379A000000000000000000000000000000000000000000000000000000000 DUP2 MSTORE PUSH1 0x4 ADD PUSH2 0x22D SWAP1 PUSH2 0x7BA JUMP JUMPDEST PUSH1 0x40 MLOAD DUP1 SWAP2 SUB SWAP1 REVERT JUMPDEST PUSH32 0x305058D54DB6DAF26994CD687B168A24CDD9A7201462F1659782C4E429987992 DUP2 PUSH1 0x40 MLOAD PUSH2 0x265 SWAP2 SWAP1 PUSH2 0x826 JUMP JUMPDEST PUSH1 0x40 MLOAD DUP1 SWAP2 SUB SWAP1 LOG1 DUP1 PUSH1 0x0 SWAP1 DUP2 PUSH2 0x27C SWAP2 SWAP1 PUSH2 0xA07 JUMP JUMPDEST POP PUSH1 0x1 PUSH1 0x0 DUP2 SLOAD DUP1 SWAP3 SWAP2 SWAP1 PUSH2 0x290 SWAP1 PUSH2 0xB08 JUMP JUMPDEST SWAP2 SWAP1 POP SSTORE POP POP JUMP JUMPDEST PUSH1 0x2 PUSH1 0x0 SWAP1 SLOAD SWAP1 PUSH2 0x100 EXP SWAP1 DIV PUSH20 0xFFFFFFFFFFFFFFFFFFFFFFFFFFFFFFFFFFFFFFFF AND PUSH20 0xFFFFFFFFFFFFFFFFFFFFFFFFFFFFFFFFFFFFFFFF AND CALLER PUSH20 0xFFFFFFFFFFFFFFFFFFFFFFFFFFFFFFFFFFFFFFFF AND EQ PUSH2 0x328 JUMPI PUSH1 0x40 MLOAD PUSH32 0x8C379A000000000000000000000000000000000000000000000000000000000 DUP2 MSTORE PUSH1 0x4 ADD PUSH2 0x31F SWAP1 PUSH2 0x7BA JUMP JUMPDEST PUSH1 0x40 MLOAD DUP1 SWAP2 SUB SWAP1 REVERT JUMPDEST PUSH1 0x0 PUSH20 0xFFFFFFFFFFFFFFFFFFFFFFFFFFFFFFFFFFFFFFFF AND DUP2 PUSH20 0xFFFFFFFFFFFFFFFFFFFFFFFFFFFFFFFFFFFFFFFF AND SUB PUSH2 0x397 JUMPI PUSH1 0x40 MLOAD PUSH32 0x8C379A000000000000000000000000000000000000000000000000000000000 DUP2 MSTORE PUSH1 0x4 ADD PUSH2 0x38E SWAP1 PUSH2 0xB9C JUMP JUMPDEST PUSH1 0x40 MLOAD DUP1 SWAP2 SUB SWAP1 REVERT JUMPDEST DUP1 PUSH1 0x2 PUSH1 0x0 PUSH2 0x100 EXP DUP2 SLOAD DUP2 PUSH20 0xFFFFFFFFFFFFFFFFFFFFFFFFFFFFFFFFFFFFFFFF MUL NOT AND SWAP1 DUP4 PUSH20 0xFFFFFFFFFFFFFFFFFFFFFFFFFFFFFFFFFFFFFFFF AND MUL OR SWAP1 SSTORE POP POP JUMP JUMPDEST PUSH1 0x1 SLOAD DUP2 JUMP JUMPDEST PUSH1 0x0 PUSH20 0xFFFFFFFFFFFFFFFFFFFFFFFFFFFFFFFFFFFFFFFF DUP3 AND SWAP1 POP SWAP2 SWAP1 POP JUMP JUMPDEST PUSH1 0x0 PUSH2 0x40C DUP3 PUSH2 0x3E1 JUMP JUMPDEST SWAP1 POP SWAP2 SWAP1 POP JUMP JUMPDEST PUSH2 0x41C DUP2 PUSH2 0x401 JUMP JUMPDEST DUP3 MSTORE POP POP JUMP JUMPDEST PUSH1 0x0 PUSH1 0x20 DUP3 ADD SWAP1 POP PUSH2 0x437 PUSH1 0x0 DUP4 ADD DUP5 PUSH2 0x413 JUMP JUMPDEST SWAP3 SWAP2 POP POP JUMP JUMPDEST PUSH1 0x0 DUP2 MLOAD SWAP1 POP SWAP2 SWAP1 POP JUMP JUMPDEST PUSH1 0x0 DUP3 DUP3 MSTORE PUSH1 0x20 DUP3 ADD SWAP1 POP SWAP3 SWAP2 POP POP JUMP JUMPDEST PUSH1 0x0 JUMPDEST DUP4 DUP2 LT ISZERO PUSH2 0x477 JUMPI DUP1 DUP3 ADD MLOAD DUP2 DUP5 ADD MSTORE PUSH1 0x20 DUP2 ADD SWAP1 POP PUSH2 0x45C JUMP JUMPDEST PUSH1 0x0 DUP5 DUP5 ADD MSTORE POP POP POP POP JUMP JUMPDEST PUSH1 0x0 PUSH1 0x1F NOT PUSH1 0x1F DUP4 ADD AND SWAP1 POP SWAP2 SWAP1 POP JUMP JUMPDEST PUSH1 0x0 PUSH2 0x49F DUP3 PUSH2 0x43D JUMP JUMPDEST PUSH2 0x4A9 DUP2 DUP6 PUSH2 0x448 JUMP JUMPDEST SWAP4 POP PUSH2 0x4B9 DUP2 DUP6 PUSH1 0x20 DUP7 ADD PUSH2 0x459 JUMP JUMPDEST PUSH2 0x4C2 DUP2 PUSH2 0x483 JUMP JUMPDEST DUP5 ADD SWAP2 POP POP SWAP3 SWAP2 POP POP JUMP JUMPDEST PUSH1 0x0 PUSH1 0x20 DUP3 ADD SWAP1 POP DUP2 DUP2 SUB PUSH1 0x0 DUP4 ADD MSTORE PUSH2 0x4E7 DUP2 DUP5 PUSH2 0x494 JUMP JUMPDEST SWAP1 POP SWAP3 SWAP2 POP POP JUMP JUMPDEST PUSH1 0x0 PUSH1 0x40 MLOAD SWAP1 POP SWAP1 JUMP JUMPDEST PUSH1 0x0 DUP1 REVERT JUMPDEST PUSH1 0x0 DUP1 REVERT JUMPDEST PUSH1 0x0 DUP1 REVERT JUMPDEST PUSH1 0x0 DUP1 REVERT JUMPDEST PUSH32 0x4E487B7100000000000000000000000000000000000000000000000000000000 PUSH1 0x0 MSTORE PUSH1 0x41 PUSH1 0x4 MSTORE PUSH1 0x24 PUSH1 0x0 REVERT JUMPDEST PUSH2 0x545 DUP3 PUSH2 0x483 JUMP JUMPDEST DUP2 ADD DUP2 DUP2 LT PUSH8 0xFFFFFFFFFFFFFFFF DUP3 GT OR ISZERO PUSH2 0x564 JUMPI PUSH2 0x563 PUSH2 0x50D JUMP JUMPDEST JUMPDEST DUP1 PUSH1 0x40 MSTORE POP POP POP JUMP JUMPDEST PUSH1 0x0 PUSH2 0x577 PUSH2 0x4EF JUMP JUMPDEST SWAP1 POP PUSH2 0x583 DUP3 DUP3 PUSH2 0x53C JUMP JUMPDEST SWAP2 SWAP1 POP JUMP JUMPDEST PUSH1 0x0 PUSH8 0xFFFFFFFFFFFFFFFF DUP3 GT ISZERO PUSH2 0x5A3 JUMPI PUSH2 0x5A2 PUSH2 0x50D JUMP JUMPDEST JUMPDEST PUSH2 0x5AC DUP3 PUSH2 0x483 JUMP JUMPDEST SWAP1 POP PUSH1 0x20 DUP2 ADD SWAP1 POP SWAP2 SWAP1 POP JUMP JUMPDEST DUP3 DUP2 DUP4 CALLDATACOPY PUSH1 0x0 DUP4 DUP4 ADD MSTORE POP POP POP JUMP JUMPDEST PUSH1 0x0 PUSH2 0x5DB PUSH2 0x5D6 DUP5 PUSH2 0x588 JUMP JUMPDEST PUSH2 0x56D JUMP JUMPDEST SWAP1 POP DUP3 DUP2 MSTORE PUSH1 0x20 DUP2 ADD DUP5 DUP5 DUP5 ADD GT ISZERO PUSH2 0x5F7 JUMPI PUSH2 0x5F6 PUSH2 0x508 JUMP JUMPDEST JUMPDEST PUSH2 0x602 DUP5 DUP3 DUP6 PUSH2 0x5B9 JUMP JUMPDEST POP SWAP4 SWAP3 POP POP POP JUMP JUMPDEST PUSH1 0x0 DUP3 PUSH1 0x1F DUP4 ADD SLT PUSH2 0x61F JUMPI PUSH2 0x61E PUSH2 0x503 JUMP JUMPDEST JUMPDEST DUP2 CALLDATALOAD PUSH2 0x62F DUP5 DUP3 PUSH1 0x20 DUP7 ADD PUSH2 0x5C8 JUMP JUMPDEST SWAP2 POP POP SWAP3 SWAP2 POP POP JUMP JUMPDEST PUSH1 0x0 PUSH1 0x20 DUP3 DUP5 SUB SLT ISZERO PUSH2 0x64E JUMPI PUSH2 0x64D PUSH2 0x4F9 JUMP JUMPDEST JUMPDEST PUSH1 0x0 DUP3 ADD CALLDATALOAD PUSH8 0xFFFFFFFFFFFFFFFF DUP2 GT ISZERO PUSH2 0x66C JUMPI PUSH2 0x66B PUSH2 0x4FE JUMP JUMPDEST JUMPDEST PUSH2 0x678 DUP5 DUP3 DUP6 ADD PUSH2 0x60A JUMP JUMPDEST SWAP2 POP POP SWAP3 SWAP2 POP POP JUMP JUMPDEST PUSH2 0x68A DUP2 PUSH2 0x401 JUMP JUMPDEST DUP2 EQ PUSH2 0x695 JUMPI PUSH1 0x0 DUP1 REVERT JUMPDEST POP JUMP JUMPDEST PUSH1 0x0 DUP2 CALLDATALOAD SWAP1 POP PUSH2 0x6A7 DUP2 PUSH2 0x681 JUMP JUMPDEST SWAP3 SWAP2 POP POP JUMP JUMPDEST PUSH1 0x0 PUSH1 0x20 DUP3 DUP5 SUB SLT ISZERO PUSH2 0x6C3 JUMPI PUSH2 0x6C2 PUSH2 0x4F9 JUMP JUMPDEST JUMPDEST PUSH1 0x0 PUSH2 0x6D1 DUP5 DUP3 DUP6 ADD PUSH2 0x698 JUMP JUMPDEST SWAP2 POP POP SWAP3 SWAP2 POP POP JUMP JUMPDEST PUSH1 0x0 DUP2 SWAP1 POP SWAP2 SWAP1 POP JUMP JUMPDEST PUSH2 0x6ED DUP2 PUSH2 0x6DA JUMP JUMPDEST DUP3 MSTORE POP POP JUMP JUMPDEST PUSH1 0x0 PUSH1 0x20 DUP3 ADD SWAP1 POP PUSH2 0x708 PUSH1 0x0 DUP4 ADD DUP5 PUSH2 0x6E4 JUMP JUMPDEST SWAP3 SWAP2 POP POP JUMP JUMPDEST PUSH32 0x4E487B7100000000000000000000000000000000000000000000000000000000 PUSH1 0x0 MSTORE PUSH1 0x22 PUSH1 0x4 MSTORE PUSH1 0x24 PUSH1 0x0 REVERT JUMPDEST PUSH1 0x0 PUSH1 0x2 DUP3 DIV SWAP1 POP PUSH1 0x1 DUP3 AND DUP1 PUSH2 0x755 JUMPI PUSH1 0x7F DUP3 AND SWAP2 POP JUMPDEST PUSH1 0x20 DUP3 LT DUP2 SUB PUSH2 0x768 JUMPI PUSH2 0x767 PUSH2 0x70E JUMP JUMPDEST JUMPDEST POP SWAP2 SWAP1 POP JUMP JUMPDEST PUSH32 0x4F6E6C79206F776E657200000000000000000000000000000000000000000000 PUSH1 0x0 DUP3 ADD MSTORE POP JUMP JUMPDEST PUSH1 0x0 PUSH2 0x7A4 PUSH1 0xA DUP4 PUSH2 0x448 JUMP JUMPDEST SWAP2 POP PUSH2 0x7AF DUP3 PUSH2 0x76E JUMP JUMPDEST PUSH1 0x20 DUP3 ADD SWAP1 POP SWAP2 SWAP1 POP JUMP JUMPDEST PUSH1 0x0 PUSH1 0x20 DUP3 ADD SWAP1 POP DUP2 DUP2 SUB PUSH1 0x0 DUP4 ADD MSTORE PUSH2 0x7D3 DUP2 PUSH2 0x797 JUMP JUMPDEST SWAP1 POP SWAP2 SWAP1 POP JUMP JUMPDEST PUSH32 0x6F6C64496E666F00000000000000000000000000000000000000000000000000 PUSH1 0x0 DUP3 ADD MSTORE POP JUMP JUMPDEST PUSH1 0x0 PUSH2 0x810 PUSH1 0x7 DUP4 PUSH2 0x448 JUMP JUMPDEST SWAP2 POP PUSH2 0x81B DUP3 PUSH2 0x7DA JUMP JUMPDEST PUSH1 0x20 DUP3 ADD SWAP1 POP SWAP2 SWAP1 POP JUMP JUMPDEST PUSH1 0x0 PUSH1 0x40 DUP3 ADD SWAP1 POP DUP2 DUP2 SUB PUSH1 0x0 DUP4 ADD MSTORE PUSH2 0x83F DUP2 PUSH2 0x803 JUMP JUMPDEST SWAP1 POP DUP2 DUP2 SUB PUSH1 0x20 DUP4 ADD MSTORE PUSH2 0x853 DUP2 DUP5 PUSH2 0x494 JUMP JUMPDEST SWAP1 POP SWAP3 SWAP2 POP POP JUMP JUMPDEST PUSH1 0x0 DUP2 SWAP1 POP DUP2 PUSH1 0x0 MSTORE PUSH1 0x20 PUSH1 0x0 KECCAK256 SWAP1 POP SWAP2 SWAP1 POP JUMP JUMPDEST PUSH1 0x0 PUSH1 0x20 PUSH1 0x1F DUP4 ADD DIV SWAP1 POP SWAP2 SWAP1 POP JUMP JUMPDEST PUSH1 0x0 DUP3 DUP3 SHL SWAP1 POP SWAP3 SWAP2 POP POP JUMP JUMPDEST PUSH1 0x0 PUSH1 0x8 DUP4 MUL PUSH2 0x8BD PUSH32 0xFFFFFFFFFFFFFFFFFFFFFFFFFFFFFFFFFFFFFFFFFFFFFFFFFFFFFFFFFFFFFFFF DUP3 PUSH2 0x880 JUMP JUMPDEST PUSH2 0x8C7 DUP7 DUP4 PUSH2 0x880 JUMP JUMPDEST SWAP6 POP DUP1 NOT DUP5 AND SWAP4 POP DUP1 DUP7 AND DUP5 OR SWAP3 POP POP POP SWAP4 SWAP3 POP POP POP JUMP JUMPDEST PUSH1 0x0 DUP2 SWAP1 POP SWAP2 SWAP1 POP JUMP JUMPDEST PUSH1 0x0 PUSH2 0x904 PUSH2 0x8FF PUSH2 0x8FA DUP5 PUSH2 0x6DA JUMP JUMPDEST PUSH2 0x8DF JUMP JUMPDEST PUSH2 0x6DA JUMP JUMPDEST SWAP1 POP SWAP2 SWAP1 POP JUMP JUMPDEST PUSH1 0x0 DUP2 SWAP1 POP SWAP2 SWAP1 POP JUMP JUMPDEST PUSH2 0x91E DUP4 PUSH2 0x8E9 JUMP JUMPDEST PUSH2 0x932 PUSH2 0x92A DUP3 PUSH2 0x90B JUMP JUMPDEST DUP5 DUP5 SLOAD PUSH2 0x88D JUMP JUMPDEST DUP3 SSTORE POP POP POP POP JUMP JUMPDEST PUSH1 0x0 SWAP1 JUMP JUMPDEST PUSH2 0x947 PUSH2 0x93A JUMP JUMPDEST PUSH2 0x952 DUP2 DUP5 DUP5 PUSH2 0x915 JUMP JUMPDEST POP POP POP JUMP JUMPDEST JUMPDEST DUP2 DUP2 LT ISZERO PUSH2 0x976 JUMPI PUSH2 0x96B PUSH1 0x0 DUP3 PUSH2 0x93F JUMP JUMPDEST PUSH1 0x1 DUP2 ADD SWAP1 POP PUSH2 0x958 JUMP JUMPDEST POP POP JUMP JUMPDEST PUSH1 0x1F DUP3 GT ISZERO PUSH2 0x9BB JUMPI PUSH2 0x98C DUP2 PUSH2 0x85B JUMP JUMPDEST PUSH2 0x995 DUP5 PUSH2 0x870 JUMP JUMPDEST DUP2 ADD PUSH1 0x20 DUP6 LT ISZERO PUSH2 0x9A4 JUMPI DUP2 SWAP1 POP JUMPDEST PUSH2 0x9B8 PUSH2 0x9B0 DUP6 PUSH2 0x870 JUMP JUMPDEST DUP4 ADD DUP3 PUSH2 0x957 JUMP JUMPDEST POP POP JUMPDEST POP POP POP JUMP JUMPDEST PUSH1 0x0 DUP3 DUP3 SHR SWAP1 POP SWAP3 SWAP2 POP POP JUMP JUMPDEST PUSH1 0x0 PUSH2 0x9DE PUSH1 0x0 NOT DUP5 PUSH1 0x8 MUL PUSH2 0x9C0 JUMP JUMPDEST NOT DUP1 DUP4 AND SWAP2 POP POP SWAP3 SWAP2 POP POP JUMP JUMPDEST PUSH1 0x0 PUSH2 0x9F7 DUP4 DUP4 PUSH2 0x9CD JUMP JUMPDEST SWAP2 POP DUP3 PUSH1 0x2 MUL DUP3 OR SWAP1 POP SWAP3 SWAP2 POP POP JUMP JUMPDEST PUSH2 0xA10 DUP3 PUSH2 0x43D JUMP JUMPDEST PUSH8 0xFFFFFFFFFFFFFFFF DUP2 GT ISZERO PUSH2 0xA29 JUMPI PUSH2 0xA28 PUSH2 0x50D JUMP JUMPDEST JUMPDEST PUSH2 0xA33 DUP3 SLOAD PUSH2 0x73D JUMP JUMPDEST PUSH2 0xA3E DUP3 DUP3 DUP6 PUSH2 0x97A JUMP JUMPDEST PUSH1 0x0 PUSH1 0x20 SWAP1 POP PUSH1 0x1F DUP4 GT PUSH1 0x1 DUP2 EQ PUSH2 0xA71 JUMPI PUSH1 0x0 DUP5 ISZERO PUSH2 0xA5F JUMPI DUP3 DUP8 ADD MLOAD SWAP1 POP JUMPDEST PUSH2 0xA69 DUP6 DUP3 PUSH2 0x9EB JUMP JUMPDEST DUP7 SSTORE POP PUSH2 0xAD1 JUMP JUMPDEST PUSH1 0x1F NOT DUP5 AND PUSH2 0xA7F DUP7 PUSH2 0x85B JUMP JUMPDEST PUSH1 0x0 JUMPDEST DUP3 DUP2 LT ISZERO PUSH2 0xAA7 JUMPI DUP5 DUP10 ADD MLOAD DUP3 SSTORE PUSH1 0x1 DUP3 ADD SWAP2 POP PUSH1 0x20 DUP6 ADD SWAP5 POP PUSH1 0x20 DUP2 ADD SWAP1 POP PUSH2 0xA82 JUMP JUMPDEST DUP7 DUP4 LT ISZERO PUSH2 0xAC4 JUMPI DUP5 DUP10 ADD MLOAD PUSH2 0xAC0 PUSH1 0x1F DUP10 AND DUP3 PUSH2 0x9CD JUMP JUMPDEST DUP4 SSTORE POP JUMPDEST PUSH1 0x1 PUSH1 0x2 DUP9 MUL ADD DUP9 SSTORE POP POP POP JUMPDEST POP POP POP POP POP POP JUMP JUMPDEST PUSH32 0x4E487B7100000000000000000000000000000000000000000000000000000000 PUSH1 0x0 MSTORE PUSH1 0x11 PUSH1 0x4 MSTORE PUSH1 0x24 PUSH1 0x0 REVERT JUMPDEST PUSH1 0x0 PUSH2 0xB13 DUP3 PUSH2 0x6DA JUMP JUMPDEST SWAP2 POP PUSH32 0xFFFFFFFFFFFFFFFFFFFFFFFFFFFFFFFFFFFFFFFFFFFFFFFFFFFFFFFFFFFFFFFF DUP3 SUB PUSH2 0xB45 JUMPI PUSH2 0xB44 PUSH2 0xAD9 JUMP JUMPDEST JUMPDEST PUSH1 0x1 DUP3 ADD SWAP1 POP SWAP2 SWAP1 POP JUMP JUMPDEST PUSH32 0x446972656363696F6E206E6F2076616C69646100000000000000000000000000 PUSH1 0x0 DUP3 ADD MSTORE POP JUMP JUMPDEST PUSH1 0x0 PUSH2 0xB86 PUSH1 0x13 DUP4 PUSH2 0x448 JUMP JUMPDEST SWAP2 POP PUSH2 0xB91 DUP3 PUSH2 0xB50 JUMP JUMPDEST PUSH1 0x20 DUP3 ADD SWAP1 POP SWAP2 SWAP1 POP JUMP JUMPDEST PUSH1 0x0 PUSH1 0x20 DUP3 ADD SWAP1 POP DUP2 DUP2 SUB PUSH1 0x0 DUP4 ADD MSTORE PUSH2 0xBB5 DUP2 PUSH2 0xB79 JUMP JUMPDEST SWAP1 POP SWAP2 SWAP1 POP JUMP INVALID LOG2 PUSH5 0x6970667358 0x22 SLT KECCAK256 MULMOD 0xC3 DUP10 SLOAD 0x2B 0xF7 CHAINID 0xFB 0xAE 0x21 0xDF CODESIZE 0xC6 SLOAD 0x2F CREATE2 PUSH25 0xD2C9D8E0A256AFC4AA10E77608F35064736F6C634300081300 CALLER "
				},
				"gasEstimates": {
					"creation": {
						"codeDepositCost": "611600",
						"executionCost": "29917",
						"totalCost": "641517"
					},
					"external": {
						"actualizarData(string)": "infinite",
						"numeroDeCambios()": "2495",
						"obtenerData()": "infinite",
						"owner()": "2492",
						"transferirAdmin(address)": "26971"
					}
				},
				"methodIdentifiers": {
					"actualizarData(string)": "b5bb0fbe",
					"numeroDeCambios()": "ec7a6f4a",
					"obtenerData()": "8fec79be",
					"owner()": "8da5cb5b",
					"transferirAdmin(address)": "bbe99a1e"
				}
			},
			"storageLayout": {
				"storage": [
					{
						"astId": 4,
						"contract": "ETH_KIPU/Register08_Ejercicio.sol:RegistroConAcceso",
						"label": "storedData",
						"offset": 0,
						"slot": "0",
						"type": "t_string_storage"
					},
					{
						"astId": 7,
						"contract": "ETH_KIPU/Register08_Ejercicio.sol:RegistroConAcceso",
						"label": "numeroDeCambios",
						"offset": 0,
						"slot": "1",
						"type": "t_uint256"
					},
					{
						"astId": 9,
						"contract": "ETH_KIPU/Register08_Ejercicio.sol:RegistroConAcceso",
						"label": "owner",
						"offset": 0,
						"slot": "2",
						"type": "t_address"
					}
				],
				"types": {
					"t_address": {
						"encoding": "inplace",
						"label": "address",
						"numberOfBytes": "20"
					},
					"t_string_storage": {
						"encoding": "bytes",
						"label": "string",
						"numberOfBytes": "32"
					},
					"t_uint256": {
						"encoding": "inplace",
						"label": "uint256",
						"numberOfBytes": "32"
					}
				}
			},
			"userdoc": {
				"kind": "user",
				"methods": {
					"actualizarData(string)": {
						"notice": "Permite al administrador actualizar el dato almacenado."
					},
					"obtenerData()": {
						"notice": "Devuelve el dato almacenado actualmente."
					},
					"transferirAdmin(address)": {
						"notice": "Permite al administrador transferir su rol a otro usuario."
					}
				},
				"notice": "Este contrato permite almacenar y actualizar una cadena de texto, con control de acceso y eventos.",
				"version": 1
			}
		}
	}
}