{
	"ETH_KIPU/EmisorReceptos.sol": {
		"ContratoReceptor": {
			"abi": [
				{
					"inputs": [],
					"stateMutability": "payable",
					"type": "constructor"
				},
				{
					"stateMutability": "payable",
					"type": "fallback"
				},
				{
					"inputs": [],
					"name": "balanceRecibido",
					"outputs": [
						{
							"internalType": "uint256",
							"name": "",
							"type": "uint256"
						}
					],
					"stateMutability": "view",
					"type": "function"
				},
				{
					"inputs": [],
					"name": "getBalance",
					"outputs": [
						{
							"internalType": "uint256",
							"name": "",
							"type": "uint256"
						}
					],
					"stateMutability": "view",
					"type": "function"
				},
				{
					"inputs": [],
					"name": "owner",
					"outputs": [
						{
							"internalType": "address payable",
							"name": "",
							"type": "address"
						}
					],
					"stateMutability": "view",
					"type": "function"
				},
				{
					"inputs": [],
					"name": "withdraw",
					"outputs": [],
					"stateMutability": "nonpayable",
					"type": "function"
				},
				{
					"stateMutability": "payable",
					"type": "receive"
				}
			],
			"devdoc": {
				"kind": "dev",
				"methods": {
					"constructor": {
						"details": "Este constructor se ejecuta una vez al desplegar el contrato y puede recibir Ether."
					},
					"getBalance()": {
						"returns": {
							"_0": "El balance en wei del contrato."
						}
					},
					"withdraw()": {
						"details": "Solo el propietario del contrato puede realizar esta operación."
					}
				},
				"version": 1
			},
			"evm": {
				"assembly": "    /* \"ETH_KIPU/EmisorReceptos.sol\":1781:3496  contract ContratoReceptor {... */\n  mstore(0x40, 0x80)\n    /* \"ETH_KIPU/EmisorReceptos.sol\":2232:2242  msg.sender */\n  caller\n    /* \"ETH_KIPU/EmisorReceptos.sol\":2216:2221  owner */\n  0x01\n  0x00\n    /* \"ETH_KIPU/EmisorReceptos.sol\":2216:2243  owner = payable(msg.sender) */\n  0x0100\n  exp\n  dup2\n  sload\n  dup2\n  0xffffffffffffffffffffffffffffffffffffffff\n  mul\n  not\n  and\n  swap1\n  dup4\n  0xffffffffffffffffffffffffffffffffffffffff\n  and\n  mul\n  or\n  swap1\n  sstore\n  pop\n    /* \"ETH_KIPU/EmisorReceptos.sol\":1781:3496  contract ContratoReceptor {... */\n  dataSize(sub_0)\n  dup1\n  dataOffset(sub_0)\n  0x00\n  codecopy\n  0x00\n  return\nstop\n\nsub_0: assembly {\n        /* \"ETH_KIPU/EmisorReceptos.sol\":1781:3496  contract ContratoReceptor {... */\n      mstore(0x40, 0x80)\n      jumpi(tag_1, lt(calldatasize, 0x04))\n      shr(0xe0, calldataload(0x00))\n      dup1\n      0x12065fe0\n      eq\n      tag_3\n      jumpi\n      dup1\n      0x3ccfd60b\n      eq\n      tag_4\n      jumpi\n      dup1\n      0x8da5cb5b\n      eq\n      tag_5\n      jumpi\n      dup1\n      0xc27fc274\n      eq\n      tag_6\n      jumpi\n      jump(tag_2)\n    tag_1:\n      jumpi(tag_2, calldatasize)\n        /* \"ETH_KIPU/EmisorReceptos.sol\":2481:2490  msg.value */\n      callvalue\n        /* \"ETH_KIPU/EmisorReceptos.sol\":2462:2477  balanceRecibido */\n      0x00\n      dup1\n        /* \"ETH_KIPU/EmisorReceptos.sol\":2462:2490  balanceRecibido += msg.value */\n      dup3\n      dup3\n      sload\n      tag_9\n      swap2\n      swap1\n      tag_10\n      jump\t// in\n    tag_9:\n      swap3\n      pop\n      pop\n      dup2\n      swap1\n      sstore\n      stop\n        /* \"ETH_KIPU/EmisorReceptos.sol\":1781:3496  contract ContratoReceptor {... */\n    tag_2:\n        /* \"ETH_KIPU/EmisorReceptos.sol\":2751:2760  msg.value */\n      callvalue\n        /* \"ETH_KIPU/EmisorReceptos.sol\":2732:2747  balanceRecibido */\n      0x00\n      dup1\n        /* \"ETH_KIPU/EmisorReceptos.sol\":2732:2760  balanceRecibido += msg.value */\n      dup3\n      dup3\n      sload\n      tag_13\n      swap2\n      swap1\n      tag_10\n      jump\t// in\n    tag_13:\n      swap3\n      pop\n      pop\n      dup2\n      swap1\n      sstore\n      stop\n        /* \"ETH_KIPU/EmisorReceptos.sol\":2906:3003  function getBalance() public view returns (uint256) {... */\n    tag_3:\n      callvalue\n      dup1\n      iszero\n      tag_14\n      jumpi\n      0x00\n      dup1\n      revert\n    tag_14:\n      pop\n      tag_15\n      tag_16\n      jump\t// in\n    tag_15:\n      mload(0x40)\n      tag_17\n      swap2\n      swap1\n      tag_18\n      jump\t// in\n    tag_17:\n      mload(0x40)\n      dup1\n      swap2\n      sub\n      swap1\n      return\n        /* \"ETH_KIPU/EmisorReceptos.sol\":3167:3494  function withdraw() public {... */\n    tag_4:\n      callvalue\n      dup1\n      iszero\n      tag_19\n      jumpi\n      0x00\n      dup1\n      revert\n    tag_19:\n      pop\n      tag_20\n      tag_21\n      jump\t// in\n    tag_20:\n      stop\n        /* \"ETH_KIPU/EmisorReceptos.sol\":1973:2001  address payable public owner */\n    tag_5:\n      callvalue\n      dup1\n      iszero\n      tag_22\n      jumpi\n      0x00\n      dup1\n      revert\n    tag_22:\n      pop\n      tag_23\n      tag_24\n      jump\t// in\n    tag_23:\n      mload(0x40)\n      tag_25\n      swap2\n      swap1\n      tag_26\n      jump\t// in\n    tag_25:\n      mload(0x40)\n      dup1\n      swap2\n      sub\n      swap1\n      return\n        /* \"ETH_KIPU/EmisorReceptos.sol\":1868:1898  uint256 public balanceRecibido */\n    tag_6:\n      callvalue\n      dup1\n      iszero\n      tag_27\n      jumpi\n      0x00\n      dup1\n      revert\n    tag_27:\n      pop\n      tag_28\n      tag_29\n      jump\t// in\n    tag_28:\n      mload(0x40)\n      tag_30\n      swap2\n      swap1\n      tag_18\n      jump\t// in\n    tag_30:\n      mload(0x40)\n      dup1\n      swap2\n      sub\n      swap1\n      return\n        /* \"ETH_KIPU/EmisorReceptos.sol\":2906:3003  function getBalance() public view returns (uint256) {... */\n    tag_16:\n        /* \"ETH_KIPU/EmisorReceptos.sol\":2949:2956  uint256 */\n      0x00\n        /* \"ETH_KIPU/EmisorReceptos.sol\":2975:2996  address(this).balance */\n      selfbalance\n        /* \"ETH_KIPU/EmisorReceptos.sol\":2968:2996  return address(this).balance */\n      swap1\n      pop\n        /* \"ETH_KIPU/EmisorReceptos.sol\":2906:3003  function getBalance() public view returns (uint256) {... */\n      swap1\n      jump\t// out\n        /* \"ETH_KIPU/EmisorReceptos.sol\":3167:3494  function withdraw() public {... */\n    tag_21:\n        /* \"ETH_KIPU/EmisorReceptos.sol\":3226:3231  owner */\n      0x01\n      0x00\n      swap1\n      sload\n      swap1\n      0x0100\n      exp\n      swap1\n      div\n      0xffffffffffffffffffffffffffffffffffffffff\n      and\n        /* \"ETH_KIPU/EmisorReceptos.sol\":3212:3231  msg.sender == owner */\n      0xffffffffffffffffffffffffffffffffffffffff\n      and\n        /* \"ETH_KIPU/EmisorReceptos.sol\":3212:3222  msg.sender */\n      caller\n        /* \"ETH_KIPU/EmisorReceptos.sol\":3212:3231  msg.sender == owner */\n      0xffffffffffffffffffffffffffffffffffffffff\n      and\n      eq\n        /* \"ETH_KIPU/EmisorReceptos.sol\":3204:3275  require(msg.sender == owner, \"Solo el propietario puede retirar Ether\") */\n      tag_33\n      jumpi\n      mload(0x40)\n      0x08c379a000000000000000000000000000000000000000000000000000000000\n      dup2\n      mstore\n      0x04\n      add\n      tag_34\n      swap1\n      tag_35\n      jump\t// in\n    tag_34:\n      mload(0x40)\n      dup1\n      swap2\n      sub\n      swap1\n      revert\n    tag_33:\n        /* \"ETH_KIPU/EmisorReceptos.sol\":3286:3300  uint256 amount */\n      0x00\n        /* \"ETH_KIPU/EmisorReceptos.sol\":3303:3324  address(this).balance */\n      selfbalance\n        /* \"ETH_KIPU/EmisorReceptos.sol\":3286:3324  uint256 amount = address(this).balance */\n      swap1\n      pop\n        /* \"ETH_KIPU/EmisorReceptos.sol\":3384:3396  bool success */\n      0x00\n        /* \"ETH_KIPU/EmisorReceptos.sol\":3402:3407  owner */\n      0x01\n      0x00\n      swap1\n      sload\n      swap1\n      0x0100\n      exp\n      swap1\n      div\n      0xffffffffffffffffffffffffffffffffffffffff\n      and\n        /* \"ETH_KIPU/EmisorReceptos.sol\":3402:3412  owner.call */\n      0xffffffffffffffffffffffffffffffffffffffff\n      and\n        /* \"ETH_KIPU/EmisorReceptos.sol\":3420:3426  amount */\n      dup3\n        /* \"ETH_KIPU/EmisorReceptos.sol\":3402:3431  owner.call{value: amount}(\"\") */\n      mload(0x40)\n      tag_36\n      swap1\n      tag_37\n      jump\t// in\n    tag_36:\n      0x00\n      mload(0x40)\n      dup1\n      dup4\n      sub\n      dup2\n      dup6\n      dup8\n      gas\n      call\n      swap3\n      pop\n      pop\n      pop\n      returndatasize\n      dup1\n      0x00\n      dup2\n      eq\n      tag_40\n      jumpi\n      mload(0x40)\n      swap2\n      pop\n      and(add(returndatasize, 0x3f), not(0x1f))\n      dup3\n      add\n      0x40\n      mstore\n      returndatasize\n      dup3\n      mstore\n      returndatasize\n      0x00\n      0x20\n      dup5\n      add\n      returndatacopy\n      jump(tag_39)\n    tag_40:\n      0x60\n      swap2\n      pop\n    tag_39:\n      pop\n        /* \"ETH_KIPU/EmisorReceptos.sol\":3383:3431  (bool success, ) = owner.call{value: amount}(\"\") */\n      pop\n      swap1\n      pop\n        /* \"ETH_KIPU/EmisorReceptos.sol\":3449:3456  success */\n      dup1\n        /* \"ETH_KIPU/EmisorReceptos.sol\":3441:3487  require(success, \"Fallo en el envio de Ether\") */\n      tag_41\n      jumpi\n      mload(0x40)\n      0x08c379a000000000000000000000000000000000000000000000000000000000\n      dup2\n      mstore\n      0x04\n      add\n      tag_42\n      swap1\n      tag_43\n      jump\t// in\n    tag_42:\n      mload(0x40)\n      dup1\n      swap2\n      sub\n      swap1\n      revert\n    tag_41:\n        /* \"ETH_KIPU/EmisorReceptos.sol\":3194:3494  {... */\n      pop\n      pop\n        /* \"ETH_KIPU/EmisorReceptos.sol\":3167:3494  function withdraw() public {... */\n      jump\t// out\n        /* \"ETH_KIPU/EmisorReceptos.sol\":1973:2001  address payable public owner */\n    tag_24:\n      0x01\n      0x00\n      swap1\n      sload\n      swap1\n      0x0100\n      exp\n      swap1\n      div\n      0xffffffffffffffffffffffffffffffffffffffff\n      and\n      dup2\n      jump\t// out\n        /* \"ETH_KIPU/EmisorReceptos.sol\":1868:1898  uint256 public balanceRecibido */\n    tag_29:\n      sload(0x00)\n      dup2\n      jump\t// out\n        /* \"#utility.yul\":7:84   */\n    tag_44:\n        /* \"#utility.yul\":44:51   */\n      0x00\n        /* \"#utility.yul\":73:78   */\n      dup2\n        /* \"#utility.yul\":62:78   */\n      swap1\n      pop\n        /* \"#utility.yul\":7:84   */\n      swap2\n      swap1\n      pop\n      jump\t// out\n        /* \"#utility.yul\":90:270   */\n    tag_45:\n        /* \"#utility.yul\":138:215   */\n      0x4e487b7100000000000000000000000000000000000000000000000000000000\n        /* \"#utility.yul\":135:136   */\n      0x00\n        /* \"#utility.yul\":128:216   */\n      mstore\n        /* \"#utility.yul\":235:239   */\n      0x11\n        /* \"#utility.yul\":232:233   */\n      0x04\n        /* \"#utility.yul\":225:240   */\n      mstore\n        /* \"#utility.yul\":259:263   */\n      0x24\n        /* \"#utility.yul\":256:257   */\n      0x00\n        /* \"#utility.yul\":249:264   */\n      revert\n        /* \"#utility.yul\":276:467   */\n    tag_10:\n        /* \"#utility.yul\":316:319   */\n      0x00\n        /* \"#utility.yul\":335:355   */\n      tag_62\n        /* \"#utility.yul\":353:354   */\n      dup3\n        /* \"#utility.yul\":335:355   */\n      tag_44\n      jump\t// in\n    tag_62:\n        /* \"#utility.yul\":330:355   */\n      swap2\n      pop\n        /* \"#utility.yul\":369:389   */\n      tag_63\n        /* \"#utility.yul\":387:388   */\n      dup4\n        /* \"#utility.yul\":369:389   */\n      tag_44\n      jump\t// in\n    tag_63:\n        /* \"#utility.yul\":364:389   */\n      swap3\n      pop\n        /* \"#utility.yul\":412:413   */\n      dup3\n        /* \"#utility.yul\":409:410   */\n      dup3\n        /* \"#utility.yul\":405:414   */\n      add\n        /* \"#utility.yul\":398:414   */\n      swap1\n      pop\n        /* \"#utility.yul\":433:436   */\n      dup1\n        /* \"#utility.yul\":430:431   */\n      dup3\n        /* \"#utility.yul\":427:437   */\n      gt\n        /* \"#utility.yul\":424:460   */\n      iszero\n      tag_64\n      jumpi\n        /* \"#utility.yul\":440:458   */\n      tag_65\n      tag_45\n      jump\t// in\n    tag_65:\n        /* \"#utility.yul\":424:460   */\n    tag_64:\n        /* \"#utility.yul\":276:467   */\n      swap3\n      swap2\n      pop\n      pop\n      jump\t// out\n        /* \"#utility.yul\":473:591   */\n    tag_46:\n        /* \"#utility.yul\":560:584   */\n      tag_67\n        /* \"#utility.yul\":578:583   */\n      dup2\n        /* \"#utility.yul\":560:584   */\n      tag_44\n      jump\t// in\n    tag_67:\n        /* \"#utility.yul\":555:558   */\n      dup3\n        /* \"#utility.yul\":548:585   */\n      mstore\n        /* \"#utility.yul\":473:591   */\n      pop\n      pop\n      jump\t// out\n        /* \"#utility.yul\":597:819   */\n    tag_18:\n        /* \"#utility.yul\":690:694   */\n      0x00\n        /* \"#utility.yul\":728:730   */\n      0x20\n        /* \"#utility.yul\":717:726   */\n      dup3\n        /* \"#utility.yul\":713:731   */\n      add\n        /* \"#utility.yul\":705:731   */\n      swap1\n      pop\n        /* \"#utility.yul\":741:812   */\n      tag_69\n        /* \"#utility.yul\":809:810   */\n      0x00\n        /* \"#utility.yul\":798:807   */\n      dup4\n        /* \"#utility.yul\":794:811   */\n      add\n        /* \"#utility.yul\":785:791   */\n      dup5\n        /* \"#utility.yul\":741:812   */\n      tag_46\n      jump\t// in\n    tag_69:\n        /* \"#utility.yul\":597:819   */\n      swap3\n      swap2\n      pop\n      pop\n      jump\t// out\n        /* \"#utility.yul\":825:951   */\n    tag_47:\n        /* \"#utility.yul\":862:869   */\n      0x00\n        /* \"#utility.yul\":902:944   */\n      0xffffffffffffffffffffffffffffffffffffffff\n        /* \"#utility.yul\":895:900   */\n      dup3\n        /* \"#utility.yul\":891:945   */\n      and\n        /* \"#utility.yul\":880:945   */\n      swap1\n      pop\n        /* \"#utility.yul\":825:951   */\n      swap2\n      swap1\n      pop\n      jump\t// out\n        /* \"#utility.yul\":957:1061   */\n    tag_48:\n        /* \"#utility.yul\":1002:1009   */\n      0x00\n        /* \"#utility.yul\":1031:1055   */\n      tag_72\n        /* \"#utility.yul\":1049:1054   */\n      dup3\n        /* \"#utility.yul\":1031:1055   */\n      tag_47\n      jump\t// in\n    tag_72:\n        /* \"#utility.yul\":1020:1055   */\n      swap1\n      pop\n        /* \"#utility.yul\":957:1061   */\n      swap2\n      swap1\n      pop\n      jump\t// out\n        /* \"#utility.yul\":1067:1209   */\n    tag_49:\n        /* \"#utility.yul\":1170:1202   */\n      tag_74\n        /* \"#utility.yul\":1196:1201   */\n      dup2\n        /* \"#utility.yul\":1170:1202   */\n      tag_48\n      jump\t// in\n    tag_74:\n        /* \"#utility.yul\":1165:1168   */\n      dup3\n        /* \"#utility.yul\":1158:1203   */\n      mstore\n        /* \"#utility.yul\":1067:1209   */\n      pop\n      pop\n      jump\t// out\n        /* \"#utility.yul\":1215:1469   */\n    tag_26:\n        /* \"#utility.yul\":1324:1328   */\n      0x00\n        /* \"#utility.yul\":1362:1364   */\n      0x20\n        /* \"#utility.yul\":1351:1360   */\n      dup3\n        /* \"#utility.yul\":1347:1365   */\n      add\n        /* \"#utility.yul\":1339:1365   */\n      swap1\n      pop\n        /* \"#utility.yul\":1375:1462   */\n      tag_76\n        /* \"#utility.yul\":1459:1460   */\n      0x00\n        /* \"#utility.yul\":1448:1457   */\n      dup4\n        /* \"#utility.yul\":1444:1461   */\n      add\n        /* \"#utility.yul\":1435:1441   */\n      dup5\n        /* \"#utility.yul\":1375:1462   */\n      tag_49\n      jump\t// in\n    tag_76:\n        /* \"#utility.yul\":1215:1469   */\n      swap3\n      swap2\n      pop\n      pop\n      jump\t// out\n        /* \"#utility.yul\":1475:1644   */\n    tag_50:\n        /* \"#utility.yul\":1559:1570   */\n      0x00\n        /* \"#utility.yul\":1593:1599   */\n      dup3\n        /* \"#utility.yul\":1588:1591   */\n      dup3\n        /* \"#utility.yul\":1581:1600   */\n      mstore\n        /* \"#utility.yul\":1633:1637   */\n      0x20\n        /* \"#utility.yul\":1628:1631   */\n      dup3\n        /* \"#utility.yul\":1624:1638   */\n      add\n        /* \"#utility.yul\":1609:1638   */\n      swap1\n      pop\n        /* \"#utility.yul\":1475:1644   */\n      swap3\n      swap2\n      pop\n      pop\n      jump\t// out\n        /* \"#utility.yul\":1650:1876   */\n    tag_51:\n        /* \"#utility.yul\":1790:1824   */\n      0x536f6c6f20656c2070726f706965746172696f20707565646520726574697261\n        /* \"#utility.yul\":1786:1787   */\n      0x00\n        /* \"#utility.yul\":1778:1784   */\n      dup3\n        /* \"#utility.yul\":1774:1788   */\n      add\n        /* \"#utility.yul\":1767:1825   */\n      mstore\n        /* \"#utility.yul\":1859:1868   */\n      0x7220457468657200000000000000000000000000000000000000000000000000\n        /* \"#utility.yul\":1854:1856   */\n      0x20\n        /* \"#utility.yul\":1846:1852   */\n      dup3\n        /* \"#utility.yul\":1842:1857   */\n      add\n        /* \"#utility.yul\":1835:1869   */\n      mstore\n        /* \"#utility.yul\":1650:1876   */\n      pop\n      jump\t// out\n        /* \"#utility.yul\":1882:2248   */\n    tag_52:\n        /* \"#utility.yul\":2024:2027   */\n      0x00\n        /* \"#utility.yul\":2045:2112   */\n      tag_80\n        /* \"#utility.yul\":2109:2111   */\n      0x27\n        /* \"#utility.yul\":2104:2107   */\n      dup4\n        /* \"#utility.yul\":2045:2112   */\n      tag_50\n      jump\t// in\n    tag_80:\n        /* \"#utility.yul\":2038:2112   */\n      swap2\n      pop\n        /* \"#utility.yul\":2121:2214   */\n      tag_81\n        /* \"#utility.yul\":2210:2213   */\n      dup3\n        /* \"#utility.yul\":2121:2214   */\n      tag_51\n      jump\t// in\n    tag_81:\n        /* \"#utility.yul\":2239:2241   */\n      0x40\n        /* \"#utility.yul\":2234:2237   */\n      dup3\n        /* \"#utility.yul\":2230:2242   */\n      add\n        /* \"#utility.yul\":2223:2242   */\n      swap1\n      pop\n        /* \"#utility.yul\":1882:2248   */\n      swap2\n      swap1\n      pop\n      jump\t// out\n        /* \"#utility.yul\":2254:2673   */\n    tag_35:\n        /* \"#utility.yul\":2420:2424   */\n      0x00\n        /* \"#utility.yul\":2458:2460   */\n      0x20\n        /* \"#utility.yul\":2447:2456   */\n      dup3\n        /* \"#utility.yul\":2443:2461   */\n      add\n        /* \"#utility.yul\":2435:2461   */\n      swap1\n      pop\n        /* \"#utility.yul\":2507:2516   */\n      dup2\n        /* \"#utility.yul\":2501:2505   */\n      dup2\n        /* \"#utility.yul\":2497:2517   */\n      sub\n        /* \"#utility.yul\":2493:2494   */\n      0x00\n        /* \"#utility.yul\":2482:2491   */\n      dup4\n        /* \"#utility.yul\":2478:2495   */\n      add\n        /* \"#utility.yul\":2471:2518   */\n      mstore\n        /* \"#utility.yul\":2535:2666   */\n      tag_83\n        /* \"#utility.yul\":2661:2665   */\n      dup2\n        /* \"#utility.yul\":2535:2666   */\n      tag_52\n      jump\t// in\n    tag_83:\n        /* \"#utility.yul\":2527:2666   */\n      swap1\n      pop\n        /* \"#utility.yul\":2254:2673   */\n      swap2\n      swap1\n      pop\n      jump\t// out\n        /* \"#utility.yul\":2679:2826   */\n    tag_53:\n        /* \"#utility.yul\":2780:2791   */\n      0x00\n        /* \"#utility.yul\":2817:2820   */\n      dup2\n        /* \"#utility.yul\":2802:2820   */\n      swap1\n      pop\n        /* \"#utility.yul\":2679:2826   */\n      swap3\n      swap2\n      pop\n      pop\n      jump\t// out\n        /* \"#utility.yul\":2832:2946   */\n    tag_54:\n      pop\n      jump\t// out\n        /* \"#utility.yul\":2952:3350   */\n    tag_55:\n        /* \"#utility.yul\":3111:3114   */\n      0x00\n        /* \"#utility.yul\":3132:3215   */\n      tag_87\n        /* \"#utility.yul\":3213:3214   */\n      0x00\n        /* \"#utility.yul\":3208:3211   */\n      dup4\n        /* \"#utility.yul\":3132:3215   */\n      tag_53\n      jump\t// in\n    tag_87:\n        /* \"#utility.yul\":3125:3215   */\n      swap2\n      pop\n        /* \"#utility.yul\":3224:3317   */\n      tag_88\n        /* \"#utility.yul\":3313:3316   */\n      dup3\n        /* \"#utility.yul\":3224:3317   */\n      tag_54\n      jump\t// in\n    tag_88:\n        /* \"#utility.yul\":3342:3343   */\n      0x00\n        /* \"#utility.yul\":3337:3340   */\n      dup3\n        /* \"#utility.yul\":3333:3344   */\n      add\n        /* \"#utility.yul\":3326:3344   */\n      swap1\n      pop\n        /* \"#utility.yul\":2952:3350   */\n      swap2\n      swap1\n      pop\n      jump\t// out\n        /* \"#utility.yul\":3356:3735   */\n    tag_37:\n        /* \"#utility.yul\":3540:3543   */\n      0x00\n        /* \"#utility.yul\":3562:3709   */\n      tag_90\n        /* \"#utility.yul\":3705:3708   */\n      dup3\n        /* \"#utility.yul\":3562:3709   */\n      tag_55\n      jump\t// in\n    tag_90:\n        /* \"#utility.yul\":3555:3709   */\n      swap2\n      pop\n        /* \"#utility.yul\":3726:3729   */\n      dup2\n        /* \"#utility.yul\":3719:3729   */\n      swap1\n      pop\n        /* \"#utility.yul\":3356:3735   */\n      swap2\n      swap1\n      pop\n      jump\t// out\n        /* \"#utility.yul\":3741:3917   */\n    tag_56:\n        /* \"#utility.yul\":3881:3909   */\n      0x46616c6c6f20656e20656c20656e76696f206465204574686572000000000000\n        /* \"#utility.yul\":3877:3878   */\n      0x00\n        /* \"#utility.yul\":3869:3875   */\n      dup3\n        /* \"#utility.yul\":3865:3879   */\n      add\n        /* \"#utility.yul\":3858:3910   */\n      mstore\n        /* \"#utility.yul\":3741:3917   */\n      pop\n      jump\t// out\n        /* \"#utility.yul\":3923:4289   */\n    tag_57:\n        /* \"#utility.yul\":4065:4068   */\n      0x00\n        /* \"#utility.yul\":4086:4153   */\n      tag_93\n        /* \"#utility.yul\":4150:4152   */\n      0x1a\n        /* \"#utility.yul\":4145:4148   */\n      dup4\n        /* \"#utility.yul\":4086:4153   */\n      tag_50\n      jump\t// in\n    tag_93:\n        /* \"#utility.yul\":4079:4153   */\n      swap2\n      pop\n        /* \"#utility.yul\":4162:4255   */\n      tag_94\n        /* \"#utility.yul\":4251:4254   */\n      dup3\n        /* \"#utility.yul\":4162:4255   */\n      tag_56\n      jump\t// in\n    tag_94:\n        /* \"#utility.yul\":4280:4282   */\n      0x20\n        /* \"#utility.yul\":4275:4278   */\n      dup3\n        /* \"#utility.yul\":4271:4283   */\n      add\n        /* \"#utility.yul\":4264:4283   */\n      swap1\n      pop\n        /* \"#utility.yul\":3923:4289   */\n      swap2\n      swap1\n      pop\n      jump\t// out\n        /* \"#utility.yul\":4295:4714   */\n    tag_43:\n        /* \"#utility.yul\":4461:4465   */\n      0x00\n        /* \"#utility.yul\":4499:4501   */\n      0x20\n        /* \"#utility.yul\":4488:4497   */\n      dup3\n        /* \"#utility.yul\":4484:4502   */\n      add\n        /* \"#utility.yul\":4476:4502   */\n      swap1\n      pop\n        /* \"#utility.yul\":4548:4557   */\n      dup2\n        /* \"#utility.yul\":4542:4546   */\n      dup2\n        /* \"#utility.yul\":4538:4558   */\n      sub\n        /* \"#utility.yul\":4534:4535   */\n      0x00\n        /* \"#utility.yul\":4523:4532   */\n      dup4\n        /* \"#utility.yul\":4519:4536   */\n      add\n        /* \"#utility.yul\":4512:4559   */\n      mstore\n        /* \"#utility.yul\":4576:4707   */\n      tag_96\n        /* \"#utility.yul\":4702:4706   */\n      dup2\n        /* \"#utility.yul\":4576:4707   */\n      tag_57\n      jump\t// in\n    tag_96:\n        /* \"#utility.yul\":4568:4707   */\n      swap1\n      pop\n        /* \"#utility.yul\":4295:4714   */\n      swap2\n      swap1\n      pop\n      jump\t// out\n\n    auxdata: 0xa26469706673582212202788dca427217dc1cf56dbaa6f57d106475068c9e21cb695eb86f17bcd6474d664736f6c634300081a0033\n}\n",
				"bytecode": {
					"linkReferences": {},
					"object": "60806040523360015f6101000a81548173ffffffffffffffffffffffffffffffffffffffff021916908373ffffffffffffffffffffffffffffffffffffffff160217905550610502806100515f395ff3fe608060405260043610610042575f3560e01c806312065fe0146100775780633ccfd60b146100a15780638da5cb5b146100b7578063c27fc274146100e15761005f565b3661005f57345f8082825461005791906102d2565b925050819055005b345f8082825461006f91906102d2565b925050819055005b348015610082575f80fd5b5061008b61010b565b6040516100989190610314565b60405180910390f35b3480156100ac575f80fd5b506100b5610112565b005b3480156100c2575f80fd5b506100cb610272565b6040516100d8919061036c565b60405180910390f35b3480156100ec575f80fd5b506100f5610297565b6040516101029190610314565b60405180910390f35b5f47905090565b60015f9054906101000a900473ffffffffffffffffffffffffffffffffffffffff1673ffffffffffffffffffffffffffffffffffffffff163373ffffffffffffffffffffffffffffffffffffffff16146101a1576040517f08c379a000000000000000000000000000000000000000000000000000000000815260040161019890610405565b60405180910390fd5b5f4790505f60015f9054906101000a900473ffffffffffffffffffffffffffffffffffffffff1673ffffffffffffffffffffffffffffffffffffffff16826040516101eb90610450565b5f6040518083038185875af1925050503d805f8114610225576040519150601f19603f3d011682016040523d82523d5f602084013e61022a565b606091505b505090508061026e576040517f08c379a0000000000000000000000000000000000000000000000000000000008152600401610265906104ae565b60405180910390fd5b5050565b60015f9054906101000a900473ffffffffffffffffffffffffffffffffffffffff1681565b5f5481565b5f819050919050565b7f4e487b71000000000000000000000000000000000000000000000000000000005f52601160045260245ffd5b5f6102dc8261029c565b91506102e78361029c565b92508282019050808211156102ff576102fe6102a5565b5b92915050565b61030e8161029c565b82525050565b5f6020820190506103275f830184610305565b92915050565b5f73ffffffffffffffffffffffffffffffffffffffff82169050919050565b5f6103568261032d565b9050919050565b6103668161034c565b82525050565b5f60208201905061037f5f83018461035d565b92915050565b5f82825260208201905092915050565b7f536f6c6f20656c2070726f706965746172696f207075656465207265746972615f8201527f7220457468657200000000000000000000000000000000000000000000000000602082015250565b5f6103ef602783610385565b91506103fa82610395565b604082019050919050565b5f6020820190508181035f83015261041c816103e3565b9050919050565b5f81905092915050565b50565b5f61043b5f83610423565b91506104468261042d565b5f82019050919050565b5f61045a82610430565b9150819050919050565b7f46616c6c6f20656e20656c20656e76696f2064652045746865720000000000005f82015250565b5f610498601a83610385565b91506104a382610464565b602082019050919050565b5f6020820190508181035f8301526104c58161048c565b905091905056fea26469706673582212202788dca427217dc1cf56dbaa6f57d106475068c9e21cb695eb86f17bcd6474d664736f6c634300081a0033",
					"opcodes": "PUSH1 0x80 PUSH1 0x40 MSTORE CALLER PUSH1 0x1 PUSH0 PUSH2 0x100 EXP DUP2 SLOAD DUP2 PUSH20 0xFFFFFFFFFFFFFFFFFFFFFFFFFFFFFFFFFFFFFFFF MUL NOT AND SWAP1 DUP4 PUSH20 0xFFFFFFFFFFFFFFFFFFFFFFFFFFFFFFFFFFFFFFFF AND MUL OR SWAP1 SSTORE POP PUSH2 0x502 DUP1 PUSH2 0x51 PUSH0 CODECOPY PUSH0 RETURN INVALID PUSH1 0x80 PUSH1 0x40 MSTORE PUSH1 0x4 CALLDATASIZE LT PUSH2 0x42 JUMPI PUSH0 CALLDATALOAD PUSH1 0xE0 SHR DUP1 PUSH4 0x12065FE0 EQ PUSH2 0x77 JUMPI DUP1 PUSH4 0x3CCFD60B EQ PUSH2 0xA1 JUMPI DUP1 PUSH4 0x8DA5CB5B EQ PUSH2 0xB7 JUMPI DUP1 PUSH4 0xC27FC274 EQ PUSH2 0xE1 JUMPI PUSH2 0x5F JUMP JUMPDEST CALLDATASIZE PUSH2 0x5F JUMPI CALLVALUE PUSH0 DUP1 DUP3 DUP3 SLOAD PUSH2 0x57 SWAP2 SWAP1 PUSH2 0x2D2 JUMP JUMPDEST SWAP3 POP POP DUP2 SWAP1 SSTORE STOP JUMPDEST CALLVALUE PUSH0 DUP1 DUP3 DUP3 SLOAD PUSH2 0x6F SWAP2 SWAP1 PUSH2 0x2D2 JUMP JUMPDEST SWAP3 POP POP DUP2 SWAP1 SSTORE STOP JUMPDEST CALLVALUE DUP1 ISZERO PUSH2 0x82 JUMPI PUSH0 DUP1 REVERT JUMPDEST POP PUSH2 0x8B PUSH2 0x10B JUMP JUMPDEST PUSH1 0x40 MLOAD PUSH2 0x98 SWAP2 SWAP1 PUSH2 0x314 JUMP JUMPDEST PUSH1 0x40 MLOAD DUP1 SWAP2 SUB SWAP1 RETURN JUMPDEST CALLVALUE DUP1 ISZERO PUSH2 0xAC JUMPI PUSH0 DUP1 REVERT JUMPDEST POP PUSH2 0xB5 PUSH2 0x112 JUMP JUMPDEST STOP JUMPDEST CALLVALUE DUP1 ISZERO PUSH2 0xC2 JUMPI PUSH0 DUP1 REVERT JUMPDEST POP PUSH2 0xCB PUSH2 0x272 JUMP JUMPDEST PUSH1 0x40 MLOAD PUSH2 0xD8 SWAP2 SWAP1 PUSH2 0x36C JUMP JUMPDEST PUSH1 0x40 MLOAD DUP1 SWAP2 SUB SWAP1 RETURN JUMPDEST CALLVALUE DUP1 ISZERO PUSH2 0xEC JUMPI PUSH0 DUP1 REVERT JUMPDEST POP PUSH2 0xF5 PUSH2 0x297 JUMP JUMPDEST PUSH1 0x40 MLOAD PUSH2 0x102 SWAP2 SWAP1 PUSH2 0x314 JUMP JUMPDEST PUSH1 0x40 MLOAD DUP1 SWAP2 SUB SWAP1 RETURN JUMPDEST PUSH0 SELFBALANCE SWAP1 POP SWAP1 JUMP JUMPDEST PUSH1 0x1 PUSH0 SWAP1 SLOAD SWAP1 PUSH2 0x100 EXP SWAP1 DIV PUSH20 0xFFFFFFFFFFFFFFFFFFFFFFFFFFFFFFFFFFFFFFFF AND PUSH20 0xFFFFFFFFFFFFFFFFFFFFFFFFFFFFFFFFFFFFFFFF AND CALLER PUSH20 0xFFFFFFFFFFFFFFFFFFFFFFFFFFFFFFFFFFFFFFFF AND EQ PUSH2 0x1A1 JUMPI PUSH1 0x40 MLOAD PUSH32 0x8C379A000000000000000000000000000000000000000000000000000000000 DUP2 MSTORE PUSH1 0x4 ADD PUSH2 0x198 SWAP1 PUSH2 0x405 JUMP JUMPDEST PUSH1 0x40 MLOAD DUP1 SWAP2 SUB SWAP1 REVERT JUMPDEST PUSH0 SELFBALANCE SWAP1 POP PUSH0 PUSH1 0x1 PUSH0 SWAP1 SLOAD SWAP1 PUSH2 0x100 EXP SWAP1 DIV PUSH20 0xFFFFFFFFFFFFFFFFFFFFFFFFFFFFFFFFFFFFFFFF AND PUSH20 0xFFFFFFFFFFFFFFFFFFFFFFFFFFFFFFFFFFFFFFFF AND DUP3 PUSH1 0x40 MLOAD PUSH2 0x1EB SWAP1 PUSH2 0x450 JUMP JUMPDEST PUSH0 PUSH1 0x40 MLOAD DUP1 DUP4 SUB DUP2 DUP6 DUP8 GAS CALL SWAP3 POP POP POP RETURNDATASIZE DUP1 PUSH0 DUP2 EQ PUSH2 0x225 JUMPI PUSH1 0x40 MLOAD SWAP2 POP PUSH1 0x1F NOT PUSH1 0x3F RETURNDATASIZE ADD AND DUP3 ADD PUSH1 0x40 MSTORE RETURNDATASIZE DUP3 MSTORE RETURNDATASIZE PUSH0 PUSH1 0x20 DUP5 ADD RETURNDATACOPY PUSH2 0x22A JUMP JUMPDEST PUSH1 0x60 SWAP2 POP JUMPDEST POP POP SWAP1 POP DUP1 PUSH2 0x26E JUMPI PUSH1 0x40 MLOAD PUSH32 0x8C379A000000000000000000000000000000000000000000000000000000000 DUP2 MSTORE PUSH1 0x4 ADD PUSH2 0x265 SWAP1 PUSH2 0x4AE JUMP JUMPDEST PUSH1 0x40 MLOAD DUP1 SWAP2 SUB SWAP1 REVERT JUMPDEST POP POP JUMP JUMPDEST PUSH1 0x1 PUSH0 SWAP1 SLOAD SWAP1 PUSH2 0x100 EXP SWAP1 DIV PUSH20 0xFFFFFFFFFFFFFFFFFFFFFFFFFFFFFFFFFFFFFFFF AND DUP2 JUMP JUMPDEST PUSH0 SLOAD DUP2 JUMP JUMPDEST PUSH0 DUP2 SWAP1 POP SWAP2 SWAP1 POP JUMP JUMPDEST PUSH32 0x4E487B7100000000000000000000000000000000000000000000000000000000 PUSH0 MSTORE PUSH1 0x11 PUSH1 0x4 MSTORE PUSH1 0x24 PUSH0 REVERT JUMPDEST PUSH0 PUSH2 0x2DC DUP3 PUSH2 0x29C JUMP JUMPDEST SWAP2 POP PUSH2 0x2E7 DUP4 PUSH2 0x29C JUMP JUMPDEST SWAP3 POP DUP3 DUP3 ADD SWAP1 POP DUP1 DUP3 GT ISZERO PUSH2 0x2FF JUMPI PUSH2 0x2FE PUSH2 0x2A5 JUMP JUMPDEST JUMPDEST SWAP3 SWAP2 POP POP JUMP JUMPDEST PUSH2 0x30E DUP2 PUSH2 0x29C JUMP JUMPDEST DUP3 MSTORE POP POP JUMP JUMPDEST PUSH0 PUSH1 0x20 DUP3 ADD SWAP1 POP PUSH2 0x327 PUSH0 DUP4 ADD DUP5 PUSH2 0x305 JUMP JUMPDEST SWAP3 SWAP2 POP POP JUMP JUMPDEST PUSH0 PUSH20 0xFFFFFFFFFFFFFFFFFFFFFFFFFFFFFFFFFFFFFFFF DUP3 AND SWAP1 POP SWAP2 SWAP1 POP JUMP JUMPDEST PUSH0 PUSH2 0x356 DUP3 PUSH2 0x32D JUMP JUMPDEST SWAP1 POP SWAP2 SWAP1 POP JUMP JUMPDEST PUSH2 0x366 DUP2 PUSH2 0x34C JUMP JUMPDEST DUP3 MSTORE POP POP JUMP JUMPDEST PUSH0 PUSH1 0x20 DUP3 ADD SWAP1 POP PUSH2 0x37F PUSH0 DUP4 ADD DUP5 PUSH2 0x35D JUMP JUMPDEST SWAP3 SWAP2 POP POP JUMP JUMPDEST PUSH0 DUP3 DUP3 MSTORE PUSH1 0x20 DUP3 ADD SWAP1 POP SWAP3 SWAP2 POP POP JUMP JUMPDEST PUSH32 0x536F6C6F20656C2070726F706965746172696F20707565646520726574697261 PUSH0 DUP3 ADD MSTORE PUSH32 0x7220457468657200000000000000000000000000000000000000000000000000 PUSH1 0x20 DUP3 ADD MSTORE POP JUMP JUMPDEST PUSH0 PUSH2 0x3EF PUSH1 0x27 DUP4 PUSH2 0x385 JUMP JUMPDEST SWAP2 POP PUSH2 0x3FA DUP3 PUSH2 0x395 JUMP JUMPDEST PUSH1 0x40 DUP3 ADD SWAP1 POP SWAP2 SWAP1 POP JUMP JUMPDEST PUSH0 PUSH1 0x20 DUP3 ADD SWAP1 POP DUP2 DUP2 SUB PUSH0 DUP4 ADD MSTORE PUSH2 0x41C DUP2 PUSH2 0x3E3 JUMP JUMPDEST SWAP1 POP SWAP2 SWAP1 POP JUMP JUMPDEST PUSH0 DUP2 SWAP1 POP SWAP3 SWAP2 POP POP JUMP JUMPDEST POP JUMP JUMPDEST PUSH0 PUSH2 0x43B PUSH0 DUP4 PUSH2 0x423 JUMP JUMPDEST SWAP2 POP PUSH2 0x446 DUP3 PUSH2 0x42D JUMP JUMPDEST PUSH0 DUP3 ADD SWAP1 POP SWAP2 SWAP1 POP JUMP JUMPDEST PUSH0 PUSH2 0x45A DUP3 PUSH2 0x430 JUMP JUMPDEST SWAP2 POP DUP2 SWAP1 POP SWAP2 SWAP1 POP JUMP JUMPDEST PUSH32 0x46616C6C6F20656E20656C20656E76696F206465204574686572000000000000 PUSH0 DUP3 ADD MSTORE POP JUMP JUMPDEST PUSH0 PUSH2 0x498 PUSH1 0x1A DUP4 PUSH2 0x385 JUMP JUMPDEST SWAP2 POP PUSH2 0x4A3 DUP3 PUSH2 0x464 JUMP JUMPDEST PUSH1 0x20 DUP3 ADD SWAP1 POP SWAP2 SWAP1 POP JUMP JUMPDEST PUSH0 PUSH1 0x20 DUP3 ADD SWAP1 POP DUP2 DUP2 SUB PUSH0 DUP4 ADD MSTORE PUSH2 0x4C5 DUP2 PUSH2 0x48C JUMP JUMPDEST SWAP1 POP SWAP2 SWAP1 POP JUMP INVALID LOG2 PUSH5 0x6970667358 0x22 SLT KECCAK256 0x27 DUP9 0xDC LOG4 0x27 0x21 PUSH30 0xC1CF56DBAA6F57D106475068C9E21CB695EB86F17BCD6474D664736F6C63 NUMBER STOP ADDMOD BYTE STOP CALLER "
				},
				"gasEstimates": {
					"creation": {
						"codeDepositCost": "256400",
						"executionCost": "24539",
						"totalCost": "280939"
					},
					"external": {
						"": "infinite",
						"balanceRecibido()": "2468",
						"getBalance()": "312",
						"owner()": "2530",
						"withdraw()": "infinite"
					}
				},
				"methodIdentifiers": {
					"balanceRecibido()": "c27fc274",
					"getBalance()": "12065fe0",
					"owner()": "8da5cb5b",
					"withdraw()": "3ccfd60b"
				}
			},
			"storageLayout": {
				"storage": [
					{
						"astId": 69,
						"contract": "ETH_KIPU/EmisorReceptos.sol:ContratoReceptor",
						"label": "balanceRecibido",
						"offset": 0,
						"slot": "0",
						"type": "t_uint256"
					},
					{
						"astId": 72,
						"contract": "ETH_KIPU/EmisorReceptos.sol:ContratoReceptor",
						"label": "owner",
						"offset": 0,
						"slot": "1",
						"type": "t_address_payable"
					}
				],
				"types": {
					"t_address_payable": {
						"encoding": "inplace",
						"label": "address payable",
						"numberOfBytes": "20"
					},
					"t_uint256": {
						"encoding": "inplace",
						"label": "uint256",
						"numberOfBytes": "32"
					}
				}
			},
			"userdoc": {
				"kind": "user",
				"methods": {
					"balanceRecibido()": {
						"notice": "Almacena el balance de Ether recibido."
					},
					"constructor": {
						"notice": "Constructor payable que establece el propietario del contrato."
					},
					"getBalance()": {
						"notice": "Retorna el balance de Ether almacenado en el contrato."
					},
					"owner()": {
						"notice": "Dirección del propietario que puede recibir Ether."
					},
					"withdraw()": {
						"notice": "Función para retirar todo el Ether del contrato."
					}
				},
				"version": 1
			}
		}
	}
}