{
	"ETH_KIPU/Register14_All.sol": {
		"Register14": {
			"abi": [
				{
					"anonymous": false,
					"inputs": [
						{
							"indexed": false,
							"internalType": "address",
							"name": "person",
							"type": "address"
						},
						{
							"indexed": false,
							"internalType": "uint256",
							"name": "countChanges",
							"type": "uint256"
						},
						{
							"indexed": false,
							"internalType": "string",
							"name": "oldInfo",
							"type": "string"
						},
						{
							"indexed": false,
							"internalType": "string",
							"name": "newInfo",
							"type": "string"
						}
					],
					"name": "InfoChange",
					"type": "event"
				},
				{
					"inputs": [],
					"name": "getInfo",
					"outputs": [
						{
							"components": [
								{
									"internalType": "string",
									"name": "info",
									"type": "string"
								},
								{
									"internalType": "enum Register14.Colors",
									"name": "color",
									"type": "uint8"
								},
								{
									"internalType": "uint256",
									"name": "countChanges",
									"type": "uint256"
								}
							],
							"internalType": "struct Register14.InfoStruct",
							"name": "",
							"type": "tuple"
						}
					],
					"stateMutability": "view",
					"type": "function"
				},
				{
					"inputs": [
						{
							"internalType": "enum Register14.Colors",
							"name": "myColor",
							"type": "uint8"
						},
						{
							"internalType": "string",
							"name": "myInfo",
							"type": "string"
						}
					],
					"name": "setInfo",
					"outputs": [],
					"stateMutability": "nonpayable",
					"type": "function"
				}
			],
			"devdoc": {
				"author": "Solange Gueiros",
				"kind": "dev",
				"methods": {
					"getInfo()": {
						"details": "return the struct storedInfo for the msg.sender",
						"returns": {
							"_0": "the stored struct storedInfo"
						}
					},
					"setInfo(uint8,string)": {
						"details": "update the strict `storedInfo` with the parameters `myColor` and `myInfo`increase the counter",
						"params": {
							"myColor": "the new color to be stored",
							"myInfo": "the new string to be stored"
						}
					}
				},
				"title": "Concepts: All together 2",
				"version": 1
			},
			"evm": {
				"assembly": "    /* \"ETH_KIPU/Register14_All.sol\":174:1596  contract Register14 {... */\n  mstore(0x40, 0x80)\n  callvalue\n  dup1\n  iszero\n  tag_1\n  jumpi\n  0x00\n  dup1\n  revert\ntag_1:\n  pop\n  dataSize(sub_0)\n  dup1\n  dataOffset(sub_0)\n  0x00\n  codecopy\n  0x00\n  return\nstop\n\nsub_0: assembly {\n        /* \"ETH_KIPU/Register14_All.sol\":174:1596  contract Register14 {... */\n      mstore(0x40, 0x80)\n      callvalue\n      dup1\n      iszero\n      tag_1\n      jumpi\n      0x00\n      dup1\n      revert\n    tag_1:\n      pop\n      jumpi(tag_2, lt(calldatasize, 0x04))\n      shr(0xe0, calldataload(0x00))\n      dup1\n      0x5a9b0b89\n      eq\n      tag_3\n      jumpi\n      dup1\n      0xae15d4fc\n      eq\n      tag_4\n      jumpi\n    tag_2:\n      0x00\n      dup1\n      revert\n        /* \"ETH_KIPU/Register14_All.sol\":1480:1590  function getInfo() external view returns (InfoStruct memory) {... */\n    tag_3:\n      tag_5\n      tag_6\n      jump\t// in\n    tag_5:\n      mload(0x40)\n      tag_7\n      swap2\n      swap1\n      tag_8\n      jump\t// in\n    tag_7:\n      mload(0x40)\n      dup1\n      swap2\n      sub\n      swap1\n      return\n        /* \"ETH_KIPU/Register14_All.sol\":964:1296  function setInfo(Colors myColor, string memory myInfo) external {... */\n    tag_4:\n      tag_9\n      0x04\n      dup1\n      calldatasize\n      sub\n      dup2\n      add\n      swap1\n      tag_10\n      swap2\n      swap1\n      tag_11\n      jump\t// in\n    tag_10:\n      tag_12\n      jump\t// in\n    tag_9:\n      stop\n        /* \"ETH_KIPU/Register14_All.sol\":1480:1590  function getInfo() external view returns (InfoStruct memory) {... */\n    tag_6:\n        /* \"ETH_KIPU/Register14_All.sol\":1522:1539  InfoStruct memory */\n      tag_13\n      tag_14\n      jump\t// in\n    tag_13:\n        /* \"ETH_KIPU/Register14_All.sol\":1559:1570  storedInfos */\n      0x00\n        /* \"ETH_KIPU/Register14_All.sol\":1559:1582  storedInfos[msg.sender] */\n      dup1\n        /* \"ETH_KIPU/Register14_All.sol\":1571:1581  msg.sender */\n      caller\n        /* \"ETH_KIPU/Register14_All.sol\":1559:1582  storedInfos[msg.sender] */\n      0xffffffffffffffffffffffffffffffffffffffff\n      and\n      0xffffffffffffffffffffffffffffffffffffffff\n      and\n      dup2\n      mstore\n      0x20\n      add\n      swap1\n      dup2\n      mstore\n      0x20\n      add\n      0x00\n      keccak256\n        /* \"ETH_KIPU/Register14_All.sol\":1552:1582  return storedInfos[msg.sender] */\n      mload(0x40)\n      dup1\n      0x60\n      add\n      0x40\n      mstore\n      swap1\n      dup2\n      0x00\n      dup3\n      add\n      dup1\n      sload\n      tag_16\n      swap1\n      tag_17\n      jump\t// in\n    tag_16:\n      dup1\n      0x1f\n      add\n      0x20\n      dup1\n      swap2\n      div\n      mul\n      0x20\n      add\n      mload(0x40)\n      swap1\n      dup2\n      add\n      0x40\n      mstore\n      dup1\n      swap3\n      swap2\n      swap1\n      dup2\n      dup2\n      mstore\n      0x20\n      add\n      dup3\n      dup1\n      sload\n      tag_18\n      swap1\n      tag_17\n      jump\t// in\n    tag_18:\n      dup1\n      iszero\n      tag_19\n      jumpi\n      dup1\n      0x1f\n      lt\n      tag_20\n      jumpi\n      0x0100\n      dup1\n      dup4\n      sload\n      div\n      mul\n      dup4\n      mstore\n      swap2\n      0x20\n      add\n      swap2\n      jump(tag_19)\n    tag_20:\n      dup3\n      add\n      swap2\n      swap1\n      0x00\n      mstore\n      keccak256(0x00, 0x20)\n      swap1\n    tag_21:\n      dup2\n      sload\n      dup2\n      mstore\n      swap1\n      0x01\n      add\n      swap1\n      0x20\n      add\n      dup1\n      dup4\n      gt\n      tag_21\n      jumpi\n      dup3\n      swap1\n      sub\n      0x1f\n      and\n      dup3\n      add\n      swap2\n    tag_19:\n      pop\n      pop\n      pop\n      pop\n      pop\n      dup2\n      mstore\n      0x20\n      add\n      0x01\n      dup3\n      add\n      0x00\n      swap1\n      sload\n      swap1\n      0x0100\n      exp\n      swap1\n      div\n      0xff\n      and\n      0x02\n      dup2\n      gt\n      iszero\n      tag_22\n      jumpi\n      tag_23\n      tag_24\n      jump\t// in\n    tag_23:\n    tag_22:\n      0x02\n      dup2\n      gt\n      iszero\n      tag_25\n      jumpi\n      tag_26\n      tag_24\n      jump\t// in\n    tag_26:\n    tag_25:\n      dup2\n      mstore\n      0x20\n      add\n      0x02\n      dup3\n      add\n      sload\n      dup2\n      mstore\n      pop\n      pop\n      swap1\n      pop\n        /* \"ETH_KIPU/Register14_All.sol\":1480:1590  function getInfo() external view returns (InfoStruct memory) {... */\n      swap1\n      jump\t// out\n        /* \"ETH_KIPU/Register14_All.sol\":964:1296  function setInfo(Colors myColor, string memory myInfo) external {... */\n    tag_12:\n        /* \"ETH_KIPU/Register14_All.sol\":1037:1048  storedInfos */\n      0x00\n        /* \"ETH_KIPU/Register14_All.sol\":1037:1060  storedInfos[msg.sender] */\n      dup1\n        /* \"ETH_KIPU/Register14_All.sol\":1049:1059  msg.sender */\n      caller\n        /* \"ETH_KIPU/Register14_All.sol\":1037:1060  storedInfos[msg.sender] */\n      0xffffffffffffffffffffffffffffffffffffffff\n      and\n      0xffffffffffffffffffffffffffffffffffffffff\n      and\n      dup2\n      mstore\n      0x20\n      add\n      swap1\n      dup2\n      mstore\n      0x20\n      add\n      0x00\n      keccak256\n        /* \"ETH_KIPU/Register14_All.sol\":1037:1073  storedInfos[msg.sender].countChanges */\n      0x02\n      add\n      0x00\n        /* \"ETH_KIPU/Register14_All.sol\":1037:1075  storedInfos[msg.sender].countChanges++ */\n      dup2\n      sload\n      dup1\n      swap3\n      swap2\n      swap1\n      tag_28\n      swap1\n      tag_29\n      jump\t// in\n    tag_28:\n      swap2\n      swap1\n      pop\n      sstore\n      pop\n        /* \"ETH_KIPU/Register14_All.sol\":1089:1188  InfoChange (msg.sender, storedInfos[msg.sender].countChanges, storedInfos[msg.sender].info, myInfo) */\n      0xeb0c5cfcb1d1a12c404c7bfceac5a0dc8ec8c2da31abaf3536a58433b2c561ce\n        /* \"ETH_KIPU/Register14_All.sol\":1101:1111  msg.sender */\n      caller\n        /* \"ETH_KIPU/Register14_All.sol\":1113:1124  storedInfos */\n      0x00\n        /* \"ETH_KIPU/Register14_All.sol\":1113:1136  storedInfos[msg.sender] */\n      dup1\n        /* \"ETH_KIPU/Register14_All.sol\":1125:1135  msg.sender */\n      caller\n        /* \"ETH_KIPU/Register14_All.sol\":1113:1136  storedInfos[msg.sender] */\n      0xffffffffffffffffffffffffffffffffffffffff\n      and\n      0xffffffffffffffffffffffffffffffffffffffff\n      and\n      dup2\n      mstore\n      0x20\n      add\n      swap1\n      dup2\n      mstore\n      0x20\n      add\n      0x00\n      keccak256\n        /* \"ETH_KIPU/Register14_All.sol\":1113:1149  storedInfos[msg.sender].countChanges */\n      0x02\n      add\n      sload\n        /* \"ETH_KIPU/Register14_All.sol\":1151:1162  storedInfos */\n      0x00\n        /* \"ETH_KIPU/Register14_All.sol\":1151:1174  storedInfos[msg.sender] */\n      dup1\n        /* \"ETH_KIPU/Register14_All.sol\":1163:1173  msg.sender */\n      caller\n        /* \"ETH_KIPU/Register14_All.sol\":1151:1174  storedInfos[msg.sender] */\n      0xffffffffffffffffffffffffffffffffffffffff\n      and\n      0xffffffffffffffffffffffffffffffffffffffff\n      and\n      dup2\n      mstore\n      0x20\n      add\n      swap1\n      dup2\n      mstore\n      0x20\n      add\n      0x00\n      keccak256\n        /* \"ETH_KIPU/Register14_All.sol\":1151:1179  storedInfos[msg.sender].info */\n      0x00\n      add\n        /* \"ETH_KIPU/Register14_All.sol\":1181:1187  myInfo */\n      dup5\n        /* \"ETH_KIPU/Register14_All.sol\":1089:1188  InfoChange (msg.sender, storedInfos[msg.sender].countChanges, storedInfos[msg.sender].info, myInfo) */\n      mload(0x40)\n      tag_30\n      swap5\n      swap4\n      swap3\n      swap2\n      swap1\n      tag_31\n      jump\t// in\n    tag_30:\n      mload(0x40)\n      dup1\n      swap2\n      sub\n      swap1\n      log1\n        /* \"ETH_KIPU/Register14_All.sol\":1229:1236  myColor */\n      dup2\n        /* \"ETH_KIPU/Register14_All.sol\":1197:1208  storedInfos */\n      0x00\n        /* \"ETH_KIPU/Register14_All.sol\":1197:1220  storedInfos[msg.sender] */\n      dup1\n        /* \"ETH_KIPU/Register14_All.sol\":1209:1219  msg.sender */\n      caller\n        /* \"ETH_KIPU/Register14_All.sol\":1197:1220  storedInfos[msg.sender] */\n      0xffffffffffffffffffffffffffffffffffffffff\n      and\n      0xffffffffffffffffffffffffffffffffffffffff\n      and\n      dup2\n      mstore\n      0x20\n      add\n      swap1\n      dup2\n      mstore\n      0x20\n      add\n      0x00\n      keccak256\n        /* \"ETH_KIPU/Register14_All.sol\":1197:1226  storedInfos[msg.sender].color */\n      0x01\n      add\n      0x00\n        /* \"ETH_KIPU/Register14_All.sol\":1197:1236  storedInfos[msg.sender].color = myColor */\n      0x0100\n      exp\n      dup2\n      sload\n      dup2\n      0xff\n      mul\n      not\n      and\n      swap1\n      dup4\n      0x02\n      dup2\n      gt\n      iszero\n      tag_32\n      jumpi\n      tag_33\n      tag_24\n      jump\t// in\n    tag_33:\n    tag_32:\n      mul\n      or\n      swap1\n      sstore\n      pop\n        /* \"ETH_KIPU/Register14_All.sol\":1278:1284  myInfo */\n      dup1\n        /* \"ETH_KIPU/Register14_All.sol\":1247:1258  storedInfos */\n      0x00\n        /* \"ETH_KIPU/Register14_All.sol\":1247:1270  storedInfos[msg.sender] */\n      dup1\n        /* \"ETH_KIPU/Register14_All.sol\":1259:1269  msg.sender */\n      caller\n        /* \"ETH_KIPU/Register14_All.sol\":1247:1270  storedInfos[msg.sender] */\n      0xffffffffffffffffffffffffffffffffffffffff\n      and\n      0xffffffffffffffffffffffffffffffffffffffff\n      and\n      dup2\n      mstore\n      0x20\n      add\n      swap1\n      dup2\n      mstore\n      0x20\n      add\n      0x00\n      keccak256\n        /* \"ETH_KIPU/Register14_All.sol\":1247:1275  storedInfos[msg.sender].info */\n      0x00\n      add\n        /* \"ETH_KIPU/Register14_All.sol\":1247:1284  storedInfos[msg.sender].info = myInfo */\n      swap1\n      dup2\n      tag_34\n      swap2\n      swap1\n      tag_35\n      jump\t// in\n    tag_34:\n      pop\n        /* \"ETH_KIPU/Register14_All.sol\":964:1296  function setInfo(Colors myColor, string memory myInfo) external {... */\n      pop\n      pop\n      jump\t// out\n    tag_14:\n      mload(0x40)\n      dup1\n      0x60\n      add\n      0x40\n      mstore\n      dup1\n      0x60\n      dup2\n      mstore\n      0x20\n      add\n      0x00\n      0x02\n      dup2\n      gt\n      iszero\n      tag_36\n      jumpi\n      tag_37\n      tag_24\n      jump\t// in\n    tag_37:\n    tag_36:\n      dup2\n      mstore\n      0x20\n      add\n      0x00\n      dup2\n      mstore\n      pop\n      swap1\n      jump\t// out\n        /* \"#utility.yul\":7:106   */\n    tag_38:\n        /* \"#utility.yul\":59:65   */\n      0x00\n        /* \"#utility.yul\":93:98   */\n      dup2\n        /* \"#utility.yul\":87:99   */\n      mload\n        /* \"#utility.yul\":77:99   */\n      swap1\n      pop\n        /* \"#utility.yul\":7:106   */\n      swap2\n      swap1\n      pop\n      jump\t// out\n        /* \"#utility.yul\":112:271   */\n    tag_39:\n        /* \"#utility.yul\":186:197   */\n      0x00\n        /* \"#utility.yul\":220:226   */\n      dup3\n        /* \"#utility.yul\":215:218   */\n      dup3\n        /* \"#utility.yul\":208:227   */\n      mstore\n        /* \"#utility.yul\":260:264   */\n      0x20\n        /* \"#utility.yul\":255:258   */\n      dup3\n        /* \"#utility.yul\":251:265   */\n      add\n        /* \"#utility.yul\":236:265   */\n      swap1\n      pop\n        /* \"#utility.yul\":112:271   */\n      swap3\n      swap2\n      pop\n      pop\n      jump\t// out\n        /* \"#utility.yul\":277:416   */\n    tag_40:\n        /* \"#utility.yul\":366:372   */\n      dup3\n        /* \"#utility.yul\":361:364   */\n      dup2\n        /* \"#utility.yul\":356:359   */\n      dup4\n        /* \"#utility.yul\":350:373   */\n      mcopy\n        /* \"#utility.yul\":407:408   */\n      0x00\n        /* \"#utility.yul\":398:404   */\n      dup4\n        /* \"#utility.yul\":393:396   */\n      dup4\n        /* \"#utility.yul\":389:405   */\n      add\n        /* \"#utility.yul\":382:409   */\n      mstore\n        /* \"#utility.yul\":277:416   */\n      pop\n      pop\n      pop\n      jump\t// out\n        /* \"#utility.yul\":422:524   */\n    tag_41:\n        /* \"#utility.yul\":463:469   */\n      0x00\n        /* \"#utility.yul\":514:516   */\n      0x1f\n        /* \"#utility.yul\":510:517   */\n      not\n        /* \"#utility.yul\":505:507   */\n      0x1f\n        /* \"#utility.yul\":498:503   */\n      dup4\n        /* \"#utility.yul\":494:508   */\n      add\n        /* \"#utility.yul\":490:518   */\n      and\n        /* \"#utility.yul\":480:518   */\n      swap1\n      pop\n        /* \"#utility.yul\":422:524   */\n      swap2\n      swap1\n      pop\n      jump\t// out\n        /* \"#utility.yul\":530:887   */\n    tag_42:\n        /* \"#utility.yul\":608:611   */\n      0x00\n        /* \"#utility.yul\":636:675   */\n      tag_94\n        /* \"#utility.yul\":669:674   */\n      dup3\n        /* \"#utility.yul\":636:675   */\n      tag_38\n      jump\t// in\n    tag_94:\n        /* \"#utility.yul\":691:752   */\n      tag_95\n        /* \"#utility.yul\":745:751   */\n      dup2\n        /* \"#utility.yul\":740:743   */\n      dup6\n        /* \"#utility.yul\":691:752   */\n      tag_39\n      jump\t// in\n    tag_95:\n        /* \"#utility.yul\":684:752   */\n      swap4\n      pop\n        /* \"#utility.yul\":761:826   */\n      tag_96\n        /* \"#utility.yul\":819:825   */\n      dup2\n        /* \"#utility.yul\":814:817   */\n      dup6\n        /* \"#utility.yul\":807:811   */\n      0x20\n        /* \"#utility.yul\":800:805   */\n      dup7\n        /* \"#utility.yul\":796:812   */\n      add\n        /* \"#utility.yul\":761:826   */\n      tag_40\n      jump\t// in\n    tag_96:\n        /* \"#utility.yul\":851:880   */\n      tag_97\n        /* \"#utility.yul\":873:879   */\n      dup2\n        /* \"#utility.yul\":851:880   */\n      tag_41\n      jump\t// in\n    tag_97:\n        /* \"#utility.yul\":846:849   */\n      dup5\n        /* \"#utility.yul\":842:881   */\n      add\n        /* \"#utility.yul\":835:881   */\n      swap2\n      pop\n        /* \"#utility.yul\":612:887   */\n      pop\n        /* \"#utility.yul\":530:887   */\n      swap3\n      swap2\n      pop\n      pop\n      jump\t// out\n        /* \"#utility.yul\":893:1073   */\n    tag_24:\n        /* \"#utility.yul\":941:1018   */\n      0x4e487b7100000000000000000000000000000000000000000000000000000000\n        /* \"#utility.yul\":938:939   */\n      0x00\n        /* \"#utility.yul\":931:1019   */\n      mstore\n        /* \"#utility.yul\":1038:1042   */\n      0x21\n        /* \"#utility.yul\":1035:1036   */\n      0x04\n        /* \"#utility.yul\":1028:1043   */\n      mstore\n        /* \"#utility.yul\":1062:1066   */\n      0x24\n        /* \"#utility.yul\":1059:1060   */\n      0x00\n        /* \"#utility.yul\":1052:1067   */\n      revert\n        /* \"#utility.yul\":1079:1192   */\n    tag_43:\n        /* \"#utility.yul\":1160:1161   */\n      0x03\n        /* \"#utility.yul\":1153:1158   */\n      dup2\n        /* \"#utility.yul\":1150:1162   */\n      lt\n        /* \"#utility.yul\":1140:1186   */\n      tag_100\n      jumpi\n        /* \"#utility.yul\":1166:1184   */\n      tag_101\n      tag_24\n      jump\t// in\n    tag_101:\n        /* \"#utility.yul\":1140:1186   */\n    tag_100:\n        /* \"#utility.yul\":1079:1192   */\n      pop\n      jump\t// out\n        /* \"#utility.yul\":1198:1325   */\n    tag_44:\n        /* \"#utility.yul\":1243:1250   */\n      0x00\n        /* \"#utility.yul\":1272:1277   */\n      dup2\n        /* \"#utility.yul\":1261:1277   */\n      swap1\n      pop\n        /* \"#utility.yul\":1278:1319   */\n      tag_103\n        /* \"#utility.yul\":1313:1318   */\n      dup3\n        /* \"#utility.yul\":1278:1319   */\n      tag_43\n      jump\t// in\n    tag_103:\n        /* \"#utility.yul\":1198:1325   */\n      swap2\n      swap1\n      pop\n      jump\t// out\n        /* \"#utility.yul\":1331:1458   */\n    tag_45:\n        /* \"#utility.yul\":1387:1396   */\n      0x00\n        /* \"#utility.yul\":1420:1452   */\n      tag_105\n        /* \"#utility.yul\":1446:1451   */\n      dup3\n        /* \"#utility.yul\":1420:1452   */\n      tag_44\n      jump\t// in\n    tag_105:\n        /* \"#utility.yul\":1407:1452   */\n      swap1\n      pop\n        /* \"#utility.yul\":1331:1458   */\n      swap2\n      swap1\n      pop\n      jump\t// out\n        /* \"#utility.yul\":1464:1597   */\n    tag_46:\n        /* \"#utility.yul\":1547:1590   */\n      tag_107\n        /* \"#utility.yul\":1584:1589   */\n      dup2\n        /* \"#utility.yul\":1547:1590   */\n      tag_45\n      jump\t// in\n    tag_107:\n        /* \"#utility.yul\":1542:1545   */\n      dup3\n        /* \"#utility.yul\":1535:1591   */\n      mstore\n        /* \"#utility.yul\":1464:1597   */\n      pop\n      pop\n      jump\t// out\n        /* \"#utility.yul\":1603:1680   */\n    tag_47:\n        /* \"#utility.yul\":1640:1647   */\n      0x00\n        /* \"#utility.yul\":1669:1674   */\n      dup2\n        /* \"#utility.yul\":1658:1674   */\n      swap1\n      pop\n        /* \"#utility.yul\":1603:1680   */\n      swap2\n      swap1\n      pop\n      jump\t// out\n        /* \"#utility.yul\":1686:1794   */\n    tag_48:\n        /* \"#utility.yul\":1763:1787   */\n      tag_110\n        /* \"#utility.yul\":1781:1786   */\n      dup2\n        /* \"#utility.yul\":1763:1787   */\n      tag_47\n      jump\t// in\n    tag_110:\n        /* \"#utility.yul\":1758:1761   */\n      dup3\n        /* \"#utility.yul\":1751:1788   */\n      mstore\n        /* \"#utility.yul\":1686:1794   */\n      pop\n      pop\n      jump\t// out\n        /* \"#utility.yul\":1868:2665   */\n    tag_49:\n        /* \"#utility.yul\":1989:1992   */\n      0x00\n        /* \"#utility.yul\":2025:2029   */\n      0x60\n        /* \"#utility.yul\":2020:2023   */\n      dup4\n        /* \"#utility.yul\":2016:2030   */\n      add\n        /* \"#utility.yul\":2112:2116   */\n      0x00\n        /* \"#utility.yul\":2105:2110   */\n      dup4\n        /* \"#utility.yul\":2101:2117   */\n      add\n        /* \"#utility.yul\":2095:2118   */\n      mload\n        /* \"#utility.yul\":2165:2168   */\n      dup5\n        /* \"#utility.yul\":2159:2163   */\n      dup3\n        /* \"#utility.yul\":2155:2169   */\n      sub\n        /* \"#utility.yul\":2148:2152   */\n      0x00\n        /* \"#utility.yul\":2143:2146   */\n      dup7\n        /* \"#utility.yul\":2139:2153   */\n      add\n        /* \"#utility.yul\":2132:2170   */\n      mstore\n        /* \"#utility.yul\":2191:2264   */\n      tag_112\n        /* \"#utility.yul\":2259:2263   */\n      dup3\n        /* \"#utility.yul\":2245:2257   */\n      dup3\n        /* \"#utility.yul\":2191:2264   */\n      tag_42\n      jump\t// in\n    tag_112:\n        /* \"#utility.yul\":2183:2264   */\n      swap2\n      pop\n        /* \"#utility.yul\":2040:2275   */\n      pop\n        /* \"#utility.yul\":2358:2362   */\n      0x20\n        /* \"#utility.yul\":2351:2356   */\n      dup4\n        /* \"#utility.yul\":2347:2363   */\n      add\n        /* \"#utility.yul\":2341:2364   */\n      mload\n        /* \"#utility.yul\":2377:2446   */\n      tag_113\n        /* \"#utility.yul\":2440:2444   */\n      0x20\n        /* \"#utility.yul\":2435:2438   */\n      dup7\n        /* \"#utility.yul\":2431:2445   */\n      add\n        /* \"#utility.yul\":2417:2429   */\n      dup3\n        /* \"#utility.yul\":2377:2446   */\n      tag_46\n      jump\t// in\n    tag_113:\n        /* \"#utility.yul\":2285:2456   */\n      pop\n        /* \"#utility.yul\":2546:2550   */\n      0x40\n        /* \"#utility.yul\":2539:2544   */\n      dup4\n        /* \"#utility.yul\":2535:2551   */\n      add\n        /* \"#utility.yul\":2529:2552   */\n      mload\n        /* \"#utility.yul\":2565:2628   */\n      tag_114\n        /* \"#utility.yul\":2622:2626   */\n      0x40\n        /* \"#utility.yul\":2617:2620   */\n      dup7\n        /* \"#utility.yul\":2613:2627   */\n      add\n        /* \"#utility.yul\":2599:2611   */\n      dup3\n        /* \"#utility.yul\":2565:2628   */\n      tag_48\n      jump\t// in\n    tag_114:\n        /* \"#utility.yul\":2466:2638   */\n      pop\n        /* \"#utility.yul\":2655:2659   */\n      dup1\n        /* \"#utility.yul\":2648:2659   */\n      swap2\n      pop\n        /* \"#utility.yul\":1994:2665   */\n      pop\n        /* \"#utility.yul\":1868:2665   */\n      swap3\n      swap2\n      pop\n      pop\n      jump\t// out\n        /* \"#utility.yul\":2671:3048   */\n    tag_8:\n        /* \"#utility.yul\":2816:2820   */\n      0x00\n        /* \"#utility.yul\":2854:2856   */\n      0x20\n        /* \"#utility.yul\":2843:2852   */\n      dup3\n        /* \"#utility.yul\":2839:2857   */\n      add\n        /* \"#utility.yul\":2831:2857   */\n      swap1\n      pop\n        /* \"#utility.yul\":2903:2912   */\n      dup2\n        /* \"#utility.yul\":2897:2901   */\n      dup2\n        /* \"#utility.yul\":2893:2913   */\n      sub\n        /* \"#utility.yul\":2889:2890   */\n      0x00\n        /* \"#utility.yul\":2878:2887   */\n      dup4\n        /* \"#utility.yul\":2874:2891   */\n      add\n        /* \"#utility.yul\":2867:2914   */\n      mstore\n        /* \"#utility.yul\":2931:3041   */\n      tag_116\n        /* \"#utility.yul\":3036:3040   */\n      dup2\n        /* \"#utility.yul\":3027:3033   */\n      dup5\n        /* \"#utility.yul\":2931:3041   */\n      tag_49\n      jump\t// in\n    tag_116:\n        /* \"#utility.yul\":2923:3041   */\n      swap1\n      pop\n        /* \"#utility.yul\":2671:3048   */\n      swap3\n      swap2\n      pop\n      pop\n      jump\t// out\n        /* \"#utility.yul\":3054:3129   */\n    tag_50:\n        /* \"#utility.yul\":3087:3093   */\n      0x00\n        /* \"#utility.yul\":3120:3122   */\n      0x40\n        /* \"#utility.yul\":3114:3123   */\n      mload\n        /* \"#utility.yul\":3104:3123   */\n      swap1\n      pop\n        /* \"#utility.yul\":3054:3129   */\n      swap1\n      jump\t// out\n        /* \"#utility.yul\":3135:3252   */\n    tag_51:\n        /* \"#utility.yul\":3244:3245   */\n      0x00\n        /* \"#utility.yul\":3241:3242   */\n      dup1\n        /* \"#utility.yul\":3234:3246   */\n      revert\n        /* \"#utility.yul\":3258:3375   */\n    tag_52:\n        /* \"#utility.yul\":3367:3368   */\n      0x00\n        /* \"#utility.yul\":3364:3365   */\n      dup1\n        /* \"#utility.yul\":3357:3369   */\n      revert\n        /* \"#utility.yul\":3381:3488   */\n    tag_53:\n        /* \"#utility.yul\":3462:3463   */\n      0x03\n        /* \"#utility.yul\":3455:3460   */\n      dup2\n        /* \"#utility.yul\":3452:3464   */\n      lt\n        /* \"#utility.yul\":3442:3482   */\n      tag_121\n      jumpi\n        /* \"#utility.yul\":3478:3479   */\n      0x00\n        /* \"#utility.yul\":3475:3476   */\n      dup1\n        /* \"#utility.yul\":3468:3480   */\n      revert\n        /* \"#utility.yul\":3442:3482   */\n    tag_121:\n        /* \"#utility.yul\":3381:3488   */\n      pop\n      jump\t// out\n        /* \"#utility.yul\":3494:3649   */\n    tag_54:\n        /* \"#utility.yul\":3548:3553   */\n      0x00\n        /* \"#utility.yul\":3586:3592   */\n      dup2\n        /* \"#utility.yul\":3573:3593   */\n      calldataload\n        /* \"#utility.yul\":3564:3593   */\n      swap1\n      pop\n        /* \"#utility.yul\":3602:3643   */\n      tag_123\n        /* \"#utility.yul\":3637:3642   */\n      dup2\n        /* \"#utility.yul\":3602:3643   */\n      tag_53\n      jump\t// in\n    tag_123:\n        /* \"#utility.yul\":3494:3649   */\n      swap3\n      swap2\n      pop\n      pop\n      jump\t// out\n        /* \"#utility.yul\":3655:3772   */\n    tag_55:\n        /* \"#utility.yul\":3764:3765   */\n      0x00\n        /* \"#utility.yul\":3761:3762   */\n      dup1\n        /* \"#utility.yul\":3754:3766   */\n      revert\n        /* \"#utility.yul\":3778:3895   */\n    tag_56:\n        /* \"#utility.yul\":3887:3888   */\n      0x00\n        /* \"#utility.yul\":3884:3885   */\n      dup1\n        /* \"#utility.yul\":3877:3889   */\n      revert\n        /* \"#utility.yul\":3901:4081   */\n    tag_57:\n        /* \"#utility.yul\":3949:4026   */\n      0x4e487b7100000000000000000000000000000000000000000000000000000000\n        /* \"#utility.yul\":3946:3947   */\n      0x00\n        /* \"#utility.yul\":3939:4027   */\n      mstore\n        /* \"#utility.yul\":4046:4050   */\n      0x41\n        /* \"#utility.yul\":4043:4044   */\n      0x04\n        /* \"#utility.yul\":4036:4051   */\n      mstore\n        /* \"#utility.yul\":4070:4074   */\n      0x24\n        /* \"#utility.yul\":4067:4068   */\n      0x00\n        /* \"#utility.yul\":4060:4075   */\n      revert\n        /* \"#utility.yul\":4087:4368   */\n    tag_58:\n        /* \"#utility.yul\":4170:4197   */\n      tag_128\n        /* \"#utility.yul\":4192:4196   */\n      dup3\n        /* \"#utility.yul\":4170:4197   */\n      tag_41\n      jump\t// in\n    tag_128:\n        /* \"#utility.yul\":4162:4168   */\n      dup2\n        /* \"#utility.yul\":4158:4198   */\n      add\n        /* \"#utility.yul\":4300:4306   */\n      dup2\n        /* \"#utility.yul\":4288:4298   */\n      dup2\n        /* \"#utility.yul\":4285:4307   */\n      lt\n        /* \"#utility.yul\":4264:4282   */\n      0xffffffffffffffff\n        /* \"#utility.yul\":4252:4262   */\n      dup3\n        /* \"#utility.yul\":4249:4283   */\n      gt\n        /* \"#utility.yul\":4246:4308   */\n      or\n        /* \"#utility.yul\":4243:4331   */\n      iszero\n      tag_129\n      jumpi\n        /* \"#utility.yul\":4311:4329   */\n      tag_130\n      tag_57\n      jump\t// in\n    tag_130:\n        /* \"#utility.yul\":4243:4331   */\n    tag_129:\n        /* \"#utility.yul\":4351:4361   */\n      dup1\n        /* \"#utility.yul\":4347:4349   */\n      0x40\n        /* \"#utility.yul\":4340:4362   */\n      mstore\n        /* \"#utility.yul\":4130:4368   */\n      pop\n        /* \"#utility.yul\":4087:4368   */\n      pop\n      pop\n      jump\t// out\n        /* \"#utility.yul\":4374:4503   */\n    tag_59:\n        /* \"#utility.yul\":4408:4414   */\n      0x00\n        /* \"#utility.yul\":4435:4455   */\n      tag_132\n      tag_50\n      jump\t// in\n    tag_132:\n        /* \"#utility.yul\":4425:4455   */\n      swap1\n      pop\n        /* \"#utility.yul\":4464:4497   */\n      tag_133\n        /* \"#utility.yul\":4492:4496   */\n      dup3\n        /* \"#utility.yul\":4484:4490   */\n      dup3\n        /* \"#utility.yul\":4464:4497   */\n      tag_58\n      jump\t// in\n    tag_133:\n        /* \"#utility.yul\":4374:4503   */\n      swap2\n      swap1\n      pop\n      jump\t// out\n        /* \"#utility.yul\":4509:4817   */\n    tag_60:\n        /* \"#utility.yul\":4571:4575   */\n      0x00\n        /* \"#utility.yul\":4661:4679   */\n      0xffffffffffffffff\n        /* \"#utility.yul\":4653:4659   */\n      dup3\n        /* \"#utility.yul\":4650:4680   */\n      gt\n        /* \"#utility.yul\":4647:4703   */\n      iszero\n      tag_135\n      jumpi\n        /* \"#utility.yul\":4683:4701   */\n      tag_136\n      tag_57\n      jump\t// in\n    tag_136:\n        /* \"#utility.yul\":4647:4703   */\n    tag_135:\n        /* \"#utility.yul\":4721:4750   */\n      tag_137\n        /* \"#utility.yul\":4743:4749   */\n      dup3\n        /* \"#utility.yul\":4721:4750   */\n      tag_41\n      jump\t// in\n    tag_137:\n        /* \"#utility.yul\":4713:4750   */\n      swap1\n      pop\n        /* \"#utility.yul\":4805:4809   */\n      0x20\n        /* \"#utility.yul\":4799:4803   */\n      dup2\n        /* \"#utility.yul\":4795:4810   */\n      add\n        /* \"#utility.yul\":4787:4810   */\n      swap1\n      pop\n        /* \"#utility.yul\":4509:4817   */\n      swap2\n      swap1\n      pop\n      jump\t// out\n        /* \"#utility.yul\":4823:4971   */\n    tag_61:\n        /* \"#utility.yul\":4921:4927   */\n      dup3\n        /* \"#utility.yul\":4916:4919   */\n      dup2\n        /* \"#utility.yul\":4911:4914   */\n      dup4\n        /* \"#utility.yul\":4898:4928   */\n      calldatacopy\n        /* \"#utility.yul\":4962:4963   */\n      0x00\n        /* \"#utility.yul\":4953:4959   */\n      dup4\n        /* \"#utility.yul\":4948:4951   */\n      dup4\n        /* \"#utility.yul\":4944:4960   */\n      add\n        /* \"#utility.yul\":4937:4964   */\n      mstore\n        /* \"#utility.yul\":4823:4971   */\n      pop\n      pop\n      pop\n      jump\t// out\n        /* \"#utility.yul\":4977:5402   */\n    tag_62:\n        /* \"#utility.yul\":5055:5060   */\n      0x00\n        /* \"#utility.yul\":5080:5146   */\n      tag_140\n        /* \"#utility.yul\":5096:5145   */\n      tag_141\n        /* \"#utility.yul\":5138:5144   */\n      dup5\n        /* \"#utility.yul\":5096:5145   */\n      tag_60\n      jump\t// in\n    tag_141:\n        /* \"#utility.yul\":5080:5146   */\n      tag_59\n      jump\t// in\n    tag_140:\n        /* \"#utility.yul\":5071:5146   */\n      swap1\n      pop\n        /* \"#utility.yul\":5169:5175   */\n      dup3\n        /* \"#utility.yul\":5162:5167   */\n      dup2\n        /* \"#utility.yul\":5155:5176   */\n      mstore\n        /* \"#utility.yul\":5207:5211   */\n      0x20\n        /* \"#utility.yul\":5200:5205   */\n      dup2\n        /* \"#utility.yul\":5196:5212   */\n      add\n        /* \"#utility.yul\":5245:5248   */\n      dup5\n        /* \"#utility.yul\":5236:5242   */\n      dup5\n        /* \"#utility.yul\":5231:5234   */\n      dup5\n        /* \"#utility.yul\":5227:5243   */\n      add\n        /* \"#utility.yul\":5224:5249   */\n      gt\n        /* \"#utility.yul\":5221:5333   */\n      iszero\n      tag_142\n      jumpi\n        /* \"#utility.yul\":5252:5331   */\n      tag_143\n      tag_56\n      jump\t// in\n    tag_143:\n        /* \"#utility.yul\":5221:5333   */\n    tag_142:\n        /* \"#utility.yul\":5342:5396   */\n      tag_144\n        /* \"#utility.yul\":5389:5395   */\n      dup5\n        /* \"#utility.yul\":5384:5387   */\n      dup3\n        /* \"#utility.yul\":5379:5382   */\n      dup6\n        /* \"#utility.yul\":5342:5396   */\n      tag_61\n      jump\t// in\n    tag_144:\n        /* \"#utility.yul\":5061:5402   */\n      pop\n        /* \"#utility.yul\":4977:5402   */\n      swap4\n      swap3\n      pop\n      pop\n      pop\n      jump\t// out\n        /* \"#utility.yul\":5422:5762   */\n    tag_63:\n        /* \"#utility.yul\":5478:5483   */\n      0x00\n        /* \"#utility.yul\":5527:5530   */\n      dup3\n        /* \"#utility.yul\":5520:5524   */\n      0x1f\n        /* \"#utility.yul\":5512:5518   */\n      dup4\n        /* \"#utility.yul\":5508:5525   */\n      add\n        /* \"#utility.yul\":5504:5531   */\n      slt\n        /* \"#utility.yul\":5494:5616   */\n      tag_146\n      jumpi\n        /* \"#utility.yul\":5535:5614   */\n      tag_147\n      tag_55\n      jump\t// in\n    tag_147:\n        /* \"#utility.yul\":5494:5616   */\n    tag_146:\n        /* \"#utility.yul\":5652:5658   */\n      dup2\n        /* \"#utility.yul\":5639:5659   */\n      calldataload\n        /* \"#utility.yul\":5677:5756   */\n      tag_148\n        /* \"#utility.yul\":5752:5755   */\n      dup5\n        /* \"#utility.yul\":5744:5750   */\n      dup3\n        /* \"#utility.yul\":5737:5741   */\n      0x20\n        /* \"#utility.yul\":5729:5735   */\n      dup7\n        /* \"#utility.yul\":5725:5742   */\n      add\n        /* \"#utility.yul\":5677:5756   */\n      tag_62\n      jump\t// in\n    tag_148:\n        /* \"#utility.yul\":5668:5756   */\n      swap2\n      pop\n        /* \"#utility.yul\":5484:5762   */\n      pop\n        /* \"#utility.yul\":5422:5762   */\n      swap3\n      swap2\n      pop\n      pop\n      jump\t// out\n        /* \"#utility.yul\":5768:6438   */\n    tag_11:\n        /* \"#utility.yul\":5854:5860   */\n      0x00\n        /* \"#utility.yul\":5862:5868   */\n      dup1\n        /* \"#utility.yul\":5911:5913   */\n      0x40\n        /* \"#utility.yul\":5899:5908   */\n      dup4\n        /* \"#utility.yul\":5890:5897   */\n      dup6\n        /* \"#utility.yul\":5886:5909   */\n      sub\n        /* \"#utility.yul\":5882:5914   */\n      slt\n        /* \"#utility.yul\":5879:5998   */\n      iszero\n      tag_150\n      jumpi\n        /* \"#utility.yul\":5917:5996   */\n      tag_151\n      tag_51\n      jump\t// in\n    tag_151:\n        /* \"#utility.yul\":5879:5998   */\n    tag_150:\n        /* \"#utility.yul\":6037:6038   */\n      0x00\n        /* \"#utility.yul\":6062:6123   */\n      tag_152\n        /* \"#utility.yul\":6115:6122   */\n      dup6\n        /* \"#utility.yul\":6106:6112   */\n      dup3\n        /* \"#utility.yul\":6095:6104   */\n      dup7\n        /* \"#utility.yul\":6091:6113   */\n      add\n        /* \"#utility.yul\":6062:6123   */\n      tag_54\n      jump\t// in\n    tag_152:\n        /* \"#utility.yul\":6052:6123   */\n      swap3\n      pop\n        /* \"#utility.yul\":6008:6133   */\n      pop\n        /* \"#utility.yul\":6200:6202   */\n      0x20\n        /* \"#utility.yul\":6189:6198   */\n      dup4\n        /* \"#utility.yul\":6185:6203   */\n      add\n        /* \"#utility.yul\":6172:6204   */\n      calldataload\n        /* \"#utility.yul\":6231:6249   */\n      0xffffffffffffffff\n        /* \"#utility.yul\":6223:6229   */\n      dup2\n        /* \"#utility.yul\":6220:6250   */\n      gt\n        /* \"#utility.yul\":6217:6334   */\n      iszero\n      tag_153\n      jumpi\n        /* \"#utility.yul\":6253:6332   */\n      tag_154\n      tag_52\n      jump\t// in\n    tag_154:\n        /* \"#utility.yul\":6217:6334   */\n    tag_153:\n        /* \"#utility.yul\":6358:6421   */\n      tag_155\n        /* \"#utility.yul\":6413:6420   */\n      dup6\n        /* \"#utility.yul\":6404:6410   */\n      dup3\n        /* \"#utility.yul\":6393:6402   */\n      dup7\n        /* \"#utility.yul\":6389:6411   */\n      add\n        /* \"#utility.yul\":6358:6421   */\n      tag_63\n      jump\t// in\n    tag_155:\n        /* \"#utility.yul\":6348:6421   */\n      swap2\n      pop\n        /* \"#utility.yul\":6143:6431   */\n      pop\n        /* \"#utility.yul\":5768:6438   */\n      swap3\n      pop\n      swap3\n      swap1\n      pop\n      jump\t// out\n        /* \"#utility.yul\":6444:6624   */\n    tag_64:\n        /* \"#utility.yul\":6492:6569   */\n      0x4e487b7100000000000000000000000000000000000000000000000000000000\n        /* \"#utility.yul\":6489:6490   */\n      0x00\n        /* \"#utility.yul\":6482:6570   */\n      mstore\n        /* \"#utility.yul\":6589:6593   */\n      0x22\n        /* \"#utility.yul\":6586:6587   */\n      0x04\n        /* \"#utility.yul\":6579:6594   */\n      mstore\n        /* \"#utility.yul\":6613:6617   */\n      0x24\n        /* \"#utility.yul\":6610:6611   */\n      0x00\n        /* \"#utility.yul\":6603:6618   */\n      revert\n        /* \"#utility.yul\":6630:6950   */\n    tag_17:\n        /* \"#utility.yul\":6674:6680   */\n      0x00\n        /* \"#utility.yul\":6711:6712   */\n      0x02\n        /* \"#utility.yul\":6705:6709   */\n      dup3\n        /* \"#utility.yul\":6701:6713   */\n      div\n        /* \"#utility.yul\":6691:6713   */\n      swap1\n      pop\n        /* \"#utility.yul\":6758:6759   */\n      0x01\n        /* \"#utility.yul\":6752:6756   */\n      dup3\n        /* \"#utility.yul\":6748:6760   */\n      and\n        /* \"#utility.yul\":6779:6797   */\n      dup1\n        /* \"#utility.yul\":6769:6850   */\n      tag_158\n      jumpi\n        /* \"#utility.yul\":6835:6839   */\n      0x7f\n        /* \"#utility.yul\":6827:6833   */\n      dup3\n        /* \"#utility.yul\":6823:6840   */\n      and\n        /* \"#utility.yul\":6813:6840   */\n      swap2\n      pop\n        /* \"#utility.yul\":6769:6850   */\n    tag_158:\n        /* \"#utility.yul\":6897:6899   */\n      0x20\n        /* \"#utility.yul\":6889:6895   */\n      dup3\n        /* \"#utility.yul\":6886:6900   */\n      lt\n        /* \"#utility.yul\":6866:6884   */\n      dup2\n        /* \"#utility.yul\":6863:6901   */\n      sub\n        /* \"#utility.yul\":6860:6944   */\n      tag_159\n      jumpi\n        /* \"#utility.yul\":6916:6934   */\n      tag_160\n      tag_64\n      jump\t// in\n    tag_160:\n        /* \"#utility.yul\":6860:6944   */\n    tag_159:\n        /* \"#utility.yul\":6681:6950   */\n      pop\n        /* \"#utility.yul\":6630:6950   */\n      swap2\n      swap1\n      pop\n      jump\t// out\n        /* \"#utility.yul\":6956:7136   */\n    tag_65:\n        /* \"#utility.yul\":7004:7081   */\n      0x4e487b7100000000000000000000000000000000000000000000000000000000\n        /* \"#utility.yul\":7001:7002   */\n      0x00\n        /* \"#utility.yul\":6994:7082   */\n      mstore\n        /* \"#utility.yul\":7101:7105   */\n      0x11\n        /* \"#utility.yul\":7098:7099   */\n      0x04\n        /* \"#utility.yul\":7091:7106   */\n      mstore\n        /* \"#utility.yul\":7125:7129   */\n      0x24\n        /* \"#utility.yul\":7122:7123   */\n      0x00\n        /* \"#utility.yul\":7115:7130   */\n      revert\n        /* \"#utility.yul\":7142:7375   */\n    tag_29:\n        /* \"#utility.yul\":7181:7184   */\n      0x00\n        /* \"#utility.yul\":7204:7228   */\n      tag_163\n        /* \"#utility.yul\":7222:7227   */\n      dup3\n        /* \"#utility.yul\":7204:7228   */\n      tag_47\n      jump\t// in\n    tag_163:\n        /* \"#utility.yul\":7195:7228   */\n      swap2\n      pop\n        /* \"#utility.yul\":7250:7316   */\n      0xffffffffffffffffffffffffffffffffffffffffffffffffffffffffffffffff\n        /* \"#utility.yul\":7243:7248   */\n      dup3\n        /* \"#utility.yul\":7240:7317   */\n      sub\n        /* \"#utility.yul\":7237:7340   */\n      tag_164\n      jumpi\n        /* \"#utility.yul\":7320:7338   */\n      tag_165\n      tag_65\n      jump\t// in\n    tag_165:\n        /* \"#utility.yul\":7237:7340   */\n    tag_164:\n        /* \"#utility.yul\":7367:7368   */\n      0x01\n        /* \"#utility.yul\":7360:7365   */\n      dup3\n        /* \"#utility.yul\":7356:7369   */\n      add\n        /* \"#utility.yul\":7349:7369   */\n      swap1\n      pop\n        /* \"#utility.yul\":7142:7375   */\n      swap2\n      swap1\n      pop\n      jump\t// out\n        /* \"#utility.yul\":7381:7507   */\n    tag_66:\n        /* \"#utility.yul\":7418:7425   */\n      0x00\n        /* \"#utility.yul\":7458:7500   */\n      0xffffffffffffffffffffffffffffffffffffffff\n        /* \"#utility.yul\":7451:7456   */\n      dup3\n        /* \"#utility.yul\":7447:7501   */\n      and\n        /* \"#utility.yul\":7436:7501   */\n      swap1\n      pop\n        /* \"#utility.yul\":7381:7507   */\n      swap2\n      swap1\n      pop\n      jump\t// out\n        /* \"#utility.yul\":7513:7609   */\n    tag_67:\n        /* \"#utility.yul\":7550:7557   */\n      0x00\n        /* \"#utility.yul\":7579:7603   */\n      tag_168\n        /* \"#utility.yul\":7597:7602   */\n      dup3\n        /* \"#utility.yul\":7579:7603   */\n      tag_66\n      jump\t// in\n    tag_168:\n        /* \"#utility.yul\":7568:7603   */\n      swap1\n      pop\n        /* \"#utility.yul\":7513:7609   */\n      swap2\n      swap1\n      pop\n      jump\t// out\n        /* \"#utility.yul\":7615:7733   */\n    tag_68:\n        /* \"#utility.yul\":7702:7726   */\n      tag_170\n        /* \"#utility.yul\":7720:7725   */\n      dup2\n        /* \"#utility.yul\":7702:7726   */\n      tag_67\n      jump\t// in\n    tag_170:\n        /* \"#utility.yul\":7697:7700   */\n      dup3\n        /* \"#utility.yul\":7690:7727   */\n      mstore\n        /* \"#utility.yul\":7615:7733   */\n      pop\n      pop\n      jump\t// out\n        /* \"#utility.yul\":7739:7857   */\n    tag_69:\n        /* \"#utility.yul\":7826:7850   */\n      tag_172\n        /* \"#utility.yul\":7844:7849   */\n      dup2\n        /* \"#utility.yul\":7826:7850   */\n      tag_47\n      jump\t// in\n    tag_172:\n        /* \"#utility.yul\":7821:7824   */\n      dup3\n        /* \"#utility.yul\":7814:7851   */\n      mstore\n        /* \"#utility.yul\":7739:7857   */\n      pop\n      pop\n      jump\t// out\n        /* \"#utility.yul\":7863:8032   */\n    tag_70:\n        /* \"#utility.yul\":7947:7958   */\n      0x00\n        /* \"#utility.yul\":7981:7987   */\n      dup3\n        /* \"#utility.yul\":7976:7979   */\n      dup3\n        /* \"#utility.yul\":7969:7988   */\n      mstore\n        /* \"#utility.yul\":8021:8025   */\n      0x20\n        /* \"#utility.yul\":8016:8019   */\n      dup3\n        /* \"#utility.yul\":8012:8026   */\n      add\n        /* \"#utility.yul\":7997:8026   */\n      swap1\n      pop\n        /* \"#utility.yul\":7863:8032   */\n      swap3\n      swap2\n      pop\n      pop\n      jump\t// out\n        /* \"#utility.yul\":8038:8179   */\n    tag_71:\n        /* \"#utility.yul\":8087:8091   */\n      0x00\n        /* \"#utility.yul\":8110:8113   */\n      dup2\n        /* \"#utility.yul\":8102:8113   */\n      swap1\n      pop\n        /* \"#utility.yul\":8133:8136   */\n      dup2\n        /* \"#utility.yul\":8130:8131   */\n      0x00\n        /* \"#utility.yul\":8123:8137   */\n      mstore\n        /* \"#utility.yul\":8167:8171   */\n      0x20\n        /* \"#utility.yul\":8164:8165   */\n      0x00\n        /* \"#utility.yul\":8154:8172   */\n      keccak256\n        /* \"#utility.yul\":8146:8172   */\n      swap1\n      pop\n        /* \"#utility.yul\":8038:8179   */\n      swap2\n      swap1\n      pop\n      jump\t// out\n        /* \"#utility.yul\":8209:9040   */\n    tag_72:\n        /* \"#utility.yul\":8294:8297   */\n      0x00\n        /* \"#utility.yul\":8331:8336   */\n      dup2\n        /* \"#utility.yul\":8325:8337   */\n      sload\n        /* \"#utility.yul\":8360:8396   */\n      tag_176\n        /* \"#utility.yul\":8386:8395   */\n      dup2\n        /* \"#utility.yul\":8360:8396   */\n      tag_17\n      jump\t// in\n    tag_176:\n        /* \"#utility.yul\":8412:8483   */\n      tag_177\n        /* \"#utility.yul\":8476:8482   */\n      dup2\n        /* \"#utility.yul\":8471:8474   */\n      dup7\n        /* \"#utility.yul\":8412:8483   */\n      tag_70\n      jump\t// in\n    tag_177:\n        /* \"#utility.yul\":8405:8483   */\n      swap5\n      pop\n        /* \"#utility.yul\":8514:8515   */\n      0x01\n        /* \"#utility.yul\":8503:8512   */\n      dup3\n        /* \"#utility.yul\":8499:8516   */\n      and\n        /* \"#utility.yul\":8530:8531   */\n      0x00\n        /* \"#utility.yul\":8525:8689   */\n      dup2\n      eq\n      tag_179\n      jumpi\n        /* \"#utility.yul\":8703:8704   */\n      0x01\n        /* \"#utility.yul\":8698:9034   */\n      dup2\n      eq\n      tag_180\n      jumpi\n        /* \"#utility.yul\":8492:9034   */\n      jump(tag_178)\n        /* \"#utility.yul\":8525:8689   */\n    tag_179:\n        /* \"#utility.yul\":8609:8613   */\n      0xff\n        /* \"#utility.yul\":8605:8614   */\n      not\n        /* \"#utility.yul\":8594:8603   */\n      dup4\n        /* \"#utility.yul\":8590:8615   */\n      and\n        /* \"#utility.yul\":8585:8588   */\n      dup7\n        /* \"#utility.yul\":8578:8616   */\n      mstore\n        /* \"#utility.yul\":8669:8675   */\n      dup2\n        /* \"#utility.yul\":8662:8676   */\n      iszero\n        /* \"#utility.yul\":8655:8677   */\n      iszero\n        /* \"#utility.yul\":8649:8653   */\n      0x20\n        /* \"#utility.yul\":8645:8678   */\n      mul\n        /* \"#utility.yul\":8640:8643   */\n      dup7\n        /* \"#utility.yul\":8636:8679   */\n      add\n        /* \"#utility.yul\":8629:8679   */\n      swap4\n      pop\n        /* \"#utility.yul\":8525:8689   */\n      jump(tag_178)\n        /* \"#utility.yul\":8698:9034   */\n    tag_180:\n        /* \"#utility.yul\":8765:8803   */\n      tag_181\n        /* \"#utility.yul\":8797:8802   */\n      dup6\n        /* \"#utility.yul\":8765:8803   */\n      tag_71\n      jump\t// in\n    tag_181:\n        /* \"#utility.yul\":8825:8826   */\n      0x00\n        /* \"#utility.yul\":8839:8993   */\n    tag_182:\n        /* \"#utility.yul\":8853:8859   */\n      dup4\n        /* \"#utility.yul\":8850:8851   */\n      dup2\n        /* \"#utility.yul\":8847:8860   */\n      lt\n        /* \"#utility.yul\":8839:8993   */\n      iszero\n      tag_184\n      jumpi\n        /* \"#utility.yul\":8927:8934   */\n      dup2\n        /* \"#utility.yul\":8921:8935   */\n      sload\n        /* \"#utility.yul\":8917:8918   */\n      dup2\n        /* \"#utility.yul\":8912:8915   */\n      dup10\n        /* \"#utility.yul\":8908:8919   */\n      add\n        /* \"#utility.yul\":8901:8936   */\n      mstore\n        /* \"#utility.yul\":8977:8978   */\n      0x01\n        /* \"#utility.yul\":8968:8975   */\n      dup3\n        /* \"#utility.yul\":8964:8979   */\n      add\n        /* \"#utility.yul\":8953:8979   */\n      swap2\n      pop\n        /* \"#utility.yul\":8875:8879   */\n      0x20\n        /* \"#utility.yul\":8872:8873   */\n      dup2\n        /* \"#utility.yul\":8868:8880   */\n      add\n        /* \"#utility.yul\":8863:8880   */\n      swap1\n      pop\n        /* \"#utility.yul\":8839:8993   */\n      jump(tag_182)\n    tag_184:\n        /* \"#utility.yul\":9022:9023   */\n      dup1\n        /* \"#utility.yul\":9017:9020   */\n      dup9\n        /* \"#utility.yul\":9013:9024   */\n      add\n        /* \"#utility.yul\":9006:9024   */\n      swap6\n      pop\n        /* \"#utility.yul\":8705:9034   */\n      pop\n      pop\n        /* \"#utility.yul\":8492:9034   */\n    tag_178:\n      pop\n        /* \"#utility.yul\":8298:9040   */\n      pop\n      pop\n        /* \"#utility.yul\":8209:9040   */\n      swap3\n      swap2\n      pop\n      pop\n      jump\t// out\n        /* \"#utility.yul\":9046:9423   */\n    tag_73:\n        /* \"#utility.yul\":9134:9137   */\n      0x00\n        /* \"#utility.yul\":9162:9201   */\n      tag_186\n        /* \"#utility.yul\":9195:9200   */\n      dup3\n        /* \"#utility.yul\":9162:9201   */\n      tag_38\n      jump\t// in\n    tag_186:\n        /* \"#utility.yul\":9217:9288   */\n      tag_187\n        /* \"#utility.yul\":9281:9287   */\n      dup2\n        /* \"#utility.yul\":9276:9279   */\n      dup6\n        /* \"#utility.yul\":9217:9288   */\n      tag_70\n      jump\t// in\n    tag_187:\n        /* \"#utility.yul\":9210:9288   */\n      swap4\n      pop\n        /* \"#utility.yul\":9297:9362   */\n      tag_188\n        /* \"#utility.yul\":9355:9361   */\n      dup2\n        /* \"#utility.yul\":9350:9353   */\n      dup6\n        /* \"#utility.yul\":9343:9347   */\n      0x20\n        /* \"#utility.yul\":9336:9341   */\n      dup7\n        /* \"#utility.yul\":9332:9348   */\n      add\n        /* \"#utility.yul\":9297:9362   */\n      tag_40\n      jump\t// in\n    tag_188:\n        /* \"#utility.yul\":9387:9416   */\n      tag_189\n        /* \"#utility.yul\":9409:9415   */\n      dup2\n        /* \"#utility.yul\":9387:9416   */\n      tag_41\n      jump\t// in\n    tag_189:\n        /* \"#utility.yul\":9382:9385   */\n      dup5\n        /* \"#utility.yul\":9378:9417   */\n      add\n        /* \"#utility.yul\":9371:9417   */\n      swap2\n      pop\n        /* \"#utility.yul\":9138:9423   */\n      pop\n        /* \"#utility.yul\":9046:9423   */\n      swap3\n      swap2\n      pop\n      pop\n      jump\t// out\n        /* \"#utility.yul\":9429:10158   */\n    tag_31:\n        /* \"#utility.yul\":9643:9647   */\n      0x00\n        /* \"#utility.yul\":9681:9684   */\n      0x80\n        /* \"#utility.yul\":9670:9679   */\n      dup3\n        /* \"#utility.yul\":9666:9685   */\n      add\n        /* \"#utility.yul\":9658:9685   */\n      swap1\n      pop\n        /* \"#utility.yul\":9695:9766   */\n      tag_191\n        /* \"#utility.yul\":9763:9764   */\n      0x00\n        /* \"#utility.yul\":9752:9761   */\n      dup4\n        /* \"#utility.yul\":9748:9765   */\n      add\n        /* \"#utility.yul\":9739:9745   */\n      dup8\n        /* \"#utility.yul\":9695:9766   */\n      tag_68\n      jump\t// in\n    tag_191:\n        /* \"#utility.yul\":9776:9848   */\n      tag_192\n        /* \"#utility.yul\":9844:9846   */\n      0x20\n        /* \"#utility.yul\":9833:9842   */\n      dup4\n        /* \"#utility.yul\":9829:9847   */\n      add\n        /* \"#utility.yul\":9820:9826   */\n      dup7\n        /* \"#utility.yul\":9776:9848   */\n      tag_69\n      jump\t// in\n    tag_192:\n        /* \"#utility.yul\":9895:9904   */\n      dup2\n        /* \"#utility.yul\":9889:9893   */\n      dup2\n        /* \"#utility.yul\":9885:9905   */\n      sub\n        /* \"#utility.yul\":9880:9882   */\n      0x40\n        /* \"#utility.yul\":9869:9878   */\n      dup4\n        /* \"#utility.yul\":9865:9883   */\n      add\n        /* \"#utility.yul\":9858:9906   */\n      mstore\n        /* \"#utility.yul\":9923:9998   */\n      tag_193\n        /* \"#utility.yul\":9993:9997   */\n      dup2\n        /* \"#utility.yul\":9984:9990   */\n      dup6\n        /* \"#utility.yul\":9923:9998   */\n      tag_72\n      jump\t// in\n    tag_193:\n        /* \"#utility.yul\":9915:9998   */\n      swap1\n      pop\n        /* \"#utility.yul\":10045:10054   */\n      dup2\n        /* \"#utility.yul\":10039:10043   */\n      dup2\n        /* \"#utility.yul\":10035:10055   */\n      sub\n        /* \"#utility.yul\":10030:10032   */\n      0x60\n        /* \"#utility.yul\":10019:10028   */\n      dup4\n        /* \"#utility.yul\":10015:10033   */\n      add\n        /* \"#utility.yul\":10008:10056   */\n      mstore\n        /* \"#utility.yul\":10073:10151   */\n      tag_194\n        /* \"#utility.yul\":10146:10150   */\n      dup2\n        /* \"#utility.yul\":10137:10143   */\n      dup5\n        /* \"#utility.yul\":10073:10151   */\n      tag_73\n      jump\t// in\n    tag_194:\n        /* \"#utility.yul\":10065:10151   */\n      swap1\n      pop\n        /* \"#utility.yul\":9429:10158   */\n      swap6\n      swap5\n      pop\n      pop\n      pop\n      pop\n      pop\n      jump\t// out\n        /* \"#utility.yul\":10164:10257   */\n    tag_74:\n        /* \"#utility.yul\":10201:10207   */\n      0x00\n        /* \"#utility.yul\":10248:10250   */\n      0x20\n        /* \"#utility.yul\":10243:10245   */\n      0x1f\n        /* \"#utility.yul\":10236:10241   */\n      dup4\n        /* \"#utility.yul\":10232:10246   */\n      add\n        /* \"#utility.yul\":10228:10251   */\n      div\n        /* \"#utility.yul\":10218:10251   */\n      swap1\n      pop\n        /* \"#utility.yul\":10164:10257   */\n      swap2\n      swap1\n      pop\n      jump\t// out\n        /* \"#utility.yul\":10263:10370   */\n    tag_75:\n        /* \"#utility.yul\":10307:10315   */\n      0x00\n        /* \"#utility.yul\":10357:10362   */\n      dup3\n        /* \"#utility.yul\":10351:10355   */\n      dup3\n        /* \"#utility.yul\":10347:10363   */\n      shl\n        /* \"#utility.yul\":10326:10363   */\n      swap1\n      pop\n        /* \"#utility.yul\":10263:10370   */\n      swap3\n      swap2\n      pop\n      pop\n      jump\t// out\n        /* \"#utility.yul\":10376:10769   */\n    tag_76:\n        /* \"#utility.yul\":10445:10451   */\n      0x00\n        /* \"#utility.yul\":10495:10496   */\n      0x08\n        /* \"#utility.yul\":10483:10493   */\n      dup4\n        /* \"#utility.yul\":10479:10497   */\n      mul\n        /* \"#utility.yul\":10518:10615   */\n      tag_198\n        /* \"#utility.yul\":10548:10614   */\n      0xffffffffffffffffffffffffffffffffffffffffffffffffffffffffffffffff\n        /* \"#utility.yul\":10537:10546   */\n      dup3\n        /* \"#utility.yul\":10518:10615   */\n      tag_75\n      jump\t// in\n    tag_198:\n        /* \"#utility.yul\":10636:10675   */\n      tag_199\n        /* \"#utility.yul\":10666:10674   */\n      dup7\n        /* \"#utility.yul\":10655:10664   */\n      dup4\n        /* \"#utility.yul\":10636:10675   */\n      tag_75\n      jump\t// in\n    tag_199:\n        /* \"#utility.yul\":10624:10675   */\n      swap6\n      pop\n        /* \"#utility.yul\":10708:10712   */\n      dup1\n        /* \"#utility.yul\":10704:10713   */\n      not\n        /* \"#utility.yul\":10697:10702   */\n      dup5\n        /* \"#utility.yul\":10693:10714   */\n      and\n        /* \"#utility.yul\":10684:10714   */\n      swap4\n      pop\n        /* \"#utility.yul\":10757:10761   */\n      dup1\n        /* \"#utility.yul\":10747:10755   */\n      dup7\n        /* \"#utility.yul\":10743:10762   */\n      and\n        /* \"#utility.yul\":10736:10741   */\n      dup5\n        /* \"#utility.yul\":10733:10763   */\n      or\n        /* \"#utility.yul\":10723:10763   */\n      swap3\n      pop\n        /* \"#utility.yul\":10452:10769   */\n      pop\n      pop\n        /* \"#utility.yul\":10376:10769   */\n      swap4\n      swap3\n      pop\n      pop\n      pop\n      jump\t// out\n        /* \"#utility.yul\":10775:10835   */\n    tag_77:\n        /* \"#utility.yul\":10803:10806   */\n      0x00\n        /* \"#utility.yul\":10824:10829   */\n      dup2\n        /* \"#utility.yul\":10817:10829   */\n      swap1\n      pop\n        /* \"#utility.yul\":10775:10835   */\n      swap2\n      swap1\n      pop\n      jump\t// out\n        /* \"#utility.yul\":10841:10983   */\n    tag_78:\n        /* \"#utility.yul\":10891:10900   */\n      0x00\n        /* \"#utility.yul\":10924:10977   */\n      tag_202\n        /* \"#utility.yul\":10942:10976   */\n      tag_203\n        /* \"#utility.yul\":10951:10975   */\n      tag_204\n        /* \"#utility.yul\":10969:10974   */\n      dup5\n        /* \"#utility.yul\":10951:10975   */\n      tag_47\n      jump\t// in\n    tag_204:\n        /* \"#utility.yul\":10942:10976   */\n      tag_77\n      jump\t// in\n    tag_203:\n        /* \"#utility.yul\":10924:10977   */\n      tag_47\n      jump\t// in\n    tag_202:\n        /* \"#utility.yul\":10911:10977   */\n      swap1\n      pop\n        /* \"#utility.yul\":10841:10983   */\n      swap2\n      swap1\n      pop\n      jump\t// out\n        /* \"#utility.yul\":10989:11064   */\n    tag_79:\n        /* \"#utility.yul\":11032:11035   */\n      0x00\n        /* \"#utility.yul\":11053:11058   */\n      dup2\n        /* \"#utility.yul\":11046:11058   */\n      swap1\n      pop\n        /* \"#utility.yul\":10989:11064   */\n      swap2\n      swap1\n      pop\n      jump\t// out\n        /* \"#utility.yul\":11070:11339   */\n    tag_80:\n        /* \"#utility.yul\":11180:11219   */\n      tag_207\n        /* \"#utility.yul\":11211:11218   */\n      dup4\n        /* \"#utility.yul\":11180:11219   */\n      tag_78\n      jump\t// in\n    tag_207:\n        /* \"#utility.yul\":11241:11332   */\n      tag_208\n        /* \"#utility.yul\":11290:11331   */\n      tag_209\n        /* \"#utility.yul\":11314:11330   */\n      dup3\n        /* \"#utility.yul\":11290:11331   */\n      tag_79\n      jump\t// in\n    tag_209:\n        /* \"#utility.yul\":11282:11288   */\n      dup5\n        /* \"#utility.yul\":11275:11279   */\n      dup5\n        /* \"#utility.yul\":11269:11280   */\n      sload\n        /* \"#utility.yul\":11241:11332   */\n      tag_76\n      jump\t// in\n    tag_208:\n        /* \"#utility.yul\":11235:11239   */\n      dup3\n        /* \"#utility.yul\":11228:11333   */\n      sstore\n        /* \"#utility.yul\":11146:11339   */\n      pop\n        /* \"#utility.yul\":11070:11339   */\n      pop\n      pop\n      pop\n      jump\t// out\n        /* \"#utility.yul\":11345:11418   */\n    tag_81:\n        /* \"#utility.yul\":11390:11393   */\n      0x00\n        /* \"#utility.yul\":11345:11418   */\n      swap1\n      jump\t// out\n        /* \"#utility.yul\":11424:11613   */\n    tag_82:\n        /* \"#utility.yul\":11501:11533   */\n      tag_212\n      tag_81\n      jump\t// in\n    tag_212:\n        /* \"#utility.yul\":11542:11607   */\n      tag_213\n        /* \"#utility.yul\":11600:11606   */\n      dup2\n        /* \"#utility.yul\":11592:11598   */\n      dup5\n        /* \"#utility.yul\":11586:11590   */\n      dup5\n        /* \"#utility.yul\":11542:11607   */\n      tag_80\n      jump\t// in\n    tag_213:\n        /* \"#utility.yul\":11477:11613   */\n      pop\n        /* \"#utility.yul\":11424:11613   */\n      pop\n      pop\n      jump\t// out\n        /* \"#utility.yul\":11619:11805   */\n    tag_83:\n        /* \"#utility.yul\":11679:11799   */\n    tag_215:\n        /* \"#utility.yul\":11696:11699   */\n      dup2\n        /* \"#utility.yul\":11689:11694   */\n      dup2\n        /* \"#utility.yul\":11686:11700   */\n      lt\n        /* \"#utility.yul\":11679:11799   */\n      iszero\n      tag_217\n      jumpi\n        /* \"#utility.yul\":11750:11789   */\n      tag_218\n        /* \"#utility.yul\":11787:11788   */\n      0x00\n        /* \"#utility.yul\":11780:11785   */\n      dup3\n        /* \"#utility.yul\":11750:11789   */\n      tag_82\n      jump\t// in\n    tag_218:\n        /* \"#utility.yul\":11723:11724   */\n      0x01\n        /* \"#utility.yul\":11716:11721   */\n      dup2\n        /* \"#utility.yul\":11712:11725   */\n      add\n        /* \"#utility.yul\":11703:11725   */\n      swap1\n      pop\n        /* \"#utility.yul\":11679:11799   */\n      jump(tag_215)\n    tag_217:\n        /* \"#utility.yul\":11619:11805   */\n      pop\n      pop\n      jump\t// out\n        /* \"#utility.yul\":11811:12354   */\n    tag_84:\n        /* \"#utility.yul\":11912:11914   */\n      0x1f\n        /* \"#utility.yul\":11907:11910   */\n      dup3\n        /* \"#utility.yul\":11904:11915   */\n      gt\n        /* \"#utility.yul\":11901:12347   */\n      iszero\n      tag_220\n      jumpi\n        /* \"#utility.yul\":11946:11984   */\n      tag_221\n        /* \"#utility.yul\":11978:11983   */\n      dup2\n        /* \"#utility.yul\":11946:11984   */\n      tag_71\n      jump\t// in\n    tag_221:\n        /* \"#utility.yul\":12030:12059   */\n      tag_222\n        /* \"#utility.yul\":12048:12058   */\n      dup5\n        /* \"#utility.yul\":12030:12059   */\n      tag_74\n      jump\t// in\n    tag_222:\n        /* \"#utility.yul\":12020:12028   */\n      dup2\n        /* \"#utility.yul\":12016:12060   */\n      add\n        /* \"#utility.yul\":12213:12215   */\n      0x20\n        /* \"#utility.yul\":12201:12211   */\n      dup6\n        /* \"#utility.yul\":12198:12216   */\n      lt\n        /* \"#utility.yul\":12195:12244   */\n      iszero\n      tag_223\n      jumpi\n        /* \"#utility.yul\":12234:12242   */\n      dup2\n        /* \"#utility.yul\":12219:12242   */\n      swap1\n      pop\n        /* \"#utility.yul\":12195:12244   */\n    tag_223:\n        /* \"#utility.yul\":12257:12337   */\n      tag_224\n        /* \"#utility.yul\":12313:12335   */\n      tag_225\n        /* \"#utility.yul\":12331:12334   */\n      dup6\n        /* \"#utility.yul\":12313:12335   */\n      tag_74\n      jump\t// in\n    tag_225:\n        /* \"#utility.yul\":12303:12311   */\n      dup4\n        /* \"#utility.yul\":12299:12336   */\n      add\n        /* \"#utility.yul\":12286:12297   */\n      dup3\n        /* \"#utility.yul\":12257:12337   */\n      tag_83\n      jump\t// in\n    tag_224:\n        /* \"#utility.yul\":11916:12347   */\n      pop\n      pop\n        /* \"#utility.yul\":11901:12347   */\n    tag_220:\n        /* \"#utility.yul\":11811:12354   */\n      pop\n      pop\n      pop\n      jump\t// out\n        /* \"#utility.yul\":12360:12477   */\n    tag_85:\n        /* \"#utility.yul\":12414:12422   */\n      0x00\n        /* \"#utility.yul\":12464:12469   */\n      dup3\n        /* \"#utility.yul\":12458:12462   */\n      dup3\n        /* \"#utility.yul\":12454:12470   */\n      shr\n        /* \"#utility.yul\":12433:12470   */\n      swap1\n      pop\n        /* \"#utility.yul\":12360:12477   */\n      swap3\n      swap2\n      pop\n      pop\n      jump\t// out\n        /* \"#utility.yul\":12483:12652   */\n    tag_86:\n        /* \"#utility.yul\":12527:12533   */\n      0x00\n        /* \"#utility.yul\":12560:12611   */\n      tag_228\n        /* \"#utility.yul\":12608:12609   */\n      0x00\n        /* \"#utility.yul\":12604:12610   */\n      not\n        /* \"#utility.yul\":12596:12601   */\n      dup5\n        /* \"#utility.yul\":12593:12594   */\n      0x08\n        /* \"#utility.yul\":12589:12602   */\n      mul\n        /* \"#utility.yul\":12560:12611   */\n      tag_85\n      jump\t// in\n    tag_228:\n        /* \"#utility.yul\":12556:12612   */\n      not\n        /* \"#utility.yul\":12641:12645   */\n      dup1\n        /* \"#utility.yul\":12635:12639   */\n      dup4\n        /* \"#utility.yul\":12631:12646   */\n      and\n        /* \"#utility.yul\":12621:12646   */\n      swap2\n      pop\n        /* \"#utility.yul\":12534:12652   */\n      pop\n        /* \"#utility.yul\":12483:12652   */\n      swap3\n      swap2\n      pop\n      pop\n      jump\t// out\n        /* \"#utility.yul\":12657:12952   */\n    tag_87:\n        /* \"#utility.yul\":12733:12737   */\n      0x00\n        /* \"#utility.yul\":12879:12908   */\n      tag_230\n        /* \"#utility.yul\":12904:12907   */\n      dup4\n        /* \"#utility.yul\":12898:12902   */\n      dup4\n        /* \"#utility.yul\":12879:12908   */\n      tag_86\n      jump\t// in\n    tag_230:\n        /* \"#utility.yul\":12871:12908   */\n      swap2\n      pop\n        /* \"#utility.yul\":12941:12944   */\n      dup3\n        /* \"#utility.yul\":12938:12939   */\n      0x02\n        /* \"#utility.yul\":12934:12945   */\n      mul\n        /* \"#utility.yul\":12928:12932   */\n      dup3\n        /* \"#utility.yul\":12925:12946   */\n      or\n        /* \"#utility.yul\":12917:12946   */\n      swap1\n      pop\n        /* \"#utility.yul\":12657:12952   */\n      swap3\n      swap2\n      pop\n      pop\n      jump\t// out\n        /* \"#utility.yul\":12957:14352   */\n    tag_35:\n        /* \"#utility.yul\":13074:13111   */\n      tag_232\n        /* \"#utility.yul\":13107:13110   */\n      dup3\n        /* \"#utility.yul\":13074:13111   */\n      tag_38\n      jump\t// in\n    tag_232:\n        /* \"#utility.yul\":13176:13194   */\n      0xffffffffffffffff\n        /* \"#utility.yul\":13168:13174   */\n      dup2\n        /* \"#utility.yul\":13165:13195   */\n      gt\n        /* \"#utility.yul\":13162:13218   */\n      iszero\n      tag_233\n      jumpi\n        /* \"#utility.yul\":13198:13216   */\n      tag_234\n      tag_57\n      jump\t// in\n    tag_234:\n        /* \"#utility.yul\":13162:13218   */\n    tag_233:\n        /* \"#utility.yul\":13242:13280   */\n      tag_235\n        /* \"#utility.yul\":13274:13278   */\n      dup3\n        /* \"#utility.yul\":13268:13279   */\n      sload\n        /* \"#utility.yul\":13242:13280   */\n      tag_17\n      jump\t// in\n    tag_235:\n        /* \"#utility.yul\":13327:13394   */\n      tag_236\n        /* \"#utility.yul\":13387:13393   */\n      dup3\n        /* \"#utility.yul\":13379:13385   */\n      dup3\n        /* \"#utility.yul\":13373:13377   */\n      dup6\n        /* \"#utility.yul\":13327:13394   */\n      tag_84\n      jump\t// in\n    tag_236:\n        /* \"#utility.yul\":13421:13422   */\n      0x00\n        /* \"#utility.yul\":13445:13449   */\n      0x20\n        /* \"#utility.yul\":13432:13449   */\n      swap1\n      pop\n        /* \"#utility.yul\":13477:13479   */\n      0x1f\n        /* \"#utility.yul\":13469:13475   */\n      dup4\n        /* \"#utility.yul\":13466:13480   */\n      gt\n        /* \"#utility.yul\":13494:13495   */\n      0x01\n        /* \"#utility.yul\":13489:14107   */\n      dup2\n      eq\n      tag_238\n      jumpi\n        /* \"#utility.yul\":14151:14152   */\n      0x00\n        /* \"#utility.yul\":14168:14174   */\n      dup5\n        /* \"#utility.yul\":14165:14242   */\n      iszero\n      tag_239\n      jumpi\n        /* \"#utility.yul\":14217:14226   */\n      dup3\n        /* \"#utility.yul\":14212:14215   */\n      dup8\n        /* \"#utility.yul\":14208:14227   */\n      add\n        /* \"#utility.yul\":14202:14228   */\n      mload\n        /* \"#utility.yul\":14193:14228   */\n      swap1\n      pop\n        /* \"#utility.yul\":14165:14242   */\n    tag_239:\n        /* \"#utility.yul\":14268:14335   */\n      tag_240\n        /* \"#utility.yul\":14328:14334   */\n      dup6\n        /* \"#utility.yul\":14321:14326   */\n      dup3\n        /* \"#utility.yul\":14268:14335   */\n      tag_87\n      jump\t// in\n    tag_240:\n        /* \"#utility.yul\":14262:14266   */\n      dup7\n        /* \"#utility.yul\":14255:14336   */\n      sstore\n        /* \"#utility.yul\":14124:14346   */\n      pop\n        /* \"#utility.yul\":13459:14346   */\n      jump(tag_237)\n        /* \"#utility.yul\":13489:14107   */\n    tag_238:\n        /* \"#utility.yul\":13541:13545   */\n      0x1f\n        /* \"#utility.yul\":13537:13546   */\n      not\n        /* \"#utility.yul\":13529:13535   */\n      dup5\n        /* \"#utility.yul\":13525:13547   */\n      and\n        /* \"#utility.yul\":13575:13612   */\n      tag_241\n        /* \"#utility.yul\":13607:13611   */\n      dup7\n        /* \"#utility.yul\":13575:13612   */\n      tag_71\n      jump\t// in\n    tag_241:\n        /* \"#utility.yul\":13634:13635   */\n      0x00\n        /* \"#utility.yul\":13648:13856   */\n    tag_242:\n        /* \"#utility.yul\":13662:13669   */\n      dup3\n        /* \"#utility.yul\":13659:13660   */\n      dup2\n        /* \"#utility.yul\":13656:13670   */\n      lt\n        /* \"#utility.yul\":13648:13856   */\n      iszero\n      tag_244\n      jumpi\n        /* \"#utility.yul\":13741:13750   */\n      dup5\n        /* \"#utility.yul\":13736:13739   */\n      dup10\n        /* \"#utility.yul\":13732:13751   */\n      add\n        /* \"#utility.yul\":13726:13752   */\n      mload\n        /* \"#utility.yul\":13718:13724   */\n      dup3\n        /* \"#utility.yul\":13711:13753   */\n      sstore\n        /* \"#utility.yul\":13792:13793   */\n      0x01\n        /* \"#utility.yul\":13784:13790   */\n      dup3\n        /* \"#utility.yul\":13780:13794   */\n      add\n        /* \"#utility.yul\":13770:13794   */\n      swap2\n      pop\n        /* \"#utility.yul\":13839:13841   */\n      0x20\n        /* \"#utility.yul\":13828:13837   */\n      dup6\n        /* \"#utility.yul\":13824:13842   */\n      add\n        /* \"#utility.yul\":13811:13842   */\n      swap5\n      pop\n        /* \"#utility.yul\":13685:13689   */\n      0x20\n        /* \"#utility.yul\":13682:13683   */\n      dup2\n        /* \"#utility.yul\":13678:13690   */\n      add\n        /* \"#utility.yul\":13673:13690   */\n      swap1\n      pop\n        /* \"#utility.yul\":13648:13856   */\n      jump(tag_242)\n    tag_244:\n        /* \"#utility.yul\":13884:13890   */\n      dup7\n        /* \"#utility.yul\":13875:13882   */\n      dup4\n        /* \"#utility.yul\":13872:13891   */\n      lt\n        /* \"#utility.yul\":13869:14048   */\n      iszero\n      tag_245\n      jumpi\n        /* \"#utility.yul\":13942:13951   */\n      dup5\n        /* \"#utility.yul\":13937:13940   */\n      dup10\n        /* \"#utility.yul\":13933:13952   */\n      add\n        /* \"#utility.yul\":13927:13953   */\n      mload\n        /* \"#utility.yul\":13985:14033   */\n      tag_246\n        /* \"#utility.yul\":14027:14031   */\n      0x1f\n        /* \"#utility.yul\":14019:14025   */\n      dup10\n        /* \"#utility.yul\":14015:14032   */\n      and\n        /* \"#utility.yul\":14004:14013   */\n      dup3\n        /* \"#utility.yul\":13985:14033   */\n      tag_86\n      jump\t// in\n    tag_246:\n        /* \"#utility.yul\":13977:13983   */\n      dup4\n        /* \"#utility.yul\":13970:14034   */\n      sstore\n        /* \"#utility.yul\":13892:14048   */\n      pop\n        /* \"#utility.yul\":13869:14048   */\n    tag_245:\n        /* \"#utility.yul\":14094:14095   */\n      0x01\n        /* \"#utility.yul\":14090:14091   */\n      0x02\n        /* \"#utility.yul\":14082:14088   */\n      dup9\n        /* \"#utility.yul\":14078:14092   */\n      mul\n        /* \"#utility.yul\":14074:14096   */\n      add\n        /* \"#utility.yul\":14068:14072   */\n      dup9\n        /* \"#utility.yul\":14061:14097   */\n      sstore\n        /* \"#utility.yul\":13496:14107   */\n      pop\n      pop\n      pop\n        /* \"#utility.yul\":13459:14346   */\n    tag_237:\n      pop\n        /* \"#utility.yul\":13049:14352   */\n      pop\n      pop\n      pop\n        /* \"#utility.yul\":12957:14352   */\n      pop\n      pop\n      jump\t// out\n\n    auxdata: 0xa264697066735822122066f012fe7d3401ae139543bbe6c30490ad3a725649a1105296d44339a0e9c7a964736f6c634300081a0033\n}\n",
				"bytecode": {
					"linkReferences": {},
					"object": "6080604052348015600e575f80fd5b50610b8a8061001c5f395ff3fe608060405234801561000f575f80fd5b5060043610610034575f3560e01c80635a9b0b8914610038578063ae15d4fc14610056575b5f80fd5b610040610072565b60405161004d91906104d5565b60405180910390f35b610070600480360381019061006b9190610655565b610199565b005b61007a61035c565b5f803373ffffffffffffffffffffffffffffffffffffffff1673ffffffffffffffffffffffffffffffffffffffff1681526020019081526020015f206040518060600160405290815f820180546100d0906106dc565b80601f01602080910402602001604051908101604052809291908181526020018280546100fc906106dc565b80156101475780601f1061011e57610100808354040283529160200191610147565b820191905f5260205f20905b81548152906001019060200180831161012a57829003601f168201915b50505050508152602001600182015f9054906101000a900460ff166002811115610174576101736103fd565b5b6002811115610186576101856103fd565b5b8152602001600282015481525050905090565b5f803373ffffffffffffffffffffffffffffffffffffffff1673ffffffffffffffffffffffffffffffffffffffff1681526020019081526020015f206002015f8154809291906101e890610739565b91905055507feb0c5cfcb1d1a12c404c7bfceac5a0dc8ec8c2da31abaf3536a58433b2c561ce335f803373ffffffffffffffffffffffffffffffffffffffff1673ffffffffffffffffffffffffffffffffffffffff1681526020019081526020015f20600201545f803373ffffffffffffffffffffffffffffffffffffffff1673ffffffffffffffffffffffffffffffffffffffff1681526020019081526020015f205f018460405161029e94939291906108a9565b60405180910390a1815f803373ffffffffffffffffffffffffffffffffffffffff1673ffffffffffffffffffffffffffffffffffffffff1681526020019081526020015f206001015f6101000a81548160ff02191690836002811115610307576103066103fd565b5b0217905550805f803373ffffffffffffffffffffffffffffffffffffffff1673ffffffffffffffffffffffffffffffffffffffff1681526020019081526020015f205f0190816103579190610a85565b505050565b6040518060600160405280606081526020015f6002811115610381576103806103fd565b5b81526020015f81525090565b5f81519050919050565b5f82825260208201905092915050565b8281835e5f83830152505050565b5f601f19601f8301169050919050565b5f6103cf8261038d565b6103d98185610397565b93506103e98185602086016103a7565b6103f2816103b5565b840191505092915050565b7f4e487b71000000000000000000000000000000000000000000000000000000005f52602160045260245ffd5b6003811061043b5761043a6103fd565b5b50565b5f81905061044b8261042a565b919050565b5f61045a8261043e565b9050919050565b61046a81610450565b82525050565b5f819050919050565b61048281610470565b82525050565b5f606083015f8301518482035f8601526104a282826103c5565b91505060208301516104b76020860182610461565b5060408301516104ca6040860182610479565b508091505092915050565b5f6020820190508181035f8301526104ed8184610488565b905092915050565b5f604051905090565b5f80fd5b5f80fd5b60038110610512575f80fd5b50565b5f8135905061052381610506565b92915050565b5f80fd5b5f80fd5b7f4e487b71000000000000000000000000000000000000000000000000000000005f52604160045260245ffd5b610567826103b5565b810181811067ffffffffffffffff8211171561058657610585610531565b5b80604052505050565b5f6105986104f5565b90506105a4828261055e565b919050565b5f67ffffffffffffffff8211156105c3576105c2610531565b5b6105cc826103b5565b9050602081019050919050565b828183375f83830152505050565b5f6105f96105f4846105a9565b61058f565b9050828152602081018484840111156106155761061461052d565b5b6106208482856105d9565b509392505050565b5f82601f83011261063c5761063b610529565b5b813561064c8482602086016105e7565b91505092915050565b5f806040838503121561066b5761066a6104fe565b5b5f61067885828601610515565b925050602083013567ffffffffffffffff81111561069957610698610502565b5b6106a585828601610628565b9150509250929050565b7f4e487b71000000000000000000000000000000000000000000000000000000005f52602260045260245ffd5b5f60028204905060018216806106f357607f821691505b602082108103610706576107056106af565b5b50919050565b7f4e487b71000000000000000000000000000000000000000000000000000000005f52601160045260245ffd5b5f61074382610470565b91507fffffffffffffffffffffffffffffffffffffffffffffffffffffffffffffffff82036107755761077461070c565b5b600182019050919050565b5f73ffffffffffffffffffffffffffffffffffffffff82169050919050565b5f6107a982610780565b9050919050565b6107b98161079f565b82525050565b6107c881610470565b82525050565b5f82825260208201905092915050565b5f819050815f5260205f209050919050565b5f81546107fc816106dc565b61080681866107ce565b9450600182165f8114610820576001811461083657610868565b60ff198316865281151560200286019350610868565b61083f856107de565b5f5b8381101561086057815481890152600182019150602081019050610841565b808801955050505b50505092915050565b5f61087b8261038d565b61088581856107ce565b93506108958185602086016103a7565b61089e816103b5565b840191505092915050565b5f6080820190506108bc5f8301876107b0565b6108c960208301866107bf565b81810360408301526108db81856107f0565b905081810360608301526108ef8184610871565b905095945050505050565b5f6020601f8301049050919050565b5f82821b905092915050565b5f600883026109447fffffffffffffffffffffffffffffffffffffffffffffffffffffffffffffffff82610909565b61094e8683610909565b95508019841693508086168417925050509392505050565b5f819050919050565b5f61098961098461097f84610470565b610966565b610470565b9050919050565b5f819050919050565b6109a28361096f565b6109b66109ae82610990565b848454610915565b825550505050565b5f90565b6109ca6109be565b6109d5818484610999565b505050565b5b818110156109f8576109ed5f826109c2565b6001810190506109db565b5050565b601f821115610a3d57610a0e816107de565b610a17846108fa565b81016020851015610a26578190505b610a3a610a32856108fa565b8301826109da565b50505b505050565b5f82821c905092915050565b5f610a5d5f1984600802610a42565b1980831691505092915050565b5f610a758383610a4e565b9150826002028217905092915050565b610a8e8261038d565b67ffffffffffffffff811115610aa757610aa6610531565b5b610ab182546106dc565b610abc8282856109fc565b5f60209050601f831160018114610aed575f8415610adb578287015190505b610ae58582610a6a565b865550610b4c565b601f198416610afb866107de565b5f5b82811015610b2257848901518255600182019150602085019450602081019050610afd565b86831015610b3f5784890151610b3b601f891682610a4e565b8355505b6001600288020188555050505b50505050505056fea264697066735822122066f012fe7d3401ae139543bbe6c30490ad3a725649a1105296d44339a0e9c7a964736f6c634300081a0033",
					"opcodes": "PUSH1 0x80 PUSH1 0x40 MSTORE CALLVALUE DUP1 ISZERO PUSH1 0xE JUMPI PUSH0 DUP1 REVERT JUMPDEST POP PUSH2 0xB8A DUP1 PUSH2 0x1C PUSH0 CODECOPY PUSH0 RETURN INVALID PUSH1 0x80 PUSH1 0x40 MSTORE CALLVALUE DUP1 ISZERO PUSH2 0xF JUMPI PUSH0 DUP1 REVERT JUMPDEST POP PUSH1 0x4 CALLDATASIZE LT PUSH2 0x34 JUMPI PUSH0 CALLDATALOAD PUSH1 0xE0 SHR DUP1 PUSH4 0x5A9B0B89 EQ PUSH2 0x38 JUMPI DUP1 PUSH4 0xAE15D4FC EQ PUSH2 0x56 JUMPI JUMPDEST PUSH0 DUP1 REVERT JUMPDEST PUSH2 0x40 PUSH2 0x72 JUMP JUMPDEST PUSH1 0x40 MLOAD PUSH2 0x4D SWAP2 SWAP1 PUSH2 0x4D5 JUMP JUMPDEST PUSH1 0x40 MLOAD DUP1 SWAP2 SUB SWAP1 RETURN JUMPDEST PUSH2 0x70 PUSH1 0x4 DUP1 CALLDATASIZE SUB DUP2 ADD SWAP1 PUSH2 0x6B SWAP2 SWAP1 PUSH2 0x655 JUMP JUMPDEST PUSH2 0x199 JUMP JUMPDEST STOP JUMPDEST PUSH2 0x7A PUSH2 0x35C JUMP JUMPDEST PUSH0 DUP1 CALLER PUSH20 0xFFFFFFFFFFFFFFFFFFFFFFFFFFFFFFFFFFFFFFFF AND PUSH20 0xFFFFFFFFFFFFFFFFFFFFFFFFFFFFFFFFFFFFFFFF AND DUP2 MSTORE PUSH1 0x20 ADD SWAP1 DUP2 MSTORE PUSH1 0x20 ADD PUSH0 KECCAK256 PUSH1 0x40 MLOAD DUP1 PUSH1 0x60 ADD PUSH1 0x40 MSTORE SWAP1 DUP2 PUSH0 DUP3 ADD DUP1 SLOAD PUSH2 0xD0 SWAP1 PUSH2 0x6DC JUMP JUMPDEST DUP1 PUSH1 0x1F ADD PUSH1 0x20 DUP1 SWAP2 DIV MUL PUSH1 0x20 ADD PUSH1 0x40 MLOAD SWAP1 DUP2 ADD PUSH1 0x40 MSTORE DUP1 SWAP3 SWAP2 SWAP1 DUP2 DUP2 MSTORE PUSH1 0x20 ADD DUP3 DUP1 SLOAD PUSH2 0xFC SWAP1 PUSH2 0x6DC JUMP JUMPDEST DUP1 ISZERO PUSH2 0x147 JUMPI DUP1 PUSH1 0x1F LT PUSH2 0x11E JUMPI PUSH2 0x100 DUP1 DUP4 SLOAD DIV MUL DUP4 MSTORE SWAP2 PUSH1 0x20 ADD SWAP2 PUSH2 0x147 JUMP JUMPDEST DUP3 ADD SWAP2 SWAP1 PUSH0 MSTORE PUSH1 0x20 PUSH0 KECCAK256 SWAP1 JUMPDEST DUP2 SLOAD DUP2 MSTORE SWAP1 PUSH1 0x1 ADD SWAP1 PUSH1 0x20 ADD DUP1 DUP4 GT PUSH2 0x12A JUMPI DUP3 SWAP1 SUB PUSH1 0x1F AND DUP3 ADD SWAP2 JUMPDEST POP POP POP POP POP DUP2 MSTORE PUSH1 0x20 ADD PUSH1 0x1 DUP3 ADD PUSH0 SWAP1 SLOAD SWAP1 PUSH2 0x100 EXP SWAP1 DIV PUSH1 0xFF AND PUSH1 0x2 DUP2 GT ISZERO PUSH2 0x174 JUMPI PUSH2 0x173 PUSH2 0x3FD JUMP JUMPDEST JUMPDEST PUSH1 0x2 DUP2 GT ISZERO PUSH2 0x186 JUMPI PUSH2 0x185 PUSH2 0x3FD JUMP JUMPDEST JUMPDEST DUP2 MSTORE PUSH1 0x20 ADD PUSH1 0x2 DUP3 ADD SLOAD DUP2 MSTORE POP POP SWAP1 POP SWAP1 JUMP JUMPDEST PUSH0 DUP1 CALLER PUSH20 0xFFFFFFFFFFFFFFFFFFFFFFFFFFFFFFFFFFFFFFFF AND PUSH20 0xFFFFFFFFFFFFFFFFFFFFFFFFFFFFFFFFFFFFFFFF AND DUP2 MSTORE PUSH1 0x20 ADD SWAP1 DUP2 MSTORE PUSH1 0x20 ADD PUSH0 KECCAK256 PUSH1 0x2 ADD PUSH0 DUP2 SLOAD DUP1 SWAP3 SWAP2 SWAP1 PUSH2 0x1E8 SWAP1 PUSH2 0x739 JUMP JUMPDEST SWAP2 SWAP1 POP SSTORE POP PUSH32 0xEB0C5CFCB1D1A12C404C7BFCEAC5A0DC8EC8C2DA31ABAF3536A58433B2C561CE CALLER PUSH0 DUP1 CALLER PUSH20 0xFFFFFFFFFFFFFFFFFFFFFFFFFFFFFFFFFFFFFFFF AND PUSH20 0xFFFFFFFFFFFFFFFFFFFFFFFFFFFFFFFFFFFFFFFF AND DUP2 MSTORE PUSH1 0x20 ADD SWAP1 DUP2 MSTORE PUSH1 0x20 ADD PUSH0 KECCAK256 PUSH1 0x2 ADD SLOAD PUSH0 DUP1 CALLER PUSH20 0xFFFFFFFFFFFFFFFFFFFFFFFFFFFFFFFFFFFFFFFF AND PUSH20 0xFFFFFFFFFFFFFFFFFFFFFFFFFFFFFFFFFFFFFFFF AND DUP2 MSTORE PUSH1 0x20 ADD SWAP1 DUP2 MSTORE PUSH1 0x20 ADD PUSH0 KECCAK256 PUSH0 ADD DUP5 PUSH1 0x40 MLOAD PUSH2 0x29E SWAP5 SWAP4 SWAP3 SWAP2 SWAP1 PUSH2 0x8A9 JUMP JUMPDEST PUSH1 0x40 MLOAD DUP1 SWAP2 SUB SWAP1 LOG1 DUP2 PUSH0 DUP1 CALLER PUSH20 0xFFFFFFFFFFFFFFFFFFFFFFFFFFFFFFFFFFFFFFFF AND PUSH20 0xFFFFFFFFFFFFFFFFFFFFFFFFFFFFFFFFFFFFFFFF AND DUP2 MSTORE PUSH1 0x20 ADD SWAP1 DUP2 MSTORE PUSH1 0x20 ADD PUSH0 KECCAK256 PUSH1 0x1 ADD PUSH0 PUSH2 0x100 EXP DUP2 SLOAD DUP2 PUSH1 0xFF MUL NOT AND SWAP1 DUP4 PUSH1 0x2 DUP2 GT ISZERO PUSH2 0x307 JUMPI PUSH2 0x306 PUSH2 0x3FD JUMP JUMPDEST JUMPDEST MUL OR SWAP1 SSTORE POP DUP1 PUSH0 DUP1 CALLER PUSH20 0xFFFFFFFFFFFFFFFFFFFFFFFFFFFFFFFFFFFFFFFF AND PUSH20 0xFFFFFFFFFFFFFFFFFFFFFFFFFFFFFFFFFFFFFFFF AND DUP2 MSTORE PUSH1 0x20 ADD SWAP1 DUP2 MSTORE PUSH1 0x20 ADD PUSH0 KECCAK256 PUSH0 ADD SWAP1 DUP2 PUSH2 0x357 SWAP2 SWAP1 PUSH2 0xA85 JUMP JUMPDEST POP POP POP JUMP JUMPDEST PUSH1 0x40 MLOAD DUP1 PUSH1 0x60 ADD PUSH1 0x40 MSTORE DUP1 PUSH1 0x60 DUP2 MSTORE PUSH1 0x20 ADD PUSH0 PUSH1 0x2 DUP2 GT ISZERO PUSH2 0x381 JUMPI PUSH2 0x380 PUSH2 0x3FD JUMP JUMPDEST JUMPDEST DUP2 MSTORE PUSH1 0x20 ADD PUSH0 DUP2 MSTORE POP SWAP1 JUMP JUMPDEST PUSH0 DUP2 MLOAD SWAP1 POP SWAP2 SWAP1 POP JUMP JUMPDEST PUSH0 DUP3 DUP3 MSTORE PUSH1 0x20 DUP3 ADD SWAP1 POP SWAP3 SWAP2 POP POP JUMP JUMPDEST DUP3 DUP2 DUP4 MCOPY PUSH0 DUP4 DUP4 ADD MSTORE POP POP POP JUMP JUMPDEST PUSH0 PUSH1 0x1F NOT PUSH1 0x1F DUP4 ADD AND SWAP1 POP SWAP2 SWAP1 POP JUMP JUMPDEST PUSH0 PUSH2 0x3CF DUP3 PUSH2 0x38D JUMP JUMPDEST PUSH2 0x3D9 DUP2 DUP6 PUSH2 0x397 JUMP JUMPDEST SWAP4 POP PUSH2 0x3E9 DUP2 DUP6 PUSH1 0x20 DUP7 ADD PUSH2 0x3A7 JUMP JUMPDEST PUSH2 0x3F2 DUP2 PUSH2 0x3B5 JUMP JUMPDEST DUP5 ADD SWAP2 POP POP SWAP3 SWAP2 POP POP JUMP JUMPDEST PUSH32 0x4E487B7100000000000000000000000000000000000000000000000000000000 PUSH0 MSTORE PUSH1 0x21 PUSH1 0x4 MSTORE PUSH1 0x24 PUSH0 REVERT JUMPDEST PUSH1 0x3 DUP2 LT PUSH2 0x43B JUMPI PUSH2 0x43A PUSH2 0x3FD JUMP JUMPDEST JUMPDEST POP JUMP JUMPDEST PUSH0 DUP2 SWAP1 POP PUSH2 0x44B DUP3 PUSH2 0x42A JUMP JUMPDEST SWAP2 SWAP1 POP JUMP JUMPDEST PUSH0 PUSH2 0x45A DUP3 PUSH2 0x43E JUMP JUMPDEST SWAP1 POP SWAP2 SWAP1 POP JUMP JUMPDEST PUSH2 0x46A DUP2 PUSH2 0x450 JUMP JUMPDEST DUP3 MSTORE POP POP JUMP JUMPDEST PUSH0 DUP2 SWAP1 POP SWAP2 SWAP1 POP JUMP JUMPDEST PUSH2 0x482 DUP2 PUSH2 0x470 JUMP JUMPDEST DUP3 MSTORE POP POP JUMP JUMPDEST PUSH0 PUSH1 0x60 DUP4 ADD PUSH0 DUP4 ADD MLOAD DUP5 DUP3 SUB PUSH0 DUP7 ADD MSTORE PUSH2 0x4A2 DUP3 DUP3 PUSH2 0x3C5 JUMP JUMPDEST SWAP2 POP POP PUSH1 0x20 DUP4 ADD MLOAD PUSH2 0x4B7 PUSH1 0x20 DUP7 ADD DUP3 PUSH2 0x461 JUMP JUMPDEST POP PUSH1 0x40 DUP4 ADD MLOAD PUSH2 0x4CA PUSH1 0x40 DUP7 ADD DUP3 PUSH2 0x479 JUMP JUMPDEST POP DUP1 SWAP2 POP POP SWAP3 SWAP2 POP POP JUMP JUMPDEST PUSH0 PUSH1 0x20 DUP3 ADD SWAP1 POP DUP2 DUP2 SUB PUSH0 DUP4 ADD MSTORE PUSH2 0x4ED DUP2 DUP5 PUSH2 0x488 JUMP JUMPDEST SWAP1 POP SWAP3 SWAP2 POP POP JUMP JUMPDEST PUSH0 PUSH1 0x40 MLOAD SWAP1 POP SWAP1 JUMP JUMPDEST PUSH0 DUP1 REVERT JUMPDEST PUSH0 DUP1 REVERT JUMPDEST PUSH1 0x3 DUP2 LT PUSH2 0x512 JUMPI PUSH0 DUP1 REVERT JUMPDEST POP JUMP JUMPDEST PUSH0 DUP2 CALLDATALOAD SWAP1 POP PUSH2 0x523 DUP2 PUSH2 0x506 JUMP JUMPDEST SWAP3 SWAP2 POP POP JUMP JUMPDEST PUSH0 DUP1 REVERT JUMPDEST PUSH0 DUP1 REVERT JUMPDEST PUSH32 0x4E487B7100000000000000000000000000000000000000000000000000000000 PUSH0 MSTORE PUSH1 0x41 PUSH1 0x4 MSTORE PUSH1 0x24 PUSH0 REVERT JUMPDEST PUSH2 0x567 DUP3 PUSH2 0x3B5 JUMP JUMPDEST DUP2 ADD DUP2 DUP2 LT PUSH8 0xFFFFFFFFFFFFFFFF DUP3 GT OR ISZERO PUSH2 0x586 JUMPI PUSH2 0x585 PUSH2 0x531 JUMP JUMPDEST JUMPDEST DUP1 PUSH1 0x40 MSTORE POP POP POP JUMP JUMPDEST PUSH0 PUSH2 0x598 PUSH2 0x4F5 JUMP JUMPDEST SWAP1 POP PUSH2 0x5A4 DUP3 DUP3 PUSH2 0x55E JUMP JUMPDEST SWAP2 SWAP1 POP JUMP JUMPDEST PUSH0 PUSH8 0xFFFFFFFFFFFFFFFF DUP3 GT ISZERO PUSH2 0x5C3 JUMPI PUSH2 0x5C2 PUSH2 0x531 JUMP JUMPDEST JUMPDEST PUSH2 0x5CC DUP3 PUSH2 0x3B5 JUMP JUMPDEST SWAP1 POP PUSH1 0x20 DUP2 ADD SWAP1 POP SWAP2 SWAP1 POP JUMP JUMPDEST DUP3 DUP2 DUP4 CALLDATACOPY PUSH0 DUP4 DUP4 ADD MSTORE POP POP POP JUMP JUMPDEST PUSH0 PUSH2 0x5F9 PUSH2 0x5F4 DUP5 PUSH2 0x5A9 JUMP JUMPDEST PUSH2 0x58F JUMP JUMPDEST SWAP1 POP DUP3 DUP2 MSTORE PUSH1 0x20 DUP2 ADD DUP5 DUP5 DUP5 ADD GT ISZERO PUSH2 0x615 JUMPI PUSH2 0x614 PUSH2 0x52D JUMP JUMPDEST JUMPDEST PUSH2 0x620 DUP5 DUP3 DUP6 PUSH2 0x5D9 JUMP JUMPDEST POP SWAP4 SWAP3 POP POP POP JUMP JUMPDEST PUSH0 DUP3 PUSH1 0x1F DUP4 ADD SLT PUSH2 0x63C JUMPI PUSH2 0x63B PUSH2 0x529 JUMP JUMPDEST JUMPDEST DUP2 CALLDATALOAD PUSH2 0x64C DUP5 DUP3 PUSH1 0x20 DUP7 ADD PUSH2 0x5E7 JUMP JUMPDEST SWAP2 POP POP SWAP3 SWAP2 POP POP JUMP JUMPDEST PUSH0 DUP1 PUSH1 0x40 DUP4 DUP6 SUB SLT ISZERO PUSH2 0x66B JUMPI PUSH2 0x66A PUSH2 0x4FE JUMP JUMPDEST JUMPDEST PUSH0 PUSH2 0x678 DUP6 DUP3 DUP7 ADD PUSH2 0x515 JUMP JUMPDEST SWAP3 POP POP PUSH1 0x20 DUP4 ADD CALLDATALOAD PUSH8 0xFFFFFFFFFFFFFFFF DUP2 GT ISZERO PUSH2 0x699 JUMPI PUSH2 0x698 PUSH2 0x502 JUMP JUMPDEST JUMPDEST PUSH2 0x6A5 DUP6 DUP3 DUP7 ADD PUSH2 0x628 JUMP JUMPDEST SWAP2 POP POP SWAP3 POP SWAP3 SWAP1 POP JUMP JUMPDEST PUSH32 0x4E487B7100000000000000000000000000000000000000000000000000000000 PUSH0 MSTORE PUSH1 0x22 PUSH1 0x4 MSTORE PUSH1 0x24 PUSH0 REVERT JUMPDEST PUSH0 PUSH1 0x2 DUP3 DIV SWAP1 POP PUSH1 0x1 DUP3 AND DUP1 PUSH2 0x6F3 JUMPI PUSH1 0x7F DUP3 AND SWAP2 POP JUMPDEST PUSH1 0x20 DUP3 LT DUP2 SUB PUSH2 0x706 JUMPI PUSH2 0x705 PUSH2 0x6AF JUMP JUMPDEST JUMPDEST POP SWAP2 SWAP1 POP JUMP JUMPDEST PUSH32 0x4E487B7100000000000000000000000000000000000000000000000000000000 PUSH0 MSTORE PUSH1 0x11 PUSH1 0x4 MSTORE PUSH1 0x24 PUSH0 REVERT JUMPDEST PUSH0 PUSH2 0x743 DUP3 PUSH2 0x470 JUMP JUMPDEST SWAP2 POP PUSH32 0xFFFFFFFFFFFFFFFFFFFFFFFFFFFFFFFFFFFFFFFFFFFFFFFFFFFFFFFFFFFFFFFF DUP3 SUB PUSH2 0x775 JUMPI PUSH2 0x774 PUSH2 0x70C JUMP JUMPDEST JUMPDEST PUSH1 0x1 DUP3 ADD SWAP1 POP SWAP2 SWAP1 POP JUMP JUMPDEST PUSH0 PUSH20 0xFFFFFFFFFFFFFFFFFFFFFFFFFFFFFFFFFFFFFFFF DUP3 AND SWAP1 POP SWAP2 SWAP1 POP JUMP JUMPDEST PUSH0 PUSH2 0x7A9 DUP3 PUSH2 0x780 JUMP JUMPDEST SWAP1 POP SWAP2 SWAP1 POP JUMP JUMPDEST PUSH2 0x7B9 DUP2 PUSH2 0x79F JUMP JUMPDEST DUP3 MSTORE POP POP JUMP JUMPDEST PUSH2 0x7C8 DUP2 PUSH2 0x470 JUMP JUMPDEST DUP3 MSTORE POP POP JUMP JUMPDEST PUSH0 DUP3 DUP3 MSTORE PUSH1 0x20 DUP3 ADD SWAP1 POP SWAP3 SWAP2 POP POP JUMP JUMPDEST PUSH0 DUP2 SWAP1 POP DUP2 PUSH0 MSTORE PUSH1 0x20 PUSH0 KECCAK256 SWAP1 POP SWAP2 SWAP1 POP JUMP JUMPDEST PUSH0 DUP2 SLOAD PUSH2 0x7FC DUP2 PUSH2 0x6DC JUMP JUMPDEST PUSH2 0x806 DUP2 DUP7 PUSH2 0x7CE JUMP JUMPDEST SWAP5 POP PUSH1 0x1 DUP3 AND PUSH0 DUP2 EQ PUSH2 0x820 JUMPI PUSH1 0x1 DUP2 EQ PUSH2 0x836 JUMPI PUSH2 0x868 JUMP JUMPDEST PUSH1 0xFF NOT DUP4 AND DUP7 MSTORE DUP2 ISZERO ISZERO PUSH1 0x20 MUL DUP7 ADD SWAP4 POP PUSH2 0x868 JUMP JUMPDEST PUSH2 0x83F DUP6 PUSH2 0x7DE JUMP JUMPDEST PUSH0 JUMPDEST DUP4 DUP2 LT ISZERO PUSH2 0x860 JUMPI DUP2 SLOAD DUP2 DUP10 ADD MSTORE PUSH1 0x1 DUP3 ADD SWAP2 POP PUSH1 0x20 DUP2 ADD SWAP1 POP PUSH2 0x841 JUMP JUMPDEST DUP1 DUP9 ADD SWAP6 POP POP POP JUMPDEST POP POP POP SWAP3 SWAP2 POP POP JUMP JUMPDEST PUSH0 PUSH2 0x87B DUP3 PUSH2 0x38D JUMP JUMPDEST PUSH2 0x885 DUP2 DUP6 PUSH2 0x7CE JUMP JUMPDEST SWAP4 POP PUSH2 0x895 DUP2 DUP6 PUSH1 0x20 DUP7 ADD PUSH2 0x3A7 JUMP JUMPDEST PUSH2 0x89E DUP2 PUSH2 0x3B5 JUMP JUMPDEST DUP5 ADD SWAP2 POP POP SWAP3 SWAP2 POP POP JUMP JUMPDEST PUSH0 PUSH1 0x80 DUP3 ADD SWAP1 POP PUSH2 0x8BC PUSH0 DUP4 ADD DUP8 PUSH2 0x7B0 JUMP JUMPDEST PUSH2 0x8C9 PUSH1 0x20 DUP4 ADD DUP7 PUSH2 0x7BF JUMP JUMPDEST DUP2 DUP2 SUB PUSH1 0x40 DUP4 ADD MSTORE PUSH2 0x8DB DUP2 DUP6 PUSH2 0x7F0 JUMP JUMPDEST SWAP1 POP DUP2 DUP2 SUB PUSH1 0x60 DUP4 ADD MSTORE PUSH2 0x8EF DUP2 DUP5 PUSH2 0x871 JUMP JUMPDEST SWAP1 POP SWAP6 SWAP5 POP POP POP POP POP JUMP JUMPDEST PUSH0 PUSH1 0x20 PUSH1 0x1F DUP4 ADD DIV SWAP1 POP SWAP2 SWAP1 POP JUMP JUMPDEST PUSH0 DUP3 DUP3 SHL SWAP1 POP SWAP3 SWAP2 POP POP JUMP JUMPDEST PUSH0 PUSH1 0x8 DUP4 MUL PUSH2 0x944 PUSH32 0xFFFFFFFFFFFFFFFFFFFFFFFFFFFFFFFFFFFFFFFFFFFFFFFFFFFFFFFFFFFFFFFF DUP3 PUSH2 0x909 JUMP JUMPDEST PUSH2 0x94E DUP7 DUP4 PUSH2 0x909 JUMP JUMPDEST SWAP6 POP DUP1 NOT DUP5 AND SWAP4 POP DUP1 DUP7 AND DUP5 OR SWAP3 POP POP POP SWAP4 SWAP3 POP POP POP JUMP JUMPDEST PUSH0 DUP2 SWAP1 POP SWAP2 SWAP1 POP JUMP JUMPDEST PUSH0 PUSH2 0x989 PUSH2 0x984 PUSH2 0x97F DUP5 PUSH2 0x470 JUMP JUMPDEST PUSH2 0x966 JUMP JUMPDEST PUSH2 0x470 JUMP JUMPDEST SWAP1 POP SWAP2 SWAP1 POP JUMP JUMPDEST PUSH0 DUP2 SWAP1 POP SWAP2 SWAP1 POP JUMP JUMPDEST PUSH2 0x9A2 DUP4 PUSH2 0x96F JUMP JUMPDEST PUSH2 0x9B6 PUSH2 0x9AE DUP3 PUSH2 0x990 JUMP JUMPDEST DUP5 DUP5 SLOAD PUSH2 0x915 JUMP JUMPDEST DUP3 SSTORE POP POP POP POP JUMP JUMPDEST PUSH0 SWAP1 JUMP JUMPDEST PUSH2 0x9CA PUSH2 0x9BE JUMP JUMPDEST PUSH2 0x9D5 DUP2 DUP5 DUP5 PUSH2 0x999 JUMP JUMPDEST POP POP POP JUMP JUMPDEST JUMPDEST DUP2 DUP2 LT ISZERO PUSH2 0x9F8 JUMPI PUSH2 0x9ED PUSH0 DUP3 PUSH2 0x9C2 JUMP JUMPDEST PUSH1 0x1 DUP2 ADD SWAP1 POP PUSH2 0x9DB JUMP JUMPDEST POP POP JUMP JUMPDEST PUSH1 0x1F DUP3 GT ISZERO PUSH2 0xA3D JUMPI PUSH2 0xA0E DUP2 PUSH2 0x7DE JUMP JUMPDEST PUSH2 0xA17 DUP5 PUSH2 0x8FA JUMP JUMPDEST DUP2 ADD PUSH1 0x20 DUP6 LT ISZERO PUSH2 0xA26 JUMPI DUP2 SWAP1 POP JUMPDEST PUSH2 0xA3A PUSH2 0xA32 DUP6 PUSH2 0x8FA JUMP JUMPDEST DUP4 ADD DUP3 PUSH2 0x9DA JUMP JUMPDEST POP POP JUMPDEST POP POP POP JUMP JUMPDEST PUSH0 DUP3 DUP3 SHR SWAP1 POP SWAP3 SWAP2 POP POP JUMP JUMPDEST PUSH0 PUSH2 0xA5D PUSH0 NOT DUP5 PUSH1 0x8 MUL PUSH2 0xA42 JUMP JUMPDEST NOT DUP1 DUP4 AND SWAP2 POP POP SWAP3 SWAP2 POP POP JUMP JUMPDEST PUSH0 PUSH2 0xA75 DUP4 DUP4 PUSH2 0xA4E JUMP JUMPDEST SWAP2 POP DUP3 PUSH1 0x2 MUL DUP3 OR SWAP1 POP SWAP3 SWAP2 POP POP JUMP JUMPDEST PUSH2 0xA8E DUP3 PUSH2 0x38D JUMP JUMPDEST PUSH8 0xFFFFFFFFFFFFFFFF DUP2 GT ISZERO PUSH2 0xAA7 JUMPI PUSH2 0xAA6 PUSH2 0x531 JUMP JUMPDEST JUMPDEST PUSH2 0xAB1 DUP3 SLOAD PUSH2 0x6DC JUMP JUMPDEST PUSH2 0xABC DUP3 DUP3 DUP6 PUSH2 0x9FC JUMP JUMPDEST PUSH0 PUSH1 0x20 SWAP1 POP PUSH1 0x1F DUP4 GT PUSH1 0x1 DUP2 EQ PUSH2 0xAED JUMPI PUSH0 DUP5 ISZERO PUSH2 0xADB JUMPI DUP3 DUP8 ADD MLOAD SWAP1 POP JUMPDEST PUSH2 0xAE5 DUP6 DUP3 PUSH2 0xA6A JUMP JUMPDEST DUP7 SSTORE POP PUSH2 0xB4C JUMP JUMPDEST PUSH1 0x1F NOT DUP5 AND PUSH2 0xAFB DUP7 PUSH2 0x7DE JUMP JUMPDEST PUSH0 JUMPDEST DUP3 DUP2 LT ISZERO PUSH2 0xB22 JUMPI DUP5 DUP10 ADD MLOAD DUP3 SSTORE PUSH1 0x1 DUP3 ADD SWAP2 POP PUSH1 0x20 DUP6 ADD SWAP5 POP PUSH1 0x20 DUP2 ADD SWAP1 POP PUSH2 0xAFD JUMP JUMPDEST DUP7 DUP4 LT ISZERO PUSH2 0xB3F JUMPI DUP5 DUP10 ADD MLOAD PUSH2 0xB3B PUSH1 0x1F DUP10 AND DUP3 PUSH2 0xA4E JUMP JUMPDEST DUP4 SSTORE POP JUMPDEST PUSH1 0x1 PUSH1 0x2 DUP9 MUL ADD DUP9 SSTORE POP POP POP JUMPDEST POP POP POP POP POP POP JUMP INVALID LOG2 PUSH5 0x6970667358 0x22 SLT KECCAK256 PUSH7 0xF012FE7D3401AE SGT SWAP6 NUMBER 0xBB 0xE6 0xC3 DIV SWAP1 0xAD GASPRICE PUSH19 0x5649A1105296D44339A0E9C7A964736F6C6343 STOP ADDMOD BYTE STOP CALLER "
				},
				"gasEstimates": {
					"creation": {
						"codeDepositCost": "590800",
						"executionCost": "623",
						"totalCost": "591423"
					},
					"external": {
						"getInfo()": "infinite",
						"setInfo(uint8,string)": "infinite"
					}
				},
				"methodIdentifiers": {
					"getInfo()": "5a9b0b89",
					"setInfo(uint8,string)": "ae15d4fc"
				}
			},
			"storageLayout": {
				"storage": [
					{
						"astId": 19,
						"contract": "ETH_KIPU/Register14_All.sol:Register14",
						"label": "storedInfos",
						"offset": 0,
						"slot": "0",
						"type": "t_mapping(t_address,t_struct(InfoStruct)14_storage)"
					}
				],
				"types": {
					"t_address": {
						"encoding": "inplace",
						"label": "address",
						"numberOfBytes": "20"
					},
					"t_enum(Colors)6": {
						"encoding": "inplace",
						"label": "enum Register14.Colors",
						"numberOfBytes": "1"
					},
					"t_mapping(t_address,t_struct(InfoStruct)14_storage)": {
						"encoding": "mapping",
						"key": "t_address",
						"label": "mapping(address => struct Register14.InfoStruct)",
						"numberOfBytes": "32",
						"value": "t_struct(InfoStruct)14_storage"
					},
					"t_string_storage": {
						"encoding": "bytes",
						"label": "string",
						"numberOfBytes": "32"
					},
					"t_struct(InfoStruct)14_storage": {
						"encoding": "inplace",
						"label": "struct Register14.InfoStruct",
						"members": [
							{
								"astId": 8,
								"contract": "ETH_KIPU/Register14_All.sol:Register14",
								"label": "info",
								"offset": 0,
								"slot": "0",
								"type": "t_string_storage"
							},
							{
								"astId": 11,
								"contract": "ETH_KIPU/Register14_All.sol:Register14",
								"label": "color",
								"offset": 0,
								"slot": "1",
								"type": "t_enum(Colors)6"
							},
							{
								"astId": 13,
								"contract": "ETH_KIPU/Register14_All.sol:Register14",
								"label": "countChanges",
								"offset": 0,
								"slot": "2",
								"type": "t_uint256"
							}
						],
						"numberOfBytes": "96"
					},
					"t_uint256": {
						"encoding": "inplace",
						"label": "uint256",
						"numberOfBytes": "32"
					}
				}
			},
			"userdoc": {
				"kind": "user",
				"methods": {
					"getInfo()": {
						"notice": "Return the struct storedInfo for the msg.sender"
					},
					"setInfo(uint8,string)": {
						"notice": "Store `myColor` and `myInfo` Increase the counter which how many times storedInfo is updated emit an event with address, countChanges, oldInfo, newInfo"
					}
				},
				"version": 1
			}
		}
	}
}