{
	"ETH_KIPU/Register10_1.sol": {
		"Register10_1": {
			"abi": [
				{
					"inputs": [
						{
							"internalType": "address",
							"name": "addr",
							"type": "address"
						}
					],
					"name": "addToWhiteList",
					"outputs": [],
					"stateMutability": "nonpayable",
					"type": "function"
				},
				{
					"inputs": [],
					"name": "getWhiteList",
					"outputs": [
						{
							"internalType": "address[]",
							"name": "",
							"type": "address[]"
						}
					],
					"stateMutability": "view",
					"type": "function"
				},
				{
					"inputs": [
						{
							"internalType": "address",
							"name": "addr",
							"type": "address"
						}
					],
					"name": "isInWhiteList",
					"outputs": [
						{
							"internalType": "bool",
							"name": "",
							"type": "bool"
						}
					],
					"stateMutability": "view",
					"type": "function"
				}
			],
			"devdoc": {
				"kind": "dev",
				"methods": {
					"addToWhiteList(address)": {
						"details": "Adds the address to the array if it is not already present",
						"params": {
							"addr": "The address to be added"
						}
					},
					"getWhiteList()": {
						"details": "Returns the entire array of white listed addresses",
						"returns": {
							"_0": "address[] The array of white listed addresses"
						}
					},
					"isInWhiteList(address)": {
						"details": "Loops through the array to check if the address exists",
						"params": {
							"addr": "The address to check"
						},
						"returns": {
							"_0": "bool True if the address is in the white list, false otherwise"
						}
					}
				},
				"title": "Concepts: White List using Array",
				"version": 1
			},
			"evm": {
				"assembly": "    /* \"ETH_KIPU/Register10_1.sol\":105:1313  contract Register10_1 {... */\n  mstore(0x40, 0x80)\n  callvalue\n  dup1\n  iszero\n  tag_1\n  jumpi\n  0x00\n  dup1\n  revert\ntag_1:\n  pop\n  dataSize(sub_0)\n  dup1\n  dataOffset(sub_0)\n  0x00\n  codecopy\n  0x00\n  return\nstop\n\nsub_0: assembly {\n        /* \"ETH_KIPU/Register10_1.sol\":105:1313  contract Register10_1 {... */\n      mstore(0x40, 0x80)\n      callvalue\n      dup1\n      iszero\n      tag_1\n      jumpi\n      0x00\n      dup1\n      revert\n    tag_1:\n      pop\n      jumpi(tag_2, lt(calldatasize, 0x04))\n      shr(0xe0, calldataload(0x00))\n      dup1\n      0x09a9d76c\n      eq\n      tag_3\n      jumpi\n      dup1\n      0x47ee0394\n      eq\n      tag_4\n      jumpi\n      dup1\n      0x96bfc229\n      eq\n      tag_5\n      jumpi\n    tag_2:\n      0x00\n      dup1\n      revert\n        /* \"ETH_KIPU/Register10_1.sol\":1210:1310  function getWhiteList() external view returns (address[] memory) {... */\n    tag_3:\n      tag_6\n      tag_7\n      jump\t// in\n    tag_6:\n      mload(0x40)\n      tag_8\n      swap2\n      swap1\n      tag_9\n      jump\t// in\n    tag_8:\n      mload(0x40)\n      dup1\n      swap2\n      sub\n      swap1\n      return\n        /* \"ETH_KIPU/Register10_1.sol\":345:504  function addToWhiteList(address addr) external {... */\n    tag_4:\n      tag_10\n      0x04\n      dup1\n      calldatasize\n      sub\n      dup2\n      add\n      swap1\n      tag_11\n      swap2\n      swap1\n      tag_12\n      jump\t// in\n    tag_11:\n      tag_13\n      jump\t// in\n    tag_10:\n      stop\n        /* \"ETH_KIPU/Register10_1.sol\":767:1014  function isInWhiteList(address addr) public view returns (bool) {... */\n    tag_5:\n      tag_14\n      0x04\n      dup1\n      calldatasize\n      sub\n      dup2\n      add\n      swap1\n      tag_15\n      swap2\n      swap1\n      tag_12\n      jump\t// in\n    tag_15:\n      tag_16\n      jump\t// in\n    tag_14:\n      mload(0x40)\n      tag_17\n      swap2\n      swap1\n      tag_18\n      jump\t// in\n    tag_17:\n      mload(0x40)\n      dup1\n      swap2\n      sub\n      swap1\n      return\n        /* \"ETH_KIPU/Register10_1.sol\":1210:1310  function getWhiteList() external view returns (address[] memory) {... */\n    tag_7:\n        /* \"ETH_KIPU/Register10_1.sol\":1257:1273  address[] memory */\n      0x60\n        /* \"ETH_KIPU/Register10_1.sol\":1293:1302  whiteList */\n      0x00\n        /* \"ETH_KIPU/Register10_1.sol\":1286:1302  return whiteList */\n      dup1\n      sload\n      dup1\n      0x20\n      mul\n      0x20\n      add\n      mload(0x40)\n      swap1\n      dup2\n      add\n      0x40\n      mstore\n      dup1\n      swap3\n      swap2\n      swap1\n      dup2\n      dup2\n      mstore\n      0x20\n      add\n      dup3\n      dup1\n      sload\n      dup1\n      iszero\n      tag_20\n      jumpi\n      0x20\n      mul\n      dup3\n      add\n      swap2\n      swap1\n      0x00\n      mstore\n      keccak256(0x00, 0x20)\n      swap1\n    tag_21:\n      dup2\n      0x00\n      swap1\n      sload\n      swap1\n      0x0100\n      exp\n      swap1\n      div\n      0xffffffffffffffffffffffffffffffffffffffff\n      and\n      0xffffffffffffffffffffffffffffffffffffffff\n      and\n      dup2\n      mstore\n      0x20\n      add\n      swap1\n      0x01\n      add\n      swap1\n      dup1\n      dup4\n      gt\n      tag_21\n      jumpi\n    tag_20:\n      pop\n      pop\n      pop\n      pop\n      pop\n      swap1\n      pop\n        /* \"ETH_KIPU/Register10_1.sol\":1210:1310  function getWhiteList() external view returns (address[] memory) {... */\n      swap1\n      jump\t// out\n        /* \"ETH_KIPU/Register10_1.sol\":345:504  function addToWhiteList(address addr) external {... */\n    tag_13:\n        /* \"ETH_KIPU/Register10_1.sol\":412:431  isInWhiteList(addr) */\n      tag_23\n        /* \"ETH_KIPU/Register10_1.sol\":426:430  addr */\n      dup2\n        /* \"ETH_KIPU/Register10_1.sol\":412:425  isInWhiteList */\n      tag_16\n        /* \"ETH_KIPU/Register10_1.sol\":412:431  isInWhiteList(addr) */\n      jump\t// in\n    tag_23:\n        /* \"ETH_KIPU/Register10_1.sol\":411:431  !isInWhiteList(addr) */\n      iszero\n        /* \"ETH_KIPU/Register10_1.sol\":403:465  require(!isInWhiteList(addr), \"Address already in white list\") */\n      tag_24\n      jumpi\n      mload(0x40)\n      0x08c379a000000000000000000000000000000000000000000000000000000000\n      dup2\n      mstore\n      0x04\n      add\n      tag_25\n      swap1\n      tag_26\n      jump\t// in\n    tag_25:\n      mload(0x40)\n      dup1\n      swap2\n      sub\n      swap1\n      revert\n    tag_24:\n        /* \"ETH_KIPU/Register10_1.sol\":476:485  whiteList */\n      0x00\n        /* \"ETH_KIPU/Register10_1.sol\":491:495  addr */\n      dup2\n        /* \"ETH_KIPU/Register10_1.sol\":476:496  whiteList.push(addr) */\n      swap1\n      dup1\n      0x01\n      dup2\n      sload\n      add\n      dup1\n      dup3\n      sstore\n      dup1\n      swap2\n      pop\n      pop\n      0x01\n      swap1\n      sub\n      swap1\n      0x00\n      mstore\n      keccak256(0x00, 0x20)\n      add\n      0x00\n      swap1\n      swap2\n      swap1\n      swap2\n      swap1\n      swap2\n      0x0100\n      exp\n      dup2\n      sload\n      dup2\n      0xffffffffffffffffffffffffffffffffffffffff\n      mul\n      not\n      and\n      swap1\n      dup4\n      0xffffffffffffffffffffffffffffffffffffffff\n      and\n      mul\n      or\n      swap1\n      sstore\n      pop\n        /* \"ETH_KIPU/Register10_1.sol\":345:504  function addToWhiteList(address addr) external {... */\n      pop\n      jump\t// out\n        /* \"ETH_KIPU/Register10_1.sol\":767:1014  function isInWhiteList(address addr) public view returns (bool) {... */\n    tag_16:\n        /* \"ETH_KIPU/Register10_1.sol\":825:829  bool */\n      0x00\n        /* \"ETH_KIPU/Register10_1.sol\":847:853  uint i */\n      dup1\n        /* \"ETH_KIPU/Register10_1.sol\":856:857  0 */\n      0x00\n        /* \"ETH_KIPU/Register10_1.sol\":847:857  uint i = 0 */\n      swap1\n      pop\n        /* \"ETH_KIPU/Register10_1.sol\":842:984  for (uint i = 0; i < whiteList.length; i++) {... */\n    tag_29:\n        /* \"ETH_KIPU/Register10_1.sol\":863:872  whiteList */\n      0x00\n        /* \"ETH_KIPU/Register10_1.sol\":863:879  whiteList.length */\n      dup1\n      sload\n      swap1\n      pop\n        /* \"ETH_KIPU/Register10_1.sol\":859:860  i */\n      dup2\n        /* \"ETH_KIPU/Register10_1.sol\":859:879  i < whiteList.length */\n      lt\n        /* \"ETH_KIPU/Register10_1.sol\":842:984  for (uint i = 0; i < whiteList.length; i++) {... */\n      iszero\n      tag_30\n      jumpi\n        /* \"ETH_KIPU/Register10_1.sol\":921:925  addr */\n      dup3\n        /* \"ETH_KIPU/Register10_1.sol\":905:925  whiteList[i] == addr */\n      0xffffffffffffffffffffffffffffffffffffffff\n      and\n        /* \"ETH_KIPU/Register10_1.sol\":905:914  whiteList */\n      0x00\n        /* \"ETH_KIPU/Register10_1.sol\":915:916  i */\n      dup3\n        /* \"ETH_KIPU/Register10_1.sol\":905:917  whiteList[i] */\n      dup2\n      sload\n      dup2\n      lt\n      tag_32\n      jumpi\n      tag_33\n      tag_34\n      jump\t// in\n    tag_33:\n    tag_32:\n      swap1\n      0x00\n      mstore\n      keccak256(0x00, 0x20)\n      add\n      0x00\n      swap1\n      sload\n      swap1\n      0x0100\n      exp\n      swap1\n      div\n      0xffffffffffffffffffffffffffffffffffffffff\n      and\n        /* \"ETH_KIPU/Register10_1.sol\":905:925  whiteList[i] == addr */\n      0xffffffffffffffffffffffffffffffffffffffff\n      and\n      sub\n        /* \"ETH_KIPU/Register10_1.sol\":901:973  if (whiteList[i] == addr) {... */\n      tag_36\n      jumpi\n        /* \"ETH_KIPU/Register10_1.sol\":953:957  true */\n      0x01\n        /* \"ETH_KIPU/Register10_1.sol\":946:957  return true */\n      swap2\n      pop\n      pop\n      jump(tag_28)\n        /* \"ETH_KIPU/Register10_1.sol\":901:973  if (whiteList[i] == addr) {... */\n    tag_36:\n        /* \"ETH_KIPU/Register10_1.sol\":881:884  i++ */\n      dup1\n      dup1\n      tag_37\n      swap1\n      tag_38\n      jump\t// in\n    tag_37:\n      swap2\n      pop\n      pop\n        /* \"ETH_KIPU/Register10_1.sol\":842:984  for (uint i = 0; i < whiteList.length; i++) {... */\n      jump(tag_29)\n    tag_30:\n      pop\n        /* \"ETH_KIPU/Register10_1.sol\":1001:1006  false */\n      0x00\n        /* \"ETH_KIPU/Register10_1.sol\":994:1006  return false */\n      swap1\n      pop\n        /* \"ETH_KIPU/Register10_1.sol\":767:1014  function isInWhiteList(address addr) public view returns (bool) {... */\n    tag_28:\n      swap2\n      swap1\n      pop\n      jump\t// out\n        /* \"#utility.yul\":7:121   */\n    tag_39:\n        /* \"#utility.yul\":74:80   */\n      0x00\n        /* \"#utility.yul\":108:113   */\n      dup2\n        /* \"#utility.yul\":102:114   */\n      mload\n        /* \"#utility.yul\":92:114   */\n      swap1\n      pop\n        /* \"#utility.yul\":7:121   */\n      swap2\n      swap1\n      pop\n      jump\t// out\n        /* \"#utility.yul\":127:311   */\n    tag_40:\n        /* \"#utility.yul\":226:237   */\n      0x00\n        /* \"#utility.yul\":260:266   */\n      dup3\n        /* \"#utility.yul\":255:258   */\n      dup3\n        /* \"#utility.yul\":248:267   */\n      mstore\n        /* \"#utility.yul\":300:304   */\n      0x20\n        /* \"#utility.yul\":295:298   */\n      dup3\n        /* \"#utility.yul\":291:305   */\n      add\n        /* \"#utility.yul\":276:305   */\n      swap1\n      pop\n        /* \"#utility.yul\":127:311   */\n      swap3\n      swap2\n      pop\n      pop\n      jump\t// out\n        /* \"#utility.yul\":317:449   */\n    tag_41:\n        /* \"#utility.yul\":384:388   */\n      0x00\n        /* \"#utility.yul\":407:410   */\n      dup2\n        /* \"#utility.yul\":399:410   */\n      swap1\n      pop\n        /* \"#utility.yul\":437:441   */\n      0x20\n        /* \"#utility.yul\":432:435   */\n      dup3\n        /* \"#utility.yul\":428:442   */\n      add\n        /* \"#utility.yul\":420:442   */\n      swap1\n      pop\n        /* \"#utility.yul\":317:449   */\n      swap2\n      swap1\n      pop\n      jump\t// out\n        /* \"#utility.yul\":455:581   */\n    tag_42:\n        /* \"#utility.yul\":492:499   */\n      0x00\n        /* \"#utility.yul\":532:574   */\n      0xffffffffffffffffffffffffffffffffffffffff\n        /* \"#utility.yul\":525:530   */\n      dup3\n        /* \"#utility.yul\":521:575   */\n      and\n        /* \"#utility.yul\":510:575   */\n      swap1\n      pop\n        /* \"#utility.yul\":455:581   */\n      swap2\n      swap1\n      pop\n      jump\t// out\n        /* \"#utility.yul\":587:683   */\n    tag_43:\n        /* \"#utility.yul\":624:631   */\n      0x00\n        /* \"#utility.yul\":653:677   */\n      tag_66\n        /* \"#utility.yul\":671:676   */\n      dup3\n        /* \"#utility.yul\":653:677   */\n      tag_42\n      jump\t// in\n    tag_66:\n        /* \"#utility.yul\":642:677   */\n      swap1\n      pop\n        /* \"#utility.yul\":587:683   */\n      swap2\n      swap1\n      pop\n      jump\t// out\n        /* \"#utility.yul\":689:797   */\n    tag_44:\n        /* \"#utility.yul\":766:790   */\n      tag_68\n        /* \"#utility.yul\":784:789   */\n      dup2\n        /* \"#utility.yul\":766:790   */\n      tag_43\n      jump\t// in\n    tag_68:\n        /* \"#utility.yul\":761:764   */\n      dup3\n        /* \"#utility.yul\":754:791   */\n      mstore\n        /* \"#utility.yul\":689:797   */\n      pop\n      pop\n      jump\t// out\n        /* \"#utility.yul\":803:982   */\n    tag_45:\n        /* \"#utility.yul\":872:882   */\n      0x00\n        /* \"#utility.yul\":893:939   */\n      tag_70\n        /* \"#utility.yul\":935:938   */\n      dup4\n        /* \"#utility.yul\":927:933   */\n      dup4\n        /* \"#utility.yul\":893:939   */\n      tag_44\n      jump\t// in\n    tag_70:\n        /* \"#utility.yul\":971:975   */\n      0x20\n        /* \"#utility.yul\":966:969   */\n      dup4\n        /* \"#utility.yul\":962:976   */\n      add\n        /* \"#utility.yul\":948:976   */\n      swap1\n      pop\n        /* \"#utility.yul\":803:982   */\n      swap3\n      swap2\n      pop\n      pop\n      jump\t// out\n        /* \"#utility.yul\":988:1101   */\n    tag_46:\n        /* \"#utility.yul\":1058:1062   */\n      0x00\n        /* \"#utility.yul\":1090:1094   */\n      0x20\n        /* \"#utility.yul\":1085:1088   */\n      dup3\n        /* \"#utility.yul\":1081:1095   */\n      add\n        /* \"#utility.yul\":1073:1095   */\n      swap1\n      pop\n        /* \"#utility.yul\":988:1101   */\n      swap2\n      swap1\n      pop\n      jump\t// out\n        /* \"#utility.yul\":1137:1869   */\n    tag_47:\n        /* \"#utility.yul\":1256:1259   */\n      0x00\n        /* \"#utility.yul\":1285:1339   */\n      tag_73\n        /* \"#utility.yul\":1333:1338   */\n      dup3\n        /* \"#utility.yul\":1285:1339   */\n      tag_39\n      jump\t// in\n    tag_73:\n        /* \"#utility.yul\":1355:1441   */\n      tag_74\n        /* \"#utility.yul\":1434:1440   */\n      dup2\n        /* \"#utility.yul\":1429:1432   */\n      dup6\n        /* \"#utility.yul\":1355:1441   */\n      tag_40\n      jump\t// in\n    tag_74:\n        /* \"#utility.yul\":1348:1441   */\n      swap4\n      pop\n        /* \"#utility.yul\":1465:1521   */\n      tag_75\n        /* \"#utility.yul\":1515:1520   */\n      dup4\n        /* \"#utility.yul\":1465:1521   */\n      tag_41\n      jump\t// in\n    tag_75:\n        /* \"#utility.yul\":1544:1551   */\n      dup1\n        /* \"#utility.yul\":1575:1576   */\n      0x00\n        /* \"#utility.yul\":1560:1844   */\n    tag_76:\n        /* \"#utility.yul\":1585:1591   */\n      dup4\n        /* \"#utility.yul\":1582:1583   */\n      dup2\n        /* \"#utility.yul\":1579:1592   */\n      lt\n        /* \"#utility.yul\":1560:1844   */\n      iszero\n      tag_78\n      jumpi\n        /* \"#utility.yul\":1661:1667   */\n      dup2\n        /* \"#utility.yul\":1655:1668   */\n      mload\n        /* \"#utility.yul\":1688:1751   */\n      tag_79\n        /* \"#utility.yul\":1747:1750   */\n      dup9\n        /* \"#utility.yul\":1732:1745   */\n      dup3\n        /* \"#utility.yul\":1688:1751   */\n      tag_45\n      jump\t// in\n    tag_79:\n        /* \"#utility.yul\":1681:1751   */\n      swap8\n      pop\n        /* \"#utility.yul\":1774:1834   */\n      tag_80\n        /* \"#utility.yul\":1827:1833   */\n      dup4\n        /* \"#utility.yul\":1774:1834   */\n      tag_46\n      jump\t// in\n    tag_80:\n        /* \"#utility.yul\":1764:1834   */\n      swap3\n      pop\n        /* \"#utility.yul\":1620:1844   */\n      pop\n        /* \"#utility.yul\":1607:1608   */\n      0x01\n        /* \"#utility.yul\":1604:1605   */\n      dup2\n        /* \"#utility.yul\":1600:1609   */\n      add\n        /* \"#utility.yul\":1595:1609   */\n      swap1\n      pop\n        /* \"#utility.yul\":1560:1844   */\n      jump(tag_76)\n    tag_78:\n        /* \"#utility.yul\":1564:1578   */\n      pop\n        /* \"#utility.yul\":1860:1863   */\n      dup6\n        /* \"#utility.yul\":1853:1863   */\n      swap4\n      pop\n        /* \"#utility.yul\":1261:1869   */\n      pop\n      pop\n      pop\n        /* \"#utility.yul\":1137:1869   */\n      swap3\n      swap2\n      pop\n      pop\n      jump\t// out\n        /* \"#utility.yul\":1875:2248   */\n    tag_9:\n        /* \"#utility.yul\":2018:2022   */\n      0x00\n        /* \"#utility.yul\":2056:2058   */\n      0x20\n        /* \"#utility.yul\":2045:2054   */\n      dup3\n        /* \"#utility.yul\":2041:2059   */\n      add\n        /* \"#utility.yul\":2033:2059   */\n      swap1\n      pop\n        /* \"#utility.yul\":2105:2114   */\n      dup2\n        /* \"#utility.yul\":2099:2103   */\n      dup2\n        /* \"#utility.yul\":2095:2115   */\n      sub\n        /* \"#utility.yul\":2091:2092   */\n      0x00\n        /* \"#utility.yul\":2080:2089   */\n      dup4\n        /* \"#utility.yul\":2076:2093   */\n      add\n        /* \"#utility.yul\":2069:2116   */\n      mstore\n        /* \"#utility.yul\":2133:2241   */\n      tag_82\n        /* \"#utility.yul\":2236:2240   */\n      dup2\n        /* \"#utility.yul\":2227:2233   */\n      dup5\n        /* \"#utility.yul\":2133:2241   */\n      tag_47\n      jump\t// in\n    tag_82:\n        /* \"#utility.yul\":2125:2241   */\n      swap1\n      pop\n        /* \"#utility.yul\":1875:2248   */\n      swap3\n      swap2\n      pop\n      pop\n      jump\t// out\n        /* \"#utility.yul\":2335:2452   */\n    tag_49:\n        /* \"#utility.yul\":2444:2445   */\n      0x00\n        /* \"#utility.yul\":2441:2442   */\n      dup1\n        /* \"#utility.yul\":2434:2446   */\n      revert\n        /* \"#utility.yul\":2581:2703   */\n    tag_51:\n        /* \"#utility.yul\":2654:2678   */\n      tag_87\n        /* \"#utility.yul\":2672:2677   */\n      dup2\n        /* \"#utility.yul\":2654:2678   */\n      tag_43\n      jump\t// in\n    tag_87:\n        /* \"#utility.yul\":2647:2652   */\n      dup2\n        /* \"#utility.yul\":2644:2679   */\n      eq\n        /* \"#utility.yul\":2634:2697   */\n      tag_88\n      jumpi\n        /* \"#utility.yul\":2693:2694   */\n      0x00\n        /* \"#utility.yul\":2690:2691   */\n      dup1\n        /* \"#utility.yul\":2683:2695   */\n      revert\n        /* \"#utility.yul\":2634:2697   */\n    tag_88:\n        /* \"#utility.yul\":2581:2703   */\n      pop\n      jump\t// out\n        /* \"#utility.yul\":2709:2848   */\n    tag_52:\n        /* \"#utility.yul\":2755:2760   */\n      0x00\n        /* \"#utility.yul\":2793:2799   */\n      dup2\n        /* \"#utility.yul\":2780:2800   */\n      calldataload\n        /* \"#utility.yul\":2771:2800   */\n      swap1\n      pop\n        /* \"#utility.yul\":2809:2842   */\n      tag_90\n        /* \"#utility.yul\":2836:2841   */\n      dup2\n        /* \"#utility.yul\":2809:2842   */\n      tag_51\n      jump\t// in\n    tag_90:\n        /* \"#utility.yul\":2709:2848   */\n      swap3\n      swap2\n      pop\n      pop\n      jump\t// out\n        /* \"#utility.yul\":2854:3183   */\n    tag_12:\n        /* \"#utility.yul\":2913:2919   */\n      0x00\n        /* \"#utility.yul\":2962:2964   */\n      0x20\n        /* \"#utility.yul\":2950:2959   */\n      dup3\n        /* \"#utility.yul\":2941:2948   */\n      dup5\n        /* \"#utility.yul\":2937:2960   */\n      sub\n        /* \"#utility.yul\":2933:2965   */\n      slt\n        /* \"#utility.yul\":2930:3049   */\n      iszero\n      tag_92\n      jumpi\n        /* \"#utility.yul\":2968:3047   */\n      tag_93\n      tag_49\n      jump\t// in\n    tag_93:\n        /* \"#utility.yul\":2930:3049   */\n    tag_92:\n        /* \"#utility.yul\":3088:3089   */\n      0x00\n        /* \"#utility.yul\":3113:3166   */\n      tag_94\n        /* \"#utility.yul\":3158:3165   */\n      dup5\n        /* \"#utility.yul\":3149:3155   */\n      dup3\n        /* \"#utility.yul\":3138:3147   */\n      dup6\n        /* \"#utility.yul\":3134:3156   */\n      add\n        /* \"#utility.yul\":3113:3166   */\n      tag_52\n      jump\t// in\n    tag_94:\n        /* \"#utility.yul\":3103:3166   */\n      swap2\n      pop\n        /* \"#utility.yul\":3059:3176   */\n      pop\n        /* \"#utility.yul\":2854:3183   */\n      swap3\n      swap2\n      pop\n      pop\n      jump\t// out\n        /* \"#utility.yul\":3189:3279   */\n    tag_53:\n        /* \"#utility.yul\":3223:3230   */\n      0x00\n        /* \"#utility.yul\":3266:3271   */\n      dup2\n        /* \"#utility.yul\":3259:3272   */\n      iszero\n        /* \"#utility.yul\":3252:3273   */\n      iszero\n        /* \"#utility.yul\":3241:3273   */\n      swap1\n      pop\n        /* \"#utility.yul\":3189:3279   */\n      swap2\n      swap1\n      pop\n      jump\t// out\n        /* \"#utility.yul\":3285:3394   */\n    tag_54:\n        /* \"#utility.yul\":3366:3387   */\n      tag_97\n        /* \"#utility.yul\":3381:3386   */\n      dup2\n        /* \"#utility.yul\":3366:3387   */\n      tag_53\n      jump\t// in\n    tag_97:\n        /* \"#utility.yul\":3361:3364   */\n      dup3\n        /* \"#utility.yul\":3354:3388   */\n      mstore\n        /* \"#utility.yul\":3285:3394   */\n      pop\n      pop\n      jump\t// out\n        /* \"#utility.yul\":3400:3610   */\n    tag_18:\n        /* \"#utility.yul\":3487:3491   */\n      0x00\n        /* \"#utility.yul\":3525:3527   */\n      0x20\n        /* \"#utility.yul\":3514:3523   */\n      dup3\n        /* \"#utility.yul\":3510:3528   */\n      add\n        /* \"#utility.yul\":3502:3528   */\n      swap1\n      pop\n        /* \"#utility.yul\":3538:3603   */\n      tag_99\n        /* \"#utility.yul\":3600:3601   */\n      0x00\n        /* \"#utility.yul\":3589:3598   */\n      dup4\n        /* \"#utility.yul\":3585:3602   */\n      add\n        /* \"#utility.yul\":3576:3582   */\n      dup5\n        /* \"#utility.yul\":3538:3603   */\n      tag_54\n      jump\t// in\n    tag_99:\n        /* \"#utility.yul\":3400:3610   */\n      swap3\n      swap2\n      pop\n      pop\n      jump\t// out\n        /* \"#utility.yul\":3616:3785   */\n    tag_55:\n        /* \"#utility.yul\":3700:3711   */\n      0x00\n        /* \"#utility.yul\":3734:3740   */\n      dup3\n        /* \"#utility.yul\":3729:3732   */\n      dup3\n        /* \"#utility.yul\":3722:3741   */\n      mstore\n        /* \"#utility.yul\":3774:3778   */\n      0x20\n        /* \"#utility.yul\":3769:3772   */\n      dup3\n        /* \"#utility.yul\":3765:3779   */\n      add\n        /* \"#utility.yul\":3750:3779   */\n      swap1\n      pop\n        /* \"#utility.yul\":3616:3785   */\n      swap3\n      swap2\n      pop\n      pop\n      jump\t// out\n        /* \"#utility.yul\":3791:3970   */\n    tag_56:\n        /* \"#utility.yul\":3931:3962   */\n      0x4164647265737320616c726561647920696e207768697465206c697374000000\n        /* \"#utility.yul\":3927:3928   */\n      0x00\n        /* \"#utility.yul\":3919:3925   */\n      dup3\n        /* \"#utility.yul\":3915:3929   */\n      add\n        /* \"#utility.yul\":3908:3963   */\n      mstore\n        /* \"#utility.yul\":3791:3970   */\n      pop\n      jump\t// out\n        /* \"#utility.yul\":3976:4342   */\n    tag_57:\n        /* \"#utility.yul\":4118:4121   */\n      0x00\n        /* \"#utility.yul\":4139:4206   */\n      tag_103\n        /* \"#utility.yul\":4203:4205   */\n      0x1d\n        /* \"#utility.yul\":4198:4201   */\n      dup4\n        /* \"#utility.yul\":4139:4206   */\n      tag_55\n      jump\t// in\n    tag_103:\n        /* \"#utility.yul\":4132:4206   */\n      swap2\n      pop\n        /* \"#utility.yul\":4215:4308   */\n      tag_104\n        /* \"#utility.yul\":4304:4307   */\n      dup3\n        /* \"#utility.yul\":4215:4308   */\n      tag_56\n      jump\t// in\n    tag_104:\n        /* \"#utility.yul\":4333:4335   */\n      0x20\n        /* \"#utility.yul\":4328:4331   */\n      dup3\n        /* \"#utility.yul\":4324:4336   */\n      add\n        /* \"#utility.yul\":4317:4336   */\n      swap1\n      pop\n        /* \"#utility.yul\":3976:4342   */\n      swap2\n      swap1\n      pop\n      jump\t// out\n        /* \"#utility.yul\":4348:4767   */\n    tag_26:\n        /* \"#utility.yul\":4514:4518   */\n      0x00\n        /* \"#utility.yul\":4552:4554   */\n      0x20\n        /* \"#utility.yul\":4541:4550   */\n      dup3\n        /* \"#utility.yul\":4537:4555   */\n      add\n        /* \"#utility.yul\":4529:4555   */\n      swap1\n      pop\n        /* \"#utility.yul\":4601:4610   */\n      dup2\n        /* \"#utility.yul\":4595:4599   */\n      dup2\n        /* \"#utility.yul\":4591:4611   */\n      sub\n        /* \"#utility.yul\":4587:4588   */\n      0x00\n        /* \"#utility.yul\":4576:4585   */\n      dup4\n        /* \"#utility.yul\":4572:4589   */\n      add\n        /* \"#utility.yul\":4565:4612   */\n      mstore\n        /* \"#utility.yul\":4629:4760   */\n      tag_106\n        /* \"#utility.yul\":4755:4759   */\n      dup2\n        /* \"#utility.yul\":4629:4760   */\n      tag_57\n      jump\t// in\n    tag_106:\n        /* \"#utility.yul\":4621:4760   */\n      swap1\n      pop\n        /* \"#utility.yul\":4348:4767   */\n      swap2\n      swap1\n      pop\n      jump\t// out\n        /* \"#utility.yul\":4773:4953   */\n    tag_34:\n        /* \"#utility.yul\":4821:4898   */\n      0x4e487b7100000000000000000000000000000000000000000000000000000000\n        /* \"#utility.yul\":4818:4819   */\n      0x00\n        /* \"#utility.yul\":4811:4899   */\n      mstore\n        /* \"#utility.yul\":4918:4922   */\n      0x32\n        /* \"#utility.yul\":4915:4916   */\n      0x04\n        /* \"#utility.yul\":4908:4923   */\n      mstore\n        /* \"#utility.yul\":4942:4946   */\n      0x24\n        /* \"#utility.yul\":4939:4940   */\n      0x00\n        /* \"#utility.yul\":4932:4947   */\n      revert\n        /* \"#utility.yul\":4959:5139   */\n    tag_58:\n        /* \"#utility.yul\":5007:5084   */\n      0x4e487b7100000000000000000000000000000000000000000000000000000000\n        /* \"#utility.yul\":5004:5005   */\n      0x00\n        /* \"#utility.yul\":4997:5085   */\n      mstore\n        /* \"#utility.yul\":5104:5108   */\n      0x11\n        /* \"#utility.yul\":5101:5102   */\n      0x04\n        /* \"#utility.yul\":5094:5109   */\n      mstore\n        /* \"#utility.yul\":5128:5132   */\n      0x24\n        /* \"#utility.yul\":5125:5126   */\n      0x00\n        /* \"#utility.yul\":5118:5133   */\n      revert\n        /* \"#utility.yul\":5145:5222   */\n    tag_59:\n        /* \"#utility.yul\":5182:5189   */\n      0x00\n        /* \"#utility.yul\":5211:5216   */\n      dup2\n        /* \"#utility.yul\":5200:5216   */\n      swap1\n      pop\n        /* \"#utility.yul\":5145:5222   */\n      swap2\n      swap1\n      pop\n      jump\t// out\n        /* \"#utility.yul\":5228:5461   */\n    tag_38:\n        /* \"#utility.yul\":5267:5270   */\n      0x00\n        /* \"#utility.yul\":5290:5314   */\n      tag_111\n        /* \"#utility.yul\":5308:5313   */\n      dup3\n        /* \"#utility.yul\":5290:5314   */\n      tag_59\n      jump\t// in\n    tag_111:\n        /* \"#utility.yul\":5281:5314   */\n      swap2\n      pop\n        /* \"#utility.yul\":5336:5402   */\n      0xffffffffffffffffffffffffffffffffffffffffffffffffffffffffffffffff\n        /* \"#utility.yul\":5329:5334   */\n      dup3\n        /* \"#utility.yul\":5326:5403   */\n      sub\n        /* \"#utility.yul\":5323:5426   */\n      tag_112\n      jumpi\n        /* \"#utility.yul\":5406:5424   */\n      tag_113\n      tag_58\n      jump\t// in\n    tag_113:\n        /* \"#utility.yul\":5323:5426   */\n    tag_112:\n        /* \"#utility.yul\":5453:5454   */\n      0x01\n        /* \"#utility.yul\":5446:5451   */\n      dup3\n        /* \"#utility.yul\":5442:5455   */\n      add\n        /* \"#utility.yul\":5435:5455   */\n      swap1\n      pop\n        /* \"#utility.yul\":5228:5461   */\n      swap2\n      swap1\n      pop\n      jump\t// out\n\n    auxdata: 0xa2646970667358221220c48d5a85ca4be003d0b1877ad2a04041d0ba89a9086d910a673036c4885e076164736f6c63430008130033\n}\n",
				"bytecode": {
					"linkReferences": {},
					"object": "608060405234801561001057600080fd5b506105a4806100206000396000f3fe608060405234801561001057600080fd5b50600436106100415760003560e01c806309a9d76c1461004657806347ee03941461006457806396bfc22914610080575b600080fd5b61004e6100b0565b60405161005b919061038b565b60405180910390f35b61007e600480360381019061007991906103de565b61013e565b005b61009a600480360381019061009591906103de565b6101ed565b6040516100a79190610426565b60405180910390f35b6060600080548060200260200160405190810160405280929190818152602001828054801561013457602002820191906000526020600020905b8160009054906101000a900473ffffffffffffffffffffffffffffffffffffffff1673ffffffffffffffffffffffffffffffffffffffff16815260200190600101908083116100ea575b5050505050905090565b610147816101ed565b15610187576040517f08c379a000000000000000000000000000000000000000000000000000000000815260040161017e9061049e565b60405180910390fd5b6000819080600181540180825580915050600190039060005260206000200160009091909190916101000a81548173ffffffffffffffffffffffffffffffffffffffff021916908373ffffffffffffffffffffffffffffffffffffffff16021790555050565b600080600090505b600080549050811015610290578273ffffffffffffffffffffffffffffffffffffffff166000828154811061022d5761022c6104be565b5b9060005260206000200160009054906101000a900473ffffffffffffffffffffffffffffffffffffffff1673ffffffffffffffffffffffffffffffffffffffff160361027d576001915050610296565b808061028890610526565b9150506101f5565b50600090505b919050565b600081519050919050565b600082825260208201905092915050565b6000819050602082019050919050565b600073ffffffffffffffffffffffffffffffffffffffff82169050919050565b60006102f2826102c7565b9050919050565b610302816102e7565b82525050565b600061031483836102f9565b60208301905092915050565b6000602082019050919050565b60006103388261029b565b61034281856102a6565b935061034d836102b7565b8060005b8381101561037e5781516103658882610308565b975061037083610320565b925050600181019050610351565b5085935050505092915050565b600060208201905081810360008301526103a5818461032d565b905092915050565b600080fd5b6103bb816102e7565b81146103c657600080fd5b50565b6000813590506103d8816103b2565b92915050565b6000602082840312156103f4576103f36103ad565b5b6000610402848285016103c9565b91505092915050565b60008115159050919050565b6104208161040b565b82525050565b600060208201905061043b6000830184610417565b92915050565b600082825260208201905092915050565b7f4164647265737320616c726561647920696e207768697465206c697374000000600082015250565b6000610488601d83610441565b915061049382610452565b602082019050919050565b600060208201905081810360008301526104b78161047b565b9050919050565b7f4e487b7100000000000000000000000000000000000000000000000000000000600052603260045260246000fd5b7f4e487b7100000000000000000000000000000000000000000000000000000000600052601160045260246000fd5b6000819050919050565b60006105318261051c565b91507fffffffffffffffffffffffffffffffffffffffffffffffffffffffffffffffff8203610563576105626104ed565b5b60018201905091905056fea2646970667358221220c48d5a85ca4be003d0b1877ad2a04041d0ba89a9086d910a673036c4885e076164736f6c63430008130033",
					"opcodes": "PUSH1 0x80 PUSH1 0x40 MSTORE CALLVALUE DUP1 ISZERO PUSH2 0x10 JUMPI PUSH1 0x0 DUP1 REVERT JUMPDEST POP PUSH2 0x5A4 DUP1 PUSH2 0x20 PUSH1 0x0 CODECOPY PUSH1 0x0 RETURN INVALID PUSH1 0x80 PUSH1 0x40 MSTORE CALLVALUE DUP1 ISZERO PUSH2 0x10 JUMPI PUSH1 0x0 DUP1 REVERT JUMPDEST POP PUSH1 0x4 CALLDATASIZE LT PUSH2 0x41 JUMPI PUSH1 0x0 CALLDATALOAD PUSH1 0xE0 SHR DUP1 PUSH4 0x9A9D76C EQ PUSH2 0x46 JUMPI DUP1 PUSH4 0x47EE0394 EQ PUSH2 0x64 JUMPI DUP1 PUSH4 0x96BFC229 EQ PUSH2 0x80 JUMPI JUMPDEST PUSH1 0x0 DUP1 REVERT JUMPDEST PUSH2 0x4E PUSH2 0xB0 JUMP JUMPDEST PUSH1 0x40 MLOAD PUSH2 0x5B SWAP2 SWAP1 PUSH2 0x38B JUMP JUMPDEST PUSH1 0x40 MLOAD DUP1 SWAP2 SUB SWAP1 RETURN JUMPDEST PUSH2 0x7E PUSH1 0x4 DUP1 CALLDATASIZE SUB DUP2 ADD SWAP1 PUSH2 0x79 SWAP2 SWAP1 PUSH2 0x3DE JUMP JUMPDEST PUSH2 0x13E JUMP JUMPDEST STOP JUMPDEST PUSH2 0x9A PUSH1 0x4 DUP1 CALLDATASIZE SUB DUP2 ADD SWAP1 PUSH2 0x95 SWAP2 SWAP1 PUSH2 0x3DE JUMP JUMPDEST PUSH2 0x1ED JUMP JUMPDEST PUSH1 0x40 MLOAD PUSH2 0xA7 SWAP2 SWAP1 PUSH2 0x426 JUMP JUMPDEST PUSH1 0x40 MLOAD DUP1 SWAP2 SUB SWAP1 RETURN JUMPDEST PUSH1 0x60 PUSH1 0x0 DUP1 SLOAD DUP1 PUSH1 0x20 MUL PUSH1 0x20 ADD PUSH1 0x40 MLOAD SWAP1 DUP2 ADD PUSH1 0x40 MSTORE DUP1 SWAP3 SWAP2 SWAP1 DUP2 DUP2 MSTORE PUSH1 0x20 ADD DUP3 DUP1 SLOAD DUP1 ISZERO PUSH2 0x134 JUMPI PUSH1 0x20 MUL DUP3 ADD SWAP2 SWAP1 PUSH1 0x0 MSTORE PUSH1 0x20 PUSH1 0x0 KECCAK256 SWAP1 JUMPDEST DUP2 PUSH1 0x0 SWAP1 SLOAD SWAP1 PUSH2 0x100 EXP SWAP1 DIV PUSH20 0xFFFFFFFFFFFFFFFFFFFFFFFFFFFFFFFFFFFFFFFF AND PUSH20 0xFFFFFFFFFFFFFFFFFFFFFFFFFFFFFFFFFFFFFFFF AND DUP2 MSTORE PUSH1 0x20 ADD SWAP1 PUSH1 0x1 ADD SWAP1 DUP1 DUP4 GT PUSH2 0xEA JUMPI JUMPDEST POP POP POP POP POP SWAP1 POP SWAP1 JUMP JUMPDEST PUSH2 0x147 DUP2 PUSH2 0x1ED JUMP JUMPDEST ISZERO PUSH2 0x187 JUMPI PUSH1 0x40 MLOAD PUSH32 0x8C379A000000000000000000000000000000000000000000000000000000000 DUP2 MSTORE PUSH1 0x4 ADD PUSH2 0x17E SWAP1 PUSH2 0x49E JUMP JUMPDEST PUSH1 0x40 MLOAD DUP1 SWAP2 SUB SWAP1 REVERT JUMPDEST PUSH1 0x0 DUP2 SWAP1 DUP1 PUSH1 0x1 DUP2 SLOAD ADD DUP1 DUP3 SSTORE DUP1 SWAP2 POP POP PUSH1 0x1 SWAP1 SUB SWAP1 PUSH1 0x0 MSTORE PUSH1 0x20 PUSH1 0x0 KECCAK256 ADD PUSH1 0x0 SWAP1 SWAP2 SWAP1 SWAP2 SWAP1 SWAP2 PUSH2 0x100 EXP DUP2 SLOAD DUP2 PUSH20 0xFFFFFFFFFFFFFFFFFFFFFFFFFFFFFFFFFFFFFFFF MUL NOT AND SWAP1 DUP4 PUSH20 0xFFFFFFFFFFFFFFFFFFFFFFFFFFFFFFFFFFFFFFFF AND MUL OR SWAP1 SSTORE POP POP JUMP JUMPDEST PUSH1 0x0 DUP1 PUSH1 0x0 SWAP1 POP JUMPDEST PUSH1 0x0 DUP1 SLOAD SWAP1 POP DUP2 LT ISZERO PUSH2 0x290 JUMPI DUP3 PUSH20 0xFFFFFFFFFFFFFFFFFFFFFFFFFFFFFFFFFFFFFFFF AND PUSH1 0x0 DUP3 DUP2 SLOAD DUP2 LT PUSH2 0x22D JUMPI PUSH2 0x22C PUSH2 0x4BE JUMP JUMPDEST JUMPDEST SWAP1 PUSH1 0x0 MSTORE PUSH1 0x20 PUSH1 0x0 KECCAK256 ADD PUSH1 0x0 SWAP1 SLOAD SWAP1 PUSH2 0x100 EXP SWAP1 DIV PUSH20 0xFFFFFFFFFFFFFFFFFFFFFFFFFFFFFFFFFFFFFFFF AND PUSH20 0xFFFFFFFFFFFFFFFFFFFFFFFFFFFFFFFFFFFFFFFF AND SUB PUSH2 0x27D JUMPI PUSH1 0x1 SWAP2 POP POP PUSH2 0x296 JUMP JUMPDEST DUP1 DUP1 PUSH2 0x288 SWAP1 PUSH2 0x526 JUMP JUMPDEST SWAP2 POP POP PUSH2 0x1F5 JUMP JUMPDEST POP PUSH1 0x0 SWAP1 POP JUMPDEST SWAP2 SWAP1 POP JUMP JUMPDEST PUSH1 0x0 DUP2 MLOAD SWAP1 POP SWAP2 SWAP1 POP JUMP JUMPDEST PUSH1 0x0 DUP3 DUP3 MSTORE PUSH1 0x20 DUP3 ADD SWAP1 POP SWAP3 SWAP2 POP POP JUMP JUMPDEST PUSH1 0x0 DUP2 SWAP1 POP PUSH1 0x20 DUP3 ADD SWAP1 POP SWAP2 SWAP1 POP JUMP JUMPDEST PUSH1 0x0 PUSH20 0xFFFFFFFFFFFFFFFFFFFFFFFFFFFFFFFFFFFFFFFF DUP3 AND SWAP1 POP SWAP2 SWAP1 POP JUMP JUMPDEST PUSH1 0x0 PUSH2 0x2F2 DUP3 PUSH2 0x2C7 JUMP JUMPDEST SWAP1 POP SWAP2 SWAP1 POP JUMP JUMPDEST PUSH2 0x302 DUP2 PUSH2 0x2E7 JUMP JUMPDEST DUP3 MSTORE POP POP JUMP JUMPDEST PUSH1 0x0 PUSH2 0x314 DUP4 DUP4 PUSH2 0x2F9 JUMP JUMPDEST PUSH1 0x20 DUP4 ADD SWAP1 POP SWAP3 SWAP2 POP POP JUMP JUMPDEST PUSH1 0x0 PUSH1 0x20 DUP3 ADD SWAP1 POP SWAP2 SWAP1 POP JUMP JUMPDEST PUSH1 0x0 PUSH2 0x338 DUP3 PUSH2 0x29B JUMP JUMPDEST PUSH2 0x342 DUP2 DUP6 PUSH2 0x2A6 JUMP JUMPDEST SWAP4 POP PUSH2 0x34D DUP4 PUSH2 0x2B7 JUMP JUMPDEST DUP1 PUSH1 0x0 JUMPDEST DUP4 DUP2 LT ISZERO PUSH2 0x37E JUMPI DUP2 MLOAD PUSH2 0x365 DUP9 DUP3 PUSH2 0x308 JUMP JUMPDEST SWAP8 POP PUSH2 0x370 DUP4 PUSH2 0x320 JUMP JUMPDEST SWAP3 POP POP PUSH1 0x1 DUP2 ADD SWAP1 POP PUSH2 0x351 JUMP JUMPDEST POP DUP6 SWAP4 POP POP POP POP SWAP3 SWAP2 POP POP JUMP JUMPDEST PUSH1 0x0 PUSH1 0x20 DUP3 ADD SWAP1 POP DUP2 DUP2 SUB PUSH1 0x0 DUP4 ADD MSTORE PUSH2 0x3A5 DUP2 DUP5 PUSH2 0x32D JUMP JUMPDEST SWAP1 POP SWAP3 SWAP2 POP POP JUMP JUMPDEST PUSH1 0x0 DUP1 REVERT JUMPDEST PUSH2 0x3BB DUP2 PUSH2 0x2E7 JUMP JUMPDEST DUP2 EQ PUSH2 0x3C6 JUMPI PUSH1 0x0 DUP1 REVERT JUMPDEST POP JUMP JUMPDEST PUSH1 0x0 DUP2 CALLDATALOAD SWAP1 POP PUSH2 0x3D8 DUP2 PUSH2 0x3B2 JUMP JUMPDEST SWAP3 SWAP2 POP POP JUMP JUMPDEST PUSH1 0x0 PUSH1 0x20 DUP3 DUP5 SUB SLT ISZERO PUSH2 0x3F4 JUMPI PUSH2 0x3F3 PUSH2 0x3AD JUMP JUMPDEST JUMPDEST PUSH1 0x0 PUSH2 0x402 DUP5 DUP3 DUP6 ADD PUSH2 0x3C9 JUMP JUMPDEST SWAP2 POP POP SWAP3 SWAP2 POP POP JUMP JUMPDEST PUSH1 0x0 DUP2 ISZERO ISZERO SWAP1 POP SWAP2 SWAP1 POP JUMP JUMPDEST PUSH2 0x420 DUP2 PUSH2 0x40B JUMP JUMPDEST DUP3 MSTORE POP POP JUMP JUMPDEST PUSH1 0x0 PUSH1 0x20 DUP3 ADD SWAP1 POP PUSH2 0x43B PUSH1 0x0 DUP4 ADD DUP5 PUSH2 0x417 JUMP JUMPDEST SWAP3 SWAP2 POP POP JUMP JUMPDEST PUSH1 0x0 DUP3 DUP3 MSTORE PUSH1 0x20 DUP3 ADD SWAP1 POP SWAP3 SWAP2 POP POP JUMP JUMPDEST PUSH32 0x4164647265737320616C726561647920696E207768697465206C697374000000 PUSH1 0x0 DUP3 ADD MSTORE POP JUMP JUMPDEST PUSH1 0x0 PUSH2 0x488 PUSH1 0x1D DUP4 PUSH2 0x441 JUMP JUMPDEST SWAP2 POP PUSH2 0x493 DUP3 PUSH2 0x452 JUMP JUMPDEST PUSH1 0x20 DUP3 ADD SWAP1 POP SWAP2 SWAP1 POP JUMP JUMPDEST PUSH1 0x0 PUSH1 0x20 DUP3 ADD SWAP1 POP DUP2 DUP2 SUB PUSH1 0x0 DUP4 ADD MSTORE PUSH2 0x4B7 DUP2 PUSH2 0x47B JUMP JUMPDEST SWAP1 POP SWAP2 SWAP1 POP JUMP JUMPDEST PUSH32 0x4E487B7100000000000000000000000000000000000000000000000000000000 PUSH1 0x0 MSTORE PUSH1 0x32 PUSH1 0x4 MSTORE PUSH1 0x24 PUSH1 0x0 REVERT JUMPDEST PUSH32 0x4E487B7100000000000000000000000000000000000000000000000000000000 PUSH1 0x0 MSTORE PUSH1 0x11 PUSH1 0x4 MSTORE PUSH1 0x24 PUSH1 0x0 REVERT JUMPDEST PUSH1 0x0 DUP2 SWAP1 POP SWAP2 SWAP1 POP JUMP JUMPDEST PUSH1 0x0 PUSH2 0x531 DUP3 PUSH2 0x51C JUMP JUMPDEST SWAP2 POP PUSH32 0xFFFFFFFFFFFFFFFFFFFFFFFFFFFFFFFFFFFFFFFFFFFFFFFFFFFFFFFFFFFFFFFF DUP3 SUB PUSH2 0x563 JUMPI PUSH2 0x562 PUSH2 0x4ED JUMP JUMPDEST JUMPDEST PUSH1 0x1 DUP3 ADD SWAP1 POP SWAP2 SWAP1 POP JUMP INVALID LOG2 PUSH5 0x6970667358 0x22 SLT KECCAK256 0xC4 DUP14 GAS DUP6 0xCA 0x4B 0xE0 SUB 0xD0 0xB1 DUP8 PUSH27 0xD2A04041D0BA89A9086D910A673036C4885E076164736F6C634300 ADDMOD SGT STOP CALLER "
				},
				"gasEstimates": {
					"creation": {
						"codeDepositCost": "288800",
						"executionCost": "331",
						"totalCost": "289131"
					},
					"external": {
						"addToWhiteList(address)": "infinite",
						"getWhiteList()": "infinite",
						"isInWhiteList(address)": "infinite"
					}
				},
				"methodIdentifiers": {
					"addToWhiteList(address)": "47ee0394",
					"getWhiteList()": "09a9d76c",
					"isInWhiteList(address)": "96bfc229"
				}
			},
			"storageLayout": {
				"storage": [
					{
						"astId": 5,
						"contract": "ETH_KIPU/Register10_1.sol:Register10_1",
						"label": "whiteList",
						"offset": 0,
						"slot": "0",
						"type": "t_array(t_address)dyn_storage"
					}
				],
				"types": {
					"t_address": {
						"encoding": "inplace",
						"label": "address",
						"numberOfBytes": "20"
					},
					"t_array(t_address)dyn_storage": {
						"base": "t_address",
						"encoding": "dynamic_array",
						"label": "address[]",
						"numberOfBytes": "32"
					}
				}
			},
			"userdoc": {
				"kind": "user",
				"methods": {
					"addToWhiteList(address)": {
						"notice": "Add an address to the white list"
					},
					"getWhiteList()": {
						"notice": "Get all addresses in the white list"
					},
					"isInWhiteList(address)": {
						"notice": "Check if an address is in the white list"
					}
				},
				"version": 1
			}
		}
	}
}