{
	"ETH_KIPU/Register09.sol": {
		"Register09": {
			"abi": [
				{
					"inputs": [
						{
							"internalType": "string",
							"name": "myInfo",
							"type": "string"
						}
					],
					"name": "addInfo",
					"outputs": [
						{
							"internalType": "uint256",
							"name": "index",
							"type": "uint256"
						}
					],
					"stateMutability": "nonpayable",
					"type": "function"
				},
				{
					"inputs": [
						{
							"internalType": "uint256",
							"name": "index",
							"type": "uint256"
						}
					],
					"name": "getOneInfo",
					"outputs": [
						{
							"internalType": "string",
							"name": "",
							"type": "string"
						}
					],
					"stateMutability": "view",
					"type": "function"
				},
				{
					"inputs": [],
					"name": "listAllInfo",
					"outputs": [
						{
							"internalType": "string[]",
							"name": "",
							"type": "string[]"
						}
					],
					"stateMutability": "view",
					"type": "function"
				},
				{
					"inputs": [
						{
							"internalType": "uint256",
							"name": "index",
							"type": "uint256"
						},
						{
							"internalType": "string",
							"name": "newInfo",
							"type": "string"
						}
					],
					"name": "updateInfo",
					"outputs": [],
					"stateMutability": "nonpayable",
					"type": "function"
				}
			],
			"devdoc": {
				"author": "Solange Gueiros",
				"kind": "dev",
				"methods": {
					"addInfo(string)": {
						"details": "Get the position (index) where the string was stored and return it",
						"params": {
							"myInfo": "the new string to be stored"
						},
						"returns": {
							"index": "where the string was stored"
						}
					},
					"getOneInfo(uint256)": {
						"details": "retrieves the string locate in the index of the array `storedInfos`",
						"params": {
							"index": "is the location in the array to be returned"
						},
						"returns": {
							"_0": "the stored string in the index"
						}
					},
					"listAllInfo()": {
						"details": "retrieves the array of strings of the state variable `storedInfos`",
						"returns": {
							"_0": "an string array"
						}
					},
					"updateInfo(uint256,string)": {
						"details": "Update `newInfo` in some index of the string array",
						"params": {
							"index": "is the position where the string will be updated",
							"newInfo": "is the new string to be stored"
						}
					}
				},
				"title": "Concepts: array = list of infos stored",
				"version": 1
			},
			"evm": {
				"assembly": "    /* \"ETH_KIPU/Register09.sol\":140:1812  contract Register09 {... */\n  mstore(0x40, 0x80)\n  callvalue\n  dup1\n  iszero\n  tag_1\n  jumpi\n  0x00\n  dup1\n  revert\ntag_1:\n  pop\n  dataSize(sub_0)\n  dup1\n  dataOffset(sub_0)\n  0x00\n  codecopy\n  0x00\n  return\nstop\n\nsub_0: assembly {\n        /* \"ETH_KIPU/Register09.sol\":140:1812  contract Register09 {... */\n      mstore(0x40, 0x80)\n      callvalue\n      dup1\n      iszero\n      tag_1\n      jumpi\n      0x00\n      dup1\n      revert\n    tag_1:\n      pop\n      jumpi(tag_2, lt(calldatasize, 0x04))\n      shr(0xe0, calldataload(0x00))\n      dup1\n      0x0bf803e4\n      eq\n      tag_3\n      jumpi\n      dup1\n      0x50c00197\n      eq\n      tag_4\n      jumpi\n      dup1\n      0x94b1a5bc\n      eq\n      tag_5\n      jumpi\n      dup1\n      0xedc2784e\n      eq\n      tag_6\n      jumpi\n    tag_2:\n      0x00\n      dup1\n      revert\n        /* \"ETH_KIPU/Register09.sol\":505:657  function addInfo(string memory myInfo) external returns (uint index) {... */\n    tag_3:\n      tag_7\n      0x04\n      dup1\n      calldatasize\n      sub\n      dup2\n      add\n      swap1\n      tag_8\n      swap2\n      swap1\n      tag_9\n      jump\t// in\n    tag_8:\n      tag_10\n      jump\t// in\n    tag_7:\n      mload(0x40)\n      tag_11\n      swap2\n      swap1\n      tag_12\n      jump\t// in\n    tag_11:\n      mload(0x40)\n      dup1\n      swap2\n      sub\n      swap1\n      return\n        /* \"ETH_KIPU/Register09.sol\":925:1100  function updateInfo(uint index, string memory newInfo) external {... */\n    tag_4:\n      tag_13\n      0x04\n      dup1\n      calldatasize\n      sub\n      dup2\n      add\n      swap1\n      tag_14\n      swap2\n      swap1\n      tag_15\n      jump\t// in\n    tag_14:\n      tag_16\n      jump\t// in\n    tag_13:\n      stop\n        /* \"ETH_KIPU/Register09.sol\":1345:1523  function getOneInfo(uint index) external view returns (string memory) {... */\n    tag_5:\n      tag_17\n      0x04\n      dup1\n      calldatasize\n      sub\n      dup2\n      add\n      swap1\n      tag_18\n      swap2\n      swap1\n      tag_19\n      jump\t// in\n    tag_18:\n      tag_20\n      jump\t// in\n    tag_17:\n      mload(0x40)\n      tag_21\n      swap2\n      swap1\n      tag_22\n      jump\t// in\n    tag_21:\n      mload(0x40)\n      dup1\n      swap2\n      sub\n      swap1\n      return\n        /* \"ETH_KIPU/Register09.sol\":1708:1808  function listAllInfo() external view returns (string[] memory) {... */\n    tag_6:\n      tag_23\n      tag_24\n      jump\t// in\n    tag_23:\n      mload(0x40)\n      tag_25\n      swap2\n      swap1\n      tag_26\n      jump\t// in\n    tag_25:\n      mload(0x40)\n      dup1\n      swap2\n      sub\n      swap1\n      return\n        /* \"ETH_KIPU/Register09.sol\":505:657  function addInfo(string memory myInfo) external returns (uint index) {... */\n    tag_10:\n        /* \"ETH_KIPU/Register09.sol\":562:572  uint index */\n      0x00\n        /* \"ETH_KIPU/Register09.sol\":585:596  storedInfos */\n      dup1\n        /* \"ETH_KIPU/Register09.sol\":602:608  myInfo */\n      dup3\n        /* \"ETH_KIPU/Register09.sol\":585:609  storedInfos.push(myInfo) */\n      swap1\n      dup1\n      0x01\n      dup2\n      sload\n      add\n      dup1\n      dup3\n      sstore\n      dup1\n      swap2\n      pop\n      pop\n      0x01\n      swap1\n      sub\n      swap1\n      0x00\n      mstore\n      keccak256(0x00, 0x20)\n      add\n      0x00\n      swap1\n      swap2\n      swap1\n      swap2\n      swap1\n      swap2\n      pop\n      swap1\n      dup2\n      tag_29\n      swap2\n      swap1\n      tag_30\n      jump\t// in\n    tag_29:\n      pop\n        /* \"ETH_KIPU/Register09.sol\":648:649  1 */\n      0x01\n        /* \"ETH_KIPU/Register09.sol\":628:639  storedInfos */\n      0x00\n        /* \"ETH_KIPU/Register09.sol\":628:646  storedInfos.length */\n      dup1\n      sload\n      swap1\n      pop\n        /* \"ETH_KIPU/Register09.sol\":628:649  storedInfos.length -1 */\n      tag_31\n      swap2\n      swap1\n      tag_32\n      jump\t// in\n    tag_31:\n        /* \"ETH_KIPU/Register09.sol\":620:649  index = storedInfos.length -1 */\n      swap1\n      pop\n        /* \"ETH_KIPU/Register09.sol\":505:657  function addInfo(string memory myInfo) external returns (uint index) {... */\n      swap2\n      swap1\n      pop\n      jump\t// out\n        /* \"ETH_KIPU/Register09.sol\":925:1100  function updateInfo(uint index, string memory newInfo) external {... */\n    tag_16:\n        /* \"ETH_KIPU/Register09.sol\":1017:1028  storedInfos */\n      0x00\n        /* \"ETH_KIPU/Register09.sol\":1017:1035  storedInfos.length */\n      dup1\n      sload\n      swap1\n      pop\n        /* \"ETH_KIPU/Register09.sol\":1009:1014  index */\n      dup3\n        /* \"ETH_KIPU/Register09.sol\":1009:1035  index < storedInfos.length */\n      lt\n        /* \"ETH_KIPU/Register09.sol\":1000:1053  require (index < storedInfos.length, \"invalid index\") */\n      tag_34\n      jumpi\n      mload(0x40)\n      0x08c379a000000000000000000000000000000000000000000000000000000000\n      dup2\n      mstore\n      0x04\n      add\n      tag_35\n      swap1\n      tag_36\n      jump\t// in\n    tag_35:\n      mload(0x40)\n      dup1\n      swap2\n      sub\n      swap1\n      revert\n    tag_34:\n        /* \"ETH_KIPU/Register09.sol\":1085:1092  newInfo */\n      dup1\n        /* \"ETH_KIPU/Register09.sol\":1064:1075  storedInfos */\n      0x00\n        /* \"ETH_KIPU/Register09.sol\":1076:1081  index */\n      dup4\n        /* \"ETH_KIPU/Register09.sol\":1064:1082  storedInfos[index] */\n      dup2\n      sload\n      dup2\n      lt\n      tag_37\n      jumpi\n      tag_38\n      tag_39\n      jump\t// in\n    tag_38:\n    tag_37:\n      swap1\n      0x00\n      mstore\n      keccak256(0x00, 0x20)\n      add\n        /* \"ETH_KIPU/Register09.sol\":1064:1092  storedInfos[index] = newInfo */\n      swap1\n      dup2\n      tag_41\n      swap2\n      swap1\n      tag_30\n      jump\t// in\n    tag_41:\n      pop\n        /* \"ETH_KIPU/Register09.sol\":925:1100  function updateInfo(uint index, string memory newInfo) external {... */\n      pop\n      pop\n      jump\t// out\n        /* \"ETH_KIPU/Register09.sol\":1345:1523  function getOneInfo(uint index) external view returns (string memory) {... */\n    tag_20:\n        /* \"ETH_KIPU/Register09.sol\":1400:1413  string memory */\n      0x60\n        /* \"ETH_KIPU/Register09.sol\":1443:1454  storedInfos */\n      0x00\n        /* \"ETH_KIPU/Register09.sol\":1443:1461  storedInfos.length */\n      dup1\n      sload\n      swap1\n      pop\n        /* \"ETH_KIPU/Register09.sol\":1435:1440  index */\n      dup3\n        /* \"ETH_KIPU/Register09.sol\":1435:1461  index < storedInfos.length */\n      lt\n        /* \"ETH_KIPU/Register09.sol\":1426:1479  require (index < storedInfos.length, \"invalid index\") */\n      tag_43\n      jumpi\n      mload(0x40)\n      0x08c379a000000000000000000000000000000000000000000000000000000000\n      dup2\n      mstore\n      0x04\n      add\n      tag_44\n      swap1\n      tag_36\n      jump\t// in\n    tag_44:\n      mload(0x40)\n      dup1\n      swap2\n      sub\n      swap1\n      revert\n    tag_43:\n        /* \"ETH_KIPU/Register09.sol\":1497:1508  storedInfos */\n      0x00\n        /* \"ETH_KIPU/Register09.sol\":1509:1514  index */\n      dup3\n        /* \"ETH_KIPU/Register09.sol\":1497:1515  storedInfos[index] */\n      dup2\n      sload\n      dup2\n      lt\n      tag_45\n      jumpi\n      tag_46\n      tag_39\n      jump\t// in\n    tag_46:\n    tag_45:\n      swap1\n      0x00\n      mstore\n      keccak256(0x00, 0x20)\n      add\n        /* \"ETH_KIPU/Register09.sol\":1490:1515  return storedInfos[index] */\n      dup1\n      sload\n      tag_48\n      swap1\n      tag_49\n      jump\t// in\n    tag_48:\n      dup1\n      0x1f\n      add\n      0x20\n      dup1\n      swap2\n      div\n      mul\n      0x20\n      add\n      mload(0x40)\n      swap1\n      dup2\n      add\n      0x40\n      mstore\n      dup1\n      swap3\n      swap2\n      swap1\n      dup2\n      dup2\n      mstore\n      0x20\n      add\n      dup3\n      dup1\n      sload\n      tag_50\n      swap1\n      tag_49\n      jump\t// in\n    tag_50:\n      dup1\n      iszero\n      tag_51\n      jumpi\n      dup1\n      0x1f\n      lt\n      tag_52\n      jumpi\n      0x0100\n      dup1\n      dup4\n      sload\n      div\n      mul\n      dup4\n      mstore\n      swap2\n      0x20\n      add\n      swap2\n      jump(tag_51)\n    tag_52:\n      dup3\n      add\n      swap2\n      swap1\n      0x00\n      mstore\n      keccak256(0x00, 0x20)\n      swap1\n    tag_53:\n      dup2\n      sload\n      dup2\n      mstore\n      swap1\n      0x01\n      add\n      swap1\n      0x20\n      add\n      dup1\n      dup4\n      gt\n      tag_53\n      jumpi\n      dup3\n      swap1\n      sub\n      0x1f\n      and\n      dup3\n      add\n      swap2\n    tag_51:\n      pop\n      pop\n      pop\n      pop\n      pop\n      swap1\n      pop\n        /* \"ETH_KIPU/Register09.sol\":1345:1523  function getOneInfo(uint index) external view returns (string memory) {... */\n      swap2\n      swap1\n      pop\n      jump\t// out\n        /* \"ETH_KIPU/Register09.sol\":1708:1808  function listAllInfo() external view returns (string[] memory) {... */\n    tag_24:\n        /* \"ETH_KIPU/Register09.sol\":1754:1769  string[] memory */\n      0x60\n        /* \"ETH_KIPU/Register09.sol\":1789:1800  storedInfos */\n      0x00\n        /* \"ETH_KIPU/Register09.sol\":1782:1800  return storedInfos */\n      dup1\n      sload\n      dup1\n      0x20\n      mul\n      0x20\n      add\n      mload(0x40)\n      swap1\n      dup2\n      add\n      0x40\n      mstore\n      dup1\n      swap3\n      swap2\n      swap1\n      dup2\n      dup2\n      mstore\n      0x20\n      add\n      0x00\n      swap1\n    tag_55:\n      dup3\n      dup3\n      lt\n      iszero\n      tag_56\n      jumpi\n      dup4\n      dup3\n      swap1\n      0x00\n      mstore\n      keccak256(0x00, 0x20)\n      add\n      dup1\n      sload\n      tag_58\n      swap1\n      tag_49\n      jump\t// in\n    tag_58:\n      dup1\n      0x1f\n      add\n      0x20\n      dup1\n      swap2\n      div\n      mul\n      0x20\n      add\n      mload(0x40)\n      swap1\n      dup2\n      add\n      0x40\n      mstore\n      dup1\n      swap3\n      swap2\n      swap1\n      dup2\n      dup2\n      mstore\n      0x20\n      add\n      dup3\n      dup1\n      sload\n      tag_59\n      swap1\n      tag_49\n      jump\t// in\n    tag_59:\n      dup1\n      iszero\n      tag_60\n      jumpi\n      dup1\n      0x1f\n      lt\n      tag_61\n      jumpi\n      0x0100\n      dup1\n      dup4\n      sload\n      div\n      mul\n      dup4\n      mstore\n      swap2\n      0x20\n      add\n      swap2\n      jump(tag_60)\n    tag_61:\n      dup3\n      add\n      swap2\n      swap1\n      0x00\n      mstore\n      keccak256(0x00, 0x20)\n      swap1\n    tag_62:\n      dup2\n      sload\n      dup2\n      mstore\n      swap1\n      0x01\n      add\n      swap1\n      0x20\n      add\n      dup1\n      dup4\n      gt\n      tag_62\n      jumpi\n      dup3\n      swap1\n      sub\n      0x1f\n      and\n      dup3\n      add\n      swap2\n    tag_60:\n      pop\n      pop\n      pop\n      pop\n      pop\n      dup2\n      mstore\n      0x20\n      add\n      swap1\n      0x01\n      add\n      swap1\n      jump(tag_55)\n    tag_56:\n      pop\n      pop\n      pop\n      pop\n      swap1\n      pop\n        /* \"ETH_KIPU/Register09.sol\":1708:1808  function listAllInfo() external view returns (string[] memory) {... */\n      swap1\n      jump\t// out\n        /* \"#utility.yul\":7:82   */\n    tag_63:\n        /* \"#utility.yul\":40:46   */\n      0x00\n        /* \"#utility.yul\":73:75   */\n      0x40\n        /* \"#utility.yul\":67:76   */\n      mload\n        /* \"#utility.yul\":57:76   */\n      swap1\n      pop\n        /* \"#utility.yul\":7:82   */\n      swap1\n      jump\t// out\n        /* \"#utility.yul\":88:205   */\n    tag_64:\n        /* \"#utility.yul\":197:198   */\n      0x00\n        /* \"#utility.yul\":194:195   */\n      dup1\n        /* \"#utility.yul\":187:199   */\n      revert\n        /* \"#utility.yul\":211:328   */\n    tag_65:\n        /* \"#utility.yul\":320:321   */\n      0x00\n        /* \"#utility.yul\":317:318   */\n      dup1\n        /* \"#utility.yul\":310:322   */\n      revert\n        /* \"#utility.yul\":334:451   */\n    tag_66:\n        /* \"#utility.yul\":443:444   */\n      0x00\n        /* \"#utility.yul\":440:441   */\n      dup1\n        /* \"#utility.yul\":433:445   */\n      revert\n        /* \"#utility.yul\":457:574   */\n    tag_67:\n        /* \"#utility.yul\":566:567   */\n      0x00\n        /* \"#utility.yul\":563:564   */\n      dup1\n        /* \"#utility.yul\":556:568   */\n      revert\n        /* \"#utility.yul\":580:682   */\n    tag_68:\n        /* \"#utility.yul\":621:627   */\n      0x00\n        /* \"#utility.yul\":672:674   */\n      0x1f\n        /* \"#utility.yul\":668:675   */\n      not\n        /* \"#utility.yul\":663:665   */\n      0x1f\n        /* \"#utility.yul\":656:661   */\n      dup4\n        /* \"#utility.yul\":652:666   */\n      add\n        /* \"#utility.yul\":648:676   */\n      and\n        /* \"#utility.yul\":638:676   */\n      swap1\n      pop\n        /* \"#utility.yul\":580:682   */\n      swap2\n      swap1\n      pop\n      jump\t// out\n        /* \"#utility.yul\":688:868   */\n    tag_69:\n        /* \"#utility.yul\":736:813   */\n      0x4e487b7100000000000000000000000000000000000000000000000000000000\n        /* \"#utility.yul\":733:734   */\n      0x00\n        /* \"#utility.yul\":726:814   */\n      mstore\n        /* \"#utility.yul\":833:837   */\n      0x41\n        /* \"#utility.yul\":830:831   */\n      0x04\n        /* \"#utility.yul\":823:838   */\n      mstore\n        /* \"#utility.yul\":857:861   */\n      0x24\n        /* \"#utility.yul\":854:855   */\n      0x00\n        /* \"#utility.yul\":847:862   */\n      revert\n        /* \"#utility.yul\":874:1155   */\n    tag_70:\n        /* \"#utility.yul\":957:984   */\n      tag_120\n        /* \"#utility.yul\":979:983   */\n      dup3\n        /* \"#utility.yul\":957:984   */\n      tag_68\n      jump\t// in\n    tag_120:\n        /* \"#utility.yul\":949:955   */\n      dup2\n        /* \"#utility.yul\":945:985   */\n      add\n        /* \"#utility.yul\":1087:1093   */\n      dup2\n        /* \"#utility.yul\":1075:1085   */\n      dup2\n        /* \"#utility.yul\":1072:1094   */\n      lt\n        /* \"#utility.yul\":1051:1069   */\n      0xffffffffffffffff\n        /* \"#utility.yul\":1039:1049   */\n      dup3\n        /* \"#utility.yul\":1036:1070   */\n      gt\n        /* \"#utility.yul\":1033:1095   */\n      or\n        /* \"#utility.yul\":1030:1118   */\n      iszero\n      tag_121\n      jumpi\n        /* \"#utility.yul\":1098:1116   */\n      tag_122\n      tag_69\n      jump\t// in\n    tag_122:\n        /* \"#utility.yul\":1030:1118   */\n    tag_121:\n        /* \"#utility.yul\":1138:1148   */\n      dup1\n        /* \"#utility.yul\":1134:1136   */\n      0x40\n        /* \"#utility.yul\":1127:1149   */\n      mstore\n        /* \"#utility.yul\":917:1155   */\n      pop\n        /* \"#utility.yul\":874:1155   */\n      pop\n      pop\n      jump\t// out\n        /* \"#utility.yul\":1161:1290   */\n    tag_71:\n        /* \"#utility.yul\":1195:1201   */\n      0x00\n        /* \"#utility.yul\":1222:1242   */\n      tag_124\n      tag_63\n      jump\t// in\n    tag_124:\n        /* \"#utility.yul\":1212:1242   */\n      swap1\n      pop\n        /* \"#utility.yul\":1251:1284   */\n      tag_125\n        /* \"#utility.yul\":1279:1283   */\n      dup3\n        /* \"#utility.yul\":1271:1277   */\n      dup3\n        /* \"#utility.yul\":1251:1284   */\n      tag_70\n      jump\t// in\n    tag_125:\n        /* \"#utility.yul\":1161:1290   */\n      swap2\n      swap1\n      pop\n      jump\t// out\n        /* \"#utility.yul\":1296:1604   */\n    tag_72:\n        /* \"#utility.yul\":1358:1362   */\n      0x00\n        /* \"#utility.yul\":1448:1466   */\n      0xffffffffffffffff\n        /* \"#utility.yul\":1440:1446   */\n      dup3\n        /* \"#utility.yul\":1437:1467   */\n      gt\n        /* \"#utility.yul\":1434:1490   */\n      iszero\n      tag_127\n      jumpi\n        /* \"#utility.yul\":1470:1488   */\n      tag_128\n      tag_69\n      jump\t// in\n    tag_128:\n        /* \"#utility.yul\":1434:1490   */\n    tag_127:\n        /* \"#utility.yul\":1508:1537   */\n      tag_129\n        /* \"#utility.yul\":1530:1536   */\n      dup3\n        /* \"#utility.yul\":1508:1537   */\n      tag_68\n      jump\t// in\n    tag_129:\n        /* \"#utility.yul\":1500:1537   */\n      swap1\n      pop\n        /* \"#utility.yul\":1592:1596   */\n      0x20\n        /* \"#utility.yul\":1586:1590   */\n      dup2\n        /* \"#utility.yul\":1582:1597   */\n      add\n        /* \"#utility.yul\":1574:1597   */\n      swap1\n      pop\n        /* \"#utility.yul\":1296:1604   */\n      swap2\n      swap1\n      pop\n      jump\t// out\n        /* \"#utility.yul\":1610:1756   */\n    tag_73:\n        /* \"#utility.yul\":1707:1713   */\n      dup3\n        /* \"#utility.yul\":1702:1705   */\n      dup2\n        /* \"#utility.yul\":1697:1700   */\n      dup4\n        /* \"#utility.yul\":1684:1714   */\n      calldatacopy\n        /* \"#utility.yul\":1748:1749   */\n      0x00\n        /* \"#utility.yul\":1739:1745   */\n      dup4\n        /* \"#utility.yul\":1734:1737   */\n      dup4\n        /* \"#utility.yul\":1730:1746   */\n      add\n        /* \"#utility.yul\":1723:1750   */\n      mstore\n        /* \"#utility.yul\":1610:1756   */\n      pop\n      pop\n      pop\n      jump\t// out\n        /* \"#utility.yul\":1762:2187   */\n    tag_74:\n        /* \"#utility.yul\":1840:1845   */\n      0x00\n        /* \"#utility.yul\":1865:1931   */\n      tag_132\n        /* \"#utility.yul\":1881:1930   */\n      tag_133\n        /* \"#utility.yul\":1923:1929   */\n      dup5\n        /* \"#utility.yul\":1881:1930   */\n      tag_72\n      jump\t// in\n    tag_133:\n        /* \"#utility.yul\":1865:1931   */\n      tag_71\n      jump\t// in\n    tag_132:\n        /* \"#utility.yul\":1856:1931   */\n      swap1\n      pop\n        /* \"#utility.yul\":1954:1960   */\n      dup3\n        /* \"#utility.yul\":1947:1952   */\n      dup2\n        /* \"#utility.yul\":1940:1961   */\n      mstore\n        /* \"#utility.yul\":1992:1996   */\n      0x20\n        /* \"#utility.yul\":1985:1990   */\n      dup2\n        /* \"#utility.yul\":1981:1997   */\n      add\n        /* \"#utility.yul\":2030:2033   */\n      dup5\n        /* \"#utility.yul\":2021:2027   */\n      dup5\n        /* \"#utility.yul\":2016:2019   */\n      dup5\n        /* \"#utility.yul\":2012:2028   */\n      add\n        /* \"#utility.yul\":2009:2034   */\n      gt\n        /* \"#utility.yul\":2006:2118   */\n      iszero\n      tag_134\n      jumpi\n        /* \"#utility.yul\":2037:2116   */\n      tag_135\n      tag_67\n      jump\t// in\n    tag_135:\n        /* \"#utility.yul\":2006:2118   */\n    tag_134:\n        /* \"#utility.yul\":2127:2181   */\n      tag_136\n        /* \"#utility.yul\":2174:2180   */\n      dup5\n        /* \"#utility.yul\":2169:2172   */\n      dup3\n        /* \"#utility.yul\":2164:2167   */\n      dup6\n        /* \"#utility.yul\":2127:2181   */\n      tag_73\n      jump\t// in\n    tag_136:\n        /* \"#utility.yul\":1846:2187   */\n      pop\n        /* \"#utility.yul\":1762:2187   */\n      swap4\n      swap3\n      pop\n      pop\n      pop\n      jump\t// out\n        /* \"#utility.yul\":2207:2547   */\n    tag_75:\n        /* \"#utility.yul\":2263:2268   */\n      0x00\n        /* \"#utility.yul\":2312:2315   */\n      dup3\n        /* \"#utility.yul\":2305:2309   */\n      0x1f\n        /* \"#utility.yul\":2297:2303   */\n      dup4\n        /* \"#utility.yul\":2293:2310   */\n      add\n        /* \"#utility.yul\":2289:2316   */\n      slt\n        /* \"#utility.yul\":2279:2401   */\n      tag_138\n      jumpi\n        /* \"#utility.yul\":2320:2399   */\n      tag_139\n      tag_66\n      jump\t// in\n    tag_139:\n        /* \"#utility.yul\":2279:2401   */\n    tag_138:\n        /* \"#utility.yul\":2437:2443   */\n      dup2\n        /* \"#utility.yul\":2424:2444   */\n      calldataload\n        /* \"#utility.yul\":2462:2541   */\n      tag_140\n        /* \"#utility.yul\":2537:2540   */\n      dup5\n        /* \"#utility.yul\":2529:2535   */\n      dup3\n        /* \"#utility.yul\":2522:2526   */\n      0x20\n        /* \"#utility.yul\":2514:2520   */\n      dup7\n        /* \"#utility.yul\":2510:2527   */\n      add\n        /* \"#utility.yul\":2462:2541   */\n      tag_74\n      jump\t// in\n    tag_140:\n        /* \"#utility.yul\":2453:2541   */\n      swap2\n      pop\n        /* \"#utility.yul\":2269:2547   */\n      pop\n        /* \"#utility.yul\":2207:2547   */\n      swap3\n      swap2\n      pop\n      pop\n      jump\t// out\n        /* \"#utility.yul\":2553:3062   */\n    tag_9:\n        /* \"#utility.yul\":2622:2628   */\n      0x00\n        /* \"#utility.yul\":2671:2673   */\n      0x20\n        /* \"#utility.yul\":2659:2668   */\n      dup3\n        /* \"#utility.yul\":2650:2657   */\n      dup5\n        /* \"#utility.yul\":2646:2669   */\n      sub\n        /* \"#utility.yul\":2642:2674   */\n      slt\n        /* \"#utility.yul\":2639:2758   */\n      iszero\n      tag_142\n      jumpi\n        /* \"#utility.yul\":2677:2756   */\n      tag_143\n      tag_64\n      jump\t// in\n    tag_143:\n        /* \"#utility.yul\":2639:2758   */\n    tag_142:\n        /* \"#utility.yul\":2825:2826   */\n      0x00\n        /* \"#utility.yul\":2814:2823   */\n      dup3\n        /* \"#utility.yul\":2810:2827   */\n      add\n        /* \"#utility.yul\":2797:2828   */\n      calldataload\n        /* \"#utility.yul\":2855:2873   */\n      0xffffffffffffffff\n        /* \"#utility.yul\":2847:2853   */\n      dup2\n        /* \"#utility.yul\":2844:2874   */\n      gt\n        /* \"#utility.yul\":2841:2958   */\n      iszero\n      tag_144\n      jumpi\n        /* \"#utility.yul\":2877:2956   */\n      tag_145\n      tag_65\n      jump\t// in\n    tag_145:\n        /* \"#utility.yul\":2841:2958   */\n    tag_144:\n        /* \"#utility.yul\":2982:3045   */\n      tag_146\n        /* \"#utility.yul\":3037:3044   */\n      dup5\n        /* \"#utility.yul\":3028:3034   */\n      dup3\n        /* \"#utility.yul\":3017:3026   */\n      dup6\n        /* \"#utility.yul\":3013:3035   */\n      add\n        /* \"#utility.yul\":2982:3045   */\n      tag_75\n      jump\t// in\n    tag_146:\n        /* \"#utility.yul\":2972:3045   */\n      swap2\n      pop\n        /* \"#utility.yul\":2768:3055   */\n      pop\n        /* \"#utility.yul\":2553:3062   */\n      swap3\n      swap2\n      pop\n      pop\n      jump\t// out\n        /* \"#utility.yul\":3068:3145   */\n    tag_76:\n        /* \"#utility.yul\":3105:3112   */\n      0x00\n        /* \"#utility.yul\":3134:3139   */\n      dup2\n        /* \"#utility.yul\":3123:3139   */\n      swap1\n      pop\n        /* \"#utility.yul\":3068:3145   */\n      swap2\n      swap1\n      pop\n      jump\t// out\n        /* \"#utility.yul\":3151:3269   */\n    tag_77:\n        /* \"#utility.yul\":3238:3262   */\n      tag_149\n        /* \"#utility.yul\":3256:3261   */\n      dup2\n        /* \"#utility.yul\":3238:3262   */\n      tag_76\n      jump\t// in\n    tag_149:\n        /* \"#utility.yul\":3233:3236   */\n      dup3\n        /* \"#utility.yul\":3226:3263   */\n      mstore\n        /* \"#utility.yul\":3151:3269   */\n      pop\n      pop\n      jump\t// out\n        /* \"#utility.yul\":3275:3497   */\n    tag_12:\n        /* \"#utility.yul\":3368:3372   */\n      0x00\n        /* \"#utility.yul\":3406:3408   */\n      0x20\n        /* \"#utility.yul\":3395:3404   */\n      dup3\n        /* \"#utility.yul\":3391:3409   */\n      add\n        /* \"#utility.yul\":3383:3409   */\n      swap1\n      pop\n        /* \"#utility.yul\":3419:3490   */\n      tag_151\n        /* \"#utility.yul\":3487:3488   */\n      0x00\n        /* \"#utility.yul\":3476:3485   */\n      dup4\n        /* \"#utility.yul\":3472:3489   */\n      add\n        /* \"#utility.yul\":3463:3469   */\n      dup5\n        /* \"#utility.yul\":3419:3490   */\n      tag_77\n      jump\t// in\n    tag_151:\n        /* \"#utility.yul\":3275:3497   */\n      swap3\n      swap2\n      pop\n      pop\n      jump\t// out\n        /* \"#utility.yul\":3503:3625   */\n    tag_78:\n        /* \"#utility.yul\":3576:3600   */\n      tag_153\n        /* \"#utility.yul\":3594:3599   */\n      dup2\n        /* \"#utility.yul\":3576:3600   */\n      tag_76\n      jump\t// in\n    tag_153:\n        /* \"#utility.yul\":3569:3574   */\n      dup2\n        /* \"#utility.yul\":3566:3601   */\n      eq\n        /* \"#utility.yul\":3556:3619   */\n      tag_154\n      jumpi\n        /* \"#utility.yul\":3615:3616   */\n      0x00\n        /* \"#utility.yul\":3612:3613   */\n      dup1\n        /* \"#utility.yul\":3605:3617   */\n      revert\n        /* \"#utility.yul\":3556:3619   */\n    tag_154:\n        /* \"#utility.yul\":3503:3625   */\n      pop\n      jump\t// out\n        /* \"#utility.yul\":3631:3770   */\n    tag_79:\n        /* \"#utility.yul\":3677:3682   */\n      0x00\n        /* \"#utility.yul\":3715:3721   */\n      dup2\n        /* \"#utility.yul\":3702:3722   */\n      calldataload\n        /* \"#utility.yul\":3693:3722   */\n      swap1\n      pop\n        /* \"#utility.yul\":3731:3764   */\n      tag_156\n        /* \"#utility.yul\":3758:3763   */\n      dup2\n        /* \"#utility.yul\":3731:3764   */\n      tag_78\n      jump\t// in\n    tag_156:\n        /* \"#utility.yul\":3631:3770   */\n      swap3\n      swap2\n      pop\n      pop\n      jump\t// out\n        /* \"#utility.yul\":3776:4430   */\n    tag_15:\n        /* \"#utility.yul\":3854:3860   */\n      0x00\n        /* \"#utility.yul\":3862:3868   */\n      dup1\n        /* \"#utility.yul\":3911:3913   */\n      0x40\n        /* \"#utility.yul\":3899:3908   */\n      dup4\n        /* \"#utility.yul\":3890:3897   */\n      dup6\n        /* \"#utility.yul\":3886:3909   */\n      sub\n        /* \"#utility.yul\":3882:3914   */\n      slt\n        /* \"#utility.yul\":3879:3998   */\n      iszero\n      tag_158\n      jumpi\n        /* \"#utility.yul\":3917:3996   */\n      tag_159\n      tag_64\n      jump\t// in\n    tag_159:\n        /* \"#utility.yul\":3879:3998   */\n    tag_158:\n        /* \"#utility.yul\":4037:4038   */\n      0x00\n        /* \"#utility.yul\":4062:4115   */\n      tag_160\n        /* \"#utility.yul\":4107:4114   */\n      dup6\n        /* \"#utility.yul\":4098:4104   */\n      dup3\n        /* \"#utility.yul\":4087:4096   */\n      dup7\n        /* \"#utility.yul\":4083:4105   */\n      add\n        /* \"#utility.yul\":4062:4115   */\n      tag_79\n      jump\t// in\n    tag_160:\n        /* \"#utility.yul\":4052:4115   */\n      swap3\n      pop\n        /* \"#utility.yul\":4008:4125   */\n      pop\n        /* \"#utility.yul\":4192:4194   */\n      0x20\n        /* \"#utility.yul\":4181:4190   */\n      dup4\n        /* \"#utility.yul\":4177:4195   */\n      add\n        /* \"#utility.yul\":4164:4196   */\n      calldataload\n        /* \"#utility.yul\":4223:4241   */\n      0xffffffffffffffff\n        /* \"#utility.yul\":4215:4221   */\n      dup2\n        /* \"#utility.yul\":4212:4242   */\n      gt\n        /* \"#utility.yul\":4209:4326   */\n      iszero\n      tag_161\n      jumpi\n        /* \"#utility.yul\":4245:4324   */\n      tag_162\n      tag_65\n      jump\t// in\n    tag_162:\n        /* \"#utility.yul\":4209:4326   */\n    tag_161:\n        /* \"#utility.yul\":4350:4413   */\n      tag_163\n        /* \"#utility.yul\":4405:4412   */\n      dup6\n        /* \"#utility.yul\":4396:4402   */\n      dup3\n        /* \"#utility.yul\":4385:4394   */\n      dup7\n        /* \"#utility.yul\":4381:4403   */\n      add\n        /* \"#utility.yul\":4350:4413   */\n      tag_75\n      jump\t// in\n    tag_163:\n        /* \"#utility.yul\":4340:4413   */\n      swap2\n      pop\n        /* \"#utility.yul\":4135:4423   */\n      pop\n        /* \"#utility.yul\":3776:4430   */\n      swap3\n      pop\n      swap3\n      swap1\n      pop\n      jump\t// out\n        /* \"#utility.yul\":4436:4765   */\n    tag_19:\n        /* \"#utility.yul\":4495:4501   */\n      0x00\n        /* \"#utility.yul\":4544:4546   */\n      0x20\n        /* \"#utility.yul\":4532:4541   */\n      dup3\n        /* \"#utility.yul\":4523:4530   */\n      dup5\n        /* \"#utility.yul\":4519:4542   */\n      sub\n        /* \"#utility.yul\":4515:4547   */\n      slt\n        /* \"#utility.yul\":4512:4631   */\n      iszero\n      tag_165\n      jumpi\n        /* \"#utility.yul\":4550:4629   */\n      tag_166\n      tag_64\n      jump\t// in\n    tag_166:\n        /* \"#utility.yul\":4512:4631   */\n    tag_165:\n        /* \"#utility.yul\":4670:4671   */\n      0x00\n        /* \"#utility.yul\":4695:4748   */\n      tag_167\n        /* \"#utility.yul\":4740:4747   */\n      dup5\n        /* \"#utility.yul\":4731:4737   */\n      dup3\n        /* \"#utility.yul\":4720:4729   */\n      dup6\n        /* \"#utility.yul\":4716:4738   */\n      add\n        /* \"#utility.yul\":4695:4748   */\n      tag_79\n      jump\t// in\n    tag_167:\n        /* \"#utility.yul\":4685:4748   */\n      swap2\n      pop\n        /* \"#utility.yul\":4641:4758   */\n      pop\n        /* \"#utility.yul\":4436:4765   */\n      swap3\n      swap2\n      pop\n      pop\n      jump\t// out\n        /* \"#utility.yul\":4771:4870   */\n    tag_80:\n        /* \"#utility.yul\":4823:4829   */\n      0x00\n        /* \"#utility.yul\":4857:4862   */\n      dup2\n        /* \"#utility.yul\":4851:4863   */\n      mload\n        /* \"#utility.yul\":4841:4863   */\n      swap1\n      pop\n        /* \"#utility.yul\":4771:4870   */\n      swap2\n      swap1\n      pop\n      jump\t// out\n        /* \"#utility.yul\":4876:5045   */\n    tag_81:\n        /* \"#utility.yul\":4960:4971   */\n      0x00\n        /* \"#utility.yul\":4994:5000   */\n      dup3\n        /* \"#utility.yul\":4989:4992   */\n      dup3\n        /* \"#utility.yul\":4982:5001   */\n      mstore\n        /* \"#utility.yul\":5034:5038   */\n      0x20\n        /* \"#utility.yul\":5029:5032   */\n      dup3\n        /* \"#utility.yul\":5025:5039   */\n      add\n        /* \"#utility.yul\":5010:5039   */\n      swap1\n      pop\n        /* \"#utility.yul\":4876:5045   */\n      swap3\n      swap2\n      pop\n      pop\n      jump\t// out\n        /* \"#utility.yul\":5051:5297   */\n    tag_82:\n        /* \"#utility.yul\":5132:5133   */\n      0x00\n        /* \"#utility.yul\":5142:5255   */\n    tag_171:\n        /* \"#utility.yul\":5156:5162   */\n      dup4\n        /* \"#utility.yul\":5153:5154   */\n      dup2\n        /* \"#utility.yul\":5150:5163   */\n      lt\n        /* \"#utility.yul\":5142:5255   */\n      iszero\n      tag_173\n      jumpi\n        /* \"#utility.yul\":5241:5242   */\n      dup1\n        /* \"#utility.yul\":5236:5239   */\n      dup3\n        /* \"#utility.yul\":5232:5243   */\n      add\n        /* \"#utility.yul\":5226:5244   */\n      mload\n        /* \"#utility.yul\":5222:5223   */\n      dup2\n        /* \"#utility.yul\":5217:5220   */\n      dup5\n        /* \"#utility.yul\":5213:5224   */\n      add\n        /* \"#utility.yul\":5206:5245   */\n      mstore\n        /* \"#utility.yul\":5178:5180   */\n      0x20\n        /* \"#utility.yul\":5175:5176   */\n      dup2\n        /* \"#utility.yul\":5171:5181   */\n      add\n        /* \"#utility.yul\":5166:5181   */\n      swap1\n      pop\n        /* \"#utility.yul\":5142:5255   */\n      jump(tag_171)\n    tag_173:\n        /* \"#utility.yul\":5289:5290   */\n      0x00\n        /* \"#utility.yul\":5280:5286   */\n      dup5\n        /* \"#utility.yul\":5275:5278   */\n      dup5\n        /* \"#utility.yul\":5271:5287   */\n      add\n        /* \"#utility.yul\":5264:5291   */\n      mstore\n        /* \"#utility.yul\":5113:5297   */\n      pop\n        /* \"#utility.yul\":5051:5297   */\n      pop\n      pop\n      pop\n      jump\t// out\n        /* \"#utility.yul\":5303:5680   */\n    tag_83:\n        /* \"#utility.yul\":5391:5394   */\n      0x00\n        /* \"#utility.yul\":5419:5458   */\n      tag_175\n        /* \"#utility.yul\":5452:5457   */\n      dup3\n        /* \"#utility.yul\":5419:5458   */\n      tag_80\n      jump\t// in\n    tag_175:\n        /* \"#utility.yul\":5474:5545   */\n      tag_176\n        /* \"#utility.yul\":5538:5544   */\n      dup2\n        /* \"#utility.yul\":5533:5536   */\n      dup6\n        /* \"#utility.yul\":5474:5545   */\n      tag_81\n      jump\t// in\n    tag_176:\n        /* \"#utility.yul\":5467:5545   */\n      swap4\n      pop\n        /* \"#utility.yul\":5554:5619   */\n      tag_177\n        /* \"#utility.yul\":5612:5618   */\n      dup2\n        /* \"#utility.yul\":5607:5610   */\n      dup6\n        /* \"#utility.yul\":5600:5604   */\n      0x20\n        /* \"#utility.yul\":5593:5598   */\n      dup7\n        /* \"#utility.yul\":5589:5605   */\n      add\n        /* \"#utility.yul\":5554:5619   */\n      tag_82\n      jump\t// in\n    tag_177:\n        /* \"#utility.yul\":5644:5673   */\n      tag_178\n        /* \"#utility.yul\":5666:5672   */\n      dup2\n        /* \"#utility.yul\":5644:5673   */\n      tag_68\n      jump\t// in\n    tag_178:\n        /* \"#utility.yul\":5639:5642   */\n      dup5\n        /* \"#utility.yul\":5635:5674   */\n      add\n        /* \"#utility.yul\":5628:5674   */\n      swap2\n      pop\n        /* \"#utility.yul\":5395:5680   */\n      pop\n        /* \"#utility.yul\":5303:5680   */\n      swap3\n      swap2\n      pop\n      pop\n      jump\t// out\n        /* \"#utility.yul\":5686:5999   */\n    tag_22:\n        /* \"#utility.yul\":5799:5803   */\n      0x00\n        /* \"#utility.yul\":5837:5839   */\n      0x20\n        /* \"#utility.yul\":5826:5835   */\n      dup3\n        /* \"#utility.yul\":5822:5840   */\n      add\n        /* \"#utility.yul\":5814:5840   */\n      swap1\n      pop\n        /* \"#utility.yul\":5886:5895   */\n      dup2\n        /* \"#utility.yul\":5880:5884   */\n      dup2\n        /* \"#utility.yul\":5876:5896   */\n      sub\n        /* \"#utility.yul\":5872:5873   */\n      0x00\n        /* \"#utility.yul\":5861:5870   */\n      dup4\n        /* \"#utility.yul\":5857:5874   */\n      add\n        /* \"#utility.yul\":5850:5897   */\n      mstore\n        /* \"#utility.yul\":5914:5992   */\n      tag_180\n        /* \"#utility.yul\":5987:5991   */\n      dup2\n        /* \"#utility.yul\":5978:5984   */\n      dup5\n        /* \"#utility.yul\":5914:5992   */\n      tag_83\n      jump\t// in\n    tag_180:\n        /* \"#utility.yul\":5906:5992   */\n      swap1\n      pop\n        /* \"#utility.yul\":5686:5999   */\n      swap3\n      swap2\n      pop\n      pop\n      jump\t// out\n        /* \"#utility.yul\":6005:6129   */\n    tag_84:\n        /* \"#utility.yul\":6082:6088   */\n      0x00\n        /* \"#utility.yul\":6116:6121   */\n      dup2\n        /* \"#utility.yul\":6110:6122   */\n      mload\n        /* \"#utility.yul\":6100:6122   */\n      swap1\n      pop\n        /* \"#utility.yul\":6005:6129   */\n      swap2\n      swap1\n      pop\n      jump\t// out\n        /* \"#utility.yul\":6135:6329   */\n    tag_85:\n        /* \"#utility.yul\":6244:6255   */\n      0x00\n        /* \"#utility.yul\":6278:6284   */\n      dup3\n        /* \"#utility.yul\":6273:6276   */\n      dup3\n        /* \"#utility.yul\":6266:6285   */\n      mstore\n        /* \"#utility.yul\":6318:6322   */\n      0x20\n        /* \"#utility.yul\":6313:6316   */\n      dup3\n        /* \"#utility.yul\":6309:6323   */\n      add\n        /* \"#utility.yul\":6294:6323   */\n      swap1\n      pop\n        /* \"#utility.yul\":6135:6329   */\n      swap3\n      swap2\n      pop\n      pop\n      jump\t// out\n        /* \"#utility.yul\":6335:6477   */\n    tag_86:\n        /* \"#utility.yul\":6412:6416   */\n      0x00\n        /* \"#utility.yul\":6435:6438   */\n      dup2\n        /* \"#utility.yul\":6427:6438   */\n      swap1\n      pop\n        /* \"#utility.yul\":6465:6469   */\n      0x20\n        /* \"#utility.yul\":6460:6463   */\n      dup3\n        /* \"#utility.yul\":6456:6470   */\n      add\n        /* \"#utility.yul\":6448:6470   */\n      swap1\n      pop\n        /* \"#utility.yul\":6335:6477   */\n      swap2\n      swap1\n      pop\n      jump\t// out\n        /* \"#utility.yul\":6483:6642   */\n    tag_87:\n        /* \"#utility.yul\":6557:6568   */\n      0x00\n        /* \"#utility.yul\":6591:6597   */\n      dup3\n        /* \"#utility.yul\":6586:6589   */\n      dup3\n        /* \"#utility.yul\":6579:6598   */\n      mstore\n        /* \"#utility.yul\":6631:6635   */\n      0x20\n        /* \"#utility.yul\":6626:6629   */\n      dup3\n        /* \"#utility.yul\":6622:6636   */\n      add\n        /* \"#utility.yul\":6607:6636   */\n      swap1\n      pop\n        /* \"#utility.yul\":6483:6642   */\n      swap3\n      swap2\n      pop\n      pop\n      jump\t// out\n        /* \"#utility.yul\":6648:7005   */\n    tag_88:\n        /* \"#utility.yul\":6726:6729   */\n      0x00\n        /* \"#utility.yul\":6754:6793   */\n      tag_186\n        /* \"#utility.yul\":6787:6792   */\n      dup3\n        /* \"#utility.yul\":6754:6793   */\n      tag_80\n      jump\t// in\n    tag_186:\n        /* \"#utility.yul\":6809:6870   */\n      tag_187\n        /* \"#utility.yul\":6863:6869   */\n      dup2\n        /* \"#utility.yul\":6858:6861   */\n      dup6\n        /* \"#utility.yul\":6809:6870   */\n      tag_87\n      jump\t// in\n    tag_187:\n        /* \"#utility.yul\":6802:6870   */\n      swap4\n      pop\n        /* \"#utility.yul\":6879:6944   */\n      tag_188\n        /* \"#utility.yul\":6937:6943   */\n      dup2\n        /* \"#utility.yul\":6932:6935   */\n      dup6\n        /* \"#utility.yul\":6925:6929   */\n      0x20\n        /* \"#utility.yul\":6918:6923   */\n      dup7\n        /* \"#utility.yul\":6914:6930   */\n      add\n        /* \"#utility.yul\":6879:6944   */\n      tag_82\n      jump\t// in\n    tag_188:\n        /* \"#utility.yul\":6969:6998   */\n      tag_189\n        /* \"#utility.yul\":6991:6997   */\n      dup2\n        /* \"#utility.yul\":6969:6998   */\n      tag_68\n      jump\t// in\n    tag_189:\n        /* \"#utility.yul\":6964:6967   */\n      dup5\n        /* \"#utility.yul\":6960:6999   */\n      add\n        /* \"#utility.yul\":6953:6999   */\n      swap2\n      pop\n        /* \"#utility.yul\":6730:7005   */\n      pop\n        /* \"#utility.yul\":6648:7005   */\n      swap3\n      swap2\n      pop\n      pop\n      jump\t// out\n        /* \"#utility.yul\":7011:7207   */\n    tag_89:\n        /* \"#utility.yul\":7100:7110   */\n      0x00\n        /* \"#utility.yul\":7135:7201   */\n      tag_191\n        /* \"#utility.yul\":7197:7200   */\n      dup4\n        /* \"#utility.yul\":7189:7195   */\n      dup4\n        /* \"#utility.yul\":7135:7201   */\n      tag_88\n      jump\t// in\n    tag_191:\n        /* \"#utility.yul\":7121:7201   */\n      swap1\n      pop\n        /* \"#utility.yul\":7011:7207   */\n      swap3\n      swap2\n      pop\n      pop\n      jump\t// out\n        /* \"#utility.yul\":7213:7336   */\n    tag_90:\n        /* \"#utility.yul\":7293:7297   */\n      0x00\n        /* \"#utility.yul\":7325:7329   */\n      0x20\n        /* \"#utility.yul\":7320:7323   */\n      dup3\n        /* \"#utility.yul\":7316:7330   */\n      add\n        /* \"#utility.yul\":7308:7330   */\n      swap1\n      pop\n        /* \"#utility.yul\":7213:7336   */\n      swap2\n      swap1\n      pop\n      jump\t// out\n        /* \"#utility.yul\":7370:8361   */\n    tag_91:\n        /* \"#utility.yul\":7509:7512   */\n      0x00\n        /* \"#utility.yul\":7538:7602   */\n      tag_194\n        /* \"#utility.yul\":7596:7601   */\n      dup3\n        /* \"#utility.yul\":7538:7602   */\n      tag_84\n      jump\t// in\n    tag_194:\n        /* \"#utility.yul\":7618:7714   */\n      tag_195\n        /* \"#utility.yul\":7707:7713   */\n      dup2\n        /* \"#utility.yul\":7702:7705   */\n      dup6\n        /* \"#utility.yul\":7618:7714   */\n      tag_85\n      jump\t// in\n    tag_195:\n        /* \"#utility.yul\":7611:7714   */\n      swap4\n      pop\n        /* \"#utility.yul\":7740:7743   */\n      dup4\n        /* \"#utility.yul\":7785:7789   */\n      0x20\n        /* \"#utility.yul\":7777:7783   */\n      dup3\n        /* \"#utility.yul\":7773:7790   */\n      mul\n        /* \"#utility.yul\":7768:7771   */\n      dup6\n        /* \"#utility.yul\":7764:7791   */\n      add\n        /* \"#utility.yul\":7815:7881   */\n      tag_196\n        /* \"#utility.yul\":7875:7880   */\n      dup6\n        /* \"#utility.yul\":7815:7881   */\n      tag_86\n      jump\t// in\n    tag_196:\n        /* \"#utility.yul\":7904:7911   */\n      dup1\n        /* \"#utility.yul\":7935:7936   */\n      0x00\n        /* \"#utility.yul\":7920:8316   */\n    tag_197:\n        /* \"#utility.yul\":7945:7951   */\n      dup6\n        /* \"#utility.yul\":7942:7943   */\n      dup2\n        /* \"#utility.yul\":7939:7952   */\n      lt\n        /* \"#utility.yul\":7920:8316   */\n      iszero\n      tag_199\n      jumpi\n        /* \"#utility.yul\":8016:8025   */\n      dup5\n        /* \"#utility.yul\":8010:8014   */\n      dup5\n        /* \"#utility.yul\":8006:8026   */\n      sub\n        /* \"#utility.yul\":8001:8004   */\n      dup10\n        /* \"#utility.yul\":7994:8027   */\n      mstore\n        /* \"#utility.yul\":8067:8073   */\n      dup2\n        /* \"#utility.yul\":8061:8074   */\n      mload\n        /* \"#utility.yul\":8095:8179   */\n      tag_200\n        /* \"#utility.yul\":8174:8178   */\n      dup6\n        /* \"#utility.yul\":8159:8172   */\n      dup3\n        /* \"#utility.yul\":8095:8179   */\n      tag_89\n      jump\t// in\n    tag_200:\n        /* \"#utility.yul\":8087:8179   */\n      swap5\n      pop\n        /* \"#utility.yul\":8202:8272   */\n      tag_201\n        /* \"#utility.yul\":8265:8271   */\n      dup4\n        /* \"#utility.yul\":8202:8272   */\n      tag_90\n      jump\t// in\n    tag_201:\n        /* \"#utility.yul\":8192:8272   */\n      swap3\n      pop\n        /* \"#utility.yul\":8301:8305   */\n      0x20\n        /* \"#utility.yul\":8296:8299   */\n      dup11\n        /* \"#utility.yul\":8292:8306   */\n      add\n        /* \"#utility.yul\":8285:8306   */\n      swap10\n      pop\n        /* \"#utility.yul\":7980:8316   */\n      pop\n        /* \"#utility.yul\":7967:7968   */\n      0x01\n        /* \"#utility.yul\":7964:7965   */\n      dup2\n        /* \"#utility.yul\":7960:7969   */\n      add\n        /* \"#utility.yul\":7955:7969   */\n      swap1\n      pop\n        /* \"#utility.yul\":7920:8316   */\n      jump(tag_197)\n    tag_199:\n        /* \"#utility.yul\":7924:7938   */\n      pop\n        /* \"#utility.yul\":8332:8336   */\n      dup3\n        /* \"#utility.yul\":8325:8336   */\n      swap8\n      pop\n        /* \"#utility.yul\":8352:8355   */\n      dup8\n        /* \"#utility.yul\":8345:8355   */\n      swap6\n      pop\n        /* \"#utility.yul\":7514:8361   */\n      pop\n      pop\n      pop\n      pop\n      pop\n        /* \"#utility.yul\":7370:8361   */\n      swap3\n      swap2\n      pop\n      pop\n      jump\t// out\n        /* \"#utility.yul\":8367:8780   */\n    tag_26:\n        /* \"#utility.yul\":8530:8534   */\n      0x00\n        /* \"#utility.yul\":8568:8570   */\n      0x20\n        /* \"#utility.yul\":8557:8566   */\n      dup3\n        /* \"#utility.yul\":8553:8571   */\n      add\n        /* \"#utility.yul\":8545:8571   */\n      swap1\n      pop\n        /* \"#utility.yul\":8617:8626   */\n      dup2\n        /* \"#utility.yul\":8611:8615   */\n      dup2\n        /* \"#utility.yul\":8607:8627   */\n      sub\n        /* \"#utility.yul\":8603:8604   */\n      0x00\n        /* \"#utility.yul\":8592:8601   */\n      dup4\n        /* \"#utility.yul\":8588:8605   */\n      add\n        /* \"#utility.yul\":8581:8628   */\n      mstore\n        /* \"#utility.yul\":8645:8773   */\n      tag_203\n        /* \"#utility.yul\":8768:8772   */\n      dup2\n        /* \"#utility.yul\":8759:8765   */\n      dup5\n        /* \"#utility.yul\":8645:8773   */\n      tag_91\n      jump\t// in\n    tag_203:\n        /* \"#utility.yul\":8637:8773   */\n      swap1\n      pop\n        /* \"#utility.yul\":8367:8780   */\n      swap3\n      swap2\n      pop\n      pop\n      jump\t// out\n        /* \"#utility.yul\":8786:8966   */\n    tag_92:\n        /* \"#utility.yul\":8834:8911   */\n      0x4e487b7100000000000000000000000000000000000000000000000000000000\n        /* \"#utility.yul\":8831:8832   */\n      0x00\n        /* \"#utility.yul\":8824:8912   */\n      mstore\n        /* \"#utility.yul\":8931:8935   */\n      0x22\n        /* \"#utility.yul\":8928:8929   */\n      0x04\n        /* \"#utility.yul\":8921:8936   */\n      mstore\n        /* \"#utility.yul\":8955:8959   */\n      0x24\n        /* \"#utility.yul\":8952:8953   */\n      0x00\n        /* \"#utility.yul\":8945:8960   */\n      revert\n        /* \"#utility.yul\":8972:9292   */\n    tag_49:\n        /* \"#utility.yul\":9016:9022   */\n      0x00\n        /* \"#utility.yul\":9053:9054   */\n      0x02\n        /* \"#utility.yul\":9047:9051   */\n      dup3\n        /* \"#utility.yul\":9043:9055   */\n      div\n        /* \"#utility.yul\":9033:9055   */\n      swap1\n      pop\n        /* \"#utility.yul\":9100:9101   */\n      0x01\n        /* \"#utility.yul\":9094:9098   */\n      dup3\n        /* \"#utility.yul\":9090:9102   */\n      and\n        /* \"#utility.yul\":9121:9139   */\n      dup1\n        /* \"#utility.yul\":9111:9192   */\n      tag_206\n      jumpi\n        /* \"#utility.yul\":9177:9181   */\n      0x7f\n        /* \"#utility.yul\":9169:9175   */\n      dup3\n        /* \"#utility.yul\":9165:9182   */\n      and\n        /* \"#utility.yul\":9155:9182   */\n      swap2\n      pop\n        /* \"#utility.yul\":9111:9192   */\n    tag_206:\n        /* \"#utility.yul\":9239:9241   */\n      0x20\n        /* \"#utility.yul\":9231:9237   */\n      dup3\n        /* \"#utility.yul\":9228:9242   */\n      lt\n        /* \"#utility.yul\":9208:9226   */\n      dup2\n        /* \"#utility.yul\":9205:9243   */\n      sub\n        /* \"#utility.yul\":9202:9286   */\n      tag_207\n      jumpi\n        /* \"#utility.yul\":9258:9276   */\n      tag_208\n      tag_92\n      jump\t// in\n    tag_208:\n        /* \"#utility.yul\":9202:9286   */\n    tag_207:\n        /* \"#utility.yul\":9023:9292   */\n      pop\n        /* \"#utility.yul\":8972:9292   */\n      swap2\n      swap1\n      pop\n      jump\t// out\n        /* \"#utility.yul\":9298:9439   */\n    tag_93:\n        /* \"#utility.yul\":9347:9351   */\n      0x00\n        /* \"#utility.yul\":9370:9373   */\n      dup2\n        /* \"#utility.yul\":9362:9373   */\n      swap1\n      pop\n        /* \"#utility.yul\":9393:9396   */\n      dup2\n        /* \"#utility.yul\":9390:9391   */\n      0x00\n        /* \"#utility.yul\":9383:9397   */\n      mstore\n        /* \"#utility.yul\":9427:9431   */\n      0x20\n        /* \"#utility.yul\":9424:9425   */\n      0x00\n        /* \"#utility.yul\":9414:9432   */\n      keccak256\n        /* \"#utility.yul\":9406:9432   */\n      swap1\n      pop\n        /* \"#utility.yul\":9298:9439   */\n      swap2\n      swap1\n      pop\n      jump\t// out\n        /* \"#utility.yul\":9445:9538   */\n    tag_94:\n        /* \"#utility.yul\":9482:9488   */\n      0x00\n        /* \"#utility.yul\":9529:9531   */\n      0x20\n        /* \"#utility.yul\":9524:9526   */\n      0x1f\n        /* \"#utility.yul\":9517:9522   */\n      dup4\n        /* \"#utility.yul\":9513:9527   */\n      add\n        /* \"#utility.yul\":9509:9532   */\n      div\n        /* \"#utility.yul\":9499:9532   */\n      swap1\n      pop\n        /* \"#utility.yul\":9445:9538   */\n      swap2\n      swap1\n      pop\n      jump\t// out\n        /* \"#utility.yul\":9544:9651   */\n    tag_95:\n        /* \"#utility.yul\":9588:9596   */\n      0x00\n        /* \"#utility.yul\":9638:9643   */\n      dup3\n        /* \"#utility.yul\":9632:9636   */\n      dup3\n        /* \"#utility.yul\":9628:9644   */\n      shl\n        /* \"#utility.yul\":9607:9644   */\n      swap1\n      pop\n        /* \"#utility.yul\":9544:9651   */\n      swap3\n      swap2\n      pop\n      pop\n      jump\t// out\n        /* \"#utility.yul\":9657:10050   */\n    tag_96:\n        /* \"#utility.yul\":9726:9732   */\n      0x00\n        /* \"#utility.yul\":9776:9777   */\n      0x08\n        /* \"#utility.yul\":9764:9774   */\n      dup4\n        /* \"#utility.yul\":9760:9778   */\n      mul\n        /* \"#utility.yul\":9799:9896   */\n      tag_213\n        /* \"#utility.yul\":9829:9895   */\n      0xffffffffffffffffffffffffffffffffffffffffffffffffffffffffffffffff\n        /* \"#utility.yul\":9818:9827   */\n      dup3\n        /* \"#utility.yul\":9799:9896   */\n      tag_95\n      jump\t// in\n    tag_213:\n        /* \"#utility.yul\":9917:9956   */\n      tag_214\n        /* \"#utility.yul\":9947:9955   */\n      dup7\n        /* \"#utility.yul\":9936:9945   */\n      dup4\n        /* \"#utility.yul\":9917:9956   */\n      tag_95\n      jump\t// in\n    tag_214:\n        /* \"#utility.yul\":9905:9956   */\n      swap6\n      pop\n        /* \"#utility.yul\":9989:9993   */\n      dup1\n        /* \"#utility.yul\":9985:9994   */\n      not\n        /* \"#utility.yul\":9978:9983   */\n      dup5\n        /* \"#utility.yul\":9974:9995   */\n      and\n        /* \"#utility.yul\":9965:9995   */\n      swap4\n      pop\n        /* \"#utility.yul\":10038:10042   */\n      dup1\n        /* \"#utility.yul\":10028:10036   */\n      dup7\n        /* \"#utility.yul\":10024:10043   */\n      and\n        /* \"#utility.yul\":10017:10022   */\n      dup5\n        /* \"#utility.yul\":10014:10044   */\n      or\n        /* \"#utility.yul\":10004:10044   */\n      swap3\n      pop\n        /* \"#utility.yul\":9733:10050   */\n      pop\n      pop\n        /* \"#utility.yul\":9657:10050   */\n      swap4\n      swap3\n      pop\n      pop\n      pop\n      jump\t// out\n        /* \"#utility.yul\":10056:10116   */\n    tag_97:\n        /* \"#utility.yul\":10084:10087   */\n      0x00\n        /* \"#utility.yul\":10105:10110   */\n      dup2\n        /* \"#utility.yul\":10098:10110   */\n      swap1\n      pop\n        /* \"#utility.yul\":10056:10116   */\n      swap2\n      swap1\n      pop\n      jump\t// out\n        /* \"#utility.yul\":10122:10264   */\n    tag_98:\n        /* \"#utility.yul\":10172:10181   */\n      0x00\n        /* \"#utility.yul\":10205:10258   */\n      tag_217\n        /* \"#utility.yul\":10223:10257   */\n      tag_218\n        /* \"#utility.yul\":10232:10256   */\n      tag_219\n        /* \"#utility.yul\":10250:10255   */\n      dup5\n        /* \"#utility.yul\":10232:10256   */\n      tag_76\n      jump\t// in\n    tag_219:\n        /* \"#utility.yul\":10223:10257   */\n      tag_97\n      jump\t// in\n    tag_218:\n        /* \"#utility.yul\":10205:10258   */\n      tag_76\n      jump\t// in\n    tag_217:\n        /* \"#utility.yul\":10192:10258   */\n      swap1\n      pop\n        /* \"#utility.yul\":10122:10264   */\n      swap2\n      swap1\n      pop\n      jump\t// out\n        /* \"#utility.yul\":10270:10345   */\n    tag_99:\n        /* \"#utility.yul\":10313:10316   */\n      0x00\n        /* \"#utility.yul\":10334:10339   */\n      dup2\n        /* \"#utility.yul\":10327:10339   */\n      swap1\n      pop\n        /* \"#utility.yul\":10270:10345   */\n      swap2\n      swap1\n      pop\n      jump\t// out\n        /* \"#utility.yul\":10351:10620   */\n    tag_100:\n        /* \"#utility.yul\":10461:10500   */\n      tag_222\n        /* \"#utility.yul\":10492:10499   */\n      dup4\n        /* \"#utility.yul\":10461:10500   */\n      tag_98\n      jump\t// in\n    tag_222:\n        /* \"#utility.yul\":10522:10613   */\n      tag_223\n        /* \"#utility.yul\":10571:10612   */\n      tag_224\n        /* \"#utility.yul\":10595:10611   */\n      dup3\n        /* \"#utility.yul\":10571:10612   */\n      tag_99\n      jump\t// in\n    tag_224:\n        /* \"#utility.yul\":10563:10569   */\n      dup5\n        /* \"#utility.yul\":10556:10560   */\n      dup5\n        /* \"#utility.yul\":10550:10561   */\n      sload\n        /* \"#utility.yul\":10522:10613   */\n      tag_96\n      jump\t// in\n    tag_223:\n        /* \"#utility.yul\":10516:10520   */\n      dup3\n        /* \"#utility.yul\":10509:10614   */\n      sstore\n        /* \"#utility.yul\":10427:10620   */\n      pop\n        /* \"#utility.yul\":10351:10620   */\n      pop\n      pop\n      pop\n      jump\t// out\n        /* \"#utility.yul\":10626:10699   */\n    tag_101:\n        /* \"#utility.yul\":10671:10674   */\n      0x00\n        /* \"#utility.yul\":10626:10699   */\n      swap1\n      jump\t// out\n        /* \"#utility.yul\":10705:10894   */\n    tag_102:\n        /* \"#utility.yul\":10782:10814   */\n      tag_227\n      tag_101\n      jump\t// in\n    tag_227:\n        /* \"#utility.yul\":10823:10888   */\n      tag_228\n        /* \"#utility.yul\":10881:10887   */\n      dup2\n        /* \"#utility.yul\":10873:10879   */\n      dup5\n        /* \"#utility.yul\":10867:10871   */\n      dup5\n        /* \"#utility.yul\":10823:10888   */\n      tag_100\n      jump\t// in\n    tag_228:\n        /* \"#utility.yul\":10758:10894   */\n      pop\n        /* \"#utility.yul\":10705:10894   */\n      pop\n      pop\n      jump\t// out\n        /* \"#utility.yul\":10900:11086   */\n    tag_103:\n        /* \"#utility.yul\":10960:11080   */\n    tag_230:\n        /* \"#utility.yul\":10977:10980   */\n      dup2\n        /* \"#utility.yul\":10970:10975   */\n      dup2\n        /* \"#utility.yul\":10967:10981   */\n      lt\n        /* \"#utility.yul\":10960:11080   */\n      iszero\n      tag_232\n      jumpi\n        /* \"#utility.yul\":11031:11070   */\n      tag_233\n        /* \"#utility.yul\":11068:11069   */\n      0x00\n        /* \"#utility.yul\":11061:11066   */\n      dup3\n        /* \"#utility.yul\":11031:11070   */\n      tag_102\n      jump\t// in\n    tag_233:\n        /* \"#utility.yul\":11004:11005   */\n      0x01\n        /* \"#utility.yul\":10997:11002   */\n      dup2\n        /* \"#utility.yul\":10993:11006   */\n      add\n        /* \"#utility.yul\":10984:11006   */\n      swap1\n      pop\n        /* \"#utility.yul\":10960:11080   */\n      jump(tag_230)\n    tag_232:\n        /* \"#utility.yul\":10900:11086   */\n      pop\n      pop\n      jump\t// out\n        /* \"#utility.yul\":11092:11635   */\n    tag_104:\n        /* \"#utility.yul\":11193:11195   */\n      0x1f\n        /* \"#utility.yul\":11188:11191   */\n      dup3\n        /* \"#utility.yul\":11185:11196   */\n      gt\n        /* \"#utility.yul\":11182:11628   */\n      iszero\n      tag_235\n      jumpi\n        /* \"#utility.yul\":11227:11265   */\n      tag_236\n        /* \"#utility.yul\":11259:11264   */\n      dup2\n        /* \"#utility.yul\":11227:11265   */\n      tag_93\n      jump\t// in\n    tag_236:\n        /* \"#utility.yul\":11311:11340   */\n      tag_237\n        /* \"#utility.yul\":11329:11339   */\n      dup5\n        /* \"#utility.yul\":11311:11340   */\n      tag_94\n      jump\t// in\n    tag_237:\n        /* \"#utility.yul\":11301:11309   */\n      dup2\n        /* \"#utility.yul\":11297:11341   */\n      add\n        /* \"#utility.yul\":11494:11496   */\n      0x20\n        /* \"#utility.yul\":11482:11492   */\n      dup6\n        /* \"#utility.yul\":11479:11497   */\n      lt\n        /* \"#utility.yul\":11476:11525   */\n      iszero\n      tag_238\n      jumpi\n        /* \"#utility.yul\":11515:11523   */\n      dup2\n        /* \"#utility.yul\":11500:11523   */\n      swap1\n      pop\n        /* \"#utility.yul\":11476:11525   */\n    tag_238:\n        /* \"#utility.yul\":11538:11618   */\n      tag_239\n        /* \"#utility.yul\":11594:11616   */\n      tag_240\n        /* \"#utility.yul\":11612:11615   */\n      dup6\n        /* \"#utility.yul\":11594:11616   */\n      tag_94\n      jump\t// in\n    tag_240:\n        /* \"#utility.yul\":11584:11592   */\n      dup4\n        /* \"#utility.yul\":11580:11617   */\n      add\n        /* \"#utility.yul\":11567:11578   */\n      dup3\n        /* \"#utility.yul\":11538:11618   */\n      tag_103\n      jump\t// in\n    tag_239:\n        /* \"#utility.yul\":11197:11628   */\n      pop\n      pop\n        /* \"#utility.yul\":11182:11628   */\n    tag_235:\n        /* \"#utility.yul\":11092:11635   */\n      pop\n      pop\n      pop\n      jump\t// out\n        /* \"#utility.yul\":11641:11758   */\n    tag_105:\n        /* \"#utility.yul\":11695:11703   */\n      0x00\n        /* \"#utility.yul\":11745:11750   */\n      dup3\n        /* \"#utility.yul\":11739:11743   */\n      dup3\n        /* \"#utility.yul\":11735:11751   */\n      shr\n        /* \"#utility.yul\":11714:11751   */\n      swap1\n      pop\n        /* \"#utility.yul\":11641:11758   */\n      swap3\n      swap2\n      pop\n      pop\n      jump\t// out\n        /* \"#utility.yul\":11764:11933   */\n    tag_106:\n        /* \"#utility.yul\":11808:11814   */\n      0x00\n        /* \"#utility.yul\":11841:11892   */\n      tag_243\n        /* \"#utility.yul\":11889:11890   */\n      0x00\n        /* \"#utility.yul\":11885:11891   */\n      not\n        /* \"#utility.yul\":11877:11882   */\n      dup5\n        /* \"#utility.yul\":11874:11875   */\n      0x08\n        /* \"#utility.yul\":11870:11883   */\n      mul\n        /* \"#utility.yul\":11841:11892   */\n      tag_105\n      jump\t// in\n    tag_243:\n        /* \"#utility.yul\":11837:11893   */\n      not\n        /* \"#utility.yul\":11922:11926   */\n      dup1\n        /* \"#utility.yul\":11916:11920   */\n      dup4\n        /* \"#utility.yul\":11912:11927   */\n      and\n        /* \"#utility.yul\":11902:11927   */\n      swap2\n      pop\n        /* \"#utility.yul\":11815:11933   */\n      pop\n        /* \"#utility.yul\":11764:11933   */\n      swap3\n      swap2\n      pop\n      pop\n      jump\t// out\n        /* \"#utility.yul\":11938:12233   */\n    tag_107:\n        /* \"#utility.yul\":12014:12018   */\n      0x00\n        /* \"#utility.yul\":12160:12189   */\n      tag_245\n        /* \"#utility.yul\":12185:12188   */\n      dup4\n        /* \"#utility.yul\":12179:12183   */\n      dup4\n        /* \"#utility.yul\":12160:12189   */\n      tag_106\n      jump\t// in\n    tag_245:\n        /* \"#utility.yul\":12152:12189   */\n      swap2\n      pop\n        /* \"#utility.yul\":12222:12225   */\n      dup3\n        /* \"#utility.yul\":12219:12220   */\n      0x02\n        /* \"#utility.yul\":12215:12226   */\n      mul\n        /* \"#utility.yul\":12209:12213   */\n      dup3\n        /* \"#utility.yul\":12206:12227   */\n      or\n        /* \"#utility.yul\":12198:12227   */\n      swap1\n      pop\n        /* \"#utility.yul\":11938:12233   */\n      swap3\n      swap2\n      pop\n      pop\n      jump\t// out\n        /* \"#utility.yul\":12238:13633   */\n    tag_30:\n        /* \"#utility.yul\":12355:12392   */\n      tag_247\n        /* \"#utility.yul\":12388:12391   */\n      dup3\n        /* \"#utility.yul\":12355:12392   */\n      tag_80\n      jump\t// in\n    tag_247:\n        /* \"#utility.yul\":12457:12475   */\n      0xffffffffffffffff\n        /* \"#utility.yul\":12449:12455   */\n      dup2\n        /* \"#utility.yul\":12446:12476   */\n      gt\n        /* \"#utility.yul\":12443:12499   */\n      iszero\n      tag_248\n      jumpi\n        /* \"#utility.yul\":12479:12497   */\n      tag_249\n      tag_69\n      jump\t// in\n    tag_249:\n        /* \"#utility.yul\":12443:12499   */\n    tag_248:\n        /* \"#utility.yul\":12523:12561   */\n      tag_250\n        /* \"#utility.yul\":12555:12559   */\n      dup3\n        /* \"#utility.yul\":12549:12560   */\n      sload\n        /* \"#utility.yul\":12523:12561   */\n      tag_49\n      jump\t// in\n    tag_250:\n        /* \"#utility.yul\":12608:12675   */\n      tag_251\n        /* \"#utility.yul\":12668:12674   */\n      dup3\n        /* \"#utility.yul\":12660:12666   */\n      dup3\n        /* \"#utility.yul\":12654:12658   */\n      dup6\n        /* \"#utility.yul\":12608:12675   */\n      tag_104\n      jump\t// in\n    tag_251:\n        /* \"#utility.yul\":12702:12703   */\n      0x00\n        /* \"#utility.yul\":12726:12730   */\n      0x20\n        /* \"#utility.yul\":12713:12730   */\n      swap1\n      pop\n        /* \"#utility.yul\":12758:12760   */\n      0x1f\n        /* \"#utility.yul\":12750:12756   */\n      dup4\n        /* \"#utility.yul\":12747:12761   */\n      gt\n        /* \"#utility.yul\":12775:12776   */\n      0x01\n        /* \"#utility.yul\":12770:13388   */\n      dup2\n      eq\n      tag_253\n      jumpi\n        /* \"#utility.yul\":13432:13433   */\n      0x00\n        /* \"#utility.yul\":13449:13455   */\n      dup5\n        /* \"#utility.yul\":13446:13523   */\n      iszero\n      tag_254\n      jumpi\n        /* \"#utility.yul\":13498:13507   */\n      dup3\n        /* \"#utility.yul\":13493:13496   */\n      dup8\n        /* \"#utility.yul\":13489:13508   */\n      add\n        /* \"#utility.yul\":13483:13509   */\n      mload\n        /* \"#utility.yul\":13474:13509   */\n      swap1\n      pop\n        /* \"#utility.yul\":13446:13523   */\n    tag_254:\n        /* \"#utility.yul\":13549:13616   */\n      tag_255\n        /* \"#utility.yul\":13609:13615   */\n      dup6\n        /* \"#utility.yul\":13602:13607   */\n      dup3\n        /* \"#utility.yul\":13549:13616   */\n      tag_107\n      jump\t// in\n    tag_255:\n        /* \"#utility.yul\":13543:13547   */\n      dup7\n        /* \"#utility.yul\":13536:13617   */\n      sstore\n        /* \"#utility.yul\":13405:13627   */\n      pop\n        /* \"#utility.yul\":12740:13627   */\n      jump(tag_252)\n        /* \"#utility.yul\":12770:13388   */\n    tag_253:\n        /* \"#utility.yul\":12822:12826   */\n      0x1f\n        /* \"#utility.yul\":12818:12827   */\n      not\n        /* \"#utility.yul\":12810:12816   */\n      dup5\n        /* \"#utility.yul\":12806:12828   */\n      and\n        /* \"#utility.yul\":12856:12893   */\n      tag_256\n        /* \"#utility.yul\":12888:12892   */\n      dup7\n        /* \"#utility.yul\":12856:12893   */\n      tag_93\n      jump\t// in\n    tag_256:\n        /* \"#utility.yul\":12915:12916   */\n      0x00\n        /* \"#utility.yul\":12929:13137   */\n    tag_257:\n        /* \"#utility.yul\":12943:12950   */\n      dup3\n        /* \"#utility.yul\":12940:12941   */\n      dup2\n        /* \"#utility.yul\":12937:12951   */\n      lt\n        /* \"#utility.yul\":12929:13137   */\n      iszero\n      tag_259\n      jumpi\n        /* \"#utility.yul\":13022:13031   */\n      dup5\n        /* \"#utility.yul\":13017:13020   */\n      dup10\n        /* \"#utility.yul\":13013:13032   */\n      add\n        /* \"#utility.yul\":13007:13033   */\n      mload\n        /* \"#utility.yul\":12999:13005   */\n      dup3\n        /* \"#utility.yul\":12992:13034   */\n      sstore\n        /* \"#utility.yul\":13073:13074   */\n      0x01\n        /* \"#utility.yul\":13065:13071   */\n      dup3\n        /* \"#utility.yul\":13061:13075   */\n      add\n        /* \"#utility.yul\":13051:13075   */\n      swap2\n      pop\n        /* \"#utility.yul\":13120:13122   */\n      0x20\n        /* \"#utility.yul\":13109:13118   */\n      dup6\n        /* \"#utility.yul\":13105:13123   */\n      add\n        /* \"#utility.yul\":13092:13123   */\n      swap5\n      pop\n        /* \"#utility.yul\":12966:12970   */\n      0x20\n        /* \"#utility.yul\":12963:12964   */\n      dup2\n        /* \"#utility.yul\":12959:12971   */\n      add\n        /* \"#utility.yul\":12954:12971   */\n      swap1\n      pop\n        /* \"#utility.yul\":12929:13137   */\n      jump(tag_257)\n    tag_259:\n        /* \"#utility.yul\":13165:13171   */\n      dup7\n        /* \"#utility.yul\":13156:13163   */\n      dup4\n        /* \"#utility.yul\":13153:13172   */\n      lt\n        /* \"#utility.yul\":13150:13329   */\n      iszero\n      tag_260\n      jumpi\n        /* \"#utility.yul\":13223:13232   */\n      dup5\n        /* \"#utility.yul\":13218:13221   */\n      dup10\n        /* \"#utility.yul\":13214:13233   */\n      add\n        /* \"#utility.yul\":13208:13234   */\n      mload\n        /* \"#utility.yul\":13266:13314   */\n      tag_261\n        /* \"#utility.yul\":13308:13312   */\n      0x1f\n        /* \"#utility.yul\":13300:13306   */\n      dup10\n        /* \"#utility.yul\":13296:13313   */\n      and\n        /* \"#utility.yul\":13285:13294   */\n      dup3\n        /* \"#utility.yul\":13266:13314   */\n      tag_106\n      jump\t// in\n    tag_261:\n        /* \"#utility.yul\":13258:13264   */\n      dup4\n        /* \"#utility.yul\":13251:13315   */\n      sstore\n        /* \"#utility.yul\":13173:13329   */\n      pop\n        /* \"#utility.yul\":13150:13329   */\n    tag_260:\n        /* \"#utility.yul\":13375:13376   */\n      0x01\n        /* \"#utility.yul\":13371:13372   */\n      0x02\n        /* \"#utility.yul\":13363:13369   */\n      dup9\n        /* \"#utility.yul\":13359:13373   */\n      mul\n        /* \"#utility.yul\":13355:13377   */\n      add\n        /* \"#utility.yul\":13349:13353   */\n      dup9\n        /* \"#utility.yul\":13342:13378   */\n      sstore\n        /* \"#utility.yul\":12777:13388   */\n      pop\n      pop\n      pop\n        /* \"#utility.yul\":12740:13627   */\n    tag_252:\n      pop\n        /* \"#utility.yul\":12330:13633   */\n      pop\n      pop\n      pop\n        /* \"#utility.yul\":12238:13633   */\n      pop\n      pop\n      jump\t// out\n        /* \"#utility.yul\":13639:13819   */\n    tag_108:\n        /* \"#utility.yul\":13687:13764   */\n      0x4e487b7100000000000000000000000000000000000000000000000000000000\n        /* \"#utility.yul\":13684:13685   */\n      0x00\n        /* \"#utility.yul\":13677:13765   */\n      mstore\n        /* \"#utility.yul\":13784:13788   */\n      0x11\n        /* \"#utility.yul\":13781:13782   */\n      0x04\n        /* \"#utility.yul\":13774:13789   */\n      mstore\n        /* \"#utility.yul\":13808:13812   */\n      0x24\n        /* \"#utility.yul\":13805:13806   */\n      0x00\n        /* \"#utility.yul\":13798:13813   */\n      revert\n        /* \"#utility.yul\":13825:14019   */\n    tag_32:\n        /* \"#utility.yul\":13865:13869   */\n      0x00\n        /* \"#utility.yul\":13885:13905   */\n      tag_264\n        /* \"#utility.yul\":13903:13904   */\n      dup3\n        /* \"#utility.yul\":13885:13905   */\n      tag_76\n      jump\t// in\n    tag_264:\n        /* \"#utility.yul\":13880:13905   */\n      swap2\n      pop\n        /* \"#utility.yul\":13919:13939   */\n      tag_265\n        /* \"#utility.yul\":13937:13938   */\n      dup4\n        /* \"#utility.yul\":13919:13939   */\n      tag_76\n      jump\t// in\n    tag_265:\n        /* \"#utility.yul\":13914:13939   */\n      swap3\n      pop\n        /* \"#utility.yul\":13963:13964   */\n      dup3\n        /* \"#utility.yul\":13960:13961   */\n      dup3\n        /* \"#utility.yul\":13956:13965   */\n      sub\n        /* \"#utility.yul\":13948:13965   */\n      swap1\n      pop\n        /* \"#utility.yul\":13987:13988   */\n      dup2\n        /* \"#utility.yul\":13981:13985   */\n      dup2\n        /* \"#utility.yul\":13978:13989   */\n      gt\n        /* \"#utility.yul\":13975:14012   */\n      iszero\n      tag_266\n      jumpi\n        /* \"#utility.yul\":13992:14010   */\n      tag_267\n      tag_108\n      jump\t// in\n    tag_267:\n        /* \"#utility.yul\":13975:14012   */\n    tag_266:\n        /* \"#utility.yul\":13825:14019   */\n      swap3\n      swap2\n      pop\n      pop\n      jump\t// out\n        /* \"#utility.yul\":14025:14188   */\n    tag_109:\n        /* \"#utility.yul\":14165:14180   */\n      0x696e76616c696420696e64657800000000000000000000000000000000000000\n        /* \"#utility.yul\":14161:14162   */\n      0x00\n        /* \"#utility.yul\":14153:14159   */\n      dup3\n        /* \"#utility.yul\":14149:14163   */\n      add\n        /* \"#utility.yul\":14142:14181   */\n      mstore\n        /* \"#utility.yul\":14025:14188   */\n      pop\n      jump\t// out\n        /* \"#utility.yul\":14194:14560   */\n    tag_110:\n        /* \"#utility.yul\":14336:14339   */\n      0x00\n        /* \"#utility.yul\":14357:14424   */\n      tag_270\n        /* \"#utility.yul\":14421:14423   */\n      0x0d\n        /* \"#utility.yul\":14416:14419   */\n      dup4\n        /* \"#utility.yul\":14357:14424   */\n      tag_81\n      jump\t// in\n    tag_270:\n        /* \"#utility.yul\":14350:14424   */\n      swap2\n      pop\n        /* \"#utility.yul\":14433:14526   */\n      tag_271\n        /* \"#utility.yul\":14522:14525   */\n      dup3\n        /* \"#utility.yul\":14433:14526   */\n      tag_109\n      jump\t// in\n    tag_271:\n        /* \"#utility.yul\":14551:14553   */\n      0x20\n        /* \"#utility.yul\":14546:14549   */\n      dup3\n        /* \"#utility.yul\":14542:14554   */\n      add\n        /* \"#utility.yul\":14535:14554   */\n      swap1\n      pop\n        /* \"#utility.yul\":14194:14560   */\n      swap2\n      swap1\n      pop\n      jump\t// out\n        /* \"#utility.yul\":14566:14985   */\n    tag_36:\n        /* \"#utility.yul\":14732:14736   */\n      0x00\n        /* \"#utility.yul\":14770:14772   */\n      0x20\n        /* \"#utility.yul\":14759:14768   */\n      dup3\n        /* \"#utility.yul\":14755:14773   */\n      add\n        /* \"#utility.yul\":14747:14773   */\n      swap1\n      pop\n        /* \"#utility.yul\":14819:14828   */\n      dup2\n        /* \"#utility.yul\":14813:14817   */\n      dup2\n        /* \"#utility.yul\":14809:14829   */\n      sub\n        /* \"#utility.yul\":14805:14806   */\n      0x00\n        /* \"#utility.yul\":14794:14803   */\n      dup4\n        /* \"#utility.yul\":14790:14807   */\n      add\n        /* \"#utility.yul\":14783:14830   */\n      mstore\n        /* \"#utility.yul\":14847:14978   */\n      tag_273\n        /* \"#utility.yul\":14973:14977   */\n      dup2\n        /* \"#utility.yul\":14847:14978   */\n      tag_110\n      jump\t// in\n    tag_273:\n        /* \"#utility.yul\":14839:14978   */\n      swap1\n      pop\n        /* \"#utility.yul\":14566:14985   */\n      swap2\n      swap1\n      pop\n      jump\t// out\n        /* \"#utility.yul\":14991:15171   */\n    tag_39:\n        /* \"#utility.yul\":15039:15116   */\n      0x4e487b7100000000000000000000000000000000000000000000000000000000\n        /* \"#utility.yul\":15036:15037   */\n      0x00\n        /* \"#utility.yul\":15029:15117   */\n      mstore\n        /* \"#utility.yul\":15136:15140   */\n      0x32\n        /* \"#utility.yul\":15133:15134   */\n      0x04\n        /* \"#utility.yul\":15126:15141   */\n      mstore\n        /* \"#utility.yul\":15160:15164   */\n      0x24\n        /* \"#utility.yul\":15157:15158   */\n      0x00\n        /* \"#utility.yul\":15150:15165   */\n      revert\n\n    auxdata: 0xa26469706673582212201f6b8009c29bebca522a7fc3b4c7af7d0bd891bb784b1eeeae8186c8748b6d4f64736f6c63430008130033\n}\n",
				"bytecode": {
					"linkReferences": {},
					"object": "608060405234801561001057600080fd5b50610bee806100206000396000f3fe608060405234801561001057600080fd5b506004361061004c5760003560e01c80630bf803e41461005157806350c001971461008157806394b1a5bc1461009d578063edc2784e146100cd575b600080fd5b61006b600480360381019061006691906104db565b6100eb565b604051610078919061053d565b60405180910390f35b61009b60048036038101906100969190610584565b61013a565b005b6100b760048036038101906100b291906105e0565b6101b1565b6040516100c4919061068c565b60405180910390f35b6100d56102a8565b6040516100e291906107ba565b60405180910390f35b6000808290806001815401808255809150506001900390600052602060002001600090919091909150908161012091906109e8565b5060016000805490506101339190610ae9565b9050919050565b6000805490508210610181576040517f08c379a000000000000000000000000000000000000000000000000000000000815260040161017890610b69565b60405180910390fd5b806000838154811061019657610195610b89565b5b9060005260206000200190816101ac91906109e8565b505050565b606060008054905082106101fa576040517f08c379a00000000000000000000000000000000000000000000000000000000081526004016101f190610b69565b60405180910390fd5b6000828154811061020e5761020d610b89565b5b9060005260206000200180546102239061080b565b80601f016020809104026020016040519081016040528092919081815260200182805461024f9061080b565b801561029c5780601f106102715761010080835404028352916020019161029c565b820191906000526020600020905b81548152906001019060200180831161027f57829003601f168201915b50505050509050919050565b60606000805480602002602001604051908101604052809291908181526020016000905b828210156103785783829060005260206000200180546102eb9061080b565b80601f01602080910402602001604051908101604052809291908181526020018280546103179061080b565b80156103645780601f1061033957610100808354040283529160200191610364565b820191906000526020600020905b81548152906001019060200180831161034757829003601f168201915b5050505050815260200190600101906102cc565b50505050905090565b6000604051905090565b600080fd5b600080fd5b600080fd5b600080fd5b6000601f19601f8301169050919050565b7f4e487b7100000000000000000000000000000000000000000000000000000000600052604160045260246000fd5b6103e88261039f565b810181811067ffffffffffffffff82111715610407576104066103b0565b5b80604052505050565b600061041a610381565b905061042682826103df565b919050565b600067ffffffffffffffff821115610446576104456103b0565b5b61044f8261039f565b9050602081019050919050565b82818337600083830152505050565b600061047e6104798461042b565b610410565b90508281526020810184848401111561049a5761049961039a565b5b6104a584828561045c565b509392505050565b600082601f8301126104c2576104c1610395565b5b81356104d284826020860161046b565b91505092915050565b6000602082840312156104f1576104f061038b565b5b600082013567ffffffffffffffff81111561050f5761050e610390565b5b61051b848285016104ad565b91505092915050565b6000819050919050565b61053781610524565b82525050565b6000602082019050610552600083018461052e565b92915050565b61056181610524565b811461056c57600080fd5b50565b60008135905061057e81610558565b92915050565b6000806040838503121561059b5761059a61038b565b5b60006105a98582860161056f565b925050602083013567ffffffffffffffff8111156105ca576105c9610390565b5b6105d6858286016104ad565b9150509250929050565b6000602082840312156105f6576105f561038b565b5b60006106048482850161056f565b91505092915050565b600081519050919050565b600082825260208201905092915050565b60005b8381101561064757808201518184015260208101905061062c565b60008484015250505050565b600061065e8261060d565b6106688185610618565b9350610678818560208601610629565b6106818161039f565b840191505092915050565b600060208201905081810360008301526106a68184610653565b905092915050565b600081519050919050565b600082825260208201905092915050565b6000819050602082019050919050565b600082825260208201905092915050565b60006106f68261060d565b61070081856106da565b9350610710818560208601610629565b6107198161039f565b840191505092915050565b600061073083836106eb565b905092915050565b6000602082019050919050565b6000610750826106ae565b61075a81856106b9565b93508360208202850161076c856106ca565b8060005b858110156107a857848403895281516107898582610724565b945061079483610738565b925060208a01995050600181019050610770565b50829750879550505050505092915050565b600060208201905081810360008301526107d48184610745565b905092915050565b7f4e487b7100000000000000000000000000000000000000000000000000000000600052602260045260246000fd5b6000600282049050600182168061082357607f821691505b602082108103610836576108356107dc565b5b50919050565b60008190508160005260206000209050919050565b60006020601f8301049050919050565b600082821b905092915050565b60006008830261089e7fffffffffffffffffffffffffffffffffffffffffffffffffffffffffffffffff82610861565b6108a88683610861565b95508019841693508086168417925050509392505050565b6000819050919050565b60006108e56108e06108db84610524565b6108c0565b610524565b9050919050565b6000819050919050565b6108ff836108ca565b61091361090b826108ec565b84845461086e565b825550505050565b600090565b61092861091b565b6109338184846108f6565b505050565b5b818110156109575761094c600082610920565b600181019050610939565b5050565b601f82111561099c5761096d8161083c565b61097684610851565b81016020851015610985578190505b61099961099185610851565b830182610938565b50505b505050565b600082821c905092915050565b60006109bf600019846008026109a1565b1980831691505092915050565b60006109d883836109ae565b9150826002028217905092915050565b6109f18261060d565b67ffffffffffffffff811115610a0a57610a096103b0565b5b610a14825461080b565b610a1f82828561095b565b600060209050601f831160018114610a525760008415610a40578287015190505b610a4a85826109cc565b865550610ab2565b601f198416610a608661083c565b60005b82811015610a8857848901518255600182019150602085019450602081019050610a63565b86831015610aa55784890151610aa1601f8916826109ae565b8355505b6001600288020188555050505b505050505050565b7f4e487b7100000000000000000000000000000000000000000000000000000000600052601160045260246000fd5b6000610af482610524565b9150610aff83610524565b9250828203905081811115610b1757610b16610aba565b5b92915050565b7f696e76616c696420696e64657800000000000000000000000000000000000000600082015250565b6000610b53600d83610618565b9150610b5e82610b1d565b602082019050919050565b60006020820190508181036000830152610b8281610b46565b9050919050565b7f4e487b7100000000000000000000000000000000000000000000000000000000600052603260045260246000fdfea26469706673582212201f6b8009c29bebca522a7fc3b4c7af7d0bd891bb784b1eeeae8186c8748b6d4f64736f6c63430008130033",
					"opcodes": "PUSH1 0x80 PUSH1 0x40 MSTORE CALLVALUE DUP1 ISZERO PUSH2 0x10 JUMPI PUSH1 0x0 DUP1 REVERT JUMPDEST POP PUSH2 0xBEE DUP1 PUSH2 0x20 PUSH1 0x0 CODECOPY PUSH1 0x0 RETURN INVALID PUSH1 0x80 PUSH1 0x40 MSTORE CALLVALUE DUP1 ISZERO PUSH2 0x10 JUMPI PUSH1 0x0 DUP1 REVERT JUMPDEST POP PUSH1 0x4 CALLDATASIZE LT PUSH2 0x4C JUMPI PUSH1 0x0 CALLDATALOAD PUSH1 0xE0 SHR DUP1 PUSH4 0xBF803E4 EQ PUSH2 0x51 JUMPI DUP1 PUSH4 0x50C00197 EQ PUSH2 0x81 JUMPI DUP1 PUSH4 0x94B1A5BC EQ PUSH2 0x9D JUMPI DUP1 PUSH4 0xEDC2784E EQ PUSH2 0xCD JUMPI JUMPDEST PUSH1 0x0 DUP1 REVERT JUMPDEST PUSH2 0x6B PUSH1 0x4 DUP1 CALLDATASIZE SUB DUP2 ADD SWAP1 PUSH2 0x66 SWAP2 SWAP1 PUSH2 0x4DB JUMP JUMPDEST PUSH2 0xEB JUMP JUMPDEST PUSH1 0x40 MLOAD PUSH2 0x78 SWAP2 SWAP1 PUSH2 0x53D JUMP JUMPDEST PUSH1 0x40 MLOAD DUP1 SWAP2 SUB SWAP1 RETURN JUMPDEST PUSH2 0x9B PUSH1 0x4 DUP1 CALLDATASIZE SUB DUP2 ADD SWAP1 PUSH2 0x96 SWAP2 SWAP1 PUSH2 0x584 JUMP JUMPDEST PUSH2 0x13A JUMP JUMPDEST STOP JUMPDEST PUSH2 0xB7 PUSH1 0x4 DUP1 CALLDATASIZE SUB DUP2 ADD SWAP1 PUSH2 0xB2 SWAP2 SWAP1 PUSH2 0x5E0 JUMP JUMPDEST PUSH2 0x1B1 JUMP JUMPDEST PUSH1 0x40 MLOAD PUSH2 0xC4 SWAP2 SWAP1 PUSH2 0x68C JUMP JUMPDEST PUSH1 0x40 MLOAD DUP1 SWAP2 SUB SWAP1 RETURN JUMPDEST PUSH2 0xD5 PUSH2 0x2A8 JUMP JUMPDEST PUSH1 0x40 MLOAD PUSH2 0xE2 SWAP2 SWAP1 PUSH2 0x7BA JUMP JUMPDEST PUSH1 0x40 MLOAD DUP1 SWAP2 SUB SWAP1 RETURN JUMPDEST PUSH1 0x0 DUP1 DUP3 SWAP1 DUP1 PUSH1 0x1 DUP2 SLOAD ADD DUP1 DUP3 SSTORE DUP1 SWAP2 POP POP PUSH1 0x1 SWAP1 SUB SWAP1 PUSH1 0x0 MSTORE PUSH1 0x20 PUSH1 0x0 KECCAK256 ADD PUSH1 0x0 SWAP1 SWAP2 SWAP1 SWAP2 SWAP1 SWAP2 POP SWAP1 DUP2 PUSH2 0x120 SWAP2 SWAP1 PUSH2 0x9E8 JUMP JUMPDEST POP PUSH1 0x1 PUSH1 0x0 DUP1 SLOAD SWAP1 POP PUSH2 0x133 SWAP2 SWAP1 PUSH2 0xAE9 JUMP JUMPDEST SWAP1 POP SWAP2 SWAP1 POP JUMP JUMPDEST PUSH1 0x0 DUP1 SLOAD SWAP1 POP DUP3 LT PUSH2 0x181 JUMPI PUSH1 0x40 MLOAD PUSH32 0x8C379A000000000000000000000000000000000000000000000000000000000 DUP2 MSTORE PUSH1 0x4 ADD PUSH2 0x178 SWAP1 PUSH2 0xB69 JUMP JUMPDEST PUSH1 0x40 MLOAD DUP1 SWAP2 SUB SWAP1 REVERT JUMPDEST DUP1 PUSH1 0x0 DUP4 DUP2 SLOAD DUP2 LT PUSH2 0x196 JUMPI PUSH2 0x195 PUSH2 0xB89 JUMP JUMPDEST JUMPDEST SWAP1 PUSH1 0x0 MSTORE PUSH1 0x20 PUSH1 0x0 KECCAK256 ADD SWAP1 DUP2 PUSH2 0x1AC SWAP2 SWAP1 PUSH2 0x9E8 JUMP JUMPDEST POP POP POP JUMP JUMPDEST PUSH1 0x60 PUSH1 0x0 DUP1 SLOAD SWAP1 POP DUP3 LT PUSH2 0x1FA JUMPI PUSH1 0x40 MLOAD PUSH32 0x8C379A000000000000000000000000000000000000000000000000000000000 DUP2 MSTORE PUSH1 0x4 ADD PUSH2 0x1F1 SWAP1 PUSH2 0xB69 JUMP JUMPDEST PUSH1 0x40 MLOAD DUP1 SWAP2 SUB SWAP1 REVERT JUMPDEST PUSH1 0x0 DUP3 DUP2 SLOAD DUP2 LT PUSH2 0x20E JUMPI PUSH2 0x20D PUSH2 0xB89 JUMP JUMPDEST JUMPDEST SWAP1 PUSH1 0x0 MSTORE PUSH1 0x20 PUSH1 0x0 KECCAK256 ADD DUP1 SLOAD PUSH2 0x223 SWAP1 PUSH2 0x80B JUMP JUMPDEST DUP1 PUSH1 0x1F ADD PUSH1 0x20 DUP1 SWAP2 DIV MUL PUSH1 0x20 ADD PUSH1 0x40 MLOAD SWAP1 DUP2 ADD PUSH1 0x40 MSTORE DUP1 SWAP3 SWAP2 SWAP1 DUP2 DUP2 MSTORE PUSH1 0x20 ADD DUP3 DUP1 SLOAD PUSH2 0x24F SWAP1 PUSH2 0x80B JUMP JUMPDEST DUP1 ISZERO PUSH2 0x29C JUMPI DUP1 PUSH1 0x1F LT PUSH2 0x271 JUMPI PUSH2 0x100 DUP1 DUP4 SLOAD DIV MUL DUP4 MSTORE SWAP2 PUSH1 0x20 ADD SWAP2 PUSH2 0x29C JUMP JUMPDEST DUP3 ADD SWAP2 SWAP1 PUSH1 0x0 MSTORE PUSH1 0x20 PUSH1 0x0 KECCAK256 SWAP1 JUMPDEST DUP2 SLOAD DUP2 MSTORE SWAP1 PUSH1 0x1 ADD SWAP1 PUSH1 0x20 ADD DUP1 DUP4 GT PUSH2 0x27F JUMPI DUP3 SWAP1 SUB PUSH1 0x1F AND DUP3 ADD SWAP2 JUMPDEST POP POP POP POP POP SWAP1 POP SWAP2 SWAP1 POP JUMP JUMPDEST PUSH1 0x60 PUSH1 0x0 DUP1 SLOAD DUP1 PUSH1 0x20 MUL PUSH1 0x20 ADD PUSH1 0x40 MLOAD SWAP1 DUP2 ADD PUSH1 0x40 MSTORE DUP1 SWAP3 SWAP2 SWAP1 DUP2 DUP2 MSTORE PUSH1 0x20 ADD PUSH1 0x0 SWAP1 JUMPDEST DUP3 DUP3 LT ISZERO PUSH2 0x378 JUMPI DUP4 DUP3 SWAP1 PUSH1 0x0 MSTORE PUSH1 0x20 PUSH1 0x0 KECCAK256 ADD DUP1 SLOAD PUSH2 0x2EB SWAP1 PUSH2 0x80B JUMP JUMPDEST DUP1 PUSH1 0x1F ADD PUSH1 0x20 DUP1 SWAP2 DIV MUL PUSH1 0x20 ADD PUSH1 0x40 MLOAD SWAP1 DUP2 ADD PUSH1 0x40 MSTORE DUP1 SWAP3 SWAP2 SWAP1 DUP2 DUP2 MSTORE PUSH1 0x20 ADD DUP3 DUP1 SLOAD PUSH2 0x317 SWAP1 PUSH2 0x80B JUMP JUMPDEST DUP1 ISZERO PUSH2 0x364 JUMPI DUP1 PUSH1 0x1F LT PUSH2 0x339 JUMPI PUSH2 0x100 DUP1 DUP4 SLOAD DIV MUL DUP4 MSTORE SWAP2 PUSH1 0x20 ADD SWAP2 PUSH2 0x364 JUMP JUMPDEST DUP3 ADD SWAP2 SWAP1 PUSH1 0x0 MSTORE PUSH1 0x20 PUSH1 0x0 KECCAK256 SWAP1 JUMPDEST DUP2 SLOAD DUP2 MSTORE SWAP1 PUSH1 0x1 ADD SWAP1 PUSH1 0x20 ADD DUP1 DUP4 GT PUSH2 0x347 JUMPI DUP3 SWAP1 SUB PUSH1 0x1F AND DUP3 ADD SWAP2 JUMPDEST POP POP POP POP POP DUP2 MSTORE PUSH1 0x20 ADD SWAP1 PUSH1 0x1 ADD SWAP1 PUSH2 0x2CC JUMP JUMPDEST POP POP POP POP SWAP1 POP SWAP1 JUMP JUMPDEST PUSH1 0x0 PUSH1 0x40 MLOAD SWAP1 POP SWAP1 JUMP JUMPDEST PUSH1 0x0 DUP1 REVERT JUMPDEST PUSH1 0x0 DUP1 REVERT JUMPDEST PUSH1 0x0 DUP1 REVERT JUMPDEST PUSH1 0x0 DUP1 REVERT JUMPDEST PUSH1 0x0 PUSH1 0x1F NOT PUSH1 0x1F DUP4 ADD AND SWAP1 POP SWAP2 SWAP1 POP JUMP JUMPDEST PUSH32 0x4E487B7100000000000000000000000000000000000000000000000000000000 PUSH1 0x0 MSTORE PUSH1 0x41 PUSH1 0x4 MSTORE PUSH1 0x24 PUSH1 0x0 REVERT JUMPDEST PUSH2 0x3E8 DUP3 PUSH2 0x39F JUMP JUMPDEST DUP2 ADD DUP2 DUP2 LT PUSH8 0xFFFFFFFFFFFFFFFF DUP3 GT OR ISZERO PUSH2 0x407 JUMPI PUSH2 0x406 PUSH2 0x3B0 JUMP JUMPDEST JUMPDEST DUP1 PUSH1 0x40 MSTORE POP POP POP JUMP JUMPDEST PUSH1 0x0 PUSH2 0x41A PUSH2 0x381 JUMP JUMPDEST SWAP1 POP PUSH2 0x426 DUP3 DUP3 PUSH2 0x3DF JUMP JUMPDEST SWAP2 SWAP1 POP JUMP JUMPDEST PUSH1 0x0 PUSH8 0xFFFFFFFFFFFFFFFF DUP3 GT ISZERO PUSH2 0x446 JUMPI PUSH2 0x445 PUSH2 0x3B0 JUMP JUMPDEST JUMPDEST PUSH2 0x44F DUP3 PUSH2 0x39F JUMP JUMPDEST SWAP1 POP PUSH1 0x20 DUP2 ADD SWAP1 POP SWAP2 SWAP1 POP JUMP JUMPDEST DUP3 DUP2 DUP4 CALLDATACOPY PUSH1 0x0 DUP4 DUP4 ADD MSTORE POP POP POP JUMP JUMPDEST PUSH1 0x0 PUSH2 0x47E PUSH2 0x479 DUP5 PUSH2 0x42B JUMP JUMPDEST PUSH2 0x410 JUMP JUMPDEST SWAP1 POP DUP3 DUP2 MSTORE PUSH1 0x20 DUP2 ADD DUP5 DUP5 DUP5 ADD GT ISZERO PUSH2 0x49A JUMPI PUSH2 0x499 PUSH2 0x39A JUMP JUMPDEST JUMPDEST PUSH2 0x4A5 DUP5 DUP3 DUP6 PUSH2 0x45C JUMP JUMPDEST POP SWAP4 SWAP3 POP POP POP JUMP JUMPDEST PUSH1 0x0 DUP3 PUSH1 0x1F DUP4 ADD SLT PUSH2 0x4C2 JUMPI PUSH2 0x4C1 PUSH2 0x395 JUMP JUMPDEST JUMPDEST DUP2 CALLDATALOAD PUSH2 0x4D2 DUP5 DUP3 PUSH1 0x20 DUP7 ADD PUSH2 0x46B JUMP JUMPDEST SWAP2 POP POP SWAP3 SWAP2 POP POP JUMP JUMPDEST PUSH1 0x0 PUSH1 0x20 DUP3 DUP5 SUB SLT ISZERO PUSH2 0x4F1 JUMPI PUSH2 0x4F0 PUSH2 0x38B JUMP JUMPDEST JUMPDEST PUSH1 0x0 DUP3 ADD CALLDATALOAD PUSH8 0xFFFFFFFFFFFFFFFF DUP2 GT ISZERO PUSH2 0x50F JUMPI PUSH2 0x50E PUSH2 0x390 JUMP JUMPDEST JUMPDEST PUSH2 0x51B DUP5 DUP3 DUP6 ADD PUSH2 0x4AD JUMP JUMPDEST SWAP2 POP POP SWAP3 SWAP2 POP POP JUMP JUMPDEST PUSH1 0x0 DUP2 SWAP1 POP SWAP2 SWAP1 POP JUMP JUMPDEST PUSH2 0x537 DUP2 PUSH2 0x524 JUMP JUMPDEST DUP3 MSTORE POP POP JUMP JUMPDEST PUSH1 0x0 PUSH1 0x20 DUP3 ADD SWAP1 POP PUSH2 0x552 PUSH1 0x0 DUP4 ADD DUP5 PUSH2 0x52E JUMP JUMPDEST SWAP3 SWAP2 POP POP JUMP JUMPDEST PUSH2 0x561 DUP2 PUSH2 0x524 JUMP JUMPDEST DUP2 EQ PUSH2 0x56C JUMPI PUSH1 0x0 DUP1 REVERT JUMPDEST POP JUMP JUMPDEST PUSH1 0x0 DUP2 CALLDATALOAD SWAP1 POP PUSH2 0x57E DUP2 PUSH2 0x558 JUMP JUMPDEST SWAP3 SWAP2 POP POP JUMP JUMPDEST PUSH1 0x0 DUP1 PUSH1 0x40 DUP4 DUP6 SUB SLT ISZERO PUSH2 0x59B JUMPI PUSH2 0x59A PUSH2 0x38B JUMP JUMPDEST JUMPDEST PUSH1 0x0 PUSH2 0x5A9 DUP6 DUP3 DUP7 ADD PUSH2 0x56F JUMP JUMPDEST SWAP3 POP POP PUSH1 0x20 DUP4 ADD CALLDATALOAD PUSH8 0xFFFFFFFFFFFFFFFF DUP2 GT ISZERO PUSH2 0x5CA JUMPI PUSH2 0x5C9 PUSH2 0x390 JUMP JUMPDEST JUMPDEST PUSH2 0x5D6 DUP6 DUP3 DUP7 ADD PUSH2 0x4AD JUMP JUMPDEST SWAP2 POP POP SWAP3 POP SWAP3 SWAP1 POP JUMP JUMPDEST PUSH1 0x0 PUSH1 0x20 DUP3 DUP5 SUB SLT ISZERO PUSH2 0x5F6 JUMPI PUSH2 0x5F5 PUSH2 0x38B JUMP JUMPDEST JUMPDEST PUSH1 0x0 PUSH2 0x604 DUP5 DUP3 DUP6 ADD PUSH2 0x56F JUMP JUMPDEST SWAP2 POP POP SWAP3 SWAP2 POP POP JUMP JUMPDEST PUSH1 0x0 DUP2 MLOAD SWAP1 POP SWAP2 SWAP1 POP JUMP JUMPDEST PUSH1 0x0 DUP3 DUP3 MSTORE PUSH1 0x20 DUP3 ADD SWAP1 POP SWAP3 SWAP2 POP POP JUMP JUMPDEST PUSH1 0x0 JUMPDEST DUP4 DUP2 LT ISZERO PUSH2 0x647 JUMPI DUP1 DUP3 ADD MLOAD DUP2 DUP5 ADD MSTORE PUSH1 0x20 DUP2 ADD SWAP1 POP PUSH2 0x62C JUMP JUMPDEST PUSH1 0x0 DUP5 DUP5 ADD MSTORE POP POP POP POP JUMP JUMPDEST PUSH1 0x0 PUSH2 0x65E DUP3 PUSH2 0x60D JUMP JUMPDEST PUSH2 0x668 DUP2 DUP6 PUSH2 0x618 JUMP JUMPDEST SWAP4 POP PUSH2 0x678 DUP2 DUP6 PUSH1 0x20 DUP7 ADD PUSH2 0x629 JUMP JUMPDEST PUSH2 0x681 DUP2 PUSH2 0x39F JUMP JUMPDEST DUP5 ADD SWAP2 POP POP SWAP3 SWAP2 POP POP JUMP JUMPDEST PUSH1 0x0 PUSH1 0x20 DUP3 ADD SWAP1 POP DUP2 DUP2 SUB PUSH1 0x0 DUP4 ADD MSTORE PUSH2 0x6A6 DUP2 DUP5 PUSH2 0x653 JUMP JUMPDEST SWAP1 POP SWAP3 SWAP2 POP POP JUMP JUMPDEST PUSH1 0x0 DUP2 MLOAD SWAP1 POP SWAP2 SWAP1 POP JUMP JUMPDEST PUSH1 0x0 DUP3 DUP3 MSTORE PUSH1 0x20 DUP3 ADD SWAP1 POP SWAP3 SWAP2 POP POP JUMP JUMPDEST PUSH1 0x0 DUP2 SWAP1 POP PUSH1 0x20 DUP3 ADD SWAP1 POP SWAP2 SWAP1 POP JUMP JUMPDEST PUSH1 0x0 DUP3 DUP3 MSTORE PUSH1 0x20 DUP3 ADD SWAP1 POP SWAP3 SWAP2 POP POP JUMP JUMPDEST PUSH1 0x0 PUSH2 0x6F6 DUP3 PUSH2 0x60D JUMP JUMPDEST PUSH2 0x700 DUP2 DUP6 PUSH2 0x6DA JUMP JUMPDEST SWAP4 POP PUSH2 0x710 DUP2 DUP6 PUSH1 0x20 DUP7 ADD PUSH2 0x629 JUMP JUMPDEST PUSH2 0x719 DUP2 PUSH2 0x39F JUMP JUMPDEST DUP5 ADD SWAP2 POP POP SWAP3 SWAP2 POP POP JUMP JUMPDEST PUSH1 0x0 PUSH2 0x730 DUP4 DUP4 PUSH2 0x6EB JUMP JUMPDEST SWAP1 POP SWAP3 SWAP2 POP POP JUMP JUMPDEST PUSH1 0x0 PUSH1 0x20 DUP3 ADD SWAP1 POP SWAP2 SWAP1 POP JUMP JUMPDEST PUSH1 0x0 PUSH2 0x750 DUP3 PUSH2 0x6AE JUMP JUMPDEST PUSH2 0x75A DUP2 DUP6 PUSH2 0x6B9 JUMP JUMPDEST SWAP4 POP DUP4 PUSH1 0x20 DUP3 MUL DUP6 ADD PUSH2 0x76C DUP6 PUSH2 0x6CA JUMP JUMPDEST DUP1 PUSH1 0x0 JUMPDEST DUP6 DUP2 LT ISZERO PUSH2 0x7A8 JUMPI DUP5 DUP5 SUB DUP10 MSTORE DUP2 MLOAD PUSH2 0x789 DUP6 DUP3 PUSH2 0x724 JUMP JUMPDEST SWAP5 POP PUSH2 0x794 DUP4 PUSH2 0x738 JUMP JUMPDEST SWAP3 POP PUSH1 0x20 DUP11 ADD SWAP10 POP POP PUSH1 0x1 DUP2 ADD SWAP1 POP PUSH2 0x770 JUMP JUMPDEST POP DUP3 SWAP8 POP DUP8 SWAP6 POP POP POP POP POP POP SWAP3 SWAP2 POP POP JUMP JUMPDEST PUSH1 0x0 PUSH1 0x20 DUP3 ADD SWAP1 POP DUP2 DUP2 SUB PUSH1 0x0 DUP4 ADD MSTORE PUSH2 0x7D4 DUP2 DUP5 PUSH2 0x745 JUMP JUMPDEST SWAP1 POP SWAP3 SWAP2 POP POP JUMP JUMPDEST PUSH32 0x4E487B7100000000000000000000000000000000000000000000000000000000 PUSH1 0x0 MSTORE PUSH1 0x22 PUSH1 0x4 MSTORE PUSH1 0x24 PUSH1 0x0 REVERT JUMPDEST PUSH1 0x0 PUSH1 0x2 DUP3 DIV SWAP1 POP PUSH1 0x1 DUP3 AND DUP1 PUSH2 0x823 JUMPI PUSH1 0x7F DUP3 AND SWAP2 POP JUMPDEST PUSH1 0x20 DUP3 LT DUP2 SUB PUSH2 0x836 JUMPI PUSH2 0x835 PUSH2 0x7DC JUMP JUMPDEST JUMPDEST POP SWAP2 SWAP1 POP JUMP JUMPDEST PUSH1 0x0 DUP2 SWAP1 POP DUP2 PUSH1 0x0 MSTORE PUSH1 0x20 PUSH1 0x0 KECCAK256 SWAP1 POP SWAP2 SWAP1 POP JUMP JUMPDEST PUSH1 0x0 PUSH1 0x20 PUSH1 0x1F DUP4 ADD DIV SWAP1 POP SWAP2 SWAP1 POP JUMP JUMPDEST PUSH1 0x0 DUP3 DUP3 SHL SWAP1 POP SWAP3 SWAP2 POP POP JUMP JUMPDEST PUSH1 0x0 PUSH1 0x8 DUP4 MUL PUSH2 0x89E PUSH32 0xFFFFFFFFFFFFFFFFFFFFFFFFFFFFFFFFFFFFFFFFFFFFFFFFFFFFFFFFFFFFFFFF DUP3 PUSH2 0x861 JUMP JUMPDEST PUSH2 0x8A8 DUP7 DUP4 PUSH2 0x861 JUMP JUMPDEST SWAP6 POP DUP1 NOT DUP5 AND SWAP4 POP DUP1 DUP7 AND DUP5 OR SWAP3 POP POP POP SWAP4 SWAP3 POP POP POP JUMP JUMPDEST PUSH1 0x0 DUP2 SWAP1 POP SWAP2 SWAP1 POP JUMP JUMPDEST PUSH1 0x0 PUSH2 0x8E5 PUSH2 0x8E0 PUSH2 0x8DB DUP5 PUSH2 0x524 JUMP JUMPDEST PUSH2 0x8C0 JUMP JUMPDEST PUSH2 0x524 JUMP JUMPDEST SWAP1 POP SWAP2 SWAP1 POP JUMP JUMPDEST PUSH1 0x0 DUP2 SWAP1 POP SWAP2 SWAP1 POP JUMP JUMPDEST PUSH2 0x8FF DUP4 PUSH2 0x8CA JUMP JUMPDEST PUSH2 0x913 PUSH2 0x90B DUP3 PUSH2 0x8EC JUMP JUMPDEST DUP5 DUP5 SLOAD PUSH2 0x86E JUMP JUMPDEST DUP3 SSTORE POP POP POP POP JUMP JUMPDEST PUSH1 0x0 SWAP1 JUMP JUMPDEST PUSH2 0x928 PUSH2 0x91B JUMP JUMPDEST PUSH2 0x933 DUP2 DUP5 DUP5 PUSH2 0x8F6 JUMP JUMPDEST POP POP POP JUMP JUMPDEST JUMPDEST DUP2 DUP2 LT ISZERO PUSH2 0x957 JUMPI PUSH2 0x94C PUSH1 0x0 DUP3 PUSH2 0x920 JUMP JUMPDEST PUSH1 0x1 DUP2 ADD SWAP1 POP PUSH2 0x939 JUMP JUMPDEST POP POP JUMP JUMPDEST PUSH1 0x1F DUP3 GT ISZERO PUSH2 0x99C JUMPI PUSH2 0x96D DUP2 PUSH2 0x83C JUMP JUMPDEST PUSH2 0x976 DUP5 PUSH2 0x851 JUMP JUMPDEST DUP2 ADD PUSH1 0x20 DUP6 LT ISZERO PUSH2 0x985 JUMPI DUP2 SWAP1 POP JUMPDEST PUSH2 0x999 PUSH2 0x991 DUP6 PUSH2 0x851 JUMP JUMPDEST DUP4 ADD DUP3 PUSH2 0x938 JUMP JUMPDEST POP POP JUMPDEST POP POP POP JUMP JUMPDEST PUSH1 0x0 DUP3 DUP3 SHR SWAP1 POP SWAP3 SWAP2 POP POP JUMP JUMPDEST PUSH1 0x0 PUSH2 0x9BF PUSH1 0x0 NOT DUP5 PUSH1 0x8 MUL PUSH2 0x9A1 JUMP JUMPDEST NOT DUP1 DUP4 AND SWAP2 POP POP SWAP3 SWAP2 POP POP JUMP JUMPDEST PUSH1 0x0 PUSH2 0x9D8 DUP4 DUP4 PUSH2 0x9AE JUMP JUMPDEST SWAP2 POP DUP3 PUSH1 0x2 MUL DUP3 OR SWAP1 POP SWAP3 SWAP2 POP POP JUMP JUMPDEST PUSH2 0x9F1 DUP3 PUSH2 0x60D JUMP JUMPDEST PUSH8 0xFFFFFFFFFFFFFFFF DUP2 GT ISZERO PUSH2 0xA0A JUMPI PUSH2 0xA09 PUSH2 0x3B0 JUMP JUMPDEST JUMPDEST PUSH2 0xA14 DUP3 SLOAD PUSH2 0x80B JUMP JUMPDEST PUSH2 0xA1F DUP3 DUP3 DUP6 PUSH2 0x95B JUMP JUMPDEST PUSH1 0x0 PUSH1 0x20 SWAP1 POP PUSH1 0x1F DUP4 GT PUSH1 0x1 DUP2 EQ PUSH2 0xA52 JUMPI PUSH1 0x0 DUP5 ISZERO PUSH2 0xA40 JUMPI DUP3 DUP8 ADD MLOAD SWAP1 POP JUMPDEST PUSH2 0xA4A DUP6 DUP3 PUSH2 0x9CC JUMP JUMPDEST DUP7 SSTORE POP PUSH2 0xAB2 JUMP JUMPDEST PUSH1 0x1F NOT DUP5 AND PUSH2 0xA60 DUP7 PUSH2 0x83C JUMP JUMPDEST PUSH1 0x0 JUMPDEST DUP3 DUP2 LT ISZERO PUSH2 0xA88 JUMPI DUP5 DUP10 ADD MLOAD DUP3 SSTORE PUSH1 0x1 DUP3 ADD SWAP2 POP PUSH1 0x20 DUP6 ADD SWAP5 POP PUSH1 0x20 DUP2 ADD SWAP1 POP PUSH2 0xA63 JUMP JUMPDEST DUP7 DUP4 LT ISZERO PUSH2 0xAA5 JUMPI DUP5 DUP10 ADD MLOAD PUSH2 0xAA1 PUSH1 0x1F DUP10 AND DUP3 PUSH2 0x9AE JUMP JUMPDEST DUP4 SSTORE POP JUMPDEST PUSH1 0x1 PUSH1 0x2 DUP9 MUL ADD DUP9 SSTORE POP POP POP JUMPDEST POP POP POP POP POP POP JUMP JUMPDEST PUSH32 0x4E487B7100000000000000000000000000000000000000000000000000000000 PUSH1 0x0 MSTORE PUSH1 0x11 PUSH1 0x4 MSTORE PUSH1 0x24 PUSH1 0x0 REVERT JUMPDEST PUSH1 0x0 PUSH2 0xAF4 DUP3 PUSH2 0x524 JUMP JUMPDEST SWAP2 POP PUSH2 0xAFF DUP4 PUSH2 0x524 JUMP JUMPDEST SWAP3 POP DUP3 DUP3 SUB SWAP1 POP DUP2 DUP2 GT ISZERO PUSH2 0xB17 JUMPI PUSH2 0xB16 PUSH2 0xABA JUMP JUMPDEST JUMPDEST SWAP3 SWAP2 POP POP JUMP JUMPDEST PUSH32 0x696E76616C696420696E64657800000000000000000000000000000000000000 PUSH1 0x0 DUP3 ADD MSTORE POP JUMP JUMPDEST PUSH1 0x0 PUSH2 0xB53 PUSH1 0xD DUP4 PUSH2 0x618 JUMP JUMPDEST SWAP2 POP PUSH2 0xB5E DUP3 PUSH2 0xB1D JUMP JUMPDEST PUSH1 0x20 DUP3 ADD SWAP1 POP SWAP2 SWAP1 POP JUMP JUMPDEST PUSH1 0x0 PUSH1 0x20 DUP3 ADD SWAP1 POP DUP2 DUP2 SUB PUSH1 0x0 DUP4 ADD MSTORE PUSH2 0xB82 DUP2 PUSH2 0xB46 JUMP JUMPDEST SWAP1 POP SWAP2 SWAP1 POP JUMP JUMPDEST PUSH32 0x4E487B7100000000000000000000000000000000000000000000000000000000 PUSH1 0x0 MSTORE PUSH1 0x32 PUSH1 0x4 MSTORE PUSH1 0x24 PUSH1 0x0 REVERT INVALID LOG2 PUSH5 0x6970667358 0x22 SLT KECCAK256 0x1F PUSH12 0x8009C29BEBCA522A7FC3B4C7 0xAF PUSH30 0xBD891BB784B1EEEAE8186C8748B6D4F64736F6C63430008130033000000 "
				},
				"gasEstimates": {
					"creation": {
						"codeDepositCost": "610800",
						"executionCost": "645",
						"totalCost": "611445"
					},
					"external": {
						"addInfo(string)": "infinite",
						"getOneInfo(uint256)": "infinite",
						"listAllInfo()": "infinite",
						"updateInfo(uint256,string)": "infinite"
					}
				},
				"methodIdentifiers": {
					"addInfo(string)": "0bf803e4",
					"getOneInfo(uint256)": "94b1a5bc",
					"listAllInfo()": "edc2784e",
					"updateInfo(uint256,string)": "50c00197"
				}
			},
			"storageLayout": {
				"storage": [
					{
						"astId": 5,
						"contract": "ETH_KIPU/Register09.sol:Register09",
						"label": "storedInfos",
						"offset": 0,
						"slot": "0",
						"type": "t_array(t_string_storage)dyn_storage"
					}
				],
				"types": {
					"t_array(t_string_storage)dyn_storage": {
						"base": "t_string_storage",
						"encoding": "dynamic_array",
						"label": "string[]",
						"numberOfBytes": "32"
					},
					"t_string_storage": {
						"encoding": "bytes",
						"label": "string",
						"numberOfBytes": "32"
					}
				}
			},
			"userdoc": {
				"kind": "user",
				"methods": {
					"addInfo(string)": {
						"notice": "Store `myInfo` at the end of the string array"
					},
					"getOneInfo(uint256)": {
						"notice": "Return a stored string"
					},
					"listAllInfo()": {
						"notice": "Return all the strings stored in the array"
					},
					"updateInfo(uint256,string)": {
						"notice": "Update `newInfo` in some index of the string array"
					}
				},
				"version": 1
			}
		}
	}
}