{
	"ETH_KIPU/Register04.sol": {
		"Register04": {
			"abi": [
				{
					"inputs": [],
					"stateMutability": "nonpayable",
					"type": "constructor"
				},
				{
					"inputs": [],
					"name": "getInfo",
					"outputs": [
						{
							"internalType": "string",
							"name": "",
							"type": "string"
						}
					],
					"stateMutability": "view",
					"type": "function"
				},
				{
					"inputs": [],
					"name": "owner",
					"outputs": [
						{
							"internalType": "address",
							"name": "",
							"type": "address"
						}
					],
					"stateMutability": "view",
					"type": "function"
				},
				{
					"inputs": [
						{
							"internalType": "string",
							"name": "myInfo",
							"type": "string"
						}
					],
					"name": "setInfo",
					"outputs": [],
					"stateMutability": "nonpayable",
					"type": "function"
				}
			],
			"devdoc": {
				"author": "Solange Gueiros",
				"kind": "dev",
				"methods": {
					"getInfo()": {
						"details": "retrieves the string of the state variable `storedInfo`",
						"returns": {
							"_0": "the stored string"
						}
					},
					"setInfo(string)": {
						"details": "check if msg.sender is the owner, update `storedInfo` and increase the counter",
						"params": {
							"myInfo": "the new string to store"
						}
					}
				},
				"title": "Concepts: Type address, msg.sender, owner, if",
				"version": 1
			},
			"evm": {
				"assembly": "    /* \"ETH_KIPU/Register04.sol\":142:1345  contract Register04 {... */\n  mstore(0x40, 0x80)\n    /* \"ETH_KIPU/Register04.sol\":439:541  constructor() {... */\n  callvalue\n  dup1\n  iszero\n  tag_1\n  jumpi\n  0x00\n  dup1\n  revert\ntag_1:\n  pop\n    /* \"ETH_KIPU/Register04.sol\":471:481  msg.sender */\n  caller\n    /* \"ETH_KIPU/Register04.sol\":463:468  owner */\n  0x01\n  0x00\n    /* \"ETH_KIPU/Register04.sol\":463:481  owner = msg.sender */\n  0x0100\n  exp\n  dup2\n  sload\n  dup2\n  0xffffffffffffffffffffffffffffffffffffffff\n  mul\n  not\n  and\n  swap1\n  dup4\n  0xffffffffffffffffffffffffffffffffffffffff\n  and\n  mul\n  or\n  swap1\n  sstore\n  pop\n    /* \"ETH_KIPU/Register04.sol\":142:1345  contract Register04 {... */\n  dataSize(sub_0)\n  dup1\n  dataOffset(sub_0)\n  0x00\n  codecopy\n  0x00\n  return\nstop\n\nsub_0: assembly {\n        /* \"ETH_KIPU/Register04.sol\":142:1345  contract Register04 {... */\n      mstore(0x40, 0x80)\n      callvalue\n      dup1\n      iszero\n      tag_1\n      jumpi\n      0x00\n      dup1\n      revert\n    tag_1:\n      pop\n      jumpi(tag_2, lt(calldatasize, 0x04))\n      shr(0xe0, calldataload(0x00))\n      dup1\n      0x5a9b0b89\n      eq\n      tag_3\n      jumpi\n      dup1\n      0x8da5cb5b\n      eq\n      tag_4\n      jumpi\n      dup1\n      0x937f6e77\n      eq\n      tag_5\n      jumpi\n    tag_2:\n      0x00\n      dup1\n      revert\n        /* \"ETH_KIPU/Register04.sol\":1252:1343  function getInfo() external view returns (string memory) {... */\n    tag_3:\n      tag_6\n      tag_7\n      jump\t// in\n    tag_6:\n      mload(0x40)\n      tag_8\n      swap2\n      swap1\n      tag_9\n      jump\t// in\n    tag_8:\n      mload(0x40)\n      dup1\n      swap2\n      sub\n      swap1\n      return\n        /* \"ETH_KIPU/Register04.sol\":284:304  address public owner */\n    tag_4:\n      tag_10\n      tag_11\n      jump\t// in\n    tag_10:\n      mload(0x40)\n      tag_12\n      swap2\n      swap1\n      tag_13\n      jump\t// in\n    tag_12:\n      mload(0x40)\n      dup1\n      swap2\n      sub\n      swap1\n      return\n        /* \"ETH_KIPU/Register04.sol\":905:1097  function setInfo(string memory myInfo) external {... */\n    tag_5:\n      tag_14\n      0x04\n      dup1\n      calldatasize\n      sub\n      dup2\n      add\n      swap1\n      tag_15\n      swap2\n      swap1\n      tag_16\n      jump\t// in\n    tag_15:\n      tag_17\n      jump\t// in\n    tag_14:\n      stop\n        /* \"ETH_KIPU/Register04.sol\":1252:1343  function getInfo() external view returns (string memory) {... */\n    tag_7:\n        /* \"ETH_KIPU/Register04.sol\":1294:1307  string memory */\n      0x60\n        /* \"ETH_KIPU/Register04.sol\":1326:1336  storedInfo */\n      0x00\n        /* \"ETH_KIPU/Register04.sol\":1319:1336  return storedInfo */\n      dup1\n      sload\n      tag_19\n      swap1\n      tag_20\n      jump\t// in\n    tag_19:\n      dup1\n      0x1f\n      add\n      0x20\n      dup1\n      swap2\n      div\n      mul\n      0x20\n      add\n      mload(0x40)\n      swap1\n      dup2\n      add\n      0x40\n      mstore\n      dup1\n      swap3\n      swap2\n      swap1\n      dup2\n      dup2\n      mstore\n      0x20\n      add\n      dup3\n      dup1\n      sload\n      tag_21\n      swap1\n      tag_20\n      jump\t// in\n    tag_21:\n      dup1\n      iszero\n      tag_22\n      jumpi\n      dup1\n      0x1f\n      lt\n      tag_23\n      jumpi\n      0x0100\n      dup1\n      dup4\n      sload\n      div\n      mul\n      dup4\n      mstore\n      swap2\n      0x20\n      add\n      swap2\n      jump(tag_22)\n    tag_23:\n      dup3\n      add\n      swap2\n      swap1\n      0x00\n      mstore\n      keccak256(0x00, 0x20)\n      swap1\n    tag_24:\n      dup2\n      sload\n      dup2\n      mstore\n      swap1\n      0x01\n      add\n      swap1\n      0x20\n      add\n      dup1\n      dup4\n      gt\n      tag_24\n      jumpi\n      dup3\n      swap1\n      sub\n      0x1f\n      and\n      dup3\n      add\n      swap2\n    tag_22:\n      pop\n      pop\n      pop\n      pop\n      pop\n      swap1\n      pop\n        /* \"ETH_KIPU/Register04.sol\":1252:1343  function getInfo() external view returns (string memory) {... */\n      swap1\n      jump\t// out\n        /* \"ETH_KIPU/Register04.sol\":284:304  address public owner */\n    tag_11:\n      0x01\n      0x00\n      swap1\n      sload\n      swap1\n      0x0100\n      exp\n      swap1\n      div\n      0xffffffffffffffffffffffffffffffffffffffff\n      and\n      dup2\n      jump\t// out\n        /* \"ETH_KIPU/Register04.sol\":905:1097  function setInfo(string memory myInfo) external {... */\n    tag_17:\n        /* \"ETH_KIPU/Register04.sol\":981:986  owner */\n      0x01\n      0x00\n      swap1\n      sload\n      swap1\n      0x0100\n      exp\n      swap1\n      div\n      0xffffffffffffffffffffffffffffffffffffffff\n      and\n        /* \"ETH_KIPU/Register04.sol\":967:986  msg.sender == owner */\n      0xffffffffffffffffffffffffffffffffffffffff\n      and\n        /* \"ETH_KIPU/Register04.sol\":967:977  msg.sender */\n      caller\n        /* \"ETH_KIPU/Register04.sol\":967:986  msg.sender == owner */\n      0xffffffffffffffffffffffffffffffffffffffff\n      and\n      sub\n        /* \"ETH_KIPU/Register04.sol\":963:1091  if (msg.sender == owner) {... */\n      tag_26\n      jumpi\n        /* \"ETH_KIPU/Register04.sol\":1015:1021  myInfo */\n      dup1\n        /* \"ETH_KIPU/Register04.sol\":1002:1012  storedInfo */\n      0x00\n        /* \"ETH_KIPU/Register04.sol\":1002:1021  storedInfo = myInfo */\n      swap1\n      dup2\n      tag_27\n      swap2\n      swap1\n      tag_28\n      jump\t// in\n    tag_27:\n      pop\n        /* \"ETH_KIPU/Register04.sol\":963:1091  if (msg.sender == owner) {... */\n      jump(tag_29)\n    tag_26:\n        /* \"ETH_KIPU/Register04.sol\":1052:1080  storedInfo = \"No autorizado\" */\n      mload(0x40)\n      dup1\n      0x40\n      add\n      0x40\n      mstore\n      dup1\n      0x0d\n      dup2\n      mstore\n      0x20\n      add\n      0x4e6f206175746f72697a61646f00000000000000000000000000000000000000\n      dup2\n      mstore\n      pop\n        /* \"ETH_KIPU/Register04.sol\":1052:1062  storedInfo */\n      0x00\n        /* \"ETH_KIPU/Register04.sol\":1052:1080  storedInfo = \"No autorizado\" */\n      swap1\n      dup2\n      tag_30\n      swap2\n      swap1\n      tag_28\n      jump\t// in\n    tag_30:\n      pop\n        /* \"ETH_KIPU/Register04.sol\":963:1091  if (msg.sender == owner) {... */\n    tag_29:\n        /* \"ETH_KIPU/Register04.sol\":905:1097  function setInfo(string memory myInfo) external {... */\n      pop\n      jump\t// out\n        /* \"#utility.yul\":7:106   */\n    tag_31:\n        /* \"#utility.yul\":59:65   */\n      0x00\n        /* \"#utility.yul\":93:98   */\n      dup2\n        /* \"#utility.yul\":87:99   */\n      mload\n        /* \"#utility.yul\":77:99   */\n      swap1\n      pop\n        /* \"#utility.yul\":7:106   */\n      swap2\n      swap1\n      pop\n      jump\t// out\n        /* \"#utility.yul\":112:281   */\n    tag_32:\n        /* \"#utility.yul\":196:207   */\n      0x00\n        /* \"#utility.yul\":230:236   */\n      dup3\n        /* \"#utility.yul\":225:228   */\n      dup3\n        /* \"#utility.yul\":218:237   */\n      mstore\n        /* \"#utility.yul\":270:274   */\n      0x20\n        /* \"#utility.yul\":265:268   */\n      dup3\n        /* \"#utility.yul\":261:275   */\n      add\n        /* \"#utility.yul\":246:275   */\n      swap1\n      pop\n        /* \"#utility.yul\":112:281   */\n      swap3\n      swap2\n      pop\n      pop\n      jump\t// out\n        /* \"#utility.yul\":287:533   */\n    tag_33:\n        /* \"#utility.yul\":368:369   */\n      0x00\n        /* \"#utility.yul\":378:491   */\n    tag_72:\n        /* \"#utility.yul\":392:398   */\n      dup4\n        /* \"#utility.yul\":389:390   */\n      dup2\n        /* \"#utility.yul\":386:399   */\n      lt\n        /* \"#utility.yul\":378:491   */\n      iszero\n      tag_74\n      jumpi\n        /* \"#utility.yul\":477:478   */\n      dup1\n        /* \"#utility.yul\":472:475   */\n      dup3\n        /* \"#utility.yul\":468:479   */\n      add\n        /* \"#utility.yul\":462:480   */\n      mload\n        /* \"#utility.yul\":458:459   */\n      dup2\n        /* \"#utility.yul\":453:456   */\n      dup5\n        /* \"#utility.yul\":449:460   */\n      add\n        /* \"#utility.yul\":442:481   */\n      mstore\n        /* \"#utility.yul\":414:416   */\n      0x20\n        /* \"#utility.yul\":411:412   */\n      dup2\n        /* \"#utility.yul\":407:417   */\n      add\n        /* \"#utility.yul\":402:417   */\n      swap1\n      pop\n        /* \"#utility.yul\":378:491   */\n      jump(tag_72)\n    tag_74:\n        /* \"#utility.yul\":525:526   */\n      0x00\n        /* \"#utility.yul\":516:522   */\n      dup5\n        /* \"#utility.yul\":511:514   */\n      dup5\n        /* \"#utility.yul\":507:523   */\n      add\n        /* \"#utility.yul\":500:527   */\n      mstore\n        /* \"#utility.yul\":349:533   */\n      pop\n        /* \"#utility.yul\":287:533   */\n      pop\n      pop\n      pop\n      jump\t// out\n        /* \"#utility.yul\":539:641   */\n    tag_34:\n        /* \"#utility.yul\":580:586   */\n      0x00\n        /* \"#utility.yul\":631:633   */\n      0x1f\n        /* \"#utility.yul\":627:634   */\n      not\n        /* \"#utility.yul\":622:624   */\n      0x1f\n        /* \"#utility.yul\":615:620   */\n      dup4\n        /* \"#utility.yul\":611:625   */\n      add\n        /* \"#utility.yul\":607:635   */\n      and\n        /* \"#utility.yul\":597:635   */\n      swap1\n      pop\n        /* \"#utility.yul\":539:641   */\n      swap2\n      swap1\n      pop\n      jump\t// out\n        /* \"#utility.yul\":647:1024   */\n    tag_35:\n        /* \"#utility.yul\":735:738   */\n      0x00\n        /* \"#utility.yul\":763:802   */\n      tag_77\n        /* \"#utility.yul\":796:801   */\n      dup3\n        /* \"#utility.yul\":763:802   */\n      tag_31\n      jump\t// in\n    tag_77:\n        /* \"#utility.yul\":818:889   */\n      tag_78\n        /* \"#utility.yul\":882:888   */\n      dup2\n        /* \"#utility.yul\":877:880   */\n      dup6\n        /* \"#utility.yul\":818:889   */\n      tag_32\n      jump\t// in\n    tag_78:\n        /* \"#utility.yul\":811:889   */\n      swap4\n      pop\n        /* \"#utility.yul\":898:963   */\n      tag_79\n        /* \"#utility.yul\":956:962   */\n      dup2\n        /* \"#utility.yul\":951:954   */\n      dup6\n        /* \"#utility.yul\":944:948   */\n      0x20\n        /* \"#utility.yul\":937:942   */\n      dup7\n        /* \"#utility.yul\":933:949   */\n      add\n        /* \"#utility.yul\":898:963   */\n      tag_33\n      jump\t// in\n    tag_79:\n        /* \"#utility.yul\":988:1017   */\n      tag_80\n        /* \"#utility.yul\":1010:1016   */\n      dup2\n        /* \"#utility.yul\":988:1017   */\n      tag_34\n      jump\t// in\n    tag_80:\n        /* \"#utility.yul\":983:986   */\n      dup5\n        /* \"#utility.yul\":979:1018   */\n      add\n        /* \"#utility.yul\":972:1018   */\n      swap2\n      pop\n        /* \"#utility.yul\":739:1024   */\n      pop\n        /* \"#utility.yul\":647:1024   */\n      swap3\n      swap2\n      pop\n      pop\n      jump\t// out\n        /* \"#utility.yul\":1030:1343   */\n    tag_9:\n        /* \"#utility.yul\":1143:1147   */\n      0x00\n        /* \"#utility.yul\":1181:1183   */\n      0x20\n        /* \"#utility.yul\":1170:1179   */\n      dup3\n        /* \"#utility.yul\":1166:1184   */\n      add\n        /* \"#utility.yul\":1158:1184   */\n      swap1\n      pop\n        /* \"#utility.yul\":1230:1239   */\n      dup2\n        /* \"#utility.yul\":1224:1228   */\n      dup2\n        /* \"#utility.yul\":1220:1240   */\n      sub\n        /* \"#utility.yul\":1216:1217   */\n      0x00\n        /* \"#utility.yul\":1205:1214   */\n      dup4\n        /* \"#utility.yul\":1201:1218   */\n      add\n        /* \"#utility.yul\":1194:1241   */\n      mstore\n        /* \"#utility.yul\":1258:1336   */\n      tag_82\n        /* \"#utility.yul\":1331:1335   */\n      dup2\n        /* \"#utility.yul\":1322:1328   */\n      dup5\n        /* \"#utility.yul\":1258:1336   */\n      tag_35\n      jump\t// in\n    tag_82:\n        /* \"#utility.yul\":1250:1336   */\n      swap1\n      pop\n        /* \"#utility.yul\":1030:1343   */\n      swap3\n      swap2\n      pop\n      pop\n      jump\t// out\n        /* \"#utility.yul\":1349:1475   */\n    tag_36:\n        /* \"#utility.yul\":1386:1393   */\n      0x00\n        /* \"#utility.yul\":1426:1468   */\n      0xffffffffffffffffffffffffffffffffffffffff\n        /* \"#utility.yul\":1419:1424   */\n      dup3\n        /* \"#utility.yul\":1415:1469   */\n      and\n        /* \"#utility.yul\":1404:1469   */\n      swap1\n      pop\n        /* \"#utility.yul\":1349:1475   */\n      swap2\n      swap1\n      pop\n      jump\t// out\n        /* \"#utility.yul\":1481:1577   */\n    tag_37:\n        /* \"#utility.yul\":1518:1525   */\n      0x00\n        /* \"#utility.yul\":1547:1571   */\n      tag_85\n        /* \"#utility.yul\":1565:1570   */\n      dup3\n        /* \"#utility.yul\":1547:1571   */\n      tag_36\n      jump\t// in\n    tag_85:\n        /* \"#utility.yul\":1536:1571   */\n      swap1\n      pop\n        /* \"#utility.yul\":1481:1577   */\n      swap2\n      swap1\n      pop\n      jump\t// out\n        /* \"#utility.yul\":1583:1701   */\n    tag_38:\n        /* \"#utility.yul\":1670:1694   */\n      tag_87\n        /* \"#utility.yul\":1688:1693   */\n      dup2\n        /* \"#utility.yul\":1670:1694   */\n      tag_37\n      jump\t// in\n    tag_87:\n        /* \"#utility.yul\":1665:1668   */\n      dup3\n        /* \"#utility.yul\":1658:1695   */\n      mstore\n        /* \"#utility.yul\":1583:1701   */\n      pop\n      pop\n      jump\t// out\n        /* \"#utility.yul\":1707:1929   */\n    tag_13:\n        /* \"#utility.yul\":1800:1804   */\n      0x00\n        /* \"#utility.yul\":1838:1840   */\n      0x20\n        /* \"#utility.yul\":1827:1836   */\n      dup3\n        /* \"#utility.yul\":1823:1841   */\n      add\n        /* \"#utility.yul\":1815:1841   */\n      swap1\n      pop\n        /* \"#utility.yul\":1851:1922   */\n      tag_89\n        /* \"#utility.yul\":1919:1920   */\n      0x00\n        /* \"#utility.yul\":1908:1917   */\n      dup4\n        /* \"#utility.yul\":1904:1921   */\n      add\n        /* \"#utility.yul\":1895:1901   */\n      dup5\n        /* \"#utility.yul\":1851:1922   */\n      tag_38\n      jump\t// in\n    tag_89:\n        /* \"#utility.yul\":1707:1929   */\n      swap3\n      swap2\n      pop\n      pop\n      jump\t// out\n        /* \"#utility.yul\":1935:2010   */\n    tag_39:\n        /* \"#utility.yul\":1968:1974   */\n      0x00\n        /* \"#utility.yul\":2001:2003   */\n      0x40\n        /* \"#utility.yul\":1995:2004   */\n      mload\n        /* \"#utility.yul\":1985:2004   */\n      swap1\n      pop\n        /* \"#utility.yul\":1935:2010   */\n      swap1\n      jump\t// out\n        /* \"#utility.yul\":2016:2133   */\n    tag_40:\n        /* \"#utility.yul\":2125:2126   */\n      0x00\n        /* \"#utility.yul\":2122:2123   */\n      dup1\n        /* \"#utility.yul\":2115:2127   */\n      revert\n        /* \"#utility.yul\":2139:2256   */\n    tag_41:\n        /* \"#utility.yul\":2248:2249   */\n      0x00\n        /* \"#utility.yul\":2245:2246   */\n      dup1\n        /* \"#utility.yul\":2238:2250   */\n      revert\n        /* \"#utility.yul\":2262:2379   */\n    tag_42:\n        /* \"#utility.yul\":2371:2372   */\n      0x00\n        /* \"#utility.yul\":2368:2369   */\n      dup1\n        /* \"#utility.yul\":2361:2373   */\n      revert\n        /* \"#utility.yul\":2385:2502   */\n    tag_43:\n        /* \"#utility.yul\":2494:2495   */\n      0x00\n        /* \"#utility.yul\":2491:2492   */\n      dup1\n        /* \"#utility.yul\":2484:2496   */\n      revert\n        /* \"#utility.yul\":2508:2688   */\n    tag_44:\n        /* \"#utility.yul\":2556:2633   */\n      0x4e487b7100000000000000000000000000000000000000000000000000000000\n        /* \"#utility.yul\":2553:2554   */\n      0x00\n        /* \"#utility.yul\":2546:2634   */\n      mstore\n        /* \"#utility.yul\":2653:2657   */\n      0x41\n        /* \"#utility.yul\":2650:2651   */\n      0x04\n        /* \"#utility.yul\":2643:2658   */\n      mstore\n        /* \"#utility.yul\":2677:2681   */\n      0x24\n        /* \"#utility.yul\":2674:2675   */\n      0x00\n        /* \"#utility.yul\":2667:2682   */\n      revert\n        /* \"#utility.yul\":2694:2975   */\n    tag_45:\n        /* \"#utility.yul\":2777:2804   */\n      tag_97\n        /* \"#utility.yul\":2799:2803   */\n      dup3\n        /* \"#utility.yul\":2777:2804   */\n      tag_34\n      jump\t// in\n    tag_97:\n        /* \"#utility.yul\":2769:2775   */\n      dup2\n        /* \"#utility.yul\":2765:2805   */\n      add\n        /* \"#utility.yul\":2907:2913   */\n      dup2\n        /* \"#utility.yul\":2895:2905   */\n      dup2\n        /* \"#utility.yul\":2892:2914   */\n      lt\n        /* \"#utility.yul\":2871:2889   */\n      0xffffffffffffffff\n        /* \"#utility.yul\":2859:2869   */\n      dup3\n        /* \"#utility.yul\":2856:2890   */\n      gt\n        /* \"#utility.yul\":2853:2915   */\n      or\n        /* \"#utility.yul\":2850:2938   */\n      iszero\n      tag_98\n      jumpi\n        /* \"#utility.yul\":2918:2936   */\n      tag_99\n      tag_44\n      jump\t// in\n    tag_99:\n        /* \"#utility.yul\":2850:2938   */\n    tag_98:\n        /* \"#utility.yul\":2958:2968   */\n      dup1\n        /* \"#utility.yul\":2954:2956   */\n      0x40\n        /* \"#utility.yul\":2947:2969   */\n      mstore\n        /* \"#utility.yul\":2737:2975   */\n      pop\n        /* \"#utility.yul\":2694:2975   */\n      pop\n      pop\n      jump\t// out\n        /* \"#utility.yul\":2981:3110   */\n    tag_46:\n        /* \"#utility.yul\":3015:3021   */\n      0x00\n        /* \"#utility.yul\":3042:3062   */\n      tag_101\n      tag_39\n      jump\t// in\n    tag_101:\n        /* \"#utility.yul\":3032:3062   */\n      swap1\n      pop\n        /* \"#utility.yul\":3071:3104   */\n      tag_102\n        /* \"#utility.yul\":3099:3103   */\n      dup3\n        /* \"#utility.yul\":3091:3097   */\n      dup3\n        /* \"#utility.yul\":3071:3104   */\n      tag_45\n      jump\t// in\n    tag_102:\n        /* \"#utility.yul\":2981:3110   */\n      swap2\n      swap1\n      pop\n      jump\t// out\n        /* \"#utility.yul\":3116:3424   */\n    tag_47:\n        /* \"#utility.yul\":3178:3182   */\n      0x00\n        /* \"#utility.yul\":3268:3286   */\n      0xffffffffffffffff\n        /* \"#utility.yul\":3260:3266   */\n      dup3\n        /* \"#utility.yul\":3257:3287   */\n      gt\n        /* \"#utility.yul\":3254:3310   */\n      iszero\n      tag_104\n      jumpi\n        /* \"#utility.yul\":3290:3308   */\n      tag_105\n      tag_44\n      jump\t// in\n    tag_105:\n        /* \"#utility.yul\":3254:3310   */\n    tag_104:\n        /* \"#utility.yul\":3328:3357   */\n      tag_106\n        /* \"#utility.yul\":3350:3356   */\n      dup3\n        /* \"#utility.yul\":3328:3357   */\n      tag_34\n      jump\t// in\n    tag_106:\n        /* \"#utility.yul\":3320:3357   */\n      swap1\n      pop\n        /* \"#utility.yul\":3412:3416   */\n      0x20\n        /* \"#utility.yul\":3406:3410   */\n      dup2\n        /* \"#utility.yul\":3402:3417   */\n      add\n        /* \"#utility.yul\":3394:3417   */\n      swap1\n      pop\n        /* \"#utility.yul\":3116:3424   */\n      swap2\n      swap1\n      pop\n      jump\t// out\n        /* \"#utility.yul\":3430:3576   */\n    tag_48:\n        /* \"#utility.yul\":3527:3533   */\n      dup3\n        /* \"#utility.yul\":3522:3525   */\n      dup2\n        /* \"#utility.yul\":3517:3520   */\n      dup4\n        /* \"#utility.yul\":3504:3534   */\n      calldatacopy\n        /* \"#utility.yul\":3568:3569   */\n      0x00\n        /* \"#utility.yul\":3559:3565   */\n      dup4\n        /* \"#utility.yul\":3554:3557   */\n      dup4\n        /* \"#utility.yul\":3550:3566   */\n      add\n        /* \"#utility.yul\":3543:3570   */\n      mstore\n        /* \"#utility.yul\":3430:3576   */\n      pop\n      pop\n      pop\n      jump\t// out\n        /* \"#utility.yul\":3582:4007   */\n    tag_49:\n        /* \"#utility.yul\":3660:3665   */\n      0x00\n        /* \"#utility.yul\":3685:3751   */\n      tag_109\n        /* \"#utility.yul\":3701:3750   */\n      tag_110\n        /* \"#utility.yul\":3743:3749   */\n      dup5\n        /* \"#utility.yul\":3701:3750   */\n      tag_47\n      jump\t// in\n    tag_110:\n        /* \"#utility.yul\":3685:3751   */\n      tag_46\n      jump\t// in\n    tag_109:\n        /* \"#utility.yul\":3676:3751   */\n      swap1\n      pop\n        /* \"#utility.yul\":3774:3780   */\n      dup3\n        /* \"#utility.yul\":3767:3772   */\n      dup2\n        /* \"#utility.yul\":3760:3781   */\n      mstore\n        /* \"#utility.yul\":3812:3816   */\n      0x20\n        /* \"#utility.yul\":3805:3810   */\n      dup2\n        /* \"#utility.yul\":3801:3817   */\n      add\n        /* \"#utility.yul\":3850:3853   */\n      dup5\n        /* \"#utility.yul\":3841:3847   */\n      dup5\n        /* \"#utility.yul\":3836:3839   */\n      dup5\n        /* \"#utility.yul\":3832:3848   */\n      add\n        /* \"#utility.yul\":3829:3854   */\n      gt\n        /* \"#utility.yul\":3826:3938   */\n      iszero\n      tag_111\n      jumpi\n        /* \"#utility.yul\":3857:3936   */\n      tag_112\n      tag_43\n      jump\t// in\n    tag_112:\n        /* \"#utility.yul\":3826:3938   */\n    tag_111:\n        /* \"#utility.yul\":3947:4001   */\n      tag_113\n        /* \"#utility.yul\":3994:4000   */\n      dup5\n        /* \"#utility.yul\":3989:3992   */\n      dup3\n        /* \"#utility.yul\":3984:3987   */\n      dup6\n        /* \"#utility.yul\":3947:4001   */\n      tag_48\n      jump\t// in\n    tag_113:\n        /* \"#utility.yul\":3666:4007   */\n      pop\n        /* \"#utility.yul\":3582:4007   */\n      swap4\n      swap3\n      pop\n      pop\n      pop\n      jump\t// out\n        /* \"#utility.yul\":4027:4367   */\n    tag_50:\n        /* \"#utility.yul\":4083:4088   */\n      0x00\n        /* \"#utility.yul\":4132:4135   */\n      dup3\n        /* \"#utility.yul\":4125:4129   */\n      0x1f\n        /* \"#utility.yul\":4117:4123   */\n      dup4\n        /* \"#utility.yul\":4113:4130   */\n      add\n        /* \"#utility.yul\":4109:4136   */\n      slt\n        /* \"#utility.yul\":4099:4221   */\n      tag_115\n      jumpi\n        /* \"#utility.yul\":4140:4219   */\n      tag_116\n      tag_42\n      jump\t// in\n    tag_116:\n        /* \"#utility.yul\":4099:4221   */\n    tag_115:\n        /* \"#utility.yul\":4257:4263   */\n      dup2\n        /* \"#utility.yul\":4244:4264   */\n      calldataload\n        /* \"#utility.yul\":4282:4361   */\n      tag_117\n        /* \"#utility.yul\":4357:4360   */\n      dup5\n        /* \"#utility.yul\":4349:4355   */\n      dup3\n        /* \"#utility.yul\":4342:4346   */\n      0x20\n        /* \"#utility.yul\":4334:4340   */\n      dup7\n        /* \"#utility.yul\":4330:4347   */\n      add\n        /* \"#utility.yul\":4282:4361   */\n      tag_49\n      jump\t// in\n    tag_117:\n        /* \"#utility.yul\":4273:4361   */\n      swap2\n      pop\n        /* \"#utility.yul\":4089:4367   */\n      pop\n        /* \"#utility.yul\":4027:4367   */\n      swap3\n      swap2\n      pop\n      pop\n      jump\t// out\n        /* \"#utility.yul\":4373:4882   */\n    tag_16:\n        /* \"#utility.yul\":4442:4448   */\n      0x00\n        /* \"#utility.yul\":4491:4493   */\n      0x20\n        /* \"#utility.yul\":4479:4488   */\n      dup3\n        /* \"#utility.yul\":4470:4477   */\n      dup5\n        /* \"#utility.yul\":4466:4489   */\n      sub\n        /* \"#utility.yul\":4462:4494   */\n      slt\n        /* \"#utility.yul\":4459:4578   */\n      iszero\n      tag_119\n      jumpi\n        /* \"#utility.yul\":4497:4576   */\n      tag_120\n      tag_40\n      jump\t// in\n    tag_120:\n        /* \"#utility.yul\":4459:4578   */\n    tag_119:\n        /* \"#utility.yul\":4645:4646   */\n      0x00\n        /* \"#utility.yul\":4634:4643   */\n      dup3\n        /* \"#utility.yul\":4630:4647   */\n      add\n        /* \"#utility.yul\":4617:4648   */\n      calldataload\n        /* \"#utility.yul\":4675:4693   */\n      0xffffffffffffffff\n        /* \"#utility.yul\":4667:4673   */\n      dup2\n        /* \"#utility.yul\":4664:4694   */\n      gt\n        /* \"#utility.yul\":4661:4778   */\n      iszero\n      tag_121\n      jumpi\n        /* \"#utility.yul\":4697:4776   */\n      tag_122\n      tag_41\n      jump\t// in\n    tag_122:\n        /* \"#utility.yul\":4661:4778   */\n    tag_121:\n        /* \"#utility.yul\":4802:4865   */\n      tag_123\n        /* \"#utility.yul\":4857:4864   */\n      dup5\n        /* \"#utility.yul\":4848:4854   */\n      dup3\n        /* \"#utility.yul\":4837:4846   */\n      dup6\n        /* \"#utility.yul\":4833:4855   */\n      add\n        /* \"#utility.yul\":4802:4865   */\n      tag_50\n      jump\t// in\n    tag_123:\n        /* \"#utility.yul\":4792:4865   */\n      swap2\n      pop\n        /* \"#utility.yul\":4588:4875   */\n      pop\n        /* \"#utility.yul\":4373:4882   */\n      swap3\n      swap2\n      pop\n      pop\n      jump\t// out\n        /* \"#utility.yul\":4888:5068   */\n    tag_51:\n        /* \"#utility.yul\":4936:5013   */\n      0x4e487b7100000000000000000000000000000000000000000000000000000000\n        /* \"#utility.yul\":4933:4934   */\n      0x00\n        /* \"#utility.yul\":4926:5014   */\n      mstore\n        /* \"#utility.yul\":5033:5037   */\n      0x22\n        /* \"#utility.yul\":5030:5031   */\n      0x04\n        /* \"#utility.yul\":5023:5038   */\n      mstore\n        /* \"#utility.yul\":5057:5061   */\n      0x24\n        /* \"#utility.yul\":5054:5055   */\n      0x00\n        /* \"#utility.yul\":5047:5062   */\n      revert\n        /* \"#utility.yul\":5074:5394   */\n    tag_20:\n        /* \"#utility.yul\":5118:5124   */\n      0x00\n        /* \"#utility.yul\":5155:5156   */\n      0x02\n        /* \"#utility.yul\":5149:5153   */\n      dup3\n        /* \"#utility.yul\":5145:5157   */\n      div\n        /* \"#utility.yul\":5135:5157   */\n      swap1\n      pop\n        /* \"#utility.yul\":5202:5203   */\n      0x01\n        /* \"#utility.yul\":5196:5200   */\n      dup3\n        /* \"#utility.yul\":5192:5204   */\n      and\n        /* \"#utility.yul\":5223:5241   */\n      dup1\n        /* \"#utility.yul\":5213:5294   */\n      tag_126\n      jumpi\n        /* \"#utility.yul\":5279:5283   */\n      0x7f\n        /* \"#utility.yul\":5271:5277   */\n      dup3\n        /* \"#utility.yul\":5267:5284   */\n      and\n        /* \"#utility.yul\":5257:5284   */\n      swap2\n      pop\n        /* \"#utility.yul\":5213:5294   */\n    tag_126:\n        /* \"#utility.yul\":5341:5343   */\n      0x20\n        /* \"#utility.yul\":5333:5339   */\n      dup3\n        /* \"#utility.yul\":5330:5344   */\n      lt\n        /* \"#utility.yul\":5310:5328   */\n      dup2\n        /* \"#utility.yul\":5307:5345   */\n      sub\n        /* \"#utility.yul\":5304:5388   */\n      tag_127\n      jumpi\n        /* \"#utility.yul\":5360:5378   */\n      tag_128\n      tag_51\n      jump\t// in\n    tag_128:\n        /* \"#utility.yul\":5304:5388   */\n    tag_127:\n        /* \"#utility.yul\":5125:5394   */\n      pop\n        /* \"#utility.yul\":5074:5394   */\n      swap2\n      swap1\n      pop\n      jump\t// out\n        /* \"#utility.yul\":5400:5541   */\n    tag_52:\n        /* \"#utility.yul\":5449:5453   */\n      0x00\n        /* \"#utility.yul\":5472:5475   */\n      dup2\n        /* \"#utility.yul\":5464:5475   */\n      swap1\n      pop\n        /* \"#utility.yul\":5495:5498   */\n      dup2\n        /* \"#utility.yul\":5492:5493   */\n      0x00\n        /* \"#utility.yul\":5485:5499   */\n      mstore\n        /* \"#utility.yul\":5529:5533   */\n      0x20\n        /* \"#utility.yul\":5526:5527   */\n      0x00\n        /* \"#utility.yul\":5516:5534   */\n      keccak256\n        /* \"#utility.yul\":5508:5534   */\n      swap1\n      pop\n        /* \"#utility.yul\":5400:5541   */\n      swap2\n      swap1\n      pop\n      jump\t// out\n        /* \"#utility.yul\":5547:5640   */\n    tag_53:\n        /* \"#utility.yul\":5584:5590   */\n      0x00\n        /* \"#utility.yul\":5631:5633   */\n      0x20\n        /* \"#utility.yul\":5626:5628   */\n      0x1f\n        /* \"#utility.yul\":5619:5624   */\n      dup4\n        /* \"#utility.yul\":5615:5629   */\n      add\n        /* \"#utility.yul\":5611:5634   */\n      div\n        /* \"#utility.yul\":5601:5634   */\n      swap1\n      pop\n        /* \"#utility.yul\":5547:5640   */\n      swap2\n      swap1\n      pop\n      jump\t// out\n        /* \"#utility.yul\":5646:5753   */\n    tag_54:\n        /* \"#utility.yul\":5690:5698   */\n      0x00\n        /* \"#utility.yul\":5740:5745   */\n      dup3\n        /* \"#utility.yul\":5734:5738   */\n      dup3\n        /* \"#utility.yul\":5730:5746   */\n      shl\n        /* \"#utility.yul\":5709:5746   */\n      swap1\n      pop\n        /* \"#utility.yul\":5646:5753   */\n      swap3\n      swap2\n      pop\n      pop\n      jump\t// out\n        /* \"#utility.yul\":5759:6152   */\n    tag_55:\n        /* \"#utility.yul\":5828:5834   */\n      0x00\n        /* \"#utility.yul\":5878:5879   */\n      0x08\n        /* \"#utility.yul\":5866:5876   */\n      dup4\n        /* \"#utility.yul\":5862:5880   */\n      mul\n        /* \"#utility.yul\":5901:5998   */\n      tag_133\n        /* \"#utility.yul\":5931:5997   */\n      0xffffffffffffffffffffffffffffffffffffffffffffffffffffffffffffffff\n        /* \"#utility.yul\":5920:5929   */\n      dup3\n        /* \"#utility.yul\":5901:5998   */\n      tag_54\n      jump\t// in\n    tag_133:\n        /* \"#utility.yul\":6019:6058   */\n      tag_134\n        /* \"#utility.yul\":6049:6057   */\n      dup7\n        /* \"#utility.yul\":6038:6047   */\n      dup4\n        /* \"#utility.yul\":6019:6058   */\n      tag_54\n      jump\t// in\n    tag_134:\n        /* \"#utility.yul\":6007:6058   */\n      swap6\n      pop\n        /* \"#utility.yul\":6091:6095   */\n      dup1\n        /* \"#utility.yul\":6087:6096   */\n      not\n        /* \"#utility.yul\":6080:6085   */\n      dup5\n        /* \"#utility.yul\":6076:6097   */\n      and\n        /* \"#utility.yul\":6067:6097   */\n      swap4\n      pop\n        /* \"#utility.yul\":6140:6144   */\n      dup1\n        /* \"#utility.yul\":6130:6138   */\n      dup7\n        /* \"#utility.yul\":6126:6145   */\n      and\n        /* \"#utility.yul\":6119:6124   */\n      dup5\n        /* \"#utility.yul\":6116:6146   */\n      or\n        /* \"#utility.yul\":6106:6146   */\n      swap3\n      pop\n        /* \"#utility.yul\":5835:6152   */\n      pop\n      pop\n        /* \"#utility.yul\":5759:6152   */\n      swap4\n      swap3\n      pop\n      pop\n      pop\n      jump\t// out\n        /* \"#utility.yul\":6158:6235   */\n    tag_56:\n        /* \"#utility.yul\":6195:6202   */\n      0x00\n        /* \"#utility.yul\":6224:6229   */\n      dup2\n        /* \"#utility.yul\":6213:6229   */\n      swap1\n      pop\n        /* \"#utility.yul\":6158:6235   */\n      swap2\n      swap1\n      pop\n      jump\t// out\n        /* \"#utility.yul\":6241:6301   */\n    tag_57:\n        /* \"#utility.yul\":6269:6272   */\n      0x00\n        /* \"#utility.yul\":6290:6295   */\n      dup2\n        /* \"#utility.yul\":6283:6295   */\n      swap1\n      pop\n        /* \"#utility.yul\":6241:6301   */\n      swap2\n      swap1\n      pop\n      jump\t// out\n        /* \"#utility.yul\":6307:6449   */\n    tag_58:\n        /* \"#utility.yul\":6357:6366   */\n      0x00\n        /* \"#utility.yul\":6390:6443   */\n      tag_138\n        /* \"#utility.yul\":6408:6442   */\n      tag_139\n        /* \"#utility.yul\":6417:6441   */\n      tag_140\n        /* \"#utility.yul\":6435:6440   */\n      dup5\n        /* \"#utility.yul\":6417:6441   */\n      tag_56\n      jump\t// in\n    tag_140:\n        /* \"#utility.yul\":6408:6442   */\n      tag_57\n      jump\t// in\n    tag_139:\n        /* \"#utility.yul\":6390:6443   */\n      tag_56\n      jump\t// in\n    tag_138:\n        /* \"#utility.yul\":6377:6443   */\n      swap1\n      pop\n        /* \"#utility.yul\":6307:6449   */\n      swap2\n      swap1\n      pop\n      jump\t// out\n        /* \"#utility.yul\":6455:6530   */\n    tag_59:\n        /* \"#utility.yul\":6498:6501   */\n      0x00\n        /* \"#utility.yul\":6519:6524   */\n      dup2\n        /* \"#utility.yul\":6512:6524   */\n      swap1\n      pop\n        /* \"#utility.yul\":6455:6530   */\n      swap2\n      swap1\n      pop\n      jump\t// out\n        /* \"#utility.yul\":6536:6805   */\n    tag_60:\n        /* \"#utility.yul\":6646:6685   */\n      tag_143\n        /* \"#utility.yul\":6677:6684   */\n      dup4\n        /* \"#utility.yul\":6646:6685   */\n      tag_58\n      jump\t// in\n    tag_143:\n        /* \"#utility.yul\":6707:6798   */\n      tag_144\n        /* \"#utility.yul\":6756:6797   */\n      tag_145\n        /* \"#utility.yul\":6780:6796   */\n      dup3\n        /* \"#utility.yul\":6756:6797   */\n      tag_59\n      jump\t// in\n    tag_145:\n        /* \"#utility.yul\":6748:6754   */\n      dup5\n        /* \"#utility.yul\":6741:6745   */\n      dup5\n        /* \"#utility.yul\":6735:6746   */\n      sload\n        /* \"#utility.yul\":6707:6798   */\n      tag_55\n      jump\t// in\n    tag_144:\n        /* \"#utility.yul\":6701:6705   */\n      dup3\n        /* \"#utility.yul\":6694:6799   */\n      sstore\n        /* \"#utility.yul\":6612:6805   */\n      pop\n        /* \"#utility.yul\":6536:6805   */\n      pop\n      pop\n      pop\n      jump\t// out\n        /* \"#utility.yul\":6811:6884   */\n    tag_61:\n        /* \"#utility.yul\":6856:6859   */\n      0x00\n        /* \"#utility.yul\":6811:6884   */\n      swap1\n      jump\t// out\n        /* \"#utility.yul\":6890:7079   */\n    tag_62:\n        /* \"#utility.yul\":6967:6999   */\n      tag_148\n      tag_61\n      jump\t// in\n    tag_148:\n        /* \"#utility.yul\":7008:7073   */\n      tag_149\n        /* \"#utility.yul\":7066:7072   */\n      dup2\n        /* \"#utility.yul\":7058:7064   */\n      dup5\n        /* \"#utility.yul\":7052:7056   */\n      dup5\n        /* \"#utility.yul\":7008:7073   */\n      tag_60\n      jump\t// in\n    tag_149:\n        /* \"#utility.yul\":6943:7079   */\n      pop\n        /* \"#utility.yul\":6890:7079   */\n      pop\n      pop\n      jump\t// out\n        /* \"#utility.yul\":7085:7271   */\n    tag_63:\n        /* \"#utility.yul\":7145:7265   */\n    tag_151:\n        /* \"#utility.yul\":7162:7165   */\n      dup2\n        /* \"#utility.yul\":7155:7160   */\n      dup2\n        /* \"#utility.yul\":7152:7166   */\n      lt\n        /* \"#utility.yul\":7145:7265   */\n      iszero\n      tag_153\n      jumpi\n        /* \"#utility.yul\":7216:7255   */\n      tag_154\n        /* \"#utility.yul\":7253:7254   */\n      0x00\n        /* \"#utility.yul\":7246:7251   */\n      dup3\n        /* \"#utility.yul\":7216:7255   */\n      tag_62\n      jump\t// in\n    tag_154:\n        /* \"#utility.yul\":7189:7190   */\n      0x01\n        /* \"#utility.yul\":7182:7187   */\n      dup2\n        /* \"#utility.yul\":7178:7191   */\n      add\n        /* \"#utility.yul\":7169:7191   */\n      swap1\n      pop\n        /* \"#utility.yul\":7145:7265   */\n      jump(tag_151)\n    tag_153:\n        /* \"#utility.yul\":7085:7271   */\n      pop\n      pop\n      jump\t// out\n        /* \"#utility.yul\":7277:7820   */\n    tag_64:\n        /* \"#utility.yul\":7378:7380   */\n      0x1f\n        /* \"#utility.yul\":7373:7376   */\n      dup3\n        /* \"#utility.yul\":7370:7381   */\n      gt\n        /* \"#utility.yul\":7367:7813   */\n      iszero\n      tag_156\n      jumpi\n        /* \"#utility.yul\":7412:7450   */\n      tag_157\n        /* \"#utility.yul\":7444:7449   */\n      dup2\n        /* \"#utility.yul\":7412:7450   */\n      tag_52\n      jump\t// in\n    tag_157:\n        /* \"#utility.yul\":7496:7525   */\n      tag_158\n        /* \"#utility.yul\":7514:7524   */\n      dup5\n        /* \"#utility.yul\":7496:7525   */\n      tag_53\n      jump\t// in\n    tag_158:\n        /* \"#utility.yul\":7486:7494   */\n      dup2\n        /* \"#utility.yul\":7482:7526   */\n      add\n        /* \"#utility.yul\":7679:7681   */\n      0x20\n        /* \"#utility.yul\":7667:7677   */\n      dup6\n        /* \"#utility.yul\":7664:7682   */\n      lt\n        /* \"#utility.yul\":7661:7710   */\n      iszero\n      tag_159\n      jumpi\n        /* \"#utility.yul\":7700:7708   */\n      dup2\n        /* \"#utility.yul\":7685:7708   */\n      swap1\n      pop\n        /* \"#utility.yul\":7661:7710   */\n    tag_159:\n        /* \"#utility.yul\":7723:7803   */\n      tag_160\n        /* \"#utility.yul\":7779:7801   */\n      tag_161\n        /* \"#utility.yul\":7797:7800   */\n      dup6\n        /* \"#utility.yul\":7779:7801   */\n      tag_53\n      jump\t// in\n    tag_161:\n        /* \"#utility.yul\":7769:7777   */\n      dup4\n        /* \"#utility.yul\":7765:7802   */\n      add\n        /* \"#utility.yul\":7752:7763   */\n      dup3\n        /* \"#utility.yul\":7723:7803   */\n      tag_63\n      jump\t// in\n    tag_160:\n        /* \"#utility.yul\":7382:7813   */\n      pop\n      pop\n        /* \"#utility.yul\":7367:7813   */\n    tag_156:\n        /* \"#utility.yul\":7277:7820   */\n      pop\n      pop\n      pop\n      jump\t// out\n        /* \"#utility.yul\":7826:7943   */\n    tag_65:\n        /* \"#utility.yul\":7880:7888   */\n      0x00\n        /* \"#utility.yul\":7930:7935   */\n      dup3\n        /* \"#utility.yul\":7924:7928   */\n      dup3\n        /* \"#utility.yul\":7920:7936   */\n      shr\n        /* \"#utility.yul\":7899:7936   */\n      swap1\n      pop\n        /* \"#utility.yul\":7826:7943   */\n      swap3\n      swap2\n      pop\n      pop\n      jump\t// out\n        /* \"#utility.yul\":7949:8118   */\n    tag_66:\n        /* \"#utility.yul\":7993:7999   */\n      0x00\n        /* \"#utility.yul\":8026:8077   */\n      tag_164\n        /* \"#utility.yul\":8074:8075   */\n      0x00\n        /* \"#utility.yul\":8070:8076   */\n      not\n        /* \"#utility.yul\":8062:8067   */\n      dup5\n        /* \"#utility.yul\":8059:8060   */\n      0x08\n        /* \"#utility.yul\":8055:8068   */\n      mul\n        /* \"#utility.yul\":8026:8077   */\n      tag_65\n      jump\t// in\n    tag_164:\n        /* \"#utility.yul\":8022:8078   */\n      not\n        /* \"#utility.yul\":8107:8111   */\n      dup1\n        /* \"#utility.yul\":8101:8105   */\n      dup4\n        /* \"#utility.yul\":8097:8112   */\n      and\n        /* \"#utility.yul\":8087:8112   */\n      swap2\n      pop\n        /* \"#utility.yul\":8000:8118   */\n      pop\n        /* \"#utility.yul\":7949:8118   */\n      swap3\n      swap2\n      pop\n      pop\n      jump\t// out\n        /* \"#utility.yul\":8123:8418   */\n    tag_67:\n        /* \"#utility.yul\":8199:8203   */\n      0x00\n        /* \"#utility.yul\":8345:8374   */\n      tag_166\n        /* \"#utility.yul\":8370:8373   */\n      dup4\n        /* \"#utility.yul\":8364:8368   */\n      dup4\n        /* \"#utility.yul\":8345:8374   */\n      tag_66\n      jump\t// in\n    tag_166:\n        /* \"#utility.yul\":8337:8374   */\n      swap2\n      pop\n        /* \"#utility.yul\":8407:8410   */\n      dup3\n        /* \"#utility.yul\":8404:8405   */\n      0x02\n        /* \"#utility.yul\":8400:8411   */\n      mul\n        /* \"#utility.yul\":8394:8398   */\n      dup3\n        /* \"#utility.yul\":8391:8412   */\n      or\n        /* \"#utility.yul\":8383:8412   */\n      swap1\n      pop\n        /* \"#utility.yul\":8123:8418   */\n      swap3\n      swap2\n      pop\n      pop\n      jump\t// out\n        /* \"#utility.yul\":8423:9818   */\n    tag_28:\n        /* \"#utility.yul\":8540:8577   */\n      tag_168\n        /* \"#utility.yul\":8573:8576   */\n      dup3\n        /* \"#utility.yul\":8540:8577   */\n      tag_31\n      jump\t// in\n    tag_168:\n        /* \"#utility.yul\":8642:8660   */\n      0xffffffffffffffff\n        /* \"#utility.yul\":8634:8640   */\n      dup2\n        /* \"#utility.yul\":8631:8661   */\n      gt\n        /* \"#utility.yul\":8628:8684   */\n      iszero\n      tag_169\n      jumpi\n        /* \"#utility.yul\":8664:8682   */\n      tag_170\n      tag_44\n      jump\t// in\n    tag_170:\n        /* \"#utility.yul\":8628:8684   */\n    tag_169:\n        /* \"#utility.yul\":8708:8746   */\n      tag_171\n        /* \"#utility.yul\":8740:8744   */\n      dup3\n        /* \"#utility.yul\":8734:8745   */\n      sload\n        /* \"#utility.yul\":8708:8746   */\n      tag_20\n      jump\t// in\n    tag_171:\n        /* \"#utility.yul\":8793:8860   */\n      tag_172\n        /* \"#utility.yul\":8853:8859   */\n      dup3\n        /* \"#utility.yul\":8845:8851   */\n      dup3\n        /* \"#utility.yul\":8839:8843   */\n      dup6\n        /* \"#utility.yul\":8793:8860   */\n      tag_64\n      jump\t// in\n    tag_172:\n        /* \"#utility.yul\":8887:8888   */\n      0x00\n        /* \"#utility.yul\":8911:8915   */\n      0x20\n        /* \"#utility.yul\":8898:8915   */\n      swap1\n      pop\n        /* \"#utility.yul\":8943:8945   */\n      0x1f\n        /* \"#utility.yul\":8935:8941   */\n      dup4\n        /* \"#utility.yul\":8932:8946   */\n      gt\n        /* \"#utility.yul\":8960:8961   */\n      0x01\n        /* \"#utility.yul\":8955:9573   */\n      dup2\n      eq\n      tag_174\n      jumpi\n        /* \"#utility.yul\":9617:9618   */\n      0x00\n        /* \"#utility.yul\":9634:9640   */\n      dup5\n        /* \"#utility.yul\":9631:9708   */\n      iszero\n      tag_175\n      jumpi\n        /* \"#utility.yul\":9683:9692   */\n      dup3\n        /* \"#utility.yul\":9678:9681   */\n      dup8\n        /* \"#utility.yul\":9674:9693   */\n      add\n        /* \"#utility.yul\":9668:9694   */\n      mload\n        /* \"#utility.yul\":9659:9694   */\n      swap1\n      pop\n        /* \"#utility.yul\":9631:9708   */\n    tag_175:\n        /* \"#utility.yul\":9734:9801   */\n      tag_176\n        /* \"#utility.yul\":9794:9800   */\n      dup6\n        /* \"#utility.yul\":9787:9792   */\n      dup3\n        /* \"#utility.yul\":9734:9801   */\n      tag_67\n      jump\t// in\n    tag_176:\n        /* \"#utility.yul\":9728:9732   */\n      dup7\n        /* \"#utility.yul\":9721:9802   */\n      sstore\n        /* \"#utility.yul\":9590:9812   */\n      pop\n        /* \"#utility.yul\":8925:9812   */\n      jump(tag_173)\n        /* \"#utility.yul\":8955:9573   */\n    tag_174:\n        /* \"#utility.yul\":9007:9011   */\n      0x1f\n        /* \"#utility.yul\":9003:9012   */\n      not\n        /* \"#utility.yul\":8995:9001   */\n      dup5\n        /* \"#utility.yul\":8991:9013   */\n      and\n        /* \"#utility.yul\":9041:9078   */\n      tag_177\n        /* \"#utility.yul\":9073:9077   */\n      dup7\n        /* \"#utility.yul\":9041:9078   */\n      tag_52\n      jump\t// in\n    tag_177:\n        /* \"#utility.yul\":9100:9101   */\n      0x00\n        /* \"#utility.yul\":9114:9322   */\n    tag_178:\n        /* \"#utility.yul\":9128:9135   */\n      dup3\n        /* \"#utility.yul\":9125:9126   */\n      dup2\n        /* \"#utility.yul\":9122:9136   */\n      lt\n        /* \"#utility.yul\":9114:9322   */\n      iszero\n      tag_180\n      jumpi\n        /* \"#utility.yul\":9207:9216   */\n      dup5\n        /* \"#utility.yul\":9202:9205   */\n      dup10\n        /* \"#utility.yul\":9198:9217   */\n      add\n        /* \"#utility.yul\":9192:9218   */\n      mload\n        /* \"#utility.yul\":9184:9190   */\n      dup3\n        /* \"#utility.yul\":9177:9219   */\n      sstore\n        /* \"#utility.yul\":9258:9259   */\n      0x01\n        /* \"#utility.yul\":9250:9256   */\n      dup3\n        /* \"#utility.yul\":9246:9260   */\n      add\n        /* \"#utility.yul\":9236:9260   */\n      swap2\n      pop\n        /* \"#utility.yul\":9305:9307   */\n      0x20\n        /* \"#utility.yul\":9294:9303   */\n      dup6\n        /* \"#utility.yul\":9290:9308   */\n      add\n        /* \"#utility.yul\":9277:9308   */\n      swap5\n      pop\n        /* \"#utility.yul\":9151:9155   */\n      0x20\n        /* \"#utility.yul\":9148:9149   */\n      dup2\n        /* \"#utility.yul\":9144:9156   */\n      add\n        /* \"#utility.yul\":9139:9156   */\n      swap1\n      pop\n        /* \"#utility.yul\":9114:9322   */\n      jump(tag_178)\n    tag_180:\n        /* \"#utility.yul\":9350:9356   */\n      dup7\n        /* \"#utility.yul\":9341:9348   */\n      dup4\n        /* \"#utility.yul\":9338:9357   */\n      lt\n        /* \"#utility.yul\":9335:9514   */\n      iszero\n      tag_181\n      jumpi\n        /* \"#utility.yul\":9408:9417   */\n      dup5\n        /* \"#utility.yul\":9403:9406   */\n      dup10\n        /* \"#utility.yul\":9399:9418   */\n      add\n        /* \"#utility.yul\":9393:9419   */\n      mload\n        /* \"#utility.yul\":9451:9499   */\n      tag_182\n        /* \"#utility.yul\":9493:9497   */\n      0x1f\n        /* \"#utility.yul\":9485:9491   */\n      dup10\n        /* \"#utility.yul\":9481:9498   */\n      and\n        /* \"#utility.yul\":9470:9479   */\n      dup3\n        /* \"#utility.yul\":9451:9499   */\n      tag_66\n      jump\t// in\n    tag_182:\n        /* \"#utility.yul\":9443:9449   */\n      dup4\n        /* \"#utility.yul\":9436:9500   */\n      sstore\n        /* \"#utility.yul\":9358:9514   */\n      pop\n        /* \"#utility.yul\":9335:9514   */\n    tag_181:\n        /* \"#utility.yul\":9560:9561   */\n      0x01\n        /* \"#utility.yul\":9556:9557   */\n      0x02\n        /* \"#utility.yul\":9548:9554   */\n      dup9\n        /* \"#utility.yul\":9544:9558   */\n      mul\n        /* \"#utility.yul\":9540:9562   */\n      add\n        /* \"#utility.yul\":9534:9538   */\n      dup9\n        /* \"#utility.yul\":9527:9563   */\n      sstore\n        /* \"#utility.yul\":8962:9573   */\n      pop\n      pop\n      pop\n        /* \"#utility.yul\":8925:9812   */\n    tag_173:\n      pop\n        /* \"#utility.yul\":8515:9818   */\n      pop\n      pop\n      pop\n        /* \"#utility.yul\":8423:9818   */\n      pop\n      pop\n      jump\t// out\n\n    auxdata: 0xa2646970667358221220e253461d0c144958f9e8b14f402e7de6035a12549e845fc87ee1744817a00de364736f6c63430008130033\n}\n",
				"bytecode": {
					"linkReferences": {},
					"object": "608060405234801561001057600080fd5b5033600160006101000a81548173ffffffffffffffffffffffffffffffffffffffff021916908373ffffffffffffffffffffffffffffffffffffffff1602179055506107c7806100616000396000f3fe608060405234801561001057600080fd5b50600436106100415760003560e01c80635a9b0b89146100465780638da5cb5b14610064578063937f6e7714610082575b600080fd5b61004e61009e565b60405161005b9190610299565b60405180910390f35b61006c610130565b60405161007991906102fc565b60405180910390f35b61009c60048036038101906100979190610460565b610156565b005b6060600080546100ad906104d8565b80601f01602080910402602001604051908101604052809291908181526020018280546100d9906104d8565b80156101265780601f106100fb57610100808354040283529160200191610126565b820191906000526020600020905b81548152906001019060200180831161010957829003601f168201915b5050505050905090565b600160009054906101000a900473ffffffffffffffffffffffffffffffffffffffff1681565b600160009054906101000a900473ffffffffffffffffffffffffffffffffffffffff1673ffffffffffffffffffffffffffffffffffffffff163373ffffffffffffffffffffffffffffffffffffffff16036101c05780600090816101ba91906106bf565b50610206565b6040518060400160405280600d81526020017f4e6f206175746f72697a61646f000000000000000000000000000000000000008152506000908161020491906106bf565b505b50565b600081519050919050565b600082825260208201905092915050565b60005b83811015610243578082015181840152602081019050610228565b60008484015250505050565b6000601f19601f8301169050919050565b600061026b82610209565b6102758185610214565b9350610285818560208601610225565b61028e8161024f565b840191505092915050565b600060208201905081810360008301526102b38184610260565b905092915050565b600073ffffffffffffffffffffffffffffffffffffffff82169050919050565b60006102e6826102bb565b9050919050565b6102f6816102db565b82525050565b600060208201905061031160008301846102ed565b92915050565b6000604051905090565b600080fd5b600080fd5b600080fd5b600080fd5b7f4e487b7100000000000000000000000000000000000000000000000000000000600052604160045260246000fd5b61036d8261024f565b810181811067ffffffffffffffff8211171561038c5761038b610335565b5b80604052505050565b600061039f610317565b90506103ab8282610364565b919050565b600067ffffffffffffffff8211156103cb576103ca610335565b5b6103d48261024f565b9050602081019050919050565b82818337600083830152505050565b60006104036103fe846103b0565b610395565b90508281526020810184848401111561041f5761041e610330565b5b61042a8482856103e1565b509392505050565b600082601f8301126104475761044661032b565b5b81356104578482602086016103f0565b91505092915050565b60006020828403121561047657610475610321565b5b600082013567ffffffffffffffff81111561049457610493610326565b5b6104a084828501610432565b91505092915050565b7f4e487b7100000000000000000000000000000000000000000000000000000000600052602260045260246000fd5b600060028204905060018216806104f057607f821691505b602082108103610503576105026104a9565b5b50919050565b60008190508160005260206000209050919050565b60006020601f8301049050919050565b600082821b905092915050565b60006008830261056b7fffffffffffffffffffffffffffffffffffffffffffffffffffffffffffffffff8261052e565b610575868361052e565b95508019841693508086168417925050509392505050565b6000819050919050565b6000819050919050565b60006105bc6105b76105b28461058d565b610597565b61058d565b9050919050565b6000819050919050565b6105d6836105a1565b6105ea6105e2826105c3565b84845461053b565b825550505050565b600090565b6105ff6105f2565b61060a8184846105cd565b505050565b5b8181101561062e576106236000826105f7565b600181019050610610565b5050565b601f8211156106735761064481610509565b61064d8461051e565b8101602085101561065c578190505b6106706106688561051e565b83018261060f565b50505b505050565b600082821c905092915050565b600061069660001984600802610678565b1980831691505092915050565b60006106af8383610685565b9150826002028217905092915050565b6106c882610209565b67ffffffffffffffff8111156106e1576106e0610335565b5b6106eb82546104d8565b6106f6828285610632565b600060209050601f8311600181146107295760008415610717578287015190505b61072185826106a3565b865550610789565b601f19841661073786610509565b60005b8281101561075f5784890151825560018201915060208501945060208101905061073a565b8683101561077c5784890151610778601f891682610685565b8355505b6001600288020188555050505b50505050505056fea2646970667358221220e253461d0c144958f9e8b14f402e7de6035a12549e845fc87ee1744817a00de364736f6c63430008130033",
					"opcodes": "PUSH1 0x80 PUSH1 0x40 MSTORE CALLVALUE DUP1 ISZERO PUSH2 0x10 JUMPI PUSH1 0x0 DUP1 REVERT JUMPDEST POP CALLER PUSH1 0x1 PUSH1 0x0 PUSH2 0x100 EXP DUP2 SLOAD DUP2 PUSH20 0xFFFFFFFFFFFFFFFFFFFFFFFFFFFFFFFFFFFFFFFF MUL NOT AND SWAP1 DUP4 PUSH20 0xFFFFFFFFFFFFFFFFFFFFFFFFFFFFFFFFFFFFFFFF AND MUL OR SWAP1 SSTORE POP PUSH2 0x7C7 DUP1 PUSH2 0x61 PUSH1 0x0 CODECOPY PUSH1 0x0 RETURN INVALID PUSH1 0x80 PUSH1 0x40 MSTORE CALLVALUE DUP1 ISZERO PUSH2 0x10 JUMPI PUSH1 0x0 DUP1 REVERT JUMPDEST POP PUSH1 0x4 CALLDATASIZE LT PUSH2 0x41 JUMPI PUSH1 0x0 CALLDATALOAD PUSH1 0xE0 SHR DUP1 PUSH4 0x5A9B0B89 EQ PUSH2 0x46 JUMPI DUP1 PUSH4 0x8DA5CB5B EQ PUSH2 0x64 JUMPI DUP1 PUSH4 0x937F6E77 EQ PUSH2 0x82 JUMPI JUMPDEST PUSH1 0x0 DUP1 REVERT JUMPDEST PUSH2 0x4E PUSH2 0x9E JUMP JUMPDEST PUSH1 0x40 MLOAD PUSH2 0x5B SWAP2 SWAP1 PUSH2 0x299 JUMP JUMPDEST PUSH1 0x40 MLOAD DUP1 SWAP2 SUB SWAP1 RETURN JUMPDEST PUSH2 0x6C PUSH2 0x130 JUMP JUMPDEST PUSH1 0x40 MLOAD PUSH2 0x79 SWAP2 SWAP1 PUSH2 0x2FC JUMP JUMPDEST PUSH1 0x40 MLOAD DUP1 SWAP2 SUB SWAP1 RETURN JUMPDEST PUSH2 0x9C PUSH1 0x4 DUP1 CALLDATASIZE SUB DUP2 ADD SWAP1 PUSH2 0x97 SWAP2 SWAP1 PUSH2 0x460 JUMP JUMPDEST PUSH2 0x156 JUMP JUMPDEST STOP JUMPDEST PUSH1 0x60 PUSH1 0x0 DUP1 SLOAD PUSH2 0xAD SWAP1 PUSH2 0x4D8 JUMP JUMPDEST DUP1 PUSH1 0x1F ADD PUSH1 0x20 DUP1 SWAP2 DIV MUL PUSH1 0x20 ADD PUSH1 0x40 MLOAD SWAP1 DUP2 ADD PUSH1 0x40 MSTORE DUP1 SWAP3 SWAP2 SWAP1 DUP2 DUP2 MSTORE PUSH1 0x20 ADD DUP3 DUP1 SLOAD PUSH2 0xD9 SWAP1 PUSH2 0x4D8 JUMP JUMPDEST DUP1 ISZERO PUSH2 0x126 JUMPI DUP1 PUSH1 0x1F LT PUSH2 0xFB JUMPI PUSH2 0x100 DUP1 DUP4 SLOAD DIV MUL DUP4 MSTORE SWAP2 PUSH1 0x20 ADD SWAP2 PUSH2 0x126 JUMP JUMPDEST DUP3 ADD SWAP2 SWAP1 PUSH1 0x0 MSTORE PUSH1 0x20 PUSH1 0x0 KECCAK256 SWAP1 JUMPDEST DUP2 SLOAD DUP2 MSTORE SWAP1 PUSH1 0x1 ADD SWAP1 PUSH1 0x20 ADD DUP1 DUP4 GT PUSH2 0x109 JUMPI DUP3 SWAP1 SUB PUSH1 0x1F AND DUP3 ADD SWAP2 JUMPDEST POP POP POP POP POP SWAP1 POP SWAP1 JUMP JUMPDEST PUSH1 0x1 PUSH1 0x0 SWAP1 SLOAD SWAP1 PUSH2 0x100 EXP SWAP1 DIV PUSH20 0xFFFFFFFFFFFFFFFFFFFFFFFFFFFFFFFFFFFFFFFF AND DUP2 JUMP JUMPDEST PUSH1 0x1 PUSH1 0x0 SWAP1 SLOAD SWAP1 PUSH2 0x100 EXP SWAP1 DIV PUSH20 0xFFFFFFFFFFFFFFFFFFFFFFFFFFFFFFFFFFFFFFFF AND PUSH20 0xFFFFFFFFFFFFFFFFFFFFFFFFFFFFFFFFFFFFFFFF AND CALLER PUSH20 0xFFFFFFFFFFFFFFFFFFFFFFFFFFFFFFFFFFFFFFFF AND SUB PUSH2 0x1C0 JUMPI DUP1 PUSH1 0x0 SWAP1 DUP2 PUSH2 0x1BA SWAP2 SWAP1 PUSH2 0x6BF JUMP JUMPDEST POP PUSH2 0x206 JUMP JUMPDEST PUSH1 0x40 MLOAD DUP1 PUSH1 0x40 ADD PUSH1 0x40 MSTORE DUP1 PUSH1 0xD DUP2 MSTORE PUSH1 0x20 ADD PUSH32 0x4E6F206175746F72697A61646F00000000000000000000000000000000000000 DUP2 MSTORE POP PUSH1 0x0 SWAP1 DUP2 PUSH2 0x204 SWAP2 SWAP1 PUSH2 0x6BF JUMP JUMPDEST POP JUMPDEST POP JUMP JUMPDEST PUSH1 0x0 DUP2 MLOAD SWAP1 POP SWAP2 SWAP1 POP JUMP JUMPDEST PUSH1 0x0 DUP3 DUP3 MSTORE PUSH1 0x20 DUP3 ADD SWAP1 POP SWAP3 SWAP2 POP POP JUMP JUMPDEST PUSH1 0x0 JUMPDEST DUP4 DUP2 LT ISZERO PUSH2 0x243 JUMPI DUP1 DUP3 ADD MLOAD DUP2 DUP5 ADD MSTORE PUSH1 0x20 DUP2 ADD SWAP1 POP PUSH2 0x228 JUMP JUMPDEST PUSH1 0x0 DUP5 DUP5 ADD MSTORE POP POP POP POP JUMP JUMPDEST PUSH1 0x0 PUSH1 0x1F NOT PUSH1 0x1F DUP4 ADD AND SWAP1 POP SWAP2 SWAP1 POP JUMP JUMPDEST PUSH1 0x0 PUSH2 0x26B DUP3 PUSH2 0x209 JUMP JUMPDEST PUSH2 0x275 DUP2 DUP6 PUSH2 0x214 JUMP JUMPDEST SWAP4 POP PUSH2 0x285 DUP2 DUP6 PUSH1 0x20 DUP7 ADD PUSH2 0x225 JUMP JUMPDEST PUSH2 0x28E DUP2 PUSH2 0x24F JUMP JUMPDEST DUP5 ADD SWAP2 POP POP SWAP3 SWAP2 POP POP JUMP JUMPDEST PUSH1 0x0 PUSH1 0x20 DUP3 ADD SWAP1 POP DUP2 DUP2 SUB PUSH1 0x0 DUP4 ADD MSTORE PUSH2 0x2B3 DUP2 DUP5 PUSH2 0x260 JUMP JUMPDEST SWAP1 POP SWAP3 SWAP2 POP POP JUMP JUMPDEST PUSH1 0x0 PUSH20 0xFFFFFFFFFFFFFFFFFFFFFFFFFFFFFFFFFFFFFFFF DUP3 AND SWAP1 POP SWAP2 SWAP1 POP JUMP JUMPDEST PUSH1 0x0 PUSH2 0x2E6 DUP3 PUSH2 0x2BB JUMP JUMPDEST SWAP1 POP SWAP2 SWAP1 POP JUMP JUMPDEST PUSH2 0x2F6 DUP2 PUSH2 0x2DB JUMP JUMPDEST DUP3 MSTORE POP POP JUMP JUMPDEST PUSH1 0x0 PUSH1 0x20 DUP3 ADD SWAP1 POP PUSH2 0x311 PUSH1 0x0 DUP4 ADD DUP5 PUSH2 0x2ED JUMP JUMPDEST SWAP3 SWAP2 POP POP JUMP JUMPDEST PUSH1 0x0 PUSH1 0x40 MLOAD SWAP1 POP SWAP1 JUMP JUMPDEST PUSH1 0x0 DUP1 REVERT JUMPDEST PUSH1 0x0 DUP1 REVERT JUMPDEST PUSH1 0x0 DUP1 REVERT JUMPDEST PUSH1 0x0 DUP1 REVERT JUMPDEST PUSH32 0x4E487B7100000000000000000000000000000000000000000000000000000000 PUSH1 0x0 MSTORE PUSH1 0x41 PUSH1 0x4 MSTORE PUSH1 0x24 PUSH1 0x0 REVERT JUMPDEST PUSH2 0x36D DUP3 PUSH2 0x24F JUMP JUMPDEST DUP2 ADD DUP2 DUP2 LT PUSH8 0xFFFFFFFFFFFFFFFF DUP3 GT OR ISZERO PUSH2 0x38C JUMPI PUSH2 0x38B PUSH2 0x335 JUMP JUMPDEST JUMPDEST DUP1 PUSH1 0x40 MSTORE POP POP POP JUMP JUMPDEST PUSH1 0x0 PUSH2 0x39F PUSH2 0x317 JUMP JUMPDEST SWAP1 POP PUSH2 0x3AB DUP3 DUP3 PUSH2 0x364 JUMP JUMPDEST SWAP2 SWAP1 POP JUMP JUMPDEST PUSH1 0x0 PUSH8 0xFFFFFFFFFFFFFFFF DUP3 GT ISZERO PUSH2 0x3CB JUMPI PUSH2 0x3CA PUSH2 0x335 JUMP JUMPDEST JUMPDEST PUSH2 0x3D4 DUP3 PUSH2 0x24F JUMP JUMPDEST SWAP1 POP PUSH1 0x20 DUP2 ADD SWAP1 POP SWAP2 SWAP1 POP JUMP JUMPDEST DUP3 DUP2 DUP4 CALLDATACOPY PUSH1 0x0 DUP4 DUP4 ADD MSTORE POP POP POP JUMP JUMPDEST PUSH1 0x0 PUSH2 0x403 PUSH2 0x3FE DUP5 PUSH2 0x3B0 JUMP JUMPDEST PUSH2 0x395 JUMP JUMPDEST SWAP1 POP DUP3 DUP2 MSTORE PUSH1 0x20 DUP2 ADD DUP5 DUP5 DUP5 ADD GT ISZERO PUSH2 0x41F JUMPI PUSH2 0x41E PUSH2 0x330 JUMP JUMPDEST JUMPDEST PUSH2 0x42A DUP5 DUP3 DUP6 PUSH2 0x3E1 JUMP JUMPDEST POP SWAP4 SWAP3 POP POP POP JUMP JUMPDEST PUSH1 0x0 DUP3 PUSH1 0x1F DUP4 ADD SLT PUSH2 0x447 JUMPI PUSH2 0x446 PUSH2 0x32B JUMP JUMPDEST JUMPDEST DUP2 CALLDATALOAD PUSH2 0x457 DUP5 DUP3 PUSH1 0x20 DUP7 ADD PUSH2 0x3F0 JUMP JUMPDEST SWAP2 POP POP SWAP3 SWAP2 POP POP JUMP JUMPDEST PUSH1 0x0 PUSH1 0x20 DUP3 DUP5 SUB SLT ISZERO PUSH2 0x476 JUMPI PUSH2 0x475 PUSH2 0x321 JUMP JUMPDEST JUMPDEST PUSH1 0x0 DUP3 ADD CALLDATALOAD PUSH8 0xFFFFFFFFFFFFFFFF DUP2 GT ISZERO PUSH2 0x494 JUMPI PUSH2 0x493 PUSH2 0x326 JUMP JUMPDEST JUMPDEST PUSH2 0x4A0 DUP5 DUP3 DUP6 ADD PUSH2 0x432 JUMP JUMPDEST SWAP2 POP POP SWAP3 SWAP2 POP POP JUMP JUMPDEST PUSH32 0x4E487B7100000000000000000000000000000000000000000000000000000000 PUSH1 0x0 MSTORE PUSH1 0x22 PUSH1 0x4 MSTORE PUSH1 0x24 PUSH1 0x0 REVERT JUMPDEST PUSH1 0x0 PUSH1 0x2 DUP3 DIV SWAP1 POP PUSH1 0x1 DUP3 AND DUP1 PUSH2 0x4F0 JUMPI PUSH1 0x7F DUP3 AND SWAP2 POP JUMPDEST PUSH1 0x20 DUP3 LT DUP2 SUB PUSH2 0x503 JUMPI PUSH2 0x502 PUSH2 0x4A9 JUMP JUMPDEST JUMPDEST POP SWAP2 SWAP1 POP JUMP JUMPDEST PUSH1 0x0 DUP2 SWAP1 POP DUP2 PUSH1 0x0 MSTORE PUSH1 0x20 PUSH1 0x0 KECCAK256 SWAP1 POP SWAP2 SWAP1 POP JUMP JUMPDEST PUSH1 0x0 PUSH1 0x20 PUSH1 0x1F DUP4 ADD DIV SWAP1 POP SWAP2 SWAP1 POP JUMP JUMPDEST PUSH1 0x0 DUP3 DUP3 SHL SWAP1 POP SWAP3 SWAP2 POP POP JUMP JUMPDEST PUSH1 0x0 PUSH1 0x8 DUP4 MUL PUSH2 0x56B PUSH32 0xFFFFFFFFFFFFFFFFFFFFFFFFFFFFFFFFFFFFFFFFFFFFFFFFFFFFFFFFFFFFFFFF DUP3 PUSH2 0x52E JUMP JUMPDEST PUSH2 0x575 DUP7 DUP4 PUSH2 0x52E JUMP JUMPDEST SWAP6 POP DUP1 NOT DUP5 AND SWAP4 POP DUP1 DUP7 AND DUP5 OR SWAP3 POP POP POP SWAP4 SWAP3 POP POP POP JUMP JUMPDEST PUSH1 0x0 DUP2 SWAP1 POP SWAP2 SWAP1 POP JUMP JUMPDEST PUSH1 0x0 DUP2 SWAP1 POP SWAP2 SWAP1 POP JUMP JUMPDEST PUSH1 0x0 PUSH2 0x5BC PUSH2 0x5B7 PUSH2 0x5B2 DUP5 PUSH2 0x58D JUMP JUMPDEST PUSH2 0x597 JUMP JUMPDEST PUSH2 0x58D JUMP JUMPDEST SWAP1 POP SWAP2 SWAP1 POP JUMP JUMPDEST PUSH1 0x0 DUP2 SWAP1 POP SWAP2 SWAP1 POP JUMP JUMPDEST PUSH2 0x5D6 DUP4 PUSH2 0x5A1 JUMP JUMPDEST PUSH2 0x5EA PUSH2 0x5E2 DUP3 PUSH2 0x5C3 JUMP JUMPDEST DUP5 DUP5 SLOAD PUSH2 0x53B JUMP JUMPDEST DUP3 SSTORE POP POP POP POP JUMP JUMPDEST PUSH1 0x0 SWAP1 JUMP JUMPDEST PUSH2 0x5FF PUSH2 0x5F2 JUMP JUMPDEST PUSH2 0x60A DUP2 DUP5 DUP5 PUSH2 0x5CD JUMP JUMPDEST POP POP POP JUMP JUMPDEST JUMPDEST DUP2 DUP2 LT ISZERO PUSH2 0x62E JUMPI PUSH2 0x623 PUSH1 0x0 DUP3 PUSH2 0x5F7 JUMP JUMPDEST PUSH1 0x1 DUP2 ADD SWAP1 POP PUSH2 0x610 JUMP JUMPDEST POP POP JUMP JUMPDEST PUSH1 0x1F DUP3 GT ISZERO PUSH2 0x673 JUMPI PUSH2 0x644 DUP2 PUSH2 0x509 JUMP JUMPDEST PUSH2 0x64D DUP5 PUSH2 0x51E JUMP JUMPDEST DUP2 ADD PUSH1 0x20 DUP6 LT ISZERO PUSH2 0x65C JUMPI DUP2 SWAP1 POP JUMPDEST PUSH2 0x670 PUSH2 0x668 DUP6 PUSH2 0x51E JUMP JUMPDEST DUP4 ADD DUP3 PUSH2 0x60F JUMP JUMPDEST POP POP JUMPDEST POP POP POP JUMP JUMPDEST PUSH1 0x0 DUP3 DUP3 SHR SWAP1 POP SWAP3 SWAP2 POP POP JUMP JUMPDEST PUSH1 0x0 PUSH2 0x696 PUSH1 0x0 NOT DUP5 PUSH1 0x8 MUL PUSH2 0x678 JUMP JUMPDEST NOT DUP1 DUP4 AND SWAP2 POP POP SWAP3 SWAP2 POP POP JUMP JUMPDEST PUSH1 0x0 PUSH2 0x6AF DUP4 DUP4 PUSH2 0x685 JUMP JUMPDEST SWAP2 POP DUP3 PUSH1 0x2 MUL DUP3 OR SWAP1 POP SWAP3 SWAP2 POP POP JUMP JUMPDEST PUSH2 0x6C8 DUP3 PUSH2 0x209 JUMP JUMPDEST PUSH8 0xFFFFFFFFFFFFFFFF DUP2 GT ISZERO PUSH2 0x6E1 JUMPI PUSH2 0x6E0 PUSH2 0x335 JUMP JUMPDEST JUMPDEST PUSH2 0x6EB DUP3 SLOAD PUSH2 0x4D8 JUMP JUMPDEST PUSH2 0x6F6 DUP3 DUP3 DUP6 PUSH2 0x632 JUMP JUMPDEST PUSH1 0x0 PUSH1 0x20 SWAP1 POP PUSH1 0x1F DUP4 GT PUSH1 0x1 DUP2 EQ PUSH2 0x729 JUMPI PUSH1 0x0 DUP5 ISZERO PUSH2 0x717 JUMPI DUP3 DUP8 ADD MLOAD SWAP1 POP JUMPDEST PUSH2 0x721 DUP6 DUP3 PUSH2 0x6A3 JUMP JUMPDEST DUP7 SSTORE POP PUSH2 0x789 JUMP JUMPDEST PUSH1 0x1F NOT DUP5 AND PUSH2 0x737 DUP7 PUSH2 0x509 JUMP JUMPDEST PUSH1 0x0 JUMPDEST DUP3 DUP2 LT ISZERO PUSH2 0x75F JUMPI DUP5 DUP10 ADD MLOAD DUP3 SSTORE PUSH1 0x1 DUP3 ADD SWAP2 POP PUSH1 0x20 DUP6 ADD SWAP5 POP PUSH1 0x20 DUP2 ADD SWAP1 POP PUSH2 0x73A JUMP JUMPDEST DUP7 DUP4 LT ISZERO PUSH2 0x77C JUMPI DUP5 DUP10 ADD MLOAD PUSH2 0x778 PUSH1 0x1F DUP10 AND DUP3 PUSH2 0x685 JUMP JUMPDEST DUP4 SSTORE POP JUMPDEST PUSH1 0x1 PUSH1 0x2 DUP9 MUL ADD DUP9 SSTORE POP POP POP JUMPDEST POP POP POP POP POP POP JUMP INVALID LOG2 PUSH5 0x6970667358 0x22 SLT KECCAK256 0xE2 MSTORE8 CHAINID SAR 0xC EQ 0x49 PC 0xF9 0xE8 0xB1 0x4F BLOCKHASH 0x2E PUSH30 0xE6035A12549E845FC87EE1744817A00DE364736F6C634300081300330000 "
				},
				"gasEstimates": {
					"creation": {
						"codeDepositCost": "398200",
						"executionCost": "24702",
						"totalCost": "422902"
					},
					"external": {
						"getInfo()": "infinite",
						"owner()": "2514",
						"setInfo(string)": "infinite"
					}
				},
				"methodIdentifiers": {
					"getInfo()": "5a9b0b89",
					"owner()": "8da5cb5b",
					"setInfo(string)": "937f6e77"
				}
			},
			"storageLayout": {
				"storage": [
					{
						"astId": 4,
						"contract": "ETH_KIPU/Register04.sol:Register04",
						"label": "storedInfo",
						"offset": 0,
						"slot": "0",
						"type": "t_string_storage"
					},
					{
						"astId": 6,
						"contract": "ETH_KIPU/Register04.sol:Register04",
						"label": "owner",
						"offset": 0,
						"slot": "1",
						"type": "t_address"
					}
				],
				"types": {
					"t_address": {
						"encoding": "inplace",
						"label": "address",
						"numberOfBytes": "20"
					},
					"t_string_storage": {
						"encoding": "bytes",
						"label": "string",
						"numberOfBytes": "32"
					}
				}
			},
			"userdoc": {
				"kind": "user",
				"methods": {
					"getInfo()": {
						"notice": "Return the stored string"
					},
					"setInfo(string)": {
						"notice": "Store `myInfo` Check if the account sending the transaction is the contract owner. In affirmative case, update `myInfo` and increase the counter. Otherwise, nothing will happen."
					}
				},
				"version": 1
			}
		}
	}
}