{
	"ETH_KIPU/Register05.sol": {
		"Register05": {
			"abi": [
				{
					"inputs": [],
					"stateMutability": "nonpayable",
					"type": "constructor"
				},
				{
					"inputs": [],
					"name": "getInfo",
					"outputs": [
						{
							"internalType": "string",
							"name": "",
							"type": "string"
						}
					],
					"stateMutability": "view",
					"type": "function"
				},
				{
					"inputs": [],
					"name": "owner",
					"outputs": [
						{
							"internalType": "address",
							"name": "",
							"type": "address"
						}
					],
					"stateMutability": "view",
					"type": "function"
				},
				{
					"inputs": [
						{
							"internalType": "string",
							"name": "myInfo",
							"type": "string"
						}
					],
					"name": "setInfo",
					"outputs": [],
					"stateMutability": "nonpayable",
					"type": "function"
				}
			],
			"devdoc": {
				"author": "Solange Gueiros",
				"kind": "dev",
				"methods": {
					"getInfo()": {
						"details": "retrieves the string of the state variable `storedInfo`",
						"returns": {
							"_0": "the stored string"
						}
					},
					"setInfo(string)": {
						"details": "require msg.sender is the owner, otherwise send an error message",
						"params": {
							"myInfo": "the new string to store logra que no se gaste gas al abortar la ejecucion revierte y manda el error"
						}
					}
				},
				"title": "Concepts: require owner",
				"version": 1
			},
			"evm": {
				"assembly": "    /* \"ETH_KIPU/Register05.sol\":125:1122  contract Register05 {... */\n  mstore(0x40, 0x80)\n    /* \"ETH_KIPU/Register05.sol\":213:264  constructor() {... */\n  callvalue\n  dup1\n  iszero\n  tag_1\n  jumpi\n  0x00\n  dup1\n  revert\ntag_1:\n  pop\n    /* \"ETH_KIPU/Register05.sol\":246:256  msg.sender */\n  caller\n    /* \"ETH_KIPU/Register05.sol\":238:243  owner */\n  0x01\n  0x00\n    /* \"ETH_KIPU/Register05.sol\":238:256  owner = msg.sender */\n  0x0100\n  exp\n  dup2\n  sload\n  dup2\n  0xffffffffffffffffffffffffffffffffffffffff\n  mul\n  not\n  and\n  swap1\n  dup4\n  0xffffffffffffffffffffffffffffffffffffffff\n  and\n  mul\n  or\n  swap1\n  sstore\n  pop\n    /* \"ETH_KIPU/Register05.sol\":125:1122  contract Register05 {... */\n  dataSize(sub_0)\n  dup1\n  dataOffset(sub_0)\n  0x00\n  codecopy\n  0x00\n  return\nstop\n\nsub_0: assembly {\n        /* \"ETH_KIPU/Register05.sol\":125:1122  contract Register05 {... */\n      mstore(0x40, 0x80)\n      callvalue\n      dup1\n      iszero\n      tag_1\n      jumpi\n      0x00\n      dup1\n      revert\n    tag_1:\n      pop\n      jumpi(tag_2, lt(calldatasize, 0x04))\n      shr(0xe0, calldataload(0x00))\n      dup1\n      0x5a9b0b89\n      eq\n      tag_3\n      jumpi\n      dup1\n      0x8da5cb5b\n      eq\n      tag_4\n      jumpi\n      dup1\n      0x937f6e77\n      eq\n      tag_5\n      jumpi\n    tag_2:\n      0x00\n      dup1\n      revert\n        /* \"ETH_KIPU/Register05.sol\":1023:1116  function getInfo() external view returns (string memory) {... */\n    tag_3:\n      tag_6\n      tag_7\n      jump\t// in\n    tag_6:\n      mload(0x40)\n      tag_8\n      swap2\n      swap1\n      tag_9\n      jump\t// in\n    tag_8:\n      mload(0x40)\n      dup1\n      swap2\n      sub\n      swap1\n      return\n        /* \"ETH_KIPU/Register05.sol\":184:204  address public owner */\n    tag_4:\n      tag_10\n      tag_11\n      jump\t// in\n    tag_10:\n      mload(0x40)\n      tag_12\n      swap2\n      swap1\n      tag_13\n      jump\t// in\n    tag_12:\n      mload(0x40)\n      dup1\n      swap2\n      sub\n      swap1\n      return\n        /* \"ETH_KIPU/Register05.sol\":700:865  function setInfo(string memory myInfo) external {... */\n    tag_5:\n      tag_14\n      0x04\n      dup1\n      calldatasize\n      sub\n      dup2\n      add\n      swap1\n      tag_15\n      swap2\n      swap1\n      tag_16\n      jump\t// in\n    tag_15:\n      tag_17\n      jump\t// in\n    tag_14:\n      stop\n        /* \"ETH_KIPU/Register05.sol\":1023:1116  function getInfo() external view returns (string memory) {... */\n    tag_7:\n        /* \"ETH_KIPU/Register05.sol\":1065:1078  string memory */\n      0x60\n        /* \"ETH_KIPU/Register05.sol\":1098:1108  storedInfo */\n      0x00\n        /* \"ETH_KIPU/Register05.sol\":1091:1108  return storedInfo */\n      dup1\n      sload\n      tag_19\n      swap1\n      tag_20\n      jump\t// in\n    tag_19:\n      dup1\n      0x1f\n      add\n      0x20\n      dup1\n      swap2\n      div\n      mul\n      0x20\n      add\n      mload(0x40)\n      swap1\n      dup2\n      add\n      0x40\n      mstore\n      dup1\n      swap3\n      swap2\n      swap1\n      dup2\n      dup2\n      mstore\n      0x20\n      add\n      dup3\n      dup1\n      sload\n      tag_21\n      swap1\n      tag_20\n      jump\t// in\n    tag_21:\n      dup1\n      iszero\n      tag_22\n      jumpi\n      dup1\n      0x1f\n      lt\n      tag_23\n      jumpi\n      0x0100\n      dup1\n      dup4\n      sload\n      div\n      mul\n      dup4\n      mstore\n      swap2\n      0x20\n      add\n      swap2\n      jump(tag_22)\n    tag_23:\n      dup3\n      add\n      swap2\n      swap1\n      0x00\n      mstore\n      keccak256(0x00, 0x20)\n      swap1\n    tag_24:\n      dup2\n      sload\n      dup2\n      mstore\n      swap1\n      0x01\n      add\n      swap1\n      0x20\n      add\n      dup1\n      dup4\n      gt\n      tag_24\n      jumpi\n      dup3\n      swap1\n      sub\n      0x1f\n      and\n      dup3\n      add\n      swap2\n    tag_22:\n      pop\n      pop\n      pop\n      pop\n      pop\n      swap1\n      pop\n        /* \"ETH_KIPU/Register05.sol\":1023:1116  function getInfo() external view returns (string memory) {... */\n      swap1\n      jump\t// out\n        /* \"ETH_KIPU/Register05.sol\":184:204  address public owner */\n    tag_11:\n      0x01\n      0x00\n      swap1\n      sload\n      swap1\n      0x0100\n      exp\n      swap1\n      div\n      0xffffffffffffffffffffffffffffffffffffffff\n      and\n      dup2\n      jump\t// out\n        /* \"ETH_KIPU/Register05.sol\":700:865  function setInfo(string memory myInfo) external {... */\n    tag_17:\n        /* \"ETH_KIPU/Register05.sol\":781:786  owner */\n      0x01\n      0x00\n      swap1\n      sload\n      swap1\n      0x0100\n      exp\n      swap1\n      div\n      0xffffffffffffffffffffffffffffffffffffffff\n      and\n        /* \"ETH_KIPU/Register05.sol\":767:786  msg.sender == owner */\n      0xffffffffffffffffffffffffffffffffffffffff\n      and\n        /* \"ETH_KIPU/Register05.sol\":767:777  msg.sender */\n      caller\n        /* \"ETH_KIPU/Register05.sol\":767:786  msg.sender == owner */\n      0xffffffffffffffffffffffffffffffffffffffff\n      and\n      eq\n        /* \"ETH_KIPU/Register05.sol\":759:801  require(msg.sender == owner, \"Only owner\") */\n      tag_26\n      jumpi\n      mload(0x40)\n      0x08c379a000000000000000000000000000000000000000000000000000000000\n      dup2\n      mstore\n      0x04\n      add\n      tag_27\n      swap1\n      tag_28\n      jump\t// in\n    tag_27:\n      mload(0x40)\n      dup1\n      swap2\n      sub\n      swap1\n      revert\n    tag_26:\n        /* \"ETH_KIPU/Register05.sol\":851:857  myInfo */\n      dup1\n        /* \"ETH_KIPU/Register05.sol\":838:848  storedInfo */\n      0x00\n        /* \"ETH_KIPU/Register05.sol\":838:857  storedInfo = myInfo */\n      swap1\n      dup2\n      tag_29\n      swap2\n      swap1\n      tag_30\n      jump\t// in\n    tag_29:\n      pop\n        /* \"ETH_KIPU/Register05.sol\":700:865  function setInfo(string memory myInfo) external {... */\n      pop\n      jump\t// out\n        /* \"#utility.yul\":7:106   */\n    tag_31:\n        /* \"#utility.yul\":59:65   */\n      0x00\n        /* \"#utility.yul\":93:98   */\n      dup2\n        /* \"#utility.yul\":87:99   */\n      mload\n        /* \"#utility.yul\":77:99   */\n      swap1\n      pop\n        /* \"#utility.yul\":7:106   */\n      swap2\n      swap1\n      pop\n      jump\t// out\n        /* \"#utility.yul\":112:281   */\n    tag_32:\n        /* \"#utility.yul\":196:207   */\n      0x00\n        /* \"#utility.yul\":230:236   */\n      dup3\n        /* \"#utility.yul\":225:228   */\n      dup3\n        /* \"#utility.yul\":218:237   */\n      mstore\n        /* \"#utility.yul\":270:274   */\n      0x20\n        /* \"#utility.yul\":265:268   */\n      dup3\n        /* \"#utility.yul\":261:275   */\n      add\n        /* \"#utility.yul\":246:275   */\n      swap1\n      pop\n        /* \"#utility.yul\":112:281   */\n      swap3\n      swap2\n      pop\n      pop\n      jump\t// out\n        /* \"#utility.yul\":287:533   */\n    tag_33:\n        /* \"#utility.yul\":368:369   */\n      0x00\n        /* \"#utility.yul\":378:491   */\n    tag_74:\n        /* \"#utility.yul\":392:398   */\n      dup4\n        /* \"#utility.yul\":389:390   */\n      dup2\n        /* \"#utility.yul\":386:399   */\n      lt\n        /* \"#utility.yul\":378:491   */\n      iszero\n      tag_76\n      jumpi\n        /* \"#utility.yul\":477:478   */\n      dup1\n        /* \"#utility.yul\":472:475   */\n      dup3\n        /* \"#utility.yul\":468:479   */\n      add\n        /* \"#utility.yul\":462:480   */\n      mload\n        /* \"#utility.yul\":458:459   */\n      dup2\n        /* \"#utility.yul\":453:456   */\n      dup5\n        /* \"#utility.yul\":449:460   */\n      add\n        /* \"#utility.yul\":442:481   */\n      mstore\n        /* \"#utility.yul\":414:416   */\n      0x20\n        /* \"#utility.yul\":411:412   */\n      dup2\n        /* \"#utility.yul\":407:417   */\n      add\n        /* \"#utility.yul\":402:417   */\n      swap1\n      pop\n        /* \"#utility.yul\":378:491   */\n      jump(tag_74)\n    tag_76:\n        /* \"#utility.yul\":525:526   */\n      0x00\n        /* \"#utility.yul\":516:522   */\n      dup5\n        /* \"#utility.yul\":511:514   */\n      dup5\n        /* \"#utility.yul\":507:523   */\n      add\n        /* \"#utility.yul\":500:527   */\n      mstore\n        /* \"#utility.yul\":349:533   */\n      pop\n        /* \"#utility.yul\":287:533   */\n      pop\n      pop\n      pop\n      jump\t// out\n        /* \"#utility.yul\":539:641   */\n    tag_34:\n        /* \"#utility.yul\":580:586   */\n      0x00\n        /* \"#utility.yul\":631:633   */\n      0x1f\n        /* \"#utility.yul\":627:634   */\n      not\n        /* \"#utility.yul\":622:624   */\n      0x1f\n        /* \"#utility.yul\":615:620   */\n      dup4\n        /* \"#utility.yul\":611:625   */\n      add\n        /* \"#utility.yul\":607:635   */\n      and\n        /* \"#utility.yul\":597:635   */\n      swap1\n      pop\n        /* \"#utility.yul\":539:641   */\n      swap2\n      swap1\n      pop\n      jump\t// out\n        /* \"#utility.yul\":647:1024   */\n    tag_35:\n        /* \"#utility.yul\":735:738   */\n      0x00\n        /* \"#utility.yul\":763:802   */\n      tag_79\n        /* \"#utility.yul\":796:801   */\n      dup3\n        /* \"#utility.yul\":763:802   */\n      tag_31\n      jump\t// in\n    tag_79:\n        /* \"#utility.yul\":818:889   */\n      tag_80\n        /* \"#utility.yul\":882:888   */\n      dup2\n        /* \"#utility.yul\":877:880   */\n      dup6\n        /* \"#utility.yul\":818:889   */\n      tag_32\n      jump\t// in\n    tag_80:\n        /* \"#utility.yul\":811:889   */\n      swap4\n      pop\n        /* \"#utility.yul\":898:963   */\n      tag_81\n        /* \"#utility.yul\":956:962   */\n      dup2\n        /* \"#utility.yul\":951:954   */\n      dup6\n        /* \"#utility.yul\":944:948   */\n      0x20\n        /* \"#utility.yul\":937:942   */\n      dup7\n        /* \"#utility.yul\":933:949   */\n      add\n        /* \"#utility.yul\":898:963   */\n      tag_33\n      jump\t// in\n    tag_81:\n        /* \"#utility.yul\":988:1017   */\n      tag_82\n        /* \"#utility.yul\":1010:1016   */\n      dup2\n        /* \"#utility.yul\":988:1017   */\n      tag_34\n      jump\t// in\n    tag_82:\n        /* \"#utility.yul\":983:986   */\n      dup5\n        /* \"#utility.yul\":979:1018   */\n      add\n        /* \"#utility.yul\":972:1018   */\n      swap2\n      pop\n        /* \"#utility.yul\":739:1024   */\n      pop\n        /* \"#utility.yul\":647:1024   */\n      swap3\n      swap2\n      pop\n      pop\n      jump\t// out\n        /* \"#utility.yul\":1030:1343   */\n    tag_9:\n        /* \"#utility.yul\":1143:1147   */\n      0x00\n        /* \"#utility.yul\":1181:1183   */\n      0x20\n        /* \"#utility.yul\":1170:1179   */\n      dup3\n        /* \"#utility.yul\":1166:1184   */\n      add\n        /* \"#utility.yul\":1158:1184   */\n      swap1\n      pop\n        /* \"#utility.yul\":1230:1239   */\n      dup2\n        /* \"#utility.yul\":1224:1228   */\n      dup2\n        /* \"#utility.yul\":1220:1240   */\n      sub\n        /* \"#utility.yul\":1216:1217   */\n      0x00\n        /* \"#utility.yul\":1205:1214   */\n      dup4\n        /* \"#utility.yul\":1201:1218   */\n      add\n        /* \"#utility.yul\":1194:1241   */\n      mstore\n        /* \"#utility.yul\":1258:1336   */\n      tag_84\n        /* \"#utility.yul\":1331:1335   */\n      dup2\n        /* \"#utility.yul\":1322:1328   */\n      dup5\n        /* \"#utility.yul\":1258:1336   */\n      tag_35\n      jump\t// in\n    tag_84:\n        /* \"#utility.yul\":1250:1336   */\n      swap1\n      pop\n        /* \"#utility.yul\":1030:1343   */\n      swap3\n      swap2\n      pop\n      pop\n      jump\t// out\n        /* \"#utility.yul\":1349:1475   */\n    tag_36:\n        /* \"#utility.yul\":1386:1393   */\n      0x00\n        /* \"#utility.yul\":1426:1468   */\n      0xffffffffffffffffffffffffffffffffffffffff\n        /* \"#utility.yul\":1419:1424   */\n      dup3\n        /* \"#utility.yul\":1415:1469   */\n      and\n        /* \"#utility.yul\":1404:1469   */\n      swap1\n      pop\n        /* \"#utility.yul\":1349:1475   */\n      swap2\n      swap1\n      pop\n      jump\t// out\n        /* \"#utility.yul\":1481:1577   */\n    tag_37:\n        /* \"#utility.yul\":1518:1525   */\n      0x00\n        /* \"#utility.yul\":1547:1571   */\n      tag_87\n        /* \"#utility.yul\":1565:1570   */\n      dup3\n        /* \"#utility.yul\":1547:1571   */\n      tag_36\n      jump\t// in\n    tag_87:\n        /* \"#utility.yul\":1536:1571   */\n      swap1\n      pop\n        /* \"#utility.yul\":1481:1577   */\n      swap2\n      swap1\n      pop\n      jump\t// out\n        /* \"#utility.yul\":1583:1701   */\n    tag_38:\n        /* \"#utility.yul\":1670:1694   */\n      tag_89\n        /* \"#utility.yul\":1688:1693   */\n      dup2\n        /* \"#utility.yul\":1670:1694   */\n      tag_37\n      jump\t// in\n    tag_89:\n        /* \"#utility.yul\":1665:1668   */\n      dup3\n        /* \"#utility.yul\":1658:1695   */\n      mstore\n        /* \"#utility.yul\":1583:1701   */\n      pop\n      pop\n      jump\t// out\n        /* \"#utility.yul\":1707:1929   */\n    tag_13:\n        /* \"#utility.yul\":1800:1804   */\n      0x00\n        /* \"#utility.yul\":1838:1840   */\n      0x20\n        /* \"#utility.yul\":1827:1836   */\n      dup3\n        /* \"#utility.yul\":1823:1841   */\n      add\n        /* \"#utility.yul\":1815:1841   */\n      swap1\n      pop\n        /* \"#utility.yul\":1851:1922   */\n      tag_91\n        /* \"#utility.yul\":1919:1920   */\n      0x00\n        /* \"#utility.yul\":1908:1917   */\n      dup4\n        /* \"#utility.yul\":1904:1921   */\n      add\n        /* \"#utility.yul\":1895:1901   */\n      dup5\n        /* \"#utility.yul\":1851:1922   */\n      tag_38\n      jump\t// in\n    tag_91:\n        /* \"#utility.yul\":1707:1929   */\n      swap3\n      swap2\n      pop\n      pop\n      jump\t// out\n        /* \"#utility.yul\":1935:2010   */\n    tag_39:\n        /* \"#utility.yul\":1968:1974   */\n      0x00\n        /* \"#utility.yul\":2001:2003   */\n      0x40\n        /* \"#utility.yul\":1995:2004   */\n      mload\n        /* \"#utility.yul\":1985:2004   */\n      swap1\n      pop\n        /* \"#utility.yul\":1935:2010   */\n      swap1\n      jump\t// out\n        /* \"#utility.yul\":2016:2133   */\n    tag_40:\n        /* \"#utility.yul\":2125:2126   */\n      0x00\n        /* \"#utility.yul\":2122:2123   */\n      dup1\n        /* \"#utility.yul\":2115:2127   */\n      revert\n        /* \"#utility.yul\":2139:2256   */\n    tag_41:\n        /* \"#utility.yul\":2248:2249   */\n      0x00\n        /* \"#utility.yul\":2245:2246   */\n      dup1\n        /* \"#utility.yul\":2238:2250   */\n      revert\n        /* \"#utility.yul\":2262:2379   */\n    tag_42:\n        /* \"#utility.yul\":2371:2372   */\n      0x00\n        /* \"#utility.yul\":2368:2369   */\n      dup1\n        /* \"#utility.yul\":2361:2373   */\n      revert\n        /* \"#utility.yul\":2385:2502   */\n    tag_43:\n        /* \"#utility.yul\":2494:2495   */\n      0x00\n        /* \"#utility.yul\":2491:2492   */\n      dup1\n        /* \"#utility.yul\":2484:2496   */\n      revert\n        /* \"#utility.yul\":2508:2688   */\n    tag_44:\n        /* \"#utility.yul\":2556:2633   */\n      0x4e487b7100000000000000000000000000000000000000000000000000000000\n        /* \"#utility.yul\":2553:2554   */\n      0x00\n        /* \"#utility.yul\":2546:2634   */\n      mstore\n        /* \"#utility.yul\":2653:2657   */\n      0x41\n        /* \"#utility.yul\":2650:2651   */\n      0x04\n        /* \"#utility.yul\":2643:2658   */\n      mstore\n        /* \"#utility.yul\":2677:2681   */\n      0x24\n        /* \"#utility.yul\":2674:2675   */\n      0x00\n        /* \"#utility.yul\":2667:2682   */\n      revert\n        /* \"#utility.yul\":2694:2975   */\n    tag_45:\n        /* \"#utility.yul\":2777:2804   */\n      tag_99\n        /* \"#utility.yul\":2799:2803   */\n      dup3\n        /* \"#utility.yul\":2777:2804   */\n      tag_34\n      jump\t// in\n    tag_99:\n        /* \"#utility.yul\":2769:2775   */\n      dup2\n        /* \"#utility.yul\":2765:2805   */\n      add\n        /* \"#utility.yul\":2907:2913   */\n      dup2\n        /* \"#utility.yul\":2895:2905   */\n      dup2\n        /* \"#utility.yul\":2892:2914   */\n      lt\n        /* \"#utility.yul\":2871:2889   */\n      0xffffffffffffffff\n        /* \"#utility.yul\":2859:2869   */\n      dup3\n        /* \"#utility.yul\":2856:2890   */\n      gt\n        /* \"#utility.yul\":2853:2915   */\n      or\n        /* \"#utility.yul\":2850:2938   */\n      iszero\n      tag_100\n      jumpi\n        /* \"#utility.yul\":2918:2936   */\n      tag_101\n      tag_44\n      jump\t// in\n    tag_101:\n        /* \"#utility.yul\":2850:2938   */\n    tag_100:\n        /* \"#utility.yul\":2958:2968   */\n      dup1\n        /* \"#utility.yul\":2954:2956   */\n      0x40\n        /* \"#utility.yul\":2947:2969   */\n      mstore\n        /* \"#utility.yul\":2737:2975   */\n      pop\n        /* \"#utility.yul\":2694:2975   */\n      pop\n      pop\n      jump\t// out\n        /* \"#utility.yul\":2981:3110   */\n    tag_46:\n        /* \"#utility.yul\":3015:3021   */\n      0x00\n        /* \"#utility.yul\":3042:3062   */\n      tag_103\n      tag_39\n      jump\t// in\n    tag_103:\n        /* \"#utility.yul\":3032:3062   */\n      swap1\n      pop\n        /* \"#utility.yul\":3071:3104   */\n      tag_104\n        /* \"#utility.yul\":3099:3103   */\n      dup3\n        /* \"#utility.yul\":3091:3097   */\n      dup3\n        /* \"#utility.yul\":3071:3104   */\n      tag_45\n      jump\t// in\n    tag_104:\n        /* \"#utility.yul\":2981:3110   */\n      swap2\n      swap1\n      pop\n      jump\t// out\n        /* \"#utility.yul\":3116:3424   */\n    tag_47:\n        /* \"#utility.yul\":3178:3182   */\n      0x00\n        /* \"#utility.yul\":3268:3286   */\n      0xffffffffffffffff\n        /* \"#utility.yul\":3260:3266   */\n      dup3\n        /* \"#utility.yul\":3257:3287   */\n      gt\n        /* \"#utility.yul\":3254:3310   */\n      iszero\n      tag_106\n      jumpi\n        /* \"#utility.yul\":3290:3308   */\n      tag_107\n      tag_44\n      jump\t// in\n    tag_107:\n        /* \"#utility.yul\":3254:3310   */\n    tag_106:\n        /* \"#utility.yul\":3328:3357   */\n      tag_108\n        /* \"#utility.yul\":3350:3356   */\n      dup3\n        /* \"#utility.yul\":3328:3357   */\n      tag_34\n      jump\t// in\n    tag_108:\n        /* \"#utility.yul\":3320:3357   */\n      swap1\n      pop\n        /* \"#utility.yul\":3412:3416   */\n      0x20\n        /* \"#utility.yul\":3406:3410   */\n      dup2\n        /* \"#utility.yul\":3402:3417   */\n      add\n        /* \"#utility.yul\":3394:3417   */\n      swap1\n      pop\n        /* \"#utility.yul\":3116:3424   */\n      swap2\n      swap1\n      pop\n      jump\t// out\n        /* \"#utility.yul\":3430:3576   */\n    tag_48:\n        /* \"#utility.yul\":3527:3533   */\n      dup3\n        /* \"#utility.yul\":3522:3525   */\n      dup2\n        /* \"#utility.yul\":3517:3520   */\n      dup4\n        /* \"#utility.yul\":3504:3534   */\n      calldatacopy\n        /* \"#utility.yul\":3568:3569   */\n      0x00\n        /* \"#utility.yul\":3559:3565   */\n      dup4\n        /* \"#utility.yul\":3554:3557   */\n      dup4\n        /* \"#utility.yul\":3550:3566   */\n      add\n        /* \"#utility.yul\":3543:3570   */\n      mstore\n        /* \"#utility.yul\":3430:3576   */\n      pop\n      pop\n      pop\n      jump\t// out\n        /* \"#utility.yul\":3582:4007   */\n    tag_49:\n        /* \"#utility.yul\":3660:3665   */\n      0x00\n        /* \"#utility.yul\":3685:3751   */\n      tag_111\n        /* \"#utility.yul\":3701:3750   */\n      tag_112\n        /* \"#utility.yul\":3743:3749   */\n      dup5\n        /* \"#utility.yul\":3701:3750   */\n      tag_47\n      jump\t// in\n    tag_112:\n        /* \"#utility.yul\":3685:3751   */\n      tag_46\n      jump\t// in\n    tag_111:\n        /* \"#utility.yul\":3676:3751   */\n      swap1\n      pop\n        /* \"#utility.yul\":3774:3780   */\n      dup3\n        /* \"#utility.yul\":3767:3772   */\n      dup2\n        /* \"#utility.yul\":3760:3781   */\n      mstore\n        /* \"#utility.yul\":3812:3816   */\n      0x20\n        /* \"#utility.yul\":3805:3810   */\n      dup2\n        /* \"#utility.yul\":3801:3817   */\n      add\n        /* \"#utility.yul\":3850:3853   */\n      dup5\n        /* \"#utility.yul\":3841:3847   */\n      dup5\n        /* \"#utility.yul\":3836:3839   */\n      dup5\n        /* \"#utility.yul\":3832:3848   */\n      add\n        /* \"#utility.yul\":3829:3854   */\n      gt\n        /* \"#utility.yul\":3826:3938   */\n      iszero\n      tag_113\n      jumpi\n        /* \"#utility.yul\":3857:3936   */\n      tag_114\n      tag_43\n      jump\t// in\n    tag_114:\n        /* \"#utility.yul\":3826:3938   */\n    tag_113:\n        /* \"#utility.yul\":3947:4001   */\n      tag_115\n        /* \"#utility.yul\":3994:4000   */\n      dup5\n        /* \"#utility.yul\":3989:3992   */\n      dup3\n        /* \"#utility.yul\":3984:3987   */\n      dup6\n        /* \"#utility.yul\":3947:4001   */\n      tag_48\n      jump\t// in\n    tag_115:\n        /* \"#utility.yul\":3666:4007   */\n      pop\n        /* \"#utility.yul\":3582:4007   */\n      swap4\n      swap3\n      pop\n      pop\n      pop\n      jump\t// out\n        /* \"#utility.yul\":4027:4367   */\n    tag_50:\n        /* \"#utility.yul\":4083:4088   */\n      0x00\n        /* \"#utility.yul\":4132:4135   */\n      dup3\n        /* \"#utility.yul\":4125:4129   */\n      0x1f\n        /* \"#utility.yul\":4117:4123   */\n      dup4\n        /* \"#utility.yul\":4113:4130   */\n      add\n        /* \"#utility.yul\":4109:4136   */\n      slt\n        /* \"#utility.yul\":4099:4221   */\n      tag_117\n      jumpi\n        /* \"#utility.yul\":4140:4219   */\n      tag_118\n      tag_42\n      jump\t// in\n    tag_118:\n        /* \"#utility.yul\":4099:4221   */\n    tag_117:\n        /* \"#utility.yul\":4257:4263   */\n      dup2\n        /* \"#utility.yul\":4244:4264   */\n      calldataload\n        /* \"#utility.yul\":4282:4361   */\n      tag_119\n        /* \"#utility.yul\":4357:4360   */\n      dup5\n        /* \"#utility.yul\":4349:4355   */\n      dup3\n        /* \"#utility.yul\":4342:4346   */\n      0x20\n        /* \"#utility.yul\":4334:4340   */\n      dup7\n        /* \"#utility.yul\":4330:4347   */\n      add\n        /* \"#utility.yul\":4282:4361   */\n      tag_49\n      jump\t// in\n    tag_119:\n        /* \"#utility.yul\":4273:4361   */\n      swap2\n      pop\n        /* \"#utility.yul\":4089:4367   */\n      pop\n        /* \"#utility.yul\":4027:4367   */\n      swap3\n      swap2\n      pop\n      pop\n      jump\t// out\n        /* \"#utility.yul\":4373:4882   */\n    tag_16:\n        /* \"#utility.yul\":4442:4448   */\n      0x00\n        /* \"#utility.yul\":4491:4493   */\n      0x20\n        /* \"#utility.yul\":4479:4488   */\n      dup3\n        /* \"#utility.yul\":4470:4477   */\n      dup5\n        /* \"#utility.yul\":4466:4489   */\n      sub\n        /* \"#utility.yul\":4462:4494   */\n      slt\n        /* \"#utility.yul\":4459:4578   */\n      iszero\n      tag_121\n      jumpi\n        /* \"#utility.yul\":4497:4576   */\n      tag_122\n      tag_40\n      jump\t// in\n    tag_122:\n        /* \"#utility.yul\":4459:4578   */\n    tag_121:\n        /* \"#utility.yul\":4645:4646   */\n      0x00\n        /* \"#utility.yul\":4634:4643   */\n      dup3\n        /* \"#utility.yul\":4630:4647   */\n      add\n        /* \"#utility.yul\":4617:4648   */\n      calldataload\n        /* \"#utility.yul\":4675:4693   */\n      0xffffffffffffffff\n        /* \"#utility.yul\":4667:4673   */\n      dup2\n        /* \"#utility.yul\":4664:4694   */\n      gt\n        /* \"#utility.yul\":4661:4778   */\n      iszero\n      tag_123\n      jumpi\n        /* \"#utility.yul\":4697:4776   */\n      tag_124\n      tag_41\n      jump\t// in\n    tag_124:\n        /* \"#utility.yul\":4661:4778   */\n    tag_123:\n        /* \"#utility.yul\":4802:4865   */\n      tag_125\n        /* \"#utility.yul\":4857:4864   */\n      dup5\n        /* \"#utility.yul\":4848:4854   */\n      dup3\n        /* \"#utility.yul\":4837:4846   */\n      dup6\n        /* \"#utility.yul\":4833:4855   */\n      add\n        /* \"#utility.yul\":4802:4865   */\n      tag_50\n      jump\t// in\n    tag_125:\n        /* \"#utility.yul\":4792:4865   */\n      swap2\n      pop\n        /* \"#utility.yul\":4588:4875   */\n      pop\n        /* \"#utility.yul\":4373:4882   */\n      swap3\n      swap2\n      pop\n      pop\n      jump\t// out\n        /* \"#utility.yul\":4888:5068   */\n    tag_51:\n        /* \"#utility.yul\":4936:5013   */\n      0x4e487b7100000000000000000000000000000000000000000000000000000000\n        /* \"#utility.yul\":4933:4934   */\n      0x00\n        /* \"#utility.yul\":4926:5014   */\n      mstore\n        /* \"#utility.yul\":5033:5037   */\n      0x22\n        /* \"#utility.yul\":5030:5031   */\n      0x04\n        /* \"#utility.yul\":5023:5038   */\n      mstore\n        /* \"#utility.yul\":5057:5061   */\n      0x24\n        /* \"#utility.yul\":5054:5055   */\n      0x00\n        /* \"#utility.yul\":5047:5062   */\n      revert\n        /* \"#utility.yul\":5074:5394   */\n    tag_20:\n        /* \"#utility.yul\":5118:5124   */\n      0x00\n        /* \"#utility.yul\":5155:5156   */\n      0x02\n        /* \"#utility.yul\":5149:5153   */\n      dup3\n        /* \"#utility.yul\":5145:5157   */\n      div\n        /* \"#utility.yul\":5135:5157   */\n      swap1\n      pop\n        /* \"#utility.yul\":5202:5203   */\n      0x01\n        /* \"#utility.yul\":5196:5200   */\n      dup3\n        /* \"#utility.yul\":5192:5204   */\n      and\n        /* \"#utility.yul\":5223:5241   */\n      dup1\n        /* \"#utility.yul\":5213:5294   */\n      tag_128\n      jumpi\n        /* \"#utility.yul\":5279:5283   */\n      0x7f\n        /* \"#utility.yul\":5271:5277   */\n      dup3\n        /* \"#utility.yul\":5267:5284   */\n      and\n        /* \"#utility.yul\":5257:5284   */\n      swap2\n      pop\n        /* \"#utility.yul\":5213:5294   */\n    tag_128:\n        /* \"#utility.yul\":5341:5343   */\n      0x20\n        /* \"#utility.yul\":5333:5339   */\n      dup3\n        /* \"#utility.yul\":5330:5344   */\n      lt\n        /* \"#utility.yul\":5310:5328   */\n      dup2\n        /* \"#utility.yul\":5307:5345   */\n      sub\n        /* \"#utility.yul\":5304:5388   */\n      tag_129\n      jumpi\n        /* \"#utility.yul\":5360:5378   */\n      tag_130\n      tag_51\n      jump\t// in\n    tag_130:\n        /* \"#utility.yul\":5304:5388   */\n    tag_129:\n        /* \"#utility.yul\":5125:5394   */\n      pop\n        /* \"#utility.yul\":5074:5394   */\n      swap2\n      swap1\n      pop\n      jump\t// out\n        /* \"#utility.yul\":5400:5560   */\n    tag_52:\n        /* \"#utility.yul\":5540:5552   */\n      0x4f6e6c79206f776e657200000000000000000000000000000000000000000000\n        /* \"#utility.yul\":5536:5537   */\n      0x00\n        /* \"#utility.yul\":5528:5534   */\n      dup3\n        /* \"#utility.yul\":5524:5538   */\n      add\n        /* \"#utility.yul\":5517:5553   */\n      mstore\n        /* \"#utility.yul\":5400:5560   */\n      pop\n      jump\t// out\n        /* \"#utility.yul\":5566:5932   */\n    tag_53:\n        /* \"#utility.yul\":5708:5711   */\n      0x00\n        /* \"#utility.yul\":5729:5796   */\n      tag_133\n        /* \"#utility.yul\":5793:5795   */\n      0x0a\n        /* \"#utility.yul\":5788:5791   */\n      dup4\n        /* \"#utility.yul\":5729:5796   */\n      tag_32\n      jump\t// in\n    tag_133:\n        /* \"#utility.yul\":5722:5796   */\n      swap2\n      pop\n        /* \"#utility.yul\":5805:5898   */\n      tag_134\n        /* \"#utility.yul\":5894:5897   */\n      dup3\n        /* \"#utility.yul\":5805:5898   */\n      tag_52\n      jump\t// in\n    tag_134:\n        /* \"#utility.yul\":5923:5925   */\n      0x20\n        /* \"#utility.yul\":5918:5921   */\n      dup3\n        /* \"#utility.yul\":5914:5926   */\n      add\n        /* \"#utility.yul\":5907:5926   */\n      swap1\n      pop\n        /* \"#utility.yul\":5566:5932   */\n      swap2\n      swap1\n      pop\n      jump\t// out\n        /* \"#utility.yul\":5938:6357   */\n    tag_28:\n        /* \"#utility.yul\":6104:6108   */\n      0x00\n        /* \"#utility.yul\":6142:6144   */\n      0x20\n        /* \"#utility.yul\":6131:6140   */\n      dup3\n        /* \"#utility.yul\":6127:6145   */\n      add\n        /* \"#utility.yul\":6119:6145   */\n      swap1\n      pop\n        /* \"#utility.yul\":6191:6200   */\n      dup2\n        /* \"#utility.yul\":6185:6189   */\n      dup2\n        /* \"#utility.yul\":6181:6201   */\n      sub\n        /* \"#utility.yul\":6177:6178   */\n      0x00\n        /* \"#utility.yul\":6166:6175   */\n      dup4\n        /* \"#utility.yul\":6162:6179   */\n      add\n        /* \"#utility.yul\":6155:6202   */\n      mstore\n        /* \"#utility.yul\":6219:6350   */\n      tag_136\n        /* \"#utility.yul\":6345:6349   */\n      dup2\n        /* \"#utility.yul\":6219:6350   */\n      tag_53\n      jump\t// in\n    tag_136:\n        /* \"#utility.yul\":6211:6350   */\n      swap1\n      pop\n        /* \"#utility.yul\":5938:6357   */\n      swap2\n      swap1\n      pop\n      jump\t// out\n        /* \"#utility.yul\":6363:6504   */\n    tag_54:\n        /* \"#utility.yul\":6412:6416   */\n      0x00\n        /* \"#utility.yul\":6435:6438   */\n      dup2\n        /* \"#utility.yul\":6427:6438   */\n      swap1\n      pop\n        /* \"#utility.yul\":6458:6461   */\n      dup2\n        /* \"#utility.yul\":6455:6456   */\n      0x00\n        /* \"#utility.yul\":6448:6462   */\n      mstore\n        /* \"#utility.yul\":6492:6496   */\n      0x20\n        /* \"#utility.yul\":6489:6490   */\n      0x00\n        /* \"#utility.yul\":6479:6497   */\n      keccak256\n        /* \"#utility.yul\":6471:6497   */\n      swap1\n      pop\n        /* \"#utility.yul\":6363:6504   */\n      swap2\n      swap1\n      pop\n      jump\t// out\n        /* \"#utility.yul\":6510:6603   */\n    tag_55:\n        /* \"#utility.yul\":6547:6553   */\n      0x00\n        /* \"#utility.yul\":6594:6596   */\n      0x20\n        /* \"#utility.yul\":6589:6591   */\n      0x1f\n        /* \"#utility.yul\":6582:6587   */\n      dup4\n        /* \"#utility.yul\":6578:6592   */\n      add\n        /* \"#utility.yul\":6574:6597   */\n      div\n        /* \"#utility.yul\":6564:6597   */\n      swap1\n      pop\n        /* \"#utility.yul\":6510:6603   */\n      swap2\n      swap1\n      pop\n      jump\t// out\n        /* \"#utility.yul\":6609:6716   */\n    tag_56:\n        /* \"#utility.yul\":6653:6661   */\n      0x00\n        /* \"#utility.yul\":6703:6708   */\n      dup3\n        /* \"#utility.yul\":6697:6701   */\n      dup3\n        /* \"#utility.yul\":6693:6709   */\n      shl\n        /* \"#utility.yul\":6672:6709   */\n      swap1\n      pop\n        /* \"#utility.yul\":6609:6716   */\n      swap3\n      swap2\n      pop\n      pop\n      jump\t// out\n        /* \"#utility.yul\":6722:7115   */\n    tag_57:\n        /* \"#utility.yul\":6791:6797   */\n      0x00\n        /* \"#utility.yul\":6841:6842   */\n      0x08\n        /* \"#utility.yul\":6829:6839   */\n      dup4\n        /* \"#utility.yul\":6825:6843   */\n      mul\n        /* \"#utility.yul\":6864:6961   */\n      tag_141\n        /* \"#utility.yul\":6894:6960   */\n      0xffffffffffffffffffffffffffffffffffffffffffffffffffffffffffffffff\n        /* \"#utility.yul\":6883:6892   */\n      dup3\n        /* \"#utility.yul\":6864:6961   */\n      tag_56\n      jump\t// in\n    tag_141:\n        /* \"#utility.yul\":6982:7021   */\n      tag_142\n        /* \"#utility.yul\":7012:7020   */\n      dup7\n        /* \"#utility.yul\":7001:7010   */\n      dup4\n        /* \"#utility.yul\":6982:7021   */\n      tag_56\n      jump\t// in\n    tag_142:\n        /* \"#utility.yul\":6970:7021   */\n      swap6\n      pop\n        /* \"#utility.yul\":7054:7058   */\n      dup1\n        /* \"#utility.yul\":7050:7059   */\n      not\n        /* \"#utility.yul\":7043:7048   */\n      dup5\n        /* \"#utility.yul\":7039:7060   */\n      and\n        /* \"#utility.yul\":7030:7060   */\n      swap4\n      pop\n        /* \"#utility.yul\":7103:7107   */\n      dup1\n        /* \"#utility.yul\":7093:7101   */\n      dup7\n        /* \"#utility.yul\":7089:7108   */\n      and\n        /* \"#utility.yul\":7082:7087   */\n      dup5\n        /* \"#utility.yul\":7079:7109   */\n      or\n        /* \"#utility.yul\":7069:7109   */\n      swap3\n      pop\n        /* \"#utility.yul\":6798:7115   */\n      pop\n      pop\n        /* \"#utility.yul\":6722:7115   */\n      swap4\n      swap3\n      pop\n      pop\n      pop\n      jump\t// out\n        /* \"#utility.yul\":7121:7198   */\n    tag_58:\n        /* \"#utility.yul\":7158:7165   */\n      0x00\n        /* \"#utility.yul\":7187:7192   */\n      dup2\n        /* \"#utility.yul\":7176:7192   */\n      swap1\n      pop\n        /* \"#utility.yul\":7121:7198   */\n      swap2\n      swap1\n      pop\n      jump\t// out\n        /* \"#utility.yul\":7204:7264   */\n    tag_59:\n        /* \"#utility.yul\":7232:7235   */\n      0x00\n        /* \"#utility.yul\":7253:7258   */\n      dup2\n        /* \"#utility.yul\":7246:7258   */\n      swap1\n      pop\n        /* \"#utility.yul\":7204:7264   */\n      swap2\n      swap1\n      pop\n      jump\t// out\n        /* \"#utility.yul\":7270:7412   */\n    tag_60:\n        /* \"#utility.yul\":7320:7329   */\n      0x00\n        /* \"#utility.yul\":7353:7406   */\n      tag_146\n        /* \"#utility.yul\":7371:7405   */\n      tag_147\n        /* \"#utility.yul\":7380:7404   */\n      tag_148\n        /* \"#utility.yul\":7398:7403   */\n      dup5\n        /* \"#utility.yul\":7380:7404   */\n      tag_58\n      jump\t// in\n    tag_148:\n        /* \"#utility.yul\":7371:7405   */\n      tag_59\n      jump\t// in\n    tag_147:\n        /* \"#utility.yul\":7353:7406   */\n      tag_58\n      jump\t// in\n    tag_146:\n        /* \"#utility.yul\":7340:7406   */\n      swap1\n      pop\n        /* \"#utility.yul\":7270:7412   */\n      swap2\n      swap1\n      pop\n      jump\t// out\n        /* \"#utility.yul\":7418:7493   */\n    tag_61:\n        /* \"#utility.yul\":7461:7464   */\n      0x00\n        /* \"#utility.yul\":7482:7487   */\n      dup2\n        /* \"#utility.yul\":7475:7487   */\n      swap1\n      pop\n        /* \"#utility.yul\":7418:7493   */\n      swap2\n      swap1\n      pop\n      jump\t// out\n        /* \"#utility.yul\":7499:7768   */\n    tag_62:\n        /* \"#utility.yul\":7609:7648   */\n      tag_151\n        /* \"#utility.yul\":7640:7647   */\n      dup4\n        /* \"#utility.yul\":7609:7648   */\n      tag_60\n      jump\t// in\n    tag_151:\n        /* \"#utility.yul\":7670:7761   */\n      tag_152\n        /* \"#utility.yul\":7719:7760   */\n      tag_153\n        /* \"#utility.yul\":7743:7759   */\n      dup3\n        /* \"#utility.yul\":7719:7760   */\n      tag_61\n      jump\t// in\n    tag_153:\n        /* \"#utility.yul\":7711:7717   */\n      dup5\n        /* \"#utility.yul\":7704:7708   */\n      dup5\n        /* \"#utility.yul\":7698:7709   */\n      sload\n        /* \"#utility.yul\":7670:7761   */\n      tag_57\n      jump\t// in\n    tag_152:\n        /* \"#utility.yul\":7664:7668   */\n      dup3\n        /* \"#utility.yul\":7657:7762   */\n      sstore\n        /* \"#utility.yul\":7575:7768   */\n      pop\n        /* \"#utility.yul\":7499:7768   */\n      pop\n      pop\n      pop\n      jump\t// out\n        /* \"#utility.yul\":7774:7847   */\n    tag_63:\n        /* \"#utility.yul\":7819:7822   */\n      0x00\n        /* \"#utility.yul\":7774:7847   */\n      swap1\n      jump\t// out\n        /* \"#utility.yul\":7853:8042   */\n    tag_64:\n        /* \"#utility.yul\":7930:7962   */\n      tag_156\n      tag_63\n      jump\t// in\n    tag_156:\n        /* \"#utility.yul\":7971:8036   */\n      tag_157\n        /* \"#utility.yul\":8029:8035   */\n      dup2\n        /* \"#utility.yul\":8021:8027   */\n      dup5\n        /* \"#utility.yul\":8015:8019   */\n      dup5\n        /* \"#utility.yul\":7971:8036   */\n      tag_62\n      jump\t// in\n    tag_157:\n        /* \"#utility.yul\":7906:8042   */\n      pop\n        /* \"#utility.yul\":7853:8042   */\n      pop\n      pop\n      jump\t// out\n        /* \"#utility.yul\":8048:8234   */\n    tag_65:\n        /* \"#utility.yul\":8108:8228   */\n    tag_159:\n        /* \"#utility.yul\":8125:8128   */\n      dup2\n        /* \"#utility.yul\":8118:8123   */\n      dup2\n        /* \"#utility.yul\":8115:8129   */\n      lt\n        /* \"#utility.yul\":8108:8228   */\n      iszero\n      tag_161\n      jumpi\n        /* \"#utility.yul\":8179:8218   */\n      tag_162\n        /* \"#utility.yul\":8216:8217   */\n      0x00\n        /* \"#utility.yul\":8209:8214   */\n      dup3\n        /* \"#utility.yul\":8179:8218   */\n      tag_64\n      jump\t// in\n    tag_162:\n        /* \"#utility.yul\":8152:8153   */\n      0x01\n        /* \"#utility.yul\":8145:8150   */\n      dup2\n        /* \"#utility.yul\":8141:8154   */\n      add\n        /* \"#utility.yul\":8132:8154   */\n      swap1\n      pop\n        /* \"#utility.yul\":8108:8228   */\n      jump(tag_159)\n    tag_161:\n        /* \"#utility.yul\":8048:8234   */\n      pop\n      pop\n      jump\t// out\n        /* \"#utility.yul\":8240:8783   */\n    tag_66:\n        /* \"#utility.yul\":8341:8343   */\n      0x1f\n        /* \"#utility.yul\":8336:8339   */\n      dup3\n        /* \"#utility.yul\":8333:8344   */\n      gt\n        /* \"#utility.yul\":8330:8776   */\n      iszero\n      tag_164\n      jumpi\n        /* \"#utility.yul\":8375:8413   */\n      tag_165\n        /* \"#utility.yul\":8407:8412   */\n      dup2\n        /* \"#utility.yul\":8375:8413   */\n      tag_54\n      jump\t// in\n    tag_165:\n        /* \"#utility.yul\":8459:8488   */\n      tag_166\n        /* \"#utility.yul\":8477:8487   */\n      dup5\n        /* \"#utility.yul\":8459:8488   */\n      tag_55\n      jump\t// in\n    tag_166:\n        /* \"#utility.yul\":8449:8457   */\n      dup2\n        /* \"#utility.yul\":8445:8489   */\n      add\n        /* \"#utility.yul\":8642:8644   */\n      0x20\n        /* \"#utility.yul\":8630:8640   */\n      dup6\n        /* \"#utility.yul\":8627:8645   */\n      lt\n        /* \"#utility.yul\":8624:8673   */\n      iszero\n      tag_167\n      jumpi\n        /* \"#utility.yul\":8663:8671   */\n      dup2\n        /* \"#utility.yul\":8648:8671   */\n      swap1\n      pop\n        /* \"#utility.yul\":8624:8673   */\n    tag_167:\n        /* \"#utility.yul\":8686:8766   */\n      tag_168\n        /* \"#utility.yul\":8742:8764   */\n      tag_169\n        /* \"#utility.yul\":8760:8763   */\n      dup6\n        /* \"#utility.yul\":8742:8764   */\n      tag_55\n      jump\t// in\n    tag_169:\n        /* \"#utility.yul\":8732:8740   */\n      dup4\n        /* \"#utility.yul\":8728:8765   */\n      add\n        /* \"#utility.yul\":8715:8726   */\n      dup3\n        /* \"#utility.yul\":8686:8766   */\n      tag_65\n      jump\t// in\n    tag_168:\n        /* \"#utility.yul\":8345:8776   */\n      pop\n      pop\n        /* \"#utility.yul\":8330:8776   */\n    tag_164:\n        /* \"#utility.yul\":8240:8783   */\n      pop\n      pop\n      pop\n      jump\t// out\n        /* \"#utility.yul\":8789:8906   */\n    tag_67:\n        /* \"#utility.yul\":8843:8851   */\n      0x00\n        /* \"#utility.yul\":8893:8898   */\n      dup3\n        /* \"#utility.yul\":8887:8891   */\n      dup3\n        /* \"#utility.yul\":8883:8899   */\n      shr\n        /* \"#utility.yul\":8862:8899   */\n      swap1\n      pop\n        /* \"#utility.yul\":8789:8906   */\n      swap3\n      swap2\n      pop\n      pop\n      jump\t// out\n        /* \"#utility.yul\":8912:9081   */\n    tag_68:\n        /* \"#utility.yul\":8956:8962   */\n      0x00\n        /* \"#utility.yul\":8989:9040   */\n      tag_172\n        /* \"#utility.yul\":9037:9038   */\n      0x00\n        /* \"#utility.yul\":9033:9039   */\n      not\n        /* \"#utility.yul\":9025:9030   */\n      dup5\n        /* \"#utility.yul\":9022:9023   */\n      0x08\n        /* \"#utility.yul\":9018:9031   */\n      mul\n        /* \"#utility.yul\":8989:9040   */\n      tag_67\n      jump\t// in\n    tag_172:\n        /* \"#utility.yul\":8985:9041   */\n      not\n        /* \"#utility.yul\":9070:9074   */\n      dup1\n        /* \"#utility.yul\":9064:9068   */\n      dup4\n        /* \"#utility.yul\":9060:9075   */\n      and\n        /* \"#utility.yul\":9050:9075   */\n      swap2\n      pop\n        /* \"#utility.yul\":8963:9081   */\n      pop\n        /* \"#utility.yul\":8912:9081   */\n      swap3\n      swap2\n      pop\n      pop\n      jump\t// out\n        /* \"#utility.yul\":9086:9381   */\n    tag_69:\n        /* \"#utility.yul\":9162:9166   */\n      0x00\n        /* \"#utility.yul\":9308:9337   */\n      tag_174\n        /* \"#utility.yul\":9333:9336   */\n      dup4\n        /* \"#utility.yul\":9327:9331   */\n      dup4\n        /* \"#utility.yul\":9308:9337   */\n      tag_68\n      jump\t// in\n    tag_174:\n        /* \"#utility.yul\":9300:9337   */\n      swap2\n      pop\n        /* \"#utility.yul\":9370:9373   */\n      dup3\n        /* \"#utility.yul\":9367:9368   */\n      0x02\n        /* \"#utility.yul\":9363:9374   */\n      mul\n        /* \"#utility.yul\":9357:9361   */\n      dup3\n        /* \"#utility.yul\":9354:9375   */\n      or\n        /* \"#utility.yul\":9346:9375   */\n      swap1\n      pop\n        /* \"#utility.yul\":9086:9381   */\n      swap3\n      swap2\n      pop\n      pop\n      jump\t// out\n        /* \"#utility.yul\":9386:10781   */\n    tag_30:\n        /* \"#utility.yul\":9503:9540   */\n      tag_176\n        /* \"#utility.yul\":9536:9539   */\n      dup3\n        /* \"#utility.yul\":9503:9540   */\n      tag_31\n      jump\t// in\n    tag_176:\n        /* \"#utility.yul\":9605:9623   */\n      0xffffffffffffffff\n        /* \"#utility.yul\":9597:9603   */\n      dup2\n        /* \"#utility.yul\":9594:9624   */\n      gt\n        /* \"#utility.yul\":9591:9647   */\n      iszero\n      tag_177\n      jumpi\n        /* \"#utility.yul\":9627:9645   */\n      tag_178\n      tag_44\n      jump\t// in\n    tag_178:\n        /* \"#utility.yul\":9591:9647   */\n    tag_177:\n        /* \"#utility.yul\":9671:9709   */\n      tag_179\n        /* \"#utility.yul\":9703:9707   */\n      dup3\n        /* \"#utility.yul\":9697:9708   */\n      sload\n        /* \"#utility.yul\":9671:9709   */\n      tag_20\n      jump\t// in\n    tag_179:\n        /* \"#utility.yul\":9756:9823   */\n      tag_180\n        /* \"#utility.yul\":9816:9822   */\n      dup3\n        /* \"#utility.yul\":9808:9814   */\n      dup3\n        /* \"#utility.yul\":9802:9806   */\n      dup6\n        /* \"#utility.yul\":9756:9823   */\n      tag_66\n      jump\t// in\n    tag_180:\n        /* \"#utility.yul\":9850:9851   */\n      0x00\n        /* \"#utility.yul\":9874:9878   */\n      0x20\n        /* \"#utility.yul\":9861:9878   */\n      swap1\n      pop\n        /* \"#utility.yul\":9906:9908   */\n      0x1f\n        /* \"#utility.yul\":9898:9904   */\n      dup4\n        /* \"#utility.yul\":9895:9909   */\n      gt\n        /* \"#utility.yul\":9923:9924   */\n      0x01\n        /* \"#utility.yul\":9918:10536   */\n      dup2\n      eq\n      tag_182\n      jumpi\n        /* \"#utility.yul\":10580:10581   */\n      0x00\n        /* \"#utility.yul\":10597:10603   */\n      dup5\n        /* \"#utility.yul\":10594:10671   */\n      iszero\n      tag_183\n      jumpi\n        /* \"#utility.yul\":10646:10655   */\n      dup3\n        /* \"#utility.yul\":10641:10644   */\n      dup8\n        /* \"#utility.yul\":10637:10656   */\n      add\n        /* \"#utility.yul\":10631:10657   */\n      mload\n        /* \"#utility.yul\":10622:10657   */\n      swap1\n      pop\n        /* \"#utility.yul\":10594:10671   */\n    tag_183:\n        /* \"#utility.yul\":10697:10764   */\n      tag_184\n        /* \"#utility.yul\":10757:10763   */\n      dup6\n        /* \"#utility.yul\":10750:10755   */\n      dup3\n        /* \"#utility.yul\":10697:10764   */\n      tag_69\n      jump\t// in\n    tag_184:\n        /* \"#utility.yul\":10691:10695   */\n      dup7\n        /* \"#utility.yul\":10684:10765   */\n      sstore\n        /* \"#utility.yul\":10553:10775   */\n      pop\n        /* \"#utility.yul\":9888:10775   */\n      jump(tag_181)\n        /* \"#utility.yul\":9918:10536   */\n    tag_182:\n        /* \"#utility.yul\":9970:9974   */\n      0x1f\n        /* \"#utility.yul\":9966:9975   */\n      not\n        /* \"#utility.yul\":9958:9964   */\n      dup5\n        /* \"#utility.yul\":9954:9976   */\n      and\n        /* \"#utility.yul\":10004:10041   */\n      tag_185\n        /* \"#utility.yul\":10036:10040   */\n      dup7\n        /* \"#utility.yul\":10004:10041   */\n      tag_54\n      jump\t// in\n    tag_185:\n        /* \"#utility.yul\":10063:10064   */\n      0x00\n        /* \"#utility.yul\":10077:10285   */\n    tag_186:\n        /* \"#utility.yul\":10091:10098   */\n      dup3\n        /* \"#utility.yul\":10088:10089   */\n      dup2\n        /* \"#utility.yul\":10085:10099   */\n      lt\n        /* \"#utility.yul\":10077:10285   */\n      iszero\n      tag_188\n      jumpi\n        /* \"#utility.yul\":10170:10179   */\n      dup5\n        /* \"#utility.yul\":10165:10168   */\n      dup10\n        /* \"#utility.yul\":10161:10180   */\n      add\n        /* \"#utility.yul\":10155:10181   */\n      mload\n        /* \"#utility.yul\":10147:10153   */\n      dup3\n        /* \"#utility.yul\":10140:10182   */\n      sstore\n        /* \"#utility.yul\":10221:10222   */\n      0x01\n        /* \"#utility.yul\":10213:10219   */\n      dup3\n        /* \"#utility.yul\":10209:10223   */\n      add\n        /* \"#utility.yul\":10199:10223   */\n      swap2\n      pop\n        /* \"#utility.yul\":10268:10270   */\n      0x20\n        /* \"#utility.yul\":10257:10266   */\n      dup6\n        /* \"#utility.yul\":10253:10271   */\n      add\n        /* \"#utility.yul\":10240:10271   */\n      swap5\n      pop\n        /* \"#utility.yul\":10114:10118   */\n      0x20\n        /* \"#utility.yul\":10111:10112   */\n      dup2\n        /* \"#utility.yul\":10107:10119   */\n      add\n        /* \"#utility.yul\":10102:10119   */\n      swap1\n      pop\n        /* \"#utility.yul\":10077:10285   */\n      jump(tag_186)\n    tag_188:\n        /* \"#utility.yul\":10313:10319   */\n      dup7\n        /* \"#utility.yul\":10304:10311   */\n      dup4\n        /* \"#utility.yul\":10301:10320   */\n      lt\n        /* \"#utility.yul\":10298:10477   */\n      iszero\n      tag_189\n      jumpi\n        /* \"#utility.yul\":10371:10380   */\n      dup5\n        /* \"#utility.yul\":10366:10369   */\n      dup10\n        /* \"#utility.yul\":10362:10381   */\n      add\n        /* \"#utility.yul\":10356:10382   */\n      mload\n        /* \"#utility.yul\":10414:10462   */\n      tag_190\n        /* \"#utility.yul\":10456:10460   */\n      0x1f\n        /* \"#utility.yul\":10448:10454   */\n      dup10\n        /* \"#utility.yul\":10444:10461   */\n      and\n        /* \"#utility.yul\":10433:10442   */\n      dup3\n        /* \"#utility.yul\":10414:10462   */\n      tag_68\n      jump\t// in\n    tag_190:\n        /* \"#utility.yul\":10406:10412   */\n      dup4\n        /* \"#utility.yul\":10399:10463   */\n      sstore\n        /* \"#utility.yul\":10321:10477   */\n      pop\n        /* \"#utility.yul\":10298:10477   */\n    tag_189:\n        /* \"#utility.yul\":10523:10524   */\n      0x01\n        /* \"#utility.yul\":10519:10520   */\n      0x02\n        /* \"#utility.yul\":10511:10517   */\n      dup9\n        /* \"#utility.yul\":10507:10521   */\n      mul\n        /* \"#utility.yul\":10503:10525   */\n      add\n        /* \"#utility.yul\":10497:10501   */\n      dup9\n        /* \"#utility.yul\":10490:10526   */\n      sstore\n        /* \"#utility.yul\":9925:10536   */\n      pop\n      pop\n      pop\n        /* \"#utility.yul\":9888:10775   */\n    tag_181:\n      pop\n        /* \"#utility.yul\":9478:10781   */\n      pop\n      pop\n      pop\n        /* \"#utility.yul\":9386:10781   */\n      pop\n      pop\n      jump\t// out\n\n    auxdata: 0xa2646970667358221220b2e5666b7430bd5e855aca7a92b929324ac51802b885260a0328aca76ed3fc5d64736f6c63430008130033\n}\n",
				"bytecode": {
					"linkReferences": {},
					"object": "608060405234801561001057600080fd5b5033600160006101000a81548173ffffffffffffffffffffffffffffffffffffffff021916908373ffffffffffffffffffffffffffffffffffffffff160217905550610823806100616000396000f3fe608060405234801561001057600080fd5b50600436106100415760003560e01c80635a9b0b89146100465780638da5cb5b14610064578063937f6e7714610082575b600080fd5b61004e61009e565b60405161005b9190610289565b60405180910390f35b61006c610130565b60405161007991906102ec565b60405180910390f35b61009c60048036038101906100979190610450565b610156565b005b6060600080546100ad906104c8565b80601f01602080910402602001604051908101604052809291908181526020018280546100d9906104c8565b80156101265780601f106100fb57610100808354040283529160200191610126565b820191906000526020600020905b81548152906001019060200180831161010957829003601f168201915b5050505050905090565b600160009054906101000a900473ffffffffffffffffffffffffffffffffffffffff1681565b600160009054906101000a900473ffffffffffffffffffffffffffffffffffffffff1673ffffffffffffffffffffffffffffffffffffffff163373ffffffffffffffffffffffffffffffffffffffff16146101e6576040517f08c379a00000000000000000000000000000000000000000000000000000000081526004016101dd90610545565b60405180910390fd5b80600090816101f5919061071b565b5050565b600081519050919050565b600082825260208201905092915050565b60005b83811015610233578082015181840152602081019050610218565b60008484015250505050565b6000601f19601f8301169050919050565b600061025b826101f9565b6102658185610204565b9350610275818560208601610215565b61027e8161023f565b840191505092915050565b600060208201905081810360008301526102a38184610250565b905092915050565b600073ffffffffffffffffffffffffffffffffffffffff82169050919050565b60006102d6826102ab565b9050919050565b6102e6816102cb565b82525050565b600060208201905061030160008301846102dd565b92915050565b6000604051905090565b600080fd5b600080fd5b600080fd5b600080fd5b7f4e487b7100000000000000000000000000000000000000000000000000000000600052604160045260246000fd5b61035d8261023f565b810181811067ffffffffffffffff8211171561037c5761037b610325565b5b80604052505050565b600061038f610307565b905061039b8282610354565b919050565b600067ffffffffffffffff8211156103bb576103ba610325565b5b6103c48261023f565b9050602081019050919050565b82818337600083830152505050565b60006103f36103ee846103a0565b610385565b90508281526020810184848401111561040f5761040e610320565b5b61041a8482856103d1565b509392505050565b600082601f8301126104375761043661031b565b5b81356104478482602086016103e0565b91505092915050565b60006020828403121561046657610465610311565b5b600082013567ffffffffffffffff81111561048457610483610316565b5b61049084828501610422565b91505092915050565b7f4e487b7100000000000000000000000000000000000000000000000000000000600052602260045260246000fd5b600060028204905060018216806104e057607f821691505b6020821081036104f3576104f2610499565b5b50919050565b7f4f6e6c79206f776e657200000000000000000000000000000000000000000000600082015250565b600061052f600a83610204565b915061053a826104f9565b602082019050919050565b6000602082019050818103600083015261055e81610522565b9050919050565b60008190508160005260206000209050919050565b60006020601f8301049050919050565b600082821b905092915050565b6000600883026105c77fffffffffffffffffffffffffffffffffffffffffffffffffffffffffffffffff8261058a565b6105d1868361058a565b95508019841693508086168417925050509392505050565b6000819050919050565b6000819050919050565b600061061861061361060e846105e9565b6105f3565b6105e9565b9050919050565b6000819050919050565b610632836105fd565b61064661063e8261061f565b848454610597565b825550505050565b600090565b61065b61064e565b610666818484610629565b505050565b5b8181101561068a5761067f600082610653565b60018101905061066c565b5050565b601f8211156106cf576106a081610565565b6106a98461057a565b810160208510156106b8578190505b6106cc6106c48561057a565b83018261066b565b50505b505050565b600082821c905092915050565b60006106f2600019846008026106d4565b1980831691505092915050565b600061070b83836106e1565b9150826002028217905092915050565b610724826101f9565b67ffffffffffffffff81111561073d5761073c610325565b5b61074782546104c8565b61075282828561068e565b600060209050601f8311600181146107855760008415610773578287015190505b61077d85826106ff565b8655506107e5565b601f19841661079386610565565b60005b828110156107bb57848901518255600182019150602085019450602081019050610796565b868310156107d857848901516107d4601f8916826106e1565b8355505b6001600288020188555050505b50505050505056fea2646970667358221220b2e5666b7430bd5e855aca7a92b929324ac51802b885260a0328aca76ed3fc5d64736f6c63430008130033",
					"opcodes": "PUSH1 0x80 PUSH1 0x40 MSTORE CALLVALUE DUP1 ISZERO PUSH2 0x10 JUMPI PUSH1 0x0 DUP1 REVERT JUMPDEST POP CALLER PUSH1 0x1 PUSH1 0x0 PUSH2 0x100 EXP DUP2 SLOAD DUP2 PUSH20 0xFFFFFFFFFFFFFFFFFFFFFFFFFFFFFFFFFFFFFFFF MUL NOT AND SWAP1 DUP4 PUSH20 0xFFFFFFFFFFFFFFFFFFFFFFFFFFFFFFFFFFFFFFFF AND MUL OR SWAP1 SSTORE POP PUSH2 0x823 DUP1 PUSH2 0x61 PUSH1 0x0 CODECOPY PUSH1 0x0 RETURN INVALID PUSH1 0x80 PUSH1 0x40 MSTORE CALLVALUE DUP1 ISZERO PUSH2 0x10 JUMPI PUSH1 0x0 DUP1 REVERT JUMPDEST POP PUSH1 0x4 CALLDATASIZE LT PUSH2 0x41 JUMPI PUSH1 0x0 CALLDATALOAD PUSH1 0xE0 SHR DUP1 PUSH4 0x5A9B0B89 EQ PUSH2 0x46 JUMPI DUP1 PUSH4 0x8DA5CB5B EQ PUSH2 0x64 JUMPI DUP1 PUSH4 0x937F6E77 EQ PUSH2 0x82 JUMPI JUMPDEST PUSH1 0x0 DUP1 REVERT JUMPDEST PUSH2 0x4E PUSH2 0x9E JUMP JUMPDEST PUSH1 0x40 MLOAD PUSH2 0x5B SWAP2 SWAP1 PUSH2 0x289 JUMP JUMPDEST PUSH1 0x40 MLOAD DUP1 SWAP2 SUB SWAP1 RETURN JUMPDEST PUSH2 0x6C PUSH2 0x130 JUMP JUMPDEST PUSH1 0x40 MLOAD PUSH2 0x79 SWAP2 SWAP1 PUSH2 0x2EC JUMP JUMPDEST PUSH1 0x40 MLOAD DUP1 SWAP2 SUB SWAP1 RETURN JUMPDEST PUSH2 0x9C PUSH1 0x4 DUP1 CALLDATASIZE SUB DUP2 ADD SWAP1 PUSH2 0x97 SWAP2 SWAP1 PUSH2 0x450 JUMP JUMPDEST PUSH2 0x156 JUMP JUMPDEST STOP JUMPDEST PUSH1 0x60 PUSH1 0x0 DUP1 SLOAD PUSH2 0xAD SWAP1 PUSH2 0x4C8 JUMP JUMPDEST DUP1 PUSH1 0x1F ADD PUSH1 0x20 DUP1 SWAP2 DIV MUL PUSH1 0x20 ADD PUSH1 0x40 MLOAD SWAP1 DUP2 ADD PUSH1 0x40 MSTORE DUP1 SWAP3 SWAP2 SWAP1 DUP2 DUP2 MSTORE PUSH1 0x20 ADD DUP3 DUP1 SLOAD PUSH2 0xD9 SWAP1 PUSH2 0x4C8 JUMP JUMPDEST DUP1 ISZERO PUSH2 0x126 JUMPI DUP1 PUSH1 0x1F LT PUSH2 0xFB JUMPI PUSH2 0x100 DUP1 DUP4 SLOAD DIV MUL DUP4 MSTORE SWAP2 PUSH1 0x20 ADD SWAP2 PUSH2 0x126 JUMP JUMPDEST DUP3 ADD SWAP2 SWAP1 PUSH1 0x0 MSTORE PUSH1 0x20 PUSH1 0x0 KECCAK256 SWAP1 JUMPDEST DUP2 SLOAD DUP2 MSTORE SWAP1 PUSH1 0x1 ADD SWAP1 PUSH1 0x20 ADD DUP1 DUP4 GT PUSH2 0x109 JUMPI DUP3 SWAP1 SUB PUSH1 0x1F AND DUP3 ADD SWAP2 JUMPDEST POP POP POP POP POP SWAP1 POP SWAP1 JUMP JUMPDEST PUSH1 0x1 PUSH1 0x0 SWAP1 SLOAD SWAP1 PUSH2 0x100 EXP SWAP1 DIV PUSH20 0xFFFFFFFFFFFFFFFFFFFFFFFFFFFFFFFFFFFFFFFF AND DUP2 JUMP JUMPDEST PUSH1 0x1 PUSH1 0x0 SWAP1 SLOAD SWAP1 PUSH2 0x100 EXP SWAP1 DIV PUSH20 0xFFFFFFFFFFFFFFFFFFFFFFFFFFFFFFFFFFFFFFFF AND PUSH20 0xFFFFFFFFFFFFFFFFFFFFFFFFFFFFFFFFFFFFFFFF AND CALLER PUSH20 0xFFFFFFFFFFFFFFFFFFFFFFFFFFFFFFFFFFFFFFFF AND EQ PUSH2 0x1E6 JUMPI PUSH1 0x40 MLOAD PUSH32 0x8C379A000000000000000000000000000000000000000000000000000000000 DUP2 MSTORE PUSH1 0x4 ADD PUSH2 0x1DD SWAP1 PUSH2 0x545 JUMP JUMPDEST PUSH1 0x40 MLOAD DUP1 SWAP2 SUB SWAP1 REVERT JUMPDEST DUP1 PUSH1 0x0 SWAP1 DUP2 PUSH2 0x1F5 SWAP2 SWAP1 PUSH2 0x71B JUMP JUMPDEST POP POP JUMP JUMPDEST PUSH1 0x0 DUP2 MLOAD SWAP1 POP SWAP2 SWAP1 POP JUMP JUMPDEST PUSH1 0x0 DUP3 DUP3 MSTORE PUSH1 0x20 DUP3 ADD SWAP1 POP SWAP3 SWAP2 POP POP JUMP JUMPDEST PUSH1 0x0 JUMPDEST DUP4 DUP2 LT ISZERO PUSH2 0x233 JUMPI DUP1 DUP3 ADD MLOAD DUP2 DUP5 ADD MSTORE PUSH1 0x20 DUP2 ADD SWAP1 POP PUSH2 0x218 JUMP JUMPDEST PUSH1 0x0 DUP5 DUP5 ADD MSTORE POP POP POP POP JUMP JUMPDEST PUSH1 0x0 PUSH1 0x1F NOT PUSH1 0x1F DUP4 ADD AND SWAP1 POP SWAP2 SWAP1 POP JUMP JUMPDEST PUSH1 0x0 PUSH2 0x25B DUP3 PUSH2 0x1F9 JUMP JUMPDEST PUSH2 0x265 DUP2 DUP6 PUSH2 0x204 JUMP JUMPDEST SWAP4 POP PUSH2 0x275 DUP2 DUP6 PUSH1 0x20 DUP7 ADD PUSH2 0x215 JUMP JUMPDEST PUSH2 0x27E DUP2 PUSH2 0x23F JUMP JUMPDEST DUP5 ADD SWAP2 POP POP SWAP3 SWAP2 POP POP JUMP JUMPDEST PUSH1 0x0 PUSH1 0x20 DUP3 ADD SWAP1 POP DUP2 DUP2 SUB PUSH1 0x0 DUP4 ADD MSTORE PUSH2 0x2A3 DUP2 DUP5 PUSH2 0x250 JUMP JUMPDEST SWAP1 POP SWAP3 SWAP2 POP POP JUMP JUMPDEST PUSH1 0x0 PUSH20 0xFFFFFFFFFFFFFFFFFFFFFFFFFFFFFFFFFFFFFFFF DUP3 AND SWAP1 POP SWAP2 SWAP1 POP JUMP JUMPDEST PUSH1 0x0 PUSH2 0x2D6 DUP3 PUSH2 0x2AB JUMP JUMPDEST SWAP1 POP SWAP2 SWAP1 POP JUMP JUMPDEST PUSH2 0x2E6 DUP2 PUSH2 0x2CB JUMP JUMPDEST DUP3 MSTORE POP POP JUMP JUMPDEST PUSH1 0x0 PUSH1 0x20 DUP3 ADD SWAP1 POP PUSH2 0x301 PUSH1 0x0 DUP4 ADD DUP5 PUSH2 0x2DD JUMP JUMPDEST SWAP3 SWAP2 POP POP JUMP JUMPDEST PUSH1 0x0 PUSH1 0x40 MLOAD SWAP1 POP SWAP1 JUMP JUMPDEST PUSH1 0x0 DUP1 REVERT JUMPDEST PUSH1 0x0 DUP1 REVERT JUMPDEST PUSH1 0x0 DUP1 REVERT JUMPDEST PUSH1 0x0 DUP1 REVERT JUMPDEST PUSH32 0x4E487B7100000000000000000000000000000000000000000000000000000000 PUSH1 0x0 MSTORE PUSH1 0x41 PUSH1 0x4 MSTORE PUSH1 0x24 PUSH1 0x0 REVERT JUMPDEST PUSH2 0x35D DUP3 PUSH2 0x23F JUMP JUMPDEST DUP2 ADD DUP2 DUP2 LT PUSH8 0xFFFFFFFFFFFFFFFF DUP3 GT OR ISZERO PUSH2 0x37C JUMPI PUSH2 0x37B PUSH2 0x325 JUMP JUMPDEST JUMPDEST DUP1 PUSH1 0x40 MSTORE POP POP POP JUMP JUMPDEST PUSH1 0x0 PUSH2 0x38F PUSH2 0x307 JUMP JUMPDEST SWAP1 POP PUSH2 0x39B DUP3 DUP3 PUSH2 0x354 JUMP JUMPDEST SWAP2 SWAP1 POP JUMP JUMPDEST PUSH1 0x0 PUSH8 0xFFFFFFFFFFFFFFFF DUP3 GT ISZERO PUSH2 0x3BB JUMPI PUSH2 0x3BA PUSH2 0x325 JUMP JUMPDEST JUMPDEST PUSH2 0x3C4 DUP3 PUSH2 0x23F JUMP JUMPDEST SWAP1 POP PUSH1 0x20 DUP2 ADD SWAP1 POP SWAP2 SWAP1 POP JUMP JUMPDEST DUP3 DUP2 DUP4 CALLDATACOPY PUSH1 0x0 DUP4 DUP4 ADD MSTORE POP POP POP JUMP JUMPDEST PUSH1 0x0 PUSH2 0x3F3 PUSH2 0x3EE DUP5 PUSH2 0x3A0 JUMP JUMPDEST PUSH2 0x385 JUMP JUMPDEST SWAP1 POP DUP3 DUP2 MSTORE PUSH1 0x20 DUP2 ADD DUP5 DUP5 DUP5 ADD GT ISZERO PUSH2 0x40F JUMPI PUSH2 0x40E PUSH2 0x320 JUMP JUMPDEST JUMPDEST PUSH2 0x41A DUP5 DUP3 DUP6 PUSH2 0x3D1 JUMP JUMPDEST POP SWAP4 SWAP3 POP POP POP JUMP JUMPDEST PUSH1 0x0 DUP3 PUSH1 0x1F DUP4 ADD SLT PUSH2 0x437 JUMPI PUSH2 0x436 PUSH2 0x31B JUMP JUMPDEST JUMPDEST DUP2 CALLDATALOAD PUSH2 0x447 DUP5 DUP3 PUSH1 0x20 DUP7 ADD PUSH2 0x3E0 JUMP JUMPDEST SWAP2 POP POP SWAP3 SWAP2 POP POP JUMP JUMPDEST PUSH1 0x0 PUSH1 0x20 DUP3 DUP5 SUB SLT ISZERO PUSH2 0x466 JUMPI PUSH2 0x465 PUSH2 0x311 JUMP JUMPDEST JUMPDEST PUSH1 0x0 DUP3 ADD CALLDATALOAD PUSH8 0xFFFFFFFFFFFFFFFF DUP2 GT ISZERO PUSH2 0x484 JUMPI PUSH2 0x483 PUSH2 0x316 JUMP JUMPDEST JUMPDEST PUSH2 0x490 DUP5 DUP3 DUP6 ADD PUSH2 0x422 JUMP JUMPDEST SWAP2 POP POP SWAP3 SWAP2 POP POP JUMP JUMPDEST PUSH32 0x4E487B7100000000000000000000000000000000000000000000000000000000 PUSH1 0x0 MSTORE PUSH1 0x22 PUSH1 0x4 MSTORE PUSH1 0x24 PUSH1 0x0 REVERT JUMPDEST PUSH1 0x0 PUSH1 0x2 DUP3 DIV SWAP1 POP PUSH1 0x1 DUP3 AND DUP1 PUSH2 0x4E0 JUMPI PUSH1 0x7F DUP3 AND SWAP2 POP JUMPDEST PUSH1 0x20 DUP3 LT DUP2 SUB PUSH2 0x4F3 JUMPI PUSH2 0x4F2 PUSH2 0x499 JUMP JUMPDEST JUMPDEST POP SWAP2 SWAP1 POP JUMP JUMPDEST PUSH32 0x4F6E6C79206F776E657200000000000000000000000000000000000000000000 PUSH1 0x0 DUP3 ADD MSTORE POP JUMP JUMPDEST PUSH1 0x0 PUSH2 0x52F PUSH1 0xA DUP4 PUSH2 0x204 JUMP JUMPDEST SWAP2 POP PUSH2 0x53A DUP3 PUSH2 0x4F9 JUMP JUMPDEST PUSH1 0x20 DUP3 ADD SWAP1 POP SWAP2 SWAP1 POP JUMP JUMPDEST PUSH1 0x0 PUSH1 0x20 DUP3 ADD SWAP1 POP DUP2 DUP2 SUB PUSH1 0x0 DUP4 ADD MSTORE PUSH2 0x55E DUP2 PUSH2 0x522 JUMP JUMPDEST SWAP1 POP SWAP2 SWAP1 POP JUMP JUMPDEST PUSH1 0x0 DUP2 SWAP1 POP DUP2 PUSH1 0x0 MSTORE PUSH1 0x20 PUSH1 0x0 KECCAK256 SWAP1 POP SWAP2 SWAP1 POP JUMP JUMPDEST PUSH1 0x0 PUSH1 0x20 PUSH1 0x1F DUP4 ADD DIV SWAP1 POP SWAP2 SWAP1 POP JUMP JUMPDEST PUSH1 0x0 DUP3 DUP3 SHL SWAP1 POP SWAP3 SWAP2 POP POP JUMP JUMPDEST PUSH1 0x0 PUSH1 0x8 DUP4 MUL PUSH2 0x5C7 PUSH32 0xFFFFFFFFFFFFFFFFFFFFFFFFFFFFFFFFFFFFFFFFFFFFFFFFFFFFFFFFFFFFFFFF DUP3 PUSH2 0x58A JUMP JUMPDEST PUSH2 0x5D1 DUP7 DUP4 PUSH2 0x58A JUMP JUMPDEST SWAP6 POP DUP1 NOT DUP5 AND SWAP4 POP DUP1 DUP7 AND DUP5 OR SWAP3 POP POP POP SWAP4 SWAP3 POP POP POP JUMP JUMPDEST PUSH1 0x0 DUP2 SWAP1 POP SWAP2 SWAP1 POP JUMP JUMPDEST PUSH1 0x0 DUP2 SWAP1 POP SWAP2 SWAP1 POP JUMP JUMPDEST PUSH1 0x0 PUSH2 0x618 PUSH2 0x613 PUSH2 0x60E DUP5 PUSH2 0x5E9 JUMP JUMPDEST PUSH2 0x5F3 JUMP JUMPDEST PUSH2 0x5E9 JUMP JUMPDEST SWAP1 POP SWAP2 SWAP1 POP JUMP JUMPDEST PUSH1 0x0 DUP2 SWAP1 POP SWAP2 SWAP1 POP JUMP JUMPDEST PUSH2 0x632 DUP4 PUSH2 0x5FD JUMP JUMPDEST PUSH2 0x646 PUSH2 0x63E DUP3 PUSH2 0x61F JUMP JUMPDEST DUP5 DUP5 SLOAD PUSH2 0x597 JUMP JUMPDEST DUP3 SSTORE POP POP POP POP JUMP JUMPDEST PUSH1 0x0 SWAP1 JUMP JUMPDEST PUSH2 0x65B PUSH2 0x64E JUMP JUMPDEST PUSH2 0x666 DUP2 DUP5 DUP5 PUSH2 0x629 JUMP JUMPDEST POP POP POP JUMP JUMPDEST JUMPDEST DUP2 DUP2 LT ISZERO PUSH2 0x68A JUMPI PUSH2 0x67F PUSH1 0x0 DUP3 PUSH2 0x653 JUMP JUMPDEST PUSH1 0x1 DUP2 ADD SWAP1 POP PUSH2 0x66C JUMP JUMPDEST POP POP JUMP JUMPDEST PUSH1 0x1F DUP3 GT ISZERO PUSH2 0x6CF JUMPI PUSH2 0x6A0 DUP2 PUSH2 0x565 JUMP JUMPDEST PUSH2 0x6A9 DUP5 PUSH2 0x57A JUMP JUMPDEST DUP2 ADD PUSH1 0x20 DUP6 LT ISZERO PUSH2 0x6B8 JUMPI DUP2 SWAP1 POP JUMPDEST PUSH2 0x6CC PUSH2 0x6C4 DUP6 PUSH2 0x57A JUMP JUMPDEST DUP4 ADD DUP3 PUSH2 0x66B JUMP JUMPDEST POP POP JUMPDEST POP POP POP JUMP JUMPDEST PUSH1 0x0 DUP3 DUP3 SHR SWAP1 POP SWAP3 SWAP2 POP POP JUMP JUMPDEST PUSH1 0x0 PUSH2 0x6F2 PUSH1 0x0 NOT DUP5 PUSH1 0x8 MUL PUSH2 0x6D4 JUMP JUMPDEST NOT DUP1 DUP4 AND SWAP2 POP POP SWAP3 SWAP2 POP POP JUMP JUMPDEST PUSH1 0x0 PUSH2 0x70B DUP4 DUP4 PUSH2 0x6E1 JUMP JUMPDEST SWAP2 POP DUP3 PUSH1 0x2 MUL DUP3 OR SWAP1 POP SWAP3 SWAP2 POP POP JUMP JUMPDEST PUSH2 0x724 DUP3 PUSH2 0x1F9 JUMP JUMPDEST PUSH8 0xFFFFFFFFFFFFFFFF DUP2 GT ISZERO PUSH2 0x73D JUMPI PUSH2 0x73C PUSH2 0x325 JUMP JUMPDEST JUMPDEST PUSH2 0x747 DUP3 SLOAD PUSH2 0x4C8 JUMP JUMPDEST PUSH2 0x752 DUP3 DUP3 DUP6 PUSH2 0x68E JUMP JUMPDEST PUSH1 0x0 PUSH1 0x20 SWAP1 POP PUSH1 0x1F DUP4 GT PUSH1 0x1 DUP2 EQ PUSH2 0x785 JUMPI PUSH1 0x0 DUP5 ISZERO PUSH2 0x773 JUMPI DUP3 DUP8 ADD MLOAD SWAP1 POP JUMPDEST PUSH2 0x77D DUP6 DUP3 PUSH2 0x6FF JUMP JUMPDEST DUP7 SSTORE POP PUSH2 0x7E5 JUMP JUMPDEST PUSH1 0x1F NOT DUP5 AND PUSH2 0x793 DUP7 PUSH2 0x565 JUMP JUMPDEST PUSH1 0x0 JUMPDEST DUP3 DUP2 LT ISZERO PUSH2 0x7BB JUMPI DUP5 DUP10 ADD MLOAD DUP3 SSTORE PUSH1 0x1 DUP3 ADD SWAP2 POP PUSH1 0x20 DUP6 ADD SWAP5 POP PUSH1 0x20 DUP2 ADD SWAP1 POP PUSH2 0x796 JUMP JUMPDEST DUP7 DUP4 LT ISZERO PUSH2 0x7D8 JUMPI DUP5 DUP10 ADD MLOAD PUSH2 0x7D4 PUSH1 0x1F DUP10 AND DUP3 PUSH2 0x6E1 JUMP JUMPDEST DUP4 SSTORE POP JUMPDEST PUSH1 0x1 PUSH1 0x2 DUP9 MUL ADD DUP9 SSTORE POP POP POP JUMPDEST POP POP POP POP POP POP JUMP INVALID LOG2 PUSH5 0x6970667358 0x22 SLT KECCAK256 0xB2 0xE5 PUSH7 0x6B7430BD5E855A 0xCA PUSH27 0x92B929324AC51802B885260A0328ACA76ED3FC5D64736F6C634300 ADDMOD SGT STOP CALLER "
				},
				"gasEstimates": {
					"creation": {
						"codeDepositCost": "416600",
						"executionCost": "24721",
						"totalCost": "441321"
					},
					"external": {
						"getInfo()": "infinite",
						"owner()": "2514",
						"setInfo(string)": "infinite"
					}
				},
				"methodIdentifiers": {
					"getInfo()": "5a9b0b89",
					"owner()": "8da5cb5b",
					"setInfo(string)": "937f6e77"
				}
			},
			"storageLayout": {
				"storage": [
					{
						"astId": 4,
						"contract": "ETH_KIPU/Register05.sol:Register05",
						"label": "storedInfo",
						"offset": 0,
						"slot": "0",
						"type": "t_string_storage"
					},
					{
						"astId": 6,
						"contract": "ETH_KIPU/Register05.sol:Register05",
						"label": "owner",
						"offset": 0,
						"slot": "1",
						"type": "t_address"
					}
				],
				"types": {
					"t_address": {
						"encoding": "inplace",
						"label": "address",
						"numberOfBytes": "20"
					},
					"t_string_storage": {
						"encoding": "bytes",
						"label": "string",
						"numberOfBytes": "32"
					}
				}
			},
			"userdoc": {
				"kind": "user",
				"methods": {
					"getInfo()": {
						"notice": "Return the stored string"
					},
					"setInfo(string)": {
						"notice": "Store `myInfo` Require that the account sending the transaction is the contract owner. If not, exits returning an error message.  If require is valid, continue execution."
					}
				},
				"version": 1
			}
		}
	}
}