{
	"data": {
		"bytecode": {
			"linkReferences": {},
			"object": "608060405234801561000f575f80fd5b50604051610e51380380610e5183398181016040528101906100319190610115565b815f806101000a81548173ffffffffffffffffffffffffffffffffffffffff021916908373ffffffffffffffffffffffffffffffffffffffff1602179055508060015f6101000a81548173ffffffffffffffffffffffffffffffffffffffff021916908373ffffffffffffffffffffffffffffffffffffffff1602179055505050610153565b5f80fd5b5f73ffffffffffffffffffffffffffffffffffffffff82169050919050565b5f6100e4826100bb565b9050919050565b6100f4816100da565b81146100fe575f80fd5b50565b5f8151905061010f816100eb565b92915050565b5f806040838503121561012b5761012a6100b7565b5b5f61013885828601610101565b925050602061014985828601610101565b9150509250929050565b610cf1806101605f395ff3fe608060405234801561000f575f80fd5b506004361061007b575f3560e01c806357c90de51161005957806357c90de5146100ee57806399fdb3201461010a578063b9a2de3a14610128578063de0794ef146101445761007b565b80630121683f1461007f57806335af939b1461009b578063571a26a0146100b9575b5f80fd5b61009960048036038101906100949190610797565b610162565b005b6100a361039b565b6040516100b0919061084f565b60405180910390f35b6100d360048036038101906100ce9190610868565b6103c0565b6040516100e5969594939291906108dc565b60405180910390f35b61010860048036038101906101039190610797565b610442565b005b610112610646565b60405161011f919061095b565b60405180910390f35b610142600480360381019061013d9190610868565b610669565b005b61014c61075a565b6040516101599190610974565b60405180910390f35b60015f9054906101000a900473ffffffffffffffffffffffffffffffffffffffff1673ffffffffffffffffffffffffffffffffffffffff166323b872dd3330856040518463ffffffff1660e01b81526004016101c09392919061098d565b5f604051808303815f87803b1580156101d7575f80fd5b505af11580156101e9573d5f803e3d5ffd5b505050505f60025f815480929190610200906109ef565b9190505590506040518060c001604052803373ffffffffffffffffffffffffffffffffffffffff1681526020015f73ffffffffffffffffffffffffffffffffffffffff1681526020015f815260200184815260200183426102619190610a36565b81526020016001151581525060035f8381526020019081526020015f205f820151815f015f6101000a81548173ffffffffffffffffffffffffffffffffffffffff021916908373ffffffffffffffffffffffffffffffffffffffff1602179055506020820151816001015f6101000a81548173ffffffffffffffffffffffffffffffffffffffff021916908373ffffffffffffffffffffffffffffffffffffffff16021790555060408201518160020155606082015181600301556080820151816004015560a0820151816005015f6101000a81548160ff021916908315150217905550905050807fd6eddd1118d71820909c1197aa966dbc15ed6f508554252169cc3d5ccac756ca8460035f8581526020019081526020015f206004015460405161038e929190610a69565b60405180910390a2505050565b60015f9054906101000a900473ffffffffffffffffffffffffffffffffffffffff1681565b6003602052805f5260405f205f91509050805f015f9054906101000a900473ffffffffffffffffffffffffffffffffffffffff1690806001015f9054906101000a900473ffffffffffffffffffffffffffffffffffffffff1690806002015490806003015490806004015490806005015f9054906101000a900460ff16905086565b5f60035f8481526020019081526020015f2090508060040154421061049c576040517f08c379a000000000000000000000000000000000000000000000000000000000815260040161049390610aea565b60405180910390fd5b806005015f9054906101000a900460ff166104ec576040517f08c379a00000000000000000000000000000000000000000000000000000000081526004016104e390610b52565b60405180910390fd5b80600201548211610532576040517f08c379a000000000000000000000000000000000000000000000000000000000815260040161052990610be0565b60405180910390fd5b5f8054906101000a900473ffffffffffffffffffffffffffffffffffffffff1673ffffffffffffffffffffffffffffffffffffffff166323b872dd3330856040518463ffffffff1660e01b815260040161058e9392919061098d565b6020604051808303815f875af11580156105aa573d5f803e3d5ffd5b505050506040513d601f19601f820116820180604052508101906105ce9190610c28565b505f73ffffffffffffffffffffffffffffffffffffffff16816001015f9054906101000a9050505081816002018190555033816001015f6101000a81548173ffffffffffffffffffffffffffffffffffffffff021916908373ffffffffffffffffffffffffffffffffffffffff160217905550505050565b5f8054906101000a900473ffffffffffffffffffffffffffffffffffffffff1681565b5f60035f8381526020019081526020015f20905080600401544210156106c4576040517f08c379a00000000000000000000000000000000000000000000000000000000081526004016106bb90610c9d565b60405180910390fd5b806005015f9054906101000a900460ff16610714576040517f08c379a000000000000000000000000000000000000000000000000000000000815260040161070b90610b52565b60405180910390fd5b5f816005015f6101000a81548160ff0219169083151502179055505f73ffffffffffffffffffffffffffffffffffffffff16816001015f9054906101000a905050505050565b60025481565b5f80fd5b5f819050919050565b61077681610764565b8114610780575f80fd5b50565b5f813590506107918161076d565b92915050565b5f80604083850312156107ad576107ac610760565b5b5f6107ba85828601610783565b92505060206107cb85828601610783565b9150509250929050565b5f73ffffffffffffffffffffffffffffffffffffffff82169050919050565b5f819050919050565b5f61081761081261080d846107d5565b6107f4565b6107d5565b9050919050565b5f610828826107fd565b9050919050565b5f6108398261081e565b9050919050565b6108498161082f565b82525050565b5f6020820190506108625f830184610840565b92915050565b5f6020828403121561087d5761087c610760565b5b5f61088a84828501610783565b91505092915050565b5f61089d826107d5565b9050919050565b6108ad81610893565b82525050565b6108bc81610764565b82525050565b5f8115159050919050565b6108d6816108c2565b82525050565b5f60c0820190506108ef5f8301896108a4565b6108fc60208301886108a4565b61090960408301876108b3565b61091660608301866108b3565b61092360808301856108b3565b61093060a08301846108cd565b979650505050505050565b5f6109458261081e565b9050919050565b6109558161093b565b82525050565b5f60208201905061096e5f83018461094c565b92915050565b5f6020820190506109875f8301846108b3565b92915050565b5f6060820190506109a05f8301866108a4565b6109ad60208301856108a4565b6109ba60408301846108b3565b949350505050565b7f4e487b71000000000000000000000000000000000000000000000000000000005f52601160045260245ffd5b5f6109f982610764565b91507fffffffffffffffffffffffffffffffffffffffffffffffffffffffffffffffff8203610a2b57610a2a6109c2565b5b600182019050919050565b5f610a4082610764565b9150610a4b83610764565b9250828201905080821115610a6357610a626109c2565b5b92915050565b5f604082019050610a7c5f8301856108b3565b610a8960208301846108b3565b9392505050565b5f82825260208201905092915050565b7f41756374696f6e2068617320656e6465640000000000000000000000000000005f82015250565b5f610ad4601183610a90565b9150610adf82610aa0565b602082019050919050565b5f6020820190508181035f830152610b0181610ac8565b9050919050565b7f41756374696f6e206973206e6f742061637469766500000000000000000000005f82015250565b5f610b3c601583610a90565b9150610b4782610b08565b602082019050919050565b5f6020820190508181035f830152610b6981610b30565b9050919050565b7f426964206d75737420626520686967686572207468616e2063757272656e74205f8201527f6869676865737420626964000000000000000000000000000000000000000000602082015250565b5f610bca602b83610a90565b9150610bd582610b70565b604082019050919050565b5f6020820190508181035f830152610bf781610bbe565b9050919050565b610c07816108c2565b8114610c11575f80fd5b50565b5f81519050610c2281610bfe565b92915050565b5f60208284031215610c3d57610c3c610760565b5b5f610c4a84828501610c14565b91505092915050565b7f41756374696f6e20686173206e6f7420656e64656420796574000000000000005f82015250565b5f610c87601983610a90565b9150610c9282610c53565b602082019050919050565b5f6020820190508181035f830152610cb481610c7b565b905091905056fea2646970667358221220891dd34d5e78fb9852517d14fbd8884a44c7849996f2a0f052b17ee674833fd064736f6c634300081a0033",
			"opcodes": "PUSH1 0x80 PUSH1 0x40 MSTORE CALLVALUE DUP1 ISZERO PUSH2 0xF JUMPI PUSH0 DUP1 REVERT JUMPDEST POP PUSH1 0x40 MLOAD PUSH2 0xE51 CODESIZE SUB DUP1 PUSH2 0xE51 DUP4 CODECOPY DUP2 DUP2 ADD PUSH1 0x40 MSTORE DUP2 ADD SWAP1 PUSH2 0x31 SWAP2 SWAP1 PUSH2 0x115 JUMP JUMPDEST DUP2 PUSH0 DUP1 PUSH2 0x100 EXP DUP2 SLOAD DUP2 PUSH20 0xFFFFFFFFFFFFFFFFFFFFFFFFFFFFFFFFFFFFFFFF MUL NOT AND SWAP1 DUP4 PUSH20 0xFFFFFFFFFFFFFFFFFFFFFFFFFFFFFFFFFFFFFFFF AND MUL OR SWAP1 SSTORE POP DUP1 PUSH1 0x1 PUSH0 PUSH2 0x100 EXP DUP2 SLOAD DUP2 PUSH20 0xFFFFFFFFFFFFFFFFFFFFFFFFFFFFFFFFFFFFFFFF MUL NOT AND SWAP1 DUP4 PUSH20 0xFFFFFFFFFFFFFFFFFFFFFFFFFFFFFFFFFFFFFFFF AND MUL OR SWAP1 SSTORE POP POP POP PUSH2 0x153 JUMP JUMPDEST PUSH0 DUP1 REVERT JUMPDEST PUSH0 PUSH20 0xFFFFFFFFFFFFFFFFFFFFFFFFFFFFFFFFFFFFFFFF DUP3 AND SWAP1 POP SWAP2 SWAP1 POP JUMP JUMPDEST PUSH0 PUSH2 0xE4 DUP3 PUSH2 0xBB JUMP JUMPDEST SWAP1 POP SWAP2 SWAP1 POP JUMP JUMPDEST PUSH2 0xF4 DUP2 PUSH2 0xDA JUMP JUMPDEST DUP2 EQ PUSH2 0xFE JUMPI PUSH0 DUP1 REVERT JUMPDEST POP JUMP JUMPDEST PUSH0 DUP2 MLOAD SWAP1 POP PUSH2 0x10F DUP2 PUSH2 0xEB JUMP JUMPDEST SWAP3 SWAP2 POP POP JUMP JUMPDEST PUSH0 DUP1 PUSH1 0x40 DUP4 DUP6 SUB SLT ISZERO PUSH2 0x12B JUMPI PUSH2 0x12A PUSH2 0xB7 JUMP JUMPDEST JUMPDEST PUSH0 PUSH2 0x138 DUP6 DUP3 DUP7 ADD PUSH2 0x101 JUMP JUMPDEST SWAP3 POP POP PUSH1 0x20 PUSH2 0x149 DUP6 DUP3 DUP7 ADD PUSH2 0x101 JUMP JUMPDEST SWAP2 POP POP SWAP3 POP SWAP3 SWAP1 POP JUMP JUMPDEST PUSH2 0xCF1 DUP1 PUSH2 0x160 PUSH0 CODECOPY PUSH0 RETURN INVALID PUSH1 0x80 PUSH1 0x40 MSTORE CALLVALUE DUP1 ISZERO PUSH2 0xF JUMPI PUSH0 DUP1 REVERT JUMPDEST POP PUSH1 0x4 CALLDATASIZE LT PUSH2 0x7B JUMPI PUSH0 CALLDATALOAD PUSH1 0xE0 SHR DUP1 PUSH4 0x57C90DE5 GT PUSH2 0x59 JUMPI DUP1 PUSH4 0x57C90DE5 EQ PUSH2 0xEE JUMPI DUP1 PUSH4 0x99FDB320 EQ PUSH2 0x10A JUMPI DUP1 PUSH4 0xB9A2DE3A EQ PUSH2 0x128 JUMPI DUP1 PUSH4 0xDE0794EF EQ PUSH2 0x144 JUMPI PUSH2 0x7B JUMP JUMPDEST DUP1 PUSH4 0x121683F EQ PUSH2 0x7F JUMPI DUP1 PUSH4 0x35AF939B EQ PUSH2 0x9B JUMPI DUP1 PUSH4 0x571A26A0 EQ PUSH2 0xB9 JUMPI JUMPDEST PUSH0 DUP1 REVERT JUMPDEST PUSH2 0x99 PUSH1 0x4 DUP1 CALLDATASIZE SUB DUP2 ADD SWAP1 PUSH2 0x94 SWAP2 SWAP1 PUSH2 0x797 JUMP JUMPDEST PUSH2 0x162 JUMP JUMPDEST STOP JUMPDEST PUSH2 0xA3 PUSH2 0x39B JUMP JUMPDEST PUSH1 0x40 MLOAD PUSH2 0xB0 SWAP2 SWAP1 PUSH2 0x84F JUMP JUMPDEST PUSH1 0x40 MLOAD DUP1 SWAP2 SUB SWAP1 RETURN JUMPDEST PUSH2 0xD3 PUSH1 0x4 DUP1 CALLDATASIZE SUB DUP2 ADD SWAP1 PUSH2 0xCE SWAP2 SWAP1 PUSH2 0x868 JUMP JUMPDEST PUSH2 0x3C0 JUMP JUMPDEST PUSH1 0x40 MLOAD PUSH2 0xE5 SWAP7 SWAP6 SWAP5 SWAP4 SWAP3 SWAP2 SWAP1 PUSH2 0x8DC JUMP JUMPDEST PUSH1 0x40 MLOAD DUP1 SWAP2 SUB SWAP1 RETURN JUMPDEST PUSH2 0x108 PUSH1 0x4 DUP1 CALLDATASIZE SUB DUP2 ADD SWAP1 PUSH2 0x103 SWAP2 SWAP1 PUSH2 0x797 JUMP JUMPDEST PUSH2 0x442 JUMP JUMPDEST STOP JUMPDEST PUSH2 0x112 PUSH2 0x646 JUMP JUMPDEST PUSH1 0x40 MLOAD PUSH2 0x11F SWAP2 SWAP1 PUSH2 0x95B JUMP JUMPDEST PUSH1 0x40 MLOAD DUP1 SWAP2 SUB SWAP1 RETURN JUMPDEST PUSH2 0x142 PUSH1 0x4 DUP1 CALLDATASIZE SUB DUP2 ADD SWAP1 PUSH2 0x13D SWAP2 SWAP1 PUSH2 0x868 JUMP JUMPDEST PUSH2 0x669 JUMP JUMPDEST STOP JUMPDEST PUSH2 0x14C PUSH2 0x75A JUMP JUMPDEST PUSH1 0x40 MLOAD PUSH2 0x159 SWAP2 SWAP1 PUSH2 0x974 JUMP JUMPDEST PUSH1 0x40 MLOAD DUP1 SWAP2 SUB SWAP1 RETURN JUMPDEST PUSH1 0x1 PUSH0 SWAP1 SLOAD SWAP1 PUSH2 0x100 EXP SWAP1 DIV PUSH20 0xFFFFFFFFFFFFFFFFFFFFFFFFFFFFFFFFFFFFFFFF AND PUSH20 0xFFFFFFFFFFFFFFFFFFFFFFFFFFFFFFFFFFFFFFFF AND PUSH4 0x23B872DD CALLER ADDRESS DUP6 PUSH1 0x40 MLOAD DUP5 PUSH4 0xFFFFFFFF AND PUSH1 0xE0 SHL DUP2 MSTORE PUSH1 0x4 ADD PUSH2 0x1C0 SWAP4 SWAP3 SWAP2 SWAP1 PUSH2 0x98D JUMP JUMPDEST PUSH0 PUSH1 0x40 MLOAD DUP1 DUP4 SUB DUP2 PUSH0 DUP8 DUP1 EXTCODESIZE ISZERO DUP1 ISZERO PUSH2 0x1D7 JUMPI PUSH0 DUP1 REVERT JUMPDEST POP GAS CALL ISZERO DUP1 ISZERO PUSH2 0x1E9 JUMPI RETURNDATASIZE PUSH0 DUP1 RETURNDATACOPY RETURNDATASIZE PUSH0 REVERT JUMPDEST POP POP POP POP PUSH0 PUSH1 0x2 PUSH0 DUP2 SLOAD DUP1 SWAP3 SWAP2 SWAP1 PUSH2 0x200 SWAP1 PUSH2 0x9EF JUMP JUMPDEST SWAP2 SWAP1 POP SSTORE SWAP1 POP PUSH1 0x40 MLOAD DUP1 PUSH1 0xC0 ADD PUSH1 0x40 MSTORE DUP1 CALLER PUSH20 0xFFFFFFFFFFFFFFFFFFFFFFFFFFFFFFFFFFFFFFFF AND DUP2 MSTORE PUSH1 0x20 ADD PUSH0 PUSH20 0xFFFFFFFFFFFFFFFFFFFFFFFFFFFFFFFFFFFFFFFF AND DUP2 MSTORE PUSH1 0x20 ADD PUSH0 DUP2 MSTORE PUSH1 0x20 ADD DUP5 DUP2 MSTORE PUSH1 0x20 ADD DUP4 TIMESTAMP PUSH2 0x261 SWAP2 SWAP1 PUSH2 0xA36 JUMP JUMPDEST DUP2 MSTORE PUSH1 0x20 ADD PUSH1 0x1 ISZERO ISZERO DUP2 MSTORE POP PUSH1 0x3 PUSH0 DUP4 DUP2 MSTORE PUSH1 0x20 ADD SWAP1 DUP2 MSTORE PUSH1 0x20 ADD PUSH0 KECCAK256 PUSH0 DUP3 ADD MLOAD DUP2 PUSH0 ADD PUSH0 PUSH2 0x100 EXP DUP2 SLOAD DUP2 PUSH20 0xFFFFFFFFFFFFFFFFFFFFFFFFFFFFFFFFFFFFFFFF MUL NOT AND SWAP1 DUP4 PUSH20 0xFFFFFFFFFFFFFFFFFFFFFFFFFFFFFFFFFFFFFFFF AND MUL OR SWAP1 SSTORE POP PUSH1 0x20 DUP3 ADD MLOAD DUP2 PUSH1 0x1 ADD PUSH0 PUSH2 0x100 EXP DUP2 SLOAD DUP2 PUSH20 0xFFFFFFFFFFFFFFFFFFFFFFFFFFFFFFFFFFFFFFFF MUL NOT AND SWAP1 DUP4 PUSH20 0xFFFFFFFFFFFFFFFFFFFFFFFFFFFFFFFFFFFFFFFF AND MUL OR SWAP1 SSTORE POP PUSH1 0x40 DUP3 ADD MLOAD DUP2 PUSH1 0x2 ADD SSTORE PUSH1 0x60 DUP3 ADD MLOAD DUP2 PUSH1 0x3 ADD SSTORE PUSH1 0x80 DUP3 ADD MLOAD DUP2 PUSH1 0x4 ADD SSTORE PUSH1 0xA0 DUP3 ADD MLOAD DUP2 PUSH1 0x5 ADD PUSH0 PUSH2 0x100 EXP DUP2 SLOAD DUP2 PUSH1 0xFF MUL NOT AND SWAP1 DUP4 ISZERO ISZERO MUL OR SWAP1 SSTORE POP SWAP1 POP POP DUP1 PUSH32 0xD6EDDD1118D71820909C1197AA966DBC15ED6F508554252169CC3D5CCAC756CA DUP5 PUSH1 0x3 PUSH0 DUP6 DUP2 MSTORE PUSH1 0x20 ADD SWAP1 DUP2 MSTORE PUSH1 0x20 ADD PUSH0 KECCAK256 PUSH1 0x4 ADD SLOAD PUSH1 0x40 MLOAD PUSH2 0x38E SWAP3 SWAP2 SWAP1 PUSH2 0xA69 JUMP JUMPDEST PUSH1 0x40 MLOAD DUP1 SWAP2 SUB SWAP1 LOG2 POP POP POP JUMP JUMPDEST PUSH1 0x1 PUSH0 SWAP1 SLOAD SWAP1 PUSH2 0x100 EXP SWAP1 DIV PUSH20 0xFFFFFFFFFFFFFFFFFFFFFFFFFFFFFFFFFFFFFFFF AND DUP2 JUMP JUMPDEST PUSH1 0x3 PUSH1 0x20 MSTORE DUP1 PUSH0 MSTORE PUSH1 0x40 PUSH0 KECCAK256 PUSH0 SWAP2 POP SWAP1 POP DUP1 PUSH0 ADD PUSH0 SWAP1 SLOAD SWAP1 PUSH2 0x100 EXP SWAP1 DIV PUSH20 0xFFFFFFFFFFFFFFFFFFFFFFFFFFFFFFFFFFFFFFFF AND SWAP1 DUP1 PUSH1 0x1 ADD PUSH0 SWAP1 SLOAD SWAP1 PUSH2 0x100 EXP SWAP1 DIV PUSH20 0xFFFFFFFFFFFFFFFFFFFFFFFFFFFFFFFFFFFFFFFF AND SWAP1 DUP1 PUSH1 0x2 ADD SLOAD SWAP1 DUP1 PUSH1 0x3 ADD SLOAD SWAP1 DUP1 PUSH1 0x4 ADD SLOAD SWAP1 DUP1 PUSH1 0x5 ADD PUSH0 SWAP1 SLOAD SWAP1 PUSH2 0x100 EXP SWAP1 DIV PUSH1 0xFF AND SWAP1 POP DUP7 JUMP JUMPDEST PUSH0 PUSH1 0x3 PUSH0 DUP5 DUP2 MSTORE PUSH1 0x20 ADD SWAP1 DUP2 MSTORE PUSH1 0x20 ADD PUSH0 KECCAK256 SWAP1 POP DUP1 PUSH1 0x4 ADD SLOAD TIMESTAMP LT PUSH2 0x49C JUMPI PUSH1 0x40 MLOAD PUSH32 0x8C379A000000000000000000000000000000000000000000000000000000000 DUP2 MSTORE PUSH1 0x4 ADD PUSH2 0x493 SWAP1 PUSH2 0xAEA JUMP JUMPDEST PUSH1 0x40 MLOAD DUP1 SWAP2 SUB SWAP1 REVERT JUMPDEST DUP1 PUSH1 0x5 ADD PUSH0 SWAP1 SLOAD SWAP1 PUSH2 0x100 EXP SWAP1 DIV PUSH1 0xFF AND PUSH2 0x4EC JUMPI PUSH1 0x40 MLOAD PUSH32 0x8C379A000000000000000000000000000000000000000000000000000000000 DUP2 MSTORE PUSH1 0x4 ADD PUSH2 0x4E3 SWAP1 PUSH2 0xB52 JUMP JUMPDEST PUSH1 0x40 MLOAD DUP1 SWAP2 SUB SWAP1 REVERT JUMPDEST DUP1 PUSH1 0x2 ADD SLOAD DUP3 GT PUSH2 0x532 JUMPI PUSH1 0x40 MLOAD PUSH32 0x8C379A000000000000000000000000000000000000000000000000000000000 DUP2 MSTORE PUSH1 0x4 ADD PUSH2 0x529 SWAP1 PUSH2 0xBE0 JUMP JUMPDEST PUSH1 0x40 MLOAD DUP1 SWAP2 SUB SWAP1 REVERT JUMPDEST PUSH0 DUP1 SLOAD SWAP1 PUSH2 0x100 EXP SWAP1 DIV PUSH20 0xFFFFFFFFFFFFFFFFFFFFFFFFFFFFFFFFFFFFFFFF AND PUSH20 0xFFFFFFFFFFFFFFFFFFFFFFFFFFFFFFFFFFFFFFFF AND PUSH4 0x23B872DD CALLER ADDRESS DUP6 PUSH1 0x40 MLOAD DUP5 PUSH4 0xFFFFFFFF AND PUSH1 0xE0 SHL DUP2 MSTORE PUSH1 0x4 ADD PUSH2 0x58E SWAP4 SWAP3 SWAP2 SWAP1 PUSH2 0x98D JUMP JUMPDEST PUSH1 0x20 PUSH1 0x40 MLOAD DUP1 DUP4 SUB DUP2 PUSH0 DUP8 GAS CALL ISZERO DUP1 ISZERO PUSH2 0x5AA JUMPI RETURNDATASIZE PUSH0 DUP1 RETURNDATACOPY RETURNDATASIZE PUSH0 REVERT JUMPDEST POP POP POP POP PUSH1 0x40 MLOAD RETURNDATASIZE PUSH1 0x1F NOT PUSH1 0x1F DUP3 ADD AND DUP3 ADD DUP1 PUSH1 0x40 MSTORE POP DUP2 ADD SWAP1 PUSH2 0x5CE SWAP2 SWAP1 PUSH2 0xC28 JUMP JUMPDEST POP PUSH0 PUSH20 0xFFFFFFFFFFFFFFFFFFFFFFFFFFFFFFFFFFFFFFFF AND DUP2 PUSH1 0x1 ADD PUSH0 SWAP1 SLOAD SWAP1 PUSH2 0x100 EXP SWAP1 POP POP POP DUP2 DUP2 PUSH1 0x2 ADD DUP2 SWAP1 SSTORE POP CALLER DUP2 PUSH1 0x1 ADD PUSH0 PUSH2 0x100 EXP DUP2 SLOAD DUP2 PUSH20 0xFFFFFFFFFFFFFFFFFFFFFFFFFFFFFFFFFFFFFFFF MUL NOT AND SWAP1 DUP4 PUSH20 0xFFFFFFFFFFFFFFFFFFFFFFFFFFFFFFFFFFFFFFFF AND MUL OR SWAP1 SSTORE POP POP POP POP JUMP JUMPDEST PUSH0 DUP1 SLOAD SWAP1 PUSH2 0x100 EXP SWAP1 DIV PUSH20 0xFFFFFFFFFFFFFFFFFFFFFFFFFFFFFFFFFFFFFFFF AND DUP2 JUMP JUMPDEST PUSH0 PUSH1 0x3 PUSH0 DUP4 DUP2 MSTORE PUSH1 0x20 ADD SWAP1 DUP2 MSTORE PUSH1 0x20 ADD PUSH0 KECCAK256 SWAP1 POP DUP1 PUSH1 0x4 ADD SLOAD TIMESTAMP LT ISZERO PUSH2 0x6C4 JUMPI PUSH1 0x40 MLOAD PUSH32 0x8C379A000000000000000000000000000000000000000000000000000000000 DUP2 MSTORE PUSH1 0x4 ADD PUSH2 0x6BB SWAP1 PUSH2 0xC9D JUMP JUMPDEST PUSH1 0x40 MLOAD DUP1 SWAP2 SUB SWAP1 REVERT JUMPDEST DUP1 PUSH1 0x5 ADD PUSH0 SWAP1 SLOAD SWAP1 PUSH2 0x100 EXP SWAP1 DIV PUSH1 0xFF AND PUSH2 0x714 JUMPI PUSH1 0x40 MLOAD PUSH32 0x8C379A000000000000000000000000000000000000000000000000000000000 DUP2 MSTORE PUSH1 0x4 ADD PUSH2 0x70B SWAP1 PUSH2 0xB52 JUMP JUMPDEST PUSH1 0x40 MLOAD DUP1 SWAP2 SUB SWAP1 REVERT JUMPDEST PUSH0 DUP2 PUSH1 0x5 ADD PUSH0 PUSH2 0x100 EXP DUP2 SLOAD DUP2 PUSH1 0xFF MUL NOT AND SWAP1 DUP4 ISZERO ISZERO MUL OR SWAP1 SSTORE POP PUSH0 PUSH20 0xFFFFFFFFFFFFFFFFFFFFFFFFFFFFFFFFFFFFFFFF AND DUP2 PUSH1 0x1 ADD PUSH0 SWAP1 SLOAD SWAP1 PUSH2 0x100 EXP SWAP1 POP POP POP POP POP JUMP JUMPDEST PUSH1 0x2 SLOAD DUP2 JUMP JUMPDEST PUSH0 DUP1 REVERT JUMPDEST PUSH0 DUP2 SWAP1 POP SWAP2 SWAP1 POP JUMP JUMPDEST PUSH2 0x776 DUP2 PUSH2 0x764 JUMP JUMPDEST DUP2 EQ PUSH2 0x780 JUMPI PUSH0 DUP1 REVERT JUMPDEST POP JUMP JUMPDEST PUSH0 DUP2 CALLDATALOAD SWAP1 POP PUSH2 0x791 DUP2 PUSH2 0x76D JUMP JUMPDEST SWAP3 SWAP2 POP POP JUMP JUMPDEST PUSH0 DUP1 PUSH1 0x40 DUP4 DUP6 SUB SLT ISZERO PUSH2 0x7AD JUMPI PUSH2 0x7AC PUSH2 0x760 JUMP JUMPDEST JUMPDEST PUSH0 PUSH2 0x7BA DUP6 DUP3 DUP7 ADD PUSH2 0x783 JUMP JUMPDEST SWAP3 POP POP PUSH1 0x20 PUSH2 0x7CB DUP6 DUP3 DUP7 ADD PUSH2 0x783 JUMP JUMPDEST SWAP2 POP POP SWAP3 POP SWAP3 SWAP1 POP JUMP JUMPDEST PUSH0 PUSH20 0xFFFFFFFFFFFFFFFFFFFFFFFFFFFFFFFFFFFFFFFF DUP3 AND SWAP1 POP SWAP2 SWAP1 POP JUMP JUMPDEST PUSH0 DUP2 SWAP1 POP SWAP2 SWAP1 POP JUMP JUMPDEST PUSH0 PUSH2 0x817 PUSH2 0x812 PUSH2 0x80D DUP5 PUSH2 0x7D5 JUMP JUMPDEST PUSH2 0x7F4 JUMP JUMPDEST PUSH2 0x7D5 JUMP JUMPDEST SWAP1 POP SWAP2 SWAP1 POP JUMP JUMPDEST PUSH0 PUSH2 0x828 DUP3 PUSH2 0x7FD JUMP JUMPDEST SWAP1 POP SWAP2 SWAP1 POP JUMP JUMPDEST PUSH0 PUSH2 0x839 DUP3 PUSH2 0x81E JUMP JUMPDEST SWAP1 POP SWAP2 SWAP1 POP JUMP JUMPDEST PUSH2 0x849 DUP2 PUSH2 0x82F JUMP JUMPDEST DUP3 MSTORE POP POP JUMP JUMPDEST PUSH0 PUSH1 0x20 DUP3 ADD SWAP1 POP PUSH2 0x862 PUSH0 DUP4 ADD DUP5 PUSH2 0x840 JUMP JUMPDEST SWAP3 SWAP2 POP POP JUMP JUMPDEST PUSH0 PUSH1 0x20 DUP3 DUP5 SUB SLT ISZERO PUSH2 0x87D JUMPI PUSH2 0x87C PUSH2 0x760 JUMP JUMPDEST JUMPDEST PUSH0 PUSH2 0x88A DUP5 DUP3 DUP6 ADD PUSH2 0x783 JUMP JUMPDEST SWAP2 POP POP SWAP3 SWAP2 POP POP JUMP JUMPDEST PUSH0 PUSH2 0x89D DUP3 PUSH2 0x7D5 JUMP JUMPDEST SWAP1 POP SWAP2 SWAP1 POP JUMP JUMPDEST PUSH2 0x8AD DUP2 PUSH2 0x893 JUMP JUMPDEST DUP3 MSTORE POP POP JUMP JUMPDEST PUSH2 0x8BC DUP2 PUSH2 0x764 JUMP JUMPDEST DUP3 MSTORE POP POP JUMP JUMPDEST PUSH0 DUP2 ISZERO ISZERO SWAP1 POP SWAP2 SWAP1 POP JUMP JUMPDEST PUSH2 0x8D6 DUP2 PUSH2 0x8C2 JUMP JUMPDEST DUP3 MSTORE POP POP JUMP JUMPDEST PUSH0 PUSH1 0xC0 DUP3 ADD SWAP1 POP PUSH2 0x8EF PUSH0 DUP4 ADD DUP10 PUSH2 0x8A4 JUMP JUMPDEST PUSH2 0x8FC PUSH1 0x20 DUP4 ADD DUP9 PUSH2 0x8A4 JUMP JUMPDEST PUSH2 0x909 PUSH1 0x40 DUP4 ADD DUP8 PUSH2 0x8B3 JUMP JUMPDEST PUSH2 0x916 PUSH1 0x60 DUP4 ADD DUP7 PUSH2 0x8B3 JUMP JUMPDEST PUSH2 0x923 PUSH1 0x80 DUP4 ADD DUP6 PUSH2 0x8B3 JUMP JUMPDEST PUSH2 0x930 PUSH1 0xA0 DUP4 ADD DUP5 PUSH2 0x8CD JUMP JUMPDEST SWAP8 SWAP7 POP POP POP POP POP POP POP JUMP JUMPDEST PUSH0 PUSH2 0x945 DUP3 PUSH2 0x81E JUMP JUMPDEST SWAP1 POP SWAP2 SWAP1 POP JUMP JUMPDEST PUSH2 0x955 DUP2 PUSH2 0x93B JUMP JUMPDEST DUP3 MSTORE POP POP JUMP JUMPDEST PUSH0 PUSH1 0x20 DUP3 ADD SWAP1 POP PUSH2 0x96E PUSH0 DUP4 ADD DUP5 PUSH2 0x94C JUMP JUMPDEST SWAP3 SWAP2 POP POP JUMP JUMPDEST PUSH0 PUSH1 0x20 DUP3 ADD SWAP1 POP PUSH2 0x987 PUSH0 DUP4 ADD DUP5 PUSH2 0x8B3 JUMP JUMPDEST SWAP3 SWAP2 POP POP JUMP JUMPDEST PUSH0 PUSH1 0x60 DUP3 ADD SWAP1 POP PUSH2 0x9A0 PUSH0 DUP4 ADD DUP7 PUSH2 0x8A4 JUMP JUMPDEST PUSH2 0x9AD PUSH1 0x20 DUP4 ADD DUP6 PUSH2 0x8A4 JUMP JUMPDEST PUSH2 0x9BA PUSH1 0x40 DUP4 ADD DUP5 PUSH2 0x8B3 JUMP JUMPDEST SWAP5 SWAP4 POP POP POP POP JUMP JUMPDEST PUSH32 0x4E487B7100000000000000000000000000000000000000000000000000000000 PUSH0 MSTORE PUSH1 0x11 PUSH1 0x4 MSTORE PUSH1 0x24 PUSH0 REVERT JUMPDEST PUSH0 PUSH2 0x9F9 DUP3 PUSH2 0x764 JUMP JUMPDEST SWAP2 POP PUSH32 0xFFFFFFFFFFFFFFFFFFFFFFFFFFFFFFFFFFFFFFFFFFFFFFFFFFFFFFFFFFFFFFFF DUP3 SUB PUSH2 0xA2B JUMPI PUSH2 0xA2A PUSH2 0x9C2 JUMP JUMPDEST JUMPDEST PUSH1 0x1 DUP3 ADD SWAP1 POP SWAP2 SWAP1 POP JUMP JUMPDEST PUSH0 PUSH2 0xA40 DUP3 PUSH2 0x764 JUMP JUMPDEST SWAP2 POP PUSH2 0xA4B DUP4 PUSH2 0x764 JUMP JUMPDEST SWAP3 POP DUP3 DUP3 ADD SWAP1 POP DUP1 DUP3 GT ISZERO PUSH2 0xA63 JUMPI PUSH2 0xA62 PUSH2 0x9C2 JUMP JUMPDEST JUMPDEST SWAP3 SWAP2 POP POP JUMP JUMPDEST PUSH0 PUSH1 0x40 DUP3 ADD SWAP1 POP PUSH2 0xA7C PUSH0 DUP4 ADD DUP6 PUSH2 0x8B3 JUMP JUMPDEST PUSH2 0xA89 PUSH1 0x20 DUP4 ADD DUP5 PUSH2 0x8B3 JUMP JUMPDEST SWAP4 SWAP3 POP POP POP JUMP JUMPDEST PUSH0 DUP3 DUP3 MSTORE PUSH1 0x20 DUP3 ADD SWAP1 POP SWAP3 SWAP2 POP POP JUMP JUMPDEST PUSH32 0x41756374696F6E2068617320656E646564000000000000000000000000000000 PUSH0 DUP3 ADD MSTORE POP JUMP JUMPDEST PUSH0 PUSH2 0xAD4 PUSH1 0x11 DUP4 PUSH2 0xA90 JUMP JUMPDEST SWAP2 POP PUSH2 0xADF DUP3 PUSH2 0xAA0 JUMP JUMPDEST PUSH1 0x20 DUP3 ADD SWAP1 POP SWAP2 SWAP1 POP JUMP JUMPDEST PUSH0 PUSH1 0x20 DUP3 ADD SWAP1 POP DUP2 DUP2 SUB PUSH0 DUP4 ADD MSTORE PUSH2 0xB01 DUP2 PUSH2 0xAC8 JUMP JUMPDEST SWAP1 POP SWAP2 SWAP1 POP JUMP JUMPDEST PUSH32 0x41756374696F6E206973206E6F74206163746976650000000000000000000000 PUSH0 DUP3 ADD MSTORE POP JUMP JUMPDEST PUSH0 PUSH2 0xB3C PUSH1 0x15 DUP4 PUSH2 0xA90 JUMP JUMPDEST SWAP2 POP PUSH2 0xB47 DUP3 PUSH2 0xB08 JUMP JUMPDEST PUSH1 0x20 DUP3 ADD SWAP1 POP SWAP2 SWAP1 POP JUMP JUMPDEST PUSH0 PUSH1 0x20 DUP3 ADD SWAP1 POP DUP2 DUP2 SUB PUSH0 DUP4 ADD MSTORE PUSH2 0xB69 DUP2 PUSH2 0xB30 JUMP JUMPDEST SWAP1 POP SWAP2 SWAP1 POP JUMP JUMPDEST PUSH32 0x426964206D75737420626520686967686572207468616E2063757272656E7420 PUSH0 DUP3 ADD MSTORE PUSH32 0x6869676865737420626964000000000000000000000000000000000000000000 PUSH1 0x20 DUP3 ADD MSTORE POP JUMP JUMPDEST PUSH0 PUSH2 0xBCA PUSH1 0x2B DUP4 PUSH2 0xA90 JUMP JUMPDEST SWAP2 POP PUSH2 0xBD5 DUP3 PUSH2 0xB70 JUMP JUMPDEST PUSH1 0x40 DUP3 ADD SWAP1 POP SWAP2 SWAP1 POP JUMP JUMPDEST PUSH0 PUSH1 0x20 DUP3 ADD SWAP1 POP DUP2 DUP2 SUB PUSH0 DUP4 ADD MSTORE PUSH2 0xBF7 DUP2 PUSH2 0xBBE JUMP JUMPDEST SWAP1 POP SWAP2 SWAP1 POP JUMP JUMPDEST PUSH2 0xC07 DUP2 PUSH2 0x8C2 JUMP JUMPDEST DUP2 EQ PUSH2 0xC11 JUMPI PUSH0 DUP1 REVERT JUMPDEST POP JUMP JUMPDEST PUSH0 DUP2 MLOAD SWAP1 POP PUSH2 0xC22 DUP2 PUSH2 0xBFE JUMP JUMPDEST SWAP3 SWAP2 POP POP JUMP JUMPDEST PUSH0 PUSH1 0x20 DUP3 DUP5 SUB SLT ISZERO PUSH2 0xC3D JUMPI PUSH2 0xC3C PUSH2 0x760 JUMP JUMPDEST JUMPDEST PUSH0 PUSH2 0xC4A DUP5 DUP3 DUP6 ADD PUSH2 0xC14 JUMP JUMPDEST SWAP2 POP POP SWAP3 SWAP2 POP POP JUMP JUMPDEST PUSH32 0x41756374696F6E20686173206E6F7420656E6465642079657400000000000000 PUSH0 DUP3 ADD MSTORE POP JUMP JUMPDEST PUSH0 PUSH2 0xC87 PUSH1 0x19 DUP4 PUSH2 0xA90 JUMP JUMPDEST SWAP2 POP PUSH2 0xC92 DUP3 PUSH2 0xC53 JUMP JUMPDEST PUSH1 0x20 DUP3 ADD SWAP1 POP SWAP2 SWAP1 POP JUMP JUMPDEST PUSH0 PUSH1 0x20 DUP3 ADD SWAP1 POP DUP2 DUP2 SUB PUSH0 DUP4 ADD MSTORE PUSH2 0xCB4 DUP2 PUSH2 0xC7B JUMP JUMPDEST SWAP1 POP SWAP2 SWAP1 POP JUMP INVALID LOG2 PUSH5 0x6970667358 0x22 SLT KECCAK256 DUP10 SAR 0xD3 0x4D MCOPY PUSH25 0xFB9852517D14FBD8884A44C7849996F2A0F052B17EE674833F 0xD0 PUSH5 0x736F6C6343 STOP ADDMOD BYTE STOP CALLER "
		},
		"gasEstimates": {
			"creation": {
				"codeDepositCost": "662600",
				"executionCost": "infinite",
				"totalCost": "infinite"
			},
			"external": {
				"auctionIdCounter()": "2491",
				"auctionNFT()": "infinite",
				"auctionToken()": "infinite",
				"auctions(uint256)": "infinite",
				"createAuction(uint256,uint256)": "infinite",
				"endAuction(uint256)": "31240",
				"placeBid(uint256,uint256)": "infinite"
			}
		},
		"methodIdentifiers": {
			"auctionIdCounter()": "de0794ef",
			"auctionNFT()": "35af939b",
			"auctionToken()": "99fdb320",
			"auctions(uint256)": "571a26a0",
			"createAuction(uint256,uint256)": "0121683f",
			"endAuction(uint256)": "b9a2de3a",
			"placeBid(uint256,uint256)": "57c90de5"
		}
	},
	"abi": [
		{
			"inputs": [
				{
					"internalType": "address",
					"name": "_auctionToken",
					"type": "address"
				},
				{
					"internalType": "address",
					"name": "_auctionNFT",
					"type": "address"
				}
			],
			"stateMutability": "nonpayable",
			"type": "constructor"
		},
		{
			"anonymous": false,
			"inputs": [
				{
					"indexed": true,
					"internalType": "uint256",
					"name": "auctionId",
					"type": "uint256"
				},
				{
					"indexed": false,
					"internalType": "uint256",
					"name": "tokenId",
					"type": "uint256"
				},
				{
					"indexed": false,
					"internalType": "uint256",
					"name": "endTime",
					"type": "uint256"
				}
			],
			"name": "AuctionCreated",
			"type": "event"
		},
		{
			"anonymous": false,
			"inputs": [
				{
					"indexed": true,
					"internalType": "uint256",
					"name": "auctionId",
					"type": "uint256"
				},
				{
					"indexed": false,
					"internalType": "address",
					"name": "winner",
					"type": "address"
				},
				{
					"indexed": false,
					"internalType": "uint256",
					"name": "bidAmount",
					"type": "uint256"
				}
			],
			"name": "AuctionEnded",
			"type": "event"
		},
		{
			"anonymous": false,
			"inputs": [
				{
					"indexed": true,
					"internalType": "uint256",
					"name": "auctionId",
					"type": "uint256"
				},
				{
					"indexed": false,
					"internalType": "address",
					"name": "bidder",
					"type": "address"
				},
				{
					"indexed": false,
					"internalType": "uint256",
					"name": "bidAmount",
					"type": "uint256"
				}
			],
			"name": "NewBid",
			"type": "event"
		},
		{
			"inputs": [],
			"name": "auctionIdCounter",
			"outputs": [
				{
					"internalType": "uint256",
					"name": "",
					"type": "uint256"
				}
			],
			"stateMutability": "view",
			"type": "function"
		},
		{
			"inputs": [],
			"name": "auctionNFT",
			"outputs": [
				{
					"internalType": "contract IERC721",
					"name": "",
					"type": "address"
				}
			],
			"stateMutability": "view",
			"type": "function"
		},
		{
			"inputs": [],
			"name": "auctionToken",
			"outputs": [
				{
					"internalType": "contract IERC20",
					"name": "",
					"type": "address"
				}
			],
			"stateMutability": "view",
			"type": "function"
		},
		{
			"inputs": [
				{
					"internalType": "uint256",
					"name": "",
					"type": "uint256"
				}
			],
			"name": "auctions",
			"outputs": [
				{
					"internalType": "address",
					"name": "seller",
					"type": "address"
				},
				{
					"internalType": "address",
					"name": "highestBidder",
					"type": "address"
				},
				{
					"internalType": "uint256",
					"name": "highestBid",
					"type": "uint256"
				},
				{
					"internalType": "uint256",
					"name": "tokenId",
					"type": "uint256"
				},
				{
					"internalType": "uint256",
					"name": "endTime",
					"type": "uint256"
				},
				{
					"internalType": "bool",
					"name": "active",
					"type": "bool"
				}
			],
			"stateMutability": "view",
			"type": "function"
		},
		{
			"inputs": [
				{
					"internalType": "uint256",
					"name": "tokenId",
					"type": "uint256"
				},
				{
					"internalType": "uint256",
					"name": "duration",
					"type": "uint256"
				}
			],
			"name": "createAuction",
			"outputs": [],
			"stateMutability": "nonpayable",
			"type": "function"
		},
		{
			"inputs": [
				{
					"internalType": "uint256",
					"name": "auctionId",
					"type": "uint256"
				}
			],
			"name": "endAuction",
			"outputs": [],
			"stateMutability": "nonpayable",
			"type": "function"
		},
		{
			"inputs": [
				{
					"internalType": "uint256",
					"name": "auctionId",
					"type": "uint256"
				},
				{
					"internalType": "uint256",
					"name": "bidAmount",
					"type": "uint256"
				}
			],
			"name": "placeBid",
			"outputs": [],
			"stateMutability": "nonpayable",
			"type": "function"
		}
	]
}