{
	"TrabajoFinalModulo3/auctionPlataform.sol": {
		"AuctionPlatform": {
			"abi": [
				{
					"inputs": [
						{
							"internalType": "address",
							"name": "_auctionToken",
							"type": "address"
						},
						{
							"internalType": "address",
							"name": "_auctionNFT",
							"type": "address"
						}
					],
					"stateMutability": "nonpayable",
					"type": "constructor"
				},
				{
					"anonymous": false,
					"inputs": [
						{
							"indexed": true,
							"internalType": "uint256",
							"name": "auctionId",
							"type": "uint256"
						},
						{
							"indexed": false,
							"internalType": "uint256",
							"name": "tokenId",
							"type": "uint256"
						},
						{
							"indexed": false,
							"internalType": "uint256",
							"name": "endTime",
							"type": "uint256"
						}
					],
					"name": "AuctionCreated",
					"type": "event"
				},
				{
					"anonymous": false,
					"inputs": [
						{
							"indexed": true,
							"internalType": "uint256",
							"name": "auctionId",
							"type": "uint256"
						},
						{
							"indexed": false,
							"internalType": "address",
							"name": "winner",
							"type": "address"
						},
						{
							"indexed": false,
							"internalType": "uint256",
							"name": "bidAmount",
							"type": "uint256"
						}
					],
					"name": "AuctionEnded",
					"type": "event"
				},
				{
					"anonymous": false,
					"inputs": [
						{
							"indexed": true,
							"internalType": "uint256",
							"name": "auctionId",
							"type": "uint256"
						},
						{
							"indexed": false,
							"internalType": "address",
							"name": "bidder",
							"type": "address"
						},
						{
							"indexed": false,
							"internalType": "uint256",
							"name": "bidAmount",
							"type": "uint256"
						}
					],
					"name": "NewBid",
					"type": "event"
				},
				{
					"inputs": [],
					"name": "auctionIdCounter",
					"outputs": [
						{
							"internalType": "uint256",
							"name": "",
							"type": "uint256"
						}
					],
					"stateMutability": "view",
					"type": "function"
				},
				{
					"inputs": [],
					"name": "auctionNFT",
					"outputs": [
						{
							"internalType": "contract IERC721",
							"name": "",
							"type": "address"
						}
					],
					"stateMutability": "view",
					"type": "function"
				},
				{
					"inputs": [],
					"name": "auctionToken",
					"outputs": [
						{
							"internalType": "contract IERC20",
							"name": "",
							"type": "address"
						}
					],
					"stateMutability": "view",
					"type": "function"
				},
				{
					"inputs": [
						{
							"internalType": "uint256",
							"name": "",
							"type": "uint256"
						}
					],
					"name": "auctions",
					"outputs": [
						{
							"internalType": "address",
							"name": "seller",
							"type": "address"
						},
						{
							"internalType": "address",
							"name": "highestBidder",
							"type": "address"
						},
						{
							"internalType": "uint256",
							"name": "highestBid",
							"type": "uint256"
						},
						{
							"internalType": "uint256",
							"name": "tokenId",
							"type": "uint256"
						},
						{
							"internalType": "uint256",
							"name": "endTime",
							"type": "uint256"
						},
						{
							"internalType": "bool",
							"name": "active",
							"type": "bool"
						}
					],
					"stateMutability": "view",
					"type": "function"
				},
				{
					"inputs": [
						{
							"internalType": "uint256",
							"name": "_tokenId",
							"type": "uint256"
						},
						{
							"internalType": "uint256",
							"name": "duration",
							"type": "uint256"
						}
					],
					"name": "createAuction",
					"outputs": [],
					"stateMutability": "nonpayable",
					"type": "function"
				},
				{
					"inputs": [
						{
							"internalType": "uint256",
							"name": "auctionId",
							"type": "uint256"
						}
					],
					"name": "endAuction",
					"outputs": [],
					"stateMutability": "nonpayable",
					"type": "function"
				},
				{
					"inputs": [
						{
							"internalType": "uint256",
							"name": "_auctionId",
							"type": "uint256"
						},
						{
							"internalType": "uint256",
							"name": "_bidAmount",
							"type": "uint256"
						}
					],
					"name": "placeBid",
					"outputs": [],
					"stateMutability": "nonpayable",
					"type": "function"
				}
			],
			"devdoc": {
				"kind": "dev",
				"methods": {},
				"version": 1
			},
			"evm": {
				"assembly": "    /* \"TrabajoFinalModulo3/auctionPlataform.sol\":395:6194  contract AuctionPlatform {... */\n  mstore(0x40, 0x80)\n    /* \"TrabajoFinalModulo3/auctionPlataform.sol\":1951:2194  constructor(address _auctionToken, address _auctionNFT) {... */\n  callvalue\n  dup1\n  iszero\n  tag_1\n  jumpi\n  revert(0x00, 0x00)\ntag_1:\n  pop\n  mload(0x40)\n  sub(codesize, bytecodeSize)\n  dup1\n  bytecodeSize\n  dup4\n  codecopy\n  dup2\n  dup2\n  add\n  0x40\n  mstore\n  dup2\n  add\n  swap1\n  tag_2\n  swap2\n  swap1\n  tag_3\n  jump\t// in\ntag_2:\n    /* \"TrabajoFinalModulo3/auctionPlataform.sol\":2039:2052  _auctionToken */\n  dup2\n    /* \"TrabajoFinalModulo3/auctionPlataform.sol\":2017:2029  auctionToken */\n  0x00\n  0x00\n    /* \"TrabajoFinalModulo3/auctionPlataform.sol\":2017:2053  auctionToken = IERC20(_auctionToken) */\n  0x0100\n  exp\n  dup2\n  sload\n  dup2\n  0xffffffffffffffffffffffffffffffffffffffff\n  mul\n  not\n  and\n  swap1\n  dup4\n  0xffffffffffffffffffffffffffffffffffffffff\n  and\n  mul\n  or\n  swap1\n  sstore\n  pop\n    /* \"TrabajoFinalModulo3/auctionPlataform.sol\":2129:2140  _auctionNFT */\n  dup1\n    /* \"TrabajoFinalModulo3/auctionPlataform.sol\":2108:2118  auctionNFT */\n  0x01\n  0x00\n    /* \"TrabajoFinalModulo3/auctionPlataform.sol\":2108:2141  auctionNFT = IERC721(_auctionNFT) */\n  0x0100\n  exp\n  dup2\n  sload\n  dup2\n  0xffffffffffffffffffffffffffffffffffffffff\n  mul\n  not\n  and\n  swap1\n  dup4\n  0xffffffffffffffffffffffffffffffffffffffff\n  and\n  mul\n  or\n  swap1\n  sstore\n  pop\n    /* \"TrabajoFinalModulo3/auctionPlataform.sol\":1951:2194  constructor(address _auctionToken, address _auctionNFT) {... */\n  pop\n  pop\n    /* \"TrabajoFinalModulo3/auctionPlataform.sol\":395:6194  contract AuctionPlatform {... */\n  jump(tag_6)\n    /* \"#utility.yul\":88:205   */\ntag_8:\n    /* \"#utility.yul\":197:198   */\n  0x00\n    /* \"#utility.yul\":194:195   */\n  0x00\n    /* \"#utility.yul\":187:199   */\n  revert\n    /* \"#utility.yul\":334:460   */\ntag_10:\n    /* \"#utility.yul\":371:378   */\n  0x00\n    /* \"#utility.yul\":411:453   */\n  0xffffffffffffffffffffffffffffffffffffffff\n    /* \"#utility.yul\":404:409   */\n  dup3\n    /* \"#utility.yul\":400:454   */\n  and\n    /* \"#utility.yul\":389:454   */\n  swap1\n  pop\n    /* \"#utility.yul\":334:460   */\n  swap2\n  swap1\n  pop\n  jump\t// out\n    /* \"#utility.yul\":466:562   */\ntag_11:\n    /* \"#utility.yul\":503:510   */\n  0x00\n    /* \"#utility.yul\":532:556   */\n  tag_20\n    /* \"#utility.yul\":550:555   */\n  dup3\n    /* \"#utility.yul\":532:556   */\n  tag_10\n  jump\t// in\ntag_20:\n    /* \"#utility.yul\":521:556   */\n  swap1\n  pop\n    /* \"#utility.yul\":466:562   */\n  swap2\n  swap1\n  pop\n  jump\t// out\n    /* \"#utility.yul\":568:690   */\ntag_12:\n    /* \"#utility.yul\":641:665   */\n  tag_22\n    /* \"#utility.yul\":659:664   */\n  dup2\n    /* \"#utility.yul\":641:665   */\n  tag_11\n  jump\t// in\ntag_22:\n    /* \"#utility.yul\":634:639   */\n  dup2\n    /* \"#utility.yul\":631:666   */\n  eq\n    /* \"#utility.yul\":621:684   */\n  tag_23\n  jumpi\n    /* \"#utility.yul\":680:681   */\n  0x00\n    /* \"#utility.yul\":677:678   */\n  0x00\n    /* \"#utility.yul\":670:682   */\n  revert\n    /* \"#utility.yul\":621:684   */\ntag_23:\n    /* \"#utility.yul\":568:690   */\n  pop\n  jump\t// out\n    /* \"#utility.yul\":696:839   */\ntag_13:\n    /* \"#utility.yul\":753:758   */\n  0x00\n    /* \"#utility.yul\":784:790   */\n  dup2\n    /* \"#utility.yul\":778:791   */\n  mload\n    /* \"#utility.yul\":769:791   */\n  swap1\n  pop\n    /* \"#utility.yul\":800:833   */\n  tag_25\n    /* \"#utility.yul\":827:832   */\n  dup2\n    /* \"#utility.yul\":800:833   */\n  tag_12\n  jump\t// in\ntag_25:\n    /* \"#utility.yul\":696:839   */\n  swap3\n  swap2\n  pop\n  pop\n  jump\t// out\n    /* \"#utility.yul\":845:1352   */\ntag_3:\n    /* \"#utility.yul\":924:930   */\n  0x00\n    /* \"#utility.yul\":932:938   */\n  0x00\n    /* \"#utility.yul\":981:983   */\n  0x40\n    /* \"#utility.yul\":969:978   */\n  dup4\n    /* \"#utility.yul\":960:967   */\n  dup6\n    /* \"#utility.yul\":956:979   */\n  sub\n    /* \"#utility.yul\":952:984   */\n  slt\n    /* \"#utility.yul\":949:1068   */\n  iszero\n  tag_27\n  jumpi\n    /* \"#utility.yul\":987:1066   */\n  tag_28\n  tag_8\n  jump\t// in\ntag_28:\n    /* \"#utility.yul\":949:1068   */\ntag_27:\n    /* \"#utility.yul\":1107:1108   */\n  0x00\n    /* \"#utility.yul\":1132:1196   */\n  tag_29\n    /* \"#utility.yul\":1188:1195   */\n  dup6\n    /* \"#utility.yul\":1179:1185   */\n  dup3\n    /* \"#utility.yul\":1168:1177   */\n  dup7\n    /* \"#utility.yul\":1164:1186   */\n  add\n    /* \"#utility.yul\":1132:1196   */\n  tag_13\n  jump\t// in\ntag_29:\n    /* \"#utility.yul\":1122:1196   */\n  swap3\n  pop\n    /* \"#utility.yul\":1078:1206   */\n  pop\n    /* \"#utility.yul\":1245:1247   */\n  0x20\n    /* \"#utility.yul\":1271:1335   */\n  tag_30\n    /* \"#utility.yul\":1327:1334   */\n  dup6\n    /* \"#utility.yul\":1318:1324   */\n  dup3\n    /* \"#utility.yul\":1307:1316   */\n  dup7\n    /* \"#utility.yul\":1303:1325   */\n  add\n    /* \"#utility.yul\":1271:1335   */\n  tag_13\n  jump\t// in\ntag_30:\n    /* \"#utility.yul\":1261:1335   */\n  swap2\n  pop\n    /* \"#utility.yul\":1216:1345   */\n  pop\n    /* \"#utility.yul\":845:1352   */\n  swap3\n  pop\n  swap3\n  swap1\n  pop\n  jump\t// out\n    /* \"TrabajoFinalModulo3/auctionPlataform.sol\":395:6194  contract AuctionPlatform {... */\ntag_6:\n  dataSize(sub_0)\n  dup1\n  dataOffset(sub_0)\n  0x00\n  codecopy\n  0x00\n  return\nstop\n\nsub_0: assembly {\n        /* \"TrabajoFinalModulo3/auctionPlataform.sol\":395:6194  contract AuctionPlatform {... */\n      mstore(0x40, 0x80)\n      callvalue\n      dup1\n      iszero\n      tag_1\n      jumpi\n      revert(0x00, 0x00)\n    tag_1:\n      pop\n      jumpi(tag_2, lt(calldatasize, 0x04))\n      shr(0xe0, calldataload(0x00))\n      dup1\n      0x57c90de5\n      gt\n      tag_10\n      jumpi\n      dup1\n      0x57c90de5\n      eq\n      tag_6\n      jumpi\n      dup1\n      0x99fdb320\n      eq\n      tag_7\n      jumpi\n      dup1\n      0xb9a2de3a\n      eq\n      tag_8\n      jumpi\n      dup1\n      0xde0794ef\n      eq\n      tag_9\n      jumpi\n      jump(tag_2)\n    tag_10:\n      dup1\n      0x0121683f\n      eq\n      tag_3\n      jumpi\n      dup1\n      0x35af939b\n      eq\n      tag_4\n      jumpi\n      dup1\n      0x571a26a0\n      eq\n      tag_5\n      jumpi\n    tag_2:\n      revert(0x00, 0x00)\n        /* \"TrabajoFinalModulo3/auctionPlataform.sol\":2246:3330  function createAuction(uint256 _tokenId, uint256 duration) external {... */\n    tag_3:\n      tag_11\n      0x04\n      dup1\n      calldatasize\n      sub\n      dup2\n      add\n      swap1\n      tag_12\n      swap2\n      swap1\n      tag_13\n      jump\t// in\n    tag_12:\n      tag_14\n      jump\t// in\n    tag_11:\n      stop\n        /* \"TrabajoFinalModulo3/auctionPlataform.sol\":1138:1163  IERC721 public auctionNFT */\n    tag_4:\n      tag_15\n      tag_16\n      jump\t// in\n    tag_15:\n      mload(0x40)\n      tag_17\n      swap2\n      swap1\n      tag_18\n      jump\t// in\n    tag_17:\n      mload(0x40)\n      dup1\n      swap2\n      sub\n      swap1\n      return\n        /* \"TrabajoFinalModulo3/auctionPlataform.sol\":1323:1366  mapping(uint256 => Auction) public auctions */\n    tag_5:\n      tag_19\n      0x04\n      dup1\n      calldatasize\n      sub\n      dup2\n      add\n      swap1\n      tag_20\n      swap2\n      swap1\n      tag_21\n      jump\t// in\n    tag_20:\n      tag_22\n      jump\t// in\n    tag_19:\n      mload(0x40)\n      tag_23\n      swap7\n      swap6\n      swap5\n      swap4\n      swap3\n      swap2\n      swap1\n      tag_24\n      jump\t// in\n    tag_23:\n      mload(0x40)\n      dup1\n      swap2\n      sub\n      swap1\n      return\n        /* \"TrabajoFinalModulo3/auctionPlataform.sol\":3393:4717  function placeBid(uint256 _auctionId, uint256 _bidAmount) external {... */\n    tag_6:\n      tag_25\n      0x04\n      dup1\n      calldatasize\n      sub\n      dup2\n      add\n      swap1\n      tag_26\n      swap2\n      swap1\n      tag_13\n      jump\t// in\n    tag_26:\n      tag_27\n      jump\t// in\n    tag_25:\n      stop\n        /* \"TrabajoFinalModulo3/auctionPlataform.sol\":1033:1059  IERC20 public auctionToken */\n    tag_7:\n      tag_28\n      tag_29\n      jump\t// in\n    tag_28:\n      mload(0x40)\n      tag_30\n      swap2\n      swap1\n      tag_31\n      jump\t// in\n    tag_30:\n      mload(0x40)\n      dup1\n      swap2\n      sub\n      swap1\n      return\n        /* \"TrabajoFinalModulo3/auctionPlataform.sol\":4767:6192  function endAuction(uint256 auctionId) external {... */\n    tag_8:\n      tag_32\n      0x04\n      dup1\n      calldatasize\n      sub\n      dup2\n      add\n      swap1\n      tag_33\n      swap2\n      swap1\n      tag_21\n      jump\t// in\n    tag_33:\n      tag_34\n      jump\t// in\n    tag_32:\n      stop\n        /* \"TrabajoFinalModulo3/auctionPlataform.sol\":1227:1258  uint256 public auctionIdCounter */\n    tag_9:\n      tag_35\n      tag_36\n      jump\t// in\n    tag_35:\n      mload(0x40)\n      tag_37\n      swap2\n      swap1\n      tag_38\n      jump\t// in\n    tag_37:\n      mload(0x40)\n      dup1\n      swap2\n      sub\n      swap1\n      return\n        /* \"TrabajoFinalModulo3/auctionPlataform.sol\":2246:3330  function createAuction(uint256 _tokenId, uint256 duration) external {... */\n    tag_14:\n        /* \"TrabajoFinalModulo3/auctionPlataform.sol\":2441:2451  auctionNFT */\n      0x01\n      0x00\n      swap1\n      sload\n      swap1\n      0x0100\n      exp\n      swap1\n      div\n      0xffffffffffffffffffffffffffffffffffffffff\n      and\n        /* \"TrabajoFinalModulo3/auctionPlataform.sol\":2441:2464  auctionNFT.transferFrom */\n      0xffffffffffffffffffffffffffffffffffffffff\n      and\n      0x23b872dd\n        /* \"TrabajoFinalModulo3/auctionPlataform.sol\":2465:2475  msg.sender */\n      caller\n        /* \"TrabajoFinalModulo3/auctionPlataform.sol\":2485:2489  this */\n      address\n        /* \"TrabajoFinalModulo3/auctionPlataform.sol\":2492:2500  _tokenId */\n      dup6\n        /* \"TrabajoFinalModulo3/auctionPlataform.sol\":2441:2501  auctionNFT.transferFrom(msg.sender, address(this), _tokenId) */\n      mload(0x40)\n      dup5\n      0xffffffff\n      and\n      0xe0\n      shl\n      dup2\n      mstore\n      0x04\n      add\n      tag_40\n      swap4\n      swap3\n      swap2\n      swap1\n      tag_41\n      jump\t// in\n    tag_40:\n      0x00\n      mload(0x40)\n      dup1\n      dup4\n      sub\n      dup2\n      0x00\n      dup8\n      dup1\n      extcodesize\n      iszero\n      dup1\n      iszero\n      tag_42\n      jumpi\n      revert(0x00, 0x00)\n    tag_42:\n      pop\n      gas\n      call\n      iszero\n      dup1\n      iszero\n      tag_44\n      jumpi\n      returndatacopy(0x00, 0x00, returndatasize)\n      revert(0x00, returndatasize)\n    tag_44:\n      pop\n      pop\n      pop\n      pop\n        /* \"TrabajoFinalModulo3/auctionPlataform.sol\":2586:2603  uint256 auctionId */\n      0x00\n        /* \"TrabajoFinalModulo3/auctionPlataform.sol\":2606:2622  auctionIdCounter */\n      0x02\n      0x00\n        /* \"TrabajoFinalModulo3/auctionPlataform.sol\":2606:2624  auctionIdCounter++ */\n      dup2\n      sload\n      dup1\n      swap3\n      swap2\n      swap1\n      tag_45\n      swap1\n      tag_46\n      jump\t// in\n    tag_45:\n      swap2\n      swap1\n      pop\n      sstore\n        /* \"TrabajoFinalModulo3/auctionPlataform.sol\":2586:2624  uint256 auctionId = auctionIdCounter++ */\n      swap1\n      pop\n        /* \"TrabajoFinalModulo3/auctionPlataform.sol\":2657:3168  Auction({... */\n      mload(0x40)\n      dup1\n      0xc0\n      add\n      0x40\n      mstore\n      dup1\n        /* \"TrabajoFinalModulo3/auctionPlataform.sol\":2748:2758  msg.sender */\n      caller\n        /* \"TrabajoFinalModulo3/auctionPlataform.sol\":2657:3168  Auction({... */\n      0xffffffffffffffffffffffffffffffffffffffff\n      and\n      dup2\n      mstore\n      0x20\n      add\n        /* \"TrabajoFinalModulo3/auctionPlataform.sol\":2839:2840  0 */\n      0x00\n        /* \"TrabajoFinalModulo3/auctionPlataform.sol\":2657:3168  Auction({... */\n      0xffffffffffffffffffffffffffffffffffffffff\n      and\n      dup2\n      mstore\n      0x20\n      add\n        /* \"TrabajoFinalModulo3/auctionPlataform.sol\":2924:2925  0 */\n      0x00\n        /* \"TrabajoFinalModulo3/auctionPlataform.sol\":2657:3168  Auction({... */\n      dup2\n      mstore\n      0x20\n      add\n        /* \"TrabajoFinalModulo3/auctionPlataform.sol\":2990:2998  _tokenId */\n      dup5\n        /* \"TrabajoFinalModulo3/auctionPlataform.sol\":2657:3168  Auction({... */\n      dup2\n      mstore\n      0x20\n      add\n        /* \"TrabajoFinalModulo3/auctionPlataform.sol\":3039:3047  duration */\n      dup4\n        /* \"TrabajoFinalModulo3/auctionPlataform.sol\":3021:3036  block.timestamp */\n      timestamp\n        /* \"TrabajoFinalModulo3/auctionPlataform.sol\":3021:3047  block.timestamp + duration */\n      tag_47\n      swap2\n      swap1\n      tag_48\n      jump\t// in\n    tag_47:\n        /* \"TrabajoFinalModulo3/auctionPlataform.sol\":2657:3168  Auction({... */\n      dup2\n      mstore\n      0x20\n      add\n        /* \"TrabajoFinalModulo3/auctionPlataform.sol\":3153:3157  true */\n      0x01\n        /* \"TrabajoFinalModulo3/auctionPlataform.sol\":2657:3168  Auction({... */\n      iszero\n      iszero\n      dup2\n      mstore\n      pop\n        /* \"TrabajoFinalModulo3/auctionPlataform.sol\":2635:2643  auctions */\n      0x03\n        /* \"TrabajoFinalModulo3/auctionPlataform.sol\":2635:2654  auctions[auctionId] */\n      0x00\n        /* \"TrabajoFinalModulo3/auctionPlataform.sol\":2644:2653  auctionId */\n      dup4\n        /* \"TrabajoFinalModulo3/auctionPlataform.sol\":2635:2654  auctions[auctionId] */\n      dup2\n      mstore\n      0x20\n      add\n      swap1\n      dup2\n      mstore\n      0x20\n      add\n      0x00\n      keccak256\n        /* \"TrabajoFinalModulo3/auctionPlataform.sol\":2635:3168  auctions[auctionId] = Auction({... */\n      0x00\n      dup3\n      add\n      mload\n      dup2\n      0x00\n      add\n      exp(0x0100, 0x00)\n      dup2\n      sload\n      dup2\n      0xffffffffffffffffffffffffffffffffffffffff\n      mul\n      not\n      and\n      swap1\n      dup4\n      0xffffffffffffffffffffffffffffffffffffffff\n      and\n      mul\n      or\n      swap1\n      sstore\n      pop\n      0x20\n      dup3\n      add\n      mload\n      dup2\n      0x01\n      add\n      exp(0x0100, 0x00)\n      dup2\n      sload\n      dup2\n      0xffffffffffffffffffffffffffffffffffffffff\n      mul\n      not\n      and\n      swap1\n      dup4\n      0xffffffffffffffffffffffffffffffffffffffff\n      and\n      mul\n      or\n      swap1\n      sstore\n      pop\n      0x40\n      dup3\n      add\n      mload\n      dup2\n      0x02\n      add\n      sstore\n      0x60\n      dup3\n      add\n      mload\n      dup2\n      0x03\n      add\n      sstore\n      0x80\n      dup3\n      add\n      mload\n      dup2\n      0x04\n      add\n      sstore\n      0xa0\n      dup3\n      add\n      mload\n      dup2\n      0x05\n      add\n      exp(0x0100, 0x00)\n      dup2\n      sload\n      dup2\n      0xff\n      mul\n      not\n      and\n      swap1\n      dup4\n      iszero\n      iszero\n      mul\n      or\n      swap1\n      sstore\n      pop\n      swap1\n      pop\n      pop\n        /* \"TrabajoFinalModulo3/auctionPlataform.sol\":3274:3283  auctionId */\n      dup1\n        /* \"TrabajoFinalModulo3/auctionPlataform.sol\":3259:3323  AuctionCreated(auctionId, _tokenId, auctions[auctionId].endTime) */\n      0xd6eddd1118d71820909c1197aa966dbc15ed6f508554252169cc3d5ccac756ca\n        /* \"TrabajoFinalModulo3/auctionPlataform.sol\":3285:3293  _tokenId */\n      dup5\n        /* \"TrabajoFinalModulo3/auctionPlataform.sol\":3295:3303  auctions */\n      0x03\n        /* \"TrabajoFinalModulo3/auctionPlataform.sol\":3295:3314  auctions[auctionId] */\n      0x00\n        /* \"TrabajoFinalModulo3/auctionPlataform.sol\":3304:3313  auctionId */\n      dup6\n        /* \"TrabajoFinalModulo3/auctionPlataform.sol\":3295:3314  auctions[auctionId] */\n      dup2\n      mstore\n      0x20\n      add\n      swap1\n      dup2\n      mstore\n      0x20\n      add\n      0x00\n      keccak256\n        /* \"TrabajoFinalModulo3/auctionPlataform.sol\":3295:3322  auctions[auctionId].endTime */\n      0x04\n      add\n      sload\n        /* \"TrabajoFinalModulo3/auctionPlataform.sol\":3259:3323  AuctionCreated(auctionId, _tokenId, auctions[auctionId].endTime) */\n      mload(0x40)\n      tag_49\n      swap3\n      swap2\n      swap1\n      tag_50\n      jump\t// in\n    tag_49:\n      mload(0x40)\n      dup1\n      swap2\n      sub\n      swap1\n      log2\n        /* \"TrabajoFinalModulo3/auctionPlataform.sol\":2314:3330  {... */\n      pop\n        /* \"TrabajoFinalModulo3/auctionPlataform.sol\":2246:3330  function createAuction(uint256 _tokenId, uint256 duration) external {... */\n      pop\n      pop\n      jump\t// out\n        /* \"TrabajoFinalModulo3/auctionPlataform.sol\":1138:1163  IERC721 public auctionNFT */\n    tag_16:\n      0x01\n      0x00\n      swap1\n      sload\n      swap1\n      0x0100\n      exp\n      swap1\n      div\n      0xffffffffffffffffffffffffffffffffffffffff\n      and\n      dup2\n      jump\t// out\n        /* \"TrabajoFinalModulo3/auctionPlataform.sol\":1323:1366  mapping(uint256 => Auction) public auctions */\n    tag_22:\n      mstore(0x20, 0x03)\n      dup1\n      0x00\n      mstore\n      keccak256(0x00, 0x40)\n      0x00\n      swap2\n      pop\n      swap1\n      pop\n      dup1\n      0x00\n      add\n      0x00\n      swap1\n      sload\n      swap1\n      0x0100\n      exp\n      swap1\n      div\n      0xffffffffffffffffffffffffffffffffffffffff\n      and\n      swap1\n      dup1\n      0x01\n      add\n      0x00\n      swap1\n      sload\n      swap1\n      0x0100\n      exp\n      swap1\n      div\n      0xffffffffffffffffffffffffffffffffffffffff\n      and\n      swap1\n      dup1\n      0x02\n      add\n      sload\n      swap1\n      dup1\n      0x03\n      add\n      sload\n      swap1\n      dup1\n      0x04\n      add\n      sload\n      swap1\n      dup1\n      0x05\n      add\n      0x00\n      swap1\n      sload\n      swap1\n      0x0100\n      exp\n      swap1\n      div\n      0xff\n      and\n      swap1\n      pop\n      dup7\n      jump\t// out\n        /* \"TrabajoFinalModulo3/auctionPlataform.sol\":3393:4717  function placeBid(uint256 _auctionId, uint256 _bidAmount) external {... */\n    tag_27:\n        /* \"TrabajoFinalModulo3/auctionPlataform.sol\":3470:3493  Auction storage auction */\n      0x00\n        /* \"TrabajoFinalModulo3/auctionPlataform.sol\":3496:3504  auctions */\n      0x03\n        /* \"TrabajoFinalModulo3/auctionPlataform.sol\":3496:3516  auctions[_auctionId] */\n      0x00\n        /* \"TrabajoFinalModulo3/auctionPlataform.sol\":3505:3515  _auctionId */\n      dup5\n        /* \"TrabajoFinalModulo3/auctionPlataform.sol\":3496:3516  auctions[_auctionId] */\n      dup2\n      mstore\n      0x20\n      add\n      swap1\n      dup2\n      mstore\n      0x20\n      add\n      0x00\n      keccak256\n        /* \"TrabajoFinalModulo3/auctionPlataform.sol\":3470:3516  Auction storage auction = auctions[_auctionId] */\n      swap1\n      pop\n        /* \"TrabajoFinalModulo3/auctionPlataform.sol\":3591:3598  auction */\n      dup1\n        /* \"TrabajoFinalModulo3/auctionPlataform.sol\":3591:3606  auction.endTime */\n      0x04\n      add\n      sload\n        /* \"TrabajoFinalModulo3/auctionPlataform.sol\":3573:3588  block.timestamp */\n      timestamp\n        /* \"TrabajoFinalModulo3/auctionPlataform.sol\":3573:3606  block.timestamp < auction.endTime */\n      lt\n        /* \"TrabajoFinalModulo3/auctionPlataform.sol\":3565:3628  require(block.timestamp < auction.endTime, \"Auction has ended\") */\n      tag_52\n      jumpi\n      mload(0x40)\n      0x08c379a000000000000000000000000000000000000000000000000000000000\n      dup2\n      mstore\n      0x04\n      add\n      tag_53\n      swap1\n      tag_54\n      jump\t// in\n    tag_53:\n      mload(0x40)\n      dup1\n      swap2\n      sub\n      swap1\n      revert\n    tag_52:\n        /* \"TrabajoFinalModulo3/auctionPlataform.sol\":3693:3700  auction */\n      dup1\n        /* \"TrabajoFinalModulo3/auctionPlataform.sol\":3693:3707  auction.active */\n      0x05\n      add\n      0x00\n      swap1\n      sload\n      swap1\n      0x0100\n      exp\n      swap1\n      div\n      0xff\n      and\n        /* \"TrabajoFinalModulo3/auctionPlataform.sol\":3685:3733  require(auction.active, \"Auction is not active\") */\n      tag_55\n      jumpi\n      mload(0x40)\n      0x08c379a000000000000000000000000000000000000000000000000000000000\n      dup2\n      mstore\n      0x04\n      add\n      tag_56\n      swap1\n      tag_57\n      jump\t// in\n    tag_56:\n      mload(0x40)\n      dup1\n      swap2\n      sub\n      swap1\n      revert\n    tag_55:\n        /* \"TrabajoFinalModulo3/auctionPlataform.sol\":3818:3825  auction */\n      dup1\n        /* \"TrabajoFinalModulo3/auctionPlataform.sol\":3818:3836  auction.highestBid */\n      0x02\n      add\n      sload\n        /* \"TrabajoFinalModulo3/auctionPlataform.sol\":3805:3815  _bidAmount */\n      dup3\n        /* \"TrabajoFinalModulo3/auctionPlataform.sol\":3805:3836  _bidAmount > auction.highestBid */\n      gt\n        /* \"TrabajoFinalModulo3/auctionPlataform.sol\":3784:3905  require(... */\n      tag_58\n      jumpi\n      mload(0x40)\n      0x08c379a000000000000000000000000000000000000000000000000000000000\n      dup2\n      mstore\n      0x04\n      add\n      tag_59\n      swap1\n      tag_60\n      jump\t// in\n    tag_59:\n      mload(0x40)\n      dup1\n      swap2\n      sub\n      swap1\n      revert\n    tag_58:\n        /* \"TrabajoFinalModulo3/auctionPlataform.sol\":4087:4099  auctionToken */\n      0x00\n      0x00\n      swap1\n      sload\n      swap1\n      0x0100\n      exp\n      swap1\n      div\n      0xffffffffffffffffffffffffffffffffffffffff\n      and\n        /* \"TrabajoFinalModulo3/auctionPlataform.sol\":4087:4112  auctionToken.transferFrom */\n      0xffffffffffffffffffffffffffffffffffffffff\n      and\n      0x23b872dd\n        /* \"TrabajoFinalModulo3/auctionPlataform.sol\":4113:4123  msg.sender */\n      caller\n        /* \"TrabajoFinalModulo3/auctionPlataform.sol\":4133:4137  this */\n      address\n        /* \"TrabajoFinalModulo3/auctionPlataform.sol\":4140:4150  _bidAmount */\n      dup6\n        /* \"TrabajoFinalModulo3/auctionPlataform.sol\":4087:4151  auctionToken.transferFrom(msg.sender, address(this), _bidAmount) */\n      mload(0x40)\n      dup5\n      0xffffffff\n      and\n      0xe0\n      shl\n      dup2\n      mstore\n      0x04\n      add\n      tag_61\n      swap4\n      swap3\n      swap2\n      swap1\n      tag_41\n      jump\t// in\n    tag_61:\n      0x20\n      mload(0x40)\n      dup1\n      dup4\n      sub\n      dup2\n      0x00\n      dup8\n      gas\n      call\n      iszero\n      dup1\n      iszero\n      tag_63\n      jumpi\n      returndatacopy(0x00, 0x00, returndatasize)\n      revert(0x00, returndatasize)\n    tag_63:\n      pop\n      pop\n      pop\n      pop\n      mload(0x40)\n      returndatasize\n      not(0x1f)\n      0x1f\n      dup3\n      add\n      and\n      dup3\n      add\n      dup1\n      0x40\n      mstore\n      pop\n      dup2\n      add\n      swap1\n      tag_64\n      swap2\n      swap1\n      tag_65\n      jump\t// in\n    tag_64:\n      pop\n        /* \"TrabajoFinalModulo3/auctionPlataform.sol\":4199:4200  0 */\n      0x00\n        /* \"TrabajoFinalModulo3/auctionPlataform.sol\":4166:4201  auction.highestBidder != address(0) */\n      0xffffffffffffffffffffffffffffffffffffffff\n      and\n        /* \"TrabajoFinalModulo3/auctionPlataform.sol\":4166:4173  auction */\n      dup2\n        /* \"TrabajoFinalModulo3/auctionPlataform.sol\":4166:4187  auction.highestBidder */\n      0x01\n      add\n      0x00\n      swap1\n      sload\n      swap1\n      0x0100\n      exp\n      swap1\n      div\n      0xffffffffffffffffffffffffffffffffffffffff\n      and\n        /* \"TrabajoFinalModulo3/auctionPlataform.sol\":4166:4201  auction.highestBidder != address(0) */\n      0xffffffffffffffffffffffffffffffffffffffff\n      and\n      eq\n        /* \"TrabajoFinalModulo3/auctionPlataform.sol\":4162:4428  if (auction.highestBidder != address(0)) {... */\n      tag_66\n      jumpi\n        /* \"TrabajoFinalModulo3/auctionPlataform.sol\":4353:4365  auctionToken */\n      0x00\n      0x00\n      swap1\n      sload\n      swap1\n      0x0100\n      exp\n      swap1\n      div\n      0xffffffffffffffffffffffffffffffffffffffff\n      and\n        /* \"TrabajoFinalModulo3/auctionPlataform.sol\":4353:4374  auctionToken.transfer */\n      0xffffffffffffffffffffffffffffffffffffffff\n      and\n      0xa9059cbb\n        /* \"TrabajoFinalModulo3/auctionPlataform.sol\":4375:4382  auction */\n      dup3\n        /* \"TrabajoFinalModulo3/auctionPlataform.sol\":4375:4396  auction.highestBidder */\n      0x01\n      add\n      0x00\n      swap1\n      sload\n      swap1\n      0x0100\n      exp\n      swap1\n      div\n      0xffffffffffffffffffffffffffffffffffffffff\n      and\n        /* \"TrabajoFinalModulo3/auctionPlataform.sol\":4398:4405  auction */\n      dup4\n        /* \"TrabajoFinalModulo3/auctionPlataform.sol\":4398:4416  auction.highestBid */\n      0x02\n      add\n      sload\n        /* \"TrabajoFinalModulo3/auctionPlataform.sol\":4353:4417  auctionToken.transfer(auction.highestBidder, auction.highestBid) */\n      mload(0x40)\n      dup4\n      0xffffffff\n      and\n      0xe0\n      shl\n      dup2\n      mstore\n      0x04\n      add\n      tag_67\n      swap3\n      swap2\n      swap1\n      tag_68\n      jump\t// in\n    tag_67:\n      0x20\n      mload(0x40)\n      dup1\n      dup4\n      sub\n      dup2\n      0x00\n      dup8\n      gas\n      call\n      iszero\n      dup1\n      iszero\n      tag_70\n      jumpi\n      returndatacopy(0x00, 0x00, returndatasize)\n      revert(0x00, returndatasize)\n    tag_70:\n      pop\n      pop\n      pop\n      pop\n      mload(0x40)\n      returndatasize\n      not(0x1f)\n      0x1f\n      dup3\n      add\n      and\n      dup3\n      add\n      dup1\n      0x40\n      mstore\n      pop\n      dup2\n      add\n      swap1\n      tag_71\n      swap2\n      swap1\n      tag_65\n      jump\t// in\n    tag_71:\n      pop\n        /* \"TrabajoFinalModulo3/auctionPlataform.sol\":4162:4428  if (auction.highestBidder != address(0)) {... */\n    tag_66:\n        /* \"TrabajoFinalModulo3/auctionPlataform.sol\":4532:4542  _bidAmount */\n      dup2\n        /* \"TrabajoFinalModulo3/auctionPlataform.sol\":4511:4518  auction */\n      dup2\n        /* \"TrabajoFinalModulo3/auctionPlataform.sol\":4511:4529  auction.highestBid */\n      0x02\n      add\n        /* \"TrabajoFinalModulo3/auctionPlataform.sol\":4511:4542  auction.highestBid = _bidAmount */\n      dup2\n      swap1\n      sstore\n      pop\n        /* \"TrabajoFinalModulo3/auctionPlataform.sol\":4576:4586  msg.sender */\n      caller\n        /* \"TrabajoFinalModulo3/auctionPlataform.sol\":4552:4559  auction */\n      dup2\n        /* \"TrabajoFinalModulo3/auctionPlataform.sol\":4552:4573  auction.highestBidder */\n      0x01\n      add\n      0x00\n        /* \"TrabajoFinalModulo3/auctionPlataform.sol\":4552:4586  auction.highestBidder = msg.sender */\n      0x0100\n      exp\n      dup2\n      sload\n      dup2\n      0xffffffffffffffffffffffffffffffffffffffff\n      mul\n      not\n      and\n      swap1\n      dup4\n      0xffffffffffffffffffffffffffffffffffffffff\n      and\n      mul\n      or\n      swap1\n      sstore\n      pop\n        /* \"TrabajoFinalModulo3/auctionPlataform.sol\":4675:4685  _auctionId */\n      dup3\n        /* \"TrabajoFinalModulo3/auctionPlataform.sol\":4668:4710  NewBid(_auctionId, msg.sender, _bidAmount) */\n      0x558a0d5d5468d74b0db24c74eb348b42271c2ebb4c9e953ced38aaed95fa4361\n        /* \"TrabajoFinalModulo3/auctionPlataform.sol\":4687:4697  msg.sender */\n      caller\n        /* \"TrabajoFinalModulo3/auctionPlataform.sol\":4699:4709  _bidAmount */\n      dup5\n        /* \"TrabajoFinalModulo3/auctionPlataform.sol\":4668:4710  NewBid(_auctionId, msg.sender, _bidAmount) */\n      mload(0x40)\n      tag_72\n      swap3\n      swap2\n      swap1\n      tag_68\n      jump\t// in\n    tag_72:\n      mload(0x40)\n      dup1\n      swap2\n      sub\n      swap1\n      log2\n        /* \"TrabajoFinalModulo3/auctionPlataform.sol\":3460:4717  {... */\n      pop\n        /* \"TrabajoFinalModulo3/auctionPlataform.sol\":3393:4717  function placeBid(uint256 _auctionId, uint256 _bidAmount) external {... */\n      pop\n      pop\n      jump\t// out\n        /* \"TrabajoFinalModulo3/auctionPlataform.sol\":1033:1059  IERC20 public auctionToken */\n    tag_29:\n      0x00\n      0x00\n      swap1\n      sload\n      swap1\n      0x0100\n      exp\n      swap1\n      div\n      0xffffffffffffffffffffffffffffffffffffffff\n      and\n      dup2\n      jump\t// out\n        /* \"TrabajoFinalModulo3/auctionPlataform.sol\":4767:6192  function endAuction(uint256 auctionId) external {... */\n    tag_34:\n        /* \"TrabajoFinalModulo3/auctionPlataform.sol\":4825:4848  Auction storage auction */\n      0x00\n        /* \"TrabajoFinalModulo3/auctionPlataform.sol\":4851:4859  auctions */\n      0x03\n        /* \"TrabajoFinalModulo3/auctionPlataform.sol\":4851:4870  auctions[auctionId] */\n      0x00\n        /* \"TrabajoFinalModulo3/auctionPlataform.sol\":4860:4869  auctionId */\n      dup4\n        /* \"TrabajoFinalModulo3/auctionPlataform.sol\":4851:4870  auctions[auctionId] */\n      dup2\n      mstore\n      0x20\n      add\n      swap1\n      dup2\n      mstore\n      0x20\n      add\n      0x00\n      keccak256\n        /* \"TrabajoFinalModulo3/auctionPlataform.sol\":4825:4870  Auction storage auction = auctions[auctionId] */\n      swap1\n      pop\n        /* \"TrabajoFinalModulo3/auctionPlataform.sol\":4959:4966  auction */\n      dup1\n        /* \"TrabajoFinalModulo3/auctionPlataform.sol\":4959:4974  auction.endTime */\n      0x04\n      add\n      sload\n        /* \"TrabajoFinalModulo3/auctionPlataform.sol\":4940:4955  block.timestamp */\n      timestamp\n        /* \"TrabajoFinalModulo3/auctionPlataform.sol\":4940:4974  block.timestamp >= auction.endTime */\n      lt\n      iszero\n        /* \"TrabajoFinalModulo3/auctionPlataform.sol\":4919:5025  require(... */\n      tag_74\n      jumpi\n      mload(0x40)\n      0x08c379a000000000000000000000000000000000000000000000000000000000\n      dup2\n      mstore\n      0x04\n      add\n      tag_75\n      swap1\n      tag_76\n      jump\t// in\n    tag_75:\n      mload(0x40)\n      dup1\n      swap2\n      sub\n      swap1\n      revert\n    tag_74:\n        /* \"TrabajoFinalModulo3/auctionPlataform.sol\":5087:5094  auction */\n      dup1\n        /* \"TrabajoFinalModulo3/auctionPlataform.sol\":5087:5101  auction.active */\n      0x05\n      add\n      0x00\n      swap1\n      sload\n      swap1\n      0x0100\n      exp\n      swap1\n      div\n      0xff\n      and\n        /* \"TrabajoFinalModulo3/auctionPlataform.sol\":5079:5127  require(auction.active, \"Auction is not active\") */\n      tag_77\n      jumpi\n      mload(0x40)\n      0x08c379a000000000000000000000000000000000000000000000000000000000\n      dup2\n      mstore\n      0x04\n      add\n      tag_78\n      swap1\n      tag_57\n      jump\t// in\n    tag_78:\n      mload(0x40)\n      dup1\n      swap2\n      sub\n      swap1\n      revert\n    tag_77:\n        /* \"TrabajoFinalModulo3/auctionPlataform.sol\":5196:5201  false */\n      0x00\n        /* \"TrabajoFinalModulo3/auctionPlataform.sol\":5179:5186  auction */\n      dup2\n        /* \"TrabajoFinalModulo3/auctionPlataform.sol\":5179:5193  auction.active */\n      0x05\n      add\n      0x00\n        /* \"TrabajoFinalModulo3/auctionPlataform.sol\":5179:5201  auction.active = false */\n      0x0100\n      exp\n      dup2\n      sload\n      dup2\n      0xff\n      mul\n      not\n      and\n      swap1\n      dup4\n      iszero\n      iszero\n      mul\n      or\n      swap1\n      sstore\n      pop\n        /* \"TrabajoFinalModulo3/auctionPlataform.sol\":5284:5285  0 */\n      0x00\n        /* \"TrabajoFinalModulo3/auctionPlataform.sol\":5251:5286  auction.highestBidder != address(0) */\n      0xffffffffffffffffffffffffffffffffffffffff\n      and\n        /* \"TrabajoFinalModulo3/auctionPlataform.sol\":5251:5258  auction */\n      dup2\n        /* \"TrabajoFinalModulo3/auctionPlataform.sol\":5251:5272  auction.highestBidder */\n      0x01\n      add\n      0x00\n      swap1\n      sload\n      swap1\n      0x0100\n      exp\n      swap1\n      div\n      0xffffffffffffffffffffffffffffffffffffffff\n      and\n        /* \"TrabajoFinalModulo3/auctionPlataform.sol\":5251:5286  auction.highestBidder != address(0) */\n      0xffffffffffffffffffffffffffffffffffffffff\n      and\n      eq\n        /* \"TrabajoFinalModulo3/auctionPlataform.sol\":5247:6025  if (auction.highestBidder != address(0)) {... */\n      tag_79\n      jumpi\n        /* \"TrabajoFinalModulo3/auctionPlataform.sol\":5402:5412  auctionNFT */\n      0x01\n      0x00\n      swap1\n      sload\n      swap1\n      0x0100\n      exp\n      swap1\n      div\n      0xffffffffffffffffffffffffffffffffffffffff\n      and\n        /* \"TrabajoFinalModulo3/auctionPlataform.sol\":5402:5425  auctionNFT.transferFrom */\n      0xffffffffffffffffffffffffffffffffffffffff\n      and\n      0x23b872dd\n        /* \"TrabajoFinalModulo3/auctionPlataform.sol\":5451:5455  this */\n      address\n        /* \"TrabajoFinalModulo3/auctionPlataform.sol\":5474:5481  auction */\n      dup4\n        /* \"TrabajoFinalModulo3/auctionPlataform.sol\":5474:5495  auction.highestBidder */\n      0x01\n      add\n      0x00\n      swap1\n      sload\n      swap1\n      0x0100\n      exp\n      swap1\n      div\n      0xffffffffffffffffffffffffffffffffffffffff\n      and\n        /* \"TrabajoFinalModulo3/auctionPlataform.sol\":5513:5520  auction */\n      dup5\n        /* \"TrabajoFinalModulo3/auctionPlataform.sol\":5513:5528  auction.tokenId */\n      0x03\n      add\n      sload\n        /* \"TrabajoFinalModulo3/auctionPlataform.sol\":5402:5542  auctionNFT.transferFrom(... */\n      mload(0x40)\n      dup5\n      0xffffffff\n      and\n      0xe0\n      shl\n      dup2\n      mstore\n      0x04\n      add\n      tag_80\n      swap4\n      swap3\n      swap2\n      swap1\n      tag_41\n      jump\t// in\n    tag_80:\n      0x00\n      mload(0x40)\n      dup1\n      dup4\n      sub\n      dup2\n      0x00\n      dup8\n      dup1\n      extcodesize\n      iszero\n      dup1\n      iszero\n      tag_81\n      jumpi\n      revert(0x00, 0x00)\n    tag_81:\n      pop\n      gas\n      call\n      iszero\n      dup1\n      iszero\n      tag_83\n      jumpi\n      returndatacopy(0x00, 0x00, returndatasize)\n      revert(0x00, returndatasize)\n    tag_83:\n      pop\n      pop\n      pop\n      pop\n        /* \"TrabajoFinalModulo3/auctionPlataform.sol\":5671:5683  auctionToken */\n      0x00\n      0x00\n      swap1\n      sload\n      swap1\n      0x0100\n      exp\n      swap1\n      div\n      0xffffffffffffffffffffffffffffffffffffffff\n      and\n        /* \"TrabajoFinalModulo3/auctionPlataform.sol\":5671:5692  auctionToken.transfer */\n      0xffffffffffffffffffffffffffffffffffffffff\n      and\n      0xa9059cbb\n        /* \"TrabajoFinalModulo3/auctionPlataform.sol\":5693:5700  auction */\n      dup3\n        /* \"TrabajoFinalModulo3/auctionPlataform.sol\":5693:5707  auction.seller */\n      0x00\n      add\n      0x00\n      swap1\n      sload\n      swap1\n      0x0100\n      exp\n      swap1\n      div\n      0xffffffffffffffffffffffffffffffffffffffff\n      and\n        /* \"TrabajoFinalModulo3/auctionPlataform.sol\":5709:5716  auction */\n      dup4\n        /* \"TrabajoFinalModulo3/auctionPlataform.sol\":5709:5727  auction.highestBid */\n      0x02\n      add\n      sload\n        /* \"TrabajoFinalModulo3/auctionPlataform.sol\":5671:5728  auctionToken.transfer(auction.seller, auction.highestBid) */\n      mload(0x40)\n      dup4\n      0xffffffff\n      and\n      0xe0\n      shl\n      dup2\n      mstore\n      0x04\n      add\n      tag_84\n      swap3\n      swap2\n      swap1\n      tag_68\n      jump\t// in\n    tag_84:\n      0x20\n      mload(0x40)\n      dup1\n      dup4\n      sub\n      dup2\n      0x00\n      dup8\n      gas\n      call\n      iszero\n      dup1\n      iszero\n      tag_86\n      jumpi\n      returndatacopy(0x00, 0x00, returndatasize)\n      revert(0x00, returndatasize)\n    tag_86:\n      pop\n      pop\n      pop\n      pop\n      mload(0x40)\n      returndatasize\n      not(0x1f)\n      0x1f\n      dup3\n      add\n      and\n      dup3\n      add\n      dup1\n      0x40\n      mstore\n      pop\n      dup2\n      add\n      swap1\n      tag_87\n      swap2\n      swap1\n      tag_65\n      jump\t// in\n    tag_87:\n      pop\n        /* \"TrabajoFinalModulo3/auctionPlataform.sol\":5247:6025  if (auction.highestBidder != address(0)) {... */\n      jump(tag_88)\n    tag_79:\n        /* \"TrabajoFinalModulo3/auctionPlataform.sol\":5881:5891  auctionNFT */\n      0x01\n      0x00\n      swap1\n      sload\n      swap1\n      0x0100\n      exp\n      swap1\n      div\n      0xffffffffffffffffffffffffffffffffffffffff\n      and\n        /* \"TrabajoFinalModulo3/auctionPlataform.sol\":5881:5904  auctionNFT.transferFrom */\n      0xffffffffffffffffffffffffffffffffffffffff\n      and\n      0x23b872dd\n        /* \"TrabajoFinalModulo3/auctionPlataform.sol\":5930:5934  this */\n      address\n        /* \"TrabajoFinalModulo3/auctionPlataform.sol\":5953:5960  auction */\n      dup4\n        /* \"TrabajoFinalModulo3/auctionPlataform.sol\":5953:5967  auction.seller */\n      0x00\n      add\n      0x00\n      swap1\n      sload\n      swap1\n      0x0100\n      exp\n      swap1\n      div\n      0xffffffffffffffffffffffffffffffffffffffff\n      and\n        /* \"TrabajoFinalModulo3/auctionPlataform.sol\":5985:5992  auction */\n      dup5\n        /* \"TrabajoFinalModulo3/auctionPlataform.sol\":5985:6000  auction.tokenId */\n      0x03\n      add\n      sload\n        /* \"TrabajoFinalModulo3/auctionPlataform.sol\":5881:6014  auctionNFT.transferFrom(... */\n      mload(0x40)\n      dup5\n      0xffffffff\n      and\n      0xe0\n      shl\n      dup2\n      mstore\n      0x04\n      add\n      tag_89\n      swap4\n      swap3\n      swap2\n      swap1\n      tag_41\n      jump\t// in\n    tag_89:\n      0x00\n      mload(0x40)\n      dup1\n      dup4\n      sub\n      dup2\n      0x00\n      dup8\n      dup1\n      extcodesize\n      iszero\n      dup1\n      iszero\n      tag_90\n      jumpi\n      revert(0x00, 0x00)\n    tag_90:\n      pop\n      gas\n      call\n      iszero\n      dup1\n      iszero\n      tag_92\n      jumpi\n      returndatacopy(0x00, 0x00, returndatasize)\n      revert(0x00, returndatasize)\n    tag_92:\n      pop\n      pop\n      pop\n      pop\n        /* \"TrabajoFinalModulo3/auctionPlataform.sol\":5247:6025  if (auction.highestBidder != address(0)) {... */\n    tag_88:\n        /* \"TrabajoFinalModulo3/auctionPlataform.sol\":6132:6141  auctionId */\n      dup2\n        /* \"TrabajoFinalModulo3/auctionPlataform.sol\":6119:6185  AuctionEnded(auctionId, auction.highestBidder, auction.highestBid) */\n      0xd2aa34a4fdbbc6dff6a3e56f46e0f3ae2a31d7785ff3487aa5c95c642acea501\n        /* \"TrabajoFinalModulo3/auctionPlataform.sol\":6143:6150  auction */\n      dup3\n        /* \"TrabajoFinalModulo3/auctionPlataform.sol\":6143:6164  auction.highestBidder */\n      0x01\n      add\n      0x00\n      swap1\n      sload\n      swap1\n      0x0100\n      exp\n      swap1\n      div\n      0xffffffffffffffffffffffffffffffffffffffff\n      and\n        /* \"TrabajoFinalModulo3/auctionPlataform.sol\":6166:6173  auction */\n      dup4\n        /* \"TrabajoFinalModulo3/auctionPlataform.sol\":6166:6184  auction.highestBid */\n      0x02\n      add\n      sload\n        /* \"TrabajoFinalModulo3/auctionPlataform.sol\":6119:6185  AuctionEnded(auctionId, auction.highestBidder, auction.highestBid) */\n      mload(0x40)\n      tag_93\n      swap3\n      swap2\n      swap1\n      tag_68\n      jump\t// in\n    tag_93:\n      mload(0x40)\n      dup1\n      swap2\n      sub\n      swap1\n      log2\n        /* \"TrabajoFinalModulo3/auctionPlataform.sol\":4815:6192  {... */\n      pop\n        /* \"TrabajoFinalModulo3/auctionPlataform.sol\":4767:6192  function endAuction(uint256 auctionId) external {... */\n      pop\n      jump\t// out\n        /* \"TrabajoFinalModulo3/auctionPlataform.sol\":1227:1258  uint256 public auctionIdCounter */\n    tag_36:\n      sload(0x02)\n      dup2\n      jump\t// out\n        /* \"#utility.yul\":88:205   */\n    tag_95:\n        /* \"#utility.yul\":197:198   */\n      0x00\n        /* \"#utility.yul\":194:195   */\n      0x00\n        /* \"#utility.yul\":187:199   */\n      revert\n        /* \"#utility.yul\":334:411   */\n    tag_97:\n        /* \"#utility.yul\":371:378   */\n      0x00\n        /* \"#utility.yul\":400:405   */\n      dup2\n        /* \"#utility.yul\":389:405   */\n      swap1\n      pop\n        /* \"#utility.yul\":334:411   */\n      swap2\n      swap1\n      pop\n      jump\t// out\n        /* \"#utility.yul\":417:539   */\n    tag_98:\n        /* \"#utility.yul\":490:514   */\n      tag_131\n        /* \"#utility.yul\":508:513   */\n      dup2\n        /* \"#utility.yul\":490:514   */\n      tag_97\n      jump\t// in\n    tag_131:\n        /* \"#utility.yul\":483:488   */\n      dup2\n        /* \"#utility.yul\":480:515   */\n      eq\n        /* \"#utility.yul\":470:533   */\n      tag_132\n      jumpi\n        /* \"#utility.yul\":529:530   */\n      0x00\n        /* \"#utility.yul\":526:527   */\n      0x00\n        /* \"#utility.yul\":519:531   */\n      revert\n        /* \"#utility.yul\":470:533   */\n    tag_132:\n        /* \"#utility.yul\":417:539   */\n      pop\n      jump\t// out\n        /* \"#utility.yul\":545:684   */\n    tag_99:\n        /* \"#utility.yul\":591:596   */\n      0x00\n        /* \"#utility.yul\":629:635   */\n      dup2\n        /* \"#utility.yul\":616:636   */\n      calldataload\n        /* \"#utility.yul\":607:636   */\n      swap1\n      pop\n        /* \"#utility.yul\":645:678   */\n      tag_134\n        /* \"#utility.yul\":672:677   */\n      dup2\n        /* \"#utility.yul\":645:678   */\n      tag_98\n      jump\t// in\n    tag_134:\n        /* \"#utility.yul\":545:684   */\n      swap3\n      swap2\n      pop\n      pop\n      jump\t// out\n        /* \"#utility.yul\":690:1164   */\n    tag_13:\n        /* \"#utility.yul\":758:764   */\n      0x00\n        /* \"#utility.yul\":766:772   */\n      0x00\n        /* \"#utility.yul\":815:817   */\n      0x40\n        /* \"#utility.yul\":803:812   */\n      dup4\n        /* \"#utility.yul\":794:801   */\n      dup6\n        /* \"#utility.yul\":790:813   */\n      sub\n        /* \"#utility.yul\":786:818   */\n      slt\n        /* \"#utility.yul\":783:902   */\n      iszero\n      tag_136\n      jumpi\n        /* \"#utility.yul\":821:900   */\n      tag_137\n      tag_95\n      jump\t// in\n    tag_137:\n        /* \"#utility.yul\":783:902   */\n    tag_136:\n        /* \"#utility.yul\":941:942   */\n      0x00\n        /* \"#utility.yul\":966:1019   */\n      tag_138\n        /* \"#utility.yul\":1011:1018   */\n      dup6\n        /* \"#utility.yul\":1002:1008   */\n      dup3\n        /* \"#utility.yul\":991:1000   */\n      dup7\n        /* \"#utility.yul\":987:1009   */\n      add\n        /* \"#utility.yul\":966:1019   */\n      tag_99\n      jump\t// in\n    tag_138:\n        /* \"#utility.yul\":956:1019   */\n      swap3\n      pop\n        /* \"#utility.yul\":912:1029   */\n      pop\n        /* \"#utility.yul\":1068:1070   */\n      0x20\n        /* \"#utility.yul\":1094:1147   */\n      tag_139\n        /* \"#utility.yul\":1139:1146   */\n      dup6\n        /* \"#utility.yul\":1130:1136   */\n      dup3\n        /* \"#utility.yul\":1119:1128   */\n      dup7\n        /* \"#utility.yul\":1115:1137   */\n      add\n        /* \"#utility.yul\":1094:1147   */\n      tag_99\n      jump\t// in\n    tag_139:\n        /* \"#utility.yul\":1084:1147   */\n      swap2\n      pop\n        /* \"#utility.yul\":1039:1157   */\n      pop\n        /* \"#utility.yul\":690:1164   */\n      swap3\n      pop\n      swap3\n      swap1\n      pop\n      jump\t// out\n        /* \"#utility.yul\":1170:1296   */\n    tag_100:\n        /* \"#utility.yul\":1207:1214   */\n      0x00\n        /* \"#utility.yul\":1247:1289   */\n      0xffffffffffffffffffffffffffffffffffffffff\n        /* \"#utility.yul\":1240:1245   */\n      dup3\n        /* \"#utility.yul\":1236:1290   */\n      and\n        /* \"#utility.yul\":1225:1290   */\n      swap1\n      pop\n        /* \"#utility.yul\":1170:1296   */\n      swap2\n      swap1\n      pop\n      jump\t// out\n        /* \"#utility.yul\":1302:1362   */\n    tag_101:\n        /* \"#utility.yul\":1330:1333   */\n      0x00\n        /* \"#utility.yul\":1351:1356   */\n      dup2\n        /* \"#utility.yul\":1344:1356   */\n      swap1\n      pop\n        /* \"#utility.yul\":1302:1362   */\n      swap2\n      swap1\n      pop\n      jump\t// out\n        /* \"#utility.yul\":1368:1510   */\n    tag_102:\n        /* \"#utility.yul\":1418:1427   */\n      0x00\n        /* \"#utility.yul\":1451:1504   */\n      tag_143\n        /* \"#utility.yul\":1469:1503   */\n      tag_144\n        /* \"#utility.yul\":1478:1502   */\n      tag_145\n        /* \"#utility.yul\":1496:1501   */\n      dup5\n        /* \"#utility.yul\":1478:1502   */\n      tag_100\n      jump\t// in\n    tag_145:\n        /* \"#utility.yul\":1469:1503   */\n      tag_101\n      jump\t// in\n    tag_144:\n        /* \"#utility.yul\":1451:1504   */\n      tag_100\n      jump\t// in\n    tag_143:\n        /* \"#utility.yul\":1438:1504   */\n      swap1\n      pop\n        /* \"#utility.yul\":1368:1510   */\n      swap2\n      swap1\n      pop\n      jump\t// out\n        /* \"#utility.yul\":1516:1642   */\n    tag_103:\n        /* \"#utility.yul\":1566:1575   */\n      0x00\n        /* \"#utility.yul\":1599:1636   */\n      tag_147\n        /* \"#utility.yul\":1630:1635   */\n      dup3\n        /* \"#utility.yul\":1599:1636   */\n      tag_102\n      jump\t// in\n    tag_147:\n        /* \"#utility.yul\":1586:1636   */\n      swap1\n      pop\n        /* \"#utility.yul\":1516:1642   */\n      swap2\n      swap1\n      pop\n      jump\t// out\n        /* \"#utility.yul\":1648:1789   */\n    tag_104:\n        /* \"#utility.yul\":1713:1722   */\n      0x00\n        /* \"#utility.yul\":1746:1783   */\n      tag_149\n        /* \"#utility.yul\":1777:1782   */\n      dup3\n        /* \"#utility.yul\":1746:1783   */\n      tag_103\n      jump\t// in\n    tag_149:\n        /* \"#utility.yul\":1733:1783   */\n      swap1\n      pop\n        /* \"#utility.yul\":1648:1789   */\n      swap2\n      swap1\n      pop\n      jump\t// out\n        /* \"#utility.yul\":1795:1956   */\n    tag_105:\n        /* \"#utility.yul\":1897:1949   */\n      tag_151\n        /* \"#utility.yul\":1943:1948   */\n      dup2\n        /* \"#utility.yul\":1897:1949   */\n      tag_104\n      jump\t// in\n    tag_151:\n        /* \"#utility.yul\":1892:1895   */\n      dup3\n        /* \"#utility.yul\":1885:1950   */\n      mstore\n        /* \"#utility.yul\":1795:1956   */\n      pop\n      pop\n      jump\t// out\n        /* \"#utility.yul\":1962:2214   */\n    tag_18:\n        /* \"#utility.yul\":2070:2074   */\n      0x00\n        /* \"#utility.yul\":2108:2110   */\n      0x20\n        /* \"#utility.yul\":2097:2106   */\n      dup3\n        /* \"#utility.yul\":2093:2111   */\n      add\n        /* \"#utility.yul\":2085:2111   */\n      swap1\n      pop\n        /* \"#utility.yul\":2121:2207   */\n      tag_153\n        /* \"#utility.yul\":2204:2205   */\n      0x00\n        /* \"#utility.yul\":2193:2202   */\n      dup4\n        /* \"#utility.yul\":2189:2206   */\n      add\n        /* \"#utility.yul\":2180:2186   */\n      dup5\n        /* \"#utility.yul\":2121:2207   */\n      tag_105\n      jump\t// in\n    tag_153:\n        /* \"#utility.yul\":1962:2214   */\n      swap3\n      swap2\n      pop\n      pop\n      jump\t// out\n        /* \"#utility.yul\":2220:2549   */\n    tag_21:\n        /* \"#utility.yul\":2279:2285   */\n      0x00\n        /* \"#utility.yul\":2328:2330   */\n      0x20\n        /* \"#utility.yul\":2316:2325   */\n      dup3\n        /* \"#utility.yul\":2307:2314   */\n      dup5\n        /* \"#utility.yul\":2303:2326   */\n      sub\n        /* \"#utility.yul\":2299:2331   */\n      slt\n        /* \"#utility.yul\":2296:2415   */\n      iszero\n      tag_155\n      jumpi\n        /* \"#utility.yul\":2334:2413   */\n      tag_156\n      tag_95\n      jump\t// in\n    tag_156:\n        /* \"#utility.yul\":2296:2415   */\n    tag_155:\n        /* \"#utility.yul\":2454:2455   */\n      0x00\n        /* \"#utility.yul\":2479:2532   */\n      tag_157\n        /* \"#utility.yul\":2524:2531   */\n      dup5\n        /* \"#utility.yul\":2515:2521   */\n      dup3\n        /* \"#utility.yul\":2504:2513   */\n      dup6\n        /* \"#utility.yul\":2500:2522   */\n      add\n        /* \"#utility.yul\":2479:2532   */\n      tag_99\n      jump\t// in\n    tag_157:\n        /* \"#utility.yul\":2469:2532   */\n      swap2\n      pop\n        /* \"#utility.yul\":2425:2542   */\n      pop\n        /* \"#utility.yul\":2220:2549   */\n      swap3\n      swap2\n      pop\n      pop\n      jump\t// out\n        /* \"#utility.yul\":2555:2651   */\n    tag_106:\n        /* \"#utility.yul\":2592:2599   */\n      0x00\n        /* \"#utility.yul\":2621:2645   */\n      tag_159\n        /* \"#utility.yul\":2639:2644   */\n      dup3\n        /* \"#utility.yul\":2621:2645   */\n      tag_100\n      jump\t// in\n    tag_159:\n        /* \"#utility.yul\":2610:2645   */\n      swap1\n      pop\n        /* \"#utility.yul\":2555:2651   */\n      swap2\n      swap1\n      pop\n      jump\t// out\n        /* \"#utility.yul\":2657:2775   */\n    tag_107:\n        /* \"#utility.yul\":2744:2768   */\n      tag_161\n        /* \"#utility.yul\":2762:2767   */\n      dup2\n        /* \"#utility.yul\":2744:2768   */\n      tag_106\n      jump\t// in\n    tag_161:\n        /* \"#utility.yul\":2739:2742   */\n      dup3\n        /* \"#utility.yul\":2732:2769   */\n      mstore\n        /* \"#utility.yul\":2657:2775   */\n      pop\n      pop\n      jump\t// out\n        /* \"#utility.yul\":2781:2899   */\n    tag_108:\n        /* \"#utility.yul\":2868:2892   */\n      tag_163\n        /* \"#utility.yul\":2886:2891   */\n      dup2\n        /* \"#utility.yul\":2868:2892   */\n      tag_97\n      jump\t// in\n    tag_163:\n        /* \"#utility.yul\":2863:2866   */\n      dup3\n        /* \"#utility.yul\":2856:2893   */\n      mstore\n        /* \"#utility.yul\":2781:2899   */\n      pop\n      pop\n      jump\t// out\n        /* \"#utility.yul\":2905:2995   */\n    tag_109:\n        /* \"#utility.yul\":2939:2946   */\n      0x00\n        /* \"#utility.yul\":2982:2987   */\n      dup2\n        /* \"#utility.yul\":2975:2988   */\n      iszero\n        /* \"#utility.yul\":2968:2989   */\n      iszero\n        /* \"#utility.yul\":2957:2989   */\n      swap1\n      pop\n        /* \"#utility.yul\":2905:2995   */\n      swap2\n      swap1\n      pop\n      jump\t// out\n        /* \"#utility.yul\":3001:3110   */\n    tag_110:\n        /* \"#utility.yul\":3082:3103   */\n      tag_166\n        /* \"#utility.yul\":3097:3102   */\n      dup2\n        /* \"#utility.yul\":3082:3103   */\n      tag_109\n      jump\t// in\n    tag_166:\n        /* \"#utility.yul\":3077:3080   */\n      dup3\n        /* \"#utility.yul\":3070:3104   */\n      mstore\n        /* \"#utility.yul\":3001:3110   */\n      pop\n      pop\n      jump\t// out\n        /* \"#utility.yul\":3116:3879   */\n    tag_24:\n        /* \"#utility.yul\":3343:3347   */\n      0x00\n        /* \"#utility.yul\":3381:3384   */\n      0xc0\n        /* \"#utility.yul\":3370:3379   */\n      dup3\n        /* \"#utility.yul\":3366:3385   */\n      add\n        /* \"#utility.yul\":3358:3385   */\n      swap1\n      pop\n        /* \"#utility.yul\":3395:3466   */\n      tag_168\n        /* \"#utility.yul\":3463:3464   */\n      0x00\n        /* \"#utility.yul\":3452:3461   */\n      dup4\n        /* \"#utility.yul\":3448:3465   */\n      add\n        /* \"#utility.yul\":3439:3445   */\n      dup10\n        /* \"#utility.yul\":3395:3466   */\n      tag_107\n      jump\t// in\n    tag_168:\n        /* \"#utility.yul\":3476:3548   */\n      tag_169\n        /* \"#utility.yul\":3544:3546   */\n      0x20\n        /* \"#utility.yul\":3533:3542   */\n      dup4\n        /* \"#utility.yul\":3529:3547   */\n      add\n        /* \"#utility.yul\":3520:3526   */\n      dup9\n        /* \"#utility.yul\":3476:3548   */\n      tag_107\n      jump\t// in\n    tag_169:\n        /* \"#utility.yul\":3558:3630   */\n      tag_170\n        /* \"#utility.yul\":3626:3628   */\n      0x40\n        /* \"#utility.yul\":3615:3624   */\n      dup4\n        /* \"#utility.yul\":3611:3629   */\n      add\n        /* \"#utility.yul\":3602:3608   */\n      dup8\n        /* \"#utility.yul\":3558:3630   */\n      tag_108\n      jump\t// in\n    tag_170:\n        /* \"#utility.yul\":3640:3712   */\n      tag_171\n        /* \"#utility.yul\":3708:3710   */\n      0x60\n        /* \"#utility.yul\":3697:3706   */\n      dup4\n        /* \"#utility.yul\":3693:3711   */\n      add\n        /* \"#utility.yul\":3684:3690   */\n      dup7\n        /* \"#utility.yul\":3640:3712   */\n      tag_108\n      jump\t// in\n    tag_171:\n        /* \"#utility.yul\":3722:3795   */\n      tag_172\n        /* \"#utility.yul\":3790:3793   */\n      0x80\n        /* \"#utility.yul\":3779:3788   */\n      dup4\n        /* \"#utility.yul\":3775:3794   */\n      add\n        /* \"#utility.yul\":3766:3772   */\n      dup6\n        /* \"#utility.yul\":3722:3795   */\n      tag_108\n      jump\t// in\n    tag_172:\n        /* \"#utility.yul\":3805:3872   */\n      tag_173\n        /* \"#utility.yul\":3867:3870   */\n      0xa0\n        /* \"#utility.yul\":3856:3865   */\n      dup4\n        /* \"#utility.yul\":3852:3871   */\n      add\n        /* \"#utility.yul\":3843:3849   */\n      dup5\n        /* \"#utility.yul\":3805:3872   */\n      tag_110\n      jump\t// in\n    tag_173:\n        /* \"#utility.yul\":3116:3879   */\n      swap8\n      swap7\n      pop\n      pop\n      pop\n      pop\n      pop\n      pop\n      pop\n      jump\t// out\n        /* \"#utility.yul\":3885:4024   */\n    tag_111:\n        /* \"#utility.yul\":3948:3957   */\n      0x00\n        /* \"#utility.yul\":3981:4018   */\n      tag_175\n        /* \"#utility.yul\":4012:4017   */\n      dup3\n        /* \"#utility.yul\":3981:4018   */\n      tag_103\n      jump\t// in\n    tag_175:\n        /* \"#utility.yul\":3968:4018   */\n      swap1\n      pop\n        /* \"#utility.yul\":3885:4024   */\n      swap2\n      swap1\n      pop\n      jump\t// out\n        /* \"#utility.yul\":4030:4187   */\n    tag_112:\n        /* \"#utility.yul\":4130:4180   */\n      tag_177\n        /* \"#utility.yul\":4174:4179   */\n      dup2\n        /* \"#utility.yul\":4130:4180   */\n      tag_111\n      jump\t// in\n    tag_177:\n        /* \"#utility.yul\":4125:4128   */\n      dup3\n        /* \"#utility.yul\":4118:4181   */\n      mstore\n        /* \"#utility.yul\":4030:4187   */\n      pop\n      pop\n      jump\t// out\n        /* \"#utility.yul\":4193:4441   */\n    tag_31:\n        /* \"#utility.yul\":4299:4303   */\n      0x00\n        /* \"#utility.yul\":4337:4339   */\n      0x20\n        /* \"#utility.yul\":4326:4335   */\n      dup3\n        /* \"#utility.yul\":4322:4340   */\n      add\n        /* \"#utility.yul\":4314:4340   */\n      swap1\n      pop\n        /* \"#utility.yul\":4350:4434   */\n      tag_179\n        /* \"#utility.yul\":4431:4432   */\n      0x00\n        /* \"#utility.yul\":4420:4429   */\n      dup4\n        /* \"#utility.yul\":4416:4433   */\n      add\n        /* \"#utility.yul\":4407:4413   */\n      dup5\n        /* \"#utility.yul\":4350:4434   */\n      tag_112\n      jump\t// in\n    tag_179:\n        /* \"#utility.yul\":4193:4441   */\n      swap3\n      swap2\n      pop\n      pop\n      jump\t// out\n        /* \"#utility.yul\":4447:4669   */\n    tag_38:\n        /* \"#utility.yul\":4540:4544   */\n      0x00\n        /* \"#utility.yul\":4578:4580   */\n      0x20\n        /* \"#utility.yul\":4567:4576   */\n      dup3\n        /* \"#utility.yul\":4563:4581   */\n      add\n        /* \"#utility.yul\":4555:4581   */\n      swap1\n      pop\n        /* \"#utility.yul\":4591:4662   */\n      tag_181\n        /* \"#utility.yul\":4659:4660   */\n      0x00\n        /* \"#utility.yul\":4648:4657   */\n      dup4\n        /* \"#utility.yul\":4644:4661   */\n      add\n        /* \"#utility.yul\":4635:4641   */\n      dup5\n        /* \"#utility.yul\":4591:4662   */\n      tag_108\n      jump\t// in\n    tag_181:\n        /* \"#utility.yul\":4447:4669   */\n      swap3\n      swap2\n      pop\n      pop\n      jump\t// out\n        /* \"#utility.yul\":4675:5117   */\n    tag_41:\n        /* \"#utility.yul\":4824:4828   */\n      0x00\n        /* \"#utility.yul\":4862:4864   */\n      0x60\n        /* \"#utility.yul\":4851:4860   */\n      dup3\n        /* \"#utility.yul\":4847:4865   */\n      add\n        /* \"#utility.yul\":4839:4865   */\n      swap1\n      pop\n        /* \"#utility.yul\":4875:4946   */\n      tag_183\n        /* \"#utility.yul\":4943:4944   */\n      0x00\n        /* \"#utility.yul\":4932:4941   */\n      dup4\n        /* \"#utility.yul\":4928:4945   */\n      add\n        /* \"#utility.yul\":4919:4925   */\n      dup7\n        /* \"#utility.yul\":4875:4946   */\n      tag_107\n      jump\t// in\n    tag_183:\n        /* \"#utility.yul\":4956:5028   */\n      tag_184\n        /* \"#utility.yul\":5024:5026   */\n      0x20\n        /* \"#utility.yul\":5013:5022   */\n      dup4\n        /* \"#utility.yul\":5009:5027   */\n      add\n        /* \"#utility.yul\":5000:5006   */\n      dup6\n        /* \"#utility.yul\":4956:5028   */\n      tag_107\n      jump\t// in\n    tag_184:\n        /* \"#utility.yul\":5038:5110   */\n      tag_185\n        /* \"#utility.yul\":5106:5108   */\n      0x40\n        /* \"#utility.yul\":5095:5104   */\n      dup4\n        /* \"#utility.yul\":5091:5109   */\n      add\n        /* \"#utility.yul\":5082:5088   */\n      dup5\n        /* \"#utility.yul\":5038:5110   */\n      tag_108\n      jump\t// in\n    tag_185:\n        /* \"#utility.yul\":4675:5117   */\n      swap5\n      swap4\n      pop\n      pop\n      pop\n      pop\n      jump\t// out\n        /* \"#utility.yul\":5123:5303   */\n    tag_113:\n        /* \"#utility.yul\":5171:5248   */\n      0x4e487b7100000000000000000000000000000000000000000000000000000000\n        /* \"#utility.yul\":5168:5169   */\n      0x00\n        /* \"#utility.yul\":5161:5249   */\n      mstore\n        /* \"#utility.yul\":5268:5272   */\n      0x11\n        /* \"#utility.yul\":5265:5266   */\n      0x04\n        /* \"#utility.yul\":5258:5273   */\n      mstore\n        /* \"#utility.yul\":5292:5296   */\n      0x24\n        /* \"#utility.yul\":5289:5290   */\n      0x00\n        /* \"#utility.yul\":5282:5297   */\n      revert\n        /* \"#utility.yul\":5309:5542   */\n    tag_46:\n        /* \"#utility.yul\":5348:5351   */\n      0x00\n        /* \"#utility.yul\":5371:5395   */\n      tag_188\n        /* \"#utility.yul\":5389:5394   */\n      dup3\n        /* \"#utility.yul\":5371:5395   */\n      tag_97\n      jump\t// in\n    tag_188:\n        /* \"#utility.yul\":5362:5395   */\n      swap2\n      pop\n        /* \"#utility.yul\":5417:5483   */\n      0xffffffffffffffffffffffffffffffffffffffffffffffffffffffffffffffff\n        /* \"#utility.yul\":5410:5415   */\n      dup3\n        /* \"#utility.yul\":5407:5484   */\n      sub\n        /* \"#utility.yul\":5404:5507   */\n      tag_189\n      jumpi\n        /* \"#utility.yul\":5487:5505   */\n      tag_190\n      tag_113\n      jump\t// in\n    tag_190:\n        /* \"#utility.yul\":5404:5507   */\n    tag_189:\n        /* \"#utility.yul\":5534:5535   */\n      0x01\n        /* \"#utility.yul\":5527:5532   */\n      dup3\n        /* \"#utility.yul\":5523:5536   */\n      add\n        /* \"#utility.yul\":5516:5536   */\n      swap1\n      pop\n        /* \"#utility.yul\":5309:5542   */\n      swap2\n      swap1\n      pop\n      jump\t// out\n        /* \"#utility.yul\":5548:5739   */\n    tag_48:\n        /* \"#utility.yul\":5588:5591   */\n      0x00\n        /* \"#utility.yul\":5607:5627   */\n      tag_192\n        /* \"#utility.yul\":5625:5626   */\n      dup3\n        /* \"#utility.yul\":5607:5627   */\n      tag_97\n      jump\t// in\n    tag_192:\n        /* \"#utility.yul\":5602:5627   */\n      swap2\n      pop\n        /* \"#utility.yul\":5641:5661   */\n      tag_193\n        /* \"#utility.yul\":5659:5660   */\n      dup4\n        /* \"#utility.yul\":5641:5661   */\n      tag_97\n      jump\t// in\n    tag_193:\n        /* \"#utility.yul\":5636:5661   */\n      swap3\n      pop\n        /* \"#utility.yul\":5684:5685   */\n      dup3\n        /* \"#utility.yul\":5681:5682   */\n      dup3\n        /* \"#utility.yul\":5677:5686   */\n      add\n        /* \"#utility.yul\":5670:5686   */\n      swap1\n      pop\n        /* \"#utility.yul\":5705:5708   */\n      dup1\n        /* \"#utility.yul\":5702:5703   */\n      dup3\n        /* \"#utility.yul\":5699:5709   */\n      gt\n        /* \"#utility.yul\":5696:5732   */\n      iszero\n      tag_194\n      jumpi\n        /* \"#utility.yul\":5712:5730   */\n      tag_195\n      tag_113\n      jump\t// in\n    tag_195:\n        /* \"#utility.yul\":5696:5732   */\n    tag_194:\n        /* \"#utility.yul\":5548:5739   */\n      swap3\n      swap2\n      pop\n      pop\n      jump\t// out\n        /* \"#utility.yul\":5745:6077   */\n    tag_50:\n        /* \"#utility.yul\":5866:5870   */\n      0x00\n        /* \"#utility.yul\":5904:5906   */\n      0x40\n        /* \"#utility.yul\":5893:5902   */\n      dup3\n        /* \"#utility.yul\":5889:5907   */\n      add\n        /* \"#utility.yul\":5881:5907   */\n      swap1\n      pop\n        /* \"#utility.yul\":5917:5988   */\n      tag_197\n        /* \"#utility.yul\":5985:5986   */\n      0x00\n        /* \"#utility.yul\":5974:5983   */\n      dup4\n        /* \"#utility.yul\":5970:5987   */\n      add\n        /* \"#utility.yul\":5961:5967   */\n      dup6\n        /* \"#utility.yul\":5917:5988   */\n      tag_108\n      jump\t// in\n    tag_197:\n        /* \"#utility.yul\":5998:6070   */\n      tag_198\n        /* \"#utility.yul\":6066:6068   */\n      0x20\n        /* \"#utility.yul\":6055:6064   */\n      dup4\n        /* \"#utility.yul\":6051:6069   */\n      add\n        /* \"#utility.yul\":6042:6048   */\n      dup5\n        /* \"#utility.yul\":5998:6070   */\n      tag_108\n      jump\t// in\n    tag_198:\n        /* \"#utility.yul\":5745:6077   */\n      swap4\n      swap3\n      pop\n      pop\n      pop\n      jump\t// out\n        /* \"#utility.yul\":6083:6252   */\n    tag_114:\n        /* \"#utility.yul\":6167:6178   */\n      0x00\n        /* \"#utility.yul\":6201:6207   */\n      dup3\n        /* \"#utility.yul\":6196:6199   */\n      dup3\n        /* \"#utility.yul\":6189:6208   */\n      mstore\n        /* \"#utility.yul\":6241:6245   */\n      0x20\n        /* \"#utility.yul\":6236:6239   */\n      dup3\n        /* \"#utility.yul\":6232:6246   */\n      add\n        /* \"#utility.yul\":6217:6246   */\n      swap1\n      pop\n        /* \"#utility.yul\":6083:6252   */\n      swap3\n      swap2\n      pop\n      pop\n      jump\t// out\n        /* \"#utility.yul\":6258:6425   */\n    tag_115:\n        /* \"#utility.yul\":6398:6417   */\n      0x41756374696f6e2068617320656e646564000000000000000000000000000000\n        /* \"#utility.yul\":6394:6395   */\n      0x00\n        /* \"#utility.yul\":6386:6392   */\n      dup3\n        /* \"#utility.yul\":6382:6396   */\n      add\n        /* \"#utility.yul\":6375:6418   */\n      mstore\n        /* \"#utility.yul\":6258:6425   */\n      pop\n      jump\t// out\n        /* \"#utility.yul\":6431:6797   */\n    tag_116:\n        /* \"#utility.yul\":6573:6576   */\n      0x00\n        /* \"#utility.yul\":6594:6661   */\n      tag_202\n        /* \"#utility.yul\":6658:6660   */\n      0x11\n        /* \"#utility.yul\":6653:6656   */\n      dup4\n        /* \"#utility.yul\":6594:6661   */\n      tag_114\n      jump\t// in\n    tag_202:\n        /* \"#utility.yul\":6587:6661   */\n      swap2\n      pop\n        /* \"#utility.yul\":6670:6763   */\n      tag_203\n        /* \"#utility.yul\":6759:6762   */\n      dup3\n        /* \"#utility.yul\":6670:6763   */\n      tag_115\n      jump\t// in\n    tag_203:\n        /* \"#utility.yul\":6788:6790   */\n      0x20\n        /* \"#utility.yul\":6783:6786   */\n      dup3\n        /* \"#utility.yul\":6779:6791   */\n      add\n        /* \"#utility.yul\":6772:6791   */\n      swap1\n      pop\n        /* \"#utility.yul\":6431:6797   */\n      swap2\n      swap1\n      pop\n      jump\t// out\n        /* \"#utility.yul\":6803:7222   */\n    tag_54:\n        /* \"#utility.yul\":6969:6973   */\n      0x00\n        /* \"#utility.yul\":7007:7009   */\n      0x20\n        /* \"#utility.yul\":6996:7005   */\n      dup3\n        /* \"#utility.yul\":6992:7010   */\n      add\n        /* \"#utility.yul\":6984:7010   */\n      swap1\n      pop\n        /* \"#utility.yul\":7056:7065   */\n      dup2\n        /* \"#utility.yul\":7050:7054   */\n      dup2\n        /* \"#utility.yul\":7046:7066   */\n      sub\n        /* \"#utility.yul\":7042:7043   */\n      0x00\n        /* \"#utility.yul\":7031:7040   */\n      dup4\n        /* \"#utility.yul\":7027:7044   */\n      add\n        /* \"#utility.yul\":7020:7067   */\n      mstore\n        /* \"#utility.yul\":7084:7215   */\n      tag_205\n        /* \"#utility.yul\":7210:7214   */\n      dup2\n        /* \"#utility.yul\":7084:7215   */\n      tag_116\n      jump\t// in\n    tag_205:\n        /* \"#utility.yul\":7076:7215   */\n      swap1\n      pop\n        /* \"#utility.yul\":6803:7222   */\n      swap2\n      swap1\n      pop\n      jump\t// out\n        /* \"#utility.yul\":7228:7399   */\n    tag_117:\n        /* \"#utility.yul\":7368:7391   */\n      0x41756374696f6e206973206e6f74206163746976650000000000000000000000\n        /* \"#utility.yul\":7364:7365   */\n      0x00\n        /* \"#utility.yul\":7356:7362   */\n      dup3\n        /* \"#utility.yul\":7352:7366   */\n      add\n        /* \"#utility.yul\":7345:7392   */\n      mstore\n        /* \"#utility.yul\":7228:7399   */\n      pop\n      jump\t// out\n        /* \"#utility.yul\":7405:7771   */\n    tag_118:\n        /* \"#utility.yul\":7547:7550   */\n      0x00\n        /* \"#utility.yul\":7568:7635   */\n      tag_208\n        /* \"#utility.yul\":7632:7634   */\n      0x15\n        /* \"#utility.yul\":7627:7630   */\n      dup4\n        /* \"#utility.yul\":7568:7635   */\n      tag_114\n      jump\t// in\n    tag_208:\n        /* \"#utility.yul\":7561:7635   */\n      swap2\n      pop\n        /* \"#utility.yul\":7644:7737   */\n      tag_209\n        /* \"#utility.yul\":7733:7736   */\n      dup3\n        /* \"#utility.yul\":7644:7737   */\n      tag_117\n      jump\t// in\n    tag_209:\n        /* \"#utility.yul\":7762:7764   */\n      0x20\n        /* \"#utility.yul\":7757:7760   */\n      dup3\n        /* \"#utility.yul\":7753:7765   */\n      add\n        /* \"#utility.yul\":7746:7765   */\n      swap1\n      pop\n        /* \"#utility.yul\":7405:7771   */\n      swap2\n      swap1\n      pop\n      jump\t// out\n        /* \"#utility.yul\":7777:8196   */\n    tag_57:\n        /* \"#utility.yul\":7943:7947   */\n      0x00\n        /* \"#utility.yul\":7981:7983   */\n      0x20\n        /* \"#utility.yul\":7970:7979   */\n      dup3\n        /* \"#utility.yul\":7966:7984   */\n      add\n        /* \"#utility.yul\":7958:7984   */\n      swap1\n      pop\n        /* \"#utility.yul\":8030:8039   */\n      dup2\n        /* \"#utility.yul\":8024:8028   */\n      dup2\n        /* \"#utility.yul\":8020:8040   */\n      sub\n        /* \"#utility.yul\":8016:8017   */\n      0x00\n        /* \"#utility.yul\":8005:8014   */\n      dup4\n        /* \"#utility.yul\":8001:8018   */\n      add\n        /* \"#utility.yul\":7994:8041   */\n      mstore\n        /* \"#utility.yul\":8058:8189   */\n      tag_211\n        /* \"#utility.yul\":8184:8188   */\n      dup2\n        /* \"#utility.yul\":8058:8189   */\n      tag_118\n      jump\t// in\n    tag_211:\n        /* \"#utility.yul\":8050:8189   */\n      swap1\n      pop\n        /* \"#utility.yul\":7777:8196   */\n      swap2\n      swap1\n      pop\n      jump\t// out\n        /* \"#utility.yul\":8202:8432   */\n    tag_119:\n        /* \"#utility.yul\":8342:8376   */\n      0x426964206d75737420626520686967686572207468616e2063757272656e7420\n        /* \"#utility.yul\":8338:8339   */\n      0x00\n        /* \"#utility.yul\":8330:8336   */\n      dup3\n        /* \"#utility.yul\":8326:8340   */\n      add\n        /* \"#utility.yul\":8319:8377   */\n      mstore\n        /* \"#utility.yul\":8411:8424   */\n      0x6869676865737420626964000000000000000000000000000000000000000000\n        /* \"#utility.yul\":8406:8408   */\n      0x20\n        /* \"#utility.yul\":8398:8404   */\n      dup3\n        /* \"#utility.yul\":8394:8409   */\n      add\n        /* \"#utility.yul\":8387:8425   */\n      mstore\n        /* \"#utility.yul\":8202:8432   */\n      pop\n      jump\t// out\n        /* \"#utility.yul\":8438:8804   */\n    tag_120:\n        /* \"#utility.yul\":8580:8583   */\n      0x00\n        /* \"#utility.yul\":8601:8668   */\n      tag_214\n        /* \"#utility.yul\":8665:8667   */\n      0x2b\n        /* \"#utility.yul\":8660:8663   */\n      dup4\n        /* \"#utility.yul\":8601:8668   */\n      tag_114\n      jump\t// in\n    tag_214:\n        /* \"#utility.yul\":8594:8668   */\n      swap2\n      pop\n        /* \"#utility.yul\":8677:8770   */\n      tag_215\n        /* \"#utility.yul\":8766:8769   */\n      dup3\n        /* \"#utility.yul\":8677:8770   */\n      tag_119\n      jump\t// in\n    tag_215:\n        /* \"#utility.yul\":8795:8797   */\n      0x40\n        /* \"#utility.yul\":8790:8793   */\n      dup3\n        /* \"#utility.yul\":8786:8798   */\n      add\n        /* \"#utility.yul\":8779:8798   */\n      swap1\n      pop\n        /* \"#utility.yul\":8438:8804   */\n      swap2\n      swap1\n      pop\n      jump\t// out\n        /* \"#utility.yul\":8810:9229   */\n    tag_60:\n        /* \"#utility.yul\":8976:8980   */\n      0x00\n        /* \"#utility.yul\":9014:9016   */\n      0x20\n        /* \"#utility.yul\":9003:9012   */\n      dup3\n        /* \"#utility.yul\":8999:9017   */\n      add\n        /* \"#utility.yul\":8991:9017   */\n      swap1\n      pop\n        /* \"#utility.yul\":9063:9072   */\n      dup2\n        /* \"#utility.yul\":9057:9061   */\n      dup2\n        /* \"#utility.yul\":9053:9073   */\n      sub\n        /* \"#utility.yul\":9049:9050   */\n      0x00\n        /* \"#utility.yul\":9038:9047   */\n      dup4\n        /* \"#utility.yul\":9034:9051   */\n      add\n        /* \"#utility.yul\":9027:9074   */\n      mstore\n        /* \"#utility.yul\":9091:9222   */\n      tag_217\n        /* \"#utility.yul\":9217:9221   */\n      dup2\n        /* \"#utility.yul\":9091:9222   */\n      tag_120\n      jump\t// in\n    tag_217:\n        /* \"#utility.yul\":9083:9222   */\n      swap1\n      pop\n        /* \"#utility.yul\":8810:9229   */\n      swap2\n      swap1\n      pop\n      jump\t// out\n        /* \"#utility.yul\":9235:9351   */\n    tag_121:\n        /* \"#utility.yul\":9305:9326   */\n      tag_219\n        /* \"#utility.yul\":9320:9325   */\n      dup2\n        /* \"#utility.yul\":9305:9326   */\n      tag_109\n      jump\t// in\n    tag_219:\n        /* \"#utility.yul\":9298:9303   */\n      dup2\n        /* \"#utility.yul\":9295:9327   */\n      eq\n        /* \"#utility.yul\":9285:9345   */\n      tag_220\n      jumpi\n        /* \"#utility.yul\":9341:9342   */\n      0x00\n        /* \"#utility.yul\":9338:9339   */\n      0x00\n        /* \"#utility.yul\":9331:9343   */\n      revert\n        /* \"#utility.yul\":9285:9345   */\n    tag_220:\n        /* \"#utility.yul\":9235:9351   */\n      pop\n      jump\t// out\n        /* \"#utility.yul\":9357:9494   */\n    tag_122:\n        /* \"#utility.yul\":9411:9416   */\n      0x00\n        /* \"#utility.yul\":9442:9448   */\n      dup2\n        /* \"#utility.yul\":9436:9449   */\n      mload\n        /* \"#utility.yul\":9427:9449   */\n      swap1\n      pop\n        /* \"#utility.yul\":9458:9488   */\n      tag_222\n        /* \"#utility.yul\":9482:9487   */\n      dup2\n        /* \"#utility.yul\":9458:9488   */\n      tag_121\n      jump\t// in\n    tag_222:\n        /* \"#utility.yul\":9357:9494   */\n      swap3\n      swap2\n      pop\n      pop\n      jump\t// out\n        /* \"#utility.yul\":9500:9845   */\n    tag_65:\n        /* \"#utility.yul\":9567:9573   */\n      0x00\n        /* \"#utility.yul\":9616:9618   */\n      0x20\n        /* \"#utility.yul\":9604:9613   */\n      dup3\n        /* \"#utility.yul\":9595:9602   */\n      dup5\n        /* \"#utility.yul\":9591:9614   */\n      sub\n        /* \"#utility.yul\":9587:9619   */\n      slt\n        /* \"#utility.yul\":9584:9703   */\n      iszero\n      tag_224\n      jumpi\n        /* \"#utility.yul\":9622:9701   */\n      tag_225\n      tag_95\n      jump\t// in\n    tag_225:\n        /* \"#utility.yul\":9584:9703   */\n    tag_224:\n        /* \"#utility.yul\":9742:9743   */\n      0x00\n        /* \"#utility.yul\":9767:9828   */\n      tag_226\n        /* \"#utility.yul\":9820:9827   */\n      dup5\n        /* \"#utility.yul\":9811:9817   */\n      dup3\n        /* \"#utility.yul\":9800:9809   */\n      dup6\n        /* \"#utility.yul\":9796:9818   */\n      add\n        /* \"#utility.yul\":9767:9828   */\n      tag_122\n      jump\t// in\n    tag_226:\n        /* \"#utility.yul\":9757:9828   */\n      swap2\n      pop\n        /* \"#utility.yul\":9713:9838   */\n      pop\n        /* \"#utility.yul\":9500:9845   */\n      swap3\n      swap2\n      pop\n      pop\n      jump\t// out\n        /* \"#utility.yul\":9851:10183   */\n    tag_68:\n        /* \"#utility.yul\":9972:9976   */\n      0x00\n        /* \"#utility.yul\":10010:10012   */\n      0x40\n        /* \"#utility.yul\":9999:10008   */\n      dup3\n        /* \"#utility.yul\":9995:10013   */\n      add\n        /* \"#utility.yul\":9987:10013   */\n      swap1\n      pop\n        /* \"#utility.yul\":10023:10094   */\n      tag_228\n        /* \"#utility.yul\":10091:10092   */\n      0x00\n        /* \"#utility.yul\":10080:10089   */\n      dup4\n        /* \"#utility.yul\":10076:10093   */\n      add\n        /* \"#utility.yul\":10067:10073   */\n      dup6\n        /* \"#utility.yul\":10023:10094   */\n      tag_107\n      jump\t// in\n    tag_228:\n        /* \"#utility.yul\":10104:10176   */\n      tag_229\n        /* \"#utility.yul\":10172:10174   */\n      0x20\n        /* \"#utility.yul\":10161:10170   */\n      dup4\n        /* \"#utility.yul\":10157:10175   */\n      add\n        /* \"#utility.yul\":10148:10154   */\n      dup5\n        /* \"#utility.yul\":10104:10176   */\n      tag_108\n      jump\t// in\n    tag_229:\n        /* \"#utility.yul\":9851:10183   */\n      swap4\n      swap3\n      pop\n      pop\n      pop\n      jump\t// out\n        /* \"#utility.yul\":10189:10364   */\n    tag_123:\n        /* \"#utility.yul\":10329:10356   */\n      0x41756374696f6e20686173206e6f7420656e6465642079657400000000000000\n        /* \"#utility.yul\":10325:10326   */\n      0x00\n        /* \"#utility.yul\":10317:10323   */\n      dup3\n        /* \"#utility.yul\":10313:10327   */\n      add\n        /* \"#utility.yul\":10306:10357   */\n      mstore\n        /* \"#utility.yul\":10189:10364   */\n      pop\n      jump\t// out\n        /* \"#utility.yul\":10370:10736   */\n    tag_124:\n        /* \"#utility.yul\":10512:10515   */\n      0x00\n        /* \"#utility.yul\":10533:10600   */\n      tag_232\n        /* \"#utility.yul\":10597:10599   */\n      0x19\n        /* \"#utility.yul\":10592:10595   */\n      dup4\n        /* \"#utility.yul\":10533:10600   */\n      tag_114\n      jump\t// in\n    tag_232:\n        /* \"#utility.yul\":10526:10600   */\n      swap2\n      pop\n        /* \"#utility.yul\":10609:10702   */\n      tag_233\n        /* \"#utility.yul\":10698:10701   */\n      dup3\n        /* \"#utility.yul\":10609:10702   */\n      tag_123\n      jump\t// in\n    tag_233:\n        /* \"#utility.yul\":10727:10729   */\n      0x20\n        /* \"#utility.yul\":10722:10725   */\n      dup3\n        /* \"#utility.yul\":10718:10730   */\n      add\n        /* \"#utility.yul\":10711:10730   */\n      swap1\n      pop\n        /* \"#utility.yul\":10370:10736   */\n      swap2\n      swap1\n      pop\n      jump\t// out\n        /* \"#utility.yul\":10742:11161   */\n    tag_76:\n        /* \"#utility.yul\":10908:10912   */\n      0x00\n        /* \"#utility.yul\":10946:10948   */\n      0x20\n        /* \"#utility.yul\":10935:10944   */\n      dup3\n        /* \"#utility.yul\":10931:10949   */\n      add\n        /* \"#utility.yul\":10923:10949   */\n      swap1\n      pop\n        /* \"#utility.yul\":10995:11004   */\n      dup2\n        /* \"#utility.yul\":10989:10993   */\n      dup2\n        /* \"#utility.yul\":10985:11005   */\n      sub\n        /* \"#utility.yul\":10981:10982   */\n      0x00\n        /* \"#utility.yul\":10970:10979   */\n      dup4\n        /* \"#utility.yul\":10966:10983   */\n      add\n        /* \"#utility.yul\":10959:11006   */\n      mstore\n        /* \"#utility.yul\":11023:11154   */\n      tag_235\n        /* \"#utility.yul\":11149:11153   */\n      dup2\n        /* \"#utility.yul\":11023:11154   */\n      tag_124\n      jump\t// in\n    tag_235:\n        /* \"#utility.yul\":11015:11154   */\n      swap1\n      pop\n        /* \"#utility.yul\":10742:11161   */\n      swap2\n      swap1\n      pop\n      jump\t// out\n\n    auxdata: 0xa264697066735822122048d8d4baa4665206cd205dab3cc734baafbaed2cd46f8e682646d17ad46e68ee64736f6c634300081e0033\n}\n",
				"bytecode": {
					"linkReferences": {},
					"object": "608060405234801561000f575f5ffd5b5060405161126238038061126283398181016040528101906100319190610115565b815f5f6101000a81548173ffffffffffffffffffffffffffffffffffffffff021916908373ffffffffffffffffffffffffffffffffffffffff1602179055508060015f6101000a81548173ffffffffffffffffffffffffffffffffffffffff021916908373ffffffffffffffffffffffffffffffffffffffff1602179055505050610153565b5f5ffd5b5f73ffffffffffffffffffffffffffffffffffffffff82169050919050565b5f6100e4826100bb565b9050919050565b6100f4816100da565b81146100fe575f5ffd5b50565b5f8151905061010f816100eb565b92915050565b5f5f6040838503121561012b5761012a6100b7565b5b5f61013885828601610101565b925050602061014985828601610101565b9150509250929050565b611102806101605f395ff3fe608060405234801561000f575f5ffd5b506004361061007b575f3560e01c806357c90de51161005957806357c90de5146100ee57806399fdb3201461010a578063b9a2de3a14610128578063de0794ef146101445761007b565b80630121683f1461007f57806335af939b1461009b578063571a26a0146100b9575b5f5ffd5b61009960048036038101906100949190610b81565b610162565b005b6100a361039b565b6040516100b09190610c39565b60405180910390f35b6100d360048036038101906100ce9190610c52565b6103c0565b6040516100e596959493929190610cc6565b60405180910390f35b61010860048036038101906101039190610b81565b610442565b005b610112610774565b60405161011f9190610d45565b60405180910390f35b610142600480360381019061013d9190610c52565b610798565b005b61014c610b44565b6040516101599190610d5e565b60405180910390f35b60015f9054906101000a900473ffffffffffffffffffffffffffffffffffffffff1673ffffffffffffffffffffffffffffffffffffffff166323b872dd3330856040518463ffffffff1660e01b81526004016101c093929190610d77565b5f604051808303815f87803b1580156101d7575f5ffd5b505af11580156101e9573d5f5f3e3d5ffd5b505050505f60025f81548092919061020090610dd9565b9190505590506040518060c001604052803373ffffffffffffffffffffffffffffffffffffffff1681526020015f73ffffffffffffffffffffffffffffffffffffffff1681526020015f815260200184815260200183426102619190610e20565b81526020016001151581525060035f8381526020019081526020015f205f820151815f015f6101000a81548173ffffffffffffffffffffffffffffffffffffffff021916908373ffffffffffffffffffffffffffffffffffffffff1602179055506020820151816001015f6101000a81548173ffffffffffffffffffffffffffffffffffffffff021916908373ffffffffffffffffffffffffffffffffffffffff16021790555060408201518160020155606082015181600301556080820151816004015560a0820151816005015f6101000a81548160ff021916908315150217905550905050807fd6eddd1118d71820909c1197aa966dbc15ed6f508554252169cc3d5ccac756ca8460035f8581526020019081526020015f206004015460405161038e929190610e53565b60405180910390a2505050565b60015f9054906101000a900473ffffffffffffffffffffffffffffffffffffffff1681565b6003602052805f5260405f205f91509050805f015f9054906101000a900473ffffffffffffffffffffffffffffffffffffffff1690806001015f9054906101000a900473ffffffffffffffffffffffffffffffffffffffff1690806002015490806003015490806004015490806005015f9054906101000a900460ff16905086565b5f60035f8481526020019081526020015f2090508060040154421061049c576040517f08c379a000000000000000000000000000000000000000000000000000000000815260040161049390610ed4565b60405180910390fd5b806005015f9054906101000a900460ff166104ec576040517f08c379a00000000000000000000000000000000000000000000000000000000081526004016104e390610f3c565b60405180910390fd5b80600201548211610532576040517f08c379a000000000000000000000000000000000000000000000000000000000815260040161052990610fca565b60405180910390fd5b5f5f9054906101000a900473ffffffffffffffffffffffffffffffffffffffff1673ffffffffffffffffffffffffffffffffffffffff166323b872dd3330856040518463ffffffff1660e01b815260040161058f93929190610d77565b6020604051808303815f875af11580156105ab573d5f5f3e3d5ffd5b505050506040513d601f19601f820116820180604052508101906105cf9190611012565b505f73ffffffffffffffffffffffffffffffffffffffff16816001015f9054906101000a900473ffffffffffffffffffffffffffffffffffffffff1673ffffffffffffffffffffffffffffffffffffffff16146106ea575f5f9054906101000a900473ffffffffffffffffffffffffffffffffffffffff1673ffffffffffffffffffffffffffffffffffffffff1663a9059cbb826001015f9054906101000a900473ffffffffffffffffffffffffffffffffffffffff1683600201546040518363ffffffff1660e01b81526004016106a892919061103d565b6020604051808303815f875af11580156106c4573d5f5f3e3d5ffd5b505050506040513d601f19601f820116820180604052508101906106e89190611012565b505b81816002018190555033816001015f6101000a81548173ffffffffffffffffffffffffffffffffffffffff021916908373ffffffffffffffffffffffffffffffffffffffff160217905550827f558a0d5d5468d74b0db24c74eb348b42271c2ebb4c9e953ced38aaed95fa4361338460405161076792919061103d565b60405180910390a2505050565b5f5f9054906101000a900473ffffffffffffffffffffffffffffffffffffffff1681565b5f60035f8381526020019081526020015f20905080600401544210156107f3576040517f08c379a00000000000000000000000000000000000000000000000000000000081526004016107ea906110ae565b60405180910390fd5b806005015f9054906101000a900460ff16610843576040517f08c379a000000000000000000000000000000000000000000000000000000000815260040161083a90610f3c565b60405180910390fd5b5f816005015f6101000a81548160ff0219169083151502179055505f73ffffffffffffffffffffffffffffffffffffffff16816001015f9054906101000a900473ffffffffffffffffffffffffffffffffffffffff1673ffffffffffffffffffffffffffffffffffffffff1614610a2d5760015f9054906101000a900473ffffffffffffffffffffffffffffffffffffffff1673ffffffffffffffffffffffffffffffffffffffff166323b872dd30836001015f9054906101000a900473ffffffffffffffffffffffffffffffffffffffff1684600301546040518463ffffffff1660e01b815260040161093993929190610d77565b5f604051808303815f87803b158015610950575f5ffd5b505af1158015610962573d5f5f3e3d5ffd5b505050505f5f9054906101000a900473ffffffffffffffffffffffffffffffffffffffff1673ffffffffffffffffffffffffffffffffffffffff1663a9059cbb825f015f9054906101000a900473ffffffffffffffffffffffffffffffffffffffff1683600201546040518363ffffffff1660e01b81526004016109e792919061103d565b6020604051808303815f875af1158015610a03573d5f5f3e3d5ffd5b505050506040513d601f19601f82011682018060405250810190610a279190611012565b50610adf565b60015f9054906101000a900473ffffffffffffffffffffffffffffffffffffffff1673ffffffffffffffffffffffffffffffffffffffff166323b872dd30835f015f9054906101000a900473ffffffffffffffffffffffffffffffffffffffff1684600301546040518463ffffffff1660e01b8152600401610ab193929190610d77565b5f604051808303815f87803b158015610ac8575f5ffd5b505af1158015610ada573d5f5f3e3d5ffd5b505050505b817fd2aa34a4fdbbc6dff6a3e56f46e0f3ae2a31d7785ff3487aa5c95c642acea501826001015f9054906101000a900473ffffffffffffffffffffffffffffffffffffffff168360020154604051610b3892919061103d565b60405180910390a25050565b60025481565b5f5ffd5b5f819050919050565b610b6081610b4e565b8114610b6a575f5ffd5b50565b5f81359050610b7b81610b57565b92915050565b5f5f60408385031215610b9757610b96610b4a565b5b5f610ba485828601610b6d565b9250506020610bb585828601610b6d565b9150509250929050565b5f73ffffffffffffffffffffffffffffffffffffffff82169050919050565b5f819050919050565b5f610c01610bfc610bf784610bbf565b610bde565b610bbf565b9050919050565b5f610c1282610be7565b9050919050565b5f610c2382610c08565b9050919050565b610c3381610c19565b82525050565b5f602082019050610c4c5f830184610c2a565b92915050565b5f60208284031215610c6757610c66610b4a565b5b5f610c7484828501610b6d565b91505092915050565b5f610c8782610bbf565b9050919050565b610c9781610c7d565b82525050565b610ca681610b4e565b82525050565b5f8115159050919050565b610cc081610cac565b82525050565b5f60c082019050610cd95f830189610c8e565b610ce66020830188610c8e565b610cf36040830187610c9d565b610d006060830186610c9d565b610d0d6080830185610c9d565b610d1a60a0830184610cb7565b979650505050505050565b5f610d2f82610c08565b9050919050565b610d3f81610d25565b82525050565b5f602082019050610d585f830184610d36565b92915050565b5f602082019050610d715f830184610c9d565b92915050565b5f606082019050610d8a5f830186610c8e565b610d976020830185610c8e565b610da46040830184610c9d565b949350505050565b7f4e487b71000000000000000000000000000000000000000000000000000000005f52601160045260245ffd5b5f610de382610b4e565b91507fffffffffffffffffffffffffffffffffffffffffffffffffffffffffffffffff8203610e1557610e14610dac565b5b600182019050919050565b5f610e2a82610b4e565b9150610e3583610b4e565b9250828201905080821115610e4d57610e4c610dac565b5b92915050565b5f604082019050610e665f830185610c9d565b610e736020830184610c9d565b9392505050565b5f82825260208201905092915050565b7f41756374696f6e2068617320656e6465640000000000000000000000000000005f82015250565b5f610ebe601183610e7a565b9150610ec982610e8a565b602082019050919050565b5f6020820190508181035f830152610eeb81610eb2565b9050919050565b7f41756374696f6e206973206e6f742061637469766500000000000000000000005f82015250565b5f610f26601583610e7a565b9150610f3182610ef2565b602082019050919050565b5f6020820190508181035f830152610f5381610f1a565b9050919050565b7f426964206d75737420626520686967686572207468616e2063757272656e74205f8201527f6869676865737420626964000000000000000000000000000000000000000000602082015250565b5f610fb4602b83610e7a565b9150610fbf82610f5a565b604082019050919050565b5f6020820190508181035f830152610fe181610fa8565b9050919050565b610ff181610cac565b8114610ffb575f5ffd5b50565b5f8151905061100c81610fe8565b92915050565b5f6020828403121561102757611026610b4a565b5b5f61103484828501610ffe565b91505092915050565b5f6040820190506110505f830185610c8e565b61105d6020830184610c9d565b9392505050565b7f41756374696f6e20686173206e6f7420656e64656420796574000000000000005f82015250565b5f611098601983610e7a565b91506110a382611064565b602082019050919050565b5f6020820190508181035f8301526110c58161108c565b905091905056fea264697066735822122048d8d4baa4665206cd205dab3cc734baafbaed2cd46f8e682646d17ad46e68ee64736f6c634300081e0033",
					"opcodes": "PUSH1 0x80 PUSH1 0x40 MSTORE CALLVALUE DUP1 ISZERO PUSH2 0xF JUMPI PUSH0 PUSH0 REVERT JUMPDEST POP PUSH1 0x40 MLOAD PUSH2 0x1262 CODESIZE SUB DUP1 PUSH2 0x1262 DUP4 CODECOPY DUP2 DUP2 ADD PUSH1 0x40 MSTORE DUP2 ADD SWAP1 PUSH2 0x31 SWAP2 SWAP1 PUSH2 0x115 JUMP JUMPDEST DUP2 PUSH0 PUSH0 PUSH2 0x100 EXP DUP2 SLOAD DUP2 PUSH20 0xFFFFFFFFFFFFFFFFFFFFFFFFFFFFFFFFFFFFFFFF MUL NOT AND SWAP1 DUP4 PUSH20 0xFFFFFFFFFFFFFFFFFFFFFFFFFFFFFFFFFFFFFFFF AND MUL OR SWAP1 SSTORE POP DUP1 PUSH1 0x1 PUSH0 PUSH2 0x100 EXP DUP2 SLOAD DUP2 PUSH20 0xFFFFFFFFFFFFFFFFFFFFFFFFFFFFFFFFFFFFFFFF MUL NOT AND SWAP1 DUP4 PUSH20 0xFFFFFFFFFFFFFFFFFFFFFFFFFFFFFFFFFFFFFFFF AND MUL OR SWAP1 SSTORE POP POP POP PUSH2 0x153 JUMP JUMPDEST PUSH0 PUSH0 REVERT JUMPDEST PUSH0 PUSH20 0xFFFFFFFFFFFFFFFFFFFFFFFFFFFFFFFFFFFFFFFF DUP3 AND SWAP1 POP SWAP2 SWAP1 POP JUMP JUMPDEST PUSH0 PUSH2 0xE4 DUP3 PUSH2 0xBB JUMP JUMPDEST SWAP1 POP SWAP2 SWAP1 POP JUMP JUMPDEST PUSH2 0xF4 DUP2 PUSH2 0xDA JUMP JUMPDEST DUP2 EQ PUSH2 0xFE JUMPI PUSH0 PUSH0 REVERT JUMPDEST POP JUMP JUMPDEST PUSH0 DUP2 MLOAD SWAP1 POP PUSH2 0x10F DUP2 PUSH2 0xEB JUMP JUMPDEST SWAP3 SWAP2 POP POP JUMP JUMPDEST PUSH0 PUSH0 PUSH1 0x40 DUP4 DUP6 SUB SLT ISZERO PUSH2 0x12B JUMPI PUSH2 0x12A PUSH2 0xB7 JUMP JUMPDEST JUMPDEST PUSH0 PUSH2 0x138 DUP6 DUP3 DUP7 ADD PUSH2 0x101 JUMP JUMPDEST SWAP3 POP POP PUSH1 0x20 PUSH2 0x149 DUP6 DUP3 DUP7 ADD PUSH2 0x101 JUMP JUMPDEST SWAP2 POP POP SWAP3 POP SWAP3 SWAP1 POP JUMP JUMPDEST PUSH2 0x1102 DUP1 PUSH2 0x160 PUSH0 CODECOPY PUSH0 RETURN INVALID PUSH1 0x80 PUSH1 0x40 MSTORE CALLVALUE DUP1 ISZERO PUSH2 0xF JUMPI PUSH0 PUSH0 REVERT JUMPDEST POP PUSH1 0x4 CALLDATASIZE LT PUSH2 0x7B JUMPI PUSH0 CALLDATALOAD PUSH1 0xE0 SHR DUP1 PUSH4 0x57C90DE5 GT PUSH2 0x59 JUMPI DUP1 PUSH4 0x57C90DE5 EQ PUSH2 0xEE JUMPI DUP1 PUSH4 0x99FDB320 EQ PUSH2 0x10A JUMPI DUP1 PUSH4 0xB9A2DE3A EQ PUSH2 0x128 JUMPI DUP1 PUSH4 0xDE0794EF EQ PUSH2 0x144 JUMPI PUSH2 0x7B JUMP JUMPDEST DUP1 PUSH4 0x121683F EQ PUSH2 0x7F JUMPI DUP1 PUSH4 0x35AF939B EQ PUSH2 0x9B JUMPI DUP1 PUSH4 0x571A26A0 EQ PUSH2 0xB9 JUMPI JUMPDEST PUSH0 PUSH0 REVERT JUMPDEST PUSH2 0x99 PUSH1 0x4 DUP1 CALLDATASIZE SUB DUP2 ADD SWAP1 PUSH2 0x94 SWAP2 SWAP1 PUSH2 0xB81 JUMP JUMPDEST PUSH2 0x162 JUMP JUMPDEST STOP JUMPDEST PUSH2 0xA3 PUSH2 0x39B JUMP JUMPDEST PUSH1 0x40 MLOAD PUSH2 0xB0 SWAP2 SWAP1 PUSH2 0xC39 JUMP JUMPDEST PUSH1 0x40 MLOAD DUP1 SWAP2 SUB SWAP1 RETURN JUMPDEST PUSH2 0xD3 PUSH1 0x4 DUP1 CALLDATASIZE SUB DUP2 ADD SWAP1 PUSH2 0xCE SWAP2 SWAP1 PUSH2 0xC52 JUMP JUMPDEST PUSH2 0x3C0 JUMP JUMPDEST PUSH1 0x40 MLOAD PUSH2 0xE5 SWAP7 SWAP6 SWAP5 SWAP4 SWAP3 SWAP2 SWAP1 PUSH2 0xCC6 JUMP JUMPDEST PUSH1 0x40 MLOAD DUP1 SWAP2 SUB SWAP1 RETURN JUMPDEST PUSH2 0x108 PUSH1 0x4 DUP1 CALLDATASIZE SUB DUP2 ADD SWAP1 PUSH2 0x103 SWAP2 SWAP1 PUSH2 0xB81 JUMP JUMPDEST PUSH2 0x442 JUMP JUMPDEST STOP JUMPDEST PUSH2 0x112 PUSH2 0x774 JUMP JUMPDEST PUSH1 0x40 MLOAD PUSH2 0x11F SWAP2 SWAP1 PUSH2 0xD45 JUMP JUMPDEST PUSH1 0x40 MLOAD DUP1 SWAP2 SUB SWAP1 RETURN JUMPDEST PUSH2 0x142 PUSH1 0x4 DUP1 CALLDATASIZE SUB DUP2 ADD SWAP1 PUSH2 0x13D SWAP2 SWAP1 PUSH2 0xC52 JUMP JUMPDEST PUSH2 0x798 JUMP JUMPDEST STOP JUMPDEST PUSH2 0x14C PUSH2 0xB44 JUMP JUMPDEST PUSH1 0x40 MLOAD PUSH2 0x159 SWAP2 SWAP1 PUSH2 0xD5E JUMP JUMPDEST PUSH1 0x40 MLOAD DUP1 SWAP2 SUB SWAP1 RETURN JUMPDEST PUSH1 0x1 PUSH0 SWAP1 SLOAD SWAP1 PUSH2 0x100 EXP SWAP1 DIV PUSH20 0xFFFFFFFFFFFFFFFFFFFFFFFFFFFFFFFFFFFFFFFF AND PUSH20 0xFFFFFFFFFFFFFFFFFFFFFFFFFFFFFFFFFFFFFFFF AND PUSH4 0x23B872DD CALLER ADDRESS DUP6 PUSH1 0x40 MLOAD DUP5 PUSH4 0xFFFFFFFF AND PUSH1 0xE0 SHL DUP2 MSTORE PUSH1 0x4 ADD PUSH2 0x1C0 SWAP4 SWAP3 SWAP2 SWAP1 PUSH2 0xD77 JUMP JUMPDEST PUSH0 PUSH1 0x40 MLOAD DUP1 DUP4 SUB DUP2 PUSH0 DUP8 DUP1 EXTCODESIZE ISZERO DUP1 ISZERO PUSH2 0x1D7 JUMPI PUSH0 PUSH0 REVERT JUMPDEST POP GAS CALL ISZERO DUP1 ISZERO PUSH2 0x1E9 JUMPI RETURNDATASIZE PUSH0 PUSH0 RETURNDATACOPY RETURNDATASIZE PUSH0 REVERT JUMPDEST POP POP POP POP PUSH0 PUSH1 0x2 PUSH0 DUP2 SLOAD DUP1 SWAP3 SWAP2 SWAP1 PUSH2 0x200 SWAP1 PUSH2 0xDD9 JUMP JUMPDEST SWAP2 SWAP1 POP SSTORE SWAP1 POP PUSH1 0x40 MLOAD DUP1 PUSH1 0xC0 ADD PUSH1 0x40 MSTORE DUP1 CALLER PUSH20 0xFFFFFFFFFFFFFFFFFFFFFFFFFFFFFFFFFFFFFFFF AND DUP2 MSTORE PUSH1 0x20 ADD PUSH0 PUSH20 0xFFFFFFFFFFFFFFFFFFFFFFFFFFFFFFFFFFFFFFFF AND DUP2 MSTORE PUSH1 0x20 ADD PUSH0 DUP2 MSTORE PUSH1 0x20 ADD DUP5 DUP2 MSTORE PUSH1 0x20 ADD DUP4 TIMESTAMP PUSH2 0x261 SWAP2 SWAP1 PUSH2 0xE20 JUMP JUMPDEST DUP2 MSTORE PUSH1 0x20 ADD PUSH1 0x1 ISZERO ISZERO DUP2 MSTORE POP PUSH1 0x3 PUSH0 DUP4 DUP2 MSTORE PUSH1 0x20 ADD SWAP1 DUP2 MSTORE PUSH1 0x20 ADD PUSH0 KECCAK256 PUSH0 DUP3 ADD MLOAD DUP2 PUSH0 ADD PUSH0 PUSH2 0x100 EXP DUP2 SLOAD DUP2 PUSH20 0xFFFFFFFFFFFFFFFFFFFFFFFFFFFFFFFFFFFFFFFF MUL NOT AND SWAP1 DUP4 PUSH20 0xFFFFFFFFFFFFFFFFFFFFFFFFFFFFFFFFFFFFFFFF AND MUL OR SWAP1 SSTORE POP PUSH1 0x20 DUP3 ADD MLOAD DUP2 PUSH1 0x1 ADD PUSH0 PUSH2 0x100 EXP DUP2 SLOAD DUP2 PUSH20 0xFFFFFFFFFFFFFFFFFFFFFFFFFFFFFFFFFFFFFFFF MUL NOT AND SWAP1 DUP4 PUSH20 0xFFFFFFFFFFFFFFFFFFFFFFFFFFFFFFFFFFFFFFFF AND MUL OR SWAP1 SSTORE POP PUSH1 0x40 DUP3 ADD MLOAD DUP2 PUSH1 0x2 ADD SSTORE PUSH1 0x60 DUP3 ADD MLOAD DUP2 PUSH1 0x3 ADD SSTORE PUSH1 0x80 DUP3 ADD MLOAD DUP2 PUSH1 0x4 ADD SSTORE PUSH1 0xA0 DUP3 ADD MLOAD DUP2 PUSH1 0x5 ADD PUSH0 PUSH2 0x100 EXP DUP2 SLOAD DUP2 PUSH1 0xFF MUL NOT AND SWAP1 DUP4 ISZERO ISZERO MUL OR SWAP1 SSTORE POP SWAP1 POP POP DUP1 PUSH32 0xD6EDDD1118D71820909C1197AA966DBC15ED6F508554252169CC3D5CCAC756CA DUP5 PUSH1 0x3 PUSH0 DUP6 DUP2 MSTORE PUSH1 0x20 ADD SWAP1 DUP2 MSTORE PUSH1 0x20 ADD PUSH0 KECCAK256 PUSH1 0x4 ADD SLOAD PUSH1 0x40 MLOAD PUSH2 0x38E SWAP3 SWAP2 SWAP1 PUSH2 0xE53 JUMP JUMPDEST PUSH1 0x40 MLOAD DUP1 SWAP2 SUB SWAP1 LOG2 POP POP POP JUMP JUMPDEST PUSH1 0x1 PUSH0 SWAP1 SLOAD SWAP1 PUSH2 0x100 EXP SWAP1 DIV PUSH20 0xFFFFFFFFFFFFFFFFFFFFFFFFFFFFFFFFFFFFFFFF AND DUP2 JUMP JUMPDEST PUSH1 0x3 PUSH1 0x20 MSTORE DUP1 PUSH0 MSTORE PUSH1 0x40 PUSH0 KECCAK256 PUSH0 SWAP2 POP SWAP1 POP DUP1 PUSH0 ADD PUSH0 SWAP1 SLOAD SWAP1 PUSH2 0x100 EXP SWAP1 DIV PUSH20 0xFFFFFFFFFFFFFFFFFFFFFFFFFFFFFFFFFFFFFFFF AND SWAP1 DUP1 PUSH1 0x1 ADD PUSH0 SWAP1 SLOAD SWAP1 PUSH2 0x100 EXP SWAP1 DIV PUSH20 0xFFFFFFFFFFFFFFFFFFFFFFFFFFFFFFFFFFFFFFFF AND SWAP1 DUP1 PUSH1 0x2 ADD SLOAD SWAP1 DUP1 PUSH1 0x3 ADD SLOAD SWAP1 DUP1 PUSH1 0x4 ADD SLOAD SWAP1 DUP1 PUSH1 0x5 ADD PUSH0 SWAP1 SLOAD SWAP1 PUSH2 0x100 EXP SWAP1 DIV PUSH1 0xFF AND SWAP1 POP DUP7 JUMP JUMPDEST PUSH0 PUSH1 0x3 PUSH0 DUP5 DUP2 MSTORE PUSH1 0x20 ADD SWAP1 DUP2 MSTORE PUSH1 0x20 ADD PUSH0 KECCAK256 SWAP1 POP DUP1 PUSH1 0x4 ADD SLOAD TIMESTAMP LT PUSH2 0x49C JUMPI PUSH1 0x40 MLOAD PUSH32 0x8C379A000000000000000000000000000000000000000000000000000000000 DUP2 MSTORE PUSH1 0x4 ADD PUSH2 0x493 SWAP1 PUSH2 0xED4 JUMP JUMPDEST PUSH1 0x40 MLOAD DUP1 SWAP2 SUB SWAP1 REVERT JUMPDEST DUP1 PUSH1 0x5 ADD PUSH0 SWAP1 SLOAD SWAP1 PUSH2 0x100 EXP SWAP1 DIV PUSH1 0xFF AND PUSH2 0x4EC JUMPI PUSH1 0x40 MLOAD PUSH32 0x8C379A000000000000000000000000000000000000000000000000000000000 DUP2 MSTORE PUSH1 0x4 ADD PUSH2 0x4E3 SWAP1 PUSH2 0xF3C JUMP JUMPDEST PUSH1 0x40 MLOAD DUP1 SWAP2 SUB SWAP1 REVERT JUMPDEST DUP1 PUSH1 0x2 ADD SLOAD DUP3 GT PUSH2 0x532 JUMPI PUSH1 0x40 MLOAD PUSH32 0x8C379A000000000000000000000000000000000000000000000000000000000 DUP2 MSTORE PUSH1 0x4 ADD PUSH2 0x529 SWAP1 PUSH2 0xFCA JUMP JUMPDEST PUSH1 0x40 MLOAD DUP1 SWAP2 SUB SWAP1 REVERT JUMPDEST PUSH0 PUSH0 SWAP1 SLOAD SWAP1 PUSH2 0x100 EXP SWAP1 DIV PUSH20 0xFFFFFFFFFFFFFFFFFFFFFFFFFFFFFFFFFFFFFFFF AND PUSH20 0xFFFFFFFFFFFFFFFFFFFFFFFFFFFFFFFFFFFFFFFF AND PUSH4 0x23B872DD CALLER ADDRESS DUP6 PUSH1 0x40 MLOAD DUP5 PUSH4 0xFFFFFFFF AND PUSH1 0xE0 SHL DUP2 MSTORE PUSH1 0x4 ADD PUSH2 0x58F SWAP4 SWAP3 SWAP2 SWAP1 PUSH2 0xD77 JUMP JUMPDEST PUSH1 0x20 PUSH1 0x40 MLOAD DUP1 DUP4 SUB DUP2 PUSH0 DUP8 GAS CALL ISZERO DUP1 ISZERO PUSH2 0x5AB JUMPI RETURNDATASIZE PUSH0 PUSH0 RETURNDATACOPY RETURNDATASIZE PUSH0 REVERT JUMPDEST POP POP POP POP PUSH1 0x40 MLOAD RETURNDATASIZE PUSH1 0x1F NOT PUSH1 0x1F DUP3 ADD AND DUP3 ADD DUP1 PUSH1 0x40 MSTORE POP DUP2 ADD SWAP1 PUSH2 0x5CF SWAP2 SWAP1 PUSH2 0x1012 JUMP JUMPDEST POP PUSH0 PUSH20 0xFFFFFFFFFFFFFFFFFFFFFFFFFFFFFFFFFFFFFFFF AND DUP2 PUSH1 0x1 ADD PUSH0 SWAP1 SLOAD SWAP1 PUSH2 0x100 EXP SWAP1 DIV PUSH20 0xFFFFFFFFFFFFFFFFFFFFFFFFFFFFFFFFFFFFFFFF AND PUSH20 0xFFFFFFFFFFFFFFFFFFFFFFFFFFFFFFFFFFFFFFFF AND EQ PUSH2 0x6EA JUMPI PUSH0 PUSH0 SWAP1 SLOAD SWAP1 PUSH2 0x100 EXP SWAP1 DIV PUSH20 0xFFFFFFFFFFFFFFFFFFFFFFFFFFFFFFFFFFFFFFFF AND PUSH20 0xFFFFFFFFFFFFFFFFFFFFFFFFFFFFFFFFFFFFFFFF AND PUSH4 0xA9059CBB DUP3 PUSH1 0x1 ADD PUSH0 SWAP1 SLOAD SWAP1 PUSH2 0x100 EXP SWAP1 DIV PUSH20 0xFFFFFFFFFFFFFFFFFFFFFFFFFFFFFFFFFFFFFFFF AND DUP4 PUSH1 0x2 ADD SLOAD PUSH1 0x40 MLOAD DUP4 PUSH4 0xFFFFFFFF AND PUSH1 0xE0 SHL DUP2 MSTORE PUSH1 0x4 ADD PUSH2 0x6A8 SWAP3 SWAP2 SWAP1 PUSH2 0x103D JUMP JUMPDEST PUSH1 0x20 PUSH1 0x40 MLOAD DUP1 DUP4 SUB DUP2 PUSH0 DUP8 GAS CALL ISZERO DUP1 ISZERO PUSH2 0x6C4 JUMPI RETURNDATASIZE PUSH0 PUSH0 RETURNDATACOPY RETURNDATASIZE PUSH0 REVERT JUMPDEST POP POP POP POP PUSH1 0x40 MLOAD RETURNDATASIZE PUSH1 0x1F NOT PUSH1 0x1F DUP3 ADD AND DUP3 ADD DUP1 PUSH1 0x40 MSTORE POP DUP2 ADD SWAP1 PUSH2 0x6E8 SWAP2 SWAP1 PUSH2 0x1012 JUMP JUMPDEST POP JUMPDEST DUP2 DUP2 PUSH1 0x2 ADD DUP2 SWAP1 SSTORE POP CALLER DUP2 PUSH1 0x1 ADD PUSH0 PUSH2 0x100 EXP DUP2 SLOAD DUP2 PUSH20 0xFFFFFFFFFFFFFFFFFFFFFFFFFFFFFFFFFFFFFFFF MUL NOT AND SWAP1 DUP4 PUSH20 0xFFFFFFFFFFFFFFFFFFFFFFFFFFFFFFFFFFFFFFFF AND MUL OR SWAP1 SSTORE POP DUP3 PUSH32 0x558A0D5D5468D74B0DB24C74EB348B42271C2EBB4C9E953CED38AAED95FA4361 CALLER DUP5 PUSH1 0x40 MLOAD PUSH2 0x767 SWAP3 SWAP2 SWAP1 PUSH2 0x103D JUMP JUMPDEST PUSH1 0x40 MLOAD DUP1 SWAP2 SUB SWAP1 LOG2 POP POP POP JUMP JUMPDEST PUSH0 PUSH0 SWAP1 SLOAD SWAP1 PUSH2 0x100 EXP SWAP1 DIV PUSH20 0xFFFFFFFFFFFFFFFFFFFFFFFFFFFFFFFFFFFFFFFF AND DUP2 JUMP JUMPDEST PUSH0 PUSH1 0x3 PUSH0 DUP4 DUP2 MSTORE PUSH1 0x20 ADD SWAP1 DUP2 MSTORE PUSH1 0x20 ADD PUSH0 KECCAK256 SWAP1 POP DUP1 PUSH1 0x4 ADD SLOAD TIMESTAMP LT ISZERO PUSH2 0x7F3 JUMPI PUSH1 0x40 MLOAD PUSH32 0x8C379A000000000000000000000000000000000000000000000000000000000 DUP2 MSTORE PUSH1 0x4 ADD PUSH2 0x7EA SWAP1 PUSH2 0x10AE JUMP JUMPDEST PUSH1 0x40 MLOAD DUP1 SWAP2 SUB SWAP1 REVERT JUMPDEST DUP1 PUSH1 0x5 ADD PUSH0 SWAP1 SLOAD SWAP1 PUSH2 0x100 EXP SWAP1 DIV PUSH1 0xFF AND PUSH2 0x843 JUMPI PUSH1 0x40 MLOAD PUSH32 0x8C379A000000000000000000000000000000000000000000000000000000000 DUP2 MSTORE PUSH1 0x4 ADD PUSH2 0x83A SWAP1 PUSH2 0xF3C JUMP JUMPDEST PUSH1 0x40 MLOAD DUP1 SWAP2 SUB SWAP1 REVERT JUMPDEST PUSH0 DUP2 PUSH1 0x5 ADD PUSH0 PUSH2 0x100 EXP DUP2 SLOAD DUP2 PUSH1 0xFF MUL NOT AND SWAP1 DUP4 ISZERO ISZERO MUL OR SWAP1 SSTORE POP PUSH0 PUSH20 0xFFFFFFFFFFFFFFFFFFFFFFFFFFFFFFFFFFFFFFFF AND DUP2 PUSH1 0x1 ADD PUSH0 SWAP1 SLOAD SWAP1 PUSH2 0x100 EXP SWAP1 DIV PUSH20 0xFFFFFFFFFFFFFFFFFFFFFFFFFFFFFFFFFFFFFFFF AND PUSH20 0xFFFFFFFFFFFFFFFFFFFFFFFFFFFFFFFFFFFFFFFF AND EQ PUSH2 0xA2D JUMPI PUSH1 0x1 PUSH0 SWAP1 SLOAD SWAP1 PUSH2 0x100 EXP SWAP1 DIV PUSH20 0xFFFFFFFFFFFFFFFFFFFFFFFFFFFFFFFFFFFFFFFF AND PUSH20 0xFFFFFFFFFFFFFFFFFFFFFFFFFFFFFFFFFFFFFFFF AND PUSH4 0x23B872DD ADDRESS DUP4 PUSH1 0x1 ADD PUSH0 SWAP1 SLOAD SWAP1 PUSH2 0x100 EXP SWAP1 DIV PUSH20 0xFFFFFFFFFFFFFFFFFFFFFFFFFFFFFFFFFFFFFFFF AND DUP5 PUSH1 0x3 ADD SLOAD PUSH1 0x40 MLOAD DUP5 PUSH4 0xFFFFFFFF AND PUSH1 0xE0 SHL DUP2 MSTORE PUSH1 0x4 ADD PUSH2 0x939 SWAP4 SWAP3 SWAP2 SWAP1 PUSH2 0xD77 JUMP JUMPDEST PUSH0 PUSH1 0x40 MLOAD DUP1 DUP4 SUB DUP2 PUSH0 DUP8 DUP1 EXTCODESIZE ISZERO DUP1 ISZERO PUSH2 0x950 JUMPI PUSH0 PUSH0 REVERT JUMPDEST POP GAS CALL ISZERO DUP1 ISZERO PUSH2 0x962 JUMPI RETURNDATASIZE PUSH0 PUSH0 RETURNDATACOPY RETURNDATASIZE PUSH0 REVERT JUMPDEST POP POP POP POP PUSH0 PUSH0 SWAP1 SLOAD SWAP1 PUSH2 0x100 EXP SWAP1 DIV PUSH20 0xFFFFFFFFFFFFFFFFFFFFFFFFFFFFFFFFFFFFFFFF AND PUSH20 0xFFFFFFFFFFFFFFFFFFFFFFFFFFFFFFFFFFFFFFFF AND PUSH4 0xA9059CBB DUP3 PUSH0 ADD PUSH0 SWAP1 SLOAD SWAP1 PUSH2 0x100 EXP SWAP1 DIV PUSH20 0xFFFFFFFFFFFFFFFFFFFFFFFFFFFFFFFFFFFFFFFF AND DUP4 PUSH1 0x2 ADD SLOAD PUSH1 0x40 MLOAD DUP4 PUSH4 0xFFFFFFFF AND PUSH1 0xE0 SHL DUP2 MSTORE PUSH1 0x4 ADD PUSH2 0x9E7 SWAP3 SWAP2 SWAP1 PUSH2 0x103D JUMP JUMPDEST PUSH1 0x20 PUSH1 0x40 MLOAD DUP1 DUP4 SUB DUP2 PUSH0 DUP8 GAS CALL ISZERO DUP1 ISZERO PUSH2 0xA03 JUMPI RETURNDATASIZE PUSH0 PUSH0 RETURNDATACOPY RETURNDATASIZE PUSH0 REVERT JUMPDEST POP POP POP POP PUSH1 0x40 MLOAD RETURNDATASIZE PUSH1 0x1F NOT PUSH1 0x1F DUP3 ADD AND DUP3 ADD DUP1 PUSH1 0x40 MSTORE POP DUP2 ADD SWAP1 PUSH2 0xA27 SWAP2 SWAP1 PUSH2 0x1012 JUMP JUMPDEST POP PUSH2 0xADF JUMP JUMPDEST PUSH1 0x1 PUSH0 SWAP1 SLOAD SWAP1 PUSH2 0x100 EXP SWAP1 DIV PUSH20 0xFFFFFFFFFFFFFFFFFFFFFFFFFFFFFFFFFFFFFFFF AND PUSH20 0xFFFFFFFFFFFFFFFFFFFFFFFFFFFFFFFFFFFFFFFF AND PUSH4 0x23B872DD ADDRESS DUP4 PUSH0 ADD PUSH0 SWAP1 SLOAD SWAP1 PUSH2 0x100 EXP SWAP1 DIV PUSH20 0xFFFFFFFFFFFFFFFFFFFFFFFFFFFFFFFFFFFFFFFF AND DUP5 PUSH1 0x3 ADD SLOAD PUSH1 0x40 MLOAD DUP5 PUSH4 0xFFFFFFFF AND PUSH1 0xE0 SHL DUP2 MSTORE PUSH1 0x4 ADD PUSH2 0xAB1 SWAP4 SWAP3 SWAP2 SWAP1 PUSH2 0xD77 JUMP JUMPDEST PUSH0 PUSH1 0x40 MLOAD DUP1 DUP4 SUB DUP2 PUSH0 DUP8 DUP1 EXTCODESIZE ISZERO DUP1 ISZERO PUSH2 0xAC8 JUMPI PUSH0 PUSH0 REVERT JUMPDEST POP GAS CALL ISZERO DUP1 ISZERO PUSH2 0xADA JUMPI RETURNDATASIZE PUSH0 PUSH0 RETURNDATACOPY RETURNDATASIZE PUSH0 REVERT JUMPDEST POP POP POP POP JUMPDEST DUP2 PUSH32 0xD2AA34A4FDBBC6DFF6A3E56F46E0F3AE2A31D7785FF3487AA5C95C642ACEA501 DUP3 PUSH1 0x1 ADD PUSH0 SWAP1 SLOAD SWAP1 PUSH2 0x100 EXP SWAP1 DIV PUSH20 0xFFFFFFFFFFFFFFFFFFFFFFFFFFFFFFFFFFFFFFFF AND DUP4 PUSH1 0x2 ADD SLOAD PUSH1 0x40 MLOAD PUSH2 0xB38 SWAP3 SWAP2 SWAP1 PUSH2 0x103D JUMP JUMPDEST PUSH1 0x40 MLOAD DUP1 SWAP2 SUB SWAP1 LOG2 POP POP JUMP JUMPDEST PUSH1 0x2 SLOAD DUP2 JUMP JUMPDEST PUSH0 PUSH0 REVERT JUMPDEST PUSH0 DUP2 SWAP1 POP SWAP2 SWAP1 POP JUMP JUMPDEST PUSH2 0xB60 DUP2 PUSH2 0xB4E JUMP JUMPDEST DUP2 EQ PUSH2 0xB6A JUMPI PUSH0 PUSH0 REVERT JUMPDEST POP JUMP JUMPDEST PUSH0 DUP2 CALLDATALOAD SWAP1 POP PUSH2 0xB7B DUP2 PUSH2 0xB57 JUMP JUMPDEST SWAP3 SWAP2 POP POP JUMP JUMPDEST PUSH0 PUSH0 PUSH1 0x40 DUP4 DUP6 SUB SLT ISZERO PUSH2 0xB97 JUMPI PUSH2 0xB96 PUSH2 0xB4A JUMP JUMPDEST JUMPDEST PUSH0 PUSH2 0xBA4 DUP6 DUP3 DUP7 ADD PUSH2 0xB6D JUMP JUMPDEST SWAP3 POP POP PUSH1 0x20 PUSH2 0xBB5 DUP6 DUP3 DUP7 ADD PUSH2 0xB6D JUMP JUMPDEST SWAP2 POP POP SWAP3 POP SWAP3 SWAP1 POP JUMP JUMPDEST PUSH0 PUSH20 0xFFFFFFFFFFFFFFFFFFFFFFFFFFFFFFFFFFFFFFFF DUP3 AND SWAP1 POP SWAP2 SWAP1 POP JUMP JUMPDEST PUSH0 DUP2 SWAP1 POP SWAP2 SWAP1 POP JUMP JUMPDEST PUSH0 PUSH2 0xC01 PUSH2 0xBFC PUSH2 0xBF7 DUP5 PUSH2 0xBBF JUMP JUMPDEST PUSH2 0xBDE JUMP JUMPDEST PUSH2 0xBBF JUMP JUMPDEST SWAP1 POP SWAP2 SWAP1 POP JUMP JUMPDEST PUSH0 PUSH2 0xC12 DUP3 PUSH2 0xBE7 JUMP JUMPDEST SWAP1 POP SWAP2 SWAP1 POP JUMP JUMPDEST PUSH0 PUSH2 0xC23 DUP3 PUSH2 0xC08 JUMP JUMPDEST SWAP1 POP SWAP2 SWAP1 POP JUMP JUMPDEST PUSH2 0xC33 DUP2 PUSH2 0xC19 JUMP JUMPDEST DUP3 MSTORE POP POP JUMP JUMPDEST PUSH0 PUSH1 0x20 DUP3 ADD SWAP1 POP PUSH2 0xC4C PUSH0 DUP4 ADD DUP5 PUSH2 0xC2A JUMP JUMPDEST SWAP3 SWAP2 POP POP JUMP JUMPDEST PUSH0 PUSH1 0x20 DUP3 DUP5 SUB SLT ISZERO PUSH2 0xC67 JUMPI PUSH2 0xC66 PUSH2 0xB4A JUMP JUMPDEST JUMPDEST PUSH0 PUSH2 0xC74 DUP5 DUP3 DUP6 ADD PUSH2 0xB6D JUMP JUMPDEST SWAP2 POP POP SWAP3 SWAP2 POP POP JUMP JUMPDEST PUSH0 PUSH2 0xC87 DUP3 PUSH2 0xBBF JUMP JUMPDEST SWAP1 POP SWAP2 SWAP1 POP JUMP JUMPDEST PUSH2 0xC97 DUP2 PUSH2 0xC7D JUMP JUMPDEST DUP3 MSTORE POP POP JUMP JUMPDEST PUSH2 0xCA6 DUP2 PUSH2 0xB4E JUMP JUMPDEST DUP3 MSTORE POP POP JUMP JUMPDEST PUSH0 DUP2 ISZERO ISZERO SWAP1 POP SWAP2 SWAP1 POP JUMP JUMPDEST PUSH2 0xCC0 DUP2 PUSH2 0xCAC JUMP JUMPDEST DUP3 MSTORE POP POP JUMP JUMPDEST PUSH0 PUSH1 0xC0 DUP3 ADD SWAP1 POP PUSH2 0xCD9 PUSH0 DUP4 ADD DUP10 PUSH2 0xC8E JUMP JUMPDEST PUSH2 0xCE6 PUSH1 0x20 DUP4 ADD DUP9 PUSH2 0xC8E JUMP JUMPDEST PUSH2 0xCF3 PUSH1 0x40 DUP4 ADD DUP8 PUSH2 0xC9D JUMP JUMPDEST PUSH2 0xD00 PUSH1 0x60 DUP4 ADD DUP7 PUSH2 0xC9D JUMP JUMPDEST PUSH2 0xD0D PUSH1 0x80 DUP4 ADD DUP6 PUSH2 0xC9D JUMP JUMPDEST PUSH2 0xD1A PUSH1 0xA0 DUP4 ADD DUP5 PUSH2 0xCB7 JUMP JUMPDEST SWAP8 SWAP7 POP POP POP POP POP POP POP JUMP JUMPDEST PUSH0 PUSH2 0xD2F DUP3 PUSH2 0xC08 JUMP JUMPDEST SWAP1 POP SWAP2 SWAP1 POP JUMP JUMPDEST PUSH2 0xD3F DUP2 PUSH2 0xD25 JUMP JUMPDEST DUP3 MSTORE POP POP JUMP JUMPDEST PUSH0 PUSH1 0x20 DUP3 ADD SWAP1 POP PUSH2 0xD58 PUSH0 DUP4 ADD DUP5 PUSH2 0xD36 JUMP JUMPDEST SWAP3 SWAP2 POP POP JUMP JUMPDEST PUSH0 PUSH1 0x20 DUP3 ADD SWAP1 POP PUSH2 0xD71 PUSH0 DUP4 ADD DUP5 PUSH2 0xC9D JUMP JUMPDEST SWAP3 SWAP2 POP POP JUMP JUMPDEST PUSH0 PUSH1 0x60 DUP3 ADD SWAP1 POP PUSH2 0xD8A PUSH0 DUP4 ADD DUP7 PUSH2 0xC8E JUMP JUMPDEST PUSH2 0xD97 PUSH1 0x20 DUP4 ADD DUP6 PUSH2 0xC8E JUMP JUMPDEST PUSH2 0xDA4 PUSH1 0x40 DUP4 ADD DUP5 PUSH2 0xC9D JUMP JUMPDEST SWAP5 SWAP4 POP POP POP POP JUMP JUMPDEST PUSH32 0x4E487B7100000000000000000000000000000000000000000000000000000000 PUSH0 MSTORE PUSH1 0x11 PUSH1 0x4 MSTORE PUSH1 0x24 PUSH0 REVERT JUMPDEST PUSH0 PUSH2 0xDE3 DUP3 PUSH2 0xB4E JUMP JUMPDEST SWAP2 POP PUSH32 0xFFFFFFFFFFFFFFFFFFFFFFFFFFFFFFFFFFFFFFFFFFFFFFFFFFFFFFFFFFFFFFFF DUP3 SUB PUSH2 0xE15 JUMPI PUSH2 0xE14 PUSH2 0xDAC JUMP JUMPDEST JUMPDEST PUSH1 0x1 DUP3 ADD SWAP1 POP SWAP2 SWAP1 POP JUMP JUMPDEST PUSH0 PUSH2 0xE2A DUP3 PUSH2 0xB4E JUMP JUMPDEST SWAP2 POP PUSH2 0xE35 DUP4 PUSH2 0xB4E JUMP JUMPDEST SWAP3 POP DUP3 DUP3 ADD SWAP1 POP DUP1 DUP3 GT ISZERO PUSH2 0xE4D JUMPI PUSH2 0xE4C PUSH2 0xDAC JUMP JUMPDEST JUMPDEST SWAP3 SWAP2 POP POP JUMP JUMPDEST PUSH0 PUSH1 0x40 DUP3 ADD SWAP1 POP PUSH2 0xE66 PUSH0 DUP4 ADD DUP6 PUSH2 0xC9D JUMP JUMPDEST PUSH2 0xE73 PUSH1 0x20 DUP4 ADD DUP5 PUSH2 0xC9D JUMP JUMPDEST SWAP4 SWAP3 POP POP POP JUMP JUMPDEST PUSH0 DUP3 DUP3 MSTORE PUSH1 0x20 DUP3 ADD SWAP1 POP SWAP3 SWAP2 POP POP JUMP JUMPDEST PUSH32 0x41756374696F6E2068617320656E646564000000000000000000000000000000 PUSH0 DUP3 ADD MSTORE POP JUMP JUMPDEST PUSH0 PUSH2 0xEBE PUSH1 0x11 DUP4 PUSH2 0xE7A JUMP JUMPDEST SWAP2 POP PUSH2 0xEC9 DUP3 PUSH2 0xE8A JUMP JUMPDEST PUSH1 0x20 DUP3 ADD SWAP1 POP SWAP2 SWAP1 POP JUMP JUMPDEST PUSH0 PUSH1 0x20 DUP3 ADD SWAP1 POP DUP2 DUP2 SUB PUSH0 DUP4 ADD MSTORE PUSH2 0xEEB DUP2 PUSH2 0xEB2 JUMP JUMPDEST SWAP1 POP SWAP2 SWAP1 POP JUMP JUMPDEST PUSH32 0x41756374696F6E206973206E6F74206163746976650000000000000000000000 PUSH0 DUP3 ADD MSTORE POP JUMP JUMPDEST PUSH0 PUSH2 0xF26 PUSH1 0x15 DUP4 PUSH2 0xE7A JUMP JUMPDEST SWAP2 POP PUSH2 0xF31 DUP3 PUSH2 0xEF2 JUMP JUMPDEST PUSH1 0x20 DUP3 ADD SWAP1 POP SWAP2 SWAP1 POP JUMP JUMPDEST PUSH0 PUSH1 0x20 DUP3 ADD SWAP1 POP DUP2 DUP2 SUB PUSH0 DUP4 ADD MSTORE PUSH2 0xF53 DUP2 PUSH2 0xF1A JUMP JUMPDEST SWAP1 POP SWAP2 SWAP1 POP JUMP JUMPDEST PUSH32 0x426964206D75737420626520686967686572207468616E2063757272656E7420 PUSH0 DUP3 ADD MSTORE PUSH32 0x6869676865737420626964000000000000000000000000000000000000000000 PUSH1 0x20 DUP3 ADD MSTORE POP JUMP JUMPDEST PUSH0 PUSH2 0xFB4 PUSH1 0x2B DUP4 PUSH2 0xE7A JUMP JUMPDEST SWAP2 POP PUSH2 0xFBF DUP3 PUSH2 0xF5A JUMP JUMPDEST PUSH1 0x40 DUP3 ADD SWAP1 POP SWAP2 SWAP1 POP JUMP JUMPDEST PUSH0 PUSH1 0x20 DUP3 ADD SWAP1 POP DUP2 DUP2 SUB PUSH0 DUP4 ADD MSTORE PUSH2 0xFE1 DUP2 PUSH2 0xFA8 JUMP JUMPDEST SWAP1 POP SWAP2 SWAP1 POP JUMP JUMPDEST PUSH2 0xFF1 DUP2 PUSH2 0xCAC JUMP JUMPDEST DUP2 EQ PUSH2 0xFFB JUMPI PUSH0 PUSH0 REVERT JUMPDEST POP JUMP JUMPDEST PUSH0 DUP2 MLOAD SWAP1 POP PUSH2 0x100C DUP2 PUSH2 0xFE8 JUMP JUMPDEST SWAP3 SWAP2 POP POP JUMP JUMPDEST PUSH0 PUSH1 0x20 DUP3 DUP5 SUB SLT ISZERO PUSH2 0x1027 JUMPI PUSH2 0x1026 PUSH2 0xB4A JUMP JUMPDEST JUMPDEST PUSH0 PUSH2 0x1034 DUP5 DUP3 DUP6 ADD PUSH2 0xFFE JUMP JUMPDEST SWAP2 POP POP SWAP3 SWAP2 POP POP JUMP JUMPDEST PUSH0 PUSH1 0x40 DUP3 ADD SWAP1 POP PUSH2 0x1050 PUSH0 DUP4 ADD DUP6 PUSH2 0xC8E JUMP JUMPDEST PUSH2 0x105D PUSH1 0x20 DUP4 ADD DUP5 PUSH2 0xC9D JUMP JUMPDEST SWAP4 SWAP3 POP POP POP JUMP JUMPDEST PUSH32 0x41756374696F6E20686173206E6F7420656E6465642079657400000000000000 PUSH0 DUP3 ADD MSTORE POP JUMP JUMPDEST PUSH0 PUSH2 0x1098 PUSH1 0x19 DUP4 PUSH2 0xE7A JUMP JUMPDEST SWAP2 POP PUSH2 0x10A3 DUP3 PUSH2 0x1064 JUMP JUMPDEST PUSH1 0x20 DUP3 ADD SWAP1 POP SWAP2 SWAP1 POP JUMP JUMPDEST PUSH0 PUSH1 0x20 DUP3 ADD SWAP1 POP DUP2 DUP2 SUB PUSH0 DUP4 ADD MSTORE PUSH2 0x10C5 DUP2 PUSH2 0x108C JUMP JUMPDEST SWAP1 POP SWAP2 SWAP1 POP JUMP INVALID LOG2 PUSH5 0x6970667358 0x22 SLT KECCAK256 BASEFEE 0xD8 0xD4 0xBA LOG4 PUSH7 0x5206CD205DAB3C 0xC7 CALLVALUE 0xBA 0xAF 0xBA 0xED 0x2C 0xD4 PUSH16 0x8E682646D17AD46E68EE64736F6C6343 STOP ADDMOD 0x1E STOP CALLER "
				},
				"gasEstimates": {
					"creation": {
						"codeDepositCost": "870800",
						"executionCost": "infinite",
						"totalCost": "infinite"
					},
					"external": {
						"auctionIdCounter()": "2491",
						"auctionNFT()": "infinite",
						"auctionToken()": "infinite",
						"auctions(uint256)": "infinite",
						"createAuction(uint256,uint256)": "infinite",
						"endAuction(uint256)": "infinite",
						"placeBid(uint256,uint256)": "infinite"
					}
				},
				"methodIdentifiers": {
					"auctionIdCounter()": "de0794ef",
					"auctionNFT()": "35af939b",
					"auctionToken()": "99fdb320",
					"auctions(uint256)": "571a26a0",
					"createAuction(uint256,uint256)": "0121683f",
					"endAuction(uint256)": "b9a2de3a",
					"placeBid(uint256,uint256)": "57c90de5"
				}
			},
			"storageLayout": {
				"storage": [
					{
						"astId": 226,
						"contract": "TrabajoFinalModulo3/auctionPlataform.sol:AuctionPlatform",
						"label": "auctionToken",
						"offset": 0,
						"slot": "0",
						"type": "t_contract(IERC20)77"
					},
					{
						"astId": 229,
						"contract": "TrabajoFinalModulo3/auctionPlataform.sol:AuctionPlatform",
						"label": "auctionNFT",
						"offset": 0,
						"slot": "1",
						"type": "t_contract(IERC721)194"
					},
					{
						"astId": 231,
						"contract": "TrabajoFinalModulo3/auctionPlataform.sol:AuctionPlatform",
						"label": "auctionIdCounter",
						"offset": 0,
						"slot": "2",
						"type": "t_uint256"
					},
					{
						"astId": 236,
						"contract": "TrabajoFinalModulo3/auctionPlataform.sol:AuctionPlatform",
						"label": "auctions",
						"offset": 0,
						"slot": "3",
						"type": "t_mapping(t_uint256,t_struct(Auction)223_storage)"
					}
				],
				"types": {
					"t_address": {
						"encoding": "inplace",
						"label": "address",
						"numberOfBytes": "20"
					},
					"t_bool": {
						"encoding": "inplace",
						"label": "bool",
						"numberOfBytes": "1"
					},
					"t_contract(IERC20)77": {
						"encoding": "inplace",
						"label": "contract IERC20",
						"numberOfBytes": "20"
					},
					"t_contract(IERC721)194": {
						"encoding": "inplace",
						"label": "contract IERC721",
						"numberOfBytes": "20"
					},
					"t_mapping(t_uint256,t_struct(Auction)223_storage)": {
						"encoding": "mapping",
						"key": "t_uint256",
						"label": "mapping(uint256 => struct AuctionPlatform.Auction)",
						"numberOfBytes": "32",
						"value": "t_struct(Auction)223_storage"
					},
					"t_struct(Auction)223_storage": {
						"encoding": "inplace",
						"label": "struct AuctionPlatform.Auction",
						"members": [
							{
								"astId": 212,
								"contract": "TrabajoFinalModulo3/auctionPlataform.sol:AuctionPlatform",
								"label": "seller",
								"offset": 0,
								"slot": "0",
								"type": "t_address"
							},
							{
								"astId": 214,
								"contract": "TrabajoFinalModulo3/auctionPlataform.sol:AuctionPlatform",
								"label": "highestBidder",
								"offset": 0,
								"slot": "1",
								"type": "t_address"
							},
							{
								"astId": 216,
								"contract": "TrabajoFinalModulo3/auctionPlataform.sol:AuctionPlatform",
								"label": "highestBid",
								"offset": 0,
								"slot": "2",
								"type": "t_uint256"
							},
							{
								"astId": 218,
								"contract": "TrabajoFinalModulo3/auctionPlataform.sol:AuctionPlatform",
								"label": "tokenId",
								"offset": 0,
								"slot": "3",
								"type": "t_uint256"
							},
							{
								"astId": 220,
								"contract": "TrabajoFinalModulo3/auctionPlataform.sol:AuctionPlatform",
								"label": "endTime",
								"offset": 0,
								"slot": "4",
								"type": "t_uint256"
							},
							{
								"astId": 222,
								"contract": "TrabajoFinalModulo3/auctionPlataform.sol:AuctionPlatform",
								"label": "active",
								"offset": 0,
								"slot": "5",
								"type": "t_bool"
							}
						],
						"numberOfBytes": "192"
					},
					"t_uint256": {
						"encoding": "inplace",
						"label": "uint256",
						"numberOfBytes": "32"
					}
				}
			},
			"userdoc": {
				"kind": "user",
				"methods": {},
				"version": 1
			}
		}
	}
}