{
	"data": {
		"bytecode": {
			"linkReferences": {},
			"object": "608060405234801561000f575f80fd5b506040516120253803806120258339818101604052810190610031919061020a565b5f73ffffffffffffffffffffffffffffffffffffffff168173ffffffffffffffffffffffffffffffffffffffff160361009f576040517f08c379a0000000000000000000000000000000000000000000000000000000008152600401610096906102a2565b60405180910390fd5b6127108211156100e4576040517f08c379a00000000000000000000000000000000000000000000000000000000081526004016100db9061030a565b60405180910390fd5b3360015f6101000a81548173ffffffffffffffffffffffffffffffffffffffff021916908373ffffffffffffffffffffffffffffffffffffffff160217905550816003819055508060025f6101000a81548173ffffffffffffffffffffffffffffffffffffffff021916908373ffffffffffffffffffffffffffffffffffffffff1602179055505f6004819055505050610328565b5f80fd5b5f819050919050565b61018f8161017d565b8114610199575f80fd5b50565b5f815190506101aa81610186565b92915050565b5f73ffffffffffffffffffffffffffffffffffffffff82169050919050565b5f6101d9826101b0565b9050919050565b6101e9816101cf565b81146101f3575f80fd5b50565b5f81519050610204816101e0565b92915050565b5f80604083850312156102205761021f610179565b5b5f61022d8582860161019c565b925050602061023e858286016101f6565b9150509250929050565b5f82825260208201905092915050565b7f446972656363696f6e206465207465736f7265726961206e6f2076616c6964615f82015250565b5f61028c602083610248565b915061029782610258565b602082019050919050565b5f6020820190508181035f8301526102b981610280565b9050919050565b7f466565206465626520736572203c3d2031303030302070756e746f73000000005f82015250565b5f6102f4601c83610248565b91506102ff826102c0565b602082019050919050565b5f6020820190508181035f830152610321816102e8565b9050919050565b611cf0806103355f395ff3fe60806040526004361061009b575f3560e01c806361d027b31161006357806361d027b31461016b5780638da5cb5b14610195578063a87430ba146101bf578063c3346c3e146101fe578063d0e30db014610226578063ddca3f43146102305761009b565b806311f1fc991461009f57806312065fe0146100c75780632e1a7d4d146100f1578063313dab20146101195780633ffbd47f14610143575b5f80fd5b3480156100aa575f80fd5b506100c560048036038101906100c09190611075565b61025a565b005b3480156100d2575f80fd5b506100db6103fc565b6040516100e891906110af565b60405180910390f35b3480156100fc575f80fd5b5061011760048036038101906101129190611075565b6104cd565b005b348015610124575f80fd5b5061012d61074f565b60405161013a91906110af565b60405180910390f35b34801561014e575f80fd5b5061016960048036038101906101649190611129565b610755565b005b348015610176575f80fd5b5061017f610a01565b60405161018c91906111e6565b60405180910390f35b3480156101a0575f80fd5b506101a9610a26565b6040516101b691906111e6565b60405180910390f35b3480156101ca575f80fd5b506101e560048036038101906101e09190611229565b610a4b565b6040516101f594939291906112de565b60405180910390f35b348015610209575f80fd5b50610224600480360381019061021f919061132f565b610b8e565b005b61022e610ec2565b005b34801561023b575f80fd5b50610244611034565b60405161025191906110af565b60405180910390f35b60015f9054906101000a900473ffffffffffffffffffffffffffffffffffffffff1673ffffffffffffffffffffffffffffffffffffffff163373ffffffffffffffffffffffffffffffffffffffff16146102e9576040517f08c379a00000000000000000000000000000000000000000000000000000000081526004016102e0906113dd565b60405180910390fd5b80600454101561032e576040517f08c379a00000000000000000000000000000000000000000000000000000000081526004016103259061146b565b60405180910390fd5b8060045f82825461033f91906114b6565b9250508190555060015f9054906101000a900473ffffffffffffffffffffffffffffffffffffffff1673ffffffffffffffffffffffffffffffffffffffff166108fc8290811502906040515f60405180830381858888f193505050501580156103aa573d5f803e3d5ffd5b503373ffffffffffffffffffffffffffffffffffffffff167f233c84dc0c19fbf51f9fa92214ffd8a59f512e0098bff5827455d02e401221c0826040516103f191906110af565b60405180910390a250565b5f805f3373ffffffffffffffffffffffffffffffffffffffff1673ffffffffffffffffffffffffffffffffffffffff1681526020019081526020015f206003015f9054906101000a900460ff16610488576040517f08c379a000000000000000000000000000000000000000000000000000000000815260040161047f90611533565b60405180910390fd5b5f803373ffffffffffffffffffffffffffffffffffffffff1673ffffffffffffffffffffffffffffffffffffffff1681526020019081526020015f2060020154905090565b5f803373ffffffffffffffffffffffffffffffffffffffff1673ffffffffffffffffffffffffffffffffffffffff1681526020019081526020015f206003015f9054906101000a900460ff16610558576040517f08c379a000000000000000000000000000000000000000000000000000000000815260040161054f90611533565b60405180910390fd5b5f811161059a576040517f08c379a00000000000000000000000000000000000000000000000000000000081526004016105919061159b565b60405180910390fd5b805f803373ffffffffffffffffffffffffffffffffffffffff1673ffffffffffffffffffffffffffffffffffffffff1681526020019081526020015f2060020154101561061c576040517f08c379a000000000000000000000000000000000000000000000000000000000815260040161061390611629565b60405180910390fd5b5f6127106003548361062e9190611647565b61063891906116b5565b90505f818361064791906114b6565b9050825f803373ffffffffffffffffffffffffffffffffffffffff1673ffffffffffffffffffffffffffffffffffffffff1681526020019081526020015f206002015f82825461069791906114b6565b925050819055508160045f8282546106af91906116e5565b925050819055503373ffffffffffffffffffffffffffffffffffffffff166108fc8290811502906040515f60405180830381858888f193505050501580156106f9573d5f803e3d5ffd5b503373ffffffffffffffffffffffffffffffffffffffff167fdf273cb619d95419a9cd0ec88123a0538c85064229baa6363788f743fff90deb8484604051610742929190611718565b60405180910390a2505050565b60045481565b5f848490501161079a576040517f08c379a0000000000000000000000000000000000000000000000000000000008152600401610791906117af565b60405180910390fd5b5f82829050116107df576040517f08c379a00000000000000000000000000000000000000000000000000000000081526004016107d69061183d565b60405180910390fd5b5f803373ffffffffffffffffffffffffffffffffffffffff1673ffffffffffffffffffffffffffffffffffffffff1681526020019081526020015f206003015f9054906101000a900460ff161561086b576040517f08c379a0000000000000000000000000000000000000000000000000000000008152600401610862906118a5565b60405180910390fd5b604051806080016040528085858080601f0160208091040260200160405190810160405280939291908181526020018383808284375f81840152601f19601f82011690508083019250505050505050815260200183838080601f0160208091040260200160405190810160405280939291908181526020018383808284375f81840152601f19601f8201169050808301925050505050505081526020015f8152602001600115158152505f803373ffffffffffffffffffffffffffffffffffffffff1673ffffffffffffffffffffffffffffffffffffffff1681526020019081526020015f205f820151815f0190816109649190611aea565b50602082015181600101908161097a9190611aea565b50604082015181600201556060820151816003015f6101000a81548160ff0219169083151502179055509050503373ffffffffffffffffffffffffffffffffffffffff167f92822564bab8864c3a47b34e8d23fbce5c46234eb5da261f94087b995ac0f33b858585856040516109f39493929190611bf3565b60405180910390a250505050565b60025f9054906101000a900473ffffffffffffffffffffffffffffffffffffffff1681565b60015f9054906101000a900473ffffffffffffffffffffffffffffffffffffffff1681565b5f602052805f5260405f205f91509050805f018054610a699061191d565b80601f0160208091040260200160405190810160405280929190818152602001828054610a959061191d565b8015610ae05780601f10610ab757610100808354040283529160200191610ae0565b820191905f5260205f20905b815481529060010190602001808311610ac357829003601f168201915b505050505090806001018054610af59061191d565b80601f0160208091040260200160405190810160405280929190818152602001828054610b219061191d565b8015610b6c5780601f10610b4357610100808354040283529160200191610b6c565b820191905f5260205f20905b815481529060010190602001808311610b4f57829003601f168201915b505050505090806002015490806003015f9054906101000a900460ff16905084565b5f803373ffffffffffffffffffffffffffffffffffffffff1673ffffffffffffffffffffffffffffffffffffffff1681526020019081526020015f206003015f9054906101000a900460ff16610c19576040517f08c379a0000000000000000000000000000000000000000000000000000000008152600401610c1090611533565b60405180910390fd5b5f808373ffffffffffffffffffffffffffffffffffffffff1673ffffffffffffffffffffffffffffffffffffffff1681526020019081526020015f206003015f9054906101000a900460ff16610ca4576040517f08c379a0000000000000000000000000000000000000000000000000000000008152600401610c9b90611c9c565b60405180910390fd5b5f8111610ce6576040517f08c379a0000000000000000000000000000000000000000000000000000000008152600401610cdd9061159b565b60405180910390fd5b5f61271060035483610cf89190611647565b610d0291906116b5565b90505f8183610d1191906116e5565b9050805f803373ffffffffffffffffffffffffffffffffffffffff1673ffffffffffffffffffffffffffffffffffffffff1681526020019081526020015f20600201541015610d95576040517f08c379a0000000000000000000000000000000000000000000000000000000008152600401610d8c90611629565b60405180910390fd5b805f803373ffffffffffffffffffffffffffffffffffffffff1673ffffffffffffffffffffffffffffffffffffffff1681526020019081526020015f206002015f828254610de391906114b6565b92505081905550825f808673ffffffffffffffffffffffffffffffffffffffff1673ffffffffffffffffffffffffffffffffffffffff1681526020019081526020015f206002015f828254610e3891906116e5565b925050819055508160045f828254610e5091906116e5565b925050819055508373ffffffffffffffffffffffffffffffffffffffff163373ffffffffffffffffffffffffffffffffffffffff167fddf252ad1be2c89b69c2b068fc378daa952ba7f163c4a11628f55a4df523b3ef85604051610eb491906110af565b60405180910390a350505050565b5f803373ffffffffffffffffffffffffffffffffffffffff1673ffffffffffffffffffffffffffffffffffffffff1681526020019081526020015f206003015f9054906101000a900460ff16610f4d576040517f08c379a0000000000000000000000000000000000000000000000000000000008152600401610f4490611533565b60405180910390fd5b5f3411610f8f576040517f08c379a0000000000000000000000000000000000000000000000000000000008152600401610f869061159b565b60405180910390fd5b345f803373ffffffffffffffffffffffffffffffffffffffff1673ffffffffffffffffffffffffffffffffffffffff1681526020019081526020015f206002015f828254610fdd91906116e5565b925050819055503373ffffffffffffffffffffffffffffffffffffffff167fe1fffcc4923d04b559f4d29a8bfc6cda04eb5b0d3c460751c2402c5c5cc9109c3460405161102a91906110af565b60405180910390a2565b60035481565b5f80fd5b5f80fd5b5f819050919050565b61105481611042565b811461105e575f80fd5b50565b5f8135905061106f8161104b565b92915050565b5f6020828403121561108a5761108961103a565b5b5f61109784828501611061565b91505092915050565b6110a981611042565b82525050565b5f6020820190506110c25f8301846110a0565b92915050565b5f80fd5b5f80fd5b5f80fd5b5f8083601f8401126110e9576110e86110c8565b5b8235905067ffffffffffffffff811115611106576111056110cc565b5b602083019150836001820283011115611122576111216110d0565b5b9250929050565b5f805f80604085870312156111415761114061103a565b5b5f85013567ffffffffffffffff81111561115e5761115d61103e565b5b61116a878288016110d4565b9450945050602085013567ffffffffffffffff81111561118d5761118c61103e565b5b611199878288016110d4565b925092505092959194509250565b5f73ffffffffffffffffffffffffffffffffffffffff82169050919050565b5f6111d0826111a7565b9050919050565b6111e0816111c6565b82525050565b5f6020820190506111f95f8301846111d7565b92915050565b611208816111c6565b8114611212575f80fd5b50565b5f81359050611223816111ff565b92915050565b5f6020828403121561123e5761123d61103a565b5b5f61124b84828501611215565b91505092915050565b5f81519050919050565b5f82825260208201905092915050565b8281835e5f83830152505050565b5f601f19601f8301169050919050565b5f61129682611254565b6112a0818561125e565b93506112b081856020860161126e565b6112b98161127c565b840191505092915050565b5f8115159050919050565b6112d8816112c4565b82525050565b5f6080820190508181035f8301526112f6818761128c565b9050818103602083015261130a818661128c565b905061131960408301856110a0565b61132660608301846112cf565b95945050505050565b5f80604083850312156113455761134461103a565b5b5f61135285828601611215565b925050602061136385828601611061565b9150509250929050565b7f536f6c6f20656c207573756172696f207075656465206c6c616d6172206120655f8201527f7374612066756e63696f6e000000000000000000000000000000000000000000602082015250565b5f6113c7602b8361125e565b91506113d28261136d565b604082019050919050565b5f6020820190508181035f8301526113f4816113bb565b9050919050565b7f53616c646f20696e737566696369656e746520656e207465736f7265726961205f8201527f70617261206c61206f7065726163696f6e20736f6c6963697461646100000000602082015250565b5f611455603c8361125e565b9150611460826113fb565b604082019050919050565b5f6020820190508181035f83015261148281611449565b9050919050565b7f4e487b71000000000000000000000000000000000000000000000000000000005f52601160045260245ffd5b5f6114c082611042565b91506114cb83611042565b92508282039050818111156114e3576114e2611489565b5b92915050565b7f456c207573756172696f206e6f2065737461207265676973747261646f0000005f82015250565b5f61151d601d8361125e565b9150611528826114e9565b602082019050919050565b5f6020820190508181035f83015261154a81611511565b9050919050565b7f4465626520696e67726573617220756e612063616e74696461640000000000005f82015250565b5f611585601a8361125e565b915061159082611551565b602082019050919050565b5f6020820190508181035f8301526115b281611579565b9050919050565b7f53616c646f20696e737566696369656e74652070617261206c61206f706572615f8201527f63696f6e20736f6c696369746164610000000000000000000000000000000000602082015250565b5f611613602f8361125e565b915061161e826115b9565b604082019050919050565b5f6020820190508181035f83015261164081611607565b9050919050565b5f61165182611042565b915061165c83611042565b925082820261166a81611042565b9150828204841483151761168157611680611489565b5b5092915050565b7f4e487b71000000000000000000000000000000000000000000000000000000005f52601260045260245ffd5b5f6116bf82611042565b91506116ca83611042565b9250826116da576116d9611688565b5b828204905092915050565b5f6116ef82611042565b91506116fa83611042565b925082820190508082111561171257611711611489565b5b92915050565b5f60408201905061172b5f8301856110a0565b61173860208301846110a0565b9392505050565b7f4573206f626c696761746f72696f20696e67726573617220656c207072696d655f8201527f72206e6f6d627265000000000000000000000000000000000000000000000000602082015250565b5f61179960288361125e565b91506117a48261173f565b604082019050919050565b5f6020820190508181035f8301526117c68161178d565b9050919050565b7f4573206f626c696761746f72696f20696e67726573617220656c206170656c6c5f8201527f69646f0000000000000000000000000000000000000000000000000000000000602082015250565b5f61182760238361125e565b9150611832826117cd565b604082019050919050565b5f6020820190508181035f8301526118548161181b565b9050919050565b7f456c207573756172696f2079612065737461207265676973747261646f0000005f82015250565b5f61188f601d8361125e565b915061189a8261185b565b602082019050919050565b5f6020820190508181035f8301526118bc81611883565b9050919050565b7f4e487b71000000000000000000000000000000000000000000000000000000005f52604160045260245ffd5b7f4e487b71000000000000000000000000000000000000000000000000000000005f52602260045260245ffd5b5f600282049050600182168061193457607f821691505b602082108103611947576119466118f0565b5b50919050565b5f819050815f5260205f209050919050565b5f6020601f8301049050919050565b5f82821b905092915050565b5f600883026119a97fffffffffffffffffffffffffffffffffffffffffffffffffffffffffffffffff8261196e565b6119b3868361196e565b95508019841693508086168417925050509392505050565b5f819050919050565b5f6119ee6119e96119e484611042565b6119cb565b611042565b9050919050565b5f819050919050565b611a07836119d4565b611a1b611a13826119f5565b84845461197a565b825550505050565b5f90565b611a2f611a23565b611a3a8184846119fe565b505050565b5b81811015611a5d57611a525f82611a27565b600181019050611a40565b5050565b601f821115611aa257611a738161194d565b611a7c8461195f565b81016020851015611a8b578190505b611a9f611a978561195f565b830182611a3f565b50505b505050565b5f82821c905092915050565b5f611ac25f1984600802611aa7565b1980831691505092915050565b5f611ada8383611ab3565b9150826002028217905092915050565b611af382611254565b67ffffffffffffffff811115611b0c57611b0b6118c3565b5b611b16825461191d565b611b21828285611a61565b5f60209050601f831160018114611b52575f8415611b40578287015190505b611b4a8582611acf565b865550611bb1565b601f198416611b608661194d565b5f5b82811015611b8757848901518255600182019150602085019450602081019050611b62565b86831015611ba45784890151611ba0601f891682611ab3565b8355505b6001600288020188555050505b505050505050565b828183375f83830152505050565b5f611bd2838561125e565b9350611bdf838584611bb9565b611be88361127c565b840190509392505050565b5f6040820190508181035f830152611c0c818688611bc7565b90508181036020830152611c21818486611bc7565b905095945050505050565b7f456c207573756172696f2064657374696e6f206e6f20657374612072656769735f8201527f747261646f000000000000000000000000000000000000000000000000000000602082015250565b5f611c8660258361125e565b9150611c9182611c2c565b604082019050919050565b5f6020820190508181035f830152611cb381611c7a565b905091905056fea2646970667358221220d35868f2c35f9d3514081abe31fc7aa2b07236d8faf59c6dc8e7e2a6da6c344d64736f6c634300081a0033",
			"opcodes": "PUSH1 0x80 PUSH1 0x40 MSTORE CALLVALUE DUP1 ISZERO PUSH2 0xF JUMPI PUSH0 DUP1 REVERT JUMPDEST POP PUSH1 0x40 MLOAD PUSH2 0x2025 CODESIZE SUB DUP1 PUSH2 0x2025 DUP4 CODECOPY DUP2 DUP2 ADD PUSH1 0x40 MSTORE DUP2 ADD SWAP1 PUSH2 0x31 SWAP2 SWAP1 PUSH2 0x20A JUMP JUMPDEST PUSH0 PUSH20 0xFFFFFFFFFFFFFFFFFFFFFFFFFFFFFFFFFFFFFFFF AND DUP2 PUSH20 0xFFFFFFFFFFFFFFFFFFFFFFFFFFFFFFFFFFFFFFFF AND SUB PUSH2 0x9F JUMPI PUSH1 0x40 MLOAD PUSH32 0x8C379A000000000000000000000000000000000000000000000000000000000 DUP2 MSTORE PUSH1 0x4 ADD PUSH2 0x96 SWAP1 PUSH2 0x2A2 JUMP JUMPDEST PUSH1 0x40 MLOAD DUP1 SWAP2 SUB SWAP1 REVERT JUMPDEST PUSH2 0x2710 DUP3 GT ISZERO PUSH2 0xE4 JUMPI PUSH1 0x40 MLOAD PUSH32 0x8C379A000000000000000000000000000000000000000000000000000000000 DUP2 MSTORE PUSH1 0x4 ADD PUSH2 0xDB SWAP1 PUSH2 0x30A JUMP JUMPDEST PUSH1 0x40 MLOAD DUP1 SWAP2 SUB SWAP1 REVERT JUMPDEST CALLER PUSH1 0x1 PUSH0 PUSH2 0x100 EXP DUP2 SLOAD DUP2 PUSH20 0xFFFFFFFFFFFFFFFFFFFFFFFFFFFFFFFFFFFFFFFF MUL NOT AND SWAP1 DUP4 PUSH20 0xFFFFFFFFFFFFFFFFFFFFFFFFFFFFFFFFFFFFFFFF AND MUL OR SWAP1 SSTORE POP DUP2 PUSH1 0x3 DUP2 SWAP1 SSTORE POP DUP1 PUSH1 0x2 PUSH0 PUSH2 0x100 EXP DUP2 SLOAD DUP2 PUSH20 0xFFFFFFFFFFFFFFFFFFFFFFFFFFFFFFFFFFFFFFFF MUL NOT AND SWAP1 DUP4 PUSH20 0xFFFFFFFFFFFFFFFFFFFFFFFFFFFFFFFFFFFFFFFF AND MUL OR SWAP1 SSTORE POP PUSH0 PUSH1 0x4 DUP2 SWAP1 SSTORE POP POP POP PUSH2 0x328 JUMP JUMPDEST PUSH0 DUP1 REVERT JUMPDEST PUSH0 DUP2 SWAP1 POP SWAP2 SWAP1 POP JUMP JUMPDEST PUSH2 0x18F DUP2 PUSH2 0x17D JUMP JUMPDEST DUP2 EQ PUSH2 0x199 JUMPI PUSH0 DUP1 REVERT JUMPDEST POP JUMP JUMPDEST PUSH0 DUP2 MLOAD SWAP1 POP PUSH2 0x1AA DUP2 PUSH2 0x186 JUMP JUMPDEST SWAP3 SWAP2 POP POP JUMP JUMPDEST PUSH0 PUSH20 0xFFFFFFFFFFFFFFFFFFFFFFFFFFFFFFFFFFFFFFFF DUP3 AND SWAP1 POP SWAP2 SWAP1 POP JUMP JUMPDEST PUSH0 PUSH2 0x1D9 DUP3 PUSH2 0x1B0 JUMP JUMPDEST SWAP1 POP SWAP2 SWAP1 POP JUMP JUMPDEST PUSH2 0x1E9 DUP2 PUSH2 0x1CF JUMP JUMPDEST DUP2 EQ PUSH2 0x1F3 JUMPI PUSH0 DUP1 REVERT JUMPDEST POP JUMP JUMPDEST PUSH0 DUP2 MLOAD SWAP1 POP PUSH2 0x204 DUP2 PUSH2 0x1E0 JUMP JUMPDEST SWAP3 SWAP2 POP POP JUMP JUMPDEST PUSH0 DUP1 PUSH1 0x40 DUP4 DUP6 SUB SLT ISZERO PUSH2 0x220 JUMPI PUSH2 0x21F PUSH2 0x179 JUMP JUMPDEST JUMPDEST PUSH0 PUSH2 0x22D DUP6 DUP3 DUP7 ADD PUSH2 0x19C JUMP JUMPDEST SWAP3 POP POP PUSH1 0x20 PUSH2 0x23E DUP6 DUP3 DUP7 ADD PUSH2 0x1F6 JUMP JUMPDEST SWAP2 POP POP SWAP3 POP SWAP3 SWAP1 POP JUMP JUMPDEST PUSH0 DUP3 DUP3 MSTORE PUSH1 0x20 DUP3 ADD SWAP1 POP SWAP3 SWAP2 POP POP JUMP JUMPDEST PUSH32 0x446972656363696F6E206465207465736F7265726961206E6F2076616C696461 PUSH0 DUP3 ADD MSTORE POP JUMP JUMPDEST PUSH0 PUSH2 0x28C PUSH1 0x20 DUP4 PUSH2 0x248 JUMP JUMPDEST SWAP2 POP PUSH2 0x297 DUP3 PUSH2 0x258 JUMP JUMPDEST PUSH1 0x20 DUP3 ADD SWAP1 POP SWAP2 SWAP1 POP JUMP JUMPDEST PUSH0 PUSH1 0x20 DUP3 ADD SWAP1 POP DUP2 DUP2 SUB PUSH0 DUP4 ADD MSTORE PUSH2 0x2B9 DUP2 PUSH2 0x280 JUMP JUMPDEST SWAP1 POP SWAP2 SWAP1 POP JUMP JUMPDEST PUSH32 0x466565206465626520736572203C3D2031303030302070756E746F7300000000 PUSH0 DUP3 ADD MSTORE POP JUMP JUMPDEST PUSH0 PUSH2 0x2F4 PUSH1 0x1C DUP4 PUSH2 0x248 JUMP JUMPDEST SWAP2 POP PUSH2 0x2FF DUP3 PUSH2 0x2C0 JUMP JUMPDEST PUSH1 0x20 DUP3 ADD SWAP1 POP SWAP2 SWAP1 POP JUMP JUMPDEST PUSH0 PUSH1 0x20 DUP3 ADD SWAP1 POP DUP2 DUP2 SUB PUSH0 DUP4 ADD MSTORE PUSH2 0x321 DUP2 PUSH2 0x2E8 JUMP JUMPDEST SWAP1 POP SWAP2 SWAP1 POP JUMP JUMPDEST PUSH2 0x1CF0 DUP1 PUSH2 0x335 PUSH0 CODECOPY PUSH0 RETURN INVALID PUSH1 0x80 PUSH1 0x40 MSTORE PUSH1 0x4 CALLDATASIZE LT PUSH2 0x9B JUMPI PUSH0 CALLDATALOAD PUSH1 0xE0 SHR DUP1 PUSH4 0x61D027B3 GT PUSH2 0x63 JUMPI DUP1 PUSH4 0x61D027B3 EQ PUSH2 0x16B JUMPI DUP1 PUSH4 0x8DA5CB5B EQ PUSH2 0x195 JUMPI DUP1 PUSH4 0xA87430BA EQ PUSH2 0x1BF JUMPI DUP1 PUSH4 0xC3346C3E EQ PUSH2 0x1FE JUMPI DUP1 PUSH4 0xD0E30DB0 EQ PUSH2 0x226 JUMPI DUP1 PUSH4 0xDDCA3F43 EQ PUSH2 0x230 JUMPI PUSH2 0x9B JUMP JUMPDEST DUP1 PUSH4 0x11F1FC99 EQ PUSH2 0x9F JUMPI DUP1 PUSH4 0x12065FE0 EQ PUSH2 0xC7 JUMPI DUP1 PUSH4 0x2E1A7D4D EQ PUSH2 0xF1 JUMPI DUP1 PUSH4 0x313DAB20 EQ PUSH2 0x119 JUMPI DUP1 PUSH4 0x3FFBD47F EQ PUSH2 0x143 JUMPI JUMPDEST PUSH0 DUP1 REVERT JUMPDEST CALLVALUE DUP1 ISZERO PUSH2 0xAA JUMPI PUSH0 DUP1 REVERT JUMPDEST POP PUSH2 0xC5 PUSH1 0x4 DUP1 CALLDATASIZE SUB DUP2 ADD SWAP1 PUSH2 0xC0 SWAP2 SWAP1 PUSH2 0x1075 JUMP JUMPDEST PUSH2 0x25A JUMP JUMPDEST STOP JUMPDEST CALLVALUE DUP1 ISZERO PUSH2 0xD2 JUMPI PUSH0 DUP1 REVERT JUMPDEST POP PUSH2 0xDB PUSH2 0x3FC JUMP JUMPDEST PUSH1 0x40 MLOAD PUSH2 0xE8 SWAP2 SWAP1 PUSH2 0x10AF JUMP JUMPDEST PUSH1 0x40 MLOAD DUP1 SWAP2 SUB SWAP1 RETURN JUMPDEST CALLVALUE DUP1 ISZERO PUSH2 0xFC JUMPI PUSH0 DUP1 REVERT JUMPDEST POP PUSH2 0x117 PUSH1 0x4 DUP1 CALLDATASIZE SUB DUP2 ADD SWAP1 PUSH2 0x112 SWAP2 SWAP1 PUSH2 0x1075 JUMP JUMPDEST PUSH2 0x4CD JUMP JUMPDEST STOP JUMPDEST CALLVALUE DUP1 ISZERO PUSH2 0x124 JUMPI PUSH0 DUP1 REVERT JUMPDEST POP PUSH2 0x12D PUSH2 0x74F JUMP JUMPDEST PUSH1 0x40 MLOAD PUSH2 0x13A SWAP2 SWAP1 PUSH2 0x10AF JUMP JUMPDEST PUSH1 0x40 MLOAD DUP1 SWAP2 SUB SWAP1 RETURN JUMPDEST CALLVALUE DUP1 ISZERO PUSH2 0x14E JUMPI PUSH0 DUP1 REVERT JUMPDEST POP PUSH2 0x169 PUSH1 0x4 DUP1 CALLDATASIZE SUB DUP2 ADD SWAP1 PUSH2 0x164 SWAP2 SWAP1 PUSH2 0x1129 JUMP JUMPDEST PUSH2 0x755 JUMP JUMPDEST STOP JUMPDEST CALLVALUE DUP1 ISZERO PUSH2 0x176 JUMPI PUSH0 DUP1 REVERT JUMPDEST POP PUSH2 0x17F PUSH2 0xA01 JUMP JUMPDEST PUSH1 0x40 MLOAD PUSH2 0x18C SWAP2 SWAP1 PUSH2 0x11E6 JUMP JUMPDEST PUSH1 0x40 MLOAD DUP1 SWAP2 SUB SWAP1 RETURN JUMPDEST CALLVALUE DUP1 ISZERO PUSH2 0x1A0 JUMPI PUSH0 DUP1 REVERT JUMPDEST POP PUSH2 0x1A9 PUSH2 0xA26 JUMP JUMPDEST PUSH1 0x40 MLOAD PUSH2 0x1B6 SWAP2 SWAP1 PUSH2 0x11E6 JUMP JUMPDEST PUSH1 0x40 MLOAD DUP1 SWAP2 SUB SWAP1 RETURN JUMPDEST CALLVALUE DUP1 ISZERO PUSH2 0x1CA JUMPI PUSH0 DUP1 REVERT JUMPDEST POP PUSH2 0x1E5 PUSH1 0x4 DUP1 CALLDATASIZE SUB DUP2 ADD SWAP1 PUSH2 0x1E0 SWAP2 SWAP1 PUSH2 0x1229 JUMP JUMPDEST PUSH2 0xA4B JUMP JUMPDEST PUSH1 0x40 MLOAD PUSH2 0x1F5 SWAP5 SWAP4 SWAP3 SWAP2 SWAP1 PUSH2 0x12DE JUMP JUMPDEST PUSH1 0x40 MLOAD DUP1 SWAP2 SUB SWAP1 RETURN JUMPDEST CALLVALUE DUP1 ISZERO PUSH2 0x209 JUMPI PUSH0 DUP1 REVERT JUMPDEST POP PUSH2 0x224 PUSH1 0x4 DUP1 CALLDATASIZE SUB DUP2 ADD SWAP1 PUSH2 0x21F SWAP2 SWAP1 PUSH2 0x132F JUMP JUMPDEST PUSH2 0xB8E JUMP JUMPDEST STOP JUMPDEST PUSH2 0x22E PUSH2 0xEC2 JUMP JUMPDEST STOP JUMPDEST CALLVALUE DUP1 ISZERO PUSH2 0x23B JUMPI PUSH0 DUP1 REVERT JUMPDEST POP PUSH2 0x244 PUSH2 0x1034 JUMP JUMPDEST PUSH1 0x40 MLOAD PUSH2 0x251 SWAP2 SWAP1 PUSH2 0x10AF JUMP JUMPDEST PUSH1 0x40 MLOAD DUP1 SWAP2 SUB SWAP1 RETURN JUMPDEST PUSH1 0x1 PUSH0 SWAP1 SLOAD SWAP1 PUSH2 0x100 EXP SWAP1 DIV PUSH20 0xFFFFFFFFFFFFFFFFFFFFFFFFFFFFFFFFFFFFFFFF AND PUSH20 0xFFFFFFFFFFFFFFFFFFFFFFFFFFFFFFFFFFFFFFFF AND CALLER PUSH20 0xFFFFFFFFFFFFFFFFFFFFFFFFFFFFFFFFFFFFFFFF AND EQ PUSH2 0x2E9 JUMPI PUSH1 0x40 MLOAD PUSH32 0x8C379A000000000000000000000000000000000000000000000000000000000 DUP2 MSTORE PUSH1 0x4 ADD PUSH2 0x2E0 SWAP1 PUSH2 0x13DD JUMP JUMPDEST PUSH1 0x40 MLOAD DUP1 SWAP2 SUB SWAP1 REVERT JUMPDEST DUP1 PUSH1 0x4 SLOAD LT ISZERO PUSH2 0x32E JUMPI PUSH1 0x40 MLOAD PUSH32 0x8C379A000000000000000000000000000000000000000000000000000000000 DUP2 MSTORE PUSH1 0x4 ADD PUSH2 0x325 SWAP1 PUSH2 0x146B JUMP JUMPDEST PUSH1 0x40 MLOAD DUP1 SWAP2 SUB SWAP1 REVERT JUMPDEST DUP1 PUSH1 0x4 PUSH0 DUP3 DUP3 SLOAD PUSH2 0x33F SWAP2 SWAP1 PUSH2 0x14B6 JUMP JUMPDEST SWAP3 POP POP DUP2 SWAP1 SSTORE POP PUSH1 0x1 PUSH0 SWAP1 SLOAD SWAP1 PUSH2 0x100 EXP SWAP1 DIV PUSH20 0xFFFFFFFFFFFFFFFFFFFFFFFFFFFFFFFFFFFFFFFF AND PUSH20 0xFFFFFFFFFFFFFFFFFFFFFFFFFFFFFFFFFFFFFFFF AND PUSH2 0x8FC DUP3 SWAP1 DUP2 ISZERO MUL SWAP1 PUSH1 0x40 MLOAD PUSH0 PUSH1 0x40 MLOAD DUP1 DUP4 SUB DUP2 DUP6 DUP9 DUP9 CALL SWAP4 POP POP POP POP ISZERO DUP1 ISZERO PUSH2 0x3AA JUMPI RETURNDATASIZE PUSH0 DUP1 RETURNDATACOPY RETURNDATASIZE PUSH0 REVERT JUMPDEST POP CALLER PUSH20 0xFFFFFFFFFFFFFFFFFFFFFFFFFFFFFFFFFFFFFFFF AND PUSH32 0x233C84DC0C19FBF51F9FA92214FFD8A59F512E0098BFF5827455D02E401221C0 DUP3 PUSH1 0x40 MLOAD PUSH2 0x3F1 SWAP2 SWAP1 PUSH2 0x10AF JUMP JUMPDEST PUSH1 0x40 MLOAD DUP1 SWAP2 SUB SWAP1 LOG2 POP JUMP JUMPDEST PUSH0 DUP1 PUSH0 CALLER PUSH20 0xFFFFFFFFFFFFFFFFFFFFFFFFFFFFFFFFFFFFFFFF AND PUSH20 0xFFFFFFFFFFFFFFFFFFFFFFFFFFFFFFFFFFFFFFFF AND DUP2 MSTORE PUSH1 0x20 ADD SWAP1 DUP2 MSTORE PUSH1 0x20 ADD PUSH0 KECCAK256 PUSH1 0x3 ADD PUSH0 SWAP1 SLOAD SWAP1 PUSH2 0x100 EXP SWAP1 DIV PUSH1 0xFF AND PUSH2 0x488 JUMPI PUSH1 0x40 MLOAD PUSH32 0x8C379A000000000000000000000000000000000000000000000000000000000 DUP2 MSTORE PUSH1 0x4 ADD PUSH2 0x47F SWAP1 PUSH2 0x1533 JUMP JUMPDEST PUSH1 0x40 MLOAD DUP1 SWAP2 SUB SWAP1 REVERT JUMPDEST PUSH0 DUP1 CALLER PUSH20 0xFFFFFFFFFFFFFFFFFFFFFFFFFFFFFFFFFFFFFFFF AND PUSH20 0xFFFFFFFFFFFFFFFFFFFFFFFFFFFFFFFFFFFFFFFF AND DUP2 MSTORE PUSH1 0x20 ADD SWAP1 DUP2 MSTORE PUSH1 0x20 ADD PUSH0 KECCAK256 PUSH1 0x2 ADD SLOAD SWAP1 POP SWAP1 JUMP JUMPDEST PUSH0 DUP1 CALLER PUSH20 0xFFFFFFFFFFFFFFFFFFFFFFFFFFFFFFFFFFFFFFFF AND PUSH20 0xFFFFFFFFFFFFFFFFFFFFFFFFFFFFFFFFFFFFFFFF AND DUP2 MSTORE PUSH1 0x20 ADD SWAP1 DUP2 MSTORE PUSH1 0x20 ADD PUSH0 KECCAK256 PUSH1 0x3 ADD PUSH0 SWAP1 SLOAD SWAP1 PUSH2 0x100 EXP SWAP1 DIV PUSH1 0xFF AND PUSH2 0x558 JUMPI PUSH1 0x40 MLOAD PUSH32 0x8C379A000000000000000000000000000000000000000000000000000000000 DUP2 MSTORE PUSH1 0x4 ADD PUSH2 0x54F SWAP1 PUSH2 0x1533 JUMP JUMPDEST PUSH1 0x40 MLOAD DUP1 SWAP2 SUB SWAP1 REVERT JUMPDEST PUSH0 DUP2 GT PUSH2 0x59A JUMPI PUSH1 0x40 MLOAD PUSH32 0x8C379A000000000000000000000000000000000000000000000000000000000 DUP2 MSTORE PUSH1 0x4 ADD PUSH2 0x591 SWAP1 PUSH2 0x159B JUMP JUMPDEST PUSH1 0x40 MLOAD DUP1 SWAP2 SUB SWAP1 REVERT JUMPDEST DUP1 PUSH0 DUP1 CALLER PUSH20 0xFFFFFFFFFFFFFFFFFFFFFFFFFFFFFFFFFFFFFFFF AND PUSH20 0xFFFFFFFFFFFFFFFFFFFFFFFFFFFFFFFFFFFFFFFF AND DUP2 MSTORE PUSH1 0x20 ADD SWAP1 DUP2 MSTORE PUSH1 0x20 ADD PUSH0 KECCAK256 PUSH1 0x2 ADD SLOAD LT ISZERO PUSH2 0x61C JUMPI PUSH1 0x40 MLOAD PUSH32 0x8C379A000000000000000000000000000000000000000000000000000000000 DUP2 MSTORE PUSH1 0x4 ADD PUSH2 0x613 SWAP1 PUSH2 0x1629 JUMP JUMPDEST PUSH1 0x40 MLOAD DUP1 SWAP2 SUB SWAP1 REVERT JUMPDEST PUSH0 PUSH2 0x2710 PUSH1 0x3 SLOAD DUP4 PUSH2 0x62E SWAP2 SWAP1 PUSH2 0x1647 JUMP JUMPDEST PUSH2 0x638 SWAP2 SWAP1 PUSH2 0x16B5 JUMP JUMPDEST SWAP1 POP PUSH0 DUP2 DUP4 PUSH2 0x647 SWAP2 SWAP1 PUSH2 0x14B6 JUMP JUMPDEST SWAP1 POP DUP3 PUSH0 DUP1 CALLER PUSH20 0xFFFFFFFFFFFFFFFFFFFFFFFFFFFFFFFFFFFFFFFF AND PUSH20 0xFFFFFFFFFFFFFFFFFFFFFFFFFFFFFFFFFFFFFFFF AND DUP2 MSTORE PUSH1 0x20 ADD SWAP1 DUP2 MSTORE PUSH1 0x20 ADD PUSH0 KECCAK256 PUSH1 0x2 ADD PUSH0 DUP3 DUP3 SLOAD PUSH2 0x697 SWAP2 SWAP1 PUSH2 0x14B6 JUMP JUMPDEST SWAP3 POP POP DUP2 SWAP1 SSTORE POP DUP2 PUSH1 0x4 PUSH0 DUP3 DUP3 SLOAD PUSH2 0x6AF SWAP2 SWAP1 PUSH2 0x16E5 JUMP JUMPDEST SWAP3 POP POP DUP2 SWAP1 SSTORE POP CALLER PUSH20 0xFFFFFFFFFFFFFFFFFFFFFFFFFFFFFFFFFFFFFFFF AND PUSH2 0x8FC DUP3 SWAP1 DUP2 ISZERO MUL SWAP1 PUSH1 0x40 MLOAD PUSH0 PUSH1 0x40 MLOAD DUP1 DUP4 SUB DUP2 DUP6 DUP9 DUP9 CALL SWAP4 POP POP POP POP ISZERO DUP1 ISZERO PUSH2 0x6F9 JUMPI RETURNDATASIZE PUSH0 DUP1 RETURNDATACOPY RETURNDATASIZE PUSH0 REVERT JUMPDEST POP CALLER PUSH20 0xFFFFFFFFFFFFFFFFFFFFFFFFFFFFFFFFFFFFFFFF AND PUSH32 0xDF273CB619D95419A9CD0EC88123A0538C85064229BAA6363788F743FFF90DEB DUP5 DUP5 PUSH1 0x40 MLOAD PUSH2 0x742 SWAP3 SWAP2 SWAP1 PUSH2 0x1718 JUMP JUMPDEST PUSH1 0x40 MLOAD DUP1 SWAP2 SUB SWAP1 LOG2 POP POP POP JUMP JUMPDEST PUSH1 0x4 SLOAD DUP2 JUMP JUMPDEST PUSH0 DUP5 DUP5 SWAP1 POP GT PUSH2 0x79A JUMPI PUSH1 0x40 MLOAD PUSH32 0x8C379A000000000000000000000000000000000000000000000000000000000 DUP2 MSTORE PUSH1 0x4 ADD PUSH2 0x791 SWAP1 PUSH2 0x17AF JUMP JUMPDEST PUSH1 0x40 MLOAD DUP1 SWAP2 SUB SWAP1 REVERT JUMPDEST PUSH0 DUP3 DUP3 SWAP1 POP GT PUSH2 0x7DF JUMPI PUSH1 0x40 MLOAD PUSH32 0x8C379A000000000000000000000000000000000000000000000000000000000 DUP2 MSTORE PUSH1 0x4 ADD PUSH2 0x7D6 SWAP1 PUSH2 0x183D JUMP JUMPDEST PUSH1 0x40 MLOAD DUP1 SWAP2 SUB SWAP1 REVERT JUMPDEST PUSH0 DUP1 CALLER PUSH20 0xFFFFFFFFFFFFFFFFFFFFFFFFFFFFFFFFFFFFFFFF AND PUSH20 0xFFFFFFFFFFFFFFFFFFFFFFFFFFFFFFFFFFFFFFFF AND DUP2 MSTORE PUSH1 0x20 ADD SWAP1 DUP2 MSTORE PUSH1 0x20 ADD PUSH0 KECCAK256 PUSH1 0x3 ADD PUSH0 SWAP1 SLOAD SWAP1 PUSH2 0x100 EXP SWAP1 DIV PUSH1 0xFF AND ISZERO PUSH2 0x86B JUMPI PUSH1 0x40 MLOAD PUSH32 0x8C379A000000000000000000000000000000000000000000000000000000000 DUP2 MSTORE PUSH1 0x4 ADD PUSH2 0x862 SWAP1 PUSH2 0x18A5 JUMP JUMPDEST PUSH1 0x40 MLOAD DUP1 SWAP2 SUB SWAP1 REVERT JUMPDEST PUSH1 0x40 MLOAD DUP1 PUSH1 0x80 ADD PUSH1 0x40 MSTORE DUP1 DUP6 DUP6 DUP1 DUP1 PUSH1 0x1F ADD PUSH1 0x20 DUP1 SWAP2 DIV MUL PUSH1 0x20 ADD PUSH1 0x40 MLOAD SWAP1 DUP2 ADD PUSH1 0x40 MSTORE DUP1 SWAP4 SWAP3 SWAP2 SWAP1 DUP2 DUP2 MSTORE PUSH1 0x20 ADD DUP4 DUP4 DUP1 DUP3 DUP5 CALLDATACOPY PUSH0 DUP2 DUP5 ADD MSTORE PUSH1 0x1F NOT PUSH1 0x1F DUP3 ADD AND SWAP1 POP DUP1 DUP4 ADD SWAP3 POP POP POP POP POP POP POP DUP2 MSTORE PUSH1 0x20 ADD DUP4 DUP4 DUP1 DUP1 PUSH1 0x1F ADD PUSH1 0x20 DUP1 SWAP2 DIV MUL PUSH1 0x20 ADD PUSH1 0x40 MLOAD SWAP1 DUP2 ADD PUSH1 0x40 MSTORE DUP1 SWAP4 SWAP3 SWAP2 SWAP1 DUP2 DUP2 MSTORE PUSH1 0x20 ADD DUP4 DUP4 DUP1 DUP3 DUP5 CALLDATACOPY PUSH0 DUP2 DUP5 ADD MSTORE PUSH1 0x1F NOT PUSH1 0x1F DUP3 ADD AND SWAP1 POP DUP1 DUP4 ADD SWAP3 POP POP POP POP POP POP POP DUP2 MSTORE PUSH1 0x20 ADD PUSH0 DUP2 MSTORE PUSH1 0x20 ADD PUSH1 0x1 ISZERO ISZERO DUP2 MSTORE POP PUSH0 DUP1 CALLER PUSH20 0xFFFFFFFFFFFFFFFFFFFFFFFFFFFFFFFFFFFFFFFF AND PUSH20 0xFFFFFFFFFFFFFFFFFFFFFFFFFFFFFFFFFFFFFFFF AND DUP2 MSTORE PUSH1 0x20 ADD SWAP1 DUP2 MSTORE PUSH1 0x20 ADD PUSH0 KECCAK256 PUSH0 DUP3 ADD MLOAD DUP2 PUSH0 ADD SWAP1 DUP2 PUSH2 0x964 SWAP2 SWAP1 PUSH2 0x1AEA JUMP JUMPDEST POP PUSH1 0x20 DUP3 ADD MLOAD DUP2 PUSH1 0x1 ADD SWAP1 DUP2 PUSH2 0x97A SWAP2 SWAP1 PUSH2 0x1AEA JUMP JUMPDEST POP PUSH1 0x40 DUP3 ADD MLOAD DUP2 PUSH1 0x2 ADD SSTORE PUSH1 0x60 DUP3 ADD MLOAD DUP2 PUSH1 0x3 ADD PUSH0 PUSH2 0x100 EXP DUP2 SLOAD DUP2 PUSH1 0xFF MUL NOT AND SWAP1 DUP4 ISZERO ISZERO MUL OR SWAP1 SSTORE POP SWAP1 POP POP CALLER PUSH20 0xFFFFFFFFFFFFFFFFFFFFFFFFFFFFFFFFFFFFFFFF AND PUSH32 0x92822564BAB8864C3A47B34E8D23FBCE5C46234EB5DA261F94087B995AC0F33B DUP6 DUP6 DUP6 DUP6 PUSH1 0x40 MLOAD PUSH2 0x9F3 SWAP5 SWAP4 SWAP3 SWAP2 SWAP1 PUSH2 0x1BF3 JUMP JUMPDEST PUSH1 0x40 MLOAD DUP1 SWAP2 SUB SWAP1 LOG2 POP POP POP POP JUMP JUMPDEST PUSH1 0x2 PUSH0 SWAP1 SLOAD SWAP1 PUSH2 0x100 EXP SWAP1 DIV PUSH20 0xFFFFFFFFFFFFFFFFFFFFFFFFFFFFFFFFFFFFFFFF AND DUP2 JUMP JUMPDEST PUSH1 0x1 PUSH0 SWAP1 SLOAD SWAP1 PUSH2 0x100 EXP SWAP1 DIV PUSH20 0xFFFFFFFFFFFFFFFFFFFFFFFFFFFFFFFFFFFFFFFF AND DUP2 JUMP JUMPDEST PUSH0 PUSH1 0x20 MSTORE DUP1 PUSH0 MSTORE PUSH1 0x40 PUSH0 KECCAK256 PUSH0 SWAP2 POP SWAP1 POP DUP1 PUSH0 ADD DUP1 SLOAD PUSH2 0xA69 SWAP1 PUSH2 0x191D JUMP JUMPDEST DUP1 PUSH1 0x1F ADD PUSH1 0x20 DUP1 SWAP2 DIV MUL PUSH1 0x20 ADD PUSH1 0x40 MLOAD SWAP1 DUP2 ADD PUSH1 0x40 MSTORE DUP1 SWAP3 SWAP2 SWAP1 DUP2 DUP2 MSTORE PUSH1 0x20 ADD DUP3 DUP1 SLOAD PUSH2 0xA95 SWAP1 PUSH2 0x191D JUMP JUMPDEST DUP1 ISZERO PUSH2 0xAE0 JUMPI DUP1 PUSH1 0x1F LT PUSH2 0xAB7 JUMPI PUSH2 0x100 DUP1 DUP4 SLOAD DIV MUL DUP4 MSTORE SWAP2 PUSH1 0x20 ADD SWAP2 PUSH2 0xAE0 JUMP JUMPDEST DUP3 ADD SWAP2 SWAP1 PUSH0 MSTORE PUSH1 0x20 PUSH0 KECCAK256 SWAP1 JUMPDEST DUP2 SLOAD DUP2 MSTORE SWAP1 PUSH1 0x1 ADD SWAP1 PUSH1 0x20 ADD DUP1 DUP4 GT PUSH2 0xAC3 JUMPI DUP3 SWAP1 SUB PUSH1 0x1F AND DUP3 ADD SWAP2 JUMPDEST POP POP POP POP POP SWAP1 DUP1 PUSH1 0x1 ADD DUP1 SLOAD PUSH2 0xAF5 SWAP1 PUSH2 0x191D JUMP JUMPDEST DUP1 PUSH1 0x1F ADD PUSH1 0x20 DUP1 SWAP2 DIV MUL PUSH1 0x20 ADD PUSH1 0x40 MLOAD SWAP1 DUP2 ADD PUSH1 0x40 MSTORE DUP1 SWAP3 SWAP2 SWAP1 DUP2 DUP2 MSTORE PUSH1 0x20 ADD DUP3 DUP1 SLOAD PUSH2 0xB21 SWAP1 PUSH2 0x191D JUMP JUMPDEST DUP1 ISZERO PUSH2 0xB6C JUMPI DUP1 PUSH1 0x1F LT PUSH2 0xB43 JUMPI PUSH2 0x100 DUP1 DUP4 SLOAD DIV MUL DUP4 MSTORE SWAP2 PUSH1 0x20 ADD SWAP2 PUSH2 0xB6C JUMP JUMPDEST DUP3 ADD SWAP2 SWAP1 PUSH0 MSTORE PUSH1 0x20 PUSH0 KECCAK256 SWAP1 JUMPDEST DUP2 SLOAD DUP2 MSTORE SWAP1 PUSH1 0x1 ADD SWAP1 PUSH1 0x20 ADD DUP1 DUP4 GT PUSH2 0xB4F JUMPI DUP3 SWAP1 SUB PUSH1 0x1F AND DUP3 ADD SWAP2 JUMPDEST POP POP POP POP POP SWAP1 DUP1 PUSH1 0x2 ADD SLOAD SWAP1 DUP1 PUSH1 0x3 ADD PUSH0 SWAP1 SLOAD SWAP1 PUSH2 0x100 EXP SWAP1 DIV PUSH1 0xFF AND SWAP1 POP DUP5 JUMP JUMPDEST PUSH0 DUP1 CALLER PUSH20 0xFFFFFFFFFFFFFFFFFFFFFFFFFFFFFFFFFFFFFFFF AND PUSH20 0xFFFFFFFFFFFFFFFFFFFFFFFFFFFFFFFFFFFFFFFF AND DUP2 MSTORE PUSH1 0x20 ADD SWAP1 DUP2 MSTORE PUSH1 0x20 ADD PUSH0 KECCAK256 PUSH1 0x3 ADD PUSH0 SWAP1 SLOAD SWAP1 PUSH2 0x100 EXP SWAP1 DIV PUSH1 0xFF AND PUSH2 0xC19 JUMPI PUSH1 0x40 MLOAD PUSH32 0x8C379A000000000000000000000000000000000000000000000000000000000 DUP2 MSTORE PUSH1 0x4 ADD PUSH2 0xC10 SWAP1 PUSH2 0x1533 JUMP JUMPDEST PUSH1 0x40 MLOAD DUP1 SWAP2 SUB SWAP1 REVERT JUMPDEST PUSH0 DUP1 DUP4 PUSH20 0xFFFFFFFFFFFFFFFFFFFFFFFFFFFFFFFFFFFFFFFF AND PUSH20 0xFFFFFFFFFFFFFFFFFFFFFFFFFFFFFFFFFFFFFFFF AND DUP2 MSTORE PUSH1 0x20 ADD SWAP1 DUP2 MSTORE PUSH1 0x20 ADD PUSH0 KECCAK256 PUSH1 0x3 ADD PUSH0 SWAP1 SLOAD SWAP1 PUSH2 0x100 EXP SWAP1 DIV PUSH1 0xFF AND PUSH2 0xCA4 JUMPI PUSH1 0x40 MLOAD PUSH32 0x8C379A000000000000000000000000000000000000000000000000000000000 DUP2 MSTORE PUSH1 0x4 ADD PUSH2 0xC9B SWAP1 PUSH2 0x1C9C JUMP JUMPDEST PUSH1 0x40 MLOAD DUP1 SWAP2 SUB SWAP1 REVERT JUMPDEST PUSH0 DUP2 GT PUSH2 0xCE6 JUMPI PUSH1 0x40 MLOAD PUSH32 0x8C379A000000000000000000000000000000000000000000000000000000000 DUP2 MSTORE PUSH1 0x4 ADD PUSH2 0xCDD SWAP1 PUSH2 0x159B JUMP JUMPDEST PUSH1 0x40 MLOAD DUP1 SWAP2 SUB SWAP1 REVERT JUMPDEST PUSH0 PUSH2 0x2710 PUSH1 0x3 SLOAD DUP4 PUSH2 0xCF8 SWAP2 SWAP1 PUSH2 0x1647 JUMP JUMPDEST PUSH2 0xD02 SWAP2 SWAP1 PUSH2 0x16B5 JUMP JUMPDEST SWAP1 POP PUSH0 DUP2 DUP4 PUSH2 0xD11 SWAP2 SWAP1 PUSH2 0x16E5 JUMP JUMPDEST SWAP1 POP DUP1 PUSH0 DUP1 CALLER PUSH20 0xFFFFFFFFFFFFFFFFFFFFFFFFFFFFFFFFFFFFFFFF AND PUSH20 0xFFFFFFFFFFFFFFFFFFFFFFFFFFFFFFFFFFFFFFFF AND DUP2 MSTORE PUSH1 0x20 ADD SWAP1 DUP2 MSTORE PUSH1 0x20 ADD PUSH0 KECCAK256 PUSH1 0x2 ADD SLOAD LT ISZERO PUSH2 0xD95 JUMPI PUSH1 0x40 MLOAD PUSH32 0x8C379A000000000000000000000000000000000000000000000000000000000 DUP2 MSTORE PUSH1 0x4 ADD PUSH2 0xD8C SWAP1 PUSH2 0x1629 JUMP JUMPDEST PUSH1 0x40 MLOAD DUP1 SWAP2 SUB SWAP1 REVERT JUMPDEST DUP1 PUSH0 DUP1 CALLER PUSH20 0xFFFFFFFFFFFFFFFFFFFFFFFFFFFFFFFFFFFFFFFF AND PUSH20 0xFFFFFFFFFFFFFFFFFFFFFFFFFFFFFFFFFFFFFFFF AND DUP2 MSTORE PUSH1 0x20 ADD SWAP1 DUP2 MSTORE PUSH1 0x20 ADD PUSH0 KECCAK256 PUSH1 0x2 ADD PUSH0 DUP3 DUP3 SLOAD PUSH2 0xDE3 SWAP2 SWAP1 PUSH2 0x14B6 JUMP JUMPDEST SWAP3 POP POP DUP2 SWAP1 SSTORE POP DUP3 PUSH0 DUP1 DUP7 PUSH20 0xFFFFFFFFFFFFFFFFFFFFFFFFFFFFFFFFFFFFFFFF AND PUSH20 0xFFFFFFFFFFFFFFFFFFFFFFFFFFFFFFFFFFFFFFFF AND DUP2 MSTORE PUSH1 0x20 ADD SWAP1 DUP2 MSTORE PUSH1 0x20 ADD PUSH0 KECCAK256 PUSH1 0x2 ADD PUSH0 DUP3 DUP3 SLOAD PUSH2 0xE38 SWAP2 SWAP1 PUSH2 0x16E5 JUMP JUMPDEST SWAP3 POP POP DUP2 SWAP1 SSTORE POP DUP2 PUSH1 0x4 PUSH0 DUP3 DUP3 SLOAD PUSH2 0xE50 SWAP2 SWAP1 PUSH2 0x16E5 JUMP JUMPDEST SWAP3 POP POP DUP2 SWAP1 SSTORE POP DUP4 PUSH20 0xFFFFFFFFFFFFFFFFFFFFFFFFFFFFFFFFFFFFFFFF AND CALLER PUSH20 0xFFFFFFFFFFFFFFFFFFFFFFFFFFFFFFFFFFFFFFFF AND PUSH32 0xDDF252AD1BE2C89B69C2B068FC378DAA952BA7F163C4A11628F55A4DF523B3EF DUP6 PUSH1 0x40 MLOAD PUSH2 0xEB4 SWAP2 SWAP1 PUSH2 0x10AF JUMP JUMPDEST PUSH1 0x40 MLOAD DUP1 SWAP2 SUB SWAP1 LOG3 POP POP POP POP JUMP JUMPDEST PUSH0 DUP1 CALLER PUSH20 0xFFFFFFFFFFFFFFFFFFFFFFFFFFFFFFFFFFFFFFFF AND PUSH20 0xFFFFFFFFFFFFFFFFFFFFFFFFFFFFFFFFFFFFFFFF AND DUP2 MSTORE PUSH1 0x20 ADD SWAP1 DUP2 MSTORE PUSH1 0x20 ADD PUSH0 KECCAK256 PUSH1 0x3 ADD PUSH0 SWAP1 SLOAD SWAP1 PUSH2 0x100 EXP SWAP1 DIV PUSH1 0xFF AND PUSH2 0xF4D JUMPI PUSH1 0x40 MLOAD PUSH32 0x8C379A000000000000000000000000000000000000000000000000000000000 DUP2 MSTORE PUSH1 0x4 ADD PUSH2 0xF44 SWAP1 PUSH2 0x1533 JUMP JUMPDEST PUSH1 0x40 MLOAD DUP1 SWAP2 SUB SWAP1 REVERT JUMPDEST PUSH0 CALLVALUE GT PUSH2 0xF8F JUMPI PUSH1 0x40 MLOAD PUSH32 0x8C379A000000000000000000000000000000000000000000000000000000000 DUP2 MSTORE PUSH1 0x4 ADD PUSH2 0xF86 SWAP1 PUSH2 0x159B JUMP JUMPDEST PUSH1 0x40 MLOAD DUP1 SWAP2 SUB SWAP1 REVERT JUMPDEST CALLVALUE PUSH0 DUP1 CALLER PUSH20 0xFFFFFFFFFFFFFFFFFFFFFFFFFFFFFFFFFFFFFFFF AND PUSH20 0xFFFFFFFFFFFFFFFFFFFFFFFFFFFFFFFFFFFFFFFF AND DUP2 MSTORE PUSH1 0x20 ADD SWAP1 DUP2 MSTORE PUSH1 0x20 ADD PUSH0 KECCAK256 PUSH1 0x2 ADD PUSH0 DUP3 DUP3 SLOAD PUSH2 0xFDD SWAP2 SWAP1 PUSH2 0x16E5 JUMP JUMPDEST SWAP3 POP POP DUP2 SWAP1 SSTORE POP CALLER PUSH20 0xFFFFFFFFFFFFFFFFFFFFFFFFFFFFFFFFFFFFFFFF AND PUSH32 0xE1FFFCC4923D04B559F4D29A8BFC6CDA04EB5B0D3C460751C2402C5C5CC9109C CALLVALUE PUSH1 0x40 MLOAD PUSH2 0x102A SWAP2 SWAP1 PUSH2 0x10AF JUMP JUMPDEST PUSH1 0x40 MLOAD DUP1 SWAP2 SUB SWAP1 LOG2 JUMP JUMPDEST PUSH1 0x3 SLOAD DUP2 JUMP JUMPDEST PUSH0 DUP1 REVERT JUMPDEST PUSH0 DUP1 REVERT JUMPDEST PUSH0 DUP2 SWAP1 POP SWAP2 SWAP1 POP JUMP JUMPDEST PUSH2 0x1054 DUP2 PUSH2 0x1042 JUMP JUMPDEST DUP2 EQ PUSH2 0x105E JUMPI PUSH0 DUP1 REVERT JUMPDEST POP JUMP JUMPDEST PUSH0 DUP2 CALLDATALOAD SWAP1 POP PUSH2 0x106F DUP2 PUSH2 0x104B JUMP JUMPDEST SWAP3 SWAP2 POP POP JUMP JUMPDEST PUSH0 PUSH1 0x20 DUP3 DUP5 SUB SLT ISZERO PUSH2 0x108A JUMPI PUSH2 0x1089 PUSH2 0x103A JUMP JUMPDEST JUMPDEST PUSH0 PUSH2 0x1097 DUP5 DUP3 DUP6 ADD PUSH2 0x1061 JUMP JUMPDEST SWAP2 POP POP SWAP3 SWAP2 POP POP JUMP JUMPDEST PUSH2 0x10A9 DUP2 PUSH2 0x1042 JUMP JUMPDEST DUP3 MSTORE POP POP JUMP JUMPDEST PUSH0 PUSH1 0x20 DUP3 ADD SWAP1 POP PUSH2 0x10C2 PUSH0 DUP4 ADD DUP5 PUSH2 0x10A0 JUMP JUMPDEST SWAP3 SWAP2 POP POP JUMP JUMPDEST PUSH0 DUP1 REVERT JUMPDEST PUSH0 DUP1 REVERT JUMPDEST PUSH0 DUP1 REVERT JUMPDEST PUSH0 DUP1 DUP4 PUSH1 0x1F DUP5 ADD SLT PUSH2 0x10E9 JUMPI PUSH2 0x10E8 PUSH2 0x10C8 JUMP JUMPDEST JUMPDEST DUP3 CALLDATALOAD SWAP1 POP PUSH8 0xFFFFFFFFFFFFFFFF DUP2 GT ISZERO PUSH2 0x1106 JUMPI PUSH2 0x1105 PUSH2 0x10CC JUMP JUMPDEST JUMPDEST PUSH1 0x20 DUP4 ADD SWAP2 POP DUP4 PUSH1 0x1 DUP3 MUL DUP4 ADD GT ISZERO PUSH2 0x1122 JUMPI PUSH2 0x1121 PUSH2 0x10D0 JUMP JUMPDEST JUMPDEST SWAP3 POP SWAP3 SWAP1 POP JUMP JUMPDEST PUSH0 DUP1 PUSH0 DUP1 PUSH1 0x40 DUP6 DUP8 SUB SLT ISZERO PUSH2 0x1141 JUMPI PUSH2 0x1140 PUSH2 0x103A JUMP JUMPDEST JUMPDEST PUSH0 DUP6 ADD CALLDATALOAD PUSH8 0xFFFFFFFFFFFFFFFF DUP2 GT ISZERO PUSH2 0x115E JUMPI PUSH2 0x115D PUSH2 0x103E JUMP JUMPDEST JUMPDEST PUSH2 0x116A DUP8 DUP3 DUP9 ADD PUSH2 0x10D4 JUMP JUMPDEST SWAP5 POP SWAP5 POP POP PUSH1 0x20 DUP6 ADD CALLDATALOAD PUSH8 0xFFFFFFFFFFFFFFFF DUP2 GT ISZERO PUSH2 0x118D JUMPI PUSH2 0x118C PUSH2 0x103E JUMP JUMPDEST JUMPDEST PUSH2 0x1199 DUP8 DUP3 DUP9 ADD PUSH2 0x10D4 JUMP JUMPDEST SWAP3 POP SWAP3 POP POP SWAP3 SWAP6 SWAP2 SWAP5 POP SWAP3 POP JUMP JUMPDEST PUSH0 PUSH20 0xFFFFFFFFFFFFFFFFFFFFFFFFFFFFFFFFFFFFFFFF DUP3 AND SWAP1 POP SWAP2 SWAP1 POP JUMP JUMPDEST PUSH0 PUSH2 0x11D0 DUP3 PUSH2 0x11A7 JUMP JUMPDEST SWAP1 POP SWAP2 SWAP1 POP JUMP JUMPDEST PUSH2 0x11E0 DUP2 PUSH2 0x11C6 JUMP JUMPDEST DUP3 MSTORE POP POP JUMP JUMPDEST PUSH0 PUSH1 0x20 DUP3 ADD SWAP1 POP PUSH2 0x11F9 PUSH0 DUP4 ADD DUP5 PUSH2 0x11D7 JUMP JUMPDEST SWAP3 SWAP2 POP POP JUMP JUMPDEST PUSH2 0x1208 DUP2 PUSH2 0x11C6 JUMP JUMPDEST DUP2 EQ PUSH2 0x1212 JUMPI PUSH0 DUP1 REVERT JUMPDEST POP JUMP JUMPDEST PUSH0 DUP2 CALLDATALOAD SWAP1 POP PUSH2 0x1223 DUP2 PUSH2 0x11FF JUMP JUMPDEST SWAP3 SWAP2 POP POP JUMP JUMPDEST PUSH0 PUSH1 0x20 DUP3 DUP5 SUB SLT ISZERO PUSH2 0x123E JUMPI PUSH2 0x123D PUSH2 0x103A JUMP JUMPDEST JUMPDEST PUSH0 PUSH2 0x124B DUP5 DUP3 DUP6 ADD PUSH2 0x1215 JUMP JUMPDEST SWAP2 POP POP SWAP3 SWAP2 POP POP JUMP JUMPDEST PUSH0 DUP2 MLOAD SWAP1 POP SWAP2 SWAP1 POP JUMP JUMPDEST PUSH0 DUP3 DUP3 MSTORE PUSH1 0x20 DUP3 ADD SWAP1 POP SWAP3 SWAP2 POP POP JUMP JUMPDEST DUP3 DUP2 DUP4 MCOPY PUSH0 DUP4 DUP4 ADD MSTORE POP POP POP JUMP JUMPDEST PUSH0 PUSH1 0x1F NOT PUSH1 0x1F DUP4 ADD AND SWAP1 POP SWAP2 SWAP1 POP JUMP JUMPDEST PUSH0 PUSH2 0x1296 DUP3 PUSH2 0x1254 JUMP JUMPDEST PUSH2 0x12A0 DUP2 DUP6 PUSH2 0x125E JUMP JUMPDEST SWAP4 POP PUSH2 0x12B0 DUP2 DUP6 PUSH1 0x20 DUP7 ADD PUSH2 0x126E JUMP JUMPDEST PUSH2 0x12B9 DUP2 PUSH2 0x127C JUMP JUMPDEST DUP5 ADD SWAP2 POP POP SWAP3 SWAP2 POP POP JUMP JUMPDEST PUSH0 DUP2 ISZERO ISZERO SWAP1 POP SWAP2 SWAP1 POP JUMP JUMPDEST PUSH2 0x12D8 DUP2 PUSH2 0x12C4 JUMP JUMPDEST DUP3 MSTORE POP POP JUMP JUMPDEST PUSH0 PUSH1 0x80 DUP3 ADD SWAP1 POP DUP2 DUP2 SUB PUSH0 DUP4 ADD MSTORE PUSH2 0x12F6 DUP2 DUP8 PUSH2 0x128C JUMP JUMPDEST SWAP1 POP DUP2 DUP2 SUB PUSH1 0x20 DUP4 ADD MSTORE PUSH2 0x130A DUP2 DUP7 PUSH2 0x128C JUMP JUMPDEST SWAP1 POP PUSH2 0x1319 PUSH1 0x40 DUP4 ADD DUP6 PUSH2 0x10A0 JUMP JUMPDEST PUSH2 0x1326 PUSH1 0x60 DUP4 ADD DUP5 PUSH2 0x12CF JUMP JUMPDEST SWAP6 SWAP5 POP POP POP POP POP JUMP JUMPDEST PUSH0 DUP1 PUSH1 0x40 DUP4 DUP6 SUB SLT ISZERO PUSH2 0x1345 JUMPI PUSH2 0x1344 PUSH2 0x103A JUMP JUMPDEST JUMPDEST PUSH0 PUSH2 0x1352 DUP6 DUP3 DUP7 ADD PUSH2 0x1215 JUMP JUMPDEST SWAP3 POP POP PUSH1 0x20 PUSH2 0x1363 DUP6 DUP3 DUP7 ADD PUSH2 0x1061 JUMP JUMPDEST SWAP2 POP POP SWAP3 POP SWAP3 SWAP1 POP JUMP JUMPDEST PUSH32 0x536F6C6F20656C207573756172696F207075656465206C6C616D617220612065 PUSH0 DUP3 ADD MSTORE PUSH32 0x7374612066756E63696F6E000000000000000000000000000000000000000000 PUSH1 0x20 DUP3 ADD MSTORE POP JUMP JUMPDEST PUSH0 PUSH2 0x13C7 PUSH1 0x2B DUP4 PUSH2 0x125E JUMP JUMPDEST SWAP2 POP PUSH2 0x13D2 DUP3 PUSH2 0x136D JUMP JUMPDEST PUSH1 0x40 DUP3 ADD SWAP1 POP SWAP2 SWAP1 POP JUMP JUMPDEST PUSH0 PUSH1 0x20 DUP3 ADD SWAP1 POP DUP2 DUP2 SUB PUSH0 DUP4 ADD MSTORE PUSH2 0x13F4 DUP2 PUSH2 0x13BB JUMP JUMPDEST SWAP1 POP SWAP2 SWAP1 POP JUMP JUMPDEST PUSH32 0x53616C646F20696E737566696369656E746520656E207465736F726572696120 PUSH0 DUP3 ADD MSTORE PUSH32 0x70617261206C61206F7065726163696F6E20736F6C6963697461646100000000 PUSH1 0x20 DUP3 ADD MSTORE POP JUMP JUMPDEST PUSH0 PUSH2 0x1455 PUSH1 0x3C DUP4 PUSH2 0x125E JUMP JUMPDEST SWAP2 POP PUSH2 0x1460 DUP3 PUSH2 0x13FB JUMP JUMPDEST PUSH1 0x40 DUP3 ADD SWAP1 POP SWAP2 SWAP1 POP JUMP JUMPDEST PUSH0 PUSH1 0x20 DUP3 ADD SWAP1 POP DUP2 DUP2 SUB PUSH0 DUP4 ADD MSTORE PUSH2 0x1482 DUP2 PUSH2 0x1449 JUMP JUMPDEST SWAP1 POP SWAP2 SWAP1 POP JUMP JUMPDEST PUSH32 0x4E487B7100000000000000000000000000000000000000000000000000000000 PUSH0 MSTORE PUSH1 0x11 PUSH1 0x4 MSTORE PUSH1 0x24 PUSH0 REVERT JUMPDEST PUSH0 PUSH2 0x14C0 DUP3 PUSH2 0x1042 JUMP JUMPDEST SWAP2 POP PUSH2 0x14CB DUP4 PUSH2 0x1042 JUMP JUMPDEST SWAP3 POP DUP3 DUP3 SUB SWAP1 POP DUP2 DUP2 GT ISZERO PUSH2 0x14E3 JUMPI PUSH2 0x14E2 PUSH2 0x1489 JUMP JUMPDEST JUMPDEST SWAP3 SWAP2 POP POP JUMP JUMPDEST PUSH32 0x456C207573756172696F206E6F2065737461207265676973747261646F000000 PUSH0 DUP3 ADD MSTORE POP JUMP JUMPDEST PUSH0 PUSH2 0x151D PUSH1 0x1D DUP4 PUSH2 0x125E JUMP JUMPDEST SWAP2 POP PUSH2 0x1528 DUP3 PUSH2 0x14E9 JUMP JUMPDEST PUSH1 0x20 DUP3 ADD SWAP1 POP SWAP2 SWAP1 POP JUMP JUMPDEST PUSH0 PUSH1 0x20 DUP3 ADD SWAP1 POP DUP2 DUP2 SUB PUSH0 DUP4 ADD MSTORE PUSH2 0x154A DUP2 PUSH2 0x1511 JUMP JUMPDEST SWAP1 POP SWAP2 SWAP1 POP JUMP JUMPDEST PUSH32 0x4465626520696E67726573617220756E612063616E7469646164000000000000 PUSH0 DUP3 ADD MSTORE POP JUMP JUMPDEST PUSH0 PUSH2 0x1585 PUSH1 0x1A DUP4 PUSH2 0x125E JUMP JUMPDEST SWAP2 POP PUSH2 0x1590 DUP3 PUSH2 0x1551 JUMP JUMPDEST PUSH1 0x20 DUP3 ADD SWAP1 POP SWAP2 SWAP1 POP JUMP JUMPDEST PUSH0 PUSH1 0x20 DUP3 ADD SWAP1 POP DUP2 DUP2 SUB PUSH0 DUP4 ADD MSTORE PUSH2 0x15B2 DUP2 PUSH2 0x1579 JUMP JUMPDEST SWAP1 POP SWAP2 SWAP1 POP JUMP JUMPDEST PUSH32 0x53616C646F20696E737566696369656E74652070617261206C61206F70657261 PUSH0 DUP3 ADD MSTORE PUSH32 0x63696F6E20736F6C696369746164610000000000000000000000000000000000 PUSH1 0x20 DUP3 ADD MSTORE POP JUMP JUMPDEST PUSH0 PUSH2 0x1613 PUSH1 0x2F DUP4 PUSH2 0x125E JUMP JUMPDEST SWAP2 POP PUSH2 0x161E DUP3 PUSH2 0x15B9 JUMP JUMPDEST PUSH1 0x40 DUP3 ADD SWAP1 POP SWAP2 SWAP1 POP JUMP JUMPDEST PUSH0 PUSH1 0x20 DUP3 ADD SWAP1 POP DUP2 DUP2 SUB PUSH0 DUP4 ADD MSTORE PUSH2 0x1640 DUP2 PUSH2 0x1607 JUMP JUMPDEST SWAP1 POP SWAP2 SWAP1 POP JUMP JUMPDEST PUSH0 PUSH2 0x1651 DUP3 PUSH2 0x1042 JUMP JUMPDEST SWAP2 POP PUSH2 0x165C DUP4 PUSH2 0x1042 JUMP JUMPDEST SWAP3 POP DUP3 DUP3 MUL PUSH2 0x166A DUP2 PUSH2 0x1042 JUMP JUMPDEST SWAP2 POP DUP3 DUP3 DIV DUP5 EQ DUP4 ISZERO OR PUSH2 0x1681 JUMPI PUSH2 0x1680 PUSH2 0x1489 JUMP JUMPDEST JUMPDEST POP SWAP3 SWAP2 POP POP JUMP JUMPDEST PUSH32 0x4E487B7100000000000000000000000000000000000000000000000000000000 PUSH0 MSTORE PUSH1 0x12 PUSH1 0x4 MSTORE PUSH1 0x24 PUSH0 REVERT JUMPDEST PUSH0 PUSH2 0x16BF DUP3 PUSH2 0x1042 JUMP JUMPDEST SWAP2 POP PUSH2 0x16CA DUP4 PUSH2 0x1042 JUMP JUMPDEST SWAP3 POP DUP3 PUSH2 0x16DA JUMPI PUSH2 0x16D9 PUSH2 0x1688 JUMP JUMPDEST JUMPDEST DUP3 DUP3 DIV SWAP1 POP SWAP3 SWAP2 POP POP JUMP JUMPDEST PUSH0 PUSH2 0x16EF DUP3 PUSH2 0x1042 JUMP JUMPDEST SWAP2 POP PUSH2 0x16FA DUP4 PUSH2 0x1042 JUMP JUMPDEST SWAP3 POP DUP3 DUP3 ADD SWAP1 POP DUP1 DUP3 GT ISZERO PUSH2 0x1712 JUMPI PUSH2 0x1711 PUSH2 0x1489 JUMP JUMPDEST JUMPDEST SWAP3 SWAP2 POP POP JUMP JUMPDEST PUSH0 PUSH1 0x40 DUP3 ADD SWAP1 POP PUSH2 0x172B PUSH0 DUP4 ADD DUP6 PUSH2 0x10A0 JUMP JUMPDEST PUSH2 0x1738 PUSH1 0x20 DUP4 ADD DUP5 PUSH2 0x10A0 JUMP JUMPDEST SWAP4 SWAP3 POP POP POP JUMP JUMPDEST PUSH32 0x4573206F626C696761746F72696F20696E67726573617220656C207072696D65 PUSH0 DUP3 ADD MSTORE PUSH32 0x72206E6F6D627265000000000000000000000000000000000000000000000000 PUSH1 0x20 DUP3 ADD MSTORE POP JUMP JUMPDEST PUSH0 PUSH2 0x1799 PUSH1 0x28 DUP4 PUSH2 0x125E JUMP JUMPDEST SWAP2 POP PUSH2 0x17A4 DUP3 PUSH2 0x173F JUMP JUMPDEST PUSH1 0x40 DUP3 ADD SWAP1 POP SWAP2 SWAP1 POP JUMP JUMPDEST PUSH0 PUSH1 0x20 DUP3 ADD SWAP1 POP DUP2 DUP2 SUB PUSH0 DUP4 ADD MSTORE PUSH2 0x17C6 DUP2 PUSH2 0x178D JUMP JUMPDEST SWAP1 POP SWAP2 SWAP1 POP JUMP JUMPDEST PUSH32 0x4573206F626C696761746F72696F20696E67726573617220656C206170656C6C PUSH0 DUP3 ADD MSTORE PUSH32 0x69646F0000000000000000000000000000000000000000000000000000000000 PUSH1 0x20 DUP3 ADD MSTORE POP JUMP JUMPDEST PUSH0 PUSH2 0x1827 PUSH1 0x23 DUP4 PUSH2 0x125E JUMP JUMPDEST SWAP2 POP PUSH2 0x1832 DUP3 PUSH2 0x17CD JUMP JUMPDEST PUSH1 0x40 DUP3 ADD SWAP1 POP SWAP2 SWAP1 POP JUMP JUMPDEST PUSH0 PUSH1 0x20 DUP3 ADD SWAP1 POP DUP2 DUP2 SUB PUSH0 DUP4 ADD MSTORE PUSH2 0x1854 DUP2 PUSH2 0x181B JUMP JUMPDEST SWAP1 POP SWAP2 SWAP1 POP JUMP JUMPDEST PUSH32 0x456C207573756172696F2079612065737461207265676973747261646F000000 PUSH0 DUP3 ADD MSTORE POP JUMP JUMPDEST PUSH0 PUSH2 0x188F PUSH1 0x1D DUP4 PUSH2 0x125E JUMP JUMPDEST SWAP2 POP PUSH2 0x189A DUP3 PUSH2 0x185B JUMP JUMPDEST PUSH1 0x20 DUP3 ADD SWAP1 POP SWAP2 SWAP1 POP JUMP JUMPDEST PUSH0 PUSH1 0x20 DUP3 ADD SWAP1 POP DUP2 DUP2 SUB PUSH0 DUP4 ADD MSTORE PUSH2 0x18BC DUP2 PUSH2 0x1883 JUMP JUMPDEST SWAP1 POP SWAP2 SWAP1 POP JUMP JUMPDEST PUSH32 0x4E487B7100000000000000000000000000000000000000000000000000000000 PUSH0 MSTORE PUSH1 0x41 PUSH1 0x4 MSTORE PUSH1 0x24 PUSH0 REVERT JUMPDEST PUSH32 0x4E487B7100000000000000000000000000000000000000000000000000000000 PUSH0 MSTORE PUSH1 0x22 PUSH1 0x4 MSTORE PUSH1 0x24 PUSH0 REVERT JUMPDEST PUSH0 PUSH1 0x2 DUP3 DIV SWAP1 POP PUSH1 0x1 DUP3 AND DUP1 PUSH2 0x1934 JUMPI PUSH1 0x7F DUP3 AND SWAP2 POP JUMPDEST PUSH1 0x20 DUP3 LT DUP2 SUB PUSH2 0x1947 JUMPI PUSH2 0x1946 PUSH2 0x18F0 JUMP JUMPDEST JUMPDEST POP SWAP2 SWAP1 POP JUMP JUMPDEST PUSH0 DUP2 SWAP1 POP DUP2 PUSH0 MSTORE PUSH1 0x20 PUSH0 KECCAK256 SWAP1 POP SWAP2 SWAP1 POP JUMP JUMPDEST PUSH0 PUSH1 0x20 PUSH1 0x1F DUP4 ADD DIV SWAP1 POP SWAP2 SWAP1 POP JUMP JUMPDEST PUSH0 DUP3 DUP3 SHL SWAP1 POP SWAP3 SWAP2 POP POP JUMP JUMPDEST PUSH0 PUSH1 0x8 DUP4 MUL PUSH2 0x19A9 PUSH32 0xFFFFFFFFFFFFFFFFFFFFFFFFFFFFFFFFFFFFFFFFFFFFFFFFFFFFFFFFFFFFFFFF DUP3 PUSH2 0x196E JUMP JUMPDEST PUSH2 0x19B3 DUP7 DUP4 PUSH2 0x196E JUMP JUMPDEST SWAP6 POP DUP1 NOT DUP5 AND SWAP4 POP DUP1 DUP7 AND DUP5 OR SWAP3 POP POP POP SWAP4 SWAP3 POP POP POP JUMP JUMPDEST PUSH0 DUP2 SWAP1 POP SWAP2 SWAP1 POP JUMP JUMPDEST PUSH0 PUSH2 0x19EE PUSH2 0x19E9 PUSH2 0x19E4 DUP5 PUSH2 0x1042 JUMP JUMPDEST PUSH2 0x19CB JUMP JUMPDEST PUSH2 0x1042 JUMP JUMPDEST SWAP1 POP SWAP2 SWAP1 POP JUMP JUMPDEST PUSH0 DUP2 SWAP1 POP SWAP2 SWAP1 POP JUMP JUMPDEST PUSH2 0x1A07 DUP4 PUSH2 0x19D4 JUMP JUMPDEST PUSH2 0x1A1B PUSH2 0x1A13 DUP3 PUSH2 0x19F5 JUMP JUMPDEST DUP5 DUP5 SLOAD PUSH2 0x197A JUMP JUMPDEST DUP3 SSTORE POP POP POP POP JUMP JUMPDEST PUSH0 SWAP1 JUMP JUMPDEST PUSH2 0x1A2F PUSH2 0x1A23 JUMP JUMPDEST PUSH2 0x1A3A DUP2 DUP5 DUP5 PUSH2 0x19FE JUMP JUMPDEST POP POP POP JUMP JUMPDEST JUMPDEST DUP2 DUP2 LT ISZERO PUSH2 0x1A5D JUMPI PUSH2 0x1A52 PUSH0 DUP3 PUSH2 0x1A27 JUMP JUMPDEST PUSH1 0x1 DUP2 ADD SWAP1 POP PUSH2 0x1A40 JUMP JUMPDEST POP POP JUMP JUMPDEST PUSH1 0x1F DUP3 GT ISZERO PUSH2 0x1AA2 JUMPI PUSH2 0x1A73 DUP2 PUSH2 0x194D JUMP JUMPDEST PUSH2 0x1A7C DUP5 PUSH2 0x195F JUMP JUMPDEST DUP2 ADD PUSH1 0x20 DUP6 LT ISZERO PUSH2 0x1A8B JUMPI DUP2 SWAP1 POP JUMPDEST PUSH2 0x1A9F PUSH2 0x1A97 DUP6 PUSH2 0x195F JUMP JUMPDEST DUP4 ADD DUP3 PUSH2 0x1A3F JUMP JUMPDEST POP POP JUMPDEST POP POP POP JUMP JUMPDEST PUSH0 DUP3 DUP3 SHR SWAP1 POP SWAP3 SWAP2 POP POP JUMP JUMPDEST PUSH0 PUSH2 0x1AC2 PUSH0 NOT DUP5 PUSH1 0x8 MUL PUSH2 0x1AA7 JUMP JUMPDEST NOT DUP1 DUP4 AND SWAP2 POP POP SWAP3 SWAP2 POP POP JUMP JUMPDEST PUSH0 PUSH2 0x1ADA DUP4 DUP4 PUSH2 0x1AB3 JUMP JUMPDEST SWAP2 POP DUP3 PUSH1 0x2 MUL DUP3 OR SWAP1 POP SWAP3 SWAP2 POP POP JUMP JUMPDEST PUSH2 0x1AF3 DUP3 PUSH2 0x1254 JUMP JUMPDEST PUSH8 0xFFFFFFFFFFFFFFFF DUP2 GT ISZERO PUSH2 0x1B0C JUMPI PUSH2 0x1B0B PUSH2 0x18C3 JUMP JUMPDEST JUMPDEST PUSH2 0x1B16 DUP3 SLOAD PUSH2 0x191D JUMP JUMPDEST PUSH2 0x1B21 DUP3 DUP3 DUP6 PUSH2 0x1A61 JUMP JUMPDEST PUSH0 PUSH1 0x20 SWAP1 POP PUSH1 0x1F DUP4 GT PUSH1 0x1 DUP2 EQ PUSH2 0x1B52 JUMPI PUSH0 DUP5 ISZERO PUSH2 0x1B40 JUMPI DUP3 DUP8 ADD MLOAD SWAP1 POP JUMPDEST PUSH2 0x1B4A DUP6 DUP3 PUSH2 0x1ACF JUMP JUMPDEST DUP7 SSTORE POP PUSH2 0x1BB1 JUMP JUMPDEST PUSH1 0x1F NOT DUP5 AND PUSH2 0x1B60 DUP7 PUSH2 0x194D JUMP JUMPDEST PUSH0 JUMPDEST DUP3 DUP2 LT ISZERO PUSH2 0x1B87 JUMPI DUP5 DUP10 ADD MLOAD DUP3 SSTORE PUSH1 0x1 DUP3 ADD SWAP2 POP PUSH1 0x20 DUP6 ADD SWAP5 POP PUSH1 0x20 DUP2 ADD SWAP1 POP PUSH2 0x1B62 JUMP JUMPDEST DUP7 DUP4 LT ISZERO PUSH2 0x1BA4 JUMPI DUP5 DUP10 ADD MLOAD PUSH2 0x1BA0 PUSH1 0x1F DUP10 AND DUP3 PUSH2 0x1AB3 JUMP JUMPDEST DUP4 SSTORE POP JUMPDEST PUSH1 0x1 PUSH1 0x2 DUP9 MUL ADD DUP9 SSTORE POP POP POP JUMPDEST POP POP POP POP POP POP JUMP JUMPDEST DUP3 DUP2 DUP4 CALLDATACOPY PUSH0 DUP4 DUP4 ADD MSTORE POP POP POP JUMP JUMPDEST PUSH0 PUSH2 0x1BD2 DUP4 DUP6 PUSH2 0x125E JUMP JUMPDEST SWAP4 POP PUSH2 0x1BDF DUP4 DUP6 DUP5 PUSH2 0x1BB9 JUMP JUMPDEST PUSH2 0x1BE8 DUP4 PUSH2 0x127C JUMP JUMPDEST DUP5 ADD SWAP1 POP SWAP4 SWAP3 POP POP POP JUMP JUMPDEST PUSH0 PUSH1 0x40 DUP3 ADD SWAP1 POP DUP2 DUP2 SUB PUSH0 DUP4 ADD MSTORE PUSH2 0x1C0C DUP2 DUP7 DUP9 PUSH2 0x1BC7 JUMP JUMPDEST SWAP1 POP DUP2 DUP2 SUB PUSH1 0x20 DUP4 ADD MSTORE PUSH2 0x1C21 DUP2 DUP5 DUP7 PUSH2 0x1BC7 JUMP JUMPDEST SWAP1 POP SWAP6 SWAP5 POP POP POP POP POP JUMP JUMPDEST PUSH32 0x456C207573756172696F2064657374696E6F206E6F2065737461207265676973 PUSH0 DUP3 ADD MSTORE PUSH32 0x747261646F000000000000000000000000000000000000000000000000000000 PUSH1 0x20 DUP3 ADD MSTORE POP JUMP JUMPDEST PUSH0 PUSH2 0x1C86 PUSH1 0x25 DUP4 PUSH2 0x125E JUMP JUMPDEST SWAP2 POP PUSH2 0x1C91 DUP3 PUSH2 0x1C2C JUMP JUMPDEST PUSH1 0x40 DUP3 ADD SWAP1 POP SWAP2 SWAP1 POP JUMP JUMPDEST PUSH0 PUSH1 0x20 DUP3 ADD SWAP1 POP DUP2 DUP2 SUB PUSH0 DUP4 ADD MSTORE PUSH2 0x1CB3 DUP2 PUSH2 0x1C7A JUMP JUMPDEST SWAP1 POP SWAP2 SWAP1 POP JUMP INVALID LOG2 PUSH5 0x6970667358 0x22 SLT KECCAK256 0xD3 PC PUSH9 0xF2C35F9D3514081ABE BALANCE 0xFC PUSH27 0xA2B07236D8FAF59C6DC8E7E2A6DA6C344D64736F6C634300081A00 CALLER "
		},
		"gasEstimates": {
			"creation": {
				"codeDepositCost": "1481600",
				"executionCost": "infinite",
				"totalCost": "infinite"
			},
			"external": {
				"deposit()": "infinite",
				"fee()": "2535",
				"getBalance()": "4793",
				"owner()": "2530",
				"register(string,string)": "infinite",
				"transferBetweenUsers(address,uint256)": "infinite",
				"treasury()": "2508",
				"treasuryBalance()": "2492",
				"users(address)": "infinite",
				"withdraw(uint256)": "infinite",
				"withdrawTreasury(uint256)": "infinite"
			}
		},
		"methodIdentifiers": {
			"deposit()": "d0e30db0",
			"fee()": "ddca3f43",
			"getBalance()": "12065fe0",
			"owner()": "8da5cb5b",
			"register(string,string)": "3ffbd47f",
			"transferBetweenUsers(address,uint256)": "c3346c3e",
			"treasury()": "61d027b3",
			"treasuryBalance()": "313dab20",
			"users(address)": "a87430ba",
			"withdraw(uint256)": "2e1a7d4d",
			"withdrawTreasury(uint256)": "11f1fc99"
		}
	},
	"abi": [
		{
			"inputs": [
				{
					"internalType": "uint256",
					"name": "_fee",
					"type": "uint256"
				},
				{
					"internalType": "address",
					"name": "_treasury",
					"type": "address"
				}
			],
			"stateMutability": "nonpayable",
			"type": "constructor"
		},
		{
			"anonymous": false,
			"inputs": [
				{
					"indexed": true,
					"internalType": "address",
					"name": "user",
					"type": "address"
				},
				{
					"indexed": false,
					"internalType": "uint256",
					"name": "amount",
					"type": "uint256"
				}
			],
			"name": "Deposit",
			"type": "event"
		},
		{
			"anonymous": false,
			"inputs": [
				{
					"indexed": true,
					"internalType": "address",
					"name": "from",
					"type": "address"
				},
				{
					"indexed": true,
					"internalType": "address",
					"name": "to",
					"type": "address"
				},
				{
					"indexed": false,
					"internalType": "uint256",
					"name": "amount",
					"type": "uint256"
				}
			],
			"name": "Transfer",
			"type": "event"
		},
		{
			"anonymous": false,
			"inputs": [
				{
					"indexed": true,
					"internalType": "address",
					"name": "owner",
					"type": "address"
				},
				{
					"indexed": false,
					"internalType": "uint256",
					"name": "amount",
					"type": "uint256"
				}
			],
			"name": "TreasuryWithdrawal",
			"type": "event"
		},
		{
			"anonymous": false,
			"inputs": [
				{
					"indexed": true,
					"internalType": "address",
					"name": "user",
					"type": "address"
				},
				{
					"indexed": false,
					"internalType": "string",
					"name": "firstName",
					"type": "string"
				},
				{
					"indexed": false,
					"internalType": "string",
					"name": "lastName",
					"type": "string"
				}
			],
			"name": "UserRegistered",
			"type": "event"
		},
		{
			"anonymous": false,
			"inputs": [
				{
					"indexed": true,
					"internalType": "address",
					"name": "user",
					"type": "address"
				},
				{
					"indexed": false,
					"internalType": "uint256",
					"name": "amount",
					"type": "uint256"
				},
				{
					"indexed": false,
					"internalType": "uint256",
					"name": "feeAmount",
					"type": "uint256"
				}
			],
			"name": "Withdrawal",
			"type": "event"
		},
		{
			"inputs": [],
			"name": "deposit",
			"outputs": [],
			"stateMutability": "payable",
			"type": "function"
		},
		{
			"inputs": [],
			"name": "fee",
			"outputs": [
				{
					"internalType": "uint256",
					"name": "",
					"type": "uint256"
				}
			],
			"stateMutability": "view",
			"type": "function"
		},
		{
			"inputs": [],
			"name": "getBalance",
			"outputs": [
				{
					"internalType": "uint256",
					"name": "",
					"type": "uint256"
				}
			],
			"stateMutability": "view",
			"type": "function"
		},
		{
			"inputs": [],
			"name": "owner",
			"outputs": [
				{
					"internalType": "address",
					"name": "",
					"type": "address"
				}
			],
			"stateMutability": "view",
			"type": "function"
		},
		{
			"inputs": [
				{
					"internalType": "string",
					"name": "_firstName",
					"type": "string"
				},
				{
					"internalType": "string",
					"name": "_lastName",
					"type": "string"
				}
			],
			"name": "register",
			"outputs": [],
			"stateMutability": "nonpayable",
			"type": "function"
		},
		{
			"inputs": [
				{
					"internalType": "address",
					"name": "_receiver",
					"type": "address"
				},
				{
					"internalType": "uint256",
					"name": "_amount",
					"type": "uint256"
				}
			],
			"name": "transferBetweenUsers",
			"outputs": [],
			"stateMutability": "nonpayable",
			"type": "function"
		},
		{
			"inputs": [],
			"name": "treasury",
			"outputs": [
				{
					"internalType": "address",
					"name": "",
					"type": "address"
				}
			],
			"stateMutability": "view",
			"type": "function"
		},
		{
			"inputs": [],
			"name": "treasuryBalance",
			"outputs": [
				{
					"internalType": "uint256",
					"name": "",
					"type": "uint256"
				}
			],
			"stateMutability": "view",
			"type": "function"
		},
		{
			"inputs": [
				{
					"internalType": "address",
					"name": "",
					"type": "address"
				}
			],
			"name": "users",
			"outputs": [
				{
					"internalType": "string",
					"name": "firstName",
					"type": "string"
				},
				{
					"internalType": "string",
					"name": "lastName",
					"type": "string"
				},
				{
					"internalType": "uint256",
					"name": "balance",
					"type": "uint256"
				},
				{
					"internalType": "bool",
					"name": "isRegistered",
					"type": "bool"
				}
			],
			"stateMutability": "view",
			"type": "function"
		},
		{
			"inputs": [
				{
					"internalType": "uint256",
					"name": "_amount",
					"type": "uint256"
				}
			],
			"name": "withdraw",
			"outputs": [],
			"stateMutability": "nonpayable",
			"type": "function"
		},
		{
			"inputs": [
				{
					"internalType": "uint256",
					"name": "_amount",
					"type": "uint256"
				}
			],
			"name": "withdrawTreasury",
			"outputs": [],
			"stateMutability": "nonpayable",
			"type": "function"
		}
	]
}