{
	"data": {
		"bytecode": {
			"linkReferences": {},
			"object": "608060405234801561000f575f80fd5b50604051611c71380380611c718339818101604052810190610031919061020a565b5f73ffffffffffffffffffffffffffffffffffffffff168173ffffffffffffffffffffffffffffffffffffffff160361009f576040517f08c379a0000000000000000000000000000000000000000000000000000000008152600401610096906102a2565b60405180910390fd5b6127108211156100e4576040517f08c379a00000000000000000000000000000000000000000000000000000000081526004016100db9061030a565b60405180910390fd5b3360015f6101000a81548173ffffffffffffffffffffffffffffffffffffffff021916908373ffffffffffffffffffffffffffffffffffffffff160217905550816003819055508060025f6101000a81548173ffffffffffffffffffffffffffffffffffffffff021916908373ffffffffffffffffffffffffffffffffffffffff1602179055505f6004819055505050610328565b5f80fd5b5f819050919050565b61018f8161017d565b8114610199575f80fd5b50565b5f815190506101aa81610186565b92915050565b5f73ffffffffffffffffffffffffffffffffffffffff82169050919050565b5f6101d9826101b0565b9050919050565b6101e9816101cf565b81146101f3575f80fd5b50565b5f81519050610204816101e0565b92915050565b5f80604083850312156102205761021f610179565b5b5f61022d8582860161019c565b925050602061023e858286016101f6565b9150509250929050565b5f82825260208201905092915050565b7f5465736f7265726961206e6f2076616c696461000000000000000000000000005f82015250565b5f61028c601383610248565b915061029782610258565b602082019050919050565b5f6020820190508181035f8301526102b981610280565b9050919050565b7f466565206465626520736572203c3d20313030303020706200000000000000005f82015250565b5f6102f4601883610248565b91506102ff826102c0565b602082019050919050565b5f6020820190508181035f830152610321816102e8565b9050919050565b61193c806103355f395ff3fe608060405260043610610090575f3560e01c80638da5cb5b116100585780638da5cb5b14610160578063a87430ba1461018a578063d0e30db0146101c9578063ddca3f43146101d3578063e933dc54146101fd57610090565b806311f1fc991461009457806312065fe0146100bc578063229dfe4a146100e65780632e1a7d4d146101105780633ffbd47f14610138575b5f80fd5b34801561009f575f80fd5b506100ba60048036038101906100b59190610d71565b610227565b005b3480156100c7575f80fd5b506100d061042c565b6040516100dd9190610dab565b60405180910390f35b3480156100f1575f80fd5b506100fa6104fd565b6040516101079190610dab565b60405180910390f35b34801561011b575f80fd5b5061013660048036038101906101319190610d71565b610503565b005b348015610143575f80fd5b5061015e60048036038101906101599190610e25565b610785565b005b34801561016b575f80fd5b50610174610a31565b6040516101819190610ee2565b60405180910390f35b348015610195575f80fd5b506101b060048036038101906101ab9190610f25565b610a56565b6040516101c09493929190610fda565b60405180910390f35b6101d1610b99565b005b3480156101de575f80fd5b506101e7610d0b565b6040516101f49190610dab565b60405180910390f35b348015610208575f80fd5b50610211610d11565b60405161021e9190610ee2565b60405180910390f35b60015f9054906101000a900473ffffffffffffffffffffffffffffffffffffffff1673ffffffffffffffffffffffffffffffffffffffff163373ffffffffffffffffffffffffffffffffffffffff16146102b6576040517f08c379a00000000000000000000000000000000000000000000000000000000081526004016102ad9061109b565b60405180910390fd5b5f81116102f8576040517f08c379a00000000000000000000000000000000000000000000000000000000081526004016102ef90611103565b60405180910390fd5b80600454101561033d576040517f08c379a00000000000000000000000000000000000000000000000000000000081526004016103349061116b565b60405180910390fd5b8060045f82825461034e91906111b6565b9250508190555060015f9054906101000a900473ffffffffffffffffffffffffffffffffffffffff1673ffffffffffffffffffffffffffffffffffffffff166108fc8290811502906040515f60405180830381858888f193505050501580156103b9573d5f803e3d5ffd5b5060015f9054906101000a900473ffffffffffffffffffffffffffffffffffffffff1673ffffffffffffffffffffffffffffffffffffffff167f233c84dc0c19fbf51f9fa92214ffd8a59f512e0098bff5827455d02e401221c0826040516104219190610dab565b60405180910390a250565b5f805f3373ffffffffffffffffffffffffffffffffffffffff1673ffffffffffffffffffffffffffffffffffffffff1681526020019081526020015f206003015f9054906101000a900460ff166104b8576040517f08c379a00000000000000000000000000000000000000000000000000000000081526004016104af90611233565b60405180910390fd5b5f803373ffffffffffffffffffffffffffffffffffffffff1673ffffffffffffffffffffffffffffffffffffffff1681526020019081526020015f2060020154905090565b60045481565b5f803373ffffffffffffffffffffffffffffffffffffffff1673ffffffffffffffffffffffffffffffffffffffff1681526020019081526020015f206003015f9054906101000a900460ff1661058e576040517f08c379a000000000000000000000000000000000000000000000000000000000815260040161058590611233565b60405180910390fd5b5f81116105d0576040517f08c379a00000000000000000000000000000000000000000000000000000000081526004016105c7906112c1565b60405180910390fd5b805f803373ffffffffffffffffffffffffffffffffffffffff1673ffffffffffffffffffffffffffffffffffffffff1681526020019081526020015f20600201541015610652576040517f08c379a000000000000000000000000000000000000000000000000000000000815260040161064990611329565b60405180910390fd5b5f612710600354836106649190611347565b61066e91906113b5565b90505f818361067d91906111b6565b9050825f803373ffffffffffffffffffffffffffffffffffffffff1673ffffffffffffffffffffffffffffffffffffffff1681526020019081526020015f206002015f8282546106cd91906111b6565b925050819055508160045f8282546106e591906113e5565b925050819055503373ffffffffffffffffffffffffffffffffffffffff166108fc8290811502906040515f60405180830381858888f1935050505015801561072f573d5f803e3d5ffd5b503373ffffffffffffffffffffffffffffffffffffffff167fdf273cb619d95419a9cd0ec88123a0538c85064229baa6363788f743fff90deb8484604051610778929190611418565b60405180910390a2505050565b5f84849050116107ca576040517f08c379a00000000000000000000000000000000000000000000000000000000081526004016107c1906114af565b60405180910390fd5b5f828290501161080f576040517f08c379a000000000000000000000000000000000000000000000000000000000815260040161080690611517565b60405180910390fd5b5f803373ffffffffffffffffffffffffffffffffffffffff1673ffffffffffffffffffffffffffffffffffffffff1681526020019081526020015f206003015f9054906101000a900460ff161561089b576040517f08c379a00000000000000000000000000000000000000000000000000000000081526004016108929061157f565b60405180910390fd5b604051806080016040528085858080601f0160208091040260200160405190810160405280939291908181526020018383808284375f81840152601f19601f82011690508083019250505050505050815260200183838080601f0160208091040260200160405190810160405280939291908181526020018383808284375f81840152601f19601f8201169050808301925050505050505081526020015f8152602001600115158152505f803373ffffffffffffffffffffffffffffffffffffffff1673ffffffffffffffffffffffffffffffffffffffff1681526020019081526020015f205f820151815f01908161099491906117c4565b5060208201518160010190816109aa91906117c4565b50604082015181600201556060820151816003015f6101000a81548160ff0219169083151502179055509050503373ffffffffffffffffffffffffffffffffffffffff167f92822564bab8864c3a47b34e8d23fbce5c46234eb5da261f94087b995ac0f33b85858585604051610a2394939291906118cd565b60405180910390a250505050565b60015f9054906101000a900473ffffffffffffffffffffffffffffffffffffffff1681565b5f602052805f5260405f205f91509050805f018054610a74906115f7565b80601f0160208091040260200160405190810160405280929190818152602001828054610aa0906115f7565b8015610aeb5780601f10610ac257610100808354040283529160200191610aeb565b820191905f5260205f20905b815481529060010190602001808311610ace57829003601f168201915b505050505090806001018054610b00906115f7565b80601f0160208091040260200160405190810160405280929190818152602001828054610b2c906115f7565b8015610b775780601f10610b4e57610100808354040283529160200191610b77565b820191905f5260205f20905b815481529060010190602001808311610b5a57829003601f168201915b505050505090806002015490806003015f9054906101000a900460ff16905084565b5f803373ffffffffffffffffffffffffffffffffffffffff1673ffffffffffffffffffffffffffffffffffffffff1681526020019081526020015f206003015f9054906101000a900460ff16610c24576040517f08c379a0000000000000000000000000000000000000000000000000000000008152600401610c1b90611233565b60405180910390fd5b5f3411610c66576040517f08c379a0000000000000000000000000000000000000000000000000000000008152600401610c5d906112c1565b60405180910390fd5b345f803373ffffffffffffffffffffffffffffffffffffffff1673ffffffffffffffffffffffffffffffffffffffff1681526020019081526020015f206002015f828254610cb491906113e5565b925050819055503373ffffffffffffffffffffffffffffffffffffffff167fe1fffcc4923d04b559f4d29a8bfc6cda04eb5b0d3c460751c2402c5c5cc9109c34604051610d019190610dab565b60405180910390a2565b60035481565b60025f9054906101000a900473ffffffffffffffffffffffffffffffffffffffff1681565b5f80fd5b5f80fd5b5f819050919050565b610d5081610d3e565b8114610d5a575f80fd5b50565b5f81359050610d6b81610d47565b92915050565b5f60208284031215610d8657610d85610d36565b5b5f610d9384828501610d5d565b91505092915050565b610da581610d3e565b82525050565b5f602082019050610dbe5f830184610d9c565b92915050565b5f80fd5b5f80fd5b5f80fd5b5f8083601f840112610de557610de4610dc4565b5b8235905067ffffffffffffffff811115610e0257610e01610dc8565b5b602083019150836001820283011115610e1e57610e1d610dcc565b5b9250929050565b5f805f8060408587031215610e3d57610e3c610d36565b5b5f85013567ffffffffffffffff811115610e5a57610e59610d3a565b5b610e6687828801610dd0565b9450945050602085013567ffffffffffffffff811115610e8957610e88610d3a565b5b610e9587828801610dd0565b925092505092959194509250565b5f73ffffffffffffffffffffffffffffffffffffffff82169050919050565b5f610ecc82610ea3565b9050919050565b610edc81610ec2565b82525050565b5f602082019050610ef55f830184610ed3565b92915050565b610f0481610ec2565b8114610f0e575f80fd5b50565b5f81359050610f1f81610efb565b92915050565b5f60208284031215610f3a57610f39610d36565b5b5f610f4784828501610f11565b91505092915050565b5f81519050919050565b5f82825260208201905092915050565b8281835e5f83830152505050565b5f601f19601f8301169050919050565b5f610f9282610f50565b610f9c8185610f5a565b9350610fac818560208601610f6a565b610fb581610f78565b840191505092915050565b5f8115159050919050565b610fd481610fc0565b82525050565b5f6080820190508181035f830152610ff28187610f88565b905081810360208301526110068186610f88565b90506110156040830185610d9c565b6110226060830184610fcb565b95945050505050565b7f4f6e6c79206f776e65722063616e2063616c6c20746869732066756e6374696f5f8201527f6e00000000000000000000000000000000000000000000000000000000000000602082015250565b5f611085602183610f5a565b91506110908261102b565b604082019050919050565b5f6020820190508181035f8301526110b281611079565b9050919050565b7f4d6f6e746f206465626520736572206d61796f722061206365726f00000000005f82015250565b5f6110ed601b83610f5a565b91506110f8826110b9565b602082019050919050565b5f6020820190508181035f83015261111a816110e1565b9050919050565b7f53616c646f20696e737566696369656e746520656e205465736f7265726961005f82015250565b5f611155601f83610f5a565b915061116082611121565b602082019050919050565b5f6020820190508181035f83015261118281611149565b9050919050565b7f4e487b71000000000000000000000000000000000000000000000000000000005f52601160045260245ffd5b5f6111c082610d3e565b91506111cb83610d3e565b92508282039050818111156111e3576111e2611189565b5b92915050565b7f55736572206973206e6f742072656769737465726564000000000000000000005f82015250565b5f61121d601683610f5a565b9150611228826111e9565b602082019050919050565b5f6020820190508181035f83015261124a81611211565b9050919050565b7f4e6f20736520686120696e6772657361646f206e696e67756e612063616e74695f8201527f6461640000000000000000000000000000000000000000000000000000000000602082015250565b5f6112ab602383610f5a565b91506112b682611251565b604082019050919050565b5f6020820190508181035f8301526112d88161129f565b9050919050565b7f53616c646f20696e737566696369656e746500000000000000000000000000005f82015250565b5f611313601283610f5a565b915061131e826112df565b602082019050919050565b5f6020820190508181035f83015261134081611307565b9050919050565b5f61135182610d3e565b915061135c83610d3e565b925082820261136a81610d3e565b9150828204841483151761138157611380611189565b5b5092915050565b7f4e487b71000000000000000000000000000000000000000000000000000000005f52601260045260245ffd5b5f6113bf82610d3e565b91506113ca83610d3e565b9250826113da576113d9611388565b5b828204905092915050565b5f6113ef82610d3e565b91506113fa83610d3e565b925082820190508082111561141257611411611189565b5b92915050565b5f60408201905061142b5f830185610d9c565b6114386020830184610d9c565b9392505050565b7f456c207072696d6572206e6f6d627265206e6f207075656465206573746172205f8201527f766163696f000000000000000000000000000000000000000000000000000000602082015250565b5f611499602583610f5a565b91506114a48261143f565b604082019050919050565b5f6020820190508181035f8301526114c68161148d565b9050919050565b7f456c206170656c6c69646f206e6f20707565646520657374617220766163696f5f82015250565b5f611501602083610f5a565b915061150c826114cd565b602082019050919050565b5f6020820190508181035f83015261152e816114f5565b9050919050565b7f5573756172696f207961207265676973747261646f00000000000000000000005f82015250565b5f611569601583610f5a565b915061157482611535565b602082019050919050565b5f6020820190508181035f8301526115968161155d565b9050919050565b7f4e487b71000000000000000000000000000000000000000000000000000000005f52604160045260245ffd5b7f4e487b71000000000000000000000000000000000000000000000000000000005f52602260045260245ffd5b5f600282049050600182168061160e57607f821691505b602082108103611621576116206115ca565b5b50919050565b5f819050815f5260205f209050919050565b5f6020601f8301049050919050565b5f82821b905092915050565b5f600883026116837fffffffffffffffffffffffffffffffffffffffffffffffffffffffffffffffff82611648565b61168d8683611648565b95508019841693508086168417925050509392505050565b5f819050919050565b5f6116c86116c36116be84610d3e565b6116a5565b610d3e565b9050919050565b5f819050919050565b6116e1836116ae565b6116f56116ed826116cf565b848454611654565b825550505050565b5f90565b6117096116fd565b6117148184846116d8565b505050565b5b818110156117375761172c5f82611701565b60018101905061171a565b5050565b601f82111561177c5761174d81611627565b61175684611639565b81016020851015611765578190505b61177961177185611639565b830182611719565b50505b505050565b5f82821c905092915050565b5f61179c5f1984600802611781565b1980831691505092915050565b5f6117b4838361178d565b9150826002028217905092915050565b6117cd82610f50565b67ffffffffffffffff8111156117e6576117e561159d565b5b6117f082546115f7565b6117fb82828561173b565b5f60209050601f83116001811461182c575f841561181a578287015190505b61182485826117a9565b86555061188b565b601f19841661183a86611627565b5f5b828110156118615784890151825560018201915060208501945060208101905061183c565b8683101561187e578489015161187a601f89168261178d565b8355505b6001600288020188555050505b505050505050565b828183375f83830152505050565b5f6118ac8385610f5a565b93506118b9838584611893565b6118c283610f78565b840190509392505050565b5f6040820190508181035f8301526118e68186886118a1565b905081810360208301526118fb8184866118a1565b90509594505050505056fea26469706673582212202b4ed1439cd0c9f1ce3aeb9b4662538a3db3ba780113ab602751a2dc0e0ff6bf64736f6c634300081a0033",
			"opcodes": "PUSH1 0x80 PUSH1 0x40 MSTORE CALLVALUE DUP1 ISZERO PUSH2 0xF JUMPI PUSH0 DUP1 REVERT JUMPDEST POP PUSH1 0x40 MLOAD PUSH2 0x1C71 CODESIZE SUB DUP1 PUSH2 0x1C71 DUP4 CODECOPY DUP2 DUP2 ADD PUSH1 0x40 MSTORE DUP2 ADD SWAP1 PUSH2 0x31 SWAP2 SWAP1 PUSH2 0x20A JUMP JUMPDEST PUSH0 PUSH20 0xFFFFFFFFFFFFFFFFFFFFFFFFFFFFFFFFFFFFFFFF AND DUP2 PUSH20 0xFFFFFFFFFFFFFFFFFFFFFFFFFFFFFFFFFFFFFFFF AND SUB PUSH2 0x9F JUMPI PUSH1 0x40 MLOAD PUSH32 0x8C379A000000000000000000000000000000000000000000000000000000000 DUP2 MSTORE PUSH1 0x4 ADD PUSH2 0x96 SWAP1 PUSH2 0x2A2 JUMP JUMPDEST PUSH1 0x40 MLOAD DUP1 SWAP2 SUB SWAP1 REVERT JUMPDEST PUSH2 0x2710 DUP3 GT ISZERO PUSH2 0xE4 JUMPI PUSH1 0x40 MLOAD PUSH32 0x8C379A000000000000000000000000000000000000000000000000000000000 DUP2 MSTORE PUSH1 0x4 ADD PUSH2 0xDB SWAP1 PUSH2 0x30A JUMP JUMPDEST PUSH1 0x40 MLOAD DUP1 SWAP2 SUB SWAP1 REVERT JUMPDEST CALLER PUSH1 0x1 PUSH0 PUSH2 0x100 EXP DUP2 SLOAD DUP2 PUSH20 0xFFFFFFFFFFFFFFFFFFFFFFFFFFFFFFFFFFFFFFFF MUL NOT AND SWAP1 DUP4 PUSH20 0xFFFFFFFFFFFFFFFFFFFFFFFFFFFFFFFFFFFFFFFF AND MUL OR SWAP1 SSTORE POP DUP2 PUSH1 0x3 DUP2 SWAP1 SSTORE POP DUP1 PUSH1 0x2 PUSH0 PUSH2 0x100 EXP DUP2 SLOAD DUP2 PUSH20 0xFFFFFFFFFFFFFFFFFFFFFFFFFFFFFFFFFFFFFFFF MUL NOT AND SWAP1 DUP4 PUSH20 0xFFFFFFFFFFFFFFFFFFFFFFFFFFFFFFFFFFFFFFFF AND MUL OR SWAP1 SSTORE POP PUSH0 PUSH1 0x4 DUP2 SWAP1 SSTORE POP POP POP PUSH2 0x328 JUMP JUMPDEST PUSH0 DUP1 REVERT JUMPDEST PUSH0 DUP2 SWAP1 POP SWAP2 SWAP1 POP JUMP JUMPDEST PUSH2 0x18F DUP2 PUSH2 0x17D JUMP JUMPDEST DUP2 EQ PUSH2 0x199 JUMPI PUSH0 DUP1 REVERT JUMPDEST POP JUMP JUMPDEST PUSH0 DUP2 MLOAD SWAP1 POP PUSH2 0x1AA DUP2 PUSH2 0x186 JUMP JUMPDEST SWAP3 SWAP2 POP POP JUMP JUMPDEST PUSH0 PUSH20 0xFFFFFFFFFFFFFFFFFFFFFFFFFFFFFFFFFFFFFFFF DUP3 AND SWAP1 POP SWAP2 SWAP1 POP JUMP JUMPDEST PUSH0 PUSH2 0x1D9 DUP3 PUSH2 0x1B0 JUMP JUMPDEST SWAP1 POP SWAP2 SWAP1 POP JUMP JUMPDEST PUSH2 0x1E9 DUP2 PUSH2 0x1CF JUMP JUMPDEST DUP2 EQ PUSH2 0x1F3 JUMPI PUSH0 DUP1 REVERT JUMPDEST POP JUMP JUMPDEST PUSH0 DUP2 MLOAD SWAP1 POP PUSH2 0x204 DUP2 PUSH2 0x1E0 JUMP JUMPDEST SWAP3 SWAP2 POP POP JUMP JUMPDEST PUSH0 DUP1 PUSH1 0x40 DUP4 DUP6 SUB SLT ISZERO PUSH2 0x220 JUMPI PUSH2 0x21F PUSH2 0x179 JUMP JUMPDEST JUMPDEST PUSH0 PUSH2 0x22D DUP6 DUP3 DUP7 ADD PUSH2 0x19C JUMP JUMPDEST SWAP3 POP POP PUSH1 0x20 PUSH2 0x23E DUP6 DUP3 DUP7 ADD PUSH2 0x1F6 JUMP JUMPDEST SWAP2 POP POP SWAP3 POP SWAP3 SWAP1 POP JUMP JUMPDEST PUSH0 DUP3 DUP3 MSTORE PUSH1 0x20 DUP3 ADD SWAP1 POP SWAP3 SWAP2 POP POP JUMP JUMPDEST PUSH32 0x5465736F7265726961206E6F2076616C69646100000000000000000000000000 PUSH0 DUP3 ADD MSTORE POP JUMP JUMPDEST PUSH0 PUSH2 0x28C PUSH1 0x13 DUP4 PUSH2 0x248 JUMP JUMPDEST SWAP2 POP PUSH2 0x297 DUP3 PUSH2 0x258 JUMP JUMPDEST PUSH1 0x20 DUP3 ADD SWAP1 POP SWAP2 SWAP1 POP JUMP JUMPDEST PUSH0 PUSH1 0x20 DUP3 ADD SWAP1 POP DUP2 DUP2 SUB PUSH0 DUP4 ADD MSTORE PUSH2 0x2B9 DUP2 PUSH2 0x280 JUMP JUMPDEST SWAP1 POP SWAP2 SWAP1 POP JUMP JUMPDEST PUSH32 0x466565206465626520736572203C3D2031303030302070620000000000000000 PUSH0 DUP3 ADD MSTORE POP JUMP JUMPDEST PUSH0 PUSH2 0x2F4 PUSH1 0x18 DUP4 PUSH2 0x248 JUMP JUMPDEST SWAP2 POP PUSH2 0x2FF DUP3 PUSH2 0x2C0 JUMP JUMPDEST PUSH1 0x20 DUP3 ADD SWAP1 POP SWAP2 SWAP1 POP JUMP JUMPDEST PUSH0 PUSH1 0x20 DUP3 ADD SWAP1 POP DUP2 DUP2 SUB PUSH0 DUP4 ADD MSTORE PUSH2 0x321 DUP2 PUSH2 0x2E8 JUMP JUMPDEST SWAP1 POP SWAP2 SWAP1 POP JUMP JUMPDEST PUSH2 0x193C DUP1 PUSH2 0x335 PUSH0 CODECOPY PUSH0 RETURN INVALID PUSH1 0x80 PUSH1 0x40 MSTORE PUSH1 0x4 CALLDATASIZE LT PUSH2 0x90 JUMPI PUSH0 CALLDATALOAD PUSH1 0xE0 SHR DUP1 PUSH4 0x8DA5CB5B GT PUSH2 0x58 JUMPI DUP1 PUSH4 0x8DA5CB5B EQ PUSH2 0x160 JUMPI DUP1 PUSH4 0xA87430BA EQ PUSH2 0x18A JUMPI DUP1 PUSH4 0xD0E30DB0 EQ PUSH2 0x1C9 JUMPI DUP1 PUSH4 0xDDCA3F43 EQ PUSH2 0x1D3 JUMPI DUP1 PUSH4 0xE933DC54 EQ PUSH2 0x1FD JUMPI PUSH2 0x90 JUMP JUMPDEST DUP1 PUSH4 0x11F1FC99 EQ PUSH2 0x94 JUMPI DUP1 PUSH4 0x12065FE0 EQ PUSH2 0xBC JUMPI DUP1 PUSH4 0x229DFE4A EQ PUSH2 0xE6 JUMPI DUP1 PUSH4 0x2E1A7D4D EQ PUSH2 0x110 JUMPI DUP1 PUSH4 0x3FFBD47F EQ PUSH2 0x138 JUMPI JUMPDEST PUSH0 DUP1 REVERT JUMPDEST CALLVALUE DUP1 ISZERO PUSH2 0x9F JUMPI PUSH0 DUP1 REVERT JUMPDEST POP PUSH2 0xBA PUSH1 0x4 DUP1 CALLDATASIZE SUB DUP2 ADD SWAP1 PUSH2 0xB5 SWAP2 SWAP1 PUSH2 0xD71 JUMP JUMPDEST PUSH2 0x227 JUMP JUMPDEST STOP JUMPDEST CALLVALUE DUP1 ISZERO PUSH2 0xC7 JUMPI PUSH0 DUP1 REVERT JUMPDEST POP PUSH2 0xD0 PUSH2 0x42C JUMP JUMPDEST PUSH1 0x40 MLOAD PUSH2 0xDD SWAP2 SWAP1 PUSH2 0xDAB JUMP JUMPDEST PUSH1 0x40 MLOAD DUP1 SWAP2 SUB SWAP1 RETURN JUMPDEST CALLVALUE DUP1 ISZERO PUSH2 0xF1 JUMPI PUSH0 DUP1 REVERT JUMPDEST POP PUSH2 0xFA PUSH2 0x4FD JUMP JUMPDEST PUSH1 0x40 MLOAD PUSH2 0x107 SWAP2 SWAP1 PUSH2 0xDAB JUMP JUMPDEST PUSH1 0x40 MLOAD DUP1 SWAP2 SUB SWAP1 RETURN JUMPDEST CALLVALUE DUP1 ISZERO PUSH2 0x11B JUMPI PUSH0 DUP1 REVERT JUMPDEST POP PUSH2 0x136 PUSH1 0x4 DUP1 CALLDATASIZE SUB DUP2 ADD SWAP1 PUSH2 0x131 SWAP2 SWAP1 PUSH2 0xD71 JUMP JUMPDEST PUSH2 0x503 JUMP JUMPDEST STOP JUMPDEST CALLVALUE DUP1 ISZERO PUSH2 0x143 JUMPI PUSH0 DUP1 REVERT JUMPDEST POP PUSH2 0x15E PUSH1 0x4 DUP1 CALLDATASIZE SUB DUP2 ADD SWAP1 PUSH2 0x159 SWAP2 SWAP1 PUSH2 0xE25 JUMP JUMPDEST PUSH2 0x785 JUMP JUMPDEST STOP JUMPDEST CALLVALUE DUP1 ISZERO PUSH2 0x16B JUMPI PUSH0 DUP1 REVERT JUMPDEST POP PUSH2 0x174 PUSH2 0xA31 JUMP JUMPDEST PUSH1 0x40 MLOAD PUSH2 0x181 SWAP2 SWAP1 PUSH2 0xEE2 JUMP JUMPDEST PUSH1 0x40 MLOAD DUP1 SWAP2 SUB SWAP1 RETURN JUMPDEST CALLVALUE DUP1 ISZERO PUSH2 0x195 JUMPI PUSH0 DUP1 REVERT JUMPDEST POP PUSH2 0x1B0 PUSH1 0x4 DUP1 CALLDATASIZE SUB DUP2 ADD SWAP1 PUSH2 0x1AB SWAP2 SWAP1 PUSH2 0xF25 JUMP JUMPDEST PUSH2 0xA56 JUMP JUMPDEST PUSH1 0x40 MLOAD PUSH2 0x1C0 SWAP5 SWAP4 SWAP3 SWAP2 SWAP1 PUSH2 0xFDA JUMP JUMPDEST PUSH1 0x40 MLOAD DUP1 SWAP2 SUB SWAP1 RETURN JUMPDEST PUSH2 0x1D1 PUSH2 0xB99 JUMP JUMPDEST STOP JUMPDEST CALLVALUE DUP1 ISZERO PUSH2 0x1DE JUMPI PUSH0 DUP1 REVERT JUMPDEST POP PUSH2 0x1E7 PUSH2 0xD0B JUMP JUMPDEST PUSH1 0x40 MLOAD PUSH2 0x1F4 SWAP2 SWAP1 PUSH2 0xDAB JUMP JUMPDEST PUSH1 0x40 MLOAD DUP1 SWAP2 SUB SWAP1 RETURN JUMPDEST CALLVALUE DUP1 ISZERO PUSH2 0x208 JUMPI PUSH0 DUP1 REVERT JUMPDEST POP PUSH2 0x211 PUSH2 0xD11 JUMP JUMPDEST PUSH1 0x40 MLOAD PUSH2 0x21E SWAP2 SWAP1 PUSH2 0xEE2 JUMP JUMPDEST PUSH1 0x40 MLOAD DUP1 SWAP2 SUB SWAP1 RETURN JUMPDEST PUSH1 0x1 PUSH0 SWAP1 SLOAD SWAP1 PUSH2 0x100 EXP SWAP1 DIV PUSH20 0xFFFFFFFFFFFFFFFFFFFFFFFFFFFFFFFFFFFFFFFF AND PUSH20 0xFFFFFFFFFFFFFFFFFFFFFFFFFFFFFFFFFFFFFFFF AND CALLER PUSH20 0xFFFFFFFFFFFFFFFFFFFFFFFFFFFFFFFFFFFFFFFF AND EQ PUSH2 0x2B6 JUMPI PUSH1 0x40 MLOAD PUSH32 0x8C379A000000000000000000000000000000000000000000000000000000000 DUP2 MSTORE PUSH1 0x4 ADD PUSH2 0x2AD SWAP1 PUSH2 0x109B JUMP JUMPDEST PUSH1 0x40 MLOAD DUP1 SWAP2 SUB SWAP1 REVERT JUMPDEST PUSH0 DUP2 GT PUSH2 0x2F8 JUMPI PUSH1 0x40 MLOAD PUSH32 0x8C379A000000000000000000000000000000000000000000000000000000000 DUP2 MSTORE PUSH1 0x4 ADD PUSH2 0x2EF SWAP1 PUSH2 0x1103 JUMP JUMPDEST PUSH1 0x40 MLOAD DUP1 SWAP2 SUB SWAP1 REVERT JUMPDEST DUP1 PUSH1 0x4 SLOAD LT ISZERO PUSH2 0x33D JUMPI PUSH1 0x40 MLOAD PUSH32 0x8C379A000000000000000000000000000000000000000000000000000000000 DUP2 MSTORE PUSH1 0x4 ADD PUSH2 0x334 SWAP1 PUSH2 0x116B JUMP JUMPDEST PUSH1 0x40 MLOAD DUP1 SWAP2 SUB SWAP1 REVERT JUMPDEST DUP1 PUSH1 0x4 PUSH0 DUP3 DUP3 SLOAD PUSH2 0x34E SWAP2 SWAP1 PUSH2 0x11B6 JUMP JUMPDEST SWAP3 POP POP DUP2 SWAP1 SSTORE POP PUSH1 0x1 PUSH0 SWAP1 SLOAD SWAP1 PUSH2 0x100 EXP SWAP1 DIV PUSH20 0xFFFFFFFFFFFFFFFFFFFFFFFFFFFFFFFFFFFFFFFF AND PUSH20 0xFFFFFFFFFFFFFFFFFFFFFFFFFFFFFFFFFFFFFFFF AND PUSH2 0x8FC DUP3 SWAP1 DUP2 ISZERO MUL SWAP1 PUSH1 0x40 MLOAD PUSH0 PUSH1 0x40 MLOAD DUP1 DUP4 SUB DUP2 DUP6 DUP9 DUP9 CALL SWAP4 POP POP POP POP ISZERO DUP1 ISZERO PUSH2 0x3B9 JUMPI RETURNDATASIZE PUSH0 DUP1 RETURNDATACOPY RETURNDATASIZE PUSH0 REVERT JUMPDEST POP PUSH1 0x1 PUSH0 SWAP1 SLOAD SWAP1 PUSH2 0x100 EXP SWAP1 DIV PUSH20 0xFFFFFFFFFFFFFFFFFFFFFFFFFFFFFFFFFFFFFFFF AND PUSH20 0xFFFFFFFFFFFFFFFFFFFFFFFFFFFFFFFFFFFFFFFF AND PUSH32 0x233C84DC0C19FBF51F9FA92214FFD8A59F512E0098BFF5827455D02E401221C0 DUP3 PUSH1 0x40 MLOAD PUSH2 0x421 SWAP2 SWAP1 PUSH2 0xDAB JUMP JUMPDEST PUSH1 0x40 MLOAD DUP1 SWAP2 SUB SWAP1 LOG2 POP JUMP JUMPDEST PUSH0 DUP1 PUSH0 CALLER PUSH20 0xFFFFFFFFFFFFFFFFFFFFFFFFFFFFFFFFFFFFFFFF AND PUSH20 0xFFFFFFFFFFFFFFFFFFFFFFFFFFFFFFFFFFFFFFFF AND DUP2 MSTORE PUSH1 0x20 ADD SWAP1 DUP2 MSTORE PUSH1 0x20 ADD PUSH0 KECCAK256 PUSH1 0x3 ADD PUSH0 SWAP1 SLOAD SWAP1 PUSH2 0x100 EXP SWAP1 DIV PUSH1 0xFF AND PUSH2 0x4B8 JUMPI PUSH1 0x40 MLOAD PUSH32 0x8C379A000000000000000000000000000000000000000000000000000000000 DUP2 MSTORE PUSH1 0x4 ADD PUSH2 0x4AF SWAP1 PUSH2 0x1233 JUMP JUMPDEST PUSH1 0x40 MLOAD DUP1 SWAP2 SUB SWAP1 REVERT JUMPDEST PUSH0 DUP1 CALLER PUSH20 0xFFFFFFFFFFFFFFFFFFFFFFFFFFFFFFFFFFFFFFFF AND PUSH20 0xFFFFFFFFFFFFFFFFFFFFFFFFFFFFFFFFFFFFFFFF AND DUP2 MSTORE PUSH1 0x20 ADD SWAP1 DUP2 MSTORE PUSH1 0x20 ADD PUSH0 KECCAK256 PUSH1 0x2 ADD SLOAD SWAP1 POP SWAP1 JUMP JUMPDEST PUSH1 0x4 SLOAD DUP2 JUMP JUMPDEST PUSH0 DUP1 CALLER PUSH20 0xFFFFFFFFFFFFFFFFFFFFFFFFFFFFFFFFFFFFFFFF AND PUSH20 0xFFFFFFFFFFFFFFFFFFFFFFFFFFFFFFFFFFFFFFFF AND DUP2 MSTORE PUSH1 0x20 ADD SWAP1 DUP2 MSTORE PUSH1 0x20 ADD PUSH0 KECCAK256 PUSH1 0x3 ADD PUSH0 SWAP1 SLOAD SWAP1 PUSH2 0x100 EXP SWAP1 DIV PUSH1 0xFF AND PUSH2 0x58E JUMPI PUSH1 0x40 MLOAD PUSH32 0x8C379A000000000000000000000000000000000000000000000000000000000 DUP2 MSTORE PUSH1 0x4 ADD PUSH2 0x585 SWAP1 PUSH2 0x1233 JUMP JUMPDEST PUSH1 0x40 MLOAD DUP1 SWAP2 SUB SWAP1 REVERT JUMPDEST PUSH0 DUP2 GT PUSH2 0x5D0 JUMPI PUSH1 0x40 MLOAD PUSH32 0x8C379A000000000000000000000000000000000000000000000000000000000 DUP2 MSTORE PUSH1 0x4 ADD PUSH2 0x5C7 SWAP1 PUSH2 0x12C1 JUMP JUMPDEST PUSH1 0x40 MLOAD DUP1 SWAP2 SUB SWAP1 REVERT JUMPDEST DUP1 PUSH0 DUP1 CALLER PUSH20 0xFFFFFFFFFFFFFFFFFFFFFFFFFFFFFFFFFFFFFFFF AND PUSH20 0xFFFFFFFFFFFFFFFFFFFFFFFFFFFFFFFFFFFFFFFF AND DUP2 MSTORE PUSH1 0x20 ADD SWAP1 DUP2 MSTORE PUSH1 0x20 ADD PUSH0 KECCAK256 PUSH1 0x2 ADD SLOAD LT ISZERO PUSH2 0x652 JUMPI PUSH1 0x40 MLOAD PUSH32 0x8C379A000000000000000000000000000000000000000000000000000000000 DUP2 MSTORE PUSH1 0x4 ADD PUSH2 0x649 SWAP1 PUSH2 0x1329 JUMP JUMPDEST PUSH1 0x40 MLOAD DUP1 SWAP2 SUB SWAP1 REVERT JUMPDEST PUSH0 PUSH2 0x2710 PUSH1 0x3 SLOAD DUP4 PUSH2 0x664 SWAP2 SWAP1 PUSH2 0x1347 JUMP JUMPDEST PUSH2 0x66E SWAP2 SWAP1 PUSH2 0x13B5 JUMP JUMPDEST SWAP1 POP PUSH0 DUP2 DUP4 PUSH2 0x67D SWAP2 SWAP1 PUSH2 0x11B6 JUMP JUMPDEST SWAP1 POP DUP3 PUSH0 DUP1 CALLER PUSH20 0xFFFFFFFFFFFFFFFFFFFFFFFFFFFFFFFFFFFFFFFF AND PUSH20 0xFFFFFFFFFFFFFFFFFFFFFFFFFFFFFFFFFFFFFFFF AND DUP2 MSTORE PUSH1 0x20 ADD SWAP1 DUP2 MSTORE PUSH1 0x20 ADD PUSH0 KECCAK256 PUSH1 0x2 ADD PUSH0 DUP3 DUP3 SLOAD PUSH2 0x6CD SWAP2 SWAP1 PUSH2 0x11B6 JUMP JUMPDEST SWAP3 POP POP DUP2 SWAP1 SSTORE POP DUP2 PUSH1 0x4 PUSH0 DUP3 DUP3 SLOAD PUSH2 0x6E5 SWAP2 SWAP1 PUSH2 0x13E5 JUMP JUMPDEST SWAP3 POP POP DUP2 SWAP1 SSTORE POP CALLER PUSH20 0xFFFFFFFFFFFFFFFFFFFFFFFFFFFFFFFFFFFFFFFF AND PUSH2 0x8FC DUP3 SWAP1 DUP2 ISZERO MUL SWAP1 PUSH1 0x40 MLOAD PUSH0 PUSH1 0x40 MLOAD DUP1 DUP4 SUB DUP2 DUP6 DUP9 DUP9 CALL SWAP4 POP POP POP POP ISZERO DUP1 ISZERO PUSH2 0x72F JUMPI RETURNDATASIZE PUSH0 DUP1 RETURNDATACOPY RETURNDATASIZE PUSH0 REVERT JUMPDEST POP CALLER PUSH20 0xFFFFFFFFFFFFFFFFFFFFFFFFFFFFFFFFFFFFFFFF AND PUSH32 0xDF273CB619D95419A9CD0EC88123A0538C85064229BAA6363788F743FFF90DEB DUP5 DUP5 PUSH1 0x40 MLOAD PUSH2 0x778 SWAP3 SWAP2 SWAP1 PUSH2 0x1418 JUMP JUMPDEST PUSH1 0x40 MLOAD DUP1 SWAP2 SUB SWAP1 LOG2 POP POP POP JUMP JUMPDEST PUSH0 DUP5 DUP5 SWAP1 POP GT PUSH2 0x7CA JUMPI PUSH1 0x40 MLOAD PUSH32 0x8C379A000000000000000000000000000000000000000000000000000000000 DUP2 MSTORE PUSH1 0x4 ADD PUSH2 0x7C1 SWAP1 PUSH2 0x14AF JUMP JUMPDEST PUSH1 0x40 MLOAD DUP1 SWAP2 SUB SWAP1 REVERT JUMPDEST PUSH0 DUP3 DUP3 SWAP1 POP GT PUSH2 0x80F JUMPI PUSH1 0x40 MLOAD PUSH32 0x8C379A000000000000000000000000000000000000000000000000000000000 DUP2 MSTORE PUSH1 0x4 ADD PUSH2 0x806 SWAP1 PUSH2 0x1517 JUMP JUMPDEST PUSH1 0x40 MLOAD DUP1 SWAP2 SUB SWAP1 REVERT JUMPDEST PUSH0 DUP1 CALLER PUSH20 0xFFFFFFFFFFFFFFFFFFFFFFFFFFFFFFFFFFFFFFFF AND PUSH20 0xFFFFFFFFFFFFFFFFFFFFFFFFFFFFFFFFFFFFFFFF AND DUP2 MSTORE PUSH1 0x20 ADD SWAP1 DUP2 MSTORE PUSH1 0x20 ADD PUSH0 KECCAK256 PUSH1 0x3 ADD PUSH0 SWAP1 SLOAD SWAP1 PUSH2 0x100 EXP SWAP1 DIV PUSH1 0xFF AND ISZERO PUSH2 0x89B JUMPI PUSH1 0x40 MLOAD PUSH32 0x8C379A000000000000000000000000000000000000000000000000000000000 DUP2 MSTORE PUSH1 0x4 ADD PUSH2 0x892 SWAP1 PUSH2 0x157F JUMP JUMPDEST PUSH1 0x40 MLOAD DUP1 SWAP2 SUB SWAP1 REVERT JUMPDEST PUSH1 0x40 MLOAD DUP1 PUSH1 0x80 ADD PUSH1 0x40 MSTORE DUP1 DUP6 DUP6 DUP1 DUP1 PUSH1 0x1F ADD PUSH1 0x20 DUP1 SWAP2 DIV MUL PUSH1 0x20 ADD PUSH1 0x40 MLOAD SWAP1 DUP2 ADD PUSH1 0x40 MSTORE DUP1 SWAP4 SWAP3 SWAP2 SWAP1 DUP2 DUP2 MSTORE PUSH1 0x20 ADD DUP4 DUP4 DUP1 DUP3 DUP5 CALLDATACOPY PUSH0 DUP2 DUP5 ADD MSTORE PUSH1 0x1F NOT PUSH1 0x1F DUP3 ADD AND SWAP1 POP DUP1 DUP4 ADD SWAP3 POP POP POP POP POP POP POP DUP2 MSTORE PUSH1 0x20 ADD DUP4 DUP4 DUP1 DUP1 PUSH1 0x1F ADD PUSH1 0x20 DUP1 SWAP2 DIV MUL PUSH1 0x20 ADD PUSH1 0x40 MLOAD SWAP1 DUP2 ADD PUSH1 0x40 MSTORE DUP1 SWAP4 SWAP3 SWAP2 SWAP1 DUP2 DUP2 MSTORE PUSH1 0x20 ADD DUP4 DUP4 DUP1 DUP3 DUP5 CALLDATACOPY PUSH0 DUP2 DUP5 ADD MSTORE PUSH1 0x1F NOT PUSH1 0x1F DUP3 ADD AND SWAP1 POP DUP1 DUP4 ADD SWAP3 POP POP POP POP POP POP POP DUP2 MSTORE PUSH1 0x20 ADD PUSH0 DUP2 MSTORE PUSH1 0x20 ADD PUSH1 0x1 ISZERO ISZERO DUP2 MSTORE POP PUSH0 DUP1 CALLER PUSH20 0xFFFFFFFFFFFFFFFFFFFFFFFFFFFFFFFFFFFFFFFF AND PUSH20 0xFFFFFFFFFFFFFFFFFFFFFFFFFFFFFFFFFFFFFFFF AND DUP2 MSTORE PUSH1 0x20 ADD SWAP1 DUP2 MSTORE PUSH1 0x20 ADD PUSH0 KECCAK256 PUSH0 DUP3 ADD MLOAD DUP2 PUSH0 ADD SWAP1 DUP2 PUSH2 0x994 SWAP2 SWAP1 PUSH2 0x17C4 JUMP JUMPDEST POP PUSH1 0x20 DUP3 ADD MLOAD DUP2 PUSH1 0x1 ADD SWAP1 DUP2 PUSH2 0x9AA SWAP2 SWAP1 PUSH2 0x17C4 JUMP JUMPDEST POP PUSH1 0x40 DUP3 ADD MLOAD DUP2 PUSH1 0x2 ADD SSTORE PUSH1 0x60 DUP3 ADD MLOAD DUP2 PUSH1 0x3 ADD PUSH0 PUSH2 0x100 EXP DUP2 SLOAD DUP2 PUSH1 0xFF MUL NOT AND SWAP1 DUP4 ISZERO ISZERO MUL OR SWAP1 SSTORE POP SWAP1 POP POP CALLER PUSH20 0xFFFFFFFFFFFFFFFFFFFFFFFFFFFFFFFFFFFFFFFF AND PUSH32 0x92822564BAB8864C3A47B34E8D23FBCE5C46234EB5DA261F94087B995AC0F33B DUP6 DUP6 DUP6 DUP6 PUSH1 0x40 MLOAD PUSH2 0xA23 SWAP5 SWAP4 SWAP3 SWAP2 SWAP1 PUSH2 0x18CD JUMP JUMPDEST PUSH1 0x40 MLOAD DUP1 SWAP2 SUB SWAP1 LOG2 POP POP POP POP JUMP JUMPDEST PUSH1 0x1 PUSH0 SWAP1 SLOAD SWAP1 PUSH2 0x100 EXP SWAP1 DIV PUSH20 0xFFFFFFFFFFFFFFFFFFFFFFFFFFFFFFFFFFFFFFFF AND DUP2 JUMP JUMPDEST PUSH0 PUSH1 0x20 MSTORE DUP1 PUSH0 MSTORE PUSH1 0x40 PUSH0 KECCAK256 PUSH0 SWAP2 POP SWAP1 POP DUP1 PUSH0 ADD DUP1 SLOAD PUSH2 0xA74 SWAP1 PUSH2 0x15F7 JUMP JUMPDEST DUP1 PUSH1 0x1F ADD PUSH1 0x20 DUP1 SWAP2 DIV MUL PUSH1 0x20 ADD PUSH1 0x40 MLOAD SWAP1 DUP2 ADD PUSH1 0x40 MSTORE DUP1 SWAP3 SWAP2 SWAP1 DUP2 DUP2 MSTORE PUSH1 0x20 ADD DUP3 DUP1 SLOAD PUSH2 0xAA0 SWAP1 PUSH2 0x15F7 JUMP JUMPDEST DUP1 ISZERO PUSH2 0xAEB JUMPI DUP1 PUSH1 0x1F LT PUSH2 0xAC2 JUMPI PUSH2 0x100 DUP1 DUP4 SLOAD DIV MUL DUP4 MSTORE SWAP2 PUSH1 0x20 ADD SWAP2 PUSH2 0xAEB JUMP JUMPDEST DUP3 ADD SWAP2 SWAP1 PUSH0 MSTORE PUSH1 0x20 PUSH0 KECCAK256 SWAP1 JUMPDEST DUP2 SLOAD DUP2 MSTORE SWAP1 PUSH1 0x1 ADD SWAP1 PUSH1 0x20 ADD DUP1 DUP4 GT PUSH2 0xACE JUMPI DUP3 SWAP1 SUB PUSH1 0x1F AND DUP3 ADD SWAP2 JUMPDEST POP POP POP POP POP SWAP1 DUP1 PUSH1 0x1 ADD DUP1 SLOAD PUSH2 0xB00 SWAP1 PUSH2 0x15F7 JUMP JUMPDEST DUP1 PUSH1 0x1F ADD PUSH1 0x20 DUP1 SWAP2 DIV MUL PUSH1 0x20 ADD PUSH1 0x40 MLOAD SWAP1 DUP2 ADD PUSH1 0x40 MSTORE DUP1 SWAP3 SWAP2 SWAP1 DUP2 DUP2 MSTORE PUSH1 0x20 ADD DUP3 DUP1 SLOAD PUSH2 0xB2C SWAP1 PUSH2 0x15F7 JUMP JUMPDEST DUP1 ISZERO PUSH2 0xB77 JUMPI DUP1 PUSH1 0x1F LT PUSH2 0xB4E JUMPI PUSH2 0x100 DUP1 DUP4 SLOAD DIV MUL DUP4 MSTORE SWAP2 PUSH1 0x20 ADD SWAP2 PUSH2 0xB77 JUMP JUMPDEST DUP3 ADD SWAP2 SWAP1 PUSH0 MSTORE PUSH1 0x20 PUSH0 KECCAK256 SWAP1 JUMPDEST DUP2 SLOAD DUP2 MSTORE SWAP1 PUSH1 0x1 ADD SWAP1 PUSH1 0x20 ADD DUP1 DUP4 GT PUSH2 0xB5A JUMPI DUP3 SWAP1 SUB PUSH1 0x1F AND DUP3 ADD SWAP2 JUMPDEST POP POP POP POP POP SWAP1 DUP1 PUSH1 0x2 ADD SLOAD SWAP1 DUP1 PUSH1 0x3 ADD PUSH0 SWAP1 SLOAD SWAP1 PUSH2 0x100 EXP SWAP1 DIV PUSH1 0xFF AND SWAP1 POP DUP5 JUMP JUMPDEST PUSH0 DUP1 CALLER PUSH20 0xFFFFFFFFFFFFFFFFFFFFFFFFFFFFFFFFFFFFFFFF AND PUSH20 0xFFFFFFFFFFFFFFFFFFFFFFFFFFFFFFFFFFFFFFFF AND DUP2 MSTORE PUSH1 0x20 ADD SWAP1 DUP2 MSTORE PUSH1 0x20 ADD PUSH0 KECCAK256 PUSH1 0x3 ADD PUSH0 SWAP1 SLOAD SWAP1 PUSH2 0x100 EXP SWAP1 DIV PUSH1 0xFF AND PUSH2 0xC24 JUMPI PUSH1 0x40 MLOAD PUSH32 0x8C379A000000000000000000000000000000000000000000000000000000000 DUP2 MSTORE PUSH1 0x4 ADD PUSH2 0xC1B SWAP1 PUSH2 0x1233 JUMP JUMPDEST PUSH1 0x40 MLOAD DUP1 SWAP2 SUB SWAP1 REVERT JUMPDEST PUSH0 CALLVALUE GT PUSH2 0xC66 JUMPI PUSH1 0x40 MLOAD PUSH32 0x8C379A000000000000000000000000000000000000000000000000000000000 DUP2 MSTORE PUSH1 0x4 ADD PUSH2 0xC5D SWAP1 PUSH2 0x12C1 JUMP JUMPDEST PUSH1 0x40 MLOAD DUP1 SWAP2 SUB SWAP1 REVERT JUMPDEST CALLVALUE PUSH0 DUP1 CALLER PUSH20 0xFFFFFFFFFFFFFFFFFFFFFFFFFFFFFFFFFFFFFFFF AND PUSH20 0xFFFFFFFFFFFFFFFFFFFFFFFFFFFFFFFFFFFFFFFF AND DUP2 MSTORE PUSH1 0x20 ADD SWAP1 DUP2 MSTORE PUSH1 0x20 ADD PUSH0 KECCAK256 PUSH1 0x2 ADD PUSH0 DUP3 DUP3 SLOAD PUSH2 0xCB4 SWAP2 SWAP1 PUSH2 0x13E5 JUMP JUMPDEST SWAP3 POP POP DUP2 SWAP1 SSTORE POP CALLER PUSH20 0xFFFFFFFFFFFFFFFFFFFFFFFFFFFFFFFFFFFFFFFF AND PUSH32 0xE1FFFCC4923D04B559F4D29A8BFC6CDA04EB5B0D3C460751C2402C5C5CC9109C CALLVALUE PUSH1 0x40 MLOAD PUSH2 0xD01 SWAP2 SWAP1 PUSH2 0xDAB JUMP JUMPDEST PUSH1 0x40 MLOAD DUP1 SWAP2 SUB SWAP1 LOG2 JUMP JUMPDEST PUSH1 0x3 SLOAD DUP2 JUMP JUMPDEST PUSH1 0x2 PUSH0 SWAP1 SLOAD SWAP1 PUSH2 0x100 EXP SWAP1 DIV PUSH20 0xFFFFFFFFFFFFFFFFFFFFFFFFFFFFFFFFFFFFFFFF AND DUP2 JUMP JUMPDEST PUSH0 DUP1 REVERT JUMPDEST PUSH0 DUP1 REVERT JUMPDEST PUSH0 DUP2 SWAP1 POP SWAP2 SWAP1 POP JUMP JUMPDEST PUSH2 0xD50 DUP2 PUSH2 0xD3E JUMP JUMPDEST DUP2 EQ PUSH2 0xD5A JUMPI PUSH0 DUP1 REVERT JUMPDEST POP JUMP JUMPDEST PUSH0 DUP2 CALLDATALOAD SWAP1 POP PUSH2 0xD6B DUP2 PUSH2 0xD47 JUMP JUMPDEST SWAP3 SWAP2 POP POP JUMP JUMPDEST PUSH0 PUSH1 0x20 DUP3 DUP5 SUB SLT ISZERO PUSH2 0xD86 JUMPI PUSH2 0xD85 PUSH2 0xD36 JUMP JUMPDEST JUMPDEST PUSH0 PUSH2 0xD93 DUP5 DUP3 DUP6 ADD PUSH2 0xD5D JUMP JUMPDEST SWAP2 POP POP SWAP3 SWAP2 POP POP JUMP JUMPDEST PUSH2 0xDA5 DUP2 PUSH2 0xD3E JUMP JUMPDEST DUP3 MSTORE POP POP JUMP JUMPDEST PUSH0 PUSH1 0x20 DUP3 ADD SWAP1 POP PUSH2 0xDBE PUSH0 DUP4 ADD DUP5 PUSH2 0xD9C JUMP JUMPDEST SWAP3 SWAP2 POP POP JUMP JUMPDEST PUSH0 DUP1 REVERT JUMPDEST PUSH0 DUP1 REVERT JUMPDEST PUSH0 DUP1 REVERT JUMPDEST PUSH0 DUP1 DUP4 PUSH1 0x1F DUP5 ADD SLT PUSH2 0xDE5 JUMPI PUSH2 0xDE4 PUSH2 0xDC4 JUMP JUMPDEST JUMPDEST DUP3 CALLDATALOAD SWAP1 POP PUSH8 0xFFFFFFFFFFFFFFFF DUP2 GT ISZERO PUSH2 0xE02 JUMPI PUSH2 0xE01 PUSH2 0xDC8 JUMP JUMPDEST JUMPDEST PUSH1 0x20 DUP4 ADD SWAP2 POP DUP4 PUSH1 0x1 DUP3 MUL DUP4 ADD GT ISZERO PUSH2 0xE1E JUMPI PUSH2 0xE1D PUSH2 0xDCC JUMP JUMPDEST JUMPDEST SWAP3 POP SWAP3 SWAP1 POP JUMP JUMPDEST PUSH0 DUP1 PUSH0 DUP1 PUSH1 0x40 DUP6 DUP8 SUB SLT ISZERO PUSH2 0xE3D JUMPI PUSH2 0xE3C PUSH2 0xD36 JUMP JUMPDEST JUMPDEST PUSH0 DUP6 ADD CALLDATALOAD PUSH8 0xFFFFFFFFFFFFFFFF DUP2 GT ISZERO PUSH2 0xE5A JUMPI PUSH2 0xE59 PUSH2 0xD3A JUMP JUMPDEST JUMPDEST PUSH2 0xE66 DUP8 DUP3 DUP9 ADD PUSH2 0xDD0 JUMP JUMPDEST SWAP5 POP SWAP5 POP POP PUSH1 0x20 DUP6 ADD CALLDATALOAD PUSH8 0xFFFFFFFFFFFFFFFF DUP2 GT ISZERO PUSH2 0xE89 JUMPI PUSH2 0xE88 PUSH2 0xD3A JUMP JUMPDEST JUMPDEST PUSH2 0xE95 DUP8 DUP3 DUP9 ADD PUSH2 0xDD0 JUMP JUMPDEST SWAP3 POP SWAP3 POP POP SWAP3 SWAP6 SWAP2 SWAP5 POP SWAP3 POP JUMP JUMPDEST PUSH0 PUSH20 0xFFFFFFFFFFFFFFFFFFFFFFFFFFFFFFFFFFFFFFFF DUP3 AND SWAP1 POP SWAP2 SWAP1 POP JUMP JUMPDEST PUSH0 PUSH2 0xECC DUP3 PUSH2 0xEA3 JUMP JUMPDEST SWAP1 POP SWAP2 SWAP1 POP JUMP JUMPDEST PUSH2 0xEDC DUP2 PUSH2 0xEC2 JUMP JUMPDEST DUP3 MSTORE POP POP JUMP JUMPDEST PUSH0 PUSH1 0x20 DUP3 ADD SWAP1 POP PUSH2 0xEF5 PUSH0 DUP4 ADD DUP5 PUSH2 0xED3 JUMP JUMPDEST SWAP3 SWAP2 POP POP JUMP JUMPDEST PUSH2 0xF04 DUP2 PUSH2 0xEC2 JUMP JUMPDEST DUP2 EQ PUSH2 0xF0E JUMPI PUSH0 DUP1 REVERT JUMPDEST POP JUMP JUMPDEST PUSH0 DUP2 CALLDATALOAD SWAP1 POP PUSH2 0xF1F DUP2 PUSH2 0xEFB JUMP JUMPDEST SWAP3 SWAP2 POP POP JUMP JUMPDEST PUSH0 PUSH1 0x20 DUP3 DUP5 SUB SLT ISZERO PUSH2 0xF3A JUMPI PUSH2 0xF39 PUSH2 0xD36 JUMP JUMPDEST JUMPDEST PUSH0 PUSH2 0xF47 DUP5 DUP3 DUP6 ADD PUSH2 0xF11 JUMP JUMPDEST SWAP2 POP POP SWAP3 SWAP2 POP POP JUMP JUMPDEST PUSH0 DUP2 MLOAD SWAP1 POP SWAP2 SWAP1 POP JUMP JUMPDEST PUSH0 DUP3 DUP3 MSTORE PUSH1 0x20 DUP3 ADD SWAP1 POP SWAP3 SWAP2 POP POP JUMP JUMPDEST DUP3 DUP2 DUP4 MCOPY PUSH0 DUP4 DUP4 ADD MSTORE POP POP POP JUMP JUMPDEST PUSH0 PUSH1 0x1F NOT PUSH1 0x1F DUP4 ADD AND SWAP1 POP SWAP2 SWAP1 POP JUMP JUMPDEST PUSH0 PUSH2 0xF92 DUP3 PUSH2 0xF50 JUMP JUMPDEST PUSH2 0xF9C DUP2 DUP6 PUSH2 0xF5A JUMP JUMPDEST SWAP4 POP PUSH2 0xFAC DUP2 DUP6 PUSH1 0x20 DUP7 ADD PUSH2 0xF6A JUMP JUMPDEST PUSH2 0xFB5 DUP2 PUSH2 0xF78 JUMP JUMPDEST DUP5 ADD SWAP2 POP POP SWAP3 SWAP2 POP POP JUMP JUMPDEST PUSH0 DUP2 ISZERO ISZERO SWAP1 POP SWAP2 SWAP1 POP JUMP JUMPDEST PUSH2 0xFD4 DUP2 PUSH2 0xFC0 JUMP JUMPDEST DUP3 MSTORE POP POP JUMP JUMPDEST PUSH0 PUSH1 0x80 DUP3 ADD SWAP1 POP DUP2 DUP2 SUB PUSH0 DUP4 ADD MSTORE PUSH2 0xFF2 DUP2 DUP8 PUSH2 0xF88 JUMP JUMPDEST SWAP1 POP DUP2 DUP2 SUB PUSH1 0x20 DUP4 ADD MSTORE PUSH2 0x1006 DUP2 DUP7 PUSH2 0xF88 JUMP JUMPDEST SWAP1 POP PUSH2 0x1015 PUSH1 0x40 DUP4 ADD DUP6 PUSH2 0xD9C JUMP JUMPDEST PUSH2 0x1022 PUSH1 0x60 DUP4 ADD DUP5 PUSH2 0xFCB JUMP JUMPDEST SWAP6 SWAP5 POP POP POP POP POP JUMP JUMPDEST PUSH32 0x4F6E6C79206F776E65722063616E2063616C6C20746869732066756E6374696F PUSH0 DUP3 ADD MSTORE PUSH32 0x6E00000000000000000000000000000000000000000000000000000000000000 PUSH1 0x20 DUP3 ADD MSTORE POP JUMP JUMPDEST PUSH0 PUSH2 0x1085 PUSH1 0x21 DUP4 PUSH2 0xF5A JUMP JUMPDEST SWAP2 POP PUSH2 0x1090 DUP3 PUSH2 0x102B JUMP JUMPDEST PUSH1 0x40 DUP3 ADD SWAP1 POP SWAP2 SWAP1 POP JUMP JUMPDEST PUSH0 PUSH1 0x20 DUP3 ADD SWAP1 POP DUP2 DUP2 SUB PUSH0 DUP4 ADD MSTORE PUSH2 0x10B2 DUP2 PUSH2 0x1079 JUMP JUMPDEST SWAP1 POP SWAP2 SWAP1 POP JUMP JUMPDEST PUSH32 0x4D6F6E746F206465626520736572206D61796F722061206365726F0000000000 PUSH0 DUP3 ADD MSTORE POP JUMP JUMPDEST PUSH0 PUSH2 0x10ED PUSH1 0x1B DUP4 PUSH2 0xF5A JUMP JUMPDEST SWAP2 POP PUSH2 0x10F8 DUP3 PUSH2 0x10B9 JUMP JUMPDEST PUSH1 0x20 DUP3 ADD SWAP1 POP SWAP2 SWAP1 POP JUMP JUMPDEST PUSH0 PUSH1 0x20 DUP3 ADD SWAP1 POP DUP2 DUP2 SUB PUSH0 DUP4 ADD MSTORE PUSH2 0x111A DUP2 PUSH2 0x10E1 JUMP JUMPDEST SWAP1 POP SWAP2 SWAP1 POP JUMP JUMPDEST PUSH32 0x53616C646F20696E737566696369656E746520656E205465736F726572696100 PUSH0 DUP3 ADD MSTORE POP JUMP JUMPDEST PUSH0 PUSH2 0x1155 PUSH1 0x1F DUP4 PUSH2 0xF5A JUMP JUMPDEST SWAP2 POP PUSH2 0x1160 DUP3 PUSH2 0x1121 JUMP JUMPDEST PUSH1 0x20 DUP3 ADD SWAP1 POP SWAP2 SWAP1 POP JUMP JUMPDEST PUSH0 PUSH1 0x20 DUP3 ADD SWAP1 POP DUP2 DUP2 SUB PUSH0 DUP4 ADD MSTORE PUSH2 0x1182 DUP2 PUSH2 0x1149 JUMP JUMPDEST SWAP1 POP SWAP2 SWAP1 POP JUMP JUMPDEST PUSH32 0x4E487B7100000000000000000000000000000000000000000000000000000000 PUSH0 MSTORE PUSH1 0x11 PUSH1 0x4 MSTORE PUSH1 0x24 PUSH0 REVERT JUMPDEST PUSH0 PUSH2 0x11C0 DUP3 PUSH2 0xD3E JUMP JUMPDEST SWAP2 POP PUSH2 0x11CB DUP4 PUSH2 0xD3E JUMP JUMPDEST SWAP3 POP DUP3 DUP3 SUB SWAP1 POP DUP2 DUP2 GT ISZERO PUSH2 0x11E3 JUMPI PUSH2 0x11E2 PUSH2 0x1189 JUMP JUMPDEST JUMPDEST SWAP3 SWAP2 POP POP JUMP JUMPDEST PUSH32 0x55736572206973206E6F74207265676973746572656400000000000000000000 PUSH0 DUP3 ADD MSTORE POP JUMP JUMPDEST PUSH0 PUSH2 0x121D PUSH1 0x16 DUP4 PUSH2 0xF5A JUMP JUMPDEST SWAP2 POP PUSH2 0x1228 DUP3 PUSH2 0x11E9 JUMP JUMPDEST PUSH1 0x20 DUP3 ADD SWAP1 POP SWAP2 SWAP1 POP JUMP JUMPDEST PUSH0 PUSH1 0x20 DUP3 ADD SWAP1 POP DUP2 DUP2 SUB PUSH0 DUP4 ADD MSTORE PUSH2 0x124A DUP2 PUSH2 0x1211 JUMP JUMPDEST SWAP1 POP SWAP2 SWAP1 POP JUMP JUMPDEST PUSH32 0x4E6F20736520686120696E6772657361646F206E696E67756E612063616E7469 PUSH0 DUP3 ADD MSTORE PUSH32 0x6461640000000000000000000000000000000000000000000000000000000000 PUSH1 0x20 DUP3 ADD MSTORE POP JUMP JUMPDEST PUSH0 PUSH2 0x12AB PUSH1 0x23 DUP4 PUSH2 0xF5A JUMP JUMPDEST SWAP2 POP PUSH2 0x12B6 DUP3 PUSH2 0x1251 JUMP JUMPDEST PUSH1 0x40 DUP3 ADD SWAP1 POP SWAP2 SWAP1 POP JUMP JUMPDEST PUSH0 PUSH1 0x20 DUP3 ADD SWAP1 POP DUP2 DUP2 SUB PUSH0 DUP4 ADD MSTORE PUSH2 0x12D8 DUP2 PUSH2 0x129F JUMP JUMPDEST SWAP1 POP SWAP2 SWAP1 POP JUMP JUMPDEST PUSH32 0x53616C646F20696E737566696369656E74650000000000000000000000000000 PUSH0 DUP3 ADD MSTORE POP JUMP JUMPDEST PUSH0 PUSH2 0x1313 PUSH1 0x12 DUP4 PUSH2 0xF5A JUMP JUMPDEST SWAP2 POP PUSH2 0x131E DUP3 PUSH2 0x12DF JUMP JUMPDEST PUSH1 0x20 DUP3 ADD SWAP1 POP SWAP2 SWAP1 POP JUMP JUMPDEST PUSH0 PUSH1 0x20 DUP3 ADD SWAP1 POP DUP2 DUP2 SUB PUSH0 DUP4 ADD MSTORE PUSH2 0x1340 DUP2 PUSH2 0x1307 JUMP JUMPDEST SWAP1 POP SWAP2 SWAP1 POP JUMP JUMPDEST PUSH0 PUSH2 0x1351 DUP3 PUSH2 0xD3E JUMP JUMPDEST SWAP2 POP PUSH2 0x135C DUP4 PUSH2 0xD3E JUMP JUMPDEST SWAP3 POP DUP3 DUP3 MUL PUSH2 0x136A DUP2 PUSH2 0xD3E JUMP JUMPDEST SWAP2 POP DUP3 DUP3 DIV DUP5 EQ DUP4 ISZERO OR PUSH2 0x1381 JUMPI PUSH2 0x1380 PUSH2 0x1189 JUMP JUMPDEST JUMPDEST POP SWAP3 SWAP2 POP POP JUMP JUMPDEST PUSH32 0x4E487B7100000000000000000000000000000000000000000000000000000000 PUSH0 MSTORE PUSH1 0x12 PUSH1 0x4 MSTORE PUSH1 0x24 PUSH0 REVERT JUMPDEST PUSH0 PUSH2 0x13BF DUP3 PUSH2 0xD3E JUMP JUMPDEST SWAP2 POP PUSH2 0x13CA DUP4 PUSH2 0xD3E JUMP JUMPDEST SWAP3 POP DUP3 PUSH2 0x13DA JUMPI PUSH2 0x13D9 PUSH2 0x1388 JUMP JUMPDEST JUMPDEST DUP3 DUP3 DIV SWAP1 POP SWAP3 SWAP2 POP POP JUMP JUMPDEST PUSH0 PUSH2 0x13EF DUP3 PUSH2 0xD3E JUMP JUMPDEST SWAP2 POP PUSH2 0x13FA DUP4 PUSH2 0xD3E JUMP JUMPDEST SWAP3 POP DUP3 DUP3 ADD SWAP1 POP DUP1 DUP3 GT ISZERO PUSH2 0x1412 JUMPI PUSH2 0x1411 PUSH2 0x1189 JUMP JUMPDEST JUMPDEST SWAP3 SWAP2 POP POP JUMP JUMPDEST PUSH0 PUSH1 0x40 DUP3 ADD SWAP1 POP PUSH2 0x142B PUSH0 DUP4 ADD DUP6 PUSH2 0xD9C JUMP JUMPDEST PUSH2 0x1438 PUSH1 0x20 DUP4 ADD DUP5 PUSH2 0xD9C JUMP JUMPDEST SWAP4 SWAP3 POP POP POP JUMP JUMPDEST PUSH32 0x456C207072696D6572206E6F6D627265206E6F20707565646520657374617220 PUSH0 DUP3 ADD MSTORE PUSH32 0x766163696F000000000000000000000000000000000000000000000000000000 PUSH1 0x20 DUP3 ADD MSTORE POP JUMP JUMPDEST PUSH0 PUSH2 0x1499 PUSH1 0x25 DUP4 PUSH2 0xF5A JUMP JUMPDEST SWAP2 POP PUSH2 0x14A4 DUP3 PUSH2 0x143F JUMP JUMPDEST PUSH1 0x40 DUP3 ADD SWAP1 POP SWAP2 SWAP1 POP JUMP JUMPDEST PUSH0 PUSH1 0x20 DUP3 ADD SWAP1 POP DUP2 DUP2 SUB PUSH0 DUP4 ADD MSTORE PUSH2 0x14C6 DUP2 PUSH2 0x148D JUMP JUMPDEST SWAP1 POP SWAP2 SWAP1 POP JUMP JUMPDEST PUSH32 0x456C206170656C6C69646F206E6F20707565646520657374617220766163696F PUSH0 DUP3 ADD MSTORE POP JUMP JUMPDEST PUSH0 PUSH2 0x1501 PUSH1 0x20 DUP4 PUSH2 0xF5A JUMP JUMPDEST SWAP2 POP PUSH2 0x150C DUP3 PUSH2 0x14CD JUMP JUMPDEST PUSH1 0x20 DUP3 ADD SWAP1 POP SWAP2 SWAP1 POP JUMP JUMPDEST PUSH0 PUSH1 0x20 DUP3 ADD SWAP1 POP DUP2 DUP2 SUB PUSH0 DUP4 ADD MSTORE PUSH2 0x152E DUP2 PUSH2 0x14F5 JUMP JUMPDEST SWAP1 POP SWAP2 SWAP1 POP JUMP JUMPDEST PUSH32 0x5573756172696F207961207265676973747261646F0000000000000000000000 PUSH0 DUP3 ADD MSTORE POP JUMP JUMPDEST PUSH0 PUSH2 0x1569 PUSH1 0x15 DUP4 PUSH2 0xF5A JUMP JUMPDEST SWAP2 POP PUSH2 0x1574 DUP3 PUSH2 0x1535 JUMP JUMPDEST PUSH1 0x20 DUP3 ADD SWAP1 POP SWAP2 SWAP1 POP JUMP JUMPDEST PUSH0 PUSH1 0x20 DUP3 ADD SWAP1 POP DUP2 DUP2 SUB PUSH0 DUP4 ADD MSTORE PUSH2 0x1596 DUP2 PUSH2 0x155D JUMP JUMPDEST SWAP1 POP SWAP2 SWAP1 POP JUMP JUMPDEST PUSH32 0x4E487B7100000000000000000000000000000000000000000000000000000000 PUSH0 MSTORE PUSH1 0x41 PUSH1 0x4 MSTORE PUSH1 0x24 PUSH0 REVERT JUMPDEST PUSH32 0x4E487B7100000000000000000000000000000000000000000000000000000000 PUSH0 MSTORE PUSH1 0x22 PUSH1 0x4 MSTORE PUSH1 0x24 PUSH0 REVERT JUMPDEST PUSH0 PUSH1 0x2 DUP3 DIV SWAP1 POP PUSH1 0x1 DUP3 AND DUP1 PUSH2 0x160E JUMPI PUSH1 0x7F DUP3 AND SWAP2 POP JUMPDEST PUSH1 0x20 DUP3 LT DUP2 SUB PUSH2 0x1621 JUMPI PUSH2 0x1620 PUSH2 0x15CA JUMP JUMPDEST JUMPDEST POP SWAP2 SWAP1 POP JUMP JUMPDEST PUSH0 DUP2 SWAP1 POP DUP2 PUSH0 MSTORE PUSH1 0x20 PUSH0 KECCAK256 SWAP1 POP SWAP2 SWAP1 POP JUMP JUMPDEST PUSH0 PUSH1 0x20 PUSH1 0x1F DUP4 ADD DIV SWAP1 POP SWAP2 SWAP1 POP JUMP JUMPDEST PUSH0 DUP3 DUP3 SHL SWAP1 POP SWAP3 SWAP2 POP POP JUMP JUMPDEST PUSH0 PUSH1 0x8 DUP4 MUL PUSH2 0x1683 PUSH32 0xFFFFFFFFFFFFFFFFFFFFFFFFFFFFFFFFFFFFFFFFFFFFFFFFFFFFFFFFFFFFFFFF DUP3 PUSH2 0x1648 JUMP JUMPDEST PUSH2 0x168D DUP7 DUP4 PUSH2 0x1648 JUMP JUMPDEST SWAP6 POP DUP1 NOT DUP5 AND SWAP4 POP DUP1 DUP7 AND DUP5 OR SWAP3 POP POP POP SWAP4 SWAP3 POP POP POP JUMP JUMPDEST PUSH0 DUP2 SWAP1 POP SWAP2 SWAP1 POP JUMP JUMPDEST PUSH0 PUSH2 0x16C8 PUSH2 0x16C3 PUSH2 0x16BE DUP5 PUSH2 0xD3E JUMP JUMPDEST PUSH2 0x16A5 JUMP JUMPDEST PUSH2 0xD3E JUMP JUMPDEST SWAP1 POP SWAP2 SWAP1 POP JUMP JUMPDEST PUSH0 DUP2 SWAP1 POP SWAP2 SWAP1 POP JUMP JUMPDEST PUSH2 0x16E1 DUP4 PUSH2 0x16AE JUMP JUMPDEST PUSH2 0x16F5 PUSH2 0x16ED DUP3 PUSH2 0x16CF JUMP JUMPDEST DUP5 DUP5 SLOAD PUSH2 0x1654 JUMP JUMPDEST DUP3 SSTORE POP POP POP POP JUMP JUMPDEST PUSH0 SWAP1 JUMP JUMPDEST PUSH2 0x1709 PUSH2 0x16FD JUMP JUMPDEST PUSH2 0x1714 DUP2 DUP5 DUP5 PUSH2 0x16D8 JUMP JUMPDEST POP POP POP JUMP JUMPDEST JUMPDEST DUP2 DUP2 LT ISZERO PUSH2 0x1737 JUMPI PUSH2 0x172C PUSH0 DUP3 PUSH2 0x1701 JUMP JUMPDEST PUSH1 0x1 DUP2 ADD SWAP1 POP PUSH2 0x171A JUMP JUMPDEST POP POP JUMP JUMPDEST PUSH1 0x1F DUP3 GT ISZERO PUSH2 0x177C JUMPI PUSH2 0x174D DUP2 PUSH2 0x1627 JUMP JUMPDEST PUSH2 0x1756 DUP5 PUSH2 0x1639 JUMP JUMPDEST DUP2 ADD PUSH1 0x20 DUP6 LT ISZERO PUSH2 0x1765 JUMPI DUP2 SWAP1 POP JUMPDEST PUSH2 0x1779 PUSH2 0x1771 DUP6 PUSH2 0x1639 JUMP JUMPDEST DUP4 ADD DUP3 PUSH2 0x1719 JUMP JUMPDEST POP POP JUMPDEST POP POP POP JUMP JUMPDEST PUSH0 DUP3 DUP3 SHR SWAP1 POP SWAP3 SWAP2 POP POP JUMP JUMPDEST PUSH0 PUSH2 0x179C PUSH0 NOT DUP5 PUSH1 0x8 MUL PUSH2 0x1781 JUMP JUMPDEST NOT DUP1 DUP4 AND SWAP2 POP POP SWAP3 SWAP2 POP POP JUMP JUMPDEST PUSH0 PUSH2 0x17B4 DUP4 DUP4 PUSH2 0x178D JUMP JUMPDEST SWAP2 POP DUP3 PUSH1 0x2 MUL DUP3 OR SWAP1 POP SWAP3 SWAP2 POP POP JUMP JUMPDEST PUSH2 0x17CD DUP3 PUSH2 0xF50 JUMP JUMPDEST PUSH8 0xFFFFFFFFFFFFFFFF DUP2 GT ISZERO PUSH2 0x17E6 JUMPI PUSH2 0x17E5 PUSH2 0x159D JUMP JUMPDEST JUMPDEST PUSH2 0x17F0 DUP3 SLOAD PUSH2 0x15F7 JUMP JUMPDEST PUSH2 0x17FB DUP3 DUP3 DUP6 PUSH2 0x173B JUMP JUMPDEST PUSH0 PUSH1 0x20 SWAP1 POP PUSH1 0x1F DUP4 GT PUSH1 0x1 DUP2 EQ PUSH2 0x182C JUMPI PUSH0 DUP5 ISZERO PUSH2 0x181A JUMPI DUP3 DUP8 ADD MLOAD SWAP1 POP JUMPDEST PUSH2 0x1824 DUP6 DUP3 PUSH2 0x17A9 JUMP JUMPDEST DUP7 SSTORE POP PUSH2 0x188B JUMP JUMPDEST PUSH1 0x1F NOT DUP5 AND PUSH2 0x183A DUP7 PUSH2 0x1627 JUMP JUMPDEST PUSH0 JUMPDEST DUP3 DUP2 LT ISZERO PUSH2 0x1861 JUMPI DUP5 DUP10 ADD MLOAD DUP3 SSTORE PUSH1 0x1 DUP3 ADD SWAP2 POP PUSH1 0x20 DUP6 ADD SWAP5 POP PUSH1 0x20 DUP2 ADD SWAP1 POP PUSH2 0x183C JUMP JUMPDEST DUP7 DUP4 LT ISZERO PUSH2 0x187E JUMPI DUP5 DUP10 ADD MLOAD PUSH2 0x187A PUSH1 0x1F DUP10 AND DUP3 PUSH2 0x178D JUMP JUMPDEST DUP4 SSTORE POP JUMPDEST PUSH1 0x1 PUSH1 0x2 DUP9 MUL ADD DUP9 SSTORE POP POP POP JUMPDEST POP POP POP POP POP POP JUMP JUMPDEST DUP3 DUP2 DUP4 CALLDATACOPY PUSH0 DUP4 DUP4 ADD MSTORE POP POP POP JUMP JUMPDEST PUSH0 PUSH2 0x18AC DUP4 DUP6 PUSH2 0xF5A JUMP JUMPDEST SWAP4 POP PUSH2 0x18B9 DUP4 DUP6 DUP5 PUSH2 0x1893 JUMP JUMPDEST PUSH2 0x18C2 DUP4 PUSH2 0xF78 JUMP JUMPDEST DUP5 ADD SWAP1 POP SWAP4 SWAP3 POP POP POP JUMP JUMPDEST PUSH0 PUSH1 0x40 DUP3 ADD SWAP1 POP DUP2 DUP2 SUB PUSH0 DUP4 ADD MSTORE PUSH2 0x18E6 DUP2 DUP7 DUP9 PUSH2 0x18A1 JUMP JUMPDEST SWAP1 POP DUP2 DUP2 SUB PUSH1 0x20 DUP4 ADD MSTORE PUSH2 0x18FB DUP2 DUP5 DUP7 PUSH2 0x18A1 JUMP JUMPDEST SWAP1 POP SWAP6 SWAP5 POP POP POP POP POP JUMP INVALID LOG2 PUSH5 0x6970667358 0x22 SLT KECCAK256 0x2B 0x4E 0xD1 NUMBER SWAP13 0xD0 0xC9 CALL 0xCE GASPRICE 0xEB SWAP12 CHAINID PUSH3 0x538A3D 0xB3 0xBA PUSH25 0x113AB602751A2DC0E0FF6BF64736F6C634300081A00330000 "
		},
		"gasEstimates": {
			"creation": {
				"codeDepositCost": "1292000",
				"executionCost": "infinite",
				"totalCost": "infinite"
			},
			"external": {
				"deposit()": "infinite",
				"fee()": "2491",
				"getBalance()": "4793",
				"owner()": "2508",
				"register(string,string)": "infinite",
				"tesoreria()": "2596",
				"tesoreriaBalance()": "2470",
				"users(address)": "infinite",
				"withdraw(uint256)": "infinite",
				"withdrawTreasury(uint256)": "infinite"
			}
		},
		"methodIdentifiers": {
			"deposit()": "d0e30db0",
			"fee()": "ddca3f43",
			"getBalance()": "12065fe0",
			"owner()": "8da5cb5b",
			"register(string,string)": "3ffbd47f",
			"tesoreria()": "e933dc54",
			"tesoreriaBalance()": "229dfe4a",
			"users(address)": "a87430ba",
			"withdraw(uint256)": "2e1a7d4d",
			"withdrawTreasury(uint256)": "11f1fc99"
		}
	},
	"abi": [
		{
			"inputs": [
				{
					"internalType": "uint256",
					"name": "_fee",
					"type": "uint256"
				},
				{
					"internalType": "address",
					"name": "_tesoreria",
					"type": "address"
				}
			],
			"stateMutability": "nonpayable",
			"type": "constructor"
		},
		{
			"anonymous": false,
			"inputs": [
				{
					"indexed": true,
					"internalType": "address",
					"name": "user",
					"type": "address"
				},
				{
					"indexed": false,
					"internalType": "uint256",
					"name": "amount",
					"type": "uint256"
				}
			],
			"name": "Deposit",
			"type": "event"
		},
		{
			"anonymous": false,
			"inputs": [
				{
					"indexed": true,
					"internalType": "address",
					"name": "owner",
					"type": "address"
				},
				{
					"indexed": false,
					"internalType": "uint256",
					"name": "amount",
					"type": "uint256"
				}
			],
			"name": "TreasuryWithdrawal",
			"type": "event"
		},
		{
			"anonymous": false,
			"inputs": [
				{
					"indexed": true,
					"internalType": "address",
					"name": "user",
					"type": "address"
				},
				{
					"indexed": false,
					"internalType": "string",
					"name": "firstName",
					"type": "string"
				},
				{
					"indexed": false,
					"internalType": "string",
					"name": "lastName",
					"type": "string"
				}
			],
			"name": "UserRegistered",
			"type": "event"
		},
		{
			"anonymous": false,
			"inputs": [
				{
					"indexed": true,
					"internalType": "address",
					"name": "user",
					"type": "address"
				},
				{
					"indexed": false,
					"internalType": "uint256",
					"name": "amount",
					"type": "uint256"
				},
				{
					"indexed": false,
					"internalType": "uint256",
					"name": "feeAmount",
					"type": "uint256"
				}
			],
			"name": "Withdrawal",
			"type": "event"
		},
		{
			"inputs": [],
			"name": "deposit",
			"outputs": [],
			"stateMutability": "payable",
			"type": "function"
		},
		{
			"inputs": [],
			"name": "fee",
			"outputs": [
				{
					"internalType": "uint256",
					"name": "",
					"type": "uint256"
				}
			],
			"stateMutability": "view",
			"type": "function"
		},
		{
			"inputs": [],
			"name": "getBalance",
			"outputs": [
				{
					"internalType": "uint256",
					"name": "",
					"type": "uint256"
				}
			],
			"stateMutability": "view",
			"type": "function"
		},
		{
			"inputs": [],
			"name": "owner",
			"outputs": [
				{
					"internalType": "address",
					"name": "",
					"type": "address"
				}
			],
			"stateMutability": "view",
			"type": "function"
		},
		{
			"inputs": [
				{
					"internalType": "string",
					"name": "_firstName",
					"type": "string"
				},
				{
					"internalType": "string",
					"name": "_lastName",
					"type": "string"
				}
			],
			"name": "register",
			"outputs": [],
			"stateMutability": "nonpayable",
			"type": "function"
		},
		{
			"inputs": [],
			"name": "tesoreria",
			"outputs": [
				{
					"internalType": "address",
					"name": "",
					"type": "address"
				}
			],
			"stateMutability": "view",
			"type": "function"
		},
		{
			"inputs": [],
			"name": "tesoreriaBalance",
			"outputs": [
				{
					"internalType": "uint256",
					"name": "",
					"type": "uint256"
				}
			],
			"stateMutability": "view",
			"type": "function"
		},
		{
			"inputs": [
				{
					"internalType": "address",
					"name": "",
					"type": "address"
				}
			],
			"name": "users",
			"outputs": [
				{
					"internalType": "string",
					"name": "firstName",
					"type": "string"
				},
				{
					"internalType": "string",
					"name": "lastName",
					"type": "string"
				},
				{
					"internalType": "uint256",
					"name": "balance",
					"type": "uint256"
				},
				{
					"internalType": "bool",
					"name": "isRegistered",
					"type": "bool"
				}
			],
			"stateMutability": "view",
			"type": "function"
		},
		{
			"inputs": [
				{
					"internalType": "uint256",
					"name": "_amount",
					"type": "uint256"
				}
			],
			"name": "withdraw",
			"outputs": [],
			"stateMutability": "nonpayable",
			"type": "function"
		},
		{
			"inputs": [
				{
					"internalType": "uint256",
					"name": "_amount",
					"type": "uint256"
				}
			],
			"name": "withdrawTreasury",
			"outputs": [],
			"stateMutability": "nonpayable",
			"type": "function"
		}
	]
}