{
	"TrabajoFinalModulo4/tipJar.sol": {
		"TipJar": {
			"abi": [
				{
					"inputs": [],
					"stateMutability": "nonpayable",
					"type": "constructor"
				},
				{
					"inputs": [],
					"name": "ReentrancyGuardReentrantCall",
					"type": "error"
				},
				{
					"anonymous": false,
					"inputs": [
						{
							"indexed": true,
							"internalType": "address",
							"name": "from",
							"type": "address"
						},
						{
							"indexed": false,
							"internalType": "uint256",
							"name": "amount",
							"type": "uint256"
						},
						{
							"indexed": false,
							"internalType": "string",
							"name": "message",
							"type": "string"
						}
					],
					"name": "NewTip",
					"type": "event"
				},
				{
					"anonymous": false,
					"inputs": [
						{
							"indexed": true,
							"internalType": "address",
							"name": "to",
							"type": "address"
						},
						{
							"indexed": false,
							"internalType": "uint256",
							"name": "amount",
							"type": "uint256"
						}
					],
					"name": "Withdrawal",
					"type": "event"
				},
				{
					"inputs": [],
					"name": "getAllTips",
					"outputs": [
						{
							"components": [
								{
									"internalType": "address",
									"name": "from",
									"type": "address"
								},
								{
									"internalType": "uint256",
									"name": "amount",
									"type": "uint256"
								},
								{
									"internalType": "string",
									"name": "message",
									"type": "string"
								},
								{
									"internalType": "uint256",
									"name": "timestamp",
									"type": "uint256"
								}
							],
							"internalType": "struct TipJar.Tipper[]",
							"name": "",
							"type": "tuple[]"
						}
					],
					"stateMutability": "view",
					"type": "function"
				},
				{
					"inputs": [],
					"name": "getBalance",
					"outputs": [
						{
							"internalType": "uint256",
							"name": "",
							"type": "uint256"
						}
					],
					"stateMutability": "view",
					"type": "function"
				},
				{
					"inputs": [
						{
							"internalType": "uint256",
							"name": "i",
							"type": "uint256"
						}
					],
					"name": "getTip",
					"outputs": [
						{
							"internalType": "address",
							"name": "from",
							"type": "address"
						},
						{
							"internalType": "uint256",
							"name": "amount",
							"type": "uint256"
						},
						{
							"internalType": "string",
							"name": "message",
							"type": "string"
						},
						{
							"internalType": "uint256",
							"name": "timestamp",
							"type": "uint256"
						}
					],
					"stateMutability": "view",
					"type": "function"
				},
				{
					"inputs": [],
					"name": "getTipsCount",
					"outputs": [
						{
							"internalType": "uint256",
							"name": "",
							"type": "uint256"
						}
					],
					"stateMutability": "view",
					"type": "function"
				},
				{
					"inputs": [],
					"name": "owner",
					"outputs": [
						{
							"internalType": "address",
							"name": "",
							"type": "address"
						}
					],
					"stateMutability": "view",
					"type": "function"
				},
				{
					"inputs": [
						{
							"internalType": "string",
							"name": "message",
							"type": "string"
						}
					],
					"name": "tip",
					"outputs": [],
					"stateMutability": "payable",
					"type": "function"
				},
				{
					"inputs": [],
					"name": "withdraw",
					"outputs": [],
					"stateMutability": "nonpayable",
					"type": "function"
				}
			],
			"devdoc": {
				"errors": {
					"ReentrancyGuardReentrantCall()": [
						{
							"details": "Unauthorized reentrant call."
						}
					]
				},
				"kind": "dev",
				"methods": {},
				"version": 1
			},
			"evm": {
				"assembly": "    /* \"TrabajoFinalModulo4/tipJar.sol\":120:2314  contract TipJar is ReentrancyGuard {... */\n  mstore(0x40, 0x80)\n    /* \"TrabajoFinalModulo4/tipJar.sol\":567:616  constructor() {... */\n  callvalue\n  dup1\n  iszero\n  tag_1\n  jumpi\n  revert(0x00, 0x00)\ntag_1:\n  pop\n    /* \"@openzeppelin/contracts/utils/ReentrancyGuard.sol\":1857:1858  1 */\n  0x01\n    /* \"@openzeppelin/contracts/utils/ReentrancyGuard.sol\":2061:2068  _status */\n  0x00\n    /* \"@openzeppelin/contracts/utils/ReentrancyGuard.sol\":2061:2082  _status = NOT_ENTERED */\n  dup2\n  swap1\n  sstore\n  pop\n    /* \"TrabajoFinalModulo4/tipJar.sol\":599:609  msg.sender */\n  caller\n    /* \"TrabajoFinalModulo4/tipJar.sol\":591:596  owner */\n  0x01\n  0x00\n    /* \"TrabajoFinalModulo4/tipJar.sol\":591:609  owner = msg.sender */\n  0x0100\n  exp\n  dup2\n  sload\n  dup2\n  0xffffffffffffffffffffffffffffffffffffffff\n  mul\n  not\n  and\n  swap1\n  dup4\n  0xffffffffffffffffffffffffffffffffffffffff\n  and\n  mul\n  or\n  swap1\n  sstore\n  pop\n    /* \"TrabajoFinalModulo4/tipJar.sol\":120:2314  contract TipJar is ReentrancyGuard {... */\n  dataSize(sub_0)\n  dup1\n  dataOffset(sub_0)\n  0x00\n  codecopy\n  0x00\n  return\nstop\n\nsub_0: assembly {\n        /* \"TrabajoFinalModulo4/tipJar.sol\":120:2314  contract TipJar is ReentrancyGuard {... */\n      mstore(0x40, 0x80)\n      jumpi(tag_1, lt(calldatasize, 0x04))\n      shr(0xe0, calldataload(0x00))\n      dup1\n      0x5b703f5c\n      gt\n      tag_9\n      jumpi\n      dup1\n      0x5b703f5c\n      eq\n      tag_5\n      jumpi\n      dup1\n      0x8da5cb5b\n      eq\n      tag_6\n      jumpi\n      dup1\n      0xa12247b0\n      eq\n      tag_7\n      jumpi\n      dup1\n      0xcb56393c\n      eq\n      tag_8\n      jumpi\n      jump(tag_1)\n    tag_9:\n      dup1\n      0x12065fe0\n      eq\n      tag_2\n      jumpi\n      dup1\n      0x399ddbbd\n      eq\n      tag_3\n      jumpi\n      dup1\n      0x3ccfd60b\n      eq\n      tag_4\n      jumpi\n    tag_1:\n      revert(0x00, 0x00)\n        /* \"TrabajoFinalModulo4/tipJar.sol\":1408:1517  function getBalance() external view onlyOwner returns (uint256) {... */\n    tag_2:\n      callvalue\n      dup1\n      iszero\n      tag_10\n      jumpi\n      revert(0x00, 0x00)\n    tag_10:\n      pop\n      tag_11\n      tag_12\n      jump\t// in\n    tag_11:\n      mload(0x40)\n      tag_13\n      swap2\n      swap1\n      tag_14\n      jump\t// in\n    tag_13:\n      mload(0x40)\n      dup1\n      swap2\n      sub\n      swap1\n      return\n        /* \"TrabajoFinalModulo4/tipJar.sol\":2212:2312  function getAllTips() external view onlyOwner returns (Tipper[] memory) {... */\n    tag_3:\n      callvalue\n      dup1\n      iszero\n      tag_15\n      jumpi\n      revert(0x00, 0x00)\n    tag_15:\n      pop\n      tag_16\n      tag_17\n      jump\t// in\n    tag_16:\n      mload(0x40)\n      tag_18\n      swap2\n      swap1\n      tag_19\n      jump\t// in\n    tag_18:\n      mload(0x40)\n      dup1\n      swap2\n      sub\n      swap1\n      return\n        /* \"TrabajoFinalModulo4/tipJar.sol\":1071:1338  function withdraw() external nonReentrant onlyOwner {... */\n    tag_4:\n      callvalue\n      dup1\n      iszero\n      tag_20\n      jumpi\n      revert(0x00, 0x00)\n    tag_20:\n      pop\n      tag_21\n      tag_22\n      jump\t// in\n    tag_21:\n      stop\n        /* \"TrabajoFinalModulo4/tipJar.sol\":1789:2131  function getTip(... */\n    tag_5:\n      callvalue\n      dup1\n      iszero\n      tag_23\n      jumpi\n      revert(0x00, 0x00)\n    tag_23:\n      pop\n      tag_24\n      0x04\n      dup1\n      calldatasize\n      sub\n      dup2\n      add\n      swap1\n      tag_25\n      swap2\n      swap1\n      tag_26\n      jump\t// in\n    tag_25:\n      tag_27\n      jump\t// in\n    tag_24:\n      mload(0x40)\n      tag_28\n      swap5\n      swap4\n      swap3\n      swap2\n      swap1\n      tag_29\n      jump\t// in\n    tag_28:\n      mload(0x40)\n      dup1\n      swap2\n      sub\n      swap1\n      return\n        /* \"TrabajoFinalModulo4/tipJar.sol\":161:181  address public owner */\n    tag_6:\n      callvalue\n      dup1\n      iszero\n      tag_30\n      jumpi\n      revert(0x00, 0x00)\n    tag_30:\n      pop\n      tag_31\n      tag_32\n      jump\t// in\n    tag_31:\n      mload(0x40)\n      tag_33\n      swap2\n      swap1\n      tag_34\n      jump\t// in\n    tag_33:\n      mload(0x40)\n      dup1\n      swap2\n      sub\n      swap1\n      return\n        /* \"TrabajoFinalModulo4/tipJar.sol\":1597:1698  function getTipsCount() external view onlyOwner returns (uint256) {... */\n    tag_7:\n      callvalue\n      dup1\n      iszero\n      tag_35\n      jumpi\n      revert(0x00, 0x00)\n    tag_35:\n      pop\n      tag_36\n      tag_37\n      jump\t// in\n    tag_36:\n      mload(0x40)\n      tag_38\n      swap2\n      swap1\n      tag_14\n      jump\t// in\n    tag_38:\n      mload(0x40)\n      dup1\n      swap2\n      sub\n      swap1\n      return\n        /* \"TrabajoFinalModulo4/tipJar.sol\":650:1031  function tip(string memory message) external payable {... */\n    tag_8:\n      tag_39\n      0x04\n      dup1\n      calldatasize\n      sub\n      dup2\n      add\n      swap1\n      tag_40\n      swap2\n      swap1\n      tag_41\n      jump\t// in\n    tag_40:\n      tag_42\n      jump\t// in\n    tag_39:\n      stop\n        /* \"TrabajoFinalModulo4/tipJar.sol\":1408:1517  function getBalance() external view onlyOwner returns (uint256) {... */\n    tag_12:\n        /* \"TrabajoFinalModulo4/tipJar.sol\":1463:1470  uint256 */\n      0x00\n        /* \"TrabajoFinalModulo4/tipJar.sol\":523:528  owner */\n      0x01\n      0x00\n      swap1\n      sload\n      swap1\n      0x0100\n      exp\n      swap1\n      div\n      0xffffffffffffffffffffffffffffffffffffffff\n      and\n        /* \"TrabajoFinalModulo4/tipJar.sol\":509:528  msg.sender == owner */\n      0xffffffffffffffffffffffffffffffffffffffff\n      and\n        /* \"TrabajoFinalModulo4/tipJar.sol\":509:519  msg.sender */\n      caller\n        /* \"TrabajoFinalModulo4/tipJar.sol\":509:528  msg.sender == owner */\n      0xffffffffffffffffffffffffffffffffffffffff\n      and\n      eq\n        /* \"TrabajoFinalModulo4/tipJar.sol\":501:543  require(msg.sender == owner, \"Only owner\") */\n      tag_44\n      jumpi\n      mload(0x40)\n      0x08c379a000000000000000000000000000000000000000000000000000000000\n      dup2\n      mstore\n      0x04\n      add\n      tag_45\n      swap1\n      tag_46\n      jump\t// in\n    tag_45:\n      mload(0x40)\n      dup1\n      swap2\n      sub\n      swap1\n      revert\n    tag_44:\n        /* \"TrabajoFinalModulo4/tipJar.sol\":1489:1510  address(this).balance */\n      selfbalance\n        /* \"TrabajoFinalModulo4/tipJar.sol\":1482:1510  return address(this).balance */\n      swap1\n      pop\n        /* \"TrabajoFinalModulo4/tipJar.sol\":1408:1517  function getBalance() external view onlyOwner returns (uint256) {... */\n      swap1\n      jump\t// out\n        /* \"TrabajoFinalModulo4/tipJar.sol\":2212:2312  function getAllTips() external view onlyOwner returns (Tipper[] memory) {... */\n    tag_17:\n        /* \"TrabajoFinalModulo4/tipJar.sol\":2267:2282  Tipper[] memory */\n      0x60\n        /* \"TrabajoFinalModulo4/tipJar.sol\":523:528  owner */\n      0x01\n      0x00\n      swap1\n      sload\n      swap1\n      0x0100\n      exp\n      swap1\n      div\n      0xffffffffffffffffffffffffffffffffffffffff\n      and\n        /* \"TrabajoFinalModulo4/tipJar.sol\":509:528  msg.sender == owner */\n      0xffffffffffffffffffffffffffffffffffffffff\n      and\n        /* \"TrabajoFinalModulo4/tipJar.sol\":509:519  msg.sender */\n      caller\n        /* \"TrabajoFinalModulo4/tipJar.sol\":509:528  msg.sender == owner */\n      0xffffffffffffffffffffffffffffffffffffffff\n      and\n      eq\n        /* \"TrabajoFinalModulo4/tipJar.sol\":501:543  require(msg.sender == owner, \"Only owner\") */\n      tag_49\n      jumpi\n      mload(0x40)\n      0x08c379a000000000000000000000000000000000000000000000000000000000\n      dup2\n      mstore\n      0x04\n      add\n      tag_50\n      swap1\n      tag_46\n      jump\t// in\n    tag_50:\n      mload(0x40)\n      dup1\n      swap2\n      sub\n      swap1\n      revert\n    tag_49:\n        /* \"TrabajoFinalModulo4/tipJar.sol\":2301:2305  tips */\n      0x02\n        /* \"TrabajoFinalModulo4/tipJar.sol\":2294:2305  return tips */\n      dup1\n      sload\n      dup1\n      0x20\n      mul\n      0x20\n      add\n      mload(0x40)\n      swap1\n      dup2\n      add\n      0x40\n      mstore\n      dup1\n      swap3\n      swap2\n      swap1\n      dup2\n      dup2\n      mstore\n      0x20\n      add\n      0x00\n      swap1\n    tag_52:\n      dup3\n      dup3\n      lt\n      iszero\n      tag_53\n      jumpi\n      dup4\n      dup3\n      swap1\n      0x00\n      mstore\n      keccak256(0x00, 0x20)\n      swap1\n      0x04\n      mul\n      add\n      mload(0x40)\n      dup1\n      0x80\n      add\n      0x40\n      mstore\n      swap1\n      dup2\n      0x00\n      dup3\n      add\n      0x00\n      swap1\n      sload\n      swap1\n      0x0100\n      exp\n      swap1\n      div\n      0xffffffffffffffffffffffffffffffffffffffff\n      and\n      0xffffffffffffffffffffffffffffffffffffffff\n      and\n      0xffffffffffffffffffffffffffffffffffffffff\n      and\n      dup2\n      mstore\n      0x20\n      add\n      0x01\n      dup3\n      add\n      sload\n      dup2\n      mstore\n      0x20\n      add\n      0x02\n      dup3\n      add\n      dup1\n      sload\n      tag_55\n      swap1\n      tag_56\n      jump\t// in\n    tag_55:\n      dup1\n      0x1f\n      add\n      0x20\n      dup1\n      swap2\n      div\n      mul\n      0x20\n      add\n      mload(0x40)\n      swap1\n      dup2\n      add\n      0x40\n      mstore\n      dup1\n      swap3\n      swap2\n      swap1\n      dup2\n      dup2\n      mstore\n      0x20\n      add\n      dup3\n      dup1\n      sload\n      tag_57\n      swap1\n      tag_56\n      jump\t// in\n    tag_57:\n      dup1\n      iszero\n      tag_58\n      jumpi\n      dup1\n      0x1f\n      lt\n      tag_59\n      jumpi\n      0x0100\n      dup1\n      dup4\n      sload\n      div\n      mul\n      dup4\n      mstore\n      swap2\n      0x20\n      add\n      swap2\n      jump(tag_58)\n    tag_59:\n      dup3\n      add\n      swap2\n      swap1\n      0x00\n      mstore\n      keccak256(0x00, 0x20)\n      swap1\n    tag_60:\n      dup2\n      sload\n      dup2\n      mstore\n      swap1\n      0x01\n      add\n      swap1\n      0x20\n      add\n      dup1\n      dup4\n      gt\n      tag_60\n      jumpi\n      dup3\n      swap1\n      sub\n      0x1f\n      and\n      dup3\n      add\n      swap2\n    tag_58:\n      pop\n      pop\n      pop\n      pop\n      pop\n      dup2\n      mstore\n      0x20\n      add\n      0x03\n      dup3\n      add\n      sload\n      dup2\n      mstore\n      pop\n      pop\n      dup2\n      mstore\n      0x20\n      add\n      swap1\n      0x01\n      add\n      swap1\n      jump(tag_52)\n    tag_53:\n      pop\n      pop\n      pop\n      pop\n      swap1\n      pop\n        /* \"TrabajoFinalModulo4/tipJar.sol\":2212:2312  function getAllTips() external view onlyOwner returns (Tipper[] memory) {... */\n      swap1\n      jump\t// out\n        /* \"TrabajoFinalModulo4/tipJar.sol\":1071:1338  function withdraw() external nonReentrant onlyOwner {... */\n    tag_22:\n        /* \"@openzeppelin/contracts/utils/ReentrancyGuard.sol\":2500:2521  _nonReentrantBefore() */\n      tag_62\n        /* \"@openzeppelin/contracts/utils/ReentrancyGuard.sol\":2500:2519  _nonReentrantBefore */\n      tag_63\n        /* \"@openzeppelin/contracts/utils/ReentrancyGuard.sol\":2500:2521  _nonReentrantBefore() */\n      jump\t// in\n    tag_62:\n        /* \"TrabajoFinalModulo4/tipJar.sol\":523:528  owner */\n      0x01\n      0x00\n      swap1\n      sload\n      swap1\n      0x0100\n      exp\n      swap1\n      div\n      0xffffffffffffffffffffffffffffffffffffffff\n      and\n        /* \"TrabajoFinalModulo4/tipJar.sol\":509:528  msg.sender == owner */\n      0xffffffffffffffffffffffffffffffffffffffff\n      and\n        /* \"TrabajoFinalModulo4/tipJar.sol\":509:519  msg.sender */\n      caller\n        /* \"TrabajoFinalModulo4/tipJar.sol\":509:528  msg.sender == owner */\n      0xffffffffffffffffffffffffffffffffffffffff\n      and\n      eq\n        /* \"TrabajoFinalModulo4/tipJar.sol\":501:543  require(msg.sender == owner, \"Only owner\") */\n      tag_65\n      jumpi\n      mload(0x40)\n      0x08c379a000000000000000000000000000000000000000000000000000000000\n      dup2\n      mstore\n      0x04\n      add\n      tag_66\n      swap1\n      tag_46\n      jump\t// in\n    tag_66:\n      mload(0x40)\n      dup1\n      swap2\n      sub\n      swap1\n      revert\n    tag_65:\n        /* \"TrabajoFinalModulo4/tipJar.sol\":1133:1149  uint256 _balance */\n      0x00\n        /* \"TrabajoFinalModulo4/tipJar.sol\":1152:1173  address(this).balance */\n      selfbalance\n        /* \"TrabajoFinalModulo4/tipJar.sol\":1133:1173  uint256 _balance = address(this).balance */\n      swap1\n      pop\n        /* \"TrabajoFinalModulo4/tipJar.sol\":1184:1196  bool success */\n      0x00\n        /* \"TrabajoFinalModulo4/tipJar.sol\":1210:1215  owner */\n      0x01\n      0x00\n      swap1\n      sload\n      swap1\n      0x0100\n      exp\n      swap1\n      div\n      0xffffffffffffffffffffffffffffffffffffffff\n      and\n        /* \"TrabajoFinalModulo4/tipJar.sol\":1202:1221  payable(owner).call */\n      0xffffffffffffffffffffffffffffffffffffffff\n      and\n        /* \"TrabajoFinalModulo4/tipJar.sol\":1229:1237  _balance */\n      dup3\n        /* \"TrabajoFinalModulo4/tipJar.sol\":1202:1242  payable(owner).call{value: _balance}(\"\") */\n      mload(0x40)\n      tag_68\n      swap1\n      tag_69\n      jump\t// in\n    tag_68:\n      0x00\n      mload(0x40)\n      dup1\n      dup4\n      sub\n      dup2\n      dup6\n      dup8\n      gas\n      call\n      swap3\n      pop\n      pop\n      pop\n      returndatasize\n      dup1\n      0x00\n      dup2\n      eq\n      tag_72\n      jumpi\n      mload(0x40)\n      swap2\n      pop\n      and(add(returndatasize, 0x3f), not(0x1f))\n      dup3\n      add\n      0x40\n      mstore\n      returndatasize\n      dup3\n      mstore\n      returndatasize\n      0x00\n      0x20\n      dup5\n      add\n      returndatacopy\n      jump(tag_71)\n    tag_72:\n      0x60\n      swap2\n      pop\n    tag_71:\n      pop\n        /* \"TrabajoFinalModulo4/tipJar.sol\":1183:1242  (bool success, ) = payable(owner).call{value: _balance}(\"\") */\n      pop\n      swap1\n      pop\n        /* \"TrabajoFinalModulo4/tipJar.sol\":1260:1267  success */\n      dup1\n        /* \"TrabajoFinalModulo4/tipJar.sol\":1252:1289  require(success, \"Withdrawal failed\") */\n      tag_73\n      jumpi\n      mload(0x40)\n      0x08c379a000000000000000000000000000000000000000000000000000000000\n      dup2\n      mstore\n      0x04\n      add\n      tag_74\n      swap1\n      tag_75\n      jump\t// in\n    tag_74:\n      mload(0x40)\n      dup1\n      swap2\n      sub\n      swap1\n      revert\n    tag_73:\n        /* \"TrabajoFinalModulo4/tipJar.sol\":1315:1320  owner */\n      0x01\n      0x00\n      swap1\n      sload\n      swap1\n      0x0100\n      exp\n      swap1\n      div\n      0xffffffffffffffffffffffffffffffffffffffff\n      and\n        /* \"TrabajoFinalModulo4/tipJar.sol\":1304:1331  Withdrawal(owner, _balance) */\n      0xffffffffffffffffffffffffffffffffffffffff\n      and\n      0x7fcf532c15f0a6db0bd6d0e038bea71d30d808c7d98cb3bf7268a95bf5081b65\n        /* \"TrabajoFinalModulo4/tipJar.sol\":1322:1330  _balance */\n      dup4\n        /* \"TrabajoFinalModulo4/tipJar.sol\":1304:1331  Withdrawal(owner, _balance) */\n      mload(0x40)\n      tag_76\n      swap2\n      swap1\n      tag_14\n      jump\t// in\n    tag_76:\n      mload(0x40)\n      dup1\n      swap2\n      sub\n      swap1\n      log2\n        /* \"TrabajoFinalModulo4/tipJar.sol\":1123:1338  {... */\n      pop\n      pop\n        /* \"@openzeppelin/contracts/utils/ReentrancyGuard.sol\":2542:2562  _nonReentrantAfter() */\n      tag_77\n        /* \"@openzeppelin/contracts/utils/ReentrancyGuard.sol\":2542:2560  _nonReentrantAfter */\n      tag_78\n        /* \"@openzeppelin/contracts/utils/ReentrancyGuard.sol\":2542:2562  _nonReentrantAfter() */\n      jump\t// in\n    tag_77:\n        /* \"TrabajoFinalModulo4/tipJar.sol\":1071:1338  function withdraw() external nonReentrant onlyOwner {... */\n      jump\t// out\n        /* \"TrabajoFinalModulo4/tipJar.sol\":1789:2131  function getTip(... */\n    tag_27:\n        /* \"TrabajoFinalModulo4/tipJar.sol\":1908:1920  address from */\n      0x00\n        /* \"TrabajoFinalModulo4/tipJar.sol\":1934:1948  uint256 amount */\n      0x00\n        /* \"TrabajoFinalModulo4/tipJar.sol\":1962:1983  string memory message */\n      0x60\n        /* \"TrabajoFinalModulo4/tipJar.sol\":1997:2014  uint256 timestamp */\n      0x00\n        /* \"TrabajoFinalModulo4/tipJar.sol\":523:528  owner */\n      0x01\n      0x00\n      swap1\n      sload\n      swap1\n      0x0100\n      exp\n      swap1\n      div\n      0xffffffffffffffffffffffffffffffffffffffff\n      and\n        /* \"TrabajoFinalModulo4/tipJar.sol\":509:528  msg.sender == owner */\n      0xffffffffffffffffffffffffffffffffffffffff\n      and\n        /* \"TrabajoFinalModulo4/tipJar.sol\":509:519  msg.sender */\n      caller\n        /* \"TrabajoFinalModulo4/tipJar.sol\":509:528  msg.sender == owner */\n      0xffffffffffffffffffffffffffffffffffffffff\n      and\n      eq\n        /* \"TrabajoFinalModulo4/tipJar.sol\":501:543  require(msg.sender == owner, \"Only owner\") */\n      tag_80\n      jumpi\n      mload(0x40)\n      0x08c379a000000000000000000000000000000000000000000000000000000000\n      dup2\n      mstore\n      0x04\n      add\n      tag_81\n      swap1\n      tag_46\n      jump\t// in\n    tag_81:\n      mload(0x40)\n      dup1\n      swap2\n      sub\n      swap1\n      revert\n    tag_80:\n        /* \"TrabajoFinalModulo4/tipJar.sol\":2039:2055  Tipper storage t */\n      0x00\n        /* \"TrabajoFinalModulo4/tipJar.sol\":2058:2062  tips */\n      0x02\n        /* \"TrabajoFinalModulo4/tipJar.sol\":2063:2064  i */\n      dup7\n        /* \"TrabajoFinalModulo4/tipJar.sol\":2058:2065  tips[i] */\n      dup2\n      sload\n      dup2\n      lt\n      tag_83\n      jumpi\n      tag_84\n      tag_85\n      jump\t// in\n    tag_84:\n    tag_83:\n      swap1\n      0x00\n      mstore\n      keccak256(0x00, 0x20)\n      swap1\n      0x04\n      mul\n      add\n        /* \"TrabajoFinalModulo4/tipJar.sol\":2039:2065  Tipper storage t = tips[i] */\n      swap1\n      pop\n        /* \"TrabajoFinalModulo4/tipJar.sol\":2083:2084  t */\n      dup1\n        /* \"TrabajoFinalModulo4/tipJar.sol\":2083:2089  t.from */\n      0x00\n      add\n      0x00\n      swap1\n      sload\n      swap1\n      0x0100\n      exp\n      swap1\n      div\n      0xffffffffffffffffffffffffffffffffffffffff\n      and\n        /* \"TrabajoFinalModulo4/tipJar.sol\":2091:2092  t */\n      dup2\n        /* \"TrabajoFinalModulo4/tipJar.sol\":2091:2099  t.amount */\n      0x01\n      add\n      sload\n        /* \"TrabajoFinalModulo4/tipJar.sol\":2101:2102  t */\n      dup3\n        /* \"TrabajoFinalModulo4/tipJar.sol\":2101:2110  t.message */\n      0x02\n      add\n        /* \"TrabajoFinalModulo4/tipJar.sol\":2112:2113  t */\n      dup4\n        /* \"TrabajoFinalModulo4/tipJar.sol\":2112:2123  t.timestamp */\n      0x03\n      add\n      sload\n        /* \"TrabajoFinalModulo4/tipJar.sol\":2075:2124  return (t.from, t.amount, t.message, t.timestamp) */\n      dup2\n      dup1\n      sload\n      tag_87\n      swap1\n      tag_56\n      jump\t// in\n    tag_87:\n      dup1\n      0x1f\n      add\n      0x20\n      dup1\n      swap2\n      div\n      mul\n      0x20\n      add\n      mload(0x40)\n      swap1\n      dup2\n      add\n      0x40\n      mstore\n      dup1\n      swap3\n      swap2\n      swap1\n      dup2\n      dup2\n      mstore\n      0x20\n      add\n      dup3\n      dup1\n      sload\n      tag_88\n      swap1\n      tag_56\n      jump\t// in\n    tag_88:\n      dup1\n      iszero\n      tag_89\n      jumpi\n      dup1\n      0x1f\n      lt\n      tag_90\n      jumpi\n      0x0100\n      dup1\n      dup4\n      sload\n      div\n      mul\n      dup4\n      mstore\n      swap2\n      0x20\n      add\n      swap2\n      jump(tag_89)\n    tag_90:\n      dup3\n      add\n      swap2\n      swap1\n      0x00\n      mstore\n      keccak256(0x00, 0x20)\n      swap1\n    tag_91:\n      dup2\n      sload\n      dup2\n      mstore\n      swap1\n      0x01\n      add\n      swap1\n      0x20\n      add\n      dup1\n      dup4\n      gt\n      tag_91\n      jumpi\n      dup3\n      swap1\n      sub\n      0x1f\n      and\n      dup3\n      add\n      swap2\n    tag_89:\n      pop\n      pop\n      pop\n      pop\n      pop\n      swap2\n      pop\n      swap5\n      pop\n      swap5\n      pop\n      swap5\n      pop\n      swap5\n      pop\n      pop\n        /* \"TrabajoFinalModulo4/tipJar.sol\":1789:2131  function getTip(... */\n      swap2\n      swap4\n      pop\n      swap2\n      swap4\n      jump\t// out\n        /* \"TrabajoFinalModulo4/tipJar.sol\":161:181  address public owner */\n    tag_32:\n      0x01\n      0x00\n      swap1\n      sload\n      swap1\n      0x0100\n      exp\n      swap1\n      div\n      0xffffffffffffffffffffffffffffffffffffffff\n      and\n      dup2\n      jump\t// out\n        /* \"TrabajoFinalModulo4/tipJar.sol\":1597:1698  function getTipsCount() external view onlyOwner returns (uint256) {... */\n    tag_37:\n        /* \"TrabajoFinalModulo4/tipJar.sol\":1654:1661  uint256 */\n      0x00\n        /* \"TrabajoFinalModulo4/tipJar.sol\":523:528  owner */\n      0x01\n      0x00\n      swap1\n      sload\n      swap1\n      0x0100\n      exp\n      swap1\n      div\n      0xffffffffffffffffffffffffffffffffffffffff\n      and\n        /* \"TrabajoFinalModulo4/tipJar.sol\":509:528  msg.sender == owner */\n      0xffffffffffffffffffffffffffffffffffffffff\n      and\n        /* \"TrabajoFinalModulo4/tipJar.sol\":509:519  msg.sender */\n      caller\n        /* \"TrabajoFinalModulo4/tipJar.sol\":509:528  msg.sender == owner */\n      0xffffffffffffffffffffffffffffffffffffffff\n      and\n      eq\n        /* \"TrabajoFinalModulo4/tipJar.sol\":501:543  require(msg.sender == owner, \"Only owner\") */\n      tag_93\n      jumpi\n      mload(0x40)\n      0x08c379a000000000000000000000000000000000000000000000000000000000\n      dup2\n      mstore\n      0x04\n      add\n      tag_94\n      swap1\n      tag_46\n      jump\t// in\n    tag_94:\n      mload(0x40)\n      dup1\n      swap2\n      sub\n      swap1\n      revert\n    tag_93:\n        /* \"TrabajoFinalModulo4/tipJar.sol\":1680:1684  tips */\n      0x02\n        /* \"TrabajoFinalModulo4/tipJar.sol\":1680:1691  tips.length */\n      dup1\n      sload\n      swap1\n      pop\n        /* \"TrabajoFinalModulo4/tipJar.sol\":1673:1691  return tips.length */\n      swap1\n      pop\n        /* \"TrabajoFinalModulo4/tipJar.sol\":1597:1698  function getTipsCount() external view onlyOwner returns (uint256) {... */\n      swap1\n      jump\t// out\n        /* \"TrabajoFinalModulo4/tipJar.sol\":650:1031  function tip(string memory message) external payable {... */\n    tag_42:\n        /* \"TrabajoFinalModulo4/tipJar.sol\":733:734  0 */\n      0x00\n        /* \"TrabajoFinalModulo4/tipJar.sol\":721:730  msg.value */\n      callvalue\n        /* \"TrabajoFinalModulo4/tipJar.sol\":721:734  msg.value > 0 */\n      gt\n        /* \"TrabajoFinalModulo4/tipJar.sol\":713:759  require(msg.value > 0, \"Must send ETH to tip\") */\n      tag_97\n      jumpi\n      mload(0x40)\n      0x08c379a000000000000000000000000000000000000000000000000000000000\n      dup2\n      mstore\n      0x04\n      add\n      tag_98\n      swap1\n      tag_99\n      jump\t// in\n    tag_98:\n      mload(0x40)\n      dup1\n      swap2\n      sub\n      swap1\n      revert\n    tag_97:\n        /* \"TrabajoFinalModulo4/tipJar.sol\":769:773  tips */\n      0x02\n        /* \"TrabajoFinalModulo4/tipJar.sol\":792:961  Tipper({... */\n      mload(0x40)\n      dup1\n      0x80\n      add\n      0x40\n      mstore\n      dup1\n        /* \"TrabajoFinalModulo4/tipJar.sol\":823:833  msg.sender */\n      caller\n        /* \"TrabajoFinalModulo4/tipJar.sol\":792:961  Tipper({... */\n      0xffffffffffffffffffffffffffffffffffffffff\n      and\n      dup2\n      mstore\n      0x20\n      add\n        /* \"TrabajoFinalModulo4/tipJar.sol\":859:868  msg.value */\n      callvalue\n        /* \"TrabajoFinalModulo4/tipJar.sol\":792:961  Tipper({... */\n      dup2\n      mstore\n      0x20\n      add\n        /* \"TrabajoFinalModulo4/tipJar.sol\":895:902  message */\n      dup4\n        /* \"TrabajoFinalModulo4/tipJar.sol\":792:961  Tipper({... */\n      dup2\n      mstore\n      0x20\n      add\n        /* \"TrabajoFinalModulo4/tipJar.sol\":931:946  block.timestamp */\n      timestamp\n        /* \"TrabajoFinalModulo4/tipJar.sol\":792:961  Tipper({... */\n      dup2\n      mstore\n      pop\n        /* \"TrabajoFinalModulo4/tipJar.sol\":769:971  tips.push(... */\n      swap1\n      dup1\n      0x01\n      dup2\n      sload\n      add\n      dup1\n      dup3\n      sstore\n      dup1\n      swap2\n      pop\n      pop\n      0x01\n      swap1\n      sub\n      swap1\n      0x00\n      mstore\n      keccak256(0x00, 0x20)\n      swap1\n      0x04\n      mul\n      add\n      0x00\n      swap1\n      swap2\n      swap1\n      swap2\n      swap1\n      swap2\n      pop\n      0x00\n      dup3\n      add\n      mload\n      dup2\n      0x00\n      add\n      exp(0x0100, 0x00)\n      dup2\n      sload\n      dup2\n      0xffffffffffffffffffffffffffffffffffffffff\n      mul\n      not\n      and\n      swap1\n      dup4\n      0xffffffffffffffffffffffffffffffffffffffff\n      and\n      mul\n      or\n      swap1\n      sstore\n      pop\n      0x20\n      dup3\n      add\n      mload\n      dup2\n      0x01\n      add\n      sstore\n      0x40\n      dup3\n      add\n      mload\n      dup2\n      0x02\n      add\n      swap1\n      dup2\n      tag_101\n      swap2\n      swap1\n      tag_102\n      jump\t// in\n    tag_101:\n      pop\n      0x60\n      dup3\n      add\n      mload\n      dup2\n      0x03\n      add\n      sstore\n      pop\n      pop\n        /* \"TrabajoFinalModulo4/tipJar.sol\":993:1003  msg.sender */\n      caller\n        /* \"TrabajoFinalModulo4/tipJar.sol\":986:1024  NewTip(msg.sender, msg.value, message) */\n      0xffffffffffffffffffffffffffffffffffffffff\n      and\n      0x2edbe3c16cfdf7d59d3418a7bebc467863d7aee89bc4da07262936cf15fb4971\n        /* \"TrabajoFinalModulo4/tipJar.sol\":1005:1014  msg.value */\n      callvalue\n        /* \"TrabajoFinalModulo4/tipJar.sol\":1016:1023  message */\n      dup4\n        /* \"TrabajoFinalModulo4/tipJar.sol\":986:1024  NewTip(msg.sender, msg.value, message) */\n      mload(0x40)\n      tag_103\n      swap3\n      swap2\n      swap1\n      tag_104\n      jump\t// in\n    tag_103:\n      mload(0x40)\n      dup1\n      swap2\n      sub\n      swap1\n      log2\n        /* \"TrabajoFinalModulo4/tipJar.sol\":650:1031  function tip(string memory message) external payable {... */\n      pop\n      jump\t// out\n        /* \"@openzeppelin/contracts/utils/ReentrancyGuard.sol\":2575:2882  function _nonReentrantBefore() private {... */\n    tag_63:\n        /* \"@openzeppelin/contracts/utils/ReentrancyGuard.sol\":1899:1900  2 */\n      0x02\n        /* \"@openzeppelin/contracts/utils/ReentrancyGuard.sol\":2702:2709  _status */\n      sload(0x00)\n        /* \"@openzeppelin/contracts/utils/ReentrancyGuard.sol\":2702:2720  _status == ENTERED */\n      sub\n        /* \"@openzeppelin/contracts/utils/ReentrancyGuard.sol\":2698:2784  if (_status == ENTERED) {... */\n      tag_106\n      jumpi\n        /* \"@openzeppelin/contracts/utils/ReentrancyGuard.sol\":2743:2773  ReentrancyGuardReentrantCall() */\n      mload(0x40)\n      0x3ee5aeb500000000000000000000000000000000000000000000000000000000\n      dup2\n      mstore\n      0x04\n      add\n      mload(0x40)\n      dup1\n      swap2\n      sub\n      swap1\n      revert\n        /* \"@openzeppelin/contracts/utils/ReentrancyGuard.sol\":2698:2784  if (_status == ENTERED) {... */\n    tag_106:\n        /* \"@openzeppelin/contracts/utils/ReentrancyGuard.sol\":1899:1900  2 */\n      0x02\n        /* \"@openzeppelin/contracts/utils/ReentrancyGuard.sol\":2858:2865  _status */\n      0x00\n        /* \"@openzeppelin/contracts/utils/ReentrancyGuard.sol\":2858:2875  _status = ENTERED */\n      dup2\n      swap1\n      sstore\n      pop\n        /* \"@openzeppelin/contracts/utils/ReentrancyGuard.sol\":2575:2882  function _nonReentrantBefore() private {... */\n      jump\t// out\n        /* \"@openzeppelin/contracts/utils/ReentrancyGuard.sol\":2888:3096  function _nonReentrantAfter() private {... */\n    tag_78:\n        /* \"@openzeppelin/contracts/utils/ReentrancyGuard.sol\":1857:1858  1 */\n      0x01\n        /* \"@openzeppelin/contracts/utils/ReentrancyGuard.sol\":3068:3075  _status */\n      0x00\n        /* \"@openzeppelin/contracts/utils/ReentrancyGuard.sol\":3068:3089  _status = NOT_ENTERED */\n      dup2\n      swap1\n      sstore\n      pop\n        /* \"@openzeppelin/contracts/utils/ReentrancyGuard.sol\":2888:3096  function _nonReentrantAfter() private {... */\n      jump\t// out\n        /* \"#utility.yul\":7:84   */\n    tag_108:\n        /* \"#utility.yul\":44:51   */\n      0x00\n        /* \"#utility.yul\":73:78   */\n      dup2\n        /* \"#utility.yul\":62:78   */\n      swap1\n      pop\n        /* \"#utility.yul\":7:84   */\n      swap2\n      swap1\n      pop\n      jump\t// out\n        /* \"#utility.yul\":90:208   */\n    tag_109:\n        /* \"#utility.yul\":177:201   */\n      tag_171\n        /* \"#utility.yul\":195:200   */\n      dup2\n        /* \"#utility.yul\":177:201   */\n      tag_108\n      jump\t// in\n    tag_171:\n        /* \"#utility.yul\":172:175   */\n      dup3\n        /* \"#utility.yul\":165:202   */\n      mstore\n        /* \"#utility.yul\":90:208   */\n      pop\n      pop\n      jump\t// out\n        /* \"#utility.yul\":214:436   */\n    tag_14:\n        /* \"#utility.yul\":307:311   */\n      0x00\n        /* \"#utility.yul\":345:347   */\n      0x20\n        /* \"#utility.yul\":334:343   */\n      dup3\n        /* \"#utility.yul\":330:348   */\n      add\n        /* \"#utility.yul\":322:348   */\n      swap1\n      pop\n        /* \"#utility.yul\":358:429   */\n      tag_173\n        /* \"#utility.yul\":426:427   */\n      0x00\n        /* \"#utility.yul\":415:424   */\n      dup4\n        /* \"#utility.yul\":411:428   */\n      add\n        /* \"#utility.yul\":402:408   */\n      dup5\n        /* \"#utility.yul\":358:429   */\n      tag_109\n      jump\t// in\n    tag_173:\n        /* \"#utility.yul\":214:436   */\n      swap3\n      swap2\n      pop\n      pop\n      jump\t// out\n        /* \"#utility.yul\":442:578   */\n    tag_110:\n        /* \"#utility.yul\":531:537   */\n      0x00\n        /* \"#utility.yul\":565:570   */\n      dup2\n        /* \"#utility.yul\":559:571   */\n      mload\n        /* \"#utility.yul\":549:571   */\n      swap1\n      pop\n        /* \"#utility.yul\":442:578   */\n      swap2\n      swap1\n      pop\n      jump\t// out\n        /* \"#utility.yul\":584:790   */\n    tag_111:\n        /* \"#utility.yul\":705:716   */\n      0x00\n        /* \"#utility.yul\":739:745   */\n      dup3\n        /* \"#utility.yul\":734:737   */\n      dup3\n        /* \"#utility.yul\":727:746   */\n      mstore\n        /* \"#utility.yul\":779:783   */\n      0x20\n        /* \"#utility.yul\":774:777   */\n      dup3\n        /* \"#utility.yul\":770:784   */\n      add\n        /* \"#utility.yul\":755:784   */\n      swap1\n      pop\n        /* \"#utility.yul\":584:790   */\n      swap3\n      swap2\n      pop\n      pop\n      jump\t// out\n        /* \"#utility.yul\":796:950   */\n    tag_112:\n        /* \"#utility.yul\":885:889   */\n      0x00\n        /* \"#utility.yul\":908:911   */\n      dup2\n        /* \"#utility.yul\":900:911   */\n      swap1\n      pop\n        /* \"#utility.yul\":938:942   */\n      0x20\n        /* \"#utility.yul\":933:936   */\n      dup3\n        /* \"#utility.yul\":929:943   */\n      add\n        /* \"#utility.yul\":921:943   */\n      swap1\n      pop\n        /* \"#utility.yul\":796:950   */\n      swap2\n      swap1\n      pop\n      jump\t// out\n        /* \"#utility.yul\":956:1082   */\n    tag_113:\n        /* \"#utility.yul\":993:1000   */\n      0x00\n        /* \"#utility.yul\":1033:1075   */\n      0xffffffffffffffffffffffffffffffffffffffff\n        /* \"#utility.yul\":1026:1031   */\n      dup3\n        /* \"#utility.yul\":1022:1076   */\n      and\n        /* \"#utility.yul\":1011:1076   */\n      swap1\n      pop\n        /* \"#utility.yul\":956:1082   */\n      swap2\n      swap1\n      pop\n      jump\t// out\n        /* \"#utility.yul\":1088:1184   */\n    tag_114:\n        /* \"#utility.yul\":1125:1132   */\n      0x00\n        /* \"#utility.yul\":1154:1178   */\n      tag_179\n        /* \"#utility.yul\":1172:1177   */\n      dup3\n        /* \"#utility.yul\":1154:1178   */\n      tag_113\n      jump\t// in\n    tag_179:\n        /* \"#utility.yul\":1143:1178   */\n      swap1\n      pop\n        /* \"#utility.yul\":1088:1184   */\n      swap2\n      swap1\n      pop\n      jump\t// out\n        /* \"#utility.yul\":1190:1298   */\n    tag_115:\n        /* \"#utility.yul\":1267:1291   */\n      tag_181\n        /* \"#utility.yul\":1285:1290   */\n      dup2\n        /* \"#utility.yul\":1267:1291   */\n      tag_114\n      jump\t// in\n    tag_181:\n        /* \"#utility.yul\":1262:1265   */\n      dup3\n        /* \"#utility.yul\":1255:1292   */\n      mstore\n        /* \"#utility.yul\":1190:1298   */\n      pop\n      pop\n      jump\t// out\n        /* \"#utility.yul\":1304:1412   */\n    tag_116:\n        /* \"#utility.yul\":1381:1405   */\n      tag_183\n        /* \"#utility.yul\":1399:1404   */\n      dup2\n        /* \"#utility.yul\":1381:1405   */\n      tag_108\n      jump\t// in\n    tag_183:\n        /* \"#utility.yul\":1376:1379   */\n      dup3\n        /* \"#utility.yul\":1369:1406   */\n      mstore\n        /* \"#utility.yul\":1304:1412   */\n      pop\n      pop\n      jump\t// out\n        /* \"#utility.yul\":1418:1517   */\n    tag_117:\n        /* \"#utility.yul\":1470:1476   */\n      0x00\n        /* \"#utility.yul\":1504:1509   */\n      dup2\n        /* \"#utility.yul\":1498:1510   */\n      mload\n        /* \"#utility.yul\":1488:1510   */\n      swap1\n      pop\n        /* \"#utility.yul\":1418:1517   */\n      swap2\n      swap1\n      pop\n      jump\t// out\n        /* \"#utility.yul\":1523:1682   */\n    tag_118:\n        /* \"#utility.yul\":1597:1608   */\n      0x00\n        /* \"#utility.yul\":1631:1637   */\n      dup3\n        /* \"#utility.yul\":1626:1629   */\n      dup3\n        /* \"#utility.yul\":1619:1638   */\n      mstore\n        /* \"#utility.yul\":1671:1675   */\n      0x20\n        /* \"#utility.yul\":1666:1669   */\n      dup3\n        /* \"#utility.yul\":1662:1676   */\n      add\n        /* \"#utility.yul\":1647:1676   */\n      swap1\n      pop\n        /* \"#utility.yul\":1523:1682   */\n      swap3\n      swap2\n      pop\n      pop\n      jump\t// out\n        /* \"#utility.yul\":1688:1827   */\n    tag_119:\n        /* \"#utility.yul\":1777:1783   */\n      dup3\n        /* \"#utility.yul\":1772:1775   */\n      dup2\n        /* \"#utility.yul\":1767:1770   */\n      dup4\n        /* \"#utility.yul\":1761:1784   */\n      mcopy\n        /* \"#utility.yul\":1818:1819   */\n      0x00\n        /* \"#utility.yul\":1809:1815   */\n      dup4\n        /* \"#utility.yul\":1804:1807   */\n      dup4\n        /* \"#utility.yul\":1800:1816   */\n      add\n        /* \"#utility.yul\":1793:1820   */\n      mstore\n        /* \"#utility.yul\":1688:1827   */\n      pop\n      pop\n      pop\n      jump\t// out\n        /* \"#utility.yul\":1833:1935   */\n    tag_120:\n        /* \"#utility.yul\":1874:1880   */\n      0x00\n        /* \"#utility.yul\":1925:1927   */\n      0x1f\n        /* \"#utility.yul\":1921:1928   */\n      not\n        /* \"#utility.yul\":1916:1918   */\n      0x1f\n        /* \"#utility.yul\":1909:1914   */\n      dup4\n        /* \"#utility.yul\":1905:1919   */\n      add\n        /* \"#utility.yul\":1901:1929   */\n      and\n        /* \"#utility.yul\":1891:1929   */\n      swap1\n      pop\n        /* \"#utility.yul\":1833:1935   */\n      swap2\n      swap1\n      pop\n      jump\t// out\n        /* \"#utility.yul\":1941:2298   */\n    tag_121:\n        /* \"#utility.yul\":2019:2022   */\n      0x00\n        /* \"#utility.yul\":2047:2086   */\n      tag_189\n        /* \"#utility.yul\":2080:2085   */\n      dup3\n        /* \"#utility.yul\":2047:2086   */\n      tag_117\n      jump\t// in\n    tag_189:\n        /* \"#utility.yul\":2102:2163   */\n      tag_190\n        /* \"#utility.yul\":2156:2162   */\n      dup2\n        /* \"#utility.yul\":2151:2154   */\n      dup6\n        /* \"#utility.yul\":2102:2163   */\n      tag_118\n      jump\t// in\n    tag_190:\n        /* \"#utility.yul\":2095:2163   */\n      swap4\n      pop\n        /* \"#utility.yul\":2172:2237   */\n      tag_191\n        /* \"#utility.yul\":2230:2236   */\n      dup2\n        /* \"#utility.yul\":2225:2228   */\n      dup6\n        /* \"#utility.yul\":2218:2222   */\n      0x20\n        /* \"#utility.yul\":2211:2216   */\n      dup7\n        /* \"#utility.yul\":2207:2223   */\n      add\n        /* \"#utility.yul\":2172:2237   */\n      tag_119\n      jump\t// in\n    tag_191:\n        /* \"#utility.yul\":2262:2291   */\n      tag_192\n        /* \"#utility.yul\":2284:2290   */\n      dup2\n        /* \"#utility.yul\":2262:2291   */\n      tag_120\n      jump\t// in\n    tag_192:\n        /* \"#utility.yul\":2257:2260   */\n      dup5\n        /* \"#utility.yul\":2253:2292   */\n      add\n        /* \"#utility.yul\":2246:2292   */\n      swap2\n      pop\n        /* \"#utility.yul\":2023:2298   */\n      pop\n        /* \"#utility.yul\":1941:2298   */\n      swap3\n      swap2\n      pop\n      pop\n      jump\t// out\n        /* \"#utility.yul\":2356:3304   */\n    tag_122:\n        /* \"#utility.yul\":2459:2462   */\n      0x00\n        /* \"#utility.yul\":2495:2499   */\n      0x80\n        /* \"#utility.yul\":2490:2493   */\n      dup4\n        /* \"#utility.yul\":2486:2500   */\n      add\n        /* \"#utility.yul\":2582:2586   */\n      0x00\n        /* \"#utility.yul\":2575:2580   */\n      dup4\n        /* \"#utility.yul\":2571:2587   */\n      add\n        /* \"#utility.yul\":2565:2588   */\n      mload\n        /* \"#utility.yul\":2601:2664   */\n      tag_194\n        /* \"#utility.yul\":2658:2662   */\n      0x00\n        /* \"#utility.yul\":2653:2656   */\n      dup7\n        /* \"#utility.yul\":2649:2663   */\n      add\n        /* \"#utility.yul\":2635:2647   */\n      dup3\n        /* \"#utility.yul\":2601:2664   */\n      tag_115\n      jump\t// in\n    tag_194:\n        /* \"#utility.yul\":2510:2674   */\n      pop\n        /* \"#utility.yul\":2758:2762   */\n      0x20\n        /* \"#utility.yul\":2751:2756   */\n      dup4\n        /* \"#utility.yul\":2747:2763   */\n      add\n        /* \"#utility.yul\":2741:2764   */\n      mload\n        /* \"#utility.yul\":2777:2840   */\n      tag_195\n        /* \"#utility.yul\":2834:2838   */\n      0x20\n        /* \"#utility.yul\":2829:2832   */\n      dup7\n        /* \"#utility.yul\":2825:2839   */\n      add\n        /* \"#utility.yul\":2811:2823   */\n      dup3\n        /* \"#utility.yul\":2777:2840   */\n      tag_116\n      jump\t// in\n    tag_195:\n        /* \"#utility.yul\":2684:2850   */\n      pop\n        /* \"#utility.yul\":2935:2939   */\n      0x40\n        /* \"#utility.yul\":2928:2933   */\n      dup4\n        /* \"#utility.yul\":2924:2940   */\n      add\n        /* \"#utility.yul\":2918:2941   */\n      mload\n        /* \"#utility.yul\":2988:2991   */\n      dup5\n        /* \"#utility.yul\":2982:2986   */\n      dup3\n        /* \"#utility.yul\":2978:2992   */\n      sub\n        /* \"#utility.yul\":2971:2975   */\n      0x40\n        /* \"#utility.yul\":2966:2969   */\n      dup7\n        /* \"#utility.yul\":2962:2976   */\n      add\n        /* \"#utility.yul\":2955:2993   */\n      mstore\n        /* \"#utility.yul\":3014:3087   */\n      tag_196\n        /* \"#utility.yul\":3082:3086   */\n      dup3\n        /* \"#utility.yul\":3068:3080   */\n      dup3\n        /* \"#utility.yul\":3014:3087   */\n      tag_121\n      jump\t// in\n    tag_196:\n        /* \"#utility.yul\":3006:3087   */\n      swap2\n      pop\n        /* \"#utility.yul\":2860:3098   */\n      pop\n        /* \"#utility.yul\":3185:3189   */\n      0x60\n        /* \"#utility.yul\":3178:3183   */\n      dup4\n        /* \"#utility.yul\":3174:3190   */\n      add\n        /* \"#utility.yul\":3168:3191   */\n      mload\n        /* \"#utility.yul\":3204:3267   */\n      tag_197\n        /* \"#utility.yul\":3261:3265   */\n      0x60\n        /* \"#utility.yul\":3256:3259   */\n      dup7\n        /* \"#utility.yul\":3252:3266   */\n      add\n        /* \"#utility.yul\":3238:3250   */\n      dup3\n        /* \"#utility.yul\":3204:3267   */\n      tag_116\n      jump\t// in\n    tag_197:\n        /* \"#utility.yul\":3108:3277   */\n      pop\n        /* \"#utility.yul\":3294:3298   */\n      dup1\n        /* \"#utility.yul\":3287:3298   */\n      swap2\n      pop\n        /* \"#utility.yul\":2464:3304   */\n      pop\n        /* \"#utility.yul\":2356:3304   */\n      swap3\n      swap2\n      pop\n      pop\n      jump\t// out\n        /* \"#utility.yul\":3310:3554   */\n    tag_123:\n        /* \"#utility.yul\":3423:3433   */\n      0x00\n        /* \"#utility.yul\":3458:3548   */\n      tag_199\n        /* \"#utility.yul\":3544:3547   */\n      dup4\n        /* \"#utility.yul\":3536:3542   */\n      dup4\n        /* \"#utility.yul\":3458:3548   */\n      tag_122\n      jump\t// in\n    tag_199:\n        /* \"#utility.yul\":3444:3548   */\n      swap1\n      pop\n        /* \"#utility.yul\":3310:3554   */\n      swap3\n      swap2\n      pop\n      pop\n      jump\t// out\n        /* \"#utility.yul\":3560:3695   */\n    tag_124:\n        /* \"#utility.yul\":3652:3656   */\n      0x00\n        /* \"#utility.yul\":3684:3688   */\n      0x20\n        /* \"#utility.yul\":3679:3682   */\n      dup3\n        /* \"#utility.yul\":3675:3689   */\n      add\n        /* \"#utility.yul\":3667:3689   */\n      swap1\n      pop\n        /* \"#utility.yul\":3560:3695   */\n      swap2\n      swap1\n      pop\n      jump\t// out\n        /* \"#utility.yul\":3757:4844   */\n    tag_125:\n        /* \"#utility.yul\":3920:3923   */\n      0x00\n        /* \"#utility.yul\":3949:4025   */\n      tag_202\n        /* \"#utility.yul\":4019:4024   */\n      dup3\n        /* \"#utility.yul\":3949:4025   */\n      tag_110\n      jump\t// in\n    tag_202:\n        /* \"#utility.yul\":4041:4149   */\n      tag_203\n        /* \"#utility.yul\":4142:4148   */\n      dup2\n        /* \"#utility.yul\":4137:4140   */\n      dup6\n        /* \"#utility.yul\":4041:4149   */\n      tag_111\n      jump\t// in\n    tag_203:\n        /* \"#utility.yul\":4034:4149   */\n      swap4\n      pop\n        /* \"#utility.yul\":4175:4178   */\n      dup4\n        /* \"#utility.yul\":4220:4224   */\n      0x20\n        /* \"#utility.yul\":4212:4218   */\n      dup3\n        /* \"#utility.yul\":4208:4225   */\n      mul\n        /* \"#utility.yul\":4203:4206   */\n      dup6\n        /* \"#utility.yul\":4199:4226   */\n      add\n        /* \"#utility.yul\":4250:4328   */\n      tag_204\n        /* \"#utility.yul\":4322:4327   */\n      dup6\n        /* \"#utility.yul\":4250:4328   */\n      tag_112\n      jump\t// in\n    tag_204:\n        /* \"#utility.yul\":4351:4358   */\n      dup1\n        /* \"#utility.yul\":4382:4383   */\n      0x00\n        /* \"#utility.yul\":4367:4799   */\n    tag_205:\n        /* \"#utility.yul\":4392:4398   */\n      dup6\n        /* \"#utility.yul\":4389:4390   */\n      dup2\n        /* \"#utility.yul\":4386:4399   */\n      lt\n        /* \"#utility.yul\":4367:4799   */\n      iszero\n      tag_207\n      jumpi\n        /* \"#utility.yul\":4463:4472   */\n      dup5\n        /* \"#utility.yul\":4457:4461   */\n      dup5\n        /* \"#utility.yul\":4453:4473   */\n      sub\n        /* \"#utility.yul\":4448:4451   */\n      dup10\n        /* \"#utility.yul\":4441:4474   */\n      mstore\n        /* \"#utility.yul\":4514:4520   */\n      dup2\n        /* \"#utility.yul\":4508:4521   */\n      mload\n        /* \"#utility.yul\":4542:4650   */\n      tag_208\n        /* \"#utility.yul\":4645:4649   */\n      dup6\n        /* \"#utility.yul\":4630:4643   */\n      dup3\n        /* \"#utility.yul\":4542:4650   */\n      tag_123\n      jump\t// in\n    tag_208:\n        /* \"#utility.yul\":4534:4650   */\n      swap5\n      pop\n        /* \"#utility.yul\":4673:4755   */\n      tag_209\n        /* \"#utility.yul\":4748:4754   */\n      dup4\n        /* \"#utility.yul\":4673:4755   */\n      tag_124\n      jump\t// in\n    tag_209:\n        /* \"#utility.yul\":4663:4755   */\n      swap3\n      pop\n        /* \"#utility.yul\":4784:4788   */\n      0x20\n        /* \"#utility.yul\":4779:4782   */\n      dup11\n        /* \"#utility.yul\":4775:4789   */\n      add\n        /* \"#utility.yul\":4768:4789   */\n      swap10\n      pop\n        /* \"#utility.yul\":4427:4799   */\n      pop\n        /* \"#utility.yul\":4414:4415   */\n      0x01\n        /* \"#utility.yul\":4411:4412   */\n      dup2\n        /* \"#utility.yul\":4407:4416   */\n      add\n        /* \"#utility.yul\":4402:4416   */\n      swap1\n      pop\n        /* \"#utility.yul\":4367:4799   */\n      jump(tag_205)\n    tag_207:\n        /* \"#utility.yul\":4371:4385   */\n      pop\n        /* \"#utility.yul\":4815:4819   */\n      dup3\n        /* \"#utility.yul\":4808:4819   */\n      swap8\n      pop\n        /* \"#utility.yul\":4835:4838   */\n      dup8\n        /* \"#utility.yul\":4828:4838   */\n      swap6\n      pop\n        /* \"#utility.yul\":3925:4844   */\n      pop\n      pop\n      pop\n      pop\n      pop\n        /* \"#utility.yul\":3757:4844   */\n      swap3\n      swap2\n      pop\n      pop\n      jump\t// out\n        /* \"#utility.yul\":4850:5311   */\n    tag_19:\n        /* \"#utility.yul\":5037:5041   */\n      0x00\n        /* \"#utility.yul\":5075:5077   */\n      0x20\n        /* \"#utility.yul\":5064:5073   */\n      dup3\n        /* \"#utility.yul\":5060:5078   */\n      add\n        /* \"#utility.yul\":5052:5078   */\n      swap1\n      pop\n        /* \"#utility.yul\":5124:5133   */\n      dup2\n        /* \"#utility.yul\":5118:5122   */\n      dup2\n        /* \"#utility.yul\":5114:5134   */\n      sub\n        /* \"#utility.yul\":5110:5111   */\n      0x00\n        /* \"#utility.yul\":5099:5108   */\n      dup4\n        /* \"#utility.yul\":5095:5112   */\n      add\n        /* \"#utility.yul\":5088:5135   */\n      mstore\n        /* \"#utility.yul\":5152:5304   */\n      tag_211\n        /* \"#utility.yul\":5299:5303   */\n      dup2\n        /* \"#utility.yul\":5290:5296   */\n      dup5\n        /* \"#utility.yul\":5152:5304   */\n      tag_125\n      jump\t// in\n    tag_211:\n        /* \"#utility.yul\":5144:5304   */\n      swap1\n      pop\n        /* \"#utility.yul\":4850:5311   */\n      swap3\n      swap2\n      pop\n      pop\n      jump\t// out\n        /* \"#utility.yul\":5317:5392   */\n    tag_126:\n        /* \"#utility.yul\":5350:5356   */\n      0x00\n        /* \"#utility.yul\":5383:5385   */\n      0x40\n        /* \"#utility.yul\":5377:5386   */\n      mload\n        /* \"#utility.yul\":5367:5386   */\n      swap1\n      pop\n        /* \"#utility.yul\":5317:5392   */\n      swap1\n      jump\t// out\n        /* \"#utility.yul\":5398:5515   */\n    tag_127:\n        /* \"#utility.yul\":5507:5508   */\n      0x00\n        /* \"#utility.yul\":5504:5505   */\n      0x00\n        /* \"#utility.yul\":5497:5509   */\n      revert\n        /* \"#utility.yul\":5521:5638   */\n    tag_128:\n        /* \"#utility.yul\":5630:5631   */\n      0x00\n        /* \"#utility.yul\":5627:5628   */\n      0x00\n        /* \"#utility.yul\":5620:5632   */\n      revert\n        /* \"#utility.yul\":5644:5766   */\n    tag_129:\n        /* \"#utility.yul\":5717:5741   */\n      tag_216\n        /* \"#utility.yul\":5735:5740   */\n      dup2\n        /* \"#utility.yul\":5717:5741   */\n      tag_108\n      jump\t// in\n    tag_216:\n        /* \"#utility.yul\":5710:5715   */\n      dup2\n        /* \"#utility.yul\":5707:5742   */\n      eq\n        /* \"#utility.yul\":5697:5760   */\n      tag_217\n      jumpi\n        /* \"#utility.yul\":5756:5757   */\n      0x00\n        /* \"#utility.yul\":5753:5754   */\n      0x00\n        /* \"#utility.yul\":5746:5758   */\n      revert\n        /* \"#utility.yul\":5697:5760   */\n    tag_217:\n        /* \"#utility.yul\":5644:5766   */\n      pop\n      jump\t// out\n        /* \"#utility.yul\":5772:5911   */\n    tag_130:\n        /* \"#utility.yul\":5818:5823   */\n      0x00\n        /* \"#utility.yul\":5856:5862   */\n      dup2\n        /* \"#utility.yul\":5843:5863   */\n      calldataload\n        /* \"#utility.yul\":5834:5863   */\n      swap1\n      pop\n        /* \"#utility.yul\":5872:5905   */\n      tag_219\n        /* \"#utility.yul\":5899:5904   */\n      dup2\n        /* \"#utility.yul\":5872:5905   */\n      tag_129\n      jump\t// in\n    tag_219:\n        /* \"#utility.yul\":5772:5911   */\n      swap3\n      swap2\n      pop\n      pop\n      jump\t// out\n        /* \"#utility.yul\":5917:6246   */\n    tag_26:\n        /* \"#utility.yul\":5976:5982   */\n      0x00\n        /* \"#utility.yul\":6025:6027   */\n      0x20\n        /* \"#utility.yul\":6013:6022   */\n      dup3\n        /* \"#utility.yul\":6004:6011   */\n      dup5\n        /* \"#utility.yul\":6000:6023   */\n      sub\n        /* \"#utility.yul\":5996:6028   */\n      slt\n        /* \"#utility.yul\":5993:6112   */\n      iszero\n      tag_221\n      jumpi\n        /* \"#utility.yul\":6031:6110   */\n      tag_222\n      tag_127\n      jump\t// in\n    tag_222:\n        /* \"#utility.yul\":5993:6112   */\n    tag_221:\n        /* \"#utility.yul\":6151:6152   */\n      0x00\n        /* \"#utility.yul\":6176:6229   */\n      tag_223\n        /* \"#utility.yul\":6221:6228   */\n      dup5\n        /* \"#utility.yul\":6212:6218   */\n      dup3\n        /* \"#utility.yul\":6201:6210   */\n      dup6\n        /* \"#utility.yul\":6197:6219   */\n      add\n        /* \"#utility.yul\":6176:6229   */\n      tag_130\n      jump\t// in\n    tag_223:\n        /* \"#utility.yul\":6166:6229   */\n      swap2\n      pop\n        /* \"#utility.yul\":6122:6239   */\n      pop\n        /* \"#utility.yul\":5917:6246   */\n      swap3\n      swap2\n      pop\n      pop\n      jump\t// out\n        /* \"#utility.yul\":6252:6370   */\n    tag_131:\n        /* \"#utility.yul\":6339:6363   */\n      tag_225\n        /* \"#utility.yul\":6357:6362   */\n      dup2\n        /* \"#utility.yul\":6339:6363   */\n      tag_114\n      jump\t// in\n    tag_225:\n        /* \"#utility.yul\":6334:6337   */\n      dup3\n        /* \"#utility.yul\":6327:6364   */\n      mstore\n        /* \"#utility.yul\":6252:6370   */\n      pop\n      pop\n      jump\t// out\n        /* \"#utility.yul\":6376:6545   */\n    tag_132:\n        /* \"#utility.yul\":6460:6471   */\n      0x00\n        /* \"#utility.yul\":6494:6500   */\n      dup3\n        /* \"#utility.yul\":6489:6492   */\n      dup3\n        /* \"#utility.yul\":6482:6501   */\n      mstore\n        /* \"#utility.yul\":6534:6538   */\n      0x20\n        /* \"#utility.yul\":6529:6532   */\n      dup3\n        /* \"#utility.yul\":6525:6539   */\n      add\n        /* \"#utility.yul\":6510:6539   */\n      swap1\n      pop\n        /* \"#utility.yul\":6376:6545   */\n      swap3\n      swap2\n      pop\n      pop\n      jump\t// out\n        /* \"#utility.yul\":6551:6928   */\n    tag_133:\n        /* \"#utility.yul\":6639:6642   */\n      0x00\n        /* \"#utility.yul\":6667:6706   */\n      tag_228\n        /* \"#utility.yul\":6700:6705   */\n      dup3\n        /* \"#utility.yul\":6667:6706   */\n      tag_117\n      jump\t// in\n    tag_228:\n        /* \"#utility.yul\":6722:6793   */\n      tag_229\n        /* \"#utility.yul\":6786:6792   */\n      dup2\n        /* \"#utility.yul\":6781:6784   */\n      dup6\n        /* \"#utility.yul\":6722:6793   */\n      tag_132\n      jump\t// in\n    tag_229:\n        /* \"#utility.yul\":6715:6793   */\n      swap4\n      pop\n        /* \"#utility.yul\":6802:6867   */\n      tag_230\n        /* \"#utility.yul\":6860:6866   */\n      dup2\n        /* \"#utility.yul\":6855:6858   */\n      dup6\n        /* \"#utility.yul\":6848:6852   */\n      0x20\n        /* \"#utility.yul\":6841:6846   */\n      dup7\n        /* \"#utility.yul\":6837:6853   */\n      add\n        /* \"#utility.yul\":6802:6867   */\n      tag_119\n      jump\t// in\n    tag_230:\n        /* \"#utility.yul\":6892:6921   */\n      tag_231\n        /* \"#utility.yul\":6914:6920   */\n      dup2\n        /* \"#utility.yul\":6892:6921   */\n      tag_120\n      jump\t// in\n    tag_231:\n        /* \"#utility.yul\":6887:6890   */\n      dup5\n        /* \"#utility.yul\":6883:6922   */\n      add\n        /* \"#utility.yul\":6876:6922   */\n      swap2\n      pop\n        /* \"#utility.yul\":6643:6928   */\n      pop\n        /* \"#utility.yul\":6551:6928   */\n      swap3\n      swap2\n      pop\n      pop\n      jump\t// out\n        /* \"#utility.yul\":6934:7578   */\n    tag_29:\n        /* \"#utility.yul\":7131:7135   */\n      0x00\n        /* \"#utility.yul\":7169:7172   */\n      0x80\n        /* \"#utility.yul\":7158:7167   */\n      dup3\n        /* \"#utility.yul\":7154:7173   */\n      add\n        /* \"#utility.yul\":7146:7173   */\n      swap1\n      pop\n        /* \"#utility.yul\":7183:7254   */\n      tag_233\n        /* \"#utility.yul\":7251:7252   */\n      0x00\n        /* \"#utility.yul\":7240:7249   */\n      dup4\n        /* \"#utility.yul\":7236:7253   */\n      add\n        /* \"#utility.yul\":7227:7233   */\n      dup8\n        /* \"#utility.yul\":7183:7254   */\n      tag_131\n      jump\t// in\n    tag_233:\n        /* \"#utility.yul\":7264:7336   */\n      tag_234\n        /* \"#utility.yul\":7332:7334   */\n      0x20\n        /* \"#utility.yul\":7321:7330   */\n      dup4\n        /* \"#utility.yul\":7317:7335   */\n      add\n        /* \"#utility.yul\":7308:7314   */\n      dup7\n        /* \"#utility.yul\":7264:7336   */\n      tag_109\n      jump\t// in\n    tag_234:\n        /* \"#utility.yul\":7383:7392   */\n      dup2\n        /* \"#utility.yul\":7377:7381   */\n      dup2\n        /* \"#utility.yul\":7373:7393   */\n      sub\n        /* \"#utility.yul\":7368:7370   */\n      0x40\n        /* \"#utility.yul\":7357:7366   */\n      dup4\n        /* \"#utility.yul\":7353:7371   */\n      add\n        /* \"#utility.yul\":7346:7394   */\n      mstore\n        /* \"#utility.yul\":7411:7489   */\n      tag_235\n        /* \"#utility.yul\":7484:7488   */\n      dup2\n        /* \"#utility.yul\":7475:7481   */\n      dup6\n        /* \"#utility.yul\":7411:7489   */\n      tag_133\n      jump\t// in\n    tag_235:\n        /* \"#utility.yul\":7403:7489   */\n      swap1\n      pop\n        /* \"#utility.yul\":7499:7571   */\n      tag_236\n        /* \"#utility.yul\":7567:7569   */\n      0x60\n        /* \"#utility.yul\":7556:7565   */\n      dup4\n        /* \"#utility.yul\":7552:7570   */\n      add\n        /* \"#utility.yul\":7543:7549   */\n      dup5\n        /* \"#utility.yul\":7499:7571   */\n      tag_109\n      jump\t// in\n    tag_236:\n        /* \"#utility.yul\":6934:7578   */\n      swap6\n      swap5\n      pop\n      pop\n      pop\n      pop\n      pop\n      jump\t// out\n        /* \"#utility.yul\":7584:7806   */\n    tag_34:\n        /* \"#utility.yul\":7677:7681   */\n      0x00\n        /* \"#utility.yul\":7715:7717   */\n      0x20\n        /* \"#utility.yul\":7704:7713   */\n      dup3\n        /* \"#utility.yul\":7700:7718   */\n      add\n        /* \"#utility.yul\":7692:7718   */\n      swap1\n      pop\n        /* \"#utility.yul\":7728:7799   */\n      tag_238\n        /* \"#utility.yul\":7796:7797   */\n      0x00\n        /* \"#utility.yul\":7785:7794   */\n      dup4\n        /* \"#utility.yul\":7781:7798   */\n      add\n        /* \"#utility.yul\":7772:7778   */\n      dup5\n        /* \"#utility.yul\":7728:7799   */\n      tag_131\n      jump\t// in\n    tag_238:\n        /* \"#utility.yul\":7584:7806   */\n      swap3\n      swap2\n      pop\n      pop\n      jump\t// out\n        /* \"#utility.yul\":7812:7929   */\n    tag_134:\n        /* \"#utility.yul\":7921:7922   */\n      0x00\n        /* \"#utility.yul\":7918:7919   */\n      0x00\n        /* \"#utility.yul\":7911:7923   */\n      revert\n        /* \"#utility.yul\":7935:8052   */\n    tag_135:\n        /* \"#utility.yul\":8044:8045   */\n      0x00\n        /* \"#utility.yul\":8041:8042   */\n      0x00\n        /* \"#utility.yul\":8034:8046   */\n      revert\n        /* \"#utility.yul\":8058:8238   */\n    tag_136:\n        /* \"#utility.yul\":8106:8183   */\n      0x4e487b7100000000000000000000000000000000000000000000000000000000\n        /* \"#utility.yul\":8103:8104   */\n      0x00\n        /* \"#utility.yul\":8096:8184   */\n      mstore\n        /* \"#utility.yul\":8203:8207   */\n      0x41\n        /* \"#utility.yul\":8200:8201   */\n      0x04\n        /* \"#utility.yul\":8193:8208   */\n      mstore\n        /* \"#utility.yul\":8227:8231   */\n      0x24\n        /* \"#utility.yul\":8224:8225   */\n      0x00\n        /* \"#utility.yul\":8217:8232   */\n      revert\n        /* \"#utility.yul\":8244:8525   */\n    tag_137:\n        /* \"#utility.yul\":8327:8354   */\n      tag_243\n        /* \"#utility.yul\":8349:8353   */\n      dup3\n        /* \"#utility.yul\":8327:8354   */\n      tag_120\n      jump\t// in\n    tag_243:\n        /* \"#utility.yul\":8319:8325   */\n      dup2\n        /* \"#utility.yul\":8315:8355   */\n      add\n        /* \"#utility.yul\":8457:8463   */\n      dup2\n        /* \"#utility.yul\":8445:8455   */\n      dup2\n        /* \"#utility.yul\":8442:8464   */\n      lt\n        /* \"#utility.yul\":8421:8439   */\n      0xffffffffffffffff\n        /* \"#utility.yul\":8409:8419   */\n      dup3\n        /* \"#utility.yul\":8406:8440   */\n      gt\n        /* \"#utility.yul\":8403:8465   */\n      or\n        /* \"#utility.yul\":8400:8488   */\n      iszero\n      tag_244\n      jumpi\n        /* \"#utility.yul\":8468:8486   */\n      tag_245\n      tag_136\n      jump\t// in\n    tag_245:\n        /* \"#utility.yul\":8400:8488   */\n    tag_244:\n        /* \"#utility.yul\":8508:8518   */\n      dup1\n        /* \"#utility.yul\":8504:8506   */\n      0x40\n        /* \"#utility.yul\":8497:8519   */\n      mstore\n        /* \"#utility.yul\":8287:8525   */\n      pop\n        /* \"#utility.yul\":8244:8525   */\n      pop\n      pop\n      jump\t// out\n        /* \"#utility.yul\":8531:8660   */\n    tag_138:\n        /* \"#utility.yul\":8565:8571   */\n      0x00\n        /* \"#utility.yul\":8592:8612   */\n      tag_247\n      tag_126\n      jump\t// in\n    tag_247:\n        /* \"#utility.yul\":8582:8612   */\n      swap1\n      pop\n        /* \"#utility.yul\":8621:8654   */\n      tag_248\n        /* \"#utility.yul\":8649:8653   */\n      dup3\n        /* \"#utility.yul\":8641:8647   */\n      dup3\n        /* \"#utility.yul\":8621:8654   */\n      tag_137\n      jump\t// in\n    tag_248:\n        /* \"#utility.yul\":8531:8660   */\n      swap2\n      swap1\n      pop\n      jump\t// out\n        /* \"#utility.yul\":8666:8974   */\n    tag_139:\n        /* \"#utility.yul\":8728:8732   */\n      0x00\n        /* \"#utility.yul\":8818:8836   */\n      0xffffffffffffffff\n        /* \"#utility.yul\":8810:8816   */\n      dup3\n        /* \"#utility.yul\":8807:8837   */\n      gt\n        /* \"#utility.yul\":8804:8860   */\n      iszero\n      tag_250\n      jumpi\n        /* \"#utility.yul\":8840:8858   */\n      tag_251\n      tag_136\n      jump\t// in\n    tag_251:\n        /* \"#utility.yul\":8804:8860   */\n    tag_250:\n        /* \"#utility.yul\":8878:8907   */\n      tag_252\n        /* \"#utility.yul\":8900:8906   */\n      dup3\n        /* \"#utility.yul\":8878:8907   */\n      tag_120\n      jump\t// in\n    tag_252:\n        /* \"#utility.yul\":8870:8907   */\n      swap1\n      pop\n        /* \"#utility.yul\":8962:8966   */\n      0x20\n        /* \"#utility.yul\":8956:8960   */\n      dup2\n        /* \"#utility.yul\":8952:8967   */\n      add\n        /* \"#utility.yul\":8944:8967   */\n      swap1\n      pop\n        /* \"#utility.yul\":8666:8974   */\n      swap2\n      swap1\n      pop\n      jump\t// out\n        /* \"#utility.yul\":8980:9128   */\n    tag_140:\n        /* \"#utility.yul\":9078:9084   */\n      dup3\n        /* \"#utility.yul\":9073:9076   */\n      dup2\n        /* \"#utility.yul\":9068:9071   */\n      dup4\n        /* \"#utility.yul\":9055:9085   */\n      calldatacopy\n        /* \"#utility.yul\":9119:9120   */\n      0x00\n        /* \"#utility.yul\":9110:9116   */\n      dup4\n        /* \"#utility.yul\":9105:9108   */\n      dup4\n        /* \"#utility.yul\":9101:9117   */\n      add\n        /* \"#utility.yul\":9094:9121   */\n      mstore\n        /* \"#utility.yul\":8980:9128   */\n      pop\n      pop\n      pop\n      jump\t// out\n        /* \"#utility.yul\":9134:9559   */\n    tag_141:\n        /* \"#utility.yul\":9212:9217   */\n      0x00\n        /* \"#utility.yul\":9237:9303   */\n      tag_255\n        /* \"#utility.yul\":9253:9302   */\n      tag_256\n        /* \"#utility.yul\":9295:9301   */\n      dup5\n        /* \"#utility.yul\":9253:9302   */\n      tag_139\n      jump\t// in\n    tag_256:\n        /* \"#utility.yul\":9237:9303   */\n      tag_138\n      jump\t// in\n    tag_255:\n        /* \"#utility.yul\":9228:9303   */\n      swap1\n      pop\n        /* \"#utility.yul\":9326:9332   */\n      dup3\n        /* \"#utility.yul\":9319:9324   */\n      dup2\n        /* \"#utility.yul\":9312:9333   */\n      mstore\n        /* \"#utility.yul\":9364:9368   */\n      0x20\n        /* \"#utility.yul\":9357:9362   */\n      dup2\n        /* \"#utility.yul\":9353:9369   */\n      add\n        /* \"#utility.yul\":9402:9405   */\n      dup5\n        /* \"#utility.yul\":9393:9399   */\n      dup5\n        /* \"#utility.yul\":9388:9391   */\n      dup5\n        /* \"#utility.yul\":9384:9400   */\n      add\n        /* \"#utility.yul\":9381:9406   */\n      gt\n        /* \"#utility.yul\":9378:9490   */\n      iszero\n      tag_257\n      jumpi\n        /* \"#utility.yul\":9409:9488   */\n      tag_258\n      tag_135\n      jump\t// in\n    tag_258:\n        /* \"#utility.yul\":9378:9490   */\n    tag_257:\n        /* \"#utility.yul\":9499:9553   */\n      tag_259\n        /* \"#utility.yul\":9546:9552   */\n      dup5\n        /* \"#utility.yul\":9541:9544   */\n      dup3\n        /* \"#utility.yul\":9536:9539   */\n      dup6\n        /* \"#utility.yul\":9499:9553   */\n      tag_140\n      jump\t// in\n    tag_259:\n        /* \"#utility.yul\":9218:9559   */\n      pop\n        /* \"#utility.yul\":9134:9559   */\n      swap4\n      swap3\n      pop\n      pop\n      pop\n      jump\t// out\n        /* \"#utility.yul\":9579:9919   */\n    tag_142:\n        /* \"#utility.yul\":9635:9640   */\n      0x00\n        /* \"#utility.yul\":9684:9687   */\n      dup3\n        /* \"#utility.yul\":9677:9681   */\n      0x1f\n        /* \"#utility.yul\":9669:9675   */\n      dup4\n        /* \"#utility.yul\":9665:9682   */\n      add\n        /* \"#utility.yul\":9661:9688   */\n      slt\n        /* \"#utility.yul\":9651:9773   */\n      tag_261\n      jumpi\n        /* \"#utility.yul\":9692:9771   */\n      tag_262\n      tag_134\n      jump\t// in\n    tag_262:\n        /* \"#utility.yul\":9651:9773   */\n    tag_261:\n        /* \"#utility.yul\":9809:9815   */\n      dup2\n        /* \"#utility.yul\":9796:9816   */\n      calldataload\n        /* \"#utility.yul\":9834:9913   */\n      tag_263\n        /* \"#utility.yul\":9909:9912   */\n      dup5\n        /* \"#utility.yul\":9901:9907   */\n      dup3\n        /* \"#utility.yul\":9894:9898   */\n      0x20\n        /* \"#utility.yul\":9886:9892   */\n      dup7\n        /* \"#utility.yul\":9882:9899   */\n      add\n        /* \"#utility.yul\":9834:9913   */\n      tag_141\n      jump\t// in\n    tag_263:\n        /* \"#utility.yul\":9825:9913   */\n      swap2\n      pop\n        /* \"#utility.yul\":9641:9919   */\n      pop\n        /* \"#utility.yul\":9579:9919   */\n      swap3\n      swap2\n      pop\n      pop\n      jump\t// out\n        /* \"#utility.yul\":9925:10434   */\n    tag_41:\n        /* \"#utility.yul\":9994:10000   */\n      0x00\n        /* \"#utility.yul\":10043:10045   */\n      0x20\n        /* \"#utility.yul\":10031:10040   */\n      dup3\n        /* \"#utility.yul\":10022:10029   */\n      dup5\n        /* \"#utility.yul\":10018:10041   */\n      sub\n        /* \"#utility.yul\":10014:10046   */\n      slt\n        /* \"#utility.yul\":10011:10130   */\n      iszero\n      tag_265\n      jumpi\n        /* \"#utility.yul\":10049:10128   */\n      tag_266\n      tag_127\n      jump\t// in\n    tag_266:\n        /* \"#utility.yul\":10011:10130   */\n    tag_265:\n        /* \"#utility.yul\":10197:10198   */\n      0x00\n        /* \"#utility.yul\":10186:10195   */\n      dup3\n        /* \"#utility.yul\":10182:10199   */\n      add\n        /* \"#utility.yul\":10169:10200   */\n      calldataload\n        /* \"#utility.yul\":10227:10245   */\n      0xffffffffffffffff\n        /* \"#utility.yul\":10219:10225   */\n      dup2\n        /* \"#utility.yul\":10216:10246   */\n      gt\n        /* \"#utility.yul\":10213:10330   */\n      iszero\n      tag_267\n      jumpi\n        /* \"#utility.yul\":10249:10328   */\n      tag_268\n      tag_128\n      jump\t// in\n    tag_268:\n        /* \"#utility.yul\":10213:10330   */\n    tag_267:\n        /* \"#utility.yul\":10354:10417   */\n      tag_269\n        /* \"#utility.yul\":10409:10416   */\n      dup5\n        /* \"#utility.yul\":10400:10406   */\n      dup3\n        /* \"#utility.yul\":10389:10398   */\n      dup6\n        /* \"#utility.yul\":10385:10407   */\n      add\n        /* \"#utility.yul\":10354:10417   */\n      tag_142\n      jump\t// in\n    tag_269:\n        /* \"#utility.yul\":10344:10417   */\n      swap2\n      pop\n        /* \"#utility.yul\":10140:10427   */\n      pop\n        /* \"#utility.yul\":9925:10434   */\n      swap3\n      swap2\n      pop\n      pop\n      jump\t// out\n        /* \"#utility.yul\":10440:10600   */\n    tag_143:\n        /* \"#utility.yul\":10580:10592   */\n      0x4f6e6c79206f776e657200000000000000000000000000000000000000000000\n        /* \"#utility.yul\":10576:10577   */\n      0x00\n        /* \"#utility.yul\":10568:10574   */\n      dup3\n        /* \"#utility.yul\":10564:10578   */\n      add\n        /* \"#utility.yul\":10557:10593   */\n      mstore\n        /* \"#utility.yul\":10440:10600   */\n      pop\n      jump\t// out\n        /* \"#utility.yul\":10606:10972   */\n    tag_144:\n        /* \"#utility.yul\":10748:10751   */\n      0x00\n        /* \"#utility.yul\":10769:10836   */\n      tag_272\n        /* \"#utility.yul\":10833:10835   */\n      0x0a\n        /* \"#utility.yul\":10828:10831   */\n      dup4\n        /* \"#utility.yul\":10769:10836   */\n      tag_132\n      jump\t// in\n    tag_272:\n        /* \"#utility.yul\":10762:10836   */\n      swap2\n      pop\n        /* \"#utility.yul\":10845:10938   */\n      tag_273\n        /* \"#utility.yul\":10934:10937   */\n      dup3\n        /* \"#utility.yul\":10845:10938   */\n      tag_143\n      jump\t// in\n    tag_273:\n        /* \"#utility.yul\":10963:10965   */\n      0x20\n        /* \"#utility.yul\":10958:10961   */\n      dup3\n        /* \"#utility.yul\":10954:10966   */\n      add\n        /* \"#utility.yul\":10947:10966   */\n      swap1\n      pop\n        /* \"#utility.yul\":10606:10972   */\n      swap2\n      swap1\n      pop\n      jump\t// out\n        /* \"#utility.yul\":10978:11397   */\n    tag_46:\n        /* \"#utility.yul\":11144:11148   */\n      0x00\n        /* \"#utility.yul\":11182:11184   */\n      0x20\n        /* \"#utility.yul\":11171:11180   */\n      dup3\n        /* \"#utility.yul\":11167:11185   */\n      add\n        /* \"#utility.yul\":11159:11185   */\n      swap1\n      pop\n        /* \"#utility.yul\":11231:11240   */\n      dup2\n        /* \"#utility.yul\":11225:11229   */\n      dup2\n        /* \"#utility.yul\":11221:11241   */\n      sub\n        /* \"#utility.yul\":11217:11218   */\n      0x00\n        /* \"#utility.yul\":11206:11215   */\n      dup4\n        /* \"#utility.yul\":11202:11219   */\n      add\n        /* \"#utility.yul\":11195:11242   */\n      mstore\n        /* \"#utility.yul\":11259:11390   */\n      tag_275\n        /* \"#utility.yul\":11385:11389   */\n      dup2\n        /* \"#utility.yul\":11259:11390   */\n      tag_144\n      jump\t// in\n    tag_275:\n        /* \"#utility.yul\":11251:11390   */\n      swap1\n      pop\n        /* \"#utility.yul\":10978:11397   */\n      swap2\n      swap1\n      pop\n      jump\t// out\n        /* \"#utility.yul\":11403:11583   */\n    tag_145:\n        /* \"#utility.yul\":11451:11528   */\n      0x4e487b7100000000000000000000000000000000000000000000000000000000\n        /* \"#utility.yul\":11448:11449   */\n      0x00\n        /* \"#utility.yul\":11441:11529   */\n      mstore\n        /* \"#utility.yul\":11548:11552   */\n      0x22\n        /* \"#utility.yul\":11545:11546   */\n      0x04\n        /* \"#utility.yul\":11538:11553   */\n      mstore\n        /* \"#utility.yul\":11572:11576   */\n      0x24\n        /* \"#utility.yul\":11569:11570   */\n      0x00\n        /* \"#utility.yul\":11562:11577   */\n      revert\n        /* \"#utility.yul\":11589:11909   */\n    tag_56:\n        /* \"#utility.yul\":11633:11639   */\n      0x00\n        /* \"#utility.yul\":11670:11671   */\n      0x02\n        /* \"#utility.yul\":11664:11668   */\n      dup3\n        /* \"#utility.yul\":11660:11672   */\n      div\n        /* \"#utility.yul\":11650:11672   */\n      swap1\n      pop\n        /* \"#utility.yul\":11717:11718   */\n      0x01\n        /* \"#utility.yul\":11711:11715   */\n      dup3\n        /* \"#utility.yul\":11707:11719   */\n      and\n        /* \"#utility.yul\":11738:11756   */\n      dup1\n        /* \"#utility.yul\":11728:11809   */\n      tag_278\n      jumpi\n        /* \"#utility.yul\":11794:11798   */\n      0x7f\n        /* \"#utility.yul\":11786:11792   */\n      dup3\n        /* \"#utility.yul\":11782:11799   */\n      and\n        /* \"#utility.yul\":11772:11799   */\n      swap2\n      pop\n        /* \"#utility.yul\":11728:11809   */\n    tag_278:\n        /* \"#utility.yul\":11856:11858   */\n      0x20\n        /* \"#utility.yul\":11848:11854   */\n      dup3\n        /* \"#utility.yul\":11845:11859   */\n      lt\n        /* \"#utility.yul\":11825:11843   */\n      dup2\n        /* \"#utility.yul\":11822:11860   */\n      sub\n        /* \"#utility.yul\":11819:11903   */\n      tag_279\n      jumpi\n        /* \"#utility.yul\":11875:11893   */\n      tag_280\n      tag_145\n      jump\t// in\n    tag_280:\n        /* \"#utility.yul\":11819:11903   */\n    tag_279:\n        /* \"#utility.yul\":11640:11909   */\n      pop\n        /* \"#utility.yul\":11589:11909   */\n      swap2\n      swap1\n      pop\n      jump\t// out\n        /* \"#utility.yul\":11915:12062   */\n    tag_146:\n        /* \"#utility.yul\":12016:12027   */\n      0x00\n        /* \"#utility.yul\":12053:12056   */\n      dup2\n        /* \"#utility.yul\":12038:12056   */\n      swap1\n      pop\n        /* \"#utility.yul\":11915:12062   */\n      swap3\n      swap2\n      pop\n      pop\n      jump\t// out\n        /* \"#utility.yul\":12068:12182   */\n    tag_147:\n      pop\n      jump\t// out\n        /* \"#utility.yul\":12188:12586   */\n    tag_148:\n        /* \"#utility.yul\":12347:12350   */\n      0x00\n        /* \"#utility.yul\":12368:12451   */\n      tag_284\n        /* \"#utility.yul\":12449:12450   */\n      0x00\n        /* \"#utility.yul\":12444:12447   */\n      dup4\n        /* \"#utility.yul\":12368:12451   */\n      tag_146\n      jump\t// in\n    tag_284:\n        /* \"#utility.yul\":12361:12451   */\n      swap2\n      pop\n        /* \"#utility.yul\":12460:12553   */\n      tag_285\n        /* \"#utility.yul\":12549:12552   */\n      dup3\n        /* \"#utility.yul\":12460:12553   */\n      tag_147\n      jump\t// in\n    tag_285:\n        /* \"#utility.yul\":12578:12579   */\n      0x00\n        /* \"#utility.yul\":12573:12576   */\n      dup3\n        /* \"#utility.yul\":12569:12580   */\n      add\n        /* \"#utility.yul\":12562:12580   */\n      swap1\n      pop\n        /* \"#utility.yul\":12188:12586   */\n      swap2\n      swap1\n      pop\n      jump\t// out\n        /* \"#utility.yul\":12592:12971   */\n    tag_69:\n        /* \"#utility.yul\":12776:12779   */\n      0x00\n        /* \"#utility.yul\":12798:12945   */\n      tag_287\n        /* \"#utility.yul\":12941:12944   */\n      dup3\n        /* \"#utility.yul\":12798:12945   */\n      tag_148\n      jump\t// in\n    tag_287:\n        /* \"#utility.yul\":12791:12945   */\n      swap2\n      pop\n        /* \"#utility.yul\":12962:12965   */\n      dup2\n        /* \"#utility.yul\":12955:12965   */\n      swap1\n      pop\n        /* \"#utility.yul\":12592:12971   */\n      swap2\n      swap1\n      pop\n      jump\t// out\n        /* \"#utility.yul\":12977:13144   */\n    tag_149:\n        /* \"#utility.yul\":13117:13136   */\n      0x5769746864726177616c206661696c6564000000000000000000000000000000\n        /* \"#utility.yul\":13113:13114   */\n      0x00\n        /* \"#utility.yul\":13105:13111   */\n      dup3\n        /* \"#utility.yul\":13101:13115   */\n      add\n        /* \"#utility.yul\":13094:13137   */\n      mstore\n        /* \"#utility.yul\":12977:13144   */\n      pop\n      jump\t// out\n        /* \"#utility.yul\":13150:13516   */\n    tag_150:\n        /* \"#utility.yul\":13292:13295   */\n      0x00\n        /* \"#utility.yul\":13313:13380   */\n      tag_290\n        /* \"#utility.yul\":13377:13379   */\n      0x11\n        /* \"#utility.yul\":13372:13375   */\n      dup4\n        /* \"#utility.yul\":13313:13380   */\n      tag_132\n      jump\t// in\n    tag_290:\n        /* \"#utility.yul\":13306:13380   */\n      swap2\n      pop\n        /* \"#utility.yul\":13389:13482   */\n      tag_291\n        /* \"#utility.yul\":13478:13481   */\n      dup3\n        /* \"#utility.yul\":13389:13482   */\n      tag_149\n      jump\t// in\n    tag_291:\n        /* \"#utility.yul\":13507:13509   */\n      0x20\n        /* \"#utility.yul\":13502:13505   */\n      dup3\n        /* \"#utility.yul\":13498:13510   */\n      add\n        /* \"#utility.yul\":13491:13510   */\n      swap1\n      pop\n        /* \"#utility.yul\":13150:13516   */\n      swap2\n      swap1\n      pop\n      jump\t// out\n        /* \"#utility.yul\":13522:13941   */\n    tag_75:\n        /* \"#utility.yul\":13688:13692   */\n      0x00\n        /* \"#utility.yul\":13726:13728   */\n      0x20\n        /* \"#utility.yul\":13715:13724   */\n      dup3\n        /* \"#utility.yul\":13711:13729   */\n      add\n        /* \"#utility.yul\":13703:13729   */\n      swap1\n      pop\n        /* \"#utility.yul\":13775:13784   */\n      dup2\n        /* \"#utility.yul\":13769:13773   */\n      dup2\n        /* \"#utility.yul\":13765:13785   */\n      sub\n        /* \"#utility.yul\":13761:13762   */\n      0x00\n        /* \"#utility.yul\":13750:13759   */\n      dup4\n        /* \"#utility.yul\":13746:13763   */\n      add\n        /* \"#utility.yul\":13739:13786   */\n      mstore\n        /* \"#utility.yul\":13803:13934   */\n      tag_293\n        /* \"#utility.yul\":13929:13933   */\n      dup2\n        /* \"#utility.yul\":13803:13934   */\n      tag_150\n      jump\t// in\n    tag_293:\n        /* \"#utility.yul\":13795:13934   */\n      swap1\n      pop\n        /* \"#utility.yul\":13522:13941   */\n      swap2\n      swap1\n      pop\n      jump\t// out\n        /* \"#utility.yul\":13947:14127   */\n    tag_85:\n        /* \"#utility.yul\":13995:14072   */\n      0x4e487b7100000000000000000000000000000000000000000000000000000000\n        /* \"#utility.yul\":13992:13993   */\n      0x00\n        /* \"#utility.yul\":13985:14073   */\n      mstore\n        /* \"#utility.yul\":14092:14096   */\n      0x32\n        /* \"#utility.yul\":14089:14090   */\n      0x04\n        /* \"#utility.yul\":14082:14097   */\n      mstore\n        /* \"#utility.yul\":14116:14120   */\n      0x24\n        /* \"#utility.yul\":14113:14114   */\n      0x00\n        /* \"#utility.yul\":14106:14121   */\n      revert\n        /* \"#utility.yul\":14133:14303   */\n    tag_151:\n        /* \"#utility.yul\":14273:14295   */\n      0x4d7573742073656e642045544820746f20746970000000000000000000000000\n        /* \"#utility.yul\":14269:14270   */\n      0x00\n        /* \"#utility.yul\":14261:14267   */\n      dup3\n        /* \"#utility.yul\":14257:14271   */\n      add\n        /* \"#utility.yul\":14250:14296   */\n      mstore\n        /* \"#utility.yul\":14133:14303   */\n      pop\n      jump\t// out\n        /* \"#utility.yul\":14309:14675   */\n    tag_152:\n        /* \"#utility.yul\":14451:14454   */\n      0x00\n        /* \"#utility.yul\":14472:14539   */\n      tag_297\n        /* \"#utility.yul\":14536:14538   */\n      0x14\n        /* \"#utility.yul\":14531:14534   */\n      dup4\n        /* \"#utility.yul\":14472:14539   */\n      tag_132\n      jump\t// in\n    tag_297:\n        /* \"#utility.yul\":14465:14539   */\n      swap2\n      pop\n        /* \"#utility.yul\":14548:14641   */\n      tag_298\n        /* \"#utility.yul\":14637:14640   */\n      dup3\n        /* \"#utility.yul\":14548:14641   */\n      tag_151\n      jump\t// in\n    tag_298:\n        /* \"#utility.yul\":14666:14668   */\n      0x20\n        /* \"#utility.yul\":14661:14664   */\n      dup3\n        /* \"#utility.yul\":14657:14669   */\n      add\n        /* \"#utility.yul\":14650:14669   */\n      swap1\n      pop\n        /* \"#utility.yul\":14309:14675   */\n      swap2\n      swap1\n      pop\n      jump\t// out\n        /* \"#utility.yul\":14681:15100   */\n    tag_99:\n        /* \"#utility.yul\":14847:14851   */\n      0x00\n        /* \"#utility.yul\":14885:14887   */\n      0x20\n        /* \"#utility.yul\":14874:14883   */\n      dup3\n        /* \"#utility.yul\":14870:14888   */\n      add\n        /* \"#utility.yul\":14862:14888   */\n      swap1\n      pop\n        /* \"#utility.yul\":14934:14943   */\n      dup2\n        /* \"#utility.yul\":14928:14932   */\n      dup2\n        /* \"#utility.yul\":14924:14944   */\n      sub\n        /* \"#utility.yul\":14920:14921   */\n      0x00\n        /* \"#utility.yul\":14909:14918   */\n      dup4\n        /* \"#utility.yul\":14905:14922   */\n      add\n        /* \"#utility.yul\":14898:14945   */\n      mstore\n        /* \"#utility.yul\":14962:15093   */\n      tag_300\n        /* \"#utility.yul\":15088:15092   */\n      dup2\n        /* \"#utility.yul\":14962:15093   */\n      tag_152\n      jump\t// in\n    tag_300:\n        /* \"#utility.yul\":14954:15093   */\n      swap1\n      pop\n        /* \"#utility.yul\":14681:15100   */\n      swap2\n      swap1\n      pop\n      jump\t// out\n        /* \"#utility.yul\":15106:15247   */\n    tag_153:\n        /* \"#utility.yul\":15155:15159   */\n      0x00\n        /* \"#utility.yul\":15178:15181   */\n      dup2\n        /* \"#utility.yul\":15170:15181   */\n      swap1\n      pop\n        /* \"#utility.yul\":15201:15204   */\n      dup2\n        /* \"#utility.yul\":15198:15199   */\n      0x00\n        /* \"#utility.yul\":15191:15205   */\n      mstore\n        /* \"#utility.yul\":15235:15239   */\n      0x20\n        /* \"#utility.yul\":15232:15233   */\n      0x00\n        /* \"#utility.yul\":15222:15240   */\n      keccak256\n        /* \"#utility.yul\":15214:15240   */\n      swap1\n      pop\n        /* \"#utility.yul\":15106:15247   */\n      swap2\n      swap1\n      pop\n      jump\t// out\n        /* \"#utility.yul\":15253:15346   */\n    tag_154:\n        /* \"#utility.yul\":15290:15296   */\n      0x00\n        /* \"#utility.yul\":15337:15339   */\n      0x20\n        /* \"#utility.yul\":15332:15334   */\n      0x1f\n        /* \"#utility.yul\":15325:15330   */\n      dup4\n        /* \"#utility.yul\":15321:15335   */\n      add\n        /* \"#utility.yul\":15317:15340   */\n      div\n        /* \"#utility.yul\":15307:15340   */\n      swap1\n      pop\n        /* \"#utility.yul\":15253:15346   */\n      swap2\n      swap1\n      pop\n      jump\t// out\n        /* \"#utility.yul\":15352:15459   */\n    tag_155:\n        /* \"#utility.yul\":15396:15404   */\n      0x00\n        /* \"#utility.yul\":15446:15451   */\n      dup3\n        /* \"#utility.yul\":15440:15444   */\n      dup3\n        /* \"#utility.yul\":15436:15452   */\n      shl\n        /* \"#utility.yul\":15415:15452   */\n      swap1\n      pop\n        /* \"#utility.yul\":15352:15459   */\n      swap3\n      swap2\n      pop\n      pop\n      jump\t// out\n        /* \"#utility.yul\":15465:15858   */\n    tag_156:\n        /* \"#utility.yul\":15534:15540   */\n      0x00\n        /* \"#utility.yul\":15584:15585   */\n      0x08\n        /* \"#utility.yul\":15572:15582   */\n      dup4\n        /* \"#utility.yul\":15568:15586   */\n      mul\n        /* \"#utility.yul\":15607:15704   */\n      tag_305\n        /* \"#utility.yul\":15637:15703   */\n      0xffffffffffffffffffffffffffffffffffffffffffffffffffffffffffffffff\n        /* \"#utility.yul\":15626:15635   */\n      dup3\n        /* \"#utility.yul\":15607:15704   */\n      tag_155\n      jump\t// in\n    tag_305:\n        /* \"#utility.yul\":15725:15764   */\n      tag_306\n        /* \"#utility.yul\":15755:15763   */\n      dup7\n        /* \"#utility.yul\":15744:15753   */\n      dup4\n        /* \"#utility.yul\":15725:15764   */\n      tag_155\n      jump\t// in\n    tag_306:\n        /* \"#utility.yul\":15713:15764   */\n      swap6\n      pop\n        /* \"#utility.yul\":15797:15801   */\n      dup1\n        /* \"#utility.yul\":15793:15802   */\n      not\n        /* \"#utility.yul\":15786:15791   */\n      dup5\n        /* \"#utility.yul\":15782:15803   */\n      and\n        /* \"#utility.yul\":15773:15803   */\n      swap4\n      pop\n        /* \"#utility.yul\":15846:15850   */\n      dup1\n        /* \"#utility.yul\":15836:15844   */\n      dup7\n        /* \"#utility.yul\":15832:15851   */\n      and\n        /* \"#utility.yul\":15825:15830   */\n      dup5\n        /* \"#utility.yul\":15822:15852   */\n      or\n        /* \"#utility.yul\":15812:15852   */\n      swap3\n      pop\n        /* \"#utility.yul\":15541:15858   */\n      pop\n      pop\n        /* \"#utility.yul\":15465:15858   */\n      swap4\n      swap3\n      pop\n      pop\n      pop\n      jump\t// out\n        /* \"#utility.yul\":15864:15924   */\n    tag_157:\n        /* \"#utility.yul\":15892:15895   */\n      0x00\n        /* \"#utility.yul\":15913:15918   */\n      dup2\n        /* \"#utility.yul\":15906:15918   */\n      swap1\n      pop\n        /* \"#utility.yul\":15864:15924   */\n      swap2\n      swap1\n      pop\n      jump\t// out\n        /* \"#utility.yul\":15930:16072   */\n    tag_158:\n        /* \"#utility.yul\":15980:15989   */\n      0x00\n        /* \"#utility.yul\":16013:16066   */\n      tag_309\n        /* \"#utility.yul\":16031:16065   */\n      tag_310\n        /* \"#utility.yul\":16040:16064   */\n      tag_311\n        /* \"#utility.yul\":16058:16063   */\n      dup5\n        /* \"#utility.yul\":16040:16064   */\n      tag_108\n      jump\t// in\n    tag_311:\n        /* \"#utility.yul\":16031:16065   */\n      tag_157\n      jump\t// in\n    tag_310:\n        /* \"#utility.yul\":16013:16066   */\n      tag_108\n      jump\t// in\n    tag_309:\n        /* \"#utility.yul\":16000:16066   */\n      swap1\n      pop\n        /* \"#utility.yul\":15930:16072   */\n      swap2\n      swap1\n      pop\n      jump\t// out\n        /* \"#utility.yul\":16078:16153   */\n    tag_159:\n        /* \"#utility.yul\":16121:16124   */\n      0x00\n        /* \"#utility.yul\":16142:16147   */\n      dup2\n        /* \"#utility.yul\":16135:16147   */\n      swap1\n      pop\n        /* \"#utility.yul\":16078:16153   */\n      swap2\n      swap1\n      pop\n      jump\t// out\n        /* \"#utility.yul\":16159:16428   */\n    tag_160:\n        /* \"#utility.yul\":16269:16308   */\n      tag_314\n        /* \"#utility.yul\":16300:16307   */\n      dup4\n        /* \"#utility.yul\":16269:16308   */\n      tag_158\n      jump\t// in\n    tag_314:\n        /* \"#utility.yul\":16330:16421   */\n      tag_315\n        /* \"#utility.yul\":16379:16420   */\n      tag_316\n        /* \"#utility.yul\":16403:16419   */\n      dup3\n        /* \"#utility.yul\":16379:16420   */\n      tag_159\n      jump\t// in\n    tag_316:\n        /* \"#utility.yul\":16371:16377   */\n      dup5\n        /* \"#utility.yul\":16364:16368   */\n      dup5\n        /* \"#utility.yul\":16358:16369   */\n      sload\n        /* \"#utility.yul\":16330:16421   */\n      tag_156\n      jump\t// in\n    tag_315:\n        /* \"#utility.yul\":16324:16328   */\n      dup3\n        /* \"#utility.yul\":16317:16422   */\n      sstore\n        /* \"#utility.yul\":16235:16428   */\n      pop\n        /* \"#utility.yul\":16159:16428   */\n      pop\n      pop\n      pop\n      jump\t// out\n        /* \"#utility.yul\":16434:16507   */\n    tag_161:\n        /* \"#utility.yul\":16479:16482   */\n      0x00\n        /* \"#utility.yul\":16500:16501   */\n      0x00\n        /* \"#utility.yul\":16493:16501   */\n      swap1\n      pop\n        /* \"#utility.yul\":16434:16507   */\n      swap1\n      jump\t// out\n        /* \"#utility.yul\":16513:16702   */\n    tag_162:\n        /* \"#utility.yul\":16590:16622   */\n      tag_319\n      tag_161\n      jump\t// in\n    tag_319:\n        /* \"#utility.yul\":16631:16696   */\n      tag_320\n        /* \"#utility.yul\":16689:16695   */\n      dup2\n        /* \"#utility.yul\":16681:16687   */\n      dup5\n        /* \"#utility.yul\":16675:16679   */\n      dup5\n        /* \"#utility.yul\":16631:16696   */\n      tag_160\n      jump\t// in\n    tag_320:\n        /* \"#utility.yul\":16566:16702   */\n      pop\n        /* \"#utility.yul\":16513:16702   */\n      pop\n      pop\n      jump\t// out\n        /* \"#utility.yul\":16708:16894   */\n    tag_163:\n        /* \"#utility.yul\":16768:16888   */\n    tag_322:\n        /* \"#utility.yul\":16785:16788   */\n      dup2\n        /* \"#utility.yul\":16778:16783   */\n      dup2\n        /* \"#utility.yul\":16775:16789   */\n      lt\n        /* \"#utility.yul\":16768:16888   */\n      iszero\n      tag_324\n      jumpi\n        /* \"#utility.yul\":16839:16878   */\n      tag_325\n        /* \"#utility.yul\":16876:16877   */\n      0x00\n        /* \"#utility.yul\":16869:16874   */\n      dup3\n        /* \"#utility.yul\":16839:16878   */\n      tag_162\n      jump\t// in\n    tag_325:\n        /* \"#utility.yul\":16812:16813   */\n      0x01\n        /* \"#utility.yul\":16805:16810   */\n      dup2\n        /* \"#utility.yul\":16801:16814   */\n      add\n        /* \"#utility.yul\":16792:16814   */\n      swap1\n      pop\n        /* \"#utility.yul\":16768:16888   */\n      jump(tag_322)\n    tag_324:\n        /* \"#utility.yul\":16708:16894   */\n      pop\n      pop\n      jump\t// out\n        /* \"#utility.yul\":16900:17443   */\n    tag_164:\n        /* \"#utility.yul\":17001:17003   */\n      0x1f\n        /* \"#utility.yul\":16996:16999   */\n      dup3\n        /* \"#utility.yul\":16993:17004   */\n      gt\n        /* \"#utility.yul\":16990:17436   */\n      iszero\n      tag_327\n      jumpi\n        /* \"#utility.yul\":17035:17073   */\n      tag_328\n        /* \"#utility.yul\":17067:17072   */\n      dup2\n        /* \"#utility.yul\":17035:17073   */\n      tag_153\n      jump\t// in\n    tag_328:\n        /* \"#utility.yul\":17119:17148   */\n      tag_329\n        /* \"#utility.yul\":17137:17147   */\n      dup5\n        /* \"#utility.yul\":17119:17148   */\n      tag_154\n      jump\t// in\n    tag_329:\n        /* \"#utility.yul\":17109:17117   */\n      dup2\n        /* \"#utility.yul\":17105:17149   */\n      add\n        /* \"#utility.yul\":17302:17304   */\n      0x20\n        /* \"#utility.yul\":17290:17300   */\n      dup6\n        /* \"#utility.yul\":17287:17305   */\n      lt\n        /* \"#utility.yul\":17284:17333   */\n      iszero\n      tag_330\n      jumpi\n        /* \"#utility.yul\":17323:17331   */\n      dup2\n        /* \"#utility.yul\":17308:17331   */\n      swap1\n      pop\n        /* \"#utility.yul\":17284:17333   */\n    tag_330:\n        /* \"#utility.yul\":17346:17426   */\n      tag_331\n        /* \"#utility.yul\":17402:17424   */\n      tag_332\n        /* \"#utility.yul\":17420:17423   */\n      dup6\n        /* \"#utility.yul\":17402:17424   */\n      tag_154\n      jump\t// in\n    tag_332:\n        /* \"#utility.yul\":17392:17400   */\n      dup4\n        /* \"#utility.yul\":17388:17425   */\n      add\n        /* \"#utility.yul\":17375:17386   */\n      dup3\n        /* \"#utility.yul\":17346:17426   */\n      tag_163\n      jump\t// in\n    tag_331:\n        /* \"#utility.yul\":17005:17436   */\n      pop\n      pop\n        /* \"#utility.yul\":16990:17436   */\n    tag_327:\n        /* \"#utility.yul\":16900:17443   */\n      pop\n      pop\n      pop\n      jump\t// out\n        /* \"#utility.yul\":17449:17566   */\n    tag_165:\n        /* \"#utility.yul\":17503:17511   */\n      0x00\n        /* \"#utility.yul\":17553:17558   */\n      dup3\n        /* \"#utility.yul\":17547:17551   */\n      dup3\n        /* \"#utility.yul\":17543:17559   */\n      shr\n        /* \"#utility.yul\":17522:17559   */\n      swap1\n      pop\n        /* \"#utility.yul\":17449:17566   */\n      swap3\n      swap2\n      pop\n      pop\n      jump\t// out\n        /* \"#utility.yul\":17572:17741   */\n    tag_166:\n        /* \"#utility.yul\":17616:17622   */\n      0x00\n        /* \"#utility.yul\":17649:17700   */\n      tag_335\n        /* \"#utility.yul\":17697:17698   */\n      0x00\n        /* \"#utility.yul\":17693:17699   */\n      not\n        /* \"#utility.yul\":17685:17690   */\n      dup5\n        /* \"#utility.yul\":17682:17683   */\n      0x08\n        /* \"#utility.yul\":17678:17691   */\n      mul\n        /* \"#utility.yul\":17649:17700   */\n      tag_165\n      jump\t// in\n    tag_335:\n        /* \"#utility.yul\":17645:17701   */\n      not\n        /* \"#utility.yul\":17730:17734   */\n      dup1\n        /* \"#utility.yul\":17724:17728   */\n      dup4\n        /* \"#utility.yul\":17720:17735   */\n      and\n        /* \"#utility.yul\":17710:17735   */\n      swap2\n      pop\n        /* \"#utility.yul\":17623:17741   */\n      pop\n        /* \"#utility.yul\":17572:17741   */\n      swap3\n      swap2\n      pop\n      pop\n      jump\t// out\n        /* \"#utility.yul\":17746:18041   */\n    tag_167:\n        /* \"#utility.yul\":17822:17826   */\n      0x00\n        /* \"#utility.yul\":17968:17997   */\n      tag_337\n        /* \"#utility.yul\":17993:17996   */\n      dup4\n        /* \"#utility.yul\":17987:17991   */\n      dup4\n        /* \"#utility.yul\":17968:17997   */\n      tag_166\n      jump\t// in\n    tag_337:\n        /* \"#utility.yul\":17960:17997   */\n      swap2\n      pop\n        /* \"#utility.yul\":18030:18033   */\n      dup3\n        /* \"#utility.yul\":18027:18028   */\n      0x02\n        /* \"#utility.yul\":18023:18034   */\n      mul\n        /* \"#utility.yul\":18017:18021   */\n      dup3\n        /* \"#utility.yul\":18014:18035   */\n      or\n        /* \"#utility.yul\":18006:18035   */\n      swap1\n      pop\n        /* \"#utility.yul\":17746:18041   */\n      swap3\n      swap2\n      pop\n      pop\n      jump\t// out\n        /* \"#utility.yul\":18046:19441   */\n    tag_102:\n        /* \"#utility.yul\":18163:18200   */\n      tag_339\n        /* \"#utility.yul\":18196:18199   */\n      dup3\n        /* \"#utility.yul\":18163:18200   */\n      tag_117\n      jump\t// in\n    tag_339:\n        /* \"#utility.yul\":18265:18283   */\n      0xffffffffffffffff\n        /* \"#utility.yul\":18257:18263   */\n      dup2\n        /* \"#utility.yul\":18254:18284   */\n      gt\n        /* \"#utility.yul\":18251:18307   */\n      iszero\n      tag_340\n      jumpi\n        /* \"#utility.yul\":18287:18305   */\n      tag_341\n      tag_136\n      jump\t// in\n    tag_341:\n        /* \"#utility.yul\":18251:18307   */\n    tag_340:\n        /* \"#utility.yul\":18331:18369   */\n      tag_342\n        /* \"#utility.yul\":18363:18367   */\n      dup3\n        /* \"#utility.yul\":18357:18368   */\n      sload\n        /* \"#utility.yul\":18331:18369   */\n      tag_56\n      jump\t// in\n    tag_342:\n        /* \"#utility.yul\":18416:18483   */\n      tag_343\n        /* \"#utility.yul\":18476:18482   */\n      dup3\n        /* \"#utility.yul\":18468:18474   */\n      dup3\n        /* \"#utility.yul\":18462:18466   */\n      dup6\n        /* \"#utility.yul\":18416:18483   */\n      tag_164\n      jump\t// in\n    tag_343:\n        /* \"#utility.yul\":18510:18511   */\n      0x00\n        /* \"#utility.yul\":18534:18538   */\n      0x20\n        /* \"#utility.yul\":18521:18538   */\n      swap1\n      pop\n        /* \"#utility.yul\":18566:18568   */\n      0x1f\n        /* \"#utility.yul\":18558:18564   */\n      dup4\n        /* \"#utility.yul\":18555:18569   */\n      gt\n        /* \"#utility.yul\":18583:18584   */\n      0x01\n        /* \"#utility.yul\":18578:19196   */\n      dup2\n      eq\n      tag_345\n      jumpi\n        /* \"#utility.yul\":19240:19241   */\n      0x00\n        /* \"#utility.yul\":19257:19263   */\n      dup5\n        /* \"#utility.yul\":19254:19331   */\n      iszero\n      tag_346\n      jumpi\n        /* \"#utility.yul\":19306:19315   */\n      dup3\n        /* \"#utility.yul\":19301:19304   */\n      dup8\n        /* \"#utility.yul\":19297:19316   */\n      add\n        /* \"#utility.yul\":19291:19317   */\n      mload\n        /* \"#utility.yul\":19282:19317   */\n      swap1\n      pop\n        /* \"#utility.yul\":19254:19331   */\n    tag_346:\n        /* \"#utility.yul\":19357:19424   */\n      tag_347\n        /* \"#utility.yul\":19417:19423   */\n      dup6\n        /* \"#utility.yul\":19410:19415   */\n      dup3\n        /* \"#utility.yul\":19357:19424   */\n      tag_167\n      jump\t// in\n    tag_347:\n        /* \"#utility.yul\":19351:19355   */\n      dup7\n        /* \"#utility.yul\":19344:19425   */\n      sstore\n        /* \"#utility.yul\":19213:19435   */\n      pop\n        /* \"#utility.yul\":18548:19435   */\n      jump(tag_344)\n        /* \"#utility.yul\":18578:19196   */\n    tag_345:\n        /* \"#utility.yul\":18630:18634   */\n      0x1f\n        /* \"#utility.yul\":18626:18635   */\n      not\n        /* \"#utility.yul\":18618:18624   */\n      dup5\n        /* \"#utility.yul\":18614:18636   */\n      and\n        /* \"#utility.yul\":18664:18701   */\n      tag_348\n        /* \"#utility.yul\":18696:18700   */\n      dup7\n        /* \"#utility.yul\":18664:18701   */\n      tag_153\n      jump\t// in\n    tag_348:\n        /* \"#utility.yul\":18723:18724   */\n      0x00\n        /* \"#utility.yul\":18737:18945   */\n    tag_349:\n        /* \"#utility.yul\":18751:18758   */\n      dup3\n        /* \"#utility.yul\":18748:18749   */\n      dup2\n        /* \"#utility.yul\":18745:18759   */\n      lt\n        /* \"#utility.yul\":18737:18945   */\n      iszero\n      tag_351\n      jumpi\n        /* \"#utility.yul\":18830:18839   */\n      dup5\n        /* \"#utility.yul\":18825:18828   */\n      dup10\n        /* \"#utility.yul\":18821:18840   */\n      add\n        /* \"#utility.yul\":18815:18841   */\n      mload\n        /* \"#utility.yul\":18807:18813   */\n      dup3\n        /* \"#utility.yul\":18800:18842   */\n      sstore\n        /* \"#utility.yul\":18881:18882   */\n      0x01\n        /* \"#utility.yul\":18873:18879   */\n      dup3\n        /* \"#utility.yul\":18869:18883   */\n      add\n        /* \"#utility.yul\":18859:18883   */\n      swap2\n      pop\n        /* \"#utility.yul\":18928:18930   */\n      0x20\n        /* \"#utility.yul\":18917:18926   */\n      dup6\n        /* \"#utility.yul\":18913:18931   */\n      add\n        /* \"#utility.yul\":18900:18931   */\n      swap5\n      pop\n        /* \"#utility.yul\":18774:18778   */\n      0x20\n        /* \"#utility.yul\":18771:18772   */\n      dup2\n        /* \"#utility.yul\":18767:18779   */\n      add\n        /* \"#utility.yul\":18762:18779   */\n      swap1\n      pop\n        /* \"#utility.yul\":18737:18945   */\n      jump(tag_349)\n    tag_351:\n        /* \"#utility.yul\":18973:18979   */\n      dup7\n        /* \"#utility.yul\":18964:18971   */\n      dup4\n        /* \"#utility.yul\":18961:18980   */\n      lt\n        /* \"#utility.yul\":18958:19137   */\n      iszero\n      tag_352\n      jumpi\n        /* \"#utility.yul\":19031:19040   */\n      dup5\n        /* \"#utility.yul\":19026:19029   */\n      dup10\n        /* \"#utility.yul\":19022:19041   */\n      add\n        /* \"#utility.yul\":19016:19042   */\n      mload\n        /* \"#utility.yul\":19074:19122   */\n      tag_353\n        /* \"#utility.yul\":19116:19120   */\n      0x1f\n        /* \"#utility.yul\":19108:19114   */\n      dup10\n        /* \"#utility.yul\":19104:19121   */\n      and\n        /* \"#utility.yul\":19093:19102   */\n      dup3\n        /* \"#utility.yul\":19074:19122   */\n      tag_166\n      jump\t// in\n    tag_353:\n        /* \"#utility.yul\":19066:19072   */\n      dup4\n        /* \"#utility.yul\":19059:19123   */\n      sstore\n        /* \"#utility.yul\":18981:19137   */\n      pop\n        /* \"#utility.yul\":18958:19137   */\n    tag_352:\n        /* \"#utility.yul\":19183:19184   */\n      0x01\n        /* \"#utility.yul\":19179:19180   */\n      0x02\n        /* \"#utility.yul\":19171:19177   */\n      dup9\n        /* \"#utility.yul\":19167:19181   */\n      mul\n        /* \"#utility.yul\":19163:19185   */\n      add\n        /* \"#utility.yul\":19157:19161   */\n      dup9\n        /* \"#utility.yul\":19150:19186   */\n      sstore\n        /* \"#utility.yul\":18585:19196   */\n      pop\n      pop\n      pop\n        /* \"#utility.yul\":18548:19435   */\n    tag_344:\n      pop\n        /* \"#utility.yul\":18138:19441   */\n      pop\n      pop\n      pop\n        /* \"#utility.yul\":18046:19441   */\n      pop\n      pop\n      jump\t// out\n        /* \"#utility.yul\":19447:19870   */\n    tag_104:\n        /* \"#utility.yul\":19588:19592   */\n      0x00\n        /* \"#utility.yul\":19626:19628   */\n      0x40\n        /* \"#utility.yul\":19615:19624   */\n      dup3\n        /* \"#utility.yul\":19611:19629   */\n      add\n        /* \"#utility.yul\":19603:19629   */\n      swap1\n      pop\n        /* \"#utility.yul\":19639:19710   */\n      tag_355\n        /* \"#utility.yul\":19707:19708   */\n      0x00\n        /* \"#utility.yul\":19696:19705   */\n      dup4\n        /* \"#utility.yul\":19692:19709   */\n      add\n        /* \"#utility.yul\":19683:19689   */\n      dup6\n        /* \"#utility.yul\":19639:19710   */\n      tag_109\n      jump\t// in\n    tag_355:\n        /* \"#utility.yul\":19757:19766   */\n      dup2\n        /* \"#utility.yul\":19751:19755   */\n      dup2\n        /* \"#utility.yul\":19747:19767   */\n      sub\n        /* \"#utility.yul\":19742:19744   */\n      0x20\n        /* \"#utility.yul\":19731:19740   */\n      dup4\n        /* \"#utility.yul\":19727:19745   */\n      add\n        /* \"#utility.yul\":19720:19768   */\n      mstore\n        /* \"#utility.yul\":19785:19863   */\n      tag_356\n        /* \"#utility.yul\":19858:19862   */\n      dup2\n        /* \"#utility.yul\":19849:19855   */\n      dup5\n        /* \"#utility.yul\":19785:19863   */\n      tag_133\n      jump\t// in\n    tag_356:\n        /* \"#utility.yul\":19777:19863   */\n      swap1\n      pop\n        /* \"#utility.yul\":19447:19870   */\n      swap4\n      swap3\n      pop\n      pop\n      pop\n      jump\t// out\n\n    auxdata: 0xa264697066735822122019f6274fcf83006548083a627c26ed388f1d779de88e23323c568df4bcdb065364736f6c634300081e0033\n}\n",
				"bytecode": {
					"linkReferences": {},
					"object": "6080604052348015600e575f5ffd5b5060015f819055503360015f6101000a81548173ffffffffffffffffffffffffffffffffffffffff021916908373ffffffffffffffffffffffffffffffffffffffff16021790555061136a806100635f395ff3fe60806040526004361061006f575f3560e01c80635b703f5c1161004d5780635b703f5c146100dd5780638da5cb5b1461011c578063a12247b014610146578063cb56393c146101705761006f565b806312065fe014610073578063399ddbbd1461009d5780633ccfd60b146100c7575b5f5ffd5b34801561007e575f5ffd5b5061008761018c565b60405161009491906109ef565b60405180910390f35b3480156100a8575f5ffd5b506100b1610222565b6040516100be9190610be1565b60405180910390f35b3480156100d2575f5ffd5b506100db610405565b005b3480156100e8575f5ffd5b5061010360048036038101906100fe9190610c3c565b6105e4565b6040516101139493929190610cbe565b60405180910390f35b348015610127575f5ffd5b50610130610766565b60405161013d9190610d08565b60405180910390f35b348015610151575f5ffd5b5061015a61078b565b60405161016791906109ef565b60405180910390f35b61018a60048036038101906101859190610e4d565b610826565b005b5f60015f9054906101000a900473ffffffffffffffffffffffffffffffffffffffff1673ffffffffffffffffffffffffffffffffffffffff163373ffffffffffffffffffffffffffffffffffffffff161461021c576040517f08c379a000000000000000000000000000000000000000000000000000000000815260040161021390610ede565b60405180910390fd5b47905090565b606060015f9054906101000a900473ffffffffffffffffffffffffffffffffffffffff1673ffffffffffffffffffffffffffffffffffffffff163373ffffffffffffffffffffffffffffffffffffffff16146102b3576040517f08c379a00000000000000000000000000000000000000000000000000000000081526004016102aa90610ede565b60405180910390fd5b6002805480602002602001604051908101604052809291908181526020015f905b828210156103fc578382905f5260205f2090600402016040518060800160405290815f82015f9054906101000a900473ffffffffffffffffffffffffffffffffffffffff1673ffffffffffffffffffffffffffffffffffffffff1673ffffffffffffffffffffffffffffffffffffffff1681526020016001820154815260200160028201805461036390610f29565b80601f016020809104026020016040519081016040528092919081815260200182805461038f90610f29565b80156103da5780601f106103b1576101008083540402835291602001916103da565b820191905f5260205f20905b8154815290600101906020018083116103bd57829003601f168201915b50505050508152602001600382015481525050815260200190600101906102d4565b50505050905090565b61040d61098a565b60015f9054906101000a900473ffffffffffffffffffffffffffffffffffffffff1673ffffffffffffffffffffffffffffffffffffffff163373ffffffffffffffffffffffffffffffffffffffff161461049c576040517f08c379a000000000000000000000000000000000000000000000000000000000815260040161049390610ede565b60405180910390fd5b5f4790505f60015f9054906101000a900473ffffffffffffffffffffffffffffffffffffffff1673ffffffffffffffffffffffffffffffffffffffff16826040516104e690610f86565b5f6040518083038185875af1925050503d805f8114610520576040519150601f19603f3d011682016040523d82523d5f602084013e610525565b606091505b5050905080610569576040517f08c379a000000000000000000000000000000000000000000000000000000000815260040161056090610fe4565b60405180910390fd5b60015f9054906101000a900473ffffffffffffffffffffffffffffffffffffffff1673ffffffffffffffffffffffffffffffffffffffff167f7fcf532c15f0a6db0bd6d0e038bea71d30d808c7d98cb3bf7268a95bf5081b65836040516105d091906109ef565b60405180910390a250506105e26109ce565b565b5f5f60605f60015f9054906101000a900473ffffffffffffffffffffffffffffffffffffffff1673ffffffffffffffffffffffffffffffffffffffff163373ffffffffffffffffffffffffffffffffffffffff1614610678576040517f08c379a000000000000000000000000000000000000000000000000000000000815260040161066f90610ede565b60405180910390fd5b5f6002868154811061068d5761068c611002565b5b905f5260205f2090600402019050805f015f9054906101000a900473ffffffffffffffffffffffffffffffffffffffff1681600101548260020183600301548180546106d890610f29565b80601f016020809104026020016040519081016040528092919081815260200182805461070490610f29565b801561074f5780601f106107265761010080835404028352916020019161074f565b820191905f5260205f20905b81548152906001019060200180831161073257829003601f168201915b505050505091509450945094509450509193509193565b60015f9054906101000a900473ffffffffffffffffffffffffffffffffffffffff1681565b5f60015f9054906101000a900473ffffffffffffffffffffffffffffffffffffffff1673ffffffffffffffffffffffffffffffffffffffff163373ffffffffffffffffffffffffffffffffffffffff161461081b576040517f08c379a000000000000000000000000000000000000000000000000000000000815260040161081290610ede565b60405180910390fd5b600280549050905090565b5f3411610868576040517f08c379a000000000000000000000000000000000000000000000000000000000815260040161085f90611079565b60405180910390fd5b600260405180608001604052803373ffffffffffffffffffffffffffffffffffffffff16815260200134815260200183815260200142815250908060018154018082558091505060019003905f5260205f2090600402015f909190919091505f820151815f015f6101000a81548173ffffffffffffffffffffffffffffffffffffffff021916908373ffffffffffffffffffffffffffffffffffffffff16021790555060208201518160010155604082015181600201908161092a9190611237565b506060820151816003015550503373ffffffffffffffffffffffffffffffffffffffff167f2edbe3c16cfdf7d59d3418a7bebc467863d7aee89bc4da07262936cf15fb4971348360405161097f929190611306565b60405180910390a250565b60025f54036109c5576040517f3ee5aeb500000000000000000000000000000000000000000000000000000000815260040160405180910390fd5b60025f81905550565b60015f81905550565b5f819050919050565b6109e9816109d7565b82525050565b5f602082019050610a025f8301846109e0565b92915050565b5f81519050919050565b5f82825260208201905092915050565b5f819050602082019050919050565b5f73ffffffffffffffffffffffffffffffffffffffff82169050919050565b5f610a5a82610a31565b9050919050565b610a6a81610a50565b82525050565b610a79816109d7565b82525050565b5f81519050919050565b5f82825260208201905092915050565b8281835e5f83830152505050565b5f601f19601f8301169050919050565b5f610ac182610a7f565b610acb8185610a89565b9350610adb818560208601610a99565b610ae481610aa7565b840191505092915050565b5f608083015f830151610b045f860182610a61565b506020830151610b176020860182610a70565b5060408301518482036040860152610b2f8282610ab7565b9150506060830151610b446060860182610a70565b508091505092915050565b5f610b5a8383610aef565b905092915050565b5f602082019050919050565b5f610b7882610a08565b610b828185610a12565b935083602082028501610b9485610a22565b805f5b85811015610bcf5784840389528151610bb08582610b4f565b9450610bbb83610b62565b925060208a01995050600181019050610b97565b50829750879550505050505092915050565b5f6020820190508181035f830152610bf98184610b6e565b905092915050565b5f604051905090565b5f5ffd5b5f5ffd5b610c1b816109d7565b8114610c25575f5ffd5b50565b5f81359050610c3681610c12565b92915050565b5f60208284031215610c5157610c50610c0a565b5b5f610c5e84828501610c28565b91505092915050565b610c7081610a50565b82525050565b5f82825260208201905092915050565b5f610c9082610a7f565b610c9a8185610c76565b9350610caa818560208601610a99565b610cb381610aa7565b840191505092915050565b5f608082019050610cd15f830187610c67565b610cde60208301866109e0565b8181036040830152610cf08185610c86565b9050610cff60608301846109e0565b95945050505050565b5f602082019050610d1b5f830184610c67565b92915050565b5f5ffd5b5f5ffd5b7f4e487b71000000000000000000000000000000000000000000000000000000005f52604160045260245ffd5b610d5f82610aa7565b810181811067ffffffffffffffff82111715610d7e57610d7d610d29565b5b80604052505050565b5f610d90610c01565b9050610d9c8282610d56565b919050565b5f67ffffffffffffffff821115610dbb57610dba610d29565b5b610dc482610aa7565b9050602081019050919050565b828183375f83830152505050565b5f610df1610dec84610da1565b610d87565b905082815260208101848484011115610e0d57610e0c610d25565b5b610e18848285610dd1565b509392505050565b5f82601f830112610e3457610e33610d21565b5b8135610e44848260208601610ddf565b91505092915050565b5f60208284031215610e6257610e61610c0a565b5b5f82013567ffffffffffffffff811115610e7f57610e7e610c0e565b5b610e8b84828501610e20565b91505092915050565b7f4f6e6c79206f776e6572000000000000000000000000000000000000000000005f82015250565b5f610ec8600a83610c76565b9150610ed382610e94565b602082019050919050565b5f6020820190508181035f830152610ef581610ebc565b9050919050565b7f4e487b71000000000000000000000000000000000000000000000000000000005f52602260045260245ffd5b5f6002820490506001821680610f4057607f821691505b602082108103610f5357610f52610efc565b5b50919050565b5f81905092915050565b50565b5f610f715f83610f59565b9150610f7c82610f63565b5f82019050919050565b5f610f9082610f66565b9150819050919050565b7f5769746864726177616c206661696c65640000000000000000000000000000005f82015250565b5f610fce601183610c76565b9150610fd982610f9a565b602082019050919050565b5f6020820190508181035f830152610ffb81610fc2565b9050919050565b7f4e487b71000000000000000000000000000000000000000000000000000000005f52603260045260245ffd5b7f4d7573742073656e642045544820746f207469700000000000000000000000005f82015250565b5f611063601483610c76565b915061106e8261102f565b602082019050919050565b5f6020820190508181035f83015261109081611057565b9050919050565b5f819050815f5260205f209050919050565b5f6020601f8301049050919050565b5f82821b905092915050565b5f600883026110f37fffffffffffffffffffffffffffffffffffffffffffffffffffffffffffffffff826110b8565b6110fd86836110b8565b95508019841693508086168417925050509392505050565b5f819050919050565b5f61113861113361112e846109d7565b611115565b6109d7565b9050919050565b5f819050919050565b6111518361111e565b61116561115d8261113f565b8484546110c4565b825550505050565b5f5f905090565b61117c61116d565b611187818484611148565b505050565b5b818110156111aa5761119f5f82611174565b60018101905061118d565b5050565b601f8211156111ef576111c081611097565b6111c9846110a9565b810160208510156111d8578190505b6111ec6111e4856110a9565b83018261118c565b50505b505050565b5f82821c905092915050565b5f61120f5f19846008026111f4565b1980831691505092915050565b5f6112278383611200565b9150826002028217905092915050565b61124082610a7f565b67ffffffffffffffff81111561125957611258610d29565b5b6112638254610f29565b61126e8282856111ae565b5f60209050601f83116001811461129f575f841561128d578287015190505b611297858261121c565b8655506112fe565b601f1984166112ad86611097565b5f5b828110156112d4578489015182556001820191506020850194506020810190506112af565b868310156112f157848901516112ed601f891682611200565b8355505b6001600288020188555050505b505050505050565b5f6040820190506113195f8301856109e0565b818103602083015261132b8184610c86565b9050939250505056fea264697066735822122019f6274fcf83006548083a627c26ed388f1d779de88e23323c568df4bcdb065364736f6c634300081e0033",
					"opcodes": "PUSH1 0x80 PUSH1 0x40 MSTORE CALLVALUE DUP1 ISZERO PUSH1 0xE JUMPI PUSH0 PUSH0 REVERT JUMPDEST POP PUSH1 0x1 PUSH0 DUP2 SWAP1 SSTORE POP CALLER PUSH1 0x1 PUSH0 PUSH2 0x100 EXP DUP2 SLOAD DUP2 PUSH20 0xFFFFFFFFFFFFFFFFFFFFFFFFFFFFFFFFFFFFFFFF MUL NOT AND SWAP1 DUP4 PUSH20 0xFFFFFFFFFFFFFFFFFFFFFFFFFFFFFFFFFFFFFFFF AND MUL OR SWAP1 SSTORE POP PUSH2 0x136A DUP1 PUSH2 0x63 PUSH0 CODECOPY PUSH0 RETURN INVALID PUSH1 0x80 PUSH1 0x40 MSTORE PUSH1 0x4 CALLDATASIZE LT PUSH2 0x6F JUMPI PUSH0 CALLDATALOAD PUSH1 0xE0 SHR DUP1 PUSH4 0x5B703F5C GT PUSH2 0x4D JUMPI DUP1 PUSH4 0x5B703F5C EQ PUSH2 0xDD JUMPI DUP1 PUSH4 0x8DA5CB5B EQ PUSH2 0x11C JUMPI DUP1 PUSH4 0xA12247B0 EQ PUSH2 0x146 JUMPI DUP1 PUSH4 0xCB56393C EQ PUSH2 0x170 JUMPI PUSH2 0x6F JUMP JUMPDEST DUP1 PUSH4 0x12065FE0 EQ PUSH2 0x73 JUMPI DUP1 PUSH4 0x399DDBBD EQ PUSH2 0x9D JUMPI DUP1 PUSH4 0x3CCFD60B EQ PUSH2 0xC7 JUMPI JUMPDEST PUSH0 PUSH0 REVERT JUMPDEST CALLVALUE DUP1 ISZERO PUSH2 0x7E JUMPI PUSH0 PUSH0 REVERT JUMPDEST POP PUSH2 0x87 PUSH2 0x18C JUMP JUMPDEST PUSH1 0x40 MLOAD PUSH2 0x94 SWAP2 SWAP1 PUSH2 0x9EF JUMP JUMPDEST PUSH1 0x40 MLOAD DUP1 SWAP2 SUB SWAP1 RETURN JUMPDEST CALLVALUE DUP1 ISZERO PUSH2 0xA8 JUMPI PUSH0 PUSH0 REVERT JUMPDEST POP PUSH2 0xB1 PUSH2 0x222 JUMP JUMPDEST PUSH1 0x40 MLOAD PUSH2 0xBE SWAP2 SWAP1 PUSH2 0xBE1 JUMP JUMPDEST PUSH1 0x40 MLOAD DUP1 SWAP2 SUB SWAP1 RETURN JUMPDEST CALLVALUE DUP1 ISZERO PUSH2 0xD2 JUMPI PUSH0 PUSH0 REVERT JUMPDEST POP PUSH2 0xDB PUSH2 0x405 JUMP JUMPDEST STOP JUMPDEST CALLVALUE DUP1 ISZERO PUSH2 0xE8 JUMPI PUSH0 PUSH0 REVERT JUMPDEST POP PUSH2 0x103 PUSH1 0x4 DUP1 CALLDATASIZE SUB DUP2 ADD SWAP1 PUSH2 0xFE SWAP2 SWAP1 PUSH2 0xC3C JUMP JUMPDEST PUSH2 0x5E4 JUMP JUMPDEST PUSH1 0x40 MLOAD PUSH2 0x113 SWAP5 SWAP4 SWAP3 SWAP2 SWAP1 PUSH2 0xCBE JUMP JUMPDEST PUSH1 0x40 MLOAD DUP1 SWAP2 SUB SWAP1 RETURN JUMPDEST CALLVALUE DUP1 ISZERO PUSH2 0x127 JUMPI PUSH0 PUSH0 REVERT JUMPDEST POP PUSH2 0x130 PUSH2 0x766 JUMP JUMPDEST PUSH1 0x40 MLOAD PUSH2 0x13D SWAP2 SWAP1 PUSH2 0xD08 JUMP JUMPDEST PUSH1 0x40 MLOAD DUP1 SWAP2 SUB SWAP1 RETURN JUMPDEST CALLVALUE DUP1 ISZERO PUSH2 0x151 JUMPI PUSH0 PUSH0 REVERT JUMPDEST POP PUSH2 0x15A PUSH2 0x78B JUMP JUMPDEST PUSH1 0x40 MLOAD PUSH2 0x167 SWAP2 SWAP1 PUSH2 0x9EF JUMP JUMPDEST PUSH1 0x40 MLOAD DUP1 SWAP2 SUB SWAP1 RETURN JUMPDEST PUSH2 0x18A PUSH1 0x4 DUP1 CALLDATASIZE SUB DUP2 ADD SWAP1 PUSH2 0x185 SWAP2 SWAP1 PUSH2 0xE4D JUMP JUMPDEST PUSH2 0x826 JUMP JUMPDEST STOP JUMPDEST PUSH0 PUSH1 0x1 PUSH0 SWAP1 SLOAD SWAP1 PUSH2 0x100 EXP SWAP1 DIV PUSH20 0xFFFFFFFFFFFFFFFFFFFFFFFFFFFFFFFFFFFFFFFF AND PUSH20 0xFFFFFFFFFFFFFFFFFFFFFFFFFFFFFFFFFFFFFFFF AND CALLER PUSH20 0xFFFFFFFFFFFFFFFFFFFFFFFFFFFFFFFFFFFFFFFF AND EQ PUSH2 0x21C JUMPI PUSH1 0x40 MLOAD PUSH32 0x8C379A000000000000000000000000000000000000000000000000000000000 DUP2 MSTORE PUSH1 0x4 ADD PUSH2 0x213 SWAP1 PUSH2 0xEDE JUMP JUMPDEST PUSH1 0x40 MLOAD DUP1 SWAP2 SUB SWAP1 REVERT JUMPDEST SELFBALANCE SWAP1 POP SWAP1 JUMP JUMPDEST PUSH1 0x60 PUSH1 0x1 PUSH0 SWAP1 SLOAD SWAP1 PUSH2 0x100 EXP SWAP1 DIV PUSH20 0xFFFFFFFFFFFFFFFFFFFFFFFFFFFFFFFFFFFFFFFF AND PUSH20 0xFFFFFFFFFFFFFFFFFFFFFFFFFFFFFFFFFFFFFFFF AND CALLER PUSH20 0xFFFFFFFFFFFFFFFFFFFFFFFFFFFFFFFFFFFFFFFF AND EQ PUSH2 0x2B3 JUMPI PUSH1 0x40 MLOAD PUSH32 0x8C379A000000000000000000000000000000000000000000000000000000000 DUP2 MSTORE PUSH1 0x4 ADD PUSH2 0x2AA SWAP1 PUSH2 0xEDE JUMP JUMPDEST PUSH1 0x40 MLOAD DUP1 SWAP2 SUB SWAP1 REVERT JUMPDEST PUSH1 0x2 DUP1 SLOAD DUP1 PUSH1 0x20 MUL PUSH1 0x20 ADD PUSH1 0x40 MLOAD SWAP1 DUP2 ADD PUSH1 0x40 MSTORE DUP1 SWAP3 SWAP2 SWAP1 DUP2 DUP2 MSTORE PUSH1 0x20 ADD PUSH0 SWAP1 JUMPDEST DUP3 DUP3 LT ISZERO PUSH2 0x3FC JUMPI DUP4 DUP3 SWAP1 PUSH0 MSTORE PUSH1 0x20 PUSH0 KECCAK256 SWAP1 PUSH1 0x4 MUL ADD PUSH1 0x40 MLOAD DUP1 PUSH1 0x80 ADD PUSH1 0x40 MSTORE SWAP1 DUP2 PUSH0 DUP3 ADD PUSH0 SWAP1 SLOAD SWAP1 PUSH2 0x100 EXP SWAP1 DIV PUSH20 0xFFFFFFFFFFFFFFFFFFFFFFFFFFFFFFFFFFFFFFFF AND PUSH20 0xFFFFFFFFFFFFFFFFFFFFFFFFFFFFFFFFFFFFFFFF AND PUSH20 0xFFFFFFFFFFFFFFFFFFFFFFFFFFFFFFFFFFFFFFFF AND DUP2 MSTORE PUSH1 0x20 ADD PUSH1 0x1 DUP3 ADD SLOAD DUP2 MSTORE PUSH1 0x20 ADD PUSH1 0x2 DUP3 ADD DUP1 SLOAD PUSH2 0x363 SWAP1 PUSH2 0xF29 JUMP JUMPDEST DUP1 PUSH1 0x1F ADD PUSH1 0x20 DUP1 SWAP2 DIV MUL PUSH1 0x20 ADD PUSH1 0x40 MLOAD SWAP1 DUP2 ADD PUSH1 0x40 MSTORE DUP1 SWAP3 SWAP2 SWAP1 DUP2 DUP2 MSTORE PUSH1 0x20 ADD DUP3 DUP1 SLOAD PUSH2 0x38F SWAP1 PUSH2 0xF29 JUMP JUMPDEST DUP1 ISZERO PUSH2 0x3DA JUMPI DUP1 PUSH1 0x1F LT PUSH2 0x3B1 JUMPI PUSH2 0x100 DUP1 DUP4 SLOAD DIV MUL DUP4 MSTORE SWAP2 PUSH1 0x20 ADD SWAP2 PUSH2 0x3DA JUMP JUMPDEST DUP3 ADD SWAP2 SWAP1 PUSH0 MSTORE PUSH1 0x20 PUSH0 KECCAK256 SWAP1 JUMPDEST DUP2 SLOAD DUP2 MSTORE SWAP1 PUSH1 0x1 ADD SWAP1 PUSH1 0x20 ADD DUP1 DUP4 GT PUSH2 0x3BD JUMPI DUP3 SWAP1 SUB PUSH1 0x1F AND DUP3 ADD SWAP2 JUMPDEST POP POP POP POP POP DUP2 MSTORE PUSH1 0x20 ADD PUSH1 0x3 DUP3 ADD SLOAD DUP2 MSTORE POP POP DUP2 MSTORE PUSH1 0x20 ADD SWAP1 PUSH1 0x1 ADD SWAP1 PUSH2 0x2D4 JUMP JUMPDEST POP POP POP POP SWAP1 POP SWAP1 JUMP JUMPDEST PUSH2 0x40D PUSH2 0x98A JUMP JUMPDEST PUSH1 0x1 PUSH0 SWAP1 SLOAD SWAP1 PUSH2 0x100 EXP SWAP1 DIV PUSH20 0xFFFFFFFFFFFFFFFFFFFFFFFFFFFFFFFFFFFFFFFF AND PUSH20 0xFFFFFFFFFFFFFFFFFFFFFFFFFFFFFFFFFFFFFFFF AND CALLER PUSH20 0xFFFFFFFFFFFFFFFFFFFFFFFFFFFFFFFFFFFFFFFF AND EQ PUSH2 0x49C JUMPI PUSH1 0x40 MLOAD PUSH32 0x8C379A000000000000000000000000000000000000000000000000000000000 DUP2 MSTORE PUSH1 0x4 ADD PUSH2 0x493 SWAP1 PUSH2 0xEDE JUMP JUMPDEST PUSH1 0x40 MLOAD DUP1 SWAP2 SUB SWAP1 REVERT JUMPDEST PUSH0 SELFBALANCE SWAP1 POP PUSH0 PUSH1 0x1 PUSH0 SWAP1 SLOAD SWAP1 PUSH2 0x100 EXP SWAP1 DIV PUSH20 0xFFFFFFFFFFFFFFFFFFFFFFFFFFFFFFFFFFFFFFFF AND PUSH20 0xFFFFFFFFFFFFFFFFFFFFFFFFFFFFFFFFFFFFFFFF AND DUP3 PUSH1 0x40 MLOAD PUSH2 0x4E6 SWAP1 PUSH2 0xF86 JUMP JUMPDEST PUSH0 PUSH1 0x40 MLOAD DUP1 DUP4 SUB DUP2 DUP6 DUP8 GAS CALL SWAP3 POP POP POP RETURNDATASIZE DUP1 PUSH0 DUP2 EQ PUSH2 0x520 JUMPI PUSH1 0x40 MLOAD SWAP2 POP PUSH1 0x1F NOT PUSH1 0x3F RETURNDATASIZE ADD AND DUP3 ADD PUSH1 0x40 MSTORE RETURNDATASIZE DUP3 MSTORE RETURNDATASIZE PUSH0 PUSH1 0x20 DUP5 ADD RETURNDATACOPY PUSH2 0x525 JUMP JUMPDEST PUSH1 0x60 SWAP2 POP JUMPDEST POP POP SWAP1 POP DUP1 PUSH2 0x569 JUMPI PUSH1 0x40 MLOAD PUSH32 0x8C379A000000000000000000000000000000000000000000000000000000000 DUP2 MSTORE PUSH1 0x4 ADD PUSH2 0x560 SWAP1 PUSH2 0xFE4 JUMP JUMPDEST PUSH1 0x40 MLOAD DUP1 SWAP2 SUB SWAP1 REVERT JUMPDEST PUSH1 0x1 PUSH0 SWAP1 SLOAD SWAP1 PUSH2 0x100 EXP SWAP1 DIV PUSH20 0xFFFFFFFFFFFFFFFFFFFFFFFFFFFFFFFFFFFFFFFF AND PUSH20 0xFFFFFFFFFFFFFFFFFFFFFFFFFFFFFFFFFFFFFFFF AND PUSH32 0x7FCF532C15F0A6DB0BD6D0E038BEA71D30D808C7D98CB3BF7268A95BF5081B65 DUP4 PUSH1 0x40 MLOAD PUSH2 0x5D0 SWAP2 SWAP1 PUSH2 0x9EF JUMP JUMPDEST PUSH1 0x40 MLOAD DUP1 SWAP2 SUB SWAP1 LOG2 POP POP PUSH2 0x5E2 PUSH2 0x9CE JUMP JUMPDEST JUMP JUMPDEST PUSH0 PUSH0 PUSH1 0x60 PUSH0 PUSH1 0x1 PUSH0 SWAP1 SLOAD SWAP1 PUSH2 0x100 EXP SWAP1 DIV PUSH20 0xFFFFFFFFFFFFFFFFFFFFFFFFFFFFFFFFFFFFFFFF AND PUSH20 0xFFFFFFFFFFFFFFFFFFFFFFFFFFFFFFFFFFFFFFFF AND CALLER PUSH20 0xFFFFFFFFFFFFFFFFFFFFFFFFFFFFFFFFFFFFFFFF AND EQ PUSH2 0x678 JUMPI PUSH1 0x40 MLOAD PUSH32 0x8C379A000000000000000000000000000000000000000000000000000000000 DUP2 MSTORE PUSH1 0x4 ADD PUSH2 0x66F SWAP1 PUSH2 0xEDE JUMP JUMPDEST PUSH1 0x40 MLOAD DUP1 SWAP2 SUB SWAP1 REVERT JUMPDEST PUSH0 PUSH1 0x2 DUP7 DUP2 SLOAD DUP2 LT PUSH2 0x68D JUMPI PUSH2 0x68C PUSH2 0x1002 JUMP JUMPDEST JUMPDEST SWAP1 PUSH0 MSTORE PUSH1 0x20 PUSH0 KECCAK256 SWAP1 PUSH1 0x4 MUL ADD SWAP1 POP DUP1 PUSH0 ADD PUSH0 SWAP1 SLOAD SWAP1 PUSH2 0x100 EXP SWAP1 DIV PUSH20 0xFFFFFFFFFFFFFFFFFFFFFFFFFFFFFFFFFFFFFFFF AND DUP2 PUSH1 0x1 ADD SLOAD DUP3 PUSH1 0x2 ADD DUP4 PUSH1 0x3 ADD SLOAD DUP2 DUP1 SLOAD PUSH2 0x6D8 SWAP1 PUSH2 0xF29 JUMP JUMPDEST DUP1 PUSH1 0x1F ADD PUSH1 0x20 DUP1 SWAP2 DIV MUL PUSH1 0x20 ADD PUSH1 0x40 MLOAD SWAP1 DUP2 ADD PUSH1 0x40 MSTORE DUP1 SWAP3 SWAP2 SWAP1 DUP2 DUP2 MSTORE PUSH1 0x20 ADD DUP3 DUP1 SLOAD PUSH2 0x704 SWAP1 PUSH2 0xF29 JUMP JUMPDEST DUP1 ISZERO PUSH2 0x74F JUMPI DUP1 PUSH1 0x1F LT PUSH2 0x726 JUMPI PUSH2 0x100 DUP1 DUP4 SLOAD DIV MUL DUP4 MSTORE SWAP2 PUSH1 0x20 ADD SWAP2 PUSH2 0x74F JUMP JUMPDEST DUP3 ADD SWAP2 SWAP1 PUSH0 MSTORE PUSH1 0x20 PUSH0 KECCAK256 SWAP1 JUMPDEST DUP2 SLOAD DUP2 MSTORE SWAP1 PUSH1 0x1 ADD SWAP1 PUSH1 0x20 ADD DUP1 DUP4 GT PUSH2 0x732 JUMPI DUP3 SWAP1 SUB PUSH1 0x1F AND DUP3 ADD SWAP2 JUMPDEST POP POP POP POP POP SWAP2 POP SWAP5 POP SWAP5 POP SWAP5 POP SWAP5 POP POP SWAP2 SWAP4 POP SWAP2 SWAP4 JUMP JUMPDEST PUSH1 0x1 PUSH0 SWAP1 SLOAD SWAP1 PUSH2 0x100 EXP SWAP1 DIV PUSH20 0xFFFFFFFFFFFFFFFFFFFFFFFFFFFFFFFFFFFFFFFF AND DUP2 JUMP JUMPDEST PUSH0 PUSH1 0x1 PUSH0 SWAP1 SLOAD SWAP1 PUSH2 0x100 EXP SWAP1 DIV PUSH20 0xFFFFFFFFFFFFFFFFFFFFFFFFFFFFFFFFFFFFFFFF AND PUSH20 0xFFFFFFFFFFFFFFFFFFFFFFFFFFFFFFFFFFFFFFFF AND CALLER PUSH20 0xFFFFFFFFFFFFFFFFFFFFFFFFFFFFFFFFFFFFFFFF AND EQ PUSH2 0x81B JUMPI PUSH1 0x40 MLOAD PUSH32 0x8C379A000000000000000000000000000000000000000000000000000000000 DUP2 MSTORE PUSH1 0x4 ADD PUSH2 0x812 SWAP1 PUSH2 0xEDE JUMP JUMPDEST PUSH1 0x40 MLOAD DUP1 SWAP2 SUB SWAP1 REVERT JUMPDEST PUSH1 0x2 DUP1 SLOAD SWAP1 POP SWAP1 POP SWAP1 JUMP JUMPDEST PUSH0 CALLVALUE GT PUSH2 0x868 JUMPI PUSH1 0x40 MLOAD PUSH32 0x8C379A000000000000000000000000000000000000000000000000000000000 DUP2 MSTORE PUSH1 0x4 ADD PUSH2 0x85F SWAP1 PUSH2 0x1079 JUMP JUMPDEST PUSH1 0x40 MLOAD DUP1 SWAP2 SUB SWAP1 REVERT JUMPDEST PUSH1 0x2 PUSH1 0x40 MLOAD DUP1 PUSH1 0x80 ADD PUSH1 0x40 MSTORE DUP1 CALLER PUSH20 0xFFFFFFFFFFFFFFFFFFFFFFFFFFFFFFFFFFFFFFFF AND DUP2 MSTORE PUSH1 0x20 ADD CALLVALUE DUP2 MSTORE PUSH1 0x20 ADD DUP4 DUP2 MSTORE PUSH1 0x20 ADD TIMESTAMP DUP2 MSTORE POP SWAP1 DUP1 PUSH1 0x1 DUP2 SLOAD ADD DUP1 DUP3 SSTORE DUP1 SWAP2 POP POP PUSH1 0x1 SWAP1 SUB SWAP1 PUSH0 MSTORE PUSH1 0x20 PUSH0 KECCAK256 SWAP1 PUSH1 0x4 MUL ADD PUSH0 SWAP1 SWAP2 SWAP1 SWAP2 SWAP1 SWAP2 POP PUSH0 DUP3 ADD MLOAD DUP2 PUSH0 ADD PUSH0 PUSH2 0x100 EXP DUP2 SLOAD DUP2 PUSH20 0xFFFFFFFFFFFFFFFFFFFFFFFFFFFFFFFFFFFFFFFF MUL NOT AND SWAP1 DUP4 PUSH20 0xFFFFFFFFFFFFFFFFFFFFFFFFFFFFFFFFFFFFFFFF AND MUL OR SWAP1 SSTORE POP PUSH1 0x20 DUP3 ADD MLOAD DUP2 PUSH1 0x1 ADD SSTORE PUSH1 0x40 DUP3 ADD MLOAD DUP2 PUSH1 0x2 ADD SWAP1 DUP2 PUSH2 0x92A SWAP2 SWAP1 PUSH2 0x1237 JUMP JUMPDEST POP PUSH1 0x60 DUP3 ADD MLOAD DUP2 PUSH1 0x3 ADD SSTORE POP POP CALLER PUSH20 0xFFFFFFFFFFFFFFFFFFFFFFFFFFFFFFFFFFFFFFFF AND PUSH32 0x2EDBE3C16CFDF7D59D3418A7BEBC467863D7AEE89BC4DA07262936CF15FB4971 CALLVALUE DUP4 PUSH1 0x40 MLOAD PUSH2 0x97F SWAP3 SWAP2 SWAP1 PUSH2 0x1306 JUMP JUMPDEST PUSH1 0x40 MLOAD DUP1 SWAP2 SUB SWAP1 LOG2 POP JUMP JUMPDEST PUSH1 0x2 PUSH0 SLOAD SUB PUSH2 0x9C5 JUMPI PUSH1 0x40 MLOAD PUSH32 0x3EE5AEB500000000000000000000000000000000000000000000000000000000 DUP2 MSTORE PUSH1 0x4 ADD PUSH1 0x40 MLOAD DUP1 SWAP2 SUB SWAP1 REVERT JUMPDEST PUSH1 0x2 PUSH0 DUP2 SWAP1 SSTORE POP JUMP JUMPDEST PUSH1 0x1 PUSH0 DUP2 SWAP1 SSTORE POP JUMP JUMPDEST PUSH0 DUP2 SWAP1 POP SWAP2 SWAP1 POP JUMP JUMPDEST PUSH2 0x9E9 DUP2 PUSH2 0x9D7 JUMP JUMPDEST DUP3 MSTORE POP POP JUMP JUMPDEST PUSH0 PUSH1 0x20 DUP3 ADD SWAP1 POP PUSH2 0xA02 PUSH0 DUP4 ADD DUP5 PUSH2 0x9E0 JUMP JUMPDEST SWAP3 SWAP2 POP POP JUMP JUMPDEST PUSH0 DUP2 MLOAD SWAP1 POP SWAP2 SWAP1 POP JUMP JUMPDEST PUSH0 DUP3 DUP3 MSTORE PUSH1 0x20 DUP3 ADD SWAP1 POP SWAP3 SWAP2 POP POP JUMP JUMPDEST PUSH0 DUP2 SWAP1 POP PUSH1 0x20 DUP3 ADD SWAP1 POP SWAP2 SWAP1 POP JUMP JUMPDEST PUSH0 PUSH20 0xFFFFFFFFFFFFFFFFFFFFFFFFFFFFFFFFFFFFFFFF DUP3 AND SWAP1 POP SWAP2 SWAP1 POP JUMP JUMPDEST PUSH0 PUSH2 0xA5A DUP3 PUSH2 0xA31 JUMP JUMPDEST SWAP1 POP SWAP2 SWAP1 POP JUMP JUMPDEST PUSH2 0xA6A DUP2 PUSH2 0xA50 JUMP JUMPDEST DUP3 MSTORE POP POP JUMP JUMPDEST PUSH2 0xA79 DUP2 PUSH2 0x9D7 JUMP JUMPDEST DUP3 MSTORE POP POP JUMP JUMPDEST PUSH0 DUP2 MLOAD SWAP1 POP SWAP2 SWAP1 POP JUMP JUMPDEST PUSH0 DUP3 DUP3 MSTORE PUSH1 0x20 DUP3 ADD SWAP1 POP SWAP3 SWAP2 POP POP JUMP JUMPDEST DUP3 DUP2 DUP4 MCOPY PUSH0 DUP4 DUP4 ADD MSTORE POP POP POP JUMP JUMPDEST PUSH0 PUSH1 0x1F NOT PUSH1 0x1F DUP4 ADD AND SWAP1 POP SWAP2 SWAP1 POP JUMP JUMPDEST PUSH0 PUSH2 0xAC1 DUP3 PUSH2 0xA7F JUMP JUMPDEST PUSH2 0xACB DUP2 DUP6 PUSH2 0xA89 JUMP JUMPDEST SWAP4 POP PUSH2 0xADB DUP2 DUP6 PUSH1 0x20 DUP7 ADD PUSH2 0xA99 JUMP JUMPDEST PUSH2 0xAE4 DUP2 PUSH2 0xAA7 JUMP JUMPDEST DUP5 ADD SWAP2 POP POP SWAP3 SWAP2 POP POP JUMP JUMPDEST PUSH0 PUSH1 0x80 DUP4 ADD PUSH0 DUP4 ADD MLOAD PUSH2 0xB04 PUSH0 DUP7 ADD DUP3 PUSH2 0xA61 JUMP JUMPDEST POP PUSH1 0x20 DUP4 ADD MLOAD PUSH2 0xB17 PUSH1 0x20 DUP7 ADD DUP3 PUSH2 0xA70 JUMP JUMPDEST POP PUSH1 0x40 DUP4 ADD MLOAD DUP5 DUP3 SUB PUSH1 0x40 DUP7 ADD MSTORE PUSH2 0xB2F DUP3 DUP3 PUSH2 0xAB7 JUMP JUMPDEST SWAP2 POP POP PUSH1 0x60 DUP4 ADD MLOAD PUSH2 0xB44 PUSH1 0x60 DUP7 ADD DUP3 PUSH2 0xA70 JUMP JUMPDEST POP DUP1 SWAP2 POP POP SWAP3 SWAP2 POP POP JUMP JUMPDEST PUSH0 PUSH2 0xB5A DUP4 DUP4 PUSH2 0xAEF JUMP JUMPDEST SWAP1 POP SWAP3 SWAP2 POP POP JUMP JUMPDEST PUSH0 PUSH1 0x20 DUP3 ADD SWAP1 POP SWAP2 SWAP1 POP JUMP JUMPDEST PUSH0 PUSH2 0xB78 DUP3 PUSH2 0xA08 JUMP JUMPDEST PUSH2 0xB82 DUP2 DUP6 PUSH2 0xA12 JUMP JUMPDEST SWAP4 POP DUP4 PUSH1 0x20 DUP3 MUL DUP6 ADD PUSH2 0xB94 DUP6 PUSH2 0xA22 JUMP JUMPDEST DUP1 PUSH0 JUMPDEST DUP6 DUP2 LT ISZERO PUSH2 0xBCF JUMPI DUP5 DUP5 SUB DUP10 MSTORE DUP2 MLOAD PUSH2 0xBB0 DUP6 DUP3 PUSH2 0xB4F JUMP JUMPDEST SWAP5 POP PUSH2 0xBBB DUP4 PUSH2 0xB62 JUMP JUMPDEST SWAP3 POP PUSH1 0x20 DUP11 ADD SWAP10 POP POP PUSH1 0x1 DUP2 ADD SWAP1 POP PUSH2 0xB97 JUMP JUMPDEST POP DUP3 SWAP8 POP DUP8 SWAP6 POP POP POP POP POP POP SWAP3 SWAP2 POP POP JUMP JUMPDEST PUSH0 PUSH1 0x20 DUP3 ADD SWAP1 POP DUP2 DUP2 SUB PUSH0 DUP4 ADD MSTORE PUSH2 0xBF9 DUP2 DUP5 PUSH2 0xB6E JUMP JUMPDEST SWAP1 POP SWAP3 SWAP2 POP POP JUMP JUMPDEST PUSH0 PUSH1 0x40 MLOAD SWAP1 POP SWAP1 JUMP JUMPDEST PUSH0 PUSH0 REVERT JUMPDEST PUSH0 PUSH0 REVERT JUMPDEST PUSH2 0xC1B DUP2 PUSH2 0x9D7 JUMP JUMPDEST DUP2 EQ PUSH2 0xC25 JUMPI PUSH0 PUSH0 REVERT JUMPDEST POP JUMP JUMPDEST PUSH0 DUP2 CALLDATALOAD SWAP1 POP PUSH2 0xC36 DUP2 PUSH2 0xC12 JUMP JUMPDEST SWAP3 SWAP2 POP POP JUMP JUMPDEST PUSH0 PUSH1 0x20 DUP3 DUP5 SUB SLT ISZERO PUSH2 0xC51 JUMPI PUSH2 0xC50 PUSH2 0xC0A JUMP JUMPDEST JUMPDEST PUSH0 PUSH2 0xC5E DUP5 DUP3 DUP6 ADD PUSH2 0xC28 JUMP JUMPDEST SWAP2 POP POP SWAP3 SWAP2 POP POP JUMP JUMPDEST PUSH2 0xC70 DUP2 PUSH2 0xA50 JUMP JUMPDEST DUP3 MSTORE POP POP JUMP JUMPDEST PUSH0 DUP3 DUP3 MSTORE PUSH1 0x20 DUP3 ADD SWAP1 POP SWAP3 SWAP2 POP POP JUMP JUMPDEST PUSH0 PUSH2 0xC90 DUP3 PUSH2 0xA7F JUMP JUMPDEST PUSH2 0xC9A DUP2 DUP6 PUSH2 0xC76 JUMP JUMPDEST SWAP4 POP PUSH2 0xCAA DUP2 DUP6 PUSH1 0x20 DUP7 ADD PUSH2 0xA99 JUMP JUMPDEST PUSH2 0xCB3 DUP2 PUSH2 0xAA7 JUMP JUMPDEST DUP5 ADD SWAP2 POP POP SWAP3 SWAP2 POP POP JUMP JUMPDEST PUSH0 PUSH1 0x80 DUP3 ADD SWAP1 POP PUSH2 0xCD1 PUSH0 DUP4 ADD DUP8 PUSH2 0xC67 JUMP JUMPDEST PUSH2 0xCDE PUSH1 0x20 DUP4 ADD DUP7 PUSH2 0x9E0 JUMP JUMPDEST DUP2 DUP2 SUB PUSH1 0x40 DUP4 ADD MSTORE PUSH2 0xCF0 DUP2 DUP6 PUSH2 0xC86 JUMP JUMPDEST SWAP1 POP PUSH2 0xCFF PUSH1 0x60 DUP4 ADD DUP5 PUSH2 0x9E0 JUMP JUMPDEST SWAP6 SWAP5 POP POP POP POP POP JUMP JUMPDEST PUSH0 PUSH1 0x20 DUP3 ADD SWAP1 POP PUSH2 0xD1B PUSH0 DUP4 ADD DUP5 PUSH2 0xC67 JUMP JUMPDEST SWAP3 SWAP2 POP POP JUMP JUMPDEST PUSH0 PUSH0 REVERT JUMPDEST PUSH0 PUSH0 REVERT JUMPDEST PUSH32 0x4E487B7100000000000000000000000000000000000000000000000000000000 PUSH0 MSTORE PUSH1 0x41 PUSH1 0x4 MSTORE PUSH1 0x24 PUSH0 REVERT JUMPDEST PUSH2 0xD5F DUP3 PUSH2 0xAA7 JUMP JUMPDEST DUP2 ADD DUP2 DUP2 LT PUSH8 0xFFFFFFFFFFFFFFFF DUP3 GT OR ISZERO PUSH2 0xD7E JUMPI PUSH2 0xD7D PUSH2 0xD29 JUMP JUMPDEST JUMPDEST DUP1 PUSH1 0x40 MSTORE POP POP POP JUMP JUMPDEST PUSH0 PUSH2 0xD90 PUSH2 0xC01 JUMP JUMPDEST SWAP1 POP PUSH2 0xD9C DUP3 DUP3 PUSH2 0xD56 JUMP JUMPDEST SWAP2 SWAP1 POP JUMP JUMPDEST PUSH0 PUSH8 0xFFFFFFFFFFFFFFFF DUP3 GT ISZERO PUSH2 0xDBB JUMPI PUSH2 0xDBA PUSH2 0xD29 JUMP JUMPDEST JUMPDEST PUSH2 0xDC4 DUP3 PUSH2 0xAA7 JUMP JUMPDEST SWAP1 POP PUSH1 0x20 DUP2 ADD SWAP1 POP SWAP2 SWAP1 POP JUMP JUMPDEST DUP3 DUP2 DUP4 CALLDATACOPY PUSH0 DUP4 DUP4 ADD MSTORE POP POP POP JUMP JUMPDEST PUSH0 PUSH2 0xDF1 PUSH2 0xDEC DUP5 PUSH2 0xDA1 JUMP JUMPDEST PUSH2 0xD87 JUMP JUMPDEST SWAP1 POP DUP3 DUP2 MSTORE PUSH1 0x20 DUP2 ADD DUP5 DUP5 DUP5 ADD GT ISZERO PUSH2 0xE0D JUMPI PUSH2 0xE0C PUSH2 0xD25 JUMP JUMPDEST JUMPDEST PUSH2 0xE18 DUP5 DUP3 DUP6 PUSH2 0xDD1 JUMP JUMPDEST POP SWAP4 SWAP3 POP POP POP JUMP JUMPDEST PUSH0 DUP3 PUSH1 0x1F DUP4 ADD SLT PUSH2 0xE34 JUMPI PUSH2 0xE33 PUSH2 0xD21 JUMP JUMPDEST JUMPDEST DUP2 CALLDATALOAD PUSH2 0xE44 DUP5 DUP3 PUSH1 0x20 DUP7 ADD PUSH2 0xDDF JUMP JUMPDEST SWAP2 POP POP SWAP3 SWAP2 POP POP JUMP JUMPDEST PUSH0 PUSH1 0x20 DUP3 DUP5 SUB SLT ISZERO PUSH2 0xE62 JUMPI PUSH2 0xE61 PUSH2 0xC0A JUMP JUMPDEST JUMPDEST PUSH0 DUP3 ADD CALLDATALOAD PUSH8 0xFFFFFFFFFFFFFFFF DUP2 GT ISZERO PUSH2 0xE7F JUMPI PUSH2 0xE7E PUSH2 0xC0E JUMP JUMPDEST JUMPDEST PUSH2 0xE8B DUP5 DUP3 DUP6 ADD PUSH2 0xE20 JUMP JUMPDEST SWAP2 POP POP SWAP3 SWAP2 POP POP JUMP JUMPDEST PUSH32 0x4F6E6C79206F776E657200000000000000000000000000000000000000000000 PUSH0 DUP3 ADD MSTORE POP JUMP JUMPDEST PUSH0 PUSH2 0xEC8 PUSH1 0xA DUP4 PUSH2 0xC76 JUMP JUMPDEST SWAP2 POP PUSH2 0xED3 DUP3 PUSH2 0xE94 JUMP JUMPDEST PUSH1 0x20 DUP3 ADD SWAP1 POP SWAP2 SWAP1 POP JUMP JUMPDEST PUSH0 PUSH1 0x20 DUP3 ADD SWAP1 POP DUP2 DUP2 SUB PUSH0 DUP4 ADD MSTORE PUSH2 0xEF5 DUP2 PUSH2 0xEBC JUMP JUMPDEST SWAP1 POP SWAP2 SWAP1 POP JUMP JUMPDEST PUSH32 0x4E487B7100000000000000000000000000000000000000000000000000000000 PUSH0 MSTORE PUSH1 0x22 PUSH1 0x4 MSTORE PUSH1 0x24 PUSH0 REVERT JUMPDEST PUSH0 PUSH1 0x2 DUP3 DIV SWAP1 POP PUSH1 0x1 DUP3 AND DUP1 PUSH2 0xF40 JUMPI PUSH1 0x7F DUP3 AND SWAP2 POP JUMPDEST PUSH1 0x20 DUP3 LT DUP2 SUB PUSH2 0xF53 JUMPI PUSH2 0xF52 PUSH2 0xEFC JUMP JUMPDEST JUMPDEST POP SWAP2 SWAP1 POP JUMP JUMPDEST PUSH0 DUP2 SWAP1 POP SWAP3 SWAP2 POP POP JUMP JUMPDEST POP JUMP JUMPDEST PUSH0 PUSH2 0xF71 PUSH0 DUP4 PUSH2 0xF59 JUMP JUMPDEST SWAP2 POP PUSH2 0xF7C DUP3 PUSH2 0xF63 JUMP JUMPDEST PUSH0 DUP3 ADD SWAP1 POP SWAP2 SWAP1 POP JUMP JUMPDEST PUSH0 PUSH2 0xF90 DUP3 PUSH2 0xF66 JUMP JUMPDEST SWAP2 POP DUP2 SWAP1 POP SWAP2 SWAP1 POP JUMP JUMPDEST PUSH32 0x5769746864726177616C206661696C6564000000000000000000000000000000 PUSH0 DUP3 ADD MSTORE POP JUMP JUMPDEST PUSH0 PUSH2 0xFCE PUSH1 0x11 DUP4 PUSH2 0xC76 JUMP JUMPDEST SWAP2 POP PUSH2 0xFD9 DUP3 PUSH2 0xF9A JUMP JUMPDEST PUSH1 0x20 DUP3 ADD SWAP1 POP SWAP2 SWAP1 POP JUMP JUMPDEST PUSH0 PUSH1 0x20 DUP3 ADD SWAP1 POP DUP2 DUP2 SUB PUSH0 DUP4 ADD MSTORE PUSH2 0xFFB DUP2 PUSH2 0xFC2 JUMP JUMPDEST SWAP1 POP SWAP2 SWAP1 POP JUMP JUMPDEST PUSH32 0x4E487B7100000000000000000000000000000000000000000000000000000000 PUSH0 MSTORE PUSH1 0x32 PUSH1 0x4 MSTORE PUSH1 0x24 PUSH0 REVERT JUMPDEST PUSH32 0x4D7573742073656E642045544820746F20746970000000000000000000000000 PUSH0 DUP3 ADD MSTORE POP JUMP JUMPDEST PUSH0 PUSH2 0x1063 PUSH1 0x14 DUP4 PUSH2 0xC76 JUMP JUMPDEST SWAP2 POP PUSH2 0x106E DUP3 PUSH2 0x102F JUMP JUMPDEST PUSH1 0x20 DUP3 ADD SWAP1 POP SWAP2 SWAP1 POP JUMP JUMPDEST PUSH0 PUSH1 0x20 DUP3 ADD SWAP1 POP DUP2 DUP2 SUB PUSH0 DUP4 ADD MSTORE PUSH2 0x1090 DUP2 PUSH2 0x1057 JUMP JUMPDEST SWAP1 POP SWAP2 SWAP1 POP JUMP JUMPDEST PUSH0 DUP2 SWAP1 POP DUP2 PUSH0 MSTORE PUSH1 0x20 PUSH0 KECCAK256 SWAP1 POP SWAP2 SWAP1 POP JUMP JUMPDEST PUSH0 PUSH1 0x20 PUSH1 0x1F DUP4 ADD DIV SWAP1 POP SWAP2 SWAP1 POP JUMP JUMPDEST PUSH0 DUP3 DUP3 SHL SWAP1 POP SWAP3 SWAP2 POP POP JUMP JUMPDEST PUSH0 PUSH1 0x8 DUP4 MUL PUSH2 0x10F3 PUSH32 0xFFFFFFFFFFFFFFFFFFFFFFFFFFFFFFFFFFFFFFFFFFFFFFFFFFFFFFFFFFFFFFFF DUP3 PUSH2 0x10B8 JUMP JUMPDEST PUSH2 0x10FD DUP7 DUP4 PUSH2 0x10B8 JUMP JUMPDEST SWAP6 POP DUP1 NOT DUP5 AND SWAP4 POP DUP1 DUP7 AND DUP5 OR SWAP3 POP POP POP SWAP4 SWAP3 POP POP POP JUMP JUMPDEST PUSH0 DUP2 SWAP1 POP SWAP2 SWAP1 POP JUMP JUMPDEST PUSH0 PUSH2 0x1138 PUSH2 0x1133 PUSH2 0x112E DUP5 PUSH2 0x9D7 JUMP JUMPDEST PUSH2 0x1115 JUMP JUMPDEST PUSH2 0x9D7 JUMP JUMPDEST SWAP1 POP SWAP2 SWAP1 POP JUMP JUMPDEST PUSH0 DUP2 SWAP1 POP SWAP2 SWAP1 POP JUMP JUMPDEST PUSH2 0x1151 DUP4 PUSH2 0x111E JUMP JUMPDEST PUSH2 0x1165 PUSH2 0x115D DUP3 PUSH2 0x113F JUMP JUMPDEST DUP5 DUP5 SLOAD PUSH2 0x10C4 JUMP JUMPDEST DUP3 SSTORE POP POP POP POP JUMP JUMPDEST PUSH0 PUSH0 SWAP1 POP SWAP1 JUMP JUMPDEST PUSH2 0x117C PUSH2 0x116D JUMP JUMPDEST PUSH2 0x1187 DUP2 DUP5 DUP5 PUSH2 0x1148 JUMP JUMPDEST POP POP POP JUMP JUMPDEST JUMPDEST DUP2 DUP2 LT ISZERO PUSH2 0x11AA JUMPI PUSH2 0x119F PUSH0 DUP3 PUSH2 0x1174 JUMP JUMPDEST PUSH1 0x1 DUP2 ADD SWAP1 POP PUSH2 0x118D JUMP JUMPDEST POP POP JUMP JUMPDEST PUSH1 0x1F DUP3 GT ISZERO PUSH2 0x11EF JUMPI PUSH2 0x11C0 DUP2 PUSH2 0x1097 JUMP JUMPDEST PUSH2 0x11C9 DUP5 PUSH2 0x10A9 JUMP JUMPDEST DUP2 ADD PUSH1 0x20 DUP6 LT ISZERO PUSH2 0x11D8 JUMPI DUP2 SWAP1 POP JUMPDEST PUSH2 0x11EC PUSH2 0x11E4 DUP6 PUSH2 0x10A9 JUMP JUMPDEST DUP4 ADD DUP3 PUSH2 0x118C JUMP JUMPDEST POP POP JUMPDEST POP POP POP JUMP JUMPDEST PUSH0 DUP3 DUP3 SHR SWAP1 POP SWAP3 SWAP2 POP POP JUMP JUMPDEST PUSH0 PUSH2 0x120F PUSH0 NOT DUP5 PUSH1 0x8 MUL PUSH2 0x11F4 JUMP JUMPDEST NOT DUP1 DUP4 AND SWAP2 POP POP SWAP3 SWAP2 POP POP JUMP JUMPDEST PUSH0 PUSH2 0x1227 DUP4 DUP4 PUSH2 0x1200 JUMP JUMPDEST SWAP2 POP DUP3 PUSH1 0x2 MUL DUP3 OR SWAP1 POP SWAP3 SWAP2 POP POP JUMP JUMPDEST PUSH2 0x1240 DUP3 PUSH2 0xA7F JUMP JUMPDEST PUSH8 0xFFFFFFFFFFFFFFFF DUP2 GT ISZERO PUSH2 0x1259 JUMPI PUSH2 0x1258 PUSH2 0xD29 JUMP JUMPDEST JUMPDEST PUSH2 0x1263 DUP3 SLOAD PUSH2 0xF29 JUMP JUMPDEST PUSH2 0x126E DUP3 DUP3 DUP6 PUSH2 0x11AE JUMP JUMPDEST PUSH0 PUSH1 0x20 SWAP1 POP PUSH1 0x1F DUP4 GT PUSH1 0x1 DUP2 EQ PUSH2 0x129F JUMPI PUSH0 DUP5 ISZERO PUSH2 0x128D JUMPI DUP3 DUP8 ADD MLOAD SWAP1 POP JUMPDEST PUSH2 0x1297 DUP6 DUP3 PUSH2 0x121C JUMP JUMPDEST DUP7 SSTORE POP PUSH2 0x12FE JUMP JUMPDEST PUSH1 0x1F NOT DUP5 AND PUSH2 0x12AD DUP7 PUSH2 0x1097 JUMP JUMPDEST PUSH0 JUMPDEST DUP3 DUP2 LT ISZERO PUSH2 0x12D4 JUMPI DUP5 DUP10 ADD MLOAD DUP3 SSTORE PUSH1 0x1 DUP3 ADD SWAP2 POP PUSH1 0x20 DUP6 ADD SWAP5 POP PUSH1 0x20 DUP2 ADD SWAP1 POP PUSH2 0x12AF JUMP JUMPDEST DUP7 DUP4 LT ISZERO PUSH2 0x12F1 JUMPI DUP5 DUP10 ADD MLOAD PUSH2 0x12ED PUSH1 0x1F DUP10 AND DUP3 PUSH2 0x1200 JUMP JUMPDEST DUP4 SSTORE POP JUMPDEST PUSH1 0x1 PUSH1 0x2 DUP9 MUL ADD DUP9 SSTORE POP POP POP JUMPDEST POP POP POP POP POP POP JUMP JUMPDEST PUSH0 PUSH1 0x40 DUP3 ADD SWAP1 POP PUSH2 0x1319 PUSH0 DUP4 ADD DUP6 PUSH2 0x9E0 JUMP JUMPDEST DUP2 DUP2 SUB PUSH1 0x20 DUP4 ADD MSTORE PUSH2 0x132B DUP2 DUP5 PUSH2 0xC86 JUMP JUMPDEST SWAP1 POP SWAP4 SWAP3 POP POP POP JUMP INVALID LOG2 PUSH5 0x6970667358 0x22 SLT KECCAK256 NOT 0xF6 0x27 0x4F 0xCF DUP4 STOP PUSH6 0x48083A627C26 0xED CODESIZE DUP16 SAR PUSH24 0x9DE88E23323C568DF4BCDB065364736F6C634300081E0033 "
				},
				"gasEstimates": {
					"creation": {
						"codeDepositCost": "994000",
						"executionCost": "47410",
						"totalCost": "1041410"
					},
					"external": {
						"getAllTips()": "infinite",
						"getBalance()": "2599",
						"getTip(uint256)": "infinite",
						"getTipsCount()": "4653",
						"owner()": "2530",
						"tip(string)": "infinite",
						"withdraw()": "infinite"
					}
				},
				"methodIdentifiers": {
					"getAllTips()": "399ddbbd",
					"getBalance()": "12065fe0",
					"getTip(uint256)": "5b703f5c",
					"getTipsCount()": "a12247b0",
					"owner()": "8da5cb5b",
					"tip(string)": "cb56393c",
					"withdraw()": "3ccfd60b"
				}
			},
			"storageLayout": {
				"storage": [
					{
						"astId": 10,
						"contract": "TrabajoFinalModulo4/tipJar.sol:TipJar",
						"label": "_status",
						"offset": 0,
						"slot": "0",
						"type": "t_uint256"
					},
					{
						"astId": 75,
						"contract": "TrabajoFinalModulo4/tipJar.sol:TipJar",
						"label": "owner",
						"offset": 0,
						"slot": "1",
						"type": "t_address"
					},
					{
						"astId": 102,
						"contract": "TrabajoFinalModulo4/tipJar.sol:TipJar",
						"label": "tips",
						"offset": 0,
						"slot": "2",
						"type": "t_array(t_struct(Tipper)98_storage)dyn_storage"
					}
				],
				"types": {
					"t_address": {
						"encoding": "inplace",
						"label": "address",
						"numberOfBytes": "20"
					},
					"t_array(t_struct(Tipper)98_storage)dyn_storage": {
						"base": "t_struct(Tipper)98_storage",
						"encoding": "dynamic_array",
						"label": "struct TipJar.Tipper[]",
						"numberOfBytes": "32"
					},
					"t_string_storage": {
						"encoding": "bytes",
						"label": "string",
						"numberOfBytes": "32"
					},
					"t_struct(Tipper)98_storage": {
						"encoding": "inplace",
						"label": "struct TipJar.Tipper",
						"members": [
							{
								"astId": 91,
								"contract": "TrabajoFinalModulo4/tipJar.sol:TipJar",
								"label": "from",
								"offset": 0,
								"slot": "0",
								"type": "t_address"
							},
							{
								"astId": 93,
								"contract": "TrabajoFinalModulo4/tipJar.sol:TipJar",
								"label": "amount",
								"offset": 0,
								"slot": "1",
								"type": "t_uint256"
							},
							{
								"astId": 95,
								"contract": "TrabajoFinalModulo4/tipJar.sol:TipJar",
								"label": "message",
								"offset": 0,
								"slot": "2",
								"type": "t_string_storage"
							},
							{
								"astId": 97,
								"contract": "TrabajoFinalModulo4/tipJar.sol:TipJar",
								"label": "timestamp",
								"offset": 0,
								"slot": "3",
								"type": "t_uint256"
							}
						],
						"numberOfBytes": "128"
					},
					"t_uint256": {
						"encoding": "inplace",
						"label": "uint256",
						"numberOfBytes": "32"
					}
				}
			},
			"userdoc": {
				"kind": "user",
				"methods": {},
				"version": 1
			}
		}
	}
}