{
	"data": {
		"bytecode": {
			"linkReferences": {},
			"object": "610100604052348015610010575f80fd5b50604051612fe8380380612fe883398181016040528101906100329190610566565b60015f819055505f73ffffffffffffffffffffffffffffffffffffffff168b73ffffffffffffffffffffffffffffffffffffffff16148061009e57505f73ffffffffffffffffffffffffffffffffffffffff168a73ffffffffffffffffffffffffffffffffffffffff16145b806100d457505f73ffffffffffffffffffffffffffffffffffffffff168173ffffffffffffffffffffffffffffffffffffffff16145b806100de57505f89145b806100e857505f88145b806100f257505f87145b806100fd5750878711155b8061011c57508467ffffffffffffffff168667ffffffffffffffff1610155b8061012657505f84145b8061013057505f83145b8061013a57508383105b8061014a57506127108261ffff16115b15610181576040517fa86b651200000000000000000000000000000000000000000000000000000000815260040160405180910390fd5b8a73ffffffffffffffffffffffffffffffffffffffff1660808173ffffffffffffffffffffffffffffffffffffffff16815250508960035f6101000a81548173ffffffffffffffffffffffffffffffffffffffff021916908373ffffffffffffffffffffffffffffffffffffffff160217905550886004819055508760a081815250508660c081815250508560055f6101000a81548167ffffffffffffffff021916908367ffffffffffffffff16021790555084600560086101000a81548167ffffffffffffffff021916908367ffffffffffffffff16021790555083600681905550826007819055508161ffff1660e08161ffff168152505061028d5f801b8261030060201b60201c565b506102be7f65d7a28e3265b37a6474929f336521b332c1681b933f6cb9f3376673440d862a8261030060201b60201c565b506102ef7f82db594318110a04b6349ce48645aa69f0892751bc893d15e61d9e2b9c4630f58261030060201b60201c565b505050505050505050505050610653565b5f61031183836103f660201b60201c565b6103ec57600160025f8581526020019081526020015f205f015f8473ffffffffffffffffffffffffffffffffffffffff1673ffffffffffffffffffffffffffffffffffffffff1681526020019081526020015f205f6101000a81548160ff02191690831515021790555061038961045a60201b60201c565b73ffffffffffffffffffffffffffffffffffffffff168273ffffffffffffffffffffffffffffffffffffffff16847f2f8788117e7eff1d82e926ec794901d17c78024a50270940304540a733656f0d60405160405180910390a4600190506103f0565b5f90505b92915050565b5f60025f8481526020019081526020015f205f015f8373ffffffffffffffffffffffffffffffffffffffff1673ffffffffffffffffffffffffffffffffffffffff1681526020019081526020015f205f9054906101000a900460ff16905092915050565b5f33905090565b5f80fd5b5f73ffffffffffffffffffffffffffffffffffffffff82169050919050565b5f61048e82610465565b9050919050565b61049e81610484565b81146104a8575f80fd5b50565b5f815190506104b981610495565b92915050565b5f819050919050565b6104d1816104bf565b81146104db575f80fd5b50565b5f815190506104ec816104c8565b92915050565b5f67ffffffffffffffff82169050919050565b61050e816104f2565b8114610518575f80fd5b50565b5f8151905061052981610505565b92915050565b5f61ffff82169050919050565b6105458161052f565b811461054f575f80fd5b50565b5f815190506105608161053c565b92915050565b5f805f805f805f805f805f6101608c8e03121561058657610585610461565b5b5f6105938e828f016104ab565b9b505060206105a48e828f016104ab565b9a505060406105b58e828f016104de565b99505060606105c68e828f016104de565b98505060806105d78e828f016104de565b97505060a06105e88e828f0161051b565b96505060c06105f98e828f0161051b565b95505060e061060a8e828f016104de565b94505061010061061c8e828f016104de565b93505061012061062e8e828f01610552565b9250506101406106408e828f016104ab565b9150509295989b509295989b9093969950565b60805160a05160c05160e0516129386106b05f395f8181610f880152611d1201525f8181610b990152818161141901528181611aba0152611d3601525f8181610c950152610dff01525f818161108f0152611d5a01526129385ff3fe60806040526004361061023e575f3560e01c80639b8c1fed1161012d578063d547741f116100aa578063ec8ac4d81161006e578063ec8ac4d8146107ed578063f43e98c714610809578063f49e251414610833578063fb86a4041461085d578063fc0c546a1461088757610245565b8063d547741f14610735578063deaa59df1461075d578063e086e5ec14610785578063e63ab1e91461079b578063eb3b3fe6146107c557610245565b8063b5545a3c116100f1578063b5545a3c14610667578063b7a8807c1461067d578063be68d17a146106a7578063c2b6b58c146106e3578063c4590d3f1461070d57610245565b80639b8c1fed146105a9578063a217fddf146105bf578063a4d19feb146105e9578063aaffadf314610613578063b3f05b971461063d57610245565b80634b6753bc116101bb5780638456cb591161017f5780638456cb59146104c75780638d3d6576146104dd578063906a26e01461050757806391d1485414610531578063995c5e9d1461056d57610245565b80634b6753bc146104095780634bb278f314610433578063518ab2a814610449578063521eb273146104735780635c975abb1461049d57610245565b806336568abe1161020257806336568abe1461033b5780633f4ba83a146103635780634042b66f146103795780634225e5bb146103a357806347535d7b146103df57610245565b806301ffc9a714610249578063248a9ca3146102855780632c4e722e146102c15780632f2ff15d146102eb57806334fcf4371461031357610245565b3661024557005b5f80fd5b348015610254575f80fd5b5061026f600480360381019061026a919061220e565b6108b1565b60405161027c9190612253565b60405180910390f35b348015610290575f80fd5b506102ab60048036038101906102a6919061229f565b61092a565b6040516102b891906122d9565b60405180910390f35b3480156102cc575f80fd5b506102d5610947565b6040516102e2919061230a565b60405180910390f35b3480156102f6575f80fd5b50610311600480360381019061030c919061237d565b61094d565b005b34801561031e575f80fd5b50610339600480360381019061033491906123e5565b61096f565b005b348015610346575f80fd5b50610361600480360381019061035c919061237d565b610a75565b005b34801561036e575f80fd5b50610377610af0565b005b348015610384575f80fd5b5061038d610b25565b60405161039a919061230a565b60405180910390f35b3480156103ae575f80fd5b506103c960048036038101906103c49190612410565b610b2b565b6040516103d6919061230a565b60405180910390f35b3480156103ea575f80fd5b506103f3610b40565b6040516104009190612253565b60405180910390f35b348015610414575f80fd5b5061041d610bd3565b60405161042a919061245d565b60405180910390f35b34801561043e575f80fd5b50610447610bed565b005b348015610454575f80fd5b5061045d610d82565b60405161046a919061230a565b60405180910390f35b34801561047e575f80fd5b50610487610d88565b6040516104949190612485565b60405180910390f35b3480156104a8575f80fd5b506104b1610dad565b6040516104be9190612253565b60405180910390f35b3480156104d2575f80fd5b506104db610dc2565b005b3480156104e8575f80fd5b506104f1610df7565b6040516104fe919061230a565b60405180910390f35b348015610512575f80fd5b5061051b610dfd565b604051610528919061230a565b60405180910390f35b34801561053c575f80fd5b506105576004803603810190610552919061237d565b610e21565b6040516105649190612253565b60405180910390f35b348015610578575f80fd5b50610593600480360381019061058e9190612410565b610e85565b6040516105a0919061230a565b60405180910390f35b3480156105b4575f80fd5b506105bd610e9a565b005b3480156105ca575f80fd5b506105d3611171565b6040516105e091906122d9565b60405180910390f35b3480156105f4575f80fd5b506105fd611177565b60405161060a91906122d9565b60405180910390f35b34801561061e575f80fd5b5061062761119b565b604051610634919061230a565b60405180910390f35b348015610648575f80fd5b506106516111a1565b60405161065e9190612253565b60405180910390f35b348015610672575f80fd5b5061067b6111b3565b005b348015610688575f80fd5b506106916113bf565b60405161069e919061245d565b60405180910390f35b3480156106b2575f80fd5b506106cd60048036038101906106c89190612410565b6113d8565b6040516106da919061230a565b60405180910390f35b3480156106ee575f80fd5b506106f76113ed565b6040516107049190612253565b60405180910390f35b348015610718575f80fd5b50610733600480360381019061072e919061249e565b611443565b005b348015610740575f80fd5b5061075b6004803603810190610756919061237d565b61155f565b005b348015610768575f80fd5b50610783600480360381019061077e9190612410565b611581565b005b348015610790575f80fd5b5061079961170b565b005b3480156107a6575f80fd5b506107af61184a565b6040516107bc91906122d9565b60405180910390f35b3480156107d0575f80fd5b506107eb60048036038101906107e69190612506565b61186e565b005b61080760048036038101906108029190612410565b6119cc565b005b348015610814575f80fd5b5061081d611cfd565b60405161082a9190612253565b60405180910390f35b34801561083e575f80fd5b50610847611d10565b6040516108549190612560565b60405180910390f35b348015610868575f80fd5b50610871611d34565b60405161087e919061230a565b60405180910390f35b348015610892575f80fd5b5061089b611d58565b6040516108a891906125d4565b60405180910390f35b5f7f7965db0b000000000000000000000000000000000000000000000000000000007bffffffffffffffffffffffffffffffffffffffffffffffffffffffff1916827bffffffffffffffffffffffffffffffffffffffffffffffffffffffff19161480610923575061092282611d7c565b5b9050919050565b5f60025f8381526020019081526020015f20600101549050919050565b60045481565b6109568261092a565b61095f81611de5565b6109698383611df9565b50505050565b7f82db594318110a04b6349ce48645aa69f0892751bc893d15e61d9e2b9c4630f561099981611de5565b60055f9054906101000a900467ffffffffffffffff1667ffffffffffffffff1642106109f1576040517f445dce4c00000000000000000000000000000000000000000000000000000000815260040160405180910390fd5b5f8203610a2a576040517fa86b651200000000000000000000000000000000000000000000000000000000815260040160405180910390fd5b5f6004549050826004819055507fb38780ddde1f073d91c150de2696f3f7085883648ba21cc5ef01029cb21d19168184604051610a689291906125ed565b60405180910390a1505050565b610a7d611ee3565b73ffffffffffffffffffffffffffffffffffffffff168173ffffffffffffffffffffffffffffffffffffffff1614610ae1576040517f6697b23200000000000000000000000000000000000000000000000000000000815260040160405180910390fd5b610aeb8282611eea565b505050565b7f65d7a28e3265b37a6474929f336521b332c1681b933f6cb9f3376673440d862a610b1a81611de5565b610b22611fd4565b50565b60085481565b600b602052805f5260405f205f915090505481565b5f60055f9054906101000a900467ffffffffffffffff1667ffffffffffffffff164210158015610b905750600560089054906101000a900467ffffffffffffffff1667ffffffffffffffff164211155b8015610bbd57507f0000000000000000000000000000000000000000000000000000000000000000600854105b8015610bce5750610bcc610dad565b155b905090565b600560089054906101000a900467ffffffffffffffff1681565b610bf5612035565b610bfd6113ed565b610c33576040517f78fa807700000000000000000000000000000000000000000000000000000000815260040160405180910390fd5b600d5f9054906101000a900460ff1615610c79576040517f475a253500000000000000000000000000000000000000000000000000000000815260040160405180910390fd5b6001600d5f6101000a81548160ff0219169083151502179055507f000000000000000000000000000000000000000000000000000000000000000060085410610cf9577f41493253ae80c9f89e25283c36f67849365d0515134ce43de1314223cb6f73426001604051610cec9190612253565b60405180910390a1610d78565b6001600d60016101000a81548160ff0219169083151502179055507f599d8e5a83cffb867d051598c4d70e805d59802d8081c1c7d6dffc5b6aca2b8960405160405180910390a17f41493253ae80c9f89e25283c36f67849365d0515134ce43de1314223cb6f73425f604051610d6f9190612253565b60405180910390a15b610d80612079565b565b60095481565b60035f9054906101000a900473ffffffffffffffffffffffffffffffffffffffff1681565b5f60015f9054906101000a900460ff16905090565b7f65d7a28e3265b37a6474929f336521b332c1681b933f6cb9f3376673440d862a610dec81611de5565b610df4612082565b50565b60075481565b7f000000000000000000000000000000000000000000000000000000000000000081565b5f60025f8481526020019081526020015f205f015f8373ffffffffffffffffffffffffffffffffffffffff1673ffffffffffffffffffffffffffffffffffffffff1681526020019081526020015f205f9054906101000a900460ff16905092915050565b600a602052805f5260405f205f915090505481565b610ea2612035565b610eaa6120e3565b600d5f9054906101000a900460ff161580610ed15750600d60019054906101000a900460ff165b15610f08576040517f2bdc91ad00000000000000000000000000000000000000000000000000000000815260040160405180910390fd5b5f600b5f3373ffffffffffffffffffffffffffffffffffffffff1673ffffffffffffffffffffffffffffffffffffffff1681526020019081526020015f205490505f8103610f82576040517f969bf72800000000000000000000000000000000000000000000000000000000815260040160405180910390fd5b5f6127107f000000000000000000000000000000000000000000000000000000000000000061ffff1683610fb69190612641565b610fc091906126af565b90505f600c5f3373ffffffffffffffffffffffffffffffffffffffff1673ffffffffffffffffffffffffffffffffffffffff1681526020019081526020015f2054905080821161103c576040517f969bf72800000000000000000000000000000000000000000000000000000000815260040160405180910390fd5b5f818361104991906126df565b905082600c5f3373ffffffffffffffffffffffffffffffffffffffff1673ffffffffffffffffffffffffffffffffffffffff1681526020019081526020015f20819055507f000000000000000000000000000000000000000000000000000000000000000073ffffffffffffffffffffffffffffffffffffffff166340c10f1933836040518363ffffffff1660e01b81526004016110e8929190612712565b5f604051808303815f87803b1580156110ff575f80fd5b505af1158015611111573d5f803e3d5ffd5b505050503373ffffffffffffffffffffffffffffffffffffffff167f9d9f91c7e63ecab055ab1ecb358d2e74e46aa0e4c65f9594aa73e56cfb5d0a478260405161115b919061230a565b60405180910390a25050505061116f612079565b565b5f801b81565b7f82db594318110a04b6349ce48645aa69f0892751bc893d15e61d9e2b9c4630f581565b60065481565b600d5f9054906101000a900460ff1681565b6111bb612035565b600d60019054906101000a900460ff16611201576040517f64547e6900000000000000000000000000000000000000000000000000000000815260040160405180910390fd5b5f600a5f3373ffffffffffffffffffffffffffffffffffffffff1673ffffffffffffffffffffffffffffffffffffffff1681526020019081526020015f205490505f810361127b576040517f969bf72800000000000000000000000000000000000000000000000000000000815260040160405180910390fd5b5f600a5f3373ffffffffffffffffffffffffffffffffffffffff1673ffffffffffffffffffffffffffffffffffffffff1681526020019081526020015f20819055505f3373ffffffffffffffffffffffffffffffffffffffff16826040516112e290612766565b5f6040518083038185875af1925050503d805f811461131c576040519150601f19603f3d011682016040523d82523d5f602084013e611321565b606091505b5050905080611365576040517f08c379a000000000000000000000000000000000000000000000000000000000815260040161135c906127d4565b60405180910390fd5b3373ffffffffffffffffffffffffffffffffffffffff167fd7dee2702d63ad89917b6a4da9981c90c4d24f8c2bdfd64c604ecae57d8d0651836040516113ab919061230a565b60405180910390a250506113bd612079565b565b60055f9054906101000a900467ffffffffffffffff1681565b600c602052805f5260405f205f915090505481565b5f600560089054906101000a900467ffffffffffffffff1667ffffffffffffffff1642118061143e57507f000000000000000000000000000000000000000000000000000000000000000060085410155b905090565b7f82db594318110a04b6349ce48645aa69f0892751bc893d15e61d9e2b9c4630f561146d81611de5565b60055f9054906101000a900467ffffffffffffffff1667ffffffffffffffff1642106114c5576040517f445dce4c00000000000000000000000000000000000000000000000000000000815260040160405180910390fd5b5f8314806114d257505f82145b806114dc57508282105b15611513576040517fa86b651200000000000000000000000000000000000000000000000000000000815260040160405180910390fd5b82600681905550816007819055507f4d4981437d0211f9e6843eb024d9ada1fa3a99514d4343d4aece106dd11524bb83836040516115529291906125ed565b60405180910390a1505050565b6115688261092a565b61157181611de5565b61157b8383611eea565b50505050565b7f82db594318110a04b6349ce48645aa69f0892751bc893d15e61d9e2b9c4630f56115ab81611de5565b60055f9054906101000a900467ffffffffffffffff1667ffffffffffffffff164210611603576040517f445dce4c00000000000000000000000000000000000000000000000000000000815260040160405180910390fd5b5f73ffffffffffffffffffffffffffffffffffffffff168273ffffffffffffffffffffffffffffffffffffffff1603611668576040517fd92e233d00000000000000000000000000000000000000000000000000000000815260040160405180910390fd5b5f60035f9054906101000a900473ffffffffffffffffffffffffffffffffffffffff1690508260035f6101000a81548173ffffffffffffffffffffffffffffffffffffffff021916908373ffffffffffffffffffffffffffffffffffffffff1602179055507f0f37c6733428a3a65d46b7f1853a5ce4bfa3cf92d25322507a50bf23a0b5a0a881846040516116fe9291906127f2565b60405180910390a1505050565b611713612035565b600d5f9054906101000a900460ff16158061173a5750600d60019054906101000a900460ff165b15611771576040517f2bdc91ad00000000000000000000000000000000000000000000000000000000815260040160405180910390fd5b5f4790505f60035f9054906101000a900473ffffffffffffffffffffffffffffffffffffffff1673ffffffffffffffffffffffffffffffffffffffff16826040516117bb90612766565b5f6040518083038185875af1925050503d805f81146117f5576040519150601f19603f3d011682016040523d82523d5f602084013e6117fa565b606091505b505090508061183e576040517f08c379a000000000000000000000000000000000000000000000000000000000815260040161183590612863565b60405180910390fd5b5050611848612079565b565b7f65d7a28e3265b37a6474929f336521b332c1681b933f6cb9f3376673440d862a81565b7f82db594318110a04b6349ce48645aa69f0892751bc893d15e61d9e2b9c4630f561189881611de5565b60055f9054906101000a900467ffffffffffffffff1667ffffffffffffffff1642106118f0576040517f445dce4c00000000000000000000000000000000000000000000000000000000815260040160405180910390fd5b8167ffffffffffffffff168367ffffffffffffffff161061193d576040517fa86b651200000000000000000000000000000000000000000000000000000000815260040160405180910390fd5b8260055f6101000a81548167ffffffffffffffff021916908367ffffffffffffffff16021790555081600560086101000a81548167ffffffffffffffff021916908367ffffffffffffffff1602179055507f114f2c213e3ab7c4e4e09d28a2efed89fe0c35a82be187299e8bb20e1b75576883836040516119bf929190612881565b60405180910390a1505050565b6119d4612035565b6119dc6120e3565b6119e4610b40565b611a1a576040517f445dce4c00000000000000000000000000000000000000000000000000000000815260040160405180910390fd5b5f73ffffffffffffffffffffffffffffffffffffffff168173ffffffffffffffffffffffffffffffffffffffff1603611a7f576040517fd92e233d00000000000000000000000000000000000000000000000000000000815260040160405180910390fd5b5f3403611ab8576040517f8d8f5cdc00000000000000000000000000000000000000000000000000000000815260040160405180910390fd5b7f000000000000000000000000000000000000000000000000000000000000000034600854611ae791906128a8565b1115611b1f576040517fa4875a4900000000000000000000000000000000000000000000000000000000815260040160405180910390fd5b5f34600a5f3373ffffffffffffffffffffffffffffffffffffffff1673ffffffffffffffffffffffffffffffffffffffff1681526020019081526020015f2054611b6991906128a8565b9050600654811080611b7c575060075481115b15611bb3576040517f8d8f5cdc00000000000000000000000000000000000000000000000000000000815260040160405180910390fd5b5f60045434611bc29190612641565b90503460085f828254611bd591906128a8565b925050819055508060095f828254611bed91906128a8565b9250508190555081600a5f3373ffffffffffffffffffffffffffffffffffffffff1673ffffffffffffffffffffffffffffffffffffffff1681526020019081526020015f208190555080600b5f8573ffffffffffffffffffffffffffffffffffffffff1673ffffffffffffffffffffffffffffffffffffffff1681526020019081526020015f205f828254611c8291906128a8565b925050819055508273ffffffffffffffffffffffffffffffffffffffff163373ffffffffffffffffffffffffffffffffffffffff167f6faf93231a456e552dbc9961f58d9713ee4f2e69d15f1975b050ef0911053a7b3484604051611ce89291906125ed565b60405180910390a35050611cfa612079565b50565b600d60019054906101000a900460ff1681565b7f000000000000000000000000000000000000000000000000000000000000000081565b7f000000000000000000000000000000000000000000000000000000000000000081565b7f000000000000000000000000000000000000000000000000000000000000000081565b5f7f01ffc9a7000000000000000000000000000000000000000000000000000000007bffffffffffffffffffffffffffffffffffffffffffffffffffffffff1916827bffffffffffffffffffffffffffffffffffffffffffffffffffffffff1916149050919050565b611df681611df1611ee3565b612124565b50565b5f611e048383610e21565b611ed957600160025f8581526020019081526020015f205f015f8473ffffffffffffffffffffffffffffffffffffffff1673ffffffffffffffffffffffffffffffffffffffff1681526020019081526020015f205f6101000a81548160ff021916908315150217905550611e76611ee3565b73ffffffffffffffffffffffffffffffffffffffff168273ffffffffffffffffffffffffffffffffffffffff16847f2f8788117e7eff1d82e926ec794901d17c78024a50270940304540a733656f0d60405160405180910390a460019050611edd565b5f90505b92915050565b5f33905090565b5f611ef58383610e21565b15611fca575f60025f8581526020019081526020015f205f015f8473ffffffffffffffffffffffffffffffffffffffff1673ffffffffffffffffffffffffffffffffffffffff1681526020019081526020015f205f6101000a81548160ff021916908315150217905550611f67611ee3565b73ffffffffffffffffffffffffffffffffffffffff168273ffffffffffffffffffffffffffffffffffffffff16847ff6391f5c32d9c69d2a47ea670b442974b53935d1edc7fd64eb21e047a839171b60405160405180910390a460019050611fce565b5f90505b92915050565b611fdc612175565b5f60015f6101000a81548160ff0219169083151502179055507f5db9ee0a495bf2e6ff9c91a7834c1ba4fdd244a5e8aa4e537bd38aeae4b073aa61201e611ee3565b60405161202b9190612485565b60405180910390a1565b60025f5403612070576040517f3ee5aeb500000000000000000000000000000000000000000000000000000000815260040160405180910390fd5b60025f81905550565b60015f81905550565b61208a6120e3565b6001805f6101000a81548160ff0219169083151502179055507f62e78cea01bee320cd4e420270b5ea74000d11b0c9f74754ebdbfc544b05a2586120cc611ee3565b6040516120d99190612485565b60405180910390a1565b6120eb610dad565b15612122576040517fd93c066500000000000000000000000000000000000000000000000000000000815260040160405180910390fd5b565b61212e8282610e21565b6121715780826040517fe2517d3f0000000000000000000000000000000000000000000000000000000081526004016121689291906128db565b60405180910390fd5b5050565b61217d610dad565b6121b3576040517f8dfc202b00000000000000000000000000000000000000000000000000000000815260040160405180910390fd5b565b5f80fd5b5f7fffffffff0000000000000000000000000000000000000000000000000000000082169050919050565b6121ed816121b9565b81146121f7575f80fd5b50565b5f81359050612208816121e4565b92915050565b5f60208284031215612223576122226121b5565b5b5f612230848285016121fa565b91505092915050565b5f8115159050919050565b61224d81612239565b82525050565b5f6020820190506122665f830184612244565b92915050565b5f819050919050565b61227e8161226c565b8114612288575f80fd5b50565b5f8135905061229981612275565b92915050565b5f602082840312156122b4576122b36121b5565b5b5f6122c18482850161228b565b91505092915050565b6122d38161226c565b82525050565b5f6020820190506122ec5f8301846122ca565b92915050565b5f819050919050565b612304816122f2565b82525050565b5f60208201905061231d5f8301846122fb565b92915050565b5f73ffffffffffffffffffffffffffffffffffffffff82169050919050565b5f61234c82612323565b9050919050565b61235c81612342565b8114612366575f80fd5b50565b5f8135905061237781612353565b92915050565b5f8060408385031215612393576123926121b5565b5b5f6123a08582860161228b565b92505060206123b185828601612369565b9150509250929050565b6123c4816122f2565b81146123ce575f80fd5b50565b5f813590506123df816123bb565b92915050565b5f602082840312156123fa576123f96121b5565b5b5f612407848285016123d1565b91505092915050565b5f60208284031215612425576124246121b5565b5b5f61243284828501612369565b91505092915050565b5f67ffffffffffffffff82169050919050565b6124578161243b565b82525050565b5f6020820190506124705f83018461244e565b92915050565b61247f81612342565b82525050565b5f6020820190506124985f830184612476565b92915050565b5f80604083850312156124b4576124b36121b5565b5b5f6124c1858286016123d1565b92505060206124d2858286016123d1565b9150509250929050565b6124e58161243b565b81146124ef575f80fd5b50565b5f81359050612500816124dc565b92915050565b5f806040838503121561251c5761251b6121b5565b5b5f612529858286016124f2565b925050602061253a858286016124f2565b9150509250929050565b5f61ffff82169050919050565b61255a81612544565b82525050565b5f6020820190506125735f830184612551565b92915050565b5f819050919050565b5f61259c61259761259284612323565b612579565b612323565b9050919050565b5f6125ad82612582565b9050919050565b5f6125be826125a3565b9050919050565b6125ce816125b4565b82525050565b5f6020820190506125e75f8301846125c5565b92915050565b5f6040820190506126005f8301856122fb565b61260d60208301846122fb565b9392505050565b7f4e487b71000000000000000000000000000000000000000000000000000000005f52601160045260245ffd5b5f61264b826122f2565b9150612656836122f2565b9250828202612664816122f2565b9150828204841483151761267b5761267a612614565b5b5092915050565b7f4e487b71000000000000000000000000000000000000000000000000000000005f52601260045260245ffd5b5f6126b9826122f2565b91506126c4836122f2565b9250826126d4576126d3612682565b5b828204905092915050565b5f6126e9826122f2565b91506126f4836122f2565b925082820390508181111561270c5761270b612614565b5b92915050565b5f6040820190506127255f830185612476565b61273260208301846122fb565b9392505050565b5f81905092915050565b50565b5f6127515f83612739565b915061275c82612743565b5f82019050919050565b5f61277082612746565b9150819050919050565b5f82825260208201905092915050565b7f526566756e64207472616e73666572206661696c6564000000000000000000005f82015250565b5f6127be60168361277a565b91506127c98261278a565b602082019050919050565b5f6020820190508181035f8301526127eb816127b2565b9050919050565b5f6040820190506128055f830185612476565b6128126020830184612476565b9392505050565b7f5769746864726177206661696c656400000000000000000000000000000000005f82015250565b5f61284d600f8361277a565b915061285882612819565b602082019050919050565b5f6020820190508181035f83015261287a81612841565b9050919050565b5f6040820190506128945f83018561244e565b6128a1602083018461244e565b9392505050565b5f6128b2826122f2565b91506128bd836122f2565b92508282019050808211156128d5576128d4612614565b5b92915050565b5f6040820190506128ee5f830185612476565b6128fb60208301846122ca565b939250505056fea2646970667358221220fea7cf49223413867b3550a9a7904a00d0313234fc3153c727174863e1745af064736f6c634300081a0033",
			"opcodes": "PUSH2 0x100 PUSH1 0x40 MSTORE CALLVALUE DUP1 ISZERO PUSH2 0x10 JUMPI PUSH0 DUP1 REVERT JUMPDEST POP PUSH1 0x40 MLOAD PUSH2 0x2FE8 CODESIZE SUB DUP1 PUSH2 0x2FE8 DUP4 CODECOPY DUP2 DUP2 ADD PUSH1 0x40 MSTORE DUP2 ADD SWAP1 PUSH2 0x32 SWAP2 SWAP1 PUSH2 0x566 JUMP JUMPDEST PUSH1 0x1 PUSH0 DUP2 SWAP1 SSTORE POP PUSH0 PUSH20 0xFFFFFFFFFFFFFFFFFFFFFFFFFFFFFFFFFFFFFFFF AND DUP12 PUSH20 0xFFFFFFFFFFFFFFFFFFFFFFFFFFFFFFFFFFFFFFFF AND EQ DUP1 PUSH2 0x9E JUMPI POP PUSH0 PUSH20 0xFFFFFFFFFFFFFFFFFFFFFFFFFFFFFFFFFFFFFFFF AND DUP11 PUSH20 0xFFFFFFFFFFFFFFFFFFFFFFFFFFFFFFFFFFFFFFFF AND EQ JUMPDEST DUP1 PUSH2 0xD4 JUMPI POP PUSH0 PUSH20 0xFFFFFFFFFFFFFFFFFFFFFFFFFFFFFFFFFFFFFFFF AND DUP2 PUSH20 0xFFFFFFFFFFFFFFFFFFFFFFFFFFFFFFFFFFFFFFFF AND EQ JUMPDEST DUP1 PUSH2 0xDE JUMPI POP PUSH0 DUP10 EQ JUMPDEST DUP1 PUSH2 0xE8 JUMPI POP PUSH0 DUP9 EQ JUMPDEST DUP1 PUSH2 0xF2 JUMPI POP PUSH0 DUP8 EQ JUMPDEST DUP1 PUSH2 0xFD JUMPI POP DUP8 DUP8 GT ISZERO JUMPDEST DUP1 PUSH2 0x11C JUMPI POP DUP5 PUSH8 0xFFFFFFFFFFFFFFFF AND DUP7 PUSH8 0xFFFFFFFFFFFFFFFF AND LT ISZERO JUMPDEST DUP1 PUSH2 0x126 JUMPI POP PUSH0 DUP5 EQ JUMPDEST DUP1 PUSH2 0x130 JUMPI POP PUSH0 DUP4 EQ JUMPDEST DUP1 PUSH2 0x13A JUMPI POP DUP4 DUP4 LT JUMPDEST DUP1 PUSH2 0x14A JUMPI POP PUSH2 0x2710 DUP3 PUSH2 0xFFFF AND GT JUMPDEST ISZERO PUSH2 0x181 JUMPI PUSH1 0x40 MLOAD PUSH32 0xA86B651200000000000000000000000000000000000000000000000000000000 DUP2 MSTORE PUSH1 0x4 ADD PUSH1 0x40 MLOAD DUP1 SWAP2 SUB SWAP1 REVERT JUMPDEST DUP11 PUSH20 0xFFFFFFFFFFFFFFFFFFFFFFFFFFFFFFFFFFFFFFFF AND PUSH1 0x80 DUP2 PUSH20 0xFFFFFFFFFFFFFFFFFFFFFFFFFFFFFFFFFFFFFFFF AND DUP2 MSTORE POP POP DUP10 PUSH1 0x3 PUSH0 PUSH2 0x100 EXP DUP2 SLOAD DUP2 PUSH20 0xFFFFFFFFFFFFFFFFFFFFFFFFFFFFFFFFFFFFFFFF MUL NOT AND SWAP1 DUP4 PUSH20 0xFFFFFFFFFFFFFFFFFFFFFFFFFFFFFFFFFFFFFFFF AND MUL OR SWAP1 SSTORE POP DUP9 PUSH1 0x4 DUP2 SWAP1 SSTORE POP DUP8 PUSH1 0xA0 DUP2 DUP2 MSTORE POP POP DUP7 PUSH1 0xC0 DUP2 DUP2 MSTORE POP POP DUP6 PUSH1 0x5 PUSH0 PUSH2 0x100 EXP DUP2 SLOAD DUP2 PUSH8 0xFFFFFFFFFFFFFFFF MUL NOT AND SWAP1 DUP4 PUSH8 0xFFFFFFFFFFFFFFFF AND MUL OR SWAP1 SSTORE POP DUP5 PUSH1 0x5 PUSH1 0x8 PUSH2 0x100 EXP DUP2 SLOAD DUP2 PUSH8 0xFFFFFFFFFFFFFFFF MUL NOT AND SWAP1 DUP4 PUSH8 0xFFFFFFFFFFFFFFFF AND MUL OR SWAP1 SSTORE POP DUP4 PUSH1 0x6 DUP2 SWAP1 SSTORE POP DUP3 PUSH1 0x7 DUP2 SWAP1 SSTORE POP DUP2 PUSH2 0xFFFF AND PUSH1 0xE0 DUP2 PUSH2 0xFFFF AND DUP2 MSTORE POP POP PUSH2 0x28D PUSH0 DUP1 SHL DUP3 PUSH2 0x300 PUSH1 0x20 SHL PUSH1 0x20 SHR JUMP JUMPDEST POP PUSH2 0x2BE PUSH32 0x65D7A28E3265B37A6474929F336521B332C1681B933F6CB9F3376673440D862A DUP3 PUSH2 0x300 PUSH1 0x20 SHL PUSH1 0x20 SHR JUMP JUMPDEST POP PUSH2 0x2EF PUSH32 0x82DB594318110A04B6349CE48645AA69F0892751BC893D15E61D9E2B9C4630F5 DUP3 PUSH2 0x300 PUSH1 0x20 SHL PUSH1 0x20 SHR JUMP JUMPDEST POP POP POP POP POP POP POP POP POP POP POP POP PUSH2 0x653 JUMP JUMPDEST PUSH0 PUSH2 0x311 DUP4 DUP4 PUSH2 0x3F6 PUSH1 0x20 SHL PUSH1 0x20 SHR JUMP JUMPDEST PUSH2 0x3EC JUMPI PUSH1 0x1 PUSH1 0x2 PUSH0 DUP6 DUP2 MSTORE PUSH1 0x20 ADD SWAP1 DUP2 MSTORE PUSH1 0x20 ADD PUSH0 KECCAK256 PUSH0 ADD PUSH0 DUP5 PUSH20 0xFFFFFFFFFFFFFFFFFFFFFFFFFFFFFFFFFFFFFFFF AND PUSH20 0xFFFFFFFFFFFFFFFFFFFFFFFFFFFFFFFFFFFFFFFF AND DUP2 MSTORE PUSH1 0x20 ADD SWAP1 DUP2 MSTORE PUSH1 0x20 ADD PUSH0 KECCAK256 PUSH0 PUSH2 0x100 EXP DUP2 SLOAD DUP2 PUSH1 0xFF MUL NOT AND SWAP1 DUP4 ISZERO ISZERO MUL OR SWAP1 SSTORE POP PUSH2 0x389 PUSH2 0x45A PUSH1 0x20 SHL PUSH1 0x20 SHR JUMP JUMPDEST PUSH20 0xFFFFFFFFFFFFFFFFFFFFFFFFFFFFFFFFFFFFFFFF AND DUP3 PUSH20 0xFFFFFFFFFFFFFFFFFFFFFFFFFFFFFFFFFFFFFFFF AND DUP5 PUSH32 0x2F8788117E7EFF1D82E926EC794901D17C78024A50270940304540A733656F0D PUSH1 0x40 MLOAD PUSH1 0x40 MLOAD DUP1 SWAP2 SUB SWAP1 LOG4 PUSH1 0x1 SWAP1 POP PUSH2 0x3F0 JUMP JUMPDEST PUSH0 SWAP1 POP JUMPDEST SWAP3 SWAP2 POP POP JUMP JUMPDEST PUSH0 PUSH1 0x2 PUSH0 DUP5 DUP2 MSTORE PUSH1 0x20 ADD SWAP1 DUP2 MSTORE PUSH1 0x20 ADD PUSH0 KECCAK256 PUSH0 ADD PUSH0 DUP4 PUSH20 0xFFFFFFFFFFFFFFFFFFFFFFFFFFFFFFFFFFFFFFFF AND PUSH20 0xFFFFFFFFFFFFFFFFFFFFFFFFFFFFFFFFFFFFFFFF AND DUP2 MSTORE PUSH1 0x20 ADD SWAP1 DUP2 MSTORE PUSH1 0x20 ADD PUSH0 KECCAK256 PUSH0 SWAP1 SLOAD SWAP1 PUSH2 0x100 EXP SWAP1 DIV PUSH1 0xFF AND SWAP1 POP SWAP3 SWAP2 POP POP JUMP JUMPDEST PUSH0 CALLER SWAP1 POP SWAP1 JUMP JUMPDEST PUSH0 DUP1 REVERT JUMPDEST PUSH0 PUSH20 0xFFFFFFFFFFFFFFFFFFFFFFFFFFFFFFFFFFFFFFFF DUP3 AND SWAP1 POP SWAP2 SWAP1 POP JUMP JUMPDEST PUSH0 PUSH2 0x48E DUP3 PUSH2 0x465 JUMP JUMPDEST SWAP1 POP SWAP2 SWAP1 POP JUMP JUMPDEST PUSH2 0x49E DUP2 PUSH2 0x484 JUMP JUMPDEST DUP2 EQ PUSH2 0x4A8 JUMPI PUSH0 DUP1 REVERT JUMPDEST POP JUMP JUMPDEST PUSH0 DUP2 MLOAD SWAP1 POP PUSH2 0x4B9 DUP2 PUSH2 0x495 JUMP JUMPDEST SWAP3 SWAP2 POP POP JUMP JUMPDEST PUSH0 DUP2 SWAP1 POP SWAP2 SWAP1 POP JUMP JUMPDEST PUSH2 0x4D1 DUP2 PUSH2 0x4BF JUMP JUMPDEST DUP2 EQ PUSH2 0x4DB JUMPI PUSH0 DUP1 REVERT JUMPDEST POP JUMP JUMPDEST PUSH0 DUP2 MLOAD SWAP1 POP PUSH2 0x4EC DUP2 PUSH2 0x4C8 JUMP JUMPDEST SWAP3 SWAP2 POP POP JUMP JUMPDEST PUSH0 PUSH8 0xFFFFFFFFFFFFFFFF DUP3 AND SWAP1 POP SWAP2 SWAP1 POP JUMP JUMPDEST PUSH2 0x50E DUP2 PUSH2 0x4F2 JUMP JUMPDEST DUP2 EQ PUSH2 0x518 JUMPI PUSH0 DUP1 REVERT JUMPDEST POP JUMP JUMPDEST PUSH0 DUP2 MLOAD SWAP1 POP PUSH2 0x529 DUP2 PUSH2 0x505 JUMP JUMPDEST SWAP3 SWAP2 POP POP JUMP JUMPDEST PUSH0 PUSH2 0xFFFF DUP3 AND SWAP1 POP SWAP2 SWAP1 POP JUMP JUMPDEST PUSH2 0x545 DUP2 PUSH2 0x52F JUMP JUMPDEST DUP2 EQ PUSH2 0x54F JUMPI PUSH0 DUP1 REVERT JUMPDEST POP JUMP JUMPDEST PUSH0 DUP2 MLOAD SWAP1 POP PUSH2 0x560 DUP2 PUSH2 0x53C JUMP JUMPDEST SWAP3 SWAP2 POP POP JUMP JUMPDEST PUSH0 DUP1 PUSH0 DUP1 PUSH0 DUP1 PUSH0 DUP1 PUSH0 DUP1 PUSH0 PUSH2 0x160 DUP13 DUP15 SUB SLT ISZERO PUSH2 0x586 JUMPI PUSH2 0x585 PUSH2 0x461 JUMP JUMPDEST JUMPDEST PUSH0 PUSH2 0x593 DUP15 DUP3 DUP16 ADD PUSH2 0x4AB JUMP JUMPDEST SWAP12 POP POP PUSH1 0x20 PUSH2 0x5A4 DUP15 DUP3 DUP16 ADD PUSH2 0x4AB JUMP JUMPDEST SWAP11 POP POP PUSH1 0x40 PUSH2 0x5B5 DUP15 DUP3 DUP16 ADD PUSH2 0x4DE JUMP JUMPDEST SWAP10 POP POP PUSH1 0x60 PUSH2 0x5C6 DUP15 DUP3 DUP16 ADD PUSH2 0x4DE JUMP JUMPDEST SWAP9 POP POP PUSH1 0x80 PUSH2 0x5D7 DUP15 DUP3 DUP16 ADD PUSH2 0x4DE JUMP JUMPDEST SWAP8 POP POP PUSH1 0xA0 PUSH2 0x5E8 DUP15 DUP3 DUP16 ADD PUSH2 0x51B JUMP JUMPDEST SWAP7 POP POP PUSH1 0xC0 PUSH2 0x5F9 DUP15 DUP3 DUP16 ADD PUSH2 0x51B JUMP JUMPDEST SWAP6 POP POP PUSH1 0xE0 PUSH2 0x60A DUP15 DUP3 DUP16 ADD PUSH2 0x4DE JUMP JUMPDEST SWAP5 POP POP PUSH2 0x100 PUSH2 0x61C DUP15 DUP3 DUP16 ADD PUSH2 0x4DE JUMP JUMPDEST SWAP4 POP POP PUSH2 0x120 PUSH2 0x62E DUP15 DUP3 DUP16 ADD PUSH2 0x552 JUMP JUMPDEST SWAP3 POP POP PUSH2 0x140 PUSH2 0x640 DUP15 DUP3 DUP16 ADD PUSH2 0x4AB JUMP JUMPDEST SWAP2 POP POP SWAP3 SWAP6 SWAP9 SWAP12 POP SWAP3 SWAP6 SWAP9 SWAP12 SWAP1 SWAP4 SWAP7 SWAP10 POP JUMP JUMPDEST PUSH1 0x80 MLOAD PUSH1 0xA0 MLOAD PUSH1 0xC0 MLOAD PUSH1 0xE0 MLOAD PUSH2 0x2938 PUSH2 0x6B0 PUSH0 CODECOPY PUSH0 DUP2 DUP2 PUSH2 0xF88 ADD MSTORE PUSH2 0x1D12 ADD MSTORE PUSH0 DUP2 DUP2 PUSH2 0xB99 ADD MSTORE DUP2 DUP2 PUSH2 0x1419 ADD MSTORE DUP2 DUP2 PUSH2 0x1ABA ADD MSTORE PUSH2 0x1D36 ADD MSTORE PUSH0 DUP2 DUP2 PUSH2 0xC95 ADD MSTORE PUSH2 0xDFF ADD MSTORE PUSH0 DUP2 DUP2 PUSH2 0x108F ADD MSTORE PUSH2 0x1D5A ADD MSTORE PUSH2 0x2938 PUSH0 RETURN INVALID PUSH1 0x80 PUSH1 0x40 MSTORE PUSH1 0x4 CALLDATASIZE LT PUSH2 0x23E JUMPI PUSH0 CALLDATALOAD PUSH1 0xE0 SHR DUP1 PUSH4 0x9B8C1FED GT PUSH2 0x12D JUMPI DUP1 PUSH4 0xD547741F GT PUSH2 0xAA JUMPI DUP1 PUSH4 0xEC8AC4D8 GT PUSH2 0x6E JUMPI DUP1 PUSH4 0xEC8AC4D8 EQ PUSH2 0x7ED JUMPI DUP1 PUSH4 0xF43E98C7 EQ PUSH2 0x809 JUMPI DUP1 PUSH4 0xF49E2514 EQ PUSH2 0x833 JUMPI DUP1 PUSH4 0xFB86A404 EQ PUSH2 0x85D JUMPI DUP1 PUSH4 0xFC0C546A EQ PUSH2 0x887 JUMPI PUSH2 0x245 JUMP JUMPDEST DUP1 PUSH4 0xD547741F EQ PUSH2 0x735 JUMPI DUP1 PUSH4 0xDEAA59DF EQ PUSH2 0x75D JUMPI DUP1 PUSH4 0xE086E5EC EQ PUSH2 0x785 JUMPI DUP1 PUSH4 0xE63AB1E9 EQ PUSH2 0x79B JUMPI DUP1 PUSH4 0xEB3B3FE6 EQ PUSH2 0x7C5 JUMPI PUSH2 0x245 JUMP JUMPDEST DUP1 PUSH4 0xB5545A3C GT PUSH2 0xF1 JUMPI DUP1 PUSH4 0xB5545A3C EQ PUSH2 0x667 JUMPI DUP1 PUSH4 0xB7A8807C EQ PUSH2 0x67D JUMPI DUP1 PUSH4 0xBE68D17A EQ PUSH2 0x6A7 JUMPI DUP1 PUSH4 0xC2B6B58C EQ PUSH2 0x6E3 JUMPI DUP1 PUSH4 0xC4590D3F EQ PUSH2 0x70D JUMPI PUSH2 0x245 JUMP JUMPDEST DUP1 PUSH4 0x9B8C1FED EQ PUSH2 0x5A9 JUMPI DUP1 PUSH4 0xA217FDDF EQ PUSH2 0x5BF JUMPI DUP1 PUSH4 0xA4D19FEB EQ PUSH2 0x5E9 JUMPI DUP1 PUSH4 0xAAFFADF3 EQ PUSH2 0x613 JUMPI DUP1 PUSH4 0xB3F05B97 EQ PUSH2 0x63D JUMPI PUSH2 0x245 JUMP JUMPDEST DUP1 PUSH4 0x4B6753BC GT PUSH2 0x1BB JUMPI DUP1 PUSH4 0x8456CB59 GT PUSH2 0x17F JUMPI DUP1 PUSH4 0x8456CB59 EQ PUSH2 0x4C7 JUMPI DUP1 PUSH4 0x8D3D6576 EQ PUSH2 0x4DD JUMPI DUP1 PUSH4 0x906A26E0 EQ PUSH2 0x507 JUMPI DUP1 PUSH4 0x91D14854 EQ PUSH2 0x531 JUMPI DUP1 PUSH4 0x995C5E9D EQ PUSH2 0x56D JUMPI PUSH2 0x245 JUMP JUMPDEST DUP1 PUSH4 0x4B6753BC EQ PUSH2 0x409 JUMPI DUP1 PUSH4 0x4BB278F3 EQ PUSH2 0x433 JUMPI DUP1 PUSH4 0x518AB2A8 EQ PUSH2 0x449 JUMPI DUP1 PUSH4 0x521EB273 EQ PUSH2 0x473 JUMPI DUP1 PUSH4 0x5C975ABB EQ PUSH2 0x49D JUMPI PUSH2 0x245 JUMP JUMPDEST DUP1 PUSH4 0x36568ABE GT PUSH2 0x202 JUMPI DUP1 PUSH4 0x36568ABE EQ PUSH2 0x33B JUMPI DUP1 PUSH4 0x3F4BA83A EQ PUSH2 0x363 JUMPI DUP1 PUSH4 0x4042B66F EQ PUSH2 0x379 JUMPI DUP1 PUSH4 0x4225E5BB EQ PUSH2 0x3A3 JUMPI DUP1 PUSH4 0x47535D7B EQ PUSH2 0x3DF JUMPI PUSH2 0x245 JUMP JUMPDEST DUP1 PUSH4 0x1FFC9A7 EQ PUSH2 0x249 JUMPI DUP1 PUSH4 0x248A9CA3 EQ PUSH2 0x285 JUMPI DUP1 PUSH4 0x2C4E722E EQ PUSH2 0x2C1 JUMPI DUP1 PUSH4 0x2F2FF15D EQ PUSH2 0x2EB JUMPI DUP1 PUSH4 0x34FCF437 EQ PUSH2 0x313 JUMPI PUSH2 0x245 JUMP JUMPDEST CALLDATASIZE PUSH2 0x245 JUMPI STOP JUMPDEST PUSH0 DUP1 REVERT JUMPDEST CALLVALUE DUP1 ISZERO PUSH2 0x254 JUMPI PUSH0 DUP1 REVERT JUMPDEST POP PUSH2 0x26F PUSH1 0x4 DUP1 CALLDATASIZE SUB DUP2 ADD SWAP1 PUSH2 0x26A SWAP2 SWAP1 PUSH2 0x220E JUMP JUMPDEST PUSH2 0x8B1 JUMP JUMPDEST PUSH1 0x40 MLOAD PUSH2 0x27C SWAP2 SWAP1 PUSH2 0x2253 JUMP JUMPDEST PUSH1 0x40 MLOAD DUP1 SWAP2 SUB SWAP1 RETURN JUMPDEST CALLVALUE DUP1 ISZERO PUSH2 0x290 JUMPI PUSH0 DUP1 REVERT JUMPDEST POP PUSH2 0x2AB PUSH1 0x4 DUP1 CALLDATASIZE SUB DUP2 ADD SWAP1 PUSH2 0x2A6 SWAP2 SWAP1 PUSH2 0x229F JUMP JUMPDEST PUSH2 0x92A JUMP JUMPDEST PUSH1 0x40 MLOAD PUSH2 0x2B8 SWAP2 SWAP1 PUSH2 0x22D9 JUMP JUMPDEST PUSH1 0x40 MLOAD DUP1 SWAP2 SUB SWAP1 RETURN JUMPDEST CALLVALUE DUP1 ISZERO PUSH2 0x2CC JUMPI PUSH0 DUP1 REVERT JUMPDEST POP PUSH2 0x2D5 PUSH2 0x947 JUMP JUMPDEST PUSH1 0x40 MLOAD PUSH2 0x2E2 SWAP2 SWAP1 PUSH2 0x230A JUMP JUMPDEST PUSH1 0x40 MLOAD DUP1 SWAP2 SUB SWAP1 RETURN JUMPDEST CALLVALUE DUP1 ISZERO PUSH2 0x2F6 JUMPI PUSH0 DUP1 REVERT JUMPDEST POP PUSH2 0x311 PUSH1 0x4 DUP1 CALLDATASIZE SUB DUP2 ADD SWAP1 PUSH2 0x30C SWAP2 SWAP1 PUSH2 0x237D JUMP JUMPDEST PUSH2 0x94D JUMP JUMPDEST STOP JUMPDEST CALLVALUE DUP1 ISZERO PUSH2 0x31E JUMPI PUSH0 DUP1 REVERT JUMPDEST POP PUSH2 0x339 PUSH1 0x4 DUP1 CALLDATASIZE SUB DUP2 ADD SWAP1 PUSH2 0x334 SWAP2 SWAP1 PUSH2 0x23E5 JUMP JUMPDEST PUSH2 0x96F JUMP JUMPDEST STOP JUMPDEST CALLVALUE DUP1 ISZERO PUSH2 0x346 JUMPI PUSH0 DUP1 REVERT JUMPDEST POP PUSH2 0x361 PUSH1 0x4 DUP1 CALLDATASIZE SUB DUP2 ADD SWAP1 PUSH2 0x35C SWAP2 SWAP1 PUSH2 0x237D JUMP JUMPDEST PUSH2 0xA75 JUMP JUMPDEST STOP JUMPDEST CALLVALUE DUP1 ISZERO PUSH2 0x36E JUMPI PUSH0 DUP1 REVERT JUMPDEST POP PUSH2 0x377 PUSH2 0xAF0 JUMP JUMPDEST STOP JUMPDEST CALLVALUE DUP1 ISZERO PUSH2 0x384 JUMPI PUSH0 DUP1 REVERT JUMPDEST POP PUSH2 0x38D PUSH2 0xB25 JUMP JUMPDEST PUSH1 0x40 MLOAD PUSH2 0x39A SWAP2 SWAP1 PUSH2 0x230A JUMP JUMPDEST PUSH1 0x40 MLOAD DUP1 SWAP2 SUB SWAP1 RETURN JUMPDEST CALLVALUE DUP1 ISZERO PUSH2 0x3AE JUMPI PUSH0 DUP1 REVERT JUMPDEST POP PUSH2 0x3C9 PUSH1 0x4 DUP1 CALLDATASIZE SUB DUP2 ADD SWAP1 PUSH2 0x3C4 SWAP2 SWAP1 PUSH2 0x2410 JUMP JUMPDEST PUSH2 0xB2B JUMP JUMPDEST PUSH1 0x40 MLOAD PUSH2 0x3D6 SWAP2 SWAP1 PUSH2 0x230A JUMP JUMPDEST PUSH1 0x40 MLOAD DUP1 SWAP2 SUB SWAP1 RETURN JUMPDEST CALLVALUE DUP1 ISZERO PUSH2 0x3EA JUMPI PUSH0 DUP1 REVERT JUMPDEST POP PUSH2 0x3F3 PUSH2 0xB40 JUMP JUMPDEST PUSH1 0x40 MLOAD PUSH2 0x400 SWAP2 SWAP1 PUSH2 0x2253 JUMP JUMPDEST PUSH1 0x40 MLOAD DUP1 SWAP2 SUB SWAP1 RETURN JUMPDEST CALLVALUE DUP1 ISZERO PUSH2 0x414 JUMPI PUSH0 DUP1 REVERT JUMPDEST POP PUSH2 0x41D PUSH2 0xBD3 JUMP JUMPDEST PUSH1 0x40 MLOAD PUSH2 0x42A SWAP2 SWAP1 PUSH2 0x245D JUMP JUMPDEST PUSH1 0x40 MLOAD DUP1 SWAP2 SUB SWAP1 RETURN JUMPDEST CALLVALUE DUP1 ISZERO PUSH2 0x43E JUMPI PUSH0 DUP1 REVERT JUMPDEST POP PUSH2 0x447 PUSH2 0xBED JUMP JUMPDEST STOP JUMPDEST CALLVALUE DUP1 ISZERO PUSH2 0x454 JUMPI PUSH0 DUP1 REVERT JUMPDEST POP PUSH2 0x45D PUSH2 0xD82 JUMP JUMPDEST PUSH1 0x40 MLOAD PUSH2 0x46A SWAP2 SWAP1 PUSH2 0x230A JUMP JUMPDEST PUSH1 0x40 MLOAD DUP1 SWAP2 SUB SWAP1 RETURN JUMPDEST CALLVALUE DUP1 ISZERO PUSH2 0x47E JUMPI PUSH0 DUP1 REVERT JUMPDEST POP PUSH2 0x487 PUSH2 0xD88 JUMP JUMPDEST PUSH1 0x40 MLOAD PUSH2 0x494 SWAP2 SWAP1 PUSH2 0x2485 JUMP JUMPDEST PUSH1 0x40 MLOAD DUP1 SWAP2 SUB SWAP1 RETURN JUMPDEST CALLVALUE DUP1 ISZERO PUSH2 0x4A8 JUMPI PUSH0 DUP1 REVERT JUMPDEST POP PUSH2 0x4B1 PUSH2 0xDAD JUMP JUMPDEST PUSH1 0x40 MLOAD PUSH2 0x4BE SWAP2 SWAP1 PUSH2 0x2253 JUMP JUMPDEST PUSH1 0x40 MLOAD DUP1 SWAP2 SUB SWAP1 RETURN JUMPDEST CALLVALUE DUP1 ISZERO PUSH2 0x4D2 JUMPI PUSH0 DUP1 REVERT JUMPDEST POP PUSH2 0x4DB PUSH2 0xDC2 JUMP JUMPDEST STOP JUMPDEST CALLVALUE DUP1 ISZERO PUSH2 0x4E8 JUMPI PUSH0 DUP1 REVERT JUMPDEST POP PUSH2 0x4F1 PUSH2 0xDF7 JUMP JUMPDEST PUSH1 0x40 MLOAD PUSH2 0x4FE SWAP2 SWAP1 PUSH2 0x230A JUMP JUMPDEST PUSH1 0x40 MLOAD DUP1 SWAP2 SUB SWAP1 RETURN JUMPDEST CALLVALUE DUP1 ISZERO PUSH2 0x512 JUMPI PUSH0 DUP1 REVERT JUMPDEST POP PUSH2 0x51B PUSH2 0xDFD JUMP JUMPDEST PUSH1 0x40 MLOAD PUSH2 0x528 SWAP2 SWAP1 PUSH2 0x230A JUMP JUMPDEST PUSH1 0x40 MLOAD DUP1 SWAP2 SUB SWAP1 RETURN JUMPDEST CALLVALUE DUP1 ISZERO PUSH2 0x53C JUMPI PUSH0 DUP1 REVERT JUMPDEST POP PUSH2 0x557 PUSH1 0x4 DUP1 CALLDATASIZE SUB DUP2 ADD SWAP1 PUSH2 0x552 SWAP2 SWAP1 PUSH2 0x237D JUMP JUMPDEST PUSH2 0xE21 JUMP JUMPDEST PUSH1 0x40 MLOAD PUSH2 0x564 SWAP2 SWAP1 PUSH2 0x2253 JUMP JUMPDEST PUSH1 0x40 MLOAD DUP1 SWAP2 SUB SWAP1 RETURN JUMPDEST CALLVALUE DUP1 ISZERO PUSH2 0x578 JUMPI PUSH0 DUP1 REVERT JUMPDEST POP PUSH2 0x593 PUSH1 0x4 DUP1 CALLDATASIZE SUB DUP2 ADD SWAP1 PUSH2 0x58E SWAP2 SWAP1 PUSH2 0x2410 JUMP JUMPDEST PUSH2 0xE85 JUMP JUMPDEST PUSH1 0x40 MLOAD PUSH2 0x5A0 SWAP2 SWAP1 PUSH2 0x230A JUMP JUMPDEST PUSH1 0x40 MLOAD DUP1 SWAP2 SUB SWAP1 RETURN JUMPDEST CALLVALUE DUP1 ISZERO PUSH2 0x5B4 JUMPI PUSH0 DUP1 REVERT JUMPDEST POP PUSH2 0x5BD PUSH2 0xE9A JUMP JUMPDEST STOP JUMPDEST CALLVALUE DUP1 ISZERO PUSH2 0x5CA JUMPI PUSH0 DUP1 REVERT JUMPDEST POP PUSH2 0x5D3 PUSH2 0x1171 JUMP JUMPDEST PUSH1 0x40 MLOAD PUSH2 0x5E0 SWAP2 SWAP1 PUSH2 0x22D9 JUMP JUMPDEST PUSH1 0x40 MLOAD DUP1 SWAP2 SUB SWAP1 RETURN JUMPDEST CALLVALUE DUP1 ISZERO PUSH2 0x5F4 JUMPI PUSH0 DUP1 REVERT JUMPDEST POP PUSH2 0x5FD PUSH2 0x1177 JUMP JUMPDEST PUSH1 0x40 MLOAD PUSH2 0x60A SWAP2 SWAP1 PUSH2 0x22D9 JUMP JUMPDEST PUSH1 0x40 MLOAD DUP1 SWAP2 SUB SWAP1 RETURN JUMPDEST CALLVALUE DUP1 ISZERO PUSH2 0x61E JUMPI PUSH0 DUP1 REVERT JUMPDEST POP PUSH2 0x627 PUSH2 0x119B JUMP JUMPDEST PUSH1 0x40 MLOAD PUSH2 0x634 SWAP2 SWAP1 PUSH2 0x230A JUMP JUMPDEST PUSH1 0x40 MLOAD DUP1 SWAP2 SUB SWAP1 RETURN JUMPDEST CALLVALUE DUP1 ISZERO PUSH2 0x648 JUMPI PUSH0 DUP1 REVERT JUMPDEST POP PUSH2 0x651 PUSH2 0x11A1 JUMP JUMPDEST PUSH1 0x40 MLOAD PUSH2 0x65E SWAP2 SWAP1 PUSH2 0x2253 JUMP JUMPDEST PUSH1 0x40 MLOAD DUP1 SWAP2 SUB SWAP1 RETURN JUMPDEST CALLVALUE DUP1 ISZERO PUSH2 0x672 JUMPI PUSH0 DUP1 REVERT JUMPDEST POP PUSH2 0x67B PUSH2 0x11B3 JUMP JUMPDEST STOP JUMPDEST CALLVALUE DUP1 ISZERO PUSH2 0x688 JUMPI PUSH0 DUP1 REVERT JUMPDEST POP PUSH2 0x691 PUSH2 0x13BF JUMP JUMPDEST PUSH1 0x40 MLOAD PUSH2 0x69E SWAP2 SWAP1 PUSH2 0x245D JUMP JUMPDEST PUSH1 0x40 MLOAD DUP1 SWAP2 SUB SWAP1 RETURN JUMPDEST CALLVALUE DUP1 ISZERO PUSH2 0x6B2 JUMPI PUSH0 DUP1 REVERT JUMPDEST POP PUSH2 0x6CD PUSH1 0x4 DUP1 CALLDATASIZE SUB DUP2 ADD SWAP1 PUSH2 0x6C8 SWAP2 SWAP1 PUSH2 0x2410 JUMP JUMPDEST PUSH2 0x13D8 JUMP JUMPDEST PUSH1 0x40 MLOAD PUSH2 0x6DA SWAP2 SWAP1 PUSH2 0x230A JUMP JUMPDEST PUSH1 0x40 MLOAD DUP1 SWAP2 SUB SWAP1 RETURN JUMPDEST CALLVALUE DUP1 ISZERO PUSH2 0x6EE JUMPI PUSH0 DUP1 REVERT JUMPDEST POP PUSH2 0x6F7 PUSH2 0x13ED JUMP JUMPDEST PUSH1 0x40 MLOAD PUSH2 0x704 SWAP2 SWAP1 PUSH2 0x2253 JUMP JUMPDEST PUSH1 0x40 MLOAD DUP1 SWAP2 SUB SWAP1 RETURN JUMPDEST CALLVALUE DUP1 ISZERO PUSH2 0x718 JUMPI PUSH0 DUP1 REVERT JUMPDEST POP PUSH2 0x733 PUSH1 0x4 DUP1 CALLDATASIZE SUB DUP2 ADD SWAP1 PUSH2 0x72E SWAP2 SWAP1 PUSH2 0x249E JUMP JUMPDEST PUSH2 0x1443 JUMP JUMPDEST STOP JUMPDEST CALLVALUE DUP1 ISZERO PUSH2 0x740 JUMPI PUSH0 DUP1 REVERT JUMPDEST POP PUSH2 0x75B PUSH1 0x4 DUP1 CALLDATASIZE SUB DUP2 ADD SWAP1 PUSH2 0x756 SWAP2 SWAP1 PUSH2 0x237D JUMP JUMPDEST PUSH2 0x155F JUMP JUMPDEST STOP JUMPDEST CALLVALUE DUP1 ISZERO PUSH2 0x768 JUMPI PUSH0 DUP1 REVERT JUMPDEST POP PUSH2 0x783 PUSH1 0x4 DUP1 CALLDATASIZE SUB DUP2 ADD SWAP1 PUSH2 0x77E SWAP2 SWAP1 PUSH2 0x2410 JUMP JUMPDEST PUSH2 0x1581 JUMP JUMPDEST STOP JUMPDEST CALLVALUE DUP1 ISZERO PUSH2 0x790 JUMPI PUSH0 DUP1 REVERT JUMPDEST POP PUSH2 0x799 PUSH2 0x170B JUMP JUMPDEST STOP JUMPDEST CALLVALUE DUP1 ISZERO PUSH2 0x7A6 JUMPI PUSH0 DUP1 REVERT JUMPDEST POP PUSH2 0x7AF PUSH2 0x184A JUMP JUMPDEST PUSH1 0x40 MLOAD PUSH2 0x7BC SWAP2 SWAP1 PUSH2 0x22D9 JUMP JUMPDEST PUSH1 0x40 MLOAD DUP1 SWAP2 SUB SWAP1 RETURN JUMPDEST CALLVALUE DUP1 ISZERO PUSH2 0x7D0 JUMPI PUSH0 DUP1 REVERT JUMPDEST POP PUSH2 0x7EB PUSH1 0x4 DUP1 CALLDATASIZE SUB DUP2 ADD SWAP1 PUSH2 0x7E6 SWAP2 SWAP1 PUSH2 0x2506 JUMP JUMPDEST PUSH2 0x186E JUMP JUMPDEST STOP JUMPDEST PUSH2 0x807 PUSH1 0x4 DUP1 CALLDATASIZE SUB DUP2 ADD SWAP1 PUSH2 0x802 SWAP2 SWAP1 PUSH2 0x2410 JUMP JUMPDEST PUSH2 0x19CC JUMP JUMPDEST STOP JUMPDEST CALLVALUE DUP1 ISZERO PUSH2 0x814 JUMPI PUSH0 DUP1 REVERT JUMPDEST POP PUSH2 0x81D PUSH2 0x1CFD JUMP JUMPDEST PUSH1 0x40 MLOAD PUSH2 0x82A SWAP2 SWAP1 PUSH2 0x2253 JUMP JUMPDEST PUSH1 0x40 MLOAD DUP1 SWAP2 SUB SWAP1 RETURN JUMPDEST CALLVALUE DUP1 ISZERO PUSH2 0x83E JUMPI PUSH0 DUP1 REVERT JUMPDEST POP PUSH2 0x847 PUSH2 0x1D10 JUMP JUMPDEST PUSH1 0x40 MLOAD PUSH2 0x854 SWAP2 SWAP1 PUSH2 0x2560 JUMP JUMPDEST PUSH1 0x40 MLOAD DUP1 SWAP2 SUB SWAP1 RETURN JUMPDEST CALLVALUE DUP1 ISZERO PUSH2 0x868 JUMPI PUSH0 DUP1 REVERT JUMPDEST POP PUSH2 0x871 PUSH2 0x1D34 JUMP JUMPDEST PUSH1 0x40 MLOAD PUSH2 0x87E SWAP2 SWAP1 PUSH2 0x230A JUMP JUMPDEST PUSH1 0x40 MLOAD DUP1 SWAP2 SUB SWAP1 RETURN JUMPDEST CALLVALUE DUP1 ISZERO PUSH2 0x892 JUMPI PUSH0 DUP1 REVERT JUMPDEST POP PUSH2 0x89B PUSH2 0x1D58 JUMP JUMPDEST PUSH1 0x40 MLOAD PUSH2 0x8A8 SWAP2 SWAP1 PUSH2 0x25D4 JUMP JUMPDEST PUSH1 0x40 MLOAD DUP1 SWAP2 SUB SWAP1 RETURN JUMPDEST PUSH0 PUSH32 0x7965DB0B00000000000000000000000000000000000000000000000000000000 PUSH28 0xFFFFFFFFFFFFFFFFFFFFFFFFFFFFFFFFFFFFFFFFFFFFFFFFFFFFFFFF NOT AND DUP3 PUSH28 0xFFFFFFFFFFFFFFFFFFFFFFFFFFFFFFFFFFFFFFFFFFFFFFFFFFFFFFFF NOT AND EQ DUP1 PUSH2 0x923 JUMPI POP PUSH2 0x922 DUP3 PUSH2 0x1D7C JUMP JUMPDEST JUMPDEST SWAP1 POP SWAP2 SWAP1 POP JUMP JUMPDEST PUSH0 PUSH1 0x2 PUSH0 DUP4 DUP2 MSTORE PUSH1 0x20 ADD SWAP1 DUP2 MSTORE PUSH1 0x20 ADD PUSH0 KECCAK256 PUSH1 0x1 ADD SLOAD SWAP1 POP SWAP2 SWAP1 POP JUMP JUMPDEST PUSH1 0x4 SLOAD DUP2 JUMP JUMPDEST PUSH2 0x956 DUP3 PUSH2 0x92A JUMP JUMPDEST PUSH2 0x95F DUP2 PUSH2 0x1DE5 JUMP JUMPDEST PUSH2 0x969 DUP4 DUP4 PUSH2 0x1DF9 JUMP JUMPDEST POP POP POP POP JUMP JUMPDEST PUSH32 0x82DB594318110A04B6349CE48645AA69F0892751BC893D15E61D9E2B9C4630F5 PUSH2 0x999 DUP2 PUSH2 0x1DE5 JUMP JUMPDEST PUSH1 0x5 PUSH0 SWAP1 SLOAD SWAP1 PUSH2 0x100 EXP SWAP1 DIV PUSH8 0xFFFFFFFFFFFFFFFF AND PUSH8 0xFFFFFFFFFFFFFFFF AND TIMESTAMP LT PUSH2 0x9F1 JUMPI PUSH1 0x40 MLOAD PUSH32 0x445DCE4C00000000000000000000000000000000000000000000000000000000 DUP2 MSTORE PUSH1 0x4 ADD PUSH1 0x40 MLOAD DUP1 SWAP2 SUB SWAP1 REVERT JUMPDEST PUSH0 DUP3 SUB PUSH2 0xA2A JUMPI PUSH1 0x40 MLOAD PUSH32 0xA86B651200000000000000000000000000000000000000000000000000000000 DUP2 MSTORE PUSH1 0x4 ADD PUSH1 0x40 MLOAD DUP1 SWAP2 SUB SWAP1 REVERT JUMPDEST PUSH0 PUSH1 0x4 SLOAD SWAP1 POP DUP3 PUSH1 0x4 DUP2 SWAP1 SSTORE POP PUSH32 0xB38780DDDE1F073D91C150DE2696F3F7085883648BA21CC5EF01029CB21D1916 DUP2 DUP5 PUSH1 0x40 MLOAD PUSH2 0xA68 SWAP3 SWAP2 SWAP1 PUSH2 0x25ED JUMP JUMPDEST PUSH1 0x40 MLOAD DUP1 SWAP2 SUB SWAP1 LOG1 POP POP POP JUMP JUMPDEST PUSH2 0xA7D PUSH2 0x1EE3 JUMP JUMPDEST PUSH20 0xFFFFFFFFFFFFFFFFFFFFFFFFFFFFFFFFFFFFFFFF AND DUP2 PUSH20 0xFFFFFFFFFFFFFFFFFFFFFFFFFFFFFFFFFFFFFFFF AND EQ PUSH2 0xAE1 JUMPI PUSH1 0x40 MLOAD PUSH32 0x6697B23200000000000000000000000000000000000000000000000000000000 DUP2 MSTORE PUSH1 0x4 ADD PUSH1 0x40 MLOAD DUP1 SWAP2 SUB SWAP1 REVERT JUMPDEST PUSH2 0xAEB DUP3 DUP3 PUSH2 0x1EEA JUMP JUMPDEST POP POP POP JUMP JUMPDEST PUSH32 0x65D7A28E3265B37A6474929F336521B332C1681B933F6CB9F3376673440D862A PUSH2 0xB1A DUP2 PUSH2 0x1DE5 JUMP JUMPDEST PUSH2 0xB22 PUSH2 0x1FD4 JUMP JUMPDEST POP JUMP JUMPDEST PUSH1 0x8 SLOAD DUP2 JUMP JUMPDEST PUSH1 0xB PUSH1 0x20 MSTORE DUP1 PUSH0 MSTORE PUSH1 0x40 PUSH0 KECCAK256 PUSH0 SWAP2 POP SWAP1 POP SLOAD DUP2 JUMP JUMPDEST PUSH0 PUSH1 0x5 PUSH0 SWAP1 SLOAD SWAP1 PUSH2 0x100 EXP SWAP1 DIV PUSH8 0xFFFFFFFFFFFFFFFF AND PUSH8 0xFFFFFFFFFFFFFFFF AND TIMESTAMP LT ISZERO DUP1 ISZERO PUSH2 0xB90 JUMPI POP PUSH1 0x5 PUSH1 0x8 SWAP1 SLOAD SWAP1 PUSH2 0x100 EXP SWAP1 DIV PUSH8 0xFFFFFFFFFFFFFFFF AND PUSH8 0xFFFFFFFFFFFFFFFF AND TIMESTAMP GT ISZERO JUMPDEST DUP1 ISZERO PUSH2 0xBBD JUMPI POP PUSH32 0x0 PUSH1 0x8 SLOAD LT JUMPDEST DUP1 ISZERO PUSH2 0xBCE JUMPI POP PUSH2 0xBCC PUSH2 0xDAD JUMP JUMPDEST ISZERO JUMPDEST SWAP1 POP SWAP1 JUMP JUMPDEST PUSH1 0x5 PUSH1 0x8 SWAP1 SLOAD SWAP1 PUSH2 0x100 EXP SWAP1 DIV PUSH8 0xFFFFFFFFFFFFFFFF AND DUP2 JUMP JUMPDEST PUSH2 0xBF5 PUSH2 0x2035 JUMP JUMPDEST PUSH2 0xBFD PUSH2 0x13ED JUMP JUMPDEST PUSH2 0xC33 JUMPI PUSH1 0x40 MLOAD PUSH32 0x78FA807700000000000000000000000000000000000000000000000000000000 DUP2 MSTORE PUSH1 0x4 ADD PUSH1 0x40 MLOAD DUP1 SWAP2 SUB SWAP1 REVERT JUMPDEST PUSH1 0xD PUSH0 SWAP1 SLOAD SWAP1 PUSH2 0x100 EXP SWAP1 DIV PUSH1 0xFF AND ISZERO PUSH2 0xC79 JUMPI PUSH1 0x40 MLOAD PUSH32 0x475A253500000000000000000000000000000000000000000000000000000000 DUP2 MSTORE PUSH1 0x4 ADD PUSH1 0x40 MLOAD DUP1 SWAP2 SUB SWAP1 REVERT JUMPDEST PUSH1 0x1 PUSH1 0xD PUSH0 PUSH2 0x100 EXP DUP2 SLOAD DUP2 PUSH1 0xFF MUL NOT AND SWAP1 DUP4 ISZERO ISZERO MUL OR SWAP1 SSTORE POP PUSH32 0x0 PUSH1 0x8 SLOAD LT PUSH2 0xCF9 JUMPI PUSH32 0x41493253AE80C9F89E25283C36F67849365D0515134CE43DE1314223CB6F7342 PUSH1 0x1 PUSH1 0x40 MLOAD PUSH2 0xCEC SWAP2 SWAP1 PUSH2 0x2253 JUMP JUMPDEST PUSH1 0x40 MLOAD DUP1 SWAP2 SUB SWAP1 LOG1 PUSH2 0xD78 JUMP JUMPDEST PUSH1 0x1 PUSH1 0xD PUSH1 0x1 PUSH2 0x100 EXP DUP2 SLOAD DUP2 PUSH1 0xFF MUL NOT AND SWAP1 DUP4 ISZERO ISZERO MUL OR SWAP1 SSTORE POP PUSH32 0x599D8E5A83CFFB867D051598C4D70E805D59802D8081C1C7D6DFFC5B6ACA2B89 PUSH1 0x40 MLOAD PUSH1 0x40 MLOAD DUP1 SWAP2 SUB SWAP1 LOG1 PUSH32 0x41493253AE80C9F89E25283C36F67849365D0515134CE43DE1314223CB6F7342 PUSH0 PUSH1 0x40 MLOAD PUSH2 0xD6F SWAP2 SWAP1 PUSH2 0x2253 JUMP JUMPDEST PUSH1 0x40 MLOAD DUP1 SWAP2 SUB SWAP1 LOG1 JUMPDEST PUSH2 0xD80 PUSH2 0x2079 JUMP JUMPDEST JUMP JUMPDEST PUSH1 0x9 SLOAD DUP2 JUMP JUMPDEST PUSH1 0x3 PUSH0 SWAP1 SLOAD SWAP1 PUSH2 0x100 EXP SWAP1 DIV PUSH20 0xFFFFFFFFFFFFFFFFFFFFFFFFFFFFFFFFFFFFFFFF AND DUP2 JUMP JUMPDEST PUSH0 PUSH1 0x1 PUSH0 SWAP1 SLOAD SWAP1 PUSH2 0x100 EXP SWAP1 DIV PUSH1 0xFF AND SWAP1 POP SWAP1 JUMP JUMPDEST PUSH32 0x65D7A28E3265B37A6474929F336521B332C1681B933F6CB9F3376673440D862A PUSH2 0xDEC DUP2 PUSH2 0x1DE5 JUMP JUMPDEST PUSH2 0xDF4 PUSH2 0x2082 JUMP JUMPDEST POP JUMP JUMPDEST PUSH1 0x7 SLOAD DUP2 JUMP JUMPDEST PUSH32 0x0 DUP2 JUMP JUMPDEST PUSH0 PUSH1 0x2 PUSH0 DUP5 DUP2 MSTORE PUSH1 0x20 ADD SWAP1 DUP2 MSTORE PUSH1 0x20 ADD PUSH0 KECCAK256 PUSH0 ADD PUSH0 DUP4 PUSH20 0xFFFFFFFFFFFFFFFFFFFFFFFFFFFFFFFFFFFFFFFF AND PUSH20 0xFFFFFFFFFFFFFFFFFFFFFFFFFFFFFFFFFFFFFFFF AND DUP2 MSTORE PUSH1 0x20 ADD SWAP1 DUP2 MSTORE PUSH1 0x20 ADD PUSH0 KECCAK256 PUSH0 SWAP1 SLOAD SWAP1 PUSH2 0x100 EXP SWAP1 DIV PUSH1 0xFF AND SWAP1 POP SWAP3 SWAP2 POP POP JUMP JUMPDEST PUSH1 0xA PUSH1 0x20 MSTORE DUP1 PUSH0 MSTORE PUSH1 0x40 PUSH0 KECCAK256 PUSH0 SWAP2 POP SWAP1 POP SLOAD DUP2 JUMP JUMPDEST PUSH2 0xEA2 PUSH2 0x2035 JUMP JUMPDEST PUSH2 0xEAA PUSH2 0x20E3 JUMP JUMPDEST PUSH1 0xD PUSH0 SWAP1 SLOAD SWAP1 PUSH2 0x100 EXP SWAP1 DIV PUSH1 0xFF AND ISZERO DUP1 PUSH2 0xED1 JUMPI POP PUSH1 0xD PUSH1 0x1 SWAP1 SLOAD SWAP1 PUSH2 0x100 EXP SWAP1 DIV PUSH1 0xFF AND JUMPDEST ISZERO PUSH2 0xF08 JUMPI PUSH1 0x40 MLOAD PUSH32 0x2BDC91AD00000000000000000000000000000000000000000000000000000000 DUP2 MSTORE PUSH1 0x4 ADD PUSH1 0x40 MLOAD DUP1 SWAP2 SUB SWAP1 REVERT JUMPDEST PUSH0 PUSH1 0xB PUSH0 CALLER PUSH20 0xFFFFFFFFFFFFFFFFFFFFFFFFFFFFFFFFFFFFFFFF AND PUSH20 0xFFFFFFFFFFFFFFFFFFFFFFFFFFFFFFFFFFFFFFFF AND DUP2 MSTORE PUSH1 0x20 ADD SWAP1 DUP2 MSTORE PUSH1 0x20 ADD PUSH0 KECCAK256 SLOAD SWAP1 POP PUSH0 DUP2 SUB PUSH2 0xF82 JUMPI PUSH1 0x40 MLOAD PUSH32 0x969BF72800000000000000000000000000000000000000000000000000000000 DUP2 MSTORE PUSH1 0x4 ADD PUSH1 0x40 MLOAD DUP1 SWAP2 SUB SWAP1 REVERT JUMPDEST PUSH0 PUSH2 0x2710 PUSH32 0x0 PUSH2 0xFFFF AND DUP4 PUSH2 0xFB6 SWAP2 SWAP1 PUSH2 0x2641 JUMP JUMPDEST PUSH2 0xFC0 SWAP2 SWAP1 PUSH2 0x26AF JUMP JUMPDEST SWAP1 POP PUSH0 PUSH1 0xC PUSH0 CALLER PUSH20 0xFFFFFFFFFFFFFFFFFFFFFFFFFFFFFFFFFFFFFFFF AND PUSH20 0xFFFFFFFFFFFFFFFFFFFFFFFFFFFFFFFFFFFFFFFF AND DUP2 MSTORE PUSH1 0x20 ADD SWAP1 DUP2 MSTORE PUSH1 0x20 ADD PUSH0 KECCAK256 SLOAD SWAP1 POP DUP1 DUP3 GT PUSH2 0x103C JUMPI PUSH1 0x40 MLOAD PUSH32 0x969BF72800000000000000000000000000000000000000000000000000000000 DUP2 MSTORE PUSH1 0x4 ADD PUSH1 0x40 MLOAD DUP1 SWAP2 SUB SWAP1 REVERT JUMPDEST PUSH0 DUP2 DUP4 PUSH2 0x1049 SWAP2 SWAP1 PUSH2 0x26DF JUMP JUMPDEST SWAP1 POP DUP3 PUSH1 0xC PUSH0 CALLER PUSH20 0xFFFFFFFFFFFFFFFFFFFFFFFFFFFFFFFFFFFFFFFF AND PUSH20 0xFFFFFFFFFFFFFFFFFFFFFFFFFFFFFFFFFFFFFFFF AND DUP2 MSTORE PUSH1 0x20 ADD SWAP1 DUP2 MSTORE PUSH1 0x20 ADD PUSH0 KECCAK256 DUP2 SWAP1 SSTORE POP PUSH32 0x0 PUSH20 0xFFFFFFFFFFFFFFFFFFFFFFFFFFFFFFFFFFFFFFFF AND PUSH4 0x40C10F19 CALLER DUP4 PUSH1 0x40 MLOAD DUP4 PUSH4 0xFFFFFFFF AND PUSH1 0xE0 SHL DUP2 MSTORE PUSH1 0x4 ADD PUSH2 0x10E8 SWAP3 SWAP2 SWAP1 PUSH2 0x2712 JUMP JUMPDEST PUSH0 PUSH1 0x40 MLOAD DUP1 DUP4 SUB DUP2 PUSH0 DUP8 DUP1 EXTCODESIZE ISZERO DUP1 ISZERO PUSH2 0x10FF JUMPI PUSH0 DUP1 REVERT JUMPDEST POP GAS CALL ISZERO DUP1 ISZERO PUSH2 0x1111 JUMPI RETURNDATASIZE PUSH0 DUP1 RETURNDATACOPY RETURNDATASIZE PUSH0 REVERT JUMPDEST POP POP POP POP CALLER PUSH20 0xFFFFFFFFFFFFFFFFFFFFFFFFFFFFFFFFFFFFFFFF AND PUSH32 0x9D9F91C7E63ECAB055AB1ECB358D2E74E46AA0E4C65F9594AA73E56CFB5D0A47 DUP3 PUSH1 0x40 MLOAD PUSH2 0x115B SWAP2 SWAP1 PUSH2 0x230A JUMP JUMPDEST PUSH1 0x40 MLOAD DUP1 SWAP2 SUB SWAP1 LOG2 POP POP POP POP PUSH2 0x116F PUSH2 0x2079 JUMP JUMPDEST JUMP JUMPDEST PUSH0 DUP1 SHL DUP2 JUMP JUMPDEST PUSH32 0x82DB594318110A04B6349CE48645AA69F0892751BC893D15E61D9E2B9C4630F5 DUP2 JUMP JUMPDEST PUSH1 0x6 SLOAD DUP2 JUMP JUMPDEST PUSH1 0xD PUSH0 SWAP1 SLOAD SWAP1 PUSH2 0x100 EXP SWAP1 DIV PUSH1 0xFF AND DUP2 JUMP JUMPDEST PUSH2 0x11BB PUSH2 0x2035 JUMP JUMPDEST PUSH1 0xD PUSH1 0x1 SWAP1 SLOAD SWAP1 PUSH2 0x100 EXP SWAP1 DIV PUSH1 0xFF AND PUSH2 0x1201 JUMPI PUSH1 0x40 MLOAD PUSH32 0x64547E6900000000000000000000000000000000000000000000000000000000 DUP2 MSTORE PUSH1 0x4 ADD PUSH1 0x40 MLOAD DUP1 SWAP2 SUB SWAP1 REVERT JUMPDEST PUSH0 PUSH1 0xA PUSH0 CALLER PUSH20 0xFFFFFFFFFFFFFFFFFFFFFFFFFFFFFFFFFFFFFFFF AND PUSH20 0xFFFFFFFFFFFFFFFFFFFFFFFFFFFFFFFFFFFFFFFF AND DUP2 MSTORE PUSH1 0x20 ADD SWAP1 DUP2 MSTORE PUSH1 0x20 ADD PUSH0 KECCAK256 SLOAD SWAP1 POP PUSH0 DUP2 SUB PUSH2 0x127B JUMPI PUSH1 0x40 MLOAD PUSH32 0x969BF72800000000000000000000000000000000000000000000000000000000 DUP2 MSTORE PUSH1 0x4 ADD PUSH1 0x40 MLOAD DUP1 SWAP2 SUB SWAP1 REVERT JUMPDEST PUSH0 PUSH1 0xA PUSH0 CALLER PUSH20 0xFFFFFFFFFFFFFFFFFFFFFFFFFFFFFFFFFFFFFFFF AND PUSH20 0xFFFFFFFFFFFFFFFFFFFFFFFFFFFFFFFFFFFFFFFF AND DUP2 MSTORE PUSH1 0x20 ADD SWAP1 DUP2 MSTORE PUSH1 0x20 ADD PUSH0 KECCAK256 DUP2 SWAP1 SSTORE POP PUSH0 CALLER PUSH20 0xFFFFFFFFFFFFFFFFFFFFFFFFFFFFFFFFFFFFFFFF AND DUP3 PUSH1 0x40 MLOAD PUSH2 0x12E2 SWAP1 PUSH2 0x2766 JUMP JUMPDEST PUSH0 PUSH1 0x40 MLOAD DUP1 DUP4 SUB DUP2 DUP6 DUP8 GAS CALL SWAP3 POP POP POP RETURNDATASIZE DUP1 PUSH0 DUP2 EQ PUSH2 0x131C JUMPI PUSH1 0x40 MLOAD SWAP2 POP PUSH1 0x1F NOT PUSH1 0x3F RETURNDATASIZE ADD AND DUP3 ADD PUSH1 0x40 MSTORE RETURNDATASIZE DUP3 MSTORE RETURNDATASIZE PUSH0 PUSH1 0x20 DUP5 ADD RETURNDATACOPY PUSH2 0x1321 JUMP JUMPDEST PUSH1 0x60 SWAP2 POP JUMPDEST POP POP SWAP1 POP DUP1 PUSH2 0x1365 JUMPI PUSH1 0x40 MLOAD PUSH32 0x8C379A000000000000000000000000000000000000000000000000000000000 DUP2 MSTORE PUSH1 0x4 ADD PUSH2 0x135C SWAP1 PUSH2 0x27D4 JUMP JUMPDEST PUSH1 0x40 MLOAD DUP1 SWAP2 SUB SWAP1 REVERT JUMPDEST CALLER PUSH20 0xFFFFFFFFFFFFFFFFFFFFFFFFFFFFFFFFFFFFFFFF AND PUSH32 0xD7DEE2702D63AD89917B6A4DA9981C90C4D24F8C2BDFD64C604ECAE57D8D0651 DUP4 PUSH1 0x40 MLOAD PUSH2 0x13AB SWAP2 SWAP1 PUSH2 0x230A JUMP JUMPDEST PUSH1 0x40 MLOAD DUP1 SWAP2 SUB SWAP1 LOG2 POP POP PUSH2 0x13BD PUSH2 0x2079 JUMP JUMPDEST JUMP JUMPDEST PUSH1 0x5 PUSH0 SWAP1 SLOAD SWAP1 PUSH2 0x100 EXP SWAP1 DIV PUSH8 0xFFFFFFFFFFFFFFFF AND DUP2 JUMP JUMPDEST PUSH1 0xC PUSH1 0x20 MSTORE DUP1 PUSH0 MSTORE PUSH1 0x40 PUSH0 KECCAK256 PUSH0 SWAP2 POP SWAP1 POP SLOAD DUP2 JUMP JUMPDEST PUSH0 PUSH1 0x5 PUSH1 0x8 SWAP1 SLOAD SWAP1 PUSH2 0x100 EXP SWAP1 DIV PUSH8 0xFFFFFFFFFFFFFFFF AND PUSH8 0xFFFFFFFFFFFFFFFF AND TIMESTAMP GT DUP1 PUSH2 0x143E JUMPI POP PUSH32 0x0 PUSH1 0x8 SLOAD LT ISZERO JUMPDEST SWAP1 POP SWAP1 JUMP JUMPDEST PUSH32 0x82DB594318110A04B6349CE48645AA69F0892751BC893D15E61D9E2B9C4630F5 PUSH2 0x146D DUP2 PUSH2 0x1DE5 JUMP JUMPDEST PUSH1 0x5 PUSH0 SWAP1 SLOAD SWAP1 PUSH2 0x100 EXP SWAP1 DIV PUSH8 0xFFFFFFFFFFFFFFFF AND PUSH8 0xFFFFFFFFFFFFFFFF AND TIMESTAMP LT PUSH2 0x14C5 JUMPI PUSH1 0x40 MLOAD PUSH32 0x445DCE4C00000000000000000000000000000000000000000000000000000000 DUP2 MSTORE PUSH1 0x4 ADD PUSH1 0x40 MLOAD DUP1 SWAP2 SUB SWAP1 REVERT JUMPDEST PUSH0 DUP4 EQ DUP1 PUSH2 0x14D2 JUMPI POP PUSH0 DUP3 EQ JUMPDEST DUP1 PUSH2 0x14DC JUMPI POP DUP3 DUP3 LT JUMPDEST ISZERO PUSH2 0x1513 JUMPI PUSH1 0x40 MLOAD PUSH32 0xA86B651200000000000000000000000000000000000000000000000000000000 DUP2 MSTORE PUSH1 0x4 ADD PUSH1 0x40 MLOAD DUP1 SWAP2 SUB SWAP1 REVERT JUMPDEST DUP3 PUSH1 0x6 DUP2 SWAP1 SSTORE POP DUP2 PUSH1 0x7 DUP2 SWAP1 SSTORE POP PUSH32 0x4D4981437D0211F9E6843EB024D9ADA1FA3A99514D4343D4AECE106DD11524BB DUP4 DUP4 PUSH1 0x40 MLOAD PUSH2 0x1552 SWAP3 SWAP2 SWAP1 PUSH2 0x25ED JUMP JUMPDEST PUSH1 0x40 MLOAD DUP1 SWAP2 SUB SWAP1 LOG1 POP POP POP JUMP JUMPDEST PUSH2 0x1568 DUP3 PUSH2 0x92A JUMP JUMPDEST PUSH2 0x1571 DUP2 PUSH2 0x1DE5 JUMP JUMPDEST PUSH2 0x157B DUP4 DUP4 PUSH2 0x1EEA JUMP JUMPDEST POP POP POP POP JUMP JUMPDEST PUSH32 0x82DB594318110A04B6349CE48645AA69F0892751BC893D15E61D9E2B9C4630F5 PUSH2 0x15AB DUP2 PUSH2 0x1DE5 JUMP JUMPDEST PUSH1 0x5 PUSH0 SWAP1 SLOAD SWAP1 PUSH2 0x100 EXP SWAP1 DIV PUSH8 0xFFFFFFFFFFFFFFFF AND PUSH8 0xFFFFFFFFFFFFFFFF AND TIMESTAMP LT PUSH2 0x1603 JUMPI PUSH1 0x40 MLOAD PUSH32 0x445DCE4C00000000000000000000000000000000000000000000000000000000 DUP2 MSTORE PUSH1 0x4 ADD PUSH1 0x40 MLOAD DUP1 SWAP2 SUB SWAP1 REVERT JUMPDEST PUSH0 PUSH20 0xFFFFFFFFFFFFFFFFFFFFFFFFFFFFFFFFFFFFFFFF AND DUP3 PUSH20 0xFFFFFFFFFFFFFFFFFFFFFFFFFFFFFFFFFFFFFFFF AND SUB PUSH2 0x1668 JUMPI PUSH1 0x40 MLOAD PUSH32 0xD92E233D00000000000000000000000000000000000000000000000000000000 DUP2 MSTORE PUSH1 0x4 ADD PUSH1 0x40 MLOAD DUP1 SWAP2 SUB SWAP1 REVERT JUMPDEST PUSH0 PUSH1 0x3 PUSH0 SWAP1 SLOAD SWAP1 PUSH2 0x100 EXP SWAP1 DIV PUSH20 0xFFFFFFFFFFFFFFFFFFFFFFFFFFFFFFFFFFFFFFFF AND SWAP1 POP DUP3 PUSH1 0x3 PUSH0 PUSH2 0x100 EXP DUP2 SLOAD DUP2 PUSH20 0xFFFFFFFFFFFFFFFFFFFFFFFFFFFFFFFFFFFFFFFF MUL NOT AND SWAP1 DUP4 PUSH20 0xFFFFFFFFFFFFFFFFFFFFFFFFFFFFFFFFFFFFFFFF AND MUL OR SWAP1 SSTORE POP PUSH32 0xF37C6733428A3A65D46B7F1853A5CE4BFA3CF92D25322507A50BF23A0B5A0A8 DUP2 DUP5 PUSH1 0x40 MLOAD PUSH2 0x16FE SWAP3 SWAP2 SWAP1 PUSH2 0x27F2 JUMP JUMPDEST PUSH1 0x40 MLOAD DUP1 SWAP2 SUB SWAP1 LOG1 POP POP POP JUMP JUMPDEST PUSH2 0x1713 PUSH2 0x2035 JUMP JUMPDEST PUSH1 0xD PUSH0 SWAP1 SLOAD SWAP1 PUSH2 0x100 EXP SWAP1 DIV PUSH1 0xFF AND ISZERO DUP1 PUSH2 0x173A JUMPI POP PUSH1 0xD PUSH1 0x1 SWAP1 SLOAD SWAP1 PUSH2 0x100 EXP SWAP1 DIV PUSH1 0xFF AND JUMPDEST ISZERO PUSH2 0x1771 JUMPI PUSH1 0x40 MLOAD PUSH32 0x2BDC91AD00000000000000000000000000000000000000000000000000000000 DUP2 MSTORE PUSH1 0x4 ADD PUSH1 0x40 MLOAD DUP1 SWAP2 SUB SWAP1 REVERT JUMPDEST PUSH0 SELFBALANCE SWAP1 POP PUSH0 PUSH1 0x3 PUSH0 SWAP1 SLOAD SWAP1 PUSH2 0x100 EXP SWAP1 DIV PUSH20 0xFFFFFFFFFFFFFFFFFFFFFFFFFFFFFFFFFFFFFFFF AND PUSH20 0xFFFFFFFFFFFFFFFFFFFFFFFFFFFFFFFFFFFFFFFF AND DUP3 PUSH1 0x40 MLOAD PUSH2 0x17BB SWAP1 PUSH2 0x2766 JUMP JUMPDEST PUSH0 PUSH1 0x40 MLOAD DUP1 DUP4 SUB DUP2 DUP6 DUP8 GAS CALL SWAP3 POP POP POP RETURNDATASIZE DUP1 PUSH0 DUP2 EQ PUSH2 0x17F5 JUMPI PUSH1 0x40 MLOAD SWAP2 POP PUSH1 0x1F NOT PUSH1 0x3F RETURNDATASIZE ADD AND DUP3 ADD PUSH1 0x40 MSTORE RETURNDATASIZE DUP3 MSTORE RETURNDATASIZE PUSH0 PUSH1 0x20 DUP5 ADD RETURNDATACOPY PUSH2 0x17FA JUMP JUMPDEST PUSH1 0x60 SWAP2 POP JUMPDEST POP POP SWAP1 POP DUP1 PUSH2 0x183E JUMPI PUSH1 0x40 MLOAD PUSH32 0x8C379A000000000000000000000000000000000000000000000000000000000 DUP2 MSTORE PUSH1 0x4 ADD PUSH2 0x1835 SWAP1 PUSH2 0x2863 JUMP JUMPDEST PUSH1 0x40 MLOAD DUP1 SWAP2 SUB SWAP1 REVERT JUMPDEST POP POP PUSH2 0x1848 PUSH2 0x2079 JUMP JUMPDEST JUMP JUMPDEST PUSH32 0x65D7A28E3265B37A6474929F336521B332C1681B933F6CB9F3376673440D862A DUP2 JUMP JUMPDEST PUSH32 0x82DB594318110A04B6349CE48645AA69F0892751BC893D15E61D9E2B9C4630F5 PUSH2 0x1898 DUP2 PUSH2 0x1DE5 JUMP JUMPDEST PUSH1 0x5 PUSH0 SWAP1 SLOAD SWAP1 PUSH2 0x100 EXP SWAP1 DIV PUSH8 0xFFFFFFFFFFFFFFFF AND PUSH8 0xFFFFFFFFFFFFFFFF AND TIMESTAMP LT PUSH2 0x18F0 JUMPI PUSH1 0x40 MLOAD PUSH32 0x445DCE4C00000000000000000000000000000000000000000000000000000000 DUP2 MSTORE PUSH1 0x4 ADD PUSH1 0x40 MLOAD DUP1 SWAP2 SUB SWAP1 REVERT JUMPDEST DUP2 PUSH8 0xFFFFFFFFFFFFFFFF AND DUP4 PUSH8 0xFFFFFFFFFFFFFFFF AND LT PUSH2 0x193D JUMPI PUSH1 0x40 MLOAD PUSH32 0xA86B651200000000000000000000000000000000000000000000000000000000 DUP2 MSTORE PUSH1 0x4 ADD PUSH1 0x40 MLOAD DUP1 SWAP2 SUB SWAP1 REVERT JUMPDEST DUP3 PUSH1 0x5 PUSH0 PUSH2 0x100 EXP DUP2 SLOAD DUP2 PUSH8 0xFFFFFFFFFFFFFFFF MUL NOT AND SWAP1 DUP4 PUSH8 0xFFFFFFFFFFFFFFFF AND MUL OR SWAP1 SSTORE POP DUP2 PUSH1 0x5 PUSH1 0x8 PUSH2 0x100 EXP DUP2 SLOAD DUP2 PUSH8 0xFFFFFFFFFFFFFFFF MUL NOT AND SWAP1 DUP4 PUSH8 0xFFFFFFFFFFFFFFFF AND MUL OR SWAP1 SSTORE POP PUSH32 0x114F2C213E3AB7C4E4E09D28A2EFED89FE0C35A82BE187299E8BB20E1B755768 DUP4 DUP4 PUSH1 0x40 MLOAD PUSH2 0x19BF SWAP3 SWAP2 SWAP1 PUSH2 0x2881 JUMP JUMPDEST PUSH1 0x40 MLOAD DUP1 SWAP2 SUB SWAP1 LOG1 POP POP POP JUMP JUMPDEST PUSH2 0x19D4 PUSH2 0x2035 JUMP JUMPDEST PUSH2 0x19DC PUSH2 0x20E3 JUMP JUMPDEST PUSH2 0x19E4 PUSH2 0xB40 JUMP JUMPDEST PUSH2 0x1A1A JUMPI PUSH1 0x40 MLOAD PUSH32 0x445DCE4C00000000000000000000000000000000000000000000000000000000 DUP2 MSTORE PUSH1 0x4 ADD PUSH1 0x40 MLOAD DUP1 SWAP2 SUB SWAP1 REVERT JUMPDEST PUSH0 PUSH20 0xFFFFFFFFFFFFFFFFFFFFFFFFFFFFFFFFFFFFFFFF AND DUP2 PUSH20 0xFFFFFFFFFFFFFFFFFFFFFFFFFFFFFFFFFFFFFFFF AND SUB PUSH2 0x1A7F JUMPI PUSH1 0x40 MLOAD PUSH32 0xD92E233D00000000000000000000000000000000000000000000000000000000 DUP2 MSTORE PUSH1 0x4 ADD PUSH1 0x40 MLOAD DUP1 SWAP2 SUB SWAP1 REVERT JUMPDEST PUSH0 CALLVALUE SUB PUSH2 0x1AB8 JUMPI PUSH1 0x40 MLOAD PUSH32 0x8D8F5CDC00000000000000000000000000000000000000000000000000000000 DUP2 MSTORE PUSH1 0x4 ADD PUSH1 0x40 MLOAD DUP1 SWAP2 SUB SWAP1 REVERT JUMPDEST PUSH32 0x0 CALLVALUE PUSH1 0x8 SLOAD PUSH2 0x1AE7 SWAP2 SWAP1 PUSH2 0x28A8 JUMP JUMPDEST GT ISZERO PUSH2 0x1B1F JUMPI PUSH1 0x40 MLOAD PUSH32 0xA4875A4900000000000000000000000000000000000000000000000000000000 DUP2 MSTORE PUSH1 0x4 ADD PUSH1 0x40 MLOAD DUP1 SWAP2 SUB SWAP1 REVERT JUMPDEST PUSH0 CALLVALUE PUSH1 0xA PUSH0 CALLER PUSH20 0xFFFFFFFFFFFFFFFFFFFFFFFFFFFFFFFFFFFFFFFF AND PUSH20 0xFFFFFFFFFFFFFFFFFFFFFFFFFFFFFFFFFFFFFFFF AND DUP2 MSTORE PUSH1 0x20 ADD SWAP1 DUP2 MSTORE PUSH1 0x20 ADD PUSH0 KECCAK256 SLOAD PUSH2 0x1B69 SWAP2 SWAP1 PUSH2 0x28A8 JUMP JUMPDEST SWAP1 POP PUSH1 0x6 SLOAD DUP2 LT DUP1 PUSH2 0x1B7C JUMPI POP PUSH1 0x7 SLOAD DUP2 GT JUMPDEST ISZERO PUSH2 0x1BB3 JUMPI PUSH1 0x40 MLOAD PUSH32 0x8D8F5CDC00000000000000000000000000000000000000000000000000000000 DUP2 MSTORE PUSH1 0x4 ADD PUSH1 0x40 MLOAD DUP1 SWAP2 SUB SWAP1 REVERT JUMPDEST PUSH0 PUSH1 0x4 SLOAD CALLVALUE PUSH2 0x1BC2 SWAP2 SWAP1 PUSH2 0x2641 JUMP JUMPDEST SWAP1 POP CALLVALUE PUSH1 0x8 PUSH0 DUP3 DUP3 SLOAD PUSH2 0x1BD5 SWAP2 SWAP1 PUSH2 0x28A8 JUMP JUMPDEST SWAP3 POP POP DUP2 SWAP1 SSTORE POP DUP1 PUSH1 0x9 PUSH0 DUP3 DUP3 SLOAD PUSH2 0x1BED SWAP2 SWAP1 PUSH2 0x28A8 JUMP JUMPDEST SWAP3 POP POP DUP2 SWAP1 SSTORE POP DUP2 PUSH1 0xA PUSH0 CALLER PUSH20 0xFFFFFFFFFFFFFFFFFFFFFFFFFFFFFFFFFFFFFFFF AND PUSH20 0xFFFFFFFFFFFFFFFFFFFFFFFFFFFFFFFFFFFFFFFF AND DUP2 MSTORE PUSH1 0x20 ADD SWAP1 DUP2 MSTORE PUSH1 0x20 ADD PUSH0 KECCAK256 DUP2 SWAP1 SSTORE POP DUP1 PUSH1 0xB PUSH0 DUP6 PUSH20 0xFFFFFFFFFFFFFFFFFFFFFFFFFFFFFFFFFFFFFFFF AND PUSH20 0xFFFFFFFFFFFFFFFFFFFFFFFFFFFFFFFFFFFFFFFF AND DUP2 MSTORE PUSH1 0x20 ADD SWAP1 DUP2 MSTORE PUSH1 0x20 ADD PUSH0 KECCAK256 PUSH0 DUP3 DUP3 SLOAD PUSH2 0x1C82 SWAP2 SWAP1 PUSH2 0x28A8 JUMP JUMPDEST SWAP3 POP POP DUP2 SWAP1 SSTORE POP DUP3 PUSH20 0xFFFFFFFFFFFFFFFFFFFFFFFFFFFFFFFFFFFFFFFF AND CALLER PUSH20 0xFFFFFFFFFFFFFFFFFFFFFFFFFFFFFFFFFFFFFFFF AND PUSH32 0x6FAF93231A456E552DBC9961F58D9713EE4F2E69D15F1975B050EF0911053A7B CALLVALUE DUP5 PUSH1 0x40 MLOAD PUSH2 0x1CE8 SWAP3 SWAP2 SWAP1 PUSH2 0x25ED JUMP JUMPDEST PUSH1 0x40 MLOAD DUP1 SWAP2 SUB SWAP1 LOG3 POP POP PUSH2 0x1CFA PUSH2 0x2079 JUMP JUMPDEST POP JUMP JUMPDEST PUSH1 0xD PUSH1 0x1 SWAP1 SLOAD SWAP1 PUSH2 0x100 EXP SWAP1 DIV PUSH1 0xFF AND DUP2 JUMP JUMPDEST PUSH32 0x0 DUP2 JUMP JUMPDEST PUSH32 0x0 DUP2 JUMP JUMPDEST PUSH32 0x0 DUP2 JUMP JUMPDEST PUSH0 PUSH32 0x1FFC9A700000000000000000000000000000000000000000000000000000000 PUSH28 0xFFFFFFFFFFFFFFFFFFFFFFFFFFFFFFFFFFFFFFFFFFFFFFFFFFFFFFFF NOT AND DUP3 PUSH28 0xFFFFFFFFFFFFFFFFFFFFFFFFFFFFFFFFFFFFFFFFFFFFFFFFFFFFFFFF NOT AND EQ SWAP1 POP SWAP2 SWAP1 POP JUMP JUMPDEST PUSH2 0x1DF6 DUP2 PUSH2 0x1DF1 PUSH2 0x1EE3 JUMP JUMPDEST PUSH2 0x2124 JUMP JUMPDEST POP JUMP JUMPDEST PUSH0 PUSH2 0x1E04 DUP4 DUP4 PUSH2 0xE21 JUMP JUMPDEST PUSH2 0x1ED9 JUMPI PUSH1 0x1 PUSH1 0x2 PUSH0 DUP6 DUP2 MSTORE PUSH1 0x20 ADD SWAP1 DUP2 MSTORE PUSH1 0x20 ADD PUSH0 KECCAK256 PUSH0 ADD PUSH0 DUP5 PUSH20 0xFFFFFFFFFFFFFFFFFFFFFFFFFFFFFFFFFFFFFFFF AND PUSH20 0xFFFFFFFFFFFFFFFFFFFFFFFFFFFFFFFFFFFFFFFF AND DUP2 MSTORE PUSH1 0x20 ADD SWAP1 DUP2 MSTORE PUSH1 0x20 ADD PUSH0 KECCAK256 PUSH0 PUSH2 0x100 EXP DUP2 SLOAD DUP2 PUSH1 0xFF MUL NOT AND SWAP1 DUP4 ISZERO ISZERO MUL OR SWAP1 SSTORE POP PUSH2 0x1E76 PUSH2 0x1EE3 JUMP JUMPDEST PUSH20 0xFFFFFFFFFFFFFFFFFFFFFFFFFFFFFFFFFFFFFFFF AND DUP3 PUSH20 0xFFFFFFFFFFFFFFFFFFFFFFFFFFFFFFFFFFFFFFFF AND DUP5 PUSH32 0x2F8788117E7EFF1D82E926EC794901D17C78024A50270940304540A733656F0D PUSH1 0x40 MLOAD PUSH1 0x40 MLOAD DUP1 SWAP2 SUB SWAP1 LOG4 PUSH1 0x1 SWAP1 POP PUSH2 0x1EDD JUMP JUMPDEST PUSH0 SWAP1 POP JUMPDEST SWAP3 SWAP2 POP POP JUMP JUMPDEST PUSH0 CALLER SWAP1 POP SWAP1 JUMP JUMPDEST PUSH0 PUSH2 0x1EF5 DUP4 DUP4 PUSH2 0xE21 JUMP JUMPDEST ISZERO PUSH2 0x1FCA JUMPI PUSH0 PUSH1 0x2 PUSH0 DUP6 DUP2 MSTORE PUSH1 0x20 ADD SWAP1 DUP2 MSTORE PUSH1 0x20 ADD PUSH0 KECCAK256 PUSH0 ADD PUSH0 DUP5 PUSH20 0xFFFFFFFFFFFFFFFFFFFFFFFFFFFFFFFFFFFFFFFF AND PUSH20 0xFFFFFFFFFFFFFFFFFFFFFFFFFFFFFFFFFFFFFFFF AND DUP2 MSTORE PUSH1 0x20 ADD SWAP1 DUP2 MSTORE PUSH1 0x20 ADD PUSH0 KECCAK256 PUSH0 PUSH2 0x100 EXP DUP2 SLOAD DUP2 PUSH1 0xFF MUL NOT AND SWAP1 DUP4 ISZERO ISZERO MUL OR SWAP1 SSTORE POP PUSH2 0x1F67 PUSH2 0x1EE3 JUMP JUMPDEST PUSH20 0xFFFFFFFFFFFFFFFFFFFFFFFFFFFFFFFFFFFFFFFF AND DUP3 PUSH20 0xFFFFFFFFFFFFFFFFFFFFFFFFFFFFFFFFFFFFFFFF AND DUP5 PUSH32 0xF6391F5C32D9C69D2A47EA670B442974B53935D1EDC7FD64EB21E047A839171B PUSH1 0x40 MLOAD PUSH1 0x40 MLOAD DUP1 SWAP2 SUB SWAP1 LOG4 PUSH1 0x1 SWAP1 POP PUSH2 0x1FCE JUMP JUMPDEST PUSH0 SWAP1 POP JUMPDEST SWAP3 SWAP2 POP POP JUMP JUMPDEST PUSH2 0x1FDC PUSH2 0x2175 JUMP JUMPDEST PUSH0 PUSH1 0x1 PUSH0 PUSH2 0x100 EXP DUP2 SLOAD DUP2 PUSH1 0xFF MUL NOT AND SWAP1 DUP4 ISZERO ISZERO MUL OR SWAP1 SSTORE POP PUSH32 0x5DB9EE0A495BF2E6FF9C91A7834C1BA4FDD244A5E8AA4E537BD38AEAE4B073AA PUSH2 0x201E PUSH2 0x1EE3 JUMP JUMPDEST PUSH1 0x40 MLOAD PUSH2 0x202B SWAP2 SWAP1 PUSH2 0x2485 JUMP JUMPDEST PUSH1 0x40 MLOAD DUP1 SWAP2 SUB SWAP1 LOG1 JUMP JUMPDEST PUSH1 0x2 PUSH0 SLOAD SUB PUSH2 0x2070 JUMPI PUSH1 0x40 MLOAD PUSH32 0x3EE5AEB500000000000000000000000000000000000000000000000000000000 DUP2 MSTORE PUSH1 0x4 ADD PUSH1 0x40 MLOAD DUP1 SWAP2 SUB SWAP1 REVERT JUMPDEST PUSH1 0x2 PUSH0 DUP2 SWAP1 SSTORE POP JUMP JUMPDEST PUSH1 0x1 PUSH0 DUP2 SWAP1 SSTORE POP JUMP JUMPDEST PUSH2 0x208A PUSH2 0x20E3 JUMP JUMPDEST PUSH1 0x1 DUP1 PUSH0 PUSH2 0x100 EXP DUP2 SLOAD DUP2 PUSH1 0xFF MUL NOT AND SWAP1 DUP4 ISZERO ISZERO MUL OR SWAP1 SSTORE POP PUSH32 0x62E78CEA01BEE320CD4E420270B5EA74000D11B0C9F74754EBDBFC544B05A258 PUSH2 0x20CC PUSH2 0x1EE3 JUMP JUMPDEST PUSH1 0x40 MLOAD PUSH2 0x20D9 SWAP2 SWAP1 PUSH2 0x2485 JUMP JUMPDEST PUSH1 0x40 MLOAD DUP1 SWAP2 SUB SWAP1 LOG1 JUMP JUMPDEST PUSH2 0x20EB PUSH2 0xDAD JUMP JUMPDEST ISZERO PUSH2 0x2122 JUMPI PUSH1 0x40 MLOAD PUSH32 0xD93C066500000000000000000000000000000000000000000000000000000000 DUP2 MSTORE PUSH1 0x4 ADD PUSH1 0x40 MLOAD DUP1 SWAP2 SUB SWAP1 REVERT JUMPDEST JUMP JUMPDEST PUSH2 0x212E DUP3 DUP3 PUSH2 0xE21 JUMP JUMPDEST PUSH2 0x2171 JUMPI DUP1 DUP3 PUSH1 0x40 MLOAD PUSH32 0xE2517D3F00000000000000000000000000000000000000000000000000000000 DUP2 MSTORE PUSH1 0x4 ADD PUSH2 0x2168 SWAP3 SWAP2 SWAP1 PUSH2 0x28DB JUMP JUMPDEST PUSH1 0x40 MLOAD DUP1 SWAP2 SUB SWAP1 REVERT JUMPDEST POP POP JUMP JUMPDEST PUSH2 0x217D PUSH2 0xDAD JUMP JUMPDEST PUSH2 0x21B3 JUMPI PUSH1 0x40 MLOAD PUSH32 0x8DFC202B00000000000000000000000000000000000000000000000000000000 DUP2 MSTORE PUSH1 0x4 ADD PUSH1 0x40 MLOAD DUP1 SWAP2 SUB SWAP1 REVERT JUMPDEST JUMP JUMPDEST PUSH0 DUP1 REVERT JUMPDEST PUSH0 PUSH32 0xFFFFFFFF00000000000000000000000000000000000000000000000000000000 DUP3 AND SWAP1 POP SWAP2 SWAP1 POP JUMP JUMPDEST PUSH2 0x21ED DUP2 PUSH2 0x21B9 JUMP JUMPDEST DUP2 EQ PUSH2 0x21F7 JUMPI PUSH0 DUP1 REVERT JUMPDEST POP JUMP JUMPDEST PUSH0 DUP2 CALLDATALOAD SWAP1 POP PUSH2 0x2208 DUP2 PUSH2 0x21E4 JUMP JUMPDEST SWAP3 SWAP2 POP POP JUMP JUMPDEST PUSH0 PUSH1 0x20 DUP3 DUP5 SUB SLT ISZERO PUSH2 0x2223 JUMPI PUSH2 0x2222 PUSH2 0x21B5 JUMP JUMPDEST JUMPDEST PUSH0 PUSH2 0x2230 DUP5 DUP3 DUP6 ADD PUSH2 0x21FA JUMP JUMPDEST SWAP2 POP POP SWAP3 SWAP2 POP POP JUMP JUMPDEST PUSH0 DUP2 ISZERO ISZERO SWAP1 POP SWAP2 SWAP1 POP JUMP JUMPDEST PUSH2 0x224D DUP2 PUSH2 0x2239 JUMP JUMPDEST DUP3 MSTORE POP POP JUMP JUMPDEST PUSH0 PUSH1 0x20 DUP3 ADD SWAP1 POP PUSH2 0x2266 PUSH0 DUP4 ADD DUP5 PUSH2 0x2244 JUMP JUMPDEST SWAP3 SWAP2 POP POP JUMP JUMPDEST PUSH0 DUP2 SWAP1 POP SWAP2 SWAP1 POP JUMP JUMPDEST PUSH2 0x227E DUP2 PUSH2 0x226C JUMP JUMPDEST DUP2 EQ PUSH2 0x2288 JUMPI PUSH0 DUP1 REVERT JUMPDEST POP JUMP JUMPDEST PUSH0 DUP2 CALLDATALOAD SWAP1 POP PUSH2 0x2299 DUP2 PUSH2 0x2275 JUMP JUMPDEST SWAP3 SWAP2 POP POP JUMP JUMPDEST PUSH0 PUSH1 0x20 DUP3 DUP5 SUB SLT ISZERO PUSH2 0x22B4 JUMPI PUSH2 0x22B3 PUSH2 0x21B5 JUMP JUMPDEST JUMPDEST PUSH0 PUSH2 0x22C1 DUP5 DUP3 DUP6 ADD PUSH2 0x228B JUMP JUMPDEST SWAP2 POP POP SWAP3 SWAP2 POP POP JUMP JUMPDEST PUSH2 0x22D3 DUP2 PUSH2 0x226C JUMP JUMPDEST DUP3 MSTORE POP POP JUMP JUMPDEST PUSH0 PUSH1 0x20 DUP3 ADD SWAP1 POP PUSH2 0x22EC PUSH0 DUP4 ADD DUP5 PUSH2 0x22CA JUMP JUMPDEST SWAP3 SWAP2 POP POP JUMP JUMPDEST PUSH0 DUP2 SWAP1 POP SWAP2 SWAP1 POP JUMP JUMPDEST PUSH2 0x2304 DUP2 PUSH2 0x22F2 JUMP JUMPDEST DUP3 MSTORE POP POP JUMP JUMPDEST PUSH0 PUSH1 0x20 DUP3 ADD SWAP1 POP PUSH2 0x231D PUSH0 DUP4 ADD DUP5 PUSH2 0x22FB JUMP JUMPDEST SWAP3 SWAP2 POP POP JUMP JUMPDEST PUSH0 PUSH20 0xFFFFFFFFFFFFFFFFFFFFFFFFFFFFFFFFFFFFFFFF DUP3 AND SWAP1 POP SWAP2 SWAP1 POP JUMP JUMPDEST PUSH0 PUSH2 0x234C DUP3 PUSH2 0x2323 JUMP JUMPDEST SWAP1 POP SWAP2 SWAP1 POP JUMP JUMPDEST PUSH2 0x235C DUP2 PUSH2 0x2342 JUMP JUMPDEST DUP2 EQ PUSH2 0x2366 JUMPI PUSH0 DUP1 REVERT JUMPDEST POP JUMP JUMPDEST PUSH0 DUP2 CALLDATALOAD SWAP1 POP PUSH2 0x2377 DUP2 PUSH2 0x2353 JUMP JUMPDEST SWAP3 SWAP2 POP POP JUMP JUMPDEST PUSH0 DUP1 PUSH1 0x40 DUP4 DUP6 SUB SLT ISZERO PUSH2 0x2393 JUMPI PUSH2 0x2392 PUSH2 0x21B5 JUMP JUMPDEST JUMPDEST PUSH0 PUSH2 0x23A0 DUP6 DUP3 DUP7 ADD PUSH2 0x228B JUMP JUMPDEST SWAP3 POP POP PUSH1 0x20 PUSH2 0x23B1 DUP6 DUP3 DUP7 ADD PUSH2 0x2369 JUMP JUMPDEST SWAP2 POP POP SWAP3 POP SWAP3 SWAP1 POP JUMP JUMPDEST PUSH2 0x23C4 DUP2 PUSH2 0x22F2 JUMP JUMPDEST DUP2 EQ PUSH2 0x23CE JUMPI PUSH0 DUP1 REVERT JUMPDEST POP JUMP JUMPDEST PUSH0 DUP2 CALLDATALOAD SWAP1 POP PUSH2 0x23DF DUP2 PUSH2 0x23BB JUMP JUMPDEST SWAP3 SWAP2 POP POP JUMP JUMPDEST PUSH0 PUSH1 0x20 DUP3 DUP5 SUB SLT ISZERO PUSH2 0x23FA JUMPI PUSH2 0x23F9 PUSH2 0x21B5 JUMP JUMPDEST JUMPDEST PUSH0 PUSH2 0x2407 DUP5 DUP3 DUP6 ADD PUSH2 0x23D1 JUMP JUMPDEST SWAP2 POP POP SWAP3 SWAP2 POP POP JUMP JUMPDEST PUSH0 PUSH1 0x20 DUP3 DUP5 SUB SLT ISZERO PUSH2 0x2425 JUMPI PUSH2 0x2424 PUSH2 0x21B5 JUMP JUMPDEST JUMPDEST PUSH0 PUSH2 0x2432 DUP5 DUP3 DUP6 ADD PUSH2 0x2369 JUMP JUMPDEST SWAP2 POP POP SWAP3 SWAP2 POP POP JUMP JUMPDEST PUSH0 PUSH8 0xFFFFFFFFFFFFFFFF DUP3 AND SWAP1 POP SWAP2 SWAP1 POP JUMP JUMPDEST PUSH2 0x2457 DUP2 PUSH2 0x243B JUMP JUMPDEST DUP3 MSTORE POP POP JUMP JUMPDEST PUSH0 PUSH1 0x20 DUP3 ADD SWAP1 POP PUSH2 0x2470 PUSH0 DUP4 ADD DUP5 PUSH2 0x244E JUMP JUMPDEST SWAP3 SWAP2 POP POP JUMP JUMPDEST PUSH2 0x247F DUP2 PUSH2 0x2342 JUMP JUMPDEST DUP3 MSTORE POP POP JUMP JUMPDEST PUSH0 PUSH1 0x20 DUP3 ADD SWAP1 POP PUSH2 0x2498 PUSH0 DUP4 ADD DUP5 PUSH2 0x2476 JUMP JUMPDEST SWAP3 SWAP2 POP POP JUMP JUMPDEST PUSH0 DUP1 PUSH1 0x40 DUP4 DUP6 SUB SLT ISZERO PUSH2 0x24B4 JUMPI PUSH2 0x24B3 PUSH2 0x21B5 JUMP JUMPDEST JUMPDEST PUSH0 PUSH2 0x24C1 DUP6 DUP3 DUP7 ADD PUSH2 0x23D1 JUMP JUMPDEST SWAP3 POP POP PUSH1 0x20 PUSH2 0x24D2 DUP6 DUP3 DUP7 ADD PUSH2 0x23D1 JUMP JUMPDEST SWAP2 POP POP SWAP3 POP SWAP3 SWAP1 POP JUMP JUMPDEST PUSH2 0x24E5 DUP2 PUSH2 0x243B JUMP JUMPDEST DUP2 EQ PUSH2 0x24EF JUMPI PUSH0 DUP1 REVERT JUMPDEST POP JUMP JUMPDEST PUSH0 DUP2 CALLDATALOAD SWAP1 POP PUSH2 0x2500 DUP2 PUSH2 0x24DC JUMP JUMPDEST SWAP3 SWAP2 POP POP JUMP JUMPDEST PUSH0 DUP1 PUSH1 0x40 DUP4 DUP6 SUB SLT ISZERO PUSH2 0x251C JUMPI PUSH2 0x251B PUSH2 0x21B5 JUMP JUMPDEST JUMPDEST PUSH0 PUSH2 0x2529 DUP6 DUP3 DUP7 ADD PUSH2 0x24F2 JUMP JUMPDEST SWAP3 POP POP PUSH1 0x20 PUSH2 0x253A DUP6 DUP3 DUP7 ADD PUSH2 0x24F2 JUMP JUMPDEST SWAP2 POP POP SWAP3 POP SWAP3 SWAP1 POP JUMP JUMPDEST PUSH0 PUSH2 0xFFFF DUP3 AND SWAP1 POP SWAP2 SWAP1 POP JUMP JUMPDEST PUSH2 0x255A DUP2 PUSH2 0x2544 JUMP JUMPDEST DUP3 MSTORE POP POP JUMP JUMPDEST PUSH0 PUSH1 0x20 DUP3 ADD SWAP1 POP PUSH2 0x2573 PUSH0 DUP4 ADD DUP5 PUSH2 0x2551 JUMP JUMPDEST SWAP3 SWAP2 POP POP JUMP JUMPDEST PUSH0 DUP2 SWAP1 POP SWAP2 SWAP1 POP JUMP JUMPDEST PUSH0 PUSH2 0x259C PUSH2 0x2597 PUSH2 0x2592 DUP5 PUSH2 0x2323 JUMP JUMPDEST PUSH2 0x2579 JUMP JUMPDEST PUSH2 0x2323 JUMP JUMPDEST SWAP1 POP SWAP2 SWAP1 POP JUMP JUMPDEST PUSH0 PUSH2 0x25AD DUP3 PUSH2 0x2582 JUMP JUMPDEST SWAP1 POP SWAP2 SWAP1 POP JUMP JUMPDEST PUSH0 PUSH2 0x25BE DUP3 PUSH2 0x25A3 JUMP JUMPDEST SWAP1 POP SWAP2 SWAP1 POP JUMP JUMPDEST PUSH2 0x25CE DUP2 PUSH2 0x25B4 JUMP JUMPDEST DUP3 MSTORE POP POP JUMP JUMPDEST PUSH0 PUSH1 0x20 DUP3 ADD SWAP1 POP PUSH2 0x25E7 PUSH0 DUP4 ADD DUP5 PUSH2 0x25C5 JUMP JUMPDEST SWAP3 SWAP2 POP POP JUMP JUMPDEST PUSH0 PUSH1 0x40 DUP3 ADD SWAP1 POP PUSH2 0x2600 PUSH0 DUP4 ADD DUP6 PUSH2 0x22FB JUMP JUMPDEST PUSH2 0x260D PUSH1 0x20 DUP4 ADD DUP5 PUSH2 0x22FB JUMP JUMPDEST SWAP4 SWAP3 POP POP POP JUMP JUMPDEST PUSH32 0x4E487B7100000000000000000000000000000000000000000000000000000000 PUSH0 MSTORE PUSH1 0x11 PUSH1 0x4 MSTORE PUSH1 0x24 PUSH0 REVERT JUMPDEST PUSH0 PUSH2 0x264B DUP3 PUSH2 0x22F2 JUMP JUMPDEST SWAP2 POP PUSH2 0x2656 DUP4 PUSH2 0x22F2 JUMP JUMPDEST SWAP3 POP DUP3 DUP3 MUL PUSH2 0x2664 DUP2 PUSH2 0x22F2 JUMP JUMPDEST SWAP2 POP DUP3 DUP3 DIV DUP5 EQ DUP4 ISZERO OR PUSH2 0x267B JUMPI PUSH2 0x267A PUSH2 0x2614 JUMP JUMPDEST JUMPDEST POP SWAP3 SWAP2 POP POP JUMP JUMPDEST PUSH32 0x4E487B7100000000000000000000000000000000000000000000000000000000 PUSH0 MSTORE PUSH1 0x12 PUSH1 0x4 MSTORE PUSH1 0x24 PUSH0 REVERT JUMPDEST PUSH0 PUSH2 0x26B9 DUP3 PUSH2 0x22F2 JUMP JUMPDEST SWAP2 POP PUSH2 0x26C4 DUP4 PUSH2 0x22F2 JUMP JUMPDEST SWAP3 POP DUP3 PUSH2 0x26D4 JUMPI PUSH2 0x26D3 PUSH2 0x2682 JUMP JUMPDEST JUMPDEST DUP3 DUP3 DIV SWAP1 POP SWAP3 SWAP2 POP POP JUMP JUMPDEST PUSH0 PUSH2 0x26E9 DUP3 PUSH2 0x22F2 JUMP JUMPDEST SWAP2 POP PUSH2 0x26F4 DUP4 PUSH2 0x22F2 JUMP JUMPDEST SWAP3 POP DUP3 DUP3 SUB SWAP1 POP DUP2 DUP2 GT ISZERO PUSH2 0x270C JUMPI PUSH2 0x270B PUSH2 0x2614 JUMP JUMPDEST JUMPDEST SWAP3 SWAP2 POP POP JUMP JUMPDEST PUSH0 PUSH1 0x40 DUP3 ADD SWAP1 POP PUSH2 0x2725 PUSH0 DUP4 ADD DUP6 PUSH2 0x2476 JUMP JUMPDEST PUSH2 0x2732 PUSH1 0x20 DUP4 ADD DUP5 PUSH2 0x22FB JUMP JUMPDEST SWAP4 SWAP3 POP POP POP JUMP JUMPDEST PUSH0 DUP2 SWAP1 POP SWAP3 SWAP2 POP POP JUMP JUMPDEST POP JUMP JUMPDEST PUSH0 PUSH2 0x2751 PUSH0 DUP4 PUSH2 0x2739 JUMP JUMPDEST SWAP2 POP PUSH2 0x275C DUP3 PUSH2 0x2743 JUMP JUMPDEST PUSH0 DUP3 ADD SWAP1 POP SWAP2 SWAP1 POP JUMP JUMPDEST PUSH0 PUSH2 0x2770 DUP3 PUSH2 0x2746 JUMP JUMPDEST SWAP2 POP DUP2 SWAP1 POP SWAP2 SWAP1 POP JUMP JUMPDEST PUSH0 DUP3 DUP3 MSTORE PUSH1 0x20 DUP3 ADD SWAP1 POP SWAP3 SWAP2 POP POP JUMP JUMPDEST PUSH32 0x526566756E64207472616E73666572206661696C656400000000000000000000 PUSH0 DUP3 ADD MSTORE POP JUMP JUMPDEST PUSH0 PUSH2 0x27BE PUSH1 0x16 DUP4 PUSH2 0x277A JUMP JUMPDEST SWAP2 POP PUSH2 0x27C9 DUP3 PUSH2 0x278A JUMP JUMPDEST PUSH1 0x20 DUP3 ADD SWAP1 POP SWAP2 SWAP1 POP JUMP JUMPDEST PUSH0 PUSH1 0x20 DUP3 ADD SWAP1 POP DUP2 DUP2 SUB PUSH0 DUP4 ADD MSTORE PUSH2 0x27EB DUP2 PUSH2 0x27B2 JUMP JUMPDEST SWAP1 POP SWAP2 SWAP1 POP JUMP JUMPDEST PUSH0 PUSH1 0x40 DUP3 ADD SWAP1 POP PUSH2 0x2805 PUSH0 DUP4 ADD DUP6 PUSH2 0x2476 JUMP JUMPDEST PUSH2 0x2812 PUSH1 0x20 DUP4 ADD DUP5 PUSH2 0x2476 JUMP JUMPDEST SWAP4 SWAP3 POP POP POP JUMP JUMPDEST PUSH32 0x5769746864726177206661696C65640000000000000000000000000000000000 PUSH0 DUP3 ADD MSTORE POP JUMP JUMPDEST PUSH0 PUSH2 0x284D PUSH1 0xF DUP4 PUSH2 0x277A JUMP JUMPDEST SWAP2 POP PUSH2 0x2858 DUP3 PUSH2 0x2819 JUMP JUMPDEST PUSH1 0x20 DUP3 ADD SWAP1 POP SWAP2 SWAP1 POP JUMP JUMPDEST PUSH0 PUSH1 0x20 DUP3 ADD SWAP1 POP DUP2 DUP2 SUB PUSH0 DUP4 ADD MSTORE PUSH2 0x287A DUP2 PUSH2 0x2841 JUMP JUMPDEST SWAP1 POP SWAP2 SWAP1 POP JUMP JUMPDEST PUSH0 PUSH1 0x40 DUP3 ADD SWAP1 POP PUSH2 0x2894 PUSH0 DUP4 ADD DUP6 PUSH2 0x244E JUMP JUMPDEST PUSH2 0x28A1 PUSH1 0x20 DUP4 ADD DUP5 PUSH2 0x244E JUMP JUMPDEST SWAP4 SWAP3 POP POP POP JUMP JUMPDEST PUSH0 PUSH2 0x28B2 DUP3 PUSH2 0x22F2 JUMP JUMPDEST SWAP2 POP PUSH2 0x28BD DUP4 PUSH2 0x22F2 JUMP JUMPDEST SWAP3 POP DUP3 DUP3 ADD SWAP1 POP DUP1 DUP3 GT ISZERO PUSH2 0x28D5 JUMPI PUSH2 0x28D4 PUSH2 0x2614 JUMP JUMPDEST JUMPDEST SWAP3 SWAP2 POP POP JUMP JUMPDEST PUSH0 PUSH1 0x40 DUP3 ADD SWAP1 POP PUSH2 0x28EE PUSH0 DUP4 ADD DUP6 PUSH2 0x2476 JUMP JUMPDEST PUSH2 0x28FB PUSH1 0x20 DUP4 ADD DUP5 PUSH2 0x22CA JUMP JUMPDEST SWAP4 SWAP3 POP POP POP JUMP INVALID LOG2 PUSH5 0x6970667358 0x22 SLT KECCAK256 INVALID 0xA7 0xCF BLOBHASH 0x22 CALLVALUE SGT DUP7 PUSH28 0x3550A9A7904A00D0313234FC3153C727174863E1745AF064736F6C63 NUMBER STOP ADDMOD BYTE STOP CALLER "
		},
		"gasEstimates": {
			"creation": {
				"codeDepositCost": "2110400",
				"executionCost": "infinite",
				"totalCost": "infinite"
			},
			"external": {
				"CONFIG_ROLE()": "415",
				"DEFAULT_ADMIN_ROLE()": "398",
				"PAUSER_ROLE()": "436",
				"allocated(address)": "2914",
				"buyTokens(address)": "infinite",
				"claimRefund()": "infinite",
				"claimTGE()": "infinite",
				"closingTime()": "2563",
				"contributed(address)": "2935",
				"finalize()": "infinite",
				"finalized()": "2600",
				"getRoleAdmin(bytes32)": "infinite",
				"grantRole(bytes32,address)": "infinite",
				"hardCap()": "infinite",
				"hasRole(bytes32,address)": "3233",
				"isClosed()": "infinite",
				"isOpen()": "infinite",
				"maxContribution()": "2492",
				"minContribution()": "2537",
				"openingTime()": "2533",
				"pause()": "infinite",
				"paused()": "2607",
				"rate()": "2516",
				"refunding()": "2583",
				"renounceRole(bytes32,address)": "infinite",
				"revokeRole(bytes32,address)": "infinite",
				"setLimits(uint256,uint256)": "infinite",
				"setRate(uint256)": "infinite",
				"setTimes(uint64,uint64)": "infinite",
				"setWallet(address)": "infinite",
				"softCap()": "infinite",
				"supportsInterface(bytes4)": "764",
				"tgeBps()": "infinite",
				"tgeClaimed(address)": "2891",
				"token()": "infinite",
				"tokensSold()": "2515",
				"unpause()": "infinite",
				"wallet()": "2620",
				"weiRaised()": "2515",
				"withdrawETH()": "infinite"
			}
		},
		"methodIdentifiers": {
			"CONFIG_ROLE()": "a4d19feb",
			"DEFAULT_ADMIN_ROLE()": "a217fddf",
			"PAUSER_ROLE()": "e63ab1e9",
			"allocated(address)": "4225e5bb",
			"buyTokens(address)": "ec8ac4d8",
			"claimRefund()": "b5545a3c",
			"claimTGE()": "9b8c1fed",
			"closingTime()": "4b6753bc",
			"contributed(address)": "995c5e9d",
			"finalize()": "4bb278f3",
			"finalized()": "b3f05b97",
			"getRoleAdmin(bytes32)": "248a9ca3",
			"grantRole(bytes32,address)": "2f2ff15d",
			"hardCap()": "fb86a404",
			"hasRole(bytes32,address)": "91d14854",
			"isClosed()": "c2b6b58c",
			"isOpen()": "47535d7b",
			"maxContribution()": "8d3d6576",
			"minContribution()": "aaffadf3",
			"openingTime()": "b7a8807c",
			"pause()": "8456cb59",
			"paused()": "5c975abb",
			"rate()": "2c4e722e",
			"refunding()": "f43e98c7",
			"renounceRole(bytes32,address)": "36568abe",
			"revokeRole(bytes32,address)": "d547741f",
			"setLimits(uint256,uint256)": "c4590d3f",
			"setRate(uint256)": "34fcf437",
			"setTimes(uint64,uint64)": "eb3b3fe6",
			"setWallet(address)": "deaa59df",
			"softCap()": "906a26e0",
			"supportsInterface(bytes4)": "01ffc9a7",
			"tgeBps()": "f49e2514",
			"tgeClaimed(address)": "be68d17a",
			"token()": "fc0c546a",
			"tokensSold()": "518ab2a8",
			"unpause()": "3f4ba83a",
			"wallet()": "521eb273",
			"weiRaised()": "4042b66f",
			"withdrawETH()": "e086e5ec"
		}
	},
	"abi": [
		{
			"inputs": [
				{
					"internalType": "address",
					"name": "token_",
					"type": "address"
				},
				{
					"internalType": "address",
					"name": "wallet_",
					"type": "address"
				},
				{
					"internalType": "uint256",
					"name": "rate_",
					"type": "uint256"
				},
				{
					"internalType": "uint256",
					"name": "softCap_",
					"type": "uint256"
				},
				{
					"internalType": "uint256",
					"name": "hardCap_",
					"type": "uint256"
				},
				{
					"internalType": "uint64",
					"name": "openingTime_",
					"type": "uint64"
				},
				{
					"internalType": "uint64",
					"name": "closingTime_",
					"type": "uint64"
				},
				{
					"internalType": "uint256",
					"name": "minContribution_",
					"type": "uint256"
				},
				{
					"internalType": "uint256",
					"name": "maxContribution_",
					"type": "uint256"
				},
				{
					"internalType": "uint16",
					"name": "tgeBps_",
					"type": "uint16"
				},
				{
					"internalType": "address",
					"name": "admin_",
					"type": "address"
				}
			],
			"stateMutability": "nonpayable",
			"type": "constructor"
		},
		{
			"inputs": [],
			"name": "AccessControlBadConfirmation",
			"type": "error"
		},
		{
			"inputs": [
				{
					"internalType": "address",
					"name": "account",
					"type": "address"
				},
				{
					"internalType": "bytes32",
					"name": "neededRole",
					"type": "bytes32"
				}
			],
			"name": "AccessControlUnauthorizedAccount",
			"type": "error"
		},
		{
			"inputs": [],
			"name": "AlreadyFinalized",
			"type": "error"
		},
		{
			"inputs": [],
			"name": "CapExceeded",
			"type": "error"
		},
		{
			"inputs": [],
			"name": "EnforcedPause",
			"type": "error"
		},
		{
			"inputs": [],
			"name": "ExpectedPause",
			"type": "error"
		},
		{
			"inputs": [],
			"name": "InvalidParams",
			"type": "error"
		},
		{
			"inputs": [],
			"name": "MinMaxViolation",
			"type": "error"
		},
		{
			"inputs": [],
			"name": "NothingToClaim",
			"type": "error"
		},
		{
			"inputs": [],
			"name": "ReentrancyGuardReentrantCall",
			"type": "error"
		},
		{
			"inputs": [],
			"name": "RefundsNotEnabled",
			"type": "error"
		},
		{
			"inputs": [],
			"name": "SaleNotClosed",
			"type": "error"
		},
		{
			"inputs": [],
			"name": "SaleNotOpen",
			"type": "error"
		},
		{
			"inputs": [],
			"name": "SoftCapNotReached",
			"type": "error"
		},
		{
			"inputs": [],
			"name": "ZeroAddress",
			"type": "error"
		},
		{
			"anonymous": false,
			"inputs": [
				{
					"indexed": false,
					"internalType": "bool",
					"name": "success",
					"type": "bool"
				}
			],
			"name": "Finalized",
			"type": "event"
		},
		{
			"anonymous": false,
			"inputs": [
				{
					"indexed": false,
					"internalType": "uint256",
					"name": "minContribution",
					"type": "uint256"
				},
				{
					"indexed": false,
					"internalType": "uint256",
					"name": "maxContribution",
					"type": "uint256"
				}
			],
			"name": "LimitsUpdated",
			"type": "event"
		},
		{
			"anonymous": false,
			"inputs": [
				{
					"indexed": false,
					"internalType": "address",
					"name": "account",
					"type": "address"
				}
			],
			"name": "Paused",
			"type": "event"
		},
		{
			"anonymous": false,
			"inputs": [
				{
					"indexed": false,
					"internalType": "uint256",
					"name": "oldRate",
					"type": "uint256"
				},
				{
					"indexed": false,
					"internalType": "uint256",
					"name": "newRate",
					"type": "uint256"
				}
			],
			"name": "RateUpdated",
			"type": "event"
		},
		{
			"anonymous": false,
			"inputs": [
				{
					"indexed": true,
					"internalType": "address",
					"name": "beneficiary",
					"type": "address"
				},
				{
					"indexed": false,
					"internalType": "uint256",
					"name": "valueETH",
					"type": "uint256"
				}
			],
			"name": "Refunded",
			"type": "event"
		},
		{
			"anonymous": false,
			"inputs": [],
			"name": "RefundsEnabled",
			"type": "event"
		},
		{
			"anonymous": false,
			"inputs": [
				{
					"indexed": true,
					"internalType": "bytes32",
					"name": "role",
					"type": "bytes32"
				},
				{
					"indexed": true,
					"internalType": "bytes32",
					"name": "previousAdminRole",
					"type": "bytes32"
				},
				{
					"indexed": true,
					"internalType": "bytes32",
					"name": "newAdminRole",
					"type": "bytes32"
				}
			],
			"name": "RoleAdminChanged",
			"type": "event"
		},
		{
			"anonymous": false,
			"inputs": [
				{
					"indexed": true,
					"internalType": "bytes32",
					"name": "role",
					"type": "bytes32"
				},
				{
					"indexed": true,
					"internalType": "address",
					"name": "account",
					"type": "address"
				},
				{
					"indexed": true,
					"internalType": "address",
					"name": "sender",
					"type": "address"
				}
			],
			"name": "RoleGranted",
			"type": "event"
		},
		{
			"anonymous": false,
			"inputs": [
				{
					"indexed": true,
					"internalType": "bytes32",
					"name": "role",
					"type": "bytes32"
				},
				{
					"indexed": true,
					"internalType": "address",
					"name": "account",
					"type": "address"
				},
				{
					"indexed": true,
					"internalType": "address",
					"name": "sender",
					"type": "address"
				}
			],
			"name": "RoleRevoked",
			"type": "event"
		},
		{
			"anonymous": false,
			"inputs": [
				{
					"indexed": true,
					"internalType": "address",
					"name": "beneficiary",
					"type": "address"
				},
				{
					"indexed": false,
					"internalType": "uint256",
					"name": "amountJFV",
					"type": "uint256"
				}
			],
			"name": "TGEClaimed",
			"type": "event"
		},
		{
			"anonymous": false,
			"inputs": [
				{
					"indexed": false,
					"internalType": "uint64",
					"name": "openingTime",
					"type": "uint64"
				},
				{
					"indexed": false,
					"internalType": "uint64",
					"name": "closingTime",
					"type": "uint64"
				}
			],
			"name": "TimesUpdated",
			"type": "event"
		},
		{
			"anonymous": false,
			"inputs": [
				{
					"indexed": true,
					"internalType": "address",
					"name": "buyer",
					"type": "address"
				},
				{
					"indexed": true,
					"internalType": "address",
					"name": "beneficiary",
					"type": "address"
				},
				{
					"indexed": false,
					"internalType": "uint256",
					"name": "valueETH",
					"type": "uint256"
				},
				{
					"indexed": false,
					"internalType": "uint256",
					"name": "amountJFV",
					"type": "uint256"
				}
			],
			"name": "TokensPurchased",
			"type": "event"
		},
		{
			"anonymous": false,
			"inputs": [
				{
					"indexed": false,
					"internalType": "address",
					"name": "account",
					"type": "address"
				}
			],
			"name": "Unpaused",
			"type": "event"
		},
		{
			"anonymous": false,
			"inputs": [
				{
					"indexed": false,
					"internalType": "address",
					"name": "oldWallet",
					"type": "address"
				},
				{
					"indexed": false,
					"internalType": "address",
					"name": "newWallet",
					"type": "address"
				}
			],
			"name": "WalletUpdated",
			"type": "event"
		},
		{
			"inputs": [],
			"name": "CONFIG_ROLE",
			"outputs": [
				{
					"internalType": "bytes32",
					"name": "",
					"type": "bytes32"
				}
			],
			"stateMutability": "view",
			"type": "function"
		},
		{
			"inputs": [],
			"name": "DEFAULT_ADMIN_ROLE",
			"outputs": [
				{
					"internalType": "bytes32",
					"name": "",
					"type": "bytes32"
				}
			],
			"stateMutability": "view",
			"type": "function"
		},
		{
			"inputs": [],
			"name": "PAUSER_ROLE",
			"outputs": [
				{
					"internalType": "bytes32",
					"name": "",
					"type": "bytes32"
				}
			],
			"stateMutability": "view",
			"type": "function"
		},
		{
			"inputs": [
				{
					"internalType": "address",
					"name": "",
					"type": "address"
				}
			],
			"name": "allocated",
			"outputs": [
				{
					"internalType": "uint256",
					"name": "",
					"type": "uint256"
				}
			],
			"stateMutability": "view",
			"type": "function"
		},
		{
			"inputs": [
				{
					"internalType": "address",
					"name": "beneficiary",
					"type": "address"
				}
			],
			"name": "buyTokens",
			"outputs": [],
			"stateMutability": "payable",
			"type": "function"
		},
		{
			"inputs": [],
			"name": "claimRefund",
			"outputs": [],
			"stateMutability": "nonpayable",
			"type": "function"
		},
		{
			"inputs": [],
			"name": "claimTGE",
			"outputs": [],
			"stateMutability": "nonpayable",
			"type": "function"
		},
		{
			"inputs": [],
			"name": "closingTime",
			"outputs": [
				{
					"internalType": "uint64",
					"name": "",
					"type": "uint64"
				}
			],
			"stateMutability": "view",
			"type": "function"
		},
		{
			"inputs": [
				{
					"internalType": "address",
					"name": "",
					"type": "address"
				}
			],
			"name": "contributed",
			"outputs": [
				{
					"internalType": "uint256",
					"name": "",
					"type": "uint256"
				}
			],
			"stateMutability": "view",
			"type": "function"
		},
		{
			"inputs": [],
			"name": "finalize",
			"outputs": [],
			"stateMutability": "nonpayable",
			"type": "function"
		},
		{
			"inputs": [],
			"name": "finalized",
			"outputs": [
				{
					"internalType": "bool",
					"name": "",
					"type": "bool"
				}
			],
			"stateMutability": "view",
			"type": "function"
		},
		{
			"inputs": [
				{
					"internalType": "bytes32",
					"name": "role",
					"type": "bytes32"
				}
			],
			"name": "getRoleAdmin",
			"outputs": [
				{
					"internalType": "bytes32",
					"name": "",
					"type": "bytes32"
				}
			],
			"stateMutability": "view",
			"type": "function"
		},
		{
			"inputs": [
				{
					"internalType": "bytes32",
					"name": "role",
					"type": "bytes32"
				},
				{
					"internalType": "address",
					"name": "account",
					"type": "address"
				}
			],
			"name": "grantRole",
			"outputs": [],
			"stateMutability": "nonpayable",
			"type": "function"
		},
		{
			"inputs": [],
			"name": "hardCap",
			"outputs": [
				{
					"internalType": "uint256",
					"name": "",
					"type": "uint256"
				}
			],
			"stateMutability": "view",
			"type": "function"
		},
		{
			"inputs": [
				{
					"internalType": "bytes32",
					"name": "role",
					"type": "bytes32"
				},
				{
					"internalType": "address",
					"name": "account",
					"type": "address"
				}
			],
			"name": "hasRole",
			"outputs": [
				{
					"internalType": "bool",
					"name": "",
					"type": "bool"
				}
			],
			"stateMutability": "view",
			"type": "function"
		},
		{
			"inputs": [],
			"name": "isClosed",
			"outputs": [
				{
					"internalType": "bool",
					"name": "",
					"type": "bool"
				}
			],
			"stateMutability": "view",
			"type": "function"
		},
		{
			"inputs": [],
			"name": "isOpen",
			"outputs": [
				{
					"internalType": "bool",
					"name": "",
					"type": "bool"
				}
			],
			"stateMutability": "view",
			"type": "function"
		},
		{
			"inputs": [],
			"name": "maxContribution",
			"outputs": [
				{
					"internalType": "uint256",
					"name": "",
					"type": "uint256"
				}
			],
			"stateMutability": "view",
			"type": "function"
		},
		{
			"inputs": [],
			"name": "minContribution",
			"outputs": [
				{
					"internalType": "uint256",
					"name": "",
					"type": "uint256"
				}
			],
			"stateMutability": "view",
			"type": "function"
		},
		{
			"inputs": [],
			"name": "openingTime",
			"outputs": [
				{
					"internalType": "uint64",
					"name": "",
					"type": "uint64"
				}
			],
			"stateMutability": "view",
			"type": "function"
		},
		{
			"inputs": [],
			"name": "pause",
			"outputs": [],
			"stateMutability": "nonpayable",
			"type": "function"
		},
		{
			"inputs": [],
			"name": "paused",
			"outputs": [
				{
					"internalType": "bool",
					"name": "",
					"type": "bool"
				}
			],
			"stateMutability": "view",
			"type": "function"
		},
		{
			"inputs": [],
			"name": "rate",
			"outputs": [
				{
					"internalType": "uint256",
					"name": "",
					"type": "uint256"
				}
			],
			"stateMutability": "view",
			"type": "function"
		},
		{
			"inputs": [],
			"name": "refunding",
			"outputs": [
				{
					"internalType": "bool",
					"name": "",
					"type": "bool"
				}
			],
			"stateMutability": "view",
			"type": "function"
		},
		{
			"inputs": [
				{
					"internalType": "bytes32",
					"name": "role",
					"type": "bytes32"
				},
				{
					"internalType": "address",
					"name": "callerConfirmation",
					"type": "address"
				}
			],
			"name": "renounceRole",
			"outputs": [],
			"stateMutability": "nonpayable",
			"type": "function"
		},
		{
			"inputs": [
				{
					"internalType": "bytes32",
					"name": "role",
					"type": "bytes32"
				},
				{
					"internalType": "address",
					"name": "account",
					"type": "address"
				}
			],
			"name": "revokeRole",
			"outputs": [],
			"stateMutability": "nonpayable",
			"type": "function"
		},
		{
			"inputs": [
				{
					"internalType": "uint256",
					"name": "newMin",
					"type": "uint256"
				},
				{
					"internalType": "uint256",
					"name": "newMax",
					"type": "uint256"
				}
			],
			"name": "setLimits",
			"outputs": [],
			"stateMutability": "nonpayable",
			"type": "function"
		},
		{
			"inputs": [
				{
					"internalType": "uint256",
					"name": "newRate",
					"type": "uint256"
				}
			],
			"name": "setRate",
			"outputs": [],
			"stateMutability": "nonpayable",
			"type": "function"
		},
		{
			"inputs": [
				{
					"internalType": "uint64",
					"name": "newOpen",
					"type": "uint64"
				},
				{
					"internalType": "uint64",
					"name": "newClose",
					"type": "uint64"
				}
			],
			"name": "setTimes",
			"outputs": [],
			"stateMutability": "nonpayable",
			"type": "function"
		},
		{
			"inputs": [
				{
					"internalType": "address",
					"name": "newWallet",
					"type": "address"
				}
			],
			"name": "setWallet",
			"outputs": [],
			"stateMutability": "nonpayable",
			"type": "function"
		},
		{
			"inputs": [],
			"name": "softCap",
			"outputs": [
				{
					"internalType": "uint256",
					"name": "",
					"type": "uint256"
				}
			],
			"stateMutability": "view",
			"type": "function"
		},
		{
			"inputs": [
				{
					"internalType": "bytes4",
					"name": "interfaceId",
					"type": "bytes4"
				}
			],
			"name": "supportsInterface",
			"outputs": [
				{
					"internalType": "bool",
					"name": "",
					"type": "bool"
				}
			],
			"stateMutability": "view",
			"type": "function"
		},
		{
			"inputs": [],
			"name": "tgeBps",
			"outputs": [
				{
					"internalType": "uint16",
					"name": "",
					"type": "uint16"
				}
			],
			"stateMutability": "view",
			"type": "function"
		},
		{
			"inputs": [
				{
					"internalType": "address",
					"name": "",
					"type": "address"
				}
			],
			"name": "tgeClaimed",
			"outputs": [
				{
					"internalType": "uint256",
					"name": "",
					"type": "uint256"
				}
			],
			"stateMutability": "view",
			"type": "function"
		},
		{
			"inputs": [],
			"name": "token",
			"outputs": [
				{
					"internalType": "contract IJFVToken",
					"name": "",
					"type": "address"
				}
			],
			"stateMutability": "view",
			"type": "function"
		},
		{
			"inputs": [],
			"name": "tokensSold",
			"outputs": [
				{
					"internalType": "uint256",
					"name": "",
					"type": "uint256"
				}
			],
			"stateMutability": "view",
			"type": "function"
		},
		{
			"inputs": [],
			"name": "unpause",
			"outputs": [],
			"stateMutability": "nonpayable",
			"type": "function"
		},
		{
			"inputs": [],
			"name": "wallet",
			"outputs": [
				{
					"internalType": "address",
					"name": "",
					"type": "address"
				}
			],
			"stateMutability": "view",
			"type": "function"
		},
		{
			"inputs": [],
			"name": "weiRaised",
			"outputs": [
				{
					"internalType": "uint256",
					"name": "",
					"type": "uint256"
				}
			],
			"stateMutability": "view",
			"type": "function"
		},
		{
			"inputs": [],
			"name": "withdrawETH",
			"outputs": [],
			"stateMutability": "nonpayable",
			"type": "function"
		},
		{
			"stateMutability": "payable",
			"type": "receive"
		}
	]
}