{
	"data": {
		"bytecode": {
			"linkReferences": {},
			"object": "6080604052348015600e575f80fd5b506104028061001c5f395ff3fe60806040526004361061002c575f3560e01c80630331f5d614610035578063273884bd1461005157610033565b3661003357005b005b61004f600480360381019061004a9190610203565b610067565b005b34801561005c575f80fd5b506100656101a3565b005b5f34116100a9576040517f08c379a00000000000000000000000000000000000000000000000000000000081526004016100a0906102ae565b60405180910390fd5b5f8173ffffffffffffffffffffffffffffffffffffffff16346040516100ce906102f9565b5f6040518083038185875af1925050503d805f8114610108576040519150601f19603f3d011682016040523d82523d5f602084013e61010d565b606091505b5050905080610151576040517f08c379a00000000000000000000000000000000000000000000000000000000081526004016101489061037d565b60405180910390fd5b8173ffffffffffffffffffffffffffffffffffffffff167fc13de8dbde5cecd7d276689a7282503db7a7af21acd1b93f81acbb5e1f4244313460405161019791906103b3565b60405180910390a25050565b565b5f80fd5b5f73ffffffffffffffffffffffffffffffffffffffff82169050919050565b5f6101d2826101a9565b9050919050565b6101e2816101c8565b81146101ec575f80fd5b50565b5f813590506101fd816101d9565b92915050565b5f60208284031215610218576102176101a5565b5b5f610225848285016101ef565b91505092915050565b5f82825260208201905092915050565b7f446562657320656e7669617220616c67756e612063616e7469646164206465205f8201527f45746865722e0000000000000000000000000000000000000000000000000000602082015250565b5f61029860268361022e565b91506102a38261023e565b604082019050919050565b5f6020820190508181035f8301526102c58161028c565b9050919050565b5f81905092915050565b50565b5f6102e45f836102cc565b91506102ef826102d6565b5f82019050919050565b5f610303826102d9565b9150819050919050565b7f4c61207472616e73666572656e6369612064652045746865722068612066616c5f8201527f6c61646f2e000000000000000000000000000000000000000000000000000000602082015250565b5f61036760258361022e565b91506103728261030d565b604082019050919050565b5f6020820190508181035f8301526103948161035b565b9050919050565b5f819050919050565b6103ad8161039b565b82525050565b5f6020820190506103c65f8301846103a4565b9291505056fea2646970667358221220921b9c52591a649f6a536d4ce15edc8575a27a152b3ee844b41dece231004e4e64736f6c634300081a0033",
			"opcodes": "PUSH1 0x80 PUSH1 0x40 MSTORE CALLVALUE DUP1 ISZERO PUSH1 0xE JUMPI PUSH0 DUP1 REVERT JUMPDEST POP PUSH2 0x402 DUP1 PUSH2 0x1C PUSH0 CODECOPY PUSH0 RETURN INVALID PUSH1 0x80 PUSH1 0x40 MSTORE PUSH1 0x4 CALLDATASIZE LT PUSH2 0x2C JUMPI PUSH0 CALLDATALOAD PUSH1 0xE0 SHR DUP1 PUSH4 0x331F5D6 EQ PUSH2 0x35 JUMPI DUP1 PUSH4 0x273884BD EQ PUSH2 0x51 JUMPI PUSH2 0x33 JUMP JUMPDEST CALLDATASIZE PUSH2 0x33 JUMPI STOP JUMPDEST STOP JUMPDEST PUSH2 0x4F PUSH1 0x4 DUP1 CALLDATASIZE SUB DUP2 ADD SWAP1 PUSH2 0x4A SWAP2 SWAP1 PUSH2 0x203 JUMP JUMPDEST PUSH2 0x67 JUMP JUMPDEST STOP JUMPDEST CALLVALUE DUP1 ISZERO PUSH2 0x5C JUMPI PUSH0 DUP1 REVERT JUMPDEST POP PUSH2 0x65 PUSH2 0x1A3 JUMP JUMPDEST STOP JUMPDEST PUSH0 CALLVALUE GT PUSH2 0xA9 JUMPI PUSH1 0x40 MLOAD PUSH32 0x8C379A000000000000000000000000000000000000000000000000000000000 DUP2 MSTORE PUSH1 0x4 ADD PUSH2 0xA0 SWAP1 PUSH2 0x2AE JUMP JUMPDEST PUSH1 0x40 MLOAD DUP1 SWAP2 SUB SWAP1 REVERT JUMPDEST PUSH0 DUP2 PUSH20 0xFFFFFFFFFFFFFFFFFFFFFFFFFFFFFFFFFFFFFFFF AND CALLVALUE PUSH1 0x40 MLOAD PUSH2 0xCE SWAP1 PUSH2 0x2F9 JUMP JUMPDEST PUSH0 PUSH1 0x40 MLOAD DUP1 DUP4 SUB DUP2 DUP6 DUP8 GAS CALL SWAP3 POP POP POP RETURNDATASIZE DUP1 PUSH0 DUP2 EQ PUSH2 0x108 JUMPI PUSH1 0x40 MLOAD SWAP2 POP PUSH1 0x1F NOT PUSH1 0x3F RETURNDATASIZE ADD AND DUP3 ADD PUSH1 0x40 MSTORE RETURNDATASIZE DUP3 MSTORE RETURNDATASIZE PUSH0 PUSH1 0x20 DUP5 ADD RETURNDATACOPY PUSH2 0x10D JUMP JUMPDEST PUSH1 0x60 SWAP2 POP JUMPDEST POP POP SWAP1 POP DUP1 PUSH2 0x151 JUMPI PUSH1 0x40 MLOAD PUSH32 0x8C379A000000000000000000000000000000000000000000000000000000000 DUP2 MSTORE PUSH1 0x4 ADD PUSH2 0x148 SWAP1 PUSH2 0x37D JUMP JUMPDEST PUSH1 0x40 MLOAD DUP1 SWAP2 SUB SWAP1 REVERT JUMPDEST DUP2 PUSH20 0xFFFFFFFFFFFFFFFFFFFFFFFFFFFFFFFFFFFFFFFF AND PUSH32 0xC13DE8DBDE5CECD7D276689A7282503DB7A7AF21ACD1B93F81ACBB5E1F424431 CALLVALUE PUSH1 0x40 MLOAD PUSH2 0x197 SWAP2 SWAP1 PUSH2 0x3B3 JUMP JUMPDEST PUSH1 0x40 MLOAD DUP1 SWAP2 SUB SWAP1 LOG2 POP POP JUMP JUMPDEST JUMP JUMPDEST PUSH0 DUP1 REVERT JUMPDEST PUSH0 PUSH20 0xFFFFFFFFFFFFFFFFFFFFFFFFFFFFFFFFFFFFFFFF DUP3 AND SWAP1 POP SWAP2 SWAP1 POP JUMP JUMPDEST PUSH0 PUSH2 0x1D2 DUP3 PUSH2 0x1A9 JUMP JUMPDEST SWAP1 POP SWAP2 SWAP1 POP JUMP JUMPDEST PUSH2 0x1E2 DUP2 PUSH2 0x1C8 JUMP JUMPDEST DUP2 EQ PUSH2 0x1EC JUMPI PUSH0 DUP1 REVERT JUMPDEST POP JUMP JUMPDEST PUSH0 DUP2 CALLDATALOAD SWAP1 POP PUSH2 0x1FD DUP2 PUSH2 0x1D9 JUMP JUMPDEST SWAP3 SWAP2 POP POP JUMP JUMPDEST PUSH0 PUSH1 0x20 DUP3 DUP5 SUB SLT ISZERO PUSH2 0x218 JUMPI PUSH2 0x217 PUSH2 0x1A5 JUMP JUMPDEST JUMPDEST PUSH0 PUSH2 0x225 DUP5 DUP3 DUP6 ADD PUSH2 0x1EF JUMP JUMPDEST SWAP2 POP POP SWAP3 SWAP2 POP POP JUMP JUMPDEST PUSH0 DUP3 DUP3 MSTORE PUSH1 0x20 DUP3 ADD SWAP1 POP SWAP3 SWAP2 POP POP JUMP JUMPDEST PUSH32 0x446562657320656E7669617220616C67756E612063616E746964616420646520 PUSH0 DUP3 ADD MSTORE PUSH32 0x45746865722E0000000000000000000000000000000000000000000000000000 PUSH1 0x20 DUP3 ADD MSTORE POP JUMP JUMPDEST PUSH0 PUSH2 0x298 PUSH1 0x26 DUP4 PUSH2 0x22E JUMP JUMPDEST SWAP2 POP PUSH2 0x2A3 DUP3 PUSH2 0x23E JUMP JUMPDEST PUSH1 0x40 DUP3 ADD SWAP1 POP SWAP2 SWAP1 POP JUMP JUMPDEST PUSH0 PUSH1 0x20 DUP3 ADD SWAP1 POP DUP2 DUP2 SUB PUSH0 DUP4 ADD MSTORE PUSH2 0x2C5 DUP2 PUSH2 0x28C JUMP JUMPDEST SWAP1 POP SWAP2 SWAP1 POP JUMP JUMPDEST PUSH0 DUP2 SWAP1 POP SWAP3 SWAP2 POP POP JUMP JUMPDEST POP JUMP JUMPDEST PUSH0 PUSH2 0x2E4 PUSH0 DUP4 PUSH2 0x2CC JUMP JUMPDEST SWAP2 POP PUSH2 0x2EF DUP3 PUSH2 0x2D6 JUMP JUMPDEST PUSH0 DUP3 ADD SWAP1 POP SWAP2 SWAP1 POP JUMP JUMPDEST PUSH0 PUSH2 0x303 DUP3 PUSH2 0x2D9 JUMP JUMPDEST SWAP2 POP DUP2 SWAP1 POP SWAP2 SWAP1 POP JUMP JUMPDEST PUSH32 0x4C61207472616E73666572656E6369612064652045746865722068612066616C PUSH0 DUP3 ADD MSTORE PUSH32 0x6C61646F2E000000000000000000000000000000000000000000000000000000 PUSH1 0x20 DUP3 ADD MSTORE POP JUMP JUMPDEST PUSH0 PUSH2 0x367 PUSH1 0x25 DUP4 PUSH2 0x22E JUMP JUMPDEST SWAP2 POP PUSH2 0x372 DUP3 PUSH2 0x30D JUMP JUMPDEST PUSH1 0x40 DUP3 ADD SWAP1 POP SWAP2 SWAP1 POP JUMP JUMPDEST PUSH0 PUSH1 0x20 DUP3 ADD SWAP1 POP DUP2 DUP2 SUB PUSH0 DUP4 ADD MSTORE PUSH2 0x394 DUP2 PUSH2 0x35B JUMP JUMPDEST SWAP1 POP SWAP2 SWAP1 POP JUMP JUMPDEST PUSH0 DUP2 SWAP1 POP SWAP2 SWAP1 POP JUMP JUMPDEST PUSH2 0x3AD DUP2 PUSH2 0x39B JUMP JUMPDEST DUP3 MSTORE POP POP JUMP JUMPDEST PUSH0 PUSH1 0x20 DUP3 ADD SWAP1 POP PUSH2 0x3C6 PUSH0 DUP4 ADD DUP5 PUSH2 0x3A4 JUMP JUMPDEST SWAP3 SWAP2 POP POP JUMP INVALID LOG2 PUSH5 0x6970667358 0x22 SLT KECCAK256 SWAP3 SHL SWAP13 MSTORE MSIZE BYTE PUSH5 0x9F6A536D4C 0xE1 MCOPY 0xDC DUP6 PUSH22 0xA27A152B3EE844B41DECE231004E4E64736F6C634300 ADDMOD BYTE STOP CALLER "
		},
		"gasEstimates": {
			"creation": {
				"codeDepositCost": "205200",
				"executionCost": "249",
				"totalCost": "205449"
			},
			"external": {
				"": "106",
				"enviarEther(address)": "infinite",
				"notPayable()": "143"
			}
		},
		"methodIdentifiers": {
			"enviarEther(address)": "0331f5d6",
			"notPayable()": "273884bd"
		}
	},
	"abi": [
		{
			"inputs": [],
			"stateMutability": "nonpayable",
			"type": "constructor"
		},
		{
			"anonymous": false,
			"inputs": [
				{
					"indexed": true,
					"internalType": "address",
					"name": "receptor",
					"type": "address"
				},
				{
					"indexed": false,
					"internalType": "uint256",
					"name": "cantidad",
					"type": "uint256"
				}
			],
			"name": "EtherEnviado",
			"type": "event"
		},
		{
			"stateMutability": "payable",
			"type": "fallback"
		},
		{
			"inputs": [
				{
					"internalType": "address",
					"name": "receptor",
					"type": "address"
				}
			],
			"name": "enviarEther",
			"outputs": [],
			"stateMutability": "payable",
			"type": "function"
		},
		{
			"inputs": [],
			"name": "notPayable",
			"outputs": [],
			"stateMutability": "nonpayable",
			"type": "function"
		},
		{
			"stateMutability": "payable",
			"type": "receive"
		}
	]
}