{
	"data": {
		"bytecode": {
			"linkReferences": {},
			"object": "6080604052348015600e575f80fd5b506104fa8061001c5f395ff3fe608060405234801561000f575f80fd5b5060043610610091575f3560e01c80634275e703116100645780634275e703146100f7578063439218ee146101015780638051f9d71461011d578063d39fa23314610139578063dd1cfc9a1461016957610091565b806320cc542d1461009557806327e235e31461009f5780632a90f7d5146100cf5780633fa4f245146100d9575b5f80fd5b61009d610173565b005b6100b960048036038101906100b491906103b3565b610208565b6040516100c691906103f6565b60405180910390f35b6100d761021d565b005b6100e161027f565b6040516100ee91906103f6565b60405180910390f35b6100ff610284565b005b61011b60048036038101906101169190610439565b6102c5565b005b61013760048036038101906101329190610439565b6102d7565b005b610153600480360381019061014e9190610439565b6102e0565b60405161016091906103f6565b60405180910390f35b610171610300565b005b5f60015f3373ffffffffffffffffffffffffffffffffffffffff1673ffffffffffffffffffffffffffffffffffffffff1681526020019081526020015f205490506001816101c19190610491565b90508060015f3373ffffffffffffffffffffffffffffffffffffffff1673ffffffffffffffffffffffffffffffffffffffff1681526020019081526020015f208190555050565b6001602052805f5260405f205f915090505481565b5f805b600a8110156102445780826102359190610491565b91508080600101915050610220565b507f893f4a2978971884a0fbc323a391e4fea1dd7d1108c750838417466f17f15f7a8160405161027491906103f6565b60405180910390a150565b5f5481565b5f5b600a8110156102c257600281908060018154018082558091505060019003905f5260205f20015f90919091909150558080600101915050610286565b50565b805f54146102d457805f819055505b50565b805f8190555050565b600281815481106102ef575f80fd5b905f5260205f20015f915090505481565b6001805f3373ffffffffffffffffffffffffffffffffffffffff1673ffffffffffffffffffffffffffffffffffffffff1681526020019081526020015f205f82825461034c9190610491565b92505081905550565b5f80fd5b5f73ffffffffffffffffffffffffffffffffffffffff82169050919050565b5f61038282610359565b9050919050565b61039281610378565b811461039c575f80fd5b50565b5f813590506103ad81610389565b92915050565b5f602082840312156103c8576103c7610355565b5b5f6103d58482850161039f565b91505092915050565b5f819050919050565b6103f0816103de565b82525050565b5f6020820190506104095f8301846103e7565b92915050565b610418816103de565b8114610422575f80fd5b50565b5f813590506104338161040f565b92915050565b5f6020828403121561044e5761044d610355565b5b5f61045b84828501610425565b91505092915050565b7f4e487b71000000000000000000000000000000000000000000000000000000005f52601160045260245ffd5b5f61049b826103de565b91506104a6836103de565b92508282019050808211156104be576104bd610464565b5b9291505056fea264697066735822122084eeb569557ae93af60d83132c367fd622ef18591dc134c5e4668a870298cadc64736f6c634300081a0033",
			"opcodes": "PUSH1 0x80 PUSH1 0x40 MSTORE CALLVALUE DUP1 ISZERO PUSH1 0xE JUMPI PUSH0 DUP1 REVERT JUMPDEST POP PUSH2 0x4FA DUP1 PUSH2 0x1C PUSH0 CODECOPY PUSH0 RETURN INVALID PUSH1 0x80 PUSH1 0x40 MSTORE CALLVALUE DUP1 ISZERO PUSH2 0xF JUMPI PUSH0 DUP1 REVERT JUMPDEST POP PUSH1 0x4 CALLDATASIZE LT PUSH2 0x91 JUMPI PUSH0 CALLDATALOAD PUSH1 0xE0 SHR DUP1 PUSH4 0x4275E703 GT PUSH2 0x64 JUMPI DUP1 PUSH4 0x4275E703 EQ PUSH2 0xF7 JUMPI DUP1 PUSH4 0x439218EE EQ PUSH2 0x101 JUMPI DUP1 PUSH4 0x8051F9D7 EQ PUSH2 0x11D JUMPI DUP1 PUSH4 0xD39FA233 EQ PUSH2 0x139 JUMPI DUP1 PUSH4 0xDD1CFC9A EQ PUSH2 0x169 JUMPI PUSH2 0x91 JUMP JUMPDEST DUP1 PUSH4 0x20CC542D EQ PUSH2 0x95 JUMPI DUP1 PUSH4 0x27E235E3 EQ PUSH2 0x9F JUMPI DUP1 PUSH4 0x2A90F7D5 EQ PUSH2 0xCF JUMPI DUP1 PUSH4 0x3FA4F245 EQ PUSH2 0xD9 JUMPI JUMPDEST PUSH0 DUP1 REVERT JUMPDEST PUSH2 0x9D PUSH2 0x173 JUMP JUMPDEST STOP JUMPDEST PUSH2 0xB9 PUSH1 0x4 DUP1 CALLDATASIZE SUB DUP2 ADD SWAP1 PUSH2 0xB4 SWAP2 SWAP1 PUSH2 0x3B3 JUMP JUMPDEST PUSH2 0x208 JUMP JUMPDEST PUSH1 0x40 MLOAD PUSH2 0xC6 SWAP2 SWAP1 PUSH2 0x3F6 JUMP JUMPDEST PUSH1 0x40 MLOAD DUP1 SWAP2 SUB SWAP1 RETURN JUMPDEST PUSH2 0xD7 PUSH2 0x21D JUMP JUMPDEST STOP JUMPDEST PUSH2 0xE1 PUSH2 0x27F JUMP JUMPDEST PUSH1 0x40 MLOAD PUSH2 0xEE SWAP2 SWAP1 PUSH2 0x3F6 JUMP JUMPDEST PUSH1 0x40 MLOAD DUP1 SWAP2 SUB SWAP1 RETURN JUMPDEST PUSH2 0xFF PUSH2 0x284 JUMP JUMPDEST STOP JUMPDEST PUSH2 0x11B PUSH1 0x4 DUP1 CALLDATASIZE SUB DUP2 ADD SWAP1 PUSH2 0x116 SWAP2 SWAP1 PUSH2 0x439 JUMP JUMPDEST PUSH2 0x2C5 JUMP JUMPDEST STOP JUMPDEST PUSH2 0x137 PUSH1 0x4 DUP1 CALLDATASIZE SUB DUP2 ADD SWAP1 PUSH2 0x132 SWAP2 SWAP1 PUSH2 0x439 JUMP JUMPDEST PUSH2 0x2D7 JUMP JUMPDEST STOP JUMPDEST PUSH2 0x153 PUSH1 0x4 DUP1 CALLDATASIZE SUB DUP2 ADD SWAP1 PUSH2 0x14E SWAP2 SWAP1 PUSH2 0x439 JUMP JUMPDEST PUSH2 0x2E0 JUMP JUMPDEST PUSH1 0x40 MLOAD PUSH2 0x160 SWAP2 SWAP1 PUSH2 0x3F6 JUMP JUMPDEST PUSH1 0x40 MLOAD DUP1 SWAP2 SUB SWAP1 RETURN JUMPDEST PUSH2 0x171 PUSH2 0x300 JUMP JUMPDEST STOP JUMPDEST PUSH0 PUSH1 0x1 PUSH0 CALLER PUSH20 0xFFFFFFFFFFFFFFFFFFFFFFFFFFFFFFFFFFFFFFFF AND PUSH20 0xFFFFFFFFFFFFFFFFFFFFFFFFFFFFFFFFFFFFFFFF AND DUP2 MSTORE PUSH1 0x20 ADD SWAP1 DUP2 MSTORE PUSH1 0x20 ADD PUSH0 KECCAK256 SLOAD SWAP1 POP PUSH1 0x1 DUP2 PUSH2 0x1C1 SWAP2 SWAP1 PUSH2 0x491 JUMP JUMPDEST SWAP1 POP DUP1 PUSH1 0x1 PUSH0 CALLER PUSH20 0xFFFFFFFFFFFFFFFFFFFFFFFFFFFFFFFFFFFFFFFF AND PUSH20 0xFFFFFFFFFFFFFFFFFFFFFFFFFFFFFFFFFFFFFFFF AND DUP2 MSTORE PUSH1 0x20 ADD SWAP1 DUP2 MSTORE PUSH1 0x20 ADD PUSH0 KECCAK256 DUP2 SWAP1 SSTORE POP POP JUMP JUMPDEST PUSH1 0x1 PUSH1 0x20 MSTORE DUP1 PUSH0 MSTORE PUSH1 0x40 PUSH0 KECCAK256 PUSH0 SWAP2 POP SWAP1 POP SLOAD DUP2 JUMP JUMPDEST PUSH0 DUP1 JUMPDEST PUSH1 0xA DUP2 LT ISZERO PUSH2 0x244 JUMPI DUP1 DUP3 PUSH2 0x235 SWAP2 SWAP1 PUSH2 0x491 JUMP JUMPDEST SWAP2 POP DUP1 DUP1 PUSH1 0x1 ADD SWAP2 POP POP PUSH2 0x220 JUMP JUMPDEST POP PUSH32 0x893F4A2978971884A0FBC323A391E4FEA1DD7D1108C750838417466F17F15F7A DUP2 PUSH1 0x40 MLOAD PUSH2 0x274 SWAP2 SWAP1 PUSH2 0x3F6 JUMP JUMPDEST PUSH1 0x40 MLOAD DUP1 SWAP2 SUB SWAP1 LOG1 POP JUMP JUMPDEST PUSH0 SLOAD DUP2 JUMP JUMPDEST PUSH0 JUMPDEST PUSH1 0xA DUP2 LT ISZERO PUSH2 0x2C2 JUMPI PUSH1 0x2 DUP2 SWAP1 DUP1 PUSH1 0x1 DUP2 SLOAD ADD DUP1 DUP3 SSTORE DUP1 SWAP2 POP POP PUSH1 0x1 SWAP1 SUB SWAP1 PUSH0 MSTORE PUSH1 0x20 PUSH0 KECCAK256 ADD PUSH0 SWAP1 SWAP2 SWAP1 SWAP2 SWAP1 SWAP2 POP SSTORE DUP1 DUP1 PUSH1 0x1 ADD SWAP2 POP POP PUSH2 0x286 JUMP JUMPDEST POP JUMP JUMPDEST DUP1 PUSH0 SLOAD EQ PUSH2 0x2D4 JUMPI DUP1 PUSH0 DUP2 SWAP1 SSTORE POP JUMPDEST POP JUMP JUMPDEST DUP1 PUSH0 DUP2 SWAP1 SSTORE POP POP JUMP JUMPDEST PUSH1 0x2 DUP2 DUP2 SLOAD DUP2 LT PUSH2 0x2EF JUMPI PUSH0 DUP1 REVERT JUMPDEST SWAP1 PUSH0 MSTORE PUSH1 0x20 PUSH0 KECCAK256 ADD PUSH0 SWAP2 POP SWAP1 POP SLOAD DUP2 JUMP JUMPDEST PUSH1 0x1 DUP1 PUSH0 CALLER PUSH20 0xFFFFFFFFFFFFFFFFFFFFFFFFFFFFFFFFFFFFFFFF AND PUSH20 0xFFFFFFFFFFFFFFFFFFFFFFFFFFFFFFFFFFFFFFFF AND DUP2 MSTORE PUSH1 0x20 ADD SWAP1 DUP2 MSTORE PUSH1 0x20 ADD PUSH0 KECCAK256 PUSH0 DUP3 DUP3 SLOAD PUSH2 0x34C SWAP2 SWAP1 PUSH2 0x491 JUMP JUMPDEST SWAP3 POP POP DUP2 SWAP1 SSTORE POP JUMP JUMPDEST PUSH0 DUP1 REVERT JUMPDEST PUSH0 PUSH20 0xFFFFFFFFFFFFFFFFFFFFFFFFFFFFFFFFFFFFFFFF DUP3 AND SWAP1 POP SWAP2 SWAP1 POP JUMP JUMPDEST PUSH0 PUSH2 0x382 DUP3 PUSH2 0x359 JUMP JUMPDEST SWAP1 POP SWAP2 SWAP1 POP JUMP JUMPDEST PUSH2 0x392 DUP2 PUSH2 0x378 JUMP JUMPDEST DUP2 EQ PUSH2 0x39C JUMPI PUSH0 DUP1 REVERT JUMPDEST POP JUMP JUMPDEST PUSH0 DUP2 CALLDATALOAD SWAP1 POP PUSH2 0x3AD DUP2 PUSH2 0x389 JUMP JUMPDEST SWAP3 SWAP2 POP POP JUMP JUMPDEST PUSH0 PUSH1 0x20 DUP3 DUP5 SUB SLT ISZERO PUSH2 0x3C8 JUMPI PUSH2 0x3C7 PUSH2 0x355 JUMP JUMPDEST JUMPDEST PUSH0 PUSH2 0x3D5 DUP5 DUP3 DUP6 ADD PUSH2 0x39F JUMP JUMPDEST SWAP2 POP POP SWAP3 SWAP2 POP POP JUMP JUMPDEST PUSH0 DUP2 SWAP1 POP SWAP2 SWAP1 POP JUMP JUMPDEST PUSH2 0x3F0 DUP2 PUSH2 0x3DE JUMP JUMPDEST DUP3 MSTORE POP POP JUMP JUMPDEST PUSH0 PUSH1 0x20 DUP3 ADD SWAP1 POP PUSH2 0x409 PUSH0 DUP4 ADD DUP5 PUSH2 0x3E7 JUMP JUMPDEST SWAP3 SWAP2 POP POP JUMP JUMPDEST PUSH2 0x418 DUP2 PUSH2 0x3DE JUMP JUMPDEST DUP2 EQ PUSH2 0x422 JUMPI PUSH0 DUP1 REVERT JUMPDEST POP JUMP JUMPDEST PUSH0 DUP2 CALLDATALOAD SWAP1 POP PUSH2 0x433 DUP2 PUSH2 0x40F JUMP JUMPDEST SWAP3 SWAP2 POP POP JUMP JUMPDEST PUSH0 PUSH1 0x20 DUP3 DUP5 SUB SLT ISZERO PUSH2 0x44E JUMPI PUSH2 0x44D PUSH2 0x355 JUMP JUMPDEST JUMPDEST PUSH0 PUSH2 0x45B DUP5 DUP3 DUP6 ADD PUSH2 0x425 JUMP JUMPDEST SWAP2 POP POP SWAP3 SWAP2 POP POP JUMP JUMPDEST PUSH32 0x4E487B7100000000000000000000000000000000000000000000000000000000 PUSH0 MSTORE PUSH1 0x11 PUSH1 0x4 MSTORE PUSH1 0x24 PUSH0 REVERT JUMPDEST PUSH0 PUSH2 0x49B DUP3 PUSH2 0x3DE JUMP JUMPDEST SWAP2 POP PUSH2 0x4A6 DUP4 PUSH2 0x3DE JUMP JUMPDEST SWAP3 POP DUP3 DUP3 ADD SWAP1 POP DUP1 DUP3 GT ISZERO PUSH2 0x4BE JUMPI PUSH2 0x4BD PUSH2 0x464 JUMP JUMPDEST JUMPDEST SWAP3 SWAP2 POP POP JUMP INVALID LOG2 PUSH5 0x6970667358 0x22 SLT KECCAK256 DUP5 0xEE 0xB5 PUSH10 0x557AE93AF60D83132C36 PUSH32 0xD622EF18591DC134C5E4668A870298CADC64736F6C634300081A003300000000 "
		},
		"gasEstimates": {
			"creation": {
				"codeDepositCost": "254800",
				"executionCost": "292",
				"totalCost": "255092"
			},
			"external": {
				"balances(address)": "2825",
				"fillArrayStorage()": "infinite",
				"incrementBalanceStorage()": "infinite",
				"incrementBalanceWithMemory()": "infinite",
				"numbers(uint256)": "infinite",
				"operateInMemoryAndEmit()": "infinite",
				"setValueAlways(uint256)": "22558",
				"setValueIfDifferent(uint256)": "24658",
				"value()": "2491"
			}
		},
		"methodIdentifiers": {
			"balances(address)": "27e235e3",
			"fillArrayStorage()": "4275e703",
			"incrementBalanceStorage()": "dd1cfc9a",
			"incrementBalanceWithMemory()": "20cc542d",
			"numbers(uint256)": "d39fa233",
			"operateInMemoryAndEmit()": "2a90f7d5",
			"setValueAlways(uint256)": "8051f9d7",
			"setValueIfDifferent(uint256)": "439218ee",
			"value()": "3fa4f245"
		}
	},
	"abi": [
		{
			"anonymous": false,
			"inputs": [
				{
					"indexed": false,
					"internalType": "uint256",
					"name": "result",
					"type": "uint256"
				}
			],
			"name": "Dummy",
			"type": "event"
		},
		{
			"inputs": [
				{
					"internalType": "address",
					"name": "",
					"type": "address"
				}
			],
			"name": "balances",
			"outputs": [
				{
					"internalType": "uint256",
					"name": "",
					"type": "uint256"
				}
			],
			"stateMutability": "view",
			"type": "function"
		},
		{
			"inputs": [],
			"name": "fillArrayStorage",
			"outputs": [],
			"stateMutability": "nonpayable",
			"type": "function"
		},
		{
			"inputs": [],
			"name": "incrementBalanceStorage",
			"outputs": [],
			"stateMutability": "nonpayable",
			"type": "function"
		},
		{
			"inputs": [],
			"name": "incrementBalanceWithMemory",
			"outputs": [],
			"stateMutability": "nonpayable",
			"type": "function"
		},
		{
			"inputs": [
				{
					"internalType": "uint256",
					"name": "",
					"type": "uint256"
				}
			],
			"name": "numbers",
			"outputs": [
				{
					"internalType": "uint256",
					"name": "",
					"type": "uint256"
				}
			],
			"stateMutability": "view",
			"type": "function"
		},
		{
			"inputs": [],
			"name": "operateInMemoryAndEmit",
			"outputs": [],
			"stateMutability": "nonpayable",
			"type": "function"
		},
		{
			"inputs": [
				{
					"internalType": "uint256",
					"name": "_newValue",
					"type": "uint256"
				}
			],
			"name": "setValueAlways",
			"outputs": [],
			"stateMutability": "nonpayable",
			"type": "function"
		},
		{
			"inputs": [
				{
					"internalType": "uint256",
					"name": "_newValue",
					"type": "uint256"
				}
			],
			"name": "setValueIfDifferent",
			"outputs": [],
			"stateMutability": "nonpayable",
			"type": "function"
		},
		{
			"inputs": [],
			"name": "value",
			"outputs": [
				{
					"internalType": "uint256",
					"name": "",
					"type": "uint256"
				}
			],
			"stateMutability": "view",
			"type": "function"
		}
	]
}