{
	"data": {
		"bytecode": {
			"linkReferences": {},
			"object": "60806040523480156200001157600080fd5b506040518060400160405280600b81526020017f48656c6c6f20776f726c6400000000000000000000000000000000000000000081525060009081620000589190620002e1565b506000600181905550620003c8565b600081519050919050565b7f4e487b7100000000000000000000000000000000000000000000000000000000600052604160045260246000fd5b7f4e487b7100000000000000000000000000000000000000000000000000000000600052602260045260246000fd5b60006002820490506001821680620000e957607f821691505b602082108103620000ff57620000fe620000a1565b5b50919050565b60008190508160005260206000209050919050565b60006020601f8301049050919050565b600082821b905092915050565b600060088302620001697fffffffffffffffffffffffffffffffffffffffffffffffffffffffffffffffff826200012a565b6200017586836200012a565b95508019841693508086168417925050509392505050565b6000819050919050565b6000819050919050565b6000620001c2620001bc620001b6846200018d565b62000197565b6200018d565b9050919050565b6000819050919050565b620001de83620001a1565b620001f6620001ed82620001c9565b84845462000137565b825550505050565b600090565b6200020d620001fe565b6200021a818484620001d3565b505050565b5b8181101562000242576200023660008262000203565b60018101905062000220565b5050565b601f82111562000291576200025b8162000105565b62000266846200011a565b8101602085101562000276578190505b6200028e62000285856200011a565b8301826200021f565b50505b505050565b600082821c905092915050565b6000620002b66000198460080262000296565b1980831691505092915050565b6000620002d18383620002a3565b9150826002028217905092915050565b620002ec8262000067565b67ffffffffffffffff81111562000308576200030762000072565b5b620003148254620000d0565b6200032182828562000246565b600060209050601f83116001811462000359576000841562000344578287015190505b620003508582620002c3565b865550620003c0565b601f198416620003698662000105565b60005b8281101562000393578489015182556001820191506020850194506020810190506200036c565b86831015620003b35784890151620003af601f891682620002a3565b8355505b6001600288020188555050505b505050505050565b61076480620003d86000396000f3fe608060405234801561001057600080fd5b50600436106100415760003560e01c80632af2bc27146100465780635a9b0b8914610064578063937f6e7714610082575b600080fd5b61004e61009e565b60405161005b919061017a565b60405180910390f35b61006c6100a4565b6040516100799190610225565b60405180910390f35b61009c60048036038101906100979190610390565b610136565b005b60015481565b6060600080546100b390610408565b80601f01602080910402602001604051908101604052809291908181526020018280546100df90610408565b801561012c5780601f106101015761010080835404028352916020019161012c565b820191906000526020600020905b81548152906001019060200180831161010f57829003601f168201915b5050505050905090565b806000908161014591906105e5565b5060016000815480929190610159906106e6565b919050555050565b6000819050919050565b61017481610161565b82525050565b600060208201905061018f600083018461016b565b92915050565b600081519050919050565b600082825260208201905092915050565b60005b838110156101cf5780820151818401526020810190506101b4565b60008484015250505050565b6000601f19601f8301169050919050565b60006101f782610195565b61020181856101a0565b93506102118185602086016101b1565b61021a816101db565b840191505092915050565b6000602082019050818103600083015261023f81846101ec565b905092915050565b6000604051905090565b600080fd5b600080fd5b600080fd5b600080fd5b7f4e487b7100000000000000000000000000000000000000000000000000000000600052604160045260246000fd5b61029d826101db565b810181811067ffffffffffffffff821117156102bc576102bb610265565b5b80604052505050565b60006102cf610247565b90506102db8282610294565b919050565b600067ffffffffffffffff8211156102fb576102fa610265565b5b610304826101db565b9050602081019050919050565b82818337600083830152505050565b600061033361032e846102e0565b6102c5565b90508281526020810184848401111561034f5761034e610260565b5b61035a848285610311565b509392505050565b600082601f8301126103775761037661025b565b5b8135610387848260208601610320565b91505092915050565b6000602082840312156103a6576103a5610251565b5b600082013567ffffffffffffffff8111156103c4576103c3610256565b5b6103d084828501610362565b91505092915050565b7f4e487b7100000000000000000000000000000000000000000000000000000000600052602260045260246000fd5b6000600282049050600182168061042057607f821691505b602082108103610433576104326103d9565b5b50919050565b60008190508160005260206000209050919050565b60006020601f8301049050919050565b600082821b905092915050565b60006008830261049b7fffffffffffffffffffffffffffffffffffffffffffffffffffffffffffffffff8261045e565b6104a5868361045e565b95508019841693508086168417925050509392505050565b6000819050919050565b60006104e26104dd6104d884610161565b6104bd565b610161565b9050919050565b6000819050919050565b6104fc836104c7565b610510610508826104e9565b84845461046b565b825550505050565b600090565b610525610518565b6105308184846104f3565b505050565b5b818110156105545761054960008261051d565b600181019050610536565b5050565b601f8211156105995761056a81610439565b6105738461044e565b81016020851015610582578190505b61059661058e8561044e565b830182610535565b50505b505050565b600082821c905092915050565b60006105bc6000198460080261059e565b1980831691505092915050565b60006105d583836105ab565b9150826002028217905092915050565b6105ee82610195565b67ffffffffffffffff81111561060757610606610265565b5b6106118254610408565b61061c828285610558565b600060209050601f83116001811461064f576000841561063d578287015190505b61064785826105c9565b8655506106af565b601f19841661065d86610439565b60005b8281101561068557848901518255600182019150602085019450602081019050610660565b868310156106a2578489015161069e601f8916826105ab565b8355505b6001600288020188555050505b505050505050565b7f4e487b7100000000000000000000000000000000000000000000000000000000600052601160045260246000fd5b60006106f182610161565b91507fffffffffffffffffffffffffffffffffffffffffffffffffffffffffffffffff8203610723576107226106b7565b5b60018201905091905056fea2646970667358221220f682929710e15751260ea10b4f98974a84cb9b604971345e646112369a52334e64736f6c63430008130033",
			"opcodes": "PUSH1 0x80 PUSH1 0x40 MSTORE CALLVALUE DUP1 ISZERO PUSH3 0x11 JUMPI PUSH1 0x0 DUP1 REVERT JUMPDEST POP PUSH1 0x40 MLOAD DUP1 PUSH1 0x40 ADD PUSH1 0x40 MSTORE DUP1 PUSH1 0xB DUP2 MSTORE PUSH1 0x20 ADD PUSH32 0x48656C6C6F20776F726C64000000000000000000000000000000000000000000 DUP2 MSTORE POP PUSH1 0x0 SWAP1 DUP2 PUSH3 0x58 SWAP2 SWAP1 PUSH3 0x2E1 JUMP JUMPDEST POP PUSH1 0x0 PUSH1 0x1 DUP2 SWAP1 SSTORE POP PUSH3 0x3C8 JUMP JUMPDEST PUSH1 0x0 DUP2 MLOAD SWAP1 POP SWAP2 SWAP1 POP JUMP JUMPDEST PUSH32 0x4E487B7100000000000000000000000000000000000000000000000000000000 PUSH1 0x0 MSTORE PUSH1 0x41 PUSH1 0x4 MSTORE PUSH1 0x24 PUSH1 0x0 REVERT JUMPDEST PUSH32 0x4E487B7100000000000000000000000000000000000000000000000000000000 PUSH1 0x0 MSTORE PUSH1 0x22 PUSH1 0x4 MSTORE PUSH1 0x24 PUSH1 0x0 REVERT JUMPDEST PUSH1 0x0 PUSH1 0x2 DUP3 DIV SWAP1 POP PUSH1 0x1 DUP3 AND DUP1 PUSH3 0xE9 JUMPI PUSH1 0x7F DUP3 AND SWAP2 POP JUMPDEST PUSH1 0x20 DUP3 LT DUP2 SUB PUSH3 0xFF JUMPI PUSH3 0xFE PUSH3 0xA1 JUMP JUMPDEST JUMPDEST POP SWAP2 SWAP1 POP JUMP JUMPDEST PUSH1 0x0 DUP2 SWAP1 POP DUP2 PUSH1 0x0 MSTORE PUSH1 0x20 PUSH1 0x0 KECCAK256 SWAP1 POP SWAP2 SWAP1 POP JUMP JUMPDEST PUSH1 0x0 PUSH1 0x20 PUSH1 0x1F DUP4 ADD DIV SWAP1 POP SWAP2 SWAP1 POP JUMP JUMPDEST PUSH1 0x0 DUP3 DUP3 SHL SWAP1 POP SWAP3 SWAP2 POP POP JUMP JUMPDEST PUSH1 0x0 PUSH1 0x8 DUP4 MUL PUSH3 0x169 PUSH32 0xFFFFFFFFFFFFFFFFFFFFFFFFFFFFFFFFFFFFFFFFFFFFFFFFFFFFFFFFFFFFFFFF DUP3 PUSH3 0x12A JUMP JUMPDEST PUSH3 0x175 DUP7 DUP4 PUSH3 0x12A JUMP JUMPDEST SWAP6 POP DUP1 NOT DUP5 AND SWAP4 POP DUP1 DUP7 AND DUP5 OR SWAP3 POP POP POP SWAP4 SWAP3 POP POP POP JUMP JUMPDEST PUSH1 0x0 DUP2 SWAP1 POP SWAP2 SWAP1 POP JUMP JUMPDEST PUSH1 0x0 DUP2 SWAP1 POP SWAP2 SWAP1 POP JUMP JUMPDEST PUSH1 0x0 PUSH3 0x1C2 PUSH3 0x1BC PUSH3 0x1B6 DUP5 PUSH3 0x18D JUMP JUMPDEST PUSH3 0x197 JUMP JUMPDEST PUSH3 0x18D JUMP JUMPDEST SWAP1 POP SWAP2 SWAP1 POP JUMP JUMPDEST PUSH1 0x0 DUP2 SWAP1 POP SWAP2 SWAP1 POP JUMP JUMPDEST PUSH3 0x1DE DUP4 PUSH3 0x1A1 JUMP JUMPDEST PUSH3 0x1F6 PUSH3 0x1ED DUP3 PUSH3 0x1C9 JUMP JUMPDEST DUP5 DUP5 SLOAD PUSH3 0x137 JUMP JUMPDEST DUP3 SSTORE POP POP POP POP JUMP JUMPDEST PUSH1 0x0 SWAP1 JUMP JUMPDEST PUSH3 0x20D PUSH3 0x1FE JUMP JUMPDEST PUSH3 0x21A DUP2 DUP5 DUP5 PUSH3 0x1D3 JUMP JUMPDEST POP POP POP JUMP JUMPDEST JUMPDEST DUP2 DUP2 LT ISZERO PUSH3 0x242 JUMPI PUSH3 0x236 PUSH1 0x0 DUP3 PUSH3 0x203 JUMP JUMPDEST PUSH1 0x1 DUP2 ADD SWAP1 POP PUSH3 0x220 JUMP JUMPDEST POP POP JUMP JUMPDEST PUSH1 0x1F DUP3 GT ISZERO PUSH3 0x291 JUMPI PUSH3 0x25B DUP2 PUSH3 0x105 JUMP JUMPDEST PUSH3 0x266 DUP5 PUSH3 0x11A JUMP JUMPDEST DUP2 ADD PUSH1 0x20 DUP6 LT ISZERO PUSH3 0x276 JUMPI DUP2 SWAP1 POP JUMPDEST PUSH3 0x28E PUSH3 0x285 DUP6 PUSH3 0x11A JUMP JUMPDEST DUP4 ADD DUP3 PUSH3 0x21F JUMP JUMPDEST POP POP JUMPDEST POP POP POP JUMP JUMPDEST PUSH1 0x0 DUP3 DUP3 SHR SWAP1 POP SWAP3 SWAP2 POP POP JUMP JUMPDEST PUSH1 0x0 PUSH3 0x2B6 PUSH1 0x0 NOT DUP5 PUSH1 0x8 MUL PUSH3 0x296 JUMP JUMPDEST NOT DUP1 DUP4 AND SWAP2 POP POP SWAP3 SWAP2 POP POP JUMP JUMPDEST PUSH1 0x0 PUSH3 0x2D1 DUP4 DUP4 PUSH3 0x2A3 JUMP JUMPDEST SWAP2 POP DUP3 PUSH1 0x2 MUL DUP3 OR SWAP1 POP SWAP3 SWAP2 POP POP JUMP JUMPDEST PUSH3 0x2EC DUP3 PUSH3 0x67 JUMP JUMPDEST PUSH8 0xFFFFFFFFFFFFFFFF DUP2 GT ISZERO PUSH3 0x308 JUMPI PUSH3 0x307 PUSH3 0x72 JUMP JUMPDEST JUMPDEST PUSH3 0x314 DUP3 SLOAD PUSH3 0xD0 JUMP JUMPDEST PUSH3 0x321 DUP3 DUP3 DUP6 PUSH3 0x246 JUMP JUMPDEST PUSH1 0x0 PUSH1 0x20 SWAP1 POP PUSH1 0x1F DUP4 GT PUSH1 0x1 DUP2 EQ PUSH3 0x359 JUMPI PUSH1 0x0 DUP5 ISZERO PUSH3 0x344 JUMPI DUP3 DUP8 ADD MLOAD SWAP1 POP JUMPDEST PUSH3 0x350 DUP6 DUP3 PUSH3 0x2C3 JUMP JUMPDEST DUP7 SSTORE POP PUSH3 0x3C0 JUMP JUMPDEST PUSH1 0x1F NOT DUP5 AND PUSH3 0x369 DUP7 PUSH3 0x105 JUMP JUMPDEST PUSH1 0x0 JUMPDEST DUP3 DUP2 LT ISZERO PUSH3 0x393 JUMPI DUP5 DUP10 ADD MLOAD DUP3 SSTORE PUSH1 0x1 DUP3 ADD SWAP2 POP PUSH1 0x20 DUP6 ADD SWAP5 POP PUSH1 0x20 DUP2 ADD SWAP1 POP PUSH3 0x36C JUMP JUMPDEST DUP7 DUP4 LT ISZERO PUSH3 0x3B3 JUMPI DUP5 DUP10 ADD MLOAD PUSH3 0x3AF PUSH1 0x1F DUP10 AND DUP3 PUSH3 0x2A3 JUMP JUMPDEST DUP4 SSTORE POP JUMPDEST PUSH1 0x1 PUSH1 0x2 DUP9 MUL ADD DUP9 SSTORE POP POP POP JUMPDEST POP POP POP POP POP POP JUMP JUMPDEST PUSH2 0x764 DUP1 PUSH3 0x3D8 PUSH1 0x0 CODECOPY PUSH1 0x0 RETURN INVALID PUSH1 0x80 PUSH1 0x40 MSTORE CALLVALUE DUP1 ISZERO PUSH2 0x10 JUMPI PUSH1 0x0 DUP1 REVERT JUMPDEST POP PUSH1 0x4 CALLDATASIZE LT PUSH2 0x41 JUMPI PUSH1 0x0 CALLDATALOAD PUSH1 0xE0 SHR DUP1 PUSH4 0x2AF2BC27 EQ PUSH2 0x46 JUMPI DUP1 PUSH4 0x5A9B0B89 EQ PUSH2 0x64 JUMPI DUP1 PUSH4 0x937F6E77 EQ PUSH2 0x82 JUMPI JUMPDEST PUSH1 0x0 DUP1 REVERT JUMPDEST PUSH2 0x4E PUSH2 0x9E JUMP JUMPDEST PUSH1 0x40 MLOAD PUSH2 0x5B SWAP2 SWAP1 PUSH2 0x17A JUMP JUMPDEST PUSH1 0x40 MLOAD DUP1 SWAP2 SUB SWAP1 RETURN JUMPDEST PUSH2 0x6C PUSH2 0xA4 JUMP JUMPDEST PUSH1 0x40 MLOAD PUSH2 0x79 SWAP2 SWAP1 PUSH2 0x225 JUMP JUMPDEST PUSH1 0x40 MLOAD DUP1 SWAP2 SUB SWAP1 RETURN JUMPDEST PUSH2 0x9C PUSH1 0x4 DUP1 CALLDATASIZE SUB DUP2 ADD SWAP1 PUSH2 0x97 SWAP2 SWAP1 PUSH2 0x390 JUMP JUMPDEST PUSH2 0x136 JUMP JUMPDEST STOP JUMPDEST PUSH1 0x1 SLOAD DUP2 JUMP JUMPDEST PUSH1 0x60 PUSH1 0x0 DUP1 SLOAD PUSH2 0xB3 SWAP1 PUSH2 0x408 JUMP JUMPDEST DUP1 PUSH1 0x1F ADD PUSH1 0x20 DUP1 SWAP2 DIV MUL PUSH1 0x20 ADD PUSH1 0x40 MLOAD SWAP1 DUP2 ADD PUSH1 0x40 MSTORE DUP1 SWAP3 SWAP2 SWAP1 DUP2 DUP2 MSTORE PUSH1 0x20 ADD DUP3 DUP1 SLOAD PUSH2 0xDF SWAP1 PUSH2 0x408 JUMP JUMPDEST DUP1 ISZERO PUSH2 0x12C JUMPI DUP1 PUSH1 0x1F LT PUSH2 0x101 JUMPI PUSH2 0x100 DUP1 DUP4 SLOAD DIV MUL DUP4 MSTORE SWAP2 PUSH1 0x20 ADD SWAP2 PUSH2 0x12C JUMP JUMPDEST DUP3 ADD SWAP2 SWAP1 PUSH1 0x0 MSTORE PUSH1 0x20 PUSH1 0x0 KECCAK256 SWAP1 JUMPDEST DUP2 SLOAD DUP2 MSTORE SWAP1 PUSH1 0x1 ADD SWAP1 PUSH1 0x20 ADD DUP1 DUP4 GT PUSH2 0x10F JUMPI DUP3 SWAP1 SUB PUSH1 0x1F AND DUP3 ADD SWAP2 JUMPDEST POP POP POP POP POP SWAP1 POP SWAP1 JUMP JUMPDEST DUP1 PUSH1 0x0 SWAP1 DUP2 PUSH2 0x145 SWAP2 SWAP1 PUSH2 0x5E5 JUMP JUMPDEST POP PUSH1 0x1 PUSH1 0x0 DUP2 SLOAD DUP1 SWAP3 SWAP2 SWAP1 PUSH2 0x159 SWAP1 PUSH2 0x6E6 JUMP JUMPDEST SWAP2 SWAP1 POP SSTORE POP POP JUMP JUMPDEST PUSH1 0x0 DUP2 SWAP1 POP SWAP2 SWAP1 POP JUMP JUMPDEST PUSH2 0x174 DUP2 PUSH2 0x161 JUMP JUMPDEST DUP3 MSTORE POP POP JUMP JUMPDEST PUSH1 0x0 PUSH1 0x20 DUP3 ADD SWAP1 POP PUSH2 0x18F PUSH1 0x0 DUP4 ADD DUP5 PUSH2 0x16B JUMP JUMPDEST SWAP3 SWAP2 POP POP JUMP JUMPDEST PUSH1 0x0 DUP2 MLOAD SWAP1 POP SWAP2 SWAP1 POP JUMP JUMPDEST PUSH1 0x0 DUP3 DUP3 MSTORE PUSH1 0x20 DUP3 ADD SWAP1 POP SWAP3 SWAP2 POP POP JUMP JUMPDEST PUSH1 0x0 JUMPDEST DUP4 DUP2 LT ISZERO PUSH2 0x1CF JUMPI DUP1 DUP3 ADD MLOAD DUP2 DUP5 ADD MSTORE PUSH1 0x20 DUP2 ADD SWAP1 POP PUSH2 0x1B4 JUMP JUMPDEST PUSH1 0x0 DUP5 DUP5 ADD MSTORE POP POP POP POP JUMP JUMPDEST PUSH1 0x0 PUSH1 0x1F NOT PUSH1 0x1F DUP4 ADD AND SWAP1 POP SWAP2 SWAP1 POP JUMP JUMPDEST PUSH1 0x0 PUSH2 0x1F7 DUP3 PUSH2 0x195 JUMP JUMPDEST PUSH2 0x201 DUP2 DUP6 PUSH2 0x1A0 JUMP JUMPDEST SWAP4 POP PUSH2 0x211 DUP2 DUP6 PUSH1 0x20 DUP7 ADD PUSH2 0x1B1 JUMP JUMPDEST PUSH2 0x21A DUP2 PUSH2 0x1DB JUMP JUMPDEST DUP5 ADD SWAP2 POP POP SWAP3 SWAP2 POP POP JUMP JUMPDEST PUSH1 0x0 PUSH1 0x20 DUP3 ADD SWAP1 POP DUP2 DUP2 SUB PUSH1 0x0 DUP4 ADD MSTORE PUSH2 0x23F DUP2 DUP5 PUSH2 0x1EC JUMP JUMPDEST SWAP1 POP SWAP3 SWAP2 POP POP JUMP JUMPDEST PUSH1 0x0 PUSH1 0x40 MLOAD SWAP1 POP SWAP1 JUMP JUMPDEST PUSH1 0x0 DUP1 REVERT JUMPDEST PUSH1 0x0 DUP1 REVERT JUMPDEST PUSH1 0x0 DUP1 REVERT JUMPDEST PUSH1 0x0 DUP1 REVERT JUMPDEST PUSH32 0x4E487B7100000000000000000000000000000000000000000000000000000000 PUSH1 0x0 MSTORE PUSH1 0x41 PUSH1 0x4 MSTORE PUSH1 0x24 PUSH1 0x0 REVERT JUMPDEST PUSH2 0x29D DUP3 PUSH2 0x1DB JUMP JUMPDEST DUP2 ADD DUP2 DUP2 LT PUSH8 0xFFFFFFFFFFFFFFFF DUP3 GT OR ISZERO PUSH2 0x2BC JUMPI PUSH2 0x2BB PUSH2 0x265 JUMP JUMPDEST JUMPDEST DUP1 PUSH1 0x40 MSTORE POP POP POP JUMP JUMPDEST PUSH1 0x0 PUSH2 0x2CF PUSH2 0x247 JUMP JUMPDEST SWAP1 POP PUSH2 0x2DB DUP3 DUP3 PUSH2 0x294 JUMP JUMPDEST SWAP2 SWAP1 POP JUMP JUMPDEST PUSH1 0x0 PUSH8 0xFFFFFFFFFFFFFFFF DUP3 GT ISZERO PUSH2 0x2FB JUMPI PUSH2 0x2FA PUSH2 0x265 JUMP JUMPDEST JUMPDEST PUSH2 0x304 DUP3 PUSH2 0x1DB JUMP JUMPDEST SWAP1 POP PUSH1 0x20 DUP2 ADD SWAP1 POP SWAP2 SWAP1 POP JUMP JUMPDEST DUP3 DUP2 DUP4 CALLDATACOPY PUSH1 0x0 DUP4 DUP4 ADD MSTORE POP POP POP JUMP JUMPDEST PUSH1 0x0 PUSH2 0x333 PUSH2 0x32E DUP5 PUSH2 0x2E0 JUMP JUMPDEST PUSH2 0x2C5 JUMP JUMPDEST SWAP1 POP DUP3 DUP2 MSTORE PUSH1 0x20 DUP2 ADD DUP5 DUP5 DUP5 ADD GT ISZERO PUSH2 0x34F JUMPI PUSH2 0x34E PUSH2 0x260 JUMP JUMPDEST JUMPDEST PUSH2 0x35A DUP5 DUP3 DUP6 PUSH2 0x311 JUMP JUMPDEST POP SWAP4 SWAP3 POP POP POP JUMP JUMPDEST PUSH1 0x0 DUP3 PUSH1 0x1F DUP4 ADD SLT PUSH2 0x377 JUMPI PUSH2 0x376 PUSH2 0x25B JUMP JUMPDEST JUMPDEST DUP2 CALLDATALOAD PUSH2 0x387 DUP5 DUP3 PUSH1 0x20 DUP7 ADD PUSH2 0x320 JUMP JUMPDEST SWAP2 POP POP SWAP3 SWAP2 POP POP JUMP JUMPDEST PUSH1 0x0 PUSH1 0x20 DUP3 DUP5 SUB SLT ISZERO PUSH2 0x3A6 JUMPI PUSH2 0x3A5 PUSH2 0x251 JUMP JUMPDEST JUMPDEST PUSH1 0x0 DUP3 ADD CALLDATALOAD PUSH8 0xFFFFFFFFFFFFFFFF DUP2 GT ISZERO PUSH2 0x3C4 JUMPI PUSH2 0x3C3 PUSH2 0x256 JUMP JUMPDEST JUMPDEST PUSH2 0x3D0 DUP5 DUP3 DUP6 ADD PUSH2 0x362 JUMP JUMPDEST SWAP2 POP POP SWAP3 SWAP2 POP POP JUMP JUMPDEST PUSH32 0x4E487B7100000000000000000000000000000000000000000000000000000000 PUSH1 0x0 MSTORE PUSH1 0x22 PUSH1 0x4 MSTORE PUSH1 0x24 PUSH1 0x0 REVERT JUMPDEST PUSH1 0x0 PUSH1 0x2 DUP3 DIV SWAP1 POP PUSH1 0x1 DUP3 AND DUP1 PUSH2 0x420 JUMPI PUSH1 0x7F DUP3 AND SWAP2 POP JUMPDEST PUSH1 0x20 DUP3 LT DUP2 SUB PUSH2 0x433 JUMPI PUSH2 0x432 PUSH2 0x3D9 JUMP JUMPDEST JUMPDEST POP SWAP2 SWAP1 POP JUMP JUMPDEST PUSH1 0x0 DUP2 SWAP1 POP DUP2 PUSH1 0x0 MSTORE PUSH1 0x20 PUSH1 0x0 KECCAK256 SWAP1 POP SWAP2 SWAP1 POP JUMP JUMPDEST PUSH1 0x0 PUSH1 0x20 PUSH1 0x1F DUP4 ADD DIV SWAP1 POP SWAP2 SWAP1 POP JUMP JUMPDEST PUSH1 0x0 DUP3 DUP3 SHL SWAP1 POP SWAP3 SWAP2 POP POP JUMP JUMPDEST PUSH1 0x0 PUSH1 0x8 DUP4 MUL PUSH2 0x49B PUSH32 0xFFFFFFFFFFFFFFFFFFFFFFFFFFFFFFFFFFFFFFFFFFFFFFFFFFFFFFFFFFFFFFFF DUP3 PUSH2 0x45E JUMP JUMPDEST PUSH2 0x4A5 DUP7 DUP4 PUSH2 0x45E JUMP JUMPDEST SWAP6 POP DUP1 NOT DUP5 AND SWAP4 POP DUP1 DUP7 AND DUP5 OR SWAP3 POP POP POP SWAP4 SWAP3 POP POP POP JUMP JUMPDEST PUSH1 0x0 DUP2 SWAP1 POP SWAP2 SWAP1 POP JUMP JUMPDEST PUSH1 0x0 PUSH2 0x4E2 PUSH2 0x4DD PUSH2 0x4D8 DUP5 PUSH2 0x161 JUMP JUMPDEST PUSH2 0x4BD JUMP JUMPDEST PUSH2 0x161 JUMP JUMPDEST SWAP1 POP SWAP2 SWAP1 POP JUMP JUMPDEST PUSH1 0x0 DUP2 SWAP1 POP SWAP2 SWAP1 POP JUMP JUMPDEST PUSH2 0x4FC DUP4 PUSH2 0x4C7 JUMP JUMPDEST PUSH2 0x510 PUSH2 0x508 DUP3 PUSH2 0x4E9 JUMP JUMPDEST DUP5 DUP5 SLOAD PUSH2 0x46B JUMP JUMPDEST DUP3 SSTORE POP POP POP POP JUMP JUMPDEST PUSH1 0x0 SWAP1 JUMP JUMPDEST PUSH2 0x525 PUSH2 0x518 JUMP JUMPDEST PUSH2 0x530 DUP2 DUP5 DUP5 PUSH2 0x4F3 JUMP JUMPDEST POP POP POP JUMP JUMPDEST JUMPDEST DUP2 DUP2 LT ISZERO PUSH2 0x554 JUMPI PUSH2 0x549 PUSH1 0x0 DUP3 PUSH2 0x51D JUMP JUMPDEST PUSH1 0x1 DUP2 ADD SWAP1 POP PUSH2 0x536 JUMP JUMPDEST POP POP JUMP JUMPDEST PUSH1 0x1F DUP3 GT ISZERO PUSH2 0x599 JUMPI PUSH2 0x56A DUP2 PUSH2 0x439 JUMP JUMPDEST PUSH2 0x573 DUP5 PUSH2 0x44E JUMP JUMPDEST DUP2 ADD PUSH1 0x20 DUP6 LT ISZERO PUSH2 0x582 JUMPI DUP2 SWAP1 POP JUMPDEST PUSH2 0x596 PUSH2 0x58E DUP6 PUSH2 0x44E JUMP JUMPDEST DUP4 ADD DUP3 PUSH2 0x535 JUMP JUMPDEST POP POP JUMPDEST POP POP POP JUMP JUMPDEST PUSH1 0x0 DUP3 DUP3 SHR SWAP1 POP SWAP3 SWAP2 POP POP JUMP JUMPDEST PUSH1 0x0 PUSH2 0x5BC PUSH1 0x0 NOT DUP5 PUSH1 0x8 MUL PUSH2 0x59E JUMP JUMPDEST NOT DUP1 DUP4 AND SWAP2 POP POP SWAP3 SWAP2 POP POP JUMP JUMPDEST PUSH1 0x0 PUSH2 0x5D5 DUP4 DUP4 PUSH2 0x5AB JUMP JUMPDEST SWAP2 POP DUP3 PUSH1 0x2 MUL DUP3 OR SWAP1 POP SWAP3 SWAP2 POP POP JUMP JUMPDEST PUSH2 0x5EE DUP3 PUSH2 0x195 JUMP JUMPDEST PUSH8 0xFFFFFFFFFFFFFFFF DUP2 GT ISZERO PUSH2 0x607 JUMPI PUSH2 0x606 PUSH2 0x265 JUMP JUMPDEST JUMPDEST PUSH2 0x611 DUP3 SLOAD PUSH2 0x408 JUMP JUMPDEST PUSH2 0x61C DUP3 DUP3 DUP6 PUSH2 0x558 JUMP JUMPDEST PUSH1 0x0 PUSH1 0x20 SWAP1 POP PUSH1 0x1F DUP4 GT PUSH1 0x1 DUP2 EQ PUSH2 0x64F JUMPI PUSH1 0x0 DUP5 ISZERO PUSH2 0x63D JUMPI DUP3 DUP8 ADD MLOAD SWAP1 POP JUMPDEST PUSH2 0x647 DUP6 DUP3 PUSH2 0x5C9 JUMP JUMPDEST DUP7 SSTORE POP PUSH2 0x6AF JUMP JUMPDEST PUSH1 0x1F NOT DUP5 AND PUSH2 0x65D DUP7 PUSH2 0x439 JUMP JUMPDEST PUSH1 0x0 JUMPDEST DUP3 DUP2 LT ISZERO PUSH2 0x685 JUMPI DUP5 DUP10 ADD MLOAD DUP3 SSTORE PUSH1 0x1 DUP3 ADD SWAP2 POP PUSH1 0x20 DUP6 ADD SWAP5 POP PUSH1 0x20 DUP2 ADD SWAP1 POP PUSH2 0x660 JUMP JUMPDEST DUP7 DUP4 LT ISZERO PUSH2 0x6A2 JUMPI DUP5 DUP10 ADD MLOAD PUSH2 0x69E PUSH1 0x1F DUP10 AND DUP3 PUSH2 0x5AB JUMP JUMPDEST DUP4 SSTORE POP JUMPDEST PUSH1 0x1 PUSH1 0x2 DUP9 MUL ADD DUP9 SSTORE POP POP POP JUMPDEST POP POP POP POP POP POP JUMP JUMPDEST PUSH32 0x4E487B7100000000000000000000000000000000000000000000000000000000 PUSH1 0x0 MSTORE PUSH1 0x11 PUSH1 0x4 MSTORE PUSH1 0x24 PUSH1 0x0 REVERT JUMPDEST PUSH1 0x0 PUSH2 0x6F1 DUP3 PUSH2 0x161 JUMP JUMPDEST SWAP2 POP PUSH32 0xFFFFFFFFFFFFFFFFFFFFFFFFFFFFFFFFFFFFFFFFFFFFFFFFFFFFFFFFFFFFFFFF DUP3 SUB PUSH2 0x723 JUMPI PUSH2 0x722 PUSH2 0x6B7 JUMP JUMPDEST JUMPDEST PUSH1 0x1 DUP3 ADD SWAP1 POP SWAP2 SWAP1 POP JUMP INVALID LOG2 PUSH5 0x6970667358 0x22 SLT KECCAK256 0xF6 DUP3 SWAP3 SWAP8 LT 0xE1 JUMPI MLOAD 0x26 0xE LOG1 SIGNEXTEND 0x4F SWAP9 SWAP8 0x4A DUP5 0xCB SWAP12 PUSH1 0x49 PUSH18 0x345E646112369A52334E64736F6C63430008 SGT STOP CALLER "
		},
		"gasEstimates": {
			"creation": {
				"codeDepositCost": "378400",
				"executionCost": "infinite",
				"totalCost": "infinite"
			},
			"external": {
				"countChanges()": "2407",
				"getInfo()": "infinite",
				"setInfo(string)": "infinite"
			}
		},
		"methodIdentifiers": {
			"countChanges()": "2af2bc27",
			"getInfo()": "5a9b0b89",
			"setInfo(string)": "937f6e77"
		}
	},
	"abi": [
		{
			"inputs": [],
			"stateMutability": "nonpayable",
			"type": "constructor"
		},
		{
			"inputs": [],
			"name": "countChanges",
			"outputs": [
				{
					"internalType": "uint256",
					"name": "",
					"type": "uint256"
				}
			],
			"stateMutability": "view",
			"type": "function"
		},
		{
			"inputs": [],
			"name": "getInfo",
			"outputs": [
				{
					"internalType": "string",
					"name": "",
					"type": "string"
				}
			],
			"stateMutability": "view",
			"type": "function"
		},
		{
			"inputs": [
				{
					"internalType": "string",
					"name": "myInfo",
					"type": "string"
				}
			],
			"name": "setInfo",
			"outputs": [],
			"stateMutability": "nonpayable",
			"type": "function"
		}
	]
}