{
	"data": {
		"bytecode": {
			"linkReferences": {},
			"object": "608060405234801561001057600080fd5b50610771806100206000396000f3fe608060405234801561001057600080fd5b50600436106100365760003560e01c80635a9b0b891461003b578063937f6e7714610059575b600080fd5b610043610075565b60405161005091906101e4565b60405180910390f35b610073600480360381019061006e919061034f565b610107565b005b606060008054610084906103c7565b80601f01602080910402602001604051908101604052809291908181526020018280546100b0906103c7565b80156100fd5780601f106100d2576101008083540402835291602001916100fd565b820191906000526020600020905b8154815290600101906020018083116100e057829003601f168201915b5050505050905090565b7f305058d54db6daf26994cd687b168a24cdd9a7201462f1659782c4e429987992600082604051610139929190610491565b60405180910390a180600090816101509190610669565b5050565b600081519050919050565b600082825260208201905092915050565b60005b8381101561018e578082015181840152602081019050610173565b60008484015250505050565b6000601f19601f8301169050919050565b60006101b682610154565b6101c0818561015f565b93506101d0818560208601610170565b6101d98161019a565b840191505092915050565b600060208201905081810360008301526101fe81846101ab565b905092915050565b6000604051905090565b600080fd5b600080fd5b600080fd5b600080fd5b7f4e487b7100000000000000000000000000000000000000000000000000000000600052604160045260246000fd5b61025c8261019a565b810181811067ffffffffffffffff8211171561027b5761027a610224565b5b80604052505050565b600061028e610206565b905061029a8282610253565b919050565b600067ffffffffffffffff8211156102ba576102b9610224565b5b6102c38261019a565b9050602081019050919050565b82818337600083830152505050565b60006102f26102ed8461029f565b610284565b90508281526020810184848401111561030e5761030d61021f565b5b6103198482856102d0565b509392505050565b600082601f8301126103365761033561021a565b5b81356103468482602086016102df565b91505092915050565b60006020828403121561036557610364610210565b5b600082013567ffffffffffffffff81111561038357610382610215565b5b61038f84828501610321565b91505092915050565b7f4e487b7100000000000000000000000000000000000000000000000000000000600052602260045260246000fd5b600060028204905060018216806103df57607f821691505b6020821081036103f2576103f1610398565b5b50919050565b60008190508160005260206000209050919050565b6000815461041a816103c7565b610424818661015f565b9450600182166000811461043f576001811461045557610488565b60ff198316865281151560200286019350610488565b61045e856103f8565b60005b8381101561048057815481890152600182019150602081019050610461565b808801955050505b50505092915050565b600060408201905081810360008301526104ab818561040d565b905081810360208301526104bf81846101ab565b90509392505050565b60006020601f8301049050919050565b600082821b905092915050565b6000600883026105157fffffffffffffffffffffffffffffffffffffffffffffffffffffffffffffffff826104d8565b61051f86836104d8565b95508019841693508086168417925050509392505050565b6000819050919050565b6000819050919050565b600061056661056161055c84610537565b610541565b610537565b9050919050565b6000819050919050565b6105808361054b565b61059461058c8261056d565b8484546104e5565b825550505050565b600090565b6105a961059c565b6105b4818484610577565b505050565b5b818110156105d8576105cd6000826105a1565b6001810190506105ba565b5050565b601f82111561061d576105ee816103f8565b6105f7846104c8565b81016020851015610606578190505b61061a610612856104c8565b8301826105b9565b50505b505050565b600082821c905092915050565b600061064060001984600802610622565b1980831691505092915050565b6000610659838361062f565b9150826002028217905092915050565b61067282610154565b67ffffffffffffffff81111561068b5761068a610224565b5b61069582546103c7565b6106a08282856105dc565b600060209050601f8311600181146106d357600084156106c1578287015190505b6106cb858261064d565b865550610733565b601f1984166106e1866103f8565b60005b82811015610709578489015182556001820191506020850194506020810190506106e4565b868310156107265784890151610722601f89168261062f565b8355505b6001600288020188555050505b50505050505056fea2646970667358221220e410afeb2417399b37d6c7b8bd45fb9364d462c4c90a88e4a20474d4ef13693364736f6c63430008130033",
			"opcodes": "PUSH1 0x80 PUSH1 0x40 MSTORE CALLVALUE DUP1 ISZERO PUSH2 0x10 JUMPI PUSH1 0x0 DUP1 REVERT JUMPDEST POP PUSH2 0x771 DUP1 PUSH2 0x20 PUSH1 0x0 CODECOPY PUSH1 0x0 RETURN INVALID PUSH1 0x80 PUSH1 0x40 MSTORE CALLVALUE DUP1 ISZERO PUSH2 0x10 JUMPI PUSH1 0x0 DUP1 REVERT JUMPDEST POP PUSH1 0x4 CALLDATASIZE LT PUSH2 0x36 JUMPI PUSH1 0x0 CALLDATALOAD PUSH1 0xE0 SHR DUP1 PUSH4 0x5A9B0B89 EQ PUSH2 0x3B JUMPI DUP1 PUSH4 0x937F6E77 EQ PUSH2 0x59 JUMPI JUMPDEST PUSH1 0x0 DUP1 REVERT JUMPDEST PUSH2 0x43 PUSH2 0x75 JUMP JUMPDEST PUSH1 0x40 MLOAD PUSH2 0x50 SWAP2 SWAP1 PUSH2 0x1E4 JUMP JUMPDEST PUSH1 0x40 MLOAD DUP1 SWAP2 SUB SWAP1 RETURN JUMPDEST PUSH2 0x73 PUSH1 0x4 DUP1 CALLDATASIZE SUB DUP2 ADD SWAP1 PUSH2 0x6E SWAP2 SWAP1 PUSH2 0x34F JUMP JUMPDEST PUSH2 0x107 JUMP JUMPDEST STOP JUMPDEST PUSH1 0x60 PUSH1 0x0 DUP1 SLOAD PUSH2 0x84 SWAP1 PUSH2 0x3C7 JUMP JUMPDEST DUP1 PUSH1 0x1F ADD PUSH1 0x20 DUP1 SWAP2 DIV MUL PUSH1 0x20 ADD PUSH1 0x40 MLOAD SWAP1 DUP2 ADD PUSH1 0x40 MSTORE DUP1 SWAP3 SWAP2 SWAP1 DUP2 DUP2 MSTORE PUSH1 0x20 ADD DUP3 DUP1 SLOAD PUSH2 0xB0 SWAP1 PUSH2 0x3C7 JUMP JUMPDEST DUP1 ISZERO PUSH2 0xFD JUMPI DUP1 PUSH1 0x1F LT PUSH2 0xD2 JUMPI PUSH2 0x100 DUP1 DUP4 SLOAD DIV MUL DUP4 MSTORE SWAP2 PUSH1 0x20 ADD SWAP2 PUSH2 0xFD JUMP JUMPDEST DUP3 ADD SWAP2 SWAP1 PUSH1 0x0 MSTORE PUSH1 0x20 PUSH1 0x0 KECCAK256 SWAP1 JUMPDEST DUP2 SLOAD DUP2 MSTORE SWAP1 PUSH1 0x1 ADD SWAP1 PUSH1 0x20 ADD DUP1 DUP4 GT PUSH2 0xE0 JUMPI DUP3 SWAP1 SUB PUSH1 0x1F AND DUP3 ADD SWAP2 JUMPDEST POP POP POP POP POP SWAP1 POP SWAP1 JUMP JUMPDEST PUSH32 0x305058D54DB6DAF26994CD687B168A24CDD9A7201462F1659782C4E429987992 PUSH1 0x0 DUP3 PUSH1 0x40 MLOAD PUSH2 0x139 SWAP3 SWAP2 SWAP1 PUSH2 0x491 JUMP JUMPDEST PUSH1 0x40 MLOAD DUP1 SWAP2 SUB SWAP1 LOG1 DUP1 PUSH1 0x0 SWAP1 DUP2 PUSH2 0x150 SWAP2 SWAP1 PUSH2 0x669 JUMP JUMPDEST POP POP JUMP JUMPDEST PUSH1 0x0 DUP2 MLOAD SWAP1 POP SWAP2 SWAP1 POP JUMP JUMPDEST PUSH1 0x0 DUP3 DUP3 MSTORE PUSH1 0x20 DUP3 ADD SWAP1 POP SWAP3 SWAP2 POP POP JUMP JUMPDEST PUSH1 0x0 JUMPDEST DUP4 DUP2 LT ISZERO PUSH2 0x18E JUMPI DUP1 DUP3 ADD MLOAD DUP2 DUP5 ADD MSTORE PUSH1 0x20 DUP2 ADD SWAP1 POP PUSH2 0x173 JUMP JUMPDEST PUSH1 0x0 DUP5 DUP5 ADD MSTORE POP POP POP POP JUMP JUMPDEST PUSH1 0x0 PUSH1 0x1F NOT PUSH1 0x1F DUP4 ADD AND SWAP1 POP SWAP2 SWAP1 POP JUMP JUMPDEST PUSH1 0x0 PUSH2 0x1B6 DUP3 PUSH2 0x154 JUMP JUMPDEST PUSH2 0x1C0 DUP2 DUP6 PUSH2 0x15F JUMP JUMPDEST SWAP4 POP PUSH2 0x1D0 DUP2 DUP6 PUSH1 0x20 DUP7 ADD PUSH2 0x170 JUMP JUMPDEST PUSH2 0x1D9 DUP2 PUSH2 0x19A JUMP JUMPDEST DUP5 ADD SWAP2 POP POP SWAP3 SWAP2 POP POP JUMP JUMPDEST PUSH1 0x0 PUSH1 0x20 DUP3 ADD SWAP1 POP DUP2 DUP2 SUB PUSH1 0x0 DUP4 ADD MSTORE PUSH2 0x1FE DUP2 DUP5 PUSH2 0x1AB JUMP JUMPDEST SWAP1 POP SWAP3 SWAP2 POP POP JUMP JUMPDEST PUSH1 0x0 PUSH1 0x40 MLOAD SWAP1 POP SWAP1 JUMP JUMPDEST PUSH1 0x0 DUP1 REVERT JUMPDEST PUSH1 0x0 DUP1 REVERT JUMPDEST PUSH1 0x0 DUP1 REVERT JUMPDEST PUSH1 0x0 DUP1 REVERT JUMPDEST PUSH32 0x4E487B7100000000000000000000000000000000000000000000000000000000 PUSH1 0x0 MSTORE PUSH1 0x41 PUSH1 0x4 MSTORE PUSH1 0x24 PUSH1 0x0 REVERT JUMPDEST PUSH2 0x25C DUP3 PUSH2 0x19A JUMP JUMPDEST DUP2 ADD DUP2 DUP2 LT PUSH8 0xFFFFFFFFFFFFFFFF DUP3 GT OR ISZERO PUSH2 0x27B JUMPI PUSH2 0x27A PUSH2 0x224 JUMP JUMPDEST JUMPDEST DUP1 PUSH1 0x40 MSTORE POP POP POP JUMP JUMPDEST PUSH1 0x0 PUSH2 0x28E PUSH2 0x206 JUMP JUMPDEST SWAP1 POP PUSH2 0x29A DUP3 DUP3 PUSH2 0x253 JUMP JUMPDEST SWAP2 SWAP1 POP JUMP JUMPDEST PUSH1 0x0 PUSH8 0xFFFFFFFFFFFFFFFF DUP3 GT ISZERO PUSH2 0x2BA JUMPI PUSH2 0x2B9 PUSH2 0x224 JUMP JUMPDEST JUMPDEST PUSH2 0x2C3 DUP3 PUSH2 0x19A JUMP JUMPDEST SWAP1 POP PUSH1 0x20 DUP2 ADD SWAP1 POP SWAP2 SWAP1 POP JUMP JUMPDEST DUP3 DUP2 DUP4 CALLDATACOPY PUSH1 0x0 DUP4 DUP4 ADD MSTORE POP POP POP JUMP JUMPDEST PUSH1 0x0 PUSH2 0x2F2 PUSH2 0x2ED DUP5 PUSH2 0x29F JUMP JUMPDEST PUSH2 0x284 JUMP JUMPDEST SWAP1 POP DUP3 DUP2 MSTORE PUSH1 0x20 DUP2 ADD DUP5 DUP5 DUP5 ADD GT ISZERO PUSH2 0x30E JUMPI PUSH2 0x30D PUSH2 0x21F JUMP JUMPDEST JUMPDEST PUSH2 0x319 DUP5 DUP3 DUP6 PUSH2 0x2D0 JUMP JUMPDEST POP SWAP4 SWAP3 POP POP POP JUMP JUMPDEST PUSH1 0x0 DUP3 PUSH1 0x1F DUP4 ADD SLT PUSH2 0x336 JUMPI PUSH2 0x335 PUSH2 0x21A JUMP JUMPDEST JUMPDEST DUP2 CALLDATALOAD PUSH2 0x346 DUP5 DUP3 PUSH1 0x20 DUP7 ADD PUSH2 0x2DF JUMP JUMPDEST SWAP2 POP POP SWAP3 SWAP2 POP POP JUMP JUMPDEST PUSH1 0x0 PUSH1 0x20 DUP3 DUP5 SUB SLT ISZERO PUSH2 0x365 JUMPI PUSH2 0x364 PUSH2 0x210 JUMP JUMPDEST JUMPDEST PUSH1 0x0 DUP3 ADD CALLDATALOAD PUSH8 0xFFFFFFFFFFFFFFFF DUP2 GT ISZERO PUSH2 0x383 JUMPI PUSH2 0x382 PUSH2 0x215 JUMP JUMPDEST JUMPDEST PUSH2 0x38F DUP5 DUP3 DUP6 ADD PUSH2 0x321 JUMP JUMPDEST SWAP2 POP POP SWAP3 SWAP2 POP POP JUMP JUMPDEST PUSH32 0x4E487B7100000000000000000000000000000000000000000000000000000000 PUSH1 0x0 MSTORE PUSH1 0x22 PUSH1 0x4 MSTORE PUSH1 0x24 PUSH1 0x0 REVERT JUMPDEST PUSH1 0x0 PUSH1 0x2 DUP3 DIV SWAP1 POP PUSH1 0x1 DUP3 AND DUP1 PUSH2 0x3DF JUMPI PUSH1 0x7F DUP3 AND SWAP2 POP JUMPDEST PUSH1 0x20 DUP3 LT DUP2 SUB PUSH2 0x3F2 JUMPI PUSH2 0x3F1 PUSH2 0x398 JUMP JUMPDEST JUMPDEST POP SWAP2 SWAP1 POP JUMP JUMPDEST PUSH1 0x0 DUP2 SWAP1 POP DUP2 PUSH1 0x0 MSTORE PUSH1 0x20 PUSH1 0x0 KECCAK256 SWAP1 POP SWAP2 SWAP1 POP JUMP JUMPDEST PUSH1 0x0 DUP2 SLOAD PUSH2 0x41A DUP2 PUSH2 0x3C7 JUMP JUMPDEST PUSH2 0x424 DUP2 DUP7 PUSH2 0x15F JUMP JUMPDEST SWAP5 POP PUSH1 0x1 DUP3 AND PUSH1 0x0 DUP2 EQ PUSH2 0x43F JUMPI PUSH1 0x1 DUP2 EQ PUSH2 0x455 JUMPI PUSH2 0x488 JUMP JUMPDEST PUSH1 0xFF NOT DUP4 AND DUP7 MSTORE DUP2 ISZERO ISZERO PUSH1 0x20 MUL DUP7 ADD SWAP4 POP PUSH2 0x488 JUMP JUMPDEST PUSH2 0x45E DUP6 PUSH2 0x3F8 JUMP JUMPDEST PUSH1 0x0 JUMPDEST DUP4 DUP2 LT ISZERO PUSH2 0x480 JUMPI DUP2 SLOAD DUP2 DUP10 ADD MSTORE PUSH1 0x1 DUP3 ADD SWAP2 POP PUSH1 0x20 DUP2 ADD SWAP1 POP PUSH2 0x461 JUMP JUMPDEST DUP1 DUP9 ADD SWAP6 POP POP POP JUMPDEST POP POP POP SWAP3 SWAP2 POP POP JUMP JUMPDEST PUSH1 0x0 PUSH1 0x40 DUP3 ADD SWAP1 POP DUP2 DUP2 SUB PUSH1 0x0 DUP4 ADD MSTORE PUSH2 0x4AB DUP2 DUP6 PUSH2 0x40D JUMP JUMPDEST SWAP1 POP DUP2 DUP2 SUB PUSH1 0x20 DUP4 ADD MSTORE PUSH2 0x4BF DUP2 DUP5 PUSH2 0x1AB JUMP JUMPDEST SWAP1 POP SWAP4 SWAP3 POP POP POP JUMP JUMPDEST PUSH1 0x0 PUSH1 0x20 PUSH1 0x1F DUP4 ADD DIV SWAP1 POP SWAP2 SWAP1 POP JUMP JUMPDEST PUSH1 0x0 DUP3 DUP3 SHL SWAP1 POP SWAP3 SWAP2 POP POP JUMP JUMPDEST PUSH1 0x0 PUSH1 0x8 DUP4 MUL PUSH2 0x515 PUSH32 0xFFFFFFFFFFFFFFFFFFFFFFFFFFFFFFFFFFFFFFFFFFFFFFFFFFFFFFFFFFFFFFFF DUP3 PUSH2 0x4D8 JUMP JUMPDEST PUSH2 0x51F DUP7 DUP4 PUSH2 0x4D8 JUMP JUMPDEST SWAP6 POP DUP1 NOT DUP5 AND SWAP4 POP DUP1 DUP7 AND DUP5 OR SWAP3 POP POP POP SWAP4 SWAP3 POP POP POP JUMP JUMPDEST PUSH1 0x0 DUP2 SWAP1 POP SWAP2 SWAP1 POP JUMP JUMPDEST PUSH1 0x0 DUP2 SWAP1 POP SWAP2 SWAP1 POP JUMP JUMPDEST PUSH1 0x0 PUSH2 0x566 PUSH2 0x561 PUSH2 0x55C DUP5 PUSH2 0x537 JUMP JUMPDEST PUSH2 0x541 JUMP JUMPDEST PUSH2 0x537 JUMP JUMPDEST SWAP1 POP SWAP2 SWAP1 POP JUMP JUMPDEST PUSH1 0x0 DUP2 SWAP1 POP SWAP2 SWAP1 POP JUMP JUMPDEST PUSH2 0x580 DUP4 PUSH2 0x54B JUMP JUMPDEST PUSH2 0x594 PUSH2 0x58C DUP3 PUSH2 0x56D JUMP JUMPDEST DUP5 DUP5 SLOAD PUSH2 0x4E5 JUMP JUMPDEST DUP3 SSTORE POP POP POP POP JUMP JUMPDEST PUSH1 0x0 SWAP1 JUMP JUMPDEST PUSH2 0x5A9 PUSH2 0x59C JUMP JUMPDEST PUSH2 0x5B4 DUP2 DUP5 DUP5 PUSH2 0x577 JUMP JUMPDEST POP POP POP JUMP JUMPDEST JUMPDEST DUP2 DUP2 LT ISZERO PUSH2 0x5D8 JUMPI PUSH2 0x5CD PUSH1 0x0 DUP3 PUSH2 0x5A1 JUMP JUMPDEST PUSH1 0x1 DUP2 ADD SWAP1 POP PUSH2 0x5BA JUMP JUMPDEST POP POP JUMP JUMPDEST PUSH1 0x1F DUP3 GT ISZERO PUSH2 0x61D JUMPI PUSH2 0x5EE DUP2 PUSH2 0x3F8 JUMP JUMPDEST PUSH2 0x5F7 DUP5 PUSH2 0x4C8 JUMP JUMPDEST DUP2 ADD PUSH1 0x20 DUP6 LT ISZERO PUSH2 0x606 JUMPI DUP2 SWAP1 POP JUMPDEST PUSH2 0x61A PUSH2 0x612 DUP6 PUSH2 0x4C8 JUMP JUMPDEST DUP4 ADD DUP3 PUSH2 0x5B9 JUMP JUMPDEST POP POP JUMPDEST POP POP POP JUMP JUMPDEST PUSH1 0x0 DUP3 DUP3 SHR SWAP1 POP SWAP3 SWAP2 POP POP JUMP JUMPDEST PUSH1 0x0 PUSH2 0x640 PUSH1 0x0 NOT DUP5 PUSH1 0x8 MUL PUSH2 0x622 JUMP JUMPDEST NOT DUP1 DUP4 AND SWAP2 POP POP SWAP3 SWAP2 POP POP JUMP JUMPDEST PUSH1 0x0 PUSH2 0x659 DUP4 DUP4 PUSH2 0x62F JUMP JUMPDEST SWAP2 POP DUP3 PUSH1 0x2 MUL DUP3 OR SWAP1 POP SWAP3 SWAP2 POP POP JUMP JUMPDEST PUSH2 0x672 DUP3 PUSH2 0x154 JUMP JUMPDEST PUSH8 0xFFFFFFFFFFFFFFFF DUP2 GT ISZERO PUSH2 0x68B JUMPI PUSH2 0x68A PUSH2 0x224 JUMP JUMPDEST JUMPDEST PUSH2 0x695 DUP3 SLOAD PUSH2 0x3C7 JUMP JUMPDEST PUSH2 0x6A0 DUP3 DUP3 DUP6 PUSH2 0x5DC JUMP JUMPDEST PUSH1 0x0 PUSH1 0x20 SWAP1 POP PUSH1 0x1F DUP4 GT PUSH1 0x1 DUP2 EQ PUSH2 0x6D3 JUMPI PUSH1 0x0 DUP5 ISZERO PUSH2 0x6C1 JUMPI DUP3 DUP8 ADD MLOAD SWAP1 POP JUMPDEST PUSH2 0x6CB DUP6 DUP3 PUSH2 0x64D JUMP JUMPDEST DUP7 SSTORE POP PUSH2 0x733 JUMP JUMPDEST PUSH1 0x1F NOT DUP5 AND PUSH2 0x6E1 DUP7 PUSH2 0x3F8 JUMP JUMPDEST PUSH1 0x0 JUMPDEST DUP3 DUP2 LT ISZERO PUSH2 0x709 JUMPI DUP5 DUP10 ADD MLOAD DUP3 SSTORE PUSH1 0x1 DUP3 ADD SWAP2 POP PUSH1 0x20 DUP6 ADD SWAP5 POP PUSH1 0x20 DUP2 ADD SWAP1 POP PUSH2 0x6E4 JUMP JUMPDEST DUP7 DUP4 LT ISZERO PUSH2 0x726 JUMPI DUP5 DUP10 ADD MLOAD PUSH2 0x722 PUSH1 0x1F DUP10 AND DUP3 PUSH2 0x62F JUMP JUMPDEST DUP4 SSTORE POP JUMPDEST PUSH1 0x1 PUSH1 0x2 DUP9 MUL ADD DUP9 SSTORE POP POP POP JUMPDEST POP POP POP POP POP POP JUMP INVALID LOG2 PUSH5 0x6970667358 0x22 SLT KECCAK256 0xE4 LT 0xAF 0xEB 0x24 OR CODECOPY SWAP12 CALLDATACOPY 0xD6 0xC7 0xB8 0xBD GASLIMIT 0xFB SWAP4 PUSH5 0xD462C4C90A DUP9 0xE4 LOG2 DIV PUSH21 0xD4EF13693364736F6C634300081300330000000000 "
		},
		"gasEstimates": {
			"creation": {
				"codeDepositCost": "381000",
				"executionCost": "418",
				"totalCost": "381418"
			},
			"external": {
				"getInfo()": "infinite",
				"setInfo(string)": "infinite"
			}
		},
		"methodIdentifiers": {
			"getInfo()": "5a9b0b89",
			"setInfo(string)": "937f6e77"
		}
	},
	"abi": [
		{
			"anonymous": false,
			"inputs": [
				{
					"indexed": false,
					"internalType": "string",
					"name": "oldInfo",
					"type": "string"
				},
				{
					"indexed": false,
					"internalType": "string",
					"name": "newInfo",
					"type": "string"
				}
			],
			"name": "InfoChange",
			"type": "event"
		},
		{
			"inputs": [],
			"name": "getInfo",
			"outputs": [
				{
					"internalType": "string",
					"name": "",
					"type": "string"
				}
			],
			"stateMutability": "view",
			"type": "function"
		},
		{
			"inputs": [
				{
					"internalType": "string",
					"name": "myInfo",
					"type": "string"
				}
			],
			"name": "setInfo",
			"outputs": [],
			"stateMutability": "nonpayable",
			"type": "function"
		}
	]
}